{
	"@redstone-finance/evm-connector/contracts/data-services/MainDemoConsumerBase.sol": {
		"MainDemoConsumerBase": {
			"abi": [
				{
					"inputs": [],
					"name": "CalldataMustHaveValidPayload",
					"type": "error"
				},
				{
					"inputs": [],
					"name": "CalldataOverOrUnderFlow",
					"type": "error"
				},
				{
					"inputs": [],
					"name": "CanNotPickMedianOfEmptyArray",
					"type": "error"
				},
				{
					"inputs": [],
					"name": "DataPackageTimestampMustNotBeZero",
					"type": "error"
				},
				{
					"inputs": [],
					"name": "DataPackageTimestampsMustBeEqual",
					"type": "error"
				},
				{
					"inputs": [],
					"name": "DataTimestampCannotBeZero",
					"type": "error"
				},
				{
					"inputs": [],
					"name": "EachSignerMustProvideTheSameValue",
					"type": "error"
				},
				{
					"inputs": [],
					"name": "EmptyCalldataPointersArr",
					"type": "error"
				},
				{
					"inputs": [],
					"name": "GetDataServiceIdNotImplemented",
					"type": "error"
				},
				{
					"inputs": [],
					"name": "IncorrectUnsignedMetadataSize",
					"type": "error"
				},
				{
					"inputs": [
						{
							"internalType": "uint256",
							"name": "receivedSignersCount",
							"type": "uint256"
						},
						{
							"internalType": "uint256",
							"name": "requiredSignersCount",
							"type": "uint256"
						}
					],
					"name": "InsufficientNumberOfUniqueSigners",
					"type": "error"
				},
				{
					"inputs": [],
					"name": "InvalidCalldataPointer",
					"type": "error"
				},
				{
					"inputs": [],
					"name": "RedstonePayloadMustHaveAtLeastOneDataPackage",
					"type": "error"
				},
				{
					"inputs": [
						{
							"internalType": "address",
							"name": "receivedSigner",
							"type": "address"
						}
					],
					"name": "SignerNotAuthorised",
					"type": "error"
				},
				{
					"inputs": [
						{
							"internalType": "uint256",
							"name": "receivedTimestampSeconds",
							"type": "uint256"
						},
						{
							"internalType": "uint256",
							"name": "blockTimestamp",
							"type": "uint256"
						}
					],
					"name": "TimestampFromTooLongFuture",
					"type": "error"
				},
				{
					"inputs": [
						{
							"internalType": "uint256",
							"name": "receivedTimestampSeconds",
							"type": "uint256"
						},
						{
							"internalType": "uint256",
							"name": "blockTimestamp",
							"type": "uint256"
						}
					],
					"name": "TimestampIsTooOld",
					"type": "error"
				},
				{
					"inputs": [],
					"name": "TimestampsMustBeEqual",
					"type": "error"
				},
				{
					"inputs": [
						{
							"internalType": "uint256",
							"name": "valueByteSize",
							"type": "uint256"
						}
					],
					"name": "TooLargeValueByteSize",
					"type": "error"
				},
				{
					"inputs": [
						{
							"internalType": "uint256[]",
							"name": "values",
							"type": "uint256[]"
						}
					],
					"name": "aggregateValues",
					"outputs": [
						{
							"internalType": "uint256",
							"name": "",
							"type": "uint256"
						}
					],
					"stateMutability": "view",
					"type": "function"
				},
				{
					"inputs": [],
					"name": "extractTimestampsAndAssertAllAreEqual",
					"outputs": [
						{
							"internalType": "uint256",
							"name": "extractedTimestamp",
							"type": "uint256"
						}
					],
					"stateMutability": "pure",
					"type": "function"
				},
				{
					"inputs": [
						{
							"internalType": "address",
							"name": "signerAddress",
							"type": "address"
						}
					],
					"name": "getAuthorisedSignerIndex",
					"outputs": [
						{
							"internalType": "uint8",
							"name": "",
							"type": "uint8"
						}
					],
					"stateMutability": "view",
					"type": "function"
				},
				{
					"inputs": [],
					"name": "getDataServiceId",
					"outputs": [
						{
							"internalType": "string",
							"name": "",
							"type": "string"
						}
					],
					"stateMutability": "view",
					"type": "function"
				},
				{
					"inputs": [],
					"name": "getUniqueSignersThreshold",
					"outputs": [
						{
							"internalType": "uint8",
							"name": "",
							"type": "uint8"
						}
					],
					"stateMutability": "view",
					"type": "function"
				},
				{
					"inputs": [
						{
							"internalType": "uint256",
							"name": "receivedTimestampMilliseconds",
							"type": "uint256"
						}
					],
					"name": "validateTimestamp",
					"outputs": [],
					"stateMutability": "view",
					"type": "function"
				}
			],
			"devdoc": {
				"kind": "dev",
				"methods": {
					"aggregateValues(uint256[])": {
						"details": "This function may be overridden by the child consumer contract. It should aggregate values from different signers to a single uint value. By default, it calculates the median value",
						"params": {
							"values": "An array of uint256 values from different signers"
						},
						"returns": {
							"_0": "Result of the aggregation in the form of a single number"
						}
					},
					"getDataServiceId()": {
						"details": "This function must be implemented by the child consumer contract. It should return dataServiceId which DataServiceWrapper will use if not provided explicitly . If not overridden, value will always have to be provided explicitly in DataServiceWrapper.",
						"returns": {
							"_0": "dataServiceId being consumed by contract"
						}
					},
					"getUniqueSignersThreshold()": {
						"details": "This function should be overridden by the child consumer contract.",
						"returns": {
							"_0": "The minimum required value of unique authorised signers"
						}
					},
					"validateTimestamp(uint256)": {
						"details": "This function may be overridden by the child consumer contract. It should validate the timestamp against the current time (block.timestamp) It should revert with a helpful message if the timestamp is not valid",
						"params": {
							"receivedTimestampMilliseconds": "Timestamp extracted from calldata"
						}
					}
				},
				"version": 1
			},
			"evm": {
				"assembly": "    /* \"@redstone-finance/evm-connector/contracts/data-services/MainDemoConsumerBase.sol\":114:693  contract MainDemoConsumerBase is RedstoneConsumerNumericBase {... */\n  mstore(0x40, 0x80)\n  callvalue\n  dup1\n  iszero\n  tag_1\n  jumpi\n  0x00\n  dup1\n  revert\ntag_1:\n  pop\n  dataSize(sub_0)\n  dup1\n  dataOffset(sub_0)\n  0x00\n  codecopy\n  0x00\n  return\nstop\n\nsub_0: assembly {\n        /* \"@redstone-finance/evm-connector/contracts/data-services/MainDemoConsumerBase.sol\":114:693  contract MainDemoConsumerBase is RedstoneConsumerNumericBase {... */\n      mstore(0x40, 0x80)\n      callvalue\n      dup1\n      iszero\n      tag_1\n      jumpi\n      0x00\n      dup1\n      revert\n    tag_1:\n      pop\n      jumpi(tag_2, lt(calldatasize, 0x04))\n      shr(0xe0, calldataload(0x00))\n      dup1\n      0x3ce142f5\n      eq\n      tag_3\n      jumpi\n      dup1\n      0x55a547d5\n      eq\n      tag_4\n      jumpi\n      dup1\n      0xb24ebfcc\n      eq\n      tag_5\n      jumpi\n      dup1\n      0xc274583a\n      eq\n      tag_6\n      jumpi\n      dup1\n      0xf50b2efe\n      eq\n      tag_7\n      jumpi\n      dup1\n      0xf90c4924\n      eq\n      tag_8\n      jumpi\n    tag_2:\n      0x00\n      dup1\n      revert\n        /* \"@redstone-finance/evm-connector/contracts/data-services/MainDemoConsumerBase.sol\":407:691  function getAuthorisedSignerIndex(address signerAddress)... */\n    tag_3:\n      tag_9\n      0x04\n      dup1\n      calldatasize\n      sub\n      dup2\n      add\n      swap1\n      tag_10\n      swap2\n      swap1\n      tag_11\n      jump\t// in\n    tag_10:\n      tag_12\n      jump\t// in\n    tag_9:\n      mload(0x40)\n      tag_13\n      swap2\n      swap1\n      tag_14\n      jump\t// in\n    tag_13:\n      mload(0x40)\n      dup1\n      swap2\n      sub\n      swap1\n      return\n        /* \"@redstone-finance/evm-connector/contracts/core/CalldataExtractor.sol\":599:2010  function extractTimestampsAndAssertAllAreEqual() public pure returns (uint256 extractedTimestamp) {... */\n    tag_4:\n      tag_15\n      tag_16\n      jump\t// in\n    tag_15:\n      mload(0x40)\n      tag_17\n      swap2\n      swap1\n      tag_18\n      jump\t// in\n    tag_17:\n      mload(0x40)\n      dup1\n      swap2\n      sub\n      swap1\n      return\n        /* \"@redstone-finance/evm-connector/contracts/core/RedstoneConsumerBase.sol\":2697:2846  function aggregateValues(uint256[] memory values) public view virtual returns (uint256) {... */\n    tag_5:\n      tag_19\n      0x04\n      dup1\n      calldatasize\n      sub\n      dup2\n      add\n      swap1\n      tag_20\n      swap2\n      swap1\n      tag_21\n      jump\t// in\n    tag_20:\n      tag_22\n      jump\t// in\n    tag_19:\n      mload(0x40)\n      tag_23\n      swap2\n      swap1\n      tag_18\n      jump\t// in\n    tag_23:\n      mload(0x40)\n      dup1\n      swap2\n      sub\n      swap1\n      return\n        /* \"@redstone-finance/evm-connector/contracts/data-services/MainDemoConsumerBase.sol\":179:298  function getDataServiceId() public view virtual override returns (string memory) {... */\n    tag_6:\n      tag_24\n      tag_25\n      jump\t// in\n    tag_24:\n      mload(0x40)\n      tag_26\n      swap2\n      swap1\n      tag_27\n      jump\t// in\n    tag_26:\n      mload(0x40)\n      dup1\n      swap2\n      sub\n      swap1\n      return\n        /* \"@redstone-finance/evm-connector/contracts/core/RedstoneConsumerBase.sol\":1922:2087  function validateTimestamp(uint256 receivedTimestampMilliseconds) public view virtual {... */\n    tag_7:\n      tag_28\n      0x04\n      dup1\n      calldatasize\n      sub\n      dup2\n      add\n      swap1\n      tag_29\n      swap2\n      swap1\n      tag_30\n      jump\t// in\n    tag_29:\n      tag_31\n      jump\t// in\n    tag_28:\n      stop\n        /* \"@redstone-finance/evm-connector/contracts/data-services/MainDemoConsumerBase.sol\":302:403  function getUniqueSignersThreshold() public view virtual override returns (uint8) {... */\n    tag_8:\n      tag_32\n      tag_33\n      jump\t// in\n    tag_32:\n      mload(0x40)\n      tag_34\n      swap2\n      swap1\n      tag_14\n      jump\t// in\n    tag_34:\n      mload(0x40)\n      dup1\n      swap2\n      sub\n      swap1\n      return\n        /* \"@redstone-finance/evm-connector/contracts/data-services/MainDemoConsumerBase.sol\":407:691  function getAuthorisedSignerIndex(address signerAddress)... */\n    tag_12:\n        /* \"@redstone-finance/evm-connector/contracts/data-services/MainDemoConsumerBase.sol\":522:527  uint8 */\n      0x00\n        /* \"@redstone-finance/evm-connector/contracts/data-services/MainDemoConsumerBase.sol\":558:600  0x0C39486f770B26F5527BBBf942726537986Cd7eb */\n      0x0c39486f770b26f5527bbbf942726537986cd7eb\n        /* \"@redstone-finance/evm-connector/contracts/data-services/MainDemoConsumerBase.sol\":541:600  signerAddress == 0x0C39486f770B26F5527BBBf942726537986Cd7eb */\n      0xffffffffffffffffffffffffffffffffffffffff\n      and\n        /* \"@redstone-finance/evm-connector/contracts/data-services/MainDemoConsumerBase.sol\":541:554  signerAddress */\n      dup3\n        /* \"@redstone-finance/evm-connector/contracts/data-services/MainDemoConsumerBase.sol\":541:600  signerAddress == 0x0C39486f770B26F5527BBBf942726537986Cd7eb */\n      0xffffffffffffffffffffffffffffffffffffffff\n      and\n      sub\n        /* \"@redstone-finance/evm-connector/contracts/data-services/MainDemoConsumerBase.sol\":537:687  if (signerAddress == 0x0C39486f770B26F5527BBBf942726537986Cd7eb) {... */\n      tag_36\n      jumpi\n        /* \"@redstone-finance/evm-connector/contracts/data-services/MainDemoConsumerBase.sol\":617:618  0 */\n      0x00\n        /* \"@redstone-finance/evm-connector/contracts/data-services/MainDemoConsumerBase.sol\":610:618  return 0 */\n      swap1\n      pop\n      jump(tag_35)\n        /* \"@redstone-finance/evm-connector/contracts/data-services/MainDemoConsumerBase.sol\":537:687  if (signerAddress == 0x0C39486f770B26F5527BBBf942726537986Cd7eb) {... */\n    tag_36:\n        /* \"@redstone-finance/evm-connector/contracts/data-services/MainDemoConsumerBase.sol\":666:679  signerAddress */\n      dup2\n        /* \"@redstone-finance/evm-connector/contracts/data-services/MainDemoConsumerBase.sol\":646:680  SignerNotAuthorised(signerAddress) */\n      mload(0x40)\n      0xec459bc000000000000000000000000000000000000000000000000000000000\n      dup2\n      mstore\n      0x04\n      add\n      tag_38\n      swap2\n      swap1\n      tag_39\n      jump\t// in\n    tag_38:\n      mload(0x40)\n      dup1\n      swap2\n      sub\n      swap1\n      revert\n        /* \"@redstone-finance/evm-connector/contracts/data-services/MainDemoConsumerBase.sol\":407:691  function getAuthorisedSignerIndex(address signerAddress)... */\n    tag_35:\n      swap2\n      swap1\n      pop\n      jump\t// out\n        /* \"@redstone-finance/evm-connector/contracts/core/CalldataExtractor.sol\":599:2010  function extractTimestampsAndAssertAllAreEqual() public pure returns (uint256 extractedTimestamp) {... */\n    tag_16:\n        /* \"@redstone-finance/evm-connector/contracts/core/CalldataExtractor.sol\":669:695  uint256 extractedTimestamp */\n      0x00\n        /* \"@redstone-finance/evm-connector/contracts/core/CalldataExtractor.sol\":703:733  uint256 calldataNegativeOffset */\n      dup1\n        /* \"@redstone-finance/evm-connector/contracts/core/CalldataExtractor.sol\":736:772  _extractByteSizeOfUnsignedMetadata() */\n      tag_41\n        /* \"@redstone-finance/evm-connector/contracts/core/CalldataExtractor.sol\":736:770  _extractByteSizeOfUnsignedMetadata */\n      tag_42\n        /* \"@redstone-finance/evm-connector/contracts/core/CalldataExtractor.sol\":736:772  _extractByteSizeOfUnsignedMetadata() */\n      jump\t// in\n    tag_41:\n        /* \"@redstone-finance/evm-connector/contracts/core/CalldataExtractor.sol\":703:772  uint256 calldataNegativeOffset = _extractByteSizeOfUnsignedMetadata() */\n      swap1\n      pop\n        /* \"@redstone-finance/evm-connector/contracts/core/CalldataExtractor.sol\":778:803  uint256 dataPackagesCount */\n      0x00\n        /* \"@redstone-finance/evm-connector/contracts/core/CalldataExtractor.sol\":855:916  _extractDataPackagesCountFromCalldata(calldataNegativeOffset) */\n      tag_43\n        /* \"@redstone-finance/evm-connector/contracts/core/CalldataExtractor.sol\":893:915  calldataNegativeOffset */\n      dup3\n        /* \"@redstone-finance/evm-connector/contracts/core/CalldataExtractor.sol\":855:892  _extractDataPackagesCountFromCalldata */\n      tag_44\n        /* \"@redstone-finance/evm-connector/contracts/core/CalldataExtractor.sol\":855:916  _extractDataPackagesCountFromCalldata(calldataNegativeOffset) */\n      jump\t// in\n    tag_43:\n        /* \"@redstone-finance/evm-connector/contracts/core/CalldataExtractor.sol\":809:916  (dataPackagesCount, calldataNegativeOffset) = _extractDataPackagesCountFromCalldata(calldataNegativeOffset) */\n      dup2\n      0xffff\n      and\n      swap2\n      pop\n      dup1\n      swap4\n      pop\n      dup2\n      swap3\n      pop\n      pop\n      pop\n        /* \"@redstone-finance/evm-connector/contracts/core/CalldataExtractor.sol\":948:949  0 */\n      0x00\n        /* \"@redstone-finance/evm-connector/contracts/core/CalldataExtractor.sol\":927:944  dataPackagesCount */\n      dup2\n        /* \"@redstone-finance/evm-connector/contracts/core/CalldataExtractor.sol\":927:949  dataPackagesCount == 0 */\n      sub\n        /* \"@redstone-finance/evm-connector/contracts/core/CalldataExtractor.sol\":923:1019  if (dataPackagesCount == 0) {... */\n      tag_45\n      jumpi\n        /* \"@redstone-finance/evm-connector/contracts/core/CalldataExtractor.sol\":966:1012  RedstonePayloadMustHaveAtLeastOneDataPackage() */\n      mload(0x40)\n      0x8552ff3c00000000000000000000000000000000000000000000000000000000\n      dup2\n      mstore\n      0x04\n      add\n      mload(0x40)\n      dup1\n      swap2\n      sub\n      swap1\n      revert\n        /* \"@redstone-finance/evm-connector/contracts/core/CalldataExtractor.sol\":923:1019  if (dataPackagesCount == 0) {... */\n    tag_45:\n        /* \"@redstone-finance/evm-connector/contracts/core/CalldataExtractor.sol\":1030:1054  uint256 dataPackageIndex */\n      0x00\n        /* \"@redstone-finance/evm-connector/contracts/core/CalldataExtractor.sol\":1025:2006  for (uint256 dataPackageIndex = 0; dataPackageIndex < dataPackagesCount; dataPackageIndex++) {... */\n    tag_46:\n        /* \"@redstone-finance/evm-connector/contracts/core/CalldataExtractor.sol\":1079:1096  dataPackagesCount */\n      dup2\n        /* \"@redstone-finance/evm-connector/contracts/core/CalldataExtractor.sol\":1060:1076  dataPackageIndex */\n      dup2\n        /* \"@redstone-finance/evm-connector/contracts/core/CalldataExtractor.sol\":1060:1096  dataPackageIndex < dataPackagesCount */\n      lt\n        /* \"@redstone-finance/evm-connector/contracts/core/CalldataExtractor.sol\":1025:2006  for (uint256 dataPackageIndex = 0; dataPackageIndex < dataPackagesCount; dataPackageIndex++) {... */\n      iszero\n      tag_47\n      jumpi\n        /* \"@redstone-finance/evm-connector/contracts/core/CalldataExtractor.sol\":1126:1153  uint256 dataPackageByteSize */\n      0x00\n        /* \"@redstone-finance/evm-connector/contracts/core/CalldataExtractor.sol\":1156:1203  _getDataPackageByteSize(calldataNegativeOffset) */\n      tag_49\n        /* \"@redstone-finance/evm-connector/contracts/core/CalldataExtractor.sol\":1180:1202  calldataNegativeOffset */\n      dup5\n        /* \"@redstone-finance/evm-connector/contracts/core/CalldataExtractor.sol\":1156:1179  _getDataPackageByteSize */\n      tag_50\n        /* \"@redstone-finance/evm-connector/contracts/core/CalldataExtractor.sol\":1156:1203  _getDataPackageByteSize(calldataNegativeOffset) */\n      jump\t// in\n    tag_49:\n        /* \"@redstone-finance/evm-connector/contracts/core/CalldataExtractor.sol\":1126:1203  uint256 dataPackageByteSize = _getDataPackageByteSize(calldataNegativeOffset) */\n      swap1\n      pop\n        /* \"@redstone-finance/evm-connector/contracts/core/CalldataExtractor.sol\":1271:1298  uint48 dataPackageTimestamp */\n      0x00\n        /* \"@redstone-finance/evm-connector/contracts/core/CalldataExtractor.sol\":1348:1379  uint256 timestampNegativeOffset */\n      dup1\n        /* \"@redstone-finance/evm-connector/contracts/core/RedstoneConstants.sol\":1771:1774  104 */\n      0x68\n        /* \"@redstone-finance/evm-connector/contracts/core/CalldataExtractor.sol\":1383:1405  calldataNegativeOffset */\n      dup7\n        /* \"@redstone-finance/evm-connector/contracts/core/CalldataExtractor.sol\":1383:1471  calldataNegativeOffset + TIMESTAMP_NEGATIVE_OFFSET_IN_DATA_PACKAGE_WITH_STANDARD_SLOT_BS */\n      tag_51\n      swap2\n      swap1\n      tag_52\n      jump\t// in\n    tag_51:\n        /* \"@redstone-finance/evm-connector/contracts/core/CalldataExtractor.sol\":1348:1472  uint256 timestampNegativeOffset = (calldataNegativeOffset + TIMESTAMP_NEGATIVE_OFFSET_IN_DATA_PACKAGE_WITH_STANDARD_SLOT_BS) */\n      swap1\n      pop\n        /* \"@redstone-finance/evm-connector/contracts/core/CalldataExtractor.sol\":1480:1503  uint256 timestampOffset */\n      0x00\n        /* \"@redstone-finance/evm-connector/contracts/core/CalldataExtractor.sol\":1524:1547  timestampNegativeOffset */\n      dup2\n        /* \"@redstone-finance/evm-connector/contracts/core/CalldataExtractor.sol\":1506:1514  msg.data */\n      0x00\n      calldatasize\n        /* \"@redstone-finance/evm-connector/contracts/core/CalldataExtractor.sol\":1506:1521  msg.data.length */\n      swap1\n      pop\n        /* \"@redstone-finance/evm-connector/contracts/core/CalldataExtractor.sol\":1506:1547  msg.data.length - timestampNegativeOffset */\n      tag_53\n      swap2\n      swap1\n      tag_54\n      jump\t// in\n    tag_53:\n        /* \"@redstone-finance/evm-connector/contracts/core/CalldataExtractor.sol\":1480:1547  uint256 timestampOffset = msg.data.length - timestampNegativeOffset */\n      swap1\n      pop\n        /* \"@redstone-finance/evm-connector/contracts/core/CalldataExtractor.sol\":1611:1626  timestampOffset */\n      dup1\n        /* \"@redstone-finance/evm-connector/contracts/core/CalldataExtractor.sol\":1598:1627  calldataload(timestampOffset) */\n      calldataload\n        /* \"@redstone-finance/evm-connector/contracts/core/CalldataExtractor.sol\":1574:1627  dataPackageTimestamp := calldataload(timestampOffset) */\n      swap3\n      pop\n        /* \"@redstone-finance/evm-connector/contracts/core/CalldataExtractor.sol\":1671:1672  0 */\n      0x00\n        /* \"@redstone-finance/evm-connector/contracts/core/CalldataExtractor.sol\":1647:1667  dataPackageTimestamp */\n      dup4\n        /* \"@redstone-finance/evm-connector/contracts/core/CalldataExtractor.sol\":1647:1672  dataPackageTimestamp == 0 */\n      0xffffffffffff\n      and\n      sub\n        /* \"@redstone-finance/evm-connector/contracts/core/CalldataExtractor.sol\":1643:1735  if (dataPackageTimestamp == 0) {... */\n      tag_55\n      jumpi\n        /* \"@redstone-finance/evm-connector/contracts/core/CalldataExtractor.sol\":1691:1726  DataPackageTimestampMustNotBeZero() */\n      mload(0x40)\n      0x336dc9d000000000000000000000000000000000000000000000000000000000\n      dup2\n      mstore\n      0x04\n      add\n      mload(0x40)\n      dup1\n      swap2\n      sub\n      swap1\n      revert\n        /* \"@redstone-finance/evm-connector/contracts/core/CalldataExtractor.sol\":1643:1735  if (dataPackageTimestamp == 0) {... */\n    tag_55:\n        /* \"@redstone-finance/evm-connector/contracts/core/CalldataExtractor.sol\":1769:1770  0 */\n      0x00\n        /* \"@redstone-finance/evm-connector/contracts/core/CalldataExtractor.sol\":1747:1765  extractedTimestamp */\n      dup9\n        /* \"@redstone-finance/evm-connector/contracts/core/CalldataExtractor.sol\":1747:1770  extractedTimestamp == 0 */\n      sub\n        /* \"@redstone-finance/evm-connector/contracts/core/CalldataExtractor.sol\":1743:1946  if (extractedTimestamp == 0) {... */\n      tag_56\n      jumpi\n        /* \"@redstone-finance/evm-connector/contracts/core/CalldataExtractor.sol\":1803:1823  dataPackageTimestamp */\n      dup3\n        /* \"@redstone-finance/evm-connector/contracts/core/CalldataExtractor.sol\":1782:1823  extractedTimestamp = dataPackageTimestamp */\n      0xffffffffffff\n      and\n      swap8\n      pop\n        /* \"@redstone-finance/evm-connector/contracts/core/CalldataExtractor.sol\":1743:1946  if (extractedTimestamp == 0) {... */\n      jump(tag_57)\n    tag_56:\n        /* \"@redstone-finance/evm-connector/contracts/core/CalldataExtractor.sol\":1866:1884  extractedTimestamp */\n      dup8\n        /* \"@redstone-finance/evm-connector/contracts/core/CalldataExtractor.sol\":1842:1862  dataPackageTimestamp */\n      dup4\n        /* \"@redstone-finance/evm-connector/contracts/core/CalldataExtractor.sol\":1842:1884  dataPackageTimestamp != extractedTimestamp */\n      0xffffffffffff\n      and\n      eq\n        /* \"@redstone-finance/evm-connector/contracts/core/CalldataExtractor.sol\":1838:1946  if (dataPackageTimestamp != extractedTimestamp) {... */\n      tag_58\n      jumpi\n        /* \"@redstone-finance/evm-connector/contracts/core/CalldataExtractor.sol\":1903:1937  DataPackageTimestampsMustBeEqual() */\n      mload(0x40)\n      0xd9d1f46500000000000000000000000000000000000000000000000000000000\n      dup2\n      mstore\n      0x04\n      add\n      mload(0x40)\n      dup1\n      swap2\n      sub\n      swap1\n      revert\n        /* \"@redstone-finance/evm-connector/contracts/core/CalldataExtractor.sol\":1838:1946  if (dataPackageTimestamp != extractedTimestamp) {... */\n    tag_58:\n        /* \"@redstone-finance/evm-connector/contracts/core/CalldataExtractor.sol\":1743:1946  if (extractedTimestamp == 0) {... */\n    tag_57:\n        /* \"@redstone-finance/evm-connector/contracts/core/CalldataExtractor.sol\":1980:1999  dataPackageByteSize */\n      dup4\n        /* \"@redstone-finance/evm-connector/contracts/core/CalldataExtractor.sol\":1954:1999  calldataNegativeOffset += dataPackageByteSize */\n      dup8\n      tag_59\n      swap2\n      swap1\n      tag_52\n      jump\t// in\n    tag_59:\n      swap7\n      pop\n        /* \"@redstone-finance/evm-connector/contracts/core/CalldataExtractor.sol\":1118:2006  {... */\n      pop\n      pop\n      pop\n      pop\n        /* \"@redstone-finance/evm-connector/contracts/core/CalldataExtractor.sol\":1098:1116  dataPackageIndex++ */\n      dup1\n      dup1\n      0x01\n      add\n      swap2\n      pop\n      pop\n        /* \"@redstone-finance/evm-connector/contracts/core/CalldataExtractor.sol\":1025:2006  for (uint256 dataPackageIndex = 0; dataPackageIndex < dataPackagesCount; dataPackageIndex++) {... */\n      jump(tag_46)\n    tag_47:\n      pop\n        /* \"@redstone-finance/evm-connector/contracts/core/CalldataExtractor.sol\":697:2010  {... */\n      pop\n      pop\n        /* \"@redstone-finance/evm-connector/contracts/core/CalldataExtractor.sol\":599:2010  function extractTimestampsAndAssertAllAreEqual() public pure returns (uint256 extractedTimestamp) {... */\n      swap1\n      jump\t// out\n        /* \"@redstone-finance/evm-connector/contracts/core/RedstoneConsumerBase.sol\":2697:2846  function aggregateValues(uint256[] memory values) public view virtual returns (uint256) {... */\n    tag_22:\n        /* \"@redstone-finance/evm-connector/contracts/core/RedstoneConsumerBase.sol\":2776:2783  uint256 */\n      0x00\n        /* \"@redstone-finance/evm-connector/contracts/core/RedstoneConsumerBase.sol\":2798:2841  RedstoneDefaultsLib.aggregateValues(values) */\n      tag_61\n        /* \"@redstone-finance/evm-connector/contracts/core/RedstoneConsumerBase.sol\":2834:2840  values */\n      dup3\n        /* \"@redstone-finance/evm-connector/contracts/core/RedstoneConsumerBase.sol\":2798:2833  RedstoneDefaultsLib.aggregateValues */\n      tag_62\n        /* \"@redstone-finance/evm-connector/contracts/core/RedstoneConsumerBase.sol\":2798:2841  RedstoneDefaultsLib.aggregateValues(values) */\n      jump\t// in\n    tag_61:\n        /* \"@redstone-finance/evm-connector/contracts/core/RedstoneConsumerBase.sol\":2791:2841  return RedstoneDefaultsLib.aggregateValues(values) */\n      swap1\n      pop\n        /* \"@redstone-finance/evm-connector/contracts/core/RedstoneConsumerBase.sol\":2697:2846  function aggregateValues(uint256[] memory values) public view virtual returns (uint256) {... */\n      swap2\n      swap1\n      pop\n      jump\t// out\n        /* \"@redstone-finance/evm-connector/contracts/data-services/MainDemoConsumerBase.sol\":179:298  function getDataServiceId() public view virtual override returns (string memory) {... */\n    tag_25:\n        /* \"@redstone-finance/evm-connector/contracts/data-services/MainDemoConsumerBase.sol\":245:258  string memory */\n      0x60\n        /* \"@redstone-finance/evm-connector/contracts/data-services/MainDemoConsumerBase.sol\":266:293  return \"redstone-main-demo\" */\n      mload(0x40)\n      dup1\n      0x40\n      add\n      0x40\n      mstore\n      dup1\n      0x12\n      dup2\n      mstore\n      0x20\n      add\n      0x72656473746f6e652d6d61696e2d64656d6f0000000000000000000000000000\n      dup2\n      mstore\n      pop\n      swap1\n      pop\n        /* \"@redstone-finance/evm-connector/contracts/data-services/MainDemoConsumerBase.sol\":179:298  function getDataServiceId() public view virtual override returns (string memory) {... */\n      swap1\n      jump\t// out\n        /* \"@redstone-finance/evm-connector/contracts/core/RedstoneConsumerBase.sol\":1922:2087  function validateTimestamp(uint256 receivedTimestampMilliseconds) public view virtual {... */\n    tag_31:\n        /* \"@redstone-finance/evm-connector/contracts/core/RedstoneConsumerBase.sol\":2014:2082  RedstoneDefaultsLib.validateTimestamp(receivedTimestampMilliseconds) */\n      tag_65\n        /* \"@redstone-finance/evm-connector/contracts/core/RedstoneConsumerBase.sol\":2052:2081  receivedTimestampMilliseconds */\n      dup2\n        /* \"@redstone-finance/evm-connector/contracts/core/RedstoneConsumerBase.sol\":2014:2051  RedstoneDefaultsLib.validateTimestamp */\n      tag_66\n        /* \"@redstone-finance/evm-connector/contracts/core/RedstoneConsumerBase.sol\":2014:2082  RedstoneDefaultsLib.validateTimestamp(receivedTimestampMilliseconds) */\n      jump\t// in\n    tag_65:\n        /* \"@redstone-finance/evm-connector/contracts/core/RedstoneConsumerBase.sol\":1922:2087  function validateTimestamp(uint256 receivedTimestampMilliseconds) public view virtual {... */\n      pop\n      jump\t// out\n        /* \"@redstone-finance/evm-connector/contracts/data-services/MainDemoConsumerBase.sol\":302:403  function getUniqueSignersThreshold() public view virtual override returns (uint8) {... */\n    tag_33:\n        /* \"@redstone-finance/evm-connector/contracts/data-services/MainDemoConsumerBase.sol\":377:382  uint8 */\n      0x00\n        /* \"@redstone-finance/evm-connector/contracts/data-services/MainDemoConsumerBase.sol\":397:398  1 */\n      0x01\n        /* \"@redstone-finance/evm-connector/contracts/data-services/MainDemoConsumerBase.sol\":390:398  return 1 */\n      swap1\n      pop\n        /* \"@redstone-finance/evm-connector/contracts/data-services/MainDemoConsumerBase.sol\":302:403  function getUniqueSignersThreshold() public view virtual override returns (uint8) {... */\n      swap1\n      jump\t// out\n        /* \"@redstone-finance/evm-connector/contracts/core/CalldataExtractor.sol\":2410:3579  function _extractByteSizeOfUnsignedMetadata() internal pure returns (uint256) {... */\n    tag_42:\n        /* \"@redstone-finance/evm-connector/contracts/core/CalldataExtractor.sol\":2479:2486  uint256 */\n      0x00\n        /* \"@redstone-finance/evm-connector/contracts/core/CalldataExtractor.sol\":2556:2583  bool hasValidRedstoneMarker */\n      dup1\n        /* \"@redstone-finance/evm-connector/contracts/core/CalldataExtractor.sol\":2666:2682  STANDARD_SLOT_BS */\n      0x20\n        /* \"@redstone-finance/evm-connector/contracts/core/CalldataExtractor.sol\":2650:2664  calldatasize() */\n      calldatasize\n        /* \"@redstone-finance/evm-connector/contracts/core/CalldataExtractor.sol\":2646:2683  sub(calldatasize(), STANDARD_SLOT_BS) */\n      sub\n        /* \"@redstone-finance/evm-connector/contracts/core/CalldataExtractor.sol\":2633:2684  calldataload(sub(calldatasize(), STANDARD_SLOT_BS)) */\n      calldataload\n        /* \"@redstone-finance/evm-connector/contracts/core/CalldataExtractor.sol\":2784:2804  REDSTONE_MARKER_MASK */\n      0x02ed57011e0000\n        /* \"@redstone-finance/evm-connector/contracts/core/CalldataExtractor.sol\":2763:2782  calldataLast32Bytes */\n      dup2\n        /* \"@redstone-finance/evm-connector/contracts/core/CalldataExtractor.sol\":2759:2805  and(calldataLast32Bytes, REDSTONE_MARKER_MASK) */\n      and\n        /* \"@redstone-finance/evm-connector/contracts/core/CalldataExtractor.sol\":2729:2749  REDSTONE_MARKER_MASK */\n      0x02ed57011e0000\n        /* \"@redstone-finance/evm-connector/contracts/core/CalldataExtractor.sol\":2717:2813  eq(... */\n      eq\n        /* \"@redstone-finance/evm-connector/contracts/core/CalldataExtractor.sol\":2691:2813  hasValidRedstoneMarker := eq(... */\n      swap2\n      pop\n        /* \"@redstone-finance/evm-connector/contracts/core/CalldataExtractor.sol\":2598:2819  {... */\n      pop\n        /* \"@redstone-finance/evm-connector/contracts/core/CalldataExtractor.sol\":2829:2851  hasValidRedstoneMarker */\n      dup1\n        /* \"@redstone-finance/evm-connector/contracts/core/CalldataExtractor.sol\":2824:2905  if (!hasValidRedstoneMarker) {... */\n      tag_69\n      jumpi\n        /* \"@redstone-finance/evm-connector/contracts/core/CalldataExtractor.sol\":2868:2898  CalldataMustHaveValidPayload() */\n      mload(0x40)\n      0xe7764c9e00000000000000000000000000000000000000000000000000000000\n      dup2\n      mstore\n      0x04\n      add\n      mload(0x40)\n      dup1\n      swap2\n      sub\n      swap1\n      revert\n        /* \"@redstone-finance/evm-connector/contracts/core/CalldataExtractor.sol\":2824:2905  if (!hasValidRedstoneMarker) {... */\n    tag_69:\n        /* \"@redstone-finance/evm-connector/contracts/core/CalldataExtractor.sol\":2987:3018  uint24 unsignedMetadataByteSize */\n      0x00\n        /* \"@redstone-finance/evm-connector/contracts/core/CalldataExtractor.sol\":3071:3079  msg.data */\n      dup1\n      calldatasize\n        /* \"@redstone-finance/evm-connector/contracts/core/CalldataExtractor.sol\":3071:3086  msg.data.length */\n      swap1\n      pop\n        /* \"@redstone-finance/evm-connector/contracts/core/RedstoneConstants.sol\":2230:2232  41 */\n      0x29\n        /* \"@redstone-finance/evm-connector/contracts/core/CalldataExtractor.sol\":3028:3086  REDSTONE_MARKER_BS_PLUS_STANDARD_SLOT_BS > msg.data.length */\n      gt\n        /* \"@redstone-finance/evm-connector/contracts/core/CalldataExtractor.sol\":3024:3135  if (REDSTONE_MARKER_BS_PLUS_STANDARD_SLOT_BS > msg.data.length) {... */\n      iszero\n      tag_70\n      jumpi\n        /* \"@redstone-finance/evm-connector/contracts/core/CalldataExtractor.sol\":3103:3128  CalldataOverOrUnderFlow() */\n      mload(0x40)\n      0x5796f78a00000000000000000000000000000000000000000000000000000000\n      dup2\n      mstore\n      0x04\n      add\n      mload(0x40)\n      dup1\n      swap2\n      sub\n      swap1\n      revert\n        /* \"@redstone-finance/evm-connector/contracts/core/CalldataExtractor.sol\":3024:3135  if (REDSTONE_MARKER_BS_PLUS_STANDARD_SLOT_BS > msg.data.length) {... */\n    tag_70:\n        /* \"@redstone-finance/evm-connector/contracts/core/CalldataExtractor.sol\":3227:3267  REDSTONE_MARKER_BS_PLUS_STANDARD_SLOT_BS */\n      0x29\n        /* \"@redstone-finance/evm-connector/contracts/core/CalldataExtractor.sol\":3211:3225  calldatasize() */\n      calldatasize\n        /* \"@redstone-finance/evm-connector/contracts/core/CalldataExtractor.sol\":3207:3268  sub(calldatasize(), REDSTONE_MARKER_BS_PLUS_STANDARD_SLOT_BS) */\n      sub\n        /* \"@redstone-finance/evm-connector/contracts/core/CalldataExtractor.sol\":3185:3276  calldataload(... */\n      calldataload\n        /* \"@redstone-finance/evm-connector/contracts/core/CalldataExtractor.sol\":3157:3276  unsignedMetadataByteSize := calldataload(... */\n      swap1\n      pop\n        /* \"@redstone-finance/evm-connector/contracts/core/CalldataExtractor.sol\":3287:3317  uint256 calldataNegativeOffset */\n      0x00\n        /* \"@redstone-finance/evm-connector/contracts/core/RedstoneConstants.sol\":1479:1480  9 */\n      0x09\n        /* \"@redstone-finance/evm-connector/contracts/core/RedstoneConstants.sol\":1427:1428  3 */\n      0x03\n        /* \"@redstone-finance/evm-connector/contracts/core/CalldataExtractor.sol\":3320:3344  unsignedMetadataByteSize */\n      dup4\n        /* \"@redstone-finance/evm-connector/contracts/core/CalldataExtractor.sol\":3320:3383  unsignedMetadataByteSize... */\n      0xffffff\n      and\n      tag_71\n      swap2\n      swap1\n      tag_52\n      jump\t// in\n    tag_71:\n        /* \"@redstone-finance/evm-connector/contracts/core/CalldataExtractor.sol\":3320:3410  unsignedMetadataByteSize... */\n      tag_72\n      swap2\n      swap1\n      tag_52\n      jump\t// in\n    tag_72:\n        /* \"@redstone-finance/evm-connector/contracts/core/CalldataExtractor.sol\":3287:3410  uint256 calldataNegativeOffset = unsignedMetadataByteSize... */\n      swap1\n      pop\n        /* \"@redstone-finance/evm-connector/contracts/core/CalldataExtractor.sol\":3470:3478  msg.data */\n      0x00\n      calldatasize\n        /* \"@redstone-finance/evm-connector/contracts/core/CalldataExtractor.sol\":3470:3485  msg.data.length */\n      swap1\n      pop\n        /* \"@redstone-finance/evm-connector/contracts/core/RedstoneConstants.sol\":1129:1130  2 */\n      0x02\n        /* \"@redstone-finance/evm-connector/contracts/core/CalldataExtractor.sol\":3420:3442  calldataNegativeOffset */\n      dup3\n        /* \"@redstone-finance/evm-connector/contracts/core/CalldataExtractor.sol\":3420:3467  calldataNegativeOffset + DATA_PACKAGES_COUNT_BS */\n      tag_73\n      swap2\n      swap1\n      tag_52\n      jump\t// in\n    tag_73:\n        /* \"@redstone-finance/evm-connector/contracts/core/CalldataExtractor.sol\":3420:3485  calldataNegativeOffset + DATA_PACKAGES_COUNT_BS > msg.data.length */\n      gt\n        /* \"@redstone-finance/evm-connector/contracts/core/CalldataExtractor.sol\":3416:3540  if (calldataNegativeOffset + DATA_PACKAGES_COUNT_BS > msg.data.length) {... */\n      iszero\n      tag_74\n      jumpi\n        /* \"@redstone-finance/evm-connector/contracts/core/CalldataExtractor.sol\":3502:3533  IncorrectUnsignedMetadataSize() */\n      mload(0x40)\n      0xc30a7bd700000000000000000000000000000000000000000000000000000000\n      dup2\n      mstore\n      0x04\n      add\n      mload(0x40)\n      dup1\n      swap2\n      sub\n      swap1\n      revert\n        /* \"@redstone-finance/evm-connector/contracts/core/CalldataExtractor.sol\":3416:3540  if (calldataNegativeOffset + DATA_PACKAGES_COUNT_BS > msg.data.length) {... */\n    tag_74:\n        /* \"@redstone-finance/evm-connector/contracts/core/CalldataExtractor.sol\":3552:3574  calldataNegativeOffset */\n      dup1\n        /* \"@redstone-finance/evm-connector/contracts/core/CalldataExtractor.sol\":3545:3574  return calldataNegativeOffset */\n      swap4\n      pop\n      pop\n      pop\n      pop\n        /* \"@redstone-finance/evm-connector/contracts/core/CalldataExtractor.sol\":2410:3579  function _extractByteSizeOfUnsignedMetadata() internal pure returns (uint256) {... */\n      swap1\n      jump\t// out\n        /* \"@redstone-finance/evm-connector/contracts/core/CalldataExtractor.sol\":3661:4273  function _extractDataPackagesCountFromCalldata(uint256 calldataNegativeOffset)... */\n    tag_44:\n        /* \"@redstone-finance/evm-connector/contracts/core/CalldataExtractor.sol\":3775:3799  uint16 dataPackagesCount */\n      0x00\n        /* \"@redstone-finance/evm-connector/contracts/core/CalldataExtractor.sol\":3801:3835  uint256 nextCalldataNegativeOffset */\n      dup1\n        /* \"@redstone-finance/evm-connector/contracts/core/CalldataExtractor.sol\":3845:3891  uint256 calldataNegativeOffsetWithStandardSlot */\n      0x00\n        /* \"@redstone-finance/evm-connector/contracts/core/RedstoneConstants.sol\":524:526  32 */\n      0x20\n        /* \"@redstone-finance/evm-connector/contracts/core/CalldataExtractor.sol\":3894:3916  calldataNegativeOffset */\n      dup5\n        /* \"@redstone-finance/evm-connector/contracts/core/CalldataExtractor.sol\":3894:3935  calldataNegativeOffset + STANDARD_SLOT_BS */\n      tag_76\n      swap2\n      swap1\n      tag_52\n      jump\t// in\n    tag_76:\n        /* \"@redstone-finance/evm-connector/contracts/core/CalldataExtractor.sol\":3845:3935  uint256 calldataNegativeOffsetWithStandardSlot = calldataNegativeOffset + STANDARD_SLOT_BS */\n      swap1\n      pop\n        /* \"@redstone-finance/evm-connector/contracts/core/CalldataExtractor.sol\":3986:3994  msg.data */\n      0x00\n      calldatasize\n        /* \"@redstone-finance/evm-connector/contracts/core/CalldataExtractor.sol\":3986:4001  msg.data.length */\n      swap1\n      pop\n        /* \"@redstone-finance/evm-connector/contracts/core/CalldataExtractor.sol\":3945:3983  calldataNegativeOffsetWithStandardSlot */\n      dup2\n        /* \"@redstone-finance/evm-connector/contracts/core/CalldataExtractor.sol\":3945:4001  calldataNegativeOffsetWithStandardSlot > msg.data.length */\n      gt\n        /* \"@redstone-finance/evm-connector/contracts/core/CalldataExtractor.sol\":3941:4050  if (calldataNegativeOffsetWithStandardSlot > msg.data.length) {... */\n      iszero\n      tag_77\n      jumpi\n        /* \"@redstone-finance/evm-connector/contracts/core/CalldataExtractor.sol\":4018:4043  CalldataOverOrUnderFlow() */\n      mload(0x40)\n      0x5796f78a00000000000000000000000000000000000000000000000000000000\n      dup2\n      mstore\n      0x04\n      add\n      mload(0x40)\n      dup1\n      swap2\n      sub\n      swap1\n      revert\n        /* \"@redstone-finance/evm-connector/contracts/core/CalldataExtractor.sol\":3941:4050  if (calldataNegativeOffsetWithStandardSlot > msg.data.length) {... */\n    tag_77:\n        /* \"@redstone-finance/evm-connector/contracts/core/CalldataExtractor.sol\":4135:4173  calldataNegativeOffsetWithStandardSlot */\n      dup1\n        /* \"@redstone-finance/evm-connector/contracts/core/CalldataExtractor.sol\":4119:4133  calldatasize() */\n      calldatasize\n        /* \"@redstone-finance/evm-connector/contracts/core/CalldataExtractor.sol\":4115:4174  sub(calldatasize(), calldataNegativeOffsetWithStandardSlot) */\n      sub\n        /* \"@redstone-finance/evm-connector/contracts/core/CalldataExtractor.sol\":4093:4182  calldataload(... */\n      calldataload\n        /* \"@redstone-finance/evm-connector/contracts/core/CalldataExtractor.sol\":4072:4182  dataPackagesCount := calldataload(... */\n      swap3\n      pop\n        /* \"@redstone-finance/evm-connector/contracts/core/CalldataExtractor.sol\":4201:4218  dataPackagesCount */\n      dup3\n        /* \"@redstone-finance/evm-connector/contracts/core/RedstoneConstants.sol\":1129:1130  2 */\n      0x02\n        /* \"@redstone-finance/evm-connector/contracts/core/CalldataExtractor.sol\":4220:4242  calldataNegativeOffset */\n      dup6\n        /* \"@redstone-finance/evm-connector/contracts/core/CalldataExtractor.sol\":4220:4267  calldataNegativeOffset + DATA_PACKAGES_COUNT_BS */\n      tag_78\n      swap2\n      swap1\n      tag_52\n      jump\t// in\n    tag_78:\n        /* \"@redstone-finance/evm-connector/contracts/core/CalldataExtractor.sol\":4193:4268  return (dataPackagesCount, calldataNegativeOffset + DATA_PACKAGES_COUNT_BS) */\n      swap3\n      pop\n      swap3\n      pop\n      pop\n        /* \"@redstone-finance/evm-connector/contracts/core/CalldataExtractor.sol\":3661:4273  function _extractDataPackagesCountFromCalldata(uint256 calldataNegativeOffset)... */\n      swap2\n      pop\n      swap2\n      jump\t// out\n        /* \"@redstone-finance/evm-connector/contracts/core/CalldataExtractor.sol\":2014:2406  function _getDataPackageByteSize(uint256 calldataNegativeOffset) internal pure returns (uint256) {... */\n    tag_50:\n        /* \"@redstone-finance/evm-connector/contracts/core/CalldataExtractor.sol\":2102:2109  uint256 */\n      0x00\n        /* \"@redstone-finance/evm-connector/contracts/core/CalldataExtractor.sol\":2125:2148  uint256 dataPointsCount */\n      dup1\n        /* \"@redstone-finance/evm-connector/contracts/core/CalldataExtractor.sol\":2156:2190  uint256 eachDataPointValueByteSize */\n      0x00\n        /* \"@redstone-finance/evm-connector/contracts/core/CalldataExtractor.sol\":2199:2262  _extractDataPointsDetailsForDataPackage(calldataNegativeOffset) */\n      tag_80\n        /* \"@redstone-finance/evm-connector/contracts/core/CalldataExtractor.sol\":2239:2261  calldataNegativeOffset */\n      dup5\n        /* \"@redstone-finance/evm-connector/contracts/core/CalldataExtractor.sol\":2199:2238  _extractDataPointsDetailsForDataPackage */\n      tag_81\n        /* \"@redstone-finance/evm-connector/contracts/core/CalldataExtractor.sol\":2199:2262  _extractDataPointsDetailsForDataPackage(calldataNegativeOffset) */\n      jump\t// in\n    tag_80:\n        /* \"@redstone-finance/evm-connector/contracts/core/CalldataExtractor.sol\":2117:2262  (... */\n      swap2\n      pop\n      swap2\n      pop\n        /* \"@redstone-finance/evm-connector/contracts/core/RedstoneConstants.sol\":1926:1928  78 */\n      0x4e\n        /* \"@redstone-finance/evm-connector/contracts/core/CalldataExtractor.sol\":2330:2356  eachDataPointValueByteSize */\n      dup2\n        /* \"@redstone-finance/evm-connector/contracts/core/RedstoneConstants.sol\":1300:1302  32 */\n      0x20\n        /* \"@redstone-finance/evm-connector/contracts/core/CalldataExtractor.sol\":2307:2356  DATA_POINT_SYMBOL_BS + eachDataPointValueByteSize */\n      tag_82\n      swap2\n      swap1\n      tag_52\n      jump\t// in\n    tag_82:\n        /* \"@redstone-finance/evm-connector/contracts/core/CalldataExtractor.sol\":2282:2297  dataPointsCount */\n      dup4\n        /* \"@redstone-finance/evm-connector/contracts/core/CalldataExtractor.sol\":2282:2357  dataPointsCount *... */\n      tag_83\n      swap2\n      swap1\n      tag_84\n      jump\t// in\n    tag_83:\n        /* \"@redstone-finance/evm-connector/contracts/core/CalldataExtractor.sol\":2282:2401  dataPointsCount *... */\n      tag_85\n      swap2\n      swap1\n      tag_52\n      jump\t// in\n    tag_85:\n        /* \"@redstone-finance/evm-connector/contracts/core/CalldataExtractor.sol\":2269:2401  return... */\n      swap3\n      pop\n      pop\n      pop\n        /* \"@redstone-finance/evm-connector/contracts/core/CalldataExtractor.sol\":2014:2406  function _getDataPackageByteSize(uint256 calldataNegativeOffset) internal pure returns (uint256) {... */\n      swap2\n      swap1\n      pop\n      jump\t// out\n        /* \"@redstone-finance/evm-connector/contracts/core/RedstoneDefaultsLib.sol\":1547:1681  function aggregateValues(uint256[] memory values) internal pure returns (uint256) {... */\n    tag_62:\n        /* \"@redstone-finance/evm-connector/contracts/core/RedstoneDefaultsLib.sol\":1620:1627  uint256 */\n      0x00\n        /* \"@redstone-finance/evm-connector/contracts/core/RedstoneDefaultsLib.sol\":1642:1676  NumericArrayLib.pickMedian(values) */\n      tag_87\n        /* \"@redstone-finance/evm-connector/contracts/core/RedstoneDefaultsLib.sol\":1669:1675  values */\n      dup3\n        /* \"@redstone-finance/evm-connector/contracts/core/RedstoneDefaultsLib.sol\":1642:1668  NumericArrayLib.pickMedian */\n      tag_88\n        /* \"@redstone-finance/evm-connector/contracts/core/RedstoneDefaultsLib.sol\":1642:1676  NumericArrayLib.pickMedian(values) */\n      jump\t// in\n    tag_87:\n        /* \"@redstone-finance/evm-connector/contracts/core/RedstoneDefaultsLib.sol\":1635:1676  return NumericArrayLib.pickMedian(values) */\n      swap1\n      pop\n        /* \"@redstone-finance/evm-connector/contracts/core/RedstoneDefaultsLib.sol\":1547:1681  function aggregateValues(uint256[] memory values) internal pure returns (uint256) {... */\n      swap2\n      swap1\n      pop\n      jump\t// out\n        /* \"@redstone-finance/evm-connector/contracts/core/RedstoneDefaultsLib.sol\":584:1543  function validateTimestamp(uint256 receivedTimestampMilliseconds) internal view {... */\n    tag_66:\n        /* \"@redstone-finance/evm-connector/contracts/core/RedstoneDefaultsLib.sol\":1030:1062  uint256 receivedTimestampSeconds */\n      0x00\n        /* \"@redstone-finance/evm-connector/contracts/core/RedstoneDefaultsLib.sol\":1097:1101  1000 */\n      0x03e8\n        /* \"@redstone-finance/evm-connector/contracts/core/RedstoneDefaultsLib.sol\":1065:1094  receivedTimestampMilliseconds */\n      dup3\n        /* \"@redstone-finance/evm-connector/contracts/core/RedstoneDefaultsLib.sol\":1065:1101  receivedTimestampMilliseconds / 1000 */\n      tag_90\n      swap2\n      swap1\n      tag_91\n      jump\t// in\n    tag_90:\n        /* \"@redstone-finance/evm-connector/contracts/core/RedstoneDefaultsLib.sol\":1030:1101  uint256 receivedTimestampSeconds = receivedTimestampMilliseconds / 1000 */\n      swap1\n      pop\n        /* \"@redstone-finance/evm-connector/contracts/core/RedstoneDefaultsLib.sol\":1130:1154  receivedTimestampSeconds */\n      dup1\n        /* \"@redstone-finance/evm-connector/contracts/core/RedstoneDefaultsLib.sol\":1112:1127  block.timestamp */\n      timestamp\n        /* \"@redstone-finance/evm-connector/contracts/core/RedstoneDefaultsLib.sol\":1112:1154  block.timestamp < receivedTimestampSeconds */\n      lt\n        /* \"@redstone-finance/evm-connector/contracts/core/RedstoneDefaultsLib.sol\":1108:1539  if (block.timestamp < receivedTimestampSeconds) {... */\n      iszero\n      tag_92\n      jumpi\n        /* \"@redstone-finance/evm-connector/contracts/core/RedstoneDefaultsLib.sol\":390:399  1 minutes */\n      0x3c\n        /* \"@redstone-finance/evm-connector/contracts/core/RedstoneDefaultsLib.sol\":1196:1211  block.timestamp */\n      timestamp\n        /* \"@redstone-finance/evm-connector/contracts/core/RedstoneDefaultsLib.sol\":1169:1193  receivedTimestampSeconds */\n      dup3\n        /* \"@redstone-finance/evm-connector/contracts/core/RedstoneDefaultsLib.sol\":1169:1211  receivedTimestampSeconds - block.timestamp */\n      tag_93\n      swap2\n      swap1\n      tag_54\n      jump\t// in\n    tag_93:\n        /* \"@redstone-finance/evm-connector/contracts/core/RedstoneDefaultsLib.sol\":1168:1255  (receivedTimestampSeconds - block.timestamp) > DEFAULT_MAX_DATA_TIMESTAMP_AHEAD_SECONDS */\n      gt\n        /* \"@redstone-finance/evm-connector/contracts/core/RedstoneDefaultsLib.sol\":1164:1352  if ((receivedTimestampSeconds - block.timestamp) > DEFAULT_MAX_DATA_TIMESTAMP_AHEAD_SECONDS) {... */\n      iszero\n      tag_94\n      jumpi\n        /* \"@redstone-finance/evm-connector/contracts/core/RedstoneDefaultsLib.sol\":1301:1325  receivedTimestampSeconds */\n      dup1\n        /* \"@redstone-finance/evm-connector/contracts/core/RedstoneDefaultsLib.sol\":1327:1342  block.timestamp */\n      timestamp\n        /* \"@redstone-finance/evm-connector/contracts/core/RedstoneDefaultsLib.sol\":1274:1343  TimestampFromTooLongFuture(receivedTimestampSeconds, block.timestamp) */\n      mload(0x40)\n      0xb6b0916d00000000000000000000000000000000000000000000000000000000\n      dup2\n      mstore\n      0x04\n      add\n      tag_95\n      swap3\n      swap2\n      swap1\n      tag_96\n      jump\t// in\n    tag_95:\n      mload(0x40)\n      dup1\n      swap2\n      sub\n      swap1\n      revert\n        /* \"@redstone-finance/evm-connector/contracts/core/RedstoneDefaultsLib.sol\":1164:1352  if ((receivedTimestampSeconds - block.timestamp) > DEFAULT_MAX_DATA_TIMESTAMP_AHEAD_SECONDS) {... */\n    tag_94:\n        /* \"@redstone-finance/evm-connector/contracts/core/RedstoneDefaultsLib.sol\":1108:1539  if (block.timestamp < receivedTimestampSeconds) {... */\n      jump(tag_97)\n    tag_92:\n        /* \"@redstone-finance/evm-connector/contracts/core/RedstoneDefaultsLib.sol\":317:326  3 minutes */\n      0xb4\n        /* \"@redstone-finance/evm-connector/contracts/core/RedstoneDefaultsLib.sol\":1387:1411  receivedTimestampSeconds */\n      dup2\n        /* \"@redstone-finance/evm-connector/contracts/core/RedstoneDefaultsLib.sol\":1369:1384  block.timestamp */\n      timestamp\n        /* \"@redstone-finance/evm-connector/contracts/core/RedstoneDefaultsLib.sol\":1369:1411  block.timestamp - receivedTimestampSeconds */\n      tag_98\n      swap2\n      swap1\n      tag_54\n      jump\t// in\n    tag_98:\n        /* \"@redstone-finance/evm-connector/contracts/core/RedstoneDefaultsLib.sol\":1368:1455  (block.timestamp - receivedTimestampSeconds) > DEFAULT_MAX_DATA_TIMESTAMP_DELAY_SECONDS */\n      gt\n        /* \"@redstone-finance/evm-connector/contracts/core/RedstoneDefaultsLib.sol\":1364:1539  if ((block.timestamp - receivedTimestampSeconds) > DEFAULT_MAX_DATA_TIMESTAMP_DELAY_SECONDS) {... */\n      iszero\n      tag_99\n      jumpi\n        /* \"@redstone-finance/evm-connector/contracts/core/RedstoneDefaultsLib.sol\":1490:1514  receivedTimestampSeconds */\n      dup1\n        /* \"@redstone-finance/evm-connector/contracts/core/RedstoneDefaultsLib.sol\":1516:1531  block.timestamp */\n      timestamp\n        /* \"@redstone-finance/evm-connector/contracts/core/RedstoneDefaultsLib.sol\":1472:1532  TimestampIsTooOld(receivedTimestampSeconds, block.timestamp) */\n      mload(0x40)\n      0x0321d0b500000000000000000000000000000000000000000000000000000000\n      dup2\n      mstore\n      0x04\n      add\n      tag_100\n      swap3\n      swap2\n      swap1\n      tag_96\n      jump\t// in\n    tag_100:\n      mload(0x40)\n      dup1\n      swap2\n      sub\n      swap1\n      revert\n        /* \"@redstone-finance/evm-connector/contracts/core/RedstoneDefaultsLib.sol\":1364:1539  if ((block.timestamp - receivedTimestampSeconds) > DEFAULT_MAX_DATA_TIMESTAMP_DELAY_SECONDS) {... */\n    tag_99:\n        /* \"@redstone-finance/evm-connector/contracts/core/RedstoneDefaultsLib.sol\":1108:1539  if (block.timestamp < receivedTimestampSeconds) {... */\n    tag_97:\n        /* \"@redstone-finance/evm-connector/contracts/core/RedstoneDefaultsLib.sol\":664:1543  {... */\n      pop\n        /* \"@redstone-finance/evm-connector/contracts/core/RedstoneDefaultsLib.sol\":584:1543  function validateTimestamp(uint256 receivedTimestampMilliseconds) internal view {... */\n      pop\n      jump\t// out\n        /* \"@redstone-finance/evm-connector/contracts/core/CalldataExtractor.sol\":4955:5916  function _extractDataPointsDetailsForDataPackage(uint256 calldataNegativeOffsetForDataPackage)... */\n    tag_81:\n        /* \"@redstone-finance/evm-connector/contracts/core/CalldataExtractor.sol\":5085:5108  uint256 dataPointsCount */\n      0x00\n        /* \"@redstone-finance/evm-connector/contracts/core/CalldataExtractor.sol\":5110:5144  uint256 eachDataPointValueByteSize */\n      dup1\n        /* \"@redstone-finance/evm-connector/contracts/core/CalldataExtractor.sol\":5230:5253  uint24 dataPointsCount_ */\n      0x00\n        /* \"@redstone-finance/evm-connector/contracts/core/CalldataExtractor.sol\":5328:5362  uint32 eachDataPointValueByteSize_ */\n      dup1\n        /* \"@redstone-finance/evm-connector/contracts/core/CalldataExtractor.sol\":5402:5424  uint256 calldataOffset */\n      0x00\n        /* \"@redstone-finance/evm-connector/contracts/core/RedstoneConstants.sol\":524:526  32 */\n      0x20\n        /* \"@redstone-finance/evm-connector/contracts/core/RedstoneConstants.sol\":1026:1028  65 */\n      0x41\n        /* \"@redstone-finance/evm-connector/contracts/core/CalldataExtractor.sol\":5446:5482  calldataNegativeOffsetForDataPackage */\n      dup8\n        /* \"@redstone-finance/evm-connector/contracts/core/CalldataExtractor.sol\":5446:5491  calldataNegativeOffsetForDataPackage + SIG_BS */\n      tag_102\n      swap2\n      swap1\n      tag_52\n      jump\t// in\n    tag_102:\n        /* \"@redstone-finance/evm-connector/contracts/core/CalldataExtractor.sol\":5446:5510  calldataNegativeOffsetForDataPackage + SIG_BS + STANDARD_SLOT_BS */\n      tag_103\n      swap2\n      swap1\n      tag_52\n      jump\t// in\n    tag_103:\n        /* \"@redstone-finance/evm-connector/contracts/core/CalldataExtractor.sol\":5427:5435  msg.data */\n      0x00\n      calldatasize\n        /* \"@redstone-finance/evm-connector/contracts/core/CalldataExtractor.sol\":5427:5442  msg.data.length */\n      swap1\n      pop\n        /* \"@redstone-finance/evm-connector/contracts/core/CalldataExtractor.sol\":5427:5511  msg.data.length - (calldataNegativeOffsetForDataPackage + SIG_BS + STANDARD_SLOT_BS) */\n      tag_104\n      swap2\n      swap1\n      tag_54\n      jump\t// in\n    tag_104:\n        /* \"@redstone-finance/evm-connector/contracts/core/CalldataExtractor.sol\":5402:5511  uint256 calldataOffset = msg.data.length - (calldataNegativeOffsetForDataPackage + SIG_BS + STANDARD_SLOT_BS) */\n      swap1\n      pop\n        /* \"@redstone-finance/evm-connector/contracts/core/CalldataExtractor.sol\":5567:5581  calldataOffset */\n      dup1\n        /* \"@redstone-finance/evm-connector/contracts/core/CalldataExtractor.sol\":5554:5582  calldataload(calldataOffset) */\n      calldataload\n        /* \"@redstone-finance/evm-connector/contracts/core/CalldataExtractor.sol\":5534:5582  dataPointsCount_ := calldataload(calldataOffset) */\n      swap3\n      pop\n        /* \"@redstone-finance/evm-connector/contracts/core/RedstoneConstants.sol\":1183:1184  3 */\n      0x03\n        /* \"@redstone-finance/evm-connector/contracts/core/CalldataExtractor.sol\":5653:5667  calldataOffset */\n      dup2\n        /* \"@redstone-finance/evm-connector/contracts/core/CalldataExtractor.sol\":5653:5690  calldataOffset - DATA_POINTS_COUNT_BS */\n      tag_105\n      swap2\n      swap1\n      tag_54\n      jump\t// in\n    tag_105:\n        /* \"@redstone-finance/evm-connector/contracts/core/CalldataExtractor.sol\":5636:5690  calldataOffset = calldataOffset - DATA_POINTS_COUNT_BS */\n      swap1\n      pop\n        /* \"@redstone-finance/evm-connector/contracts/core/CalldataExtractor.sol\":5757:5771  calldataOffset */\n      dup1\n        /* \"@redstone-finance/evm-connector/contracts/core/CalldataExtractor.sol\":5744:5772  calldataload(calldataOffset) */\n      calldataload\n        /* \"@redstone-finance/evm-connector/contracts/core/CalldataExtractor.sol\":5713:5772  eachDataPointValueByteSize_ := calldataload(calldataOffset) */\n      swap2\n      pop\n        /* \"@redstone-finance/evm-connector/contracts/core/CalldataExtractor.sol\":5833:5849  dataPointsCount_ */\n      dup3\n        /* \"@redstone-finance/evm-connector/contracts/core/CalldataExtractor.sol\":5815:5849  dataPointsCount = dataPointsCount_ */\n      0xffffff\n      and\n      swap5\n      pop\n        /* \"@redstone-finance/evm-connector/contracts/core/CalldataExtractor.sol\":5884:5911  eachDataPointValueByteSize_ */\n      dup2\n        /* \"@redstone-finance/evm-connector/contracts/core/CalldataExtractor.sol\":5855:5911  eachDataPointValueByteSize = eachDataPointValueByteSize_ */\n      0xffffffff\n      and\n      swap4\n      pop\n        /* \"@redstone-finance/evm-connector/contracts/core/CalldataExtractor.sol\":5148:5916  {... */\n      pop\n      pop\n      pop\n        /* \"@redstone-finance/evm-connector/contracts/core/CalldataExtractor.sol\":4955:5916  function _extractDataPointsDetailsForDataPackage(uint256 calldataNegativeOffsetForDataPackage)... */\n      swap2\n      pop\n      swap2\n      jump\t// out\n        /* \"@redstone-finance/evm-connector/contracts/libs/NumericArrayLib.sol\":389:836  function pickMedian(uint256[] memory arr) internal pure returns (uint256) {... */\n    tag_88:\n        /* \"@redstone-finance/evm-connector/contracts/libs/NumericArrayLib.sol\":454:461  uint256 */\n      0x00\n        /* \"@redstone-finance/evm-connector/contracts/libs/NumericArrayLib.sol\":487:488  2 */\n      0x02\n        /* \"@redstone-finance/evm-connector/contracts/libs/NumericArrayLib.sol\":473:476  arr */\n      dup3\n        /* \"@redstone-finance/evm-connector/contracts/libs/NumericArrayLib.sol\":473:483  arr.length */\n      mload\n        /* \"@redstone-finance/evm-connector/contracts/libs/NumericArrayLib.sol\":473:488  arr.length == 2 */\n      sub\n        /* \"@redstone-finance/evm-connector/contracts/libs/NumericArrayLib.sol\":469:533  if (arr.length == 2) {... */\n      tag_107\n      jumpi\n        /* \"@redstone-finance/evm-connector/contracts/libs/NumericArrayLib.sol\":525:526  2 */\n      0x02\n        /* \"@redstone-finance/evm-connector/contracts/libs/NumericArrayLib.sol\":515:518  arr */\n      dup3\n        /* \"@redstone-finance/evm-connector/contracts/libs/NumericArrayLib.sol\":519:520  1 */\n      0x01\n        /* \"@redstone-finance/evm-connector/contracts/libs/NumericArrayLib.sol\":515:521  arr[1] */\n      dup2\n      mload\n      dup2\n      lt\n      tag_108\n      jumpi\n      tag_109\n      tag_110\n      jump\t// in\n    tag_109:\n    tag_108:\n      0x20\n      mul\n      0x20\n      add\n      add\n      mload\n        /* \"@redstone-finance/evm-connector/contracts/libs/NumericArrayLib.sol\":506:509  arr */\n      dup4\n        /* \"@redstone-finance/evm-connector/contracts/libs/NumericArrayLib.sol\":510:511  0 */\n      0x00\n        /* \"@redstone-finance/evm-connector/contracts/libs/NumericArrayLib.sol\":506:512  arr[0] */\n      dup2\n      mload\n      dup2\n      lt\n      tag_111\n      jumpi\n      tag_112\n      tag_110\n      jump\t// in\n    tag_112:\n    tag_111:\n      0x20\n      mul\n      0x20\n      add\n      add\n      mload\n        /* \"@redstone-finance/evm-connector/contracts/libs/NumericArrayLib.sol\":506:521  arr[0] + arr[1] */\n      tag_113\n      swap2\n      swap1\n      tag_52\n      jump\t// in\n    tag_113:\n        /* \"@redstone-finance/evm-connector/contracts/libs/NumericArrayLib.sol\":505:526  (arr[0] + arr[1]) / 2 */\n      tag_114\n      swap2\n      swap1\n      tag_91\n      jump\t// in\n    tag_114:\n        /* \"@redstone-finance/evm-connector/contracts/libs/NumericArrayLib.sol\":498:526  return (arr[0] + arr[1]) / 2 */\n      swap1\n      pop\n      jump(tag_106)\n        /* \"@redstone-finance/evm-connector/contracts/libs/NumericArrayLib.sol\":469:533  if (arr.length == 2) {... */\n    tag_107:\n        /* \"@redstone-finance/evm-connector/contracts/libs/NumericArrayLib.sol\":556:557  0 */\n      0x00\n        /* \"@redstone-finance/evm-connector/contracts/libs/NumericArrayLib.sol\":542:545  arr */\n      dup3\n        /* \"@redstone-finance/evm-connector/contracts/libs/NumericArrayLib.sol\":542:552  arr.length */\n      mload\n        /* \"@redstone-finance/evm-connector/contracts/libs/NumericArrayLib.sol\":542:557  arr.length == 0 */\n      sub\n        /* \"@redstone-finance/evm-connector/contracts/libs/NumericArrayLib.sol\":538:611  if (arr.length == 0) {... */\n      tag_115\n      jumpi\n        /* \"@redstone-finance/evm-connector/contracts/libs/NumericArrayLib.sol\":574:604  CanNotPickMedianOfEmptyArray() */\n      mload(0x40)\n      0x9e198af900000000000000000000000000000000000000000000000000000000\n      dup2\n      mstore\n      0x04\n      add\n      mload(0x40)\n      dup1\n      swap2\n      sub\n      swap1\n      revert\n        /* \"@redstone-finance/evm-connector/contracts/libs/NumericArrayLib.sol\":538:611  if (arr.length == 0) {... */\n    tag_115:\n        /* \"@redstone-finance/evm-connector/contracts/libs/NumericArrayLib.sol\":616:625  sort(arr) */\n      tag_116\n        /* \"@redstone-finance/evm-connector/contracts/libs/NumericArrayLib.sol\":621:624  arr */\n      dup3\n        /* \"@redstone-finance/evm-connector/contracts/libs/NumericArrayLib.sol\":616:620  sort */\n      tag_117\n        /* \"@redstone-finance/evm-connector/contracts/libs/NumericArrayLib.sol\":616:625  sort(arr) */\n      jump\t// in\n    tag_116:\n        /* \"@redstone-finance/evm-connector/contracts/libs/NumericArrayLib.sol\":631:650  uint256 middleIndex */\n      0x00\n        /* \"@redstone-finance/evm-connector/contracts/libs/NumericArrayLib.sol\":666:667  2 */\n      0x02\n        /* \"@redstone-finance/evm-connector/contracts/libs/NumericArrayLib.sol\":653:656  arr */\n      dup4\n        /* \"@redstone-finance/evm-connector/contracts/libs/NumericArrayLib.sol\":653:663  arr.length */\n      mload\n        /* \"@redstone-finance/evm-connector/contracts/libs/NumericArrayLib.sol\":653:667  arr.length / 2 */\n      tag_118\n      swap2\n      swap1\n      tag_91\n      jump\t// in\n    tag_118:\n        /* \"@redstone-finance/evm-connector/contracts/libs/NumericArrayLib.sol\":631:667  uint256 middleIndex = arr.length / 2 */\n      swap1\n      pop\n        /* \"@redstone-finance/evm-connector/contracts/libs/NumericArrayLib.sol\":695:696  0 */\n      0x00\n        /* \"@redstone-finance/evm-connector/contracts/libs/NumericArrayLib.sol\":690:691  2 */\n      0x02\n        /* \"@redstone-finance/evm-connector/contracts/libs/NumericArrayLib.sol\":677:680  arr */\n      dup5\n        /* \"@redstone-finance/evm-connector/contracts/libs/NumericArrayLib.sol\":677:687  arr.length */\n      mload\n        /* \"@redstone-finance/evm-connector/contracts/libs/NumericArrayLib.sol\":677:691  arr.length % 2 */\n      tag_119\n      swap2\n      swap1\n      tag_120\n      jump\t// in\n    tag_119:\n        /* \"@redstone-finance/evm-connector/contracts/libs/NumericArrayLib.sol\":677:696  arr.length % 2 == 0 */\n      sub\n        /* \"@redstone-finance/evm-connector/contracts/libs/NumericArrayLib.sol\":673:832  if (arr.length % 2 == 0) {... */\n      tag_121\n      jumpi\n        /* \"@redstone-finance/evm-connector/contracts/libs/NumericArrayLib.sol\":706:717  uint256 sum */\n      0x00\n        /* \"@redstone-finance/evm-connector/contracts/libs/NumericArrayLib.sol\":743:746  arr */\n      dup4\n        /* \"@redstone-finance/evm-connector/contracts/libs/NumericArrayLib.sol\":747:758  middleIndex */\n      dup3\n        /* \"@redstone-finance/evm-connector/contracts/libs/NumericArrayLib.sol\":743:759  arr[middleIndex] */\n      dup2\n      mload\n      dup2\n      lt\n      tag_122\n      jumpi\n      tag_123\n      tag_110\n      jump\t// in\n    tag_123:\n    tag_122:\n      0x20\n      mul\n      0x20\n      add\n      add\n      mload\n        /* \"@redstone-finance/evm-connector/contracts/libs/NumericArrayLib.sol\":720:723  arr */\n      dup5\n        /* \"@redstone-finance/evm-connector/contracts/libs/NumericArrayLib.sol\":738:739  1 */\n      0x01\n        /* \"@redstone-finance/evm-connector/contracts/libs/NumericArrayLib.sol\":724:735  middleIndex */\n      dup5\n        /* \"@redstone-finance/evm-connector/contracts/libs/NumericArrayLib.sol\":724:739  middleIndex - 1 */\n      tag_124\n      swap2\n      swap1\n      tag_54\n      jump\t// in\n    tag_124:\n        /* \"@redstone-finance/evm-connector/contracts/libs/NumericArrayLib.sol\":720:740  arr[middleIndex - 1] */\n      dup2\n      mload\n      dup2\n      lt\n      tag_125\n      jumpi\n      tag_126\n      tag_110\n      jump\t// in\n    tag_126:\n    tag_125:\n      0x20\n      mul\n      0x20\n      add\n      add\n      mload\n        /* \"@redstone-finance/evm-connector/contracts/libs/NumericArrayLib.sol\":720:759  arr[middleIndex - 1] + arr[middleIndex] */\n      tag_127\n      swap2\n      swap1\n      tag_52\n      jump\t// in\n    tag_127:\n        /* \"@redstone-finance/evm-connector/contracts/libs/NumericArrayLib.sol\":706:759  uint256 sum = arr[middleIndex - 1] + arr[middleIndex] */\n      swap1\n      pop\n        /* \"@redstone-finance/evm-connector/contracts/libs/NumericArrayLib.sol\":780:781  2 */\n      0x02\n        /* \"@redstone-finance/evm-connector/contracts/libs/NumericArrayLib.sol\":774:777  sum */\n      dup2\n        /* \"@redstone-finance/evm-connector/contracts/libs/NumericArrayLib.sol\":774:781  sum / 2 */\n      tag_128\n      swap2\n      swap1\n      tag_91\n      jump\t// in\n    tag_128:\n        /* \"@redstone-finance/evm-connector/contracts/libs/NumericArrayLib.sol\":767:781  return sum / 2 */\n      swap3\n      pop\n      pop\n      pop\n      jump(tag_106)\n        /* \"@redstone-finance/evm-connector/contracts/libs/NumericArrayLib.sol\":673:832  if (arr.length % 2 == 0) {... */\n    tag_121:\n        /* \"@redstone-finance/evm-connector/contracts/libs/NumericArrayLib.sol\":809:812  arr */\n      dup3\n        /* \"@redstone-finance/evm-connector/contracts/libs/NumericArrayLib.sol\":813:824  middleIndex */\n      dup2\n        /* \"@redstone-finance/evm-connector/contracts/libs/NumericArrayLib.sol\":809:825  arr[middleIndex] */\n      dup2\n      mload\n      dup2\n      lt\n      tag_130\n      jumpi\n      tag_131\n      tag_110\n      jump\t// in\n    tag_131:\n    tag_130:\n      0x20\n      mul\n      0x20\n      add\n      add\n      mload\n        /* \"@redstone-finance/evm-connector/contracts/libs/NumericArrayLib.sol\":802:825  return arr[middleIndex] */\n      swap2\n      pop\n      pop\n        /* \"@redstone-finance/evm-connector/contracts/libs/NumericArrayLib.sol\":389:836  function pickMedian(uint256[] memory arr) internal pure returns (uint256) {... */\n    tag_106:\n      swap2\n      swap1\n      pop\n      jump\t// out\n        /* \"@redstone-finance/evm-connector/contracts/libs/NumericArrayLib.sol\":840:1590  function sort(uint256[] memory arr) internal pure {... */\n    tag_117:\n        /* \"@redstone-finance/evm-connector/contracts/libs/NumericArrayLib.sol\":936:939  arr */\n      dup1\n        /* \"@redstone-finance/evm-connector/contracts/libs/NumericArrayLib.sol\":930:940  mload(arr) */\n      mload\n        /* \"@redstone-finance/evm-connector/contracts/libs/NumericArrayLib.sol\":973:993  BYTES_ARR_LEN_VAR_BS */\n      0x20\n        /* \"@redstone-finance/evm-connector/contracts/libs/NumericArrayLib.sol\":968:971  arr */\n      dup3\n        /* \"@redstone-finance/evm-connector/contracts/libs/NumericArrayLib.sol\":964:994  add(arr, BYTES_ARR_LEN_VAR_BS) */\n      add\n        /* \"@redstone-finance/evm-connector/contracts/libs/NumericArrayLib.sol\":1045:1061  UINT256_VALUE_BS */\n      0x20\n        /* \"@redstone-finance/evm-connector/contracts/libs/NumericArrayLib.sol\":1034:1043  arrLength */\n      dup3\n        /* \"@redstone-finance/evm-connector/contracts/libs/NumericArrayLib.sol\":1030:1062  mul(arrLength, UINT256_VALUE_BS) */\n      mul\n        /* \"@redstone-finance/evm-connector/contracts/libs/NumericArrayLib.sol\":1019:1028  valuesPtr */\n      dup2\n        /* \"@redstone-finance/evm-connector/contracts/libs/NumericArrayLib.sol\":1015:1063  add(valuesPtr, mul(arrLength, UINT256_VALUE_BS)) */\n      add\n        /* \"@redstone-finance/evm-connector/contracts/libs/NumericArrayLib.sol\":1099:1108  valuesPtr */\n      dup2\n        /* \"@redstone-finance/evm-connector/contracts/libs/NumericArrayLib.sol\":1070:1580  for {... */\n    tag_133:\n        /* \"@redstone-finance/evm-connector/contracts/libs/NumericArrayLib.sol\":1129:1135  endPtr */\n      dup2\n        /* \"@redstone-finance/evm-connector/contracts/libs/NumericArrayLib.sol\":1120:1127  arrIPtr */\n      dup2\n        /* \"@redstone-finance/evm-connector/contracts/libs/NumericArrayLib.sol\":1117:1136  lt(arrIPtr, endPtr) */\n      lt\n        /* \"@redstone-finance/evm-connector/contracts/libs/NumericArrayLib.sol\":1070:1580  for {... */\n      iszero\n      tag_135\n      jumpi\n        /* \"@redstone-finance/evm-connector/contracts/libs/NumericArrayLib.sol\":1255:1264  valuesPtr */\n      dup3\n        /* \"@redstone-finance/evm-connector/contracts/libs/NumericArrayLib.sol\":1224:1572  for {... */\n    tag_136:\n        /* \"@redstone-finance/evm-connector/contracts/libs/NumericArrayLib.sol\":1287:1294  arrIPtr */\n      dup2\n        /* \"@redstone-finance/evm-connector/contracts/libs/NumericArrayLib.sol\":1278:1285  arrJPtr */\n      dup2\n        /* \"@redstone-finance/evm-connector/contracts/libs/NumericArrayLib.sol\":1275:1295  lt(arrJPtr, arrIPtr) */\n      lt\n        /* \"@redstone-finance/evm-connector/contracts/libs/NumericArrayLib.sol\":1224:1572  for {... */\n      iszero\n      tag_138\n      jumpi\n        /* \"@redstone-finance/evm-connector/contracts/libs/NumericArrayLib.sol\":1407:1414  arrIPtr */\n      dup2\n        /* \"@redstone-finance/evm-connector/contracts/libs/NumericArrayLib.sol\":1401:1415  mload(arrIPtr) */\n      mload\n        /* \"@redstone-finance/evm-connector/contracts/libs/NumericArrayLib.sol\":1444:1451  arrJPtr */\n      dup2\n        /* \"@redstone-finance/evm-connector/contracts/libs/NumericArrayLib.sol\":1438:1452  mload(arrJPtr) */\n      mload\n        /* \"@redstone-finance/evm-connector/contracts/libs/NumericArrayLib.sol\":1475:1479  arrJ */\n      dup1\n        /* \"@redstone-finance/evm-connector/contracts/libs/NumericArrayLib.sol\":1469:1473  arrI */\n      dup3\n        /* \"@redstone-finance/evm-connector/contracts/libs/NumericArrayLib.sol\":1466:1480  lt(arrI, arrJ) */\n      lt\n        /* \"@redstone-finance/evm-connector/contracts/libs/NumericArrayLib.sol\":1463:1562  if lt(arrI, arrJ) {... */\n      iszero\n      tag_139\n      jumpi\n        /* \"@redstone-finance/evm-connector/contracts/libs/NumericArrayLib.sol\":1511:1515  arrJ */\n      dup1\n        /* \"@redstone-finance/evm-connector/contracts/libs/NumericArrayLib.sol\":1502:1509  arrIPtr */\n      dup5\n        /* \"@redstone-finance/evm-connector/contracts/libs/NumericArrayLib.sol\":1495:1516  mstore(arrIPtr, arrJ) */\n      mstore\n        /* \"@redstone-finance/evm-connector/contracts/libs/NumericArrayLib.sol\":1545:1549  arrI */\n      dup2\n        /* \"@redstone-finance/evm-connector/contracts/libs/NumericArrayLib.sol\":1536:1543  arrJPtr */\n      dup4\n        /* \"@redstone-finance/evm-connector/contracts/libs/NumericArrayLib.sol\":1529:1550  mstore(arrJPtr, arrI) */\n      mstore\n        /* \"@redstone-finance/evm-connector/contracts/libs/NumericArrayLib.sol\":1463:1562  if lt(arrI, arrJ) {... */\n    tag_139:\n        /* \"@redstone-finance/evm-connector/contracts/libs/NumericArrayLib.sol\":1377:1572  {... */\n      pop\n      pop\n        /* \"@redstone-finance/evm-connector/contracts/libs/NumericArrayLib.sol\":1332:1348  UINT256_VALUE_BS */\n      0x20\n        /* \"@redstone-finance/evm-connector/contracts/libs/NumericArrayLib.sol\":1323:1330  arrJPtr */\n      dup2\n        /* \"@redstone-finance/evm-connector/contracts/libs/NumericArrayLib.sol\":1319:1349  add(arrJPtr, UINT256_VALUE_BS) */\n      add\n        /* \"@redstone-finance/evm-connector/contracts/libs/NumericArrayLib.sol\":1308:1349  arrJPtr := add(arrJPtr, UINT256_VALUE_BS) */\n      swap1\n      pop\n        /* \"@redstone-finance/evm-connector/contracts/libs/NumericArrayLib.sol\":1224:1572  for {... */\n      jump(tag_136)\n    tag_138:\n        /* \"@redstone-finance/evm-connector/contracts/libs/NumericArrayLib.sol\":1228:1274  {... */\n      pop\n        /* \"@redstone-finance/evm-connector/contracts/libs/NumericArrayLib.sol\":1171:1187  UINT256_VALUE_BS */\n      0x20\n        /* \"@redstone-finance/evm-connector/contracts/libs/NumericArrayLib.sol\":1162:1169  arrIPtr */\n      dup2\n        /* \"@redstone-finance/evm-connector/contracts/libs/NumericArrayLib.sol\":1158:1188  add(arrIPtr, UINT256_VALUE_BS) */\n      add\n        /* \"@redstone-finance/evm-connector/contracts/libs/NumericArrayLib.sol\":1147:1188  arrIPtr := add(arrIPtr, UINT256_VALUE_BS) */\n      swap1\n      pop\n        /* \"@redstone-finance/evm-connector/contracts/libs/NumericArrayLib.sol\":1070:1580  for {... */\n      jump(tag_133)\n    tag_135:\n        /* \"@redstone-finance/evm-connector/contracts/libs/NumericArrayLib.sol\":1074:1116  {... */\n      pop\n        /* \"@redstone-finance/evm-connector/contracts/libs/NumericArrayLib.sol\":905:1586  {... */\n      pop\n      pop\n      pop\n        /* \"@redstone-finance/evm-connector/contracts/libs/NumericArrayLib.sol\":840:1590  function sort(uint256[] memory arr) internal pure {... */\n      pop\n      jump\t// out\n        /* \"#utility.yul\":7:82   */\n    tag_140:\n        /* \"#utility.yul\":40:46   */\n      0x00\n        /* \"#utility.yul\":73:75   */\n      0x40\n        /* \"#utility.yul\":67:76   */\n      mload\n        /* \"#utility.yul\":57:76   */\n      swap1\n      pop\n        /* \"#utility.yul\":7:82   */\n      swap1\n      jump\t// out\n        /* \"#utility.yul\":88:205   */\n    tag_141:\n        /* \"#utility.yul\":197:198   */\n      0x00\n        /* \"#utility.yul\":194:195   */\n      dup1\n        /* \"#utility.yul\":187:199   */\n      revert\n        /* \"#utility.yul\":211:328   */\n    tag_142:\n        /* \"#utility.yul\":320:321   */\n      0x00\n        /* \"#utility.yul\":317:318   */\n      dup1\n        /* \"#utility.yul\":310:322   */\n      revert\n        /* \"#utility.yul\":334:460   */\n    tag_143:\n        /* \"#utility.yul\":371:378   */\n      0x00\n        /* \"#utility.yul\":411:453   */\n      0xffffffffffffffffffffffffffffffffffffffff\n        /* \"#utility.yul\":404:409   */\n      dup3\n        /* \"#utility.yul\":400:454   */\n      and\n        /* \"#utility.yul\":389:454   */\n      swap1\n      pop\n        /* \"#utility.yul\":334:460   */\n      swap2\n      swap1\n      pop\n      jump\t// out\n        /* \"#utility.yul\":466:562   */\n    tag_144:\n        /* \"#utility.yul\":503:510   */\n      0x00\n        /* \"#utility.yul\":532:556   */\n      tag_175\n        /* \"#utility.yul\":550:555   */\n      dup3\n        /* \"#utility.yul\":532:556   */\n      tag_143\n      jump\t// in\n    tag_175:\n        /* \"#utility.yul\":521:556   */\n      swap1\n      pop\n        /* \"#utility.yul\":466:562   */\n      swap2\n      swap1\n      pop\n      jump\t// out\n        /* \"#utility.yul\":568:690   */\n    tag_145:\n        /* \"#utility.yul\":641:665   */\n      tag_177\n        /* \"#utility.yul\":659:664   */\n      dup2\n        /* \"#utility.yul\":641:665   */\n      tag_144\n      jump\t// in\n    tag_177:\n        /* \"#utility.yul\":634:639   */\n      dup2\n        /* \"#utility.yul\":631:666   */\n      eq\n        /* \"#utility.yul\":621:684   */\n      tag_178\n      jumpi\n        /* \"#utility.yul\":680:681   */\n      0x00\n        /* \"#utility.yul\":677:678   */\n      dup1\n        /* \"#utility.yul\":670:682   */\n      revert\n        /* \"#utility.yul\":621:684   */\n    tag_178:\n        /* \"#utility.yul\":568:690   */\n      pop\n      jump\t// out\n        /* \"#utility.yul\":696:835   */\n    tag_146:\n        /* \"#utility.yul\":742:747   */\n      0x00\n        /* \"#utility.yul\":780:786   */\n      dup2\n        /* \"#utility.yul\":767:787   */\n      calldataload\n        /* \"#utility.yul\":758:787   */\n      swap1\n      pop\n        /* \"#utility.yul\":796:829   */\n      tag_180\n        /* \"#utility.yul\":823:828   */\n      dup2\n        /* \"#utility.yul\":796:829   */\n      tag_145\n      jump\t// in\n    tag_180:\n        /* \"#utility.yul\":696:835   */\n      swap3\n      swap2\n      pop\n      pop\n      jump\t// out\n        /* \"#utility.yul\":841:1170   */\n    tag_11:\n        /* \"#utility.yul\":900:906   */\n      0x00\n        /* \"#utility.yul\":949:951   */\n      0x20\n        /* \"#utility.yul\":937:946   */\n      dup3\n        /* \"#utility.yul\":928:935   */\n      dup5\n        /* \"#utility.yul\":924:947   */\n      sub\n        /* \"#utility.yul\":920:952   */\n      slt\n        /* \"#utility.yul\":917:1036   */\n      iszero\n      tag_182\n      jumpi\n        /* \"#utility.yul\":955:1034   */\n      tag_183\n      tag_141\n      jump\t// in\n    tag_183:\n        /* \"#utility.yul\":917:1036   */\n    tag_182:\n        /* \"#utility.yul\":1075:1076   */\n      0x00\n        /* \"#utility.yul\":1100:1153   */\n      tag_184\n        /* \"#utility.yul\":1145:1152   */\n      dup5\n        /* \"#utility.yul\":1136:1142   */\n      dup3\n        /* \"#utility.yul\":1125:1134   */\n      dup6\n        /* \"#utility.yul\":1121:1143   */\n      add\n        /* \"#utility.yul\":1100:1153   */\n      tag_146\n      jump\t// in\n    tag_184:\n        /* \"#utility.yul\":1090:1153   */\n      swap2\n      pop\n        /* \"#utility.yul\":1046:1163   */\n      pop\n        /* \"#utility.yul\":841:1170   */\n      swap3\n      swap2\n      pop\n      pop\n      jump\t// out\n        /* \"#utility.yul\":1176:1262   */\n    tag_147:\n        /* \"#utility.yul\":1211:1218   */\n      0x00\n        /* \"#utility.yul\":1251:1255   */\n      0xff\n        /* \"#utility.yul\":1244:1249   */\n      dup3\n        /* \"#utility.yul\":1240:1256   */\n      and\n        /* \"#utility.yul\":1229:1256   */\n      swap1\n      pop\n        /* \"#utility.yul\":1176:1262   */\n      swap2\n      swap1\n      pop\n      jump\t// out\n        /* \"#utility.yul\":1268:1380   */\n    tag_148:\n        /* \"#utility.yul\":1351:1373   */\n      tag_187\n        /* \"#utility.yul\":1367:1372   */\n      dup2\n        /* \"#utility.yul\":1351:1373   */\n      tag_147\n      jump\t// in\n    tag_187:\n        /* \"#utility.yul\":1346:1349   */\n      dup3\n        /* \"#utility.yul\":1339:1374   */\n      mstore\n        /* \"#utility.yul\":1268:1380   */\n      pop\n      pop\n      jump\t// out\n        /* \"#utility.yul\":1386:1600   */\n    tag_14:\n        /* \"#utility.yul\":1475:1479   */\n      0x00\n        /* \"#utility.yul\":1513:1515   */\n      0x20\n        /* \"#utility.yul\":1502:1511   */\n      dup3\n        /* \"#utility.yul\":1498:1516   */\n      add\n        /* \"#utility.yul\":1490:1516   */\n      swap1\n      pop\n        /* \"#utility.yul\":1526:1593   */\n      tag_189\n        /* \"#utility.yul\":1590:1591   */\n      0x00\n        /* \"#utility.yul\":1579:1588   */\n      dup4\n        /* \"#utility.yul\":1575:1592   */\n      add\n        /* \"#utility.yul\":1566:1572   */\n      dup5\n        /* \"#utility.yul\":1526:1593   */\n      tag_148\n      jump\t// in\n    tag_189:\n        /* \"#utility.yul\":1386:1600   */\n      swap3\n      swap2\n      pop\n      pop\n      jump\t// out\n        /* \"#utility.yul\":1606:1683   */\n    tag_149:\n        /* \"#utility.yul\":1643:1650   */\n      0x00\n        /* \"#utility.yul\":1672:1677   */\n      dup2\n        /* \"#utility.yul\":1661:1677   */\n      swap1\n      pop\n        /* \"#utility.yul\":1606:1683   */\n      swap2\n      swap1\n      pop\n      jump\t// out\n        /* \"#utility.yul\":1689:1807   */\n    tag_150:\n        /* \"#utility.yul\":1776:1800   */\n      tag_192\n        /* \"#utility.yul\":1794:1799   */\n      dup2\n        /* \"#utility.yul\":1776:1800   */\n      tag_149\n      jump\t// in\n    tag_192:\n        /* \"#utility.yul\":1771:1774   */\n      dup3\n        /* \"#utility.yul\":1764:1801   */\n      mstore\n        /* \"#utility.yul\":1689:1807   */\n      pop\n      pop\n      jump\t// out\n        /* \"#utility.yul\":1813:2035   */\n    tag_18:\n        /* \"#utility.yul\":1906:1910   */\n      0x00\n        /* \"#utility.yul\":1944:1946   */\n      0x20\n        /* \"#utility.yul\":1933:1942   */\n      dup3\n        /* \"#utility.yul\":1929:1947   */\n      add\n        /* \"#utility.yul\":1921:1947   */\n      swap1\n      pop\n        /* \"#utility.yul\":1957:2028   */\n      tag_194\n        /* \"#utility.yul\":2025:2026   */\n      0x00\n        /* \"#utility.yul\":2014:2023   */\n      dup4\n        /* \"#utility.yul\":2010:2027   */\n      add\n        /* \"#utility.yul\":2001:2007   */\n      dup5\n        /* \"#utility.yul\":1957:2028   */\n      tag_150\n      jump\t// in\n    tag_194:\n        /* \"#utility.yul\":1813:2035   */\n      swap3\n      swap2\n      pop\n      pop\n      jump\t// out\n        /* \"#utility.yul\":2041:2158   */\n    tag_151:\n        /* \"#utility.yul\":2150:2151   */\n      0x00\n        /* \"#utility.yul\":2147:2148   */\n      dup1\n        /* \"#utility.yul\":2140:2152   */\n      revert\n        /* \"#utility.yul\":2164:2266   */\n    tag_152:\n        /* \"#utility.yul\":2205:2211   */\n      0x00\n        /* \"#utility.yul\":2256:2258   */\n      0x1f\n        /* \"#utility.yul\":2252:2259   */\n      not\n        /* \"#utility.yul\":2247:2249   */\n      0x1f\n        /* \"#utility.yul\":2240:2245   */\n      dup4\n        /* \"#utility.yul\":2236:2250   */\n      add\n        /* \"#utility.yul\":2232:2260   */\n      and\n        /* \"#utility.yul\":2222:2260   */\n      swap1\n      pop\n        /* \"#utility.yul\":2164:2266   */\n      swap2\n      swap1\n      pop\n      jump\t// out\n        /* \"#utility.yul\":2272:2452   */\n    tag_153:\n        /* \"#utility.yul\":2320:2397   */\n      0x4e487b7100000000000000000000000000000000000000000000000000000000\n        /* \"#utility.yul\":2317:2318   */\n      0x00\n        /* \"#utility.yul\":2310:2398   */\n      mstore\n        /* \"#utility.yul\":2417:2421   */\n      0x41\n        /* \"#utility.yul\":2414:2415   */\n      0x04\n        /* \"#utility.yul\":2407:2422   */\n      mstore\n        /* \"#utility.yul\":2441:2445   */\n      0x24\n        /* \"#utility.yul\":2438:2439   */\n      0x00\n        /* \"#utility.yul\":2431:2446   */\n      revert\n        /* \"#utility.yul\":2458:2739   */\n    tag_154:\n        /* \"#utility.yul\":2541:2568   */\n      tag_199\n        /* \"#utility.yul\":2563:2567   */\n      dup3\n        /* \"#utility.yul\":2541:2568   */\n      tag_152\n      jump\t// in\n    tag_199:\n        /* \"#utility.yul\":2533:2539   */\n      dup2\n        /* \"#utility.yul\":2529:2569   */\n      add\n        /* \"#utility.yul\":2671:2677   */\n      dup2\n        /* \"#utility.yul\":2659:2669   */\n      dup2\n        /* \"#utility.yul\":2656:2678   */\n      lt\n        /* \"#utility.yul\":2635:2653   */\n      0xffffffffffffffff\n        /* \"#utility.yul\":2623:2633   */\n      dup3\n        /* \"#utility.yul\":2620:2654   */\n      gt\n        /* \"#utility.yul\":2617:2679   */\n      or\n        /* \"#utility.yul\":2614:2702   */\n      iszero\n      tag_200\n      jumpi\n        /* \"#utility.yul\":2682:2700   */\n      tag_201\n      tag_153\n      jump\t// in\n    tag_201:\n        /* \"#utility.yul\":2614:2702   */\n    tag_200:\n        /* \"#utility.yul\":2722:2732   */\n      dup1\n        /* \"#utility.yul\":2718:2720   */\n      0x40\n        /* \"#utility.yul\":2711:2733   */\n      mstore\n        /* \"#utility.yul\":2501:2739   */\n      pop\n        /* \"#utility.yul\":2458:2739   */\n      pop\n      pop\n      jump\t// out\n        /* \"#utility.yul\":2745:2874   */\n    tag_155:\n        /* \"#utility.yul\":2779:2785   */\n      0x00\n        /* \"#utility.yul\":2806:2826   */\n      tag_203\n      tag_140\n      jump\t// in\n    tag_203:\n        /* \"#utility.yul\":2796:2826   */\n      swap1\n      pop\n        /* \"#utility.yul\":2835:2868   */\n      tag_204\n        /* \"#utility.yul\":2863:2867   */\n      dup3\n        /* \"#utility.yul\":2855:2861   */\n      dup3\n        /* \"#utility.yul\":2835:2868   */\n      tag_154\n      jump\t// in\n    tag_204:\n        /* \"#utility.yul\":2745:2874   */\n      swap2\n      swap1\n      pop\n      jump\t// out\n        /* \"#utility.yul\":2880:3191   */\n    tag_156:\n        /* \"#utility.yul\":2957:2961   */\n      0x00\n        /* \"#utility.yul\":3047:3065   */\n      0xffffffffffffffff\n        /* \"#utility.yul\":3039:3045   */\n      dup3\n        /* \"#utility.yul\":3036:3066   */\n      gt\n        /* \"#utility.yul\":3033:3089   */\n      iszero\n      tag_206\n      jumpi\n        /* \"#utility.yul\":3069:3087   */\n      tag_207\n      tag_153\n      jump\t// in\n    tag_207:\n        /* \"#utility.yul\":3033:3089   */\n    tag_206:\n        /* \"#utility.yul\":3119:3123   */\n      0x20\n        /* \"#utility.yul\":3111:3117   */\n      dup3\n        /* \"#utility.yul\":3107:3124   */\n      mul\n        /* \"#utility.yul\":3099:3124   */\n      swap1\n      pop\n        /* \"#utility.yul\":3179:3183   */\n      0x20\n        /* \"#utility.yul\":3173:3177   */\n      dup2\n        /* \"#utility.yul\":3169:3184   */\n      add\n        /* \"#utility.yul\":3161:3184   */\n      swap1\n      pop\n        /* \"#utility.yul\":2880:3191   */\n      swap2\n      swap1\n      pop\n      jump\t// out\n        /* \"#utility.yul\":3197:3314   */\n    tag_157:\n        /* \"#utility.yul\":3306:3307   */\n      0x00\n        /* \"#utility.yul\":3303:3304   */\n      dup1\n        /* \"#utility.yul\":3296:3308   */\n      revert\n        /* \"#utility.yul\":3320:3442   */\n    tag_158:\n        /* \"#utility.yul\":3393:3417   */\n      tag_210\n        /* \"#utility.yul\":3411:3416   */\n      dup2\n        /* \"#utility.yul\":3393:3417   */\n      tag_149\n      jump\t// in\n    tag_210:\n        /* \"#utility.yul\":3386:3391   */\n      dup2\n        /* \"#utility.yul\":3383:3418   */\n      eq\n        /* \"#utility.yul\":3373:3436   */\n      tag_211\n      jumpi\n        /* \"#utility.yul\":3432:3433   */\n      0x00\n        /* \"#utility.yul\":3429:3430   */\n      dup1\n        /* \"#utility.yul\":3422:3434   */\n      revert\n        /* \"#utility.yul\":3373:3436   */\n    tag_211:\n        /* \"#utility.yul\":3320:3442   */\n      pop\n      jump\t// out\n        /* \"#utility.yul\":3448:3587   */\n    tag_159:\n        /* \"#utility.yul\":3494:3499   */\n      0x00\n        /* \"#utility.yul\":3532:3538   */\n      dup2\n        /* \"#utility.yul\":3519:3539   */\n      calldataload\n        /* \"#utility.yul\":3510:3539   */\n      swap1\n      pop\n        /* \"#utility.yul\":3548:3581   */\n      tag_213\n        /* \"#utility.yul\":3575:3580   */\n      dup2\n        /* \"#utility.yul\":3548:3581   */\n      tag_158\n      jump\t// in\n    tag_213:\n        /* \"#utility.yul\":3448:3587   */\n      swap3\n      swap2\n      pop\n      pop\n      jump\t// out\n        /* \"#utility.yul\":3610:4320   */\n    tag_160:\n        /* \"#utility.yul\":3706:3711   */\n      0x00\n        /* \"#utility.yul\":3731:3812   */\n      tag_215\n        /* \"#utility.yul\":3747:3811   */\n      tag_216\n        /* \"#utility.yul\":3804:3810   */\n      dup5\n        /* \"#utility.yul\":3747:3811   */\n      tag_156\n      jump\t// in\n    tag_216:\n        /* \"#utility.yul\":3731:3812   */\n      tag_155\n      jump\t// in\n    tag_215:\n        /* \"#utility.yul\":3722:3812   */\n      swap1\n      pop\n        /* \"#utility.yul\":3832:3837   */\n      dup1\n        /* \"#utility.yul\":3861:3867   */\n      dup4\n        /* \"#utility.yul\":3854:3859   */\n      dup3\n        /* \"#utility.yul\":3847:3868   */\n      mstore\n        /* \"#utility.yul\":3895:3899   */\n      0x20\n        /* \"#utility.yul\":3888:3893   */\n      dup3\n        /* \"#utility.yul\":3884:3900   */\n      add\n        /* \"#utility.yul\":3877:3900   */\n      swap1\n      pop\n        /* \"#utility.yul\":3948:3952   */\n      0x20\n        /* \"#utility.yul\":3940:3946   */\n      dup5\n        /* \"#utility.yul\":3936:3953   */\n      mul\n        /* \"#utility.yul\":3928:3934   */\n      dup4\n        /* \"#utility.yul\":3924:3954   */\n      add\n        /* \"#utility.yul\":3977:3980   */\n      dup6\n        /* \"#utility.yul\":3969:3975   */\n      dup2\n        /* \"#utility.yul\":3966:3981   */\n      gt\n        /* \"#utility.yul\":3963:4085   */\n      iszero\n      tag_217\n      jumpi\n        /* \"#utility.yul\":3996:4075   */\n      tag_218\n      tag_157\n      jump\t// in\n    tag_218:\n        /* \"#utility.yul\":3963:4085   */\n    tag_217:\n        /* \"#utility.yul\":4111:4117   */\n      dup4\n        /* \"#utility.yul\":4094:4314   */\n    tag_219:\n        /* \"#utility.yul\":4128:4134   */\n      dup2\n        /* \"#utility.yul\":4123:4126   */\n      dup2\n        /* \"#utility.yul\":4120:4135   */\n      lt\n        /* \"#utility.yul\":4094:4314   */\n      iszero\n      tag_221\n      jumpi\n        /* \"#utility.yul\":4203:4206   */\n      dup1\n        /* \"#utility.yul\":4232:4269   */\n      tag_222\n        /* \"#utility.yul\":4265:4268   */\n      dup9\n        /* \"#utility.yul\":4253:4263   */\n      dup3\n        /* \"#utility.yul\":4232:4269   */\n      tag_159\n      jump\t// in\n    tag_222:\n        /* \"#utility.yul\":4227:4230   */\n      dup5\n        /* \"#utility.yul\":4220:4270   */\n      mstore\n        /* \"#utility.yul\":4299:4303   */\n      0x20\n        /* \"#utility.yul\":4294:4297   */\n      dup5\n        /* \"#utility.yul\":4290:4304   */\n      add\n        /* \"#utility.yul\":4283:4304   */\n      swap4\n      pop\n        /* \"#utility.yul\":4170:4314   */\n      pop\n        /* \"#utility.yul\":4154:4158   */\n      0x20\n        /* \"#utility.yul\":4149:4152   */\n      dup2\n        /* \"#utility.yul\":4145:4159   */\n      add\n        /* \"#utility.yul\":4138:4159   */\n      swap1\n      pop\n        /* \"#utility.yul\":4094:4314   */\n      jump(tag_219)\n    tag_221:\n        /* \"#utility.yul\":4098:4119   */\n      pop\n        /* \"#utility.yul\":3712:4320   */\n      pop\n      pop\n        /* \"#utility.yul\":3610:4320   */\n      swap4\n      swap3\n      pop\n      pop\n      pop\n      jump\t// out\n        /* \"#utility.yul\":4343:4713   */\n    tag_161:\n        /* \"#utility.yul\":4414:4419   */\n      0x00\n        /* \"#utility.yul\":4463:4466   */\n      dup3\n        /* \"#utility.yul\":4456:4460   */\n      0x1f\n        /* \"#utility.yul\":4448:4454   */\n      dup4\n        /* \"#utility.yul\":4444:4461   */\n      add\n        /* \"#utility.yul\":4440:4467   */\n      slt\n        /* \"#utility.yul\":4430:4552   */\n      tag_224\n      jumpi\n        /* \"#utility.yul\":4471:4550   */\n      tag_225\n      tag_151\n      jump\t// in\n    tag_225:\n        /* \"#utility.yul\":4430:4552   */\n    tag_224:\n        /* \"#utility.yul\":4588:4594   */\n      dup2\n        /* \"#utility.yul\":4575:4595   */\n      calldataload\n        /* \"#utility.yul\":4613:4707   */\n      tag_226\n        /* \"#utility.yul\":4703:4706   */\n      dup5\n        /* \"#utility.yul\":4695:4701   */\n      dup3\n        /* \"#utility.yul\":4688:4692   */\n      0x20\n        /* \"#utility.yul\":4680:4686   */\n      dup7\n        /* \"#utility.yul\":4676:4693   */\n      add\n        /* \"#utility.yul\":4613:4707   */\n      tag_160\n      jump\t// in\n    tag_226:\n        /* \"#utility.yul\":4604:4707   */\n      swap2\n      pop\n        /* \"#utility.yul\":4420:4713   */\n      pop\n        /* \"#utility.yul\":4343:4713   */\n      swap3\n      swap2\n      pop\n      pop\n      jump\t// out\n        /* \"#utility.yul\":4719:5258   */\n    tag_21:\n        /* \"#utility.yul\":4803:4809   */\n      0x00\n        /* \"#utility.yul\":4852:4854   */\n      0x20\n        /* \"#utility.yul\":4840:4849   */\n      dup3\n        /* \"#utility.yul\":4831:4838   */\n      dup5\n        /* \"#utility.yul\":4827:4850   */\n      sub\n        /* \"#utility.yul\":4823:4855   */\n      slt\n        /* \"#utility.yul\":4820:4939   */\n      iszero\n      tag_228\n      jumpi\n        /* \"#utility.yul\":4858:4937   */\n      tag_229\n      tag_141\n      jump\t// in\n    tag_229:\n        /* \"#utility.yul\":4820:4939   */\n    tag_228:\n        /* \"#utility.yul\":5006:5007   */\n      0x00\n        /* \"#utility.yul\":4995:5004   */\n      dup3\n        /* \"#utility.yul\":4991:5008   */\n      add\n        /* \"#utility.yul\":4978:5009   */\n      calldataload\n        /* \"#utility.yul\":5036:5054   */\n      0xffffffffffffffff\n        /* \"#utility.yul\":5028:5034   */\n      dup2\n        /* \"#utility.yul\":5025:5055   */\n      gt\n        /* \"#utility.yul\":5022:5139   */\n      iszero\n      tag_230\n      jumpi\n        /* \"#utility.yul\":5058:5137   */\n      tag_231\n      tag_142\n      jump\t// in\n    tag_231:\n        /* \"#utility.yul\":5022:5139   */\n    tag_230:\n        /* \"#utility.yul\":5163:5241   */\n      tag_232\n        /* \"#utility.yul\":5233:5240   */\n      dup5\n        /* \"#utility.yul\":5224:5230   */\n      dup3\n        /* \"#utility.yul\":5213:5222   */\n      dup6\n        /* \"#utility.yul\":5209:5231   */\n      add\n        /* \"#utility.yul\":5163:5241   */\n      tag_161\n      jump\t// in\n    tag_232:\n        /* \"#utility.yul\":5153:5241   */\n      swap2\n      pop\n        /* \"#utility.yul\":4949:5251   */\n      pop\n        /* \"#utility.yul\":4719:5258   */\n      swap3\n      swap2\n      pop\n      pop\n      jump\t// out\n        /* \"#utility.yul\":5264:5363   */\n    tag_162:\n        /* \"#utility.yul\":5316:5322   */\n      0x00\n        /* \"#utility.yul\":5350:5355   */\n      dup2\n        /* \"#utility.yul\":5344:5356   */\n      mload\n        /* \"#utility.yul\":5334:5356   */\n      swap1\n      pop\n        /* \"#utility.yul\":5264:5363   */\n      swap2\n      swap1\n      pop\n      jump\t// out\n        /* \"#utility.yul\":5369:5538   */\n    tag_163:\n        /* \"#utility.yul\":5453:5464   */\n      0x00\n        /* \"#utility.yul\":5487:5493   */\n      dup3\n        /* \"#utility.yul\":5482:5485   */\n      dup3\n        /* \"#utility.yul\":5475:5494   */\n      mstore\n        /* \"#utility.yul\":5527:5531   */\n      0x20\n        /* \"#utility.yul\":5522:5525   */\n      dup3\n        /* \"#utility.yul\":5518:5532   */\n      add\n        /* \"#utility.yul\":5503:5532   */\n      swap1\n      pop\n        /* \"#utility.yul\":5369:5538   */\n      swap3\n      swap2\n      pop\n      pop\n      jump\t// out\n        /* \"#utility.yul\":5544:5683   */\n    tag_164:\n        /* \"#utility.yul\":5633:5639   */\n      dup3\n        /* \"#utility.yul\":5628:5631   */\n      dup2\n        /* \"#utility.yul\":5623:5626   */\n      dup4\n        /* \"#utility.yul\":5617:5640   */\n      mcopy\n        /* \"#utility.yul\":5674:5675   */\n      0x00\n        /* \"#utility.yul\":5665:5671   */\n      dup4\n        /* \"#utility.yul\":5660:5663   */\n      dup4\n        /* \"#utility.yul\":5656:5672   */\n      add\n        /* \"#utility.yul\":5649:5676   */\n      mstore\n        /* \"#utility.yul\":5544:5683   */\n      pop\n      pop\n      pop\n      jump\t// out\n        /* \"#utility.yul\":5689:6066   */\n    tag_165:\n        /* \"#utility.yul\":5777:5780   */\n      0x00\n        /* \"#utility.yul\":5805:5844   */\n      tag_237\n        /* \"#utility.yul\":5838:5843   */\n      dup3\n        /* \"#utility.yul\":5805:5844   */\n      tag_162\n      jump\t// in\n    tag_237:\n        /* \"#utility.yul\":5860:5931   */\n      tag_238\n        /* \"#utility.yul\":5924:5930   */\n      dup2\n        /* \"#utility.yul\":5919:5922   */\n      dup6\n        /* \"#utility.yul\":5860:5931   */\n      tag_163\n      jump\t// in\n    tag_238:\n        /* \"#utility.yul\":5853:5931   */\n      swap4\n      pop\n        /* \"#utility.yul\":5940:6005   */\n      tag_239\n        /* \"#utility.yul\":5998:6004   */\n      dup2\n        /* \"#utility.yul\":5993:5996   */\n      dup6\n        /* \"#utility.yul\":5986:5990   */\n      0x20\n        /* \"#utility.yul\":5979:5984   */\n      dup7\n        /* \"#utility.yul\":5975:5991   */\n      add\n        /* \"#utility.yul\":5940:6005   */\n      tag_164\n      jump\t// in\n    tag_239:\n        /* \"#utility.yul\":6030:6059   */\n      tag_240\n        /* \"#utility.yul\":6052:6058   */\n      dup2\n        /* \"#utility.yul\":6030:6059   */\n      tag_152\n      jump\t// in\n    tag_240:\n        /* \"#utility.yul\":6025:6028   */\n      dup5\n        /* \"#utility.yul\":6021:6060   */\n      add\n        /* \"#utility.yul\":6014:6060   */\n      swap2\n      pop\n        /* \"#utility.yul\":5781:6066   */\n      pop\n        /* \"#utility.yul\":5689:6066   */\n      swap3\n      swap2\n      pop\n      pop\n      jump\t// out\n        /* \"#utility.yul\":6072:6385   */\n    tag_27:\n        /* \"#utility.yul\":6185:6189   */\n      0x00\n        /* \"#utility.yul\":6223:6225   */\n      0x20\n        /* \"#utility.yul\":6212:6221   */\n      dup3\n        /* \"#utility.yul\":6208:6226   */\n      add\n        /* \"#utility.yul\":6200:6226   */\n      swap1\n      pop\n        /* \"#utility.yul\":6272:6281   */\n      dup2\n        /* \"#utility.yul\":6266:6270   */\n      dup2\n        /* \"#utility.yul\":6262:6282   */\n      sub\n        /* \"#utility.yul\":6258:6259   */\n      0x00\n        /* \"#utility.yul\":6247:6256   */\n      dup4\n        /* \"#utility.yul\":6243:6260   */\n      add\n        /* \"#utility.yul\":6236:6283   */\n      mstore\n        /* \"#utility.yul\":6300:6378   */\n      tag_242\n        /* \"#utility.yul\":6373:6377   */\n      dup2\n        /* \"#utility.yul\":6364:6370   */\n      dup5\n        /* \"#utility.yul\":6300:6378   */\n      tag_165\n      jump\t// in\n    tag_242:\n        /* \"#utility.yul\":6292:6378   */\n      swap1\n      pop\n        /* \"#utility.yul\":6072:6385   */\n      swap3\n      swap2\n      pop\n      pop\n      jump\t// out\n        /* \"#utility.yul\":6391:6720   */\n    tag_30:\n        /* \"#utility.yul\":6450:6456   */\n      0x00\n        /* \"#utility.yul\":6499:6501   */\n      0x20\n        /* \"#utility.yul\":6487:6496   */\n      dup3\n        /* \"#utility.yul\":6478:6485   */\n      dup5\n        /* \"#utility.yul\":6474:6497   */\n      sub\n        /* \"#utility.yul\":6470:6502   */\n      slt\n        /* \"#utility.yul\":6467:6586   */\n      iszero\n      tag_244\n      jumpi\n        /* \"#utility.yul\":6505:6584   */\n      tag_245\n      tag_141\n      jump\t// in\n    tag_245:\n        /* \"#utility.yul\":6467:6586   */\n    tag_244:\n        /* \"#utility.yul\":6625:6626   */\n      0x00\n        /* \"#utility.yul\":6650:6703   */\n      tag_246\n        /* \"#utility.yul\":6695:6702   */\n      dup5\n        /* \"#utility.yul\":6686:6692   */\n      dup3\n        /* \"#utility.yul\":6675:6684   */\n      dup6\n        /* \"#utility.yul\":6671:6693   */\n      add\n        /* \"#utility.yul\":6650:6703   */\n      tag_159\n      jump\t// in\n    tag_246:\n        /* \"#utility.yul\":6640:6703   */\n      swap2\n      pop\n        /* \"#utility.yul\":6596:6713   */\n      pop\n        /* \"#utility.yul\":6391:6720   */\n      swap3\n      swap2\n      pop\n      pop\n      jump\t// out\n        /* \"#utility.yul\":6726:6844   */\n    tag_166:\n        /* \"#utility.yul\":6813:6837   */\n      tag_248\n        /* \"#utility.yul\":6831:6836   */\n      dup2\n        /* \"#utility.yul\":6813:6837   */\n      tag_144\n      jump\t// in\n    tag_248:\n        /* \"#utility.yul\":6808:6811   */\n      dup3\n        /* \"#utility.yul\":6801:6838   */\n      mstore\n        /* \"#utility.yul\":6726:6844   */\n      pop\n      pop\n      jump\t// out\n        /* \"#utility.yul\":6850:7072   */\n    tag_39:\n        /* \"#utility.yul\":6943:6947   */\n      0x00\n        /* \"#utility.yul\":6981:6983   */\n      0x20\n        /* \"#utility.yul\":6970:6979   */\n      dup3\n        /* \"#utility.yul\":6966:6984   */\n      add\n        /* \"#utility.yul\":6958:6984   */\n      swap1\n      pop\n        /* \"#utility.yul\":6994:7065   */\n      tag_250\n        /* \"#utility.yul\":7062:7063   */\n      0x00\n        /* \"#utility.yul\":7051:7060   */\n      dup4\n        /* \"#utility.yul\":7047:7064   */\n      add\n        /* \"#utility.yul\":7038:7044   */\n      dup5\n        /* \"#utility.yul\":6994:7065   */\n      tag_166\n      jump\t// in\n    tag_250:\n        /* \"#utility.yul\":6850:7072   */\n      swap3\n      swap2\n      pop\n      pop\n      jump\t// out\n        /* \"#utility.yul\":7078:7258   */\n    tag_167:\n        /* \"#utility.yul\":7126:7203   */\n      0x4e487b7100000000000000000000000000000000000000000000000000000000\n        /* \"#utility.yul\":7123:7124   */\n      0x00\n        /* \"#utility.yul\":7116:7204   */\n      mstore\n        /* \"#utility.yul\":7223:7227   */\n      0x11\n        /* \"#utility.yul\":7220:7221   */\n      0x04\n        /* \"#utility.yul\":7213:7228   */\n      mstore\n        /* \"#utility.yul\":7247:7251   */\n      0x24\n        /* \"#utility.yul\":7244:7245   */\n      0x00\n        /* \"#utility.yul\":7237:7252   */\n      revert\n        /* \"#utility.yul\":7264:7455   */\n    tag_52:\n        /* \"#utility.yul\":7304:7307   */\n      0x00\n        /* \"#utility.yul\":7323:7343   */\n      tag_253\n        /* \"#utility.yul\":7341:7342   */\n      dup3\n        /* \"#utility.yul\":7323:7343   */\n      tag_149\n      jump\t// in\n    tag_253:\n        /* \"#utility.yul\":7318:7343   */\n      swap2\n      pop\n        /* \"#utility.yul\":7357:7377   */\n      tag_254\n        /* \"#utility.yul\":7375:7376   */\n      dup4\n        /* \"#utility.yul\":7357:7377   */\n      tag_149\n      jump\t// in\n    tag_254:\n        /* \"#utility.yul\":7352:7377   */\n      swap3\n      pop\n        /* \"#utility.yul\":7400:7401   */\n      dup3\n        /* \"#utility.yul\":7397:7398   */\n      dup3\n        /* \"#utility.yul\":7393:7402   */\n      add\n        /* \"#utility.yul\":7386:7402   */\n      swap1\n      pop\n        /* \"#utility.yul\":7421:7424   */\n      dup1\n        /* \"#utility.yul\":7418:7419   */\n      dup3\n        /* \"#utility.yul\":7415:7425   */\n      gt\n        /* \"#utility.yul\":7412:7448   */\n      iszero\n      tag_255\n      jumpi\n        /* \"#utility.yul\":7428:7446   */\n      tag_256\n      tag_167\n      jump\t// in\n    tag_256:\n        /* \"#utility.yul\":7412:7448   */\n    tag_255:\n        /* \"#utility.yul\":7264:7455   */\n      swap3\n      swap2\n      pop\n      pop\n      jump\t// out\n        /* \"#utility.yul\":7461:7655   */\n    tag_54:\n        /* \"#utility.yul\":7501:7505   */\n      0x00\n        /* \"#utility.yul\":7521:7541   */\n      tag_258\n        /* \"#utility.yul\":7539:7540   */\n      dup3\n        /* \"#utility.yul\":7521:7541   */\n      tag_149\n      jump\t// in\n    tag_258:\n        /* \"#utility.yul\":7516:7541   */\n      swap2\n      pop\n        /* \"#utility.yul\":7555:7575   */\n      tag_259\n        /* \"#utility.yul\":7573:7574   */\n      dup4\n        /* \"#utility.yul\":7555:7575   */\n      tag_149\n      jump\t// in\n    tag_259:\n        /* \"#utility.yul\":7550:7575   */\n      swap3\n      pop\n        /* \"#utility.yul\":7599:7600   */\n      dup3\n        /* \"#utility.yul\":7596:7597   */\n      dup3\n        /* \"#utility.yul\":7592:7601   */\n      sub\n        /* \"#utility.yul\":7584:7601   */\n      swap1\n      pop\n        /* \"#utility.yul\":7623:7624   */\n      dup2\n        /* \"#utility.yul\":7617:7621   */\n      dup2\n        /* \"#utility.yul\":7614:7625   */\n      gt\n        /* \"#utility.yul\":7611:7648   */\n      iszero\n      tag_260\n      jumpi\n        /* \"#utility.yul\":7628:7646   */\n      tag_261\n      tag_167\n      jump\t// in\n    tag_261:\n        /* \"#utility.yul\":7611:7648   */\n    tag_260:\n        /* \"#utility.yul\":7461:7655   */\n      swap3\n      swap2\n      pop\n      pop\n      jump\t// out\n        /* \"#utility.yul\":7661:8071   */\n    tag_84:\n        /* \"#utility.yul\":7701:7708   */\n      0x00\n        /* \"#utility.yul\":7724:7744   */\n      tag_263\n        /* \"#utility.yul\":7742:7743   */\n      dup3\n        /* \"#utility.yul\":7724:7744   */\n      tag_149\n      jump\t// in\n    tag_263:\n        /* \"#utility.yul\":7719:7744   */\n      swap2\n      pop\n        /* \"#utility.yul\":7758:7778   */\n      tag_264\n        /* \"#utility.yul\":7776:7777   */\n      dup4\n        /* \"#utility.yul\":7758:7778   */\n      tag_149\n      jump\t// in\n    tag_264:\n        /* \"#utility.yul\":7753:7778   */\n      swap3\n      pop\n        /* \"#utility.yul\":7813:7814   */\n      dup3\n        /* \"#utility.yul\":7810:7811   */\n      dup3\n        /* \"#utility.yul\":7806:7815   */\n      mul\n        /* \"#utility.yul\":7835:7865   */\n      tag_265\n        /* \"#utility.yul\":7853:7864   */\n      dup2\n        /* \"#utility.yul\":7835:7865   */\n      tag_149\n      jump\t// in\n    tag_265:\n        /* \"#utility.yul\":7824:7865   */\n      swap2\n      pop\n        /* \"#utility.yul\":8014:8015   */\n      dup3\n        /* \"#utility.yul\":8005:8012   */\n      dup3\n        /* \"#utility.yul\":8001:8016   */\n      div\n        /* \"#utility.yul\":7998:7999   */\n      dup5\n        /* \"#utility.yul\":7995:8017   */\n      eq\n        /* \"#utility.yul\":7975:7976   */\n      dup4\n        /* \"#utility.yul\":7968:7977   */\n      iszero\n        /* \"#utility.yul\":7948:8031   */\n      or\n        /* \"#utility.yul\":7925:8064   */\n      tag_266\n      jumpi\n        /* \"#utility.yul\":8044:8062   */\n      tag_267\n      tag_167\n      jump\t// in\n    tag_267:\n        /* \"#utility.yul\":7925:8064   */\n    tag_266:\n        /* \"#utility.yul\":7709:8071   */\n      pop\n        /* \"#utility.yul\":7661:8071   */\n      swap3\n      swap2\n      pop\n      pop\n      jump\t// out\n        /* \"#utility.yul\":8077:8257   */\n    tag_168:\n        /* \"#utility.yul\":8125:8202   */\n      0x4e487b7100000000000000000000000000000000000000000000000000000000\n        /* \"#utility.yul\":8122:8123   */\n      0x00\n        /* \"#utility.yul\":8115:8203   */\n      mstore\n        /* \"#utility.yul\":8222:8226   */\n      0x12\n        /* \"#utility.yul\":8219:8220   */\n      0x04\n        /* \"#utility.yul\":8212:8227   */\n      mstore\n        /* \"#utility.yul\":8246:8250   */\n      0x24\n        /* \"#utility.yul\":8243:8244   */\n      0x00\n        /* \"#utility.yul\":8236:8251   */\n      revert\n        /* \"#utility.yul\":8263:8448   */\n    tag_91:\n        /* \"#utility.yul\":8303:8304   */\n      0x00\n        /* \"#utility.yul\":8320:8340   */\n      tag_270\n        /* \"#utility.yul\":8338:8339   */\n      dup3\n        /* \"#utility.yul\":8320:8340   */\n      tag_149\n      jump\t// in\n    tag_270:\n        /* \"#utility.yul\":8315:8340   */\n      swap2\n      pop\n        /* \"#utility.yul\":8354:8374   */\n      tag_271\n        /* \"#utility.yul\":8372:8373   */\n      dup4\n        /* \"#utility.yul\":8354:8374   */\n      tag_149\n      jump\t// in\n    tag_271:\n        /* \"#utility.yul\":8349:8374   */\n      swap3\n      pop\n        /* \"#utility.yul\":8393:8394   */\n      dup3\n        /* \"#utility.yul\":8383:8418   */\n      tag_272\n      jumpi\n        /* \"#utility.yul\":8398:8416   */\n      tag_273\n      tag_168\n      jump\t// in\n    tag_273:\n        /* \"#utility.yul\":8383:8418   */\n    tag_272:\n        /* \"#utility.yul\":8440:8441   */\n      dup3\n        /* \"#utility.yul\":8437:8438   */\n      dup3\n        /* \"#utility.yul\":8433:8442   */\n      div\n        /* \"#utility.yul\":8428:8442   */\n      swap1\n      pop\n        /* \"#utility.yul\":8263:8448   */\n      swap3\n      swap2\n      pop\n      pop\n      jump\t// out\n        /* \"#utility.yul\":8454:8786   */\n    tag_96:\n        /* \"#utility.yul\":8575:8579   */\n      0x00\n        /* \"#utility.yul\":8613:8615   */\n      0x40\n        /* \"#utility.yul\":8602:8611   */\n      dup3\n        /* \"#utility.yul\":8598:8616   */\n      add\n        /* \"#utility.yul\":8590:8616   */\n      swap1\n      pop\n        /* \"#utility.yul\":8626:8697   */\n      tag_275\n        /* \"#utility.yul\":8694:8695   */\n      0x00\n        /* \"#utility.yul\":8683:8692   */\n      dup4\n        /* \"#utility.yul\":8679:8696   */\n      add\n        /* \"#utility.yul\":8670:8676   */\n      dup6\n        /* \"#utility.yul\":8626:8697   */\n      tag_150\n      jump\t// in\n    tag_275:\n        /* \"#utility.yul\":8707:8779   */\n      tag_276\n        /* \"#utility.yul\":8775:8777   */\n      0x20\n        /* \"#utility.yul\":8764:8773   */\n      dup4\n        /* \"#utility.yul\":8760:8778   */\n      add\n        /* \"#utility.yul\":8751:8757   */\n      dup5\n        /* \"#utility.yul\":8707:8779   */\n      tag_150\n      jump\t// in\n    tag_276:\n        /* \"#utility.yul\":8454:8786   */\n      swap4\n      swap3\n      pop\n      pop\n      pop\n      jump\t// out\n        /* \"#utility.yul\":8792:8972   */\n    tag_110:\n        /* \"#utility.yul\":8840:8917   */\n      0x4e487b7100000000000000000000000000000000000000000000000000000000\n        /* \"#utility.yul\":8837:8838   */\n      0x00\n        /* \"#utility.yul\":8830:8918   */\n      mstore\n        /* \"#utility.yul\":8937:8941   */\n      0x32\n        /* \"#utility.yul\":8934:8935   */\n      0x04\n        /* \"#utility.yul\":8927:8942   */\n      mstore\n        /* \"#utility.yul\":8961:8965   */\n      0x24\n        /* \"#utility.yul\":8958:8959   */\n      0x00\n        /* \"#utility.yul\":8951:8966   */\n      revert\n        /* \"#utility.yul\":8978:9154   */\n    tag_120:\n        /* \"#utility.yul\":9010:9011   */\n      0x00\n        /* \"#utility.yul\":9027:9047   */\n      tag_279\n        /* \"#utility.yul\":9045:9046   */\n      dup3\n        /* \"#utility.yul\":9027:9047   */\n      tag_149\n      jump\t// in\n    tag_279:\n        /* \"#utility.yul\":9022:9047   */\n      swap2\n      pop\n        /* \"#utility.yul\":9061:9081   */\n      tag_280\n        /* \"#utility.yul\":9079:9080   */\n      dup4\n        /* \"#utility.yul\":9061:9081   */\n      tag_149\n      jump\t// in\n    tag_280:\n        /* \"#utility.yul\":9056:9081   */\n      swap3\n      pop\n        /* \"#utility.yul\":9100:9101   */\n      dup3\n        /* \"#utility.yul\":9090:9125   */\n      tag_281\n      jumpi\n        /* \"#utility.yul\":9105:9123   */\n      tag_282\n      tag_168\n      jump\t// in\n    tag_282:\n        /* \"#utility.yul\":9090:9125   */\n    tag_281:\n        /* \"#utility.yul\":9146:9147   */\n      dup3\n        /* \"#utility.yul\":9143:9144   */\n      dup3\n        /* \"#utility.yul\":9139:9148   */\n      mod\n        /* \"#utility.yul\":9134:9148   */\n      swap1\n      pop\n        /* \"#utility.yul\":8978:9154   */\n      swap3\n      swap2\n      pop\n      pop\n      jump\t// out\n\n    auxdata: 0xa26469706673582212204dc20d635372843412b46cf3e0e8fbf4330465cd4dec4f3ffe937ec3d307ef5f64736f6c634300081a0033\n}\n",
				"bytecode": {
					"linkReferences": {},
					"object": "6080604052348015600e575f80fd5b50610d938061001c5f395ff3fe608060405234801561000f575f80fd5b5060043610610060575f3560e01c80633ce142f51461006457806355a547d514610094578063b24ebfcc146100b2578063c274583a146100e2578063f50b2efe14610100578063f90c49241461011c575b5f80fd5b61007e60048036038101906100799190610884565b61013a565b60405161008b91906108ca565b60405180910390f35b61009c6101cc565b6040516100a991906108fb565b60405180910390f35b6100cc60048036038101906100c79190610a8e565b610326565b6040516100d991906108fb565b60405180910390f35b6100ea610337565b6040516100f79190610b35565b60405180910390f35b61011a60048036038101906101159190610b55565b610374565b005b610124610380565b60405161013191906108ca565b60405180910390f35b5f730c39486f770b26f5527bbbf942726537986cd7eb73ffffffffffffffffffffffffffffffffffffffff168273ffffffffffffffffffffffffffffffffffffffff160361018a575f90506101c7565b816040517fec459bc00000000000000000000000000000000000000000000000000000000081526004016101be9190610b8f565b60405180910390fd5b919050565b5f806101d6610388565b90505f6101e282610495565b8161ffff16915080935081925050505f810361022a576040517f8552ff3c00000000000000000000000000000000000000000000000000000000815260040160405180910390fd5b5f5b81811015610320575f61023e84610502565b90505f8060688661024f9190610bd5565b90505f815f3690506102619190610c08565b9050803592505f8365ffffffffffff16036102a8576040517f336dc9d000000000000000000000000000000000000000000000000000000000815260040160405180910390fd5b5f88036102bf578265ffffffffffff169750610301565b878365ffffffffffff1614610300576040517fd9d1f46500000000000000000000000000000000000000000000000000000000815260040160405180910390fd5b5b838761030d9190610bd5565b965050505050808060010191505061022c565b50505090565b5f6103308261053f565b9050919050565b60606040518060400160405280601281526020017f72656473746f6e652d6d61696e2d64656d6f0000000000000000000000000000815250905090565b61037d81610550565b50565b5f6001905090565b5f8060203603356602ed57011e000081166602ed57011e000014915050806103dc576040517fe7764c9e00000000000000000000000000000000000000000000000000000000815260040160405180910390fd5b5f803690506029111561041b576040517f5796f78a00000000000000000000000000000000000000000000000000000000815260040160405180910390fd5b602936033590505f600960038362ffffff166104379190610bd5565b6104419190610bd5565b90505f3690506002826104549190610bd5565b111561048c576040517fc30a7bd700000000000000000000000000000000000000000000000000000000815260040160405180910390fd5b80935050505090565b5f805f6020846104a59190610bd5565b90505f3690508111156104e4576040517f5796f78a00000000000000000000000000000000000000000000000000000000815260040160405180910390fd5b803603359250826002856104f89190610bd5565b9250925050915091565b5f805f61050e84610619565b91509150604e8160206105219190610bd5565b8361052c9190610c3b565b6105369190610bd5565b92505050919050565b5f61054982610677565b9050919050565b5f6103e88261055f9190610ca9565b9050804210156105c157603c42826105779190610c08565b11156105bc5780426040517fb6b0916d0000000000000000000000000000000000000000000000000000000081526004016105b3929190610cd9565b60405180910390fd5b610615565b60b481426105cf9190610c08565b11156106145780426040517f0321d0b500000000000000000000000000000000000000000000000000000000815260040161060b929190610cd9565b60405180910390fd5b5b5050565b5f805f805f602060418761062d9190610bd5565b6106379190610bd5565b5f3690506106459190610c08565b9050803592506003816106589190610c08565b9050803591508262ffffff1694508163ffffffff169350505050915091565b5f60028251036106d55760028260018151811061069757610696610d00565b5b6020026020010151835f815181106106b2576106b1610d00565b5b60200260200101516106c49190610bd5565b6106ce9190610ca9565b90506107c1565b5f82510361070f576040517f9e198af900000000000000000000000000000000000000000000000000000000815260040160405180910390fd5b610718826107c6565b5f600283516107279190610ca9565b90505f600284516107389190610d2d565b036107a2575f83828151811061075157610750610d00565b5b6020026020010151846001846107679190610c08565b8151811061077857610777610d00565b5b602002602001015161078a9190610bd5565b90506002816107999190610ca9565b925050506107c1565b8281815181106107b5576107b4610d00565b5b60200260200101519150505b919050565b805160208201602082028101815b8181101561081257825b818110156108065781518151808210156107f9578084528183525b50506020810190506107de565b506020810190506107d4565b5050505050565b5f604051905090565b5f80fd5b5f80fd5b5f73ffffffffffffffffffffffffffffffffffffffff82169050919050565b5f6108538261082a565b9050919050565b61086381610849565b811461086d575f80fd5b50565b5f8135905061087e8161085a565b92915050565b5f6020828403121561089957610898610822565b5b5f6108a684828501610870565b91505092915050565b5f60ff82169050919050565b6108c4816108af565b82525050565b5f6020820190506108dd5f8301846108bb565b92915050565b5f819050919050565b6108f5816108e3565b82525050565b5f60208201905061090e5f8301846108ec565b92915050565b5f80fd5b5f601f19601f8301169050919050565b7f4e487b71000000000000000000000000000000000000000000000000000000005f52604160045260245ffd5b61095e82610918565b810181811067ffffffffffffffff8211171561097d5761097c610928565b5b80604052505050565b5f61098f610819565b905061099b8282610955565b919050565b5f67ffffffffffffffff8211156109ba576109b9610928565b5b602082029050602081019050919050565b5f80fd5b6109d8816108e3565b81146109e2575f80fd5b50565b5f813590506109f3816109cf565b92915050565b5f610a0b610a06846109a0565b610986565b90508083825260208201905060208402830185811115610a2e57610a2d6109cb565b5b835b81811015610a575780610a4388826109e5565b845260208401935050602081019050610a30565b5050509392505050565b5f82601f830112610a7557610a74610914565b5b8135610a858482602086016109f9565b91505092915050565b5f60208284031215610aa357610aa2610822565b5b5f82013567ffffffffffffffff811115610ac057610abf610826565b5b610acc84828501610a61565b91505092915050565b5f81519050919050565b5f82825260208201905092915050565b8281835e5f83830152505050565b5f610b0782610ad5565b610b118185610adf565b9350610b21818560208601610aef565b610b2a81610918565b840191505092915050565b5f6020820190508181035f830152610b4d8184610afd565b905092915050565b5f60208284031215610b6a57610b69610822565b5b5f610b77848285016109e5565b91505092915050565b610b8981610849565b82525050565b5f602082019050610ba25f830184610b80565b92915050565b7f4e487b71000000000000000000000000000000000000000000000000000000005f52601160045260245ffd5b5f610bdf826108e3565b9150610bea836108e3565b9250828201905080821115610c0257610c01610ba8565b5b92915050565b5f610c12826108e3565b9150610c1d836108e3565b9250828203905081811115610c3557610c34610ba8565b5b92915050565b5f610c45826108e3565b9150610c50836108e3565b9250828202610c5e816108e3565b91508282048414831517610c7557610c74610ba8565b5b5092915050565b7f4e487b71000000000000000000000000000000000000000000000000000000005f52601260045260245ffd5b5f610cb3826108e3565b9150610cbe836108e3565b925082610cce57610ccd610c7c565b5b828204905092915050565b5f604082019050610cec5f8301856108ec565b610cf960208301846108ec565b9392505050565b7f4e487b71000000000000000000000000000000000000000000000000000000005f52603260045260245ffd5b5f610d37826108e3565b9150610d42836108e3565b925082610d5257610d51610c7c565b5b82820690509291505056fea26469706673582212204dc20d635372843412b46cf3e0e8fbf4330465cd4dec4f3ffe937ec3d307ef5f64736f6c634300081a0033",
					"opcodes": "PUSH1 0x80 PUSH1 0x40 MSTORE CALLVALUE DUP1 ISZERO PUSH1 0xE JUMPI PUSH0 DUP1 REVERT JUMPDEST POP PUSH2 0xD93 DUP1 PUSH2 0x1C PUSH0 CODECOPY PUSH0 RETURN INVALID PUSH1 0x80 PUSH1 0x40 MSTORE CALLVALUE DUP1 ISZERO PUSH2 0xF JUMPI PUSH0 DUP1 REVERT JUMPDEST POP PUSH1 0x4 CALLDATASIZE LT PUSH2 0x60 JUMPI PUSH0 CALLDATALOAD PUSH1 0xE0 SHR DUP1 PUSH4 0x3CE142F5 EQ PUSH2 0x64 JUMPI DUP1 PUSH4 0x55A547D5 EQ PUSH2 0x94 JUMPI DUP1 PUSH4 0xB24EBFCC EQ PUSH2 0xB2 JUMPI DUP1 PUSH4 0xC274583A EQ PUSH2 0xE2 JUMPI DUP1 PUSH4 0xF50B2EFE EQ PUSH2 0x100 JUMPI DUP1 PUSH4 0xF90C4924 EQ PUSH2 0x11C JUMPI JUMPDEST PUSH0 DUP1 REVERT JUMPDEST PUSH2 0x7E PUSH1 0x4 DUP1 CALLDATASIZE SUB DUP2 ADD SWAP1 PUSH2 0x79 SWAP2 SWAP1 PUSH2 0x884 JUMP JUMPDEST PUSH2 0x13A JUMP JUMPDEST PUSH1 0x40 MLOAD PUSH2 0x8B SWAP2 SWAP1 PUSH2 0x8CA JUMP JUMPDEST PUSH1 0x40 MLOAD DUP1 SWAP2 SUB SWAP1 RETURN JUMPDEST PUSH2 0x9C PUSH2 0x1CC JUMP JUMPDEST PUSH1 0x40 MLOAD PUSH2 0xA9 SWAP2 SWAP1 PUSH2 0x8FB JUMP JUMPDEST PUSH1 0x40 MLOAD DUP1 SWAP2 SUB SWAP1 RETURN JUMPDEST PUSH2 0xCC PUSH1 0x4 DUP1 CALLDATASIZE SUB DUP2 ADD SWAP1 PUSH2 0xC7 SWAP2 SWAP1 PUSH2 0xA8E JUMP JUMPDEST PUSH2 0x326 JUMP JUMPDEST PUSH1 0x40 MLOAD PUSH2 0xD9 SWAP2 SWAP1 PUSH2 0x8FB JUMP JUMPDEST PUSH1 0x40 MLOAD DUP1 SWAP2 SUB SWAP1 RETURN JUMPDEST PUSH2 0xEA PUSH2 0x337 JUMP JUMPDEST PUSH1 0x40 MLOAD PUSH2 0xF7 SWAP2 SWAP1 PUSH2 0xB35 JUMP JUMPDEST PUSH1 0x40 MLOAD DUP1 SWAP2 SUB SWAP1 RETURN JUMPDEST PUSH2 0x11A PUSH1 0x4 DUP1 CALLDATASIZE SUB DUP2 ADD SWAP1 PUSH2 0x115 SWAP2 SWAP1 PUSH2 0xB55 JUMP JUMPDEST PUSH2 0x374 JUMP JUMPDEST STOP JUMPDEST PUSH2 0x124 PUSH2 0x380 JUMP JUMPDEST PUSH1 0x40 MLOAD PUSH2 0x131 SWAP2 SWAP1 PUSH2 0x8CA JUMP JUMPDEST PUSH1 0x40 MLOAD DUP1 SWAP2 SUB SWAP1 RETURN JUMPDEST PUSH0 PUSH20 0xC39486F770B26F5527BBBF942726537986CD7EB PUSH20 0xFFFFFFFFFFFFFFFFFFFFFFFFFFFFFFFFFFFFFFFF AND DUP3 PUSH20 0xFFFFFFFFFFFFFFFFFFFFFFFFFFFFFFFFFFFFFFFF AND SUB PUSH2 0x18A JUMPI PUSH0 SWAP1 POP PUSH2 0x1C7 JUMP JUMPDEST DUP2 PUSH1 0x40 MLOAD PUSH32 0xEC459BC000000000000000000000000000000000000000000000000000000000 DUP2 MSTORE PUSH1 0x4 ADD PUSH2 0x1BE SWAP2 SWAP1 PUSH2 0xB8F JUMP JUMPDEST PUSH1 0x40 MLOAD DUP1 SWAP2 SUB SWAP1 REVERT JUMPDEST SWAP2 SWAP1 POP JUMP JUMPDEST PUSH0 DUP1 PUSH2 0x1D6 PUSH2 0x388 JUMP JUMPDEST SWAP1 POP PUSH0 PUSH2 0x1E2 DUP3 PUSH2 0x495 JUMP JUMPDEST DUP2 PUSH2 0xFFFF AND SWAP2 POP DUP1 SWAP4 POP DUP2 SWAP3 POP POP POP PUSH0 DUP2 SUB PUSH2 0x22A JUMPI PUSH1 0x40 MLOAD PUSH32 0x8552FF3C00000000000000000000000000000000000000000000000000000000 DUP2 MSTORE PUSH1 0x4 ADD PUSH1 0x40 MLOAD DUP1 SWAP2 SUB SWAP1 REVERT JUMPDEST PUSH0 JUMPDEST DUP2 DUP2 LT ISZERO PUSH2 0x320 JUMPI PUSH0 PUSH2 0x23E DUP5 PUSH2 0x502 JUMP JUMPDEST SWAP1 POP PUSH0 DUP1 PUSH1 0x68 DUP7 PUSH2 0x24F SWAP2 SWAP1 PUSH2 0xBD5 JUMP JUMPDEST SWAP1 POP PUSH0 DUP2 PUSH0 CALLDATASIZE SWAP1 POP PUSH2 0x261 SWAP2 SWAP1 PUSH2 0xC08 JUMP JUMPDEST SWAP1 POP DUP1 CALLDATALOAD SWAP3 POP PUSH0 DUP4 PUSH6 0xFFFFFFFFFFFF AND SUB PUSH2 0x2A8 JUMPI PUSH1 0x40 MLOAD PUSH32 0x336DC9D000000000000000000000000000000000000000000000000000000000 DUP2 MSTORE PUSH1 0x4 ADD PUSH1 0x40 MLOAD DUP1 SWAP2 SUB SWAP1 REVERT JUMPDEST PUSH0 DUP9 SUB PUSH2 0x2BF JUMPI DUP3 PUSH6 0xFFFFFFFFFFFF AND SWAP8 POP PUSH2 0x301 JUMP JUMPDEST DUP8 DUP4 PUSH6 0xFFFFFFFFFFFF AND EQ PUSH2 0x300 JUMPI PUSH1 0x40 MLOAD PUSH32 0xD9D1F46500000000000000000000000000000000000000000000000000000000 DUP2 MSTORE PUSH1 0x4 ADD PUSH1 0x40 MLOAD DUP1 SWAP2 SUB SWAP1 REVERT JUMPDEST JUMPDEST DUP4 DUP8 PUSH2 0x30D SWAP2 SWAP1 PUSH2 0xBD5 JUMP JUMPDEST SWAP7 POP POP POP POP POP DUP1 DUP1 PUSH1 0x1 ADD SWAP2 POP POP PUSH2 0x22C JUMP JUMPDEST POP POP POP SWAP1 JUMP JUMPDEST PUSH0 PUSH2 0x330 DUP3 PUSH2 0x53F JUMP JUMPDEST SWAP1 POP SWAP2 SWAP1 POP JUMP JUMPDEST PUSH1 0x60 PUSH1 0x40 MLOAD DUP1 PUSH1 0x40 ADD PUSH1 0x40 MSTORE DUP1 PUSH1 0x12 DUP2 MSTORE PUSH1 0x20 ADD PUSH32 0x72656473746F6E652D6D61696E2D64656D6F0000000000000000000000000000 DUP2 MSTORE POP SWAP1 POP SWAP1 JUMP JUMPDEST PUSH2 0x37D DUP2 PUSH2 0x550 JUMP JUMPDEST POP JUMP JUMPDEST PUSH0 PUSH1 0x1 SWAP1 POP SWAP1 JUMP JUMPDEST PUSH0 DUP1 PUSH1 0x20 CALLDATASIZE SUB CALLDATALOAD PUSH7 0x2ED57011E0000 DUP2 AND PUSH7 0x2ED57011E0000 EQ SWAP2 POP POP DUP1 PUSH2 0x3DC JUMPI PUSH1 0x40 MLOAD PUSH32 0xE7764C9E00000000000000000000000000000000000000000000000000000000 DUP2 MSTORE PUSH1 0x4 ADD PUSH1 0x40 MLOAD DUP1 SWAP2 SUB SWAP1 REVERT JUMPDEST PUSH0 DUP1 CALLDATASIZE SWAP1 POP PUSH1 0x29 GT ISZERO PUSH2 0x41B JUMPI PUSH1 0x40 MLOAD PUSH32 0x5796F78A00000000000000000000000000000000000000000000000000000000 DUP2 MSTORE PUSH1 0x4 ADD PUSH1 0x40 MLOAD DUP1 SWAP2 SUB SWAP1 REVERT JUMPDEST PUSH1 0x29 CALLDATASIZE SUB CALLDATALOAD SWAP1 POP PUSH0 PUSH1 0x9 PUSH1 0x3 DUP4 PUSH3 0xFFFFFF AND PUSH2 0x437 SWAP2 SWAP1 PUSH2 0xBD5 JUMP JUMPDEST PUSH2 0x441 SWAP2 SWAP1 PUSH2 0xBD5 JUMP JUMPDEST SWAP1 POP PUSH0 CALLDATASIZE SWAP1 POP PUSH1 0x2 DUP3 PUSH2 0x454 SWAP2 SWAP1 PUSH2 0xBD5 JUMP JUMPDEST GT ISZERO PUSH2 0x48C JUMPI PUSH1 0x40 MLOAD PUSH32 0xC30A7BD700000000000000000000000000000000000000000000000000000000 DUP2 MSTORE PUSH1 0x4 ADD PUSH1 0x40 MLOAD DUP1 SWAP2 SUB SWAP1 REVERT JUMPDEST DUP1 SWAP4 POP POP POP POP SWAP1 JUMP JUMPDEST PUSH0 DUP1 PUSH0 PUSH1 0x20 DUP5 PUSH2 0x4A5 SWAP2 SWAP1 PUSH2 0xBD5 JUMP JUMPDEST SWAP1 POP PUSH0 CALLDATASIZE SWAP1 POP DUP2 GT ISZERO PUSH2 0x4E4 JUMPI PUSH1 0x40 MLOAD PUSH32 0x5796F78A00000000000000000000000000000000000000000000000000000000 DUP2 MSTORE PUSH1 0x4 ADD PUSH1 0x40 MLOAD DUP1 SWAP2 SUB SWAP1 REVERT JUMPDEST DUP1 CALLDATASIZE SUB CALLDATALOAD SWAP3 POP DUP3 PUSH1 0x2 DUP6 PUSH2 0x4F8 SWAP2 SWAP1 PUSH2 0xBD5 JUMP JUMPDEST SWAP3 POP SWAP3 POP POP SWAP2 POP SWAP2 JUMP JUMPDEST PUSH0 DUP1 PUSH0 PUSH2 0x50E DUP5 PUSH2 0x619 JUMP JUMPDEST SWAP2 POP SWAP2 POP PUSH1 0x4E DUP2 PUSH1 0x20 PUSH2 0x521 SWAP2 SWAP1 PUSH2 0xBD5 JUMP JUMPDEST DUP4 PUSH2 0x52C SWAP2 SWAP1 PUSH2 0xC3B JUMP JUMPDEST PUSH2 0x536 SWAP2 SWAP1 PUSH2 0xBD5 JUMP JUMPDEST SWAP3 POP POP POP SWAP2 SWAP1 POP JUMP JUMPDEST PUSH0 PUSH2 0x549 DUP3 PUSH2 0x677 JUMP JUMPDEST SWAP1 POP SWAP2 SWAP1 POP JUMP JUMPDEST PUSH0 PUSH2 0x3E8 DUP3 PUSH2 0x55F SWAP2 SWAP1 PUSH2 0xCA9 JUMP JUMPDEST SWAP1 POP DUP1 TIMESTAMP LT ISZERO PUSH2 0x5C1 JUMPI PUSH1 0x3C TIMESTAMP DUP3 PUSH2 0x577 SWAP2 SWAP1 PUSH2 0xC08 JUMP JUMPDEST GT ISZERO PUSH2 0x5BC JUMPI DUP1 TIMESTAMP PUSH1 0x40 MLOAD PUSH32 0xB6B0916D00000000000000000000000000000000000000000000000000000000 DUP2 MSTORE PUSH1 0x4 ADD PUSH2 0x5B3 SWAP3 SWAP2 SWAP1 PUSH2 0xCD9 JUMP JUMPDEST PUSH1 0x40 MLOAD DUP1 SWAP2 SUB SWAP1 REVERT JUMPDEST PUSH2 0x615 JUMP JUMPDEST PUSH1 0xB4 DUP2 TIMESTAMP PUSH2 0x5CF SWAP2 SWAP1 PUSH2 0xC08 JUMP JUMPDEST GT ISZERO PUSH2 0x614 JUMPI DUP1 TIMESTAMP PUSH1 0x40 MLOAD PUSH32 0x321D0B500000000000000000000000000000000000000000000000000000000 DUP2 MSTORE PUSH1 0x4 ADD PUSH2 0x60B SWAP3 SWAP2 SWAP1 PUSH2 0xCD9 JUMP JUMPDEST PUSH1 0x40 MLOAD DUP1 SWAP2 SUB SWAP1 REVERT JUMPDEST JUMPDEST POP POP JUMP JUMPDEST PUSH0 DUP1 PUSH0 DUP1 PUSH0 PUSH1 0x20 PUSH1 0x41 DUP8 PUSH2 0x62D SWAP2 SWAP1 PUSH2 0xBD5 JUMP JUMPDEST PUSH2 0x637 SWAP2 SWAP1 PUSH2 0xBD5 JUMP JUMPDEST PUSH0 CALLDATASIZE SWAP1 POP PUSH2 0x645 SWAP2 SWAP1 PUSH2 0xC08 JUMP JUMPDEST SWAP1 POP DUP1 CALLDATALOAD SWAP3 POP PUSH1 0x3 DUP2 PUSH2 0x658 SWAP2 SWAP1 PUSH2 0xC08 JUMP JUMPDEST SWAP1 POP DUP1 CALLDATALOAD SWAP2 POP DUP3 PUSH3 0xFFFFFF AND SWAP5 POP DUP2 PUSH4 0xFFFFFFFF AND SWAP4 POP POP POP POP SWAP2 POP SWAP2 JUMP JUMPDEST PUSH0 PUSH1 0x2 DUP3 MLOAD SUB PUSH2 0x6D5 JUMPI PUSH1 0x2 DUP3 PUSH1 0x1 DUP2 MLOAD DUP2 LT PUSH2 0x697 JUMPI PUSH2 0x696 PUSH2 0xD00 JUMP JUMPDEST JUMPDEST PUSH1 0x20 MUL PUSH1 0x20 ADD ADD MLOAD DUP4 PUSH0 DUP2 MLOAD DUP2 LT PUSH2 0x6B2 JUMPI PUSH2 0x6B1 PUSH2 0xD00 JUMP JUMPDEST JUMPDEST PUSH1 0x20 MUL PUSH1 0x20 ADD ADD MLOAD PUSH2 0x6C4 SWAP2 SWAP1 PUSH2 0xBD5 JUMP JUMPDEST PUSH2 0x6CE SWAP2 SWAP1 PUSH2 0xCA9 JUMP JUMPDEST SWAP1 POP PUSH2 0x7C1 JUMP JUMPDEST PUSH0 DUP3 MLOAD SUB PUSH2 0x70F JUMPI PUSH1 0x40 MLOAD PUSH32 0x9E198AF900000000000000000000000000000000000000000000000000000000 DUP2 MSTORE PUSH1 0x4 ADD PUSH1 0x40 MLOAD DUP1 SWAP2 SUB SWAP1 REVERT JUMPDEST PUSH2 0x718 DUP3 PUSH2 0x7C6 JUMP JUMPDEST PUSH0 PUSH1 0x2 DUP4 MLOAD PUSH2 0x727 SWAP2 SWAP1 PUSH2 0xCA9 JUMP JUMPDEST SWAP1 POP PUSH0 PUSH1 0x2 DUP5 MLOAD PUSH2 0x738 SWAP2 SWAP1 PUSH2 0xD2D JUMP JUMPDEST SUB PUSH2 0x7A2 JUMPI PUSH0 DUP4 DUP3 DUP2 MLOAD DUP2 LT PUSH2 0x751 JUMPI PUSH2 0x750 PUSH2 0xD00 JUMP JUMPDEST JUMPDEST PUSH1 0x20 MUL PUSH1 0x20 ADD ADD MLOAD DUP5 PUSH1 0x1 DUP5 PUSH2 0x767 SWAP2 SWAP1 PUSH2 0xC08 JUMP JUMPDEST DUP2 MLOAD DUP2 LT PUSH2 0x778 JUMPI PUSH2 0x777 PUSH2 0xD00 JUMP JUMPDEST JUMPDEST PUSH1 0x20 MUL PUSH1 0x20 ADD ADD MLOAD PUSH2 0x78A SWAP2 SWAP1 PUSH2 0xBD5 JUMP JUMPDEST SWAP1 POP PUSH1 0x2 DUP2 PUSH2 0x799 SWAP2 SWAP1 PUSH2 0xCA9 JUMP JUMPDEST SWAP3 POP POP POP PUSH2 0x7C1 JUMP JUMPDEST DUP3 DUP2 DUP2 MLOAD DUP2 LT PUSH2 0x7B5 JUMPI PUSH2 0x7B4 PUSH2 0xD00 JUMP JUMPDEST JUMPDEST PUSH1 0x20 MUL PUSH1 0x20 ADD ADD MLOAD SWAP2 POP POP JUMPDEST SWAP2 SWAP1 POP JUMP JUMPDEST DUP1 MLOAD PUSH1 0x20 DUP3 ADD PUSH1 0x20 DUP3 MUL DUP2 ADD DUP2 JUMPDEST DUP2 DUP2 LT ISZERO PUSH2 0x812 JUMPI DUP3 JUMPDEST DUP2 DUP2 LT ISZERO PUSH2 0x806 JUMPI DUP2 MLOAD DUP2 MLOAD DUP1 DUP3 LT ISZERO PUSH2 0x7F9 JUMPI DUP1 DUP5 MSTORE DUP2 DUP4 MSTORE JUMPDEST POP POP PUSH1 0x20 DUP2 ADD SWAP1 POP PUSH2 0x7DE JUMP JUMPDEST POP PUSH1 0x20 DUP2 ADD SWAP1 POP PUSH2 0x7D4 JUMP JUMPDEST POP POP POP POP POP JUMP JUMPDEST PUSH0 PUSH1 0x40 MLOAD SWAP1 POP SWAP1 JUMP JUMPDEST PUSH0 DUP1 REVERT JUMPDEST PUSH0 DUP1 REVERT JUMPDEST PUSH0 PUSH20 0xFFFFFFFFFFFFFFFFFFFFFFFFFFFFFFFFFFFFFFFF DUP3 AND SWAP1 POP SWAP2 SWAP1 POP JUMP JUMPDEST PUSH0 PUSH2 0x853 DUP3 PUSH2 0x82A JUMP JUMPDEST SWAP1 POP SWAP2 SWAP1 POP JUMP JUMPDEST PUSH2 0x863 DUP2 PUSH2 0x849 JUMP JUMPDEST DUP2 EQ PUSH2 0x86D JUMPI PUSH0 DUP1 REVERT JUMPDEST POP JUMP JUMPDEST PUSH0 DUP2 CALLDATALOAD SWAP1 POP PUSH2 0x87E DUP2 PUSH2 0x85A JUMP JUMPDEST SWAP3 SWAP2 POP POP JUMP JUMPDEST PUSH0 PUSH1 0x20 DUP3 DUP5 SUB SLT ISZERO PUSH2 0x899 JUMPI PUSH2 0x898 PUSH2 0x822 JUMP JUMPDEST JUMPDEST PUSH0 PUSH2 0x8A6 DUP5 DUP3 DUP6 ADD PUSH2 0x870 JUMP JUMPDEST SWAP2 POP POP SWAP3 SWAP2 POP POP JUMP JUMPDEST PUSH0 PUSH1 0xFF DUP3 AND SWAP1 POP SWAP2 SWAP1 POP JUMP JUMPDEST PUSH2 0x8C4 DUP2 PUSH2 0x8AF JUMP JUMPDEST DUP3 MSTORE POP POP JUMP JUMPDEST PUSH0 PUSH1 0x20 DUP3 ADD SWAP1 POP PUSH2 0x8DD PUSH0 DUP4 ADD DUP5 PUSH2 0x8BB JUMP JUMPDEST SWAP3 SWAP2 POP POP JUMP JUMPDEST PUSH0 DUP2 SWAP1 POP SWAP2 SWAP1 POP JUMP JUMPDEST PUSH2 0x8F5 DUP2 PUSH2 0x8E3 JUMP JUMPDEST DUP3 MSTORE POP POP JUMP JUMPDEST PUSH0 PUSH1 0x20 DUP3 ADD SWAP1 POP PUSH2 0x90E PUSH0 DUP4 ADD DUP5 PUSH2 0x8EC JUMP JUMPDEST SWAP3 SWAP2 POP POP JUMP JUMPDEST PUSH0 DUP1 REVERT JUMPDEST PUSH0 PUSH1 0x1F NOT PUSH1 0x1F DUP4 ADD AND SWAP1 POP SWAP2 SWAP1 POP JUMP JUMPDEST PUSH32 0x4E487B7100000000000000000000000000000000000000000000000000000000 PUSH0 MSTORE PUSH1 0x41 PUSH1 0x4 MSTORE PUSH1 0x24 PUSH0 REVERT JUMPDEST PUSH2 0x95E DUP3 PUSH2 0x918 JUMP JUMPDEST DUP2 ADD DUP2 DUP2 LT PUSH8 0xFFFFFFFFFFFFFFFF DUP3 GT OR ISZERO PUSH2 0x97D JUMPI PUSH2 0x97C PUSH2 0x928 JUMP JUMPDEST JUMPDEST DUP1 PUSH1 0x40 MSTORE POP POP POP JUMP JUMPDEST PUSH0 PUSH2 0x98F PUSH2 0x819 JUMP JUMPDEST SWAP1 POP PUSH2 0x99B DUP3 DUP3 PUSH2 0x955 JUMP JUMPDEST SWAP2 SWAP1 POP JUMP JUMPDEST PUSH0 PUSH8 0xFFFFFFFFFFFFFFFF DUP3 GT ISZERO PUSH2 0x9BA JUMPI PUSH2 0x9B9 PUSH2 0x928 JUMP JUMPDEST JUMPDEST PUSH1 0x20 DUP3 MUL SWAP1 POP PUSH1 0x20 DUP2 ADD SWAP1 POP SWAP2 SWAP1 POP JUMP JUMPDEST PUSH0 DUP1 REVERT JUMPDEST PUSH2 0x9D8 DUP2 PUSH2 0x8E3 JUMP JUMPDEST DUP2 EQ PUSH2 0x9E2 JUMPI PUSH0 DUP1 REVERT JUMPDEST POP JUMP JUMPDEST PUSH0 DUP2 CALLDATALOAD SWAP1 POP PUSH2 0x9F3 DUP2 PUSH2 0x9CF JUMP JUMPDEST SWAP3 SWAP2 POP POP JUMP JUMPDEST PUSH0 PUSH2 0xA0B PUSH2 0xA06 DUP5 PUSH2 0x9A0 JUMP JUMPDEST PUSH2 0x986 JUMP JUMPDEST SWAP1 POP DUP1 DUP4 DUP3 MSTORE PUSH1 0x20 DUP3 ADD SWAP1 POP PUSH1 0x20 DUP5 MUL DUP4 ADD DUP6 DUP2 GT ISZERO PUSH2 0xA2E JUMPI PUSH2 0xA2D PUSH2 0x9CB JUMP JUMPDEST JUMPDEST DUP4 JUMPDEST DUP2 DUP2 LT ISZERO PUSH2 0xA57 JUMPI DUP1 PUSH2 0xA43 DUP9 DUP3 PUSH2 0x9E5 JUMP JUMPDEST DUP5 MSTORE PUSH1 0x20 DUP5 ADD SWAP4 POP POP PUSH1 0x20 DUP2 ADD SWAP1 POP PUSH2 0xA30 JUMP JUMPDEST POP POP POP SWAP4 SWAP3 POP POP POP JUMP JUMPDEST PUSH0 DUP3 PUSH1 0x1F DUP4 ADD SLT PUSH2 0xA75 JUMPI PUSH2 0xA74 PUSH2 0x914 JUMP JUMPDEST JUMPDEST DUP2 CALLDATALOAD PUSH2 0xA85 DUP5 DUP3 PUSH1 0x20 DUP7 ADD PUSH2 0x9F9 JUMP JUMPDEST SWAP2 POP POP SWAP3 SWAP2 POP POP JUMP JUMPDEST PUSH0 PUSH1 0x20 DUP3 DUP5 SUB SLT ISZERO PUSH2 0xAA3 JUMPI PUSH2 0xAA2 PUSH2 0x822 JUMP JUMPDEST JUMPDEST PUSH0 DUP3 ADD CALLDATALOAD PUSH8 0xFFFFFFFFFFFFFFFF DUP2 GT ISZERO PUSH2 0xAC0 JUMPI PUSH2 0xABF PUSH2 0x826 JUMP JUMPDEST JUMPDEST PUSH2 0xACC DUP5 DUP3 DUP6 ADD PUSH2 0xA61 JUMP JUMPDEST SWAP2 POP POP SWAP3 SWAP2 POP POP JUMP JUMPDEST PUSH0 DUP2 MLOAD SWAP1 POP SWAP2 SWAP1 POP JUMP JUMPDEST PUSH0 DUP3 DUP3 MSTORE PUSH1 0x20 DUP3 ADD SWAP1 POP SWAP3 SWAP2 POP POP JUMP JUMPDEST DUP3 DUP2 DUP4 MCOPY PUSH0 DUP4 DUP4 ADD MSTORE POP POP POP JUMP JUMPDEST PUSH0 PUSH2 0xB07 DUP3 PUSH2 0xAD5 JUMP JUMPDEST PUSH2 0xB11 DUP2 DUP6 PUSH2 0xADF JUMP JUMPDEST SWAP4 POP PUSH2 0xB21 DUP2 DUP6 PUSH1 0x20 DUP7 ADD PUSH2 0xAEF JUMP JUMPDEST PUSH2 0xB2A DUP2 PUSH2 0x918 JUMP JUMPDEST DUP5 ADD SWAP2 POP POP SWAP3 SWAP2 POP POP JUMP JUMPDEST PUSH0 PUSH1 0x20 DUP3 ADD SWAP1 POP DUP2 DUP2 SUB PUSH0 DUP4 ADD MSTORE PUSH2 0xB4D DUP2 DUP5 PUSH2 0xAFD JUMP JUMPDEST SWAP1 POP SWAP3 SWAP2 POP POP JUMP JUMPDEST PUSH0 PUSH1 0x20 DUP3 DUP5 SUB SLT ISZERO PUSH2 0xB6A JUMPI PUSH2 0xB69 PUSH2 0x822 JUMP JUMPDEST JUMPDEST PUSH0 PUSH2 0xB77 DUP5 DUP3 DUP6 ADD PUSH2 0x9E5 JUMP JUMPDEST SWAP2 POP POP SWAP3 SWAP2 POP POP JUMP JUMPDEST PUSH2 0xB89 DUP2 PUSH2 0x849 JUMP JUMPDEST DUP3 MSTORE POP POP JUMP JUMPDEST PUSH0 PUSH1 0x20 DUP3 ADD SWAP1 POP PUSH2 0xBA2 PUSH0 DUP4 ADD DUP5 PUSH2 0xB80 JUMP JUMPDEST SWAP3 SWAP2 POP POP JUMP JUMPDEST PUSH32 0x4E487B7100000000000000000000000000000000000000000000000000000000 PUSH0 MSTORE PUSH1 0x11 PUSH1 0x4 MSTORE PUSH1 0x24 PUSH0 REVERT JUMPDEST PUSH0 PUSH2 0xBDF DUP3 PUSH2 0x8E3 JUMP JUMPDEST SWAP2 POP PUSH2 0xBEA DUP4 PUSH2 0x8E3 JUMP JUMPDEST SWAP3 POP DUP3 DUP3 ADD SWAP1 POP DUP1 DUP3 GT ISZERO PUSH2 0xC02 JUMPI PUSH2 0xC01 PUSH2 0xBA8 JUMP JUMPDEST JUMPDEST SWAP3 SWAP2 POP POP JUMP JUMPDEST PUSH0 PUSH2 0xC12 DUP3 PUSH2 0x8E3 JUMP JUMPDEST SWAP2 POP PUSH2 0xC1D DUP4 PUSH2 0x8E3 JUMP JUMPDEST SWAP3 POP DUP3 DUP3 SUB SWAP1 POP DUP2 DUP2 GT ISZERO PUSH2 0xC35 JUMPI PUSH2 0xC34 PUSH2 0xBA8 JUMP JUMPDEST JUMPDEST SWAP3 SWAP2 POP POP JUMP JUMPDEST PUSH0 PUSH2 0xC45 DUP3 PUSH2 0x8E3 JUMP JUMPDEST SWAP2 POP PUSH2 0xC50 DUP4 PUSH2 0x8E3 JUMP JUMPDEST SWAP3 POP DUP3 DUP3 MUL PUSH2 0xC5E DUP2 PUSH2 0x8E3 JUMP JUMPDEST SWAP2 POP DUP3 DUP3 DIV DUP5 EQ DUP4 ISZERO OR PUSH2 0xC75 JUMPI PUSH2 0xC74 PUSH2 0xBA8 JUMP JUMPDEST JUMPDEST POP SWAP3 SWAP2 POP POP JUMP JUMPDEST PUSH32 0x4E487B7100000000000000000000000000000000000000000000000000000000 PUSH0 MSTORE PUSH1 0x12 PUSH1 0x4 MSTORE PUSH1 0x24 PUSH0 REVERT JUMPDEST PUSH0 PUSH2 0xCB3 DUP3 PUSH2 0x8E3 JUMP JUMPDEST SWAP2 POP PUSH2 0xCBE DUP4 PUSH2 0x8E3 JUMP JUMPDEST SWAP3 POP DUP3 PUSH2 0xCCE JUMPI PUSH2 0xCCD PUSH2 0xC7C JUMP JUMPDEST JUMPDEST DUP3 DUP3 DIV SWAP1 POP SWAP3 SWAP2 POP POP JUMP JUMPDEST PUSH0 PUSH1 0x40 DUP3 ADD SWAP1 POP PUSH2 0xCEC PUSH0 DUP4 ADD DUP6 PUSH2 0x8EC JUMP JUMPDEST PUSH2 0xCF9 PUSH1 0x20 DUP4 ADD DUP5 PUSH2 0x8EC JUMP JUMPDEST SWAP4 SWAP3 POP POP POP JUMP JUMPDEST PUSH32 0x4E487B7100000000000000000000000000000000000000000000000000000000 PUSH0 MSTORE PUSH1 0x32 PUSH1 0x4 MSTORE PUSH1 0x24 PUSH0 REVERT JUMPDEST PUSH0 PUSH2 0xD37 DUP3 PUSH2 0x8E3 JUMP JUMPDEST SWAP2 POP PUSH2 0xD42 DUP4 PUSH2 0x8E3 JUMP JUMPDEST SWAP3 POP DUP3 PUSH2 0xD52 JUMPI PUSH2 0xD51 PUSH2 0xC7C JUMP JUMPDEST JUMPDEST DUP3 DUP3 MOD SWAP1 POP SWAP3 SWAP2 POP POP JUMP INVALID LOG2 PUSH5 0x6970667358 0x22 SLT KECCAK256 0x4D 0xC2 0xD PUSH4 0x53728434 SLT 0xB4 PUSH13 0xF3E0E8FBF4330465CD4DEC4F3F INVALID SWAP4 PUSH31 0xC3D307EF5F64736F6C634300081A0033000000000000000000000000000000 "
				},
				"gasEstimates": {
					"creation": {
						"codeDepositCost": "695000",
						"executionCost": "726",
						"totalCost": "695726"
					},
					"external": {
						"aggregateValues(uint256[])": "infinite",
						"extractTimestampsAndAssertAllAreEqual()": "infinite",
						"getAuthorisedSignerIndex(address)": "infinite",
						"getDataServiceId()": "infinite",
						"getUniqueSignersThreshold()": "426",
						"validateTimestamp(uint256)": "infinite"
					}
				},
				"methodIdentifiers": {
					"aggregateValues(uint256[])": "b24ebfcc",
					"extractTimestampsAndAssertAllAreEqual()": "55a547d5",
					"getAuthorisedSignerIndex(address)": "3ce142f5",
					"getDataServiceId()": "c274583a",
					"getUniqueSignersThreshold()": "f90c4924",
					"validateTimestamp(uint256)": "f50b2efe"
				}
			},
			"storageLayout": {
				"storage": [],
				"types": null
			},
			"userdoc": {
				"kind": "user",
				"methods": {},
				"version": 1
			}
		}
	}
}