{
	"contracts/PriceBet.sol": {
		"PriceBet": {
			"abi": [
				{
					"inputs": [
						{
							"internalType": "uint256",
							"name": "_expected",
							"type": "uint256"
						},
						{
							"internalType": "uint256",
							"name": "_end",
							"type": "uint256"
						}
					],
					"stateMutability": "nonpayable",
					"type": "constructor"
				},
				{
					"inputs": [],
					"name": "CalldataMustHaveValidPayload",
					"type": "error"
				},
				{
					"inputs": [],
					"name": "CalldataOverOrUnderFlow",
					"type": "error"
				},
				{
					"inputs": [],
					"name": "CanNotPickMedianOfEmptyArray",
					"type": "error"
				},
				{
					"inputs": [],
					"name": "DataPackageTimestampMustNotBeZero",
					"type": "error"
				},
				{
					"inputs": [],
					"name": "DataPackageTimestampsMustBeEqual",
					"type": "error"
				},
				{
					"inputs": [],
					"name": "DataTimestampCannotBeZero",
					"type": "error"
				},
				{
					"inputs": [],
					"name": "EachSignerMustProvideTheSameValue",
					"type": "error"
				},
				{
					"inputs": [],
					"name": "EmptyCalldataPointersArr",
					"type": "error"
				},
				{
					"inputs": [],
					"name": "GetDataServiceIdNotImplemented",
					"type": "error"
				},
				{
					"inputs": [],
					"name": "IncorrectUnsignedMetadataSize",
					"type": "error"
				},
				{
					"inputs": [
						{
							"internalType": "uint256",
							"name": "receivedSignersCount",
							"type": "uint256"
						},
						{
							"internalType": "uint256",
							"name": "requiredSignersCount",
							"type": "uint256"
						}
					],
					"name": "InsufficientNumberOfUniqueSigners",
					"type": "error"
				},
				{
					"inputs": [],
					"name": "InvalidCalldataPointer",
					"type": "error"
				},
				{
					"inputs": [],
					"name": "RedstonePayloadMustHaveAtLeastOneDataPackage",
					"type": "error"
				},
				{
					"inputs": [
						{
							"internalType": "address",
							"name": "receivedSigner",
							"type": "address"
						}
					],
					"name": "SignerNotAuthorised",
					"type": "error"
				},
				{
					"inputs": [],
					"name": "TimestampsMustBeEqual",
					"type": "error"
				},
				{
					"inputs": [
						{
							"internalType": "uint256",
							"name": "valueByteSize",
							"type": "uint256"
						}
					],
					"name": "TooLargeValueByteSize",
					"type": "error"
				},
				{
					"inputs": [
						{
							"internalType": "uint256[]",
							"name": "values",
							"type": "uint256[]"
						}
					],
					"name": "aggregateValues",
					"outputs": [
						{
							"internalType": "uint256",
							"name": "",
							"type": "uint256"
						}
					],
					"stateMutability": "view",
					"type": "function"
				},
				{
					"inputs": [
						{
							"internalType": "address",
							"name": "",
							"type": "address"
						}
					],
					"name": "bets",
					"outputs": [
						{
							"internalType": "int8",
							"name": "",
							"type": "int8"
						}
					],
					"stateMutability": "view",
					"type": "function"
				},
				{
					"inputs": [],
					"name": "claim",
					"outputs": [],
					"stateMutability": "nonpayable",
					"type": "function"
				},
				{
					"inputs": [
						{
							"internalType": "address",
							"name": "",
							"type": "address"
						}
					],
					"name": "claims",
					"outputs": [
						{
							"internalType": "bool",
							"name": "",
							"type": "bool"
						}
					],
					"stateMutability": "view",
					"type": "function"
				},
				{
					"inputs": [],
					"name": "end",
					"outputs": [
						{
							"internalType": "uint256",
							"name": "",
							"type": "uint256"
						}
					],
					"stateMutability": "view",
					"type": "function"
				},
				{
					"inputs": [],
					"name": "endLimit",
					"outputs": [
						{
							"internalType": "uint256",
							"name": "",
							"type": "uint256"
						}
					],
					"stateMutability": "view",
					"type": "function"
				},
				{
					"inputs": [],
					"name": "expected",
					"outputs": [
						{
							"internalType": "uint256",
							"name": "",
							"type": "uint256"
						}
					],
					"stateMutability": "view",
					"type": "function"
				},
				{
					"inputs": [],
					"name": "extractTimestampsAndAssertAllAreEqual",
					"outputs": [
						{
							"internalType": "uint256",
							"name": "extractedTimestamp",
							"type": "uint256"
						}
					],
					"stateMutability": "pure",
					"type": "function"
				},
				{
					"inputs": [],
					"name": "finalize",
					"outputs": [],
					"stateMutability": "nonpayable",
					"type": "function"
				},
				{
					"inputs": [
						{
							"internalType": "address",
							"name": "signerAddress",
							"type": "address"
						}
					],
					"name": "getAuthorisedSignerIndex",
					"outputs": [
						{
							"internalType": "uint8",
							"name": "",
							"type": "uint8"
						}
					],
					"stateMutability": "view",
					"type": "function"
				},
				{
					"inputs": [],
					"name": "getDataServiceId",
					"outputs": [
						{
							"internalType": "string",
							"name": "",
							"type": "string"
						}
					],
					"stateMutability": "view",
					"type": "function"
				},
				{
					"inputs": [],
					"name": "getUniqueSignersThreshold",
					"outputs": [
						{
							"internalType": "uint8",
							"name": "",
							"type": "uint8"
						}
					],
					"stateMutability": "view",
					"type": "function"
				},
				{
					"inputs": [],
					"name": "noPool",
					"outputs": [
						{
							"internalType": "uint256",
							"name": "",
							"type": "uint256"
						}
					],
					"stateMutability": "view",
					"type": "function"
				},
				{
					"inputs": [],
					"name": "outcome",
					"outputs": [
						{
							"internalType": "int256",
							"name": "",
							"type": "int256"
						}
					],
					"stateMutability": "view",
					"type": "function"
				},
				{
					"inputs": [
						{
							"internalType": "uint256",
							"name": "bet",
							"type": "uint256"
						}
					],
					"name": "payout",
					"outputs": [
						{
							"internalType": "uint256",
							"name": "",
							"type": "uint256"
						}
					],
					"stateMutability": "view",
					"type": "function"
				},
				{
					"inputs": [
						{
							"internalType": "bool",
							"name": "_outcome",
							"type": "bool"
						}
					],
					"name": "placeBet",
					"outputs": [],
					"stateMutability": "payable",
					"type": "function"
				},
				{
					"inputs": [
						{
							"internalType": "address",
							"name": "",
							"type": "address"
						}
					],
					"name": "stakes",
					"outputs": [
						{
							"internalType": "uint256",
							"name": "",
							"type": "uint256"
						}
					],
					"stateMutability": "view",
					"type": "function"
				},
				{
					"inputs": [
						{
							"internalType": "uint256",
							"name": "receivedTimestampMilliseconds",
							"type": "uint256"
						}
					],
					"name": "validateTimestamp",
					"outputs": [],
					"stateMutability": "view",
					"type": "function"
				},
				{
					"inputs": [],
					"name": "yesPool",
					"outputs": [
						{
							"internalType": "uint256",
							"name": "",
							"type": "uint256"
						}
					],
					"stateMutability": "view",
					"type": "function"
				}
			],
			"devdoc": {
				"kind": "dev",
				"methods": {
					"aggregateValues(uint256[])": {
						"details": "This function may be overridden by the child consumer contract. It should aggregate values from different signers to a single uint value. By default, it calculates the median value",
						"params": {
							"values": "An array of uint256 values from different signers"
						},
						"returns": {
							"_0": "Result of the aggregation in the form of a single number"
						}
					},
					"getDataServiceId()": {
						"details": "This function must be implemented by the child consumer contract. It should return dataServiceId which DataServiceWrapper will use if not provided explicitly . If not overridden, value will always have to be provided explicitly in DataServiceWrapper.",
						"returns": {
							"_0": "dataServiceId being consumed by contract"
						}
					},
					"getUniqueSignersThreshold()": {
						"details": "This function should be overridden by the child consumer contract.",
						"returns": {
							"_0": "The minimum required value of unique authorised signers"
						}
					},
					"validateTimestamp(uint256)": {
						"details": "This function may be overridden by the child consumer contract. It should validate the timestamp against the current time (block.timestamp) It should revert with a helpful message if the timestamp is not valid",
						"params": {
							"receivedTimestampMilliseconds": "Timestamp extracted from calldata"
						}
					}
				},
				"version": 1
			},
			"evm": {
				"assembly": "    /* \"contracts/PriceBet.sol\":92:2385  contract PriceBet is MainDemoConsumerBase{... */\n  mstore(0x40, 0x80)\n    /* \"contracts/PriceBet.sol\":212:213  0 */\n  0x00\n    /* \"contracts/PriceBet.sol\":188:213  int256 public outcome = 0 */\n  0x02\n  sstore\n    /* \"contracts/PriceBet.sol\":464:649  constructor(... */\n  callvalue\n  dup1\n  iszero\n  tag_1\n  jumpi\n  0x00\n  dup1\n  revert\ntag_1:\n  pop\n  mload(0x40)\n  sub(codesize, bytecodeSize)\n  dup1\n  bytecodeSize\n  dup4\n  codecopy\n  dup2\n  dup2\n  add\n  0x40\n  mstore\n  dup2\n  add\n  swap1\n  tag_2\n  swap2\n  swap1\n  tag_3\n  jump\t// in\ntag_2:\n    /* \"contracts/PriceBet.sol\":578:592  bytes32(\"BTC\") */\n  0x4254430000000000000000000000000000000000000000000000000000000000\n    /* \"contracts/PriceBet.sol\":569:575  symbol */\n  0x00\n    /* \"contracts/PriceBet.sol\":569:592  symbol = bytes32(\"BTC\") */\n  dup2\n  swap1\n  sstore\n  pop\n    /* \"contracts/PriceBet.sol\":613:622  _expected */\n  dup2\n    /* \"contracts/PriceBet.sol\":602:610  expected */\n  0x01\n    /* \"contracts/PriceBet.sol\":602:622  expected = _expected */\n  dup2\n  swap1\n  sstore\n  pop\n    /* \"contracts/PriceBet.sol\":638:642  _end */\n  dup1\n    /* \"contracts/PriceBet.sol\":632:635  end */\n  0x03\n    /* \"contracts/PriceBet.sol\":632:642  end = _end */\n  dup2\n  swap1\n  sstore\n  pop\n    /* \"contracts/PriceBet.sol\":464:649  constructor(... */\n  pop\n  pop\n    /* \"contracts/PriceBet.sol\":92:2385  contract PriceBet is MainDemoConsumerBase{... */\n  jump(tag_6)\n    /* \"#utility.yul\":88:205   */\ntag_8:\n    /* \"#utility.yul\":197:198   */\n  0x00\n    /* \"#utility.yul\":194:195   */\n  dup1\n    /* \"#utility.yul\":187:199   */\n  revert\n    /* \"#utility.yul\":334:411   */\ntag_10:\n    /* \"#utility.yul\":371:378   */\n  0x00\n    /* \"#utility.yul\":400:405   */\n  dup2\n    /* \"#utility.yul\":389:405   */\n  swap1\n  pop\n    /* \"#utility.yul\":334:411   */\n  swap2\n  swap1\n  pop\n  jump\t// out\n    /* \"#utility.yul\":417:539   */\ntag_11:\n    /* \"#utility.yul\":490:514   */\n  tag_19\n    /* \"#utility.yul\":508:513   */\n  dup2\n    /* \"#utility.yul\":490:514   */\n  tag_10\n  jump\t// in\ntag_19:\n    /* \"#utility.yul\":483:488   */\n  dup2\n    /* \"#utility.yul\":480:515   */\n  eq\n    /* \"#utility.yul\":470:533   */\n  tag_20\n  jumpi\n    /* \"#utility.yul\":529:530   */\n  0x00\n    /* \"#utility.yul\":526:527   */\n  dup1\n    /* \"#utility.yul\":519:531   */\n  revert\n    /* \"#utility.yul\":470:533   */\ntag_20:\n    /* \"#utility.yul\":417:539   */\n  pop\n  jump\t// out\n    /* \"#utility.yul\":545:688   */\ntag_12:\n    /* \"#utility.yul\":602:607   */\n  0x00\n    /* \"#utility.yul\":633:639   */\n  dup2\n    /* \"#utility.yul\":627:640   */\n  mload\n    /* \"#utility.yul\":618:640   */\n  swap1\n  pop\n    /* \"#utility.yul\":649:682   */\n  tag_22\n    /* \"#utility.yul\":676:681   */\n  dup2\n    /* \"#utility.yul\":649:682   */\n  tag_11\n  jump\t// in\ntag_22:\n    /* \"#utility.yul\":545:688   */\n  swap3\n  swap2\n  pop\n  pop\n  jump\t// out\n    /* \"#utility.yul\":694:1201   */\ntag_3:\n    /* \"#utility.yul\":773:779   */\n  0x00\n    /* \"#utility.yul\":781:787   */\n  dup1\n    /* \"#utility.yul\":830:832   */\n  0x40\n    /* \"#utility.yul\":818:827   */\n  dup4\n    /* \"#utility.yul\":809:816   */\n  dup6\n    /* \"#utility.yul\":805:828   */\n  sub\n    /* \"#utility.yul\":801:833   */\n  slt\n    /* \"#utility.yul\":798:917   */\n  iszero\n  tag_24\n  jumpi\n    /* \"#utility.yul\":836:915   */\n  tag_25\n  tag_8\n  jump\t// in\ntag_25:\n    /* \"#utility.yul\":798:917   */\ntag_24:\n    /* \"#utility.yul\":956:957   */\n  0x00\n    /* \"#utility.yul\":981:1045   */\n  tag_26\n    /* \"#utility.yul\":1037:1044   */\n  dup6\n    /* \"#utility.yul\":1028:1034   */\n  dup3\n    /* \"#utility.yul\":1017:1026   */\n  dup7\n    /* \"#utility.yul\":1013:1035   */\n  add\n    /* \"#utility.yul\":981:1045   */\n  tag_12\n  jump\t// in\ntag_26:\n    /* \"#utility.yul\":971:1045   */\n  swap3\n  pop\n    /* \"#utility.yul\":927:1055   */\n  pop\n    /* \"#utility.yul\":1094:1096   */\n  0x20\n    /* \"#utility.yul\":1120:1184   */\n  tag_27\n    /* \"#utility.yul\":1176:1183   */\n  dup6\n    /* \"#utility.yul\":1167:1173   */\n  dup3\n    /* \"#utility.yul\":1156:1165   */\n  dup7\n    /* \"#utility.yul\":1152:1174   */\n  add\n    /* \"#utility.yul\":1120:1184   */\n  tag_12\n  jump\t// in\ntag_27:\n    /* \"#utility.yul\":1110:1184   */\n  swap2\n  pop\n    /* \"#utility.yul\":1065:1194   */\n  pop\n    /* \"#utility.yul\":694:1201   */\n  swap3\n  pop\n  swap3\n  swap1\n  pop\n  jump\t// out\n    /* \"contracts/PriceBet.sol\":92:2385  contract PriceBet is MainDemoConsumerBase{... */\ntag_6:\n  dataSize(sub_0)\n  dup1\n  dataOffset(sub_0)\n  0x00\n  codecopy\n  0x00\n  return\nstop\n\nsub_0: assembly {\n        /* \"contracts/PriceBet.sol\":92:2385  contract PriceBet is MainDemoConsumerBase{... */\n      mstore(0x40, 0x80)\n      jumpi(tag_1, lt(calldatasize, 0x04))\n      shr(0xe0, calldataload(0x00))\n      dup1\n      0x7a1fc2e2\n      gt\n      tag_21\n      jumpi\n      dup1\n      0xc6788bdd\n      gt\n      tag_22\n      jumpi\n      dup1\n      0xc6788bdd\n      eq\n      tag_16\n      jumpi\n      dup1\n      0xe1152343\n      eq\n      tag_17\n      jumpi\n      dup1\n      0xefbe1c1c\n      eq\n      tag_18\n      jumpi\n      dup1\n      0xf50b2efe\n      eq\n      tag_19\n      jumpi\n      dup1\n      0xf90c4924\n      eq\n      tag_20\n      jumpi\n      jump(tag_1)\n    tag_22:\n      dup1\n      0x7a1fc2e2\n      eq\n      tag_11\n      jumpi\n      dup1\n      0x89a78f1a\n      eq\n      tag_12\n      jumpi\n      dup1\n      0xa3b5afb1\n      eq\n      tag_13\n      jumpi\n      dup1\n      0xb24ebfcc\n      eq\n      tag_14\n      jumpi\n      dup1\n      0xc274583a\n      eq\n      tag_15\n      jumpi\n      jump(tag_1)\n    tag_21:\n      dup1\n      0x3ce142f5\n      gt\n      tag_23\n      jumpi\n      dup1\n      0x3ce142f5\n      eq\n      tag_6\n      jumpi\n      dup1\n      0x4bb278f3\n      eq\n      tag_7\n      jumpi\n      dup1\n      0x4e71d92d\n      eq\n      tag_8\n      jumpi\n      dup1\n      0x55a547d5\n      eq\n      tag_9\n      jumpi\n      dup1\n      0x6f1d4ea4\n      eq\n      tag_10\n      jumpi\n      jump(tag_1)\n    tag_23:\n      dup1\n      0x096a3778\n      eq\n      tag_2\n      jumpi\n      dup1\n      0x16934fc4\n      eq\n      tag_3\n      jumpi\n      dup1\n      0x1ce62383\n      eq\n      tag_4\n      jumpi\n      dup1\n      0x27793f87\n      eq\n      tag_5\n      jumpi\n    tag_1:\n      0x00\n      dup1\n      revert\n        /* \"contracts/PriceBet.sol\":1120:1593  function placeBet(bool _outcome) public payable {... */\n    tag_2:\n      tag_24\n      0x04\n      dup1\n      calldatasize\n      sub\n      dup2\n      add\n      swap1\n      tag_25\n      swap2\n      swap1\n      tag_26\n      jump\t// in\n    tag_25:\n      tag_27\n      jump\t// in\n    tag_24:\n      stop\n        /* \"contracts/PriceBet.sol\":315:357  mapping (address => uint256) public stakes */\n    tag_3:\n      callvalue\n      dup1\n      iszero\n      tag_28\n      jumpi\n      0x00\n      dup1\n      revert\n    tag_28:\n      pop\n      tag_29\n      0x04\n      dup1\n      calldatasize\n      sub\n      dup2\n      add\n      swap1\n      tag_30\n      swap2\n      swap1\n      tag_31\n      jump\t// in\n    tag_30:\n      tag_32\n      jump\t// in\n    tag_29:\n      mload(0x40)\n      tag_33\n      swap2\n      swap1\n      tag_34\n      jump\t// in\n    tag_33:\n      mload(0x40)\n      dup1\n      swap2\n      sub\n      swap1\n      return\n        /* \"contracts/PriceBet.sol\":159:182  uint256 public expected */\n    tag_4:\n      callvalue\n      dup1\n      iszero\n      tag_35\n      jumpi\n      0x00\n      dup1\n      revert\n    tag_35:\n      pop\n      tag_36\n      tag_37\n      jump\t// in\n    tag_36:\n      mload(0x40)\n      tag_38\n      swap2\n      swap1\n      tag_34\n      jump\t// in\n    tag_38:\n      mload(0x40)\n      dup1\n      swap2\n      sub\n      swap1\n      return\n        /* \"contracts/PriceBet.sol\":188:213  int256 public outcome = 0 */\n    tag_5:\n      callvalue\n      dup1\n      iszero\n      tag_39\n      jumpi\n      0x00\n      dup1\n      revert\n    tag_39:\n      pop\n      tag_40\n      tag_41\n      jump\t// in\n    tag_40:\n      mload(0x40)\n      tag_42\n      swap2\n      swap1\n      tag_43\n      jump\t// in\n    tag_42:\n      mload(0x40)\n      dup1\n      swap2\n      sub\n      swap1\n      return\n        /* \"@redstone-finance/evm-connector/contracts/data-services/MainDemoConsumerBase.sol\":407:691  function getAuthorisedSignerIndex(address signerAddress)... */\n    tag_6:\n      callvalue\n      dup1\n      iszero\n      tag_44\n      jumpi\n      0x00\n      dup1\n      revert\n    tag_44:\n      pop\n      tag_45\n      0x04\n      dup1\n      calldatasize\n      sub\n      dup2\n      add\n      swap1\n      tag_46\n      swap2\n      swap1\n      tag_31\n      jump\t// in\n    tag_46:\n      tag_47\n      jump\t// in\n    tag_45:\n      mload(0x40)\n      tag_48\n      swap2\n      swap1\n      tag_49\n      jump\t// in\n    tag_48:\n      mload(0x40)\n      dup1\n      swap2\n      sub\n      swap1\n      return\n        /* \"contracts/PriceBet.sol\":763:1114  function finalize() external {... */\n    tag_7:\n      callvalue\n      dup1\n      iszero\n      tag_50\n      jumpi\n      0x00\n      dup1\n      revert\n    tag_50:\n      pop\n      tag_51\n      tag_52\n      jump\t// in\n    tag_51:\n      stop\n        /* \"contracts/PriceBet.sol\":1599:1985  function claim() public {... */\n    tag_8:\n      callvalue\n      dup1\n      iszero\n      tag_53\n      jumpi\n      0x00\n      dup1\n      revert\n    tag_53:\n      pop\n      tag_54\n      tag_55\n      jump\t// in\n    tag_54:\n      stop\n        /* \"@redstone-finance/evm-connector/contracts/core/CalldataExtractor.sol\":599:2010  function extractTimestampsAndAssertAllAreEqual() public pure returns (uint256 extractedTimestamp) {... */\n    tag_9:\n      callvalue\n      dup1\n      iszero\n      tag_56\n      jumpi\n      0x00\n      dup1\n      revert\n    tag_56:\n      pop\n      tag_57\n      tag_58\n      jump\t// in\n    tag_57:\n      mload(0x40)\n      tag_59\n      swap2\n      swap1\n      tag_34\n      jump\t// in\n    tag_59:\n      mload(0x40)\n      dup1\n      swap2\n      sub\n      swap1\n      return\n        /* \"contracts/PriceBet.sol\":408:430  uint256 public yesPool */\n    tag_10:\n      callvalue\n      dup1\n      iszero\n      tag_60\n      jumpi\n      0x00\n      dup1\n      revert\n    tag_60:\n      pop\n      tag_61\n      tag_62\n      jump\t// in\n    tag_61:\n      mload(0x40)\n      tag_63\n      swap2\n      swap1\n      tag_34\n      jump\t// in\n    tag_63:\n      mload(0x40)\n      dup1\n      swap2\n      sub\n      swap1\n      return\n        /* \"contracts/PriceBet.sol\":243:266  uint256 public endLimit */\n    tag_11:\n      callvalue\n      dup1\n      iszero\n      tag_64\n      jumpi\n      0x00\n      dup1\n      revert\n    tag_64:\n      pop\n      tag_65\n      tag_66\n      jump\t// in\n    tag_65:\n      mload(0x40)\n      tag_67\n      swap2\n      swap1\n      tag_34\n      jump\t// in\n    tag_67:\n      mload(0x40)\n      dup1\n      swap2\n      sub\n      swap1\n      return\n        /* \"contracts/PriceBet.sol\":272:309  mapping (address => int8) public bets */\n    tag_12:\n      callvalue\n      dup1\n      iszero\n      tag_68\n      jumpi\n      0x00\n      dup1\n      revert\n    tag_68:\n      pop\n      tag_69\n      0x04\n      dup1\n      calldatasize\n      sub\n      dup2\n      add\n      swap1\n      tag_70\n      swap2\n      swap1\n      tag_31\n      jump\t// in\n    tag_70:\n      tag_71\n      jump\t// in\n    tag_69:\n      mload(0x40)\n      tag_72\n      swap2\n      swap1\n      tag_73\n      jump\t// in\n    tag_72:\n      mload(0x40)\n      dup1\n      swap2\n      sub\n      swap1\n      return\n        /* \"contracts/PriceBet.sol\":436:457  uint256 public noPool */\n    tag_13:\n      callvalue\n      dup1\n      iszero\n      tag_74\n      jumpi\n      0x00\n      dup1\n      revert\n    tag_74:\n      pop\n      tag_75\n      tag_76\n      jump\t// in\n    tag_75:\n      mload(0x40)\n      tag_77\n      swap2\n      swap1\n      tag_34\n      jump\t// in\n    tag_77:\n      mload(0x40)\n      dup1\n      swap2\n      sub\n      swap1\n      return\n        /* \"@redstone-finance/evm-connector/contracts/core/RedstoneConsumerBase.sol\":2697:2846  function aggregateValues(uint256[] memory values) public view virtual returns (uint256) {... */\n    tag_14:\n      callvalue\n      dup1\n      iszero\n      tag_78\n      jumpi\n      0x00\n      dup1\n      revert\n    tag_78:\n      pop\n      tag_79\n      0x04\n      dup1\n      calldatasize\n      sub\n      dup2\n      add\n      swap1\n      tag_80\n      swap2\n      swap1\n      tag_81\n      jump\t// in\n    tag_80:\n      tag_82\n      jump\t// in\n    tag_79:\n      mload(0x40)\n      tag_83\n      swap2\n      swap1\n      tag_34\n      jump\t// in\n    tag_83:\n      mload(0x40)\n      dup1\n      swap2\n      sub\n      swap1\n      return\n        /* \"@redstone-finance/evm-connector/contracts/data-services/MainDemoConsumerBase.sol\":179:298  function getDataServiceId() public view virtual override returns (string memory) {... */\n    tag_15:\n      callvalue\n      dup1\n      iszero\n      tag_84\n      jumpi\n      0x00\n      dup1\n      revert\n    tag_84:\n      pop\n      tag_85\n      tag_86\n      jump\t// in\n    tag_85:\n      mload(0x40)\n      tag_87\n      swap2\n      swap1\n      tag_88\n      jump\t// in\n    tag_87:\n      mload(0x40)\n      dup1\n      swap2\n      sub\n      swap1\n      return\n        /* \"contracts/PriceBet.sol\":363:402  mapping (address => bool) public claims */\n    tag_16:\n      callvalue\n      dup1\n      iszero\n      tag_89\n      jumpi\n      0x00\n      dup1\n      revert\n    tag_89:\n      pop\n      tag_90\n      0x04\n      dup1\n      calldatasize\n      sub\n      dup2\n      add\n      swap1\n      tag_91\n      swap2\n      swap1\n      tag_31\n      jump\t// in\n    tag_91:\n      tag_92\n      jump\t// in\n    tag_90:\n      mload(0x40)\n      tag_93\n      swap2\n      swap1\n      tag_94\n      jump\t// in\n    tag_93:\n      mload(0x40)\n      dup1\n      swap2\n      sub\n      swap1\n      return\n        /* \"contracts/PriceBet.sol\":1991:2383  function payout(uint256 bet) public view returns(uint256) {... */\n    tag_17:\n      callvalue\n      dup1\n      iszero\n      tag_95\n      jumpi\n      0x00\n      dup1\n      revert\n    tag_95:\n      pop\n      tag_96\n      0x04\n      dup1\n      calldatasize\n      sub\n      dup2\n      add\n      swap1\n      tag_97\n      swap2\n      swap1\n      tag_98\n      jump\t// in\n    tag_97:\n      tag_99\n      jump\t// in\n    tag_96:\n      mload(0x40)\n      tag_100\n      swap2\n      swap1\n      tag_34\n      jump\t// in\n    tag_100:\n      mload(0x40)\n      dup1\n      swap2\n      sub\n      swap1\n      return\n        /* \"contracts/PriceBet.sol\":219:237  uint256 public end */\n    tag_18:\n      callvalue\n      dup1\n      iszero\n      tag_101\n      jumpi\n      0x00\n      dup1\n      revert\n    tag_101:\n      pop\n      tag_102\n      tag_103\n      jump\t// in\n    tag_102:\n      mload(0x40)\n      tag_104\n      swap2\n      swap1\n      tag_34\n      jump\t// in\n    tag_104:\n      mload(0x40)\n      dup1\n      swap2\n      sub\n      swap1\n      return\n        /* \"contracts/PriceBet.sol\":659:757  function validateTimestamp(uint256 receivedTimestampMilliseconds) public view virtual override { } */\n    tag_19:\n      callvalue\n      dup1\n      iszero\n      tag_105\n      jumpi\n      0x00\n      dup1\n      revert\n    tag_105:\n      pop\n      tag_106\n      0x04\n      dup1\n      calldatasize\n      sub\n      dup2\n      add\n      swap1\n      tag_107\n      swap2\n      swap1\n      tag_98\n      jump\t// in\n    tag_107:\n      tag_108\n      jump\t// in\n    tag_106:\n      stop\n        /* \"@redstone-finance/evm-connector/contracts/data-services/MainDemoConsumerBase.sol\":302:403  function getUniqueSignersThreshold() public view virtual override returns (uint8) {... */\n    tag_20:\n      callvalue\n      dup1\n      iszero\n      tag_109\n      jumpi\n      0x00\n      dup1\n      revert\n    tag_109:\n      pop\n      tag_110\n      tag_111\n      jump\t// in\n    tag_110:\n      mload(0x40)\n      tag_112\n      swap2\n      swap1\n      tag_49\n      jump\t// in\n    tag_112:\n      mload(0x40)\n      dup1\n      swap2\n      sub\n      swap1\n      return\n        /* \"contracts/PriceBet.sol\":1120:1593  function placeBet(bool _outcome) public payable {... */\n    tag_27:\n        /* \"contracts/PriceBet.sol\":1199:1200  0 */\n      0x00\n        /* \"contracts/PriceBet.sol\":1186:1195  msg.value */\n      callvalue\n        /* \"contracts/PriceBet.sol\":1186:1200  msg.value != 0 */\n      sub\n        /* \"contracts/PriceBet.sol\":1178:1220  require(msg.value != 0, \"No value im bet\") */\n      tag_114\n      jumpi\n      mload(0x40)\n      0x08c379a000000000000000000000000000000000000000000000000000000000\n      dup2\n      mstore\n      0x04\n      add\n      tag_115\n      swap1\n      tag_116\n      jump\t// in\n    tag_115:\n      mload(0x40)\n      dup1\n      swap2\n      sub\n      swap1\n      revert\n    tag_114:\n        /* \"contracts/PriceBet.sol\":1258:1259  0 */\n      0x00\n        /* \"contracts/PriceBet.sol\":1238:1242  bets */\n      0x05\n        /* \"contracts/PriceBet.sol\":1238:1254  bets[msg.sender] */\n      0x00\n        /* \"contracts/PriceBet.sol\":1243:1253  msg.sender */\n      caller\n        /* \"contracts/PriceBet.sol\":1238:1254  bets[msg.sender] */\n      0xffffffffffffffffffffffffffffffffffffffff\n      and\n      0xffffffffffffffffffffffffffffffffffffffff\n      and\n      dup2\n      mstore\n      0x20\n      add\n      swap1\n      dup2\n      mstore\n      0x20\n      add\n      0x00\n      keccak256\n      0x00\n      swap1\n      sload\n      swap1\n      0x0100\n      exp\n      swap1\n      div\n      0x00\n      signextend\n        /* \"contracts/PriceBet.sol\":1238:1259  bets[msg.sender] == 0 */\n      0x00\n      signextend\n      eq\n        /* \"contracts/PriceBet.sol\":1230:1282  require(bets[msg.sender] == 0, \"Bet already placed\") */\n      tag_117\n      jumpi\n      mload(0x40)\n      0x08c379a000000000000000000000000000000000000000000000000000000000\n      dup2\n      mstore\n      0x04\n      add\n      tag_118\n      swap1\n      tag_119\n      jump\t// in\n    tag_118:\n      mload(0x40)\n      dup1\n      swap2\n      sub\n      swap1\n      revert\n    tag_117:\n        /* \"contracts/PriceBet.sol\":1372:1380  _outcome */\n      dup1\n        /* \"contracts/PriceBet.sol\":1369:1546  if(_outcome) {... */\n      iszero\n      tag_120\n      jumpi\n        /* \"contracts/PriceBet.sol\":1415:1416  1 */\n      0x01\n        /* \"contracts/PriceBet.sol\":1396:1400  bets */\n      0x05\n        /* \"contracts/PriceBet.sol\":1396:1412  bets[msg.sender] */\n      0x00\n        /* \"contracts/PriceBet.sol\":1401:1411  msg.sender */\n      caller\n        /* \"contracts/PriceBet.sol\":1396:1412  bets[msg.sender] */\n      0xffffffffffffffffffffffffffffffffffffffff\n      and\n      0xffffffffffffffffffffffffffffffffffffffff\n      and\n      dup2\n      mstore\n      0x20\n      add\n      swap1\n      dup2\n      mstore\n      0x20\n      add\n      0x00\n      keccak256\n      0x00\n        /* \"contracts/PriceBet.sol\":1396:1416  bets[msg.sender] = 1 */\n      0x0100\n      exp\n      dup2\n      sload\n      dup2\n      0xff\n      mul\n      not\n      and\n      swap1\n      dup4\n      0x00\n      signextend\n      0xff\n      and\n      mul\n      or\n      swap1\n      sstore\n      pop\n        /* \"contracts/PriceBet.sol\":1441:1450  msg.value */\n      callvalue\n        /* \"contracts/PriceBet.sol\":1430:1437  yesPool */\n      0x08\n      0x00\n        /* \"contracts/PriceBet.sol\":1430:1450  yesPool += msg.value */\n      dup3\n      dup3\n      sload\n      tag_121\n      swap2\n      swap1\n      tag_122\n      jump\t// in\n    tag_121:\n      swap3\n      pop\n      pop\n      dup2\n      swap1\n      sstore\n      pop\n        /* \"contracts/PriceBet.sol\":1369:1546  if(_outcome) {... */\n      jump(tag_123)\n    tag_120:\n        /* \"contracts/PriceBet.sol\":1500:1502  -1 */\n      0xffffffffffffffffffffffffffffffffffffffffffffffffffffffffffffffff\n        /* \"contracts/PriceBet.sol\":1481:1485  bets */\n      0x05\n        /* \"contracts/PriceBet.sol\":1481:1497  bets[msg.sender] */\n      0x00\n        /* \"contracts/PriceBet.sol\":1486:1496  msg.sender */\n      caller\n        /* \"contracts/PriceBet.sol\":1481:1497  bets[msg.sender] */\n      0xffffffffffffffffffffffffffffffffffffffff\n      and\n      0xffffffffffffffffffffffffffffffffffffffff\n      and\n      dup2\n      mstore\n      0x20\n      add\n      swap1\n      dup2\n      mstore\n      0x20\n      add\n      0x00\n      keccak256\n      0x00\n        /* \"contracts/PriceBet.sol\":1481:1502  bets[msg.sender] = -1 */\n      0x0100\n      exp\n      dup2\n      sload\n      dup2\n      0xff\n      mul\n      not\n      and\n      swap1\n      dup4\n      0x00\n      signextend\n      0xff\n      and\n      mul\n      or\n      swap1\n      sstore\n      pop\n        /* \"contracts/PriceBet.sol\":1526:1535  msg.value */\n      callvalue\n        /* \"contracts/PriceBet.sol\":1516:1522  noPool */\n      0x09\n      0x00\n        /* \"contracts/PriceBet.sol\":1516:1535  noPool += msg.value */\n      dup3\n      dup3\n      sload\n      tag_124\n      swap2\n      swap1\n      tag_122\n      jump\t// in\n    tag_124:\n      swap3\n      pop\n      pop\n      dup2\n      swap1\n      sstore\n      pop\n        /* \"contracts/PriceBet.sol\":1369:1546  if(_outcome) {... */\n    tag_123:\n        /* \"contracts/PriceBet.sol\":1577:1586  msg.value */\n      callvalue\n        /* \"contracts/PriceBet.sol\":1555:1561  stakes */\n      0x06\n        /* \"contracts/PriceBet.sol\":1555:1573  stakes[msg.sender] */\n      0x00\n        /* \"contracts/PriceBet.sol\":1562:1572  msg.sender */\n      caller\n        /* \"contracts/PriceBet.sol\":1555:1573  stakes[msg.sender] */\n      0xffffffffffffffffffffffffffffffffffffffff\n      and\n      0xffffffffffffffffffffffffffffffffffffffff\n      and\n      dup2\n      mstore\n      0x20\n      add\n      swap1\n      dup2\n      mstore\n      0x20\n      add\n      0x00\n      keccak256\n      0x00\n        /* \"contracts/PriceBet.sol\":1555:1586  stakes[msg.sender] += msg.value */\n      dup3\n      dup3\n      sload\n      tag_125\n      swap2\n      swap1\n      tag_122\n      jump\t// in\n    tag_125:\n      swap3\n      pop\n      pop\n      dup2\n      swap1\n      sstore\n      pop\n        /* \"contracts/PriceBet.sol\":1120:1593  function placeBet(bool _outcome) public payable {... */\n      pop\n      jump\t// out\n        /* \"contracts/PriceBet.sol\":315:357  mapping (address => uint256) public stakes */\n    tag_32:\n      mstore(0x20, 0x06)\n      dup1\n      0x00\n      mstore\n      keccak256(0x00, 0x40)\n      0x00\n      swap2\n      pop\n      swap1\n      pop\n      sload\n      dup2\n      jump\t// out\n        /* \"contracts/PriceBet.sol\":159:182  uint256 public expected */\n    tag_37:\n      sload(0x01)\n      dup2\n      jump\t// out\n        /* \"contracts/PriceBet.sol\":188:213  int256 public outcome = 0 */\n    tag_41:\n      sload(0x02)\n      dup2\n      jump\t// out\n        /* \"@redstone-finance/evm-connector/contracts/data-services/MainDemoConsumerBase.sol\":407:691  function getAuthorisedSignerIndex(address signerAddress)... */\n    tag_47:\n        /* \"@redstone-finance/evm-connector/contracts/data-services/MainDemoConsumerBase.sol\":522:527  uint8 */\n      0x00\n        /* \"@redstone-finance/evm-connector/contracts/data-services/MainDemoConsumerBase.sol\":558:600  0x0C39486f770B26F5527BBBf942726537986Cd7eb */\n      0x0c39486f770b26f5527bbbf942726537986cd7eb\n        /* \"@redstone-finance/evm-connector/contracts/data-services/MainDemoConsumerBase.sol\":541:600  signerAddress == 0x0C39486f770B26F5527BBBf942726537986Cd7eb */\n      0xffffffffffffffffffffffffffffffffffffffff\n      and\n        /* \"@redstone-finance/evm-connector/contracts/data-services/MainDemoConsumerBase.sol\":541:554  signerAddress */\n      dup3\n        /* \"@redstone-finance/evm-connector/contracts/data-services/MainDemoConsumerBase.sol\":541:600  signerAddress == 0x0C39486f770B26F5527BBBf942726537986Cd7eb */\n      0xffffffffffffffffffffffffffffffffffffffff\n      and\n      sub\n        /* \"@redstone-finance/evm-connector/contracts/data-services/MainDemoConsumerBase.sol\":537:687  if (signerAddress == 0x0C39486f770B26F5527BBBf942726537986Cd7eb) {... */\n      tag_127\n      jumpi\n        /* \"@redstone-finance/evm-connector/contracts/data-services/MainDemoConsumerBase.sol\":617:618  0 */\n      0x00\n        /* \"@redstone-finance/evm-connector/contracts/data-services/MainDemoConsumerBase.sol\":610:618  return 0 */\n      swap1\n      pop\n      jump(tag_126)\n        /* \"@redstone-finance/evm-connector/contracts/data-services/MainDemoConsumerBase.sol\":537:687  if (signerAddress == 0x0C39486f770B26F5527BBBf942726537986Cd7eb) {... */\n    tag_127:\n        /* \"@redstone-finance/evm-connector/contracts/data-services/MainDemoConsumerBase.sol\":666:679  signerAddress */\n      dup2\n        /* \"@redstone-finance/evm-connector/contracts/data-services/MainDemoConsumerBase.sol\":646:680  SignerNotAuthorised(signerAddress) */\n      mload(0x40)\n      0xec459bc000000000000000000000000000000000000000000000000000000000\n      dup2\n      mstore\n      0x04\n      add\n      tag_129\n      swap2\n      swap1\n      tag_130\n      jump\t// in\n    tag_129:\n      mload(0x40)\n      dup1\n      swap2\n      sub\n      swap1\n      revert\n        /* \"@redstone-finance/evm-connector/contracts/data-services/MainDemoConsumerBase.sol\":407:691  function getAuthorisedSignerIndex(address signerAddress)... */\n    tag_126:\n      swap2\n      swap1\n      pop\n      jump\t// out\n        /* \"contracts/PriceBet.sol\":763:1114  function finalize() external {... */\n    tag_52:\n        /* \"contracts/PriceBet.sol\":821:822  0 */\n      0x00\n        /* \"contracts/PriceBet.sol\":810:817  outcome */\n      sload(0x02)\n        /* \"contracts/PriceBet.sol\":810:822  outcome == 0 */\n      eq\n        /* \"contracts/PriceBet.sol\":802:844  require(outcome == 0, \"Already finalized\") */\n      tag_132\n      jumpi\n      mload(0x40)\n      0x08c379a000000000000000000000000000000000000000000000000000000000\n      dup2\n      mstore\n      0x04\n      add\n      tag_133\n      swap1\n      tag_134\n      jump\t// in\n    tag_133:\n      mload(0x40)\n      dup1\n      swap2\n      sub\n      swap1\n      revert\n    tag_132:\n        /* \"contracts/PriceBet.sol\":869:908  extractTimestampsAndAssertAllAreEqual() */\n      tag_135\n        /* \"contracts/PriceBet.sol\":869:906  extractTimestampsAndAssertAllAreEqual */\n      tag_58\n        /* \"contracts/PriceBet.sol\":869:908  extractTimestampsAndAssertAllAreEqual() */\n      jump\t// in\n    tag_135:\n        /* \"contracts/PriceBet.sol\":862:865  end */\n      sload(0x03)\n        /* \"contracts/PriceBet.sol\":862:908  end == extractTimestampsAndAssertAllAreEqual() */\n      eq\n        /* \"contracts/PriceBet.sol\":854:930  require(end == extractTimestampsAndAssertAllAreEqual(), \"Invalid timestamp\") */\n      tag_136\n      jumpi\n      mload(0x40)\n      0x08c379a000000000000000000000000000000000000000000000000000000000\n      dup2\n      mstore\n      0x04\n      add\n      tag_137\n      swap1\n      tag_138\n      jump\t// in\n    tag_137:\n      mload(0x40)\n      dup1\n      swap2\n      sub\n      swap1\n      revert\n    tag_136:\n        /* \"contracts/PriceBet.sol\":941:955  uint256 answer */\n      0x00\n        /* \"contracts/PriceBet.sol\":958:996  getOracleNumericValueFromTxMsg(symbol) */\n      tag_139\n        /* \"contracts/PriceBet.sol\":989:995  symbol */\n      sload(0x00)\n        /* \"contracts/PriceBet.sol\":958:988  getOracleNumericValueFromTxMsg */\n      tag_140\n        /* \"contracts/PriceBet.sol\":958:996  getOracleNumericValueFromTxMsg(symbol) */\n      jump\t// in\n    tag_139:\n        /* \"contracts/PriceBet.sol\":941:996  uint256 answer = getOracleNumericValueFromTxMsg(symbol) */\n      swap1\n      pop\n        /* \"contracts/PriceBet.sol\":1019:1027  expected */\n      sload(0x01)\n        /* \"contracts/PriceBet.sol\":1009:1015  answer */\n      dup2\n        /* \"contracts/PriceBet.sol\":1009:1027  answer >= expected */\n      lt\n        /* \"contracts/PriceBet.sol\":1006:1108  if(answer >= expected) {... */\n      tag_141\n      jumpi\n        /* \"contracts/PriceBet.sol\":1053:1054  1 */\n      0x01\n        /* \"contracts/PriceBet.sol\":1043:1050  outcome */\n      0x02\n        /* \"contracts/PriceBet.sol\":1043:1054  outcome = 1 */\n      dup2\n      swap1\n      sstore\n      pop\n        /* \"contracts/PriceBet.sol\":1006:1108  if(answer >= expected) {... */\n      jump(tag_142)\n    tag_141:\n        /* \"contracts/PriceBet.sol\":1095:1097  -1 */\n      0xffffffffffffffffffffffffffffffffffffffffffffffffffffffffffffffff\n        /* \"contracts/PriceBet.sol\":1085:1092  outcome */\n      0x02\n        /* \"contracts/PriceBet.sol\":1085:1097  outcome = -1 */\n      dup2\n      swap1\n      sstore\n      pop\n        /* \"contracts/PriceBet.sol\":1006:1108  if(answer >= expected) {... */\n    tag_142:\n        /* \"contracts/PriceBet.sol\":792:1114  {... */\n      pop\n        /* \"contracts/PriceBet.sol\":763:1114  function finalize() external {... */\n      jump\t// out\n        /* \"contracts/PriceBet.sol\":1599:1985  function claim() public {... */\n    tag_55:\n        /* \"contracts/PriceBet.sol\":1652:1653  0 */\n      0x00\n        /* \"contracts/PriceBet.sol\":1641:1648  outcome */\n      sload(0x02)\n        /* \"contracts/PriceBet.sol\":1641:1653  outcome != 0 */\n      sub\n        /* \"contracts/PriceBet.sol\":1633:1671  require(outcome != 0, \"Not finalized\") */\n      tag_144\n      jumpi\n      mload(0x40)\n      0x08c379a000000000000000000000000000000000000000000000000000000000\n      dup2\n      mstore\n      0x04\n      add\n      tag_145\n      swap1\n      tag_146\n      jump\t// in\n    tag_145:\n      mload(0x40)\n      dup1\n      swap2\n      sub\n      swap1\n      revert\n    tag_144:\n        /* \"contracts/PriceBet.sol\":1709:1716  outcome */\n      sload(0x02)\n        /* \"contracts/PriceBet.sol\":1689:1693  bets */\n      0x05\n        /* \"contracts/PriceBet.sol\":1689:1705  bets[msg.sender] */\n      0x00\n        /* \"contracts/PriceBet.sol\":1694:1704  msg.sender */\n      caller\n        /* \"contracts/PriceBet.sol\":1689:1705  bets[msg.sender] */\n      0xffffffffffffffffffffffffffffffffffffffff\n      and\n      0xffffffffffffffffffffffffffffffffffffffff\n      and\n      dup2\n      mstore\n      0x20\n      add\n      swap1\n      dup2\n      mstore\n      0x20\n      add\n      0x00\n      keccak256\n      0x00\n      swap1\n      sload\n      swap1\n      0x0100\n      exp\n      swap1\n      div\n      0x00\n      signextend\n        /* \"contracts/PriceBet.sol\":1689:1716  bets[msg.sender] == outcome */\n      0x00\n      signextend\n      eq\n        /* \"contracts/PriceBet.sol\":1681:1732  require(bets[msg.sender] == outcome, \"Did not win\") */\n      tag_147\n      jumpi\n      mload(0x40)\n      0x08c379a000000000000000000000000000000000000000000000000000000000\n      dup2\n      mstore\n      0x04\n      add\n      tag_148\n      swap1\n      tag_149\n      jump\t// in\n    tag_148:\n      mload(0x40)\n      dup1\n      swap2\n      sub\n      swap1\n      revert\n    tag_147:\n        /* \"contracts/PriceBet.sol\":1772:1777  false */\n      0x00\n        /* \"contracts/PriceBet.sol\":1750:1777  claims[msg.sender] == false */\n      iszero\n      iszero\n        /* \"contracts/PriceBet.sol\":1750:1756  claims */\n      0x07\n        /* \"contracts/PriceBet.sol\":1750:1768  claims[msg.sender] */\n      0x00\n        /* \"contracts/PriceBet.sol\":1757:1767  msg.sender */\n      caller\n        /* \"contracts/PriceBet.sol\":1750:1768  claims[msg.sender] */\n      0xffffffffffffffffffffffffffffffffffffffff\n      and\n      0xffffffffffffffffffffffffffffffffffffffff\n      and\n      dup2\n      mstore\n      0x20\n      add\n      swap1\n      dup2\n      mstore\n      0x20\n      add\n      0x00\n      keccak256\n      0x00\n      swap1\n      sload\n      swap1\n      0x0100\n      exp\n      swap1\n      div\n      0xff\n      and\n        /* \"contracts/PriceBet.sol\":1750:1777  claims[msg.sender] == false */\n      iszero\n      iszero\n      eq\n        /* \"contracts/PriceBet.sol\":1742:1797  require(claims[msg.sender] == false, \"Already claimed\") */\n      tag_150\n      jumpi\n      mload(0x40)\n      0x08c379a000000000000000000000000000000000000000000000000000000000\n      dup2\n      mstore\n      0x04\n      add\n      tag_151\n      swap1\n      tag_152\n      jump\t// in\n    tag_151:\n      mload(0x40)\n      dup1\n      swap2\n      sub\n      swap1\n      revert\n    tag_150:\n        /* \"contracts/PriceBet.sol\":1808:1821  uint256 stake */\n      0x00\n        /* \"contracts/PriceBet.sol\":1824:1830  stakes */\n      0x06\n        /* \"contracts/PriceBet.sol\":1824:1842  stakes[msg.sender] */\n      0x00\n        /* \"contracts/PriceBet.sol\":1831:1841  msg.sender */\n      caller\n        /* \"contracts/PriceBet.sol\":1824:1842  stakes[msg.sender] */\n      0xffffffffffffffffffffffffffffffffffffffff\n      and\n      0xffffffffffffffffffffffffffffffffffffffff\n      and\n      dup2\n      mstore\n      0x20\n      add\n      swap1\n      dup2\n      mstore\n      0x20\n      add\n      0x00\n      keccak256\n      sload\n        /* \"contracts/PriceBet.sol\":1808:1842  uint256 stake = stakes[msg.sender] */\n      swap1\n      pop\n        /* \"contracts/PriceBet.sol\":1861:1871  msg.sender */\n      caller\n        /* \"contracts/PriceBet.sol\":1852:1881  payable (msg.sender).transfer */\n      0xffffffffffffffffffffffffffffffffffffffff\n      and\n        /* \"contracts/PriceBet.sol\":1852:1896  payable (msg.sender).transfer(payout(stake)) */\n      0x08fc\n        /* \"contracts/PriceBet.sol\":1882:1895  payout(stake) */\n      tag_153\n        /* \"contracts/PriceBet.sol\":1889:1894  stake */\n      dup4\n        /* \"contracts/PriceBet.sol\":1882:1888  payout */\n      tag_99\n        /* \"contracts/PriceBet.sol\":1882:1895  payout(stake) */\n      jump\t// in\n    tag_153:\n        /* \"contracts/PriceBet.sol\":1852:1896  payable (msg.sender).transfer(payout(stake)) */\n      swap1\n      dup2\n      iszero\n      mul\n      swap1\n      mload(0x40)\n      0x00\n      mload(0x40)\n      dup1\n      dup4\n      sub\n      dup2\n      dup6\n      dup9\n      dup9\n      call\n      swap4\n      pop\n      pop\n      pop\n      pop\n      iszero\n      dup1\n      iszero\n      tag_155\n      jumpi\n      returndatasize\n      0x00\n      dup1\n      returndatacopy\n      revert(0x00, returndatasize)\n    tag_155:\n      pop\n        /* \"contracts/PriceBet.sol\":1915:1925  msg.sender */\n      caller\n        /* \"contracts/PriceBet.sol\":1906:1935  payable (msg.sender).transfer */\n      0xffffffffffffffffffffffffffffffffffffffff\n      and\n        /* \"contracts/PriceBet.sol\":1906:1942  payable (msg.sender).transfer(stake) */\n      0x08fc\n        /* \"contracts/PriceBet.sol\":1936:1941  stake */\n      dup3\n        /* \"contracts/PriceBet.sol\":1906:1942  payable (msg.sender).transfer(stake) */\n      swap1\n      dup2\n      iszero\n      mul\n      swap1\n      mload(0x40)\n      0x00\n      mload(0x40)\n      dup1\n      dup4\n      sub\n      dup2\n      dup6\n      dup9\n      dup9\n      call\n      swap4\n      pop\n      pop\n      pop\n      pop\n      iszero\n      dup1\n      iszero\n      tag_157\n      jumpi\n      returndatasize\n      0x00\n      dup1\n      returndatacopy\n      revert(0x00, returndatasize)\n    tag_157:\n      pop\n        /* \"contracts/PriceBet.sol\":1974:1978  true */\n      0x01\n        /* \"contracts/PriceBet.sol\":1953:1959  claims */\n      0x07\n        /* \"contracts/PriceBet.sol\":1953:1971  claims[msg.sender] */\n      0x00\n        /* \"contracts/PriceBet.sol\":1960:1970  msg.sender */\n      caller\n        /* \"contracts/PriceBet.sol\":1953:1971  claims[msg.sender] */\n      0xffffffffffffffffffffffffffffffffffffffff\n      and\n      0xffffffffffffffffffffffffffffffffffffffff\n      and\n      dup2\n      mstore\n      0x20\n      add\n      swap1\n      dup2\n      mstore\n      0x20\n      add\n      0x00\n      keccak256\n      0x00\n        /* \"contracts/PriceBet.sol\":1953:1978  claims[msg.sender] = true */\n      0x0100\n      exp\n      dup2\n      sload\n      dup2\n      0xff\n      mul\n      not\n      and\n      swap1\n      dup4\n      iszero\n      iszero\n      mul\n      or\n      swap1\n      sstore\n      pop\n        /* \"contracts/PriceBet.sol\":1623:1985  {... */\n      pop\n        /* \"contracts/PriceBet.sol\":1599:1985  function claim() public {... */\n      jump\t// out\n        /* \"@redstone-finance/evm-connector/contracts/core/CalldataExtractor.sol\":599:2010  function extractTimestampsAndAssertAllAreEqual() public pure returns (uint256 extractedTimestamp) {... */\n    tag_58:\n        /* \"@redstone-finance/evm-connector/contracts/core/CalldataExtractor.sol\":669:695  uint256 extractedTimestamp */\n      0x00\n        /* \"@redstone-finance/evm-connector/contracts/core/CalldataExtractor.sol\":703:733  uint256 calldataNegativeOffset */\n      dup1\n        /* \"@redstone-finance/evm-connector/contracts/core/CalldataExtractor.sol\":736:772  _extractByteSizeOfUnsignedMetadata() */\n      tag_159\n        /* \"@redstone-finance/evm-connector/contracts/core/CalldataExtractor.sol\":736:770  _extractByteSizeOfUnsignedMetadata */\n      tag_160\n        /* \"@redstone-finance/evm-connector/contracts/core/CalldataExtractor.sol\":736:772  _extractByteSizeOfUnsignedMetadata() */\n      jump\t// in\n    tag_159:\n        /* \"@redstone-finance/evm-connector/contracts/core/CalldataExtractor.sol\":703:772  uint256 calldataNegativeOffset = _extractByteSizeOfUnsignedMetadata() */\n      swap1\n      pop\n        /* \"@redstone-finance/evm-connector/contracts/core/CalldataExtractor.sol\":778:803  uint256 dataPackagesCount */\n      0x00\n        /* \"@redstone-finance/evm-connector/contracts/core/CalldataExtractor.sol\":855:916  _extractDataPackagesCountFromCalldata(calldataNegativeOffset) */\n      tag_161\n        /* \"@redstone-finance/evm-connector/contracts/core/CalldataExtractor.sol\":893:915  calldataNegativeOffset */\n      dup3\n        /* \"@redstone-finance/evm-connector/contracts/core/CalldataExtractor.sol\":855:892  _extractDataPackagesCountFromCalldata */\n      tag_162\n        /* \"@redstone-finance/evm-connector/contracts/core/CalldataExtractor.sol\":855:916  _extractDataPackagesCountFromCalldata(calldataNegativeOffset) */\n      jump\t// in\n    tag_161:\n        /* \"@redstone-finance/evm-connector/contracts/core/CalldataExtractor.sol\":809:916  (dataPackagesCount, calldataNegativeOffset) = _extractDataPackagesCountFromCalldata(calldataNegativeOffset) */\n      dup2\n      0xffff\n      and\n      swap2\n      pop\n      dup1\n      swap4\n      pop\n      dup2\n      swap3\n      pop\n      pop\n      pop\n        /* \"@redstone-finance/evm-connector/contracts/core/CalldataExtractor.sol\":948:949  0 */\n      0x00\n        /* \"@redstone-finance/evm-connector/contracts/core/CalldataExtractor.sol\":927:944  dataPackagesCount */\n      dup2\n        /* \"@redstone-finance/evm-connector/contracts/core/CalldataExtractor.sol\":927:949  dataPackagesCount == 0 */\n      sub\n        /* \"@redstone-finance/evm-connector/contracts/core/CalldataExtractor.sol\":923:1019  if (dataPackagesCount == 0) {... */\n      tag_163\n      jumpi\n        /* \"@redstone-finance/evm-connector/contracts/core/CalldataExtractor.sol\":966:1012  RedstonePayloadMustHaveAtLeastOneDataPackage() */\n      mload(0x40)\n      0x8552ff3c00000000000000000000000000000000000000000000000000000000\n      dup2\n      mstore\n      0x04\n      add\n      mload(0x40)\n      dup1\n      swap2\n      sub\n      swap1\n      revert\n        /* \"@redstone-finance/evm-connector/contracts/core/CalldataExtractor.sol\":923:1019  if (dataPackagesCount == 0) {... */\n    tag_163:\n        /* \"@redstone-finance/evm-connector/contracts/core/CalldataExtractor.sol\":1030:1054  uint256 dataPackageIndex */\n      0x00\n        /* \"@redstone-finance/evm-connector/contracts/core/CalldataExtractor.sol\":1025:2006  for (uint256 dataPackageIndex = 0; dataPackageIndex < dataPackagesCount; dataPackageIndex++) {... */\n    tag_164:\n        /* \"@redstone-finance/evm-connector/contracts/core/CalldataExtractor.sol\":1079:1096  dataPackagesCount */\n      dup2\n        /* \"@redstone-finance/evm-connector/contracts/core/CalldataExtractor.sol\":1060:1076  dataPackageIndex */\n      dup2\n        /* \"@redstone-finance/evm-connector/contracts/core/CalldataExtractor.sol\":1060:1096  dataPackageIndex < dataPackagesCount */\n      lt\n        /* \"@redstone-finance/evm-connector/contracts/core/CalldataExtractor.sol\":1025:2006  for (uint256 dataPackageIndex = 0; dataPackageIndex < dataPackagesCount; dataPackageIndex++) {... */\n      iszero\n      tag_165\n      jumpi\n        /* \"@redstone-finance/evm-connector/contracts/core/CalldataExtractor.sol\":1126:1153  uint256 dataPackageByteSize */\n      0x00\n        /* \"@redstone-finance/evm-connector/contracts/core/CalldataExtractor.sol\":1156:1203  _getDataPackageByteSize(calldataNegativeOffset) */\n      tag_167\n        /* \"@redstone-finance/evm-connector/contracts/core/CalldataExtractor.sol\":1180:1202  calldataNegativeOffset */\n      dup5\n        /* \"@redstone-finance/evm-connector/contracts/core/CalldataExtractor.sol\":1156:1179  _getDataPackageByteSize */\n      tag_168\n        /* \"@redstone-finance/evm-connector/contracts/core/CalldataExtractor.sol\":1156:1203  _getDataPackageByteSize(calldataNegativeOffset) */\n      jump\t// in\n    tag_167:\n        /* \"@redstone-finance/evm-connector/contracts/core/CalldataExtractor.sol\":1126:1203  uint256 dataPackageByteSize = _getDataPackageByteSize(calldataNegativeOffset) */\n      swap1\n      pop\n        /* \"@redstone-finance/evm-connector/contracts/core/CalldataExtractor.sol\":1271:1298  uint48 dataPackageTimestamp */\n      0x00\n        /* \"@redstone-finance/evm-connector/contracts/core/CalldataExtractor.sol\":1348:1379  uint256 timestampNegativeOffset */\n      dup1\n        /* \"@redstone-finance/evm-connector/contracts/core/RedstoneConstants.sol\":1771:1774  104 */\n      0x68\n        /* \"@redstone-finance/evm-connector/contracts/core/CalldataExtractor.sol\":1383:1405  calldataNegativeOffset */\n      dup7\n        /* \"@redstone-finance/evm-connector/contracts/core/CalldataExtractor.sol\":1383:1471  calldataNegativeOffset + TIMESTAMP_NEGATIVE_OFFSET_IN_DATA_PACKAGE_WITH_STANDARD_SLOT_BS */\n      tag_169\n      swap2\n      swap1\n      tag_122\n      jump\t// in\n    tag_169:\n        /* \"@redstone-finance/evm-connector/contracts/core/CalldataExtractor.sol\":1348:1472  uint256 timestampNegativeOffset = (calldataNegativeOffset + TIMESTAMP_NEGATIVE_OFFSET_IN_DATA_PACKAGE_WITH_STANDARD_SLOT_BS) */\n      swap1\n      pop\n        /* \"@redstone-finance/evm-connector/contracts/core/CalldataExtractor.sol\":1480:1503  uint256 timestampOffset */\n      0x00\n        /* \"@redstone-finance/evm-connector/contracts/core/CalldataExtractor.sol\":1524:1547  timestampNegativeOffset */\n      dup2\n        /* \"@redstone-finance/evm-connector/contracts/core/CalldataExtractor.sol\":1506:1514  msg.data */\n      0x00\n      calldatasize\n        /* \"@redstone-finance/evm-connector/contracts/core/CalldataExtractor.sol\":1506:1521  msg.data.length */\n      swap1\n      pop\n        /* \"@redstone-finance/evm-connector/contracts/core/CalldataExtractor.sol\":1506:1547  msg.data.length - timestampNegativeOffset */\n      tag_170\n      swap2\n      swap1\n      tag_171\n      jump\t// in\n    tag_170:\n        /* \"@redstone-finance/evm-connector/contracts/core/CalldataExtractor.sol\":1480:1547  uint256 timestampOffset = msg.data.length - timestampNegativeOffset */\n      swap1\n      pop\n        /* \"@redstone-finance/evm-connector/contracts/core/CalldataExtractor.sol\":1611:1626  timestampOffset */\n      dup1\n        /* \"@redstone-finance/evm-connector/contracts/core/CalldataExtractor.sol\":1598:1627  calldataload(timestampOffset) */\n      calldataload\n        /* \"@redstone-finance/evm-connector/contracts/core/CalldataExtractor.sol\":1574:1627  dataPackageTimestamp := calldataload(timestampOffset) */\n      swap3\n      pop\n        /* \"@redstone-finance/evm-connector/contracts/core/CalldataExtractor.sol\":1671:1672  0 */\n      0x00\n        /* \"@redstone-finance/evm-connector/contracts/core/CalldataExtractor.sol\":1647:1667  dataPackageTimestamp */\n      dup4\n        /* \"@redstone-finance/evm-connector/contracts/core/CalldataExtractor.sol\":1647:1672  dataPackageTimestamp == 0 */\n      0xffffffffffff\n      and\n      sub\n        /* \"@redstone-finance/evm-connector/contracts/core/CalldataExtractor.sol\":1643:1735  if (dataPackageTimestamp == 0) {... */\n      tag_172\n      jumpi\n        /* \"@redstone-finance/evm-connector/contracts/core/CalldataExtractor.sol\":1691:1726  DataPackageTimestampMustNotBeZero() */\n      mload(0x40)\n      0x336dc9d000000000000000000000000000000000000000000000000000000000\n      dup2\n      mstore\n      0x04\n      add\n      mload(0x40)\n      dup1\n      swap2\n      sub\n      swap1\n      revert\n        /* \"@redstone-finance/evm-connector/contracts/core/CalldataExtractor.sol\":1643:1735  if (dataPackageTimestamp == 0) {... */\n    tag_172:\n        /* \"@redstone-finance/evm-connector/contracts/core/CalldataExtractor.sol\":1769:1770  0 */\n      0x00\n        /* \"@redstone-finance/evm-connector/contracts/core/CalldataExtractor.sol\":1747:1765  extractedTimestamp */\n      dup9\n        /* \"@redstone-finance/evm-connector/contracts/core/CalldataExtractor.sol\":1747:1770  extractedTimestamp == 0 */\n      sub\n        /* \"@redstone-finance/evm-connector/contracts/core/CalldataExtractor.sol\":1743:1946  if (extractedTimestamp == 0) {... */\n      tag_173\n      jumpi\n        /* \"@redstone-finance/evm-connector/contracts/core/CalldataExtractor.sol\":1803:1823  dataPackageTimestamp */\n      dup3\n        /* \"@redstone-finance/evm-connector/contracts/core/CalldataExtractor.sol\":1782:1823  extractedTimestamp = dataPackageTimestamp */\n      0xffffffffffff\n      and\n      swap8\n      pop\n        /* \"@redstone-finance/evm-connector/contracts/core/CalldataExtractor.sol\":1743:1946  if (extractedTimestamp == 0) {... */\n      jump(tag_174)\n    tag_173:\n        /* \"@redstone-finance/evm-connector/contracts/core/CalldataExtractor.sol\":1866:1884  extractedTimestamp */\n      dup8\n        /* \"@redstone-finance/evm-connector/contracts/core/CalldataExtractor.sol\":1842:1862  dataPackageTimestamp */\n      dup4\n        /* \"@redstone-finance/evm-connector/contracts/core/CalldataExtractor.sol\":1842:1884  dataPackageTimestamp != extractedTimestamp */\n      0xffffffffffff\n      and\n      eq\n        /* \"@redstone-finance/evm-connector/contracts/core/CalldataExtractor.sol\":1838:1946  if (dataPackageTimestamp != extractedTimestamp) {... */\n      tag_175\n      jumpi\n        /* \"@redstone-finance/evm-connector/contracts/core/CalldataExtractor.sol\":1903:1937  DataPackageTimestampsMustBeEqual() */\n      mload(0x40)\n      0xd9d1f46500000000000000000000000000000000000000000000000000000000\n      dup2\n      mstore\n      0x04\n      add\n      mload(0x40)\n      dup1\n      swap2\n      sub\n      swap1\n      revert\n        /* \"@redstone-finance/evm-connector/contracts/core/CalldataExtractor.sol\":1838:1946  if (dataPackageTimestamp != extractedTimestamp) {... */\n    tag_175:\n        /* \"@redstone-finance/evm-connector/contracts/core/CalldataExtractor.sol\":1743:1946  if (extractedTimestamp == 0) {... */\n    tag_174:\n        /* \"@redstone-finance/evm-connector/contracts/core/CalldataExtractor.sol\":1980:1999  dataPackageByteSize */\n      dup4\n        /* \"@redstone-finance/evm-connector/contracts/core/CalldataExtractor.sol\":1954:1999  calldataNegativeOffset += dataPackageByteSize */\n      dup8\n      tag_176\n      swap2\n      swap1\n      tag_122\n      jump\t// in\n    tag_176:\n      swap7\n      pop\n        /* \"@redstone-finance/evm-connector/contracts/core/CalldataExtractor.sol\":1118:2006  {... */\n      pop\n      pop\n      pop\n      pop\n        /* \"@redstone-finance/evm-connector/contracts/core/CalldataExtractor.sol\":1098:1116  dataPackageIndex++ */\n      dup1\n      dup1\n      0x01\n      add\n      swap2\n      pop\n      pop\n        /* \"@redstone-finance/evm-connector/contracts/core/CalldataExtractor.sol\":1025:2006  for (uint256 dataPackageIndex = 0; dataPackageIndex < dataPackagesCount; dataPackageIndex++) {... */\n      jump(tag_164)\n    tag_165:\n      pop\n        /* \"@redstone-finance/evm-connector/contracts/core/CalldataExtractor.sol\":697:2010  {... */\n      pop\n      pop\n        /* \"@redstone-finance/evm-connector/contracts/core/CalldataExtractor.sol\":599:2010  function extractTimestampsAndAssertAllAreEqual() public pure returns (uint256 extractedTimestamp) {... */\n      swap1\n      jump\t// out\n        /* \"contracts/PriceBet.sol\":408:430  uint256 public yesPool */\n    tag_62:\n      sload(0x08)\n      dup2\n      jump\t// out\n        /* \"contracts/PriceBet.sol\":243:266  uint256 public endLimit */\n    tag_66:\n      sload(0x04)\n      dup2\n      jump\t// out\n        /* \"contracts/PriceBet.sol\":272:309  mapping (address => int8) public bets */\n    tag_71:\n      mstore(0x20, 0x05)\n      dup1\n      0x00\n      mstore\n      keccak256(0x00, 0x40)\n      0x00\n      swap2\n      pop\n      sload\n      swap1\n      0x0100\n      exp\n      swap1\n      div\n      0x00\n      signextend\n      dup2\n      jump\t// out\n        /* \"contracts/PriceBet.sol\":436:457  uint256 public noPool */\n    tag_76:\n      sload(0x09)\n      dup2\n      jump\t// out\n        /* \"@redstone-finance/evm-connector/contracts/core/RedstoneConsumerBase.sol\":2697:2846  function aggregateValues(uint256[] memory values) public view virtual returns (uint256) {... */\n    tag_82:\n        /* \"@redstone-finance/evm-connector/contracts/core/RedstoneConsumerBase.sol\":2776:2783  uint256 */\n      0x00\n        /* \"@redstone-finance/evm-connector/contracts/core/RedstoneConsumerBase.sol\":2798:2841  RedstoneDefaultsLib.aggregateValues(values) */\n      tag_178\n        /* \"@redstone-finance/evm-connector/contracts/core/RedstoneConsumerBase.sol\":2834:2840  values */\n      dup3\n        /* \"@redstone-finance/evm-connector/contracts/core/RedstoneConsumerBase.sol\":2798:2833  RedstoneDefaultsLib.aggregateValues */\n      tag_179\n        /* \"@redstone-finance/evm-connector/contracts/core/RedstoneConsumerBase.sol\":2798:2841  RedstoneDefaultsLib.aggregateValues(values) */\n      jump\t// in\n    tag_178:\n        /* \"@redstone-finance/evm-connector/contracts/core/RedstoneConsumerBase.sol\":2791:2841  return RedstoneDefaultsLib.aggregateValues(values) */\n      swap1\n      pop\n        /* \"@redstone-finance/evm-connector/contracts/core/RedstoneConsumerBase.sol\":2697:2846  function aggregateValues(uint256[] memory values) public view virtual returns (uint256) {... */\n      swap2\n      swap1\n      pop\n      jump\t// out\n        /* \"@redstone-finance/evm-connector/contracts/data-services/MainDemoConsumerBase.sol\":179:298  function getDataServiceId() public view virtual override returns (string memory) {... */\n    tag_86:\n        /* \"@redstone-finance/evm-connector/contracts/data-services/MainDemoConsumerBase.sol\":245:258  string memory */\n      0x60\n        /* \"@redstone-finance/evm-connector/contracts/data-services/MainDemoConsumerBase.sol\":266:293  return \"redstone-main-demo\" */\n      mload(0x40)\n      dup1\n      0x40\n      add\n      0x40\n      mstore\n      dup1\n      0x12\n      dup2\n      mstore\n      0x20\n      add\n      0x72656473746f6e652d6d61696e2d64656d6f0000000000000000000000000000\n      dup2\n      mstore\n      pop\n      swap1\n      pop\n        /* \"@redstone-finance/evm-connector/contracts/data-services/MainDemoConsumerBase.sol\":179:298  function getDataServiceId() public view virtual override returns (string memory) {... */\n      swap1\n      jump\t// out\n        /* \"contracts/PriceBet.sol\":363:402  mapping (address => bool) public claims */\n    tag_92:\n      mstore(0x20, 0x07)\n      dup1\n      0x00\n      mstore\n      keccak256(0x00, 0x40)\n      0x00\n      swap2\n      pop\n      sload\n      swap1\n      0x0100\n      exp\n      swap1\n      div\n      0xff\n      and\n      dup2\n      jump\t// out\n        /* \"contracts/PriceBet.sol\":1991:2383  function payout(uint256 bet) public view returns(uint256) {... */\n    tag_99:\n        /* \"contracts/PriceBet.sol\":2040:2047  uint256 */\n      0x00\n        /* \"contracts/PriceBet.sol\":2059:2073  uint256 factor */\n      dup1\n        /* \"contracts/PriceBet.sol\":2076:2085  100000000 */\n      0x05f5e100\n        /* \"contracts/PriceBet.sol\":2059:2085  uint256 factor = 100000000 */\n      swap1\n      pop\n        /* \"contracts/PriceBet.sol\":2095:2114  uint256 winningPool */\n      0x00\n        /* \"contracts/PriceBet.sol\":2128:2129  1 */\n      0x01\n        /* \"contracts/PriceBet.sol\":2117:2124  outcome */\n      sload(0x02)\n        /* \"contracts/PriceBet.sol\":2117:2129  outcome == 1 */\n      eq\n        /* \"contracts/PriceBet.sol\":2117:2148  outcome == 1 ? yesPool : noPool */\n      tag_182\n      jumpi\n        /* \"contracts/PriceBet.sol\":2142:2148  noPool */\n      sload(0x09)\n        /* \"contracts/PriceBet.sol\":2117:2148  outcome == 1 ? yesPool : noPool */\n      jump(tag_183)\n    tag_182:\n        /* \"contracts/PriceBet.sol\":2132:2139  yesPool */\n      sload(0x08)\n        /* \"contracts/PriceBet.sol\":2117:2148  outcome == 1 ? yesPool : noPool */\n    tag_183:\n        /* \"contracts/PriceBet.sol\":2095:2148  uint256 winningPool = outcome == 1 ? yesPool : noPool */\n      swap1\n      pop\n        /* \"contracts/PriceBet.sol\":2173:2184  winningPool */\n      dup1\n        /* \"contracts/PriceBet.sol\":2166:2169  bet */\n      dup5\n        /* \"contracts/PriceBet.sol\":2166:2184  bet <= winningPool */\n      gt\n      iszero\n        /* \"contracts/PriceBet.sol\":2158:2217  require(bet <= winningPool, \"Bet bigger than winning pool\") */\n      tag_184\n      jumpi\n      mload(0x40)\n      0x08c379a000000000000000000000000000000000000000000000000000000000\n      dup2\n      mstore\n      0x04\n      add\n      tag_185\n      swap1\n      tag_186\n      jump\t// in\n    tag_185:\n      mload(0x40)\n      dup1\n      swap2\n      sub\n      swap1\n      revert\n    tag_184:\n        /* \"contracts/PriceBet.sol\":2227:2245  uint256 losingPool */\n      0x00\n        /* \"contracts/PriceBet.sol\":2259:2261  -1 */\n      0xffffffffffffffffffffffffffffffffffffffffffffffffffffffffffffffff\n        /* \"contracts/PriceBet.sol\":2248:2255  outcome */\n      sload(0x02)\n        /* \"contracts/PriceBet.sol\":2248:2261  outcome == -1 */\n      eq\n        /* \"contracts/PriceBet.sol\":2248:2280  outcome == -1 ? noPool : yesPool */\n      tag_187\n      jumpi\n        /* \"contracts/PriceBet.sol\":2273:2280  yesPool */\n      sload(0x08)\n        /* \"contracts/PriceBet.sol\":2248:2280  outcome == -1 ? noPool : yesPool */\n      jump(tag_188)\n    tag_187:\n        /* \"contracts/PriceBet.sol\":2264:2270  noPool */\n      sload(0x09)\n        /* \"contracts/PriceBet.sol\":2248:2280  outcome == -1 ? noPool : yesPool */\n    tag_188:\n        /* \"contracts/PriceBet.sol\":2227:2280  uint256 losingPool = outcome == -1 ? noPool : yesPool */\n      swap1\n      pop\n        /* \"contracts/PriceBet.sol\":2290:2303  uint256 share */\n      0x00\n        /* \"contracts/PriceBet.sol\":2321:2332  winningPool */\n      dup3\n        /* \"contracts/PriceBet.sol\":2312:2318  factor */\n      dup5\n        /* \"contracts/PriceBet.sol\":2306:2309  bet */\n      dup8\n        /* \"contracts/PriceBet.sol\":2306:2318  bet * factor */\n      tag_189\n      swap2\n      swap1\n      tag_190\n      jump\t// in\n    tag_189:\n        /* \"contracts/PriceBet.sol\":2306:2332  bet * factor / winningPool */\n      tag_191\n      swap2\n      swap1\n      tag_192\n      jump\t// in\n    tag_191:\n        /* \"contracts/PriceBet.sol\":2290:2332  uint256 share = bet * factor / winningPool */\n      swap1\n      pop\n        /* \"contracts/PriceBet.sol\":2370:2376  factor */\n      dup4\n        /* \"contracts/PriceBet.sol\":2357:2367  losingPool */\n      dup3\n        /* \"contracts/PriceBet.sol\":2349:2354  share */\n      dup3\n        /* \"contracts/PriceBet.sol\":2349:2367  share * losingPool */\n      tag_193\n      swap2\n      swap1\n      tag_190\n      jump\t// in\n    tag_193:\n        /* \"contracts/PriceBet.sol\":2349:2376  share * losingPool / factor */\n      tag_194\n      swap2\n      swap1\n      tag_192\n      jump\t// in\n    tag_194:\n        /* \"contracts/PriceBet.sol\":2342:2376  return share * losingPool / factor */\n      swap5\n      pop\n      pop\n      pop\n      pop\n      pop\n        /* \"contracts/PriceBet.sol\":1991:2383  function payout(uint256 bet) public view returns(uint256) {... */\n      swap2\n      swap1\n      pop\n      jump\t// out\n        /* \"contracts/PriceBet.sol\":219:237  uint256 public end */\n    tag_103:\n      sload(0x03)\n      dup2\n      jump\t// out\n        /* \"contracts/PriceBet.sol\":659:757  function validateTimestamp(uint256 receivedTimestampMilliseconds) public view virtual override { } */\n    tag_108:\n      pop\n      jump\t// out\n        /* \"@redstone-finance/evm-connector/contracts/data-services/MainDemoConsumerBase.sol\":302:403  function getUniqueSignersThreshold() public view virtual override returns (uint8) {... */\n    tag_111:\n        /* \"@redstone-finance/evm-connector/contracts/data-services/MainDemoConsumerBase.sol\":377:382  uint8 */\n      0x00\n        /* \"@redstone-finance/evm-connector/contracts/data-services/MainDemoConsumerBase.sol\":397:398  1 */\n      0x01\n        /* \"@redstone-finance/evm-connector/contracts/data-services/MainDemoConsumerBase.sol\":390:398  return 1 */\n      swap1\n      pop\n        /* \"@redstone-finance/evm-connector/contracts/data-services/MainDemoConsumerBase.sol\":302:403  function getUniqueSignersThreshold() public view virtual override returns (uint8) {... */\n      swap1\n      jump\t// out\n        /* \"@redstone-finance/evm-connector/contracts/core/RedstoneConsumerNumericBase.sol\":1257:1526  function getOracleNumericValueFromTxMsg(bytes32 dataFeedId)... */\n    tag_140:\n        /* \"@redstone-finance/evm-connector/contracts/core/RedstoneConsumerNumericBase.sol\":1364:1371  uint256 */\n      0x00\n        /* \"@redstone-finance/evm-connector/contracts/core/RedstoneConsumerNumericBase.sol\":1381:1409  bytes32[] memory dataFeedIds */\n      dup1\n        /* \"@redstone-finance/evm-connector/contracts/core/RedstoneConsumerNumericBase.sol\":1426:1427  1 */\n      0x01\n        /* \"@redstone-finance/evm-connector/contracts/core/RedstoneConsumerNumericBase.sol\":1412:1428  new bytes32[](1) */\n      0xffffffffffffffff\n      dup2\n      gt\n      iszero\n      tag_198\n      jumpi\n      tag_199\n      tag_200\n      jump\t// in\n    tag_199:\n    tag_198:\n      mload(0x40)\n      swap1\n      dup1\n      dup3\n      mstore\n      dup1\n      0x20\n      mul\n      0x20\n      add\n      dup3\n      add\n      0x40\n      mstore\n      dup1\n      iszero\n      tag_201\n      jumpi\n      dup2\n      0x20\n      add\n      0x20\n      dup3\n      mul\n      dup1\n      calldatasize\n      dup4\n      calldatacopy\n      dup1\n      dup3\n      add\n      swap2\n      pop\n      pop\n      swap1\n      pop\n    tag_201:\n      pop\n        /* \"@redstone-finance/evm-connector/contracts/core/RedstoneConsumerNumericBase.sol\":1381:1428  bytes32[] memory dataFeedIds = new bytes32[](1) */\n      swap1\n      pop\n        /* \"@redstone-finance/evm-connector/contracts/core/RedstoneConsumerNumericBase.sol\":1451:1461  dataFeedId */\n      dup3\n        /* \"@redstone-finance/evm-connector/contracts/core/RedstoneConsumerNumericBase.sol\":1434:1445  dataFeedIds */\n      dup2\n        /* \"@redstone-finance/evm-connector/contracts/core/RedstoneConsumerNumericBase.sol\":1446:1447  0 */\n      0x00\n        /* \"@redstone-finance/evm-connector/contracts/core/RedstoneConsumerNumericBase.sol\":1434:1448  dataFeedIds[0] */\n      dup2\n      mload\n      dup2\n      lt\n      tag_202\n      jumpi\n      tag_203\n      tag_204\n      jump\t// in\n    tag_203:\n    tag_202:\n      0x20\n      mul\n      0x20\n      add\n      add\n        /* \"@redstone-finance/evm-connector/contracts/core/RedstoneConsumerNumericBase.sol\":1434:1461  dataFeedIds[0] = dataFeedId */\n      dup2\n      dup2\n      mstore\n      pop\n      pop\n        /* \"@redstone-finance/evm-connector/contracts/core/RedstoneConsumerNumericBase.sol\":1474:1518  getOracleNumericValuesFromTxMsg(dataFeedIds) */\n      tag_205\n        /* \"@redstone-finance/evm-connector/contracts/core/RedstoneConsumerNumericBase.sol\":1506:1517  dataFeedIds */\n      dup2\n        /* \"@redstone-finance/evm-connector/contracts/core/RedstoneConsumerNumericBase.sol\":1474:1505  getOracleNumericValuesFromTxMsg */\n      tag_206\n        /* \"@redstone-finance/evm-connector/contracts/core/RedstoneConsumerNumericBase.sol\":1474:1518  getOracleNumericValuesFromTxMsg(dataFeedIds) */\n      jump\t// in\n    tag_205:\n        /* \"@redstone-finance/evm-connector/contracts/core/RedstoneConsumerNumericBase.sol\":1519:1520  0 */\n      0x00\n        /* \"@redstone-finance/evm-connector/contracts/core/RedstoneConsumerNumericBase.sol\":1474:1521  getOracleNumericValuesFromTxMsg(dataFeedIds)[0] */\n      dup2\n      mload\n      dup2\n      lt\n      tag_207\n      jumpi\n      tag_208\n      tag_204\n      jump\t// in\n    tag_208:\n    tag_207:\n      0x20\n      mul\n      0x20\n      add\n      add\n      mload\n        /* \"@redstone-finance/evm-connector/contracts/core/RedstoneConsumerNumericBase.sol\":1467:1521  return getOracleNumericValuesFromTxMsg(dataFeedIds)[0] */\n      swap2\n      pop\n      pop\n        /* \"@redstone-finance/evm-connector/contracts/core/RedstoneConsumerNumericBase.sol\":1257:1526  function getOracleNumericValueFromTxMsg(bytes32 dataFeedId)... */\n      swap2\n      swap1\n      pop\n      jump\t// out\n        /* \"@redstone-finance/evm-connector/contracts/core/CalldataExtractor.sol\":2410:3579  function _extractByteSizeOfUnsignedMetadata() internal pure returns (uint256) {... */\n    tag_160:\n        /* \"@redstone-finance/evm-connector/contracts/core/CalldataExtractor.sol\":2479:2486  uint256 */\n      0x00\n        /* \"@redstone-finance/evm-connector/contracts/core/CalldataExtractor.sol\":2556:2583  bool hasValidRedstoneMarker */\n      dup1\n        /* \"@redstone-finance/evm-connector/contracts/core/CalldataExtractor.sol\":2666:2682  STANDARD_SLOT_BS */\n      0x20\n        /* \"@redstone-finance/evm-connector/contracts/core/CalldataExtractor.sol\":2650:2664  calldatasize() */\n      calldatasize\n        /* \"@redstone-finance/evm-connector/contracts/core/CalldataExtractor.sol\":2646:2683  sub(calldatasize(), STANDARD_SLOT_BS) */\n      sub\n        /* \"@redstone-finance/evm-connector/contracts/core/CalldataExtractor.sol\":2633:2684  calldataload(sub(calldatasize(), STANDARD_SLOT_BS)) */\n      calldataload\n        /* \"@redstone-finance/evm-connector/contracts/core/CalldataExtractor.sol\":2784:2804  REDSTONE_MARKER_MASK */\n      0x02ed57011e0000\n        /* \"@redstone-finance/evm-connector/contracts/core/CalldataExtractor.sol\":2763:2782  calldataLast32Bytes */\n      dup2\n        /* \"@redstone-finance/evm-connector/contracts/core/CalldataExtractor.sol\":2759:2805  and(calldataLast32Bytes, REDSTONE_MARKER_MASK) */\n      and\n        /* \"@redstone-finance/evm-connector/contracts/core/CalldataExtractor.sol\":2729:2749  REDSTONE_MARKER_MASK */\n      0x02ed57011e0000\n        /* \"@redstone-finance/evm-connector/contracts/core/CalldataExtractor.sol\":2717:2813  eq(... */\n      eq\n        /* \"@redstone-finance/evm-connector/contracts/core/CalldataExtractor.sol\":2691:2813  hasValidRedstoneMarker := eq(... */\n      swap2\n      pop\n        /* \"@redstone-finance/evm-connector/contracts/core/CalldataExtractor.sol\":2598:2819  {... */\n      pop\n        /* \"@redstone-finance/evm-connector/contracts/core/CalldataExtractor.sol\":2829:2851  hasValidRedstoneMarker */\n      dup1\n        /* \"@redstone-finance/evm-connector/contracts/core/CalldataExtractor.sol\":2824:2905  if (!hasValidRedstoneMarker) {... */\n      tag_210\n      jumpi\n        /* \"@redstone-finance/evm-connector/contracts/core/CalldataExtractor.sol\":2868:2898  CalldataMustHaveValidPayload() */\n      mload(0x40)\n      0xe7764c9e00000000000000000000000000000000000000000000000000000000\n      dup2\n      mstore\n      0x04\n      add\n      mload(0x40)\n      dup1\n      swap2\n      sub\n      swap1\n      revert\n        /* \"@redstone-finance/evm-connector/contracts/core/CalldataExtractor.sol\":2824:2905  if (!hasValidRedstoneMarker) {... */\n    tag_210:\n        /* \"@redstone-finance/evm-connector/contracts/core/CalldataExtractor.sol\":2987:3018  uint24 unsignedMetadataByteSize */\n      0x00\n        /* \"@redstone-finance/evm-connector/contracts/core/CalldataExtractor.sol\":3071:3079  msg.data */\n      dup1\n      calldatasize\n        /* \"@redstone-finance/evm-connector/contracts/core/CalldataExtractor.sol\":3071:3086  msg.data.length */\n      swap1\n      pop\n        /* \"@redstone-finance/evm-connector/contracts/core/RedstoneConstants.sol\":2230:2232  41 */\n      0x29\n        /* \"@redstone-finance/evm-connector/contracts/core/CalldataExtractor.sol\":3028:3086  REDSTONE_MARKER_BS_PLUS_STANDARD_SLOT_BS > msg.data.length */\n      gt\n        /* \"@redstone-finance/evm-connector/contracts/core/CalldataExtractor.sol\":3024:3135  if (REDSTONE_MARKER_BS_PLUS_STANDARD_SLOT_BS > msg.data.length) {... */\n      iszero\n      tag_211\n      jumpi\n        /* \"@redstone-finance/evm-connector/contracts/core/CalldataExtractor.sol\":3103:3128  CalldataOverOrUnderFlow() */\n      mload(0x40)\n      0x5796f78a00000000000000000000000000000000000000000000000000000000\n      dup2\n      mstore\n      0x04\n      add\n      mload(0x40)\n      dup1\n      swap2\n      sub\n      swap1\n      revert\n        /* \"@redstone-finance/evm-connector/contracts/core/CalldataExtractor.sol\":3024:3135  if (REDSTONE_MARKER_BS_PLUS_STANDARD_SLOT_BS > msg.data.length) {... */\n    tag_211:\n        /* \"@redstone-finance/evm-connector/contracts/core/CalldataExtractor.sol\":3227:3267  REDSTONE_MARKER_BS_PLUS_STANDARD_SLOT_BS */\n      0x29\n        /* \"@redstone-finance/evm-connector/contracts/core/CalldataExtractor.sol\":3211:3225  calldatasize() */\n      calldatasize\n        /* \"@redstone-finance/evm-connector/contracts/core/CalldataExtractor.sol\":3207:3268  sub(calldatasize(), REDSTONE_MARKER_BS_PLUS_STANDARD_SLOT_BS) */\n      sub\n        /* \"@redstone-finance/evm-connector/contracts/core/CalldataExtractor.sol\":3185:3276  calldataload(... */\n      calldataload\n        /* \"@redstone-finance/evm-connector/contracts/core/CalldataExtractor.sol\":3157:3276  unsignedMetadataByteSize := calldataload(... */\n      swap1\n      pop\n        /* \"@redstone-finance/evm-connector/contracts/core/CalldataExtractor.sol\":3287:3317  uint256 calldataNegativeOffset */\n      0x00\n        /* \"@redstone-finance/evm-connector/contracts/core/RedstoneConstants.sol\":1479:1480  9 */\n      0x09\n        /* \"@redstone-finance/evm-connector/contracts/core/RedstoneConstants.sol\":1427:1428  3 */\n      0x03\n        /* \"@redstone-finance/evm-connector/contracts/core/CalldataExtractor.sol\":3320:3344  unsignedMetadataByteSize */\n      dup4\n        /* \"@redstone-finance/evm-connector/contracts/core/CalldataExtractor.sol\":3320:3383  unsignedMetadataByteSize... */\n      0xffffff\n      and\n      tag_212\n      swap2\n      swap1\n      tag_122\n      jump\t// in\n    tag_212:\n        /* \"@redstone-finance/evm-connector/contracts/core/CalldataExtractor.sol\":3320:3410  unsignedMetadataByteSize... */\n      tag_213\n      swap2\n      swap1\n      tag_122\n      jump\t// in\n    tag_213:\n        /* \"@redstone-finance/evm-connector/contracts/core/CalldataExtractor.sol\":3287:3410  uint256 calldataNegativeOffset = unsignedMetadataByteSize... */\n      swap1\n      pop\n        /* \"@redstone-finance/evm-connector/contracts/core/CalldataExtractor.sol\":3470:3478  msg.data */\n      0x00\n      calldatasize\n        /* \"@redstone-finance/evm-connector/contracts/core/CalldataExtractor.sol\":3470:3485  msg.data.length */\n      swap1\n      pop\n        /* \"@redstone-finance/evm-connector/contracts/core/RedstoneConstants.sol\":1129:1130  2 */\n      0x02\n        /* \"@redstone-finance/evm-connector/contracts/core/CalldataExtractor.sol\":3420:3442  calldataNegativeOffset */\n      dup3\n        /* \"@redstone-finance/evm-connector/contracts/core/CalldataExtractor.sol\":3420:3467  calldataNegativeOffset + DATA_PACKAGES_COUNT_BS */\n      tag_214\n      swap2\n      swap1\n      tag_122\n      jump\t// in\n    tag_214:\n        /* \"@redstone-finance/evm-connector/contracts/core/CalldataExtractor.sol\":3420:3485  calldataNegativeOffset + DATA_PACKAGES_COUNT_BS > msg.data.length */\n      gt\n        /* \"@redstone-finance/evm-connector/contracts/core/CalldataExtractor.sol\":3416:3540  if (calldataNegativeOffset + DATA_PACKAGES_COUNT_BS > msg.data.length) {... */\n      iszero\n      tag_215\n      jumpi\n        /* \"@redstone-finance/evm-connector/contracts/core/CalldataExtractor.sol\":3502:3533  IncorrectUnsignedMetadataSize() */\n      mload(0x40)\n      0xc30a7bd700000000000000000000000000000000000000000000000000000000\n      dup2\n      mstore\n      0x04\n      add\n      mload(0x40)\n      dup1\n      swap2\n      sub\n      swap1\n      revert\n        /* \"@redstone-finance/evm-connector/contracts/core/CalldataExtractor.sol\":3416:3540  if (calldataNegativeOffset + DATA_PACKAGES_COUNT_BS > msg.data.length) {... */\n    tag_215:\n        /* \"@redstone-finance/evm-connector/contracts/core/CalldataExtractor.sol\":3552:3574  calldataNegativeOffset */\n      dup1\n        /* \"@redstone-finance/evm-connector/contracts/core/CalldataExtractor.sol\":3545:3574  return calldataNegativeOffset */\n      swap4\n      pop\n      pop\n      pop\n      pop\n        /* \"@redstone-finance/evm-connector/contracts/core/CalldataExtractor.sol\":2410:3579  function _extractByteSizeOfUnsignedMetadata() internal pure returns (uint256) {... */\n      swap1\n      jump\t// out\n        /* \"@redstone-finance/evm-connector/contracts/core/CalldataExtractor.sol\":3661:4273  function _extractDataPackagesCountFromCalldata(uint256 calldataNegativeOffset)... */\n    tag_162:\n        /* \"@redstone-finance/evm-connector/contracts/core/CalldataExtractor.sol\":3775:3799  uint16 dataPackagesCount */\n      0x00\n        /* \"@redstone-finance/evm-connector/contracts/core/CalldataExtractor.sol\":3801:3835  uint256 nextCalldataNegativeOffset */\n      dup1\n        /* \"@redstone-finance/evm-connector/contracts/core/CalldataExtractor.sol\":3845:3891  uint256 calldataNegativeOffsetWithStandardSlot */\n      0x00\n        /* \"@redstone-finance/evm-connector/contracts/core/RedstoneConstants.sol\":524:526  32 */\n      0x20\n        /* \"@redstone-finance/evm-connector/contracts/core/CalldataExtractor.sol\":3894:3916  calldataNegativeOffset */\n      dup5\n        /* \"@redstone-finance/evm-connector/contracts/core/CalldataExtractor.sol\":3894:3935  calldataNegativeOffset + STANDARD_SLOT_BS */\n      tag_217\n      swap2\n      swap1\n      tag_122\n      jump\t// in\n    tag_217:\n        /* \"@redstone-finance/evm-connector/contracts/core/CalldataExtractor.sol\":3845:3935  uint256 calldataNegativeOffsetWithStandardSlot = calldataNegativeOffset + STANDARD_SLOT_BS */\n      swap1\n      pop\n        /* \"@redstone-finance/evm-connector/contracts/core/CalldataExtractor.sol\":3986:3994  msg.data */\n      0x00\n      calldatasize\n        /* \"@redstone-finance/evm-connector/contracts/core/CalldataExtractor.sol\":3986:4001  msg.data.length */\n      swap1\n      pop\n        /* \"@redstone-finance/evm-connector/contracts/core/CalldataExtractor.sol\":3945:3983  calldataNegativeOffsetWithStandardSlot */\n      dup2\n        /* \"@redstone-finance/evm-connector/contracts/core/CalldataExtractor.sol\":3945:4001  calldataNegativeOffsetWithStandardSlot > msg.data.length */\n      gt\n        /* \"@redstone-finance/evm-connector/contracts/core/CalldataExtractor.sol\":3941:4050  if (calldataNegativeOffsetWithStandardSlot > msg.data.length) {... */\n      iszero\n      tag_218\n      jumpi\n        /* \"@redstone-finance/evm-connector/contracts/core/CalldataExtractor.sol\":4018:4043  CalldataOverOrUnderFlow() */\n      mload(0x40)\n      0x5796f78a00000000000000000000000000000000000000000000000000000000\n      dup2\n      mstore\n      0x04\n      add\n      mload(0x40)\n      dup1\n      swap2\n      sub\n      swap1\n      revert\n        /* \"@redstone-finance/evm-connector/contracts/core/CalldataExtractor.sol\":3941:4050  if (calldataNegativeOffsetWithStandardSlot > msg.data.length) {... */\n    tag_218:\n        /* \"@redstone-finance/evm-connector/contracts/core/CalldataExtractor.sol\":4135:4173  calldataNegativeOffsetWithStandardSlot */\n      dup1\n        /* \"@redstone-finance/evm-connector/contracts/core/CalldataExtractor.sol\":4119:4133  calldatasize() */\n      calldatasize\n        /* \"@redstone-finance/evm-connector/contracts/core/CalldataExtractor.sol\":4115:4174  sub(calldatasize(), calldataNegativeOffsetWithStandardSlot) */\n      sub\n        /* \"@redstone-finance/evm-connector/contracts/core/CalldataExtractor.sol\":4093:4182  calldataload(... */\n      calldataload\n        /* \"@redstone-finance/evm-connector/contracts/core/CalldataExtractor.sol\":4072:4182  dataPackagesCount := calldataload(... */\n      swap3\n      pop\n        /* \"@redstone-finance/evm-connector/contracts/core/CalldataExtractor.sol\":4201:4218  dataPackagesCount */\n      dup3\n        /* \"@redstone-finance/evm-connector/contracts/core/RedstoneConstants.sol\":1129:1130  2 */\n      0x02\n        /* \"@redstone-finance/evm-connector/contracts/core/CalldataExtractor.sol\":4220:4242  calldataNegativeOffset */\n      dup6\n        /* \"@redstone-finance/evm-connector/contracts/core/CalldataExtractor.sol\":4220:4267  calldataNegativeOffset + DATA_PACKAGES_COUNT_BS */\n      tag_219\n      swap2\n      swap1\n      tag_122\n      jump\t// in\n    tag_219:\n        /* \"@redstone-finance/evm-connector/contracts/core/CalldataExtractor.sol\":4193:4268  return (dataPackagesCount, calldataNegativeOffset + DATA_PACKAGES_COUNT_BS) */\n      swap3\n      pop\n      swap3\n      pop\n      pop\n        /* \"@redstone-finance/evm-connector/contracts/core/CalldataExtractor.sol\":3661:4273  function _extractDataPackagesCountFromCalldata(uint256 calldataNegativeOffset)... */\n      swap2\n      pop\n      swap2\n      jump\t// out\n        /* \"@redstone-finance/evm-connector/contracts/core/CalldataExtractor.sol\":2014:2406  function _getDataPackageByteSize(uint256 calldataNegativeOffset) internal pure returns (uint256) {... */\n    tag_168:\n        /* \"@redstone-finance/evm-connector/contracts/core/CalldataExtractor.sol\":2102:2109  uint256 */\n      0x00\n        /* \"@redstone-finance/evm-connector/contracts/core/CalldataExtractor.sol\":2125:2148  uint256 dataPointsCount */\n      dup1\n        /* \"@redstone-finance/evm-connector/contracts/core/CalldataExtractor.sol\":2156:2190  uint256 eachDataPointValueByteSize */\n      0x00\n        /* \"@redstone-finance/evm-connector/contracts/core/CalldataExtractor.sol\":2199:2262  _extractDataPointsDetailsForDataPackage(calldataNegativeOffset) */\n      tag_221\n        /* \"@redstone-finance/evm-connector/contracts/core/CalldataExtractor.sol\":2239:2261  calldataNegativeOffset */\n      dup5\n        /* \"@redstone-finance/evm-connector/contracts/core/CalldataExtractor.sol\":2199:2238  _extractDataPointsDetailsForDataPackage */\n      tag_222\n        /* \"@redstone-finance/evm-connector/contracts/core/CalldataExtractor.sol\":2199:2262  _extractDataPointsDetailsForDataPackage(calldataNegativeOffset) */\n      jump\t// in\n    tag_221:\n        /* \"@redstone-finance/evm-connector/contracts/core/CalldataExtractor.sol\":2117:2262  (... */\n      swap2\n      pop\n      swap2\n      pop\n        /* \"@redstone-finance/evm-connector/contracts/core/RedstoneConstants.sol\":1926:1928  78 */\n      0x4e\n        /* \"@redstone-finance/evm-connector/contracts/core/CalldataExtractor.sol\":2330:2356  eachDataPointValueByteSize */\n      dup2\n        /* \"@redstone-finance/evm-connector/contracts/core/RedstoneConstants.sol\":1300:1302  32 */\n      0x20\n        /* \"@redstone-finance/evm-connector/contracts/core/CalldataExtractor.sol\":2307:2356  DATA_POINT_SYMBOL_BS + eachDataPointValueByteSize */\n      tag_223\n      swap2\n      swap1\n      tag_122\n      jump\t// in\n    tag_223:\n        /* \"@redstone-finance/evm-connector/contracts/core/CalldataExtractor.sol\":2282:2297  dataPointsCount */\n      dup4\n        /* \"@redstone-finance/evm-connector/contracts/core/CalldataExtractor.sol\":2282:2357  dataPointsCount *... */\n      tag_224\n      swap2\n      swap1\n      tag_190\n      jump\t// in\n    tag_224:\n        /* \"@redstone-finance/evm-connector/contracts/core/CalldataExtractor.sol\":2282:2401  dataPointsCount *... */\n      tag_225\n      swap2\n      swap1\n      tag_122\n      jump\t// in\n    tag_225:\n        /* \"@redstone-finance/evm-connector/contracts/core/CalldataExtractor.sol\":2269:2401  return... */\n      swap3\n      pop\n      pop\n      pop\n        /* \"@redstone-finance/evm-connector/contracts/core/CalldataExtractor.sol\":2014:2406  function _getDataPackageByteSize(uint256 calldataNegativeOffset) internal pure returns (uint256) {... */\n      swap2\n      swap1\n      pop\n      jump\t// out\n        /* \"@redstone-finance/evm-connector/contracts/core/RedstoneDefaultsLib.sol\":1547:1681  function aggregateValues(uint256[] memory values) internal pure returns (uint256) {... */\n    tag_179:\n        /* \"@redstone-finance/evm-connector/contracts/core/RedstoneDefaultsLib.sol\":1620:1627  uint256 */\n      0x00\n        /* \"@redstone-finance/evm-connector/contracts/core/RedstoneDefaultsLib.sol\":1642:1676  NumericArrayLib.pickMedian(values) */\n      tag_227\n        /* \"@redstone-finance/evm-connector/contracts/core/RedstoneDefaultsLib.sol\":1669:1675  values */\n      dup3\n        /* \"@redstone-finance/evm-connector/contracts/core/RedstoneDefaultsLib.sol\":1642:1668  NumericArrayLib.pickMedian */\n      tag_228\n        /* \"@redstone-finance/evm-connector/contracts/core/RedstoneDefaultsLib.sol\":1642:1676  NumericArrayLib.pickMedian(values) */\n      jump\t// in\n    tag_227:\n        /* \"@redstone-finance/evm-connector/contracts/core/RedstoneDefaultsLib.sol\":1635:1676  return NumericArrayLib.pickMedian(values) */\n      swap1\n      pop\n        /* \"@redstone-finance/evm-connector/contracts/core/RedstoneDefaultsLib.sol\":1547:1681  function aggregateValues(uint256[] memory values) internal pure returns (uint256) {... */\n      swap2\n      swap1\n      pop\n      jump\t// out\n        /* \"@redstone-finance/evm-connector/contracts/core/RedstoneConsumerNumericBase.sol\":2373:2684  function getOracleNumericValuesFromTxMsg(bytes32[] memory dataFeedIds)... */\n    tag_206:\n        /* \"@redstone-finance/evm-connector/contracts/core/RedstoneConsumerNumericBase.sol\":2491:2507  uint256[] memory */\n      0x60\n        /* \"@redstone-finance/evm-connector/contracts/core/RedstoneConsumerNumericBase.sol\":2518:2541  uint256[] memory values */\n      0x00\n        /* \"@redstone-finance/evm-connector/contracts/core/RedstoneConsumerNumericBase.sol\":2543:2560  uint256 timestamp */\n      dup1\n        /* \"@redstone-finance/evm-connector/contracts/core/RedstoneConsumerNumericBase.sol\":2564:2626  _securelyExtractOracleValuesAndTimestampFromTxMsg(dataFeedIds) */\n      tag_230\n        /* \"@redstone-finance/evm-connector/contracts/core/RedstoneConsumerNumericBase.sol\":2614:2625  dataFeedIds */\n      dup5\n        /* \"@redstone-finance/evm-connector/contracts/core/RedstoneConsumerNumericBase.sol\":2564:2613  _securelyExtractOracleValuesAndTimestampFromTxMsg */\n      tag_231\n        /* \"@redstone-finance/evm-connector/contracts/core/RedstoneConsumerNumericBase.sol\":2564:2626  _securelyExtractOracleValuesAndTimestampFromTxMsg(dataFeedIds) */\n      jump\t// in\n    tag_230:\n        /* \"@redstone-finance/evm-connector/contracts/core/RedstoneConsumerNumericBase.sol\":2517:2626  (uint256[] memory values, uint256 timestamp) = _securelyExtractOracleValuesAndTimestampFromTxMsg(dataFeedIds) */\n      swap2\n      pop\n      swap2\n      pop\n        /* \"@redstone-finance/evm-connector/contracts/core/RedstoneConsumerNumericBase.sol\":2632:2660  validateTimestamp(timestamp) */\n      tag_232\n        /* \"@redstone-finance/evm-connector/contracts/core/RedstoneConsumerNumericBase.sol\":2650:2659  timestamp */\n      dup2\n        /* \"@redstone-finance/evm-connector/contracts/core/RedstoneConsumerNumericBase.sol\":2632:2649  validateTimestamp */\n      tag_108\n        /* \"@redstone-finance/evm-connector/contracts/core/RedstoneConsumerNumericBase.sol\":2632:2660  validateTimestamp(timestamp) */\n      jump\t// in\n    tag_232:\n        /* \"@redstone-finance/evm-connector/contracts/core/RedstoneConsumerNumericBase.sol\":2673:2679  values */\n      dup2\n        /* \"@redstone-finance/evm-connector/contracts/core/RedstoneConsumerNumericBase.sol\":2666:2679  return values */\n      swap3\n      pop\n      pop\n      pop\n        /* \"@redstone-finance/evm-connector/contracts/core/RedstoneConsumerNumericBase.sol\":2373:2684  function getOracleNumericValuesFromTxMsg(bytes32[] memory dataFeedIds)... */\n      swap2\n      swap1\n      pop\n      jump\t// out\n        /* \"@redstone-finance/evm-connector/contracts/core/CalldataExtractor.sol\":4955:5916  function _extractDataPointsDetailsForDataPackage(uint256 calldataNegativeOffsetForDataPackage)... */\n    tag_222:\n        /* \"@redstone-finance/evm-connector/contracts/core/CalldataExtractor.sol\":5085:5108  uint256 dataPointsCount */\n      0x00\n        /* \"@redstone-finance/evm-connector/contracts/core/CalldataExtractor.sol\":5110:5144  uint256 eachDataPointValueByteSize */\n      dup1\n        /* \"@redstone-finance/evm-connector/contracts/core/CalldataExtractor.sol\":5230:5253  uint24 dataPointsCount_ */\n      0x00\n        /* \"@redstone-finance/evm-connector/contracts/core/CalldataExtractor.sol\":5328:5362  uint32 eachDataPointValueByteSize_ */\n      dup1\n        /* \"@redstone-finance/evm-connector/contracts/core/CalldataExtractor.sol\":5402:5424  uint256 calldataOffset */\n      0x00\n        /* \"@redstone-finance/evm-connector/contracts/core/RedstoneConstants.sol\":524:526  32 */\n      0x20\n        /* \"@redstone-finance/evm-connector/contracts/core/RedstoneConstants.sol\":1026:1028  65 */\n      0x41\n        /* \"@redstone-finance/evm-connector/contracts/core/CalldataExtractor.sol\":5446:5482  calldataNegativeOffsetForDataPackage */\n      dup8\n        /* \"@redstone-finance/evm-connector/contracts/core/CalldataExtractor.sol\":5446:5491  calldataNegativeOffsetForDataPackage + SIG_BS */\n      tag_234\n      swap2\n      swap1\n      tag_122\n      jump\t// in\n    tag_234:\n        /* \"@redstone-finance/evm-connector/contracts/core/CalldataExtractor.sol\":5446:5510  calldataNegativeOffsetForDataPackage + SIG_BS + STANDARD_SLOT_BS */\n      tag_235\n      swap2\n      swap1\n      tag_122\n      jump\t// in\n    tag_235:\n        /* \"@redstone-finance/evm-connector/contracts/core/CalldataExtractor.sol\":5427:5435  msg.data */\n      0x00\n      calldatasize\n        /* \"@redstone-finance/evm-connector/contracts/core/CalldataExtractor.sol\":5427:5442  msg.data.length */\n      swap1\n      pop\n        /* \"@redstone-finance/evm-connector/contracts/core/CalldataExtractor.sol\":5427:5511  msg.data.length - (calldataNegativeOffsetForDataPackage + SIG_BS + STANDARD_SLOT_BS) */\n      tag_236\n      swap2\n      swap1\n      tag_171\n      jump\t// in\n    tag_236:\n        /* \"@redstone-finance/evm-connector/contracts/core/CalldataExtractor.sol\":5402:5511  uint256 calldataOffset = msg.data.length - (calldataNegativeOffsetForDataPackage + SIG_BS + STANDARD_SLOT_BS) */\n      swap1\n      pop\n        /* \"@redstone-finance/evm-connector/contracts/core/CalldataExtractor.sol\":5567:5581  calldataOffset */\n      dup1\n        /* \"@redstone-finance/evm-connector/contracts/core/CalldataExtractor.sol\":5554:5582  calldataload(calldataOffset) */\n      calldataload\n        /* \"@redstone-finance/evm-connector/contracts/core/CalldataExtractor.sol\":5534:5582  dataPointsCount_ := calldataload(calldataOffset) */\n      swap3\n      pop\n        /* \"@redstone-finance/evm-connector/contracts/core/RedstoneConstants.sol\":1183:1184  3 */\n      0x03\n        /* \"@redstone-finance/evm-connector/contracts/core/CalldataExtractor.sol\":5653:5667  calldataOffset */\n      dup2\n        /* \"@redstone-finance/evm-connector/contracts/core/CalldataExtractor.sol\":5653:5690  calldataOffset - DATA_POINTS_COUNT_BS */\n      tag_237\n      swap2\n      swap1\n      tag_171\n      jump\t// in\n    tag_237:\n        /* \"@redstone-finance/evm-connector/contracts/core/CalldataExtractor.sol\":5636:5690  calldataOffset = calldataOffset - DATA_POINTS_COUNT_BS */\n      swap1\n      pop\n        /* \"@redstone-finance/evm-connector/contracts/core/CalldataExtractor.sol\":5757:5771  calldataOffset */\n      dup1\n        /* \"@redstone-finance/evm-connector/contracts/core/CalldataExtractor.sol\":5744:5772  calldataload(calldataOffset) */\n      calldataload\n        /* \"@redstone-finance/evm-connector/contracts/core/CalldataExtractor.sol\":5713:5772  eachDataPointValueByteSize_ := calldataload(calldataOffset) */\n      swap2\n      pop\n        /* \"@redstone-finance/evm-connector/contracts/core/CalldataExtractor.sol\":5833:5849  dataPointsCount_ */\n      dup3\n        /* \"@redstone-finance/evm-connector/contracts/core/CalldataExtractor.sol\":5815:5849  dataPointsCount = dataPointsCount_ */\n      0xffffff\n      and\n      swap5\n      pop\n        /* \"@redstone-finance/evm-connector/contracts/core/CalldataExtractor.sol\":5884:5911  eachDataPointValueByteSize_ */\n      dup2\n        /* \"@redstone-finance/evm-connector/contracts/core/CalldataExtractor.sol\":5855:5911  eachDataPointValueByteSize = eachDataPointValueByteSize_ */\n      0xffffffff\n      and\n      swap4\n      pop\n        /* \"@redstone-finance/evm-connector/contracts/core/CalldataExtractor.sol\":5148:5916  {... */\n      pop\n      pop\n      pop\n        /* \"@redstone-finance/evm-connector/contracts/core/CalldataExtractor.sol\":4955:5916  function _extractDataPointsDetailsForDataPackage(uint256 calldataNegativeOffsetForDataPackage)... */\n      swap2\n      pop\n      swap2\n      jump\t// out\n        /* \"@redstone-finance/evm-connector/contracts/libs/NumericArrayLib.sol\":389:836  function pickMedian(uint256[] memory arr) internal pure returns (uint256) {... */\n    tag_228:\n        /* \"@redstone-finance/evm-connector/contracts/libs/NumericArrayLib.sol\":454:461  uint256 */\n      0x00\n        /* \"@redstone-finance/evm-connector/contracts/libs/NumericArrayLib.sol\":487:488  2 */\n      0x02\n        /* \"@redstone-finance/evm-connector/contracts/libs/NumericArrayLib.sol\":473:476  arr */\n      dup3\n        /* \"@redstone-finance/evm-connector/contracts/libs/NumericArrayLib.sol\":473:483  arr.length */\n      mload\n        /* \"@redstone-finance/evm-connector/contracts/libs/NumericArrayLib.sol\":473:488  arr.length == 2 */\n      sub\n        /* \"@redstone-finance/evm-connector/contracts/libs/NumericArrayLib.sol\":469:533  if (arr.length == 2) {... */\n      tag_239\n      jumpi\n        /* \"@redstone-finance/evm-connector/contracts/libs/NumericArrayLib.sol\":525:526  2 */\n      0x02\n        /* \"@redstone-finance/evm-connector/contracts/libs/NumericArrayLib.sol\":515:518  arr */\n      dup3\n        /* \"@redstone-finance/evm-connector/contracts/libs/NumericArrayLib.sol\":519:520  1 */\n      0x01\n        /* \"@redstone-finance/evm-connector/contracts/libs/NumericArrayLib.sol\":515:521  arr[1] */\n      dup2\n      mload\n      dup2\n      lt\n      tag_240\n      jumpi\n      tag_241\n      tag_204\n      jump\t// in\n    tag_241:\n    tag_240:\n      0x20\n      mul\n      0x20\n      add\n      add\n      mload\n        /* \"@redstone-finance/evm-connector/contracts/libs/NumericArrayLib.sol\":506:509  arr */\n      dup4\n        /* \"@redstone-finance/evm-connector/contracts/libs/NumericArrayLib.sol\":510:511  0 */\n      0x00\n        /* \"@redstone-finance/evm-connector/contracts/libs/NumericArrayLib.sol\":506:512  arr[0] */\n      dup2\n      mload\n      dup2\n      lt\n      tag_242\n      jumpi\n      tag_243\n      tag_204\n      jump\t// in\n    tag_243:\n    tag_242:\n      0x20\n      mul\n      0x20\n      add\n      add\n      mload\n        /* \"@redstone-finance/evm-connector/contracts/libs/NumericArrayLib.sol\":506:521  arr[0] + arr[1] */\n      tag_244\n      swap2\n      swap1\n      tag_122\n      jump\t// in\n    tag_244:\n        /* \"@redstone-finance/evm-connector/contracts/libs/NumericArrayLib.sol\":505:526  (arr[0] + arr[1]) / 2 */\n      tag_245\n      swap2\n      swap1\n      tag_192\n      jump\t// in\n    tag_245:\n        /* \"@redstone-finance/evm-connector/contracts/libs/NumericArrayLib.sol\":498:526  return (arr[0] + arr[1]) / 2 */\n      swap1\n      pop\n      jump(tag_238)\n        /* \"@redstone-finance/evm-connector/contracts/libs/NumericArrayLib.sol\":469:533  if (arr.length == 2) {... */\n    tag_239:\n        /* \"@redstone-finance/evm-connector/contracts/libs/NumericArrayLib.sol\":556:557  0 */\n      0x00\n        /* \"@redstone-finance/evm-connector/contracts/libs/NumericArrayLib.sol\":542:545  arr */\n      dup3\n        /* \"@redstone-finance/evm-connector/contracts/libs/NumericArrayLib.sol\":542:552  arr.length */\n      mload\n        /* \"@redstone-finance/evm-connector/contracts/libs/NumericArrayLib.sol\":542:557  arr.length == 0 */\n      sub\n        /* \"@redstone-finance/evm-connector/contracts/libs/NumericArrayLib.sol\":538:611  if (arr.length == 0) {... */\n      tag_246\n      jumpi\n        /* \"@redstone-finance/evm-connector/contracts/libs/NumericArrayLib.sol\":574:604  CanNotPickMedianOfEmptyArray() */\n      mload(0x40)\n      0x9e198af900000000000000000000000000000000000000000000000000000000\n      dup2\n      mstore\n      0x04\n      add\n      mload(0x40)\n      dup1\n      swap2\n      sub\n      swap1\n      revert\n        /* \"@redstone-finance/evm-connector/contracts/libs/NumericArrayLib.sol\":538:611  if (arr.length == 0) {... */\n    tag_246:\n        /* \"@redstone-finance/evm-connector/contracts/libs/NumericArrayLib.sol\":616:625  sort(arr) */\n      tag_247\n        /* \"@redstone-finance/evm-connector/contracts/libs/NumericArrayLib.sol\":621:624  arr */\n      dup3\n        /* \"@redstone-finance/evm-connector/contracts/libs/NumericArrayLib.sol\":616:620  sort */\n      tag_248\n        /* \"@redstone-finance/evm-connector/contracts/libs/NumericArrayLib.sol\":616:625  sort(arr) */\n      jump\t// in\n    tag_247:\n        /* \"@redstone-finance/evm-connector/contracts/libs/NumericArrayLib.sol\":631:650  uint256 middleIndex */\n      0x00\n        /* \"@redstone-finance/evm-connector/contracts/libs/NumericArrayLib.sol\":666:667  2 */\n      0x02\n        /* \"@redstone-finance/evm-connector/contracts/libs/NumericArrayLib.sol\":653:656  arr */\n      dup4\n        /* \"@redstone-finance/evm-connector/contracts/libs/NumericArrayLib.sol\":653:663  arr.length */\n      mload\n        /* \"@redstone-finance/evm-connector/contracts/libs/NumericArrayLib.sol\":653:667  arr.length / 2 */\n      tag_249\n      swap2\n      swap1\n      tag_192\n      jump\t// in\n    tag_249:\n        /* \"@redstone-finance/evm-connector/contracts/libs/NumericArrayLib.sol\":631:667  uint256 middleIndex = arr.length / 2 */\n      swap1\n      pop\n        /* \"@redstone-finance/evm-connector/contracts/libs/NumericArrayLib.sol\":695:696  0 */\n      0x00\n        /* \"@redstone-finance/evm-connector/contracts/libs/NumericArrayLib.sol\":690:691  2 */\n      0x02\n        /* \"@redstone-finance/evm-connector/contracts/libs/NumericArrayLib.sol\":677:680  arr */\n      dup5\n        /* \"@redstone-finance/evm-connector/contracts/libs/NumericArrayLib.sol\":677:687  arr.length */\n      mload\n        /* \"@redstone-finance/evm-connector/contracts/libs/NumericArrayLib.sol\":677:691  arr.length % 2 */\n      tag_250\n      swap2\n      swap1\n      tag_251\n      jump\t// in\n    tag_250:\n        /* \"@redstone-finance/evm-connector/contracts/libs/NumericArrayLib.sol\":677:696  arr.length % 2 == 0 */\n      sub\n        /* \"@redstone-finance/evm-connector/contracts/libs/NumericArrayLib.sol\":673:832  if (arr.length % 2 == 0) {... */\n      tag_252\n      jumpi\n        /* \"@redstone-finance/evm-connector/contracts/libs/NumericArrayLib.sol\":706:717  uint256 sum */\n      0x00\n        /* \"@redstone-finance/evm-connector/contracts/libs/NumericArrayLib.sol\":743:746  arr */\n      dup4\n        /* \"@redstone-finance/evm-connector/contracts/libs/NumericArrayLib.sol\":747:758  middleIndex */\n      dup3\n        /* \"@redstone-finance/evm-connector/contracts/libs/NumericArrayLib.sol\":743:759  arr[middleIndex] */\n      dup2\n      mload\n      dup2\n      lt\n      tag_253\n      jumpi\n      tag_254\n      tag_204\n      jump\t// in\n    tag_254:\n    tag_253:\n      0x20\n      mul\n      0x20\n      add\n      add\n      mload\n        /* \"@redstone-finance/evm-connector/contracts/libs/NumericArrayLib.sol\":720:723  arr */\n      dup5\n        /* \"@redstone-finance/evm-connector/contracts/libs/NumericArrayLib.sol\":738:739  1 */\n      0x01\n        /* \"@redstone-finance/evm-connector/contracts/libs/NumericArrayLib.sol\":724:735  middleIndex */\n      dup5\n        /* \"@redstone-finance/evm-connector/contracts/libs/NumericArrayLib.sol\":724:739  middleIndex - 1 */\n      tag_255\n      swap2\n      swap1\n      tag_171\n      jump\t// in\n    tag_255:\n        /* \"@redstone-finance/evm-connector/contracts/libs/NumericArrayLib.sol\":720:740  arr[middleIndex - 1] */\n      dup2\n      mload\n      dup2\n      lt\n      tag_256\n      jumpi\n      tag_257\n      tag_204\n      jump\t// in\n    tag_257:\n    tag_256:\n      0x20\n      mul\n      0x20\n      add\n      add\n      mload\n        /* \"@redstone-finance/evm-connector/contracts/libs/NumericArrayLib.sol\":720:759  arr[middleIndex - 1] + arr[middleIndex] */\n      tag_258\n      swap2\n      swap1\n      tag_122\n      jump\t// in\n    tag_258:\n        /* \"@redstone-finance/evm-connector/contracts/libs/NumericArrayLib.sol\":706:759  uint256 sum = arr[middleIndex - 1] + arr[middleIndex] */\n      swap1\n      pop\n        /* \"@redstone-finance/evm-connector/contracts/libs/NumericArrayLib.sol\":780:781  2 */\n      0x02\n        /* \"@redstone-finance/evm-connector/contracts/libs/NumericArrayLib.sol\":774:777  sum */\n      dup2\n        /* \"@redstone-finance/evm-connector/contracts/libs/NumericArrayLib.sol\":774:781  sum / 2 */\n      tag_259\n      swap2\n      swap1\n      tag_192\n      jump\t// in\n    tag_259:\n        /* \"@redstone-finance/evm-connector/contracts/libs/NumericArrayLib.sol\":767:781  return sum / 2 */\n      swap3\n      pop\n      pop\n      pop\n      jump(tag_238)\n        /* \"@redstone-finance/evm-connector/contracts/libs/NumericArrayLib.sol\":673:832  if (arr.length % 2 == 0) {... */\n    tag_252:\n        /* \"@redstone-finance/evm-connector/contracts/libs/NumericArrayLib.sol\":809:812  arr */\n      dup3\n        /* \"@redstone-finance/evm-connector/contracts/libs/NumericArrayLib.sol\":813:824  middleIndex */\n      dup2\n        /* \"@redstone-finance/evm-connector/contracts/libs/NumericArrayLib.sol\":809:825  arr[middleIndex] */\n      dup2\n      mload\n      dup2\n      lt\n      tag_261\n      jumpi\n      tag_262\n      tag_204\n      jump\t// in\n    tag_262:\n    tag_261:\n      0x20\n      mul\n      0x20\n      add\n      add\n      mload\n        /* \"@redstone-finance/evm-connector/contracts/libs/NumericArrayLib.sol\":802:825  return arr[middleIndex] */\n      swap2\n      pop\n      pop\n        /* \"@redstone-finance/evm-connector/contracts/libs/NumericArrayLib.sol\":389:836  function pickMedian(uint256[] memory arr) internal pure returns (uint256) {... */\n    tag_238:\n      swap2\n      swap1\n      pop\n      jump\t// out\n        /* \"@redstone-finance/evm-connector/contracts/core/RedstoneConsumerBase.sol\":3842:6283  function _securelyExtractOracleValuesAndTimestampFromTxMsg(bytes32[] memory dataFeedIds)... */\n    tag_231:\n        /* \"@redstone-finance/evm-connector/contracts/core/RedstoneConsumerBase.sol\":3966:3982  uint256[] memory */\n      0x60\n        /* \"@redstone-finance/evm-connector/contracts/core/RedstoneConsumerBase.sol\":3984:4013  uint256 dataPackagesTimestamp */\n      0x00\n        /* \"@redstone-finance/evm-connector/contracts/core/RedstoneConsumerBase.sol\":4083:4131  uint256[] memory uniqueSignerCountForDataFeedIds */\n      dup1\n        /* \"@redstone-finance/evm-connector/contracts/core/RedstoneConsumerBase.sol\":4148:4159  dataFeedIds */\n      dup4\n        /* \"@redstone-finance/evm-connector/contracts/core/RedstoneConsumerBase.sol\":4148:4166  dataFeedIds.length */\n      mload\n        /* \"@redstone-finance/evm-connector/contracts/core/RedstoneConsumerBase.sol\":4134:4167  new uint256[](dataFeedIds.length) */\n      0xffffffffffffffff\n      dup2\n      gt\n      iszero\n      tag_264\n      jumpi\n      tag_265\n      tag_200\n      jump\t// in\n    tag_265:\n    tag_264:\n      mload(0x40)\n      swap1\n      dup1\n      dup3\n      mstore\n      dup1\n      0x20\n      mul\n      0x20\n      add\n      dup3\n      add\n      0x40\n      mstore\n      dup1\n      iszero\n      tag_266\n      jumpi\n      dup2\n      0x20\n      add\n      0x20\n      dup3\n      mul\n      dup1\n      calldatasize\n      dup4\n      calldatacopy\n      dup1\n      dup3\n      add\n      swap2\n      pop\n      pop\n      swap1\n      pop\n    tag_266:\n      pop\n        /* \"@redstone-finance/evm-connector/contracts/core/RedstoneConsumerBase.sol\":4083:4167  uint256[] memory uniqueSignerCountForDataFeedIds = new uint256[](dataFeedIds.length) */\n      swap1\n      pop\n        /* \"@redstone-finance/evm-connector/contracts/core/RedstoneConsumerBase.sol\":4173:4217  uint256[] memory signersBitmapForDataFeedIds */\n      0x00\n        /* \"@redstone-finance/evm-connector/contracts/core/RedstoneConsumerBase.sol\":4234:4245  dataFeedIds */\n      dup5\n        /* \"@redstone-finance/evm-connector/contracts/core/RedstoneConsumerBase.sol\":4234:4252  dataFeedIds.length */\n      mload\n        /* \"@redstone-finance/evm-connector/contracts/core/RedstoneConsumerBase.sol\":4220:4253  new uint256[](dataFeedIds.length) */\n      0xffffffffffffffff\n      dup2\n      gt\n      iszero\n      tag_267\n      jumpi\n      tag_268\n      tag_200\n      jump\t// in\n    tag_268:\n    tag_267:\n      mload(0x40)\n      swap1\n      dup1\n      dup3\n      mstore\n      dup1\n      0x20\n      mul\n      0x20\n      add\n      dup3\n      add\n      0x40\n      mstore\n      dup1\n      iszero\n      tag_269\n      jumpi\n      dup2\n      0x20\n      add\n      0x20\n      dup3\n      mul\n      dup1\n      calldatasize\n      dup4\n      calldatacopy\n      dup1\n      dup3\n      add\n      swap2\n      pop\n      pop\n      swap1\n      pop\n    tag_269:\n      pop\n        /* \"@redstone-finance/evm-connector/contracts/core/RedstoneConsumerBase.sol\":4173:4253  uint256[] memory signersBitmapForDataFeedIds = new uint256[](dataFeedIds.length) */\n      swap1\n      pop\n        /* \"@redstone-finance/evm-connector/contracts/core/RedstoneConsumerBase.sol\":4259:4296  uint256[][] memory valuesForDataFeeds */\n      0x00\n        /* \"@redstone-finance/evm-connector/contracts/core/RedstoneConsumerBase.sol\":4315:4326  dataFeedIds */\n      dup6\n        /* \"@redstone-finance/evm-connector/contracts/core/RedstoneConsumerBase.sol\":4315:4333  dataFeedIds.length */\n      mload\n        /* \"@redstone-finance/evm-connector/contracts/core/RedstoneConsumerBase.sol\":4299:4334  new uint256[][](dataFeedIds.length) */\n      0xffffffffffffffff\n      dup2\n      gt\n      iszero\n      tag_270\n      jumpi\n      tag_271\n      tag_200\n      jump\t// in\n    tag_271:\n    tag_270:\n      mload(0x40)\n      swap1\n      dup1\n      dup3\n      mstore\n      dup1\n      0x20\n      mul\n      0x20\n      add\n      dup3\n      add\n      0x40\n      mstore\n      dup1\n      iszero\n      tag_272\n      jumpi\n      dup2\n      0x20\n      add\n    tag_273:\n      0x60\n      dup2\n      mstore\n      0x20\n      add\n      swap1\n      0x01\n      swap1\n      sub\n      swap1\n      dup2\n      tag_273\n      jumpi\n      swap1\n      pop\n    tag_272:\n      pop\n        /* \"@redstone-finance/evm-connector/contracts/core/RedstoneConsumerBase.sol\":4259:4334  uint256[][] memory valuesForDataFeeds = new uint256[][](dataFeedIds.length) */\n      swap1\n      pop\n        /* \"@redstone-finance/evm-connector/contracts/core/RedstoneConsumerBase.sol\":4345:4354  uint256 i */\n      0x00\n        /* \"@redstone-finance/evm-connector/contracts/core/RedstoneConsumerBase.sol\":4340:4720  for (uint256 i = 0; i < dataFeedIds.length;) {... */\n    tag_274:\n        /* \"@redstone-finance/evm-connector/contracts/core/RedstoneConsumerBase.sol\":4364:4375  dataFeedIds */\n      dup7\n        /* \"@redstone-finance/evm-connector/contracts/core/RedstoneConsumerBase.sol\":4364:4382  dataFeedIds.length */\n      mload\n        /* \"@redstone-finance/evm-connector/contracts/core/RedstoneConsumerBase.sol\":4360:4361  i */\n      dup2\n        /* \"@redstone-finance/evm-connector/contracts/core/RedstoneConsumerBase.sol\":4360:4382  i < dataFeedIds.length */\n      lt\n        /* \"@redstone-finance/evm-connector/contracts/core/RedstoneConsumerBase.sol\":4340:4720  for (uint256 i = 0; i < dataFeedIds.length;) {... */\n      iszero\n      tag_275\n      jumpi\n        /* \"@redstone-finance/evm-connector/contracts/core/RedstoneConsumerBase.sol\":4646:4673  getUniqueSignersThreshold() */\n      tag_277\n        /* \"@redstone-finance/evm-connector/contracts/core/RedstoneConsumerBase.sol\":4646:4671  getUniqueSignersThreshold */\n      tag_111\n        /* \"@redstone-finance/evm-connector/contracts/core/RedstoneConsumerBase.sol\":4646:4673  getUniqueSignersThreshold() */\n      jump\t// in\n    tag_277:\n        /* \"@redstone-finance/evm-connector/contracts/core/RedstoneConsumerBase.sol\":4632:4674  new uint256[](getUniqueSignersThreshold()) */\n      0xff\n      and\n      0xffffffffffffffff\n      dup2\n      gt\n      iszero\n      tag_278\n      jumpi\n      tag_279\n      tag_200\n      jump\t// in\n    tag_279:\n    tag_278:\n      mload(0x40)\n      swap1\n      dup1\n      dup3\n      mstore\n      dup1\n      0x20\n      mul\n      0x20\n      add\n      dup3\n      add\n      0x40\n      mstore\n      dup1\n      iszero\n      tag_280\n      jumpi\n      dup2\n      0x20\n      add\n      0x20\n      dup3\n      mul\n      dup1\n      calldatasize\n      dup4\n      calldatacopy\n      dup1\n      dup3\n      add\n      swap2\n      pop\n      pop\n      swap1\n      pop\n    tag_280:\n      pop\n        /* \"@redstone-finance/evm-connector/contracts/core/RedstoneConsumerBase.sol\":4608:4626  valuesForDataFeeds */\n      dup3\n        /* \"@redstone-finance/evm-connector/contracts/core/RedstoneConsumerBase.sol\":4627:4628  i */\n      dup3\n        /* \"@redstone-finance/evm-connector/contracts/core/RedstoneConsumerBase.sol\":4608:4629  valuesForDataFeeds[i] */\n      dup2\n      mload\n      dup2\n      lt\n      tag_281\n      jumpi\n      tag_282\n      tag_204\n      jump\t// in\n    tag_282:\n    tag_281:\n      0x20\n      mul\n      0x20\n      add\n      add\n        /* \"@redstone-finance/evm-connector/contracts/core/RedstoneConsumerBase.sol\":4608:4674  valuesForDataFeeds[i] = new uint256[](getUniqueSignersThreshold()) */\n      dup2\n      swap1\n      mstore\n      pop\n        /* \"@redstone-finance/evm-connector/contracts/core/RedstoneConsumerBase.sol\":4702:4705  i++ */\n      dup1\n      dup1\n      0x01\n      add\n      swap2\n      pop\n      pop\n        /* \"@redstone-finance/evm-connector/contracts/core/RedstoneConsumerBase.sol\":4340:4720  for (uint256 i = 0; i < dataFeedIds.length;) {... */\n      jump(tag_274)\n    tag_275:\n      pop\n        /* \"@redstone-finance/evm-connector/contracts/core/RedstoneConsumerBase.sol\":4786:4816  uint256 calldataNegativeOffset */\n      0x00\n        /* \"@redstone-finance/evm-connector/contracts/core/RedstoneConsumerBase.sol\":4819:4855  _extractByteSizeOfUnsignedMetadata() */\n      tag_283\n        /* \"@redstone-finance/evm-connector/contracts/core/RedstoneConsumerBase.sol\":4819:4853  _extractByteSizeOfUnsignedMetadata */\n      tag_160\n        /* \"@redstone-finance/evm-connector/contracts/core/RedstoneConsumerBase.sol\":4819:4855  _extractByteSizeOfUnsignedMetadata() */\n      jump\t// in\n    tag_283:\n        /* \"@redstone-finance/evm-connector/contracts/core/RedstoneConsumerBase.sol\":4786:4855  uint256 calldataNegativeOffset = _extractByteSizeOfUnsignedMetadata() */\n      swap1\n      pop\n        /* \"@redstone-finance/evm-connector/contracts/core/RedstoneConsumerBase.sol\":4861:4886  uint256 dataPackagesCount */\n      0x00\n        /* \"@redstone-finance/evm-connector/contracts/core/RedstoneConsumerBase.sol\":4938:4999  _extractDataPackagesCountFromCalldata(calldataNegativeOffset) */\n      tag_284\n        /* \"@redstone-finance/evm-connector/contracts/core/RedstoneConsumerBase.sol\":4976:4998  calldataNegativeOffset */\n      dup3\n        /* \"@redstone-finance/evm-connector/contracts/core/RedstoneConsumerBase.sol\":4938:4975  _extractDataPackagesCountFromCalldata */\n      tag_162\n        /* \"@redstone-finance/evm-connector/contracts/core/RedstoneConsumerBase.sol\":4938:4999  _extractDataPackagesCountFromCalldata(calldataNegativeOffset) */\n      jump\t// in\n    tag_284:\n        /* \"@redstone-finance/evm-connector/contracts/core/RedstoneConsumerBase.sol\":4892:4999  (dataPackagesCount, calldataNegativeOffset) = _extractDataPackagesCountFromCalldata(calldataNegativeOffset) */\n      dup2\n      0xffff\n      and\n      swap2\n      pop\n      dup1\n      swap4\n      pop\n      dup2\n      swap3\n      pop\n      pop\n      pop\n        /* \"@redstone-finance/evm-connector/contracts/core/RedstoneConsumerBase.sol\":5048:5066  uint256 freeMemPtr */\n      0x00\n        /* \"@redstone-finance/evm-connector/contracts/core/RedstoneConsumerBase.sol\":5109:5124  FREE_MEMORY_PTR */\n      0x40\n        /* \"@redstone-finance/evm-connector/contracts/core/RedstoneConsumerBase.sol\":5103:5125  mload(FREE_MEMORY_PTR) */\n      mload\n        /* \"@redstone-finance/evm-connector/contracts/core/RedstoneConsumerBase.sol\":5089:5125  freeMemPtr := mload(FREE_MEMORY_PTR) */\n      swap1\n      pop\n        /* \"@redstone-finance/evm-connector/contracts/core/RedstoneConsumerBase.sol\":5184:5208  uint256 dataPackageIndex */\n      0x00\n        /* \"@redstone-finance/evm-connector/contracts/core/RedstoneConsumerBase.sol\":5179:6069  for (uint256 dataPackageIndex = 0; dataPackageIndex < dataPackagesCount;) {... */\n    tag_285:\n        /* \"@redstone-finance/evm-connector/contracts/core/RedstoneConsumerBase.sol\":5233:5250  dataPackagesCount */\n      dup3\n        /* \"@redstone-finance/evm-connector/contracts/core/RedstoneConsumerBase.sol\":5214:5230  dataPackageIndex */\n      dup2\n        /* \"@redstone-finance/evm-connector/contracts/core/RedstoneConsumerBase.sol\":5214:5250  dataPackageIndex < dataPackagesCount */\n      lt\n        /* \"@redstone-finance/evm-connector/contracts/core/RedstoneConsumerBase.sol\":5179:6069  for (uint256 dataPackageIndex = 0; dataPackageIndex < dataPackagesCount;) {... */\n      iszero\n      tag_286\n      jumpi\n        /* \"@redstone-finance/evm-connector/contracts/core/RedstoneConsumerBase.sol\":5326:5354  uint256 dataPackageTimestamp */\n      0x00\n        /* \"@redstone-finance/evm-connector/contracts/core/RedstoneConsumerBase.sol\":5411:5597  _extractDataPackage(... */\n      tag_288\n        /* \"@redstone-finance/evm-connector/contracts/core/RedstoneConsumerBase.sol\":5440:5451  dataFeedIds */\n      dup12\n        /* \"@redstone-finance/evm-connector/contracts/core/RedstoneConsumerBase.sol\":5461:5492  uniqueSignerCountForDataFeedIds */\n      dup10\n        /* \"@redstone-finance/evm-connector/contracts/core/RedstoneConsumerBase.sol\":5502:5529  signersBitmapForDataFeedIds */\n      dup10\n        /* \"@redstone-finance/evm-connector/contracts/core/RedstoneConsumerBase.sol\":5539:5557  valuesForDataFeeds */\n      dup10\n        /* \"@redstone-finance/evm-connector/contracts/core/RedstoneConsumerBase.sol\":5567:5589  calldataNegativeOffset */\n      dup10\n        /* \"@redstone-finance/evm-connector/contracts/core/RedstoneConsumerBase.sol\":5411:5430  _extractDataPackage */\n      tag_289\n        /* \"@redstone-finance/evm-connector/contracts/core/RedstoneConsumerBase.sol\":5411:5597  _extractDataPackage(... */\n      jump\t// in\n    tag_288:\n        /* \"@redstone-finance/evm-connector/contracts/core/RedstoneConsumerBase.sol\":5362:5597  (calldataNegativeOffset, dataPackageTimestamp) = _extractDataPackage(... */\n      dup1\n      swap3\n      pop\n      dup2\n      swap7\n      pop\n      pop\n      pop\n        /* \"@redstone-finance/evm-connector/contracts/core/RedstoneConsumerBase.sol\":5634:5635  0 */\n      0x00\n        /* \"@redstone-finance/evm-connector/contracts/core/RedstoneConsumerBase.sol\":5610:5630  dataPackageTimestamp */\n      dup2\n        /* \"@redstone-finance/evm-connector/contracts/core/RedstoneConsumerBase.sol\":5610:5635  dataPackageTimestamp == 0 */\n      sub\n        /* \"@redstone-finance/evm-connector/contracts/core/RedstoneConsumerBase.sol\":5606:5690  if (dataPackageTimestamp == 0) {... */\n      tag_290\n      jumpi\n        /* \"@redstone-finance/evm-connector/contracts/core/RedstoneConsumerBase.sol\":5654:5681  DataTimestampCannotBeZero() */\n      mload(0x40)\n      0xdfb25a7900000000000000000000000000000000000000000000000000000000\n      dup2\n      mstore\n      0x04\n      add\n      mload(0x40)\n      dup1\n      swap2\n      sub\n      swap1\n      revert\n        /* \"@redstone-finance/evm-connector/contracts/core/RedstoneConsumerBase.sol\":5606:5690  if (dataPackageTimestamp == 0) {... */\n    tag_290:\n        /* \"@redstone-finance/evm-connector/contracts/core/RedstoneConsumerBase.sol\":5726:5747  dataPackagesTimestamp */\n      dup9\n        /* \"@redstone-finance/evm-connector/contracts/core/RedstoneConsumerBase.sol\":5702:5722  dataPackageTimestamp */\n      dup2\n        /* \"@redstone-finance/evm-connector/contracts/core/RedstoneConsumerBase.sol\":5702:5747  dataPackageTimestamp != dataPackagesTimestamp */\n      eq\n      iszero\n        /* \"@redstone-finance/evm-connector/contracts/core/RedstoneConsumerBase.sol\":5702:5777  dataPackageTimestamp != dataPackagesTimestamp && dataPackagesTimestamp != 0 */\n      dup1\n      iszero\n      tag_291\n      jumpi\n      pop\n        /* \"@redstone-finance/evm-connector/contracts/core/RedstoneConsumerBase.sol\":5776:5777  0 */\n      0x00\n        /* \"@redstone-finance/evm-connector/contracts/core/RedstoneConsumerBase.sol\":5751:5772  dataPackagesTimestamp */\n      dup10\n        /* \"@redstone-finance/evm-connector/contracts/core/RedstoneConsumerBase.sol\":5751:5777  dataPackagesTimestamp != 0 */\n      eq\n      iszero\n        /* \"@redstone-finance/evm-connector/contracts/core/RedstoneConsumerBase.sol\":5702:5777  dataPackageTimestamp != dataPackagesTimestamp && dataPackagesTimestamp != 0 */\n    tag_291:\n        /* \"@redstone-finance/evm-connector/contracts/core/RedstoneConsumerBase.sol\":5698:5828  if (dataPackageTimestamp != dataPackagesTimestamp && dataPackagesTimestamp != 0) {... */\n      iszero\n      tag_292\n      jumpi\n        /* \"@redstone-finance/evm-connector/contracts/core/RedstoneConsumerBase.sol\":5796:5819  TimestampsMustBeEqual() */\n      mload(0x40)\n      0x4cbc474200000000000000000000000000000000000000000000000000000000\n      dup2\n      mstore\n      0x04\n      add\n      mload(0x40)\n      dup1\n      swap2\n      sub\n      swap1\n      revert\n        /* \"@redstone-finance/evm-connector/contracts/core/RedstoneConsumerBase.sol\":5698:5828  if (dataPackageTimestamp != dataPackagesTimestamp && dataPackagesTimestamp != 0) {... */\n    tag_292:\n        /* \"@redstone-finance/evm-connector/contracts/core/RedstoneConsumerBase.sol\":5860:5880  dataPackageTimestamp */\n      dup1\n        /* \"@redstone-finance/evm-connector/contracts/core/RedstoneConsumerBase.sol\":5836:5880  dataPackagesTimestamp = dataPackageTimestamp */\n      swap9\n      pop\n        /* \"@redstone-finance/evm-connector/contracts/core/RedstoneConsumerBase.sol\":5990:6000  freeMemPtr */\n      dup3\n        /* \"@redstone-finance/evm-connector/contracts/core/RedstoneConsumerBase.sol\":5973:5988  FREE_MEMORY_PTR */\n      0x40\n        /* \"@redstone-finance/evm-connector/contracts/core/RedstoneConsumerBase.sol\":5966:6001  mstore(FREE_MEMORY_PTR, freeMemPtr) */\n      mstore\n        /* \"@redstone-finance/evm-connector/contracts/core/RedstoneConsumerBase.sol\":6036:6054  dataPackageIndex++ */\n      dup2\n      dup1\n      0x01\n      add\n      swap3\n      pop\n      pop\n        /* \"@redstone-finance/evm-connector/contracts/core/RedstoneConsumerBase.sol\":5253:6069  {... */\n      pop\n        /* \"@redstone-finance/evm-connector/contracts/core/RedstoneConsumerBase.sol\":5179:6069  for (uint256 dataPackageIndex = 0; dataPackageIndex < dataPackagesCount;) {... */\n      jump(tag_285)\n    tag_286:\n      pop\n        /* \"@redstone-finance/evm-connector/contracts/core/RedstoneConsumerBase.sol\":6181:6254  _getAggregatedValues(valuesForDataFeeds, uniqueSignerCountForDataFeedIds) */\n      tag_293\n        /* \"@redstone-finance/evm-connector/contracts/core/RedstoneConsumerBase.sol\":6202:6220  valuesForDataFeeds */\n      dup5\n        /* \"@redstone-finance/evm-connector/contracts/core/RedstoneConsumerBase.sol\":6222:6253  uniqueSignerCountForDataFeedIds */\n      dup8\n        /* \"@redstone-finance/evm-connector/contracts/core/RedstoneConsumerBase.sol\":6181:6201  _getAggregatedValues */\n      tag_294\n        /* \"@redstone-finance/evm-connector/contracts/core/RedstoneConsumerBase.sol\":6181:6254  _getAggregatedValues(valuesForDataFeeds, uniqueSignerCountForDataFeedIds) */\n      jump\t// in\n    tag_293:\n        /* \"@redstone-finance/evm-connector/contracts/core/RedstoneConsumerBase.sol\":6173:6278  return (_getAggregatedValues(valuesForDataFeeds, uniqueSignerCountForDataFeedIds), dataPackagesTimestamp) */\n      swap8\n      pop\n      pop\n      pop\n      pop\n      pop\n      pop\n      pop\n        /* \"@redstone-finance/evm-connector/contracts/core/RedstoneConsumerBase.sol\":3842:6283  function _securelyExtractOracleValuesAndTimestampFromTxMsg(bytes32[] memory dataFeedIds)... */\n      swap2\n      pop\n      swap2\n      jump\t// out\n        /* \"@redstone-finance/evm-connector/contracts/libs/NumericArrayLib.sol\":840:1590  function sort(uint256[] memory arr) internal pure {... */\n    tag_248:\n        /* \"@redstone-finance/evm-connector/contracts/libs/NumericArrayLib.sol\":936:939  arr */\n      dup1\n        /* \"@redstone-finance/evm-connector/contracts/libs/NumericArrayLib.sol\":930:940  mload(arr) */\n      mload\n        /* \"@redstone-finance/evm-connector/contracts/libs/NumericArrayLib.sol\":973:993  BYTES_ARR_LEN_VAR_BS */\n      0x20\n        /* \"@redstone-finance/evm-connector/contracts/libs/NumericArrayLib.sol\":968:971  arr */\n      dup3\n        /* \"@redstone-finance/evm-connector/contracts/libs/NumericArrayLib.sol\":964:994  add(arr, BYTES_ARR_LEN_VAR_BS) */\n      add\n        /* \"@redstone-finance/evm-connector/contracts/libs/NumericArrayLib.sol\":1045:1061  UINT256_VALUE_BS */\n      0x20\n        /* \"@redstone-finance/evm-connector/contracts/libs/NumericArrayLib.sol\":1034:1043  arrLength */\n      dup3\n        /* \"@redstone-finance/evm-connector/contracts/libs/NumericArrayLib.sol\":1030:1062  mul(arrLength, UINT256_VALUE_BS) */\n      mul\n        /* \"@redstone-finance/evm-connector/contracts/libs/NumericArrayLib.sol\":1019:1028  valuesPtr */\n      dup2\n        /* \"@redstone-finance/evm-connector/contracts/libs/NumericArrayLib.sol\":1015:1063  add(valuesPtr, mul(arrLength, UINT256_VALUE_BS)) */\n      add\n        /* \"@redstone-finance/evm-connector/contracts/libs/NumericArrayLib.sol\":1099:1108  valuesPtr */\n      dup2\n        /* \"@redstone-finance/evm-connector/contracts/libs/NumericArrayLib.sol\":1070:1580  for {... */\n    tag_296:\n        /* \"@redstone-finance/evm-connector/contracts/libs/NumericArrayLib.sol\":1129:1135  endPtr */\n      dup2\n        /* \"@redstone-finance/evm-connector/contracts/libs/NumericArrayLib.sol\":1120:1127  arrIPtr */\n      dup2\n        /* \"@redstone-finance/evm-connector/contracts/libs/NumericArrayLib.sol\":1117:1136  lt(arrIPtr, endPtr) */\n      lt\n        /* \"@redstone-finance/evm-connector/contracts/libs/NumericArrayLib.sol\":1070:1580  for {... */\n      iszero\n      tag_298\n      jumpi\n        /* \"@redstone-finance/evm-connector/contracts/libs/NumericArrayLib.sol\":1255:1264  valuesPtr */\n      dup3\n        /* \"@redstone-finance/evm-connector/contracts/libs/NumericArrayLib.sol\":1224:1572  for {... */\n    tag_299:\n        /* \"@redstone-finance/evm-connector/contracts/libs/NumericArrayLib.sol\":1287:1294  arrIPtr */\n      dup2\n        /* \"@redstone-finance/evm-connector/contracts/libs/NumericArrayLib.sol\":1278:1285  arrJPtr */\n      dup2\n        /* \"@redstone-finance/evm-connector/contracts/libs/NumericArrayLib.sol\":1275:1295  lt(arrJPtr, arrIPtr) */\n      lt\n        /* \"@redstone-finance/evm-connector/contracts/libs/NumericArrayLib.sol\":1224:1572  for {... */\n      iszero\n      tag_301\n      jumpi\n        /* \"@redstone-finance/evm-connector/contracts/libs/NumericArrayLib.sol\":1407:1414  arrIPtr */\n      dup2\n        /* \"@redstone-finance/evm-connector/contracts/libs/NumericArrayLib.sol\":1401:1415  mload(arrIPtr) */\n      mload\n        /* \"@redstone-finance/evm-connector/contracts/libs/NumericArrayLib.sol\":1444:1451  arrJPtr */\n      dup2\n        /* \"@redstone-finance/evm-connector/contracts/libs/NumericArrayLib.sol\":1438:1452  mload(arrJPtr) */\n      mload\n        /* \"@redstone-finance/evm-connector/contracts/libs/NumericArrayLib.sol\":1475:1479  arrJ */\n      dup1\n        /* \"@redstone-finance/evm-connector/contracts/libs/NumericArrayLib.sol\":1469:1473  arrI */\n      dup3\n        /* \"@redstone-finance/evm-connector/contracts/libs/NumericArrayLib.sol\":1466:1480  lt(arrI, arrJ) */\n      lt\n        /* \"@redstone-finance/evm-connector/contracts/libs/NumericArrayLib.sol\":1463:1562  if lt(arrI, arrJ) {... */\n      iszero\n      tag_302\n      jumpi\n        /* \"@redstone-finance/evm-connector/contracts/libs/NumericArrayLib.sol\":1511:1515  arrJ */\n      dup1\n        /* \"@redstone-finance/evm-connector/contracts/libs/NumericArrayLib.sol\":1502:1509  arrIPtr */\n      dup5\n        /* \"@redstone-finance/evm-connector/contracts/libs/NumericArrayLib.sol\":1495:1516  mstore(arrIPtr, arrJ) */\n      mstore\n        /* \"@redstone-finance/evm-connector/contracts/libs/NumericArrayLib.sol\":1545:1549  arrI */\n      dup2\n        /* \"@redstone-finance/evm-connector/contracts/libs/NumericArrayLib.sol\":1536:1543  arrJPtr */\n      dup4\n        /* \"@redstone-finance/evm-connector/contracts/libs/NumericArrayLib.sol\":1529:1550  mstore(arrJPtr, arrI) */\n      mstore\n        /* \"@redstone-finance/evm-connector/contracts/libs/NumericArrayLib.sol\":1463:1562  if lt(arrI, arrJ) {... */\n    tag_302:\n        /* \"@redstone-finance/evm-connector/contracts/libs/NumericArrayLib.sol\":1377:1572  {... */\n      pop\n      pop\n        /* \"@redstone-finance/evm-connector/contracts/libs/NumericArrayLib.sol\":1332:1348  UINT256_VALUE_BS */\n      0x20\n        /* \"@redstone-finance/evm-connector/contracts/libs/NumericArrayLib.sol\":1323:1330  arrJPtr */\n      dup2\n        /* \"@redstone-finance/evm-connector/contracts/libs/NumericArrayLib.sol\":1319:1349  add(arrJPtr, UINT256_VALUE_BS) */\n      add\n        /* \"@redstone-finance/evm-connector/contracts/libs/NumericArrayLib.sol\":1308:1349  arrJPtr := add(arrJPtr, UINT256_VALUE_BS) */\n      swap1\n      pop\n        /* \"@redstone-finance/evm-connector/contracts/libs/NumericArrayLib.sol\":1224:1572  for {... */\n      jump(tag_299)\n    tag_301:\n        /* \"@redstone-finance/evm-connector/contracts/libs/NumericArrayLib.sol\":1228:1274  {... */\n      pop\n        /* \"@redstone-finance/evm-connector/contracts/libs/NumericArrayLib.sol\":1171:1187  UINT256_VALUE_BS */\n      0x20\n        /* \"@redstone-finance/evm-connector/contracts/libs/NumericArrayLib.sol\":1162:1169  arrIPtr */\n      dup2\n        /* \"@redstone-finance/evm-connector/contracts/libs/NumericArrayLib.sol\":1158:1188  add(arrIPtr, UINT256_VALUE_BS) */\n      add\n        /* \"@redstone-finance/evm-connector/contracts/libs/NumericArrayLib.sol\":1147:1188  arrIPtr := add(arrIPtr, UINT256_VALUE_BS) */\n      swap1\n      pop\n        /* \"@redstone-finance/evm-connector/contracts/libs/NumericArrayLib.sol\":1070:1580  for {... */\n      jump(tag_296)\n    tag_298:\n        /* \"@redstone-finance/evm-connector/contracts/libs/NumericArrayLib.sol\":1074:1116  {... */\n      pop\n        /* \"@redstone-finance/evm-connector/contracts/libs/NumericArrayLib.sol\":905:1586  {... */\n      pop\n      pop\n      pop\n        /* \"@redstone-finance/evm-connector/contracts/libs/NumericArrayLib.sol\":840:1590  function sort(uint256[] memory arr) internal pure {... */\n      pop\n      jump\t// out\n        /* \"@redstone-finance/evm-connector/contracts/core/RedstoneConsumerBase.sol\":7182:11788  function _extractDataPackage(... */\n    tag_289:\n        /* \"@redstone-finance/evm-connector/contracts/core/RedstoneConsumerBase.sol\":7454:7488  uint256 nextCalldataNegativeOffset */\n      0x00\n        /* \"@redstone-finance/evm-connector/contracts/core/RedstoneConsumerBase.sol\":7490:7518  uint256 dataPackageTimestamp */\n      dup1\n        /* \"@redstone-finance/evm-connector/contracts/core/RedstoneConsumerBase.sol\":7526:7545  uint256 signerIndex */\n      0x00\n        /* \"@redstone-finance/evm-connector/contracts/core/RedstoneConsumerBase.sol\":7560:7583  uint256 dataPointsCount */\n      dup1\n        /* \"@redstone-finance/evm-connector/contracts/core/RedstoneConsumerBase.sol\":7591:7625  uint256 eachDataPointValueByteSize */\n      0x00\n        /* \"@redstone-finance/evm-connector/contracts/core/RedstoneConsumerBase.sol\":7634:7697  _extractDataPointsDetailsForDataPackage(calldataNegativeOffset) */\n      tag_304\n        /* \"@redstone-finance/evm-connector/contracts/core/RedstoneConsumerBase.sol\":7674:7696  calldataNegativeOffset */\n      dup7\n        /* \"@redstone-finance/evm-connector/contracts/core/RedstoneConsumerBase.sol\":7634:7673  _extractDataPointsDetailsForDataPackage */\n      tag_222\n        /* \"@redstone-finance/evm-connector/contracts/core/RedstoneConsumerBase.sol\":7634:7697  _extractDataPointsDetailsForDataPackage(calldataNegativeOffset) */\n      jump\t// in\n    tag_304:\n        /* \"@redstone-finance/evm-connector/contracts/core/RedstoneConsumerBase.sol\":7552:7697  (... */\n      swap2\n      pop\n      swap2\n      pop\n        /* \"@redstone-finance/evm-connector/contracts/core/RedstoneConsumerBase.sol\":7772:7793  address signerAddress */\n      0x00\n        /* \"@redstone-finance/evm-connector/contracts/core/RedstoneConsumerBase.sol\":7801:7819  bytes32 signedHash */\n      dup1\n        /* \"@redstone-finance/evm-connector/contracts/core/RedstoneConsumerBase.sol\":7827:7853  bytes memory signedMessage */\n      0x60\n        /* \"@redstone-finance/evm-connector/contracts/core/RedstoneConsumerBase.sol\":7861:7892  uint256 signedMessageBytesCount */\n      0x00\n        /* \"@redstone-finance/evm-connector/contracts/core/RedstoneConsumerBase.sol\":7900:7925  uint48 extractedTimestamp */\n      dup1\n        /* \"@redstone-finance/evm-connector/contracts/core/RedstoneConstants.sol\":2084:2086  13 */\n      0x0d\n        /* \"@redstone-finance/evm-connector/contracts/core/RedstoneConstants.sol\":1300:1302  32 */\n      0x20\n        /* \"@redstone-finance/evm-connector/contracts/core/RedstoneConsumerBase.sol\":7979:8005  eachDataPointValueByteSize */\n      dup8\n        /* \"@redstone-finance/evm-connector/contracts/core/RedstoneConsumerBase.sol\":7979:8028  eachDataPointValueByteSize + DATA_POINT_SYMBOL_BS */\n      tag_305\n      swap2\n      swap1\n      tag_122\n      jump\t// in\n    tag_305:\n        /* \"@redstone-finance/evm-connector/contracts/core/RedstoneConsumerBase.sol\":7960:7975  dataPointsCount */\n      dup9\n        /* \"@redstone-finance/evm-connector/contracts/core/RedstoneConsumerBase.sol\":7960:8029  dataPointsCount * (eachDataPointValueByteSize + DATA_POINT_SYMBOL_BS) */\n      tag_306\n      swap2\n      swap1\n      tag_190\n      jump\t// in\n    tag_306:\n        /* \"@redstone-finance/evm-connector/contracts/core/RedstoneConsumerBase.sol\":7960:8083  dataPointsCount * (eachDataPointValueByteSize + DATA_POINT_SYMBOL_BS)... */\n      tag_307\n      swap2\n      swap1\n      tag_122\n      jump\t// in\n    tag_307:\n        /* \"@redstone-finance/evm-connector/contracts/core/RedstoneConsumerBase.sol\":7934:8083  signedMessageBytesCount = dataPointsCount * (eachDataPointValueByteSize + DATA_POINT_SYMBOL_BS)... */\n      swap2\n      pop\n        /* \"@redstone-finance/evm-connector/contracts/core/RedstoneConsumerBase.sol\":8162:8193  uint256 timestampCalldataOffset */\n      0x00\n        /* \"@redstone-finance/evm-connector/contracts/core/RedstoneConstants.sol\":1771:1774  104 */\n      0x68\n        /* \"@redstone-finance/evm-connector/contracts/core/RedstoneConsumerBase.sol\":8224:8246  calldataNegativeOffset */\n      dup13\n        /* \"@redstone-finance/evm-connector/contracts/core/RedstoneConsumerBase.sol\":8224:8312  calldataNegativeOffset + TIMESTAMP_NEGATIVE_OFFSET_IN_DATA_PACKAGE_WITH_STANDARD_SLOT_BS */\n      tag_308\n      swap2\n      swap1\n      tag_122\n      jump\t// in\n    tag_308:\n        /* \"@redstone-finance/evm-connector/contracts/core/RedstoneConsumerBase.sol\":8196:8204  msg.data */\n      0x00\n      calldatasize\n        /* \"@redstone-finance/evm-connector/contracts/core/RedstoneConsumerBase.sol\":8196:8211  msg.data.length */\n      swap1\n      pop\n        /* \"@redstone-finance/evm-connector/contracts/core/RedstoneConsumerBase.sol\":8196:8313  msg.data.length - ... */\n      tag_309\n      swap2\n      swap1\n      tag_171\n      jump\t// in\n    tag_309:\n        /* \"@redstone-finance/evm-connector/contracts/core/RedstoneConsumerBase.sol\":8162:8313  uint256 timestampCalldataOffset = msg.data.length - ... */\n      swap1\n      pop\n        /* \"@redstone-finance/evm-connector/contracts/core/RedstoneConsumerBase.sol\":8322:8357  uint256 signedMessageCalldataOffset */\n      0x00\n        /* \"@redstone-finance/evm-connector/contracts/core/RedstoneConsumerBase.sol\":8422:8445  signedMessageBytesCount */\n      dup4\n        /* \"@redstone-finance/evm-connector/contracts/core/RedstoneConstants.sol\":1026:1028  65 */\n      0x41\n        /* \"@redstone-finance/evm-connector/contracts/core/RedstoneConsumerBase.sol\":8388:8410  calldataNegativeOffset */\n      dup15\n        /* \"@redstone-finance/evm-connector/contracts/core/RedstoneConsumerBase.sol\":8388:8419  calldataNegativeOffset + SIG_BS */\n      tag_310\n      swap2\n      swap1\n      tag_122\n      jump\t// in\n    tag_310:\n        /* \"@redstone-finance/evm-connector/contracts/core/RedstoneConsumerBase.sol\":8388:8445  calldataNegativeOffset + SIG_BS + signedMessageBytesCount */\n      tag_311\n      swap2\n      swap1\n      tag_122\n      jump\t// in\n    tag_311:\n        /* \"@redstone-finance/evm-connector/contracts/core/RedstoneConsumerBase.sol\":8360:8368  msg.data */\n      0x00\n      calldatasize\n        /* \"@redstone-finance/evm-connector/contracts/core/RedstoneConsumerBase.sol\":8360:8375  msg.data.length */\n      swap1\n      pop\n        /* \"@redstone-finance/evm-connector/contracts/core/RedstoneConsumerBase.sol\":8360:8446  msg.data.length - ... */\n      tag_312\n      swap2\n      swap1\n      tag_171\n      jump\t// in\n    tag_312:\n        /* \"@redstone-finance/evm-connector/contracts/core/RedstoneConsumerBase.sol\":8322:8446  uint256 signedMessageCalldataOffset = msg.data.length - ... */\n      swap1\n      pop\n        /* \"@redstone-finance/evm-connector/contracts/core/RedstoneConsumerBase.sol\":8532:8640  extractBytesFromCalldata(... */\n      tag_315\n        /* \"@redstone-finance/evm-connector/contracts/core/RedstoneConsumerBase.sol\":8607:8630  signedMessageBytesCount */\n      dup5\n        /* \"@redstone-finance/evm-connector/contracts/core/RedstoneConsumerBase.sol\":8568:8595  signedMessageCalldataOffset */\n      dup3\n        /* \"@redstone-finance/evm-connector/contracts/core/RedstoneConsumerBase.sol\":8532:8640  extractBytesFromCalldata(... */\n      tag_314\n      jump\t// in\n    tag_315:\n        /* \"@redstone-finance/evm-connector/contracts/core/RedstoneConsumerBase.sol\":8515:8640  signedMessage := extractBytesFromCalldata(... */\n      swap5\n      pop\n        /* \"@redstone-finance/evm-connector/contracts/core/RedstoneConsumerBase.sol\":8754:8777  signedMessageBytesCount */\n      dup4\n        /* \"@redstone-finance/evm-connector/contracts/core/RedstoneConsumerBase.sol\":8731:8751  BYTES_ARR_LEN_VAR_BS */\n      0x20\n        /* \"@redstone-finance/evm-connector/contracts/core/RedstoneConsumerBase.sol\":8716:8729  signedMessage */\n      dup7\n        /* \"@redstone-finance/evm-connector/contracts/core/RedstoneConsumerBase.sol\":8712:8752  add(signedMessage, BYTES_ARR_LEN_VAR_BS) */\n      add\n        /* \"@redstone-finance/evm-connector/contracts/core/RedstoneConsumerBase.sol\":8702:8778  keccak256(add(signedMessage, BYTES_ARR_LEN_VAR_BS), signedMessageBytesCount) */\n      keccak256\n        /* \"@redstone-finance/evm-connector/contracts/core/RedstoneConsumerBase.sol\":8688:8778  signedHash := keccak256(add(signedMessage, BYTES_ARR_LEN_VAR_BS), signedMessageBytesCount) */\n      swap6\n      pop\n        /* \"@redstone-finance/evm-connector/contracts/core/RedstoneConsumerBase.sol\":8855:8878  timestampCalldataOffset */\n      dup2\n        /* \"@redstone-finance/evm-connector/contracts/core/RedstoneConsumerBase.sol\":8842:8879  calldataload(timestampCalldataOffset) */\n      calldataload\n        /* \"@redstone-finance/evm-connector/contracts/core/RedstoneConsumerBase.sol\":8820:8879  extractedTimestamp := calldataload(timestampCalldataOffset) */\n      swap3\n      pop\n        /* \"@redstone-finance/evm-connector/contracts/core/RedstoneConsumerBase.sol\":8889:9120  function initByteArray(bytesCount) -> ptr {... */\n      jump(tag_316)\n    tag_313:\n        /* \"@redstone-finance/evm-connector/contracts/core/RedstoneConsumerBase.sol\":8927:8930  ptr */\n      0x00\n        /* \"@redstone-finance/evm-connector/contracts/core/RedstoneConsumerBase.sol\":8956:8971  FREE_MEMORY_PTR */\n      0x40\n        /* \"@redstone-finance/evm-connector/contracts/core/RedstoneConsumerBase.sol\":8950:8972  mload(FREE_MEMORY_PTR) */\n      mload\n        /* \"@redstone-finance/evm-connector/contracts/core/RedstoneConsumerBase.sol\":8943:8972  ptr := mload(FREE_MEMORY_PTR) */\n      swap1\n      pop\n        /* \"@redstone-finance/evm-connector/contracts/core/RedstoneConsumerBase.sol\":8995:9005  bytesCount */\n      dup2\n        /* \"@redstone-finance/evm-connector/contracts/core/RedstoneConsumerBase.sol\":8990:8993  ptr */\n      dup2\n        /* \"@redstone-finance/evm-connector/contracts/core/RedstoneConsumerBase.sol\":8983:9006  mstore(ptr, bytesCount) */\n      mstore\n        /* \"@redstone-finance/evm-connector/contracts/core/RedstoneConsumerBase.sol\":9033:9053  BYTES_ARR_LEN_VAR_BS */\n      0x20\n        /* \"@redstone-finance/evm-connector/contracts/core/RedstoneConsumerBase.sol\":9028:9031  ptr */\n      dup2\n        /* \"@redstone-finance/evm-connector/contracts/core/RedstoneConsumerBase.sol\":9024:9054  add(ptr, BYTES_ARR_LEN_VAR_BS) */\n      add\n        /* \"@redstone-finance/evm-connector/contracts/core/RedstoneConsumerBase.sol\":9017:9054  ptr := add(ptr, BYTES_ARR_LEN_VAR_BS) */\n      swap1\n      pop\n        /* \"@redstone-finance/evm-connector/contracts/core/RedstoneConsumerBase.sol\":9098:9108  bytesCount */\n      dup2\n        /* \"@redstone-finance/evm-connector/contracts/core/RedstoneConsumerBase.sol\":9093:9096  ptr */\n      dup2\n        /* \"@redstone-finance/evm-connector/contracts/core/RedstoneConsumerBase.sol\":9089:9109  add(ptr, bytesCount) */\n      add\n        /* \"@redstone-finance/evm-connector/contracts/core/RedstoneConsumerBase.sol\":9072:9087  FREE_MEMORY_PTR */\n      0x40\n        /* \"@redstone-finance/evm-connector/contracts/core/RedstoneConsumerBase.sol\":9065:9110  mstore(FREE_MEMORY_PTR, add(ptr, bytesCount)) */\n      mstore\n        /* \"@redstone-finance/evm-connector/contracts/core/RedstoneConsumerBase.sol\":8889:9120  function initByteArray(bytesCount) -> ptr {... */\n      swap2\n      swap1\n      pop\n      jump\t// out\n        /* \"@redstone-finance/evm-connector/contracts/core/RedstoneConsumerBase.sol\":9130:9472  function extractBytesFromCalldata(offset, bytesCount) -> extractedBytes {... */\n    tag_314:\n        /* \"@redstone-finance/evm-connector/contracts/core/RedstoneConsumerBase.sol\":9187:9201  extractedBytes */\n      0x00\n        /* \"@redstone-finance/evm-connector/contracts/core/RedstoneConsumerBase.sol\":9244:9269  initByteArray(bytesCount) */\n      tag_319\n        /* \"@redstone-finance/evm-connector/contracts/core/RedstoneConsumerBase.sol\":9258:9268  bytesCount */\n      dup4\n        /* \"@redstone-finance/evm-connector/contracts/core/RedstoneConsumerBase.sol\":9244:9269  initByteArray(bytesCount) */\n      tag_313\n      jump\t// in\n    tag_319:\n        /* \"@redstone-finance/evm-connector/contracts/core/RedstoneConsumerBase.sol\":9362:9372  bytesCount */\n      dup4\n        /* \"@redstone-finance/evm-connector/contracts/core/RedstoneConsumerBase.sol\":9342:9348  offset */\n      dup4\n        /* \"@redstone-finance/evm-connector/contracts/core/RedstoneConsumerBase.sol\":9306:9328  extractedBytesStartPtr */\n      dup3\n        /* \"@redstone-finance/evm-connector/contracts/core/RedstoneConsumerBase.sol\":9280:9384  calldatacopy(... */\n      calldatacopy\n        /* \"@redstone-finance/evm-connector/contracts/core/RedstoneConsumerBase.sol\":9441:9461  BYTES_ARR_LEN_VAR_BS */\n      0x20\n        /* \"@redstone-finance/evm-connector/contracts/core/RedstoneConsumerBase.sol\":9417:9439  extractedBytesStartPtr */\n      dup2\n        /* \"@redstone-finance/evm-connector/contracts/core/RedstoneConsumerBase.sol\":9413:9462  sub(extractedBytesStartPtr, BYTES_ARR_LEN_VAR_BS) */\n      sub\n        /* \"@redstone-finance/evm-connector/contracts/core/RedstoneConsumerBase.sol\":9395:9462  extractedBytes := sub(extractedBytesStartPtr, BYTES_ARR_LEN_VAR_BS) */\n      swap2\n      pop\n        /* \"@redstone-finance/evm-connector/contracts/core/RedstoneConsumerBase.sol\":9202:9472  {... */\n      pop\n        /* \"@redstone-finance/evm-connector/contracts/core/RedstoneConsumerBase.sol\":9130:9472  function extractBytesFromCalldata(offset, bytesCount) -> extractedBytes {... */\n      swap3\n      swap2\n      pop\n      pop\n      jump\t// out\n    tag_316:\n        /* \"@redstone-finance/evm-connector/contracts/core/RedstoneConsumerBase.sol\":9511:9529  extractedTimestamp */\n      dup3\n        /* \"@redstone-finance/evm-connector/contracts/core/RedstoneConsumerBase.sol\":9488:9529  dataPackageTimestamp = extractedTimestamp */\n      0xffffffffffff\n      and\n      swap11\n      pop\n        /* \"@redstone-finance/evm-connector/contracts/core/RedstoneConsumerBase.sol\":9626:9728  SignatureLib.recoverSignerAddress(... */\n      tag_320\n        /* \"@redstone-finance/evm-connector/contracts/core/RedstoneConsumerBase.sol\":9669:9679  signedHash */\n      dup7\n        /* \"@redstone-finance/evm-connector/contracts/core/RedstoneConstants.sol\":1026:1028  65 */\n      0x41\n        /* \"@redstone-finance/evm-connector/contracts/core/RedstoneConsumerBase.sol\":9689:9711  calldataNegativeOffset */\n      dup16\n        /* \"@redstone-finance/evm-connector/contracts/core/RedstoneConsumerBase.sol\":9689:9720  calldataNegativeOffset + SIG_BS */\n      tag_321\n      swap2\n      swap1\n      tag_122\n      jump\t// in\n    tag_321:\n        /* \"@redstone-finance/evm-connector/contracts/core/RedstoneConsumerBase.sol\":9626:9659  SignatureLib.recoverSignerAddress */\n      tag_322\n        /* \"@redstone-finance/evm-connector/contracts/core/RedstoneConsumerBase.sol\":9626:9728  SignatureLib.recoverSignerAddress(... */\n      jump\t// in\n    tag_320:\n        /* \"@redstone-finance/evm-connector/contracts/core/RedstoneConsumerBase.sol\":9610:9728  signerAddress = SignatureLib.recoverSignerAddress(... */\n      swap7\n      pop\n        /* \"@redstone-finance/evm-connector/contracts/core/RedstoneConsumerBase.sol\":9750:9789  getAuthorisedSignerIndex(signerAddress) */\n      tag_323\n        /* \"@redstone-finance/evm-connector/contracts/core/RedstoneConsumerBase.sol\":9775:9788  signerAddress */\n      dup8\n        /* \"@redstone-finance/evm-connector/contracts/core/RedstoneConsumerBase.sol\":9750:9774  getAuthorisedSignerIndex */\n      tag_47\n        /* \"@redstone-finance/evm-connector/contracts/core/RedstoneConsumerBase.sol\":9750:9789  getAuthorisedSignerIndex(signerAddress) */\n      jump\t// in\n    tag_323:\n        /* \"@redstone-finance/evm-connector/contracts/core/RedstoneConsumerBase.sol\":9736:9789  signerIndex = getAuthorisedSignerIndex(signerAddress) */\n      0xff\n      and\n      swap10\n      pop\n        /* \"@redstone-finance/evm-connector/contracts/core/RedstoneConsumerBase.sol\":7764:9796  {... */\n      pop\n      pop\n      pop\n      pop\n      pop\n      pop\n      pop\n        /* \"@redstone-finance/evm-connector/contracts/core/RedstoneConstants.sol\":1926:1928  78 */\n      0x4e\n        /* \"@redstone-finance/evm-connector/contracts/core/RedstoneConsumerBase.sol\":9866:9888  calldataNegativeOffset */\n      dup7\n        /* \"@redstone-finance/evm-connector/contracts/core/RedstoneConsumerBase.sol\":9866:9926  calldataNegativeOffset + DATA_PACKAGE_WITHOUT_DATA_POINTS_BS */\n      tag_324\n      swap2\n      swap1\n      tag_122\n      jump\t// in\n    tag_324:\n        /* \"@redstone-finance/evm-connector/contracts/core/RedstoneConsumerBase.sol\":9841:9926  calldataNegativeOffset = calldataNegativeOffset + DATA_PACKAGE_WITHOUT_DATA_POINTS_BS */\n      swap6\n      pop\n        /* \"@redstone-finance/evm-connector/contracts/core/RedstoneConsumerBase.sol\":9934:9961  bytes32 dataPointDataFeedId */\n      0x00\n        /* \"@redstone-finance/evm-connector/contracts/core/RedstoneConsumerBase.sol\":9969:9991  uint256 dataPointValue */\n      dup1\n        /* \"@redstone-finance/evm-connector/contracts/core/RedstoneConsumerBase.sol\":10004:10026  uint256 dataPointIndex */\n      0x00\n        /* \"@redstone-finance/evm-connector/contracts/core/RedstoneConsumerBase.sol\":9999:11718  for (uint256 dataPointIndex = 0; dataPointIndex < dataPointsCount;) {... */\n    tag_325:\n        /* \"@redstone-finance/evm-connector/contracts/core/RedstoneConsumerBase.sol\":10049:10064  dataPointsCount */\n      dup5\n        /* \"@redstone-finance/evm-connector/contracts/core/RedstoneConsumerBase.sol\":10032:10046  dataPointIndex */\n      dup2\n        /* \"@redstone-finance/evm-connector/contracts/core/RedstoneConsumerBase.sol\":10032:10064  dataPointIndex < dataPointsCount */\n      lt\n        /* \"@redstone-finance/evm-connector/contracts/core/RedstoneConsumerBase.sol\":9999:11718  for (uint256 dataPointIndex = 0; dataPointIndex < dataPointsCount;) {... */\n      iszero\n      tag_326\n      jumpi\n        /* \"@redstone-finance/evm-connector/contracts/core/RedstoneConstants.sol\":1300:1302  32 */\n      0x20\n        /* \"@redstone-finance/evm-connector/contracts/core/RedstoneConsumerBase.sol\":10127:10153  eachDataPointValueByteSize */\n      dup5\n        /* \"@redstone-finance/evm-connector/contracts/core/RedstoneConsumerBase.sol\":10102:10124  calldataNegativeOffset */\n      dup11\n        /* \"@redstone-finance/evm-connector/contracts/core/RedstoneConsumerBase.sol\":10102:10153  calldataNegativeOffset + eachDataPointValueByteSize */\n      tag_328\n      swap2\n      swap1\n      tag_122\n      jump\t// in\n    tag_328:\n        /* \"@redstone-finance/evm-connector/contracts/core/RedstoneConsumerBase.sol\":10102:10176  calldataNegativeOffset + eachDataPointValueByteSize + DATA_POINT_SYMBOL_BS */\n      tag_329\n      swap2\n      swap1\n      tag_122\n      jump\t// in\n    tag_329:\n        /* \"@redstone-finance/evm-connector/contracts/core/RedstoneConsumerBase.sol\":10077:10176  calldataNegativeOffset = calldataNegativeOffset + eachDataPointValueByteSize + DATA_POINT_SYMBOL_BS */\n      swap9\n      pop\n        /* \"@redstone-finance/evm-connector/contracts/core/RedstoneConsumerBase.sol\":10298:10415  _extractDataPointValueAndDataFeedId(... */\n      tag_330\n        /* \"@redstone-finance/evm-connector/contracts/core/RedstoneConsumerBase.sol\":10345:10367  calldataNegativeOffset */\n      dup10\n        /* \"@redstone-finance/evm-connector/contracts/core/RedstoneConsumerBase.sol\":10379:10405  eachDataPointValueByteSize */\n      dup6\n        /* \"@redstone-finance/evm-connector/contracts/core/RedstoneConsumerBase.sol\":10298:10333  _extractDataPointValueAndDataFeedId */\n      tag_331\n        /* \"@redstone-finance/evm-connector/contracts/core/RedstoneConsumerBase.sol\":10298:10415  _extractDataPointValueAndDataFeedId(... */\n      jump\t// in\n    tag_330:\n        /* \"@redstone-finance/evm-connector/contracts/core/RedstoneConsumerBase.sol\":10258:10415  (dataPointDataFeedId, dataPointValue) = _extractDataPointValueAndDataFeedId(... */\n      dup1\n      swap4\n      pop\n      dup2\n      swap5\n      pop\n      pop\n      pop\n        /* \"@redstone-finance/evm-connector/contracts/core/RedstoneConsumerBase.sol\":10442:10465  uint256 dataFeedIdIndex */\n      0x00\n        /* \"@redstone-finance/evm-connector/contracts/core/RedstoneConsumerBase.sol\":10426:11651  for (... */\n    tag_332:\n        /* \"@redstone-finance/evm-connector/contracts/core/RedstoneConsumerBase.sol\":10499:10510  dataFeedIds */\n      dup14\n        /* \"@redstone-finance/evm-connector/contracts/core/RedstoneConsumerBase.sol\":10499:10517  dataFeedIds.length */\n      mload\n        /* \"@redstone-finance/evm-connector/contracts/core/RedstoneConsumerBase.sol\":10481:10496  dataFeedIdIndex */\n      dup2\n        /* \"@redstone-finance/evm-connector/contracts/core/RedstoneConsumerBase.sol\":10481:10517  dataFeedIdIndex < dataFeedIds.length */\n      lt\n        /* \"@redstone-finance/evm-connector/contracts/core/RedstoneConsumerBase.sol\":10426:11651  for (... */\n      iszero\n      tag_333\n      jumpi\n        /* \"@redstone-finance/evm-connector/contracts/core/RedstoneConsumerBase.sol\":10568:10579  dataFeedIds */\n      dup14\n        /* \"@redstone-finance/evm-connector/contracts/core/RedstoneConsumerBase.sol\":10580:10595  dataFeedIdIndex */\n      dup2\n        /* \"@redstone-finance/evm-connector/contracts/core/RedstoneConsumerBase.sol\":10568:10596  dataFeedIds[dataFeedIdIndex] */\n      dup2\n      mload\n      dup2\n      lt\n      tag_335\n      jumpi\n      tag_336\n      tag_204\n      jump\t// in\n    tag_336:\n    tag_335:\n      0x20\n      mul\n      0x20\n      add\n      add\n      mload\n        /* \"@redstone-finance/evm-connector/contracts/core/RedstoneConsumerBase.sol\":10545:10564  dataPointDataFeedId */\n      dup5\n        /* \"@redstone-finance/evm-connector/contracts/core/RedstoneConsumerBase.sol\":10545:10596  dataPointDataFeedId == dataFeedIds[dataFeedIdIndex] */\n      sub\n        /* \"@redstone-finance/evm-connector/contracts/core/RedstoneConsumerBase.sol\":10541:11576  if (dataPointDataFeedId == dataFeedIds[dataFeedIdIndex]) {... */\n      tag_337\n      jumpi\n        /* \"@redstone-finance/evm-connector/contracts/core/RedstoneConsumerBase.sol\":10612:10646  uint256 bitmapSignersForDataFeedId */\n      0x00\n        /* \"@redstone-finance/evm-connector/contracts/core/RedstoneConsumerBase.sol\":10649:10676  signersBitmapForDataFeedIds */\n      dup13\n        /* \"@redstone-finance/evm-connector/contracts/core/RedstoneConsumerBase.sol\":10677:10692  dataFeedIdIndex */\n      dup3\n        /* \"@redstone-finance/evm-connector/contracts/core/RedstoneConsumerBase.sol\":10649:10693  signersBitmapForDataFeedIds[dataFeedIdIndex] */\n      dup2\n      mload\n      dup2\n      lt\n      tag_338\n      jumpi\n      tag_339\n      tag_204\n      jump\t// in\n    tag_339:\n    tag_338:\n      0x20\n      mul\n      0x20\n      add\n      add\n      mload\n        /* \"@redstone-finance/evm-connector/contracts/core/RedstoneConsumerBase.sol\":10612:10693  uint256 bitmapSignersForDataFeedId = signersBitmapForDataFeedIds[dataFeedIdIndex] */\n      swap1\n      pop\n        /* \"@redstone-finance/evm-connector/contracts/core/RedstoneConsumerBase.sol\":10728:10795  BitmapLib.getBitFromBitmap(bitmapSignersForDataFeedId, signerIndex) */\n      tag_340\n        /* \"@redstone-finance/evm-connector/contracts/core/RedstoneConsumerBase.sol\":10755:10781  bitmapSignersForDataFeedId */\n      dup2\n        /* \"@redstone-finance/evm-connector/contracts/core/RedstoneConsumerBase.sol\":10783:10794  signerIndex */\n      dup10\n        /* \"@redstone-finance/evm-connector/contracts/core/RedstoneConsumerBase.sol\":10728:10754  BitmapLib.getBitFromBitmap */\n      tag_341\n        /* \"@redstone-finance/evm-connector/contracts/core/RedstoneConsumerBase.sol\":10728:10795  BitmapLib.getBitFromBitmap(bitmapSignersForDataFeedId, signerIndex) */\n      jump\t// in\n    tag_340:\n        /* \"@redstone-finance/evm-connector/contracts/core/RedstoneConsumerBase.sol\":10727:10795  !BitmapLib.getBitFromBitmap(bitmapSignersForDataFeedId, signerIndex) */\n      iszero\n        /* \"@redstone-finance/evm-connector/contracts/core/RedstoneConsumerBase.sol\":10727:10951  !BitmapLib.getBitFromBitmap(bitmapSignersForDataFeedId, signerIndex) && /* current signer was not counted for current dataFeedId */... */\n      dup1\n      iszero\n      tag_342\n      jumpi\n      pop\n        /* \"@redstone-finance/evm-connector/contracts/core/RedstoneConsumerBase.sol\":10924:10951  getUniqueSignersThreshold() */\n      tag_343\n        /* \"@redstone-finance/evm-connector/contracts/core/RedstoneConsumerBase.sol\":10924:10949  getUniqueSignersThreshold */\n      tag_111\n        /* \"@redstone-finance/evm-connector/contracts/core/RedstoneConsumerBase.sol\":10924:10951  getUniqueSignersThreshold() */\n      jump\t// in\n    tag_343:\n        /* \"@redstone-finance/evm-connector/contracts/core/RedstoneConsumerBase.sol\":10873:10951  uniqueSignerCountForDataFeedIds[dataFeedIdIndex] < getUniqueSignersThreshold() */\n      0xff\n      and\n        /* \"@redstone-finance/evm-connector/contracts/core/RedstoneConsumerBase.sol\":10873:10904  uniqueSignerCountForDataFeedIds */\n      dup15\n        /* \"@redstone-finance/evm-connector/contracts/core/RedstoneConsumerBase.sol\":10905:10920  dataFeedIdIndex */\n      dup4\n        /* \"@redstone-finance/evm-connector/contracts/core/RedstoneConsumerBase.sol\":10873:10921  uniqueSignerCountForDataFeedIds[dataFeedIdIndex] */\n      dup2\n      mload\n      dup2\n      lt\n      tag_344\n      jumpi\n      tag_345\n      tag_204\n      jump\t// in\n    tag_345:\n    tag_344:\n      0x20\n      mul\n      0x20\n      add\n      add\n      mload\n        /* \"@redstone-finance/evm-connector/contracts/core/RedstoneConsumerBase.sol\":10873:10951  uniqueSignerCountForDataFeedIds[dataFeedIdIndex] < getUniqueSignersThreshold() */\n      lt\n        /* \"@redstone-finance/evm-connector/contracts/core/RedstoneConsumerBase.sol\":10727:10951  !BitmapLib.getBitFromBitmap(bitmapSignersForDataFeedId, signerIndex) && /* current signer was not counted for current dataFeedId */... */\n    tag_342:\n        /* \"@redstone-finance/evm-connector/contracts/core/RedstoneConsumerBase.sol\":10708:11461  if (... */\n      iszero\n      tag_346\n      jumpi\n        /* \"@redstone-finance/evm-connector/contracts/core/RedstoneConsumerBase.sol\":11101:11115  dataPointValue */\n      dup4\n        /* \"@redstone-finance/evm-connector/contracts/core/RedstoneConsumerBase.sol\":11013:11031  valuesForDataFeeds */\n      dup13\n        /* \"@redstone-finance/evm-connector/contracts/core/RedstoneConsumerBase.sol\":11032:11047  dataFeedIdIndex */\n      dup4\n        /* \"@redstone-finance/evm-connector/contracts/core/RedstoneConsumerBase.sol\":11013:11048  valuesForDataFeeds[dataFeedIdIndex] */\n      dup2\n      mload\n      dup2\n      lt\n      tag_347\n      jumpi\n      tag_348\n      tag_204\n      jump\t// in\n    tag_348:\n    tag_347:\n      0x20\n      mul\n      0x20\n      add\n      add\n      mload\n        /* \"@redstone-finance/evm-connector/contracts/core/RedstoneConsumerBase.sol\":11049:11080  uniqueSignerCountForDataFeedIds */\n      dup16\n        /* \"@redstone-finance/evm-connector/contracts/core/RedstoneConsumerBase.sol\":11081:11096  dataFeedIdIndex */\n      dup5\n        /* \"@redstone-finance/evm-connector/contracts/core/RedstoneConsumerBase.sol\":11049:11097  uniqueSignerCountForDataFeedIds[dataFeedIdIndex] */\n      dup2\n      mload\n      dup2\n      lt\n      tag_349\n      jumpi\n      tag_350\n      tag_204\n      jump\t// in\n    tag_350:\n    tag_349:\n      0x20\n      mul\n      0x20\n      add\n      add\n      mload\n        /* \"@redstone-finance/evm-connector/contracts/core/RedstoneConsumerBase.sol\":11013:11098  valuesForDataFeeds[dataFeedIdIndex][uniqueSignerCountForDataFeedIds[dataFeedIdIndex]] */\n      dup2\n      mload\n      dup2\n      lt\n      tag_351\n      jumpi\n      tag_352\n      tag_204\n      jump\t// in\n    tag_352:\n    tag_351:\n      0x20\n      mul\n      0x20\n      add\n      add\n        /* \"@redstone-finance/evm-connector/contracts/core/RedstoneConsumerBase.sol\":11013:11115  valuesForDataFeeds[dataFeedIdIndex][uniqueSignerCountForDataFeedIds[dataFeedIdIndex]] = dataPointValue */\n      dup2\n      dup2\n      mstore\n      pop\n      pop\n        /* \"@redstone-finance/evm-connector/contracts/core/RedstoneConsumerBase.sol\":11180:11211  uniqueSignerCountForDataFeedIds */\n      dup14\n        /* \"@redstone-finance/evm-connector/contracts/core/RedstoneConsumerBase.sol\":11212:11227  dataFeedIdIndex */\n      dup3\n        /* \"@redstone-finance/evm-connector/contracts/core/RedstoneConsumerBase.sol\":11180:11228  uniqueSignerCountForDataFeedIds[dataFeedIdIndex] */\n      dup2\n      mload\n      dup2\n      lt\n      tag_353\n      jumpi\n      tag_354\n      tag_204\n      jump\t// in\n    tag_354:\n    tag_353:\n      0x20\n      mul\n      0x20\n      add\n      add\n        /* \"@redstone-finance/evm-connector/contracts/core/RedstoneConsumerBase.sol\":11180:11230  uniqueSignerCountForDataFeedIds[dataFeedIdIndex]++ */\n      dup1\n      mload\n      dup1\n      swap2\n      swap1\n      tag_355\n      swap1\n      tag_356\n      jump\t// in\n    tag_355:\n      dup2\n      mstore\n      pop\n      pop\n        /* \"@redstone-finance/evm-connector/contracts/core/RedstoneConsumerBase.sol\":11333:11446  BitmapLib.setBitInBitmap(... */\n      tag_357\n        /* \"@redstone-finance/evm-connector/contracts/core/RedstoneConsumerBase.sol\":11375:11401  bitmapSignersForDataFeedId */\n      dup2\n        /* \"@redstone-finance/evm-connector/contracts/core/RedstoneConsumerBase.sol\":11419:11430  signerIndex */\n      dup10\n        /* \"@redstone-finance/evm-connector/contracts/core/RedstoneConsumerBase.sol\":11333:11357  BitmapLib.setBitInBitmap */\n      tag_358\n        /* \"@redstone-finance/evm-connector/contracts/core/RedstoneConsumerBase.sol\":11333:11446  BitmapLib.setBitInBitmap(... */\n      jump\t// in\n    tag_357:\n        /* \"@redstone-finance/evm-connector/contracts/core/RedstoneConsumerBase.sol\":11286:11313  signersBitmapForDataFeedIds */\n      dup14\n        /* \"@redstone-finance/evm-connector/contracts/core/RedstoneConsumerBase.sol\":11314:11329  dataFeedIdIndex */\n      dup4\n        /* \"@redstone-finance/evm-connector/contracts/core/RedstoneConsumerBase.sol\":11286:11330  signersBitmapForDataFeedIds[dataFeedIdIndex] */\n      dup2\n      mload\n      dup2\n      lt\n      tag_359\n      jumpi\n      tag_360\n      tag_204\n      jump\t// in\n    tag_360:\n    tag_359:\n      0x20\n      mul\n      0x20\n      add\n      add\n        /* \"@redstone-finance/evm-connector/contracts/core/RedstoneConsumerBase.sol\":11286:11446  signersBitmapForDataFeedIds[dataFeedIdIndex] = BitmapLib.setBitInBitmap(... */\n      dup2\n      dup2\n      mstore\n      pop\n      pop\n        /* \"@redstone-finance/evm-connector/contracts/core/RedstoneConsumerBase.sol\":10708:11461  if (... */\n    tag_346:\n        /* \"@redstone-finance/evm-connector/contracts/core/RedstoneConsumerBase.sol\":11558:11563  break */\n      pop\n      jump(tag_333)\n        /* \"@redstone-finance/evm-connector/contracts/core/RedstoneConsumerBase.sol\":10541:11576  if (dataPointDataFeedId == dataFeedIds[dataFeedIdIndex]) {... */\n    tag_337:\n        /* \"@redstone-finance/evm-connector/contracts/core/RedstoneConsumerBase.sol\":11611:11628  dataFeedIdIndex++ */\n      dup1\n      dup1\n      0x01\n      add\n      swap2\n      pop\n      pop\n        /* \"@redstone-finance/evm-connector/contracts/core/RedstoneConsumerBase.sol\":10426:11651  for (... */\n      jump(tag_332)\n    tag_333:\n      pop\n        /* \"@redstone-finance/evm-connector/contracts/core/RedstoneConsumerBase.sol\":11683:11699  dataPointIndex++ */\n      dup1\n      dup1\n      0x01\n      add\n      swap2\n      pop\n      pop\n        /* \"@redstone-finance/evm-connector/contracts/core/RedstoneConsumerBase.sol\":9999:11718  for (uint256 dataPointIndex = 0; dataPointIndex < dataPointsCount;) {... */\n      jump(tag_325)\n    tag_326:\n      pop\n        /* \"@redstone-finance/evm-connector/contracts/core/RedstoneConsumerBase.sol\":9833:11724  {... */\n      pop\n      pop\n        /* \"@redstone-finance/evm-connector/contracts/core/RedstoneConsumerBase.sol\":11738:11760  calldataNegativeOffset */\n      dup6\n        /* \"@redstone-finance/evm-connector/contracts/core/RedstoneConsumerBase.sol\":11730:11783  return (calldataNegativeOffset, dataPackageTimestamp) */\n      swap5\n      pop\n      pop\n      pop\n      pop\n        /* \"@redstone-finance/evm-connector/contracts/core/RedstoneConsumerBase.sol\":7182:11788  function _extractDataPackage(... */\n      swap6\n      pop\n      swap6\n      swap4\n      pop\n      pop\n      pop\n      pop\n      jump\t// out\n        /* \"@redstone-finance/evm-connector/contracts/core/RedstoneConsumerBase.sol\":12257:13119  function _getAggregatedValues(... */\n    tag_294:\n        /* \"@redstone-finance/evm-connector/contracts/core/RedstoneConsumerBase.sol\":12410:12426  uint256[] memory */\n      0x60\n        /* \"@redstone-finance/evm-connector/contracts/core/RedstoneConsumerBase.sol\":12434:12467  uint256[] memory aggregatedValues */\n      0x00\n        /* \"@redstone-finance/evm-connector/contracts/core/RedstoneConsumerBase.sol\":12484:12502  valuesForDataFeeds */\n      dup4\n        /* \"@redstone-finance/evm-connector/contracts/core/RedstoneConsumerBase.sol\":12484:12509  valuesForDataFeeds.length */\n      mload\n        /* \"@redstone-finance/evm-connector/contracts/core/RedstoneConsumerBase.sol\":12470:12510  new uint256[](valuesForDataFeeds.length) */\n      0xffffffffffffffff\n      dup2\n      gt\n      iszero\n      tag_362\n      jumpi\n      tag_363\n      tag_200\n      jump\t// in\n    tag_363:\n    tag_362:\n      mload(0x40)\n      swap1\n      dup1\n      dup3\n      mstore\n      dup1\n      0x20\n      mul\n      0x20\n      add\n      dup3\n      add\n      0x40\n      mstore\n      dup1\n      iszero\n      tag_364\n      jumpi\n      dup2\n      0x20\n      add\n      0x20\n      dup3\n      mul\n      dup1\n      calldatasize\n      dup4\n      calldatacopy\n      dup1\n      dup3\n      add\n      swap2\n      pop\n      pop\n      swap1\n      pop\n    tag_364:\n      pop\n        /* \"@redstone-finance/evm-connector/contracts/core/RedstoneConsumerBase.sol\":12434:12510  uint256[] memory aggregatedValues = new uint256[](valuesForDataFeeds.length) */\n      swap1\n      pop\n        /* \"@redstone-finance/evm-connector/contracts/core/RedstoneConsumerBase.sol\":12516:12546  uint256 uniqueSignersThreshold */\n      0x00\n        /* \"@redstone-finance/evm-connector/contracts/core/RedstoneConsumerBase.sol\":12549:12576  getUniqueSignersThreshold() */\n      tag_365\n        /* \"@redstone-finance/evm-connector/contracts/core/RedstoneConsumerBase.sol\":12549:12574  getUniqueSignersThreshold */\n      tag_111\n        /* \"@redstone-finance/evm-connector/contracts/core/RedstoneConsumerBase.sol\":12549:12576  getUniqueSignersThreshold() */\n      jump\t// in\n    tag_365:\n        /* \"@redstone-finance/evm-connector/contracts/core/RedstoneConsumerBase.sol\":12516:12576  uint256 uniqueSignersThreshold = getUniqueSignersThreshold() */\n      0xff\n      and\n      swap1\n      pop\n        /* \"@redstone-finance/evm-connector/contracts/core/RedstoneConsumerBase.sol\":12588:12609  uint256 dataFeedIndex */\n      0x00\n        /* \"@redstone-finance/evm-connector/contracts/core/RedstoneConsumerBase.sol\":12583:13085  for (uint256 dataFeedIndex = 0; dataFeedIndex < valuesForDataFeeds.length; dataFeedIndex++) {... */\n    tag_366:\n        /* \"@redstone-finance/evm-connector/contracts/core/RedstoneConsumerBase.sol\":12631:12649  valuesForDataFeeds */\n      dup6\n        /* \"@redstone-finance/evm-connector/contracts/core/RedstoneConsumerBase.sol\":12631:12656  valuesForDataFeeds.length */\n      mload\n        /* \"@redstone-finance/evm-connector/contracts/core/RedstoneConsumerBase.sol\":12615:12628  dataFeedIndex */\n      dup2\n        /* \"@redstone-finance/evm-connector/contracts/core/RedstoneConsumerBase.sol\":12615:12656  dataFeedIndex < valuesForDataFeeds.length */\n      lt\n        /* \"@redstone-finance/evm-connector/contracts/core/RedstoneConsumerBase.sol\":12583:13085  for (uint256 dataFeedIndex = 0; dataFeedIndex < valuesForDataFeeds.length; dataFeedIndex++) {... */\n      iszero\n      tag_367\n      jumpi\n        /* \"@redstone-finance/evm-connector/contracts/core/RedstoneConsumerBase.sol\":12736:12758  uniqueSignersThreshold */\n      dup2\n        /* \"@redstone-finance/evm-connector/contracts/core/RedstoneConsumerBase.sol\":12687:12718  uniqueSignerCountForDataFeedIds */\n      dup6\n        /* \"@redstone-finance/evm-connector/contracts/core/RedstoneConsumerBase.sol\":12719:12732  dataFeedIndex */\n      dup3\n        /* \"@redstone-finance/evm-connector/contracts/core/RedstoneConsumerBase.sol\":12687:12733  uniqueSignerCountForDataFeedIds[dataFeedIndex] */\n      dup2\n      mload\n      dup2\n      lt\n      tag_369\n      jumpi\n      tag_370\n      tag_204\n      jump\t// in\n    tag_370:\n    tag_369:\n      0x20\n      mul\n      0x20\n      add\n      add\n      mload\n        /* \"@redstone-finance/evm-connector/contracts/core/RedstoneConsumerBase.sol\":12687:12758  uniqueSignerCountForDataFeedIds[dataFeedIndex] < uniqueSignersThreshold */\n      lt\n        /* \"@redstone-finance/evm-connector/contracts/core/RedstoneConsumerBase.sol\":12683:12912  if (uniqueSignerCountForDataFeedIds[dataFeedIndex] < uniqueSignersThreshold) {... */\n      iszero\n      tag_371\n      jumpi\n        /* \"@redstone-finance/evm-connector/contracts/core/RedstoneConsumerBase.sol\":12822:12853  uniqueSignerCountForDataFeedIds */\n      dup5\n        /* \"@redstone-finance/evm-connector/contracts/core/RedstoneConsumerBase.sol\":12854:12867  dataFeedIndex */\n      dup2\n        /* \"@redstone-finance/evm-connector/contracts/core/RedstoneConsumerBase.sol\":12822:12868  uniqueSignerCountForDataFeedIds[dataFeedIndex] */\n      dup2\n      mload\n      dup2\n      lt\n      tag_372\n      jumpi\n      tag_373\n      tag_204\n      jump\t// in\n    tag_373:\n    tag_372:\n      0x20\n      mul\n      0x20\n      add\n      add\n      mload\n        /* \"@redstone-finance/evm-connector/contracts/core/RedstoneConsumerBase.sol\":12880:12902  uniqueSignersThreshold */\n      dup3\n        /* \"@redstone-finance/evm-connector/contracts/core/RedstoneConsumerBase.sol\":12777:12903  InsufficientNumberOfUniqueSigners(... */\n      mload(0x40)\n      0x2b13aef500000000000000000000000000000000000000000000000000000000\n      dup2\n      mstore\n      0x04\n      add\n      tag_374\n      swap3\n      swap2\n      swap1\n      tag_375\n      jump\t// in\n    tag_374:\n      mload(0x40)\n      dup1\n      swap2\n      sub\n      swap1\n      revert\n        /* \"@redstone-finance/evm-connector/contracts/core/RedstoneConsumerBase.sol\":12683:12912  if (uniqueSignerCountForDataFeedIds[dataFeedIndex] < uniqueSignersThreshold) {... */\n    tag_371:\n        /* \"@redstone-finance/evm-connector/contracts/core/RedstoneConsumerBase.sol\":12919:12955  uint256 aggregatedValueForDataFeedId */\n      0x00\n        /* \"@redstone-finance/evm-connector/contracts/core/RedstoneConsumerBase.sol\":12958:13008  aggregateValues(valuesForDataFeeds[dataFeedIndex]) */\n      tag_376\n        /* \"@redstone-finance/evm-connector/contracts/core/RedstoneConsumerBase.sol\":12974:12992  valuesForDataFeeds */\n      dup8\n        /* \"@redstone-finance/evm-connector/contracts/core/RedstoneConsumerBase.sol\":12993:13006  dataFeedIndex */\n      dup4\n        /* \"@redstone-finance/evm-connector/contracts/core/RedstoneConsumerBase.sol\":12974:13007  valuesForDataFeeds[dataFeedIndex] */\n      dup2\n      mload\n      dup2\n      lt\n      tag_377\n      jumpi\n      tag_378\n      tag_204\n      jump\t// in\n    tag_378:\n    tag_377:\n      0x20\n      mul\n      0x20\n      add\n      add\n      mload\n        /* \"@redstone-finance/evm-connector/contracts/core/RedstoneConsumerBase.sol\":12958:12973  aggregateValues */\n      tag_82\n        /* \"@redstone-finance/evm-connector/contracts/core/RedstoneConsumerBase.sol\":12958:13008  aggregateValues(valuesForDataFeeds[dataFeedIndex]) */\n      jump\t// in\n    tag_376:\n        /* \"@redstone-finance/evm-connector/contracts/core/RedstoneConsumerBase.sol\":12919:13008  uint256 aggregatedValueForDataFeedId = aggregateValues(valuesForDataFeeds[dataFeedIndex]) */\n      swap1\n      pop\n        /* \"@redstone-finance/evm-connector/contracts/core/RedstoneConsumerBase.sol\":13050:13078  aggregatedValueForDataFeedId */\n      dup1\n        /* \"@redstone-finance/evm-connector/contracts/core/RedstoneConsumerBase.sol\":13016:13032  aggregatedValues */\n      dup5\n        /* \"@redstone-finance/evm-connector/contracts/core/RedstoneConsumerBase.sol\":13033:13046  dataFeedIndex */\n      dup4\n        /* \"@redstone-finance/evm-connector/contracts/core/RedstoneConsumerBase.sol\":13016:13047  aggregatedValues[dataFeedIndex] */\n      dup2\n      mload\n      dup2\n      lt\n      tag_379\n      jumpi\n      tag_380\n      tag_204\n      jump\t// in\n    tag_380:\n    tag_379:\n      0x20\n      mul\n      0x20\n      add\n      add\n        /* \"@redstone-finance/evm-connector/contracts/core/RedstoneConsumerBase.sol\":13016:13078  aggregatedValues[dataFeedIndex] = aggregatedValueForDataFeedId */\n      dup2\n      dup2\n      mstore\n      pop\n      pop\n        /* \"@redstone-finance/evm-connector/contracts/core/RedstoneConsumerBase.sol\":12675:13085  {... */\n      pop\n        /* \"@redstone-finance/evm-connector/contracts/core/RedstoneConsumerBase.sol\":12658:12673  dataFeedIndex++ */\n      dup1\n      dup1\n      0x01\n      add\n      swap2\n      pop\n      pop\n        /* \"@redstone-finance/evm-connector/contracts/core/RedstoneConsumerBase.sol\":12583:13085  for (uint256 dataFeedIndex = 0; dataFeedIndex < valuesForDataFeeds.length; dataFeedIndex++) {... */\n      jump(tag_366)\n    tag_367:\n      pop\n        /* \"@redstone-finance/evm-connector/contracts/core/RedstoneConsumerBase.sol\":13098:13114  aggregatedValues */\n      dup2\n        /* \"@redstone-finance/evm-connector/contracts/core/RedstoneConsumerBase.sol\":13091:13114  return aggregatedValues */\n      swap3\n      pop\n      pop\n      pop\n        /* \"@redstone-finance/evm-connector/contracts/core/RedstoneConsumerBase.sol\":12257:13119  function _getAggregatedValues(... */\n      swap3\n      swap2\n      pop\n      pop\n      jump\t// out\n        /* \"@redstone-finance/evm-connector/contracts/libs/SignatureLib.sol\":164:874  function recoverSignerAddress(bytes32 signedHash, uint256 signatureCalldataNegativeOffset)... */\n    tag_322:\n        /* \"@redstone-finance/evm-connector/contracts/libs/SignatureLib.sol\":290:297  address */\n      0x00\n        /* \"@redstone-finance/evm-connector/contracts/libs/SignatureLib.sol\":307:316  bytes32 r */\n      dup1\n        /* \"@redstone-finance/evm-connector/contracts/libs/SignatureLib.sol\":322:331  bytes32 s */\n      0x00\n        /* \"@redstone-finance/evm-connector/contracts/libs/SignatureLib.sol\":337:344  uint8 v */\n      dup1\n        /* \"@redstone-finance/evm-connector/contracts/libs/SignatureLib.sol\":420:451  signatureCalldataNegativeOffset */\n      dup5\n        /* \"@redstone-finance/evm-connector/contracts/libs/SignatureLib.sol\":404:418  calldatasize() */\n      calldatasize\n        /* \"@redstone-finance/evm-connector/contracts/libs/SignatureLib.sol\":400:452  sub(calldatasize(), signatureCalldataNegativeOffset) */\n      sub\n        /* \"@redstone-finance/evm-connector/contracts/libs/SignatureLib.sol\":477:502  signatureCalldataStartPos */\n      dup1\n        /* \"@redstone-finance/evm-connector/contracts/libs/SignatureLib.sol\":464:503  calldataload(signatureCalldataStartPos) */\n      calldataload\n        /* \"@redstone-finance/evm-connector/contracts/libs/SignatureLib.sol\":459:503  r := calldataload(signatureCalldataStartPos) */\n      swap4\n      pop\n        /* \"@redstone-finance/evm-connector/contracts/libs/SignatureLib.sol\":570:584  ECDSA_SIG_R_BS */\n      0x20\n        /* \"@redstone-finance/evm-connector/contracts/libs/SignatureLib.sol\":543:568  signatureCalldataStartPos */\n      dup2\n        /* \"@redstone-finance/evm-connector/contracts/libs/SignatureLib.sol\":539:585  add(signatureCalldataStartPos, ECDSA_SIG_R_BS) */\n      add\n        /* \"@redstone-finance/evm-connector/contracts/libs/SignatureLib.sol\":510:585  signatureCalldataStartPos := add(signatureCalldataStartPos, ECDSA_SIG_R_BS) */\n      swap1\n      pop\n        /* \"@redstone-finance/evm-connector/contracts/libs/SignatureLib.sol\":610:635  signatureCalldataStartPos */\n      dup1\n        /* \"@redstone-finance/evm-connector/contracts/libs/SignatureLib.sol\":597:636  calldataload(signatureCalldataStartPos) */\n      calldataload\n        /* \"@redstone-finance/evm-connector/contracts/libs/SignatureLib.sol\":592:636  s := calldataload(signatureCalldataStartPos) */\n      swap3\n      pop\n        /* \"@redstone-finance/evm-connector/contracts/libs/SignatureLib.sol\":703:717  ECDSA_SIG_S_BS */\n      0x20\n        /* \"@redstone-finance/evm-connector/contracts/libs/SignatureLib.sol\":676:701  signatureCalldataStartPos */\n      dup2\n        /* \"@redstone-finance/evm-connector/contracts/libs/SignatureLib.sol\":672:718  add(signatureCalldataStartPos, ECDSA_SIG_S_BS) */\n      add\n        /* \"@redstone-finance/evm-connector/contracts/libs/SignatureLib.sol\":643:718  signatureCalldataStartPos := add(signatureCalldataStartPos, ECDSA_SIG_S_BS) */\n      swap1\n      pop\n        /* \"@redstone-finance/evm-connector/contracts/libs/SignatureLib.sol\":751:776  signatureCalldataStartPos */\n      dup1\n        /* \"@redstone-finance/evm-connector/contracts/libs/SignatureLib.sol\":738:777  calldataload(signatureCalldataStartPos) */\n      calldataload\n        /* \"@redstone-finance/evm-connector/contracts/libs/SignatureLib.sol\":735:736  0 */\n      0x00\n        /* \"@redstone-finance/evm-connector/contracts/libs/SignatureLib.sol\":730:778  byte(0, calldataload(signatureCalldataStartPos)) */\n      byte\n        /* \"@redstone-finance/evm-connector/contracts/libs/SignatureLib.sol\":725:778  v := byte(0, calldataload(signatureCalldataStartPos)) */\n      swap2\n      pop\n        /* \"@redstone-finance/evm-connector/contracts/libs/SignatureLib.sol\":359:827  {... */\n      pop\n        /* \"@redstone-finance/evm-connector/contracts/libs/SignatureLib.sol\":839:869  ecrecover(signedHash, v, r, s) */\n      0x01\n        /* \"@redstone-finance/evm-connector/contracts/libs/SignatureLib.sol\":849:859  signedHash */\n      dup7\n        /* \"@redstone-finance/evm-connector/contracts/libs/SignatureLib.sol\":861:862  v */\n      dup3\n        /* \"@redstone-finance/evm-connector/contracts/libs/SignatureLib.sol\":864:865  r */\n      dup6\n        /* \"@redstone-finance/evm-connector/contracts/libs/SignatureLib.sol\":867:868  s */\n      dup6\n        /* \"@redstone-finance/evm-connector/contracts/libs/SignatureLib.sol\":839:869  ecrecover(signedHash, v, r, s) */\n      mload(0x40)\n      0x00\n      dup2\n      mstore\n      0x20\n      add\n      0x40\n      mstore\n      mload(0x40)\n      tag_382\n      swap5\n      swap4\n      swap3\n      swap2\n      swap1\n      tag_383\n      jump\t// in\n    tag_382:\n      0x20\n      mload(0x40)\n      0x20\n      dup2\n      sub\n      swap1\n      dup1\n      dup5\n      sub\n      swap1\n      dup6\n      gas\n      staticcall\n      iszero\n      dup1\n      iszero\n      tag_385\n      jumpi\n      returndatasize\n      0x00\n      dup1\n      returndatacopy\n      revert(0x00, returndatasize)\n    tag_385:\n      pop\n      pop\n      pop\n      mload(sub(mload(0x40), 0x20))\n        /* \"@redstone-finance/evm-connector/contracts/libs/SignatureLib.sol\":832:869  return ecrecover(signedHash, v, r, s) */\n      swap4\n      pop\n      pop\n      pop\n      pop\n        /* \"@redstone-finance/evm-connector/contracts/libs/SignatureLib.sol\":164:874  function recoverSignerAddress(bytes32 signedHash, uint256 signatureCalldataNegativeOffset)... */\n      swap3\n      swap2\n      pop\n      pop\n      jump\t// out\n        /* \"@redstone-finance/evm-connector/contracts/core/CalldataExtractor.sol\":4277:4951  function _extractDataPointValueAndDataFeedId(... */\n    tag_331:\n        /* \"@redstone-finance/evm-connector/contracts/core/CalldataExtractor.sol\":4430:4457  bytes32 dataPointDataFeedId */\n      0x00\n        /* \"@redstone-finance/evm-connector/contracts/core/CalldataExtractor.sol\":4459:4481  uint256 dataPointValue */\n      dup1\n        /* \"@redstone-finance/evm-connector/contracts/core/CalldataExtractor.sol\":4489:4520  uint256 dataPointCalldataOffset */\n      0x00\n        /* \"@redstone-finance/evm-connector/contracts/core/CalldataExtractor.sol\":4541:4564  dataPointNegativeOffset */\n      dup5\n        /* \"@redstone-finance/evm-connector/contracts/core/CalldataExtractor.sol\":4523:4531  msg.data */\n      0x00\n      calldatasize\n        /* \"@redstone-finance/evm-connector/contracts/core/CalldataExtractor.sol\":4523:4538  msg.data.length */\n      swap1\n      pop\n        /* \"@redstone-finance/evm-connector/contracts/core/CalldataExtractor.sol\":4523:4564  msg.data.length - dataPointNegativeOffset */\n      tag_387\n      swap2\n      swap1\n      tag_171\n      jump\t// in\n    tag_387:\n        /* \"@redstone-finance/evm-connector/contracts/core/CalldataExtractor.sol\":4489:4564  uint256 dataPointCalldataOffset = msg.data.length - dataPointNegativeOffset */\n      swap1\n      pop\n        /* \"@redstone-finance/evm-connector/contracts/core/CalldataExtractor.sol\":4623:4646  dataPointCalldataOffset */\n      dup1\n        /* \"@redstone-finance/evm-connector/contracts/core/CalldataExtractor.sol\":4610:4647  calldataload(dataPointCalldataOffset) */\n      calldataload\n        /* \"@redstone-finance/evm-connector/contracts/core/CalldataExtractor.sol\":4587:4647  dataPointDataFeedId := calldataload(dataPointCalldataOffset) */\n      swap3\n      pop\n        /* \"@redstone-finance/evm-connector/contracts/core/CalldataExtractor.sol\":4714:4734  DATA_POINT_SYMBOL_BS */\n      0x20\n        /* \"@redstone-finance/evm-connector/contracts/core/CalldataExtractor.sol\":4689:4712  dataPointCalldataOffset */\n      dup2\n        /* \"@redstone-finance/evm-connector/contracts/core/CalldataExtractor.sol\":4685:4735  add(dataPointCalldataOffset, DATA_POINT_SYMBOL_BS) */\n      add\n        /* \"@redstone-finance/evm-connector/contracts/core/CalldataExtractor.sol\":4672:4736  calldataload(add(dataPointCalldataOffset, DATA_POINT_SYMBOL_BS)) */\n      calldataload\n        /* \"@redstone-finance/evm-connector/contracts/core/CalldataExtractor.sol\":4654:4736  dataPointValue := calldataload(add(dataPointCalldataOffset, DATA_POINT_SYMBOL_BS)) */\n      swap2\n      pop\n        /* \"@redstone-finance/evm-connector/contracts/core/CalldataExtractor.sol\":4777:4779  33 */\n      0x21\n        /* \"@redstone-finance/evm-connector/contracts/core/CalldataExtractor.sol\":4751:4773  dataPointValueByteSize */\n      dup5\n        /* \"@redstone-finance/evm-connector/contracts/core/CalldataExtractor.sol\":4751:4779  dataPointValueByteSize >= 33 */\n      lt\n        /* \"@redstone-finance/evm-connector/contracts/core/CalldataExtractor.sol\":4747:4848  if (dataPointValueByteSize >= 33) {... */\n      tag_388\n      jumpi\n        /* \"@redstone-finance/evm-connector/contracts/core/CalldataExtractor.sol\":4818:4840  dataPointValueByteSize */\n      dup4\n        /* \"@redstone-finance/evm-connector/contracts/core/CalldataExtractor.sol\":4796:4841  TooLargeValueByteSize(dataPointValueByteSize) */\n      mload(0x40)\n      0xc000fc4200000000000000000000000000000000000000000000000000000000\n      dup2\n      mstore\n      0x04\n      add\n      tag_389\n      swap2\n      swap1\n      tag_34\n      jump\t// in\n    tag_389:\n      mload(0x40)\n      dup1\n      swap2\n      sub\n      swap1\n      revert\n        /* \"@redstone-finance/evm-connector/contracts/core/CalldataExtractor.sol\":4747:4848  if (dataPointValueByteSize >= 33) {... */\n    tag_388:\n        /* \"@redstone-finance/evm-connector/contracts/core/CalldataExtractor.sol\":4938:4939  8 */\n      0x08\n        /* \"@redstone-finance/evm-connector/contracts/core/CalldataExtractor.sol\":4912:4934  dataPointValueByteSize */\n      dup5\n        /* \"@redstone-finance/evm-connector/contracts/core/CalldataExtractor.sol\":4907:4909  32 */\n      0x20\n        /* \"@redstone-finance/evm-connector/contracts/core/CalldataExtractor.sol\":4907:4934  32 - dataPointValueByteSize */\n      sub\n        /* \"@redstone-finance/evm-connector/contracts/core/CalldataExtractor.sol\":4906:4939  (32 - dataPointValueByteSize) * 8 */\n      mul\n        /* \"@redstone-finance/evm-connector/contracts/core/CalldataExtractor.sol\":4888:4902  dataPointValue */\n      dup3\n        /* \"@redstone-finance/evm-connector/contracts/core/CalldataExtractor.sol\":4888:4939  dataPointValue >> (32 - dataPointValueByteSize) * 8 */\n      swap1\n      shr\n        /* \"@redstone-finance/evm-connector/contracts/core/CalldataExtractor.sol\":4871:4939  dataPointValue = dataPointValue >> (32 - dataPointValueByteSize) * 8 */\n      swap2\n      pop\n        /* \"@redstone-finance/evm-connector/contracts/core/CalldataExtractor.sol\":4483:4951  {... */\n      pop\n        /* \"@redstone-finance/evm-connector/contracts/core/CalldataExtractor.sol\":4277:4951  function _extractDataPointValueAndDataFeedId(... */\n      swap3\n      pop\n      swap3\n      swap1\n      pop\n      jump\t// out\n        /* \"@redstone-finance/evm-connector/contracts/libs/BitmapLib.sol\":216:388  function getBitFromBitmap(uint256 bitmap, uint256 bitIndex) internal pure returns (bool) {... */\n    tag_341:\n        /* \"@redstone-finance/evm-connector/contracts/libs/BitmapLib.sol\":299:303  bool */\n      0x00\n        /* \"@redstone-finance/evm-connector/contracts/libs/BitmapLib.sol\":311:329  uint256 bitAtIndex */\n      dup1\n        /* \"@redstone-finance/evm-connector/contracts/libs/BitmapLib.sol\":347:355  bitIndex */\n      dup3\n        /* \"@redstone-finance/evm-connector/contracts/libs/BitmapLib.sol\":342:343  1 */\n      0x01\n        /* \"@redstone-finance/evm-connector/contracts/libs/BitmapLib.sol\":342:355  1 << bitIndex */\n      swap1\n      shl\n        /* \"@redstone-finance/evm-connector/contracts/libs/BitmapLib.sol\":332:338  bitmap */\n      dup5\n        /* \"@redstone-finance/evm-connector/contracts/libs/BitmapLib.sol\":332:356  bitmap & (1 << bitIndex) */\n      and\n        /* \"@redstone-finance/evm-connector/contracts/libs/BitmapLib.sol\":311:356  uint256 bitAtIndex = bitmap & (1 << bitIndex) */\n      swap1\n      pop\n        /* \"@redstone-finance/evm-connector/contracts/libs/BitmapLib.sol\":382:383  0 */\n      0x00\n        /* \"@redstone-finance/evm-connector/contracts/libs/BitmapLib.sol\":369:379  bitAtIndex */\n      dup2\n        /* \"@redstone-finance/evm-connector/contracts/libs/BitmapLib.sol\":369:383  bitAtIndex > 0 */\n      gt\n        /* \"@redstone-finance/evm-connector/contracts/libs/BitmapLib.sol\":362:383  return bitAtIndex > 0 */\n      swap2\n      pop\n      pop\n        /* \"@redstone-finance/evm-connector/contracts/libs/BitmapLib.sol\":216:388  function getBitFromBitmap(uint256 bitmap, uint256 bitIndex) internal pure returns (bool) {... */\n      swap3\n      swap2\n      pop\n      pop\n      jump\t// out\n        /* \"@redstone-finance/evm-connector/contracts/libs/BitmapLib.sol\":80:212  function setBitInBitmap(uint256 bitmap, uint256 bitIndex) internal pure returns (uint256) {... */\n    tag_358:\n        /* \"@redstone-finance/evm-connector/contracts/libs/BitmapLib.sol\":161:168  uint256 */\n      0x00\n        /* \"@redstone-finance/evm-connector/contracts/libs/BitmapLib.sol\":198:206  bitIndex */\n      dup2\n        /* \"@redstone-finance/evm-connector/contracts/libs/BitmapLib.sol\":193:194  1 */\n      0x01\n        /* \"@redstone-finance/evm-connector/contracts/libs/BitmapLib.sol\":193:206  1 << bitIndex */\n      swap1\n      shl\n        /* \"@redstone-finance/evm-connector/contracts/libs/BitmapLib.sol\":183:189  bitmap */\n      dup4\n        /* \"@redstone-finance/evm-connector/contracts/libs/BitmapLib.sol\":183:207  bitmap | (1 << bitIndex) */\n      or\n        /* \"@redstone-finance/evm-connector/contracts/libs/BitmapLib.sol\":176:207  return bitmap | (1 << bitIndex) */\n      swap1\n      pop\n        /* \"@redstone-finance/evm-connector/contracts/libs/BitmapLib.sol\":80:212  function setBitInBitmap(uint256 bitmap, uint256 bitIndex) internal pure returns (uint256) {... */\n      swap3\n      swap2\n      pop\n      pop\n      jump\t// out\n        /* \"#utility.yul\":7:82   */\n    tag_392:\n        /* \"#utility.yul\":40:46   */\n      0x00\n        /* \"#utility.yul\":73:75   */\n      0x40\n        /* \"#utility.yul\":67:76   */\n      mload\n        /* \"#utility.yul\":57:76   */\n      swap1\n      pop\n        /* \"#utility.yul\":7:82   */\n      swap1\n      jump\t// out\n        /* \"#utility.yul\":88:205   */\n    tag_393:\n        /* \"#utility.yul\":197:198   */\n      0x00\n        /* \"#utility.yul\":194:195   */\n      dup1\n        /* \"#utility.yul\":187:199   */\n      revert\n        /* \"#utility.yul\":211:328   */\n    tag_394:\n        /* \"#utility.yul\":320:321   */\n      0x00\n        /* \"#utility.yul\":317:318   */\n      dup1\n        /* \"#utility.yul\":310:322   */\n      revert\n        /* \"#utility.yul\":334:424   */\n    tag_395:\n        /* \"#utility.yul\":368:375   */\n      0x00\n        /* \"#utility.yul\":411:416   */\n      dup2\n        /* \"#utility.yul\":404:417   */\n      iszero\n        /* \"#utility.yul\":397:418   */\n      iszero\n        /* \"#utility.yul\":386:418   */\n      swap1\n      pop\n        /* \"#utility.yul\":334:424   */\n      swap2\n      swap1\n      pop\n      jump\t// out\n        /* \"#utility.yul\":430:546   */\n    tag_396:\n        /* \"#utility.yul\":500:521   */\n      tag_452\n        /* \"#utility.yul\":515:520   */\n      dup2\n        /* \"#utility.yul\":500:521   */\n      tag_395\n      jump\t// in\n    tag_452:\n        /* \"#utility.yul\":493:498   */\n      dup2\n        /* \"#utility.yul\":490:522   */\n      eq\n        /* \"#utility.yul\":480:540   */\n      tag_453\n      jumpi\n        /* \"#utility.yul\":536:537   */\n      0x00\n        /* \"#utility.yul\":533:534   */\n      dup1\n        /* \"#utility.yul\":526:538   */\n      revert\n        /* \"#utility.yul\":480:540   */\n    tag_453:\n        /* \"#utility.yul\":430:546   */\n      pop\n      jump\t// out\n        /* \"#utility.yul\":552:685   */\n    tag_397:\n        /* \"#utility.yul\":595:600   */\n      0x00\n        /* \"#utility.yul\":633:639   */\n      dup2\n        /* \"#utility.yul\":620:640   */\n      calldataload\n        /* \"#utility.yul\":611:640   */\n      swap1\n      pop\n        /* \"#utility.yul\":649:679   */\n      tag_455\n        /* \"#utility.yul\":673:678   */\n      dup2\n        /* \"#utility.yul\":649:679   */\n      tag_396\n      jump\t// in\n    tag_455:\n        /* \"#utility.yul\":552:685   */\n      swap3\n      swap2\n      pop\n      pop\n      jump\t// out\n        /* \"#utility.yul\":691:1014   */\n    tag_26:\n        /* \"#utility.yul\":747:753   */\n      0x00\n        /* \"#utility.yul\":796:798   */\n      0x20\n        /* \"#utility.yul\":784:793   */\n      dup3\n        /* \"#utility.yul\":775:782   */\n      dup5\n        /* \"#utility.yul\":771:794   */\n      sub\n        /* \"#utility.yul\":767:799   */\n      slt\n        /* \"#utility.yul\":764:883   */\n      iszero\n      tag_457\n      jumpi\n        /* \"#utility.yul\":802:881   */\n      tag_458\n      tag_393\n      jump\t// in\n    tag_458:\n        /* \"#utility.yul\":764:883   */\n    tag_457:\n        /* \"#utility.yul\":922:923   */\n      0x00\n        /* \"#utility.yul\":947:997   */\n      tag_459\n        /* \"#utility.yul\":989:996   */\n      dup5\n        /* \"#utility.yul\":980:986   */\n      dup3\n        /* \"#utility.yul\":969:978   */\n      dup6\n        /* \"#utility.yul\":965:987   */\n      add\n        /* \"#utility.yul\":947:997   */\n      tag_397\n      jump\t// in\n    tag_459:\n        /* \"#utility.yul\":937:997   */\n      swap2\n      pop\n        /* \"#utility.yul\":893:1007   */\n      pop\n        /* \"#utility.yul\":691:1014   */\n      swap3\n      swap2\n      pop\n      pop\n      jump\t// out\n        /* \"#utility.yul\":1020:1146   */\n    tag_398:\n        /* \"#utility.yul\":1057:1064   */\n      0x00\n        /* \"#utility.yul\":1097:1139   */\n      0xffffffffffffffffffffffffffffffffffffffff\n        /* \"#utility.yul\":1090:1095   */\n      dup3\n        /* \"#utility.yul\":1086:1140   */\n      and\n        /* \"#utility.yul\":1075:1140   */\n      swap1\n      pop\n        /* \"#utility.yul\":1020:1146   */\n      swap2\n      swap1\n      pop\n      jump\t// out\n        /* \"#utility.yul\":1152:1248   */\n    tag_399:\n        /* \"#utility.yul\":1189:1196   */\n      0x00\n        /* \"#utility.yul\":1218:1242   */\n      tag_462\n        /* \"#utility.yul\":1236:1241   */\n      dup3\n        /* \"#utility.yul\":1218:1242   */\n      tag_398\n      jump\t// in\n    tag_462:\n        /* \"#utility.yul\":1207:1242   */\n      swap1\n      pop\n        /* \"#utility.yul\":1152:1248   */\n      swap2\n      swap1\n      pop\n      jump\t// out\n        /* \"#utility.yul\":1254:1376   */\n    tag_400:\n        /* \"#utility.yul\":1327:1351   */\n      tag_464\n        /* \"#utility.yul\":1345:1350   */\n      dup2\n        /* \"#utility.yul\":1327:1351   */\n      tag_399\n      jump\t// in\n    tag_464:\n        /* \"#utility.yul\":1320:1325   */\n      dup2\n        /* \"#utility.yul\":1317:1352   */\n      eq\n        /* \"#utility.yul\":1307:1370   */\n      tag_465\n      jumpi\n        /* \"#utility.yul\":1366:1367   */\n      0x00\n        /* \"#utility.yul\":1363:1364   */\n      dup1\n        /* \"#utility.yul\":1356:1368   */\n      revert\n        /* \"#utility.yul\":1307:1370   */\n    tag_465:\n        /* \"#utility.yul\":1254:1376   */\n      pop\n      jump\t// out\n        /* \"#utility.yul\":1382:1521   */\n    tag_401:\n        /* \"#utility.yul\":1428:1433   */\n      0x00\n        /* \"#utility.yul\":1466:1472   */\n      dup2\n        /* \"#utility.yul\":1453:1473   */\n      calldataload\n        /* \"#utility.yul\":1444:1473   */\n      swap1\n      pop\n        /* \"#utility.yul\":1482:1515   */\n      tag_467\n        /* \"#utility.yul\":1509:1514   */\n      dup2\n        /* \"#utility.yul\":1482:1515   */\n      tag_400\n      jump\t// in\n    tag_467:\n        /* \"#utility.yul\":1382:1521   */\n      swap3\n      swap2\n      pop\n      pop\n      jump\t// out\n        /* \"#utility.yul\":1527:1856   */\n    tag_31:\n        /* \"#utility.yul\":1586:1592   */\n      0x00\n        /* \"#utility.yul\":1635:1637   */\n      0x20\n        /* \"#utility.yul\":1623:1632   */\n      dup3\n        /* \"#utility.yul\":1614:1621   */\n      dup5\n        /* \"#utility.yul\":1610:1633   */\n      sub\n        /* \"#utility.yul\":1606:1638   */\n      slt\n        /* \"#utility.yul\":1603:1722   */\n      iszero\n      tag_469\n      jumpi\n        /* \"#utility.yul\":1641:1720   */\n      tag_470\n      tag_393\n      jump\t// in\n    tag_470:\n        /* \"#utility.yul\":1603:1722   */\n    tag_469:\n        /* \"#utility.yul\":1761:1762   */\n      0x00\n        /* \"#utility.yul\":1786:1839   */\n      tag_471\n        /* \"#utility.yul\":1831:1838   */\n      dup5\n        /* \"#utility.yul\":1822:1828   */\n      dup3\n        /* \"#utility.yul\":1811:1820   */\n      dup6\n        /* \"#utility.yul\":1807:1829   */\n      add\n        /* \"#utility.yul\":1786:1839   */\n      tag_401\n      jump\t// in\n    tag_471:\n        /* \"#utility.yul\":1776:1839   */\n      swap2\n      pop\n        /* \"#utility.yul\":1732:1849   */\n      pop\n        /* \"#utility.yul\":1527:1856   */\n      swap3\n      swap2\n      pop\n      pop\n      jump\t// out\n        /* \"#utility.yul\":1862:1939   */\n    tag_402:\n        /* \"#utility.yul\":1899:1906   */\n      0x00\n        /* \"#utility.yul\":1928:1933   */\n      dup2\n        /* \"#utility.yul\":1917:1933   */\n      swap1\n      pop\n        /* \"#utility.yul\":1862:1939   */\n      swap2\n      swap1\n      pop\n      jump\t// out\n        /* \"#utility.yul\":1945:2063   */\n    tag_403:\n        /* \"#utility.yul\":2032:2056   */\n      tag_474\n        /* \"#utility.yul\":2050:2055   */\n      dup2\n        /* \"#utility.yul\":2032:2056   */\n      tag_402\n      jump\t// in\n    tag_474:\n        /* \"#utility.yul\":2027:2030   */\n      dup3\n        /* \"#utility.yul\":2020:2057   */\n      mstore\n        /* \"#utility.yul\":1945:2063   */\n      pop\n      pop\n      jump\t// out\n        /* \"#utility.yul\":2069:2291   */\n    tag_34:\n        /* \"#utility.yul\":2162:2166   */\n      0x00\n        /* \"#utility.yul\":2200:2202   */\n      0x20\n        /* \"#utility.yul\":2189:2198   */\n      dup3\n        /* \"#utility.yul\":2185:2203   */\n      add\n        /* \"#utility.yul\":2177:2203   */\n      swap1\n      pop\n        /* \"#utility.yul\":2213:2284   */\n      tag_476\n        /* \"#utility.yul\":2281:2282   */\n      0x00\n        /* \"#utility.yul\":2270:2279   */\n      dup4\n        /* \"#utility.yul\":2266:2283   */\n      add\n        /* \"#utility.yul\":2257:2263   */\n      dup5\n        /* \"#utility.yul\":2213:2284   */\n      tag_403\n      jump\t// in\n    tag_476:\n        /* \"#utility.yul\":2069:2291   */\n      swap3\n      swap2\n      pop\n      pop\n      jump\t// out\n        /* \"#utility.yul\":2297:2373   */\n    tag_404:\n        /* \"#utility.yul\":2333:2340   */\n      0x00\n        /* \"#utility.yul\":2362:2367   */\n      dup2\n        /* \"#utility.yul\":2351:2367   */\n      swap1\n      pop\n        /* \"#utility.yul\":2297:2373   */\n      swap2\n      swap1\n      pop\n      jump\t// out\n        /* \"#utility.yul\":2379:2494   */\n    tag_405:\n        /* \"#utility.yul\":2464:2487   */\n      tag_479\n        /* \"#utility.yul\":2481:2486   */\n      dup2\n        /* \"#utility.yul\":2464:2487   */\n      tag_404\n      jump\t// in\n    tag_479:\n        /* \"#utility.yul\":2459:2462   */\n      dup3\n        /* \"#utility.yul\":2452:2488   */\n      mstore\n        /* \"#utility.yul\":2379:2494   */\n      pop\n      pop\n      jump\t// out\n        /* \"#utility.yul\":2500:2718   */\n    tag_43:\n        /* \"#utility.yul\":2591:2595   */\n      0x00\n        /* \"#utility.yul\":2629:2631   */\n      0x20\n        /* \"#utility.yul\":2618:2627   */\n      dup3\n        /* \"#utility.yul\":2614:2632   */\n      add\n        /* \"#utility.yul\":2606:2632   */\n      swap1\n      pop\n        /* \"#utility.yul\":2642:2711   */\n      tag_481\n        /* \"#utility.yul\":2708:2709   */\n      0x00\n        /* \"#utility.yul\":2697:2706   */\n      dup4\n        /* \"#utility.yul\":2693:2710   */\n      add\n        /* \"#utility.yul\":2684:2690   */\n      dup5\n        /* \"#utility.yul\":2642:2711   */\n      tag_405\n      jump\t// in\n    tag_481:\n        /* \"#utility.yul\":2500:2718   */\n      swap3\n      swap2\n      pop\n      pop\n      jump\t// out\n        /* \"#utility.yul\":2724:2810   */\n    tag_406:\n        /* \"#utility.yul\":2759:2766   */\n      0x00\n        /* \"#utility.yul\":2799:2803   */\n      0xff\n        /* \"#utility.yul\":2792:2797   */\n      dup3\n        /* \"#utility.yul\":2788:2804   */\n      and\n        /* \"#utility.yul\":2777:2804   */\n      swap1\n      pop\n        /* \"#utility.yul\":2724:2810   */\n      swap2\n      swap1\n      pop\n      jump\t// out\n        /* \"#utility.yul\":2816:2928   */\n    tag_407:\n        /* \"#utility.yul\":2899:2921   */\n      tag_484\n        /* \"#utility.yul\":2915:2920   */\n      dup2\n        /* \"#utility.yul\":2899:2921   */\n      tag_406\n      jump\t// in\n    tag_484:\n        /* \"#utility.yul\":2894:2897   */\n      dup3\n        /* \"#utility.yul\":2887:2922   */\n      mstore\n        /* \"#utility.yul\":2816:2928   */\n      pop\n      pop\n      jump\t// out\n        /* \"#utility.yul\":2934:3148   */\n    tag_49:\n        /* \"#utility.yul\":3023:3027   */\n      0x00\n        /* \"#utility.yul\":3061:3063   */\n      0x20\n        /* \"#utility.yul\":3050:3059   */\n      dup3\n        /* \"#utility.yul\":3046:3064   */\n      add\n        /* \"#utility.yul\":3038:3064   */\n      swap1\n      pop\n        /* \"#utility.yul\":3074:3141   */\n      tag_486\n        /* \"#utility.yul\":3138:3139   */\n      0x00\n        /* \"#utility.yul\":3127:3136   */\n      dup4\n        /* \"#utility.yul\":3123:3140   */\n      add\n        /* \"#utility.yul\":3114:3120   */\n      dup5\n        /* \"#utility.yul\":3074:3141   */\n      tag_407\n      jump\t// in\n    tag_486:\n        /* \"#utility.yul\":2934:3148   */\n      swap3\n      swap2\n      pop\n      pop\n      jump\t// out\n        /* \"#utility.yul\":3154:3243   */\n    tag_408:\n        /* \"#utility.yul\":3188:3195   */\n      0x00\n        /* \"#utility.yul\":3231:3236   */\n      dup2\n        /* \"#utility.yul\":3228:3229   */\n      0x00\n        /* \"#utility.yul\":3217:3237   */\n      signextend\n        /* \"#utility.yul\":3206:3237   */\n      swap1\n      pop\n        /* \"#utility.yul\":3154:3243   */\n      swap2\n      swap1\n      pop\n      jump\t// out\n        /* \"#utility.yul\":3249:3358   */\n    tag_409:\n        /* \"#utility.yul\":3330:3351   */\n      tag_489\n        /* \"#utility.yul\":3345:3350   */\n      dup2\n        /* \"#utility.yul\":3330:3351   */\n      tag_408\n      jump\t// in\n    tag_489:\n        /* \"#utility.yul\":3325:3328   */\n      dup3\n        /* \"#utility.yul\":3318:3352   */\n      mstore\n        /* \"#utility.yul\":3249:3358   */\n      pop\n      pop\n      jump\t// out\n        /* \"#utility.yul\":3364:3574   */\n    tag_73:\n        /* \"#utility.yul\":3451:3455   */\n      0x00\n        /* \"#utility.yul\":3489:3491   */\n      0x20\n        /* \"#utility.yul\":3478:3487   */\n      dup3\n        /* \"#utility.yul\":3474:3492   */\n      add\n        /* \"#utility.yul\":3466:3492   */\n      swap1\n      pop\n        /* \"#utility.yul\":3502:3567   */\n      tag_491\n        /* \"#utility.yul\":3564:3565   */\n      0x00\n        /* \"#utility.yul\":3553:3562   */\n      dup4\n        /* \"#utility.yul\":3549:3566   */\n      add\n        /* \"#utility.yul\":3540:3546   */\n      dup5\n        /* \"#utility.yul\":3502:3567   */\n      tag_409\n      jump\t// in\n    tag_491:\n        /* \"#utility.yul\":3364:3574   */\n      swap3\n      swap2\n      pop\n      pop\n      jump\t// out\n        /* \"#utility.yul\":3580:3697   */\n    tag_410:\n        /* \"#utility.yul\":3689:3690   */\n      0x00\n        /* \"#utility.yul\":3686:3687   */\n      dup1\n        /* \"#utility.yul\":3679:3691   */\n      revert\n        /* \"#utility.yul\":3703:3805   */\n    tag_411:\n        /* \"#utility.yul\":3744:3750   */\n      0x00\n        /* \"#utility.yul\":3795:3797   */\n      0x1f\n        /* \"#utility.yul\":3791:3798   */\n      not\n        /* \"#utility.yul\":3786:3788   */\n      0x1f\n        /* \"#utility.yul\":3779:3784   */\n      dup4\n        /* \"#utility.yul\":3775:3789   */\n      add\n        /* \"#utility.yul\":3771:3799   */\n      and\n        /* \"#utility.yul\":3761:3799   */\n      swap1\n      pop\n        /* \"#utility.yul\":3703:3805   */\n      swap2\n      swap1\n      pop\n      jump\t// out\n        /* \"#utility.yul\":3811:3991   */\n    tag_200:\n        /* \"#utility.yul\":3859:3936   */\n      0x4e487b7100000000000000000000000000000000000000000000000000000000\n        /* \"#utility.yul\":3856:3857   */\n      0x00\n        /* \"#utility.yul\":3849:3937   */\n      mstore\n        /* \"#utility.yul\":3956:3960   */\n      0x41\n        /* \"#utility.yul\":3953:3954   */\n      0x04\n        /* \"#utility.yul\":3946:3961   */\n      mstore\n        /* \"#utility.yul\":3980:3984   */\n      0x24\n        /* \"#utility.yul\":3977:3978   */\n      0x00\n        /* \"#utility.yul\":3970:3985   */\n      revert\n        /* \"#utility.yul\":3997:4278   */\n    tag_412:\n        /* \"#utility.yul\":4080:4107   */\n      tag_496\n        /* \"#utility.yul\":4102:4106   */\n      dup3\n        /* \"#utility.yul\":4080:4107   */\n      tag_411\n      jump\t// in\n    tag_496:\n        /* \"#utility.yul\":4072:4078   */\n      dup2\n        /* \"#utility.yul\":4068:4108   */\n      add\n        /* \"#utility.yul\":4210:4216   */\n      dup2\n        /* \"#utility.yul\":4198:4208   */\n      dup2\n        /* \"#utility.yul\":4195:4217   */\n      lt\n        /* \"#utility.yul\":4174:4192   */\n      0xffffffffffffffff\n        /* \"#utility.yul\":4162:4172   */\n      dup3\n        /* \"#utility.yul\":4159:4193   */\n      gt\n        /* \"#utility.yul\":4156:4218   */\n      or\n        /* \"#utility.yul\":4153:4241   */\n      iszero\n      tag_497\n      jumpi\n        /* \"#utility.yul\":4221:4239   */\n      tag_498\n      tag_200\n      jump\t// in\n    tag_498:\n        /* \"#utility.yul\":4153:4241   */\n    tag_497:\n        /* \"#utility.yul\":4261:4271   */\n      dup1\n        /* \"#utility.yul\":4257:4259   */\n      0x40\n        /* \"#utility.yul\":4250:4272   */\n      mstore\n        /* \"#utility.yul\":4040:4278   */\n      pop\n        /* \"#utility.yul\":3997:4278   */\n      pop\n      pop\n      jump\t// out\n        /* \"#utility.yul\":4284:4413   */\n    tag_413:\n        /* \"#utility.yul\":4318:4324   */\n      0x00\n        /* \"#utility.yul\":4345:4365   */\n      tag_500\n      tag_392\n      jump\t// in\n    tag_500:\n        /* \"#utility.yul\":4335:4365   */\n      swap1\n      pop\n        /* \"#utility.yul\":4374:4407   */\n      tag_501\n        /* \"#utility.yul\":4402:4406   */\n      dup3\n        /* \"#utility.yul\":4394:4400   */\n      dup3\n        /* \"#utility.yul\":4374:4407   */\n      tag_412\n      jump\t// in\n    tag_501:\n        /* \"#utility.yul\":4284:4413   */\n      swap2\n      swap1\n      pop\n      jump\t// out\n        /* \"#utility.yul\":4419:4730   */\n    tag_414:\n        /* \"#utility.yul\":4496:4500   */\n      0x00\n        /* \"#utility.yul\":4586:4604   */\n      0xffffffffffffffff\n        /* \"#utility.yul\":4578:4584   */\n      dup3\n        /* \"#utility.yul\":4575:4605   */\n      gt\n        /* \"#utility.yul\":4572:4628   */\n      iszero\n      tag_503\n      jumpi\n        /* \"#utility.yul\":4608:4626   */\n      tag_504\n      tag_200\n      jump\t// in\n    tag_504:\n        /* \"#utility.yul\":4572:4628   */\n    tag_503:\n        /* \"#utility.yul\":4658:4662   */\n      0x20\n        /* \"#utility.yul\":4650:4656   */\n      dup3\n        /* \"#utility.yul\":4646:4663   */\n      mul\n        /* \"#utility.yul\":4638:4663   */\n      swap1\n      pop\n        /* \"#utility.yul\":4718:4722   */\n      0x20\n        /* \"#utility.yul\":4712:4716   */\n      dup2\n        /* \"#utility.yul\":4708:4723   */\n      add\n        /* \"#utility.yul\":4700:4723   */\n      swap1\n      pop\n        /* \"#utility.yul\":4419:4730   */\n      swap2\n      swap1\n      pop\n      jump\t// out\n        /* \"#utility.yul\":4736:4853   */\n    tag_415:\n        /* \"#utility.yul\":4845:4846   */\n      0x00\n        /* \"#utility.yul\":4842:4843   */\n      dup1\n        /* \"#utility.yul\":4835:4847   */\n      revert\n        /* \"#utility.yul\":4859:4981   */\n    tag_416:\n        /* \"#utility.yul\":4932:4956   */\n      tag_507\n        /* \"#utility.yul\":4950:4955   */\n      dup2\n        /* \"#utility.yul\":4932:4956   */\n      tag_402\n      jump\t// in\n    tag_507:\n        /* \"#utility.yul\":4925:4930   */\n      dup2\n        /* \"#utility.yul\":4922:4957   */\n      eq\n        /* \"#utility.yul\":4912:4975   */\n      tag_508\n      jumpi\n        /* \"#utility.yul\":4971:4972   */\n      0x00\n        /* \"#utility.yul\":4968:4969   */\n      dup1\n        /* \"#utility.yul\":4961:4973   */\n      revert\n        /* \"#utility.yul\":4912:4975   */\n    tag_508:\n        /* \"#utility.yul\":4859:4981   */\n      pop\n      jump\t// out\n        /* \"#utility.yul\":4987:5126   */\n    tag_417:\n        /* \"#utility.yul\":5033:5038   */\n      0x00\n        /* \"#utility.yul\":5071:5077   */\n      dup2\n        /* \"#utility.yul\":5058:5078   */\n      calldataload\n        /* \"#utility.yul\":5049:5078   */\n      swap1\n      pop\n        /* \"#utility.yul\":5087:5120   */\n      tag_510\n        /* \"#utility.yul\":5114:5119   */\n      dup2\n        /* \"#utility.yul\":5087:5120   */\n      tag_416\n      jump\t// in\n    tag_510:\n        /* \"#utility.yul\":4987:5126   */\n      swap3\n      swap2\n      pop\n      pop\n      jump\t// out\n        /* \"#utility.yul\":5149:5859   */\n    tag_418:\n        /* \"#utility.yul\":5245:5250   */\n      0x00\n        /* \"#utility.yul\":5270:5351   */\n      tag_512\n        /* \"#utility.yul\":5286:5350   */\n      tag_513\n        /* \"#utility.yul\":5343:5349   */\n      dup5\n        /* \"#utility.yul\":5286:5350   */\n      tag_414\n      jump\t// in\n    tag_513:\n        /* \"#utility.yul\":5270:5351   */\n      tag_413\n      jump\t// in\n    tag_512:\n        /* \"#utility.yul\":5261:5351   */\n      swap1\n      pop\n        /* \"#utility.yul\":5371:5376   */\n      dup1\n        /* \"#utility.yul\":5400:5406   */\n      dup4\n        /* \"#utility.yul\":5393:5398   */\n      dup3\n        /* \"#utility.yul\":5386:5407   */\n      mstore\n        /* \"#utility.yul\":5434:5438   */\n      0x20\n        /* \"#utility.yul\":5427:5432   */\n      dup3\n        /* \"#utility.yul\":5423:5439   */\n      add\n        /* \"#utility.yul\":5416:5439   */\n      swap1\n      pop\n        /* \"#utility.yul\":5487:5491   */\n      0x20\n        /* \"#utility.yul\":5479:5485   */\n      dup5\n        /* \"#utility.yul\":5475:5492   */\n      mul\n        /* \"#utility.yul\":5467:5473   */\n      dup4\n        /* \"#utility.yul\":5463:5493   */\n      add\n        /* \"#utility.yul\":5516:5519   */\n      dup6\n        /* \"#utility.yul\":5508:5514   */\n      dup2\n        /* \"#utility.yul\":5505:5520   */\n      gt\n        /* \"#utility.yul\":5502:5624   */\n      iszero\n      tag_514\n      jumpi\n        /* \"#utility.yul\":5535:5614   */\n      tag_515\n      tag_415\n      jump\t// in\n    tag_515:\n        /* \"#utility.yul\":5502:5624   */\n    tag_514:\n        /* \"#utility.yul\":5650:5656   */\n      dup4\n        /* \"#utility.yul\":5633:5853   */\n    tag_516:\n        /* \"#utility.yul\":5667:5673   */\n      dup2\n        /* \"#utility.yul\":5662:5665   */\n      dup2\n        /* \"#utility.yul\":5659:5674   */\n      lt\n        /* \"#utility.yul\":5633:5853   */\n      iszero\n      tag_518\n      jumpi\n        /* \"#utility.yul\":5742:5745   */\n      dup1\n        /* \"#utility.yul\":5771:5808   */\n      tag_519\n        /* \"#utility.yul\":5804:5807   */\n      dup9\n        /* \"#utility.yul\":5792:5802   */\n      dup3\n        /* \"#utility.yul\":5771:5808   */\n      tag_417\n      jump\t// in\n    tag_519:\n        /* \"#utility.yul\":5766:5769   */\n      dup5\n        /* \"#utility.yul\":5759:5809   */\n      mstore\n        /* \"#utility.yul\":5838:5842   */\n      0x20\n        /* \"#utility.yul\":5833:5836   */\n      dup5\n        /* \"#utility.yul\":5829:5843   */\n      add\n        /* \"#utility.yul\":5822:5843   */\n      swap4\n      pop\n        /* \"#utility.yul\":5709:5853   */\n      pop\n        /* \"#utility.yul\":5693:5697   */\n      0x20\n        /* \"#utility.yul\":5688:5691   */\n      dup2\n        /* \"#utility.yul\":5684:5698   */\n      add\n        /* \"#utility.yul\":5677:5698   */\n      swap1\n      pop\n        /* \"#utility.yul\":5633:5853   */\n      jump(tag_516)\n    tag_518:\n        /* \"#utility.yul\":5637:5658   */\n      pop\n        /* \"#utility.yul\":5251:5859   */\n      pop\n      pop\n        /* \"#utility.yul\":5149:5859   */\n      swap4\n      swap3\n      pop\n      pop\n      pop\n      jump\t// out\n        /* \"#utility.yul\":5882:6252   */\n    tag_419:\n        /* \"#utility.yul\":5953:5958   */\n      0x00\n        /* \"#utility.yul\":6002:6005   */\n      dup3\n        /* \"#utility.yul\":5995:5999   */\n      0x1f\n        /* \"#utility.yul\":5987:5993   */\n      dup4\n        /* \"#utility.yul\":5983:6000   */\n      add\n        /* \"#utility.yul\":5979:6006   */\n      slt\n        /* \"#utility.yul\":5969:6091   */\n      tag_521\n      jumpi\n        /* \"#utility.yul\":6010:6089   */\n      tag_522\n      tag_410\n      jump\t// in\n    tag_522:\n        /* \"#utility.yul\":5969:6091   */\n    tag_521:\n        /* \"#utility.yul\":6127:6133   */\n      dup2\n        /* \"#utility.yul\":6114:6134   */\n      calldataload\n        /* \"#utility.yul\":6152:6246   */\n      tag_523\n        /* \"#utility.yul\":6242:6245   */\n      dup5\n        /* \"#utility.yul\":6234:6240   */\n      dup3\n        /* \"#utility.yul\":6227:6231   */\n      0x20\n        /* \"#utility.yul\":6219:6225   */\n      dup7\n        /* \"#utility.yul\":6215:6232   */\n      add\n        /* \"#utility.yul\":6152:6246   */\n      tag_418\n      jump\t// in\n    tag_523:\n        /* \"#utility.yul\":6143:6246   */\n      swap2\n      pop\n        /* \"#utility.yul\":5959:6252   */\n      pop\n        /* \"#utility.yul\":5882:6252   */\n      swap3\n      swap2\n      pop\n      pop\n      jump\t// out\n        /* \"#utility.yul\":6258:6797   */\n    tag_81:\n        /* \"#utility.yul\":6342:6348   */\n      0x00\n        /* \"#utility.yul\":6391:6393   */\n      0x20\n        /* \"#utility.yul\":6379:6388   */\n      dup3\n        /* \"#utility.yul\":6370:6377   */\n      dup5\n        /* \"#utility.yul\":6366:6389   */\n      sub\n        /* \"#utility.yul\":6362:6394   */\n      slt\n        /* \"#utility.yul\":6359:6478   */\n      iszero\n      tag_525\n      jumpi\n        /* \"#utility.yul\":6397:6476   */\n      tag_526\n      tag_393\n      jump\t// in\n    tag_526:\n        /* \"#utility.yul\":6359:6478   */\n    tag_525:\n        /* \"#utility.yul\":6545:6546   */\n      0x00\n        /* \"#utility.yul\":6534:6543   */\n      dup3\n        /* \"#utility.yul\":6530:6547   */\n      add\n        /* \"#utility.yul\":6517:6548   */\n      calldataload\n        /* \"#utility.yul\":6575:6593   */\n      0xffffffffffffffff\n        /* \"#utility.yul\":6567:6573   */\n      dup2\n        /* \"#utility.yul\":6564:6594   */\n      gt\n        /* \"#utility.yul\":6561:6678   */\n      iszero\n      tag_527\n      jumpi\n        /* \"#utility.yul\":6597:6676   */\n      tag_528\n      tag_394\n      jump\t// in\n    tag_528:\n        /* \"#utility.yul\":6561:6678   */\n    tag_527:\n        /* \"#utility.yul\":6702:6780   */\n      tag_529\n        /* \"#utility.yul\":6772:6779   */\n      dup5\n        /* \"#utility.yul\":6763:6769   */\n      dup3\n        /* \"#utility.yul\":6752:6761   */\n      dup6\n        /* \"#utility.yul\":6748:6770   */\n      add\n        /* \"#utility.yul\":6702:6780   */\n      tag_419\n      jump\t// in\n    tag_529:\n        /* \"#utility.yul\":6692:6780   */\n      swap2\n      pop\n        /* \"#utility.yul\":6488:6790   */\n      pop\n        /* \"#utility.yul\":6258:6797   */\n      swap3\n      swap2\n      pop\n      pop\n      jump\t// out\n        /* \"#utility.yul\":6803:6902   */\n    tag_420:\n        /* \"#utility.yul\":6855:6861   */\n      0x00\n        /* \"#utility.yul\":6889:6894   */\n      dup2\n        /* \"#utility.yul\":6883:6895   */\n      mload\n        /* \"#utility.yul\":6873:6895   */\n      swap1\n      pop\n        /* \"#utility.yul\":6803:6902   */\n      swap2\n      swap1\n      pop\n      jump\t// out\n        /* \"#utility.yul\":6908:7077   */\n    tag_421:\n        /* \"#utility.yul\":6992:7003   */\n      0x00\n        /* \"#utility.yul\":7026:7032   */\n      dup3\n        /* \"#utility.yul\":7021:7024   */\n      dup3\n        /* \"#utility.yul\":7014:7033   */\n      mstore\n        /* \"#utility.yul\":7066:7070   */\n      0x20\n        /* \"#utility.yul\":7061:7064   */\n      dup3\n        /* \"#utility.yul\":7057:7071   */\n      add\n        /* \"#utility.yul\":7042:7071   */\n      swap1\n      pop\n        /* \"#utility.yul\":6908:7077   */\n      swap3\n      swap2\n      pop\n      pop\n      jump\t// out\n        /* \"#utility.yul\":7083:7222   */\n    tag_422:\n        /* \"#utility.yul\":7172:7178   */\n      dup3\n        /* \"#utility.yul\":7167:7170   */\n      dup2\n        /* \"#utility.yul\":7162:7165   */\n      dup4\n        /* \"#utility.yul\":7156:7179   */\n      mcopy\n        /* \"#utility.yul\":7213:7214   */\n      0x00\n        /* \"#utility.yul\":7204:7210   */\n      dup4\n        /* \"#utility.yul\":7199:7202   */\n      dup4\n        /* \"#utility.yul\":7195:7211   */\n      add\n        /* \"#utility.yul\":7188:7215   */\n      mstore\n        /* \"#utility.yul\":7083:7222   */\n      pop\n      pop\n      pop\n      jump\t// out\n        /* \"#utility.yul\":7228:7605   */\n    tag_423:\n        /* \"#utility.yul\":7316:7319   */\n      0x00\n        /* \"#utility.yul\":7344:7383   */\n      tag_534\n        /* \"#utility.yul\":7377:7382   */\n      dup3\n        /* \"#utility.yul\":7344:7383   */\n      tag_420\n      jump\t// in\n    tag_534:\n        /* \"#utility.yul\":7399:7470   */\n      tag_535\n        /* \"#utility.yul\":7463:7469   */\n      dup2\n        /* \"#utility.yul\":7458:7461   */\n      dup6\n        /* \"#utility.yul\":7399:7470   */\n      tag_421\n      jump\t// in\n    tag_535:\n        /* \"#utility.yul\":7392:7470   */\n      swap4\n      pop\n        /* \"#utility.yul\":7479:7544   */\n      tag_536\n        /* \"#utility.yul\":7537:7543   */\n      dup2\n        /* \"#utility.yul\":7532:7535   */\n      dup6\n        /* \"#utility.yul\":7525:7529   */\n      0x20\n        /* \"#utility.yul\":7518:7523   */\n      dup7\n        /* \"#utility.yul\":7514:7530   */\n      add\n        /* \"#utility.yul\":7479:7544   */\n      tag_422\n      jump\t// in\n    tag_536:\n        /* \"#utility.yul\":7569:7598   */\n      tag_537\n        /* \"#utility.yul\":7591:7597   */\n      dup2\n        /* \"#utility.yul\":7569:7598   */\n      tag_411\n      jump\t// in\n    tag_537:\n        /* \"#utility.yul\":7564:7567   */\n      dup5\n        /* \"#utility.yul\":7560:7599   */\n      add\n        /* \"#utility.yul\":7553:7599   */\n      swap2\n      pop\n        /* \"#utility.yul\":7320:7605   */\n      pop\n        /* \"#utility.yul\":7228:7605   */\n      swap3\n      swap2\n      pop\n      pop\n      jump\t// out\n        /* \"#utility.yul\":7611:7924   */\n    tag_88:\n        /* \"#utility.yul\":7724:7728   */\n      0x00\n        /* \"#utility.yul\":7762:7764   */\n      0x20\n        /* \"#utility.yul\":7751:7760   */\n      dup3\n        /* \"#utility.yul\":7747:7765   */\n      add\n        /* \"#utility.yul\":7739:7765   */\n      swap1\n      pop\n        /* \"#utility.yul\":7811:7820   */\n      dup2\n        /* \"#utility.yul\":7805:7809   */\n      dup2\n        /* \"#utility.yul\":7801:7821   */\n      sub\n        /* \"#utility.yul\":7797:7798   */\n      0x00\n        /* \"#utility.yul\":7786:7795   */\n      dup4\n        /* \"#utility.yul\":7782:7799   */\n      add\n        /* \"#utility.yul\":7775:7822   */\n      mstore\n        /* \"#utility.yul\":7839:7917   */\n      tag_539\n        /* \"#utility.yul\":7912:7916   */\n      dup2\n        /* \"#utility.yul\":7903:7909   */\n      dup5\n        /* \"#utility.yul\":7839:7917   */\n      tag_423\n      jump\t// in\n    tag_539:\n        /* \"#utility.yul\":7831:7917   */\n      swap1\n      pop\n        /* \"#utility.yul\":7611:7924   */\n      swap3\n      swap2\n      pop\n      pop\n      jump\t// out\n        /* \"#utility.yul\":7930:8039   */\n    tag_424:\n        /* \"#utility.yul\":8011:8032   */\n      tag_541\n        /* \"#utility.yul\":8026:8031   */\n      dup2\n        /* \"#utility.yul\":8011:8032   */\n      tag_395\n      jump\t// in\n    tag_541:\n        /* \"#utility.yul\":8006:8009   */\n      dup3\n        /* \"#utility.yul\":7999:8033   */\n      mstore\n        /* \"#utility.yul\":7930:8039   */\n      pop\n      pop\n      jump\t// out\n        /* \"#utility.yul\":8045:8255   */\n    tag_94:\n        /* \"#utility.yul\":8132:8136   */\n      0x00\n        /* \"#utility.yul\":8170:8172   */\n      0x20\n        /* \"#utility.yul\":8159:8168   */\n      dup3\n        /* \"#utility.yul\":8155:8173   */\n      add\n        /* \"#utility.yul\":8147:8173   */\n      swap1\n      pop\n        /* \"#utility.yul\":8183:8248   */\n      tag_543\n        /* \"#utility.yul\":8245:8246   */\n      0x00\n        /* \"#utility.yul\":8234:8243   */\n      dup4\n        /* \"#utility.yul\":8230:8247   */\n      add\n        /* \"#utility.yul\":8221:8227   */\n      dup5\n        /* \"#utility.yul\":8183:8248   */\n      tag_424\n      jump\t// in\n    tag_543:\n        /* \"#utility.yul\":8045:8255   */\n      swap3\n      swap2\n      pop\n      pop\n      jump\t// out\n        /* \"#utility.yul\":8261:8590   */\n    tag_98:\n        /* \"#utility.yul\":8320:8326   */\n      0x00\n        /* \"#utility.yul\":8369:8371   */\n      0x20\n        /* \"#utility.yul\":8357:8366   */\n      dup3\n        /* \"#utility.yul\":8348:8355   */\n      dup5\n        /* \"#utility.yul\":8344:8367   */\n      sub\n        /* \"#utility.yul\":8340:8372   */\n      slt\n        /* \"#utility.yul\":8337:8456   */\n      iszero\n      tag_545\n      jumpi\n        /* \"#utility.yul\":8375:8454   */\n      tag_546\n      tag_393\n      jump\t// in\n    tag_546:\n        /* \"#utility.yul\":8337:8456   */\n    tag_545:\n        /* \"#utility.yul\":8495:8496   */\n      0x00\n        /* \"#utility.yul\":8520:8573   */\n      tag_547\n        /* \"#utility.yul\":8565:8572   */\n      dup5\n        /* \"#utility.yul\":8556:8562   */\n      dup3\n        /* \"#utility.yul\":8545:8554   */\n      dup6\n        /* \"#utility.yul\":8541:8563   */\n      add\n        /* \"#utility.yul\":8520:8573   */\n      tag_417\n      jump\t// in\n    tag_547:\n        /* \"#utility.yul\":8510:8573   */\n      swap2\n      pop\n        /* \"#utility.yul\":8466:8583   */\n      pop\n        /* \"#utility.yul\":8261:8590   */\n      swap3\n      swap2\n      pop\n      pop\n      jump\t// out\n        /* \"#utility.yul\":8596:8761   */\n    tag_425:\n        /* \"#utility.yul\":8736:8753   */\n      0x4e6f2076616c756520696d206265740000000000000000000000000000000000\n        /* \"#utility.yul\":8732:8733   */\n      0x00\n        /* \"#utility.yul\":8724:8730   */\n      dup3\n        /* \"#utility.yul\":8720:8734   */\n      add\n        /* \"#utility.yul\":8713:8754   */\n      mstore\n        /* \"#utility.yul\":8596:8761   */\n      pop\n      jump\t// out\n        /* \"#utility.yul\":8767:9133   */\n    tag_426:\n        /* \"#utility.yul\":8909:8912   */\n      0x00\n        /* \"#utility.yul\":8930:8997   */\n      tag_550\n        /* \"#utility.yul\":8994:8996   */\n      0x0f\n        /* \"#utility.yul\":8989:8992   */\n      dup4\n        /* \"#utility.yul\":8930:8997   */\n      tag_421\n      jump\t// in\n    tag_550:\n        /* \"#utility.yul\":8923:8997   */\n      swap2\n      pop\n        /* \"#utility.yul\":9006:9099   */\n      tag_551\n        /* \"#utility.yul\":9095:9098   */\n      dup3\n        /* \"#utility.yul\":9006:9099   */\n      tag_425\n      jump\t// in\n    tag_551:\n        /* \"#utility.yul\":9124:9126   */\n      0x20\n        /* \"#utility.yul\":9119:9122   */\n      dup3\n        /* \"#utility.yul\":9115:9127   */\n      add\n        /* \"#utility.yul\":9108:9127   */\n      swap1\n      pop\n        /* \"#utility.yul\":8767:9133   */\n      swap2\n      swap1\n      pop\n      jump\t// out\n        /* \"#utility.yul\":9139:9558   */\n    tag_116:\n        /* \"#utility.yul\":9305:9309   */\n      0x00\n        /* \"#utility.yul\":9343:9345   */\n      0x20\n        /* \"#utility.yul\":9332:9341   */\n      dup3\n        /* \"#utility.yul\":9328:9346   */\n      add\n        /* \"#utility.yul\":9320:9346   */\n      swap1\n      pop\n        /* \"#utility.yul\":9392:9401   */\n      dup2\n        /* \"#utility.yul\":9386:9390   */\n      dup2\n        /* \"#utility.yul\":9382:9402   */\n      sub\n        /* \"#utility.yul\":9378:9379   */\n      0x00\n        /* \"#utility.yul\":9367:9376   */\n      dup4\n        /* \"#utility.yul\":9363:9380   */\n      add\n        /* \"#utility.yul\":9356:9403   */\n      mstore\n        /* \"#utility.yul\":9420:9551   */\n      tag_553\n        /* \"#utility.yul\":9546:9550   */\n      dup2\n        /* \"#utility.yul\":9420:9551   */\n      tag_426\n      jump\t// in\n    tag_553:\n        /* \"#utility.yul\":9412:9551   */\n      swap1\n      pop\n        /* \"#utility.yul\":9139:9558   */\n      swap2\n      swap1\n      pop\n      jump\t// out\n        /* \"#utility.yul\":9564:9732   */\n    tag_427:\n        /* \"#utility.yul\":9704:9724   */\n      0x42657420616c726561647920706c616365640000000000000000000000000000\n        /* \"#utility.yul\":9700:9701   */\n      0x00\n        /* \"#utility.yul\":9692:9698   */\n      dup3\n        /* \"#utility.yul\":9688:9702   */\n      add\n        /* \"#utility.yul\":9681:9725   */\n      mstore\n        /* \"#utility.yul\":9564:9732   */\n      pop\n      jump\t// out\n        /* \"#utility.yul\":9738:10104   */\n    tag_428:\n        /* \"#utility.yul\":9880:9883   */\n      0x00\n        /* \"#utility.yul\":9901:9968   */\n      tag_556\n        /* \"#utility.yul\":9965:9967   */\n      0x12\n        /* \"#utility.yul\":9960:9963   */\n      dup4\n        /* \"#utility.yul\":9901:9968   */\n      tag_421\n      jump\t// in\n    tag_556:\n        /* \"#utility.yul\":9894:9968   */\n      swap2\n      pop\n        /* \"#utility.yul\":9977:10070   */\n      tag_557\n        /* \"#utility.yul\":10066:10069   */\n      dup3\n        /* \"#utility.yul\":9977:10070   */\n      tag_427\n      jump\t// in\n    tag_557:\n        /* \"#utility.yul\":10095:10097   */\n      0x20\n        /* \"#utility.yul\":10090:10093   */\n      dup3\n        /* \"#utility.yul\":10086:10098   */\n      add\n        /* \"#utility.yul\":10079:10098   */\n      swap1\n      pop\n        /* \"#utility.yul\":9738:10104   */\n      swap2\n      swap1\n      pop\n      jump\t// out\n        /* \"#utility.yul\":10110:10529   */\n    tag_119:\n        /* \"#utility.yul\":10276:10280   */\n      0x00\n        /* \"#utility.yul\":10314:10316   */\n      0x20\n        /* \"#utility.yul\":10303:10312   */\n      dup3\n        /* \"#utility.yul\":10299:10317   */\n      add\n        /* \"#utility.yul\":10291:10317   */\n      swap1\n      pop\n        /* \"#utility.yul\":10363:10372   */\n      dup2\n        /* \"#utility.yul\":10357:10361   */\n      dup2\n        /* \"#utility.yul\":10353:10373   */\n      sub\n        /* \"#utility.yul\":10349:10350   */\n      0x00\n        /* \"#utility.yul\":10338:10347   */\n      dup4\n        /* \"#utility.yul\":10334:10351   */\n      add\n        /* \"#utility.yul\":10327:10374   */\n      mstore\n        /* \"#utility.yul\":10391:10522   */\n      tag_559\n        /* \"#utility.yul\":10517:10521   */\n      dup2\n        /* \"#utility.yul\":10391:10522   */\n      tag_428\n      jump\t// in\n    tag_559:\n        /* \"#utility.yul\":10383:10522   */\n      swap1\n      pop\n        /* \"#utility.yul\":10110:10529   */\n      swap2\n      swap1\n      pop\n      jump\t// out\n        /* \"#utility.yul\":10535:10715   */\n    tag_429:\n        /* \"#utility.yul\":10583:10660   */\n      0x4e487b7100000000000000000000000000000000000000000000000000000000\n        /* \"#utility.yul\":10580:10581   */\n      0x00\n        /* \"#utility.yul\":10573:10661   */\n      mstore\n        /* \"#utility.yul\":10680:10684   */\n      0x11\n        /* \"#utility.yul\":10677:10678   */\n      0x04\n        /* \"#utility.yul\":10670:10685   */\n      mstore\n        /* \"#utility.yul\":10704:10708   */\n      0x24\n        /* \"#utility.yul\":10701:10702   */\n      0x00\n        /* \"#utility.yul\":10694:10709   */\n      revert\n        /* \"#utility.yul\":10721:10912   */\n    tag_122:\n        /* \"#utility.yul\":10761:10764   */\n      0x00\n        /* \"#utility.yul\":10780:10800   */\n      tag_562\n        /* \"#utility.yul\":10798:10799   */\n      dup3\n        /* \"#utility.yul\":10780:10800   */\n      tag_402\n      jump\t// in\n    tag_562:\n        /* \"#utility.yul\":10775:10800   */\n      swap2\n      pop\n        /* \"#utility.yul\":10814:10834   */\n      tag_563\n        /* \"#utility.yul\":10832:10833   */\n      dup4\n        /* \"#utility.yul\":10814:10834   */\n      tag_402\n      jump\t// in\n    tag_563:\n        /* \"#utility.yul\":10809:10834   */\n      swap3\n      pop\n        /* \"#utility.yul\":10857:10858   */\n      dup3\n        /* \"#utility.yul\":10854:10855   */\n      dup3\n        /* \"#utility.yul\":10850:10859   */\n      add\n        /* \"#utility.yul\":10843:10859   */\n      swap1\n      pop\n        /* \"#utility.yul\":10878:10881   */\n      dup1\n        /* \"#utility.yul\":10875:10876   */\n      dup3\n        /* \"#utility.yul\":10872:10882   */\n      gt\n        /* \"#utility.yul\":10869:10905   */\n      iszero\n      tag_564\n      jumpi\n        /* \"#utility.yul\":10885:10903   */\n      tag_565\n      tag_429\n      jump\t// in\n    tag_565:\n        /* \"#utility.yul\":10869:10905   */\n    tag_564:\n        /* \"#utility.yul\":10721:10912   */\n      swap3\n      swap2\n      pop\n      pop\n      jump\t// out\n        /* \"#utility.yul\":10918:11036   */\n    tag_430:\n        /* \"#utility.yul\":11005:11029   */\n      tag_567\n        /* \"#utility.yul\":11023:11028   */\n      dup2\n        /* \"#utility.yul\":11005:11029   */\n      tag_399\n      jump\t// in\n    tag_567:\n        /* \"#utility.yul\":11000:11003   */\n      dup3\n        /* \"#utility.yul\":10993:11030   */\n      mstore\n        /* \"#utility.yul\":10918:11036   */\n      pop\n      pop\n      jump\t// out\n        /* \"#utility.yul\":11042:11264   */\n    tag_130:\n        /* \"#utility.yul\":11135:11139   */\n      0x00\n        /* \"#utility.yul\":11173:11175   */\n      0x20\n        /* \"#utility.yul\":11162:11171   */\n      dup3\n        /* \"#utility.yul\":11158:11176   */\n      add\n        /* \"#utility.yul\":11150:11176   */\n      swap1\n      pop\n        /* \"#utility.yul\":11186:11257   */\n      tag_569\n        /* \"#utility.yul\":11254:11255   */\n      0x00\n        /* \"#utility.yul\":11243:11252   */\n      dup4\n        /* \"#utility.yul\":11239:11256   */\n      add\n        /* \"#utility.yul\":11230:11236   */\n      dup5\n        /* \"#utility.yul\":11186:11257   */\n      tag_430\n      jump\t// in\n    tag_569:\n        /* \"#utility.yul\":11042:11264   */\n      swap3\n      swap2\n      pop\n      pop\n      jump\t// out\n        /* \"#utility.yul\":11270:11437   */\n    tag_431:\n        /* \"#utility.yul\":11410:11429   */\n      0x416c72656164792066696e616c697a6564000000000000000000000000000000\n        /* \"#utility.yul\":11406:11407   */\n      0x00\n        /* \"#utility.yul\":11398:11404   */\n      dup3\n        /* \"#utility.yul\":11394:11408   */\n      add\n        /* \"#utility.yul\":11387:11430   */\n      mstore\n        /* \"#utility.yul\":11270:11437   */\n      pop\n      jump\t// out\n        /* \"#utility.yul\":11443:11809   */\n    tag_432:\n        /* \"#utility.yul\":11585:11588   */\n      0x00\n        /* \"#utility.yul\":11606:11673   */\n      tag_572\n        /* \"#utility.yul\":11670:11672   */\n      0x11\n        /* \"#utility.yul\":11665:11668   */\n      dup4\n        /* \"#utility.yul\":11606:11673   */\n      tag_421\n      jump\t// in\n    tag_572:\n        /* \"#utility.yul\":11599:11673   */\n      swap2\n      pop\n        /* \"#utility.yul\":11682:11775   */\n      tag_573\n        /* \"#utility.yul\":11771:11774   */\n      dup3\n        /* \"#utility.yul\":11682:11775   */\n      tag_431\n      jump\t// in\n    tag_573:\n        /* \"#utility.yul\":11800:11802   */\n      0x20\n        /* \"#utility.yul\":11795:11798   */\n      dup3\n        /* \"#utility.yul\":11791:11803   */\n      add\n        /* \"#utility.yul\":11784:11803   */\n      swap1\n      pop\n        /* \"#utility.yul\":11443:11809   */\n      swap2\n      swap1\n      pop\n      jump\t// out\n        /* \"#utility.yul\":11815:12234   */\n    tag_134:\n        /* \"#utility.yul\":11981:11985   */\n      0x00\n        /* \"#utility.yul\":12019:12021   */\n      0x20\n        /* \"#utility.yul\":12008:12017   */\n      dup3\n        /* \"#utility.yul\":12004:12022   */\n      add\n        /* \"#utility.yul\":11996:12022   */\n      swap1\n      pop\n        /* \"#utility.yul\":12068:12077   */\n      dup2\n        /* \"#utility.yul\":12062:12066   */\n      dup2\n        /* \"#utility.yul\":12058:12078   */\n      sub\n        /* \"#utility.yul\":12054:12055   */\n      0x00\n        /* \"#utility.yul\":12043:12052   */\n      dup4\n        /* \"#utility.yul\":12039:12056   */\n      add\n        /* \"#utility.yul\":12032:12079   */\n      mstore\n        /* \"#utility.yul\":12096:12227   */\n      tag_575\n        /* \"#utility.yul\":12222:12226   */\n      dup2\n        /* \"#utility.yul\":12096:12227   */\n      tag_432\n      jump\t// in\n    tag_575:\n        /* \"#utility.yul\":12088:12227   */\n      swap1\n      pop\n        /* \"#utility.yul\":11815:12234   */\n      swap2\n      swap1\n      pop\n      jump\t// out\n        /* \"#utility.yul\":12240:12407   */\n    tag_433:\n        /* \"#utility.yul\":12380:12399   */\n      0x496e76616c69642074696d657374616d70000000000000000000000000000000\n        /* \"#utility.yul\":12376:12377   */\n      0x00\n        /* \"#utility.yul\":12368:12374   */\n      dup3\n        /* \"#utility.yul\":12364:12378   */\n      add\n        /* \"#utility.yul\":12357:12400   */\n      mstore\n        /* \"#utility.yul\":12240:12407   */\n      pop\n      jump\t// out\n        /* \"#utility.yul\":12413:12779   */\n    tag_434:\n        /* \"#utility.yul\":12555:12558   */\n      0x00\n        /* \"#utility.yul\":12576:12643   */\n      tag_578\n        /* \"#utility.yul\":12640:12642   */\n      0x11\n        /* \"#utility.yul\":12635:12638   */\n      dup4\n        /* \"#utility.yul\":12576:12643   */\n      tag_421\n      jump\t// in\n    tag_578:\n        /* \"#utility.yul\":12569:12643   */\n      swap2\n      pop\n        /* \"#utility.yul\":12652:12745   */\n      tag_579\n        /* \"#utility.yul\":12741:12744   */\n      dup3\n        /* \"#utility.yul\":12652:12745   */\n      tag_433\n      jump\t// in\n    tag_579:\n        /* \"#utility.yul\":12770:12772   */\n      0x20\n        /* \"#utility.yul\":12765:12768   */\n      dup3\n        /* \"#utility.yul\":12761:12773   */\n      add\n        /* \"#utility.yul\":12754:12773   */\n      swap1\n      pop\n        /* \"#utility.yul\":12413:12779   */\n      swap2\n      swap1\n      pop\n      jump\t// out\n        /* \"#utility.yul\":12785:13204   */\n    tag_138:\n        /* \"#utility.yul\":12951:12955   */\n      0x00\n        /* \"#utility.yul\":12989:12991   */\n      0x20\n        /* \"#utility.yul\":12978:12987   */\n      dup3\n        /* \"#utility.yul\":12974:12992   */\n      add\n        /* \"#utility.yul\":12966:12992   */\n      swap1\n      pop\n        /* \"#utility.yul\":13038:13047   */\n      dup2\n        /* \"#utility.yul\":13032:13036   */\n      dup2\n        /* \"#utility.yul\":13028:13048   */\n      sub\n        /* \"#utility.yul\":13024:13025   */\n      0x00\n        /* \"#utility.yul\":13013:13022   */\n      dup4\n        /* \"#utility.yul\":13009:13026   */\n      add\n        /* \"#utility.yul\":13002:13049   */\n      mstore\n        /* \"#utility.yul\":13066:13197   */\n      tag_581\n        /* \"#utility.yul\":13192:13196   */\n      dup2\n        /* \"#utility.yul\":13066:13197   */\n      tag_434\n      jump\t// in\n    tag_581:\n        /* \"#utility.yul\":13058:13197   */\n      swap1\n      pop\n        /* \"#utility.yul\":12785:13204   */\n      swap2\n      swap1\n      pop\n      jump\t// out\n        /* \"#utility.yul\":13210:13373   */\n    tag_435:\n        /* \"#utility.yul\":13350:13365   */\n      0x4e6f742066696e616c697a656400000000000000000000000000000000000000\n        /* \"#utility.yul\":13346:13347   */\n      0x00\n        /* \"#utility.yul\":13338:13344   */\n      dup3\n        /* \"#utility.yul\":13334:13348   */\n      add\n        /* \"#utility.yul\":13327:13366   */\n      mstore\n        /* \"#utility.yul\":13210:13373   */\n      pop\n      jump\t// out\n        /* \"#utility.yul\":13379:13745   */\n    tag_436:\n        /* \"#utility.yul\":13521:13524   */\n      0x00\n        /* \"#utility.yul\":13542:13609   */\n      tag_584\n        /* \"#utility.yul\":13606:13608   */\n      0x0d\n        /* \"#utility.yul\":13601:13604   */\n      dup4\n        /* \"#utility.yul\":13542:13609   */\n      tag_421\n      jump\t// in\n    tag_584:\n        /* \"#utility.yul\":13535:13609   */\n      swap2\n      pop\n        /* \"#utility.yul\":13618:13711   */\n      tag_585\n        /* \"#utility.yul\":13707:13710   */\n      dup3\n        /* \"#utility.yul\":13618:13711   */\n      tag_435\n      jump\t// in\n    tag_585:\n        /* \"#utility.yul\":13736:13738   */\n      0x20\n        /* \"#utility.yul\":13731:13734   */\n      dup3\n        /* \"#utility.yul\":13727:13739   */\n      add\n        /* \"#utility.yul\":13720:13739   */\n      swap1\n      pop\n        /* \"#utility.yul\":13379:13745   */\n      swap2\n      swap1\n      pop\n      jump\t// out\n        /* \"#utility.yul\":13751:14170   */\n    tag_146:\n        /* \"#utility.yul\":13917:13921   */\n      0x00\n        /* \"#utility.yul\":13955:13957   */\n      0x20\n        /* \"#utility.yul\":13944:13953   */\n      dup3\n        /* \"#utility.yul\":13940:13958   */\n      add\n        /* \"#utility.yul\":13932:13958   */\n      swap1\n      pop\n        /* \"#utility.yul\":14004:14013   */\n      dup2\n        /* \"#utility.yul\":13998:14002   */\n      dup2\n        /* \"#utility.yul\":13994:14014   */\n      sub\n        /* \"#utility.yul\":13990:13991   */\n      0x00\n        /* \"#utility.yul\":13979:13988   */\n      dup4\n        /* \"#utility.yul\":13975:13992   */\n      add\n        /* \"#utility.yul\":13968:14015   */\n      mstore\n        /* \"#utility.yul\":14032:14163   */\n      tag_587\n        /* \"#utility.yul\":14158:14162   */\n      dup2\n        /* \"#utility.yul\":14032:14163   */\n      tag_436\n      jump\t// in\n    tag_587:\n        /* \"#utility.yul\":14024:14163   */\n      swap1\n      pop\n        /* \"#utility.yul\":13751:14170   */\n      swap2\n      swap1\n      pop\n      jump\t// out\n        /* \"#utility.yul\":14176:14337   */\n    tag_437:\n        /* \"#utility.yul\":14316:14329   */\n      0x446964206e6f742077696e000000000000000000000000000000000000000000\n        /* \"#utility.yul\":14312:14313   */\n      0x00\n        /* \"#utility.yul\":14304:14310   */\n      dup3\n        /* \"#utility.yul\":14300:14314   */\n      add\n        /* \"#utility.yul\":14293:14330   */\n      mstore\n        /* \"#utility.yul\":14176:14337   */\n      pop\n      jump\t// out\n        /* \"#utility.yul\":14343:14709   */\n    tag_438:\n        /* \"#utility.yul\":14485:14488   */\n      0x00\n        /* \"#utility.yul\":14506:14573   */\n      tag_590\n        /* \"#utility.yul\":14570:14572   */\n      0x0b\n        /* \"#utility.yul\":14565:14568   */\n      dup4\n        /* \"#utility.yul\":14506:14573   */\n      tag_421\n      jump\t// in\n    tag_590:\n        /* \"#utility.yul\":14499:14573   */\n      swap2\n      pop\n        /* \"#utility.yul\":14582:14675   */\n      tag_591\n        /* \"#utility.yul\":14671:14674   */\n      dup3\n        /* \"#utility.yul\":14582:14675   */\n      tag_437\n      jump\t// in\n    tag_591:\n        /* \"#utility.yul\":14700:14702   */\n      0x20\n        /* \"#utility.yul\":14695:14698   */\n      dup3\n        /* \"#utility.yul\":14691:14703   */\n      add\n        /* \"#utility.yul\":14684:14703   */\n      swap1\n      pop\n        /* \"#utility.yul\":14343:14709   */\n      swap2\n      swap1\n      pop\n      jump\t// out\n        /* \"#utility.yul\":14715:15134   */\n    tag_149:\n        /* \"#utility.yul\":14881:14885   */\n      0x00\n        /* \"#utility.yul\":14919:14921   */\n      0x20\n        /* \"#utility.yul\":14908:14917   */\n      dup3\n        /* \"#utility.yul\":14904:14922   */\n      add\n        /* \"#utility.yul\":14896:14922   */\n      swap1\n      pop\n        /* \"#utility.yul\":14968:14977   */\n      dup2\n        /* \"#utility.yul\":14962:14966   */\n      dup2\n        /* \"#utility.yul\":14958:14978   */\n      sub\n        /* \"#utility.yul\":14954:14955   */\n      0x00\n        /* \"#utility.yul\":14943:14952   */\n      dup4\n        /* \"#utility.yul\":14939:14956   */\n      add\n        /* \"#utility.yul\":14932:14979   */\n      mstore\n        /* \"#utility.yul\":14996:15127   */\n      tag_593\n        /* \"#utility.yul\":15122:15126   */\n      dup2\n        /* \"#utility.yul\":14996:15127   */\n      tag_438\n      jump\t// in\n    tag_593:\n        /* \"#utility.yul\":14988:15127   */\n      swap1\n      pop\n        /* \"#utility.yul\":14715:15134   */\n      swap2\n      swap1\n      pop\n      jump\t// out\n        /* \"#utility.yul\":15140:15305   */\n    tag_439:\n        /* \"#utility.yul\":15280:15297   */\n      0x416c726561647920636c61696d65640000000000000000000000000000000000\n        /* \"#utility.yul\":15276:15277   */\n      0x00\n        /* \"#utility.yul\":15268:15274   */\n      dup3\n        /* \"#utility.yul\":15264:15278   */\n      add\n        /* \"#utility.yul\":15257:15298   */\n      mstore\n        /* \"#utility.yul\":15140:15305   */\n      pop\n      jump\t// out\n        /* \"#utility.yul\":15311:15677   */\n    tag_440:\n        /* \"#utility.yul\":15453:15456   */\n      0x00\n        /* \"#utility.yul\":15474:15541   */\n      tag_596\n        /* \"#utility.yul\":15538:15540   */\n      0x0f\n        /* \"#utility.yul\":15533:15536   */\n      dup4\n        /* \"#utility.yul\":15474:15541   */\n      tag_421\n      jump\t// in\n    tag_596:\n        /* \"#utility.yul\":15467:15541   */\n      swap2\n      pop\n        /* \"#utility.yul\":15550:15643   */\n      tag_597\n        /* \"#utility.yul\":15639:15642   */\n      dup3\n        /* \"#utility.yul\":15550:15643   */\n      tag_439\n      jump\t// in\n    tag_597:\n        /* \"#utility.yul\":15668:15670   */\n      0x20\n        /* \"#utility.yul\":15663:15666   */\n      dup3\n        /* \"#utility.yul\":15659:15671   */\n      add\n        /* \"#utility.yul\":15652:15671   */\n      swap1\n      pop\n        /* \"#utility.yul\":15311:15677   */\n      swap2\n      swap1\n      pop\n      jump\t// out\n        /* \"#utility.yul\":15683:16102   */\n    tag_152:\n        /* \"#utility.yul\":15849:15853   */\n      0x00\n        /* \"#utility.yul\":15887:15889   */\n      0x20\n        /* \"#utility.yul\":15876:15885   */\n      dup3\n        /* \"#utility.yul\":15872:15890   */\n      add\n        /* \"#utility.yul\":15864:15890   */\n      swap1\n      pop\n        /* \"#utility.yul\":15936:15945   */\n      dup2\n        /* \"#utility.yul\":15930:15934   */\n      dup2\n        /* \"#utility.yul\":15926:15946   */\n      sub\n        /* \"#utility.yul\":15922:15923   */\n      0x00\n        /* \"#utility.yul\":15911:15920   */\n      dup4\n        /* \"#utility.yul\":15907:15924   */\n      add\n        /* \"#utility.yul\":15900:15947   */\n      mstore\n        /* \"#utility.yul\":15964:16095   */\n      tag_599\n        /* \"#utility.yul\":16090:16094   */\n      dup2\n        /* \"#utility.yul\":15964:16095   */\n      tag_440\n      jump\t// in\n    tag_599:\n        /* \"#utility.yul\":15956:16095   */\n      swap1\n      pop\n        /* \"#utility.yul\":15683:16102   */\n      swap2\n      swap1\n      pop\n      jump\t// out\n        /* \"#utility.yul\":16108:16302   */\n    tag_171:\n        /* \"#utility.yul\":16148:16152   */\n      0x00\n        /* \"#utility.yul\":16168:16188   */\n      tag_601\n        /* \"#utility.yul\":16186:16187   */\n      dup3\n        /* \"#utility.yul\":16168:16188   */\n      tag_402\n      jump\t// in\n    tag_601:\n        /* \"#utility.yul\":16163:16188   */\n      swap2\n      pop\n        /* \"#utility.yul\":16202:16222   */\n      tag_602\n        /* \"#utility.yul\":16220:16221   */\n      dup4\n        /* \"#utility.yul\":16202:16222   */\n      tag_402\n      jump\t// in\n    tag_602:\n        /* \"#utility.yul\":16197:16222   */\n      swap3\n      pop\n        /* \"#utility.yul\":16246:16247   */\n      dup3\n        /* \"#utility.yul\":16243:16244   */\n      dup3\n        /* \"#utility.yul\":16239:16248   */\n      sub\n        /* \"#utility.yul\":16231:16248   */\n      swap1\n      pop\n        /* \"#utility.yul\":16270:16271   */\n      dup2\n        /* \"#utility.yul\":16264:16268   */\n      dup2\n        /* \"#utility.yul\":16261:16272   */\n      gt\n        /* \"#utility.yul\":16258:16295   */\n      iszero\n      tag_603\n      jumpi\n        /* \"#utility.yul\":16275:16293   */\n      tag_604\n      tag_429\n      jump\t// in\n    tag_604:\n        /* \"#utility.yul\":16258:16295   */\n    tag_603:\n        /* \"#utility.yul\":16108:16302   */\n      swap3\n      swap2\n      pop\n      pop\n      jump\t// out\n        /* \"#utility.yul\":16308:16486   */\n    tag_441:\n        /* \"#utility.yul\":16448:16478   */\n      0x42657420626967676572207468616e2077696e6e696e6720706f6f6c00000000\n        /* \"#utility.yul\":16444:16445   */\n      0x00\n        /* \"#utility.yul\":16436:16442   */\n      dup3\n        /* \"#utility.yul\":16432:16446   */\n      add\n        /* \"#utility.yul\":16425:16479   */\n      mstore\n        /* \"#utility.yul\":16308:16486   */\n      pop\n      jump\t// out\n        /* \"#utility.yul\":16492:16858   */\n    tag_442:\n        /* \"#utility.yul\":16634:16637   */\n      0x00\n        /* \"#utility.yul\":16655:16722   */\n      tag_607\n        /* \"#utility.yul\":16719:16721   */\n      0x1c\n        /* \"#utility.yul\":16714:16717   */\n      dup4\n        /* \"#utility.yul\":16655:16722   */\n      tag_421\n      jump\t// in\n    tag_607:\n        /* \"#utility.yul\":16648:16722   */\n      swap2\n      pop\n        /* \"#utility.yul\":16731:16824   */\n      tag_608\n        /* \"#utility.yul\":16820:16823   */\n      dup3\n        /* \"#utility.yul\":16731:16824   */\n      tag_441\n      jump\t// in\n    tag_608:\n        /* \"#utility.yul\":16849:16851   */\n      0x20\n        /* \"#utility.yul\":16844:16847   */\n      dup3\n        /* \"#utility.yul\":16840:16852   */\n      add\n        /* \"#utility.yul\":16833:16852   */\n      swap1\n      pop\n        /* \"#utility.yul\":16492:16858   */\n      swap2\n      swap1\n      pop\n      jump\t// out\n        /* \"#utility.yul\":16864:17283   */\n    tag_186:\n        /* \"#utility.yul\":17030:17034   */\n      0x00\n        /* \"#utility.yul\":17068:17070   */\n      0x20\n        /* \"#utility.yul\":17057:17066   */\n      dup3\n        /* \"#utility.yul\":17053:17071   */\n      add\n        /* \"#utility.yul\":17045:17071   */\n      swap1\n      pop\n        /* \"#utility.yul\":17117:17126   */\n      dup2\n        /* \"#utility.yul\":17111:17115   */\n      dup2\n        /* \"#utility.yul\":17107:17127   */\n      sub\n        /* \"#utility.yul\":17103:17104   */\n      0x00\n        /* \"#utility.yul\":17092:17101   */\n      dup4\n        /* \"#utility.yul\":17088:17105   */\n      add\n        /* \"#utility.yul\":17081:17128   */\n      mstore\n        /* \"#utility.yul\":17145:17276   */\n      tag_610\n        /* \"#utility.yul\":17271:17275   */\n      dup2\n        /* \"#utility.yul\":17145:17276   */\n      tag_442\n      jump\t// in\n    tag_610:\n        /* \"#utility.yul\":17137:17276   */\n      swap1\n      pop\n        /* \"#utility.yul\":16864:17283   */\n      swap2\n      swap1\n      pop\n      jump\t// out\n        /* \"#utility.yul\":17289:17699   */\n    tag_190:\n        /* \"#utility.yul\":17329:17336   */\n      0x00\n        /* \"#utility.yul\":17352:17372   */\n      tag_612\n        /* \"#utility.yul\":17370:17371   */\n      dup3\n        /* \"#utility.yul\":17352:17372   */\n      tag_402\n      jump\t// in\n    tag_612:\n        /* \"#utility.yul\":17347:17372   */\n      swap2\n      pop\n        /* \"#utility.yul\":17386:17406   */\n      tag_613\n        /* \"#utility.yul\":17404:17405   */\n      dup4\n        /* \"#utility.yul\":17386:17406   */\n      tag_402\n      jump\t// in\n    tag_613:\n        /* \"#utility.yul\":17381:17406   */\n      swap3\n      pop\n        /* \"#utility.yul\":17441:17442   */\n      dup3\n        /* \"#utility.yul\":17438:17439   */\n      dup3\n        /* \"#utility.yul\":17434:17443   */\n      mul\n        /* \"#utility.yul\":17463:17493   */\n      tag_614\n        /* \"#utility.yul\":17481:17492   */\n      dup2\n        /* \"#utility.yul\":17463:17493   */\n      tag_402\n      jump\t// in\n    tag_614:\n        /* \"#utility.yul\":17452:17493   */\n      swap2\n      pop\n        /* \"#utility.yul\":17642:17643   */\n      dup3\n        /* \"#utility.yul\":17633:17640   */\n      dup3\n        /* \"#utility.yul\":17629:17644   */\n      div\n        /* \"#utility.yul\":17626:17627   */\n      dup5\n        /* \"#utility.yul\":17623:17645   */\n      eq\n        /* \"#utility.yul\":17603:17604   */\n      dup4\n        /* \"#utility.yul\":17596:17605   */\n      iszero\n        /* \"#utility.yul\":17576:17659   */\n      or\n        /* \"#utility.yul\":17553:17692   */\n      tag_615\n      jumpi\n        /* \"#utility.yul\":17672:17690   */\n      tag_616\n      tag_429\n      jump\t// in\n    tag_616:\n        /* \"#utility.yul\":17553:17692   */\n    tag_615:\n        /* \"#utility.yul\":17337:17699   */\n      pop\n        /* \"#utility.yul\":17289:17699   */\n      swap3\n      swap2\n      pop\n      pop\n      jump\t// out\n        /* \"#utility.yul\":17705:17885   */\n    tag_443:\n        /* \"#utility.yul\":17753:17830   */\n      0x4e487b7100000000000000000000000000000000000000000000000000000000\n        /* \"#utility.yul\":17750:17751   */\n      0x00\n        /* \"#utility.yul\":17743:17831   */\n      mstore\n        /* \"#utility.yul\":17850:17854   */\n      0x12\n        /* \"#utility.yul\":17847:17848   */\n      0x04\n        /* \"#utility.yul\":17840:17855   */\n      mstore\n        /* \"#utility.yul\":17874:17878   */\n      0x24\n        /* \"#utility.yul\":17871:17872   */\n      0x00\n        /* \"#utility.yul\":17864:17879   */\n      revert\n        /* \"#utility.yul\":17891:18076   */\n    tag_192:\n        /* \"#utility.yul\":17931:17932   */\n      0x00\n        /* \"#utility.yul\":17948:17968   */\n      tag_619\n        /* \"#utility.yul\":17966:17967   */\n      dup3\n        /* \"#utility.yul\":17948:17968   */\n      tag_402\n      jump\t// in\n    tag_619:\n        /* \"#utility.yul\":17943:17968   */\n      swap2\n      pop\n        /* \"#utility.yul\":17982:18002   */\n      tag_620\n        /* \"#utility.yul\":18000:18001   */\n      dup4\n        /* \"#utility.yul\":17982:18002   */\n      tag_402\n      jump\t// in\n    tag_620:\n        /* \"#utility.yul\":17977:18002   */\n      swap3\n      pop\n        /* \"#utility.yul\":18021:18022   */\n      dup3\n        /* \"#utility.yul\":18011:18046   */\n      tag_621\n      jumpi\n        /* \"#utility.yul\":18026:18044   */\n      tag_622\n      tag_443\n      jump\t// in\n    tag_622:\n        /* \"#utility.yul\":18011:18046   */\n    tag_621:\n        /* \"#utility.yul\":18068:18069   */\n      dup3\n        /* \"#utility.yul\":18065:18066   */\n      dup3\n        /* \"#utility.yul\":18061:18070   */\n      div\n        /* \"#utility.yul\":18056:18070   */\n      swap1\n      pop\n        /* \"#utility.yul\":17891:18076   */\n      swap3\n      swap2\n      pop\n      pop\n      jump\t// out\n        /* \"#utility.yul\":18082:18262   */\n    tag_204:\n        /* \"#utility.yul\":18130:18207   */\n      0x4e487b7100000000000000000000000000000000000000000000000000000000\n        /* \"#utility.yul\":18127:18128   */\n      0x00\n        /* \"#utility.yul\":18120:18208   */\n      mstore\n        /* \"#utility.yul\":18227:18231   */\n      0x32\n        /* \"#utility.yul\":18224:18225   */\n      0x04\n        /* \"#utility.yul\":18217:18232   */\n      mstore\n        /* \"#utility.yul\":18251:18255   */\n      0x24\n        /* \"#utility.yul\":18248:18249   */\n      0x00\n        /* \"#utility.yul\":18241:18256   */\n      revert\n        /* \"#utility.yul\":18268:18444   */\n    tag_251:\n        /* \"#utility.yul\":18300:18301   */\n      0x00\n        /* \"#utility.yul\":18317:18337   */\n      tag_625\n        /* \"#utility.yul\":18335:18336   */\n      dup3\n        /* \"#utility.yul\":18317:18337   */\n      tag_402\n      jump\t// in\n    tag_625:\n        /* \"#utility.yul\":18312:18337   */\n      swap2\n      pop\n        /* \"#utility.yul\":18351:18371   */\n      tag_626\n        /* \"#utility.yul\":18369:18370   */\n      dup4\n        /* \"#utility.yul\":18351:18371   */\n      tag_402\n      jump\t// in\n    tag_626:\n        /* \"#utility.yul\":18346:18371   */\n      swap3\n      pop\n        /* \"#utility.yul\":18390:18391   */\n      dup3\n        /* \"#utility.yul\":18380:18415   */\n      tag_627\n      jumpi\n        /* \"#utility.yul\":18395:18413   */\n      tag_628\n      tag_443\n      jump\t// in\n    tag_628:\n        /* \"#utility.yul\":18380:18415   */\n    tag_627:\n        /* \"#utility.yul\":18436:18437   */\n      dup3\n        /* \"#utility.yul\":18433:18434   */\n      dup3\n        /* \"#utility.yul\":18429:18438   */\n      mod\n        /* \"#utility.yul\":18424:18438   */\n      swap1\n      pop\n        /* \"#utility.yul\":18268:18444   */\n      swap3\n      swap2\n      pop\n      pop\n      jump\t// out\n        /* \"#utility.yul\":18450:18683   */\n    tag_356:\n        /* \"#utility.yul\":18489:18492   */\n      0x00\n        /* \"#utility.yul\":18512:18536   */\n      tag_630\n        /* \"#utility.yul\":18530:18535   */\n      dup3\n        /* \"#utility.yul\":18512:18536   */\n      tag_402\n      jump\t// in\n    tag_630:\n        /* \"#utility.yul\":18503:18536   */\n      swap2\n      pop\n        /* \"#utility.yul\":18558:18624   */\n      0xffffffffffffffffffffffffffffffffffffffffffffffffffffffffffffffff\n        /* \"#utility.yul\":18551:18556   */\n      dup3\n        /* \"#utility.yul\":18548:18625   */\n      sub\n        /* \"#utility.yul\":18545:18648   */\n      tag_631\n      jumpi\n        /* \"#utility.yul\":18628:18646   */\n      tag_632\n      tag_429\n      jump\t// in\n    tag_632:\n        /* \"#utility.yul\":18545:18648   */\n    tag_631:\n        /* \"#utility.yul\":18675:18676   */\n      0x01\n        /* \"#utility.yul\":18668:18673   */\n      dup3\n        /* \"#utility.yul\":18664:18677   */\n      add\n        /* \"#utility.yul\":18657:18677   */\n      swap1\n      pop\n        /* \"#utility.yul\":18450:18683   */\n      swap2\n      swap1\n      pop\n      jump\t// out\n        /* \"#utility.yul\":18689:19021   */\n    tag_375:\n        /* \"#utility.yul\":18810:18814   */\n      0x00\n        /* \"#utility.yul\":18848:18850   */\n      0x40\n        /* \"#utility.yul\":18837:18846   */\n      dup3\n        /* \"#utility.yul\":18833:18851   */\n      add\n        /* \"#utility.yul\":18825:18851   */\n      swap1\n      pop\n        /* \"#utility.yul\":18861:18932   */\n      tag_634\n        /* \"#utility.yul\":18929:18930   */\n      0x00\n        /* \"#utility.yul\":18918:18927   */\n      dup4\n        /* \"#utility.yul\":18914:18931   */\n      add\n        /* \"#utility.yul\":18905:18911   */\n      dup6\n        /* \"#utility.yul\":18861:18932   */\n      tag_403\n      jump\t// in\n    tag_634:\n        /* \"#utility.yul\":18942:19014   */\n      tag_635\n        /* \"#utility.yul\":19010:19012   */\n      0x20\n        /* \"#utility.yul\":18999:19008   */\n      dup4\n        /* \"#utility.yul\":18995:19013   */\n      add\n        /* \"#utility.yul\":18986:18992   */\n      dup5\n        /* \"#utility.yul\":18942:19014   */\n      tag_403\n      jump\t// in\n    tag_635:\n        /* \"#utility.yul\":18689:19021   */\n      swap4\n      swap3\n      pop\n      pop\n      pop\n      jump\t// out\n        /* \"#utility.yul\":19027:19104   */\n    tag_444:\n        /* \"#utility.yul\":19064:19071   */\n      0x00\n        /* \"#utility.yul\":19093:19098   */\n      dup2\n        /* \"#utility.yul\":19082:19098   */\n      swap1\n      pop\n        /* \"#utility.yul\":19027:19104   */\n      swap2\n      swap1\n      pop\n      jump\t// out\n        /* \"#utility.yul\":19110:19228   */\n    tag_445:\n        /* \"#utility.yul\":19197:19221   */\n      tag_638\n        /* \"#utility.yul\":19215:19220   */\n      dup2\n        /* \"#utility.yul\":19197:19221   */\n      tag_444\n      jump\t// in\n    tag_638:\n        /* \"#utility.yul\":19192:19195   */\n      dup3\n        /* \"#utility.yul\":19185:19222   */\n      mstore\n        /* \"#utility.yul\":19110:19228   */\n      pop\n      pop\n      jump\t// out\n        /* \"#utility.yul\":19234:19779   */\n    tag_383:\n        /* \"#utility.yul\":19407:19411   */\n      0x00\n        /* \"#utility.yul\":19445:19448   */\n      0x80\n        /* \"#utility.yul\":19434:19443   */\n      dup3\n        /* \"#utility.yul\":19430:19449   */\n      add\n        /* \"#utility.yul\":19422:19449   */\n      swap1\n      pop\n        /* \"#utility.yul\":19459:19530   */\n      tag_640\n        /* \"#utility.yul\":19527:19528   */\n      0x00\n        /* \"#utility.yul\":19516:19525   */\n      dup4\n        /* \"#utility.yul\":19512:19529   */\n      add\n        /* \"#utility.yul\":19503:19509   */\n      dup8\n        /* \"#utility.yul\":19459:19530   */\n      tag_445\n      jump\t// in\n    tag_640:\n        /* \"#utility.yul\":19540:19608   */\n      tag_641\n        /* \"#utility.yul\":19604:19606   */\n      0x20\n        /* \"#utility.yul\":19593:19602   */\n      dup4\n        /* \"#utility.yul\":19589:19607   */\n      add\n        /* \"#utility.yul\":19580:19586   */\n      dup7\n        /* \"#utility.yul\":19540:19608   */\n      tag_407\n      jump\t// in\n    tag_641:\n        /* \"#utility.yul\":19618:19690   */\n      tag_642\n        /* \"#utility.yul\":19686:19688   */\n      0x40\n        /* \"#utility.yul\":19675:19684   */\n      dup4\n        /* \"#utility.yul\":19671:19689   */\n      add\n        /* \"#utility.yul\":19662:19668   */\n      dup6\n        /* \"#utility.yul\":19618:19690   */\n      tag_445\n      jump\t// in\n    tag_642:\n        /* \"#utility.yul\":19700:19772   */\n      tag_643\n        /* \"#utility.yul\":19768:19770   */\n      0x60\n        /* \"#utility.yul\":19757:19766   */\n      dup4\n        /* \"#utility.yul\":19753:19771   */\n      add\n        /* \"#utility.yul\":19744:19750   */\n      dup5\n        /* \"#utility.yul\":19700:19772   */\n      tag_445\n      jump\t// in\n    tag_643:\n        /* \"#utility.yul\":19234:19779   */\n      swap6\n      swap5\n      pop\n      pop\n      pop\n      pop\n      pop\n      jump\t// out\n\n    auxdata: 0xa264697066735822122020815763cec3bd43abea94ca1f1c78354acb91bd18f5548a5221513196a0497964736f6c634300081a0033\n}\n",
				"bytecode": {
					"linkReferences": {},
					"object": "60806040525f600255348015610013575f80fd5b506040516124d63803806124d6833981810160405281019061003591906100a7565b7f42544300000000000000000000000000000000000000000000000000000000005f81905550816001819055508060038190555050506100e5565b5f80fd5b5f819050919050565b61008681610074565b8114610090575f80fd5b50565b5f815190506100a18161007d565b92915050565b5f80604083850312156100bd576100bc610070565b5b5f6100ca85828601610093565b92505060206100db85828601610093565b9150509250929050565b6123e4806100f25f395ff3fe608060405260043610610113575f3560e01c80637a1fc2e21161009f578063c6788bdd11610063578063c6788bdd14610375578063e1152343146103b1578063efbe1c1c146103ed578063f50b2efe14610417578063f90c49241461043f57610113565b80637a1fc2e21461027f57806389a78f1a146102a9578063a3b5afb1146102e5578063b24ebfcc1461030f578063c274583a1461034b57610113565b80633ce142f5116100e65780633ce142f5146101c35780634bb278f3146101ff5780634e71d92d1461021557806355a547d51461022b5780636f1d4ea41461025557610113565b8063096a37781461011757806316934fc4146101335780631ce623831461016f57806327793f8714610199575b5f80fd5b610131600480360381019061012c91906119e2565b610469565b005b34801561013e575f80fd5b5061015960048036038101906101549190611a67565b610698565b6040516101669190611aaa565b60405180910390f35b34801561017a575f80fd5b506101836106ad565b6040516101909190611aaa565b60405180910390f35b3480156101a4575f80fd5b506101ad6106b3565b6040516101ba9190611adb565b60405180910390f35b3480156101ce575f80fd5b506101e960048036038101906101e49190611a67565b6106b9565b6040516101f69190611b0f565b60405180910390f35b34801561020a575f80fd5b5061021361074b565b005b348015610220575f80fd5b50610229610828565b005b348015610236575f80fd5b5061023f610ab2565b60405161024c9190611aaa565b60405180910390f35b348015610260575f80fd5b50610269610c0c565b6040516102769190611aaa565b60405180910390f35b34801561028a575f80fd5b50610293610c12565b6040516102a09190611aaa565b60405180910390f35b3480156102b4575f80fd5b506102cf60048036038101906102ca9190611a67565b610c18565b6040516102dc9190611b42565b60405180910390f35b3480156102f0575f80fd5b506102f9610c34565b6040516103069190611aaa565b60405180910390f35b34801561031a575f80fd5b5061033560048036038101906103309190611cd5565b610c3a565b6040516103429190611aaa565b60405180910390f35b348015610356575f80fd5b5061035f610c4b565b60405161036c9190611d7c565b60405180910390f35b348015610380575f80fd5b5061039b60048036038101906103969190611a67565b610c88565b6040516103a89190611dab565b60405180910390f35b3480156103bc575f80fd5b506103d760048036038101906103d29190611dc4565b610ca5565b6040516103e49190611aaa565b60405180910390f35b3480156103f8575f80fd5b50610401610d7e565b60405161040e9190611aaa565b60405180910390f35b348015610422575f80fd5b5061043d60048036038101906104389190611dc4565b610d84565b005b34801561044a575f80fd5b50610453610d87565b6040516104609190611b0f565b60405180910390f35b5f34036104ab576040517f08c379a00000000000000000000000000000000000000000000000000000000081526004016104a290611e39565b60405180910390fd5b5f60055f3373ffffffffffffffffffffffffffffffffffffffff1673ffffffffffffffffffffffffffffffffffffffff1681526020019081526020015f205f9054906101000a90045f0b5f0b14610537576040517f08c379a000000000000000000000000000000000000000000000000000000000815260040161052e90611ea1565b60405180910390fd5b80156105b257600160055f3373ffffffffffffffffffffffffffffffffffffffff1673ffffffffffffffffffffffffffffffffffffffff1681526020019081526020015f205f6101000a81548160ff02191690835f0b60ff1602179055503460085f8282546105a69190611eec565b92505081905550610642565b7fffffffffffffffffffffffffffffffffffffffffffffffffffffffffffffffff60055f3373ffffffffffffffffffffffffffffffffffffffff1673ffffffffffffffffffffffffffffffffffffffff1681526020019081526020015f205f6101000a81548160ff02191690835f0b60ff1602179055503460095f82825461063a9190611eec565b925050819055505b3460065f3373ffffffffffffffffffffffffffffffffffffffff1673ffffffffffffffffffffffffffffffffffffffff1681526020019081526020015f205f82825461068e9190611eec565b9250508190555050565b6006602052805f5260405f205f915090505481565b60015481565b60025481565b5f730c39486f770b26f5527bbbf942726537986cd7eb73ffffffffffffffffffffffffffffffffffffffff168273ffffffffffffffffffffffffffffffffffffffff1603610709575f9050610746565b816040517fec459bc000000000000000000000000000000000000000000000000000000000815260040161073d9190611f2e565b60405180910390fd5b919050565b5f6002541461078f576040517f08c379a000000000000000000000000000000000000000000000000000000000815260040161078690611f91565b60405180910390fd5b610797610ab2565b600354146107da576040517f08c379a00000000000000000000000000000000000000000000000000000000081526004016107d190611ff9565b60405180910390fd5b5f6107e55f54610d8f565b905060015481106107fd576001600281905550610825565b7fffffffffffffffffffffffffffffffffffffffffffffffffffffffffffffffff6002819055505b50565b5f6002540361086c576040517f08c379a000000000000000000000000000000000000000000000000000000000815260040161086390612061565b60405180910390fd5b60025460055f3373ffffffffffffffffffffffffffffffffffffffff1673ffffffffffffffffffffffffffffffffffffffff1681526020019081526020015f205f9054906101000a90045f0b5f0b146108fa576040517f08c379a00000000000000000000000000000000000000000000000000000000081526004016108f1906120c9565b60405180910390fd5b5f151560075f3373ffffffffffffffffffffffffffffffffffffffff1673ffffffffffffffffffffffffffffffffffffffff1681526020019081526020015f205f9054906101000a900460ff16151514610989576040517f08c379a000000000000000000000000000000000000000000000000000000000815260040161098090612131565b60405180910390fd5b5f60065f3373ffffffffffffffffffffffffffffffffffffffff1673ffffffffffffffffffffffffffffffffffffffff1681526020019081526020015f205490503373ffffffffffffffffffffffffffffffffffffffff166108fc6109ed83610ca5565b90811502906040515f60405180830381858888f19350505050158015610a15573d5f803e3d5ffd5b503373ffffffffffffffffffffffffffffffffffffffff166108fc8290811502906040515f60405180830381858888f19350505050158015610a59573d5f803e3d5ffd5b50600160075f3373ffffffffffffffffffffffffffffffffffffffff1673ffffffffffffffffffffffffffffffffffffffff1681526020019081526020015f205f6101000a81548160ff02191690831515021790555050565b5f80610abc610e28565b90505f610ac882610f35565b8161ffff16915080935081925050505f8103610b10576040517f8552ff3c00000000000000000000000000000000000000000000000000000000815260040160405180910390fd5b5f5b81811015610c06575f610b2484610fa2565b90505f80606886610b359190611eec565b90505f815f369050610b47919061214f565b9050803592505f8365ffffffffffff1603610b8e576040517f336dc9d000000000000000000000000000000000000000000000000000000000815260040160405180910390fd5b5f8803610ba5578265ffffffffffff169750610be7565b878365ffffffffffff1614610be6576040517fd9d1f46500000000000000000000000000000000000000000000000000000000815260040160405180910390fd5b5b8387610bf39190611eec565b9650505050508080600101915050610b12565b50505090565b60085481565b60045481565b6005602052805f5260405f205f915054906101000a90045f0b81565b60095481565b5f610c4482610fdf565b9050919050565b60606040518060400160405280601281526020017f72656473746f6e652d6d61696e2d64656d6f0000000000000000000000000000815250905090565b6007602052805f5260405f205f915054906101000a900460ff1681565b5f806305f5e10090505f600160025414610cc157600954610cc5565b6008545b905080841115610d0a576040517f08c379a0000000000000000000000000000000000000000000000000000000008152600401610d01906121cc565b60405180910390fd5b5f7fffffffffffffffffffffffffffffffffffffffffffffffffffffffffffffffff60025414610d3c57600854610d40565b6009545b90505f828487610d5091906121ea565b610d5a9190612258565b9050838282610d6991906121ea565b610d739190612258565b945050505050919050565b60035481565b50565b5f6001905090565b5f80600167ffffffffffffffff811115610dac57610dab611b6f565b5b604051908082528060200260200182016040528015610dda5781602001602082028036833780820191505090505b50905082815f81518110610df157610df0612288565b5b602002602001018181525050610e0681610ff0565b5f81518110610e1857610e17612288565b5b6020026020010151915050919050565b5f8060203603356602ed57011e000081166602ed57011e00001491505080610e7c576040517fe7764c9e00000000000000000000000000000000000000000000000000000000815260040160405180910390fd5b5f8036905060291115610ebb576040517f5796f78a00000000000000000000000000000000000000000000000000000000815260040160405180910390fd5b602936033590505f600960038362ffffff16610ed79190611eec565b610ee19190611eec565b90505f369050600282610ef49190611eec565b1115610f2c576040517fc30a7bd700000000000000000000000000000000000000000000000000000000815260040160405180910390fd5b80935050505090565b5f805f602084610f459190611eec565b90505f369050811115610f84576040517f5796f78a00000000000000000000000000000000000000000000000000000000815260040160405180910390fd5b80360335925082600285610f989190611eec565b9250925050915091565b5f805f610fae84611014565b91509150604e816020610fc19190611eec565b83610fcc91906121ea565b610fd69190611eec565b92505050919050565b5f610fe982611072565b9050919050565b60605f80610ffd846111c1565b9150915061100a81610d84565b8192505050919050565b5f805f805f60206041876110289190611eec565b6110329190611eec565b5f369050611040919061214f565b905080359250600381611053919061214f565b9050803591508262ffffff1694508163ffffffff169350505050915091565b5f60028251036110d05760028260018151811061109257611091612288565b5b6020026020010151835f815181106110ad576110ac612288565b5b60200260200101516110bf9190611eec565b6110c99190612258565b90506111bc565b5f82510361110a576040517f9e198af900000000000000000000000000000000000000000000000000000000815260040160405180910390fd5b61111382611431565b5f600283516111229190612258565b90505f6002845161113391906122b5565b0361119d575f83828151811061114c5761114b612288565b5b602002602001015184600184611162919061214f565b8151811061117357611172612288565b5b60200260200101516111859190611eec565b90506002816111949190612258565b925050506111bc565b8281815181106111b0576111af612288565b5b60200260200101519150505b919050565b60605f80835167ffffffffffffffff8111156111e0576111df611b6f565b5b60405190808252806020026020018201604052801561120e5781602001602082028036833780820191505090505b5090505f845167ffffffffffffffff81111561122d5761122c611b6f565b5b60405190808252806020026020018201604052801561125b5781602001602082028036833780820191505090505b5090505f855167ffffffffffffffff81111561127a57611279611b6f565b5b6040519080825280602002602001820160405280156112ad57816020015b60608152602001906001900390816112985790505b5090505f5b8651811015611339576112c3610d87565b60ff1667ffffffffffffffff8111156112df576112de611b6f565b5b60405190808252806020026020018201604052801561130d5781602001602082028036833780820191505090505b5082828151811061132157611320612288565b5b602002602001018190525080806001019150506112b2565b505f611343610e28565b90505f61134f82610f35565b8161ffff16915080935081925050505f60405190505f5b82811015611419575f61137c8b89898989611484565b80925081965050505f81036113bd576040517fdfb25a7900000000000000000000000000000000000000000000000000000000815260040160405180910390fd5b8881141580156113cd57505f8914155b15611404576040517f4cbc474200000000000000000000000000000000000000000000000000000000815260040160405180910390fd5b80985082604052818060010192505050611366565b506114248487611741565b9750505050505050915091565b805160208201602082028101815b8181101561147d57825b81811015611471578151815180821015611464578084528183525b5050602081019050611449565b5060208101905061143f565b5050505050565b5f805f805f61149286611014565b915091505f8060605f80600d6020876114ab9190611eec565b886114b691906121ea565b6114c09190611eec565b91505f60688c6114d09190611eec565b5f3690506114de919061214f565b90505f8360418e6114ef9190611eec565b6114f99190611eec565b5f369050611507919061214f565b90506115138482611540565b945083602086012095508135925061155b565b5f6040519050818152602081019050818101604052919050565b5f61154a83611526565b838382376020810391505092915050565b8265ffffffffffff169a5061157c8660418f6115779190611eec565b611884565b9650611587876106b9565b60ff16995050505050505050604e866115a09190611eec565b95505f805f5b8481101561172e576020848a6115bc9190611eec565b6115c69190611eec565b98506115d289856118fd565b80935081945050505f5b8d51811015611720578d81815181106115f8576115f7612288565b5b60200260200101518403611713575f8c828151811061161a57611619612288565b5b6020026020010151905061162e8189611975565b15801561165e575061163e610d87565b60ff168e838151811061165457611653612288565b5b6020026020010151105b1561170d57838c838151811061167757611676612288565b5b60200260200101518f848151811061169257611691612288565b5b6020026020010151815181106116ab576116aa612288565b5b6020026020010181815250508d82815181106116ca576116c9612288565b5b6020026020010180518091906116df906122e5565b815250506116ed818961198c565b8d8381518110611700576116ff612288565b5b6020026020010181815250505b50611720565b80806001019150506115dc565b5080806001019150506115a6565b5050508594505050509550959350505050565b60605f835167ffffffffffffffff81111561175f5761175e611b6f565b5b60405190808252806020026020018201604052801561178d5781602001602082028036833780820191505090505b5090505f611799610d87565b60ff1690505f5b855181101561187857818582815181106117bd576117bc612288565b5b60200260200101511015611824578481815181106117de576117dd612288565b5b6020026020010151826040517f2b13aef500000000000000000000000000000000000000000000000000000000815260040161181b92919061232c565b60405180910390fd5b5f61184887838151811061183b5761183a612288565b5b6020026020010151610c3a565b90508084838151811061185e5761185d612288565b5b6020026020010181815250505080806001019150506117a0565b50819250505092915050565b5f805f80843603803593506020810190508035925060208101905080355f1a9150506001868285856040515f81526020016040526040516118c8949392919061236b565b6020604051602081039080840390855afa1580156118e8573d5f803e3d5ffd5b50505060206040510351935050505092915050565b5f805f845f36905061190f919061214f565b905080359250602081013591506021841061196157836040517fc000fc420000000000000000000000000000000000000000000000000000000081526004016119589190611aaa565b60405180910390fd5b6008846020030282901c9150509250929050565b5f80826001901b841690505f811191505092915050565b5f816001901b8317905092915050565b5f604051905090565b5f80fd5b5f80fd5b5f8115159050919050565b6119c1816119ad565b81146119cb575f80fd5b50565b5f813590506119dc816119b8565b92915050565b5f602082840312156119f7576119f66119a5565b5b5f611a04848285016119ce565b91505092915050565b5f73ffffffffffffffffffffffffffffffffffffffff82169050919050565b5f611a3682611a0d565b9050919050565b611a4681611a2c565b8114611a50575f80fd5b50565b5f81359050611a6181611a3d565b92915050565b5f60208284031215611a7c57611a7b6119a5565b5b5f611a8984828501611a53565b91505092915050565b5f819050919050565b611aa481611a92565b82525050565b5f602082019050611abd5f830184611a9b565b92915050565b5f819050919050565b611ad581611ac3565b82525050565b5f602082019050611aee5f830184611acc565b92915050565b5f60ff82169050919050565b611b0981611af4565b82525050565b5f602082019050611b225f830184611b00565b92915050565b5f815f0b9050919050565b611b3c81611b28565b82525050565b5f602082019050611b555f830184611b33565b92915050565b5f80fd5b5f601f19601f8301169050919050565b7f4e487b71000000000000000000000000000000000000000000000000000000005f52604160045260245ffd5b611ba582611b5f565b810181811067ffffffffffffffff82111715611bc457611bc3611b6f565b5b80604052505050565b5f611bd661199c565b9050611be28282611b9c565b919050565b5f67ffffffffffffffff821115611c0157611c00611b6f565b5b602082029050602081019050919050565b5f80fd5b611c1f81611a92565b8114611c29575f80fd5b50565b5f81359050611c3a81611c16565b92915050565b5f611c52611c4d84611be7565b611bcd565b90508083825260208201905060208402830185811115611c7557611c74611c12565b5b835b81811015611c9e5780611c8a8882611c2c565b845260208401935050602081019050611c77565b5050509392505050565b5f82601f830112611cbc57611cbb611b5b565b5b8135611ccc848260208601611c40565b91505092915050565b5f60208284031215611cea57611ce96119a5565b5b5f82013567ffffffffffffffff811115611d0757611d066119a9565b5b611d1384828501611ca8565b91505092915050565b5f81519050919050565b5f82825260208201905092915050565b8281835e5f83830152505050565b5f611d4e82611d1c565b611d588185611d26565b9350611d68818560208601611d36565b611d7181611b5f565b840191505092915050565b5f6020820190508181035f830152611d948184611d44565b905092915050565b611da5816119ad565b82525050565b5f602082019050611dbe5f830184611d9c565b92915050565b5f60208284031215611dd957611dd86119a5565b5b5f611de684828501611c2c565b91505092915050565b7f4e6f2076616c756520696d2062657400000000000000000000000000000000005f82015250565b5f611e23600f83611d26565b9150611e2e82611def565b602082019050919050565b5f6020820190508181035f830152611e5081611e17565b9050919050565b7f42657420616c726561647920706c6163656400000000000000000000000000005f82015250565b5f611e8b601283611d26565b9150611e9682611e57565b602082019050919050565b5f6020820190508181035f830152611eb881611e7f565b9050919050565b7f4e487b71000000000000000000000000000000000000000000000000000000005f52601160045260245ffd5b5f611ef682611a92565b9150611f0183611a92565b9250828201905080821115611f1957611f18611ebf565b5b92915050565b611f2881611a2c565b82525050565b5f602082019050611f415f830184611f1f565b92915050565b7f416c72656164792066696e616c697a65640000000000000000000000000000005f82015250565b5f611f7b601183611d26565b9150611f8682611f47565b602082019050919050565b5f6020820190508181035f830152611fa881611f6f565b9050919050565b7f496e76616c69642074696d657374616d700000000000000000000000000000005f82015250565b5f611fe3601183611d26565b9150611fee82611faf565b602082019050919050565b5f6020820190508181035f83015261201081611fd7565b9050919050565b7f4e6f742066696e616c697a6564000000000000000000000000000000000000005f82015250565b5f61204b600d83611d26565b915061205682612017565b602082019050919050565b5f6020820190508181035f8301526120788161203f565b9050919050565b7f446964206e6f742077696e0000000000000000000000000000000000000000005f82015250565b5f6120b3600b83611d26565b91506120be8261207f565b602082019050919050565b5f6020820190508181035f8301526120e0816120a7565b9050919050565b7f416c726561647920636c61696d656400000000000000000000000000000000005f82015250565b5f61211b600f83611d26565b9150612126826120e7565b602082019050919050565b5f6020820190508181035f8301526121488161210f565b9050919050565b5f61215982611a92565b915061216483611a92565b925082820390508181111561217c5761217b611ebf565b5b92915050565b7f42657420626967676572207468616e2077696e6e696e6720706f6f6c000000005f82015250565b5f6121b6601c83611d26565b91506121c182612182565b602082019050919050565b5f6020820190508181035f8301526121e3816121aa565b9050919050565b5f6121f482611a92565b91506121ff83611a92565b925082820261220d81611a92565b9150828204841483151761222457612223611ebf565b5b5092915050565b7f4e487b71000000000000000000000000000000000000000000000000000000005f52601260045260245ffd5b5f61226282611a92565b915061226d83611a92565b92508261227d5761227c61222b565b5b828204905092915050565b7f4e487b71000000000000000000000000000000000000000000000000000000005f52603260045260245ffd5b5f6122bf82611a92565b91506122ca83611a92565b9250826122da576122d961222b565b5b828206905092915050565b5f6122ef82611a92565b91507fffffffffffffffffffffffffffffffffffffffffffffffffffffffffffffffff820361232157612320611ebf565b5b600182019050919050565b5f60408201905061233f5f830185611a9b565b61234c6020830184611a9b565b9392505050565b5f819050919050565b61236581612353565b82525050565b5f60808201905061237e5f83018761235c565b61238b6020830186611b00565b612398604083018561235c565b6123a5606083018461235c565b9594505050505056fea264697066735822122020815763cec3bd43abea94ca1f1c78354acb91bd18f5548a5221513196a0497964736f6c634300081a0033",
					"opcodes": "PUSH1 0x80 PUSH1 0x40 MSTORE PUSH0 PUSH1 0x2 SSTORE CALLVALUE DUP1 ISZERO PUSH2 0x13 JUMPI PUSH0 DUP1 REVERT JUMPDEST POP PUSH1 0x40 MLOAD PUSH2 0x24D6 CODESIZE SUB DUP1 PUSH2 0x24D6 DUP4 CODECOPY DUP2 DUP2 ADD PUSH1 0x40 MSTORE DUP2 ADD SWAP1 PUSH2 0x35 SWAP2 SWAP1 PUSH2 0xA7 JUMP JUMPDEST PUSH32 0x4254430000000000000000000000000000000000000000000000000000000000 PUSH0 DUP2 SWAP1 SSTORE POP DUP2 PUSH1 0x1 DUP2 SWAP1 SSTORE POP DUP1 PUSH1 0x3 DUP2 SWAP1 SSTORE POP POP POP PUSH2 0xE5 JUMP JUMPDEST PUSH0 DUP1 REVERT JUMPDEST PUSH0 DUP2 SWAP1 POP SWAP2 SWAP1 POP JUMP JUMPDEST PUSH2 0x86 DUP2 PUSH2 0x74 JUMP JUMPDEST DUP2 EQ PUSH2 0x90 JUMPI PUSH0 DUP1 REVERT JUMPDEST POP JUMP JUMPDEST PUSH0 DUP2 MLOAD SWAP1 POP PUSH2 0xA1 DUP2 PUSH2 0x7D JUMP JUMPDEST SWAP3 SWAP2 POP POP JUMP JUMPDEST PUSH0 DUP1 PUSH1 0x40 DUP4 DUP6 SUB SLT ISZERO PUSH2 0xBD JUMPI PUSH2 0xBC PUSH2 0x70 JUMP JUMPDEST JUMPDEST PUSH0 PUSH2 0xCA DUP6 DUP3 DUP7 ADD PUSH2 0x93 JUMP JUMPDEST SWAP3 POP POP PUSH1 0x20 PUSH2 0xDB DUP6 DUP3 DUP7 ADD PUSH2 0x93 JUMP JUMPDEST SWAP2 POP POP SWAP3 POP SWAP3 SWAP1 POP JUMP JUMPDEST PUSH2 0x23E4 DUP1 PUSH2 0xF2 PUSH0 CODECOPY PUSH0 RETURN INVALID PUSH1 0x80 PUSH1 0x40 MSTORE PUSH1 0x4 CALLDATASIZE LT PUSH2 0x113 JUMPI PUSH0 CALLDATALOAD PUSH1 0xE0 SHR DUP1 PUSH4 0x7A1FC2E2 GT PUSH2 0x9F JUMPI DUP1 PUSH4 0xC6788BDD GT PUSH2 0x63 JUMPI DUP1 PUSH4 0xC6788BDD EQ PUSH2 0x375 JUMPI DUP1 PUSH4 0xE1152343 EQ PUSH2 0x3B1 JUMPI DUP1 PUSH4 0xEFBE1C1C EQ PUSH2 0x3ED JUMPI DUP1 PUSH4 0xF50B2EFE EQ PUSH2 0x417 JUMPI DUP1 PUSH4 0xF90C4924 EQ PUSH2 0x43F JUMPI PUSH2 0x113 JUMP JUMPDEST DUP1 PUSH4 0x7A1FC2E2 EQ PUSH2 0x27F JUMPI DUP1 PUSH4 0x89A78F1A EQ PUSH2 0x2A9 JUMPI DUP1 PUSH4 0xA3B5AFB1 EQ PUSH2 0x2E5 JUMPI DUP1 PUSH4 0xB24EBFCC EQ PUSH2 0x30F JUMPI DUP1 PUSH4 0xC274583A EQ PUSH2 0x34B JUMPI PUSH2 0x113 JUMP JUMPDEST DUP1 PUSH4 0x3CE142F5 GT PUSH2 0xE6 JUMPI DUP1 PUSH4 0x3CE142F5 EQ PUSH2 0x1C3 JUMPI DUP1 PUSH4 0x4BB278F3 EQ PUSH2 0x1FF JUMPI DUP1 PUSH4 0x4E71D92D EQ PUSH2 0x215 JUMPI DUP1 PUSH4 0x55A547D5 EQ PUSH2 0x22B JUMPI DUP1 PUSH4 0x6F1D4EA4 EQ PUSH2 0x255 JUMPI PUSH2 0x113 JUMP JUMPDEST DUP1 PUSH4 0x96A3778 EQ PUSH2 0x117 JUMPI DUP1 PUSH4 0x16934FC4 EQ PUSH2 0x133 JUMPI DUP1 PUSH4 0x1CE62383 EQ PUSH2 0x16F JUMPI DUP1 PUSH4 0x27793F87 EQ PUSH2 0x199 JUMPI JUMPDEST PUSH0 DUP1 REVERT JUMPDEST PUSH2 0x131 PUSH1 0x4 DUP1 CALLDATASIZE SUB DUP2 ADD SWAP1 PUSH2 0x12C SWAP2 SWAP1 PUSH2 0x19E2 JUMP JUMPDEST PUSH2 0x469 JUMP JUMPDEST STOP JUMPDEST CALLVALUE DUP1 ISZERO PUSH2 0x13E JUMPI PUSH0 DUP1 REVERT JUMPDEST POP PUSH2 0x159 PUSH1 0x4 DUP1 CALLDATASIZE SUB DUP2 ADD SWAP1 PUSH2 0x154 SWAP2 SWAP1 PUSH2 0x1A67 JUMP JUMPDEST PUSH2 0x698 JUMP JUMPDEST PUSH1 0x40 MLOAD PUSH2 0x166 SWAP2 SWAP1 PUSH2 0x1AAA JUMP JUMPDEST PUSH1 0x40 MLOAD DUP1 SWAP2 SUB SWAP1 RETURN JUMPDEST CALLVALUE DUP1 ISZERO PUSH2 0x17A JUMPI PUSH0 DUP1 REVERT JUMPDEST POP PUSH2 0x183 PUSH2 0x6AD JUMP JUMPDEST PUSH1 0x40 MLOAD PUSH2 0x190 SWAP2 SWAP1 PUSH2 0x1AAA JUMP JUMPDEST PUSH1 0x40 MLOAD DUP1 SWAP2 SUB SWAP1 RETURN JUMPDEST CALLVALUE DUP1 ISZERO PUSH2 0x1A4 JUMPI PUSH0 DUP1 REVERT JUMPDEST POP PUSH2 0x1AD PUSH2 0x6B3 JUMP JUMPDEST PUSH1 0x40 MLOAD PUSH2 0x1BA SWAP2 SWAP1 PUSH2 0x1ADB JUMP JUMPDEST PUSH1 0x40 MLOAD DUP1 SWAP2 SUB SWAP1 RETURN JUMPDEST CALLVALUE DUP1 ISZERO PUSH2 0x1CE JUMPI PUSH0 DUP1 REVERT JUMPDEST POP PUSH2 0x1E9 PUSH1 0x4 DUP1 CALLDATASIZE SUB DUP2 ADD SWAP1 PUSH2 0x1E4 SWAP2 SWAP1 PUSH2 0x1A67 JUMP JUMPDEST PUSH2 0x6B9 JUMP JUMPDEST PUSH1 0x40 MLOAD PUSH2 0x1F6 SWAP2 SWAP1 PUSH2 0x1B0F JUMP JUMPDEST PUSH1 0x40 MLOAD DUP1 SWAP2 SUB SWAP1 RETURN JUMPDEST CALLVALUE DUP1 ISZERO PUSH2 0x20A JUMPI PUSH0 DUP1 REVERT JUMPDEST POP PUSH2 0x213 PUSH2 0x74B JUMP JUMPDEST STOP JUMPDEST CALLVALUE DUP1 ISZERO PUSH2 0x220 JUMPI PUSH0 DUP1 REVERT JUMPDEST POP PUSH2 0x229 PUSH2 0x828 JUMP JUMPDEST STOP JUMPDEST CALLVALUE DUP1 ISZERO PUSH2 0x236 JUMPI PUSH0 DUP1 REVERT JUMPDEST POP PUSH2 0x23F PUSH2 0xAB2 JUMP JUMPDEST PUSH1 0x40 MLOAD PUSH2 0x24C SWAP2 SWAP1 PUSH2 0x1AAA JUMP JUMPDEST PUSH1 0x40 MLOAD DUP1 SWAP2 SUB SWAP1 RETURN JUMPDEST CALLVALUE DUP1 ISZERO PUSH2 0x260 JUMPI PUSH0 DUP1 REVERT JUMPDEST POP PUSH2 0x269 PUSH2 0xC0C JUMP JUMPDEST PUSH1 0x40 MLOAD PUSH2 0x276 SWAP2 SWAP1 PUSH2 0x1AAA JUMP JUMPDEST PUSH1 0x40 MLOAD DUP1 SWAP2 SUB SWAP1 RETURN JUMPDEST CALLVALUE DUP1 ISZERO PUSH2 0x28A JUMPI PUSH0 DUP1 REVERT JUMPDEST POP PUSH2 0x293 PUSH2 0xC12 JUMP JUMPDEST PUSH1 0x40 MLOAD PUSH2 0x2A0 SWAP2 SWAP1 PUSH2 0x1AAA JUMP JUMPDEST PUSH1 0x40 MLOAD DUP1 SWAP2 SUB SWAP1 RETURN JUMPDEST CALLVALUE DUP1 ISZERO PUSH2 0x2B4 JUMPI PUSH0 DUP1 REVERT JUMPDEST POP PUSH2 0x2CF PUSH1 0x4 DUP1 CALLDATASIZE SUB DUP2 ADD SWAP1 PUSH2 0x2CA SWAP2 SWAP1 PUSH2 0x1A67 JUMP JUMPDEST PUSH2 0xC18 JUMP JUMPDEST PUSH1 0x40 MLOAD PUSH2 0x2DC SWAP2 SWAP1 PUSH2 0x1B42 JUMP JUMPDEST PUSH1 0x40 MLOAD DUP1 SWAP2 SUB SWAP1 RETURN JUMPDEST CALLVALUE DUP1 ISZERO PUSH2 0x2F0 JUMPI PUSH0 DUP1 REVERT JUMPDEST POP PUSH2 0x2F9 PUSH2 0xC34 JUMP JUMPDEST PUSH1 0x40 MLOAD PUSH2 0x306 SWAP2 SWAP1 PUSH2 0x1AAA JUMP JUMPDEST PUSH1 0x40 MLOAD DUP1 SWAP2 SUB SWAP1 RETURN JUMPDEST CALLVALUE DUP1 ISZERO PUSH2 0x31A JUMPI PUSH0 DUP1 REVERT JUMPDEST POP PUSH2 0x335 PUSH1 0x4 DUP1 CALLDATASIZE SUB DUP2 ADD SWAP1 PUSH2 0x330 SWAP2 SWAP1 PUSH2 0x1CD5 JUMP JUMPDEST PUSH2 0xC3A JUMP JUMPDEST PUSH1 0x40 MLOAD PUSH2 0x342 SWAP2 SWAP1 PUSH2 0x1AAA JUMP JUMPDEST PUSH1 0x40 MLOAD DUP1 SWAP2 SUB SWAP1 RETURN JUMPDEST CALLVALUE DUP1 ISZERO PUSH2 0x356 JUMPI PUSH0 DUP1 REVERT JUMPDEST POP PUSH2 0x35F PUSH2 0xC4B JUMP JUMPDEST PUSH1 0x40 MLOAD PUSH2 0x36C SWAP2 SWAP1 PUSH2 0x1D7C JUMP JUMPDEST PUSH1 0x40 MLOAD DUP1 SWAP2 SUB SWAP1 RETURN JUMPDEST CALLVALUE DUP1 ISZERO PUSH2 0x380 JUMPI PUSH0 DUP1 REVERT JUMPDEST POP PUSH2 0x39B PUSH1 0x4 DUP1 CALLDATASIZE SUB DUP2 ADD SWAP1 PUSH2 0x396 SWAP2 SWAP1 PUSH2 0x1A67 JUMP JUMPDEST PUSH2 0xC88 JUMP JUMPDEST PUSH1 0x40 MLOAD PUSH2 0x3A8 SWAP2 SWAP1 PUSH2 0x1DAB JUMP JUMPDEST PUSH1 0x40 MLOAD DUP1 SWAP2 SUB SWAP1 RETURN JUMPDEST CALLVALUE DUP1 ISZERO PUSH2 0x3BC JUMPI PUSH0 DUP1 REVERT JUMPDEST POP PUSH2 0x3D7 PUSH1 0x4 DUP1 CALLDATASIZE SUB DUP2 ADD SWAP1 PUSH2 0x3D2 SWAP2 SWAP1 PUSH2 0x1DC4 JUMP JUMPDEST PUSH2 0xCA5 JUMP JUMPDEST PUSH1 0x40 MLOAD PUSH2 0x3E4 SWAP2 SWAP1 PUSH2 0x1AAA JUMP JUMPDEST PUSH1 0x40 MLOAD DUP1 SWAP2 SUB SWAP1 RETURN JUMPDEST CALLVALUE DUP1 ISZERO PUSH2 0x3F8 JUMPI PUSH0 DUP1 REVERT JUMPDEST POP PUSH2 0x401 PUSH2 0xD7E JUMP JUMPDEST PUSH1 0x40 MLOAD PUSH2 0x40E SWAP2 SWAP1 PUSH2 0x1AAA JUMP JUMPDEST PUSH1 0x40 MLOAD DUP1 SWAP2 SUB SWAP1 RETURN JUMPDEST CALLVALUE DUP1 ISZERO PUSH2 0x422 JUMPI PUSH0 DUP1 REVERT JUMPDEST POP PUSH2 0x43D PUSH1 0x4 DUP1 CALLDATASIZE SUB DUP2 ADD SWAP1 PUSH2 0x438 SWAP2 SWAP1 PUSH2 0x1DC4 JUMP JUMPDEST PUSH2 0xD84 JUMP JUMPDEST STOP JUMPDEST CALLVALUE DUP1 ISZERO PUSH2 0x44A JUMPI PUSH0 DUP1 REVERT JUMPDEST POP PUSH2 0x453 PUSH2 0xD87 JUMP JUMPDEST PUSH1 0x40 MLOAD PUSH2 0x460 SWAP2 SWAP1 PUSH2 0x1B0F JUMP JUMPDEST PUSH1 0x40 MLOAD DUP1 SWAP2 SUB SWAP1 RETURN JUMPDEST PUSH0 CALLVALUE SUB PUSH2 0x4AB JUMPI PUSH1 0x40 MLOAD PUSH32 0x8C379A000000000000000000000000000000000000000000000000000000000 DUP2 MSTORE PUSH1 0x4 ADD PUSH2 0x4A2 SWAP1 PUSH2 0x1E39 JUMP JUMPDEST PUSH1 0x40 MLOAD DUP1 SWAP2 SUB SWAP1 REVERT JUMPDEST PUSH0 PUSH1 0x5 PUSH0 CALLER PUSH20 0xFFFFFFFFFFFFFFFFFFFFFFFFFFFFFFFFFFFFFFFF AND PUSH20 0xFFFFFFFFFFFFFFFFFFFFFFFFFFFFFFFFFFFFFFFF AND DUP2 MSTORE PUSH1 0x20 ADD SWAP1 DUP2 MSTORE PUSH1 0x20 ADD PUSH0 KECCAK256 PUSH0 SWAP1 SLOAD SWAP1 PUSH2 0x100 EXP SWAP1 DIV PUSH0 SIGNEXTEND PUSH0 SIGNEXTEND EQ PUSH2 0x537 JUMPI PUSH1 0x40 MLOAD PUSH32 0x8C379A000000000000000000000000000000000000000000000000000000000 DUP2 MSTORE PUSH1 0x4 ADD PUSH2 0x52E SWAP1 PUSH2 0x1EA1 JUMP JUMPDEST PUSH1 0x40 MLOAD DUP1 SWAP2 SUB SWAP1 REVERT JUMPDEST DUP1 ISZERO PUSH2 0x5B2 JUMPI PUSH1 0x1 PUSH1 0x5 PUSH0 CALLER PUSH20 0xFFFFFFFFFFFFFFFFFFFFFFFFFFFFFFFFFFFFFFFF AND PUSH20 0xFFFFFFFFFFFFFFFFFFFFFFFFFFFFFFFFFFFFFFFF AND DUP2 MSTORE PUSH1 0x20 ADD SWAP1 DUP2 MSTORE PUSH1 0x20 ADD PUSH0 KECCAK256 PUSH0 PUSH2 0x100 EXP DUP2 SLOAD DUP2 PUSH1 0xFF MUL NOT AND SWAP1 DUP4 PUSH0 SIGNEXTEND PUSH1 0xFF AND MUL OR SWAP1 SSTORE POP CALLVALUE PUSH1 0x8 PUSH0 DUP3 DUP3 SLOAD PUSH2 0x5A6 SWAP2 SWAP1 PUSH2 0x1EEC JUMP JUMPDEST SWAP3 POP POP DUP2 SWAP1 SSTORE POP PUSH2 0x642 JUMP JUMPDEST PUSH32 0xFFFFFFFFFFFFFFFFFFFFFFFFFFFFFFFFFFFFFFFFFFFFFFFFFFFFFFFFFFFFFFFF PUSH1 0x5 PUSH0 CALLER PUSH20 0xFFFFFFFFFFFFFFFFFFFFFFFFFFFFFFFFFFFFFFFF AND PUSH20 0xFFFFFFFFFFFFFFFFFFFFFFFFFFFFFFFFFFFFFFFF AND DUP2 MSTORE PUSH1 0x20 ADD SWAP1 DUP2 MSTORE PUSH1 0x20 ADD PUSH0 KECCAK256 PUSH0 PUSH2 0x100 EXP DUP2 SLOAD DUP2 PUSH1 0xFF MUL NOT AND SWAP1 DUP4 PUSH0 SIGNEXTEND PUSH1 0xFF AND MUL OR SWAP1 SSTORE POP CALLVALUE PUSH1 0x9 PUSH0 DUP3 DUP3 SLOAD PUSH2 0x63A SWAP2 SWAP1 PUSH2 0x1EEC JUMP JUMPDEST SWAP3 POP POP DUP2 SWAP1 SSTORE POP JUMPDEST CALLVALUE PUSH1 0x6 PUSH0 CALLER PUSH20 0xFFFFFFFFFFFFFFFFFFFFFFFFFFFFFFFFFFFFFFFF AND PUSH20 0xFFFFFFFFFFFFFFFFFFFFFFFFFFFFFFFFFFFFFFFF AND DUP2 MSTORE PUSH1 0x20 ADD SWAP1 DUP2 MSTORE PUSH1 0x20 ADD PUSH0 KECCAK256 PUSH0 DUP3 DUP3 SLOAD PUSH2 0x68E SWAP2 SWAP1 PUSH2 0x1EEC JUMP JUMPDEST SWAP3 POP POP DUP2 SWAP1 SSTORE POP POP JUMP JUMPDEST PUSH1 0x6 PUSH1 0x20 MSTORE DUP1 PUSH0 MSTORE PUSH1 0x40 PUSH0 KECCAK256 PUSH0 SWAP2 POP SWAP1 POP SLOAD DUP2 JUMP JUMPDEST PUSH1 0x1 SLOAD DUP2 JUMP JUMPDEST PUSH1 0x2 SLOAD DUP2 JUMP JUMPDEST PUSH0 PUSH20 0xC39486F770B26F5527BBBF942726537986CD7EB PUSH20 0xFFFFFFFFFFFFFFFFFFFFFFFFFFFFFFFFFFFFFFFF AND DUP3 PUSH20 0xFFFFFFFFFFFFFFFFFFFFFFFFFFFFFFFFFFFFFFFF AND SUB PUSH2 0x709 JUMPI PUSH0 SWAP1 POP PUSH2 0x746 JUMP JUMPDEST DUP2 PUSH1 0x40 MLOAD PUSH32 0xEC459BC000000000000000000000000000000000000000000000000000000000 DUP2 MSTORE PUSH1 0x4 ADD PUSH2 0x73D SWAP2 SWAP1 PUSH2 0x1F2E JUMP JUMPDEST PUSH1 0x40 MLOAD DUP1 SWAP2 SUB SWAP1 REVERT JUMPDEST SWAP2 SWAP1 POP JUMP JUMPDEST PUSH0 PUSH1 0x2 SLOAD EQ PUSH2 0x78F JUMPI PUSH1 0x40 MLOAD PUSH32 0x8C379A000000000000000000000000000000000000000000000000000000000 DUP2 MSTORE PUSH1 0x4 ADD PUSH2 0x786 SWAP1 PUSH2 0x1F91 JUMP JUMPDEST PUSH1 0x40 MLOAD DUP1 SWAP2 SUB SWAP1 REVERT JUMPDEST PUSH2 0x797 PUSH2 0xAB2 JUMP JUMPDEST PUSH1 0x3 SLOAD EQ PUSH2 0x7DA JUMPI PUSH1 0x40 MLOAD PUSH32 0x8C379A000000000000000000000000000000000000000000000000000000000 DUP2 MSTORE PUSH1 0x4 ADD PUSH2 0x7D1 SWAP1 PUSH2 0x1FF9 JUMP JUMPDEST PUSH1 0x40 MLOAD DUP1 SWAP2 SUB SWAP1 REVERT JUMPDEST PUSH0 PUSH2 0x7E5 PUSH0 SLOAD PUSH2 0xD8F JUMP JUMPDEST SWAP1 POP PUSH1 0x1 SLOAD DUP2 LT PUSH2 0x7FD JUMPI PUSH1 0x1 PUSH1 0x2 DUP2 SWAP1 SSTORE POP PUSH2 0x825 JUMP JUMPDEST PUSH32 0xFFFFFFFFFFFFFFFFFFFFFFFFFFFFFFFFFFFFFFFFFFFFFFFFFFFFFFFFFFFFFFFF PUSH1 0x2 DUP2 SWAP1 SSTORE POP JUMPDEST POP JUMP JUMPDEST PUSH0 PUSH1 0x2 SLOAD SUB PUSH2 0x86C JUMPI PUSH1 0x40 MLOAD PUSH32 0x8C379A000000000000000000000000000000000000000000000000000000000 DUP2 MSTORE PUSH1 0x4 ADD PUSH2 0x863 SWAP1 PUSH2 0x2061 JUMP JUMPDEST PUSH1 0x40 MLOAD DUP1 SWAP2 SUB SWAP1 REVERT JUMPDEST PUSH1 0x2 SLOAD PUSH1 0x5 PUSH0 CALLER PUSH20 0xFFFFFFFFFFFFFFFFFFFFFFFFFFFFFFFFFFFFFFFF AND PUSH20 0xFFFFFFFFFFFFFFFFFFFFFFFFFFFFFFFFFFFFFFFF AND DUP2 MSTORE PUSH1 0x20 ADD SWAP1 DUP2 MSTORE PUSH1 0x20 ADD PUSH0 KECCAK256 PUSH0 SWAP1 SLOAD SWAP1 PUSH2 0x100 EXP SWAP1 DIV PUSH0 SIGNEXTEND PUSH0 SIGNEXTEND EQ PUSH2 0x8FA JUMPI PUSH1 0x40 MLOAD PUSH32 0x8C379A000000000000000000000000000000000000000000000000000000000 DUP2 MSTORE PUSH1 0x4 ADD PUSH2 0x8F1 SWAP1 PUSH2 0x20C9 JUMP JUMPDEST PUSH1 0x40 MLOAD DUP1 SWAP2 SUB SWAP1 REVERT JUMPDEST PUSH0 ISZERO ISZERO PUSH1 0x7 PUSH0 CALLER PUSH20 0xFFFFFFFFFFFFFFFFFFFFFFFFFFFFFFFFFFFFFFFF AND PUSH20 0xFFFFFFFFFFFFFFFFFFFFFFFFFFFFFFFFFFFFFFFF AND DUP2 MSTORE PUSH1 0x20 ADD SWAP1 DUP2 MSTORE PUSH1 0x20 ADD PUSH0 KECCAK256 PUSH0 SWAP1 SLOAD SWAP1 PUSH2 0x100 EXP SWAP1 DIV PUSH1 0xFF AND ISZERO ISZERO EQ PUSH2 0x989 JUMPI PUSH1 0x40 MLOAD PUSH32 0x8C379A000000000000000000000000000000000000000000000000000000000 DUP2 MSTORE PUSH1 0x4 ADD PUSH2 0x980 SWAP1 PUSH2 0x2131 JUMP JUMPDEST PUSH1 0x40 MLOAD DUP1 SWAP2 SUB SWAP1 REVERT JUMPDEST PUSH0 PUSH1 0x6 PUSH0 CALLER PUSH20 0xFFFFFFFFFFFFFFFFFFFFFFFFFFFFFFFFFFFFFFFF AND PUSH20 0xFFFFFFFFFFFFFFFFFFFFFFFFFFFFFFFFFFFFFFFF AND DUP2 MSTORE PUSH1 0x20 ADD SWAP1 DUP2 MSTORE PUSH1 0x20 ADD PUSH0 KECCAK256 SLOAD SWAP1 POP CALLER PUSH20 0xFFFFFFFFFFFFFFFFFFFFFFFFFFFFFFFFFFFFFFFF AND PUSH2 0x8FC PUSH2 0x9ED DUP4 PUSH2 0xCA5 JUMP JUMPDEST SWAP1 DUP2 ISZERO MUL SWAP1 PUSH1 0x40 MLOAD PUSH0 PUSH1 0x40 MLOAD DUP1 DUP4 SUB DUP2 DUP6 DUP9 DUP9 CALL SWAP4 POP POP POP POP ISZERO DUP1 ISZERO PUSH2 0xA15 JUMPI RETURNDATASIZE PUSH0 DUP1 RETURNDATACOPY RETURNDATASIZE PUSH0 REVERT JUMPDEST POP CALLER PUSH20 0xFFFFFFFFFFFFFFFFFFFFFFFFFFFFFFFFFFFFFFFF AND PUSH2 0x8FC DUP3 SWAP1 DUP2 ISZERO MUL SWAP1 PUSH1 0x40 MLOAD PUSH0 PUSH1 0x40 MLOAD DUP1 DUP4 SUB DUP2 DUP6 DUP9 DUP9 CALL SWAP4 POP POP POP POP ISZERO DUP1 ISZERO PUSH2 0xA59 JUMPI RETURNDATASIZE PUSH0 DUP1 RETURNDATACOPY RETURNDATASIZE PUSH0 REVERT JUMPDEST POP PUSH1 0x1 PUSH1 0x7 PUSH0 CALLER PUSH20 0xFFFFFFFFFFFFFFFFFFFFFFFFFFFFFFFFFFFFFFFF AND PUSH20 0xFFFFFFFFFFFFFFFFFFFFFFFFFFFFFFFFFFFFFFFF AND DUP2 MSTORE PUSH1 0x20 ADD SWAP1 DUP2 MSTORE PUSH1 0x20 ADD PUSH0 KECCAK256 PUSH0 PUSH2 0x100 EXP DUP2 SLOAD DUP2 PUSH1 0xFF MUL NOT AND SWAP1 DUP4 ISZERO ISZERO MUL OR SWAP1 SSTORE POP POP JUMP JUMPDEST PUSH0 DUP1 PUSH2 0xABC PUSH2 0xE28 JUMP JUMPDEST SWAP1 POP PUSH0 PUSH2 0xAC8 DUP3 PUSH2 0xF35 JUMP JUMPDEST DUP2 PUSH2 0xFFFF AND SWAP2 POP DUP1 SWAP4 POP DUP2 SWAP3 POP POP POP PUSH0 DUP2 SUB PUSH2 0xB10 JUMPI PUSH1 0x40 MLOAD PUSH32 0x8552FF3C00000000000000000000000000000000000000000000000000000000 DUP2 MSTORE PUSH1 0x4 ADD PUSH1 0x40 MLOAD DUP1 SWAP2 SUB SWAP1 REVERT JUMPDEST PUSH0 JUMPDEST DUP2 DUP2 LT ISZERO PUSH2 0xC06 JUMPI PUSH0 PUSH2 0xB24 DUP5 PUSH2 0xFA2 JUMP JUMPDEST SWAP1 POP PUSH0 DUP1 PUSH1 0x68 DUP7 PUSH2 0xB35 SWAP2 SWAP1 PUSH2 0x1EEC JUMP JUMPDEST SWAP1 POP PUSH0 DUP2 PUSH0 CALLDATASIZE SWAP1 POP PUSH2 0xB47 SWAP2 SWAP1 PUSH2 0x214F JUMP JUMPDEST SWAP1 POP DUP1 CALLDATALOAD SWAP3 POP PUSH0 DUP4 PUSH6 0xFFFFFFFFFFFF AND SUB PUSH2 0xB8E JUMPI PUSH1 0x40 MLOAD PUSH32 0x336DC9D000000000000000000000000000000000000000000000000000000000 DUP2 MSTORE PUSH1 0x4 ADD PUSH1 0x40 MLOAD DUP1 SWAP2 SUB SWAP1 REVERT JUMPDEST PUSH0 DUP9 SUB PUSH2 0xBA5 JUMPI DUP3 PUSH6 0xFFFFFFFFFFFF AND SWAP8 POP PUSH2 0xBE7 JUMP JUMPDEST DUP8 DUP4 PUSH6 0xFFFFFFFFFFFF AND EQ PUSH2 0xBE6 JUMPI PUSH1 0x40 MLOAD PUSH32 0xD9D1F46500000000000000000000000000000000000000000000000000000000 DUP2 MSTORE PUSH1 0x4 ADD PUSH1 0x40 MLOAD DUP1 SWAP2 SUB SWAP1 REVERT JUMPDEST JUMPDEST DUP4 DUP8 PUSH2 0xBF3 SWAP2 SWAP1 PUSH2 0x1EEC JUMP JUMPDEST SWAP7 POP POP POP POP POP DUP1 DUP1 PUSH1 0x1 ADD SWAP2 POP POP PUSH2 0xB12 JUMP JUMPDEST POP POP POP SWAP1 JUMP JUMPDEST PUSH1 0x8 SLOAD DUP2 JUMP JUMPDEST PUSH1 0x4 SLOAD DUP2 JUMP JUMPDEST PUSH1 0x5 PUSH1 0x20 MSTORE DUP1 PUSH0 MSTORE PUSH1 0x40 PUSH0 KECCAK256 PUSH0 SWAP2 POP SLOAD SWAP1 PUSH2 0x100 EXP SWAP1 DIV PUSH0 SIGNEXTEND DUP2 JUMP JUMPDEST PUSH1 0x9 SLOAD DUP2 JUMP JUMPDEST PUSH0 PUSH2 0xC44 DUP3 PUSH2 0xFDF JUMP JUMPDEST SWAP1 POP SWAP2 SWAP1 POP JUMP JUMPDEST PUSH1 0x60 PUSH1 0x40 MLOAD DUP1 PUSH1 0x40 ADD PUSH1 0x40 MSTORE DUP1 PUSH1 0x12 DUP2 MSTORE PUSH1 0x20 ADD PUSH32 0x72656473746F6E652D6D61696E2D64656D6F0000000000000000000000000000 DUP2 MSTORE POP SWAP1 POP SWAP1 JUMP JUMPDEST PUSH1 0x7 PUSH1 0x20 MSTORE DUP1 PUSH0 MSTORE PUSH1 0x40 PUSH0 KECCAK256 PUSH0 SWAP2 POP SLOAD SWAP1 PUSH2 0x100 EXP SWAP1 DIV PUSH1 0xFF AND DUP2 JUMP JUMPDEST PUSH0 DUP1 PUSH4 0x5F5E100 SWAP1 POP PUSH0 PUSH1 0x1 PUSH1 0x2 SLOAD EQ PUSH2 0xCC1 JUMPI PUSH1 0x9 SLOAD PUSH2 0xCC5 JUMP JUMPDEST PUSH1 0x8 SLOAD JUMPDEST SWAP1 POP DUP1 DUP5 GT ISZERO PUSH2 0xD0A JUMPI PUSH1 0x40 MLOAD PUSH32 0x8C379A000000000000000000000000000000000000000000000000000000000 DUP2 MSTORE PUSH1 0x4 ADD PUSH2 0xD01 SWAP1 PUSH2 0x21CC JUMP JUMPDEST PUSH1 0x40 MLOAD DUP1 SWAP2 SUB SWAP1 REVERT JUMPDEST PUSH0 PUSH32 0xFFFFFFFFFFFFFFFFFFFFFFFFFFFFFFFFFFFFFFFFFFFFFFFFFFFFFFFFFFFFFFFF PUSH1 0x2 SLOAD EQ PUSH2 0xD3C JUMPI PUSH1 0x8 SLOAD PUSH2 0xD40 JUMP JUMPDEST PUSH1 0x9 SLOAD JUMPDEST SWAP1 POP PUSH0 DUP3 DUP5 DUP8 PUSH2 0xD50 SWAP2 SWAP1 PUSH2 0x21EA JUMP JUMPDEST PUSH2 0xD5A SWAP2 SWAP1 PUSH2 0x2258 JUMP JUMPDEST SWAP1 POP DUP4 DUP3 DUP3 PUSH2 0xD69 SWAP2 SWAP1 PUSH2 0x21EA JUMP JUMPDEST PUSH2 0xD73 SWAP2 SWAP1 PUSH2 0x2258 JUMP JUMPDEST SWAP5 POP POP POP POP POP SWAP2 SWAP1 POP JUMP JUMPDEST PUSH1 0x3 SLOAD DUP2 JUMP JUMPDEST POP JUMP JUMPDEST PUSH0 PUSH1 0x1 SWAP1 POP SWAP1 JUMP JUMPDEST PUSH0 DUP1 PUSH1 0x1 PUSH8 0xFFFFFFFFFFFFFFFF DUP2 GT ISZERO PUSH2 0xDAC JUMPI PUSH2 0xDAB PUSH2 0x1B6F JUMP JUMPDEST JUMPDEST PUSH1 0x40 MLOAD SWAP1 DUP1 DUP3 MSTORE DUP1 PUSH1 0x20 MUL PUSH1 0x20 ADD DUP3 ADD PUSH1 0x40 MSTORE DUP1 ISZERO PUSH2 0xDDA JUMPI DUP2 PUSH1 0x20 ADD PUSH1 0x20 DUP3 MUL DUP1 CALLDATASIZE DUP4 CALLDATACOPY DUP1 DUP3 ADD SWAP2 POP POP SWAP1 POP JUMPDEST POP SWAP1 POP DUP3 DUP2 PUSH0 DUP2 MLOAD DUP2 LT PUSH2 0xDF1 JUMPI PUSH2 0xDF0 PUSH2 0x2288 JUMP JUMPDEST JUMPDEST PUSH1 0x20 MUL PUSH1 0x20 ADD ADD DUP2 DUP2 MSTORE POP POP PUSH2 0xE06 DUP2 PUSH2 0xFF0 JUMP JUMPDEST PUSH0 DUP2 MLOAD DUP2 LT PUSH2 0xE18 JUMPI PUSH2 0xE17 PUSH2 0x2288 JUMP JUMPDEST JUMPDEST PUSH1 0x20 MUL PUSH1 0x20 ADD ADD MLOAD SWAP2 POP POP SWAP2 SWAP1 POP JUMP JUMPDEST PUSH0 DUP1 PUSH1 0x20 CALLDATASIZE SUB CALLDATALOAD PUSH7 0x2ED57011E0000 DUP2 AND PUSH7 0x2ED57011E0000 EQ SWAP2 POP POP DUP1 PUSH2 0xE7C JUMPI PUSH1 0x40 MLOAD PUSH32 0xE7764C9E00000000000000000000000000000000000000000000000000000000 DUP2 MSTORE PUSH1 0x4 ADD PUSH1 0x40 MLOAD DUP1 SWAP2 SUB SWAP1 REVERT JUMPDEST PUSH0 DUP1 CALLDATASIZE SWAP1 POP PUSH1 0x29 GT ISZERO PUSH2 0xEBB JUMPI PUSH1 0x40 MLOAD PUSH32 0x5796F78A00000000000000000000000000000000000000000000000000000000 DUP2 MSTORE PUSH1 0x4 ADD PUSH1 0x40 MLOAD DUP1 SWAP2 SUB SWAP1 REVERT JUMPDEST PUSH1 0x29 CALLDATASIZE SUB CALLDATALOAD SWAP1 POP PUSH0 PUSH1 0x9 PUSH1 0x3 DUP4 PUSH3 0xFFFFFF AND PUSH2 0xED7 SWAP2 SWAP1 PUSH2 0x1EEC JUMP JUMPDEST PUSH2 0xEE1 SWAP2 SWAP1 PUSH2 0x1EEC JUMP JUMPDEST SWAP1 POP PUSH0 CALLDATASIZE SWAP1 POP PUSH1 0x2 DUP3 PUSH2 0xEF4 SWAP2 SWAP1 PUSH2 0x1EEC JUMP JUMPDEST GT ISZERO PUSH2 0xF2C JUMPI PUSH1 0x40 MLOAD PUSH32 0xC30A7BD700000000000000000000000000000000000000000000000000000000 DUP2 MSTORE PUSH1 0x4 ADD PUSH1 0x40 MLOAD DUP1 SWAP2 SUB SWAP1 REVERT JUMPDEST DUP1 SWAP4 POP POP POP POP SWAP1 JUMP JUMPDEST PUSH0 DUP1 PUSH0 PUSH1 0x20 DUP5 PUSH2 0xF45 SWAP2 SWAP1 PUSH2 0x1EEC JUMP JUMPDEST SWAP1 POP PUSH0 CALLDATASIZE SWAP1 POP DUP2 GT ISZERO PUSH2 0xF84 JUMPI PUSH1 0x40 MLOAD PUSH32 0x5796F78A00000000000000000000000000000000000000000000000000000000 DUP2 MSTORE PUSH1 0x4 ADD PUSH1 0x40 MLOAD DUP1 SWAP2 SUB SWAP1 REVERT JUMPDEST DUP1 CALLDATASIZE SUB CALLDATALOAD SWAP3 POP DUP3 PUSH1 0x2 DUP6 PUSH2 0xF98 SWAP2 SWAP1 PUSH2 0x1EEC JUMP JUMPDEST SWAP3 POP SWAP3 POP POP SWAP2 POP SWAP2 JUMP JUMPDEST PUSH0 DUP1 PUSH0 PUSH2 0xFAE DUP5 PUSH2 0x1014 JUMP JUMPDEST SWAP2 POP SWAP2 POP PUSH1 0x4E DUP2 PUSH1 0x20 PUSH2 0xFC1 SWAP2 SWAP1 PUSH2 0x1EEC JUMP JUMPDEST DUP4 PUSH2 0xFCC SWAP2 SWAP1 PUSH2 0x21EA JUMP JUMPDEST PUSH2 0xFD6 SWAP2 SWAP1 PUSH2 0x1EEC JUMP JUMPDEST SWAP3 POP POP POP SWAP2 SWAP1 POP JUMP JUMPDEST PUSH0 PUSH2 0xFE9 DUP3 PUSH2 0x1072 JUMP JUMPDEST SWAP1 POP SWAP2 SWAP1 POP JUMP JUMPDEST PUSH1 0x60 PUSH0 DUP1 PUSH2 0xFFD DUP5 PUSH2 0x11C1 JUMP JUMPDEST SWAP2 POP SWAP2 POP PUSH2 0x100A DUP2 PUSH2 0xD84 JUMP JUMPDEST DUP2 SWAP3 POP POP POP SWAP2 SWAP1 POP JUMP JUMPDEST PUSH0 DUP1 PUSH0 DUP1 PUSH0 PUSH1 0x20 PUSH1 0x41 DUP8 PUSH2 0x1028 SWAP2 SWAP1 PUSH2 0x1EEC JUMP JUMPDEST PUSH2 0x1032 SWAP2 SWAP1 PUSH2 0x1EEC JUMP JUMPDEST PUSH0 CALLDATASIZE SWAP1 POP PUSH2 0x1040 SWAP2 SWAP1 PUSH2 0x214F JUMP JUMPDEST SWAP1 POP DUP1 CALLDATALOAD SWAP3 POP PUSH1 0x3 DUP2 PUSH2 0x1053 SWAP2 SWAP1 PUSH2 0x214F JUMP JUMPDEST SWAP1 POP DUP1 CALLDATALOAD SWAP2 POP DUP3 PUSH3 0xFFFFFF AND SWAP5 POP DUP2 PUSH4 0xFFFFFFFF AND SWAP4 POP POP POP POP SWAP2 POP SWAP2 JUMP JUMPDEST PUSH0 PUSH1 0x2 DUP3 MLOAD SUB PUSH2 0x10D0 JUMPI PUSH1 0x2 DUP3 PUSH1 0x1 DUP2 MLOAD DUP2 LT PUSH2 0x1092 JUMPI PUSH2 0x1091 PUSH2 0x2288 JUMP JUMPDEST JUMPDEST PUSH1 0x20 MUL PUSH1 0x20 ADD ADD MLOAD DUP4 PUSH0 DUP2 MLOAD DUP2 LT PUSH2 0x10AD JUMPI PUSH2 0x10AC PUSH2 0x2288 JUMP JUMPDEST JUMPDEST PUSH1 0x20 MUL PUSH1 0x20 ADD ADD MLOAD PUSH2 0x10BF SWAP2 SWAP1 PUSH2 0x1EEC JUMP JUMPDEST PUSH2 0x10C9 SWAP2 SWAP1 PUSH2 0x2258 JUMP JUMPDEST SWAP1 POP PUSH2 0x11BC JUMP JUMPDEST PUSH0 DUP3 MLOAD SUB PUSH2 0x110A JUMPI PUSH1 0x40 MLOAD PUSH32 0x9E198AF900000000000000000000000000000000000000000000000000000000 DUP2 MSTORE PUSH1 0x4 ADD PUSH1 0x40 MLOAD DUP1 SWAP2 SUB SWAP1 REVERT JUMPDEST PUSH2 0x1113 DUP3 PUSH2 0x1431 JUMP JUMPDEST PUSH0 PUSH1 0x2 DUP4 MLOAD PUSH2 0x1122 SWAP2 SWAP1 PUSH2 0x2258 JUMP JUMPDEST SWAP1 POP PUSH0 PUSH1 0x2 DUP5 MLOAD PUSH2 0x1133 SWAP2 SWAP1 PUSH2 0x22B5 JUMP JUMPDEST SUB PUSH2 0x119D JUMPI PUSH0 DUP4 DUP3 DUP2 MLOAD DUP2 LT PUSH2 0x114C JUMPI PUSH2 0x114B PUSH2 0x2288 JUMP JUMPDEST JUMPDEST PUSH1 0x20 MUL PUSH1 0x20 ADD ADD MLOAD DUP5 PUSH1 0x1 DUP5 PUSH2 0x1162 SWAP2 SWAP1 PUSH2 0x214F JUMP JUMPDEST DUP2 MLOAD DUP2 LT PUSH2 0x1173 JUMPI PUSH2 0x1172 PUSH2 0x2288 JUMP JUMPDEST JUMPDEST PUSH1 0x20 MUL PUSH1 0x20 ADD ADD MLOAD PUSH2 0x1185 SWAP2 SWAP1 PUSH2 0x1EEC JUMP JUMPDEST SWAP1 POP PUSH1 0x2 DUP2 PUSH2 0x1194 SWAP2 SWAP1 PUSH2 0x2258 JUMP JUMPDEST SWAP3 POP POP POP PUSH2 0x11BC JUMP JUMPDEST DUP3 DUP2 DUP2 MLOAD DUP2 LT PUSH2 0x11B0 JUMPI PUSH2 0x11AF PUSH2 0x2288 JUMP JUMPDEST JUMPDEST PUSH1 0x20 MUL PUSH1 0x20 ADD ADD MLOAD SWAP2 POP POP JUMPDEST SWAP2 SWAP1 POP JUMP JUMPDEST PUSH1 0x60 PUSH0 DUP1 DUP4 MLOAD PUSH8 0xFFFFFFFFFFFFFFFF DUP2 GT ISZERO PUSH2 0x11E0 JUMPI PUSH2 0x11DF PUSH2 0x1B6F JUMP JUMPDEST JUMPDEST PUSH1 0x40 MLOAD SWAP1 DUP1 DUP3 MSTORE DUP1 PUSH1 0x20 MUL PUSH1 0x20 ADD DUP3 ADD PUSH1 0x40 MSTORE DUP1 ISZERO PUSH2 0x120E JUMPI DUP2 PUSH1 0x20 ADD PUSH1 0x20 DUP3 MUL DUP1 CALLDATASIZE DUP4 CALLDATACOPY DUP1 DUP3 ADD SWAP2 POP POP SWAP1 POP JUMPDEST POP SWAP1 POP PUSH0 DUP5 MLOAD PUSH8 0xFFFFFFFFFFFFFFFF DUP2 GT ISZERO PUSH2 0x122D JUMPI PUSH2 0x122C PUSH2 0x1B6F JUMP JUMPDEST JUMPDEST PUSH1 0x40 MLOAD SWAP1 DUP1 DUP3 MSTORE DUP1 PUSH1 0x20 MUL PUSH1 0x20 ADD DUP3 ADD PUSH1 0x40 MSTORE DUP1 ISZERO PUSH2 0x125B JUMPI DUP2 PUSH1 0x20 ADD PUSH1 0x20 DUP3 MUL DUP1 CALLDATASIZE DUP4 CALLDATACOPY DUP1 DUP3 ADD SWAP2 POP POP SWAP1 POP JUMPDEST POP SWAP1 POP PUSH0 DUP6 MLOAD PUSH8 0xFFFFFFFFFFFFFFFF DUP2 GT ISZERO PUSH2 0x127A JUMPI PUSH2 0x1279 PUSH2 0x1B6F JUMP JUMPDEST JUMPDEST PUSH1 0x40 MLOAD SWAP1 DUP1 DUP3 MSTORE DUP1 PUSH1 0x20 MUL PUSH1 0x20 ADD DUP3 ADD PUSH1 0x40 MSTORE DUP1 ISZERO PUSH2 0x12AD JUMPI DUP2 PUSH1 0x20 ADD JUMPDEST PUSH1 0x60 DUP2 MSTORE PUSH1 0x20 ADD SWAP1 PUSH1 0x1 SWAP1 SUB SWAP1 DUP2 PUSH2 0x1298 JUMPI SWAP1 POP JUMPDEST POP SWAP1 POP PUSH0 JUMPDEST DUP7 MLOAD DUP2 LT ISZERO PUSH2 0x1339 JUMPI PUSH2 0x12C3 PUSH2 0xD87 JUMP JUMPDEST PUSH1 0xFF AND PUSH8 0xFFFFFFFFFFFFFFFF DUP2 GT ISZERO PUSH2 0x12DF JUMPI PUSH2 0x12DE PUSH2 0x1B6F JUMP JUMPDEST JUMPDEST PUSH1 0x40 MLOAD SWAP1 DUP1 DUP3 MSTORE DUP1 PUSH1 0x20 MUL PUSH1 0x20 ADD DUP3 ADD PUSH1 0x40 MSTORE DUP1 ISZERO PUSH2 0x130D JUMPI DUP2 PUSH1 0x20 ADD PUSH1 0x20 DUP3 MUL DUP1 CALLDATASIZE DUP4 CALLDATACOPY DUP1 DUP3 ADD SWAP2 POP POP SWAP1 POP JUMPDEST POP DUP3 DUP3 DUP2 MLOAD DUP2 LT PUSH2 0x1321 JUMPI PUSH2 0x1320 PUSH2 0x2288 JUMP JUMPDEST JUMPDEST PUSH1 0x20 MUL PUSH1 0x20 ADD ADD DUP2 SWAP1 MSTORE POP DUP1 DUP1 PUSH1 0x1 ADD SWAP2 POP POP PUSH2 0x12B2 JUMP JUMPDEST POP PUSH0 PUSH2 0x1343 PUSH2 0xE28 JUMP JUMPDEST SWAP1 POP PUSH0 PUSH2 0x134F DUP3 PUSH2 0xF35 JUMP JUMPDEST DUP2 PUSH2 0xFFFF AND SWAP2 POP DUP1 SWAP4 POP DUP2 SWAP3 POP POP POP PUSH0 PUSH1 0x40 MLOAD SWAP1 POP PUSH0 JUMPDEST DUP3 DUP2 LT ISZERO PUSH2 0x1419 JUMPI PUSH0 PUSH2 0x137C DUP12 DUP10 DUP10 DUP10 DUP10 PUSH2 0x1484 JUMP JUMPDEST DUP1 SWAP3 POP DUP2 SWAP7 POP POP POP PUSH0 DUP2 SUB PUSH2 0x13BD JUMPI PUSH1 0x40 MLOAD PUSH32 0xDFB25A7900000000000000000000000000000000000000000000000000000000 DUP2 MSTORE PUSH1 0x4 ADD PUSH1 0x40 MLOAD DUP1 SWAP2 SUB SWAP1 REVERT JUMPDEST DUP9 DUP2 EQ ISZERO DUP1 ISZERO PUSH2 0x13CD JUMPI POP PUSH0 DUP10 EQ ISZERO JUMPDEST ISZERO PUSH2 0x1404 JUMPI PUSH1 0x40 MLOAD PUSH32 0x4CBC474200000000000000000000000000000000000000000000000000000000 DUP2 MSTORE PUSH1 0x4 ADD PUSH1 0x40 MLOAD DUP1 SWAP2 SUB SWAP1 REVERT JUMPDEST DUP1 SWAP9 POP DUP3 PUSH1 0x40 MSTORE DUP2 DUP1 PUSH1 0x1 ADD SWAP3 POP POP POP PUSH2 0x1366 JUMP JUMPDEST POP PUSH2 0x1424 DUP5 DUP8 PUSH2 0x1741 JUMP JUMPDEST SWAP8 POP POP POP POP POP POP POP SWAP2 POP SWAP2 JUMP JUMPDEST DUP1 MLOAD PUSH1 0x20 DUP3 ADD PUSH1 0x20 DUP3 MUL DUP2 ADD DUP2 JUMPDEST DUP2 DUP2 LT ISZERO PUSH2 0x147D JUMPI DUP3 JUMPDEST DUP2 DUP2 LT ISZERO PUSH2 0x1471 JUMPI DUP2 MLOAD DUP2 MLOAD DUP1 DUP3 LT ISZERO PUSH2 0x1464 JUMPI DUP1 DUP5 MSTORE DUP2 DUP4 MSTORE JUMPDEST POP POP PUSH1 0x20 DUP2 ADD SWAP1 POP PUSH2 0x1449 JUMP JUMPDEST POP PUSH1 0x20 DUP2 ADD SWAP1 POP PUSH2 0x143F JUMP JUMPDEST POP POP POP POP POP JUMP JUMPDEST PUSH0 DUP1 PUSH0 DUP1 PUSH0 PUSH2 0x1492 DUP7 PUSH2 0x1014 JUMP JUMPDEST SWAP2 POP SWAP2 POP PUSH0 DUP1 PUSH1 0x60 PUSH0 DUP1 PUSH1 0xD PUSH1 0x20 DUP8 PUSH2 0x14AB SWAP2 SWAP1 PUSH2 0x1EEC JUMP JUMPDEST DUP9 PUSH2 0x14B6 SWAP2 SWAP1 PUSH2 0x21EA JUMP JUMPDEST PUSH2 0x14C0 SWAP2 SWAP1 PUSH2 0x1EEC JUMP JUMPDEST SWAP2 POP PUSH0 PUSH1 0x68 DUP13 PUSH2 0x14D0 SWAP2 SWAP1 PUSH2 0x1EEC JUMP JUMPDEST PUSH0 CALLDATASIZE SWAP1 POP PUSH2 0x14DE SWAP2 SWAP1 PUSH2 0x214F JUMP JUMPDEST SWAP1 POP PUSH0 DUP4 PUSH1 0x41 DUP15 PUSH2 0x14EF SWAP2 SWAP1 PUSH2 0x1EEC JUMP JUMPDEST PUSH2 0x14F9 SWAP2 SWAP1 PUSH2 0x1EEC JUMP JUMPDEST PUSH0 CALLDATASIZE SWAP1 POP PUSH2 0x1507 SWAP2 SWAP1 PUSH2 0x214F JUMP JUMPDEST SWAP1 POP PUSH2 0x1513 DUP5 DUP3 PUSH2 0x1540 JUMP JUMPDEST SWAP5 POP DUP4 PUSH1 0x20 DUP7 ADD KECCAK256 SWAP6 POP DUP2 CALLDATALOAD SWAP3 POP PUSH2 0x155B JUMP JUMPDEST PUSH0 PUSH1 0x40 MLOAD SWAP1 POP DUP2 DUP2 MSTORE PUSH1 0x20 DUP2 ADD SWAP1 POP DUP2 DUP2 ADD PUSH1 0x40 MSTORE SWAP2 SWAP1 POP JUMP JUMPDEST PUSH0 PUSH2 0x154A DUP4 PUSH2 0x1526 JUMP JUMPDEST DUP4 DUP4 DUP3 CALLDATACOPY PUSH1 0x20 DUP2 SUB SWAP2 POP POP SWAP3 SWAP2 POP POP JUMP JUMPDEST DUP3 PUSH6 0xFFFFFFFFFFFF AND SWAP11 POP PUSH2 0x157C DUP7 PUSH1 0x41 DUP16 PUSH2 0x1577 SWAP2 SWAP1 PUSH2 0x1EEC JUMP JUMPDEST PUSH2 0x1884 JUMP JUMPDEST SWAP7 POP PUSH2 0x1587 DUP8 PUSH2 0x6B9 JUMP JUMPDEST PUSH1 0xFF AND SWAP10 POP POP POP POP POP POP POP POP PUSH1 0x4E DUP7 PUSH2 0x15A0 SWAP2 SWAP1 PUSH2 0x1EEC JUMP JUMPDEST SWAP6 POP PUSH0 DUP1 PUSH0 JUMPDEST DUP5 DUP2 LT ISZERO PUSH2 0x172E JUMPI PUSH1 0x20 DUP5 DUP11 PUSH2 0x15BC SWAP2 SWAP1 PUSH2 0x1EEC JUMP JUMPDEST PUSH2 0x15C6 SWAP2 SWAP1 PUSH2 0x1EEC JUMP JUMPDEST SWAP9 POP PUSH2 0x15D2 DUP10 DUP6 PUSH2 0x18FD JUMP JUMPDEST DUP1 SWAP4 POP DUP2 SWAP5 POP POP POP PUSH0 JUMPDEST DUP14 MLOAD DUP2 LT ISZERO PUSH2 0x1720 JUMPI DUP14 DUP2 DUP2 MLOAD DUP2 LT PUSH2 0x15F8 JUMPI PUSH2 0x15F7 PUSH2 0x2288 JUMP JUMPDEST JUMPDEST PUSH1 0x20 MUL PUSH1 0x20 ADD ADD MLOAD DUP5 SUB PUSH2 0x1713 JUMPI PUSH0 DUP13 DUP3 DUP2 MLOAD DUP2 LT PUSH2 0x161A JUMPI PUSH2 0x1619 PUSH2 0x2288 JUMP JUMPDEST JUMPDEST PUSH1 0x20 MUL PUSH1 0x20 ADD ADD MLOAD SWAP1 POP PUSH2 0x162E DUP2 DUP10 PUSH2 0x1975 JUMP JUMPDEST ISZERO DUP1 ISZERO PUSH2 0x165E JUMPI POP PUSH2 0x163E PUSH2 0xD87 JUMP JUMPDEST PUSH1 0xFF AND DUP15 DUP4 DUP2 MLOAD DUP2 LT PUSH2 0x1654 JUMPI PUSH2 0x1653 PUSH2 0x2288 JUMP JUMPDEST JUMPDEST PUSH1 0x20 MUL PUSH1 0x20 ADD ADD MLOAD LT JUMPDEST ISZERO PUSH2 0x170D JUMPI DUP4 DUP13 DUP4 DUP2 MLOAD DUP2 LT PUSH2 0x1677 JUMPI PUSH2 0x1676 PUSH2 0x2288 JUMP JUMPDEST JUMPDEST PUSH1 0x20 MUL PUSH1 0x20 ADD ADD MLOAD DUP16 DUP5 DUP2 MLOAD DUP2 LT PUSH2 0x1692 JUMPI PUSH2 0x1691 PUSH2 0x2288 JUMP JUMPDEST JUMPDEST PUSH1 0x20 MUL PUSH1 0x20 ADD ADD MLOAD DUP2 MLOAD DUP2 LT PUSH2 0x16AB JUMPI PUSH2 0x16AA PUSH2 0x2288 JUMP JUMPDEST JUMPDEST PUSH1 0x20 MUL PUSH1 0x20 ADD ADD DUP2 DUP2 MSTORE POP POP DUP14 DUP3 DUP2 MLOAD DUP2 LT PUSH2 0x16CA JUMPI PUSH2 0x16C9 PUSH2 0x2288 JUMP JUMPDEST JUMPDEST PUSH1 0x20 MUL PUSH1 0x20 ADD ADD DUP1 MLOAD DUP1 SWAP2 SWAP1 PUSH2 0x16DF SWAP1 PUSH2 0x22E5 JUMP JUMPDEST DUP2 MSTORE POP POP PUSH2 0x16ED DUP2 DUP10 PUSH2 0x198C JUMP JUMPDEST DUP14 DUP4 DUP2 MLOAD DUP2 LT PUSH2 0x1700 JUMPI PUSH2 0x16FF PUSH2 0x2288 JUMP JUMPDEST JUMPDEST PUSH1 0x20 MUL PUSH1 0x20 ADD ADD DUP2 DUP2 MSTORE POP POP JUMPDEST POP PUSH2 0x1720 JUMP JUMPDEST DUP1 DUP1 PUSH1 0x1 ADD SWAP2 POP POP PUSH2 0x15DC JUMP JUMPDEST POP DUP1 DUP1 PUSH1 0x1 ADD SWAP2 POP POP PUSH2 0x15A6 JUMP JUMPDEST POP POP POP DUP6 SWAP5 POP POP POP POP SWAP6 POP SWAP6 SWAP4 POP POP POP POP JUMP JUMPDEST PUSH1 0x60 PUSH0 DUP4 MLOAD PUSH8 0xFFFFFFFFFFFFFFFF DUP2 GT ISZERO PUSH2 0x175F JUMPI PUSH2 0x175E PUSH2 0x1B6F JUMP JUMPDEST JUMPDEST PUSH1 0x40 MLOAD SWAP1 DUP1 DUP3 MSTORE DUP1 PUSH1 0x20 MUL PUSH1 0x20 ADD DUP3 ADD PUSH1 0x40 MSTORE DUP1 ISZERO PUSH2 0x178D JUMPI DUP2 PUSH1 0x20 ADD PUSH1 0x20 DUP3 MUL DUP1 CALLDATASIZE DUP4 CALLDATACOPY DUP1 DUP3 ADD SWAP2 POP POP SWAP1 POP JUMPDEST POP SWAP1 POP PUSH0 PUSH2 0x1799 PUSH2 0xD87 JUMP JUMPDEST PUSH1 0xFF AND SWAP1 POP PUSH0 JUMPDEST DUP6 MLOAD DUP2 LT ISZERO PUSH2 0x1878 JUMPI DUP2 DUP6 DUP3 DUP2 MLOAD DUP2 LT PUSH2 0x17BD JUMPI PUSH2 0x17BC PUSH2 0x2288 JUMP JUMPDEST JUMPDEST PUSH1 0x20 MUL PUSH1 0x20 ADD ADD MLOAD LT ISZERO PUSH2 0x1824 JUMPI DUP5 DUP2 DUP2 MLOAD DUP2 LT PUSH2 0x17DE JUMPI PUSH2 0x17DD PUSH2 0x2288 JUMP JUMPDEST JUMPDEST PUSH1 0x20 MUL PUSH1 0x20 ADD ADD MLOAD DUP3 PUSH1 0x40 MLOAD PUSH32 0x2B13AEF500000000000000000000000000000000000000000000000000000000 DUP2 MSTORE PUSH1 0x4 ADD PUSH2 0x181B SWAP3 SWAP2 SWAP1 PUSH2 0x232C JUMP JUMPDEST PUSH1 0x40 MLOAD DUP1 SWAP2 SUB SWAP1 REVERT JUMPDEST PUSH0 PUSH2 0x1848 DUP8 DUP4 DUP2 MLOAD DUP2 LT PUSH2 0x183B JUMPI PUSH2 0x183A PUSH2 0x2288 JUMP JUMPDEST JUMPDEST PUSH1 0x20 MUL PUSH1 0x20 ADD ADD MLOAD PUSH2 0xC3A JUMP JUMPDEST SWAP1 POP DUP1 DUP5 DUP4 DUP2 MLOAD DUP2 LT PUSH2 0x185E JUMPI PUSH2 0x185D PUSH2 0x2288 JUMP JUMPDEST JUMPDEST PUSH1 0x20 MUL PUSH1 0x20 ADD ADD DUP2 DUP2 MSTORE POP POP POP DUP1 DUP1 PUSH1 0x1 ADD SWAP2 POP POP PUSH2 0x17A0 JUMP JUMPDEST POP DUP2 SWAP3 POP POP POP SWAP3 SWAP2 POP POP JUMP JUMPDEST PUSH0 DUP1 PUSH0 DUP1 DUP5 CALLDATASIZE SUB DUP1 CALLDATALOAD SWAP4 POP PUSH1 0x20 DUP2 ADD SWAP1 POP DUP1 CALLDATALOAD SWAP3 POP PUSH1 0x20 DUP2 ADD SWAP1 POP DUP1 CALLDATALOAD PUSH0 BYTE SWAP2 POP POP PUSH1 0x1 DUP7 DUP3 DUP6 DUP6 PUSH1 0x40 MLOAD PUSH0 DUP2 MSTORE PUSH1 0x20 ADD PUSH1 0x40 MSTORE PUSH1 0x40 MLOAD PUSH2 0x18C8 SWAP5 SWAP4 SWAP3 SWAP2 SWAP1 PUSH2 0x236B JUMP JUMPDEST PUSH1 0x20 PUSH1 0x40 MLOAD PUSH1 0x20 DUP2 SUB SWAP1 DUP1 DUP5 SUB SWAP1 DUP6 GAS STATICCALL ISZERO DUP1 ISZERO PUSH2 0x18E8 JUMPI RETURNDATASIZE PUSH0 DUP1 RETURNDATACOPY RETURNDATASIZE PUSH0 REVERT JUMPDEST POP POP POP PUSH1 0x20 PUSH1 0x40 MLOAD SUB MLOAD SWAP4 POP POP POP POP SWAP3 SWAP2 POP POP JUMP JUMPDEST PUSH0 DUP1 PUSH0 DUP5 PUSH0 CALLDATASIZE SWAP1 POP PUSH2 0x190F SWAP2 SWAP1 PUSH2 0x214F JUMP JUMPDEST SWAP1 POP DUP1 CALLDATALOAD SWAP3 POP PUSH1 0x20 DUP2 ADD CALLDATALOAD SWAP2 POP PUSH1 0x21 DUP5 LT PUSH2 0x1961 JUMPI DUP4 PUSH1 0x40 MLOAD PUSH32 0xC000FC4200000000000000000000000000000000000000000000000000000000 DUP2 MSTORE PUSH1 0x4 ADD PUSH2 0x1958 SWAP2 SWAP1 PUSH2 0x1AAA JUMP JUMPDEST PUSH1 0x40 MLOAD DUP1 SWAP2 SUB SWAP1 REVERT JUMPDEST PUSH1 0x8 DUP5 PUSH1 0x20 SUB MUL DUP3 SWAP1 SHR SWAP2 POP POP SWAP3 POP SWAP3 SWAP1 POP JUMP JUMPDEST PUSH0 DUP1 DUP3 PUSH1 0x1 SWAP1 SHL DUP5 AND SWAP1 POP PUSH0 DUP2 GT SWAP2 POP POP SWAP3 SWAP2 POP POP JUMP JUMPDEST PUSH0 DUP2 PUSH1 0x1 SWAP1 SHL DUP4 OR SWAP1 POP SWAP3 SWAP2 POP POP JUMP JUMPDEST PUSH0 PUSH1 0x40 MLOAD SWAP1 POP SWAP1 JUMP JUMPDEST PUSH0 DUP1 REVERT JUMPDEST PUSH0 DUP1 REVERT JUMPDEST PUSH0 DUP2 ISZERO ISZERO SWAP1 POP SWAP2 SWAP1 POP JUMP JUMPDEST PUSH2 0x19C1 DUP2 PUSH2 0x19AD JUMP JUMPDEST DUP2 EQ PUSH2 0x19CB JUMPI PUSH0 DUP1 REVERT JUMPDEST POP JUMP JUMPDEST PUSH0 DUP2 CALLDATALOAD SWAP1 POP PUSH2 0x19DC DUP2 PUSH2 0x19B8 JUMP JUMPDEST SWAP3 SWAP2 POP POP JUMP JUMPDEST PUSH0 PUSH1 0x20 DUP3 DUP5 SUB SLT ISZERO PUSH2 0x19F7 JUMPI PUSH2 0x19F6 PUSH2 0x19A5 JUMP JUMPDEST JUMPDEST PUSH0 PUSH2 0x1A04 DUP5 DUP3 DUP6 ADD PUSH2 0x19CE JUMP JUMPDEST SWAP2 POP POP SWAP3 SWAP2 POP POP JUMP JUMPDEST PUSH0 PUSH20 0xFFFFFFFFFFFFFFFFFFFFFFFFFFFFFFFFFFFFFFFF DUP3 AND SWAP1 POP SWAP2 SWAP1 POP JUMP JUMPDEST PUSH0 PUSH2 0x1A36 DUP3 PUSH2 0x1A0D JUMP JUMPDEST SWAP1 POP SWAP2 SWAP1 POP JUMP JUMPDEST PUSH2 0x1A46 DUP2 PUSH2 0x1A2C JUMP JUMPDEST DUP2 EQ PUSH2 0x1A50 JUMPI PUSH0 DUP1 REVERT JUMPDEST POP JUMP JUMPDEST PUSH0 DUP2 CALLDATALOAD SWAP1 POP PUSH2 0x1A61 DUP2 PUSH2 0x1A3D JUMP JUMPDEST SWAP3 SWAP2 POP POP JUMP JUMPDEST PUSH0 PUSH1 0x20 DUP3 DUP5 SUB SLT ISZERO PUSH2 0x1A7C JUMPI PUSH2 0x1A7B PUSH2 0x19A5 JUMP JUMPDEST JUMPDEST PUSH0 PUSH2 0x1A89 DUP5 DUP3 DUP6 ADD PUSH2 0x1A53 JUMP JUMPDEST SWAP2 POP POP SWAP3 SWAP2 POP POP JUMP JUMPDEST PUSH0 DUP2 SWAP1 POP SWAP2 SWAP1 POP JUMP JUMPDEST PUSH2 0x1AA4 DUP2 PUSH2 0x1A92 JUMP JUMPDEST DUP3 MSTORE POP POP JUMP JUMPDEST PUSH0 PUSH1 0x20 DUP3 ADD SWAP1 POP PUSH2 0x1ABD PUSH0 DUP4 ADD DUP5 PUSH2 0x1A9B JUMP JUMPDEST SWAP3 SWAP2 POP POP JUMP JUMPDEST PUSH0 DUP2 SWAP1 POP SWAP2 SWAP1 POP JUMP JUMPDEST PUSH2 0x1AD5 DUP2 PUSH2 0x1AC3 JUMP JUMPDEST DUP3 MSTORE POP POP JUMP JUMPDEST PUSH0 PUSH1 0x20 DUP3 ADD SWAP1 POP PUSH2 0x1AEE PUSH0 DUP4 ADD DUP5 PUSH2 0x1ACC JUMP JUMPDEST SWAP3 SWAP2 POP POP JUMP JUMPDEST PUSH0 PUSH1 0xFF DUP3 AND SWAP1 POP SWAP2 SWAP1 POP JUMP JUMPDEST PUSH2 0x1B09 DUP2 PUSH2 0x1AF4 JUMP JUMPDEST DUP3 MSTORE POP POP JUMP JUMPDEST PUSH0 PUSH1 0x20 DUP3 ADD SWAP1 POP PUSH2 0x1B22 PUSH0 DUP4 ADD DUP5 PUSH2 0x1B00 JUMP JUMPDEST SWAP3 SWAP2 POP POP JUMP JUMPDEST PUSH0 DUP2 PUSH0 SIGNEXTEND SWAP1 POP SWAP2 SWAP1 POP JUMP JUMPDEST PUSH2 0x1B3C DUP2 PUSH2 0x1B28 JUMP JUMPDEST DUP3 MSTORE POP POP JUMP JUMPDEST PUSH0 PUSH1 0x20 DUP3 ADD SWAP1 POP PUSH2 0x1B55 PUSH0 DUP4 ADD DUP5 PUSH2 0x1B33 JUMP JUMPDEST SWAP3 SWAP2 POP POP JUMP JUMPDEST PUSH0 DUP1 REVERT JUMPDEST PUSH0 PUSH1 0x1F NOT PUSH1 0x1F DUP4 ADD AND SWAP1 POP SWAP2 SWAP1 POP JUMP JUMPDEST PUSH32 0x4E487B7100000000000000000000000000000000000000000000000000000000 PUSH0 MSTORE PUSH1 0x41 PUSH1 0x4 MSTORE PUSH1 0x24 PUSH0 REVERT JUMPDEST PUSH2 0x1BA5 DUP3 PUSH2 0x1B5F JUMP JUMPDEST DUP2 ADD DUP2 DUP2 LT PUSH8 0xFFFFFFFFFFFFFFFF DUP3 GT OR ISZERO PUSH2 0x1BC4 JUMPI PUSH2 0x1BC3 PUSH2 0x1B6F JUMP JUMPDEST JUMPDEST DUP1 PUSH1 0x40 MSTORE POP POP POP JUMP JUMPDEST PUSH0 PUSH2 0x1BD6 PUSH2 0x199C JUMP JUMPDEST SWAP1 POP PUSH2 0x1BE2 DUP3 DUP3 PUSH2 0x1B9C JUMP JUMPDEST SWAP2 SWAP1 POP JUMP JUMPDEST PUSH0 PUSH8 0xFFFFFFFFFFFFFFFF DUP3 GT ISZERO PUSH2 0x1C01 JUMPI PUSH2 0x1C00 PUSH2 0x1B6F JUMP JUMPDEST JUMPDEST PUSH1 0x20 DUP3 MUL SWAP1 POP PUSH1 0x20 DUP2 ADD SWAP1 POP SWAP2 SWAP1 POP JUMP JUMPDEST PUSH0 DUP1 REVERT JUMPDEST PUSH2 0x1C1F DUP2 PUSH2 0x1A92 JUMP JUMPDEST DUP2 EQ PUSH2 0x1C29 JUMPI PUSH0 DUP1 REVERT JUMPDEST POP JUMP JUMPDEST PUSH0 DUP2 CALLDATALOAD SWAP1 POP PUSH2 0x1C3A DUP2 PUSH2 0x1C16 JUMP JUMPDEST SWAP3 SWAP2 POP POP JUMP JUMPDEST PUSH0 PUSH2 0x1C52 PUSH2 0x1C4D DUP5 PUSH2 0x1BE7 JUMP JUMPDEST PUSH2 0x1BCD JUMP JUMPDEST SWAP1 POP DUP1 DUP4 DUP3 MSTORE PUSH1 0x20 DUP3 ADD SWAP1 POP PUSH1 0x20 DUP5 MUL DUP4 ADD DUP6 DUP2 GT ISZERO PUSH2 0x1C75 JUMPI PUSH2 0x1C74 PUSH2 0x1C12 JUMP JUMPDEST JUMPDEST DUP4 JUMPDEST DUP2 DUP2 LT ISZERO PUSH2 0x1C9E JUMPI DUP1 PUSH2 0x1C8A DUP9 DUP3 PUSH2 0x1C2C JUMP JUMPDEST DUP5 MSTORE PUSH1 0x20 DUP5 ADD SWAP4 POP POP PUSH1 0x20 DUP2 ADD SWAP1 POP PUSH2 0x1C77 JUMP JUMPDEST POP POP POP SWAP4 SWAP3 POP POP POP JUMP JUMPDEST PUSH0 DUP3 PUSH1 0x1F DUP4 ADD SLT PUSH2 0x1CBC JUMPI PUSH2 0x1CBB PUSH2 0x1B5B JUMP JUMPDEST JUMPDEST DUP2 CALLDATALOAD PUSH2 0x1CCC DUP5 DUP3 PUSH1 0x20 DUP7 ADD PUSH2 0x1C40 JUMP JUMPDEST SWAP2 POP POP SWAP3 SWAP2 POP POP JUMP JUMPDEST PUSH0 PUSH1 0x20 DUP3 DUP5 SUB SLT ISZERO PUSH2 0x1CEA JUMPI PUSH2 0x1CE9 PUSH2 0x19A5 JUMP JUMPDEST JUMPDEST PUSH0 DUP3 ADD CALLDATALOAD PUSH8 0xFFFFFFFFFFFFFFFF DUP2 GT ISZERO PUSH2 0x1D07 JUMPI PUSH2 0x1D06 PUSH2 0x19A9 JUMP JUMPDEST JUMPDEST PUSH2 0x1D13 DUP5 DUP3 DUP6 ADD PUSH2 0x1CA8 JUMP JUMPDEST SWAP2 POP POP SWAP3 SWAP2 POP POP JUMP JUMPDEST PUSH0 DUP2 MLOAD SWAP1 POP SWAP2 SWAP1 POP JUMP JUMPDEST PUSH0 DUP3 DUP3 MSTORE PUSH1 0x20 DUP3 ADD SWAP1 POP SWAP3 SWAP2 POP POP JUMP JUMPDEST DUP3 DUP2 DUP4 MCOPY PUSH0 DUP4 DUP4 ADD MSTORE POP POP POP JUMP JUMPDEST PUSH0 PUSH2 0x1D4E DUP3 PUSH2 0x1D1C JUMP JUMPDEST PUSH2 0x1D58 DUP2 DUP6 PUSH2 0x1D26 JUMP JUMPDEST SWAP4 POP PUSH2 0x1D68 DUP2 DUP6 PUSH1 0x20 DUP7 ADD PUSH2 0x1D36 JUMP JUMPDEST PUSH2 0x1D71 DUP2 PUSH2 0x1B5F JUMP JUMPDEST DUP5 ADD SWAP2 POP POP SWAP3 SWAP2 POP POP JUMP JUMPDEST PUSH0 PUSH1 0x20 DUP3 ADD SWAP1 POP DUP2 DUP2 SUB PUSH0 DUP4 ADD MSTORE PUSH2 0x1D94 DUP2 DUP5 PUSH2 0x1D44 JUMP JUMPDEST SWAP1 POP SWAP3 SWAP2 POP POP JUMP JUMPDEST PUSH2 0x1DA5 DUP2 PUSH2 0x19AD JUMP JUMPDEST DUP3 MSTORE POP POP JUMP JUMPDEST PUSH0 PUSH1 0x20 DUP3 ADD SWAP1 POP PUSH2 0x1DBE PUSH0 DUP4 ADD DUP5 PUSH2 0x1D9C JUMP JUMPDEST SWAP3 SWAP2 POP POP JUMP JUMPDEST PUSH0 PUSH1 0x20 DUP3 DUP5 SUB SLT ISZERO PUSH2 0x1DD9 JUMPI PUSH2 0x1DD8 PUSH2 0x19A5 JUMP JUMPDEST JUMPDEST PUSH0 PUSH2 0x1DE6 DUP5 DUP3 DUP6 ADD PUSH2 0x1C2C JUMP JUMPDEST SWAP2 POP POP SWAP3 SWAP2 POP POP JUMP JUMPDEST PUSH32 0x4E6F2076616C756520696D206265740000000000000000000000000000000000 PUSH0 DUP3 ADD MSTORE POP JUMP JUMPDEST PUSH0 PUSH2 0x1E23 PUSH1 0xF DUP4 PUSH2 0x1D26 JUMP JUMPDEST SWAP2 POP PUSH2 0x1E2E DUP3 PUSH2 0x1DEF JUMP JUMPDEST PUSH1 0x20 DUP3 ADD SWAP1 POP SWAP2 SWAP1 POP JUMP JUMPDEST PUSH0 PUSH1 0x20 DUP3 ADD SWAP1 POP DUP2 DUP2 SUB PUSH0 DUP4 ADD MSTORE PUSH2 0x1E50 DUP2 PUSH2 0x1E17 JUMP JUMPDEST SWAP1 POP SWAP2 SWAP1 POP JUMP JUMPDEST PUSH32 0x42657420616C726561647920706C616365640000000000000000000000000000 PUSH0 DUP3 ADD MSTORE POP JUMP JUMPDEST PUSH0 PUSH2 0x1E8B PUSH1 0x12 DUP4 PUSH2 0x1D26 JUMP JUMPDEST SWAP2 POP PUSH2 0x1E96 DUP3 PUSH2 0x1E57 JUMP JUMPDEST PUSH1 0x20 DUP3 ADD SWAP1 POP SWAP2 SWAP1 POP JUMP JUMPDEST PUSH0 PUSH1 0x20 DUP3 ADD SWAP1 POP DUP2 DUP2 SUB PUSH0 DUP4 ADD MSTORE PUSH2 0x1EB8 DUP2 PUSH2 0x1E7F JUMP JUMPDEST SWAP1 POP SWAP2 SWAP1 POP JUMP JUMPDEST PUSH32 0x4E487B7100000000000000000000000000000000000000000000000000000000 PUSH0 MSTORE PUSH1 0x11 PUSH1 0x4 MSTORE PUSH1 0x24 PUSH0 REVERT JUMPDEST PUSH0 PUSH2 0x1EF6 DUP3 PUSH2 0x1A92 JUMP JUMPDEST SWAP2 POP PUSH2 0x1F01 DUP4 PUSH2 0x1A92 JUMP JUMPDEST SWAP3 POP DUP3 DUP3 ADD SWAP1 POP DUP1 DUP3 GT ISZERO PUSH2 0x1F19 JUMPI PUSH2 0x1F18 PUSH2 0x1EBF JUMP JUMPDEST JUMPDEST SWAP3 SWAP2 POP POP JUMP JUMPDEST PUSH2 0x1F28 DUP2 PUSH2 0x1A2C JUMP JUMPDEST DUP3 MSTORE POP POP JUMP JUMPDEST PUSH0 PUSH1 0x20 DUP3 ADD SWAP1 POP PUSH2 0x1F41 PUSH0 DUP4 ADD DUP5 PUSH2 0x1F1F JUMP JUMPDEST SWAP3 SWAP2 POP POP JUMP JUMPDEST PUSH32 0x416C72656164792066696E616C697A6564000000000000000000000000000000 PUSH0 DUP3 ADD MSTORE POP JUMP JUMPDEST PUSH0 PUSH2 0x1F7B PUSH1 0x11 DUP4 PUSH2 0x1D26 JUMP JUMPDEST SWAP2 POP PUSH2 0x1F86 DUP3 PUSH2 0x1F47 JUMP JUMPDEST PUSH1 0x20 DUP3 ADD SWAP1 POP SWAP2 SWAP1 POP JUMP JUMPDEST PUSH0 PUSH1 0x20 DUP3 ADD SWAP1 POP DUP2 DUP2 SUB PUSH0 DUP4 ADD MSTORE PUSH2 0x1FA8 DUP2 PUSH2 0x1F6F JUMP JUMPDEST SWAP1 POP SWAP2 SWAP1 POP JUMP JUMPDEST PUSH32 0x496E76616C69642074696D657374616D70000000000000000000000000000000 PUSH0 DUP3 ADD MSTORE POP JUMP JUMPDEST PUSH0 PUSH2 0x1FE3 PUSH1 0x11 DUP4 PUSH2 0x1D26 JUMP JUMPDEST SWAP2 POP PUSH2 0x1FEE DUP3 PUSH2 0x1FAF JUMP JUMPDEST PUSH1 0x20 DUP3 ADD SWAP1 POP SWAP2 SWAP1 POP JUMP JUMPDEST PUSH0 PUSH1 0x20 DUP3 ADD SWAP1 POP DUP2 DUP2 SUB PUSH0 DUP4 ADD MSTORE PUSH2 0x2010 DUP2 PUSH2 0x1FD7 JUMP JUMPDEST SWAP1 POP SWAP2 SWAP1 POP JUMP JUMPDEST PUSH32 0x4E6F742066696E616C697A656400000000000000000000000000000000000000 PUSH0 DUP3 ADD MSTORE POP JUMP JUMPDEST PUSH0 PUSH2 0x204B PUSH1 0xD DUP4 PUSH2 0x1D26 JUMP JUMPDEST SWAP2 POP PUSH2 0x2056 DUP3 PUSH2 0x2017 JUMP JUMPDEST PUSH1 0x20 DUP3 ADD SWAP1 POP SWAP2 SWAP1 POP JUMP JUMPDEST PUSH0 PUSH1 0x20 DUP3 ADD SWAP1 POP DUP2 DUP2 SUB PUSH0 DUP4 ADD MSTORE PUSH2 0x2078 DUP2 PUSH2 0x203F JUMP JUMPDEST SWAP1 POP SWAP2 SWAP1 POP JUMP JUMPDEST PUSH32 0x446964206E6F742077696E000000000000000000000000000000000000000000 PUSH0 DUP3 ADD MSTORE POP JUMP JUMPDEST PUSH0 PUSH2 0x20B3 PUSH1 0xB DUP4 PUSH2 0x1D26 JUMP JUMPDEST SWAP2 POP PUSH2 0x20BE DUP3 PUSH2 0x207F JUMP JUMPDEST PUSH1 0x20 DUP3 ADD SWAP1 POP SWAP2 SWAP1 POP JUMP JUMPDEST PUSH0 PUSH1 0x20 DUP3 ADD SWAP1 POP DUP2 DUP2 SUB PUSH0 DUP4 ADD MSTORE PUSH2 0x20E0 DUP2 PUSH2 0x20A7 JUMP JUMPDEST SWAP1 POP SWAP2 SWAP1 POP JUMP JUMPDEST PUSH32 0x416C726561647920636C61696D65640000000000000000000000000000000000 PUSH0 DUP3 ADD MSTORE POP JUMP JUMPDEST PUSH0 PUSH2 0x211B PUSH1 0xF DUP4 PUSH2 0x1D26 JUMP JUMPDEST SWAP2 POP PUSH2 0x2126 DUP3 PUSH2 0x20E7 JUMP JUMPDEST PUSH1 0x20 DUP3 ADD SWAP1 POP SWAP2 SWAP1 POP JUMP JUMPDEST PUSH0 PUSH1 0x20 DUP3 ADD SWAP1 POP DUP2 DUP2 SUB PUSH0 DUP4 ADD MSTORE PUSH2 0x2148 DUP2 PUSH2 0x210F JUMP JUMPDEST SWAP1 POP SWAP2 SWAP1 POP JUMP JUMPDEST PUSH0 PUSH2 0x2159 DUP3 PUSH2 0x1A92 JUMP JUMPDEST SWAP2 POP PUSH2 0x2164 DUP4 PUSH2 0x1A92 JUMP JUMPDEST SWAP3 POP DUP3 DUP3 SUB SWAP1 POP DUP2 DUP2 GT ISZERO PUSH2 0x217C JUMPI PUSH2 0x217B PUSH2 0x1EBF JUMP JUMPDEST JUMPDEST SWAP3 SWAP2 POP POP JUMP JUMPDEST PUSH32 0x42657420626967676572207468616E2077696E6E696E6720706F6F6C00000000 PUSH0 DUP3 ADD MSTORE POP JUMP JUMPDEST PUSH0 PUSH2 0x21B6 PUSH1 0x1C DUP4 PUSH2 0x1D26 JUMP JUMPDEST SWAP2 POP PUSH2 0x21C1 DUP3 PUSH2 0x2182 JUMP JUMPDEST PUSH1 0x20 DUP3 ADD SWAP1 POP SWAP2 SWAP1 POP JUMP JUMPDEST PUSH0 PUSH1 0x20 DUP3 ADD SWAP1 POP DUP2 DUP2 SUB PUSH0 DUP4 ADD MSTORE PUSH2 0x21E3 DUP2 PUSH2 0x21AA JUMP JUMPDEST SWAP1 POP SWAP2 SWAP1 POP JUMP JUMPDEST PUSH0 PUSH2 0x21F4 DUP3 PUSH2 0x1A92 JUMP JUMPDEST SWAP2 POP PUSH2 0x21FF DUP4 PUSH2 0x1A92 JUMP JUMPDEST SWAP3 POP DUP3 DUP3 MUL PUSH2 0x220D DUP2 PUSH2 0x1A92 JUMP JUMPDEST SWAP2 POP DUP3 DUP3 DIV DUP5 EQ DUP4 ISZERO OR PUSH2 0x2224 JUMPI PUSH2 0x2223 PUSH2 0x1EBF JUMP JUMPDEST JUMPDEST POP SWAP3 SWAP2 POP POP JUMP JUMPDEST PUSH32 0x4E487B7100000000000000000000000000000000000000000000000000000000 PUSH0 MSTORE PUSH1 0x12 PUSH1 0x4 MSTORE PUSH1 0x24 PUSH0 REVERT JUMPDEST PUSH0 PUSH2 0x2262 DUP3 PUSH2 0x1A92 JUMP JUMPDEST SWAP2 POP PUSH2 0x226D DUP4 PUSH2 0x1A92 JUMP JUMPDEST SWAP3 POP DUP3 PUSH2 0x227D JUMPI PUSH2 0x227C PUSH2 0x222B JUMP JUMPDEST JUMPDEST DUP3 DUP3 DIV SWAP1 POP SWAP3 SWAP2 POP POP JUMP JUMPDEST PUSH32 0x4E487B7100000000000000000000000000000000000000000000000000000000 PUSH0 MSTORE PUSH1 0x32 PUSH1 0x4 MSTORE PUSH1 0x24 PUSH0 REVERT JUMPDEST PUSH0 PUSH2 0x22BF DUP3 PUSH2 0x1A92 JUMP JUMPDEST SWAP2 POP PUSH2 0x22CA DUP4 PUSH2 0x1A92 JUMP JUMPDEST SWAP3 POP DUP3 PUSH2 0x22DA JUMPI PUSH2 0x22D9 PUSH2 0x222B JUMP JUMPDEST JUMPDEST DUP3 DUP3 MOD SWAP1 POP SWAP3 SWAP2 POP POP JUMP JUMPDEST PUSH0 PUSH2 0x22EF DUP3 PUSH2 0x1A92 JUMP JUMPDEST SWAP2 POP PUSH32 0xFFFFFFFFFFFFFFFFFFFFFFFFFFFFFFFFFFFFFFFFFFFFFFFFFFFFFFFFFFFFFFFF DUP3 SUB PUSH2 0x2321 JUMPI PUSH2 0x2320 PUSH2 0x1EBF JUMP JUMPDEST JUMPDEST PUSH1 0x1 DUP3 ADD SWAP1 POP SWAP2 SWAP1 POP JUMP JUMPDEST PUSH0 PUSH1 0x40 DUP3 ADD SWAP1 POP PUSH2 0x233F PUSH0 DUP4 ADD DUP6 PUSH2 0x1A9B JUMP JUMPDEST PUSH2 0x234C PUSH1 0x20 DUP4 ADD DUP5 PUSH2 0x1A9B JUMP JUMPDEST SWAP4 SWAP3 POP POP POP JUMP JUMPDEST PUSH0 DUP2 SWAP1 POP SWAP2 SWAP1 POP JUMP JUMPDEST PUSH2 0x2365 DUP2 PUSH2 0x2353 JUMP JUMPDEST DUP3 MSTORE POP POP JUMP JUMPDEST PUSH0 PUSH1 0x80 DUP3 ADD SWAP1 POP PUSH2 0x237E PUSH0 DUP4 ADD DUP8 PUSH2 0x235C JUMP JUMPDEST PUSH2 0x238B PUSH1 0x20 DUP4 ADD DUP7 PUSH2 0x1B00 JUMP JUMPDEST PUSH2 0x2398 PUSH1 0x40 DUP4 ADD DUP6 PUSH2 0x235C JUMP JUMPDEST PUSH2 0x23A5 PUSH1 0x60 DUP4 ADD DUP5 PUSH2 0x235C JUMP JUMPDEST SWAP6 SWAP5 POP POP POP POP POP JUMP INVALID LOG2 PUSH5 0x6970667358 0x22 SLT KECCAK256 KECCAK256 DUP2 JUMPI PUSH4 0xCEC3BD43 0xAB 0xEA SWAP5 0xCA 0x1F SHR PUSH25 0x354ACB91BD18F5548A5221513196A0497964736F6C63430008 BYTE STOP CALLER "
				},
				"gasEstimates": {
					"creation": {
						"codeDepositCost": "1837600",
						"executionCost": "infinite",
						"totalCost": "infinite"
					},
					"external": {
						"aggregateValues(uint256[])": "infinite",
						"bets(address)": "2880",
						"claim()": "infinite",
						"claims(address)": "2855",
						"end()": "2491",
						"endLimit()": "2448",
						"expected()": "2493",
						"extractTimestampsAndAssertAllAreEqual()": "infinite",
						"finalize()": "infinite",
						"getAuthorisedSignerIndex(address)": "infinite",
						"getDataServiceId()": "infinite",
						"getUniqueSignersThreshold()": "448",
						"noPool()": "2492",
						"outcome()": "2515",
						"payout(uint256)": "infinite",
						"placeBet(bool)": "infinite",
						"stakes(address)": "2848",
						"validateTimestamp(uint256)": "489",
						"yesPool()": "2536"
					}
				},
				"methodIdentifiers": {
					"aggregateValues(uint256[])": "b24ebfcc",
					"bets(address)": "89a78f1a",
					"claim()": "4e71d92d",
					"claims(address)": "c6788bdd",
					"end()": "efbe1c1c",
					"endLimit()": "7a1fc2e2",
					"expected()": "1ce62383",
					"extractTimestampsAndAssertAllAreEqual()": "55a547d5",
					"finalize()": "4bb278f3",
					"getAuthorisedSignerIndex(address)": "3ce142f5",
					"getDataServiceId()": "c274583a",
					"getUniqueSignersThreshold()": "f90c4924",
					"noPool()": "a3b5afb1",
					"outcome()": "27793f87",
					"payout(uint256)": "e1152343",
					"placeBet(bool)": "096a3778",
					"stakes(address)": "16934fc4",
					"validateTimestamp(uint256)": "f50b2efe",
					"yesPool()": "6f1d4ea4"
				}
			},
			"storageLayout": {
				"storage": [
					{
						"astId": 1476,
						"contract": "contracts/PriceBet.sol:PriceBet",
						"label": "symbol",
						"offset": 0,
						"slot": "0",
						"type": "t_bytes32"
					},
					{
						"astId": 1478,
						"contract": "contracts/PriceBet.sol:PriceBet",
						"label": "expected",
						"offset": 0,
						"slot": "1",
						"type": "t_uint256"
					},
					{
						"astId": 1481,
						"contract": "contracts/PriceBet.sol:PriceBet",
						"label": "outcome",
						"offset": 0,
						"slot": "2",
						"type": "t_int256"
					},
					{
						"astId": 1483,
						"contract": "contracts/PriceBet.sol:PriceBet",
						"label": "end",
						"offset": 0,
						"slot": "3",
						"type": "t_uint256"
					},
					{
						"astId": 1485,
						"contract": "contracts/PriceBet.sol:PriceBet",
						"label": "endLimit",
						"offset": 0,
						"slot": "4",
						"type": "t_uint256"
					},
					{
						"astId": 1489,
						"contract": "contracts/PriceBet.sol:PriceBet",
						"label": "bets",
						"offset": 0,
						"slot": "5",
						"type": "t_mapping(t_address,t_int8)"
					},
					{
						"astId": 1493,
						"contract": "contracts/PriceBet.sol:PriceBet",
						"label": "stakes",
						"offset": 0,
						"slot": "6",
						"type": "t_mapping(t_address,t_uint256)"
					},
					{
						"astId": 1497,
						"contract": "contracts/PriceBet.sol:PriceBet",
						"label": "claims",
						"offset": 0,
						"slot": "7",
						"type": "t_mapping(t_address,t_bool)"
					},
					{
						"astId": 1499,
						"contract": "contracts/PriceBet.sol:PriceBet",
						"label": "yesPool",
						"offset": 0,
						"slot": "8",
						"type": "t_uint256"
					},
					{
						"astId": 1501,
						"contract": "contracts/PriceBet.sol:PriceBet",
						"label": "noPool",
						"offset": 0,
						"slot": "9",
						"type": "t_uint256"
					}
				],
				"types": {
					"t_address": {
						"encoding": "inplace",
						"label": "address",
						"numberOfBytes": "20"
					},
					"t_bool": {
						"encoding": "inplace",
						"label": "bool",
						"numberOfBytes": "1"
					},
					"t_bytes32": {
						"encoding": "inplace",
						"label": "bytes32",
						"numberOfBytes": "32"
					},
					"t_int256": {
						"encoding": "inplace",
						"label": "int256",
						"numberOfBytes": "32"
					},
					"t_int8": {
						"encoding": "inplace",
						"label": "int8",
						"numberOfBytes": "1"
					},
					"t_mapping(t_address,t_bool)": {
						"encoding": "mapping",
						"key": "t_address",
						"label": "mapping(address => bool)",
						"numberOfBytes": "32",
						"value": "t_bool"
					},
					"t_mapping(t_address,t_int8)": {
						"encoding": "mapping",
						"key": "t_address",
						"label": "mapping(address => int8)",
						"numberOfBytes": "32",
						"value": "t_int8"
					},
					"t_mapping(t_address,t_uint256)": {
						"encoding": "mapping",
						"key": "t_address",
						"label": "mapping(address => uint256)",
						"numberOfBytes": "32",
						"value": "t_uint256"
					},
					"t_uint256": {
						"encoding": "inplace",
						"label": "uint256",
						"numberOfBytes": "32"
					}
				}
			},
			"userdoc": {
				"kind": "user",
				"methods": {},
				"version": 1
			}
		}
	}
}