{
	"contracts/PriceBet.sol": {
		"PriceBet": {
			"abi": [
				{
					"inputs": [
						{
							"internalType": "bytes32",
							"name": "_symbol",
							"type": "bytes32"
						},
						{
							"internalType": "uint256",
							"name": "_expected",
							"type": "uint256"
						},
						{
							"internalType": "uint256",
							"name": "_end",
							"type": "uint256"
						}
					],
					"stateMutability": "nonpayable",
					"type": "constructor"
				},
				{
					"inputs": [],
					"name": "CalldataMustHaveValidPayload",
					"type": "error"
				},
				{
					"inputs": [],
					"name": "CalldataOverOrUnderFlow",
					"type": "error"
				},
				{
					"inputs": [],
					"name": "CanNotPickMedianOfEmptyArray",
					"type": "error"
				},
				{
					"inputs": [],
					"name": "DataPackageTimestampMustNotBeZero",
					"type": "error"
				},
				{
					"inputs": [],
					"name": "DataPackageTimestampsMustBeEqual",
					"type": "error"
				},
				{
					"inputs": [],
					"name": "DataTimestampCannotBeZero",
					"type": "error"
				},
				{
					"inputs": [],
					"name": "EachSignerMustProvideTheSameValue",
					"type": "error"
				},
				{
					"inputs": [],
					"name": "EmptyCalldataPointersArr",
					"type": "error"
				},
				{
					"inputs": [],
					"name": "GetDataServiceIdNotImplemented",
					"type": "error"
				},
				{
					"inputs": [],
					"name": "IncorrectUnsignedMetadataSize",
					"type": "error"
				},
				{
					"inputs": [
						{
							"internalType": "uint256",
							"name": "receivedSignersCount",
							"type": "uint256"
						},
						{
							"internalType": "uint256",
							"name": "requiredSignersCount",
							"type": "uint256"
						}
					],
					"name": "InsufficientNumberOfUniqueSigners",
					"type": "error"
				},
				{
					"inputs": [],
					"name": "InvalidCalldataPointer",
					"type": "error"
				},
				{
					"inputs": [],
					"name": "RedstonePayloadMustHaveAtLeastOneDataPackage",
					"type": "error"
				},
				{
					"inputs": [
						{
							"internalType": "address",
							"name": "receivedSigner",
							"type": "address"
						}
					],
					"name": "SignerNotAuthorised",
					"type": "error"
				},
				{
					"inputs": [],
					"name": "TimestampsMustBeEqual",
					"type": "error"
				},
				{
					"inputs": [
						{
							"internalType": "uint256",
							"name": "valueByteSize",
							"type": "uint256"
						}
					],
					"name": "TooLargeValueByteSize",
					"type": "error"
				},
				{
					"inputs": [
						{
							"internalType": "uint256[]",
							"name": "values",
							"type": "uint256[]"
						}
					],
					"name": "aggregateValues",
					"outputs": [
						{
							"internalType": "uint256",
							"name": "",
							"type": "uint256"
						}
					],
					"stateMutability": "view",
					"type": "function"
				},
				{
					"inputs": [
						{
							"internalType": "address",
							"name": "",
							"type": "address"
						}
					],
					"name": "bets",
					"outputs": [
						{
							"internalType": "int8",
							"name": "",
							"type": "int8"
						}
					],
					"stateMutability": "view",
					"type": "function"
				},
				{
					"inputs": [],
					"name": "claim",
					"outputs": [],
					"stateMutability": "nonpayable",
					"type": "function"
				},
				{
					"inputs": [
						{
							"internalType": "address",
							"name": "",
							"type": "address"
						}
					],
					"name": "claims",
					"outputs": [
						{
							"internalType": "bool",
							"name": "",
							"type": "bool"
						}
					],
					"stateMutability": "view",
					"type": "function"
				},
				{
					"inputs": [],
					"name": "end",
					"outputs": [
						{
							"internalType": "uint256",
							"name": "",
							"type": "uint256"
						}
					],
					"stateMutability": "view",
					"type": "function"
				},
				{
					"inputs": [],
					"name": "endLimit",
					"outputs": [
						{
							"internalType": "uint256",
							"name": "",
							"type": "uint256"
						}
					],
					"stateMutability": "view",
					"type": "function"
				},
				{
					"inputs": [],
					"name": "expected",
					"outputs": [
						{
							"internalType": "uint256",
							"name": "",
							"type": "uint256"
						}
					],
					"stateMutability": "view",
					"type": "function"
				},
				{
					"inputs": [],
					"name": "extractTimestampsAndAssertAllAreEqual",
					"outputs": [
						{
							"internalType": "uint256",
							"name": "extractedTimestamp",
							"type": "uint256"
						}
					],
					"stateMutability": "pure",
					"type": "function"
				},
				{
					"inputs": [],
					"name": "finalize",
					"outputs": [],
					"stateMutability": "nonpayable",
					"type": "function"
				},
				{
					"inputs": [
						{
							"internalType": "address",
							"name": "signerAddress",
							"type": "address"
						}
					],
					"name": "getAuthorisedSignerIndex",
					"outputs": [
						{
							"internalType": "uint8",
							"name": "",
							"type": "uint8"
						}
					],
					"stateMutability": "view",
					"type": "function"
				},
				{
					"inputs": [],
					"name": "getDataServiceId",
					"outputs": [
						{
							"internalType": "string",
							"name": "",
							"type": "string"
						}
					],
					"stateMutability": "view",
					"type": "function"
				},
				{
					"inputs": [],
					"name": "getUniqueSignersThreshold",
					"outputs": [
						{
							"internalType": "uint8",
							"name": "",
							"type": "uint8"
						}
					],
					"stateMutability": "view",
					"type": "function"
				},
				{
					"inputs": [],
					"name": "noPool",
					"outputs": [
						{
							"internalType": "uint256",
							"name": "",
							"type": "uint256"
						}
					],
					"stateMutability": "view",
					"type": "function"
				},
				{
					"inputs": [],
					"name": "outcome",
					"outputs": [
						{
							"internalType": "int256",
							"name": "",
							"type": "int256"
						}
					],
					"stateMutability": "view",
					"type": "function"
				},
				{
					"inputs": [
						{
							"internalType": "uint256",
							"name": "bet",
							"type": "uint256"
						}
					],
					"name": "payout",
					"outputs": [
						{
							"internalType": "uint256",
							"name": "",
							"type": "uint256"
						}
					],
					"stateMutability": "view",
					"type": "function"
				},
				{
					"inputs": [
						{
							"internalType": "bool",
							"name": "_outcome",
							"type": "bool"
						}
					],
					"name": "placeBet",
					"outputs": [],
					"stateMutability": "payable",
					"type": "function"
				},
				{
					"inputs": [
						{
							"internalType": "address",
							"name": "",
							"type": "address"
						}
					],
					"name": "stakes",
					"outputs": [
						{
							"internalType": "uint256",
							"name": "",
							"type": "uint256"
						}
					],
					"stateMutability": "view",
					"type": "function"
				},
				{
					"inputs": [
						{
							"internalType": "uint256",
							"name": "receivedTimestampMilliseconds",
							"type": "uint256"
						}
					],
					"name": "validateTimestamp",
					"outputs": [],
					"stateMutability": "view",
					"type": "function"
				},
				{
					"inputs": [],
					"name": "yesPool",
					"outputs": [
						{
							"internalType": "uint256",
							"name": "",
							"type": "uint256"
						}
					],
					"stateMutability": "view",
					"type": "function"
				}
			],
			"devdoc": {
				"kind": "dev",
				"methods": {
					"aggregateValues(uint256[])": {
						"details": "This function may be overridden by the child consumer contract. It should aggregate values from different signers to a single uint value. By default, it calculates the median value",
						"params": {
							"values": "An array of uint256 values from different signers"
						},
						"returns": {
							"_0": "Result of the aggregation in the form of a single number"
						}
					},
					"getDataServiceId()": {
						"details": "This function must be implemented by the child consumer contract. It should return dataServiceId which DataServiceWrapper will use if not provided explicitly . If not overridden, value will always have to be provided explicitly in DataServiceWrapper.",
						"returns": {
							"_0": "dataServiceId being consumed by contract"
						}
					},
					"getUniqueSignersThreshold()": {
						"details": "This function should be overridden by the child consumer contract.",
						"returns": {
							"_0": "The minimum required value of unique authorised signers"
						}
					},
					"validateTimestamp(uint256)": {
						"details": "This function may be overridden by the child consumer contract. It should validate the timestamp against the current time (block.timestamp) It should revert with a helpful message if the timestamp is not valid",
						"params": {
							"receivedTimestampMilliseconds": "Timestamp extracted from calldata"
						}
					}
				},
				"version": 1
			},
			"evm": {
				"assembly": "    /* \"contracts/PriceBet.sol\":149:2417  contract PriceBet is MainDemoConsumerBase {... */\n  mstore(0x40, 0x80)\n    /* \"contracts/PriceBet.sol\":270:271  0 */\n  0x00\n    /* \"contracts/PriceBet.sol\":246:271  int256 public outcome = 0 */\n  0x02\n  sstore\n    /* \"contracts/PriceBet.sol\":522:697  constructor(... */\n  callvalue\n  dup1\n  iszero\n  tag_1\n  jumpi\n  0x00\n  dup1\n  revert\ntag_1:\n  pop\n  mload(0x40)\n  sub(codesize, bytecodeSize)\n  dup1\n  bytecodeSize\n  dup4\n  codecopy\n  dup2\n  dup2\n  add\n  0x40\n  mstore\n  dup2\n  add\n  swap1\n  tag_2\n  swap2\n  swap1\n  tag_3\n  jump\t// in\ntag_2:\n    /* \"contracts/PriceBet.sol\":633:640  _symbol */\n  dup3\n    /* \"contracts/PriceBet.sol\":624:630  symbol */\n  0x00\n    /* \"contracts/PriceBet.sol\":624:640  symbol = _symbol */\n  dup2\n  swap1\n  sstore\n  pop\n    /* \"contracts/PriceBet.sol\":661:670  _expected */\n  dup2\n    /* \"contracts/PriceBet.sol\":650:658  expected */\n  0x01\n    /* \"contracts/PriceBet.sol\":650:670  expected = _expected */\n  dup2\n  swap1\n  sstore\n  pop\n    /* \"contracts/PriceBet.sol\":686:690  _end */\n  dup1\n    /* \"contracts/PriceBet.sol\":680:683  end */\n  0x03\n    /* \"contracts/PriceBet.sol\":680:690  end = _end */\n  dup2\n  swap1\n  sstore\n  pop\n    /* \"contracts/PriceBet.sol\":522:697  constructor(... */\n  pop\n  pop\n  pop\n    /* \"contracts/PriceBet.sol\":149:2417  contract PriceBet is MainDemoConsumerBase {... */\n  jump(tag_6)\n    /* \"#utility.yul\":7:150   */\ntag_8:\n    /* \"#utility.yul\":64:69   */\n  0x00\n    /* \"#utility.yul\":95:101   */\n  dup2\n    /* \"#utility.yul\":89:102   */\n  mload\n    /* \"#utility.yul\":80:102   */\n  swap1\n  pop\n    /* \"#utility.yul\":111:144   */\n  tag_10\n    /* \"#utility.yul\":138:143   */\n  dup2\n    /* \"#utility.yul\":111:144   */\n  tag_11\n  jump\t// in\ntag_10:\n    /* \"#utility.yul\":7:150   */\n  swap3\n  swap2\n  pop\n  pop\n  jump\t// out\n    /* \"#utility.yul\":156:299   */\ntag_12:\n    /* \"#utility.yul\":213:218   */\n  0x00\n    /* \"#utility.yul\":244:250   */\n  dup2\n    /* \"#utility.yul\":238:251   */\n  mload\n    /* \"#utility.yul\":229:251   */\n  swap1\n  pop\n    /* \"#utility.yul\":260:293   */\n  tag_14\n    /* \"#utility.yul\":287:292   */\n  dup2\n    /* \"#utility.yul\":260:293   */\n  tag_15\n  jump\t// in\ntag_14:\n    /* \"#utility.yul\":156:299   */\n  swap3\n  swap2\n  pop\n  pop\n  jump\t// out\n    /* \"#utility.yul\":305:968   */\ntag_3:\n    /* \"#utility.yul\":393:399   */\n  0x00\n    /* \"#utility.yul\":401:407   */\n  dup1\n    /* \"#utility.yul\":409:415   */\n  0x00\n    /* \"#utility.yul\":458:460   */\n  0x60\n    /* \"#utility.yul\":446:455   */\n  dup5\n    /* \"#utility.yul\":437:444   */\n  dup7\n    /* \"#utility.yul\":433:456   */\n  sub\n    /* \"#utility.yul\":429:461   */\n  slt\n    /* \"#utility.yul\":426:545   */\n  iszero\n  tag_17\n  jumpi\n    /* \"#utility.yul\":464:543   */\n  tag_18\n  tag_19\n  jump\t// in\ntag_18:\n    /* \"#utility.yul\":426:545   */\ntag_17:\n    /* \"#utility.yul\":584:585   */\n  0x00\n    /* \"#utility.yul\":609:673   */\n  tag_20\n    /* \"#utility.yul\":665:672   */\n  dup7\n    /* \"#utility.yul\":656:662   */\n  dup3\n    /* \"#utility.yul\":645:654   */\n  dup8\n    /* \"#utility.yul\":641:663   */\n  add\n    /* \"#utility.yul\":609:673   */\n  tag_8\n  jump\t// in\ntag_20:\n    /* \"#utility.yul\":599:673   */\n  swap4\n  pop\n    /* \"#utility.yul\":555:683   */\n  pop\n    /* \"#utility.yul\":722:724   */\n  0x20\n    /* \"#utility.yul\":748:812   */\n  tag_21\n    /* \"#utility.yul\":804:811   */\n  dup7\n    /* \"#utility.yul\":795:801   */\n  dup3\n    /* \"#utility.yul\":784:793   */\n  dup8\n    /* \"#utility.yul\":780:802   */\n  add\n    /* \"#utility.yul\":748:812   */\n  tag_12\n  jump\t// in\ntag_21:\n    /* \"#utility.yul\":738:812   */\n  swap3\n  pop\n    /* \"#utility.yul\":693:822   */\n  pop\n    /* \"#utility.yul\":861:863   */\n  0x40\n    /* \"#utility.yul\":887:951   */\n  tag_22\n    /* \"#utility.yul\":943:950   */\n  dup7\n    /* \"#utility.yul\":934:940   */\n  dup3\n    /* \"#utility.yul\":923:932   */\n  dup8\n    /* \"#utility.yul\":919:941   */\n  add\n    /* \"#utility.yul\":887:951   */\n  tag_12\n  jump\t// in\ntag_22:\n    /* \"#utility.yul\":877:951   */\n  swap2\n  pop\n    /* \"#utility.yul\":832:961   */\n  pop\n    /* \"#utility.yul\":305:968   */\n  swap3\n  pop\n  swap3\n  pop\n  swap3\n  jump\t// out\n    /* \"#utility.yul\":1055:1132   */\ntag_25:\n    /* \"#utility.yul\":1092:1099   */\n  0x00\n    /* \"#utility.yul\":1121:1126   */\n  dup2\n    /* \"#utility.yul\":1110:1126   */\n  swap1\n  pop\n    /* \"#utility.yul\":1055:1132   */\n  swap2\n  swap1\n  pop\n  jump\t// out\n    /* \"#utility.yul\":1138:1215   */\ntag_27:\n    /* \"#utility.yul\":1175:1182   */\n  0x00\n    /* \"#utility.yul\":1204:1209   */\n  dup2\n    /* \"#utility.yul\":1193:1209   */\n  swap1\n  pop\n    /* \"#utility.yul\":1138:1215   */\n  swap2\n  swap1\n  pop\n  jump\t// out\n    /* \"#utility.yul\":1344:1461   */\ntag_19:\n    /* \"#utility.yul\":1453:1454   */\n  0x00\n    /* \"#utility.yul\":1450:1451   */\n  dup1\n    /* \"#utility.yul\":1443:1455   */\n  revert\n    /* \"#utility.yul\":1467:1589   */\ntag_11:\n    /* \"#utility.yul\":1540:1564   */\n  tag_33\n    /* \"#utility.yul\":1558:1563   */\n  dup2\n    /* \"#utility.yul\":1540:1564   */\n  tag_25\n  jump\t// in\ntag_33:\n    /* \"#utility.yul\":1533:1538   */\n  dup2\n    /* \"#utility.yul\":1530:1565   */\n  eq\n    /* \"#utility.yul\":1520:1583   */\n  tag_34\n  jumpi\n    /* \"#utility.yul\":1579:1580   */\n  0x00\n    /* \"#utility.yul\":1576:1577   */\n  dup1\n    /* \"#utility.yul\":1569:1581   */\n  revert\n    /* \"#utility.yul\":1520:1583   */\ntag_34:\n    /* \"#utility.yul\":1467:1589   */\n  pop\n  jump\t// out\n    /* \"#utility.yul\":1595:1717   */\ntag_15:\n    /* \"#utility.yul\":1668:1692   */\n  tag_36\n    /* \"#utility.yul\":1686:1691   */\n  dup2\n    /* \"#utility.yul\":1668:1692   */\n  tag_27\n  jump\t// in\ntag_36:\n    /* \"#utility.yul\":1661:1666   */\n  dup2\n    /* \"#utility.yul\":1658:1693   */\n  eq\n    /* \"#utility.yul\":1648:1711   */\n  tag_37\n  jumpi\n    /* \"#utility.yul\":1707:1708   */\n  0x00\n    /* \"#utility.yul\":1704:1705   */\n  dup1\n    /* \"#utility.yul\":1697:1709   */\n  revert\n    /* \"#utility.yul\":1648:1711   */\ntag_37:\n    /* \"#utility.yul\":1595:1717   */\n  pop\n  jump\t// out\n    /* \"contracts/PriceBet.sol\":149:2417  contract PriceBet is MainDemoConsumerBase {... */\ntag_6:\n  dataSize(sub_0)\n  dup1\n  dataOffset(sub_0)\n  0x00\n  codecopy\n  0x00\n  return\nstop\n\nsub_0: assembly {\n        /* \"contracts/PriceBet.sol\":149:2417  contract PriceBet is MainDemoConsumerBase {... */\n      mstore(0x40, 0x80)\n      jumpi(tag_1, lt(calldatasize, 0x04))\n      shr(0xe0, calldataload(0x00))\n      dup1\n      0x7a1fc2e2\n      gt\n      tag_21\n      jumpi\n      dup1\n      0xc6788bdd\n      gt\n      tag_22\n      jumpi\n      dup1\n      0xc6788bdd\n      eq\n      tag_16\n      jumpi\n      dup1\n      0xe1152343\n      eq\n      tag_17\n      jumpi\n      dup1\n      0xefbe1c1c\n      eq\n      tag_18\n      jumpi\n      dup1\n      0xf50b2efe\n      eq\n      tag_19\n      jumpi\n      dup1\n      0xf90c4924\n      eq\n      tag_20\n      jumpi\n      jump(tag_1)\n    tag_22:\n      dup1\n      0x7a1fc2e2\n      eq\n      tag_11\n      jumpi\n      dup1\n      0x89a78f1a\n      eq\n      tag_12\n      jumpi\n      dup1\n      0xa3b5afb1\n      eq\n      tag_13\n      jumpi\n      dup1\n      0xb24ebfcc\n      eq\n      tag_14\n      jumpi\n      dup1\n      0xc274583a\n      eq\n      tag_15\n      jumpi\n      jump(tag_1)\n    tag_21:\n      dup1\n      0x3ce142f5\n      gt\n      tag_23\n      jumpi\n      dup1\n      0x3ce142f5\n      eq\n      tag_6\n      jumpi\n      dup1\n      0x4bb278f3\n      eq\n      tag_7\n      jumpi\n      dup1\n      0x4e71d92d\n      eq\n      tag_8\n      jumpi\n      dup1\n      0x55a547d5\n      eq\n      tag_9\n      jumpi\n      dup1\n      0x6f1d4ea4\n      eq\n      tag_10\n      jumpi\n      jump(tag_1)\n    tag_23:\n      dup1\n      0x096a3778\n      eq\n      tag_2\n      jumpi\n      dup1\n      0x16934fc4\n      eq\n      tag_3\n      jumpi\n      dup1\n      0x1ce62383\n      eq\n      tag_4\n      jumpi\n      dup1\n      0x27793f87\n      eq\n      tag_5\n      jumpi\n    tag_1:\n      0x00\n      dup1\n      revert\n        /* \"contracts/PriceBet.sol\":1168:1625  function placeBet(bool _outcome) public payable {... */\n    tag_2:\n      tag_24\n      0x04\n      dup1\n      calldatasize\n      sub\n      dup2\n      add\n      swap1\n      tag_25\n      swap2\n      swap1\n      tag_26\n      jump\t// in\n    tag_25:\n      tag_27\n      jump\t// in\n    tag_24:\n      stop\n        /* \"contracts/PriceBet.sol\":373:415  mapping (address => uint256) public stakes */\n    tag_3:\n      callvalue\n      dup1\n      iszero\n      tag_28\n      jumpi\n      0x00\n      dup1\n      revert\n    tag_28:\n      pop\n      tag_29\n      0x04\n      dup1\n      calldatasize\n      sub\n      dup2\n      add\n      swap1\n      tag_30\n      swap2\n      swap1\n      tag_31\n      jump\t// in\n    tag_30:\n      tag_32\n      jump\t// in\n    tag_29:\n      mload(0x40)\n      tag_33\n      swap2\n      swap1\n      tag_34\n      jump\t// in\n    tag_33:\n      mload(0x40)\n      dup1\n      swap2\n      sub\n      swap1\n      return\n        /* \"contracts/PriceBet.sol\":217:240  uint256 public expected */\n    tag_4:\n      callvalue\n      dup1\n      iszero\n      tag_35\n      jumpi\n      0x00\n      dup1\n      revert\n    tag_35:\n      pop\n      tag_36\n      tag_37\n      jump\t// in\n    tag_36:\n      mload(0x40)\n      tag_38\n      swap2\n      swap1\n      tag_34\n      jump\t// in\n    tag_38:\n      mload(0x40)\n      dup1\n      swap2\n      sub\n      swap1\n      return\n        /* \"contracts/PriceBet.sol\":246:271  int256 public outcome = 0 */\n    tag_5:\n      callvalue\n      dup1\n      iszero\n      tag_39\n      jumpi\n      0x00\n      dup1\n      revert\n    tag_39:\n      pop\n      tag_40\n      tag_41\n      jump\t// in\n    tag_40:\n      mload(0x40)\n      tag_42\n      swap2\n      swap1\n      tag_43\n      jump\t// in\n    tag_42:\n      mload(0x40)\n      dup1\n      swap2\n      sub\n      swap1\n      return\n        /* \"@redstone-finance/evm-connector/contracts/data-services/MainDemoConsumerBase.sol\":407:691  function getAuthorisedSignerIndex(address signerAddress)... */\n    tag_6:\n      callvalue\n      dup1\n      iszero\n      tag_44\n      jumpi\n      0x00\n      dup1\n      revert\n    tag_44:\n      pop\n      tag_45\n      0x04\n      dup1\n      calldatasize\n      sub\n      dup2\n      add\n      swap1\n      tag_46\n      swap2\n      swap1\n      tag_31\n      jump\t// in\n    tag_46:\n      tag_47\n      jump\t// in\n    tag_45:\n      mload(0x40)\n      tag_48\n      swap2\n      swap1\n      tag_49\n      jump\t// in\n    tag_48:\n      mload(0x40)\n      dup1\n      swap2\n      sub\n      swap1\n      return\n        /* \"contracts/PriceBet.sol\":811:1162  function finalize() external {... */\n    tag_7:\n      callvalue\n      dup1\n      iszero\n      tag_50\n      jumpi\n      0x00\n      dup1\n      revert\n    tag_50:\n      pop\n      tag_51\n      tag_52\n      jump\t// in\n    tag_51:\n      stop\n        /* \"contracts/PriceBet.sol\":1631:2017  function claim() public {... */\n    tag_8:\n      callvalue\n      dup1\n      iszero\n      tag_53\n      jumpi\n      0x00\n      dup1\n      revert\n    tag_53:\n      pop\n      tag_54\n      tag_55\n      jump\t// in\n    tag_54:\n      stop\n        /* \"@redstone-finance/evm-connector/contracts/core/CalldataExtractor.sol\":599:2010  function extractTimestampsAndAssertAllAreEqual() public pure returns (uint256 extractedTimestamp) {... */\n    tag_9:\n      callvalue\n      dup1\n      iszero\n      tag_56\n      jumpi\n      0x00\n      dup1\n      revert\n    tag_56:\n      pop\n      tag_57\n      tag_58\n      jump\t// in\n    tag_57:\n      mload(0x40)\n      tag_59\n      swap2\n      swap1\n      tag_34\n      jump\t// in\n    tag_59:\n      mload(0x40)\n      dup1\n      swap2\n      sub\n      swap1\n      return\n        /* \"contracts/PriceBet.sol\":466:488  uint256 public yesPool */\n    tag_10:\n      callvalue\n      dup1\n      iszero\n      tag_60\n      jumpi\n      0x00\n      dup1\n      revert\n    tag_60:\n      pop\n      tag_61\n      tag_62\n      jump\t// in\n    tag_61:\n      mload(0x40)\n      tag_63\n      swap2\n      swap1\n      tag_34\n      jump\t// in\n    tag_63:\n      mload(0x40)\n      dup1\n      swap2\n      sub\n      swap1\n      return\n        /* \"contracts/PriceBet.sol\":301:324  uint256 public endLimit */\n    tag_11:\n      callvalue\n      dup1\n      iszero\n      tag_64\n      jumpi\n      0x00\n      dup1\n      revert\n    tag_64:\n      pop\n      tag_65\n      tag_66\n      jump\t// in\n    tag_65:\n      mload(0x40)\n      tag_67\n      swap2\n      swap1\n      tag_34\n      jump\t// in\n    tag_67:\n      mload(0x40)\n      dup1\n      swap2\n      sub\n      swap1\n      return\n        /* \"contracts/PriceBet.sol\":330:367  mapping (address => int8) public bets */\n    tag_12:\n      callvalue\n      dup1\n      iszero\n      tag_68\n      jumpi\n      0x00\n      dup1\n      revert\n    tag_68:\n      pop\n      tag_69\n      0x04\n      dup1\n      calldatasize\n      sub\n      dup2\n      add\n      swap1\n      tag_70\n      swap2\n      swap1\n      tag_31\n      jump\t// in\n    tag_70:\n      tag_71\n      jump\t// in\n    tag_69:\n      mload(0x40)\n      tag_72\n      swap2\n      swap1\n      tag_73\n      jump\t// in\n    tag_72:\n      mload(0x40)\n      dup1\n      swap2\n      sub\n      swap1\n      return\n        /* \"contracts/PriceBet.sol\":494:515  uint256 public noPool */\n    tag_13:\n      callvalue\n      dup1\n      iszero\n      tag_74\n      jumpi\n      0x00\n      dup1\n      revert\n    tag_74:\n      pop\n      tag_75\n      tag_76\n      jump\t// in\n    tag_75:\n      mload(0x40)\n      tag_77\n      swap2\n      swap1\n      tag_34\n      jump\t// in\n    tag_77:\n      mload(0x40)\n      dup1\n      swap2\n      sub\n      swap1\n      return\n        /* \"@redstone-finance/evm-connector/contracts/core/RedstoneConsumerBase.sol\":2697:2846  function aggregateValues(uint256[] memory values) public view virtual returns (uint256) {... */\n    tag_14:\n      callvalue\n      dup1\n      iszero\n      tag_78\n      jumpi\n      0x00\n      dup1\n      revert\n    tag_78:\n      pop\n      tag_79\n      0x04\n      dup1\n      calldatasize\n      sub\n      dup2\n      add\n      swap1\n      tag_80\n      swap2\n      swap1\n      tag_81\n      jump\t// in\n    tag_80:\n      tag_82\n      jump\t// in\n    tag_79:\n      mload(0x40)\n      tag_83\n      swap2\n      swap1\n      tag_34\n      jump\t// in\n    tag_83:\n      mload(0x40)\n      dup1\n      swap2\n      sub\n      swap1\n      return\n        /* \"@redstone-finance/evm-connector/contracts/data-services/MainDemoConsumerBase.sol\":179:298  function getDataServiceId() public view virtual override returns (string memory) {... */\n    tag_15:\n      callvalue\n      dup1\n      iszero\n      tag_84\n      jumpi\n      0x00\n      dup1\n      revert\n    tag_84:\n      pop\n      tag_85\n      tag_86\n      jump\t// in\n    tag_85:\n      mload(0x40)\n      tag_87\n      swap2\n      swap1\n      tag_88\n      jump\t// in\n    tag_87:\n      mload(0x40)\n      dup1\n      swap2\n      sub\n      swap1\n      return\n        /* \"contracts/PriceBet.sol\":421:460  mapping (address => bool) public claims */\n    tag_16:\n      callvalue\n      dup1\n      iszero\n      tag_89\n      jumpi\n      0x00\n      dup1\n      revert\n    tag_89:\n      pop\n      tag_90\n      0x04\n      dup1\n      calldatasize\n      sub\n      dup2\n      add\n      swap1\n      tag_91\n      swap2\n      swap1\n      tag_31\n      jump\t// in\n    tag_91:\n      tag_92\n      jump\t// in\n    tag_90:\n      mload(0x40)\n      tag_93\n      swap2\n      swap1\n      tag_94\n      jump\t// in\n    tag_93:\n      mload(0x40)\n      dup1\n      swap2\n      sub\n      swap1\n      return\n        /* \"contracts/PriceBet.sol\":2023:2415  function payout(uint256 bet) public view returns(uint256) {... */\n    tag_17:\n      callvalue\n      dup1\n      iszero\n      tag_95\n      jumpi\n      0x00\n      dup1\n      revert\n    tag_95:\n      pop\n      tag_96\n      0x04\n      dup1\n      calldatasize\n      sub\n      dup2\n      add\n      swap1\n      tag_97\n      swap2\n      swap1\n      tag_98\n      jump\t// in\n    tag_97:\n      tag_99\n      jump\t// in\n    tag_96:\n      mload(0x40)\n      tag_100\n      swap2\n      swap1\n      tag_34\n      jump\t// in\n    tag_100:\n      mload(0x40)\n      dup1\n      swap2\n      sub\n      swap1\n      return\n        /* \"contracts/PriceBet.sol\":277:295  uint256 public end */\n    tag_18:\n      callvalue\n      dup1\n      iszero\n      tag_101\n      jumpi\n      0x00\n      dup1\n      revert\n    tag_101:\n      pop\n      tag_102\n      tag_103\n      jump\t// in\n    tag_102:\n      mload(0x40)\n      tag_104\n      swap2\n      swap1\n      tag_34\n      jump\t// in\n    tag_104:\n      mload(0x40)\n      dup1\n      swap2\n      sub\n      swap1\n      return\n        /* \"contracts/PriceBet.sol\":707:805  function validateTimestamp(uint256 receivedTimestampMilliseconds) public view virtual override { } */\n    tag_19:\n      callvalue\n      dup1\n      iszero\n      tag_105\n      jumpi\n      0x00\n      dup1\n      revert\n    tag_105:\n      pop\n      tag_106\n      0x04\n      dup1\n      calldatasize\n      sub\n      dup2\n      add\n      swap1\n      tag_107\n      swap2\n      swap1\n      tag_98\n      jump\t// in\n    tag_107:\n      tag_108\n      jump\t// in\n    tag_106:\n      stop\n        /* \"@redstone-finance/evm-connector/contracts/data-services/MainDemoConsumerBase.sol\":302:403  function getUniqueSignersThreshold() public view virtual override returns (uint8) {... */\n    tag_20:\n      callvalue\n      dup1\n      iszero\n      tag_109\n      jumpi\n      0x00\n      dup1\n      revert\n    tag_109:\n      pop\n      tag_110\n      tag_111\n      jump\t// in\n    tag_110:\n      mload(0x40)\n      tag_112\n      swap2\n      swap1\n      tag_49\n      jump\t// in\n    tag_112:\n      mload(0x40)\n      dup1\n      swap2\n      sub\n      swap1\n      return\n        /* \"contracts/PriceBet.sol\":1168:1625  function placeBet(bool _outcome) public payable {... */\n    tag_27:\n        /* \"contracts/PriceBet.sol\":1247:1248  0 */\n      0x00\n        /* \"contracts/PriceBet.sol\":1234:1243  msg.value */\n      callvalue\n        /* \"contracts/PriceBet.sol\":1234:1248  msg.value != 0 */\n      eq\n      iszero\n        /* \"contracts/PriceBet.sol\":1226:1268  require(msg.value != 0, \"No value im bet\") */\n      tag_114\n      jumpi\n      mload(0x40)\n      0x08c379a000000000000000000000000000000000000000000000000000000000\n      dup2\n      mstore\n      0x04\n      add\n      tag_115\n      swap1\n      tag_116\n      jump\t// in\n    tag_115:\n      mload(0x40)\n      dup1\n      swap2\n      sub\n      swap1\n      revert\n    tag_114:\n        /* \"contracts/PriceBet.sol\":1306:1307  0 */\n      0x00\n        /* \"contracts/PriceBet.sol\":1286:1290  bets */\n      0x05\n        /* \"contracts/PriceBet.sol\":1286:1302  bets[msg.sender] */\n      0x00\n        /* \"contracts/PriceBet.sol\":1291:1301  msg.sender */\n      caller\n        /* \"contracts/PriceBet.sol\":1286:1302  bets[msg.sender] */\n      0xffffffffffffffffffffffffffffffffffffffff\n      and\n      0xffffffffffffffffffffffffffffffffffffffff\n      and\n      dup2\n      mstore\n      0x20\n      add\n      swap1\n      dup2\n      mstore\n      0x20\n      add\n      0x00\n      keccak256\n      0x00\n      swap1\n      sload\n      swap1\n      0x0100\n      exp\n      swap1\n      div\n      0x00\n      signextend\n        /* \"contracts/PriceBet.sol\":1286:1307  bets[msg.sender] == 0 */\n      0x00\n      signextend\n      eq\n        /* \"contracts/PriceBet.sol\":1278:1330  require(bets[msg.sender] == 0, \"Bet already placed\") */\n      tag_117\n      jumpi\n      mload(0x40)\n      0x08c379a000000000000000000000000000000000000000000000000000000000\n      dup2\n      mstore\n      0x04\n      add\n      tag_118\n      swap1\n      tag_119\n      jump\t// in\n    tag_118:\n      mload(0x40)\n      dup1\n      swap2\n      sub\n      swap1\n      revert\n    tag_117:\n        /* \"contracts/PriceBet.sol\":1366:1369  end */\n      sload(0x03)\n        /* \"contracts/PriceBet.sol\":1348:1363  block.timestamp */\n      timestamp\n        /* \"contracts/PriceBet.sol\":1348:1369  block.timestamp < end */\n      lt\n        /* \"contracts/PriceBet.sol\":1340:1390  require(block.timestamp < end, \"Passed the limit\") */\n      tag_120\n      jumpi\n      mload(0x40)\n      0x08c379a000000000000000000000000000000000000000000000000000000000\n      dup2\n      mstore\n      0x04\n      add\n      tag_121\n      swap1\n      tag_122\n      jump\t// in\n    tag_121:\n      mload(0x40)\n      dup1\n      swap2\n      sub\n      swap1\n      revert\n    tag_120:\n        /* \"contracts/PriceBet.sol\":1404:1412  _outcome */\n      dup1\n        /* \"contracts/PriceBet.sol\":1401:1578  if(_outcome) {... */\n      iszero\n      tag_123\n      jumpi\n        /* \"contracts/PriceBet.sol\":1447:1448  1 */\n      0x01\n        /* \"contracts/PriceBet.sol\":1428:1432  bets */\n      0x05\n        /* \"contracts/PriceBet.sol\":1428:1444  bets[msg.sender] */\n      0x00\n        /* \"contracts/PriceBet.sol\":1433:1443  msg.sender */\n      caller\n        /* \"contracts/PriceBet.sol\":1428:1444  bets[msg.sender] */\n      0xffffffffffffffffffffffffffffffffffffffff\n      and\n      0xffffffffffffffffffffffffffffffffffffffff\n      and\n      dup2\n      mstore\n      0x20\n      add\n      swap1\n      dup2\n      mstore\n      0x20\n      add\n      0x00\n      keccak256\n      0x00\n        /* \"contracts/PriceBet.sol\":1428:1448  bets[msg.sender] = 1 */\n      0x0100\n      exp\n      dup2\n      sload\n      dup2\n      0xff\n      mul\n      not\n      and\n      swap1\n      dup4\n      0x00\n      signextend\n      0xff\n      and\n      mul\n      or\n      swap1\n      sstore\n      pop\n        /* \"contracts/PriceBet.sol\":1473:1482  msg.value */\n      callvalue\n        /* \"contracts/PriceBet.sol\":1462:1469  yesPool */\n      0x08\n      0x00\n        /* \"contracts/PriceBet.sol\":1462:1482  yesPool += msg.value */\n      dup3\n      dup3\n      sload\n      tag_124\n      swap2\n      swap1\n      tag_125\n      jump\t// in\n    tag_124:\n      swap3\n      pop\n      pop\n      dup2\n      swap1\n      sstore\n      pop\n        /* \"contracts/PriceBet.sol\":1401:1578  if(_outcome) {... */\n      jump(tag_126)\n    tag_123:\n        /* \"contracts/PriceBet.sol\":1532:1534  -1 */\n      0xffffffffffffffffffffffffffffffffffffffffffffffffffffffffffffffff\n        /* \"contracts/PriceBet.sol\":1513:1517  bets */\n      0x05\n        /* \"contracts/PriceBet.sol\":1513:1529  bets[msg.sender] */\n      0x00\n        /* \"contracts/PriceBet.sol\":1518:1528  msg.sender */\n      caller\n        /* \"contracts/PriceBet.sol\":1513:1529  bets[msg.sender] */\n      0xffffffffffffffffffffffffffffffffffffffff\n      and\n      0xffffffffffffffffffffffffffffffffffffffff\n      and\n      dup2\n      mstore\n      0x20\n      add\n      swap1\n      dup2\n      mstore\n      0x20\n      add\n      0x00\n      keccak256\n      0x00\n        /* \"contracts/PriceBet.sol\":1513:1534  bets[msg.sender] = -1 */\n      0x0100\n      exp\n      dup2\n      sload\n      dup2\n      0xff\n      mul\n      not\n      and\n      swap1\n      dup4\n      0x00\n      signextend\n      0xff\n      and\n      mul\n      or\n      swap1\n      sstore\n      pop\n        /* \"contracts/PriceBet.sol\":1558:1567  msg.value */\n      callvalue\n        /* \"contracts/PriceBet.sol\":1548:1554  noPool */\n      0x09\n      0x00\n        /* \"contracts/PriceBet.sol\":1548:1567  noPool += msg.value */\n      dup3\n      dup3\n      sload\n      tag_127\n      swap2\n      swap1\n      tag_125\n      jump\t// in\n    tag_127:\n      swap3\n      pop\n      pop\n      dup2\n      swap1\n      sstore\n      pop\n        /* \"contracts/PriceBet.sol\":1401:1578  if(_outcome) {... */\n    tag_126:\n        /* \"contracts/PriceBet.sol\":1609:1618  msg.value */\n      callvalue\n        /* \"contracts/PriceBet.sol\":1587:1593  stakes */\n      0x06\n        /* \"contracts/PriceBet.sol\":1587:1605  stakes[msg.sender] */\n      0x00\n        /* \"contracts/PriceBet.sol\":1594:1604  msg.sender */\n      caller\n        /* \"contracts/PriceBet.sol\":1587:1605  stakes[msg.sender] */\n      0xffffffffffffffffffffffffffffffffffffffff\n      and\n      0xffffffffffffffffffffffffffffffffffffffff\n      and\n      dup2\n      mstore\n      0x20\n      add\n      swap1\n      dup2\n      mstore\n      0x20\n      add\n      0x00\n      keccak256\n      0x00\n        /* \"contracts/PriceBet.sol\":1587:1618  stakes[msg.sender] += msg.value */\n      dup3\n      dup3\n      sload\n      tag_128\n      swap2\n      swap1\n      tag_125\n      jump\t// in\n    tag_128:\n      swap3\n      pop\n      pop\n      dup2\n      swap1\n      sstore\n      pop\n        /* \"contracts/PriceBet.sol\":1168:1625  function placeBet(bool _outcome) public payable {... */\n      pop\n      jump\t// out\n        /* \"contracts/PriceBet.sol\":373:415  mapping (address => uint256) public stakes */\n    tag_32:\n      mstore(0x20, 0x06)\n      dup1\n      0x00\n      mstore\n      keccak256(0x00, 0x40)\n      0x00\n      swap2\n      pop\n      swap1\n      pop\n      sload\n      dup2\n      jump\t// out\n        /* \"contracts/PriceBet.sol\":217:240  uint256 public expected */\n    tag_37:\n      sload(0x01)\n      dup2\n      jump\t// out\n        /* \"contracts/PriceBet.sol\":246:271  int256 public outcome = 0 */\n    tag_41:\n      sload(0x02)\n      dup2\n      jump\t// out\n        /* \"@redstone-finance/evm-connector/contracts/data-services/MainDemoConsumerBase.sol\":407:691  function getAuthorisedSignerIndex(address signerAddress)... */\n    tag_47:\n        /* \"@redstone-finance/evm-connector/contracts/data-services/MainDemoConsumerBase.sol\":522:527  uint8 */\n      0x00\n        /* \"@redstone-finance/evm-connector/contracts/data-services/MainDemoConsumerBase.sol\":558:600  0x0C39486f770B26F5527BBBf942726537986Cd7eb */\n      0x0c39486f770b26f5527bbbf942726537986cd7eb\n        /* \"@redstone-finance/evm-connector/contracts/data-services/MainDemoConsumerBase.sol\":541:600  signerAddress == 0x0C39486f770B26F5527BBBf942726537986Cd7eb */\n      0xffffffffffffffffffffffffffffffffffffffff\n      and\n        /* \"@redstone-finance/evm-connector/contracts/data-services/MainDemoConsumerBase.sol\":541:554  signerAddress */\n      dup3\n        /* \"@redstone-finance/evm-connector/contracts/data-services/MainDemoConsumerBase.sol\":541:600  signerAddress == 0x0C39486f770B26F5527BBBf942726537986Cd7eb */\n      0xffffffffffffffffffffffffffffffffffffffff\n      and\n      eq\n        /* \"@redstone-finance/evm-connector/contracts/data-services/MainDemoConsumerBase.sol\":537:687  if (signerAddress == 0x0C39486f770B26F5527BBBf942726537986Cd7eb) {... */\n      iszero\n      tag_130\n      jumpi\n        /* \"@redstone-finance/evm-connector/contracts/data-services/MainDemoConsumerBase.sol\":617:618  0 */\n      0x00\n        /* \"@redstone-finance/evm-connector/contracts/data-services/MainDemoConsumerBase.sol\":610:618  return 0 */\n      swap1\n      pop\n      jump(tag_129)\n        /* \"@redstone-finance/evm-connector/contracts/data-services/MainDemoConsumerBase.sol\":537:687  if (signerAddress == 0x0C39486f770B26F5527BBBf942726537986Cd7eb) {... */\n    tag_130:\n        /* \"@redstone-finance/evm-connector/contracts/data-services/MainDemoConsumerBase.sol\":666:679  signerAddress */\n      dup2\n        /* \"@redstone-finance/evm-connector/contracts/data-services/MainDemoConsumerBase.sol\":646:680  SignerNotAuthorised(signerAddress) */\n      mload(0x40)\n      0xec459bc000000000000000000000000000000000000000000000000000000000\n      dup2\n      mstore\n      0x04\n      add\n      tag_132\n      swap2\n      swap1\n      tag_133\n      jump\t// in\n    tag_132:\n      mload(0x40)\n      dup1\n      swap2\n      sub\n      swap1\n      revert\n        /* \"@redstone-finance/evm-connector/contracts/data-services/MainDemoConsumerBase.sol\":407:691  function getAuthorisedSignerIndex(address signerAddress)... */\n    tag_129:\n      swap2\n      swap1\n      pop\n      jump\t// out\n        /* \"contracts/PriceBet.sol\":811:1162  function finalize() external {... */\n    tag_52:\n        /* \"contracts/PriceBet.sol\":869:870  0 */\n      0x00\n        /* \"contracts/PriceBet.sol\":858:865  outcome */\n      sload(0x02)\n        /* \"contracts/PriceBet.sol\":858:870  outcome == 0 */\n      eq\n        /* \"contracts/PriceBet.sol\":850:892  require(outcome == 0, \"Already finalized\") */\n      tag_135\n      jumpi\n      mload(0x40)\n      0x08c379a000000000000000000000000000000000000000000000000000000000\n      dup2\n      mstore\n      0x04\n      add\n      tag_136\n      swap1\n      tag_137\n      jump\t// in\n    tag_136:\n      mload(0x40)\n      dup1\n      swap2\n      sub\n      swap1\n      revert\n    tag_135:\n        /* \"contracts/PriceBet.sol\":917:956  extractTimestampsAndAssertAllAreEqual() */\n      tag_138\n        /* \"contracts/PriceBet.sol\":917:954  extractTimestampsAndAssertAllAreEqual */\n      tag_58\n        /* \"contracts/PriceBet.sol\":917:956  extractTimestampsAndAssertAllAreEqual() */\n      jump\t// in\n    tag_138:\n        /* \"contracts/PriceBet.sol\":910:913  end */\n      sload(0x03)\n        /* \"contracts/PriceBet.sol\":910:956  end == extractTimestampsAndAssertAllAreEqual() */\n      eq\n        /* \"contracts/PriceBet.sol\":902:978  require(end == extractTimestampsAndAssertAllAreEqual(), \"Invalid timestamp\") */\n      tag_139\n      jumpi\n      mload(0x40)\n      0x08c379a000000000000000000000000000000000000000000000000000000000\n      dup2\n      mstore\n      0x04\n      add\n      tag_140\n      swap1\n      tag_141\n      jump\t// in\n    tag_140:\n      mload(0x40)\n      dup1\n      swap2\n      sub\n      swap1\n      revert\n    tag_139:\n        /* \"contracts/PriceBet.sol\":989:1003  uint256 answer */\n      0x00\n        /* \"contracts/PriceBet.sol\":1006:1044  getOracleNumericValueFromTxMsg(symbol) */\n      tag_142\n        /* \"contracts/PriceBet.sol\":1037:1043  symbol */\n      sload(0x00)\n        /* \"contracts/PriceBet.sol\":1006:1036  getOracleNumericValueFromTxMsg */\n      tag_143\n        /* \"contracts/PriceBet.sol\":1006:1044  getOracleNumericValueFromTxMsg(symbol) */\n      jump\t// in\n    tag_142:\n        /* \"contracts/PriceBet.sol\":989:1044  uint256 answer = getOracleNumericValueFromTxMsg(symbol) */\n      swap1\n      pop\n        /* \"contracts/PriceBet.sol\":1067:1075  expected */\n      sload(0x01)\n        /* \"contracts/PriceBet.sol\":1057:1063  answer */\n      dup2\n        /* \"contracts/PriceBet.sol\":1057:1075  answer >= expected */\n      lt\n        /* \"contracts/PriceBet.sol\":1054:1156  if(answer >= expected) {... */\n      tag_144\n      jumpi\n        /* \"contracts/PriceBet.sol\":1101:1102  1 */\n      0x01\n        /* \"contracts/PriceBet.sol\":1091:1098  outcome */\n      0x02\n        /* \"contracts/PriceBet.sol\":1091:1102  outcome = 1 */\n      dup2\n      swap1\n      sstore\n      pop\n        /* \"contracts/PriceBet.sol\":1054:1156  if(answer >= expected) {... */\n      jump(tag_145)\n    tag_144:\n        /* \"contracts/PriceBet.sol\":1143:1145  -1 */\n      0xffffffffffffffffffffffffffffffffffffffffffffffffffffffffffffffff\n        /* \"contracts/PriceBet.sol\":1133:1140  outcome */\n      0x02\n        /* \"contracts/PriceBet.sol\":1133:1145  outcome = -1 */\n      dup2\n      swap1\n      sstore\n      pop\n        /* \"contracts/PriceBet.sol\":1054:1156  if(answer >= expected) {... */\n    tag_145:\n        /* \"contracts/PriceBet.sol\":840:1162  {... */\n      pop\n        /* \"contracts/PriceBet.sol\":811:1162  function finalize() external {... */\n      jump\t// out\n        /* \"contracts/PriceBet.sol\":1631:2017  function claim() public {... */\n    tag_55:\n        /* \"contracts/PriceBet.sol\":1684:1685  0 */\n      0x00\n        /* \"contracts/PriceBet.sol\":1673:1680  outcome */\n      sload(0x02)\n        /* \"contracts/PriceBet.sol\":1673:1685  outcome != 0 */\n      eq\n      iszero\n        /* \"contracts/PriceBet.sol\":1665:1703  require(outcome != 0, \"Not finalized\") */\n      tag_147\n      jumpi\n      mload(0x40)\n      0x08c379a000000000000000000000000000000000000000000000000000000000\n      dup2\n      mstore\n      0x04\n      add\n      tag_148\n      swap1\n      tag_149\n      jump\t// in\n    tag_148:\n      mload(0x40)\n      dup1\n      swap2\n      sub\n      swap1\n      revert\n    tag_147:\n        /* \"contracts/PriceBet.sol\":1741:1748  outcome */\n      sload(0x02)\n        /* \"contracts/PriceBet.sol\":1721:1725  bets */\n      0x05\n        /* \"contracts/PriceBet.sol\":1721:1737  bets[msg.sender] */\n      0x00\n        /* \"contracts/PriceBet.sol\":1726:1736  msg.sender */\n      caller\n        /* \"contracts/PriceBet.sol\":1721:1737  bets[msg.sender] */\n      0xffffffffffffffffffffffffffffffffffffffff\n      and\n      0xffffffffffffffffffffffffffffffffffffffff\n      and\n      dup2\n      mstore\n      0x20\n      add\n      swap1\n      dup2\n      mstore\n      0x20\n      add\n      0x00\n      keccak256\n      0x00\n      swap1\n      sload\n      swap1\n      0x0100\n      exp\n      swap1\n      div\n      0x00\n      signextend\n        /* \"contracts/PriceBet.sol\":1721:1748  bets[msg.sender] == outcome */\n      0x00\n      signextend\n      eq\n        /* \"contracts/PriceBet.sol\":1713:1764  require(bets[msg.sender] == outcome, \"Did not win\") */\n      tag_150\n      jumpi\n      mload(0x40)\n      0x08c379a000000000000000000000000000000000000000000000000000000000\n      dup2\n      mstore\n      0x04\n      add\n      tag_151\n      swap1\n      tag_152\n      jump\t// in\n    tag_151:\n      mload(0x40)\n      dup1\n      swap2\n      sub\n      swap1\n      revert\n    tag_150:\n        /* \"contracts/PriceBet.sol\":1804:1809  false */\n      0x00\n        /* \"contracts/PriceBet.sol\":1782:1809  claims[msg.sender] == false */\n      iszero\n      iszero\n        /* \"contracts/PriceBet.sol\":1782:1788  claims */\n      0x07\n        /* \"contracts/PriceBet.sol\":1782:1800  claims[msg.sender] */\n      0x00\n        /* \"contracts/PriceBet.sol\":1789:1799  msg.sender */\n      caller\n        /* \"contracts/PriceBet.sol\":1782:1800  claims[msg.sender] */\n      0xffffffffffffffffffffffffffffffffffffffff\n      and\n      0xffffffffffffffffffffffffffffffffffffffff\n      and\n      dup2\n      mstore\n      0x20\n      add\n      swap1\n      dup2\n      mstore\n      0x20\n      add\n      0x00\n      keccak256\n      0x00\n      swap1\n      sload\n      swap1\n      0x0100\n      exp\n      swap1\n      div\n      0xff\n      and\n        /* \"contracts/PriceBet.sol\":1782:1809  claims[msg.sender] == false */\n      iszero\n      iszero\n      eq\n        /* \"contracts/PriceBet.sol\":1774:1829  require(claims[msg.sender] == false, \"Already claimed\") */\n      tag_153\n      jumpi\n      mload(0x40)\n      0x08c379a000000000000000000000000000000000000000000000000000000000\n      dup2\n      mstore\n      0x04\n      add\n      tag_154\n      swap1\n      tag_155\n      jump\t// in\n    tag_154:\n      mload(0x40)\n      dup1\n      swap2\n      sub\n      swap1\n      revert\n    tag_153:\n        /* \"contracts/PriceBet.sol\":1840:1853  uint256 stake */\n      0x00\n        /* \"contracts/PriceBet.sol\":1856:1862  stakes */\n      0x06\n        /* \"contracts/PriceBet.sol\":1856:1874  stakes[msg.sender] */\n      0x00\n        /* \"contracts/PriceBet.sol\":1863:1873  msg.sender */\n      caller\n        /* \"contracts/PriceBet.sol\":1856:1874  stakes[msg.sender] */\n      0xffffffffffffffffffffffffffffffffffffffff\n      and\n      0xffffffffffffffffffffffffffffffffffffffff\n      and\n      dup2\n      mstore\n      0x20\n      add\n      swap1\n      dup2\n      mstore\n      0x20\n      add\n      0x00\n      keccak256\n      sload\n        /* \"contracts/PriceBet.sol\":1840:1874  uint256 stake = stakes[msg.sender] */\n      swap1\n      pop\n        /* \"contracts/PriceBet.sol\":1893:1903  msg.sender */\n      caller\n        /* \"contracts/PriceBet.sol\":1884:1913  payable (msg.sender).transfer */\n      0xffffffffffffffffffffffffffffffffffffffff\n      and\n        /* \"contracts/PriceBet.sol\":1884:1928  payable (msg.sender).transfer(payout(stake)) */\n      0x08fc\n        /* \"contracts/PriceBet.sol\":1914:1927  payout(stake) */\n      tag_156\n        /* \"contracts/PriceBet.sol\":1921:1926  stake */\n      dup4\n        /* \"contracts/PriceBet.sol\":1914:1920  payout */\n      tag_99\n        /* \"contracts/PriceBet.sol\":1914:1927  payout(stake) */\n      jump\t// in\n    tag_156:\n        /* \"contracts/PriceBet.sol\":1884:1928  payable (msg.sender).transfer(payout(stake)) */\n      swap1\n      dup2\n      iszero\n      mul\n      swap1\n      mload(0x40)\n      0x00\n      mload(0x40)\n      dup1\n      dup4\n      sub\n      dup2\n      dup6\n      dup9\n      dup9\n      call\n      swap4\n      pop\n      pop\n      pop\n      pop\n      iszero\n      dup1\n      iszero\n      tag_158\n      jumpi\n      returndatasize\n      0x00\n      dup1\n      returndatacopy\n      revert(0x00, returndatasize)\n    tag_158:\n      pop\n        /* \"contracts/PriceBet.sol\":1947:1957  msg.sender */\n      caller\n        /* \"contracts/PriceBet.sol\":1938:1967  payable (msg.sender).transfer */\n      0xffffffffffffffffffffffffffffffffffffffff\n      and\n        /* \"contracts/PriceBet.sol\":1938:1974  payable (msg.sender).transfer(stake) */\n      0x08fc\n        /* \"contracts/PriceBet.sol\":1968:1973  stake */\n      dup3\n        /* \"contracts/PriceBet.sol\":1938:1974  payable (msg.sender).transfer(stake) */\n      swap1\n      dup2\n      iszero\n      mul\n      swap1\n      mload(0x40)\n      0x00\n      mload(0x40)\n      dup1\n      dup4\n      sub\n      dup2\n      dup6\n      dup9\n      dup9\n      call\n      swap4\n      pop\n      pop\n      pop\n      pop\n      iszero\n      dup1\n      iszero\n      tag_160\n      jumpi\n      returndatasize\n      0x00\n      dup1\n      returndatacopy\n      revert(0x00, returndatasize)\n    tag_160:\n      pop\n        /* \"contracts/PriceBet.sol\":2006:2010  true */\n      0x01\n        /* \"contracts/PriceBet.sol\":1985:1991  claims */\n      0x07\n        /* \"contracts/PriceBet.sol\":1985:2003  claims[msg.sender] */\n      0x00\n        /* \"contracts/PriceBet.sol\":1992:2002  msg.sender */\n      caller\n        /* \"contracts/PriceBet.sol\":1985:2003  claims[msg.sender] */\n      0xffffffffffffffffffffffffffffffffffffffff\n      and\n      0xffffffffffffffffffffffffffffffffffffffff\n      and\n      dup2\n      mstore\n      0x20\n      add\n      swap1\n      dup2\n      mstore\n      0x20\n      add\n      0x00\n      keccak256\n      0x00\n        /* \"contracts/PriceBet.sol\":1985:2010  claims[msg.sender] = true */\n      0x0100\n      exp\n      dup2\n      sload\n      dup2\n      0xff\n      mul\n      not\n      and\n      swap1\n      dup4\n      iszero\n      iszero\n      mul\n      or\n      swap1\n      sstore\n      pop\n        /* \"contracts/PriceBet.sol\":1655:2017  {... */\n      pop\n        /* \"contracts/PriceBet.sol\":1631:2017  function claim() public {... */\n      jump\t// out\n        /* \"@redstone-finance/evm-connector/contracts/core/CalldataExtractor.sol\":599:2010  function extractTimestampsAndAssertAllAreEqual() public pure returns (uint256 extractedTimestamp) {... */\n    tag_58:\n        /* \"@redstone-finance/evm-connector/contracts/core/CalldataExtractor.sol\":669:695  uint256 extractedTimestamp */\n      0x00\n        /* \"@redstone-finance/evm-connector/contracts/core/CalldataExtractor.sol\":703:733  uint256 calldataNegativeOffset */\n      dup1\n        /* \"@redstone-finance/evm-connector/contracts/core/CalldataExtractor.sol\":736:772  _extractByteSizeOfUnsignedMetadata() */\n      tag_162\n        /* \"@redstone-finance/evm-connector/contracts/core/CalldataExtractor.sol\":736:770  _extractByteSizeOfUnsignedMetadata */\n      tag_163\n        /* \"@redstone-finance/evm-connector/contracts/core/CalldataExtractor.sol\":736:772  _extractByteSizeOfUnsignedMetadata() */\n      jump\t// in\n    tag_162:\n        /* \"@redstone-finance/evm-connector/contracts/core/CalldataExtractor.sol\":703:772  uint256 calldataNegativeOffset = _extractByteSizeOfUnsignedMetadata() */\n      swap1\n      pop\n        /* \"@redstone-finance/evm-connector/contracts/core/CalldataExtractor.sol\":778:803  uint256 dataPackagesCount */\n      0x00\n        /* \"@redstone-finance/evm-connector/contracts/core/CalldataExtractor.sol\":855:916  _extractDataPackagesCountFromCalldata(calldataNegativeOffset) */\n      tag_164\n        /* \"@redstone-finance/evm-connector/contracts/core/CalldataExtractor.sol\":893:915  calldataNegativeOffset */\n      dup3\n        /* \"@redstone-finance/evm-connector/contracts/core/CalldataExtractor.sol\":855:892  _extractDataPackagesCountFromCalldata */\n      tag_165\n        /* \"@redstone-finance/evm-connector/contracts/core/CalldataExtractor.sol\":855:916  _extractDataPackagesCountFromCalldata(calldataNegativeOffset) */\n      jump\t// in\n    tag_164:\n        /* \"@redstone-finance/evm-connector/contracts/core/CalldataExtractor.sol\":809:916  (dataPackagesCount, calldataNegativeOffset) = _extractDataPackagesCountFromCalldata(calldataNegativeOffset) */\n      dup2\n      0xffff\n      and\n      swap2\n      pop\n      dup1\n      swap4\n      pop\n      dup2\n      swap3\n      pop\n      pop\n      pop\n        /* \"@redstone-finance/evm-connector/contracts/core/CalldataExtractor.sol\":948:949  0 */\n      0x00\n        /* \"@redstone-finance/evm-connector/contracts/core/CalldataExtractor.sol\":927:944  dataPackagesCount */\n      dup2\n        /* \"@redstone-finance/evm-connector/contracts/core/CalldataExtractor.sol\":927:949  dataPackagesCount == 0 */\n      eq\n        /* \"@redstone-finance/evm-connector/contracts/core/CalldataExtractor.sol\":923:1019  if (dataPackagesCount == 0) {... */\n      iszero\n      tag_166\n      jumpi\n        /* \"@redstone-finance/evm-connector/contracts/core/CalldataExtractor.sol\":966:1012  RedstonePayloadMustHaveAtLeastOneDataPackage() */\n      mload(0x40)\n      0x8552ff3c00000000000000000000000000000000000000000000000000000000\n      dup2\n      mstore\n      0x04\n      add\n      mload(0x40)\n      dup1\n      swap2\n      sub\n      swap1\n      revert\n        /* \"@redstone-finance/evm-connector/contracts/core/CalldataExtractor.sol\":923:1019  if (dataPackagesCount == 0) {... */\n    tag_166:\n        /* \"@redstone-finance/evm-connector/contracts/core/CalldataExtractor.sol\":1030:1054  uint256 dataPackageIndex */\n      0x00\n        /* \"@redstone-finance/evm-connector/contracts/core/CalldataExtractor.sol\":1025:2006  for (uint256 dataPackageIndex = 0; dataPackageIndex < dataPackagesCount; dataPackageIndex++) {... */\n    tag_167:\n        /* \"@redstone-finance/evm-connector/contracts/core/CalldataExtractor.sol\":1079:1096  dataPackagesCount */\n      dup2\n        /* \"@redstone-finance/evm-connector/contracts/core/CalldataExtractor.sol\":1060:1076  dataPackageIndex */\n      dup2\n        /* \"@redstone-finance/evm-connector/contracts/core/CalldataExtractor.sol\":1060:1096  dataPackageIndex < dataPackagesCount */\n      lt\n        /* \"@redstone-finance/evm-connector/contracts/core/CalldataExtractor.sol\":1025:2006  for (uint256 dataPackageIndex = 0; dataPackageIndex < dataPackagesCount; dataPackageIndex++) {... */\n      iszero\n      tag_168\n      jumpi\n        /* \"@redstone-finance/evm-connector/contracts/core/CalldataExtractor.sol\":1126:1153  uint256 dataPackageByteSize */\n      0x00\n        /* \"@redstone-finance/evm-connector/contracts/core/CalldataExtractor.sol\":1156:1203  _getDataPackageByteSize(calldataNegativeOffset) */\n      tag_170\n        /* \"@redstone-finance/evm-connector/contracts/core/CalldataExtractor.sol\":1180:1202  calldataNegativeOffset */\n      dup5\n        /* \"@redstone-finance/evm-connector/contracts/core/CalldataExtractor.sol\":1156:1179  _getDataPackageByteSize */\n      tag_171\n        /* \"@redstone-finance/evm-connector/contracts/core/CalldataExtractor.sol\":1156:1203  _getDataPackageByteSize(calldataNegativeOffset) */\n      jump\t// in\n    tag_170:\n        /* \"@redstone-finance/evm-connector/contracts/core/CalldataExtractor.sol\":1126:1203  uint256 dataPackageByteSize = _getDataPackageByteSize(calldataNegativeOffset) */\n      swap1\n      pop\n        /* \"@redstone-finance/evm-connector/contracts/core/CalldataExtractor.sol\":1271:1298  uint48 dataPackageTimestamp */\n      0x00\n        /* \"@redstone-finance/evm-connector/contracts/core/CalldataExtractor.sol\":1348:1379  uint256 timestampNegativeOffset */\n      dup1\n        /* \"@redstone-finance/evm-connector/contracts/core/RedstoneConstants.sol\":1771:1774  104 */\n      0x68\n        /* \"@redstone-finance/evm-connector/contracts/core/CalldataExtractor.sol\":1383:1405  calldataNegativeOffset */\n      dup7\n        /* \"@redstone-finance/evm-connector/contracts/core/CalldataExtractor.sol\":1383:1471  calldataNegativeOffset + TIMESTAMP_NEGATIVE_OFFSET_IN_DATA_PACKAGE_WITH_STANDARD_SLOT_BS */\n      tag_172\n      swap2\n      swap1\n      tag_125\n      jump\t// in\n    tag_172:\n        /* \"@redstone-finance/evm-connector/contracts/core/CalldataExtractor.sol\":1348:1472  uint256 timestampNegativeOffset = (calldataNegativeOffset + TIMESTAMP_NEGATIVE_OFFSET_IN_DATA_PACKAGE_WITH_STANDARD_SLOT_BS) */\n      swap1\n      pop\n        /* \"@redstone-finance/evm-connector/contracts/core/CalldataExtractor.sol\":1480:1503  uint256 timestampOffset */\n      0x00\n        /* \"@redstone-finance/evm-connector/contracts/core/CalldataExtractor.sol\":1524:1547  timestampNegativeOffset */\n      dup2\n        /* \"@redstone-finance/evm-connector/contracts/core/CalldataExtractor.sol\":1506:1514  msg.data */\n      0x00\n      calldatasize\n        /* \"@redstone-finance/evm-connector/contracts/core/CalldataExtractor.sol\":1506:1521  msg.data.length */\n      swap1\n      pop\n        /* \"@redstone-finance/evm-connector/contracts/core/CalldataExtractor.sol\":1506:1547  msg.data.length - timestampNegativeOffset */\n      tag_173\n      swap2\n      swap1\n      tag_174\n      jump\t// in\n    tag_173:\n        /* \"@redstone-finance/evm-connector/contracts/core/CalldataExtractor.sol\":1480:1547  uint256 timestampOffset = msg.data.length - timestampNegativeOffset */\n      swap1\n      pop\n        /* \"@redstone-finance/evm-connector/contracts/core/CalldataExtractor.sol\":1611:1626  timestampOffset */\n      dup1\n        /* \"@redstone-finance/evm-connector/contracts/core/CalldataExtractor.sol\":1598:1627  calldataload(timestampOffset) */\n      calldataload\n        /* \"@redstone-finance/evm-connector/contracts/core/CalldataExtractor.sol\":1574:1627  dataPackageTimestamp := calldataload(timestampOffset) */\n      swap3\n      pop\n        /* \"@redstone-finance/evm-connector/contracts/core/CalldataExtractor.sol\":1671:1672  0 */\n      0x00\n        /* \"@redstone-finance/evm-connector/contracts/core/CalldataExtractor.sol\":1647:1667  dataPackageTimestamp */\n      dup4\n        /* \"@redstone-finance/evm-connector/contracts/core/CalldataExtractor.sol\":1647:1672  dataPackageTimestamp == 0 */\n      0xffffffffffff\n      and\n      eq\n        /* \"@redstone-finance/evm-connector/contracts/core/CalldataExtractor.sol\":1643:1735  if (dataPackageTimestamp == 0) {... */\n      iszero\n      tag_175\n      jumpi\n        /* \"@redstone-finance/evm-connector/contracts/core/CalldataExtractor.sol\":1691:1726  DataPackageTimestampMustNotBeZero() */\n      mload(0x40)\n      0x336dc9d000000000000000000000000000000000000000000000000000000000\n      dup2\n      mstore\n      0x04\n      add\n      mload(0x40)\n      dup1\n      swap2\n      sub\n      swap1\n      revert\n        /* \"@redstone-finance/evm-connector/contracts/core/CalldataExtractor.sol\":1643:1735  if (dataPackageTimestamp == 0) {... */\n    tag_175:\n        /* \"@redstone-finance/evm-connector/contracts/core/CalldataExtractor.sol\":1769:1770  0 */\n      0x00\n        /* \"@redstone-finance/evm-connector/contracts/core/CalldataExtractor.sol\":1747:1765  extractedTimestamp */\n      dup9\n        /* \"@redstone-finance/evm-connector/contracts/core/CalldataExtractor.sol\":1747:1770  extractedTimestamp == 0 */\n      eq\n        /* \"@redstone-finance/evm-connector/contracts/core/CalldataExtractor.sol\":1743:1946  if (extractedTimestamp == 0) {... */\n      iszero\n      tag_176\n      jumpi\n        /* \"@redstone-finance/evm-connector/contracts/core/CalldataExtractor.sol\":1803:1823  dataPackageTimestamp */\n      dup3\n        /* \"@redstone-finance/evm-connector/contracts/core/CalldataExtractor.sol\":1782:1823  extractedTimestamp = dataPackageTimestamp */\n      0xffffffffffff\n      and\n      swap8\n      pop\n        /* \"@redstone-finance/evm-connector/contracts/core/CalldataExtractor.sol\":1743:1946  if (extractedTimestamp == 0) {... */\n      jump(tag_177)\n    tag_176:\n        /* \"@redstone-finance/evm-connector/contracts/core/CalldataExtractor.sol\":1866:1884  extractedTimestamp */\n      dup8\n        /* \"@redstone-finance/evm-connector/contracts/core/CalldataExtractor.sol\":1842:1862  dataPackageTimestamp */\n      dup4\n        /* \"@redstone-finance/evm-connector/contracts/core/CalldataExtractor.sol\":1842:1884  dataPackageTimestamp != extractedTimestamp */\n      0xffffffffffff\n      and\n      eq\n        /* \"@redstone-finance/evm-connector/contracts/core/CalldataExtractor.sol\":1838:1946  if (dataPackageTimestamp != extractedTimestamp) {... */\n      tag_178\n      jumpi\n        /* \"@redstone-finance/evm-connector/contracts/core/CalldataExtractor.sol\":1903:1937  DataPackageTimestampsMustBeEqual() */\n      mload(0x40)\n      0xd9d1f46500000000000000000000000000000000000000000000000000000000\n      dup2\n      mstore\n      0x04\n      add\n      mload(0x40)\n      dup1\n      swap2\n      sub\n      swap1\n      revert\n        /* \"@redstone-finance/evm-connector/contracts/core/CalldataExtractor.sol\":1838:1946  if (dataPackageTimestamp != extractedTimestamp) {... */\n    tag_178:\n        /* \"@redstone-finance/evm-connector/contracts/core/CalldataExtractor.sol\":1743:1946  if (extractedTimestamp == 0) {... */\n    tag_177:\n        /* \"@redstone-finance/evm-connector/contracts/core/CalldataExtractor.sol\":1980:1999  dataPackageByteSize */\n      dup4\n        /* \"@redstone-finance/evm-connector/contracts/core/CalldataExtractor.sol\":1954:1999  calldataNegativeOffset += dataPackageByteSize */\n      dup8\n      tag_179\n      swap2\n      swap1\n      tag_125\n      jump\t// in\n    tag_179:\n      swap7\n      pop\n        /* \"@redstone-finance/evm-connector/contracts/core/CalldataExtractor.sol\":1118:2006  {... */\n      pop\n      pop\n      pop\n      pop\n        /* \"@redstone-finance/evm-connector/contracts/core/CalldataExtractor.sol\":1098:1116  dataPackageIndex++ */\n      dup1\n      dup1\n      tag_180\n      swap1\n      tag_181\n      jump\t// in\n    tag_180:\n      swap2\n      pop\n      pop\n        /* \"@redstone-finance/evm-connector/contracts/core/CalldataExtractor.sol\":1025:2006  for (uint256 dataPackageIndex = 0; dataPackageIndex < dataPackagesCount; dataPackageIndex++) {... */\n      jump(tag_167)\n    tag_168:\n      pop\n        /* \"@redstone-finance/evm-connector/contracts/core/CalldataExtractor.sol\":697:2010  {... */\n      pop\n      pop\n        /* \"@redstone-finance/evm-connector/contracts/core/CalldataExtractor.sol\":599:2010  function extractTimestampsAndAssertAllAreEqual() public pure returns (uint256 extractedTimestamp) {... */\n      swap1\n      jump\t// out\n        /* \"contracts/PriceBet.sol\":466:488  uint256 public yesPool */\n    tag_62:\n      sload(0x08)\n      dup2\n      jump\t// out\n        /* \"contracts/PriceBet.sol\":301:324  uint256 public endLimit */\n    tag_66:\n      sload(0x04)\n      dup2\n      jump\t// out\n        /* \"contracts/PriceBet.sol\":330:367  mapping (address => int8) public bets */\n    tag_71:\n      mstore(0x20, 0x05)\n      dup1\n      0x00\n      mstore\n      keccak256(0x00, 0x40)\n      0x00\n      swap2\n      pop\n      sload\n      swap1\n      0x0100\n      exp\n      swap1\n      div\n      0x00\n      signextend\n      dup2\n      jump\t// out\n        /* \"contracts/PriceBet.sol\":494:515  uint256 public noPool */\n    tag_76:\n      sload(0x09)\n      dup2\n      jump\t// out\n        /* \"@redstone-finance/evm-connector/contracts/core/RedstoneConsumerBase.sol\":2697:2846  function aggregateValues(uint256[] memory values) public view virtual returns (uint256) {... */\n    tag_82:\n        /* \"@redstone-finance/evm-connector/contracts/core/RedstoneConsumerBase.sol\":2776:2783  uint256 */\n      0x00\n        /* \"@redstone-finance/evm-connector/contracts/core/RedstoneConsumerBase.sol\":2798:2841  RedstoneDefaultsLib.aggregateValues(values) */\n      tag_183\n        /* \"@redstone-finance/evm-connector/contracts/core/RedstoneConsumerBase.sol\":2834:2840  values */\n      dup3\n        /* \"@redstone-finance/evm-connector/contracts/core/RedstoneConsumerBase.sol\":2798:2833  RedstoneDefaultsLib.aggregateValues */\n      tag_184\n        /* \"@redstone-finance/evm-connector/contracts/core/RedstoneConsumerBase.sol\":2798:2841  RedstoneDefaultsLib.aggregateValues(values) */\n      jump\t// in\n    tag_183:\n        /* \"@redstone-finance/evm-connector/contracts/core/RedstoneConsumerBase.sol\":2791:2841  return RedstoneDefaultsLib.aggregateValues(values) */\n      swap1\n      pop\n        /* \"@redstone-finance/evm-connector/contracts/core/RedstoneConsumerBase.sol\":2697:2846  function aggregateValues(uint256[] memory values) public view virtual returns (uint256) {... */\n      swap2\n      swap1\n      pop\n      jump\t// out\n        /* \"@redstone-finance/evm-connector/contracts/data-services/MainDemoConsumerBase.sol\":179:298  function getDataServiceId() public view virtual override returns (string memory) {... */\n    tag_86:\n        /* \"@redstone-finance/evm-connector/contracts/data-services/MainDemoConsumerBase.sol\":245:258  string memory */\n      0x60\n        /* \"@redstone-finance/evm-connector/contracts/data-services/MainDemoConsumerBase.sol\":266:293  return \"redstone-main-demo\" */\n      mload(0x40)\n      dup1\n      0x40\n      add\n      0x40\n      mstore\n      dup1\n      0x12\n      dup2\n      mstore\n      0x20\n      add\n      0x72656473746f6e652d6d61696e2d64656d6f0000000000000000000000000000\n      dup2\n      mstore\n      pop\n      swap1\n      pop\n        /* \"@redstone-finance/evm-connector/contracts/data-services/MainDemoConsumerBase.sol\":179:298  function getDataServiceId() public view virtual override returns (string memory) {... */\n      swap1\n      jump\t// out\n        /* \"contracts/PriceBet.sol\":421:460  mapping (address => bool) public claims */\n    tag_92:\n      mstore(0x20, 0x07)\n      dup1\n      0x00\n      mstore\n      keccak256(0x00, 0x40)\n      0x00\n      swap2\n      pop\n      sload\n      swap1\n      0x0100\n      exp\n      swap1\n      div\n      0xff\n      and\n      dup2\n      jump\t// out\n        /* \"contracts/PriceBet.sol\":2023:2415  function payout(uint256 bet) public view returns(uint256) {... */\n    tag_99:\n        /* \"contracts/PriceBet.sol\":2072:2079  uint256 */\n      0x00\n        /* \"contracts/PriceBet.sol\":2091:2105  uint256 factor */\n      dup1\n        /* \"contracts/PriceBet.sol\":2108:2117  100000000 */\n      0x05f5e100\n        /* \"contracts/PriceBet.sol\":2091:2117  uint256 factor = 100000000 */\n      swap1\n      pop\n        /* \"contracts/PriceBet.sol\":2127:2146  uint256 winningPool */\n      0x00\n        /* \"contracts/PriceBet.sol\":2160:2161  1 */\n      0x01\n        /* \"contracts/PriceBet.sol\":2149:2156  outcome */\n      sload(0x02)\n        /* \"contracts/PriceBet.sol\":2149:2161  outcome == 1 */\n      eq\n        /* \"contracts/PriceBet.sol\":2149:2180  outcome == 1 ? yesPool : noPool */\n      tag_187\n      jumpi\n        /* \"contracts/PriceBet.sol\":2174:2180  noPool */\n      sload(0x09)\n        /* \"contracts/PriceBet.sol\":2149:2180  outcome == 1 ? yesPool : noPool */\n      jump(tag_188)\n    tag_187:\n        /* \"contracts/PriceBet.sol\":2164:2171  yesPool */\n      sload(0x08)\n        /* \"contracts/PriceBet.sol\":2149:2180  outcome == 1 ? yesPool : noPool */\n    tag_188:\n        /* \"contracts/PriceBet.sol\":2127:2180  uint256 winningPool = outcome == 1 ? yesPool : noPool */\n      swap1\n      pop\n        /* \"contracts/PriceBet.sol\":2205:2216  winningPool */\n      dup1\n        /* \"contracts/PriceBet.sol\":2198:2201  bet */\n      dup5\n        /* \"contracts/PriceBet.sol\":2198:2216  bet <= winningPool */\n      gt\n      iszero\n        /* \"contracts/PriceBet.sol\":2190:2249  require(bet <= winningPool, \"Bet bigger than winning pool\") */\n      tag_189\n      jumpi\n      mload(0x40)\n      0x08c379a000000000000000000000000000000000000000000000000000000000\n      dup2\n      mstore\n      0x04\n      add\n      tag_190\n      swap1\n      tag_191\n      jump\t// in\n    tag_190:\n      mload(0x40)\n      dup1\n      swap2\n      sub\n      swap1\n      revert\n    tag_189:\n        /* \"contracts/PriceBet.sol\":2259:2277  uint256 losingPool */\n      0x00\n        /* \"contracts/PriceBet.sol\":2291:2293  -1 */\n      0xffffffffffffffffffffffffffffffffffffffffffffffffffffffffffffffff\n        /* \"contracts/PriceBet.sol\":2280:2287  outcome */\n      sload(0x02)\n        /* \"contracts/PriceBet.sol\":2280:2293  outcome == -1 */\n      eq\n        /* \"contracts/PriceBet.sol\":2280:2312  outcome == -1 ? noPool : yesPool */\n      tag_192\n      jumpi\n        /* \"contracts/PriceBet.sol\":2305:2312  yesPool */\n      sload(0x08)\n        /* \"contracts/PriceBet.sol\":2280:2312  outcome == -1 ? noPool : yesPool */\n      jump(tag_193)\n    tag_192:\n        /* \"contracts/PriceBet.sol\":2296:2302  noPool */\n      sload(0x09)\n        /* \"contracts/PriceBet.sol\":2280:2312  outcome == -1 ? noPool : yesPool */\n    tag_193:\n        /* \"contracts/PriceBet.sol\":2259:2312  uint256 losingPool = outcome == -1 ? noPool : yesPool */\n      swap1\n      pop\n        /* \"contracts/PriceBet.sol\":2322:2335  uint256 share */\n      0x00\n        /* \"contracts/PriceBet.sol\":2353:2364  winningPool */\n      dup3\n        /* \"contracts/PriceBet.sol\":2344:2350  factor */\n      dup5\n        /* \"contracts/PriceBet.sol\":2338:2341  bet */\n      dup8\n        /* \"contracts/PriceBet.sol\":2338:2350  bet * factor */\n      tag_194\n      swap2\n      swap1\n      tag_195\n      jump\t// in\n    tag_194:\n        /* \"contracts/PriceBet.sol\":2338:2364  bet * factor / winningPool */\n      tag_196\n      swap2\n      swap1\n      tag_197\n      jump\t// in\n    tag_196:\n        /* \"contracts/PriceBet.sol\":2322:2364  uint256 share = bet * factor / winningPool */\n      swap1\n      pop\n        /* \"contracts/PriceBet.sol\":2402:2408  factor */\n      dup4\n        /* \"contracts/PriceBet.sol\":2389:2399  losingPool */\n      dup3\n        /* \"contracts/PriceBet.sol\":2381:2386  share */\n      dup3\n        /* \"contracts/PriceBet.sol\":2381:2399  share * losingPool */\n      tag_198\n      swap2\n      swap1\n      tag_195\n      jump\t// in\n    tag_198:\n        /* \"contracts/PriceBet.sol\":2381:2408  share * losingPool / factor */\n      tag_199\n      swap2\n      swap1\n      tag_197\n      jump\t// in\n    tag_199:\n        /* \"contracts/PriceBet.sol\":2374:2408  return share * losingPool / factor */\n      swap5\n      pop\n      pop\n      pop\n      pop\n      pop\n        /* \"contracts/PriceBet.sol\":2023:2415  function payout(uint256 bet) public view returns(uint256) {... */\n      swap2\n      swap1\n      pop\n      jump\t// out\n        /* \"contracts/PriceBet.sol\":277:295  uint256 public end */\n    tag_103:\n      sload(0x03)\n      dup2\n      jump\t// out\n        /* \"contracts/PriceBet.sol\":707:805  function validateTimestamp(uint256 receivedTimestampMilliseconds) public view virtual override { } */\n    tag_108:\n      pop\n      jump\t// out\n        /* \"@redstone-finance/evm-connector/contracts/data-services/MainDemoConsumerBase.sol\":302:403  function getUniqueSignersThreshold() public view virtual override returns (uint8) {... */\n    tag_111:\n        /* \"@redstone-finance/evm-connector/contracts/data-services/MainDemoConsumerBase.sol\":377:382  uint8 */\n      0x00\n        /* \"@redstone-finance/evm-connector/contracts/data-services/MainDemoConsumerBase.sol\":397:398  1 */\n      0x01\n        /* \"@redstone-finance/evm-connector/contracts/data-services/MainDemoConsumerBase.sol\":390:398  return 1 */\n      swap1\n      pop\n        /* \"@redstone-finance/evm-connector/contracts/data-services/MainDemoConsumerBase.sol\":302:403  function getUniqueSignersThreshold() public view virtual override returns (uint8) {... */\n      swap1\n      jump\t// out\n        /* \"@redstone-finance/evm-connector/contracts/core/RedstoneConsumerNumericBase.sol\":1257:1526  function getOracleNumericValueFromTxMsg(bytes32 dataFeedId)... */\n    tag_143:\n        /* \"@redstone-finance/evm-connector/contracts/core/RedstoneConsumerNumericBase.sol\":1364:1371  uint256 */\n      0x00\n        /* \"@redstone-finance/evm-connector/contracts/core/RedstoneConsumerNumericBase.sol\":1381:1409  bytes32[] memory dataFeedIds */\n      dup1\n        /* \"@redstone-finance/evm-connector/contracts/core/RedstoneConsumerNumericBase.sol\":1426:1427  1 */\n      0x01\n        /* \"@redstone-finance/evm-connector/contracts/core/RedstoneConsumerNumericBase.sol\":1412:1428  new bytes32[](1) */\n      0xffffffffffffffff\n      dup2\n      gt\n      iszero\n      tag_203\n      jumpi\n      tag_204\n      tag_205\n      jump\t// in\n    tag_204:\n    tag_203:\n      mload(0x40)\n      swap1\n      dup1\n      dup3\n      mstore\n      dup1\n      0x20\n      mul\n      0x20\n      add\n      dup3\n      add\n      0x40\n      mstore\n      dup1\n      iszero\n      tag_206\n      jumpi\n      dup2\n      0x20\n      add\n      0x20\n      dup3\n      mul\n      dup1\n      calldatasize\n      dup4\n      calldatacopy\n      dup1\n      dup3\n      add\n      swap2\n      pop\n      pop\n      swap1\n      pop\n    tag_206:\n      pop\n        /* \"@redstone-finance/evm-connector/contracts/core/RedstoneConsumerNumericBase.sol\":1381:1428  bytes32[] memory dataFeedIds = new bytes32[](1) */\n      swap1\n      pop\n        /* \"@redstone-finance/evm-connector/contracts/core/RedstoneConsumerNumericBase.sol\":1451:1461  dataFeedId */\n      dup3\n        /* \"@redstone-finance/evm-connector/contracts/core/RedstoneConsumerNumericBase.sol\":1434:1445  dataFeedIds */\n      dup2\n        /* \"@redstone-finance/evm-connector/contracts/core/RedstoneConsumerNumericBase.sol\":1446:1447  0 */\n      0x00\n        /* \"@redstone-finance/evm-connector/contracts/core/RedstoneConsumerNumericBase.sol\":1434:1448  dataFeedIds[0] */\n      dup2\n      mload\n      dup2\n      lt\n      tag_207\n      jumpi\n      tag_208\n      tag_209\n      jump\t// in\n    tag_208:\n    tag_207:\n      0x20\n      mul\n      0x20\n      add\n      add\n        /* \"@redstone-finance/evm-connector/contracts/core/RedstoneConsumerNumericBase.sol\":1434:1461  dataFeedIds[0] = dataFeedId */\n      dup2\n      dup2\n      mstore\n      pop\n      pop\n        /* \"@redstone-finance/evm-connector/contracts/core/RedstoneConsumerNumericBase.sol\":1474:1518  getOracleNumericValuesFromTxMsg(dataFeedIds) */\n      tag_210\n        /* \"@redstone-finance/evm-connector/contracts/core/RedstoneConsumerNumericBase.sol\":1506:1517  dataFeedIds */\n      dup2\n        /* \"@redstone-finance/evm-connector/contracts/core/RedstoneConsumerNumericBase.sol\":1474:1505  getOracleNumericValuesFromTxMsg */\n      tag_211\n        /* \"@redstone-finance/evm-connector/contracts/core/RedstoneConsumerNumericBase.sol\":1474:1518  getOracleNumericValuesFromTxMsg(dataFeedIds) */\n      jump\t// in\n    tag_210:\n        /* \"@redstone-finance/evm-connector/contracts/core/RedstoneConsumerNumericBase.sol\":1519:1520  0 */\n      0x00\n        /* \"@redstone-finance/evm-connector/contracts/core/RedstoneConsumerNumericBase.sol\":1474:1521  getOracleNumericValuesFromTxMsg(dataFeedIds)[0] */\n      dup2\n      mload\n      dup2\n      lt\n      tag_212\n      jumpi\n      tag_213\n      tag_209\n      jump\t// in\n    tag_213:\n    tag_212:\n      0x20\n      mul\n      0x20\n      add\n      add\n      mload\n        /* \"@redstone-finance/evm-connector/contracts/core/RedstoneConsumerNumericBase.sol\":1467:1521  return getOracleNumericValuesFromTxMsg(dataFeedIds)[0] */\n      swap2\n      pop\n      pop\n        /* \"@redstone-finance/evm-connector/contracts/core/RedstoneConsumerNumericBase.sol\":1257:1526  function getOracleNumericValueFromTxMsg(bytes32 dataFeedId)... */\n      swap2\n      swap1\n      pop\n      jump\t// out\n        /* \"@redstone-finance/evm-connector/contracts/core/CalldataExtractor.sol\":2410:3579  function _extractByteSizeOfUnsignedMetadata() internal pure returns (uint256) {... */\n    tag_163:\n        /* \"@redstone-finance/evm-connector/contracts/core/CalldataExtractor.sol\":2479:2486  uint256 */\n      0x00\n        /* \"@redstone-finance/evm-connector/contracts/core/CalldataExtractor.sol\":2556:2583  bool hasValidRedstoneMarker */\n      dup1\n        /* \"@redstone-finance/evm-connector/contracts/core/CalldataExtractor.sol\":2666:2682  STANDARD_SLOT_BS */\n      0x20\n        /* \"@redstone-finance/evm-connector/contracts/core/CalldataExtractor.sol\":2650:2664  calldatasize() */\n      calldatasize\n        /* \"@redstone-finance/evm-connector/contracts/core/CalldataExtractor.sol\":2646:2683  sub(calldatasize(), STANDARD_SLOT_BS) */\n      sub\n        /* \"@redstone-finance/evm-connector/contracts/core/CalldataExtractor.sol\":2633:2684  calldataload(sub(calldatasize(), STANDARD_SLOT_BS)) */\n      calldataload\n        /* \"@redstone-finance/evm-connector/contracts/core/CalldataExtractor.sol\":2784:2804  REDSTONE_MARKER_MASK */\n      0x02ed57011e0000\n        /* \"@redstone-finance/evm-connector/contracts/core/CalldataExtractor.sol\":2763:2782  calldataLast32Bytes */\n      dup2\n        /* \"@redstone-finance/evm-connector/contracts/core/CalldataExtractor.sol\":2759:2805  and(calldataLast32Bytes, REDSTONE_MARKER_MASK) */\n      and\n        /* \"@redstone-finance/evm-connector/contracts/core/CalldataExtractor.sol\":2729:2749  REDSTONE_MARKER_MASK */\n      0x02ed57011e0000\n        /* \"@redstone-finance/evm-connector/contracts/core/CalldataExtractor.sol\":2717:2813  eq(... */\n      eq\n        /* \"@redstone-finance/evm-connector/contracts/core/CalldataExtractor.sol\":2691:2813  hasValidRedstoneMarker := eq(... */\n      swap2\n      pop\n        /* \"@redstone-finance/evm-connector/contracts/core/CalldataExtractor.sol\":2598:2819  {... */\n      pop\n        /* \"@redstone-finance/evm-connector/contracts/core/CalldataExtractor.sol\":2829:2851  hasValidRedstoneMarker */\n      dup1\n        /* \"@redstone-finance/evm-connector/contracts/core/CalldataExtractor.sol\":2824:2905  if (!hasValidRedstoneMarker) {... */\n      tag_215\n      jumpi\n        /* \"@redstone-finance/evm-connector/contracts/core/CalldataExtractor.sol\":2868:2898  CalldataMustHaveValidPayload() */\n      mload(0x40)\n      0xe7764c9e00000000000000000000000000000000000000000000000000000000\n      dup2\n      mstore\n      0x04\n      add\n      mload(0x40)\n      dup1\n      swap2\n      sub\n      swap1\n      revert\n        /* \"@redstone-finance/evm-connector/contracts/core/CalldataExtractor.sol\":2824:2905  if (!hasValidRedstoneMarker) {... */\n    tag_215:\n        /* \"@redstone-finance/evm-connector/contracts/core/CalldataExtractor.sol\":2987:3018  uint24 unsignedMetadataByteSize */\n      0x00\n        /* \"@redstone-finance/evm-connector/contracts/core/CalldataExtractor.sol\":3071:3079  msg.data */\n      dup1\n      calldatasize\n        /* \"@redstone-finance/evm-connector/contracts/core/CalldataExtractor.sol\":3071:3086  msg.data.length */\n      swap1\n      pop\n        /* \"@redstone-finance/evm-connector/contracts/core/RedstoneConstants.sol\":2230:2232  41 */\n      0x29\n        /* \"@redstone-finance/evm-connector/contracts/core/CalldataExtractor.sol\":3028:3086  REDSTONE_MARKER_BS_PLUS_STANDARD_SLOT_BS > msg.data.length */\n      gt\n        /* \"@redstone-finance/evm-connector/contracts/core/CalldataExtractor.sol\":3024:3135  if (REDSTONE_MARKER_BS_PLUS_STANDARD_SLOT_BS > msg.data.length) {... */\n      iszero\n      tag_216\n      jumpi\n        /* \"@redstone-finance/evm-connector/contracts/core/CalldataExtractor.sol\":3103:3128  CalldataOverOrUnderFlow() */\n      mload(0x40)\n      0x5796f78a00000000000000000000000000000000000000000000000000000000\n      dup2\n      mstore\n      0x04\n      add\n      mload(0x40)\n      dup1\n      swap2\n      sub\n      swap1\n      revert\n        /* \"@redstone-finance/evm-connector/contracts/core/CalldataExtractor.sol\":3024:3135  if (REDSTONE_MARKER_BS_PLUS_STANDARD_SLOT_BS > msg.data.length) {... */\n    tag_216:\n        /* \"@redstone-finance/evm-connector/contracts/core/CalldataExtractor.sol\":3227:3267  REDSTONE_MARKER_BS_PLUS_STANDARD_SLOT_BS */\n      0x29\n        /* \"@redstone-finance/evm-connector/contracts/core/CalldataExtractor.sol\":3211:3225  calldatasize() */\n      calldatasize\n        /* \"@redstone-finance/evm-connector/contracts/core/CalldataExtractor.sol\":3207:3268  sub(calldatasize(), REDSTONE_MARKER_BS_PLUS_STANDARD_SLOT_BS) */\n      sub\n        /* \"@redstone-finance/evm-connector/contracts/core/CalldataExtractor.sol\":3185:3276  calldataload(... */\n      calldataload\n        /* \"@redstone-finance/evm-connector/contracts/core/CalldataExtractor.sol\":3157:3276  unsignedMetadataByteSize := calldataload(... */\n      swap1\n      pop\n        /* \"@redstone-finance/evm-connector/contracts/core/CalldataExtractor.sol\":3287:3317  uint256 calldataNegativeOffset */\n      0x00\n        /* \"@redstone-finance/evm-connector/contracts/core/RedstoneConstants.sol\":1479:1480  9 */\n      0x09\n        /* \"@redstone-finance/evm-connector/contracts/core/RedstoneConstants.sol\":1427:1428  3 */\n      0x03\n        /* \"@redstone-finance/evm-connector/contracts/core/CalldataExtractor.sol\":3320:3344  unsignedMetadataByteSize */\n      dup4\n        /* \"@redstone-finance/evm-connector/contracts/core/CalldataExtractor.sol\":3320:3383  unsignedMetadataByteSize... */\n      0xffffff\n      and\n      tag_217\n      swap2\n      swap1\n      tag_125\n      jump\t// in\n    tag_217:\n        /* \"@redstone-finance/evm-connector/contracts/core/CalldataExtractor.sol\":3320:3410  unsignedMetadataByteSize... */\n      tag_218\n      swap2\n      swap1\n      tag_125\n      jump\t// in\n    tag_218:\n        /* \"@redstone-finance/evm-connector/contracts/core/CalldataExtractor.sol\":3287:3410  uint256 calldataNegativeOffset = unsignedMetadataByteSize... */\n      swap1\n      pop\n        /* \"@redstone-finance/evm-connector/contracts/core/CalldataExtractor.sol\":3470:3478  msg.data */\n      0x00\n      calldatasize\n        /* \"@redstone-finance/evm-connector/contracts/core/CalldataExtractor.sol\":3470:3485  msg.data.length */\n      swap1\n      pop\n        /* \"@redstone-finance/evm-connector/contracts/core/RedstoneConstants.sol\":1129:1130  2 */\n      0x02\n        /* \"@redstone-finance/evm-connector/contracts/core/CalldataExtractor.sol\":3420:3442  calldataNegativeOffset */\n      dup3\n        /* \"@redstone-finance/evm-connector/contracts/core/CalldataExtractor.sol\":3420:3467  calldataNegativeOffset + DATA_PACKAGES_COUNT_BS */\n      tag_219\n      swap2\n      swap1\n      tag_125\n      jump\t// in\n    tag_219:\n        /* \"@redstone-finance/evm-connector/contracts/core/CalldataExtractor.sol\":3420:3485  calldataNegativeOffset + DATA_PACKAGES_COUNT_BS > msg.data.length */\n      gt\n        /* \"@redstone-finance/evm-connector/contracts/core/CalldataExtractor.sol\":3416:3540  if (calldataNegativeOffset + DATA_PACKAGES_COUNT_BS > msg.data.length) {... */\n      iszero\n      tag_220\n      jumpi\n        /* \"@redstone-finance/evm-connector/contracts/core/CalldataExtractor.sol\":3502:3533  IncorrectUnsignedMetadataSize() */\n      mload(0x40)\n      0xc30a7bd700000000000000000000000000000000000000000000000000000000\n      dup2\n      mstore\n      0x04\n      add\n      mload(0x40)\n      dup1\n      swap2\n      sub\n      swap1\n      revert\n        /* \"@redstone-finance/evm-connector/contracts/core/CalldataExtractor.sol\":3416:3540  if (calldataNegativeOffset + DATA_PACKAGES_COUNT_BS > msg.data.length) {... */\n    tag_220:\n        /* \"@redstone-finance/evm-connector/contracts/core/CalldataExtractor.sol\":3552:3574  calldataNegativeOffset */\n      dup1\n        /* \"@redstone-finance/evm-connector/contracts/core/CalldataExtractor.sol\":3545:3574  return calldataNegativeOffset */\n      swap4\n      pop\n      pop\n      pop\n      pop\n        /* \"@redstone-finance/evm-connector/contracts/core/CalldataExtractor.sol\":2410:3579  function _extractByteSizeOfUnsignedMetadata() internal pure returns (uint256) {... */\n      swap1\n      jump\t// out\n        /* \"@redstone-finance/evm-connector/contracts/core/CalldataExtractor.sol\":3661:4273  function _extractDataPackagesCountFromCalldata(uint256 calldataNegativeOffset)... */\n    tag_165:\n        /* \"@redstone-finance/evm-connector/contracts/core/CalldataExtractor.sol\":3775:3799  uint16 dataPackagesCount */\n      0x00\n        /* \"@redstone-finance/evm-connector/contracts/core/CalldataExtractor.sol\":3801:3835  uint256 nextCalldataNegativeOffset */\n      dup1\n        /* \"@redstone-finance/evm-connector/contracts/core/CalldataExtractor.sol\":3845:3891  uint256 calldataNegativeOffsetWithStandardSlot */\n      0x00\n        /* \"@redstone-finance/evm-connector/contracts/core/RedstoneConstants.sol\":524:526  32 */\n      0x20\n        /* \"@redstone-finance/evm-connector/contracts/core/CalldataExtractor.sol\":3894:3916  calldataNegativeOffset */\n      dup5\n        /* \"@redstone-finance/evm-connector/contracts/core/CalldataExtractor.sol\":3894:3935  calldataNegativeOffset + STANDARD_SLOT_BS */\n      tag_222\n      swap2\n      swap1\n      tag_125\n      jump\t// in\n    tag_222:\n        /* \"@redstone-finance/evm-connector/contracts/core/CalldataExtractor.sol\":3845:3935  uint256 calldataNegativeOffsetWithStandardSlot = calldataNegativeOffset + STANDARD_SLOT_BS */\n      swap1\n      pop\n        /* \"@redstone-finance/evm-connector/contracts/core/CalldataExtractor.sol\":3986:3994  msg.data */\n      0x00\n      calldatasize\n        /* \"@redstone-finance/evm-connector/contracts/core/CalldataExtractor.sol\":3986:4001  msg.data.length */\n      swap1\n      pop\n        /* \"@redstone-finance/evm-connector/contracts/core/CalldataExtractor.sol\":3945:3983  calldataNegativeOffsetWithStandardSlot */\n      dup2\n        /* \"@redstone-finance/evm-connector/contracts/core/CalldataExtractor.sol\":3945:4001  calldataNegativeOffsetWithStandardSlot > msg.data.length */\n      gt\n        /* \"@redstone-finance/evm-connector/contracts/core/CalldataExtractor.sol\":3941:4050  if (calldataNegativeOffsetWithStandardSlot > msg.data.length) {... */\n      iszero\n      tag_223\n      jumpi\n        /* \"@redstone-finance/evm-connector/contracts/core/CalldataExtractor.sol\":4018:4043  CalldataOverOrUnderFlow() */\n      mload(0x40)\n      0x5796f78a00000000000000000000000000000000000000000000000000000000\n      dup2\n      mstore\n      0x04\n      add\n      mload(0x40)\n      dup1\n      swap2\n      sub\n      swap1\n      revert\n        /* \"@redstone-finance/evm-connector/contracts/core/CalldataExtractor.sol\":3941:4050  if (calldataNegativeOffsetWithStandardSlot > msg.data.length) {... */\n    tag_223:\n        /* \"@redstone-finance/evm-connector/contracts/core/CalldataExtractor.sol\":4135:4173  calldataNegativeOffsetWithStandardSlot */\n      dup1\n        /* \"@redstone-finance/evm-connector/contracts/core/CalldataExtractor.sol\":4119:4133  calldatasize() */\n      calldatasize\n        /* \"@redstone-finance/evm-connector/contracts/core/CalldataExtractor.sol\":4115:4174  sub(calldatasize(), calldataNegativeOffsetWithStandardSlot) */\n      sub\n        /* \"@redstone-finance/evm-connector/contracts/core/CalldataExtractor.sol\":4093:4182  calldataload(... */\n      calldataload\n        /* \"@redstone-finance/evm-connector/contracts/core/CalldataExtractor.sol\":4072:4182  dataPackagesCount := calldataload(... */\n      swap3\n      pop\n        /* \"@redstone-finance/evm-connector/contracts/core/CalldataExtractor.sol\":4201:4218  dataPackagesCount */\n      dup3\n        /* \"@redstone-finance/evm-connector/contracts/core/RedstoneConstants.sol\":1129:1130  2 */\n      0x02\n        /* \"@redstone-finance/evm-connector/contracts/core/CalldataExtractor.sol\":4220:4242  calldataNegativeOffset */\n      dup6\n        /* \"@redstone-finance/evm-connector/contracts/core/CalldataExtractor.sol\":4220:4267  calldataNegativeOffset + DATA_PACKAGES_COUNT_BS */\n      tag_224\n      swap2\n      swap1\n      tag_125\n      jump\t// in\n    tag_224:\n        /* \"@redstone-finance/evm-connector/contracts/core/CalldataExtractor.sol\":4193:4268  return (dataPackagesCount, calldataNegativeOffset + DATA_PACKAGES_COUNT_BS) */\n      swap3\n      pop\n      swap3\n      pop\n      pop\n        /* \"@redstone-finance/evm-connector/contracts/core/CalldataExtractor.sol\":3661:4273  function _extractDataPackagesCountFromCalldata(uint256 calldataNegativeOffset)... */\n      swap2\n      pop\n      swap2\n      jump\t// out\n        /* \"@redstone-finance/evm-connector/contracts/core/CalldataExtractor.sol\":2014:2406  function _getDataPackageByteSize(uint256 calldataNegativeOffset) internal pure returns (uint256) {... */\n    tag_171:\n        /* \"@redstone-finance/evm-connector/contracts/core/CalldataExtractor.sol\":2102:2109  uint256 */\n      0x00\n        /* \"@redstone-finance/evm-connector/contracts/core/CalldataExtractor.sol\":2125:2148  uint256 dataPointsCount */\n      dup1\n        /* \"@redstone-finance/evm-connector/contracts/core/CalldataExtractor.sol\":2156:2190  uint256 eachDataPointValueByteSize */\n      0x00\n        /* \"@redstone-finance/evm-connector/contracts/core/CalldataExtractor.sol\":2199:2262  _extractDataPointsDetailsForDataPackage(calldataNegativeOffset) */\n      tag_226\n        /* \"@redstone-finance/evm-connector/contracts/core/CalldataExtractor.sol\":2239:2261  calldataNegativeOffset */\n      dup5\n        /* \"@redstone-finance/evm-connector/contracts/core/CalldataExtractor.sol\":2199:2238  _extractDataPointsDetailsForDataPackage */\n      tag_227\n        /* \"@redstone-finance/evm-connector/contracts/core/CalldataExtractor.sol\":2199:2262  _extractDataPointsDetailsForDataPackage(calldataNegativeOffset) */\n      jump\t// in\n    tag_226:\n        /* \"@redstone-finance/evm-connector/contracts/core/CalldataExtractor.sol\":2117:2262  (... */\n      swap2\n      pop\n      swap2\n      pop\n        /* \"@redstone-finance/evm-connector/contracts/core/RedstoneConstants.sol\":1926:1928  78 */\n      0x4e\n        /* \"@redstone-finance/evm-connector/contracts/core/CalldataExtractor.sol\":2330:2356  eachDataPointValueByteSize */\n      dup2\n        /* \"@redstone-finance/evm-connector/contracts/core/RedstoneConstants.sol\":1300:1302  32 */\n      0x20\n        /* \"@redstone-finance/evm-connector/contracts/core/CalldataExtractor.sol\":2307:2356  DATA_POINT_SYMBOL_BS + eachDataPointValueByteSize */\n      tag_228\n      swap2\n      swap1\n      tag_125\n      jump\t// in\n    tag_228:\n        /* \"@redstone-finance/evm-connector/contracts/core/CalldataExtractor.sol\":2282:2297  dataPointsCount */\n      dup4\n        /* \"@redstone-finance/evm-connector/contracts/core/CalldataExtractor.sol\":2282:2357  dataPointsCount *... */\n      tag_229\n      swap2\n      swap1\n      tag_195\n      jump\t// in\n    tag_229:\n        /* \"@redstone-finance/evm-connector/contracts/core/CalldataExtractor.sol\":2282:2401  dataPointsCount *... */\n      tag_230\n      swap2\n      swap1\n      tag_125\n      jump\t// in\n    tag_230:\n        /* \"@redstone-finance/evm-connector/contracts/core/CalldataExtractor.sol\":2269:2401  return... */\n      swap3\n      pop\n      pop\n      pop\n        /* \"@redstone-finance/evm-connector/contracts/core/CalldataExtractor.sol\":2014:2406  function _getDataPackageByteSize(uint256 calldataNegativeOffset) internal pure returns (uint256) {... */\n      swap2\n      swap1\n      pop\n      jump\t// out\n        /* \"@redstone-finance/evm-connector/contracts/core/RedstoneDefaultsLib.sol\":1547:1681  function aggregateValues(uint256[] memory values) internal pure returns (uint256) {... */\n    tag_184:\n        /* \"@redstone-finance/evm-connector/contracts/core/RedstoneDefaultsLib.sol\":1620:1627  uint256 */\n      0x00\n        /* \"@redstone-finance/evm-connector/contracts/core/RedstoneDefaultsLib.sol\":1642:1676  NumericArrayLib.pickMedian(values) */\n      tag_232\n        /* \"@redstone-finance/evm-connector/contracts/core/RedstoneDefaultsLib.sol\":1669:1675  values */\n      dup3\n        /* \"@redstone-finance/evm-connector/contracts/core/RedstoneDefaultsLib.sol\":1642:1668  NumericArrayLib.pickMedian */\n      tag_233\n        /* \"@redstone-finance/evm-connector/contracts/core/RedstoneDefaultsLib.sol\":1642:1676  NumericArrayLib.pickMedian(values) */\n      jump\t// in\n    tag_232:\n        /* \"@redstone-finance/evm-connector/contracts/core/RedstoneDefaultsLib.sol\":1635:1676  return NumericArrayLib.pickMedian(values) */\n      swap1\n      pop\n        /* \"@redstone-finance/evm-connector/contracts/core/RedstoneDefaultsLib.sol\":1547:1681  function aggregateValues(uint256[] memory values) internal pure returns (uint256) {... */\n      swap2\n      swap1\n      pop\n      jump\t// out\n        /* \"@redstone-finance/evm-connector/contracts/core/RedstoneConsumerNumericBase.sol\":2373:2684  function getOracleNumericValuesFromTxMsg(bytes32[] memory dataFeedIds)... */\n    tag_211:\n        /* \"@redstone-finance/evm-connector/contracts/core/RedstoneConsumerNumericBase.sol\":2491:2507  uint256[] memory */\n      0x60\n        /* \"@redstone-finance/evm-connector/contracts/core/RedstoneConsumerNumericBase.sol\":2518:2541  uint256[] memory values */\n      0x00\n        /* \"@redstone-finance/evm-connector/contracts/core/RedstoneConsumerNumericBase.sol\":2543:2560  uint256 timestamp */\n      dup1\n        /* \"@redstone-finance/evm-connector/contracts/core/RedstoneConsumerNumericBase.sol\":2564:2626  _securelyExtractOracleValuesAndTimestampFromTxMsg(dataFeedIds) */\n      tag_235\n        /* \"@redstone-finance/evm-connector/contracts/core/RedstoneConsumerNumericBase.sol\":2614:2625  dataFeedIds */\n      dup5\n        /* \"@redstone-finance/evm-connector/contracts/core/RedstoneConsumerNumericBase.sol\":2564:2613  _securelyExtractOracleValuesAndTimestampFromTxMsg */\n      tag_236\n        /* \"@redstone-finance/evm-connector/contracts/core/RedstoneConsumerNumericBase.sol\":2564:2626  _securelyExtractOracleValuesAndTimestampFromTxMsg(dataFeedIds) */\n      jump\t// in\n    tag_235:\n        /* \"@redstone-finance/evm-connector/contracts/core/RedstoneConsumerNumericBase.sol\":2517:2626  (uint256[] memory values, uint256 timestamp) = _securelyExtractOracleValuesAndTimestampFromTxMsg(dataFeedIds) */\n      swap2\n      pop\n      swap2\n      pop\n        /* \"@redstone-finance/evm-connector/contracts/core/RedstoneConsumerNumericBase.sol\":2632:2660  validateTimestamp(timestamp) */\n      tag_237\n        /* \"@redstone-finance/evm-connector/contracts/core/RedstoneConsumerNumericBase.sol\":2650:2659  timestamp */\n      dup2\n        /* \"@redstone-finance/evm-connector/contracts/core/RedstoneConsumerNumericBase.sol\":2632:2649  validateTimestamp */\n      tag_108\n        /* \"@redstone-finance/evm-connector/contracts/core/RedstoneConsumerNumericBase.sol\":2632:2660  validateTimestamp(timestamp) */\n      jump\t// in\n    tag_237:\n        /* \"@redstone-finance/evm-connector/contracts/core/RedstoneConsumerNumericBase.sol\":2673:2679  values */\n      dup2\n        /* \"@redstone-finance/evm-connector/contracts/core/RedstoneConsumerNumericBase.sol\":2666:2679  return values */\n      swap3\n      pop\n      pop\n      pop\n        /* \"@redstone-finance/evm-connector/contracts/core/RedstoneConsumerNumericBase.sol\":2373:2684  function getOracleNumericValuesFromTxMsg(bytes32[] memory dataFeedIds)... */\n      swap2\n      swap1\n      pop\n      jump\t// out\n        /* \"@redstone-finance/evm-connector/contracts/core/CalldataExtractor.sol\":4955:5916  function _extractDataPointsDetailsForDataPackage(uint256 calldataNegativeOffsetForDataPackage)... */\n    tag_227:\n        /* \"@redstone-finance/evm-connector/contracts/core/CalldataExtractor.sol\":5085:5108  uint256 dataPointsCount */\n      0x00\n        /* \"@redstone-finance/evm-connector/contracts/core/CalldataExtractor.sol\":5110:5144  uint256 eachDataPointValueByteSize */\n      dup1\n        /* \"@redstone-finance/evm-connector/contracts/core/CalldataExtractor.sol\":5230:5253  uint24 dataPointsCount_ */\n      0x00\n        /* \"@redstone-finance/evm-connector/contracts/core/CalldataExtractor.sol\":5328:5362  uint32 eachDataPointValueByteSize_ */\n      dup1\n        /* \"@redstone-finance/evm-connector/contracts/core/CalldataExtractor.sol\":5402:5424  uint256 calldataOffset */\n      0x00\n        /* \"@redstone-finance/evm-connector/contracts/core/RedstoneConstants.sol\":524:526  32 */\n      0x20\n        /* \"@redstone-finance/evm-connector/contracts/core/RedstoneConstants.sol\":1026:1028  65 */\n      0x41\n        /* \"@redstone-finance/evm-connector/contracts/core/CalldataExtractor.sol\":5446:5482  calldataNegativeOffsetForDataPackage */\n      dup8\n        /* \"@redstone-finance/evm-connector/contracts/core/CalldataExtractor.sol\":5446:5491  calldataNegativeOffsetForDataPackage + SIG_BS */\n      tag_239\n      swap2\n      swap1\n      tag_125\n      jump\t// in\n    tag_239:\n        /* \"@redstone-finance/evm-connector/contracts/core/CalldataExtractor.sol\":5446:5510  calldataNegativeOffsetForDataPackage + SIG_BS + STANDARD_SLOT_BS */\n      tag_240\n      swap2\n      swap1\n      tag_125\n      jump\t// in\n    tag_240:\n        /* \"@redstone-finance/evm-connector/contracts/core/CalldataExtractor.sol\":5427:5435  msg.data */\n      0x00\n      calldatasize\n        /* \"@redstone-finance/evm-connector/contracts/core/CalldataExtractor.sol\":5427:5442  msg.data.length */\n      swap1\n      pop\n        /* \"@redstone-finance/evm-connector/contracts/core/CalldataExtractor.sol\":5427:5511  msg.data.length - (calldataNegativeOffsetForDataPackage + SIG_BS + STANDARD_SLOT_BS) */\n      tag_241\n      swap2\n      swap1\n      tag_174\n      jump\t// in\n    tag_241:\n        /* \"@redstone-finance/evm-connector/contracts/core/CalldataExtractor.sol\":5402:5511  uint256 calldataOffset = msg.data.length - (calldataNegativeOffsetForDataPackage + SIG_BS + STANDARD_SLOT_BS) */\n      swap1\n      pop\n        /* \"@redstone-finance/evm-connector/contracts/core/CalldataExtractor.sol\":5567:5581  calldataOffset */\n      dup1\n        /* \"@redstone-finance/evm-connector/contracts/core/CalldataExtractor.sol\":5554:5582  calldataload(calldataOffset) */\n      calldataload\n        /* \"@redstone-finance/evm-connector/contracts/core/CalldataExtractor.sol\":5534:5582  dataPointsCount_ := calldataload(calldataOffset) */\n      swap3\n      pop\n        /* \"@redstone-finance/evm-connector/contracts/core/RedstoneConstants.sol\":1183:1184  3 */\n      0x03\n        /* \"@redstone-finance/evm-connector/contracts/core/CalldataExtractor.sol\":5653:5667  calldataOffset */\n      dup2\n        /* \"@redstone-finance/evm-connector/contracts/core/CalldataExtractor.sol\":5653:5690  calldataOffset - DATA_POINTS_COUNT_BS */\n      tag_242\n      swap2\n      swap1\n      tag_174\n      jump\t// in\n    tag_242:\n        /* \"@redstone-finance/evm-connector/contracts/core/CalldataExtractor.sol\":5636:5690  calldataOffset = calldataOffset - DATA_POINTS_COUNT_BS */\n      swap1\n      pop\n        /* \"@redstone-finance/evm-connector/contracts/core/CalldataExtractor.sol\":5757:5771  calldataOffset */\n      dup1\n        /* \"@redstone-finance/evm-connector/contracts/core/CalldataExtractor.sol\":5744:5772  calldataload(calldataOffset) */\n      calldataload\n        /* \"@redstone-finance/evm-connector/contracts/core/CalldataExtractor.sol\":5713:5772  eachDataPointValueByteSize_ := calldataload(calldataOffset) */\n      swap2\n      pop\n        /* \"@redstone-finance/evm-connector/contracts/core/CalldataExtractor.sol\":5833:5849  dataPointsCount_ */\n      dup3\n        /* \"@redstone-finance/evm-connector/contracts/core/CalldataExtractor.sol\":5815:5849  dataPointsCount = dataPointsCount_ */\n      0xffffff\n      and\n      swap5\n      pop\n        /* \"@redstone-finance/evm-connector/contracts/core/CalldataExtractor.sol\":5884:5911  eachDataPointValueByteSize_ */\n      dup2\n        /* \"@redstone-finance/evm-connector/contracts/core/CalldataExtractor.sol\":5855:5911  eachDataPointValueByteSize = eachDataPointValueByteSize_ */\n      0xffffffff\n      and\n      swap4\n      pop\n        /* \"@redstone-finance/evm-connector/contracts/core/CalldataExtractor.sol\":5148:5916  {... */\n      pop\n      pop\n      pop\n        /* \"@redstone-finance/evm-connector/contracts/core/CalldataExtractor.sol\":4955:5916  function _extractDataPointsDetailsForDataPackage(uint256 calldataNegativeOffsetForDataPackage)... */\n      swap2\n      pop\n      swap2\n      jump\t// out\n        /* \"@redstone-finance/evm-connector/contracts/libs/NumericArrayLib.sol\":389:836  function pickMedian(uint256[] memory arr) internal pure returns (uint256) {... */\n    tag_233:\n        /* \"@redstone-finance/evm-connector/contracts/libs/NumericArrayLib.sol\":454:461  uint256 */\n      0x00\n        /* \"@redstone-finance/evm-connector/contracts/libs/NumericArrayLib.sol\":487:488  2 */\n      0x02\n        /* \"@redstone-finance/evm-connector/contracts/libs/NumericArrayLib.sol\":473:476  arr */\n      dup3\n        /* \"@redstone-finance/evm-connector/contracts/libs/NumericArrayLib.sol\":473:483  arr.length */\n      mload\n        /* \"@redstone-finance/evm-connector/contracts/libs/NumericArrayLib.sol\":473:488  arr.length == 2 */\n      eq\n        /* \"@redstone-finance/evm-connector/contracts/libs/NumericArrayLib.sol\":469:533  if (arr.length == 2) {... */\n      iszero\n      tag_244\n      jumpi\n        /* \"@redstone-finance/evm-connector/contracts/libs/NumericArrayLib.sol\":525:526  2 */\n      0x02\n        /* \"@redstone-finance/evm-connector/contracts/libs/NumericArrayLib.sol\":515:518  arr */\n      dup3\n        /* \"@redstone-finance/evm-connector/contracts/libs/NumericArrayLib.sol\":519:520  1 */\n      0x01\n        /* \"@redstone-finance/evm-connector/contracts/libs/NumericArrayLib.sol\":515:521  arr[1] */\n      dup2\n      mload\n      dup2\n      lt\n      tag_245\n      jumpi\n      tag_246\n      tag_209\n      jump\t// in\n    tag_246:\n    tag_245:\n      0x20\n      mul\n      0x20\n      add\n      add\n      mload\n        /* \"@redstone-finance/evm-connector/contracts/libs/NumericArrayLib.sol\":506:509  arr */\n      dup4\n        /* \"@redstone-finance/evm-connector/contracts/libs/NumericArrayLib.sol\":510:511  0 */\n      0x00\n        /* \"@redstone-finance/evm-connector/contracts/libs/NumericArrayLib.sol\":506:512  arr[0] */\n      dup2\n      mload\n      dup2\n      lt\n      tag_247\n      jumpi\n      tag_248\n      tag_209\n      jump\t// in\n    tag_248:\n    tag_247:\n      0x20\n      mul\n      0x20\n      add\n      add\n      mload\n        /* \"@redstone-finance/evm-connector/contracts/libs/NumericArrayLib.sol\":506:521  arr[0] + arr[1] */\n      tag_249\n      swap2\n      swap1\n      tag_125\n      jump\t// in\n    tag_249:\n        /* \"@redstone-finance/evm-connector/contracts/libs/NumericArrayLib.sol\":505:526  (arr[0] + arr[1]) / 2 */\n      tag_250\n      swap2\n      swap1\n      tag_197\n      jump\t// in\n    tag_250:\n        /* \"@redstone-finance/evm-connector/contracts/libs/NumericArrayLib.sol\":498:526  return (arr[0] + arr[1]) / 2 */\n      swap1\n      pop\n      jump(tag_243)\n        /* \"@redstone-finance/evm-connector/contracts/libs/NumericArrayLib.sol\":469:533  if (arr.length == 2) {... */\n    tag_244:\n        /* \"@redstone-finance/evm-connector/contracts/libs/NumericArrayLib.sol\":556:557  0 */\n      0x00\n        /* \"@redstone-finance/evm-connector/contracts/libs/NumericArrayLib.sol\":542:545  arr */\n      dup3\n        /* \"@redstone-finance/evm-connector/contracts/libs/NumericArrayLib.sol\":542:552  arr.length */\n      mload\n        /* \"@redstone-finance/evm-connector/contracts/libs/NumericArrayLib.sol\":542:557  arr.length == 0 */\n      eq\n        /* \"@redstone-finance/evm-connector/contracts/libs/NumericArrayLib.sol\":538:611  if (arr.length == 0) {... */\n      iszero\n      tag_251\n      jumpi\n        /* \"@redstone-finance/evm-connector/contracts/libs/NumericArrayLib.sol\":574:604  CanNotPickMedianOfEmptyArray() */\n      mload(0x40)\n      0x9e198af900000000000000000000000000000000000000000000000000000000\n      dup2\n      mstore\n      0x04\n      add\n      mload(0x40)\n      dup1\n      swap2\n      sub\n      swap1\n      revert\n        /* \"@redstone-finance/evm-connector/contracts/libs/NumericArrayLib.sol\":538:611  if (arr.length == 0) {... */\n    tag_251:\n        /* \"@redstone-finance/evm-connector/contracts/libs/NumericArrayLib.sol\":616:625  sort(arr) */\n      tag_252\n        /* \"@redstone-finance/evm-connector/contracts/libs/NumericArrayLib.sol\":621:624  arr */\n      dup3\n        /* \"@redstone-finance/evm-connector/contracts/libs/NumericArrayLib.sol\":616:620  sort */\n      tag_253\n        /* \"@redstone-finance/evm-connector/contracts/libs/NumericArrayLib.sol\":616:625  sort(arr) */\n      jump\t// in\n    tag_252:\n        /* \"@redstone-finance/evm-connector/contracts/libs/NumericArrayLib.sol\":631:650  uint256 middleIndex */\n      0x00\n        /* \"@redstone-finance/evm-connector/contracts/libs/NumericArrayLib.sol\":666:667  2 */\n      0x02\n        /* \"@redstone-finance/evm-connector/contracts/libs/NumericArrayLib.sol\":653:656  arr */\n      dup4\n        /* \"@redstone-finance/evm-connector/contracts/libs/NumericArrayLib.sol\":653:663  arr.length */\n      mload\n        /* \"@redstone-finance/evm-connector/contracts/libs/NumericArrayLib.sol\":653:667  arr.length / 2 */\n      tag_254\n      swap2\n      swap1\n      tag_197\n      jump\t// in\n    tag_254:\n        /* \"@redstone-finance/evm-connector/contracts/libs/NumericArrayLib.sol\":631:667  uint256 middleIndex = arr.length / 2 */\n      swap1\n      pop\n        /* \"@redstone-finance/evm-connector/contracts/libs/NumericArrayLib.sol\":695:696  0 */\n      0x00\n        /* \"@redstone-finance/evm-connector/contracts/libs/NumericArrayLib.sol\":690:691  2 */\n      0x02\n        /* \"@redstone-finance/evm-connector/contracts/libs/NumericArrayLib.sol\":677:680  arr */\n      dup5\n        /* \"@redstone-finance/evm-connector/contracts/libs/NumericArrayLib.sol\":677:687  arr.length */\n      mload\n        /* \"@redstone-finance/evm-connector/contracts/libs/NumericArrayLib.sol\":677:691  arr.length % 2 */\n      tag_255\n      swap2\n      swap1\n      tag_256\n      jump\t// in\n    tag_255:\n        /* \"@redstone-finance/evm-connector/contracts/libs/NumericArrayLib.sol\":677:696  arr.length % 2 == 0 */\n      eq\n        /* \"@redstone-finance/evm-connector/contracts/libs/NumericArrayLib.sol\":673:832  if (arr.length % 2 == 0) {... */\n      iszero\n      tag_257\n      jumpi\n        /* \"@redstone-finance/evm-connector/contracts/libs/NumericArrayLib.sol\":706:717  uint256 sum */\n      0x00\n        /* \"@redstone-finance/evm-connector/contracts/libs/NumericArrayLib.sol\":743:746  arr */\n      dup4\n        /* \"@redstone-finance/evm-connector/contracts/libs/NumericArrayLib.sol\":747:758  middleIndex */\n      dup3\n        /* \"@redstone-finance/evm-connector/contracts/libs/NumericArrayLib.sol\":743:759  arr[middleIndex] */\n      dup2\n      mload\n      dup2\n      lt\n      tag_258\n      jumpi\n      tag_259\n      tag_209\n      jump\t// in\n    tag_259:\n    tag_258:\n      0x20\n      mul\n      0x20\n      add\n      add\n      mload\n        /* \"@redstone-finance/evm-connector/contracts/libs/NumericArrayLib.sol\":720:723  arr */\n      dup5\n        /* \"@redstone-finance/evm-connector/contracts/libs/NumericArrayLib.sol\":738:739  1 */\n      0x01\n        /* \"@redstone-finance/evm-connector/contracts/libs/NumericArrayLib.sol\":724:735  middleIndex */\n      dup5\n        /* \"@redstone-finance/evm-connector/contracts/libs/NumericArrayLib.sol\":724:739  middleIndex - 1 */\n      tag_260\n      swap2\n      swap1\n      tag_174\n      jump\t// in\n    tag_260:\n        /* \"@redstone-finance/evm-connector/contracts/libs/NumericArrayLib.sol\":720:740  arr[middleIndex - 1] */\n      dup2\n      mload\n      dup2\n      lt\n      tag_261\n      jumpi\n      tag_262\n      tag_209\n      jump\t// in\n    tag_262:\n    tag_261:\n      0x20\n      mul\n      0x20\n      add\n      add\n      mload\n        /* \"@redstone-finance/evm-connector/contracts/libs/NumericArrayLib.sol\":720:759  arr[middleIndex - 1] + arr[middleIndex] */\n      tag_263\n      swap2\n      swap1\n      tag_125\n      jump\t// in\n    tag_263:\n        /* \"@redstone-finance/evm-connector/contracts/libs/NumericArrayLib.sol\":706:759  uint256 sum = arr[middleIndex - 1] + arr[middleIndex] */\n      swap1\n      pop\n        /* \"@redstone-finance/evm-connector/contracts/libs/NumericArrayLib.sol\":780:781  2 */\n      0x02\n        /* \"@redstone-finance/evm-connector/contracts/libs/NumericArrayLib.sol\":774:777  sum */\n      dup2\n        /* \"@redstone-finance/evm-connector/contracts/libs/NumericArrayLib.sol\":774:781  sum / 2 */\n      tag_264\n      swap2\n      swap1\n      tag_197\n      jump\t// in\n    tag_264:\n        /* \"@redstone-finance/evm-connector/contracts/libs/NumericArrayLib.sol\":767:781  return sum / 2 */\n      swap3\n      pop\n      pop\n      pop\n      jump(tag_243)\n        /* \"@redstone-finance/evm-connector/contracts/libs/NumericArrayLib.sol\":673:832  if (arr.length % 2 == 0) {... */\n    tag_257:\n        /* \"@redstone-finance/evm-connector/contracts/libs/NumericArrayLib.sol\":809:812  arr */\n      dup3\n        /* \"@redstone-finance/evm-connector/contracts/libs/NumericArrayLib.sol\":813:824  middleIndex */\n      dup2\n        /* \"@redstone-finance/evm-connector/contracts/libs/NumericArrayLib.sol\":809:825  arr[middleIndex] */\n      dup2\n      mload\n      dup2\n      lt\n      tag_266\n      jumpi\n      tag_267\n      tag_209\n      jump\t// in\n    tag_267:\n    tag_266:\n      0x20\n      mul\n      0x20\n      add\n      add\n      mload\n        /* \"@redstone-finance/evm-connector/contracts/libs/NumericArrayLib.sol\":802:825  return arr[middleIndex] */\n      swap2\n      pop\n      pop\n        /* \"@redstone-finance/evm-connector/contracts/libs/NumericArrayLib.sol\":389:836  function pickMedian(uint256[] memory arr) internal pure returns (uint256) {... */\n    tag_243:\n      swap2\n      swap1\n      pop\n      jump\t// out\n        /* \"@redstone-finance/evm-connector/contracts/core/RedstoneConsumerBase.sol\":3842:6283  function _securelyExtractOracleValuesAndTimestampFromTxMsg(bytes32[] memory dataFeedIds)... */\n    tag_236:\n        /* \"@redstone-finance/evm-connector/contracts/core/RedstoneConsumerBase.sol\":3966:3982  uint256[] memory */\n      0x60\n        /* \"@redstone-finance/evm-connector/contracts/core/RedstoneConsumerBase.sol\":3984:4013  uint256 dataPackagesTimestamp */\n      0x00\n        /* \"@redstone-finance/evm-connector/contracts/core/RedstoneConsumerBase.sol\":4083:4131  uint256[] memory uniqueSignerCountForDataFeedIds */\n      dup1\n        /* \"@redstone-finance/evm-connector/contracts/core/RedstoneConsumerBase.sol\":4148:4159  dataFeedIds */\n      dup4\n        /* \"@redstone-finance/evm-connector/contracts/core/RedstoneConsumerBase.sol\":4148:4166  dataFeedIds.length */\n      mload\n        /* \"@redstone-finance/evm-connector/contracts/core/RedstoneConsumerBase.sol\":4134:4167  new uint256[](dataFeedIds.length) */\n      0xffffffffffffffff\n      dup2\n      gt\n      iszero\n      tag_269\n      jumpi\n      tag_270\n      tag_205\n      jump\t// in\n    tag_270:\n    tag_269:\n      mload(0x40)\n      swap1\n      dup1\n      dup3\n      mstore\n      dup1\n      0x20\n      mul\n      0x20\n      add\n      dup3\n      add\n      0x40\n      mstore\n      dup1\n      iszero\n      tag_271\n      jumpi\n      dup2\n      0x20\n      add\n      0x20\n      dup3\n      mul\n      dup1\n      calldatasize\n      dup4\n      calldatacopy\n      dup1\n      dup3\n      add\n      swap2\n      pop\n      pop\n      swap1\n      pop\n    tag_271:\n      pop\n        /* \"@redstone-finance/evm-connector/contracts/core/RedstoneConsumerBase.sol\":4083:4167  uint256[] memory uniqueSignerCountForDataFeedIds = new uint256[](dataFeedIds.length) */\n      swap1\n      pop\n        /* \"@redstone-finance/evm-connector/contracts/core/RedstoneConsumerBase.sol\":4173:4217  uint256[] memory signersBitmapForDataFeedIds */\n      0x00\n        /* \"@redstone-finance/evm-connector/contracts/core/RedstoneConsumerBase.sol\":4234:4245  dataFeedIds */\n      dup5\n        /* \"@redstone-finance/evm-connector/contracts/core/RedstoneConsumerBase.sol\":4234:4252  dataFeedIds.length */\n      mload\n        /* \"@redstone-finance/evm-connector/contracts/core/RedstoneConsumerBase.sol\":4220:4253  new uint256[](dataFeedIds.length) */\n      0xffffffffffffffff\n      dup2\n      gt\n      iszero\n      tag_272\n      jumpi\n      tag_273\n      tag_205\n      jump\t// in\n    tag_273:\n    tag_272:\n      mload(0x40)\n      swap1\n      dup1\n      dup3\n      mstore\n      dup1\n      0x20\n      mul\n      0x20\n      add\n      dup3\n      add\n      0x40\n      mstore\n      dup1\n      iszero\n      tag_274\n      jumpi\n      dup2\n      0x20\n      add\n      0x20\n      dup3\n      mul\n      dup1\n      calldatasize\n      dup4\n      calldatacopy\n      dup1\n      dup3\n      add\n      swap2\n      pop\n      pop\n      swap1\n      pop\n    tag_274:\n      pop\n        /* \"@redstone-finance/evm-connector/contracts/core/RedstoneConsumerBase.sol\":4173:4253  uint256[] memory signersBitmapForDataFeedIds = new uint256[](dataFeedIds.length) */\n      swap1\n      pop\n        /* \"@redstone-finance/evm-connector/contracts/core/RedstoneConsumerBase.sol\":4259:4296  uint256[][] memory valuesForDataFeeds */\n      0x00\n        /* \"@redstone-finance/evm-connector/contracts/core/RedstoneConsumerBase.sol\":4315:4326  dataFeedIds */\n      dup6\n        /* \"@redstone-finance/evm-connector/contracts/core/RedstoneConsumerBase.sol\":4315:4333  dataFeedIds.length */\n      mload\n        /* \"@redstone-finance/evm-connector/contracts/core/RedstoneConsumerBase.sol\":4299:4334  new uint256[][](dataFeedIds.length) */\n      0xffffffffffffffff\n      dup2\n      gt\n      iszero\n      tag_275\n      jumpi\n      tag_276\n      tag_205\n      jump\t// in\n    tag_276:\n    tag_275:\n      mload(0x40)\n      swap1\n      dup1\n      dup3\n      mstore\n      dup1\n      0x20\n      mul\n      0x20\n      add\n      dup3\n      add\n      0x40\n      mstore\n      dup1\n      iszero\n      tag_277\n      jumpi\n      dup2\n      0x20\n      add\n    tag_278:\n      0x60\n      dup2\n      mstore\n      0x20\n      add\n      swap1\n      0x01\n      swap1\n      sub\n      swap1\n      dup2\n      tag_278\n      jumpi\n      swap1\n      pop\n    tag_277:\n      pop\n        /* \"@redstone-finance/evm-connector/contracts/core/RedstoneConsumerBase.sol\":4259:4334  uint256[][] memory valuesForDataFeeds = new uint256[][](dataFeedIds.length) */\n      swap1\n      pop\n        /* \"@redstone-finance/evm-connector/contracts/core/RedstoneConsumerBase.sol\":4345:4354  uint256 i */\n      0x00\n        /* \"@redstone-finance/evm-connector/contracts/core/RedstoneConsumerBase.sol\":4340:4720  for (uint256 i = 0; i < dataFeedIds.length;) {... */\n    tag_279:\n        /* \"@redstone-finance/evm-connector/contracts/core/RedstoneConsumerBase.sol\":4364:4375  dataFeedIds */\n      dup7\n        /* \"@redstone-finance/evm-connector/contracts/core/RedstoneConsumerBase.sol\":4364:4382  dataFeedIds.length */\n      mload\n        /* \"@redstone-finance/evm-connector/contracts/core/RedstoneConsumerBase.sol\":4360:4361  i */\n      dup2\n        /* \"@redstone-finance/evm-connector/contracts/core/RedstoneConsumerBase.sol\":4360:4382  i < dataFeedIds.length */\n      lt\n        /* \"@redstone-finance/evm-connector/contracts/core/RedstoneConsumerBase.sol\":4340:4720  for (uint256 i = 0; i < dataFeedIds.length;) {... */\n      iszero\n      tag_280\n      jumpi\n        /* \"@redstone-finance/evm-connector/contracts/core/RedstoneConsumerBase.sol\":4646:4673  getUniqueSignersThreshold() */\n      tag_282\n        /* \"@redstone-finance/evm-connector/contracts/core/RedstoneConsumerBase.sol\":4646:4671  getUniqueSignersThreshold */\n      tag_111\n        /* \"@redstone-finance/evm-connector/contracts/core/RedstoneConsumerBase.sol\":4646:4673  getUniqueSignersThreshold() */\n      jump\t// in\n    tag_282:\n        /* \"@redstone-finance/evm-connector/contracts/core/RedstoneConsumerBase.sol\":4632:4674  new uint256[](getUniqueSignersThreshold()) */\n      0xff\n      and\n      0xffffffffffffffff\n      dup2\n      gt\n      iszero\n      tag_283\n      jumpi\n      tag_284\n      tag_205\n      jump\t// in\n    tag_284:\n    tag_283:\n      mload(0x40)\n      swap1\n      dup1\n      dup3\n      mstore\n      dup1\n      0x20\n      mul\n      0x20\n      add\n      dup3\n      add\n      0x40\n      mstore\n      dup1\n      iszero\n      tag_285\n      jumpi\n      dup2\n      0x20\n      add\n      0x20\n      dup3\n      mul\n      dup1\n      calldatasize\n      dup4\n      calldatacopy\n      dup1\n      dup3\n      add\n      swap2\n      pop\n      pop\n      swap1\n      pop\n    tag_285:\n      pop\n        /* \"@redstone-finance/evm-connector/contracts/core/RedstoneConsumerBase.sol\":4608:4626  valuesForDataFeeds */\n      dup3\n        /* \"@redstone-finance/evm-connector/contracts/core/RedstoneConsumerBase.sol\":4627:4628  i */\n      dup3\n        /* \"@redstone-finance/evm-connector/contracts/core/RedstoneConsumerBase.sol\":4608:4629  valuesForDataFeeds[i] */\n      dup2\n      mload\n      dup2\n      lt\n      tag_286\n      jumpi\n      tag_287\n      tag_209\n      jump\t// in\n    tag_287:\n    tag_286:\n      0x20\n      mul\n      0x20\n      add\n      add\n        /* \"@redstone-finance/evm-connector/contracts/core/RedstoneConsumerBase.sol\":4608:4674  valuesForDataFeeds[i] = new uint256[](getUniqueSignersThreshold()) */\n      dup2\n      swap1\n      mstore\n      pop\n        /* \"@redstone-finance/evm-connector/contracts/core/RedstoneConsumerBase.sol\":4702:4705  i++ */\n      dup1\n      dup1\n      0x01\n      add\n      swap2\n      pop\n      pop\n        /* \"@redstone-finance/evm-connector/contracts/core/RedstoneConsumerBase.sol\":4340:4720  for (uint256 i = 0; i < dataFeedIds.length;) {... */\n      jump(tag_279)\n    tag_280:\n      pop\n        /* \"@redstone-finance/evm-connector/contracts/core/RedstoneConsumerBase.sol\":4786:4816  uint256 calldataNegativeOffset */\n      0x00\n        /* \"@redstone-finance/evm-connector/contracts/core/RedstoneConsumerBase.sol\":4819:4855  _extractByteSizeOfUnsignedMetadata() */\n      tag_288\n        /* \"@redstone-finance/evm-connector/contracts/core/RedstoneConsumerBase.sol\":4819:4853  _extractByteSizeOfUnsignedMetadata */\n      tag_163\n        /* \"@redstone-finance/evm-connector/contracts/core/RedstoneConsumerBase.sol\":4819:4855  _extractByteSizeOfUnsignedMetadata() */\n      jump\t// in\n    tag_288:\n        /* \"@redstone-finance/evm-connector/contracts/core/RedstoneConsumerBase.sol\":4786:4855  uint256 calldataNegativeOffset = _extractByteSizeOfUnsignedMetadata() */\n      swap1\n      pop\n        /* \"@redstone-finance/evm-connector/contracts/core/RedstoneConsumerBase.sol\":4861:4886  uint256 dataPackagesCount */\n      0x00\n        /* \"@redstone-finance/evm-connector/contracts/core/RedstoneConsumerBase.sol\":4938:4999  _extractDataPackagesCountFromCalldata(calldataNegativeOffset) */\n      tag_289\n        /* \"@redstone-finance/evm-connector/contracts/core/RedstoneConsumerBase.sol\":4976:4998  calldataNegativeOffset */\n      dup3\n        /* \"@redstone-finance/evm-connector/contracts/core/RedstoneConsumerBase.sol\":4938:4975  _extractDataPackagesCountFromCalldata */\n      tag_165\n        /* \"@redstone-finance/evm-connector/contracts/core/RedstoneConsumerBase.sol\":4938:4999  _extractDataPackagesCountFromCalldata(calldataNegativeOffset) */\n      jump\t// in\n    tag_289:\n        /* \"@redstone-finance/evm-connector/contracts/core/RedstoneConsumerBase.sol\":4892:4999  (dataPackagesCount, calldataNegativeOffset) = _extractDataPackagesCountFromCalldata(calldataNegativeOffset) */\n      dup2\n      0xffff\n      and\n      swap2\n      pop\n      dup1\n      swap4\n      pop\n      dup2\n      swap3\n      pop\n      pop\n      pop\n        /* \"@redstone-finance/evm-connector/contracts/core/RedstoneConsumerBase.sol\":5048:5066  uint256 freeMemPtr */\n      0x00\n        /* \"@redstone-finance/evm-connector/contracts/core/RedstoneConsumerBase.sol\":5109:5124  FREE_MEMORY_PTR */\n      0x40\n        /* \"@redstone-finance/evm-connector/contracts/core/RedstoneConsumerBase.sol\":5103:5125  mload(FREE_MEMORY_PTR) */\n      mload\n        /* \"@redstone-finance/evm-connector/contracts/core/RedstoneConsumerBase.sol\":5089:5125  freeMemPtr := mload(FREE_MEMORY_PTR) */\n      swap1\n      pop\n        /* \"@redstone-finance/evm-connector/contracts/core/RedstoneConsumerBase.sol\":5184:5208  uint256 dataPackageIndex */\n      0x00\n        /* \"@redstone-finance/evm-connector/contracts/core/RedstoneConsumerBase.sol\":5179:6069  for (uint256 dataPackageIndex = 0; dataPackageIndex < dataPackagesCount;) {... */\n    tag_290:\n        /* \"@redstone-finance/evm-connector/contracts/core/RedstoneConsumerBase.sol\":5233:5250  dataPackagesCount */\n      dup3\n        /* \"@redstone-finance/evm-connector/contracts/core/RedstoneConsumerBase.sol\":5214:5230  dataPackageIndex */\n      dup2\n        /* \"@redstone-finance/evm-connector/contracts/core/RedstoneConsumerBase.sol\":5214:5250  dataPackageIndex < dataPackagesCount */\n      lt\n        /* \"@redstone-finance/evm-connector/contracts/core/RedstoneConsumerBase.sol\":5179:6069  for (uint256 dataPackageIndex = 0; dataPackageIndex < dataPackagesCount;) {... */\n      iszero\n      tag_291\n      jumpi\n        /* \"@redstone-finance/evm-connector/contracts/core/RedstoneConsumerBase.sol\":5326:5354  uint256 dataPackageTimestamp */\n      0x00\n        /* \"@redstone-finance/evm-connector/contracts/core/RedstoneConsumerBase.sol\":5411:5597  _extractDataPackage(... */\n      tag_293\n        /* \"@redstone-finance/evm-connector/contracts/core/RedstoneConsumerBase.sol\":5440:5451  dataFeedIds */\n      dup12\n        /* \"@redstone-finance/evm-connector/contracts/core/RedstoneConsumerBase.sol\":5461:5492  uniqueSignerCountForDataFeedIds */\n      dup10\n        /* \"@redstone-finance/evm-connector/contracts/core/RedstoneConsumerBase.sol\":5502:5529  signersBitmapForDataFeedIds */\n      dup10\n        /* \"@redstone-finance/evm-connector/contracts/core/RedstoneConsumerBase.sol\":5539:5557  valuesForDataFeeds */\n      dup10\n        /* \"@redstone-finance/evm-connector/contracts/core/RedstoneConsumerBase.sol\":5567:5589  calldataNegativeOffset */\n      dup10\n        /* \"@redstone-finance/evm-connector/contracts/core/RedstoneConsumerBase.sol\":5411:5430  _extractDataPackage */\n      tag_294\n        /* \"@redstone-finance/evm-connector/contracts/core/RedstoneConsumerBase.sol\":5411:5597  _extractDataPackage(... */\n      jump\t// in\n    tag_293:\n        /* \"@redstone-finance/evm-connector/contracts/core/RedstoneConsumerBase.sol\":5362:5597  (calldataNegativeOffset, dataPackageTimestamp) = _extractDataPackage(... */\n      dup1\n      swap3\n      pop\n      dup2\n      swap7\n      pop\n      pop\n      pop\n        /* \"@redstone-finance/evm-connector/contracts/core/RedstoneConsumerBase.sol\":5634:5635  0 */\n      0x00\n        /* \"@redstone-finance/evm-connector/contracts/core/RedstoneConsumerBase.sol\":5610:5630  dataPackageTimestamp */\n      dup2\n        /* \"@redstone-finance/evm-connector/contracts/core/RedstoneConsumerBase.sol\":5610:5635  dataPackageTimestamp == 0 */\n      eq\n        /* \"@redstone-finance/evm-connector/contracts/core/RedstoneConsumerBase.sol\":5606:5690  if (dataPackageTimestamp == 0) {... */\n      iszero\n      tag_295\n      jumpi\n        /* \"@redstone-finance/evm-connector/contracts/core/RedstoneConsumerBase.sol\":5654:5681  DataTimestampCannotBeZero() */\n      mload(0x40)\n      0xdfb25a7900000000000000000000000000000000000000000000000000000000\n      dup2\n      mstore\n      0x04\n      add\n      mload(0x40)\n      dup1\n      swap2\n      sub\n      swap1\n      revert\n        /* \"@redstone-finance/evm-connector/contracts/core/RedstoneConsumerBase.sol\":5606:5690  if (dataPackageTimestamp == 0) {... */\n    tag_295:\n        /* \"@redstone-finance/evm-connector/contracts/core/RedstoneConsumerBase.sol\":5726:5747  dataPackagesTimestamp */\n      dup9\n        /* \"@redstone-finance/evm-connector/contracts/core/RedstoneConsumerBase.sol\":5702:5722  dataPackageTimestamp */\n      dup2\n        /* \"@redstone-finance/evm-connector/contracts/core/RedstoneConsumerBase.sol\":5702:5747  dataPackageTimestamp != dataPackagesTimestamp */\n      eq\n      iszero\n        /* \"@redstone-finance/evm-connector/contracts/core/RedstoneConsumerBase.sol\":5702:5777  dataPackageTimestamp != dataPackagesTimestamp && dataPackagesTimestamp != 0 */\n      dup1\n      iszero\n      tag_296\n      jumpi\n      pop\n        /* \"@redstone-finance/evm-connector/contracts/core/RedstoneConsumerBase.sol\":5776:5777  0 */\n      0x00\n        /* \"@redstone-finance/evm-connector/contracts/core/RedstoneConsumerBase.sol\":5751:5772  dataPackagesTimestamp */\n      dup10\n        /* \"@redstone-finance/evm-connector/contracts/core/RedstoneConsumerBase.sol\":5751:5777  dataPackagesTimestamp != 0 */\n      eq\n      iszero\n        /* \"@redstone-finance/evm-connector/contracts/core/RedstoneConsumerBase.sol\":5702:5777  dataPackageTimestamp != dataPackagesTimestamp && dataPackagesTimestamp != 0 */\n    tag_296:\n        /* \"@redstone-finance/evm-connector/contracts/core/RedstoneConsumerBase.sol\":5698:5828  if (dataPackageTimestamp != dataPackagesTimestamp && dataPackagesTimestamp != 0) {... */\n      iszero\n      tag_297\n      jumpi\n        /* \"@redstone-finance/evm-connector/contracts/core/RedstoneConsumerBase.sol\":5796:5819  TimestampsMustBeEqual() */\n      mload(0x40)\n      0x4cbc474200000000000000000000000000000000000000000000000000000000\n      dup2\n      mstore\n      0x04\n      add\n      mload(0x40)\n      dup1\n      swap2\n      sub\n      swap1\n      revert\n        /* \"@redstone-finance/evm-connector/contracts/core/RedstoneConsumerBase.sol\":5698:5828  if (dataPackageTimestamp != dataPackagesTimestamp && dataPackagesTimestamp != 0) {... */\n    tag_297:\n        /* \"@redstone-finance/evm-connector/contracts/core/RedstoneConsumerBase.sol\":5860:5880  dataPackageTimestamp */\n      dup1\n        /* \"@redstone-finance/evm-connector/contracts/core/RedstoneConsumerBase.sol\":5836:5880  dataPackagesTimestamp = dataPackageTimestamp */\n      swap9\n      pop\n        /* \"@redstone-finance/evm-connector/contracts/core/RedstoneConsumerBase.sol\":5990:6000  freeMemPtr */\n      dup3\n        /* \"@redstone-finance/evm-connector/contracts/core/RedstoneConsumerBase.sol\":5973:5988  FREE_MEMORY_PTR */\n      0x40\n        /* \"@redstone-finance/evm-connector/contracts/core/RedstoneConsumerBase.sol\":5966:6001  mstore(FREE_MEMORY_PTR, freeMemPtr) */\n      mstore\n        /* \"@redstone-finance/evm-connector/contracts/core/RedstoneConsumerBase.sol\":6036:6054  dataPackageIndex++ */\n      dup2\n      dup1\n      0x01\n      add\n      swap3\n      pop\n      pop\n        /* \"@redstone-finance/evm-connector/contracts/core/RedstoneConsumerBase.sol\":5253:6069  {... */\n      pop\n        /* \"@redstone-finance/evm-connector/contracts/core/RedstoneConsumerBase.sol\":5179:6069  for (uint256 dataPackageIndex = 0; dataPackageIndex < dataPackagesCount;) {... */\n      jump(tag_290)\n    tag_291:\n      pop\n        /* \"@redstone-finance/evm-connector/contracts/core/RedstoneConsumerBase.sol\":6181:6254  _getAggregatedValues(valuesForDataFeeds, uniqueSignerCountForDataFeedIds) */\n      tag_298\n        /* \"@redstone-finance/evm-connector/contracts/core/RedstoneConsumerBase.sol\":6202:6220  valuesForDataFeeds */\n      dup5\n        /* \"@redstone-finance/evm-connector/contracts/core/RedstoneConsumerBase.sol\":6222:6253  uniqueSignerCountForDataFeedIds */\n      dup8\n        /* \"@redstone-finance/evm-connector/contracts/core/RedstoneConsumerBase.sol\":6181:6201  _getAggregatedValues */\n      tag_299\n        /* \"@redstone-finance/evm-connector/contracts/core/RedstoneConsumerBase.sol\":6181:6254  _getAggregatedValues(valuesForDataFeeds, uniqueSignerCountForDataFeedIds) */\n      jump\t// in\n    tag_298:\n        /* \"@redstone-finance/evm-connector/contracts/core/RedstoneConsumerBase.sol\":6173:6278  return (_getAggregatedValues(valuesForDataFeeds, uniqueSignerCountForDataFeedIds), dataPackagesTimestamp) */\n      swap8\n      pop\n      pop\n      pop\n      pop\n      pop\n      pop\n      pop\n        /* \"@redstone-finance/evm-connector/contracts/core/RedstoneConsumerBase.sol\":3842:6283  function _securelyExtractOracleValuesAndTimestampFromTxMsg(bytes32[] memory dataFeedIds)... */\n      swap2\n      pop\n      swap2\n      jump\t// out\n        /* \"@redstone-finance/evm-connector/contracts/libs/NumericArrayLib.sol\":840:1590  function sort(uint256[] memory arr) internal pure {... */\n    tag_253:\n        /* \"@redstone-finance/evm-connector/contracts/libs/NumericArrayLib.sol\":936:939  arr */\n      dup1\n        /* \"@redstone-finance/evm-connector/contracts/libs/NumericArrayLib.sol\":930:940  mload(arr) */\n      mload\n        /* \"@redstone-finance/evm-connector/contracts/libs/NumericArrayLib.sol\":973:993  BYTES_ARR_LEN_VAR_BS */\n      0x20\n        /* \"@redstone-finance/evm-connector/contracts/libs/NumericArrayLib.sol\":968:971  arr */\n      dup3\n        /* \"@redstone-finance/evm-connector/contracts/libs/NumericArrayLib.sol\":964:994  add(arr, BYTES_ARR_LEN_VAR_BS) */\n      add\n        /* \"@redstone-finance/evm-connector/contracts/libs/NumericArrayLib.sol\":1045:1061  UINT256_VALUE_BS */\n      0x20\n        /* \"@redstone-finance/evm-connector/contracts/libs/NumericArrayLib.sol\":1034:1043  arrLength */\n      dup3\n        /* \"@redstone-finance/evm-connector/contracts/libs/NumericArrayLib.sol\":1030:1062  mul(arrLength, UINT256_VALUE_BS) */\n      mul\n        /* \"@redstone-finance/evm-connector/contracts/libs/NumericArrayLib.sol\":1019:1028  valuesPtr */\n      dup2\n        /* \"@redstone-finance/evm-connector/contracts/libs/NumericArrayLib.sol\":1015:1063  add(valuesPtr, mul(arrLength, UINT256_VALUE_BS)) */\n      add\n        /* \"@redstone-finance/evm-connector/contracts/libs/NumericArrayLib.sol\":1099:1108  valuesPtr */\n      dup2\n        /* \"@redstone-finance/evm-connector/contracts/libs/NumericArrayLib.sol\":1070:1580  for {... */\n    tag_301:\n        /* \"@redstone-finance/evm-connector/contracts/libs/NumericArrayLib.sol\":1129:1135  endPtr */\n      dup2\n        /* \"@redstone-finance/evm-connector/contracts/libs/NumericArrayLib.sol\":1120:1127  arrIPtr */\n      dup2\n        /* \"@redstone-finance/evm-connector/contracts/libs/NumericArrayLib.sol\":1117:1136  lt(arrIPtr, endPtr) */\n      lt\n        /* \"@redstone-finance/evm-connector/contracts/libs/NumericArrayLib.sol\":1070:1580  for {... */\n      iszero\n      tag_303\n      jumpi\n        /* \"@redstone-finance/evm-connector/contracts/libs/NumericArrayLib.sol\":1255:1264  valuesPtr */\n      dup3\n        /* \"@redstone-finance/evm-connector/contracts/libs/NumericArrayLib.sol\":1224:1572  for {... */\n    tag_304:\n        /* \"@redstone-finance/evm-connector/contracts/libs/NumericArrayLib.sol\":1287:1294  arrIPtr */\n      dup2\n        /* \"@redstone-finance/evm-connector/contracts/libs/NumericArrayLib.sol\":1278:1285  arrJPtr */\n      dup2\n        /* \"@redstone-finance/evm-connector/contracts/libs/NumericArrayLib.sol\":1275:1295  lt(arrJPtr, arrIPtr) */\n      lt\n        /* \"@redstone-finance/evm-connector/contracts/libs/NumericArrayLib.sol\":1224:1572  for {... */\n      iszero\n      tag_306\n      jumpi\n        /* \"@redstone-finance/evm-connector/contracts/libs/NumericArrayLib.sol\":1407:1414  arrIPtr */\n      dup2\n        /* \"@redstone-finance/evm-connector/contracts/libs/NumericArrayLib.sol\":1401:1415  mload(arrIPtr) */\n      mload\n        /* \"@redstone-finance/evm-connector/contracts/libs/NumericArrayLib.sol\":1444:1451  arrJPtr */\n      dup2\n        /* \"@redstone-finance/evm-connector/contracts/libs/NumericArrayLib.sol\":1438:1452  mload(arrJPtr) */\n      mload\n        /* \"@redstone-finance/evm-connector/contracts/libs/NumericArrayLib.sol\":1475:1479  arrJ */\n      dup1\n        /* \"@redstone-finance/evm-connector/contracts/libs/NumericArrayLib.sol\":1469:1473  arrI */\n      dup3\n        /* \"@redstone-finance/evm-connector/contracts/libs/NumericArrayLib.sol\":1466:1480  lt(arrI, arrJ) */\n      lt\n        /* \"@redstone-finance/evm-connector/contracts/libs/NumericArrayLib.sol\":1463:1562  if lt(arrI, arrJ) {... */\n      iszero\n      tag_307\n      jumpi\n        /* \"@redstone-finance/evm-connector/contracts/libs/NumericArrayLib.sol\":1511:1515  arrJ */\n      dup1\n        /* \"@redstone-finance/evm-connector/contracts/libs/NumericArrayLib.sol\":1502:1509  arrIPtr */\n      dup5\n        /* \"@redstone-finance/evm-connector/contracts/libs/NumericArrayLib.sol\":1495:1516  mstore(arrIPtr, arrJ) */\n      mstore\n        /* \"@redstone-finance/evm-connector/contracts/libs/NumericArrayLib.sol\":1545:1549  arrI */\n      dup2\n        /* \"@redstone-finance/evm-connector/contracts/libs/NumericArrayLib.sol\":1536:1543  arrJPtr */\n      dup4\n        /* \"@redstone-finance/evm-connector/contracts/libs/NumericArrayLib.sol\":1529:1550  mstore(arrJPtr, arrI) */\n      mstore\n        /* \"@redstone-finance/evm-connector/contracts/libs/NumericArrayLib.sol\":1463:1562  if lt(arrI, arrJ) {... */\n    tag_307:\n        /* \"@redstone-finance/evm-connector/contracts/libs/NumericArrayLib.sol\":1377:1572  {... */\n      pop\n      pop\n        /* \"@redstone-finance/evm-connector/contracts/libs/NumericArrayLib.sol\":1332:1348  UINT256_VALUE_BS */\n      0x20\n        /* \"@redstone-finance/evm-connector/contracts/libs/NumericArrayLib.sol\":1323:1330  arrJPtr */\n      dup2\n        /* \"@redstone-finance/evm-connector/contracts/libs/NumericArrayLib.sol\":1319:1349  add(arrJPtr, UINT256_VALUE_BS) */\n      add\n        /* \"@redstone-finance/evm-connector/contracts/libs/NumericArrayLib.sol\":1308:1349  arrJPtr := add(arrJPtr, UINT256_VALUE_BS) */\n      swap1\n      pop\n        /* \"@redstone-finance/evm-connector/contracts/libs/NumericArrayLib.sol\":1224:1572  for {... */\n      jump(tag_304)\n    tag_306:\n        /* \"@redstone-finance/evm-connector/contracts/libs/NumericArrayLib.sol\":1228:1274  {... */\n      pop\n        /* \"@redstone-finance/evm-connector/contracts/libs/NumericArrayLib.sol\":1171:1187  UINT256_VALUE_BS */\n      0x20\n        /* \"@redstone-finance/evm-connector/contracts/libs/NumericArrayLib.sol\":1162:1169  arrIPtr */\n      dup2\n        /* \"@redstone-finance/evm-connector/contracts/libs/NumericArrayLib.sol\":1158:1188  add(arrIPtr, UINT256_VALUE_BS) */\n      add\n        /* \"@redstone-finance/evm-connector/contracts/libs/NumericArrayLib.sol\":1147:1188  arrIPtr := add(arrIPtr, UINT256_VALUE_BS) */\n      swap1\n      pop\n        /* \"@redstone-finance/evm-connector/contracts/libs/NumericArrayLib.sol\":1070:1580  for {... */\n      jump(tag_301)\n    tag_303:\n        /* \"@redstone-finance/evm-connector/contracts/libs/NumericArrayLib.sol\":1074:1116  {... */\n      pop\n        /* \"@redstone-finance/evm-connector/contracts/libs/NumericArrayLib.sol\":905:1586  {... */\n      pop\n      pop\n      pop\n        /* \"@redstone-finance/evm-connector/contracts/libs/NumericArrayLib.sol\":840:1590  function sort(uint256[] memory arr) internal pure {... */\n      pop\n      jump\t// out\n        /* \"@redstone-finance/evm-connector/contracts/core/RedstoneConsumerBase.sol\":7182:11788  function _extractDataPackage(... */\n    tag_294:\n        /* \"@redstone-finance/evm-connector/contracts/core/RedstoneConsumerBase.sol\":7454:7488  uint256 nextCalldataNegativeOffset */\n      0x00\n        /* \"@redstone-finance/evm-connector/contracts/core/RedstoneConsumerBase.sol\":7490:7518  uint256 dataPackageTimestamp */\n      dup1\n        /* \"@redstone-finance/evm-connector/contracts/core/RedstoneConsumerBase.sol\":7526:7545  uint256 signerIndex */\n      0x00\n        /* \"@redstone-finance/evm-connector/contracts/core/RedstoneConsumerBase.sol\":7560:7583  uint256 dataPointsCount */\n      dup1\n        /* \"@redstone-finance/evm-connector/contracts/core/RedstoneConsumerBase.sol\":7591:7625  uint256 eachDataPointValueByteSize */\n      0x00\n        /* \"@redstone-finance/evm-connector/contracts/core/RedstoneConsumerBase.sol\":7634:7697  _extractDataPointsDetailsForDataPackage(calldataNegativeOffset) */\n      tag_309\n        /* \"@redstone-finance/evm-connector/contracts/core/RedstoneConsumerBase.sol\":7674:7696  calldataNegativeOffset */\n      dup7\n        /* \"@redstone-finance/evm-connector/contracts/core/RedstoneConsumerBase.sol\":7634:7673  _extractDataPointsDetailsForDataPackage */\n      tag_227\n        /* \"@redstone-finance/evm-connector/contracts/core/RedstoneConsumerBase.sol\":7634:7697  _extractDataPointsDetailsForDataPackage(calldataNegativeOffset) */\n      jump\t// in\n    tag_309:\n        /* \"@redstone-finance/evm-connector/contracts/core/RedstoneConsumerBase.sol\":7552:7697  (... */\n      swap2\n      pop\n      swap2\n      pop\n        /* \"@redstone-finance/evm-connector/contracts/core/RedstoneConsumerBase.sol\":7772:7793  address signerAddress */\n      0x00\n        /* \"@redstone-finance/evm-connector/contracts/core/RedstoneConsumerBase.sol\":7801:7819  bytes32 signedHash */\n      dup1\n        /* \"@redstone-finance/evm-connector/contracts/core/RedstoneConsumerBase.sol\":7827:7853  bytes memory signedMessage */\n      0x60\n        /* \"@redstone-finance/evm-connector/contracts/core/RedstoneConsumerBase.sol\":7861:7892  uint256 signedMessageBytesCount */\n      0x00\n        /* \"@redstone-finance/evm-connector/contracts/core/RedstoneConsumerBase.sol\":7900:7925  uint48 extractedTimestamp */\n      dup1\n        /* \"@redstone-finance/evm-connector/contracts/core/RedstoneConstants.sol\":2084:2086  13 */\n      0x0d\n        /* \"@redstone-finance/evm-connector/contracts/core/RedstoneConstants.sol\":1300:1302  32 */\n      0x20\n        /* \"@redstone-finance/evm-connector/contracts/core/RedstoneConsumerBase.sol\":7979:8005  eachDataPointValueByteSize */\n      dup8\n        /* \"@redstone-finance/evm-connector/contracts/core/RedstoneConsumerBase.sol\":7979:8028  eachDataPointValueByteSize + DATA_POINT_SYMBOL_BS */\n      tag_310\n      swap2\n      swap1\n      tag_125\n      jump\t// in\n    tag_310:\n        /* \"@redstone-finance/evm-connector/contracts/core/RedstoneConsumerBase.sol\":7960:7975  dataPointsCount */\n      dup9\n        /* \"@redstone-finance/evm-connector/contracts/core/RedstoneConsumerBase.sol\":7960:8029  dataPointsCount * (eachDataPointValueByteSize + DATA_POINT_SYMBOL_BS) */\n      tag_311\n      swap2\n      swap1\n      tag_195\n      jump\t// in\n    tag_311:\n        /* \"@redstone-finance/evm-connector/contracts/core/RedstoneConsumerBase.sol\":7960:8083  dataPointsCount * (eachDataPointValueByteSize + DATA_POINT_SYMBOL_BS)... */\n      tag_312\n      swap2\n      swap1\n      tag_125\n      jump\t// in\n    tag_312:\n        /* \"@redstone-finance/evm-connector/contracts/core/RedstoneConsumerBase.sol\":7934:8083  signedMessageBytesCount = dataPointsCount * (eachDataPointValueByteSize + DATA_POINT_SYMBOL_BS)... */\n      swap2\n      pop\n        /* \"@redstone-finance/evm-connector/contracts/core/RedstoneConsumerBase.sol\":8162:8193  uint256 timestampCalldataOffset */\n      0x00\n        /* \"@redstone-finance/evm-connector/contracts/core/RedstoneConstants.sol\":1771:1774  104 */\n      0x68\n        /* \"@redstone-finance/evm-connector/contracts/core/RedstoneConsumerBase.sol\":8224:8246  calldataNegativeOffset */\n      dup13\n        /* \"@redstone-finance/evm-connector/contracts/core/RedstoneConsumerBase.sol\":8224:8312  calldataNegativeOffset + TIMESTAMP_NEGATIVE_OFFSET_IN_DATA_PACKAGE_WITH_STANDARD_SLOT_BS */\n      tag_313\n      swap2\n      swap1\n      tag_125\n      jump\t// in\n    tag_313:\n        /* \"@redstone-finance/evm-connector/contracts/core/RedstoneConsumerBase.sol\":8196:8204  msg.data */\n      0x00\n      calldatasize\n        /* \"@redstone-finance/evm-connector/contracts/core/RedstoneConsumerBase.sol\":8196:8211  msg.data.length */\n      swap1\n      pop\n        /* \"@redstone-finance/evm-connector/contracts/core/RedstoneConsumerBase.sol\":8196:8313  msg.data.length - ... */\n      tag_314\n      swap2\n      swap1\n      tag_174\n      jump\t// in\n    tag_314:\n        /* \"@redstone-finance/evm-connector/contracts/core/RedstoneConsumerBase.sol\":8162:8313  uint256 timestampCalldataOffset = msg.data.length - ... */\n      swap1\n      pop\n        /* \"@redstone-finance/evm-connector/contracts/core/RedstoneConsumerBase.sol\":8322:8357  uint256 signedMessageCalldataOffset */\n      0x00\n        /* \"@redstone-finance/evm-connector/contracts/core/RedstoneConsumerBase.sol\":8422:8445  signedMessageBytesCount */\n      dup4\n        /* \"@redstone-finance/evm-connector/contracts/core/RedstoneConstants.sol\":1026:1028  65 */\n      0x41\n        /* \"@redstone-finance/evm-connector/contracts/core/RedstoneConsumerBase.sol\":8388:8410  calldataNegativeOffset */\n      dup15\n        /* \"@redstone-finance/evm-connector/contracts/core/RedstoneConsumerBase.sol\":8388:8419  calldataNegativeOffset + SIG_BS */\n      tag_315\n      swap2\n      swap1\n      tag_125\n      jump\t// in\n    tag_315:\n        /* \"@redstone-finance/evm-connector/contracts/core/RedstoneConsumerBase.sol\":8388:8445  calldataNegativeOffset + SIG_BS + signedMessageBytesCount */\n      tag_316\n      swap2\n      swap1\n      tag_125\n      jump\t// in\n    tag_316:\n        /* \"@redstone-finance/evm-connector/contracts/core/RedstoneConsumerBase.sol\":8360:8368  msg.data */\n      0x00\n      calldatasize\n        /* \"@redstone-finance/evm-connector/contracts/core/RedstoneConsumerBase.sol\":8360:8375  msg.data.length */\n      swap1\n      pop\n        /* \"@redstone-finance/evm-connector/contracts/core/RedstoneConsumerBase.sol\":8360:8446  msg.data.length - ... */\n      tag_317\n      swap2\n      swap1\n      tag_174\n      jump\t// in\n    tag_317:\n        /* \"@redstone-finance/evm-connector/contracts/core/RedstoneConsumerBase.sol\":8322:8446  uint256 signedMessageCalldataOffset = msg.data.length - ... */\n      swap1\n      pop\n        /* \"@redstone-finance/evm-connector/contracts/core/RedstoneConsumerBase.sol\":8532:8640  extractBytesFromCalldata(... */\n      tag_318\n        /* \"@redstone-finance/evm-connector/contracts/core/RedstoneConsumerBase.sol\":8607:8630  signedMessageBytesCount */\n      dup5\n        /* \"@redstone-finance/evm-connector/contracts/core/RedstoneConsumerBase.sol\":8568:8595  signedMessageCalldataOffset */\n      dup3\n        /* \"@redstone-finance/evm-connector/contracts/core/RedstoneConsumerBase.sol\":8532:8640  extractBytesFromCalldata(... */\n      tag_319\n      jump\t// in\n    tag_318:\n        /* \"@redstone-finance/evm-connector/contracts/core/RedstoneConsumerBase.sol\":8515:8640  signedMessage := extractBytesFromCalldata(... */\n      swap5\n      pop\n        /* \"@redstone-finance/evm-connector/contracts/core/RedstoneConsumerBase.sol\":8754:8777  signedMessageBytesCount */\n      dup4\n        /* \"@redstone-finance/evm-connector/contracts/core/RedstoneConsumerBase.sol\":8731:8751  BYTES_ARR_LEN_VAR_BS */\n      0x20\n        /* \"@redstone-finance/evm-connector/contracts/core/RedstoneConsumerBase.sol\":8716:8729  signedMessage */\n      dup7\n        /* \"@redstone-finance/evm-connector/contracts/core/RedstoneConsumerBase.sol\":8712:8752  add(signedMessage, BYTES_ARR_LEN_VAR_BS) */\n      add\n        /* \"@redstone-finance/evm-connector/contracts/core/RedstoneConsumerBase.sol\":8702:8778  keccak256(add(signedMessage, BYTES_ARR_LEN_VAR_BS), signedMessageBytesCount) */\n      keccak256\n        /* \"@redstone-finance/evm-connector/contracts/core/RedstoneConsumerBase.sol\":8688:8778  signedHash := keccak256(add(signedMessage, BYTES_ARR_LEN_VAR_BS), signedMessageBytesCount) */\n      swap6\n      pop\n        /* \"@redstone-finance/evm-connector/contracts/core/RedstoneConsumerBase.sol\":8855:8878  timestampCalldataOffset */\n      dup2\n        /* \"@redstone-finance/evm-connector/contracts/core/RedstoneConsumerBase.sol\":8842:8879  calldataload(timestampCalldataOffset) */\n      calldataload\n        /* \"@redstone-finance/evm-connector/contracts/core/RedstoneConsumerBase.sol\":8820:8879  extractedTimestamp := calldataload(timestampCalldataOffset) */\n      swap3\n      pop\n        /* \"@redstone-finance/evm-connector/contracts/core/RedstoneConsumerBase.sol\":8889:9120  function initByteArray(bytesCount) -> ptr {... */\n      jump(tag_320)\n    tag_321:\n        /* \"@redstone-finance/evm-connector/contracts/core/RedstoneConsumerBase.sol\":8927:8930  ptr */\n      0x00\n        /* \"@redstone-finance/evm-connector/contracts/core/RedstoneConsumerBase.sol\":8956:8971  FREE_MEMORY_PTR */\n      0x40\n        /* \"@redstone-finance/evm-connector/contracts/core/RedstoneConsumerBase.sol\":8950:8972  mload(FREE_MEMORY_PTR) */\n      mload\n        /* \"@redstone-finance/evm-connector/contracts/core/RedstoneConsumerBase.sol\":8943:8972  ptr := mload(FREE_MEMORY_PTR) */\n      swap1\n      pop\n        /* \"@redstone-finance/evm-connector/contracts/core/RedstoneConsumerBase.sol\":8995:9005  bytesCount */\n      dup2\n        /* \"@redstone-finance/evm-connector/contracts/core/RedstoneConsumerBase.sol\":8990:8993  ptr */\n      dup2\n        /* \"@redstone-finance/evm-connector/contracts/core/RedstoneConsumerBase.sol\":8983:9006  mstore(ptr, bytesCount) */\n      mstore\n        /* \"@redstone-finance/evm-connector/contracts/core/RedstoneConsumerBase.sol\":9033:9053  BYTES_ARR_LEN_VAR_BS */\n      0x20\n        /* \"@redstone-finance/evm-connector/contracts/core/RedstoneConsumerBase.sol\":9028:9031  ptr */\n      dup2\n        /* \"@redstone-finance/evm-connector/contracts/core/RedstoneConsumerBase.sol\":9024:9054  add(ptr, BYTES_ARR_LEN_VAR_BS) */\n      add\n        /* \"@redstone-finance/evm-connector/contracts/core/RedstoneConsumerBase.sol\":9017:9054  ptr := add(ptr, BYTES_ARR_LEN_VAR_BS) */\n      swap1\n      pop\n        /* \"@redstone-finance/evm-connector/contracts/core/RedstoneConsumerBase.sol\":9098:9108  bytesCount */\n      dup2\n        /* \"@redstone-finance/evm-connector/contracts/core/RedstoneConsumerBase.sol\":9093:9096  ptr */\n      dup2\n        /* \"@redstone-finance/evm-connector/contracts/core/RedstoneConsumerBase.sol\":9089:9109  add(ptr, bytesCount) */\n      add\n        /* \"@redstone-finance/evm-connector/contracts/core/RedstoneConsumerBase.sol\":9072:9087  FREE_MEMORY_PTR */\n      0x40\n        /* \"@redstone-finance/evm-connector/contracts/core/RedstoneConsumerBase.sol\":9065:9110  mstore(FREE_MEMORY_PTR, add(ptr, bytesCount)) */\n      mstore\n        /* \"@redstone-finance/evm-connector/contracts/core/RedstoneConsumerBase.sol\":8889:9120  function initByteArray(bytesCount) -> ptr {... */\n      swap2\n      swap1\n      pop\n      jump\t// out\n        /* \"@redstone-finance/evm-connector/contracts/core/RedstoneConsumerBase.sol\":9130:9472  function extractBytesFromCalldata(offset, bytesCount) -> extractedBytes {... */\n    tag_319:\n        /* \"@redstone-finance/evm-connector/contracts/core/RedstoneConsumerBase.sol\":9187:9201  extractedBytes */\n      0x00\n        /* \"@redstone-finance/evm-connector/contracts/core/RedstoneConsumerBase.sol\":9244:9269  initByteArray(bytesCount) */\n      tag_324\n        /* \"@redstone-finance/evm-connector/contracts/core/RedstoneConsumerBase.sol\":9258:9268  bytesCount */\n      dup4\n        /* \"@redstone-finance/evm-connector/contracts/core/RedstoneConsumerBase.sol\":9244:9269  initByteArray(bytesCount) */\n      tag_321\n      jump\t// in\n    tag_324:\n        /* \"@redstone-finance/evm-connector/contracts/core/RedstoneConsumerBase.sol\":9362:9372  bytesCount */\n      dup4\n        /* \"@redstone-finance/evm-connector/contracts/core/RedstoneConsumerBase.sol\":9342:9348  offset */\n      dup4\n        /* \"@redstone-finance/evm-connector/contracts/core/RedstoneConsumerBase.sol\":9306:9328  extractedBytesStartPtr */\n      dup3\n        /* \"@redstone-finance/evm-connector/contracts/core/RedstoneConsumerBase.sol\":9280:9384  calldatacopy(... */\n      calldatacopy\n        /* \"@redstone-finance/evm-connector/contracts/core/RedstoneConsumerBase.sol\":9441:9461  BYTES_ARR_LEN_VAR_BS */\n      0x20\n        /* \"@redstone-finance/evm-connector/contracts/core/RedstoneConsumerBase.sol\":9417:9439  extractedBytesStartPtr */\n      dup2\n        /* \"@redstone-finance/evm-connector/contracts/core/RedstoneConsumerBase.sol\":9413:9462  sub(extractedBytesStartPtr, BYTES_ARR_LEN_VAR_BS) */\n      sub\n        /* \"@redstone-finance/evm-connector/contracts/core/RedstoneConsumerBase.sol\":9395:9462  extractedBytes := sub(extractedBytesStartPtr, BYTES_ARR_LEN_VAR_BS) */\n      swap2\n      pop\n        /* \"@redstone-finance/evm-connector/contracts/core/RedstoneConsumerBase.sol\":9202:9472  {... */\n      pop\n        /* \"@redstone-finance/evm-connector/contracts/core/RedstoneConsumerBase.sol\":9130:9472  function extractBytesFromCalldata(offset, bytesCount) -> extractedBytes {... */\n      swap3\n      swap2\n      pop\n      pop\n      jump\t// out\n    tag_320:\n        /* \"@redstone-finance/evm-connector/contracts/core/RedstoneConsumerBase.sol\":9511:9529  extractedTimestamp */\n      dup3\n        /* \"@redstone-finance/evm-connector/contracts/core/RedstoneConsumerBase.sol\":9488:9529  dataPackageTimestamp = extractedTimestamp */\n      0xffffffffffff\n      and\n      swap11\n      pop\n        /* \"@redstone-finance/evm-connector/contracts/core/RedstoneConsumerBase.sol\":9626:9728  SignatureLib.recoverSignerAddress(... */\n      tag_325\n        /* \"@redstone-finance/evm-connector/contracts/core/RedstoneConsumerBase.sol\":9669:9679  signedHash */\n      dup7\n        /* \"@redstone-finance/evm-connector/contracts/core/RedstoneConstants.sol\":1026:1028  65 */\n      0x41\n        /* \"@redstone-finance/evm-connector/contracts/core/RedstoneConsumerBase.sol\":9689:9711  calldataNegativeOffset */\n      dup16\n        /* \"@redstone-finance/evm-connector/contracts/core/RedstoneConsumerBase.sol\":9689:9720  calldataNegativeOffset + SIG_BS */\n      tag_326\n      swap2\n      swap1\n      tag_125\n      jump\t// in\n    tag_326:\n        /* \"@redstone-finance/evm-connector/contracts/core/RedstoneConsumerBase.sol\":9626:9659  SignatureLib.recoverSignerAddress */\n      tag_327\n        /* \"@redstone-finance/evm-connector/contracts/core/RedstoneConsumerBase.sol\":9626:9728  SignatureLib.recoverSignerAddress(... */\n      jump\t// in\n    tag_325:\n        /* \"@redstone-finance/evm-connector/contracts/core/RedstoneConsumerBase.sol\":9610:9728  signerAddress = SignatureLib.recoverSignerAddress(... */\n      swap7\n      pop\n        /* \"@redstone-finance/evm-connector/contracts/core/RedstoneConsumerBase.sol\":9750:9789  getAuthorisedSignerIndex(signerAddress) */\n      tag_328\n        /* \"@redstone-finance/evm-connector/contracts/core/RedstoneConsumerBase.sol\":9775:9788  signerAddress */\n      dup8\n        /* \"@redstone-finance/evm-connector/contracts/core/RedstoneConsumerBase.sol\":9750:9774  getAuthorisedSignerIndex */\n      tag_47\n        /* \"@redstone-finance/evm-connector/contracts/core/RedstoneConsumerBase.sol\":9750:9789  getAuthorisedSignerIndex(signerAddress) */\n      jump\t// in\n    tag_328:\n        /* \"@redstone-finance/evm-connector/contracts/core/RedstoneConsumerBase.sol\":9736:9789  signerIndex = getAuthorisedSignerIndex(signerAddress) */\n      0xff\n      and\n      swap10\n      pop\n        /* \"@redstone-finance/evm-connector/contracts/core/RedstoneConsumerBase.sol\":7764:9796  {... */\n      pop\n      pop\n      pop\n      pop\n      pop\n      pop\n      pop\n        /* \"@redstone-finance/evm-connector/contracts/core/RedstoneConstants.sol\":1926:1928  78 */\n      0x4e\n        /* \"@redstone-finance/evm-connector/contracts/core/RedstoneConsumerBase.sol\":9866:9888  calldataNegativeOffset */\n      dup7\n        /* \"@redstone-finance/evm-connector/contracts/core/RedstoneConsumerBase.sol\":9866:9926  calldataNegativeOffset + DATA_PACKAGE_WITHOUT_DATA_POINTS_BS */\n      tag_329\n      swap2\n      swap1\n      tag_125\n      jump\t// in\n    tag_329:\n        /* \"@redstone-finance/evm-connector/contracts/core/RedstoneConsumerBase.sol\":9841:9926  calldataNegativeOffset = calldataNegativeOffset + DATA_PACKAGE_WITHOUT_DATA_POINTS_BS */\n      swap6\n      pop\n        /* \"@redstone-finance/evm-connector/contracts/core/RedstoneConsumerBase.sol\":9934:9961  bytes32 dataPointDataFeedId */\n      0x00\n        /* \"@redstone-finance/evm-connector/contracts/core/RedstoneConsumerBase.sol\":9969:9991  uint256 dataPointValue */\n      dup1\n        /* \"@redstone-finance/evm-connector/contracts/core/RedstoneConsumerBase.sol\":10004:10026  uint256 dataPointIndex */\n      0x00\n        /* \"@redstone-finance/evm-connector/contracts/core/RedstoneConsumerBase.sol\":9999:11718  for (uint256 dataPointIndex = 0; dataPointIndex < dataPointsCount;) {... */\n    tag_330:\n        /* \"@redstone-finance/evm-connector/contracts/core/RedstoneConsumerBase.sol\":10049:10064  dataPointsCount */\n      dup5\n        /* \"@redstone-finance/evm-connector/contracts/core/RedstoneConsumerBase.sol\":10032:10046  dataPointIndex */\n      dup2\n        /* \"@redstone-finance/evm-connector/contracts/core/RedstoneConsumerBase.sol\":10032:10064  dataPointIndex < dataPointsCount */\n      lt\n        /* \"@redstone-finance/evm-connector/contracts/core/RedstoneConsumerBase.sol\":9999:11718  for (uint256 dataPointIndex = 0; dataPointIndex < dataPointsCount;) {... */\n      iszero\n      tag_331\n      jumpi\n        /* \"@redstone-finance/evm-connector/contracts/core/RedstoneConstants.sol\":1300:1302  32 */\n      0x20\n        /* \"@redstone-finance/evm-connector/contracts/core/RedstoneConsumerBase.sol\":10127:10153  eachDataPointValueByteSize */\n      dup5\n        /* \"@redstone-finance/evm-connector/contracts/core/RedstoneConsumerBase.sol\":10102:10124  calldataNegativeOffset */\n      dup11\n        /* \"@redstone-finance/evm-connector/contracts/core/RedstoneConsumerBase.sol\":10102:10153  calldataNegativeOffset + eachDataPointValueByteSize */\n      tag_333\n      swap2\n      swap1\n      tag_125\n      jump\t// in\n    tag_333:\n        /* \"@redstone-finance/evm-connector/contracts/core/RedstoneConsumerBase.sol\":10102:10176  calldataNegativeOffset + eachDataPointValueByteSize + DATA_POINT_SYMBOL_BS */\n      tag_334\n      swap2\n      swap1\n      tag_125\n      jump\t// in\n    tag_334:\n        /* \"@redstone-finance/evm-connector/contracts/core/RedstoneConsumerBase.sol\":10077:10176  calldataNegativeOffset = calldataNegativeOffset + eachDataPointValueByteSize + DATA_POINT_SYMBOL_BS */\n      swap9\n      pop\n        /* \"@redstone-finance/evm-connector/contracts/core/RedstoneConsumerBase.sol\":10298:10415  _extractDataPointValueAndDataFeedId(... */\n      tag_335\n        /* \"@redstone-finance/evm-connector/contracts/core/RedstoneConsumerBase.sol\":10345:10367  calldataNegativeOffset */\n      dup10\n        /* \"@redstone-finance/evm-connector/contracts/core/RedstoneConsumerBase.sol\":10379:10405  eachDataPointValueByteSize */\n      dup6\n        /* \"@redstone-finance/evm-connector/contracts/core/RedstoneConsumerBase.sol\":10298:10333  _extractDataPointValueAndDataFeedId */\n      tag_336\n        /* \"@redstone-finance/evm-connector/contracts/core/RedstoneConsumerBase.sol\":10298:10415  _extractDataPointValueAndDataFeedId(... */\n      jump\t// in\n    tag_335:\n        /* \"@redstone-finance/evm-connector/contracts/core/RedstoneConsumerBase.sol\":10258:10415  (dataPointDataFeedId, dataPointValue) = _extractDataPointValueAndDataFeedId(... */\n      dup1\n      swap4\n      pop\n      dup2\n      swap5\n      pop\n      pop\n      pop\n        /* \"@redstone-finance/evm-connector/contracts/core/RedstoneConsumerBase.sol\":10442:10465  uint256 dataFeedIdIndex */\n      0x00\n        /* \"@redstone-finance/evm-connector/contracts/core/RedstoneConsumerBase.sol\":10426:11651  for (... */\n    tag_337:\n        /* \"@redstone-finance/evm-connector/contracts/core/RedstoneConsumerBase.sol\":10499:10510  dataFeedIds */\n      dup14\n        /* \"@redstone-finance/evm-connector/contracts/core/RedstoneConsumerBase.sol\":10499:10517  dataFeedIds.length */\n      mload\n        /* \"@redstone-finance/evm-connector/contracts/core/RedstoneConsumerBase.sol\":10481:10496  dataFeedIdIndex */\n      dup2\n        /* \"@redstone-finance/evm-connector/contracts/core/RedstoneConsumerBase.sol\":10481:10517  dataFeedIdIndex < dataFeedIds.length */\n      lt\n        /* \"@redstone-finance/evm-connector/contracts/core/RedstoneConsumerBase.sol\":10426:11651  for (... */\n      iszero\n      tag_338\n      jumpi\n        /* \"@redstone-finance/evm-connector/contracts/core/RedstoneConsumerBase.sol\":10568:10579  dataFeedIds */\n      dup14\n        /* \"@redstone-finance/evm-connector/contracts/core/RedstoneConsumerBase.sol\":10580:10595  dataFeedIdIndex */\n      dup2\n        /* \"@redstone-finance/evm-connector/contracts/core/RedstoneConsumerBase.sol\":10568:10596  dataFeedIds[dataFeedIdIndex] */\n      dup2\n      mload\n      dup2\n      lt\n      tag_340\n      jumpi\n      tag_341\n      tag_209\n      jump\t// in\n    tag_341:\n    tag_340:\n      0x20\n      mul\n      0x20\n      add\n      add\n      mload\n        /* \"@redstone-finance/evm-connector/contracts/core/RedstoneConsumerBase.sol\":10545:10564  dataPointDataFeedId */\n      dup5\n        /* \"@redstone-finance/evm-connector/contracts/core/RedstoneConsumerBase.sol\":10545:10596  dataPointDataFeedId == dataFeedIds[dataFeedIdIndex] */\n      eq\n        /* \"@redstone-finance/evm-connector/contracts/core/RedstoneConsumerBase.sol\":10541:11576  if (dataPointDataFeedId == dataFeedIds[dataFeedIdIndex]) {... */\n      iszero\n      tag_342\n      jumpi\n        /* \"@redstone-finance/evm-connector/contracts/core/RedstoneConsumerBase.sol\":10612:10646  uint256 bitmapSignersForDataFeedId */\n      0x00\n        /* \"@redstone-finance/evm-connector/contracts/core/RedstoneConsumerBase.sol\":10649:10676  signersBitmapForDataFeedIds */\n      dup13\n        /* \"@redstone-finance/evm-connector/contracts/core/RedstoneConsumerBase.sol\":10677:10692  dataFeedIdIndex */\n      dup3\n        /* \"@redstone-finance/evm-connector/contracts/core/RedstoneConsumerBase.sol\":10649:10693  signersBitmapForDataFeedIds[dataFeedIdIndex] */\n      dup2\n      mload\n      dup2\n      lt\n      tag_343\n      jumpi\n      tag_344\n      tag_209\n      jump\t// in\n    tag_344:\n    tag_343:\n      0x20\n      mul\n      0x20\n      add\n      add\n      mload\n        /* \"@redstone-finance/evm-connector/contracts/core/RedstoneConsumerBase.sol\":10612:10693  uint256 bitmapSignersForDataFeedId = signersBitmapForDataFeedIds[dataFeedIdIndex] */\n      swap1\n      pop\n        /* \"@redstone-finance/evm-connector/contracts/core/RedstoneConsumerBase.sol\":10728:10795  BitmapLib.getBitFromBitmap(bitmapSignersForDataFeedId, signerIndex) */\n      tag_345\n        /* \"@redstone-finance/evm-connector/contracts/core/RedstoneConsumerBase.sol\":10755:10781  bitmapSignersForDataFeedId */\n      dup2\n        /* \"@redstone-finance/evm-connector/contracts/core/RedstoneConsumerBase.sol\":10783:10794  signerIndex */\n      dup10\n        /* \"@redstone-finance/evm-connector/contracts/core/RedstoneConsumerBase.sol\":10728:10754  BitmapLib.getBitFromBitmap */\n      tag_346\n        /* \"@redstone-finance/evm-connector/contracts/core/RedstoneConsumerBase.sol\":10728:10795  BitmapLib.getBitFromBitmap(bitmapSignersForDataFeedId, signerIndex) */\n      jump\t// in\n    tag_345:\n        /* \"@redstone-finance/evm-connector/contracts/core/RedstoneConsumerBase.sol\":10727:10795  !BitmapLib.getBitFromBitmap(bitmapSignersForDataFeedId, signerIndex) */\n      iszero\n        /* \"@redstone-finance/evm-connector/contracts/core/RedstoneConsumerBase.sol\":10727:10951  !BitmapLib.getBitFromBitmap(bitmapSignersForDataFeedId, signerIndex) && /* current signer was not counted for current dataFeedId */... */\n      dup1\n      iszero\n      tag_347\n      jumpi\n      pop\n        /* \"@redstone-finance/evm-connector/contracts/core/RedstoneConsumerBase.sol\":10924:10951  getUniqueSignersThreshold() */\n      tag_348\n        /* \"@redstone-finance/evm-connector/contracts/core/RedstoneConsumerBase.sol\":10924:10949  getUniqueSignersThreshold */\n      tag_111\n        /* \"@redstone-finance/evm-connector/contracts/core/RedstoneConsumerBase.sol\":10924:10951  getUniqueSignersThreshold() */\n      jump\t// in\n    tag_348:\n        /* \"@redstone-finance/evm-connector/contracts/core/RedstoneConsumerBase.sol\":10873:10951  uniqueSignerCountForDataFeedIds[dataFeedIdIndex] < getUniqueSignersThreshold() */\n      0xff\n      and\n        /* \"@redstone-finance/evm-connector/contracts/core/RedstoneConsumerBase.sol\":10873:10904  uniqueSignerCountForDataFeedIds */\n      dup15\n        /* \"@redstone-finance/evm-connector/contracts/core/RedstoneConsumerBase.sol\":10905:10920  dataFeedIdIndex */\n      dup4\n        /* \"@redstone-finance/evm-connector/contracts/core/RedstoneConsumerBase.sol\":10873:10921  uniqueSignerCountForDataFeedIds[dataFeedIdIndex] */\n      dup2\n      mload\n      dup2\n      lt\n      tag_349\n      jumpi\n      tag_350\n      tag_209\n      jump\t// in\n    tag_350:\n    tag_349:\n      0x20\n      mul\n      0x20\n      add\n      add\n      mload\n        /* \"@redstone-finance/evm-connector/contracts/core/RedstoneConsumerBase.sol\":10873:10951  uniqueSignerCountForDataFeedIds[dataFeedIdIndex] < getUniqueSignersThreshold() */\n      lt\n        /* \"@redstone-finance/evm-connector/contracts/core/RedstoneConsumerBase.sol\":10727:10951  !BitmapLib.getBitFromBitmap(bitmapSignersForDataFeedId, signerIndex) && /* current signer was not counted for current dataFeedId */... */\n    tag_347:\n        /* \"@redstone-finance/evm-connector/contracts/core/RedstoneConsumerBase.sol\":10708:11461  if (... */\n      iszero\n      tag_351\n      jumpi\n        /* \"@redstone-finance/evm-connector/contracts/core/RedstoneConsumerBase.sol\":11101:11115  dataPointValue */\n      dup4\n        /* \"@redstone-finance/evm-connector/contracts/core/RedstoneConsumerBase.sol\":11013:11031  valuesForDataFeeds */\n      dup13\n        /* \"@redstone-finance/evm-connector/contracts/core/RedstoneConsumerBase.sol\":11032:11047  dataFeedIdIndex */\n      dup4\n        /* \"@redstone-finance/evm-connector/contracts/core/RedstoneConsumerBase.sol\":11013:11048  valuesForDataFeeds[dataFeedIdIndex] */\n      dup2\n      mload\n      dup2\n      lt\n      tag_352\n      jumpi\n      tag_353\n      tag_209\n      jump\t// in\n    tag_353:\n    tag_352:\n      0x20\n      mul\n      0x20\n      add\n      add\n      mload\n        /* \"@redstone-finance/evm-connector/contracts/core/RedstoneConsumerBase.sol\":11049:11080  uniqueSignerCountForDataFeedIds */\n      dup16\n        /* \"@redstone-finance/evm-connector/contracts/core/RedstoneConsumerBase.sol\":11081:11096  dataFeedIdIndex */\n      dup5\n        /* \"@redstone-finance/evm-connector/contracts/core/RedstoneConsumerBase.sol\":11049:11097  uniqueSignerCountForDataFeedIds[dataFeedIdIndex] */\n      dup2\n      mload\n      dup2\n      lt\n      tag_354\n      jumpi\n      tag_355\n      tag_209\n      jump\t// in\n    tag_355:\n    tag_354:\n      0x20\n      mul\n      0x20\n      add\n      add\n      mload\n        /* \"@redstone-finance/evm-connector/contracts/core/RedstoneConsumerBase.sol\":11013:11098  valuesForDataFeeds[dataFeedIdIndex][uniqueSignerCountForDataFeedIds[dataFeedIdIndex]] */\n      dup2\n      mload\n      dup2\n      lt\n      tag_356\n      jumpi\n      tag_357\n      tag_209\n      jump\t// in\n    tag_357:\n    tag_356:\n      0x20\n      mul\n      0x20\n      add\n      add\n        /* \"@redstone-finance/evm-connector/contracts/core/RedstoneConsumerBase.sol\":11013:11115  valuesForDataFeeds[dataFeedIdIndex][uniqueSignerCountForDataFeedIds[dataFeedIdIndex]] = dataPointValue */\n      dup2\n      dup2\n      mstore\n      pop\n      pop\n        /* \"@redstone-finance/evm-connector/contracts/core/RedstoneConsumerBase.sol\":11180:11211  uniqueSignerCountForDataFeedIds */\n      dup14\n        /* \"@redstone-finance/evm-connector/contracts/core/RedstoneConsumerBase.sol\":11212:11227  dataFeedIdIndex */\n      dup3\n        /* \"@redstone-finance/evm-connector/contracts/core/RedstoneConsumerBase.sol\":11180:11228  uniqueSignerCountForDataFeedIds[dataFeedIdIndex] */\n      dup2\n      mload\n      dup2\n      lt\n      tag_358\n      jumpi\n      tag_359\n      tag_209\n      jump\t// in\n    tag_359:\n    tag_358:\n      0x20\n      mul\n      0x20\n      add\n      add\n        /* \"@redstone-finance/evm-connector/contracts/core/RedstoneConsumerBase.sol\":11180:11230  uniqueSignerCountForDataFeedIds[dataFeedIdIndex]++ */\n      dup1\n      mload\n      dup1\n      swap2\n      swap1\n      tag_360\n      swap1\n      tag_181\n      jump\t// in\n    tag_360:\n      dup2\n      mstore\n      pop\n      pop\n        /* \"@redstone-finance/evm-connector/contracts/core/RedstoneConsumerBase.sol\":11333:11446  BitmapLib.setBitInBitmap(... */\n      tag_361\n        /* \"@redstone-finance/evm-connector/contracts/core/RedstoneConsumerBase.sol\":11375:11401  bitmapSignersForDataFeedId */\n      dup2\n        /* \"@redstone-finance/evm-connector/contracts/core/RedstoneConsumerBase.sol\":11419:11430  signerIndex */\n      dup10\n        /* \"@redstone-finance/evm-connector/contracts/core/RedstoneConsumerBase.sol\":11333:11357  BitmapLib.setBitInBitmap */\n      tag_362\n        /* \"@redstone-finance/evm-connector/contracts/core/RedstoneConsumerBase.sol\":11333:11446  BitmapLib.setBitInBitmap(... */\n      jump\t// in\n    tag_361:\n        /* \"@redstone-finance/evm-connector/contracts/core/RedstoneConsumerBase.sol\":11286:11313  signersBitmapForDataFeedIds */\n      dup14\n        /* \"@redstone-finance/evm-connector/contracts/core/RedstoneConsumerBase.sol\":11314:11329  dataFeedIdIndex */\n      dup4\n        /* \"@redstone-finance/evm-connector/contracts/core/RedstoneConsumerBase.sol\":11286:11330  signersBitmapForDataFeedIds[dataFeedIdIndex] */\n      dup2\n      mload\n      dup2\n      lt\n      tag_363\n      jumpi\n      tag_364\n      tag_209\n      jump\t// in\n    tag_364:\n    tag_363:\n      0x20\n      mul\n      0x20\n      add\n      add\n        /* \"@redstone-finance/evm-connector/contracts/core/RedstoneConsumerBase.sol\":11286:11446  signersBitmapForDataFeedIds[dataFeedIdIndex] = BitmapLib.setBitInBitmap(... */\n      dup2\n      dup2\n      mstore\n      pop\n      pop\n        /* \"@redstone-finance/evm-connector/contracts/core/RedstoneConsumerBase.sol\":10708:11461  if (... */\n    tag_351:\n        /* \"@redstone-finance/evm-connector/contracts/core/RedstoneConsumerBase.sol\":11558:11563  break */\n      pop\n      jump(tag_338)\n        /* \"@redstone-finance/evm-connector/contracts/core/RedstoneConsumerBase.sol\":10541:11576  if (dataPointDataFeedId == dataFeedIds[dataFeedIdIndex]) {... */\n    tag_342:\n        /* \"@redstone-finance/evm-connector/contracts/core/RedstoneConsumerBase.sol\":11611:11628  dataFeedIdIndex++ */\n      dup1\n      dup1\n      0x01\n      add\n      swap2\n      pop\n      pop\n        /* \"@redstone-finance/evm-connector/contracts/core/RedstoneConsumerBase.sol\":10426:11651  for (... */\n      jump(tag_337)\n    tag_338:\n      pop\n        /* \"@redstone-finance/evm-connector/contracts/core/RedstoneConsumerBase.sol\":11683:11699  dataPointIndex++ */\n      dup1\n      dup1\n      0x01\n      add\n      swap2\n      pop\n      pop\n        /* \"@redstone-finance/evm-connector/contracts/core/RedstoneConsumerBase.sol\":9999:11718  for (uint256 dataPointIndex = 0; dataPointIndex < dataPointsCount;) {... */\n      jump(tag_330)\n    tag_331:\n      pop\n        /* \"@redstone-finance/evm-connector/contracts/core/RedstoneConsumerBase.sol\":9833:11724  {... */\n      pop\n      pop\n        /* \"@redstone-finance/evm-connector/contracts/core/RedstoneConsumerBase.sol\":11738:11760  calldataNegativeOffset */\n      dup6\n        /* \"@redstone-finance/evm-connector/contracts/core/RedstoneConsumerBase.sol\":11730:11783  return (calldataNegativeOffset, dataPackageTimestamp) */\n      swap5\n      pop\n      pop\n      pop\n      pop\n        /* \"@redstone-finance/evm-connector/contracts/core/RedstoneConsumerBase.sol\":7182:11788  function _extractDataPackage(... */\n      swap6\n      pop\n      swap6\n      swap4\n      pop\n      pop\n      pop\n      pop\n      jump\t// out\n        /* \"@redstone-finance/evm-connector/contracts/core/RedstoneConsumerBase.sol\":12257:13119  function _getAggregatedValues(... */\n    tag_299:\n        /* \"@redstone-finance/evm-connector/contracts/core/RedstoneConsumerBase.sol\":12410:12426  uint256[] memory */\n      0x60\n        /* \"@redstone-finance/evm-connector/contracts/core/RedstoneConsumerBase.sol\":12434:12467  uint256[] memory aggregatedValues */\n      0x00\n        /* \"@redstone-finance/evm-connector/contracts/core/RedstoneConsumerBase.sol\":12484:12502  valuesForDataFeeds */\n      dup4\n        /* \"@redstone-finance/evm-connector/contracts/core/RedstoneConsumerBase.sol\":12484:12509  valuesForDataFeeds.length */\n      mload\n        /* \"@redstone-finance/evm-connector/contracts/core/RedstoneConsumerBase.sol\":12470:12510  new uint256[](valuesForDataFeeds.length) */\n      0xffffffffffffffff\n      dup2\n      gt\n      iszero\n      tag_366\n      jumpi\n      tag_367\n      tag_205\n      jump\t// in\n    tag_367:\n    tag_366:\n      mload(0x40)\n      swap1\n      dup1\n      dup3\n      mstore\n      dup1\n      0x20\n      mul\n      0x20\n      add\n      dup3\n      add\n      0x40\n      mstore\n      dup1\n      iszero\n      tag_368\n      jumpi\n      dup2\n      0x20\n      add\n      0x20\n      dup3\n      mul\n      dup1\n      calldatasize\n      dup4\n      calldatacopy\n      dup1\n      dup3\n      add\n      swap2\n      pop\n      pop\n      swap1\n      pop\n    tag_368:\n      pop\n        /* \"@redstone-finance/evm-connector/contracts/core/RedstoneConsumerBase.sol\":12434:12510  uint256[] memory aggregatedValues = new uint256[](valuesForDataFeeds.length) */\n      swap1\n      pop\n        /* \"@redstone-finance/evm-connector/contracts/core/RedstoneConsumerBase.sol\":12516:12546  uint256 uniqueSignersThreshold */\n      0x00\n        /* \"@redstone-finance/evm-connector/contracts/core/RedstoneConsumerBase.sol\":12549:12576  getUniqueSignersThreshold() */\n      tag_369\n        /* \"@redstone-finance/evm-connector/contracts/core/RedstoneConsumerBase.sol\":12549:12574  getUniqueSignersThreshold */\n      tag_111\n        /* \"@redstone-finance/evm-connector/contracts/core/RedstoneConsumerBase.sol\":12549:12576  getUniqueSignersThreshold() */\n      jump\t// in\n    tag_369:\n        /* \"@redstone-finance/evm-connector/contracts/core/RedstoneConsumerBase.sol\":12516:12576  uint256 uniqueSignersThreshold = getUniqueSignersThreshold() */\n      0xff\n      and\n      swap1\n      pop\n        /* \"@redstone-finance/evm-connector/contracts/core/RedstoneConsumerBase.sol\":12588:12609  uint256 dataFeedIndex */\n      0x00\n        /* \"@redstone-finance/evm-connector/contracts/core/RedstoneConsumerBase.sol\":12583:13085  for (uint256 dataFeedIndex = 0; dataFeedIndex < valuesForDataFeeds.length; dataFeedIndex++) {... */\n    tag_370:\n        /* \"@redstone-finance/evm-connector/contracts/core/RedstoneConsumerBase.sol\":12631:12649  valuesForDataFeeds */\n      dup6\n        /* \"@redstone-finance/evm-connector/contracts/core/RedstoneConsumerBase.sol\":12631:12656  valuesForDataFeeds.length */\n      mload\n        /* \"@redstone-finance/evm-connector/contracts/core/RedstoneConsumerBase.sol\":12615:12628  dataFeedIndex */\n      dup2\n        /* \"@redstone-finance/evm-connector/contracts/core/RedstoneConsumerBase.sol\":12615:12656  dataFeedIndex < valuesForDataFeeds.length */\n      lt\n        /* \"@redstone-finance/evm-connector/contracts/core/RedstoneConsumerBase.sol\":12583:13085  for (uint256 dataFeedIndex = 0; dataFeedIndex < valuesForDataFeeds.length; dataFeedIndex++) {... */\n      iszero\n      tag_371\n      jumpi\n        /* \"@redstone-finance/evm-connector/contracts/core/RedstoneConsumerBase.sol\":12736:12758  uniqueSignersThreshold */\n      dup2\n        /* \"@redstone-finance/evm-connector/contracts/core/RedstoneConsumerBase.sol\":12687:12718  uniqueSignerCountForDataFeedIds */\n      dup6\n        /* \"@redstone-finance/evm-connector/contracts/core/RedstoneConsumerBase.sol\":12719:12732  dataFeedIndex */\n      dup3\n        /* \"@redstone-finance/evm-connector/contracts/core/RedstoneConsumerBase.sol\":12687:12733  uniqueSignerCountForDataFeedIds[dataFeedIndex] */\n      dup2\n      mload\n      dup2\n      lt\n      tag_373\n      jumpi\n      tag_374\n      tag_209\n      jump\t// in\n    tag_374:\n    tag_373:\n      0x20\n      mul\n      0x20\n      add\n      add\n      mload\n        /* \"@redstone-finance/evm-connector/contracts/core/RedstoneConsumerBase.sol\":12687:12758  uniqueSignerCountForDataFeedIds[dataFeedIndex] < uniqueSignersThreshold */\n      lt\n        /* \"@redstone-finance/evm-connector/contracts/core/RedstoneConsumerBase.sol\":12683:12912  if (uniqueSignerCountForDataFeedIds[dataFeedIndex] < uniqueSignersThreshold) {... */\n      iszero\n      tag_375\n      jumpi\n        /* \"@redstone-finance/evm-connector/contracts/core/RedstoneConsumerBase.sol\":12822:12853  uniqueSignerCountForDataFeedIds */\n      dup5\n        /* \"@redstone-finance/evm-connector/contracts/core/RedstoneConsumerBase.sol\":12854:12867  dataFeedIndex */\n      dup2\n        /* \"@redstone-finance/evm-connector/contracts/core/RedstoneConsumerBase.sol\":12822:12868  uniqueSignerCountForDataFeedIds[dataFeedIndex] */\n      dup2\n      mload\n      dup2\n      lt\n      tag_376\n      jumpi\n      tag_377\n      tag_209\n      jump\t// in\n    tag_377:\n    tag_376:\n      0x20\n      mul\n      0x20\n      add\n      add\n      mload\n        /* \"@redstone-finance/evm-connector/contracts/core/RedstoneConsumerBase.sol\":12880:12902  uniqueSignersThreshold */\n      dup3\n        /* \"@redstone-finance/evm-connector/contracts/core/RedstoneConsumerBase.sol\":12777:12903  InsufficientNumberOfUniqueSigners(... */\n      mload(0x40)\n      0x2b13aef500000000000000000000000000000000000000000000000000000000\n      dup2\n      mstore\n      0x04\n      add\n      tag_378\n      swap3\n      swap2\n      swap1\n      tag_379\n      jump\t// in\n    tag_378:\n      mload(0x40)\n      dup1\n      swap2\n      sub\n      swap1\n      revert\n        /* \"@redstone-finance/evm-connector/contracts/core/RedstoneConsumerBase.sol\":12683:12912  if (uniqueSignerCountForDataFeedIds[dataFeedIndex] < uniqueSignersThreshold) {... */\n    tag_375:\n        /* \"@redstone-finance/evm-connector/contracts/core/RedstoneConsumerBase.sol\":12919:12955  uint256 aggregatedValueForDataFeedId */\n      0x00\n        /* \"@redstone-finance/evm-connector/contracts/core/RedstoneConsumerBase.sol\":12958:13008  aggregateValues(valuesForDataFeeds[dataFeedIndex]) */\n      tag_380\n        /* \"@redstone-finance/evm-connector/contracts/core/RedstoneConsumerBase.sol\":12974:12992  valuesForDataFeeds */\n      dup8\n        /* \"@redstone-finance/evm-connector/contracts/core/RedstoneConsumerBase.sol\":12993:13006  dataFeedIndex */\n      dup4\n        /* \"@redstone-finance/evm-connector/contracts/core/RedstoneConsumerBase.sol\":12974:13007  valuesForDataFeeds[dataFeedIndex] */\n      dup2\n      mload\n      dup2\n      lt\n      tag_381\n      jumpi\n      tag_382\n      tag_209\n      jump\t// in\n    tag_382:\n    tag_381:\n      0x20\n      mul\n      0x20\n      add\n      add\n      mload\n        /* \"@redstone-finance/evm-connector/contracts/core/RedstoneConsumerBase.sol\":12958:12973  aggregateValues */\n      tag_82\n        /* \"@redstone-finance/evm-connector/contracts/core/RedstoneConsumerBase.sol\":12958:13008  aggregateValues(valuesForDataFeeds[dataFeedIndex]) */\n      jump\t// in\n    tag_380:\n        /* \"@redstone-finance/evm-connector/contracts/core/RedstoneConsumerBase.sol\":12919:13008  uint256 aggregatedValueForDataFeedId = aggregateValues(valuesForDataFeeds[dataFeedIndex]) */\n      swap1\n      pop\n        /* \"@redstone-finance/evm-connector/contracts/core/RedstoneConsumerBase.sol\":13050:13078  aggregatedValueForDataFeedId */\n      dup1\n        /* \"@redstone-finance/evm-connector/contracts/core/RedstoneConsumerBase.sol\":13016:13032  aggregatedValues */\n      dup5\n        /* \"@redstone-finance/evm-connector/contracts/core/RedstoneConsumerBase.sol\":13033:13046  dataFeedIndex */\n      dup4\n        /* \"@redstone-finance/evm-connector/contracts/core/RedstoneConsumerBase.sol\":13016:13047  aggregatedValues[dataFeedIndex] */\n      dup2\n      mload\n      dup2\n      lt\n      tag_383\n      jumpi\n      tag_384\n      tag_209\n      jump\t// in\n    tag_384:\n    tag_383:\n      0x20\n      mul\n      0x20\n      add\n      add\n        /* \"@redstone-finance/evm-connector/contracts/core/RedstoneConsumerBase.sol\":13016:13078  aggregatedValues[dataFeedIndex] = aggregatedValueForDataFeedId */\n      dup2\n      dup2\n      mstore\n      pop\n      pop\n        /* \"@redstone-finance/evm-connector/contracts/core/RedstoneConsumerBase.sol\":12675:13085  {... */\n      pop\n        /* \"@redstone-finance/evm-connector/contracts/core/RedstoneConsumerBase.sol\":12658:12673  dataFeedIndex++ */\n      dup1\n      dup1\n      tag_385\n      swap1\n      tag_181\n      jump\t// in\n    tag_385:\n      swap2\n      pop\n      pop\n        /* \"@redstone-finance/evm-connector/contracts/core/RedstoneConsumerBase.sol\":12583:13085  for (uint256 dataFeedIndex = 0; dataFeedIndex < valuesForDataFeeds.length; dataFeedIndex++) {... */\n      jump(tag_370)\n    tag_371:\n      pop\n        /* \"@redstone-finance/evm-connector/contracts/core/RedstoneConsumerBase.sol\":13098:13114  aggregatedValues */\n      dup2\n        /* \"@redstone-finance/evm-connector/contracts/core/RedstoneConsumerBase.sol\":13091:13114  return aggregatedValues */\n      swap3\n      pop\n      pop\n      pop\n        /* \"@redstone-finance/evm-connector/contracts/core/RedstoneConsumerBase.sol\":12257:13119  function _getAggregatedValues(... */\n      swap3\n      swap2\n      pop\n      pop\n      jump\t// out\n        /* \"@redstone-finance/evm-connector/contracts/libs/SignatureLib.sol\":164:874  function recoverSignerAddress(bytes32 signedHash, uint256 signatureCalldataNegativeOffset)... */\n    tag_327:\n        /* \"@redstone-finance/evm-connector/contracts/libs/SignatureLib.sol\":290:297  address */\n      0x00\n        /* \"@redstone-finance/evm-connector/contracts/libs/SignatureLib.sol\":307:316  bytes32 r */\n      dup1\n        /* \"@redstone-finance/evm-connector/contracts/libs/SignatureLib.sol\":322:331  bytes32 s */\n      0x00\n        /* \"@redstone-finance/evm-connector/contracts/libs/SignatureLib.sol\":337:344  uint8 v */\n      dup1\n        /* \"@redstone-finance/evm-connector/contracts/libs/SignatureLib.sol\":420:451  signatureCalldataNegativeOffset */\n      dup5\n        /* \"@redstone-finance/evm-connector/contracts/libs/SignatureLib.sol\":404:418  calldatasize() */\n      calldatasize\n        /* \"@redstone-finance/evm-connector/contracts/libs/SignatureLib.sol\":400:452  sub(calldatasize(), signatureCalldataNegativeOffset) */\n      sub\n        /* \"@redstone-finance/evm-connector/contracts/libs/SignatureLib.sol\":477:502  signatureCalldataStartPos */\n      dup1\n        /* \"@redstone-finance/evm-connector/contracts/libs/SignatureLib.sol\":464:503  calldataload(signatureCalldataStartPos) */\n      calldataload\n        /* \"@redstone-finance/evm-connector/contracts/libs/SignatureLib.sol\":459:503  r := calldataload(signatureCalldataStartPos) */\n      swap4\n      pop\n        /* \"@redstone-finance/evm-connector/contracts/libs/SignatureLib.sol\":570:584  ECDSA_SIG_R_BS */\n      0x20\n        /* \"@redstone-finance/evm-connector/contracts/libs/SignatureLib.sol\":543:568  signatureCalldataStartPos */\n      dup2\n        /* \"@redstone-finance/evm-connector/contracts/libs/SignatureLib.sol\":539:585  add(signatureCalldataStartPos, ECDSA_SIG_R_BS) */\n      add\n        /* \"@redstone-finance/evm-connector/contracts/libs/SignatureLib.sol\":510:585  signatureCalldataStartPos := add(signatureCalldataStartPos, ECDSA_SIG_R_BS) */\n      swap1\n      pop\n        /* \"@redstone-finance/evm-connector/contracts/libs/SignatureLib.sol\":610:635  signatureCalldataStartPos */\n      dup1\n        /* \"@redstone-finance/evm-connector/contracts/libs/SignatureLib.sol\":597:636  calldataload(signatureCalldataStartPos) */\n      calldataload\n        /* \"@redstone-finance/evm-connector/contracts/libs/SignatureLib.sol\":592:636  s := calldataload(signatureCalldataStartPos) */\n      swap3\n      pop\n        /* \"@redstone-finance/evm-connector/contracts/libs/SignatureLib.sol\":703:717  ECDSA_SIG_S_BS */\n      0x20\n        /* \"@redstone-finance/evm-connector/contracts/libs/SignatureLib.sol\":676:701  signatureCalldataStartPos */\n      dup2\n        /* \"@redstone-finance/evm-connector/contracts/libs/SignatureLib.sol\":672:718  add(signatureCalldataStartPos, ECDSA_SIG_S_BS) */\n      add\n        /* \"@redstone-finance/evm-connector/contracts/libs/SignatureLib.sol\":643:718  signatureCalldataStartPos := add(signatureCalldataStartPos, ECDSA_SIG_S_BS) */\n      swap1\n      pop\n        /* \"@redstone-finance/evm-connector/contracts/libs/SignatureLib.sol\":751:776  signatureCalldataStartPos */\n      dup1\n        /* \"@redstone-finance/evm-connector/contracts/libs/SignatureLib.sol\":738:777  calldataload(signatureCalldataStartPos) */\n      calldataload\n        /* \"@redstone-finance/evm-connector/contracts/libs/SignatureLib.sol\":735:736  0 */\n      0x00\n        /* \"@redstone-finance/evm-connector/contracts/libs/SignatureLib.sol\":730:778  byte(0, calldataload(signatureCalldataStartPos)) */\n      byte\n        /* \"@redstone-finance/evm-connector/contracts/libs/SignatureLib.sol\":725:778  v := byte(0, calldataload(signatureCalldataStartPos)) */\n      swap2\n      pop\n        /* \"@redstone-finance/evm-connector/contracts/libs/SignatureLib.sol\":359:827  {... */\n      pop\n        /* \"@redstone-finance/evm-connector/contracts/libs/SignatureLib.sol\":839:869  ecrecover(signedHash, v, r, s) */\n      0x01\n        /* \"@redstone-finance/evm-connector/contracts/libs/SignatureLib.sol\":849:859  signedHash */\n      dup7\n        /* \"@redstone-finance/evm-connector/contracts/libs/SignatureLib.sol\":861:862  v */\n      dup3\n        /* \"@redstone-finance/evm-connector/contracts/libs/SignatureLib.sol\":864:865  r */\n      dup6\n        /* \"@redstone-finance/evm-connector/contracts/libs/SignatureLib.sol\":867:868  s */\n      dup6\n        /* \"@redstone-finance/evm-connector/contracts/libs/SignatureLib.sol\":839:869  ecrecover(signedHash, v, r, s) */\n      mload(0x40)\n      0x00\n      dup2\n      mstore\n      0x20\n      add\n      0x40\n      mstore\n      mload(0x40)\n      tag_387\n      swap5\n      swap4\n      swap3\n      swap2\n      swap1\n      tag_388\n      jump\t// in\n    tag_387:\n      0x20\n      mload(0x40)\n      0x20\n      dup2\n      sub\n      swap1\n      dup1\n      dup5\n      sub\n      swap1\n      dup6\n      gas\n      staticcall\n      iszero\n      dup1\n      iszero\n      tag_390\n      jumpi\n      returndatasize\n      0x00\n      dup1\n      returndatacopy\n      revert(0x00, returndatasize)\n    tag_390:\n      pop\n      pop\n      pop\n      mload(sub(mload(0x40), 0x20))\n        /* \"@redstone-finance/evm-connector/contracts/libs/SignatureLib.sol\":832:869  return ecrecover(signedHash, v, r, s) */\n      swap4\n      pop\n      pop\n      pop\n      pop\n        /* \"@redstone-finance/evm-connector/contracts/libs/SignatureLib.sol\":164:874  function recoverSignerAddress(bytes32 signedHash, uint256 signatureCalldataNegativeOffset)... */\n      swap3\n      swap2\n      pop\n      pop\n      jump\t// out\n        /* \"@redstone-finance/evm-connector/contracts/core/CalldataExtractor.sol\":4277:4951  function _extractDataPointValueAndDataFeedId(... */\n    tag_336:\n        /* \"@redstone-finance/evm-connector/contracts/core/CalldataExtractor.sol\":4430:4457  bytes32 dataPointDataFeedId */\n      0x00\n        /* \"@redstone-finance/evm-connector/contracts/core/CalldataExtractor.sol\":4459:4481  uint256 dataPointValue */\n      dup1\n        /* \"@redstone-finance/evm-connector/contracts/core/CalldataExtractor.sol\":4489:4520  uint256 dataPointCalldataOffset */\n      0x00\n        /* \"@redstone-finance/evm-connector/contracts/core/CalldataExtractor.sol\":4541:4564  dataPointNegativeOffset */\n      dup5\n        /* \"@redstone-finance/evm-connector/contracts/core/CalldataExtractor.sol\":4523:4531  msg.data */\n      0x00\n      calldatasize\n        /* \"@redstone-finance/evm-connector/contracts/core/CalldataExtractor.sol\":4523:4538  msg.data.length */\n      swap1\n      pop\n        /* \"@redstone-finance/evm-connector/contracts/core/CalldataExtractor.sol\":4523:4564  msg.data.length - dataPointNegativeOffset */\n      tag_392\n      swap2\n      swap1\n      tag_174\n      jump\t// in\n    tag_392:\n        /* \"@redstone-finance/evm-connector/contracts/core/CalldataExtractor.sol\":4489:4564  uint256 dataPointCalldataOffset = msg.data.length - dataPointNegativeOffset */\n      swap1\n      pop\n        /* \"@redstone-finance/evm-connector/contracts/core/CalldataExtractor.sol\":4623:4646  dataPointCalldataOffset */\n      dup1\n        /* \"@redstone-finance/evm-connector/contracts/core/CalldataExtractor.sol\":4610:4647  calldataload(dataPointCalldataOffset) */\n      calldataload\n        /* \"@redstone-finance/evm-connector/contracts/core/CalldataExtractor.sol\":4587:4647  dataPointDataFeedId := calldataload(dataPointCalldataOffset) */\n      swap3\n      pop\n        /* \"@redstone-finance/evm-connector/contracts/core/CalldataExtractor.sol\":4714:4734  DATA_POINT_SYMBOL_BS */\n      0x20\n        /* \"@redstone-finance/evm-connector/contracts/core/CalldataExtractor.sol\":4689:4712  dataPointCalldataOffset */\n      dup2\n        /* \"@redstone-finance/evm-connector/contracts/core/CalldataExtractor.sol\":4685:4735  add(dataPointCalldataOffset, DATA_POINT_SYMBOL_BS) */\n      add\n        /* \"@redstone-finance/evm-connector/contracts/core/CalldataExtractor.sol\":4672:4736  calldataload(add(dataPointCalldataOffset, DATA_POINT_SYMBOL_BS)) */\n      calldataload\n        /* \"@redstone-finance/evm-connector/contracts/core/CalldataExtractor.sol\":4654:4736  dataPointValue := calldataload(add(dataPointCalldataOffset, DATA_POINT_SYMBOL_BS)) */\n      swap2\n      pop\n        /* \"@redstone-finance/evm-connector/contracts/core/CalldataExtractor.sol\":4777:4779  33 */\n      0x21\n        /* \"@redstone-finance/evm-connector/contracts/core/CalldataExtractor.sol\":4751:4773  dataPointValueByteSize */\n      dup5\n        /* \"@redstone-finance/evm-connector/contracts/core/CalldataExtractor.sol\":4751:4779  dataPointValueByteSize >= 33 */\n      lt\n        /* \"@redstone-finance/evm-connector/contracts/core/CalldataExtractor.sol\":4747:4848  if (dataPointValueByteSize >= 33) {... */\n      tag_393\n      jumpi\n        /* \"@redstone-finance/evm-connector/contracts/core/CalldataExtractor.sol\":4818:4840  dataPointValueByteSize */\n      dup4\n        /* \"@redstone-finance/evm-connector/contracts/core/CalldataExtractor.sol\":4796:4841  TooLargeValueByteSize(dataPointValueByteSize) */\n      mload(0x40)\n      0xc000fc4200000000000000000000000000000000000000000000000000000000\n      dup2\n      mstore\n      0x04\n      add\n      tag_394\n      swap2\n      swap1\n      tag_34\n      jump\t// in\n    tag_394:\n      mload(0x40)\n      dup1\n      swap2\n      sub\n      swap1\n      revert\n        /* \"@redstone-finance/evm-connector/contracts/core/CalldataExtractor.sol\":4747:4848  if (dataPointValueByteSize >= 33) {... */\n    tag_393:\n        /* \"@redstone-finance/evm-connector/contracts/core/CalldataExtractor.sol\":4938:4939  8 */\n      0x08\n        /* \"@redstone-finance/evm-connector/contracts/core/CalldataExtractor.sol\":4912:4934  dataPointValueByteSize */\n      dup5\n        /* \"@redstone-finance/evm-connector/contracts/core/CalldataExtractor.sol\":4907:4909  32 */\n      0x20\n        /* \"@redstone-finance/evm-connector/contracts/core/CalldataExtractor.sol\":4907:4934  32 - dataPointValueByteSize */\n      sub\n        /* \"@redstone-finance/evm-connector/contracts/core/CalldataExtractor.sol\":4906:4939  (32 - dataPointValueByteSize) * 8 */\n      mul\n        /* \"@redstone-finance/evm-connector/contracts/core/CalldataExtractor.sol\":4888:4902  dataPointValue */\n      dup3\n        /* \"@redstone-finance/evm-connector/contracts/core/CalldataExtractor.sol\":4888:4939  dataPointValue >> (32 - dataPointValueByteSize) * 8 */\n      swap1\n      shr\n        /* \"@redstone-finance/evm-connector/contracts/core/CalldataExtractor.sol\":4871:4939  dataPointValue = dataPointValue >> (32 - dataPointValueByteSize) * 8 */\n      swap2\n      pop\n        /* \"@redstone-finance/evm-connector/contracts/core/CalldataExtractor.sol\":4483:4951  {... */\n      pop\n        /* \"@redstone-finance/evm-connector/contracts/core/CalldataExtractor.sol\":4277:4951  function _extractDataPointValueAndDataFeedId(... */\n      swap3\n      pop\n      swap3\n      swap1\n      pop\n      jump\t// out\n        /* \"@redstone-finance/evm-connector/contracts/libs/BitmapLib.sol\":216:388  function getBitFromBitmap(uint256 bitmap, uint256 bitIndex) internal pure returns (bool) {... */\n    tag_346:\n        /* \"@redstone-finance/evm-connector/contracts/libs/BitmapLib.sol\":299:303  bool */\n      0x00\n        /* \"@redstone-finance/evm-connector/contracts/libs/BitmapLib.sol\":311:329  uint256 bitAtIndex */\n      dup1\n        /* \"@redstone-finance/evm-connector/contracts/libs/BitmapLib.sol\":347:355  bitIndex */\n      dup3\n        /* \"@redstone-finance/evm-connector/contracts/libs/BitmapLib.sol\":342:343  1 */\n      0x01\n        /* \"@redstone-finance/evm-connector/contracts/libs/BitmapLib.sol\":342:355  1 << bitIndex */\n      swap1\n      shl\n        /* \"@redstone-finance/evm-connector/contracts/libs/BitmapLib.sol\":332:338  bitmap */\n      dup5\n        /* \"@redstone-finance/evm-connector/contracts/libs/BitmapLib.sol\":332:356  bitmap & (1 << bitIndex) */\n      and\n        /* \"@redstone-finance/evm-connector/contracts/libs/BitmapLib.sol\":311:356  uint256 bitAtIndex = bitmap & (1 << bitIndex) */\n      swap1\n      pop\n        /* \"@redstone-finance/evm-connector/contracts/libs/BitmapLib.sol\":382:383  0 */\n      0x00\n        /* \"@redstone-finance/evm-connector/contracts/libs/BitmapLib.sol\":369:379  bitAtIndex */\n      dup2\n        /* \"@redstone-finance/evm-connector/contracts/libs/BitmapLib.sol\":369:383  bitAtIndex > 0 */\n      gt\n        /* \"@redstone-finance/evm-connector/contracts/libs/BitmapLib.sol\":362:383  return bitAtIndex > 0 */\n      swap2\n      pop\n      pop\n        /* \"@redstone-finance/evm-connector/contracts/libs/BitmapLib.sol\":216:388  function getBitFromBitmap(uint256 bitmap, uint256 bitIndex) internal pure returns (bool) {... */\n      swap3\n      swap2\n      pop\n      pop\n      jump\t// out\n        /* \"@redstone-finance/evm-connector/contracts/libs/BitmapLib.sol\":80:212  function setBitInBitmap(uint256 bitmap, uint256 bitIndex) internal pure returns (uint256) {... */\n    tag_362:\n        /* \"@redstone-finance/evm-connector/contracts/libs/BitmapLib.sol\":161:168  uint256 */\n      0x00\n        /* \"@redstone-finance/evm-connector/contracts/libs/BitmapLib.sol\":198:206  bitIndex */\n      dup2\n        /* \"@redstone-finance/evm-connector/contracts/libs/BitmapLib.sol\":193:194  1 */\n      0x01\n        /* \"@redstone-finance/evm-connector/contracts/libs/BitmapLib.sol\":193:206  1 << bitIndex */\n      swap1\n      shl\n        /* \"@redstone-finance/evm-connector/contracts/libs/BitmapLib.sol\":183:189  bitmap */\n      dup4\n        /* \"@redstone-finance/evm-connector/contracts/libs/BitmapLib.sol\":183:207  bitmap | (1 << bitIndex) */\n      or\n        /* \"@redstone-finance/evm-connector/contracts/libs/BitmapLib.sol\":176:207  return bitmap | (1 << bitIndex) */\n      swap1\n      pop\n        /* \"@redstone-finance/evm-connector/contracts/libs/BitmapLib.sol\":80:212  function setBitInBitmap(uint256 bitmap, uint256 bitIndex) internal pure returns (uint256) {... */\n      swap3\n      swap2\n      pop\n      pop\n      jump\t// out\n        /* \"#utility.yul\":24:746   */\n    tag_398:\n        /* \"#utility.yul\":120:125   */\n      0x00\n        /* \"#utility.yul\":145:226   */\n      tag_400\n        /* \"#utility.yul\":161:225   */\n      tag_401\n        /* \"#utility.yul\":218:224   */\n      dup5\n        /* \"#utility.yul\":161:225   */\n      tag_402\n      jump\t// in\n    tag_401:\n        /* \"#utility.yul\":145:226   */\n      tag_403\n      jump\t// in\n    tag_400:\n        /* \"#utility.yul\":136:226   */\n      swap1\n      pop\n        /* \"#utility.yul\":246:251   */\n      dup1\n        /* \"#utility.yul\":275:281   */\n      dup4\n        /* \"#utility.yul\":268:273   */\n      dup3\n        /* \"#utility.yul\":261:282   */\n      mstore\n        /* \"#utility.yul\":309:313   */\n      0x20\n        /* \"#utility.yul\":302:307   */\n      dup3\n        /* \"#utility.yul\":298:314   */\n      add\n        /* \"#utility.yul\":291:314   */\n      swap1\n      pop\n        /* \"#utility.yul\":335:341   */\n      dup3\n        /* \"#utility.yul\":385:388   */\n      dup6\n        /* \"#utility.yul\":377:381   */\n      0x20\n        /* \"#utility.yul\":369:375   */\n      dup7\n        /* \"#utility.yul\":365:382   */\n      mul\n        /* \"#utility.yul\":360:363   */\n      dup3\n        /* \"#utility.yul\":356:383   */\n      add\n        /* \"#utility.yul\":353:389   */\n      gt\n        /* \"#utility.yul\":350:493   */\n      iszero\n      tag_404\n      jumpi\n        /* \"#utility.yul\":404:483   */\n      tag_405\n      tag_406\n      jump\t// in\n    tag_405:\n        /* \"#utility.yul\":350:493   */\n    tag_404:\n        /* \"#utility.yul\":517:518   */\n      0x00\n        /* \"#utility.yul\":502:740   */\n    tag_407:\n        /* \"#utility.yul\":527:533   */\n      dup6\n        /* \"#utility.yul\":524:525   */\n      dup2\n        /* \"#utility.yul\":521:534   */\n      lt\n        /* \"#utility.yul\":502:740   */\n      iszero\n      tag_409\n      jumpi\n        /* \"#utility.yul\":595:598   */\n      dup2\n        /* \"#utility.yul\":624:661   */\n      tag_410\n        /* \"#utility.yul\":657:660   */\n      dup9\n        /* \"#utility.yul\":645:655   */\n      dup3\n        /* \"#utility.yul\":624:661   */\n      tag_411\n      jump\t// in\n    tag_410:\n        /* \"#utility.yul\":619:622   */\n      dup5\n        /* \"#utility.yul\":612:662   */\n      mstore\n        /* \"#utility.yul\":691:695   */\n      0x20\n        /* \"#utility.yul\":686:689   */\n      dup5\n        /* \"#utility.yul\":682:696   */\n      add\n        /* \"#utility.yul\":675:696   */\n      swap4\n      pop\n        /* \"#utility.yul\":725:729   */\n      0x20\n        /* \"#utility.yul\":720:723   */\n      dup4\n        /* \"#utility.yul\":716:730   */\n      add\n        /* \"#utility.yul\":709:730   */\n      swap3\n      pop\n        /* \"#utility.yul\":562:740   */\n      pop\n        /* \"#utility.yul\":549:550   */\n      0x01\n        /* \"#utility.yul\":546:547   */\n      dup2\n        /* \"#utility.yul\":542:551   */\n      add\n        /* \"#utility.yul\":537:551   */\n      swap1\n      pop\n        /* \"#utility.yul\":502:740   */\n      jump(tag_407)\n    tag_409:\n        /* \"#utility.yul\":506:520   */\n      pop\n        /* \"#utility.yul\":126:746   */\n      pop\n      pop\n        /* \"#utility.yul\":24:746   */\n      swap4\n      swap3\n      pop\n      pop\n      pop\n      jump\t// out\n        /* \"#utility.yul\":752:891   */\n    tag_412:\n        /* \"#utility.yul\":798:803   */\n      0x00\n        /* \"#utility.yul\":836:842   */\n      dup2\n        /* \"#utility.yul\":823:843   */\n      calldataload\n        /* \"#utility.yul\":814:843   */\n      swap1\n      pop\n        /* \"#utility.yul\":852:885   */\n      tag_414\n        /* \"#utility.yul\":879:884   */\n      dup2\n        /* \"#utility.yul\":852:885   */\n      tag_415\n      jump\t// in\n    tag_414:\n        /* \"#utility.yul\":752:891   */\n      swap3\n      swap2\n      pop\n      pop\n      jump\t// out\n        /* \"#utility.yul\":914:1284   */\n    tag_416:\n        /* \"#utility.yul\":985:990   */\n      0x00\n        /* \"#utility.yul\":1034:1037   */\n      dup3\n        /* \"#utility.yul\":1027:1031   */\n      0x1f\n        /* \"#utility.yul\":1019:1025   */\n      dup4\n        /* \"#utility.yul\":1015:1032   */\n      add\n        /* \"#utility.yul\":1011:1038   */\n      slt\n        /* \"#utility.yul\":1001:1123   */\n      tag_418\n      jumpi\n        /* \"#utility.yul\":1042:1121   */\n      tag_419\n      tag_420\n      jump\t// in\n    tag_419:\n        /* \"#utility.yul\":1001:1123   */\n    tag_418:\n        /* \"#utility.yul\":1159:1165   */\n      dup2\n        /* \"#utility.yul\":1146:1166   */\n      calldataload\n        /* \"#utility.yul\":1184:1278   */\n      tag_421\n        /* \"#utility.yul\":1274:1277   */\n      dup5\n        /* \"#utility.yul\":1266:1272   */\n      dup3\n        /* \"#utility.yul\":1259:1263   */\n      0x20\n        /* \"#utility.yul\":1251:1257   */\n      dup7\n        /* \"#utility.yul\":1247:1264   */\n      add\n        /* \"#utility.yul\":1184:1278   */\n      tag_398\n      jump\t// in\n    tag_421:\n        /* \"#utility.yul\":1175:1278   */\n      swap2\n      pop\n        /* \"#utility.yul\":991:1284   */\n      pop\n        /* \"#utility.yul\":914:1284   */\n      swap3\n      swap2\n      pop\n      pop\n      jump\t// out\n        /* \"#utility.yul\":1290:1423   */\n    tag_422:\n        /* \"#utility.yul\":1333:1338   */\n      0x00\n        /* \"#utility.yul\":1371:1377   */\n      dup2\n        /* \"#utility.yul\":1358:1378   */\n      calldataload\n        /* \"#utility.yul\":1349:1378   */\n      swap1\n      pop\n        /* \"#utility.yul\":1387:1417   */\n      tag_424\n        /* \"#utility.yul\":1411:1416   */\n      dup2\n        /* \"#utility.yul\":1387:1417   */\n      tag_425\n      jump\t// in\n    tag_424:\n        /* \"#utility.yul\":1290:1423   */\n      swap3\n      swap2\n      pop\n      pop\n      jump\t// out\n        /* \"#utility.yul\":1429:1568   */\n    tag_411:\n        /* \"#utility.yul\":1475:1480   */\n      0x00\n        /* \"#utility.yul\":1513:1519   */\n      dup2\n        /* \"#utility.yul\":1500:1520   */\n      calldataload\n        /* \"#utility.yul\":1491:1520   */\n      swap1\n      pop\n        /* \"#utility.yul\":1529:1562   */\n      tag_427\n        /* \"#utility.yul\":1556:1561   */\n      dup2\n        /* \"#utility.yul\":1529:1562   */\n      tag_428\n      jump\t// in\n    tag_427:\n        /* \"#utility.yul\":1429:1568   */\n      swap3\n      swap2\n      pop\n      pop\n      jump\t// out\n        /* \"#utility.yul\":1574:1903   */\n    tag_31:\n        /* \"#utility.yul\":1633:1639   */\n      0x00\n        /* \"#utility.yul\":1682:1684   */\n      0x20\n        /* \"#utility.yul\":1670:1679   */\n      dup3\n        /* \"#utility.yul\":1661:1668   */\n      dup5\n        /* \"#utility.yul\":1657:1680   */\n      sub\n        /* \"#utility.yul\":1653:1685   */\n      slt\n        /* \"#utility.yul\":1650:1769   */\n      iszero\n      tag_430\n      jumpi\n        /* \"#utility.yul\":1688:1767   */\n      tag_431\n      tag_432\n      jump\t// in\n    tag_431:\n        /* \"#utility.yul\":1650:1769   */\n    tag_430:\n        /* \"#utility.yul\":1808:1809   */\n      0x00\n        /* \"#utility.yul\":1833:1886   */\n      tag_433\n        /* \"#utility.yul\":1878:1885   */\n      dup5\n        /* \"#utility.yul\":1869:1875   */\n      dup3\n        /* \"#utility.yul\":1858:1867   */\n      dup6\n        /* \"#utility.yul\":1854:1876   */\n      add\n        /* \"#utility.yul\":1833:1886   */\n      tag_412\n      jump\t// in\n    tag_433:\n        /* \"#utility.yul\":1823:1886   */\n      swap2\n      pop\n        /* \"#utility.yul\":1779:1896   */\n      pop\n        /* \"#utility.yul\":1574:1903   */\n      swap3\n      swap2\n      pop\n      pop\n      jump\t// out\n        /* \"#utility.yul\":1909:2448   */\n    tag_81:\n        /* \"#utility.yul\":1993:1999   */\n      0x00\n        /* \"#utility.yul\":2042:2044   */\n      0x20\n        /* \"#utility.yul\":2030:2039   */\n      dup3\n        /* \"#utility.yul\":2021:2028   */\n      dup5\n        /* \"#utility.yul\":2017:2040   */\n      sub\n        /* \"#utility.yul\":2013:2045   */\n      slt\n        /* \"#utility.yul\":2010:2129   */\n      iszero\n      tag_435\n      jumpi\n        /* \"#utility.yul\":2048:2127   */\n      tag_436\n      tag_432\n      jump\t// in\n    tag_436:\n        /* \"#utility.yul\":2010:2129   */\n    tag_435:\n        /* \"#utility.yul\":2196:2197   */\n      0x00\n        /* \"#utility.yul\":2185:2194   */\n      dup3\n        /* \"#utility.yul\":2181:2198   */\n      add\n        /* \"#utility.yul\":2168:2199   */\n      calldataload\n        /* \"#utility.yul\":2226:2244   */\n      0xffffffffffffffff\n        /* \"#utility.yul\":2218:2224   */\n      dup2\n        /* \"#utility.yul\":2215:2245   */\n      gt\n        /* \"#utility.yul\":2212:2329   */\n      iszero\n      tag_437\n      jumpi\n        /* \"#utility.yul\":2248:2327   */\n      tag_438\n      tag_439\n      jump\t// in\n    tag_438:\n        /* \"#utility.yul\":2212:2329   */\n    tag_437:\n        /* \"#utility.yul\":2353:2431   */\n      tag_440\n        /* \"#utility.yul\":2423:2430   */\n      dup5\n        /* \"#utility.yul\":2414:2420   */\n      dup3\n        /* \"#utility.yul\":2403:2412   */\n      dup6\n        /* \"#utility.yul\":2399:2421   */\n      add\n        /* \"#utility.yul\":2353:2431   */\n      tag_416\n      jump\t// in\n    tag_440:\n        /* \"#utility.yul\":2343:2431   */\n      swap2\n      pop\n        /* \"#utility.yul\":2139:2441   */\n      pop\n        /* \"#utility.yul\":1909:2448   */\n      swap3\n      swap2\n      pop\n      pop\n      jump\t// out\n        /* \"#utility.yul\":2454:2777   */\n    tag_26:\n        /* \"#utility.yul\":2510:2516   */\n      0x00\n        /* \"#utility.yul\":2559:2561   */\n      0x20\n        /* \"#utility.yul\":2547:2556   */\n      dup3\n        /* \"#utility.yul\":2538:2545   */\n      dup5\n        /* \"#utility.yul\":2534:2557   */\n      sub\n        /* \"#utility.yul\":2530:2562   */\n      slt\n        /* \"#utility.yul\":2527:2646   */\n      iszero\n      tag_442\n      jumpi\n        /* \"#utility.yul\":2565:2644   */\n      tag_443\n      tag_432\n      jump\t// in\n    tag_443:\n        /* \"#utility.yul\":2527:2646   */\n    tag_442:\n        /* \"#utility.yul\":2685:2686   */\n      0x00\n        /* \"#utility.yul\":2710:2760   */\n      tag_444\n        /* \"#utility.yul\":2752:2759   */\n      dup5\n        /* \"#utility.yul\":2743:2749   */\n      dup3\n        /* \"#utility.yul\":2732:2741   */\n      dup6\n        /* \"#utility.yul\":2728:2750   */\n      add\n        /* \"#utility.yul\":2710:2760   */\n      tag_422\n      jump\t// in\n    tag_444:\n        /* \"#utility.yul\":2700:2760   */\n      swap2\n      pop\n        /* \"#utility.yul\":2656:2770   */\n      pop\n        /* \"#utility.yul\":2454:2777   */\n      swap3\n      swap2\n      pop\n      pop\n      jump\t// out\n        /* \"#utility.yul\":2783:3112   */\n    tag_98:\n        /* \"#utility.yul\":2842:2848   */\n      0x00\n        /* \"#utility.yul\":2891:2893   */\n      0x20\n        /* \"#utility.yul\":2879:2888   */\n      dup3\n        /* \"#utility.yul\":2870:2877   */\n      dup5\n        /* \"#utility.yul\":2866:2889   */\n      sub\n        /* \"#utility.yul\":2862:2894   */\n      slt\n        /* \"#utility.yul\":2859:2978   */\n      iszero\n      tag_446\n      jumpi\n        /* \"#utility.yul\":2897:2976   */\n      tag_447\n      tag_432\n      jump\t// in\n    tag_447:\n        /* \"#utility.yul\":2859:2978   */\n    tag_446:\n        /* \"#utility.yul\":3017:3018   */\n      0x00\n        /* \"#utility.yul\":3042:3095   */\n      tag_448\n        /* \"#utility.yul\":3087:3094   */\n      dup5\n        /* \"#utility.yul\":3078:3084   */\n      dup3\n        /* \"#utility.yul\":3067:3076   */\n      dup6\n        /* \"#utility.yul\":3063:3085   */\n      add\n        /* \"#utility.yul\":3042:3095   */\n      tag_411\n      jump\t// in\n    tag_448:\n        /* \"#utility.yul\":3032:3095   */\n      swap2\n      pop\n        /* \"#utility.yul\":2988:3105   */\n      pop\n        /* \"#utility.yul\":2783:3112   */\n      swap3\n      swap2\n      pop\n      pop\n      jump\t// out\n        /* \"#utility.yul\":3118:3236   */\n    tag_449:\n        /* \"#utility.yul\":3205:3229   */\n      tag_451\n        /* \"#utility.yul\":3223:3228   */\n      dup2\n        /* \"#utility.yul\":3205:3229   */\n      tag_452\n      jump\t// in\n    tag_451:\n        /* \"#utility.yul\":3200:3203   */\n      dup3\n        /* \"#utility.yul\":3193:3230   */\n      mstore\n        /* \"#utility.yul\":3118:3236   */\n      pop\n      pop\n      jump\t// out\n        /* \"#utility.yul\":3242:3351   */\n    tag_453:\n        /* \"#utility.yul\":3323:3344   */\n      tag_455\n        /* \"#utility.yul\":3338:3343   */\n      dup2\n        /* \"#utility.yul\":3323:3344   */\n      tag_456\n      jump\t// in\n    tag_455:\n        /* \"#utility.yul\":3318:3321   */\n      dup3\n        /* \"#utility.yul\":3311:3345   */\n      mstore\n        /* \"#utility.yul\":3242:3351   */\n      pop\n      pop\n      jump\t// out\n        /* \"#utility.yul\":3357:3475   */\n    tag_457:\n        /* \"#utility.yul\":3444:3468   */\n      tag_459\n        /* \"#utility.yul\":3462:3467   */\n      dup2\n        /* \"#utility.yul\":3444:3468   */\n      tag_460\n      jump\t// in\n    tag_459:\n        /* \"#utility.yul\":3439:3442   */\n      dup3\n        /* \"#utility.yul\":3432:3469   */\n      mstore\n        /* \"#utility.yul\":3357:3475   */\n      pop\n      pop\n      jump\t// out\n        /* \"#utility.yul\":3481:3596   */\n    tag_461:\n        /* \"#utility.yul\":3566:3589   */\n      tag_463\n        /* \"#utility.yul\":3583:3588   */\n      dup2\n        /* \"#utility.yul\":3566:3589   */\n      tag_464\n      jump\t// in\n    tag_463:\n        /* \"#utility.yul\":3561:3564   */\n      dup3\n        /* \"#utility.yul\":3554:3590   */\n      mstore\n        /* \"#utility.yul\":3481:3596   */\n      pop\n      pop\n      jump\t// out\n        /* \"#utility.yul\":3602:3711   */\n    tag_465:\n        /* \"#utility.yul\":3683:3704   */\n      tag_467\n        /* \"#utility.yul\":3698:3703   */\n      dup2\n        /* \"#utility.yul\":3683:3704   */\n      tag_468\n      jump\t// in\n    tag_467:\n        /* \"#utility.yul\":3678:3681   */\n      dup3\n        /* \"#utility.yul\":3671:3705   */\n      mstore\n        /* \"#utility.yul\":3602:3711   */\n      pop\n      pop\n      jump\t// out\n        /* \"#utility.yul\":3717:4081   */\n    tag_469:\n        /* \"#utility.yul\":3805:3808   */\n      0x00\n        /* \"#utility.yul\":3833:3872   */\n      tag_471\n        /* \"#utility.yul\":3866:3871   */\n      dup3\n        /* \"#utility.yul\":3833:3872   */\n      tag_472\n      jump\t// in\n    tag_471:\n        /* \"#utility.yul\":3888:3959   */\n      tag_473\n        /* \"#utility.yul\":3952:3958   */\n      dup2\n        /* \"#utility.yul\":3947:3950   */\n      dup6\n        /* \"#utility.yul\":3888:3959   */\n      tag_474\n      jump\t// in\n    tag_473:\n        /* \"#utility.yul\":3881:3959   */\n      swap4\n      pop\n        /* \"#utility.yul\":3968:4020   */\n      tag_475\n        /* \"#utility.yul\":4013:4019   */\n      dup2\n        /* \"#utility.yul\":4008:4011   */\n      dup6\n        /* \"#utility.yul\":4001:4005   */\n      0x20\n        /* \"#utility.yul\":3994:3999   */\n      dup7\n        /* \"#utility.yul\":3990:4006   */\n      add\n        /* \"#utility.yul\":3968:4020   */\n      tag_476\n      jump\t// in\n    tag_475:\n        /* \"#utility.yul\":4045:4074   */\n      tag_477\n        /* \"#utility.yul\":4067:4073   */\n      dup2\n        /* \"#utility.yul\":4045:4074   */\n      tag_478\n      jump\t// in\n    tag_477:\n        /* \"#utility.yul\":4040:4043   */\n      dup5\n        /* \"#utility.yul\":4036:4075   */\n      add\n        /* \"#utility.yul\":4029:4075   */\n      swap2\n      pop\n        /* \"#utility.yul\":3809:4081   */\n      pop\n        /* \"#utility.yul\":3717:4081   */\n      swap3\n      swap2\n      pop\n      pop\n      jump\t// out\n        /* \"#utility.yul\":4087:4453   */\n    tag_479:\n        /* \"#utility.yul\":4229:4232   */\n      0x00\n        /* \"#utility.yul\":4250:4317   */\n      tag_481\n        /* \"#utility.yul\":4314:4316   */\n      0x0b\n        /* \"#utility.yul\":4309:4312   */\n      dup4\n        /* \"#utility.yul\":4250:4317   */\n      tag_474\n      jump\t// in\n    tag_481:\n        /* \"#utility.yul\":4243:4317   */\n      swap2\n      pop\n        /* \"#utility.yul\":4326:4419   */\n      tag_482\n        /* \"#utility.yul\":4415:4418   */\n      dup3\n        /* \"#utility.yul\":4326:4419   */\n      tag_483\n      jump\t// in\n    tag_482:\n        /* \"#utility.yul\":4444:4446   */\n      0x20\n        /* \"#utility.yul\":4439:4442   */\n      dup3\n        /* \"#utility.yul\":4435:4447   */\n      add\n        /* \"#utility.yul\":4428:4447   */\n      swap1\n      pop\n        /* \"#utility.yul\":4087:4453   */\n      swap2\n      swap1\n      pop\n      jump\t// out\n        /* \"#utility.yul\":4459:4825   */\n    tag_484:\n        /* \"#utility.yul\":4601:4604   */\n      0x00\n        /* \"#utility.yul\":4622:4689   */\n      tag_486\n        /* \"#utility.yul\":4686:4688   */\n      0x0d\n        /* \"#utility.yul\":4681:4684   */\n      dup4\n        /* \"#utility.yul\":4622:4689   */\n      tag_474\n      jump\t// in\n    tag_486:\n        /* \"#utility.yul\":4615:4689   */\n      swap2\n      pop\n        /* \"#utility.yul\":4698:4791   */\n      tag_487\n        /* \"#utility.yul\":4787:4790   */\n      dup3\n        /* \"#utility.yul\":4698:4791   */\n      tag_488\n      jump\t// in\n    tag_487:\n        /* \"#utility.yul\":4816:4818   */\n      0x20\n        /* \"#utility.yul\":4811:4814   */\n      dup3\n        /* \"#utility.yul\":4807:4819   */\n      add\n        /* \"#utility.yul\":4800:4819   */\n      swap1\n      pop\n        /* \"#utility.yul\":4459:4825   */\n      swap2\n      swap1\n      pop\n      jump\t// out\n        /* \"#utility.yul\":4831:5197   */\n    tag_489:\n        /* \"#utility.yul\":4973:4976   */\n      0x00\n        /* \"#utility.yul\":4994:5061   */\n      tag_491\n        /* \"#utility.yul\":5058:5060   */\n      0x11\n        /* \"#utility.yul\":5053:5056   */\n      dup4\n        /* \"#utility.yul\":4994:5061   */\n      tag_474\n      jump\t// in\n    tag_491:\n        /* \"#utility.yul\":4987:5061   */\n      swap2\n      pop\n        /* \"#utility.yul\":5070:5163   */\n      tag_492\n        /* \"#utility.yul\":5159:5162   */\n      dup3\n        /* \"#utility.yul\":5070:5163   */\n      tag_493\n      jump\t// in\n    tag_492:\n        /* \"#utility.yul\":5188:5190   */\n      0x20\n        /* \"#utility.yul\":5183:5186   */\n      dup3\n        /* \"#utility.yul\":5179:5191   */\n      add\n        /* \"#utility.yul\":5172:5191   */\n      swap1\n      pop\n        /* \"#utility.yul\":4831:5197   */\n      swap2\n      swap1\n      pop\n      jump\t// out\n        /* \"#utility.yul\":5203:5569   */\n    tag_494:\n        /* \"#utility.yul\":5345:5348   */\n      0x00\n        /* \"#utility.yul\":5366:5433   */\n      tag_496\n        /* \"#utility.yul\":5430:5432   */\n      0x1c\n        /* \"#utility.yul\":5425:5428   */\n      dup4\n        /* \"#utility.yul\":5366:5433   */\n      tag_474\n      jump\t// in\n    tag_496:\n        /* \"#utility.yul\":5359:5433   */\n      swap2\n      pop\n        /* \"#utility.yul\":5442:5535   */\n      tag_497\n        /* \"#utility.yul\":5531:5534   */\n      dup3\n        /* \"#utility.yul\":5442:5535   */\n      tag_498\n      jump\t// in\n    tag_497:\n        /* \"#utility.yul\":5560:5562   */\n      0x20\n        /* \"#utility.yul\":5555:5558   */\n      dup3\n        /* \"#utility.yul\":5551:5563   */\n      add\n        /* \"#utility.yul\":5544:5563   */\n      swap1\n      pop\n        /* \"#utility.yul\":5203:5569   */\n      swap2\n      swap1\n      pop\n      jump\t// out\n        /* \"#utility.yul\":5575:5941   */\n    tag_499:\n        /* \"#utility.yul\":5717:5720   */\n      0x00\n        /* \"#utility.yul\":5738:5805   */\n      tag_501\n        /* \"#utility.yul\":5802:5804   */\n      0x0f\n        /* \"#utility.yul\":5797:5800   */\n      dup4\n        /* \"#utility.yul\":5738:5805   */\n      tag_474\n      jump\t// in\n    tag_501:\n        /* \"#utility.yul\":5731:5805   */\n      swap2\n      pop\n        /* \"#utility.yul\":5814:5907   */\n      tag_502\n        /* \"#utility.yul\":5903:5906   */\n      dup3\n        /* \"#utility.yul\":5814:5907   */\n      tag_503\n      jump\t// in\n    tag_502:\n        /* \"#utility.yul\":5932:5934   */\n      0x20\n        /* \"#utility.yul\":5927:5930   */\n      dup3\n        /* \"#utility.yul\":5923:5935   */\n      add\n        /* \"#utility.yul\":5916:5935   */\n      swap1\n      pop\n        /* \"#utility.yul\":5575:5941   */\n      swap2\n      swap1\n      pop\n      jump\t// out\n        /* \"#utility.yul\":5947:6313   */\n    tag_504:\n        /* \"#utility.yul\":6089:6092   */\n      0x00\n        /* \"#utility.yul\":6110:6177   */\n      tag_506\n        /* \"#utility.yul\":6174:6176   */\n      0x12\n        /* \"#utility.yul\":6169:6172   */\n      dup4\n        /* \"#utility.yul\":6110:6177   */\n      tag_474\n      jump\t// in\n    tag_506:\n        /* \"#utility.yul\":6103:6177   */\n      swap2\n      pop\n        /* \"#utility.yul\":6186:6279   */\n      tag_507\n        /* \"#utility.yul\":6275:6278   */\n      dup3\n        /* \"#utility.yul\":6186:6279   */\n      tag_508\n      jump\t// in\n    tag_507:\n        /* \"#utility.yul\":6304:6306   */\n      0x20\n        /* \"#utility.yul\":6299:6302   */\n      dup3\n        /* \"#utility.yul\":6295:6307   */\n      add\n        /* \"#utility.yul\":6288:6307   */\n      swap1\n      pop\n        /* \"#utility.yul\":5947:6313   */\n      swap2\n      swap1\n      pop\n      jump\t// out\n        /* \"#utility.yul\":6319:6685   */\n    tag_509:\n        /* \"#utility.yul\":6461:6464   */\n      0x00\n        /* \"#utility.yul\":6482:6549   */\n      tag_511\n        /* \"#utility.yul\":6546:6548   */\n      0x0f\n        /* \"#utility.yul\":6541:6544   */\n      dup4\n        /* \"#utility.yul\":6482:6549   */\n      tag_474\n      jump\t// in\n    tag_511:\n        /* \"#utility.yul\":6475:6549   */\n      swap2\n      pop\n        /* \"#utility.yul\":6558:6651   */\n      tag_512\n        /* \"#utility.yul\":6647:6650   */\n      dup3\n        /* \"#utility.yul\":6558:6651   */\n      tag_513\n      jump\t// in\n    tag_512:\n        /* \"#utility.yul\":6676:6678   */\n      0x20\n        /* \"#utility.yul\":6671:6674   */\n      dup3\n        /* \"#utility.yul\":6667:6679   */\n      add\n        /* \"#utility.yul\":6660:6679   */\n      swap1\n      pop\n        /* \"#utility.yul\":6319:6685   */\n      swap2\n      swap1\n      pop\n      jump\t// out\n        /* \"#utility.yul\":6691:7057   */\n    tag_514:\n        /* \"#utility.yul\":6833:6836   */\n      0x00\n        /* \"#utility.yul\":6854:6921   */\n      tag_516\n        /* \"#utility.yul\":6918:6920   */\n      0x10\n        /* \"#utility.yul\":6913:6916   */\n      dup4\n        /* \"#utility.yul\":6854:6921   */\n      tag_474\n      jump\t// in\n    tag_516:\n        /* \"#utility.yul\":6847:6921   */\n      swap2\n      pop\n        /* \"#utility.yul\":6930:7023   */\n      tag_517\n        /* \"#utility.yul\":7019:7022   */\n      dup3\n        /* \"#utility.yul\":6930:7023   */\n      tag_518\n      jump\t// in\n    tag_517:\n        /* \"#utility.yul\":7048:7050   */\n      0x20\n        /* \"#utility.yul\":7043:7046   */\n      dup3\n        /* \"#utility.yul\":7039:7051   */\n      add\n        /* \"#utility.yul\":7032:7051   */\n      swap1\n      pop\n        /* \"#utility.yul\":6691:7057   */\n      swap2\n      swap1\n      pop\n      jump\t// out\n        /* \"#utility.yul\":7063:7429   */\n    tag_519:\n        /* \"#utility.yul\":7205:7208   */\n      0x00\n        /* \"#utility.yul\":7226:7293   */\n      tag_521\n        /* \"#utility.yul\":7290:7292   */\n      0x11\n        /* \"#utility.yul\":7285:7288   */\n      dup4\n        /* \"#utility.yul\":7226:7293   */\n      tag_474\n      jump\t// in\n    tag_521:\n        /* \"#utility.yul\":7219:7293   */\n      swap2\n      pop\n        /* \"#utility.yul\":7302:7395   */\n      tag_522\n        /* \"#utility.yul\":7391:7394   */\n      dup3\n        /* \"#utility.yul\":7302:7395   */\n      tag_523\n      jump\t// in\n    tag_522:\n        /* \"#utility.yul\":7420:7422   */\n      0x20\n        /* \"#utility.yul\":7415:7418   */\n      dup3\n        /* \"#utility.yul\":7411:7423   */\n      add\n        /* \"#utility.yul\":7404:7423   */\n      swap1\n      pop\n        /* \"#utility.yul\":7063:7429   */\n      swap2\n      swap1\n      pop\n      jump\t// out\n        /* \"#utility.yul\":7435:7553   */\n    tag_524:\n        /* \"#utility.yul\":7522:7546   */\n      tag_526\n        /* \"#utility.yul\":7540:7545   */\n      dup2\n        /* \"#utility.yul\":7522:7546   */\n      tag_527\n      jump\t// in\n    tag_526:\n        /* \"#utility.yul\":7517:7520   */\n      dup3\n        /* \"#utility.yul\":7510:7547   */\n      mstore\n        /* \"#utility.yul\":7435:7553   */\n      pop\n      pop\n      jump\t// out\n        /* \"#utility.yul\":7559:7671   */\n    tag_528:\n        /* \"#utility.yul\":7642:7664   */\n      tag_530\n        /* \"#utility.yul\":7658:7663   */\n      dup2\n        /* \"#utility.yul\":7642:7664   */\n      tag_531\n      jump\t// in\n    tag_530:\n        /* \"#utility.yul\":7637:7640   */\n      dup3\n        /* \"#utility.yul\":7630:7665   */\n      mstore\n        /* \"#utility.yul\":7559:7671   */\n      pop\n      pop\n      jump\t// out\n        /* \"#utility.yul\":7677:7899   */\n    tag_133:\n        /* \"#utility.yul\":7770:7774   */\n      0x00\n        /* \"#utility.yul\":7808:7810   */\n      0x20\n        /* \"#utility.yul\":7797:7806   */\n      dup3\n        /* \"#utility.yul\":7793:7811   */\n      add\n        /* \"#utility.yul\":7785:7811   */\n      swap1\n      pop\n        /* \"#utility.yul\":7821:7892   */\n      tag_533\n        /* \"#utility.yul\":7889:7890   */\n      0x00\n        /* \"#utility.yul\":7878:7887   */\n      dup4\n        /* \"#utility.yul\":7874:7891   */\n      add\n        /* \"#utility.yul\":7865:7871   */\n      dup5\n        /* \"#utility.yul\":7821:7892   */\n      tag_449\n      jump\t// in\n    tag_533:\n        /* \"#utility.yul\":7677:7899   */\n      swap3\n      swap2\n      pop\n      pop\n      jump\t// out\n        /* \"#utility.yul\":7905:8115   */\n    tag_94:\n        /* \"#utility.yul\":7992:7996   */\n      0x00\n        /* \"#utility.yul\":8030:8032   */\n      0x20\n        /* \"#utility.yul\":8019:8028   */\n      dup3\n        /* \"#utility.yul\":8015:8033   */\n      add\n        /* \"#utility.yul\":8007:8033   */\n      swap1\n      pop\n        /* \"#utility.yul\":8043:8108   */\n      tag_535\n        /* \"#utility.yul\":8105:8106   */\n      0x00\n        /* \"#utility.yul\":8094:8103   */\n      dup4\n        /* \"#utility.yul\":8090:8107   */\n      add\n        /* \"#utility.yul\":8081:8087   */\n      dup5\n        /* \"#utility.yul\":8043:8108   */\n      tag_453\n      jump\t// in\n    tag_535:\n        /* \"#utility.yul\":7905:8115   */\n      swap3\n      swap2\n      pop\n      pop\n      jump\t// out\n        /* \"#utility.yul\":8121:8666   */\n    tag_388:\n        /* \"#utility.yul\":8294:8298   */\n      0x00\n        /* \"#utility.yul\":8332:8335   */\n      0x80\n        /* \"#utility.yul\":8321:8330   */\n      dup3\n        /* \"#utility.yul\":8317:8336   */\n      add\n        /* \"#utility.yul\":8309:8336   */\n      swap1\n      pop\n        /* \"#utility.yul\":8346:8417   */\n      tag_537\n        /* \"#utility.yul\":8414:8415   */\n      0x00\n        /* \"#utility.yul\":8403:8412   */\n      dup4\n        /* \"#utility.yul\":8399:8416   */\n      add\n        /* \"#utility.yul\":8390:8396   */\n      dup8\n        /* \"#utility.yul\":8346:8417   */\n      tag_457\n      jump\t// in\n    tag_537:\n        /* \"#utility.yul\":8427:8495   */\n      tag_538\n        /* \"#utility.yul\":8491:8493   */\n      0x20\n        /* \"#utility.yul\":8480:8489   */\n      dup4\n        /* \"#utility.yul\":8476:8494   */\n      add\n        /* \"#utility.yul\":8467:8473   */\n      dup7\n        /* \"#utility.yul\":8427:8495   */\n      tag_528\n      jump\t// in\n    tag_538:\n        /* \"#utility.yul\":8505:8577   */\n      tag_539\n        /* \"#utility.yul\":8573:8575   */\n      0x40\n        /* \"#utility.yul\":8562:8571   */\n      dup4\n        /* \"#utility.yul\":8558:8576   */\n      add\n        /* \"#utility.yul\":8549:8555   */\n      dup6\n        /* \"#utility.yul\":8505:8577   */\n      tag_457\n      jump\t// in\n    tag_539:\n        /* \"#utility.yul\":8587:8659   */\n      tag_540\n        /* \"#utility.yul\":8655:8657   */\n      0x60\n        /* \"#utility.yul\":8644:8653   */\n      dup4\n        /* \"#utility.yul\":8640:8658   */\n      add\n        /* \"#utility.yul\":8631:8637   */\n      dup5\n        /* \"#utility.yul\":8587:8659   */\n      tag_457\n      jump\t// in\n    tag_540:\n        /* \"#utility.yul\":8121:8666   */\n      swap6\n      swap5\n      pop\n      pop\n      pop\n      pop\n      pop\n      jump\t// out\n        /* \"#utility.yul\":8672:8890   */\n    tag_43:\n        /* \"#utility.yul\":8763:8767   */\n      0x00\n        /* \"#utility.yul\":8801:8803   */\n      0x20\n        /* \"#utility.yul\":8790:8799   */\n      dup3\n        /* \"#utility.yul\":8786:8804   */\n      add\n        /* \"#utility.yul\":8778:8804   */\n      swap1\n      pop\n        /* \"#utility.yul\":8814:8883   */\n      tag_542\n        /* \"#utility.yul\":8880:8881   */\n      0x00\n        /* \"#utility.yul\":8869:8878   */\n      dup4\n        /* \"#utility.yul\":8865:8882   */\n      add\n        /* \"#utility.yul\":8856:8862   */\n      dup5\n        /* \"#utility.yul\":8814:8883   */\n      tag_461\n      jump\t// in\n    tag_542:\n        /* \"#utility.yul\":8672:8890   */\n      swap3\n      swap2\n      pop\n      pop\n      jump\t// out\n        /* \"#utility.yul\":8896:9106   */\n    tag_73:\n        /* \"#utility.yul\":8983:8987   */\n      0x00\n        /* \"#utility.yul\":9021:9023   */\n      0x20\n        /* \"#utility.yul\":9010:9019   */\n      dup3\n        /* \"#utility.yul\":9006:9024   */\n      add\n        /* \"#utility.yul\":8998:9024   */\n      swap1\n      pop\n        /* \"#utility.yul\":9034:9099   */\n      tag_544\n        /* \"#utility.yul\":9096:9097   */\n      0x00\n        /* \"#utility.yul\":9085:9094   */\n      dup4\n        /* \"#utility.yul\":9081:9098   */\n      add\n        /* \"#utility.yul\":9072:9078   */\n      dup5\n        /* \"#utility.yul\":9034:9099   */\n      tag_465\n      jump\t// in\n    tag_544:\n        /* \"#utility.yul\":8896:9106   */\n      swap3\n      swap2\n      pop\n      pop\n      jump\t// out\n        /* \"#utility.yul\":9112:9425   */\n    tag_88:\n        /* \"#utility.yul\":9225:9229   */\n      0x00\n        /* \"#utility.yul\":9263:9265   */\n      0x20\n        /* \"#utility.yul\":9252:9261   */\n      dup3\n        /* \"#utility.yul\":9248:9266   */\n      add\n        /* \"#utility.yul\":9240:9266   */\n      swap1\n      pop\n        /* \"#utility.yul\":9312:9321   */\n      dup2\n        /* \"#utility.yul\":9306:9310   */\n      dup2\n        /* \"#utility.yul\":9302:9322   */\n      sub\n        /* \"#utility.yul\":9298:9299   */\n      0x00\n        /* \"#utility.yul\":9287:9296   */\n      dup4\n        /* \"#utility.yul\":9283:9300   */\n      add\n        /* \"#utility.yul\":9276:9323   */\n      mstore\n        /* \"#utility.yul\":9340:9418   */\n      tag_546\n        /* \"#utility.yul\":9413:9417   */\n      dup2\n        /* \"#utility.yul\":9404:9410   */\n      dup5\n        /* \"#utility.yul\":9340:9418   */\n      tag_469\n      jump\t// in\n    tag_546:\n        /* \"#utility.yul\":9332:9418   */\n      swap1\n      pop\n        /* \"#utility.yul\":9112:9425   */\n      swap3\n      swap2\n      pop\n      pop\n      jump\t// out\n        /* \"#utility.yul\":9431:9850   */\n    tag_152:\n        /* \"#utility.yul\":9597:9601   */\n      0x00\n        /* \"#utility.yul\":9635:9637   */\n      0x20\n        /* \"#utility.yul\":9624:9633   */\n      dup3\n        /* \"#utility.yul\":9620:9638   */\n      add\n        /* \"#utility.yul\":9612:9638   */\n      swap1\n      pop\n        /* \"#utility.yul\":9684:9693   */\n      dup2\n        /* \"#utility.yul\":9678:9682   */\n      dup2\n        /* \"#utility.yul\":9674:9694   */\n      sub\n        /* \"#utility.yul\":9670:9671   */\n      0x00\n        /* \"#utility.yul\":9659:9668   */\n      dup4\n        /* \"#utility.yul\":9655:9672   */\n      add\n        /* \"#utility.yul\":9648:9695   */\n      mstore\n        /* \"#utility.yul\":9712:9843   */\n      tag_548\n        /* \"#utility.yul\":9838:9842   */\n      dup2\n        /* \"#utility.yul\":9712:9843   */\n      tag_479\n      jump\t// in\n    tag_548:\n        /* \"#utility.yul\":9704:9843   */\n      swap1\n      pop\n        /* \"#utility.yul\":9431:9850   */\n      swap2\n      swap1\n      pop\n      jump\t// out\n        /* \"#utility.yul\":9856:10275   */\n    tag_149:\n        /* \"#utility.yul\":10022:10026   */\n      0x00\n        /* \"#utility.yul\":10060:10062   */\n      0x20\n        /* \"#utility.yul\":10049:10058   */\n      dup3\n        /* \"#utility.yul\":10045:10063   */\n      add\n        /* \"#utility.yul\":10037:10063   */\n      swap1\n      pop\n        /* \"#utility.yul\":10109:10118   */\n      dup2\n        /* \"#utility.yul\":10103:10107   */\n      dup2\n        /* \"#utility.yul\":10099:10119   */\n      sub\n        /* \"#utility.yul\":10095:10096   */\n      0x00\n        /* \"#utility.yul\":10084:10093   */\n      dup4\n        /* \"#utility.yul\":10080:10097   */\n      add\n        /* \"#utility.yul\":10073:10120   */\n      mstore\n        /* \"#utility.yul\":10137:10268   */\n      tag_550\n        /* \"#utility.yul\":10263:10267   */\n      dup2\n        /* \"#utility.yul\":10137:10268   */\n      tag_484\n      jump\t// in\n    tag_550:\n        /* \"#utility.yul\":10129:10268   */\n      swap1\n      pop\n        /* \"#utility.yul\":9856:10275   */\n      swap2\n      swap1\n      pop\n      jump\t// out\n        /* \"#utility.yul\":10281:10700   */\n    tag_141:\n        /* \"#utility.yul\":10447:10451   */\n      0x00\n        /* \"#utility.yul\":10485:10487   */\n      0x20\n        /* \"#utility.yul\":10474:10483   */\n      dup3\n        /* \"#utility.yul\":10470:10488   */\n      add\n        /* \"#utility.yul\":10462:10488   */\n      swap1\n      pop\n        /* \"#utility.yul\":10534:10543   */\n      dup2\n        /* \"#utility.yul\":10528:10532   */\n      dup2\n        /* \"#utility.yul\":10524:10544   */\n      sub\n        /* \"#utility.yul\":10520:10521   */\n      0x00\n        /* \"#utility.yul\":10509:10518   */\n      dup4\n        /* \"#utility.yul\":10505:10522   */\n      add\n        /* \"#utility.yul\":10498:10545   */\n      mstore\n        /* \"#utility.yul\":10562:10693   */\n      tag_552\n        /* \"#utility.yul\":10688:10692   */\n      dup2\n        /* \"#utility.yul\":10562:10693   */\n      tag_489\n      jump\t// in\n    tag_552:\n        /* \"#utility.yul\":10554:10693   */\n      swap1\n      pop\n        /* \"#utility.yul\":10281:10700   */\n      swap2\n      swap1\n      pop\n      jump\t// out\n        /* \"#utility.yul\":10706:11125   */\n    tag_191:\n        /* \"#utility.yul\":10872:10876   */\n      0x00\n        /* \"#utility.yul\":10910:10912   */\n      0x20\n        /* \"#utility.yul\":10899:10908   */\n      dup3\n        /* \"#utility.yul\":10895:10913   */\n      add\n        /* \"#utility.yul\":10887:10913   */\n      swap1\n      pop\n        /* \"#utility.yul\":10959:10968   */\n      dup2\n        /* \"#utility.yul\":10953:10957   */\n      dup2\n        /* \"#utility.yul\":10949:10969   */\n      sub\n        /* \"#utility.yul\":10945:10946   */\n      0x00\n        /* \"#utility.yul\":10934:10943   */\n      dup4\n        /* \"#utility.yul\":10930:10947   */\n      add\n        /* \"#utility.yul\":10923:10970   */\n      mstore\n        /* \"#utility.yul\":10987:11118   */\n      tag_554\n        /* \"#utility.yul\":11113:11117   */\n      dup2\n        /* \"#utility.yul\":10987:11118   */\n      tag_494\n      jump\t// in\n    tag_554:\n        /* \"#utility.yul\":10979:11118   */\n      swap1\n      pop\n        /* \"#utility.yul\":10706:11125   */\n      swap2\n      swap1\n      pop\n      jump\t// out\n        /* \"#utility.yul\":11131:11550   */\n    tag_155:\n        /* \"#utility.yul\":11297:11301   */\n      0x00\n        /* \"#utility.yul\":11335:11337   */\n      0x20\n        /* \"#utility.yul\":11324:11333   */\n      dup3\n        /* \"#utility.yul\":11320:11338   */\n      add\n        /* \"#utility.yul\":11312:11338   */\n      swap1\n      pop\n        /* \"#utility.yul\":11384:11393   */\n      dup2\n        /* \"#utility.yul\":11378:11382   */\n      dup2\n        /* \"#utility.yul\":11374:11394   */\n      sub\n        /* \"#utility.yul\":11370:11371   */\n      0x00\n        /* \"#utility.yul\":11359:11368   */\n      dup4\n        /* \"#utility.yul\":11355:11372   */\n      add\n        /* \"#utility.yul\":11348:11395   */\n      mstore\n        /* \"#utility.yul\":11412:11543   */\n      tag_556\n        /* \"#utility.yul\":11538:11542   */\n      dup2\n        /* \"#utility.yul\":11412:11543   */\n      tag_499\n      jump\t// in\n    tag_556:\n        /* \"#utility.yul\":11404:11543   */\n      swap1\n      pop\n        /* \"#utility.yul\":11131:11550   */\n      swap2\n      swap1\n      pop\n      jump\t// out\n        /* \"#utility.yul\":11556:11975   */\n    tag_119:\n        /* \"#utility.yul\":11722:11726   */\n      0x00\n        /* \"#utility.yul\":11760:11762   */\n      0x20\n        /* \"#utility.yul\":11749:11758   */\n      dup3\n        /* \"#utility.yul\":11745:11763   */\n      add\n        /* \"#utility.yul\":11737:11763   */\n      swap1\n      pop\n        /* \"#utility.yul\":11809:11818   */\n      dup2\n        /* \"#utility.yul\":11803:11807   */\n      dup2\n        /* \"#utility.yul\":11799:11819   */\n      sub\n        /* \"#utility.yul\":11795:11796   */\n      0x00\n        /* \"#utility.yul\":11784:11793   */\n      dup4\n        /* \"#utility.yul\":11780:11797   */\n      add\n        /* \"#utility.yul\":11773:11820   */\n      mstore\n        /* \"#utility.yul\":11837:11968   */\n      tag_558\n        /* \"#utility.yul\":11963:11967   */\n      dup2\n        /* \"#utility.yul\":11837:11968   */\n      tag_504\n      jump\t// in\n    tag_558:\n        /* \"#utility.yul\":11829:11968   */\n      swap1\n      pop\n        /* \"#utility.yul\":11556:11975   */\n      swap2\n      swap1\n      pop\n      jump\t// out\n        /* \"#utility.yul\":11981:12400   */\n    tag_116:\n        /* \"#utility.yul\":12147:12151   */\n      0x00\n        /* \"#utility.yul\":12185:12187   */\n      0x20\n        /* \"#utility.yul\":12174:12183   */\n      dup3\n        /* \"#utility.yul\":12170:12188   */\n      add\n        /* \"#utility.yul\":12162:12188   */\n      swap1\n      pop\n        /* \"#utility.yul\":12234:12243   */\n      dup2\n        /* \"#utility.yul\":12228:12232   */\n      dup2\n        /* \"#utility.yul\":12224:12244   */\n      sub\n        /* \"#utility.yul\":12220:12221   */\n      0x00\n        /* \"#utility.yul\":12209:12218   */\n      dup4\n        /* \"#utility.yul\":12205:12222   */\n      add\n        /* \"#utility.yul\":12198:12245   */\n      mstore\n        /* \"#utility.yul\":12262:12393   */\n      tag_560\n        /* \"#utility.yul\":12388:12392   */\n      dup2\n        /* \"#utility.yul\":12262:12393   */\n      tag_509\n      jump\t// in\n    tag_560:\n        /* \"#utility.yul\":12254:12393   */\n      swap1\n      pop\n        /* \"#utility.yul\":11981:12400   */\n      swap2\n      swap1\n      pop\n      jump\t// out\n        /* \"#utility.yul\":12406:12825   */\n    tag_122:\n        /* \"#utility.yul\":12572:12576   */\n      0x00\n        /* \"#utility.yul\":12610:12612   */\n      0x20\n        /* \"#utility.yul\":12599:12608   */\n      dup3\n        /* \"#utility.yul\":12595:12613   */\n      add\n        /* \"#utility.yul\":12587:12613   */\n      swap1\n      pop\n        /* \"#utility.yul\":12659:12668   */\n      dup2\n        /* \"#utility.yul\":12653:12657   */\n      dup2\n        /* \"#utility.yul\":12649:12669   */\n      sub\n        /* \"#utility.yul\":12645:12646   */\n      0x00\n        /* \"#utility.yul\":12634:12643   */\n      dup4\n        /* \"#utility.yul\":12630:12647   */\n      add\n        /* \"#utility.yul\":12623:12670   */\n      mstore\n        /* \"#utility.yul\":12687:12818   */\n      tag_562\n        /* \"#utility.yul\":12813:12817   */\n      dup2\n        /* \"#utility.yul\":12687:12818   */\n      tag_514\n      jump\t// in\n    tag_562:\n        /* \"#utility.yul\":12679:12818   */\n      swap1\n      pop\n        /* \"#utility.yul\":12406:12825   */\n      swap2\n      swap1\n      pop\n      jump\t// out\n        /* \"#utility.yul\":12831:13250   */\n    tag_137:\n        /* \"#utility.yul\":12997:13001   */\n      0x00\n        /* \"#utility.yul\":13035:13037   */\n      0x20\n        /* \"#utility.yul\":13024:13033   */\n      dup3\n        /* \"#utility.yul\":13020:13038   */\n      add\n        /* \"#utility.yul\":13012:13038   */\n      swap1\n      pop\n        /* \"#utility.yul\":13084:13093   */\n      dup2\n        /* \"#utility.yul\":13078:13082   */\n      dup2\n        /* \"#utility.yul\":13074:13094   */\n      sub\n        /* \"#utility.yul\":13070:13071   */\n      0x00\n        /* \"#utility.yul\":13059:13068   */\n      dup4\n        /* \"#utility.yul\":13055:13072   */\n      add\n        /* \"#utility.yul\":13048:13095   */\n      mstore\n        /* \"#utility.yul\":13112:13243   */\n      tag_564\n        /* \"#utility.yul\":13238:13242   */\n      dup2\n        /* \"#utility.yul\":13112:13243   */\n      tag_519\n      jump\t// in\n    tag_564:\n        /* \"#utility.yul\":13104:13243   */\n      swap1\n      pop\n        /* \"#utility.yul\":12831:13250   */\n      swap2\n      swap1\n      pop\n      jump\t// out\n        /* \"#utility.yul\":13256:13478   */\n    tag_34:\n        /* \"#utility.yul\":13349:13353   */\n      0x00\n        /* \"#utility.yul\":13387:13389   */\n      0x20\n        /* \"#utility.yul\":13376:13385   */\n      dup3\n        /* \"#utility.yul\":13372:13390   */\n      add\n        /* \"#utility.yul\":13364:13390   */\n      swap1\n      pop\n        /* \"#utility.yul\":13400:13471   */\n      tag_566\n        /* \"#utility.yul\":13468:13469   */\n      0x00\n        /* \"#utility.yul\":13457:13466   */\n      dup4\n        /* \"#utility.yul\":13453:13470   */\n      add\n        /* \"#utility.yul\":13444:13450   */\n      dup5\n        /* \"#utility.yul\":13400:13471   */\n      tag_524\n      jump\t// in\n    tag_566:\n        /* \"#utility.yul\":13256:13478   */\n      swap3\n      swap2\n      pop\n      pop\n      jump\t// out\n        /* \"#utility.yul\":13484:13816   */\n    tag_379:\n        /* \"#utility.yul\":13605:13609   */\n      0x00\n        /* \"#utility.yul\":13643:13645   */\n      0x40\n        /* \"#utility.yul\":13632:13641   */\n      dup3\n        /* \"#utility.yul\":13628:13646   */\n      add\n        /* \"#utility.yul\":13620:13646   */\n      swap1\n      pop\n        /* \"#utility.yul\":13656:13727   */\n      tag_568\n        /* \"#utility.yul\":13724:13725   */\n      0x00\n        /* \"#utility.yul\":13713:13722   */\n      dup4\n        /* \"#utility.yul\":13709:13726   */\n      add\n        /* \"#utility.yul\":13700:13706   */\n      dup6\n        /* \"#utility.yul\":13656:13727   */\n      tag_524\n      jump\t// in\n    tag_568:\n        /* \"#utility.yul\":13737:13809   */\n      tag_569\n        /* \"#utility.yul\":13805:13807   */\n      0x20\n        /* \"#utility.yul\":13794:13803   */\n      dup4\n        /* \"#utility.yul\":13790:13808   */\n      add\n        /* \"#utility.yul\":13781:13787   */\n      dup5\n        /* \"#utility.yul\":13737:13809   */\n      tag_524\n      jump\t// in\n    tag_569:\n        /* \"#utility.yul\":13484:13816   */\n      swap4\n      swap3\n      pop\n      pop\n      pop\n      jump\t// out\n        /* \"#utility.yul\":13822:14036   */\n    tag_49:\n        /* \"#utility.yul\":13911:13915   */\n      0x00\n        /* \"#utility.yul\":13949:13951   */\n      0x20\n        /* \"#utility.yul\":13938:13947   */\n      dup3\n        /* \"#utility.yul\":13934:13952   */\n      add\n        /* \"#utility.yul\":13926:13952   */\n      swap1\n      pop\n        /* \"#utility.yul\":13962:14029   */\n      tag_571\n        /* \"#utility.yul\":14026:14027   */\n      0x00\n        /* \"#utility.yul\":14015:14024   */\n      dup4\n        /* \"#utility.yul\":14011:14028   */\n      add\n        /* \"#utility.yul\":14002:14008   */\n      dup5\n        /* \"#utility.yul\":13962:14029   */\n      tag_528\n      jump\t// in\n    tag_571:\n        /* \"#utility.yul\":13822:14036   */\n      swap3\n      swap2\n      pop\n      pop\n      jump\t// out\n        /* \"#utility.yul\":14042:14171   */\n    tag_403:\n        /* \"#utility.yul\":14076:14082   */\n      0x00\n        /* \"#utility.yul\":14103:14123   */\n      tag_573\n      tag_574\n      jump\t// in\n    tag_573:\n        /* \"#utility.yul\":14093:14123   */\n      swap1\n      pop\n        /* \"#utility.yul\":14132:14165   */\n      tag_575\n        /* \"#utility.yul\":14160:14164   */\n      dup3\n        /* \"#utility.yul\":14152:14158   */\n      dup3\n        /* \"#utility.yul\":14132:14165   */\n      tag_576\n      jump\t// in\n    tag_575:\n        /* \"#utility.yul\":14042:14171   */\n      swap2\n      swap1\n      pop\n      jump\t// out\n        /* \"#utility.yul\":14177:14252   */\n    tag_574:\n        /* \"#utility.yul\":14210:14216   */\n      0x00\n        /* \"#utility.yul\":14243:14245   */\n      0x40\n        /* \"#utility.yul\":14237:14246   */\n      mload\n        /* \"#utility.yul\":14227:14246   */\n      swap1\n      pop\n        /* \"#utility.yul\":14177:14252   */\n      swap1\n      jump\t// out\n        /* \"#utility.yul\":14258:14569   */\n    tag_402:\n        /* \"#utility.yul\":14335:14339   */\n      0x00\n        /* \"#utility.yul\":14425:14443   */\n      0xffffffffffffffff\n        /* \"#utility.yul\":14417:14423   */\n      dup3\n        /* \"#utility.yul\":14414:14444   */\n      gt\n        /* \"#utility.yul\":14411:14467   */\n      iszero\n      tag_579\n      jumpi\n        /* \"#utility.yul\":14447:14465   */\n      tag_580\n      tag_205\n      jump\t// in\n    tag_580:\n        /* \"#utility.yul\":14411:14467   */\n    tag_579:\n        /* \"#utility.yul\":14497:14501   */\n      0x20\n        /* \"#utility.yul\":14489:14495   */\n      dup3\n        /* \"#utility.yul\":14485:14502   */\n      mul\n        /* \"#utility.yul\":14477:14502   */\n      swap1\n      pop\n        /* \"#utility.yul\":14557:14561   */\n      0x20\n        /* \"#utility.yul\":14551:14555   */\n      dup2\n        /* \"#utility.yul\":14547:14562   */\n      add\n        /* \"#utility.yul\":14539:14562   */\n      swap1\n      pop\n        /* \"#utility.yul\":14258:14569   */\n      swap2\n      swap1\n      pop\n      jump\t// out\n        /* \"#utility.yul\":14575:14674   */\n    tag_472:\n        /* \"#utility.yul\":14627:14633   */\n      0x00\n        /* \"#utility.yul\":14661:14666   */\n      dup2\n        /* \"#utility.yul\":14655:14667   */\n      mload\n        /* \"#utility.yul\":14645:14667   */\n      swap1\n      pop\n        /* \"#utility.yul\":14575:14674   */\n      swap2\n      swap1\n      pop\n      jump\t// out\n        /* \"#utility.yul\":14680:14849   */\n    tag_474:\n        /* \"#utility.yul\":14764:14775   */\n      0x00\n        /* \"#utility.yul\":14798:14804   */\n      dup3\n        /* \"#utility.yul\":14793:14796   */\n      dup3\n        /* \"#utility.yul\":14786:14805   */\n      mstore\n        /* \"#utility.yul\":14838:14842   */\n      0x20\n        /* \"#utility.yul\":14833:14836   */\n      dup3\n        /* \"#utility.yul\":14829:14843   */\n      add\n        /* \"#utility.yul\":14814:14843   */\n      swap1\n      pop\n        /* \"#utility.yul\":14680:14849   */\n      swap3\n      swap2\n      pop\n      pop\n      jump\t// out\n        /* \"#utility.yul\":14855:15160   */\n    tag_125:\n        /* \"#utility.yul\":14895:14898   */\n      0x00\n        /* \"#utility.yul\":14914:14934   */\n      tag_584\n        /* \"#utility.yul\":14932:14933   */\n      dup3\n        /* \"#utility.yul\":14914:14934   */\n      tag_527\n      jump\t// in\n    tag_584:\n        /* \"#utility.yul\":14909:14934   */\n      swap2\n      pop\n        /* \"#utility.yul\":14948:14968   */\n      tag_585\n        /* \"#utility.yul\":14966:14967   */\n      dup4\n        /* \"#utility.yul\":14948:14968   */\n      tag_527\n      jump\t// in\n    tag_585:\n        /* \"#utility.yul\":14943:14968   */\n      swap3\n      pop\n        /* \"#utility.yul\":15102:15103   */\n      dup3\n        /* \"#utility.yul\":15034:15100   */\n      0xffffffffffffffffffffffffffffffffffffffffffffffffffffffffffffffff\n        /* \"#utility.yul\":15030:15104   */\n      sub\n        /* \"#utility.yul\":15027:15028   */\n      dup3\n        /* \"#utility.yul\":15024:15105   */\n      gt\n        /* \"#utility.yul\":15021:15128   */\n      iszero\n      tag_586\n      jumpi\n        /* \"#utility.yul\":15108:15126   */\n      tag_587\n      tag_588\n      jump\t// in\n    tag_587:\n        /* \"#utility.yul\":15021:15128   */\n    tag_586:\n        /* \"#utility.yul\":15152:15153   */\n      dup3\n        /* \"#utility.yul\":15149:15150   */\n      dup3\n        /* \"#utility.yul\":15145:15154   */\n      add\n        /* \"#utility.yul\":15138:15154   */\n      swap1\n      pop\n        /* \"#utility.yul\":14855:15160   */\n      swap3\n      swap2\n      pop\n      pop\n      jump\t// out\n        /* \"#utility.yul\":15166:15351   */\n    tag_197:\n        /* \"#utility.yul\":15206:15207   */\n      0x00\n        /* \"#utility.yul\":15223:15243   */\n      tag_590\n        /* \"#utility.yul\":15241:15242   */\n      dup3\n        /* \"#utility.yul\":15223:15243   */\n      tag_527\n      jump\t// in\n    tag_590:\n        /* \"#utility.yul\":15218:15243   */\n      swap2\n      pop\n        /* \"#utility.yul\":15257:15277   */\n      tag_591\n        /* \"#utility.yul\":15275:15276   */\n      dup4\n        /* \"#utility.yul\":15257:15277   */\n      tag_527\n      jump\t// in\n    tag_591:\n        /* \"#utility.yul\":15252:15277   */\n      swap3\n      pop\n        /* \"#utility.yul\":15296:15297   */\n      dup3\n        /* \"#utility.yul\":15286:15321   */\n      tag_592\n      jumpi\n        /* \"#utility.yul\":15301:15319   */\n      tag_593\n      tag_594\n      jump\t// in\n    tag_593:\n        /* \"#utility.yul\":15286:15321   */\n    tag_592:\n        /* \"#utility.yul\":15343:15344   */\n      dup3\n        /* \"#utility.yul\":15340:15341   */\n      dup3\n        /* \"#utility.yul\":15336:15345   */\n      div\n        /* \"#utility.yul\":15331:15345   */\n      swap1\n      pop\n        /* \"#utility.yul\":15166:15351   */\n      swap3\n      swap2\n      pop\n      pop\n      jump\t// out\n        /* \"#utility.yul\":15357:15705   */\n    tag_195:\n        /* \"#utility.yul\":15397:15404   */\n      0x00\n        /* \"#utility.yul\":15420:15440   */\n      tag_596\n        /* \"#utility.yul\":15438:15439   */\n      dup3\n        /* \"#utility.yul\":15420:15440   */\n      tag_527\n      jump\t// in\n    tag_596:\n        /* \"#utility.yul\":15415:15440   */\n      swap2\n      pop\n        /* \"#utility.yul\":15454:15474   */\n      tag_597\n        /* \"#utility.yul\":15472:15473   */\n      dup4\n        /* \"#utility.yul\":15454:15474   */\n      tag_527\n      jump\t// in\n    tag_597:\n        /* \"#utility.yul\":15449:15474   */\n      swap3\n      pop\n        /* \"#utility.yul\":15642:15643   */\n      dup2\n        /* \"#utility.yul\":15574:15640   */\n      0xffffffffffffffffffffffffffffffffffffffffffffffffffffffffffffffff\n        /* \"#utility.yul\":15570:15644   */\n      div\n        /* \"#utility.yul\":15567:15568   */\n      dup4\n        /* \"#utility.yul\":15564:15645   */\n      gt\n        /* \"#utility.yul\":15559:15560   */\n      dup3\n        /* \"#utility.yul\":15552:15561   */\n      iszero\n        /* \"#utility.yul\":15545:15562   */\n      iszero\n        /* \"#utility.yul\":15541:15646   */\n      and\n        /* \"#utility.yul\":15538:15669   */\n      iszero\n      tag_598\n      jumpi\n        /* \"#utility.yul\":15649:15667   */\n      tag_599\n      tag_588\n      jump\t// in\n    tag_599:\n        /* \"#utility.yul\":15538:15669   */\n    tag_598:\n        /* \"#utility.yul\":15697:15698   */\n      dup3\n        /* \"#utility.yul\":15694:15695   */\n      dup3\n        /* \"#utility.yul\":15690:15699   */\n      mul\n        /* \"#utility.yul\":15679:15699   */\n      swap1\n      pop\n        /* \"#utility.yul\":15357:15705   */\n      swap3\n      swap2\n      pop\n      pop\n      jump\t// out\n        /* \"#utility.yul\":15711:15902   */\n    tag_174:\n        /* \"#utility.yul\":15751:15755   */\n      0x00\n        /* \"#utility.yul\":15771:15791   */\n      tag_601\n        /* \"#utility.yul\":15789:15790   */\n      dup3\n        /* \"#utility.yul\":15771:15791   */\n      tag_527\n      jump\t// in\n    tag_601:\n        /* \"#utility.yul\":15766:15791   */\n      swap2\n      pop\n        /* \"#utility.yul\":15805:15825   */\n      tag_602\n        /* \"#utility.yul\":15823:15824   */\n      dup4\n        /* \"#utility.yul\":15805:15825   */\n      tag_527\n      jump\t// in\n    tag_602:\n        /* \"#utility.yul\":15800:15825   */\n      swap3\n      pop\n        /* \"#utility.yul\":15844:15845   */\n      dup3\n        /* \"#utility.yul\":15841:15842   */\n      dup3\n        /* \"#utility.yul\":15838:15846   */\n      lt\n        /* \"#utility.yul\":15835:15869   */\n      iszero\n      tag_603\n      jumpi\n        /* \"#utility.yul\":15849:15867   */\n      tag_604\n      tag_588\n      jump\t// in\n    tag_604:\n        /* \"#utility.yul\":15835:15869   */\n    tag_603:\n        /* \"#utility.yul\":15894:15895   */\n      dup3\n        /* \"#utility.yul\":15891:15892   */\n      dup3\n        /* \"#utility.yul\":15887:15896   */\n      sub\n        /* \"#utility.yul\":15879:15896   */\n      swap1\n      pop\n        /* \"#utility.yul\":15711:15902   */\n      swap3\n      swap2\n      pop\n      pop\n      jump\t// out\n        /* \"#utility.yul\":15908:16004   */\n    tag_452:\n        /* \"#utility.yul\":15945:15952   */\n      0x00\n        /* \"#utility.yul\":15974:15998   */\n      tag_606\n        /* \"#utility.yul\":15992:15997   */\n      dup3\n        /* \"#utility.yul\":15974:15998   */\n      tag_607\n      jump\t// in\n    tag_606:\n        /* \"#utility.yul\":15963:15998   */\n      swap1\n      pop\n        /* \"#utility.yul\":15908:16004   */\n      swap2\n      swap1\n      pop\n      jump\t// out\n        /* \"#utility.yul\":16010:16100   */\n    tag_456:\n        /* \"#utility.yul\":16044:16051   */\n      0x00\n        /* \"#utility.yul\":16087:16092   */\n      dup2\n        /* \"#utility.yul\":16080:16093   */\n      iszero\n        /* \"#utility.yul\":16073:16094   */\n      iszero\n        /* \"#utility.yul\":16062:16094   */\n      swap1\n      pop\n        /* \"#utility.yul\":16010:16100   */\n      swap2\n      swap1\n      pop\n      jump\t// out\n        /* \"#utility.yul\":16106:16183   */\n    tag_460:\n        /* \"#utility.yul\":16143:16150   */\n      0x00\n        /* \"#utility.yul\":16172:16177   */\n      dup2\n        /* \"#utility.yul\":16161:16177   */\n      swap1\n      pop\n        /* \"#utility.yul\":16106:16183   */\n      swap2\n      swap1\n      pop\n      jump\t// out\n        /* \"#utility.yul\":16189:16265   */\n    tag_464:\n        /* \"#utility.yul\":16225:16232   */\n      0x00\n        /* \"#utility.yul\":16254:16259   */\n      dup2\n        /* \"#utility.yul\":16243:16259   */\n      swap1\n      pop\n        /* \"#utility.yul\":16189:16265   */\n      swap2\n      swap1\n      pop\n      jump\t// out\n        /* \"#utility.yul\":16271:16360   */\n    tag_468:\n        /* \"#utility.yul\":16305:16312   */\n      0x00\n        /* \"#utility.yul\":16348:16353   */\n      dup2\n        /* \"#utility.yul\":16345:16346   */\n      0x00\n        /* \"#utility.yul\":16334:16354   */\n      signextend\n        /* \"#utility.yul\":16323:16354   */\n      swap1\n      pop\n        /* \"#utility.yul\":16271:16360   */\n      swap2\n      swap1\n      pop\n      jump\t// out\n        /* \"#utility.yul\":16366:16492   */\n    tag_607:\n        /* \"#utility.yul\":16403:16410   */\n      0x00\n        /* \"#utility.yul\":16443:16485   */\n      0xffffffffffffffffffffffffffffffffffffffff\n        /* \"#utility.yul\":16436:16441   */\n      dup3\n        /* \"#utility.yul\":16432:16486   */\n      and\n        /* \"#utility.yul\":16421:16486   */\n      swap1\n      pop\n        /* \"#utility.yul\":16366:16492   */\n      swap2\n      swap1\n      pop\n      jump\t// out\n        /* \"#utility.yul\":16498:16575   */\n    tag_527:\n        /* \"#utility.yul\":16535:16542   */\n      0x00\n        /* \"#utility.yul\":16564:16569   */\n      dup2\n        /* \"#utility.yul\":16553:16569   */\n      swap1\n      pop\n        /* \"#utility.yul\":16498:16575   */\n      swap2\n      swap1\n      pop\n      jump\t// out\n        /* \"#utility.yul\":16581:16667   */\n    tag_531:\n        /* \"#utility.yul\":16616:16623   */\n      0x00\n        /* \"#utility.yul\":16656:16660   */\n      0xff\n        /* \"#utility.yul\":16649:16654   */\n      dup3\n        /* \"#utility.yul\":16645:16661   */\n      and\n        /* \"#utility.yul\":16634:16661   */\n      swap1\n      pop\n        /* \"#utility.yul\":16581:16667   */\n      swap2\n      swap1\n      pop\n      jump\t// out\n        /* \"#utility.yul\":16673:16980   */\n    tag_476:\n        /* \"#utility.yul\":16741:16742   */\n      0x00\n        /* \"#utility.yul\":16751:16864   */\n    tag_616:\n        /* \"#utility.yul\":16765:16771   */\n      dup4\n        /* \"#utility.yul\":16762:16763   */\n      dup2\n        /* \"#utility.yul\":16759:16772   */\n      lt\n        /* \"#utility.yul\":16751:16864   */\n      iszero\n      tag_618\n      jumpi\n        /* \"#utility.yul\":16850:16851   */\n      dup1\n        /* \"#utility.yul\":16845:16848   */\n      dup3\n        /* \"#utility.yul\":16841:16852   */\n      add\n        /* \"#utility.yul\":16835:16853   */\n      mload\n        /* \"#utility.yul\":16831:16832   */\n      dup2\n        /* \"#utility.yul\":16826:16829   */\n      dup5\n        /* \"#utility.yul\":16822:16833   */\n      add\n        /* \"#utility.yul\":16815:16854   */\n      mstore\n        /* \"#utility.yul\":16787:16789   */\n      0x20\n        /* \"#utility.yul\":16784:16785   */\n      dup2\n        /* \"#utility.yul\":16780:16790   */\n      add\n        /* \"#utility.yul\":16775:16790   */\n      swap1\n      pop\n        /* \"#utility.yul\":16751:16864   */\n      jump(tag_616)\n    tag_618:\n        /* \"#utility.yul\":16882:16888   */\n      dup4\n        /* \"#utility.yul\":16879:16880   */\n      dup2\n        /* \"#utility.yul\":16876:16889   */\n      gt\n        /* \"#utility.yul\":16873:16974   */\n      iszero\n      tag_619\n      jumpi\n        /* \"#utility.yul\":16962:16963   */\n      0x00\n        /* \"#utility.yul\":16953:16959   */\n      dup5\n        /* \"#utility.yul\":16948:16951   */\n      dup5\n        /* \"#utility.yul\":16944:16960   */\n      add\n        /* \"#utility.yul\":16937:16964   */\n      mstore\n        /* \"#utility.yul\":16873:16974   */\n    tag_619:\n        /* \"#utility.yul\":16722:16980   */\n      pop\n        /* \"#utility.yul\":16673:16980   */\n      pop\n      pop\n      pop\n      jump\t// out\n        /* \"#utility.yul\":16986:17267   */\n    tag_576:\n        /* \"#utility.yul\":17069:17096   */\n      tag_621\n        /* \"#utility.yul\":17091:17095   */\n      dup3\n        /* \"#utility.yul\":17069:17096   */\n      tag_478\n      jump\t// in\n    tag_621:\n        /* \"#utility.yul\":17061:17067   */\n      dup2\n        /* \"#utility.yul\":17057:17097   */\n      add\n        /* \"#utility.yul\":17199:17205   */\n      dup2\n        /* \"#utility.yul\":17187:17197   */\n      dup2\n        /* \"#utility.yul\":17184:17206   */\n      lt\n        /* \"#utility.yul\":17163:17181   */\n      0xffffffffffffffff\n        /* \"#utility.yul\":17151:17161   */\n      dup3\n        /* \"#utility.yul\":17148:17182   */\n      gt\n        /* \"#utility.yul\":17145:17207   */\n      or\n        /* \"#utility.yul\":17142:17230   */\n      iszero\n      tag_622\n      jumpi\n        /* \"#utility.yul\":17210:17228   */\n      tag_623\n      tag_205\n      jump\t// in\n    tag_623:\n        /* \"#utility.yul\":17142:17230   */\n    tag_622:\n        /* \"#utility.yul\":17250:17260   */\n      dup1\n        /* \"#utility.yul\":17246:17248   */\n      0x40\n        /* \"#utility.yul\":17239:17261   */\n      mstore\n        /* \"#utility.yul\":17029:17267   */\n      pop\n        /* \"#utility.yul\":16986:17267   */\n      pop\n      pop\n      jump\t// out\n        /* \"#utility.yul\":17273:17506   */\n    tag_181:\n        /* \"#utility.yul\":17312:17315   */\n      0x00\n        /* \"#utility.yul\":17335:17359   */\n      tag_625\n        /* \"#utility.yul\":17353:17358   */\n      dup3\n        /* \"#utility.yul\":17335:17359   */\n      tag_527\n      jump\t// in\n    tag_625:\n        /* \"#utility.yul\":17326:17359   */\n      swap2\n      pop\n        /* \"#utility.yul\":17381:17447   */\n      0xffffffffffffffffffffffffffffffffffffffffffffffffffffffffffffffff\n        /* \"#utility.yul\":17374:17379   */\n      dup3\n        /* \"#utility.yul\":17371:17448   */\n      eq\n        /* \"#utility.yul\":17368:17471   */\n      iszero\n      tag_626\n      jumpi\n        /* \"#utility.yul\":17451:17469   */\n      tag_627\n      tag_588\n      jump\t// in\n    tag_627:\n        /* \"#utility.yul\":17368:17471   */\n    tag_626:\n        /* \"#utility.yul\":17498:17499   */\n      0x01\n        /* \"#utility.yul\":17491:17496   */\n      dup3\n        /* \"#utility.yul\":17487:17500   */\n      add\n        /* \"#utility.yul\":17480:17500   */\n      swap1\n      pop\n        /* \"#utility.yul\":17273:17506   */\n      swap2\n      swap1\n      pop\n      jump\t// out\n        /* \"#utility.yul\":17512:17688   */\n    tag_256:\n        /* \"#utility.yul\":17544:17545   */\n      0x00\n        /* \"#utility.yul\":17561:17581   */\n      tag_629\n        /* \"#utility.yul\":17579:17580   */\n      dup3\n        /* \"#utility.yul\":17561:17581   */\n      tag_527\n      jump\t// in\n    tag_629:\n        /* \"#utility.yul\":17556:17581   */\n      swap2\n      pop\n        /* \"#utility.yul\":17595:17615   */\n      tag_630\n        /* \"#utility.yul\":17613:17614   */\n      dup4\n        /* \"#utility.yul\":17595:17615   */\n      tag_527\n      jump\t// in\n    tag_630:\n        /* \"#utility.yul\":17590:17615   */\n      swap3\n      pop\n        /* \"#utility.yul\":17634:17635   */\n      dup3\n        /* \"#utility.yul\":17624:17659   */\n      tag_631\n      jumpi\n        /* \"#utility.yul\":17639:17657   */\n      tag_632\n      tag_594\n      jump\t// in\n    tag_632:\n        /* \"#utility.yul\":17624:17659   */\n    tag_631:\n        /* \"#utility.yul\":17680:17681   */\n      dup3\n        /* \"#utility.yul\":17677:17678   */\n      dup3\n        /* \"#utility.yul\":17673:17682   */\n      mod\n        /* \"#utility.yul\":17668:17682   */\n      swap1\n      pop\n        /* \"#utility.yul\":17512:17688   */\n      swap3\n      swap2\n      pop\n      pop\n      jump\t// out\n        /* \"#utility.yul\":17694:17874   */\n    tag_588:\n        /* \"#utility.yul\":17742:17819   */\n      0x4e487b7100000000000000000000000000000000000000000000000000000000\n        /* \"#utility.yul\":17739:17740   */\n      0x00\n        /* \"#utility.yul\":17732:17820   */\n      mstore\n        /* \"#utility.yul\":17839:17843   */\n      0x11\n        /* \"#utility.yul\":17836:17837   */\n      0x04\n        /* \"#utility.yul\":17829:17844   */\n      mstore\n        /* \"#utility.yul\":17863:17867   */\n      0x24\n        /* \"#utility.yul\":17860:17861   */\n      0x00\n        /* \"#utility.yul\":17853:17868   */\n      revert\n        /* \"#utility.yul\":17880:18060   */\n    tag_594:\n        /* \"#utility.yul\":17928:18005   */\n      0x4e487b7100000000000000000000000000000000000000000000000000000000\n        /* \"#utility.yul\":17925:17926   */\n      0x00\n        /* \"#utility.yul\":17918:18006   */\n      mstore\n        /* \"#utility.yul\":18025:18029   */\n      0x12\n        /* \"#utility.yul\":18022:18023   */\n      0x04\n        /* \"#utility.yul\":18015:18030   */\n      mstore\n        /* \"#utility.yul\":18049:18053   */\n      0x24\n        /* \"#utility.yul\":18046:18047   */\n      0x00\n        /* \"#utility.yul\":18039:18054   */\n      revert\n        /* \"#utility.yul\":18066:18246   */\n    tag_209:\n        /* \"#utility.yul\":18114:18191   */\n      0x4e487b7100000000000000000000000000000000000000000000000000000000\n        /* \"#utility.yul\":18111:18112   */\n      0x00\n        /* \"#utility.yul\":18104:18192   */\n      mstore\n        /* \"#utility.yul\":18211:18215   */\n      0x32\n        /* \"#utility.yul\":18208:18209   */\n      0x04\n        /* \"#utility.yul\":18201:18216   */\n      mstore\n        /* \"#utility.yul\":18235:18239   */\n      0x24\n        /* \"#utility.yul\":18232:18233   */\n      0x00\n        /* \"#utility.yul\":18225:18240   */\n      revert\n        /* \"#utility.yul\":18252:18432   */\n    tag_205:\n        /* \"#utility.yul\":18300:18377   */\n      0x4e487b7100000000000000000000000000000000000000000000000000000000\n        /* \"#utility.yul\":18297:18298   */\n      0x00\n        /* \"#utility.yul\":18290:18378   */\n      mstore\n        /* \"#utility.yul\":18397:18401   */\n      0x41\n        /* \"#utility.yul\":18394:18395   */\n      0x04\n        /* \"#utility.yul\":18387:18402   */\n      mstore\n        /* \"#utility.yul\":18421:18425   */\n      0x24\n        /* \"#utility.yul\":18418:18419   */\n      0x00\n        /* \"#utility.yul\":18411:18426   */\n      revert\n        /* \"#utility.yul\":18438:18555   */\n    tag_420:\n        /* \"#utility.yul\":18547:18548   */\n      0x00\n        /* \"#utility.yul\":18544:18545   */\n      dup1\n        /* \"#utility.yul\":18537:18549   */\n      revert\n        /* \"#utility.yul\":18561:18678   */\n    tag_406:\n        /* \"#utility.yul\":18670:18671   */\n      0x00\n        /* \"#utility.yul\":18667:18668   */\n      dup1\n        /* \"#utility.yul\":18660:18672   */\n      revert\n        /* \"#utility.yul\":18684:18801   */\n    tag_439:\n        /* \"#utility.yul\":18793:18794   */\n      0x00\n        /* \"#utility.yul\":18790:18791   */\n      dup1\n        /* \"#utility.yul\":18783:18795   */\n      revert\n        /* \"#utility.yul\":18807:18924   */\n    tag_432:\n        /* \"#utility.yul\":18916:18917   */\n      0x00\n        /* \"#utility.yul\":18913:18914   */\n      dup1\n        /* \"#utility.yul\":18906:18918   */\n      revert\n        /* \"#utility.yul\":18930:19032   */\n    tag_478:\n        /* \"#utility.yul\":18971:18977   */\n      0x00\n        /* \"#utility.yul\":19022:19024   */\n      0x1f\n        /* \"#utility.yul\":19018:19025   */\n      not\n        /* \"#utility.yul\":19013:19015   */\n      0x1f\n        /* \"#utility.yul\":19006:19011   */\n      dup4\n        /* \"#utility.yul\":19002:19016   */\n      add\n        /* \"#utility.yul\":18998:19026   */\n      and\n        /* \"#utility.yul\":18988:19026   */\n      swap1\n      pop\n        /* \"#utility.yul\":18930:19032   */\n      swap2\n      swap1\n      pop\n      jump\t// out\n        /* \"#utility.yul\":19038:19199   */\n    tag_483:\n        /* \"#utility.yul\":19178:19191   */\n      0x446964206e6f742077696e000000000000000000000000000000000000000000\n        /* \"#utility.yul\":19174:19175   */\n      0x00\n        /* \"#utility.yul\":19166:19172   */\n      dup3\n        /* \"#utility.yul\":19162:19176   */\n      add\n        /* \"#utility.yul\":19155:19192   */\n      mstore\n        /* \"#utility.yul\":19038:19199   */\n      pop\n      jump\t// out\n        /* \"#utility.yul\":19205:19368   */\n    tag_488:\n        /* \"#utility.yul\":19345:19360   */\n      0x4e6f742066696e616c697a656400000000000000000000000000000000000000\n        /* \"#utility.yul\":19341:19342   */\n      0x00\n        /* \"#utility.yul\":19333:19339   */\n      dup3\n        /* \"#utility.yul\":19329:19343   */\n      add\n        /* \"#utility.yul\":19322:19361   */\n      mstore\n        /* \"#utility.yul\":19205:19368   */\n      pop\n      jump\t// out\n        /* \"#utility.yul\":19374:19541   */\n    tag_493:\n        /* \"#utility.yul\":19514:19533   */\n      0x496e76616c69642074696d657374616d70000000000000000000000000000000\n        /* \"#utility.yul\":19510:19511   */\n      0x00\n        /* \"#utility.yul\":19502:19508   */\n      dup3\n        /* \"#utility.yul\":19498:19512   */\n      add\n        /* \"#utility.yul\":19491:19534   */\n      mstore\n        /* \"#utility.yul\":19374:19541   */\n      pop\n      jump\t// out\n        /* \"#utility.yul\":19547:19725   */\n    tag_498:\n        /* \"#utility.yul\":19687:19717   */\n      0x42657420626967676572207468616e2077696e6e696e6720706f6f6c00000000\n        /* \"#utility.yul\":19683:19684   */\n      0x00\n        /* \"#utility.yul\":19675:19681   */\n      dup3\n        /* \"#utility.yul\":19671:19685   */\n      add\n        /* \"#utility.yul\":19664:19718   */\n      mstore\n        /* \"#utility.yul\":19547:19725   */\n      pop\n      jump\t// out\n        /* \"#utility.yul\":19731:19896   */\n    tag_503:\n        /* \"#utility.yul\":19871:19888   */\n      0x416c726561647920636c61696d65640000000000000000000000000000000000\n        /* \"#utility.yul\":19867:19868   */\n      0x00\n        /* \"#utility.yul\":19859:19865   */\n      dup3\n        /* \"#utility.yul\":19855:19869   */\n      add\n        /* \"#utility.yul\":19848:19889   */\n      mstore\n        /* \"#utility.yul\":19731:19896   */\n      pop\n      jump\t// out\n        /* \"#utility.yul\":19902:20070   */\n    tag_508:\n        /* \"#utility.yul\":20042:20062   */\n      0x42657420616c726561647920706c616365640000000000000000000000000000\n        /* \"#utility.yul\":20038:20039   */\n      0x00\n        /* \"#utility.yul\":20030:20036   */\n      dup3\n        /* \"#utility.yul\":20026:20040   */\n      add\n        /* \"#utility.yul\":20019:20063   */\n      mstore\n        /* \"#utility.yul\":19902:20070   */\n      pop\n      jump\t// out\n        /* \"#utility.yul\":20076:20241   */\n    tag_513:\n        /* \"#utility.yul\":20216:20233   */\n      0x4e6f2076616c756520696d206265740000000000000000000000000000000000\n        /* \"#utility.yul\":20212:20213   */\n      0x00\n        /* \"#utility.yul\":20204:20210   */\n      dup3\n        /* \"#utility.yul\":20200:20214   */\n      add\n        /* \"#utility.yul\":20193:20234   */\n      mstore\n        /* \"#utility.yul\":20076:20241   */\n      pop\n      jump\t// out\n        /* \"#utility.yul\":20247:20413   */\n    tag_518:\n        /* \"#utility.yul\":20387:20405   */\n      0x50617373656420746865206c696d697400000000000000000000000000000000\n        /* \"#utility.yul\":20383:20384   */\n      0x00\n        /* \"#utility.yul\":20375:20381   */\n      dup3\n        /* \"#utility.yul\":20371:20385   */\n      add\n        /* \"#utility.yul\":20364:20406   */\n      mstore\n        /* \"#utility.yul\":20247:20413   */\n      pop\n      jump\t// out\n        /* \"#utility.yul\":20419:20586   */\n    tag_523:\n        /* \"#utility.yul\":20559:20578   */\n      0x416c72656164792066696e616c697a6564000000000000000000000000000000\n        /* \"#utility.yul\":20555:20556   */\n      0x00\n        /* \"#utility.yul\":20547:20553   */\n      dup3\n        /* \"#utility.yul\":20543:20557   */\n      add\n        /* \"#utility.yul\":20536:20579   */\n      mstore\n        /* \"#utility.yul\":20419:20586   */\n      pop\n      jump\t// out\n        /* \"#utility.yul\":20592:20714   */\n    tag_415:\n        /* \"#utility.yul\":20665:20689   */\n      tag_652\n        /* \"#utility.yul\":20683:20688   */\n      dup2\n        /* \"#utility.yul\":20665:20689   */\n      tag_452\n      jump\t// in\n    tag_652:\n        /* \"#utility.yul\":20658:20663   */\n      dup2\n        /* \"#utility.yul\":20655:20690   */\n      eq\n        /* \"#utility.yul\":20645:20708   */\n      tag_653\n      jumpi\n        /* \"#utility.yul\":20704:20705   */\n      0x00\n        /* \"#utility.yul\":20701:20702   */\n      dup1\n        /* \"#utility.yul\":20694:20706   */\n      revert\n        /* \"#utility.yul\":20645:20708   */\n    tag_653:\n        /* \"#utility.yul\":20592:20714   */\n      pop\n      jump\t// out\n        /* \"#utility.yul\":20720:20836   */\n    tag_425:\n        /* \"#utility.yul\":20790:20811   */\n      tag_655\n        /* \"#utility.yul\":20805:20810   */\n      dup2\n        /* \"#utility.yul\":20790:20811   */\n      tag_456\n      jump\t// in\n    tag_655:\n        /* \"#utility.yul\":20783:20788   */\n      dup2\n        /* \"#utility.yul\":20780:20812   */\n      eq\n        /* \"#utility.yul\":20770:20830   */\n      tag_656\n      jumpi\n        /* \"#utility.yul\":20826:20827   */\n      0x00\n        /* \"#utility.yul\":20823:20824   */\n      dup1\n        /* \"#utility.yul\":20816:20828   */\n      revert\n        /* \"#utility.yul\":20770:20830   */\n    tag_656:\n        /* \"#utility.yul\":20720:20836   */\n      pop\n      jump\t// out\n        /* \"#utility.yul\":20842:20964   */\n    tag_428:\n        /* \"#utility.yul\":20915:20939   */\n      tag_658\n        /* \"#utility.yul\":20933:20938   */\n      dup2\n        /* \"#utility.yul\":20915:20939   */\n      tag_527\n      jump\t// in\n    tag_658:\n        /* \"#utility.yul\":20908:20913   */\n      dup2\n        /* \"#utility.yul\":20905:20940   */\n      eq\n        /* \"#utility.yul\":20895:20958   */\n      tag_659\n      jumpi\n        /* \"#utility.yul\":20954:20955   */\n      0x00\n        /* \"#utility.yul\":20951:20952   */\n      dup1\n        /* \"#utility.yul\":20944:20956   */\n      revert\n        /* \"#utility.yul\":20895:20958   */\n    tag_659:\n        /* \"#utility.yul\":20842:20964   */\n      pop\n      jump\t// out\n\n    auxdata: 0xa26469706673582212206a39a96dd916dfc01842bfb79202937ff0228811d4bbf353ba728dffe05b44ff64736f6c63430008070033\n}\n",
				"bytecode": {
					"linkReferences": {},
					"object": "608060405260006002553480156200001657600080fd5b50604051620027563803806200275683398181016040528101906200003c919062000088565b82600081905550816001819055508060038190555050505062000131565b6000815190506200006b81620000fd565b92915050565b600081519050620000828162000117565b92915050565b600080600060608486031215620000a457620000a3620000f8565b5b6000620000b4868287016200005a565b9350506020620000c78682870162000071565b9250506040620000da8682870162000071565b9150509250925092565b6000819050919050565b6000819050919050565b600080fd5b6200010881620000e4565b81146200011457600080fd5b50565b6200012281620000ee565b81146200012e57600080fd5b50565b61261580620001416000396000f3fe6080604052600436106101145760003560e01c80637a1fc2e2116100a0578063c6788bdd11610064578063c6788bdd14610384578063e1152343146103c1578063efbe1c1c146103fe578063f50b2efe14610429578063f90c49241461045257610114565b80637a1fc2e21461028957806389a78f1a146102b4578063a3b5afb1146102f1578063b24ebfcc1461031c578063c274583a1461035957610114565b80633ce142f5116100e75780633ce142f5146101c85780634bb278f3146102055780634e71d92d1461021c57806355a547d5146102335780636f1d4ea41461025e57610114565b8063096a37781461011957806316934fc4146101355780631ce623831461017257806327793f871461019d575b600080fd5b610133600480360381019061012e9190611be9565b61047d565b005b34801561014157600080fd5b5061015c60048036038101906101579190611b73565b610705565b6040516101699190612013565b60405180910390f35b34801561017e57600080fd5b5061018761071d565b6040516101949190612013565b60405180910390f35b3480156101a957600080fd5b506101b2610723565b6040516101bf9190611e9b565b60405180910390f35b3480156101d457600080fd5b506101ef60048036038101906101ea9190611b73565b610729565b6040516101fc9190612057565b60405180910390f35b34801561021157600080fd5b5061021a6107be565b005b34801561022857600080fd5b5061023161089e565b005b34801561023f57600080fd5b50610248610b3f565b6040516102559190612013565b60405180910390f35b34801561026a57600080fd5b50610273610cac565b6040516102809190612013565b60405180910390f35b34801561029557600080fd5b5061029e610cb2565b6040516102ab9190612013565b60405180910390f35b3480156102c057600080fd5b506102db60048036038101906102d69190611b73565b610cb8565b6040516102e89190611eb6565b60405180910390f35b3480156102fd57600080fd5b50610306610cd8565b6040516103139190612013565b60405180910390f35b34801561032857600080fd5b50610343600480360381019061033e9190611ba0565b610cde565b6040516103509190612013565b60405180910390f35b34801561036557600080fd5b5061036e610cf0565b60405161037b9190611ed1565b60405180910390f35b34801561039057600080fd5b506103ab60048036038101906103a69190611b73565b610d2d565b6040516103b89190611e3b565b60405180910390f35b3480156103cd57600080fd5b506103e860048036038101906103e39190611c16565b610d4d565b6040516103f59190612013565b60405180910390f35b34801561040a57600080fd5b50610413610e2a565b6040516104209190612013565b60405180910390f35b34801561043557600080fd5b50610450600480360381019061044b9190611c16565b610e30565b005b34801561045e57600080fd5b50610467610e33565b6040516104749190612057565b60405180910390f35b60003414156104c1576040517f08c379a00000000000000000000000000000000000000000000000000000000081526004016104b890611fb3565b60405180910390fd5b6000600560003373ffffffffffffffffffffffffffffffffffffffff1673ffffffffffffffffffffffffffffffffffffffff16815260200190815260200160002060009054906101000a900460000b60000b14610553576040517f08c379a000000000000000000000000000000000000000000000000000000000815260040161054a90611f93565b60405180910390fd5b6003544210610597576040517f08c379a000000000000000000000000000000000000000000000000000000000815260040161058e90611fd3565b60405180910390fd5b8015610617576001600560003373ffffffffffffffffffffffffffffffffffffffff1673ffffffffffffffffffffffffffffffffffffffff16815260200190815260200160002060006101000a81548160ff021916908360000b60ff160217905550346008600082825461060b91906120df565b925050819055506106ac565b7fffffffffffffffffffffffffffffffffffffffffffffffffffffffffffffffff600560003373ffffffffffffffffffffffffffffffffffffffff1673ffffffffffffffffffffffffffffffffffffffff16815260200190815260200160002060006101000a81548160ff021916908360000b60ff16021790555034600960008282546106a491906120df565b925050819055505b34600660003373ffffffffffffffffffffffffffffffffffffffff1673ffffffffffffffffffffffffffffffffffffffff16815260200190815260200160002060008282546106fb91906120df565b9250508190555050565b60066020528060005260406000206000915090505481565b60015481565b60025481565b6000730c39486f770b26f5527bbbf942726537986cd7eb73ffffffffffffffffffffffffffffffffffffffff168273ffffffffffffffffffffffffffffffffffffffff16141561077c57600090506107b9565b816040517fec459bc00000000000000000000000000000000000000000000000000000000081526004016107b09190611e20565b60405180910390fd5b919050565b600060025414610803576040517f08c379a00000000000000000000000000000000000000000000000000000000081526004016107fa90611ff3565b60405180910390fd5b61080b610b3f565b6003541461084e576040517f08c379a000000000000000000000000000000000000000000000000000000000815260040161084590611f33565b60405180910390fd5b600061085b600054610e3c565b9050600154811061087357600160028190555061089b565b7fffffffffffffffffffffffffffffffffffffffffffffffffffffffffffffffff6002819055505b50565b600060025414156108e4576040517f08c379a00000000000000000000000000000000000000000000000000000000081526004016108db90611f13565b60405180910390fd5b600254600560003373ffffffffffffffffffffffffffffffffffffffff1673ffffffffffffffffffffffffffffffffffffffff16815260200190815260200160002060009054906101000a900460000b60000b14610977576040517f08c379a000000000000000000000000000000000000000000000000000000000815260040161096e90611ef3565b60405180910390fd5b60001515600760003373ffffffffffffffffffffffffffffffffffffffff1673ffffffffffffffffffffffffffffffffffffffff16815260200190815260200160002060009054906101000a900460ff16151514610a0a576040517f08c379a0000000000000000000000000000000000000000000000000000000008152600401610a0190611f73565b60405180910390fd5b6000600660003373ffffffffffffffffffffffffffffffffffffffff1673ffffffffffffffffffffffffffffffffffffffff1681526020019081526020016000205490503373ffffffffffffffffffffffffffffffffffffffff166108fc610a7183610d4d565b9081150290604051600060405180830381858888f19350505050158015610a9c573d6000803e3d6000fd5b503373ffffffffffffffffffffffffffffffffffffffff166108fc829081150290604051600060405180830381858888f19350505050158015610ae3573d6000803e3d6000fd5b506001600760003373ffffffffffffffffffffffffffffffffffffffff1673ffffffffffffffffffffffffffffffffffffffff16815260200190815260200160002060006101000a81548160ff02191690831515021790555050565b600080610b4a610ed8565b90506000610b5782610fe9565b8161ffff16915080935081925050506000811415610ba1576040517f8552ff3c00000000000000000000000000000000000000000000000000000000815260040160405180910390fd5b60005b81811015610ca6576000610bb784611059565b9050600080606886610bc991906120df565b90506000816000369050610bdd91906121c0565b90508035925060008365ffffffffffff161415610c26576040517f336dc9d000000000000000000000000000000000000000000000000000000000815260040160405180910390fd5b6000881415610c3f578265ffffffffffff169750610c81565b878365ffffffffffff1614610c80576040517fd9d1f46500000000000000000000000000000000000000000000000000000000815260040160405180910390fd5b5b8387610c8d91906120df565b9650505050508080610c9e906122ce565b915050610ba4565b50505090565b60085481565b60045481565b60056020528060005260406000206000915054906101000a900460000b81565b60095481565b6000610ce982611098565b9050919050565b60606040518060400160405280601281526020017f72656473746f6e652d6d61696e2d64656d6f0000000000000000000000000000815250905090565b60076020528060005260406000206000915054906101000a900460ff1681565b6000806305f5e10090506000600160025414610d6b57600954610d6f565b6008545b905080841115610db4576040517f08c379a0000000000000000000000000000000000000000000000000000000008152600401610dab90611f53565b60405180910390fd5b60007fffffffffffffffffffffffffffffffffffffffffffffffffffffffffffffffff60025414610de757600854610deb565b6009545b90506000828487610dfc9190612166565b610e069190612135565b9050838282610e159190612166565b610e1f9190612135565b945050505050919050565b60035481565b50565b60006001905090565b600080600167ffffffffffffffff811115610e5a57610e596123d5565b5b604051908082528060200260200182016040528015610e885781602001602082028036833780820191505090505b5090508281600081518110610ea057610e9f6123a6565b5b602002602001018181525050610eb5816110aa565b600081518110610ec857610ec76123a6565b5b6020026020010151915050919050565b60008060203603356602ed57011e000081166602ed57011e00001491505080610f2d576040517fe7764c9e00000000000000000000000000000000000000000000000000000000815260040160405180910390fd5b60008036905060291115610f6d576040517f5796f78a00000000000000000000000000000000000000000000000000000000815260040160405180910390fd5b602936033590506000600960038362ffffff16610f8a91906120df565b610f9491906120df565b90506000369050600282610fa891906120df565b1115610fe0576040517fc30a7bd700000000000000000000000000000000000000000000000000000000815260040160405180910390fd5b80935050505090565b6000806000602084610ffb91906120df565b9050600036905081111561103b576040517f5796f78a00000000000000000000000000000000000000000000000000000000815260040160405180910390fd5b8036033592508260028561104f91906120df565b9250925050915091565b6000806000611067846110cf565b91509150604e81602061107a91906120df565b836110859190612166565b61108f91906120df565b92505050919050565b60006110a382611131565b9050919050565b60606000806110b884611289565b915091506110c581610e30565b8192505050919050565b600080600080600060206041876110e691906120df565b6110f091906120df565b60003690506110ff91906121c0565b90508035925060038161111291906121c0565b9050803591508262ffffff1694508163ffffffff169350505050915091565b600060028251141561119257600282600181518110611153576111526123a6565b5b60200260200101518360008151811061116f5761116e6123a6565b5b602002602001015161118191906120df565b61118b9190612135565b9050611284565b6000825114156111ce576040517f9e198af900000000000000000000000000000000000000000000000000000000815260040160405180910390fd5b6111d782611505565b6000600283516111e79190612135565b90506000600284516111f99190612317565b1415611265576000838281518110611214576112136123a6565b5b60200260200101518460018461122a91906121c0565b8151811061123b5761123a6123a6565b5b602002602001015161124d91906120df565b905060028161125c9190612135565b92505050611284565b828181518110611278576112776123a6565b5b60200260200101519150505b919050565b6060600080835167ffffffffffffffff8111156112a9576112a86123d5565b5b6040519080825280602002602001820160405280156112d75781602001602082028036833780820191505090505b5090506000845167ffffffffffffffff8111156112f7576112f66123d5565b5b6040519080825280602002602001820160405280156113255781602001602082028036833780820191505090505b5090506000855167ffffffffffffffff811115611345576113446123d5565b5b60405190808252806020026020018201604052801561137857816020015b60608152602001906001900390816113635790505b50905060005b86518110156114055761138f610e33565b60ff1667ffffffffffffffff8111156113ab576113aa6123d5565b5b6040519080825280602002602001820160405280156113d95781602001602082028036833780820191505090505b508282815181106113ed576113ec6123a6565b5b6020026020010181905250808060010191505061137e565b506000611410610ed8565b9050600061141d82610fe9565b8161ffff16915080935081925050506000604051905060005b828110156114ed57600061144d8b89898989611558565b80925081965050506000811415611490576040517fdfb25a7900000000000000000000000000000000000000000000000000000000815260040160405180910390fd5b8881141580156114a1575060008914155b156114d8576040517f4cbc474200000000000000000000000000000000000000000000000000000000815260040160405180910390fd5b80985082604052818060010192505050611436565b506114f88487611825565b9750505050505050915091565b805160208201602082028101815b8181101561155157825b81811015611545578151815180821015611538578084528183525b505060208101905061151d565b50602081019050611513565b5050505050565b6000806000806000611569866110cf565b915091506000806060600080600d60208761158491906120df565b8861158f9190612166565b61159991906120df565b9150600060688c6115aa91906120df565b60003690506115b991906121c0565b905060008360418e6115cb91906120df565b6115d591906120df565b60003690506115e491906121c0565b90506115f0848261161e565b945083602086012095508135925061163a565b60006040519050818152602081019050818101604052919050565b600061162983611603565b838382376020810391505092915050565b8265ffffffffffff169a5061165b8660418f61165691906120df565b611972565b965061166687610729565b60ff16995050505050505050604e8661167f91906120df565b955060008060005b84811015611812576020848a61169d91906120df565b6116a791906120df565b98506116b389856119f1565b809350819450505060005b8d51811015611804578d81815181106116da576116d96123a6565b5b60200260200101518414156117f75760008c82815181106116fe576116fd6123a6565b5b602002602001015190506117128189611a6c565b1580156117425750611722610e33565b60ff168e8381518110611738576117376123a6565b5b6020026020010151105b156117f157838c838151811061175b5761175a6123a6565b5b60200260200101518f8481518110611776576117756123a6565b5b60200260200101518151811061178f5761178e6123a6565b5b6020026020010181815250508d82815181106117ae576117ad6123a6565b5b6020026020010180518091906117c3906122ce565b815250506117d18189611a85565b8d83815181106117e4576117e36123a6565b5b6020026020010181815250505b50611804565b80806001019150506116be565b508080600101915050611687565b5050508594505050509550959350505050565b60606000835167ffffffffffffffff811115611844576118436123d5565b5b6040519080825280602002602001820160405280156118725781602001602082028036833780820191505090505b509050600061187f610e33565b60ff16905060005b855181101561196657818582815181106118a4576118a36123a6565b5b6020026020010151101561190b578481815181106118c5576118c46123a6565b5b6020026020010151826040517f2b13aef500000000000000000000000000000000000000000000000000000000815260040161190292919061202e565b60405180910390fd5b6000611930878381518110611923576119226123a6565b5b6020026020010151610cde565b905080848381518110611946576119456123a6565b5b60200260200101818152505050808061195e906122ce565b915050611887565b50819250505092915050565b6000806000808436038035935060208101905080359250602081019050803560001a915050600186828585604051600081526020016040526040516119ba9493929190611e56565b6020604051602081039080840390855afa1580156119dc573d6000803e3d6000fd5b50505060206040510351935050505092915050565b6000806000846000369050611a0691906121c0565b9050803592506020810135915060218410611a5857836040517fc000fc42000000000000000000000000000000000000000000000000000000008152600401611a4f9190612013565b60405180910390fd5b6008846020030282901c9150509250929050565b600080826001901b841690506000811191505092915050565b6000816001901b8317905092915050565b6000611aa9611aa484612097565b612072565b90508083825260208201905082856020860282011115611acc57611acb612409565b5b60005b85811015611afc5781611ae28882611b5e565b845260208401935060208301925050600181019050611acf565b5050509392505050565b600081359050611b158161259a565b92915050565b600082601f830112611b3057611b2f612404565b5b8135611b40848260208601611a96565b91505092915050565b600081359050611b58816125b1565b92915050565b600081359050611b6d816125c8565b92915050565b600060208284031215611b8957611b88612413565b5b6000611b9784828501611b06565b91505092915050565b600060208284031215611bb657611bb5612413565b5b600082013567ffffffffffffffff811115611bd457611bd361240e565b5b611be084828501611b1b565b91505092915050565b600060208284031215611bff57611bfe612413565b5b6000611c0d84828501611b49565b91505092915050565b600060208284031215611c2c57611c2b612413565b5b6000611c3a84828501611b5e565b91505092915050565b611c4c816121f4565b82525050565b611c5b81612206565b82525050565b611c6a81612212565b82525050565b611c798161221c565b82525050565b611c8881612226565b82525050565b6000611c99826120c3565b611ca381856120ce565b9350611cb381856020860161226a565b611cbc81612418565b840191505092915050565b6000611cd4600b836120ce565b9150611cdf82612429565b602082019050919050565b6000611cf7600d836120ce565b9150611d0282612452565b602082019050919050565b6000611d1a6011836120ce565b9150611d258261247b565b602082019050919050565b6000611d3d601c836120ce565b9150611d48826124a4565b602082019050919050565b6000611d60600f836120ce565b9150611d6b826124cd565b602082019050919050565b6000611d836012836120ce565b9150611d8e826124f6565b602082019050919050565b6000611da6600f836120ce565b9150611db18261251f565b602082019050919050565b6000611dc96010836120ce565b9150611dd482612548565b602082019050919050565b6000611dec6011836120ce565b9150611df782612571565b602082019050919050565b611e0b81612253565b82525050565b611e1a8161225d565b82525050565b6000602082019050611e356000830184611c43565b92915050565b6000602082019050611e506000830184611c52565b92915050565b6000608082019050611e6b6000830187611c61565b611e786020830186611e11565b611e856040830185611c61565b611e926060830184611c61565b95945050505050565b6000602082019050611eb06000830184611c70565b92915050565b6000602082019050611ecb6000830184611c7f565b92915050565b60006020820190508181036000830152611eeb8184611c8e565b905092915050565b60006020820190508181036000830152611f0c81611cc7565b9050919050565b60006020820190508181036000830152611f2c81611cea565b9050919050565b60006020820190508181036000830152611f4c81611d0d565b9050919050565b60006020820190508181036000830152611f6c81611d30565b9050919050565b60006020820190508181036000830152611f8c81611d53565b9050919050565b60006020820190508181036000830152611fac81611d76565b9050919050565b60006020820190508181036000830152611fcc81611d99565b9050919050565b60006020820190508181036000830152611fec81611dbc565b9050919050565b6000602082019050818103600083015261200c81611ddf565b9050919050565b60006020820190506120286000830184611e02565b92915050565b60006040820190506120436000830185611e02565b6120506020830184611e02565b9392505050565b600060208201905061206c6000830184611e11565b92915050565b600061207c61208d565b9050612088828261229d565b919050565b6000604051905090565b600067ffffffffffffffff8211156120b2576120b16123d5565b5b602082029050602081019050919050565b600081519050919050565b600082825260208201905092915050565b60006120ea82612253565b91506120f583612253565b9250827fffffffffffffffffffffffffffffffffffffffffffffffffffffffffffffffff0382111561212a57612129612348565b5b828201905092915050565b600061214082612253565b915061214b83612253565b92508261215b5761215a612377565b5b828204905092915050565b600061217182612253565b915061217c83612253565b9250817fffffffffffffffffffffffffffffffffffffffffffffffffffffffffffffffff04831182151516156121b5576121b4612348565b5b828202905092915050565b60006121cb82612253565b91506121d683612253565b9250828210156121e9576121e8612348565b5b828203905092915050565b60006121ff82612233565b9050919050565b60008115159050919050565b6000819050919050565b6000819050919050565b60008160000b9050919050565b600073ffffffffffffffffffffffffffffffffffffffff82169050919050565b6000819050919050565b600060ff82169050919050565b60005b8381101561228857808201518184015260208101905061226d565b83811115612297576000848401525b50505050565b6122a682612418565b810181811067ffffffffffffffff821117156122c5576122c46123d5565b5b80604052505050565b60006122d982612253565b91507fffffffffffffffffffffffffffffffffffffffffffffffffffffffffffffffff82141561230c5761230b612348565b5b600182019050919050565b600061232282612253565b915061232d83612253565b92508261233d5761233c612377565b5b828206905092915050565b7f4e487b7100000000000000000000000000000000000000000000000000000000600052601160045260246000fd5b7f4e487b7100000000000000000000000000000000000000000000000000000000600052601260045260246000fd5b7f4e487b7100000000000000000000000000000000000000000000000000000000600052603260045260246000fd5b7f4e487b7100000000000000000000000000000000000000000000000000000000600052604160045260246000fd5b600080fd5b600080fd5b600080fd5b600080fd5b6000601f19601f8301169050919050565b7f446964206e6f742077696e000000000000000000000000000000000000000000600082015250565b7f4e6f742066696e616c697a656400000000000000000000000000000000000000600082015250565b7f496e76616c69642074696d657374616d70000000000000000000000000000000600082015250565b7f42657420626967676572207468616e2077696e6e696e6720706f6f6c00000000600082015250565b7f416c726561647920636c61696d65640000000000000000000000000000000000600082015250565b7f42657420616c726561647920706c616365640000000000000000000000000000600082015250565b7f4e6f2076616c756520696d206265740000000000000000000000000000000000600082015250565b7f50617373656420746865206c696d697400000000000000000000000000000000600082015250565b7f416c72656164792066696e616c697a6564000000000000000000000000000000600082015250565b6125a3816121f4565b81146125ae57600080fd5b50565b6125ba81612206565b81146125c557600080fd5b50565b6125d181612253565b81146125dc57600080fd5b5056fea26469706673582212206a39a96dd916dfc01842bfb79202937ff0228811d4bbf353ba728dffe05b44ff64736f6c63430008070033",
					"opcodes": "PUSH1 0x80 PUSH1 0x40 MSTORE PUSH1 0x0 PUSH1 0x2 SSTORE CALLVALUE DUP1 ISZERO PUSH3 0x16 JUMPI PUSH1 0x0 DUP1 REVERT JUMPDEST POP PUSH1 0x40 MLOAD PUSH3 0x2756 CODESIZE SUB DUP1 PUSH3 0x2756 DUP4 CODECOPY DUP2 DUP2 ADD PUSH1 0x40 MSTORE DUP2 ADD SWAP1 PUSH3 0x3C SWAP2 SWAP1 PUSH3 0x88 JUMP JUMPDEST DUP3 PUSH1 0x0 DUP2 SWAP1 SSTORE POP DUP2 PUSH1 0x1 DUP2 SWAP1 SSTORE POP DUP1 PUSH1 0x3 DUP2 SWAP1 SSTORE POP POP POP POP PUSH3 0x131 JUMP JUMPDEST PUSH1 0x0 DUP2 MLOAD SWAP1 POP PUSH3 0x6B DUP2 PUSH3 0xFD JUMP JUMPDEST SWAP3 SWAP2 POP POP JUMP JUMPDEST PUSH1 0x0 DUP2 MLOAD SWAP1 POP PUSH3 0x82 DUP2 PUSH3 0x117 JUMP JUMPDEST SWAP3 SWAP2 POP POP JUMP JUMPDEST PUSH1 0x0 DUP1 PUSH1 0x0 PUSH1 0x60 DUP5 DUP7 SUB SLT ISZERO PUSH3 0xA4 JUMPI PUSH3 0xA3 PUSH3 0xF8 JUMP JUMPDEST JUMPDEST PUSH1 0x0 PUSH3 0xB4 DUP7 DUP3 DUP8 ADD PUSH3 0x5A JUMP JUMPDEST SWAP4 POP POP PUSH1 0x20 PUSH3 0xC7 DUP7 DUP3 DUP8 ADD PUSH3 0x71 JUMP JUMPDEST SWAP3 POP POP PUSH1 0x40 PUSH3 0xDA DUP7 DUP3 DUP8 ADD PUSH3 0x71 JUMP JUMPDEST SWAP2 POP POP SWAP3 POP SWAP3 POP SWAP3 JUMP JUMPDEST PUSH1 0x0 DUP2 SWAP1 POP SWAP2 SWAP1 POP JUMP JUMPDEST PUSH1 0x0 DUP2 SWAP1 POP SWAP2 SWAP1 POP JUMP JUMPDEST PUSH1 0x0 DUP1 REVERT JUMPDEST PUSH3 0x108 DUP2 PUSH3 0xE4 JUMP JUMPDEST DUP2 EQ PUSH3 0x114 JUMPI PUSH1 0x0 DUP1 REVERT JUMPDEST POP JUMP JUMPDEST PUSH3 0x122 DUP2 PUSH3 0xEE JUMP JUMPDEST DUP2 EQ PUSH3 0x12E JUMPI PUSH1 0x0 DUP1 REVERT JUMPDEST POP JUMP JUMPDEST PUSH2 0x2615 DUP1 PUSH3 0x141 PUSH1 0x0 CODECOPY PUSH1 0x0 RETURN INVALID PUSH1 0x80 PUSH1 0x40 MSTORE PUSH1 0x4 CALLDATASIZE LT PUSH2 0x114 JUMPI PUSH1 0x0 CALLDATALOAD PUSH1 0xE0 SHR DUP1 PUSH4 0x7A1FC2E2 GT PUSH2 0xA0 JUMPI DUP1 PUSH4 0xC6788BDD GT PUSH2 0x64 JUMPI DUP1 PUSH4 0xC6788BDD EQ PUSH2 0x384 JUMPI DUP1 PUSH4 0xE1152343 EQ PUSH2 0x3C1 JUMPI DUP1 PUSH4 0xEFBE1C1C EQ PUSH2 0x3FE JUMPI DUP1 PUSH4 0xF50B2EFE EQ PUSH2 0x429 JUMPI DUP1 PUSH4 0xF90C4924 EQ PUSH2 0x452 JUMPI PUSH2 0x114 JUMP JUMPDEST DUP1 PUSH4 0x7A1FC2E2 EQ PUSH2 0x289 JUMPI DUP1 PUSH4 0x89A78F1A EQ PUSH2 0x2B4 JUMPI DUP1 PUSH4 0xA3B5AFB1 EQ PUSH2 0x2F1 JUMPI DUP1 PUSH4 0xB24EBFCC EQ PUSH2 0x31C JUMPI DUP1 PUSH4 0xC274583A EQ PUSH2 0x359 JUMPI PUSH2 0x114 JUMP JUMPDEST DUP1 PUSH4 0x3CE142F5 GT PUSH2 0xE7 JUMPI DUP1 PUSH4 0x3CE142F5 EQ PUSH2 0x1C8 JUMPI DUP1 PUSH4 0x4BB278F3 EQ PUSH2 0x205 JUMPI DUP1 PUSH4 0x4E71D92D EQ PUSH2 0x21C JUMPI DUP1 PUSH4 0x55A547D5 EQ PUSH2 0x233 JUMPI DUP1 PUSH4 0x6F1D4EA4 EQ PUSH2 0x25E JUMPI PUSH2 0x114 JUMP JUMPDEST DUP1 PUSH4 0x96A3778 EQ PUSH2 0x119 JUMPI DUP1 PUSH4 0x16934FC4 EQ PUSH2 0x135 JUMPI DUP1 PUSH4 0x1CE62383 EQ PUSH2 0x172 JUMPI DUP1 PUSH4 0x27793F87 EQ PUSH2 0x19D JUMPI JUMPDEST PUSH1 0x0 DUP1 REVERT JUMPDEST PUSH2 0x133 PUSH1 0x4 DUP1 CALLDATASIZE SUB DUP2 ADD SWAP1 PUSH2 0x12E SWAP2 SWAP1 PUSH2 0x1BE9 JUMP JUMPDEST PUSH2 0x47D JUMP JUMPDEST STOP JUMPDEST CALLVALUE DUP1 ISZERO PUSH2 0x141 JUMPI PUSH1 0x0 DUP1 REVERT JUMPDEST POP PUSH2 0x15C PUSH1 0x4 DUP1 CALLDATASIZE SUB DUP2 ADD SWAP1 PUSH2 0x157 SWAP2 SWAP1 PUSH2 0x1B73 JUMP JUMPDEST PUSH2 0x705 JUMP JUMPDEST PUSH1 0x40 MLOAD PUSH2 0x169 SWAP2 SWAP1 PUSH2 0x2013 JUMP JUMPDEST PUSH1 0x40 MLOAD DUP1 SWAP2 SUB SWAP1 RETURN JUMPDEST CALLVALUE DUP1 ISZERO PUSH2 0x17E JUMPI PUSH1 0x0 DUP1 REVERT JUMPDEST POP PUSH2 0x187 PUSH2 0x71D JUMP JUMPDEST PUSH1 0x40 MLOAD PUSH2 0x194 SWAP2 SWAP1 PUSH2 0x2013 JUMP JUMPDEST PUSH1 0x40 MLOAD DUP1 SWAP2 SUB SWAP1 RETURN JUMPDEST CALLVALUE DUP1 ISZERO PUSH2 0x1A9 JUMPI PUSH1 0x0 DUP1 REVERT JUMPDEST POP PUSH2 0x1B2 PUSH2 0x723 JUMP JUMPDEST PUSH1 0x40 MLOAD PUSH2 0x1BF SWAP2 SWAP1 PUSH2 0x1E9B JUMP JUMPDEST PUSH1 0x40 MLOAD DUP1 SWAP2 SUB SWAP1 RETURN JUMPDEST CALLVALUE DUP1 ISZERO PUSH2 0x1D4 JUMPI PUSH1 0x0 DUP1 REVERT JUMPDEST POP PUSH2 0x1EF PUSH1 0x4 DUP1 CALLDATASIZE SUB DUP2 ADD SWAP1 PUSH2 0x1EA SWAP2 SWAP1 PUSH2 0x1B73 JUMP JUMPDEST PUSH2 0x729 JUMP JUMPDEST PUSH1 0x40 MLOAD PUSH2 0x1FC SWAP2 SWAP1 PUSH2 0x2057 JUMP JUMPDEST PUSH1 0x40 MLOAD DUP1 SWAP2 SUB SWAP1 RETURN JUMPDEST CALLVALUE DUP1 ISZERO PUSH2 0x211 JUMPI PUSH1 0x0 DUP1 REVERT JUMPDEST POP PUSH2 0x21A PUSH2 0x7BE JUMP JUMPDEST STOP JUMPDEST CALLVALUE DUP1 ISZERO PUSH2 0x228 JUMPI PUSH1 0x0 DUP1 REVERT JUMPDEST POP PUSH2 0x231 PUSH2 0x89E JUMP JUMPDEST STOP JUMPDEST CALLVALUE DUP1 ISZERO PUSH2 0x23F JUMPI PUSH1 0x0 DUP1 REVERT JUMPDEST POP PUSH2 0x248 PUSH2 0xB3F JUMP JUMPDEST PUSH1 0x40 MLOAD PUSH2 0x255 SWAP2 SWAP1 PUSH2 0x2013 JUMP JUMPDEST PUSH1 0x40 MLOAD DUP1 SWAP2 SUB SWAP1 RETURN JUMPDEST CALLVALUE DUP1 ISZERO PUSH2 0x26A JUMPI PUSH1 0x0 DUP1 REVERT JUMPDEST POP PUSH2 0x273 PUSH2 0xCAC JUMP JUMPDEST PUSH1 0x40 MLOAD PUSH2 0x280 SWAP2 SWAP1 PUSH2 0x2013 JUMP JUMPDEST PUSH1 0x40 MLOAD DUP1 SWAP2 SUB SWAP1 RETURN JUMPDEST CALLVALUE DUP1 ISZERO PUSH2 0x295 JUMPI PUSH1 0x0 DUP1 REVERT JUMPDEST POP PUSH2 0x29E PUSH2 0xCB2 JUMP JUMPDEST PUSH1 0x40 MLOAD PUSH2 0x2AB SWAP2 SWAP1 PUSH2 0x2013 JUMP JUMPDEST PUSH1 0x40 MLOAD DUP1 SWAP2 SUB SWAP1 RETURN JUMPDEST CALLVALUE DUP1 ISZERO PUSH2 0x2C0 JUMPI PUSH1 0x0 DUP1 REVERT JUMPDEST POP PUSH2 0x2DB PUSH1 0x4 DUP1 CALLDATASIZE SUB DUP2 ADD SWAP1 PUSH2 0x2D6 SWAP2 SWAP1 PUSH2 0x1B73 JUMP JUMPDEST PUSH2 0xCB8 JUMP JUMPDEST PUSH1 0x40 MLOAD PUSH2 0x2E8 SWAP2 SWAP1 PUSH2 0x1EB6 JUMP JUMPDEST PUSH1 0x40 MLOAD DUP1 SWAP2 SUB SWAP1 RETURN JUMPDEST CALLVALUE DUP1 ISZERO PUSH2 0x2FD JUMPI PUSH1 0x0 DUP1 REVERT JUMPDEST POP PUSH2 0x306 PUSH2 0xCD8 JUMP JUMPDEST PUSH1 0x40 MLOAD PUSH2 0x313 SWAP2 SWAP1 PUSH2 0x2013 JUMP JUMPDEST PUSH1 0x40 MLOAD DUP1 SWAP2 SUB SWAP1 RETURN JUMPDEST CALLVALUE DUP1 ISZERO PUSH2 0x328 JUMPI PUSH1 0x0 DUP1 REVERT JUMPDEST POP PUSH2 0x343 PUSH1 0x4 DUP1 CALLDATASIZE SUB DUP2 ADD SWAP1 PUSH2 0x33E SWAP2 SWAP1 PUSH2 0x1BA0 JUMP JUMPDEST PUSH2 0xCDE JUMP JUMPDEST PUSH1 0x40 MLOAD PUSH2 0x350 SWAP2 SWAP1 PUSH2 0x2013 JUMP JUMPDEST PUSH1 0x40 MLOAD DUP1 SWAP2 SUB SWAP1 RETURN JUMPDEST CALLVALUE DUP1 ISZERO PUSH2 0x365 JUMPI PUSH1 0x0 DUP1 REVERT JUMPDEST POP PUSH2 0x36E PUSH2 0xCF0 JUMP JUMPDEST PUSH1 0x40 MLOAD PUSH2 0x37B SWAP2 SWAP1 PUSH2 0x1ED1 JUMP JUMPDEST PUSH1 0x40 MLOAD DUP1 SWAP2 SUB SWAP1 RETURN JUMPDEST CALLVALUE DUP1 ISZERO PUSH2 0x390 JUMPI PUSH1 0x0 DUP1 REVERT JUMPDEST POP PUSH2 0x3AB PUSH1 0x4 DUP1 CALLDATASIZE SUB DUP2 ADD SWAP1 PUSH2 0x3A6 SWAP2 SWAP1 PUSH2 0x1B73 JUMP JUMPDEST PUSH2 0xD2D JUMP JUMPDEST PUSH1 0x40 MLOAD PUSH2 0x3B8 SWAP2 SWAP1 PUSH2 0x1E3B JUMP JUMPDEST PUSH1 0x40 MLOAD DUP1 SWAP2 SUB SWAP1 RETURN JUMPDEST CALLVALUE DUP1 ISZERO PUSH2 0x3CD JUMPI PUSH1 0x0 DUP1 REVERT JUMPDEST POP PUSH2 0x3E8 PUSH1 0x4 DUP1 CALLDATASIZE SUB DUP2 ADD SWAP1 PUSH2 0x3E3 SWAP2 SWAP1 PUSH2 0x1C16 JUMP JUMPDEST PUSH2 0xD4D JUMP JUMPDEST PUSH1 0x40 MLOAD PUSH2 0x3F5 SWAP2 SWAP1 PUSH2 0x2013 JUMP JUMPDEST PUSH1 0x40 MLOAD DUP1 SWAP2 SUB SWAP1 RETURN JUMPDEST CALLVALUE DUP1 ISZERO PUSH2 0x40A JUMPI PUSH1 0x0 DUP1 REVERT JUMPDEST POP PUSH2 0x413 PUSH2 0xE2A JUMP JUMPDEST PUSH1 0x40 MLOAD PUSH2 0x420 SWAP2 SWAP1 PUSH2 0x2013 JUMP JUMPDEST PUSH1 0x40 MLOAD DUP1 SWAP2 SUB SWAP1 RETURN JUMPDEST CALLVALUE DUP1 ISZERO PUSH2 0x435 JUMPI PUSH1 0x0 DUP1 REVERT JUMPDEST POP PUSH2 0x450 PUSH1 0x4 DUP1 CALLDATASIZE SUB DUP2 ADD SWAP1 PUSH2 0x44B SWAP2 SWAP1 PUSH2 0x1C16 JUMP JUMPDEST PUSH2 0xE30 JUMP JUMPDEST STOP JUMPDEST CALLVALUE DUP1 ISZERO PUSH2 0x45E JUMPI PUSH1 0x0 DUP1 REVERT JUMPDEST POP PUSH2 0x467 PUSH2 0xE33 JUMP JUMPDEST PUSH1 0x40 MLOAD PUSH2 0x474 SWAP2 SWAP1 PUSH2 0x2057 JUMP JUMPDEST PUSH1 0x40 MLOAD DUP1 SWAP2 SUB SWAP1 RETURN JUMPDEST PUSH1 0x0 CALLVALUE EQ ISZERO PUSH2 0x4C1 JUMPI PUSH1 0x40 MLOAD PUSH32 0x8C379A000000000000000000000000000000000000000000000000000000000 DUP2 MSTORE PUSH1 0x4 ADD PUSH2 0x4B8 SWAP1 PUSH2 0x1FB3 JUMP JUMPDEST PUSH1 0x40 MLOAD DUP1 SWAP2 SUB SWAP1 REVERT JUMPDEST PUSH1 0x0 PUSH1 0x5 PUSH1 0x0 CALLER PUSH20 0xFFFFFFFFFFFFFFFFFFFFFFFFFFFFFFFFFFFFFFFF AND PUSH20 0xFFFFFFFFFFFFFFFFFFFFFFFFFFFFFFFFFFFFFFFF AND DUP2 MSTORE PUSH1 0x20 ADD SWAP1 DUP2 MSTORE PUSH1 0x20 ADD PUSH1 0x0 KECCAK256 PUSH1 0x0 SWAP1 SLOAD SWAP1 PUSH2 0x100 EXP SWAP1 DIV PUSH1 0x0 SIGNEXTEND PUSH1 0x0 SIGNEXTEND EQ PUSH2 0x553 JUMPI PUSH1 0x40 MLOAD PUSH32 0x8C379A000000000000000000000000000000000000000000000000000000000 DUP2 MSTORE PUSH1 0x4 ADD PUSH2 0x54A SWAP1 PUSH2 0x1F93 JUMP JUMPDEST PUSH1 0x40 MLOAD DUP1 SWAP2 SUB SWAP1 REVERT JUMPDEST PUSH1 0x3 SLOAD TIMESTAMP LT PUSH2 0x597 JUMPI PUSH1 0x40 MLOAD PUSH32 0x8C379A000000000000000000000000000000000000000000000000000000000 DUP2 MSTORE PUSH1 0x4 ADD PUSH2 0x58E SWAP1 PUSH2 0x1FD3 JUMP JUMPDEST PUSH1 0x40 MLOAD DUP1 SWAP2 SUB SWAP1 REVERT JUMPDEST DUP1 ISZERO PUSH2 0x617 JUMPI PUSH1 0x1 PUSH1 0x5 PUSH1 0x0 CALLER PUSH20 0xFFFFFFFFFFFFFFFFFFFFFFFFFFFFFFFFFFFFFFFF AND PUSH20 0xFFFFFFFFFFFFFFFFFFFFFFFFFFFFFFFFFFFFFFFF AND DUP2 MSTORE PUSH1 0x20 ADD SWAP1 DUP2 MSTORE PUSH1 0x20 ADD PUSH1 0x0 KECCAK256 PUSH1 0x0 PUSH2 0x100 EXP DUP2 SLOAD DUP2 PUSH1 0xFF MUL NOT AND SWAP1 DUP4 PUSH1 0x0 SIGNEXTEND PUSH1 0xFF AND MUL OR SWAP1 SSTORE POP CALLVALUE PUSH1 0x8 PUSH1 0x0 DUP3 DUP3 SLOAD PUSH2 0x60B SWAP2 SWAP1 PUSH2 0x20DF JUMP JUMPDEST SWAP3 POP POP DUP2 SWAP1 SSTORE POP PUSH2 0x6AC JUMP JUMPDEST PUSH32 0xFFFFFFFFFFFFFFFFFFFFFFFFFFFFFFFFFFFFFFFFFFFFFFFFFFFFFFFFFFFFFFFF PUSH1 0x5 PUSH1 0x0 CALLER PUSH20 0xFFFFFFFFFFFFFFFFFFFFFFFFFFFFFFFFFFFFFFFF AND PUSH20 0xFFFFFFFFFFFFFFFFFFFFFFFFFFFFFFFFFFFFFFFF AND DUP2 MSTORE PUSH1 0x20 ADD SWAP1 DUP2 MSTORE PUSH1 0x20 ADD PUSH1 0x0 KECCAK256 PUSH1 0x0 PUSH2 0x100 EXP DUP2 SLOAD DUP2 PUSH1 0xFF MUL NOT AND SWAP1 DUP4 PUSH1 0x0 SIGNEXTEND PUSH1 0xFF AND MUL OR SWAP1 SSTORE POP CALLVALUE PUSH1 0x9 PUSH1 0x0 DUP3 DUP3 SLOAD PUSH2 0x6A4 SWAP2 SWAP1 PUSH2 0x20DF JUMP JUMPDEST SWAP3 POP POP DUP2 SWAP1 SSTORE POP JUMPDEST CALLVALUE PUSH1 0x6 PUSH1 0x0 CALLER PUSH20 0xFFFFFFFFFFFFFFFFFFFFFFFFFFFFFFFFFFFFFFFF AND PUSH20 0xFFFFFFFFFFFFFFFFFFFFFFFFFFFFFFFFFFFFFFFF AND DUP2 MSTORE PUSH1 0x20 ADD SWAP1 DUP2 MSTORE PUSH1 0x20 ADD PUSH1 0x0 KECCAK256 PUSH1 0x0 DUP3 DUP3 SLOAD PUSH2 0x6FB SWAP2 SWAP1 PUSH2 0x20DF JUMP JUMPDEST SWAP3 POP POP DUP2 SWAP1 SSTORE POP POP JUMP JUMPDEST PUSH1 0x6 PUSH1 0x20 MSTORE DUP1 PUSH1 0x0 MSTORE PUSH1 0x40 PUSH1 0x0 KECCAK256 PUSH1 0x0 SWAP2 POP SWAP1 POP SLOAD DUP2 JUMP JUMPDEST PUSH1 0x1 SLOAD DUP2 JUMP JUMPDEST PUSH1 0x2 SLOAD DUP2 JUMP JUMPDEST PUSH1 0x0 PUSH20 0xC39486F770B26F5527BBBF942726537986CD7EB PUSH20 0xFFFFFFFFFFFFFFFFFFFFFFFFFFFFFFFFFFFFFFFF AND DUP3 PUSH20 0xFFFFFFFFFFFFFFFFFFFFFFFFFFFFFFFFFFFFFFFF AND EQ ISZERO PUSH2 0x77C JUMPI PUSH1 0x0 SWAP1 POP PUSH2 0x7B9 JUMP JUMPDEST DUP2 PUSH1 0x40 MLOAD PUSH32 0xEC459BC000000000000000000000000000000000000000000000000000000000 DUP2 MSTORE PUSH1 0x4 ADD PUSH2 0x7B0 SWAP2 SWAP1 PUSH2 0x1E20 JUMP JUMPDEST PUSH1 0x40 MLOAD DUP1 SWAP2 SUB SWAP1 REVERT JUMPDEST SWAP2 SWAP1 POP JUMP JUMPDEST PUSH1 0x0 PUSH1 0x2 SLOAD EQ PUSH2 0x803 JUMPI PUSH1 0x40 MLOAD PUSH32 0x8C379A000000000000000000000000000000000000000000000000000000000 DUP2 MSTORE PUSH1 0x4 ADD PUSH2 0x7FA SWAP1 PUSH2 0x1FF3 JUMP JUMPDEST PUSH1 0x40 MLOAD DUP1 SWAP2 SUB SWAP1 REVERT JUMPDEST PUSH2 0x80B PUSH2 0xB3F JUMP JUMPDEST PUSH1 0x3 SLOAD EQ PUSH2 0x84E JUMPI PUSH1 0x40 MLOAD PUSH32 0x8C379A000000000000000000000000000000000000000000000000000000000 DUP2 MSTORE PUSH1 0x4 ADD PUSH2 0x845 SWAP1 PUSH2 0x1F33 JUMP JUMPDEST PUSH1 0x40 MLOAD DUP1 SWAP2 SUB SWAP1 REVERT JUMPDEST PUSH1 0x0 PUSH2 0x85B PUSH1 0x0 SLOAD PUSH2 0xE3C JUMP JUMPDEST SWAP1 POP PUSH1 0x1 SLOAD DUP2 LT PUSH2 0x873 JUMPI PUSH1 0x1 PUSH1 0x2 DUP2 SWAP1 SSTORE POP PUSH2 0x89B JUMP JUMPDEST PUSH32 0xFFFFFFFFFFFFFFFFFFFFFFFFFFFFFFFFFFFFFFFFFFFFFFFFFFFFFFFFFFFFFFFF PUSH1 0x2 DUP2 SWAP1 SSTORE POP JUMPDEST POP JUMP JUMPDEST PUSH1 0x0 PUSH1 0x2 SLOAD EQ ISZERO PUSH2 0x8E4 JUMPI PUSH1 0x40 MLOAD PUSH32 0x8C379A000000000000000000000000000000000000000000000000000000000 DUP2 MSTORE PUSH1 0x4 ADD PUSH2 0x8DB SWAP1 PUSH2 0x1F13 JUMP JUMPDEST PUSH1 0x40 MLOAD DUP1 SWAP2 SUB SWAP1 REVERT JUMPDEST PUSH1 0x2 SLOAD PUSH1 0x5 PUSH1 0x0 CALLER PUSH20 0xFFFFFFFFFFFFFFFFFFFFFFFFFFFFFFFFFFFFFFFF AND PUSH20 0xFFFFFFFFFFFFFFFFFFFFFFFFFFFFFFFFFFFFFFFF AND DUP2 MSTORE PUSH1 0x20 ADD SWAP1 DUP2 MSTORE PUSH1 0x20 ADD PUSH1 0x0 KECCAK256 PUSH1 0x0 SWAP1 SLOAD SWAP1 PUSH2 0x100 EXP SWAP1 DIV PUSH1 0x0 SIGNEXTEND PUSH1 0x0 SIGNEXTEND EQ PUSH2 0x977 JUMPI PUSH1 0x40 MLOAD PUSH32 0x8C379A000000000000000000000000000000000000000000000000000000000 DUP2 MSTORE PUSH1 0x4 ADD PUSH2 0x96E SWAP1 PUSH2 0x1EF3 JUMP JUMPDEST PUSH1 0x40 MLOAD DUP1 SWAP2 SUB SWAP1 REVERT JUMPDEST PUSH1 0x0 ISZERO ISZERO PUSH1 0x7 PUSH1 0x0 CALLER PUSH20 0xFFFFFFFFFFFFFFFFFFFFFFFFFFFFFFFFFFFFFFFF AND PUSH20 0xFFFFFFFFFFFFFFFFFFFFFFFFFFFFFFFFFFFFFFFF AND DUP2 MSTORE PUSH1 0x20 ADD SWAP1 DUP2 MSTORE PUSH1 0x20 ADD PUSH1 0x0 KECCAK256 PUSH1 0x0 SWAP1 SLOAD SWAP1 PUSH2 0x100 EXP SWAP1 DIV PUSH1 0xFF AND ISZERO ISZERO EQ PUSH2 0xA0A JUMPI PUSH1 0x40 MLOAD PUSH32 0x8C379A000000000000000000000000000000000000000000000000000000000 DUP2 MSTORE PUSH1 0x4 ADD PUSH2 0xA01 SWAP1 PUSH2 0x1F73 JUMP JUMPDEST PUSH1 0x40 MLOAD DUP1 SWAP2 SUB SWAP1 REVERT JUMPDEST PUSH1 0x0 PUSH1 0x6 PUSH1 0x0 CALLER PUSH20 0xFFFFFFFFFFFFFFFFFFFFFFFFFFFFFFFFFFFFFFFF AND PUSH20 0xFFFFFFFFFFFFFFFFFFFFFFFFFFFFFFFFFFFFFFFF AND DUP2 MSTORE PUSH1 0x20 ADD SWAP1 DUP2 MSTORE PUSH1 0x20 ADD PUSH1 0x0 KECCAK256 SLOAD SWAP1 POP CALLER PUSH20 0xFFFFFFFFFFFFFFFFFFFFFFFFFFFFFFFFFFFFFFFF AND PUSH2 0x8FC PUSH2 0xA71 DUP4 PUSH2 0xD4D JUMP JUMPDEST SWAP1 DUP2 ISZERO MUL SWAP1 PUSH1 0x40 MLOAD PUSH1 0x0 PUSH1 0x40 MLOAD DUP1 DUP4 SUB DUP2 DUP6 DUP9 DUP9 CALL SWAP4 POP POP POP POP ISZERO DUP1 ISZERO PUSH2 0xA9C JUMPI RETURNDATASIZE PUSH1 0x0 DUP1 RETURNDATACOPY RETURNDATASIZE PUSH1 0x0 REVERT JUMPDEST POP CALLER PUSH20 0xFFFFFFFFFFFFFFFFFFFFFFFFFFFFFFFFFFFFFFFF AND PUSH2 0x8FC DUP3 SWAP1 DUP2 ISZERO MUL SWAP1 PUSH1 0x40 MLOAD PUSH1 0x0 PUSH1 0x40 MLOAD DUP1 DUP4 SUB DUP2 DUP6 DUP9 DUP9 CALL SWAP4 POP POP POP POP ISZERO DUP1 ISZERO PUSH2 0xAE3 JUMPI RETURNDATASIZE PUSH1 0x0 DUP1 RETURNDATACOPY RETURNDATASIZE PUSH1 0x0 REVERT JUMPDEST POP PUSH1 0x1 PUSH1 0x7 PUSH1 0x0 CALLER PUSH20 0xFFFFFFFFFFFFFFFFFFFFFFFFFFFFFFFFFFFFFFFF AND PUSH20 0xFFFFFFFFFFFFFFFFFFFFFFFFFFFFFFFFFFFFFFFF AND DUP2 MSTORE PUSH1 0x20 ADD SWAP1 DUP2 MSTORE PUSH1 0x20 ADD PUSH1 0x0 KECCAK256 PUSH1 0x0 PUSH2 0x100 EXP DUP2 SLOAD DUP2 PUSH1 0xFF MUL NOT AND SWAP1 DUP4 ISZERO ISZERO MUL OR SWAP1 SSTORE POP POP JUMP JUMPDEST PUSH1 0x0 DUP1 PUSH2 0xB4A PUSH2 0xED8 JUMP JUMPDEST SWAP1 POP PUSH1 0x0 PUSH2 0xB57 DUP3 PUSH2 0xFE9 JUMP JUMPDEST DUP2 PUSH2 0xFFFF AND SWAP2 POP DUP1 SWAP4 POP DUP2 SWAP3 POP POP POP PUSH1 0x0 DUP2 EQ ISZERO PUSH2 0xBA1 JUMPI PUSH1 0x40 MLOAD PUSH32 0x8552FF3C00000000000000000000000000000000000000000000000000000000 DUP2 MSTORE PUSH1 0x4 ADD PUSH1 0x40 MLOAD DUP1 SWAP2 SUB SWAP1 REVERT JUMPDEST PUSH1 0x0 JUMPDEST DUP2 DUP2 LT ISZERO PUSH2 0xCA6 JUMPI PUSH1 0x0 PUSH2 0xBB7 DUP5 PUSH2 0x1059 JUMP JUMPDEST SWAP1 POP PUSH1 0x0 DUP1 PUSH1 0x68 DUP7 PUSH2 0xBC9 SWAP2 SWAP1 PUSH2 0x20DF JUMP JUMPDEST SWAP1 POP PUSH1 0x0 DUP2 PUSH1 0x0 CALLDATASIZE SWAP1 POP PUSH2 0xBDD SWAP2 SWAP1 PUSH2 0x21C0 JUMP JUMPDEST SWAP1 POP DUP1 CALLDATALOAD SWAP3 POP PUSH1 0x0 DUP4 PUSH6 0xFFFFFFFFFFFF AND EQ ISZERO PUSH2 0xC26 JUMPI PUSH1 0x40 MLOAD PUSH32 0x336DC9D000000000000000000000000000000000000000000000000000000000 DUP2 MSTORE PUSH1 0x4 ADD PUSH1 0x40 MLOAD DUP1 SWAP2 SUB SWAP1 REVERT JUMPDEST PUSH1 0x0 DUP9 EQ ISZERO PUSH2 0xC3F JUMPI DUP3 PUSH6 0xFFFFFFFFFFFF AND SWAP8 POP PUSH2 0xC81 JUMP JUMPDEST DUP8 DUP4 PUSH6 0xFFFFFFFFFFFF AND EQ PUSH2 0xC80 JUMPI PUSH1 0x40 MLOAD PUSH32 0xD9D1F46500000000000000000000000000000000000000000000000000000000 DUP2 MSTORE PUSH1 0x4 ADD PUSH1 0x40 MLOAD DUP1 SWAP2 SUB SWAP1 REVERT JUMPDEST JUMPDEST DUP4 DUP8 PUSH2 0xC8D SWAP2 SWAP1 PUSH2 0x20DF JUMP JUMPDEST SWAP7 POP POP POP POP POP DUP1 DUP1 PUSH2 0xC9E SWAP1 PUSH2 0x22CE JUMP JUMPDEST SWAP2 POP POP PUSH2 0xBA4 JUMP JUMPDEST POP POP POP SWAP1 JUMP JUMPDEST PUSH1 0x8 SLOAD DUP2 JUMP JUMPDEST PUSH1 0x4 SLOAD DUP2 JUMP JUMPDEST PUSH1 0x5 PUSH1 0x20 MSTORE DUP1 PUSH1 0x0 MSTORE PUSH1 0x40 PUSH1 0x0 KECCAK256 PUSH1 0x0 SWAP2 POP SLOAD SWAP1 PUSH2 0x100 EXP SWAP1 DIV PUSH1 0x0 SIGNEXTEND DUP2 JUMP JUMPDEST PUSH1 0x9 SLOAD DUP2 JUMP JUMPDEST PUSH1 0x0 PUSH2 0xCE9 DUP3 PUSH2 0x1098 JUMP JUMPDEST SWAP1 POP SWAP2 SWAP1 POP JUMP JUMPDEST PUSH1 0x60 PUSH1 0x40 MLOAD DUP1 PUSH1 0x40 ADD PUSH1 0x40 MSTORE DUP1 PUSH1 0x12 DUP2 MSTORE PUSH1 0x20 ADD PUSH32 0x72656473746F6E652D6D61696E2D64656D6F0000000000000000000000000000 DUP2 MSTORE POP SWAP1 POP SWAP1 JUMP JUMPDEST PUSH1 0x7 PUSH1 0x20 MSTORE DUP1 PUSH1 0x0 MSTORE PUSH1 0x40 PUSH1 0x0 KECCAK256 PUSH1 0x0 SWAP2 POP SLOAD SWAP1 PUSH2 0x100 EXP SWAP1 DIV PUSH1 0xFF AND DUP2 JUMP JUMPDEST PUSH1 0x0 DUP1 PUSH4 0x5F5E100 SWAP1 POP PUSH1 0x0 PUSH1 0x1 PUSH1 0x2 SLOAD EQ PUSH2 0xD6B JUMPI PUSH1 0x9 SLOAD PUSH2 0xD6F JUMP JUMPDEST PUSH1 0x8 SLOAD JUMPDEST SWAP1 POP DUP1 DUP5 GT ISZERO PUSH2 0xDB4 JUMPI PUSH1 0x40 MLOAD PUSH32 0x8C379A000000000000000000000000000000000000000000000000000000000 DUP2 MSTORE PUSH1 0x4 ADD PUSH2 0xDAB SWAP1 PUSH2 0x1F53 JUMP JUMPDEST PUSH1 0x40 MLOAD DUP1 SWAP2 SUB SWAP1 REVERT JUMPDEST PUSH1 0x0 PUSH32 0xFFFFFFFFFFFFFFFFFFFFFFFFFFFFFFFFFFFFFFFFFFFFFFFFFFFFFFFFFFFFFFFF PUSH1 0x2 SLOAD EQ PUSH2 0xDE7 JUMPI PUSH1 0x8 SLOAD PUSH2 0xDEB JUMP JUMPDEST PUSH1 0x9 SLOAD JUMPDEST SWAP1 POP PUSH1 0x0 DUP3 DUP5 DUP8 PUSH2 0xDFC SWAP2 SWAP1 PUSH2 0x2166 JUMP JUMPDEST PUSH2 0xE06 SWAP2 SWAP1 PUSH2 0x2135 JUMP JUMPDEST SWAP1 POP DUP4 DUP3 DUP3 PUSH2 0xE15 SWAP2 SWAP1 PUSH2 0x2166 JUMP JUMPDEST PUSH2 0xE1F SWAP2 SWAP1 PUSH2 0x2135 JUMP JUMPDEST SWAP5 POP POP POP POP POP SWAP2 SWAP1 POP JUMP JUMPDEST PUSH1 0x3 SLOAD DUP2 JUMP JUMPDEST POP JUMP JUMPDEST PUSH1 0x0 PUSH1 0x1 SWAP1 POP SWAP1 JUMP JUMPDEST PUSH1 0x0 DUP1 PUSH1 0x1 PUSH8 0xFFFFFFFFFFFFFFFF DUP2 GT ISZERO PUSH2 0xE5A JUMPI PUSH2 0xE59 PUSH2 0x23D5 JUMP JUMPDEST JUMPDEST PUSH1 0x40 MLOAD SWAP1 DUP1 DUP3 MSTORE DUP1 PUSH1 0x20 MUL PUSH1 0x20 ADD DUP3 ADD PUSH1 0x40 MSTORE DUP1 ISZERO PUSH2 0xE88 JUMPI DUP2 PUSH1 0x20 ADD PUSH1 0x20 DUP3 MUL DUP1 CALLDATASIZE DUP4 CALLDATACOPY DUP1 DUP3 ADD SWAP2 POP POP SWAP1 POP JUMPDEST POP SWAP1 POP DUP3 DUP2 PUSH1 0x0 DUP2 MLOAD DUP2 LT PUSH2 0xEA0 JUMPI PUSH2 0xE9F PUSH2 0x23A6 JUMP JUMPDEST JUMPDEST PUSH1 0x20 MUL PUSH1 0x20 ADD ADD DUP2 DUP2 MSTORE POP POP PUSH2 0xEB5 DUP2 PUSH2 0x10AA JUMP JUMPDEST PUSH1 0x0 DUP2 MLOAD DUP2 LT PUSH2 0xEC8 JUMPI PUSH2 0xEC7 PUSH2 0x23A6 JUMP JUMPDEST JUMPDEST PUSH1 0x20 MUL PUSH1 0x20 ADD ADD MLOAD SWAP2 POP POP SWAP2 SWAP1 POP JUMP JUMPDEST PUSH1 0x0 DUP1 PUSH1 0x20 CALLDATASIZE SUB CALLDATALOAD PUSH7 0x2ED57011E0000 DUP2 AND PUSH7 0x2ED57011E0000 EQ SWAP2 POP POP DUP1 PUSH2 0xF2D JUMPI PUSH1 0x40 MLOAD PUSH32 0xE7764C9E00000000000000000000000000000000000000000000000000000000 DUP2 MSTORE PUSH1 0x4 ADD PUSH1 0x40 MLOAD DUP1 SWAP2 SUB SWAP1 REVERT JUMPDEST PUSH1 0x0 DUP1 CALLDATASIZE SWAP1 POP PUSH1 0x29 GT ISZERO PUSH2 0xF6D JUMPI PUSH1 0x40 MLOAD PUSH32 0x5796F78A00000000000000000000000000000000000000000000000000000000 DUP2 MSTORE PUSH1 0x4 ADD PUSH1 0x40 MLOAD DUP1 SWAP2 SUB SWAP1 REVERT JUMPDEST PUSH1 0x29 CALLDATASIZE SUB CALLDATALOAD SWAP1 POP PUSH1 0x0 PUSH1 0x9 PUSH1 0x3 DUP4 PUSH3 0xFFFFFF AND PUSH2 0xF8A SWAP2 SWAP1 PUSH2 0x20DF JUMP JUMPDEST PUSH2 0xF94 SWAP2 SWAP1 PUSH2 0x20DF JUMP JUMPDEST SWAP1 POP PUSH1 0x0 CALLDATASIZE SWAP1 POP PUSH1 0x2 DUP3 PUSH2 0xFA8 SWAP2 SWAP1 PUSH2 0x20DF JUMP JUMPDEST GT ISZERO PUSH2 0xFE0 JUMPI PUSH1 0x40 MLOAD PUSH32 0xC30A7BD700000000000000000000000000000000000000000000000000000000 DUP2 MSTORE PUSH1 0x4 ADD PUSH1 0x40 MLOAD DUP1 SWAP2 SUB SWAP1 REVERT JUMPDEST DUP1 SWAP4 POP POP POP POP SWAP1 JUMP JUMPDEST PUSH1 0x0 DUP1 PUSH1 0x0 PUSH1 0x20 DUP5 PUSH2 0xFFB SWAP2 SWAP1 PUSH2 0x20DF JUMP JUMPDEST SWAP1 POP PUSH1 0x0 CALLDATASIZE SWAP1 POP DUP2 GT ISZERO PUSH2 0x103B JUMPI PUSH1 0x40 MLOAD PUSH32 0x5796F78A00000000000000000000000000000000000000000000000000000000 DUP2 MSTORE PUSH1 0x4 ADD PUSH1 0x40 MLOAD DUP1 SWAP2 SUB SWAP1 REVERT JUMPDEST DUP1 CALLDATASIZE SUB CALLDATALOAD SWAP3 POP DUP3 PUSH1 0x2 DUP6 PUSH2 0x104F SWAP2 SWAP1 PUSH2 0x20DF JUMP JUMPDEST SWAP3 POP SWAP3 POP POP SWAP2 POP SWAP2 JUMP JUMPDEST PUSH1 0x0 DUP1 PUSH1 0x0 PUSH2 0x1067 DUP5 PUSH2 0x10CF JUMP JUMPDEST SWAP2 POP SWAP2 POP PUSH1 0x4E DUP2 PUSH1 0x20 PUSH2 0x107A SWAP2 SWAP1 PUSH2 0x20DF JUMP JUMPDEST DUP4 PUSH2 0x1085 SWAP2 SWAP1 PUSH2 0x2166 JUMP JUMPDEST PUSH2 0x108F SWAP2 SWAP1 PUSH2 0x20DF JUMP JUMPDEST SWAP3 POP POP POP SWAP2 SWAP1 POP JUMP JUMPDEST PUSH1 0x0 PUSH2 0x10A3 DUP3 PUSH2 0x1131 JUMP JUMPDEST SWAP1 POP SWAP2 SWAP1 POP JUMP JUMPDEST PUSH1 0x60 PUSH1 0x0 DUP1 PUSH2 0x10B8 DUP5 PUSH2 0x1289 JUMP JUMPDEST SWAP2 POP SWAP2 POP PUSH2 0x10C5 DUP2 PUSH2 0xE30 JUMP JUMPDEST DUP2 SWAP3 POP POP POP SWAP2 SWAP1 POP JUMP JUMPDEST PUSH1 0x0 DUP1 PUSH1 0x0 DUP1 PUSH1 0x0 PUSH1 0x20 PUSH1 0x41 DUP8 PUSH2 0x10E6 SWAP2 SWAP1 PUSH2 0x20DF JUMP JUMPDEST PUSH2 0x10F0 SWAP2 SWAP1 PUSH2 0x20DF JUMP JUMPDEST PUSH1 0x0 CALLDATASIZE SWAP1 POP PUSH2 0x10FF SWAP2 SWAP1 PUSH2 0x21C0 JUMP JUMPDEST SWAP1 POP DUP1 CALLDATALOAD SWAP3 POP PUSH1 0x3 DUP2 PUSH2 0x1112 SWAP2 SWAP1 PUSH2 0x21C0 JUMP JUMPDEST SWAP1 POP DUP1 CALLDATALOAD SWAP2 POP DUP3 PUSH3 0xFFFFFF AND SWAP5 POP DUP2 PUSH4 0xFFFFFFFF AND SWAP4 POP POP POP POP SWAP2 POP SWAP2 JUMP JUMPDEST PUSH1 0x0 PUSH1 0x2 DUP3 MLOAD EQ ISZERO PUSH2 0x1192 JUMPI PUSH1 0x2 DUP3 PUSH1 0x1 DUP2 MLOAD DUP2 LT PUSH2 0x1153 JUMPI PUSH2 0x1152 PUSH2 0x23A6 JUMP JUMPDEST JUMPDEST PUSH1 0x20 MUL PUSH1 0x20 ADD ADD MLOAD DUP4 PUSH1 0x0 DUP2 MLOAD DUP2 LT PUSH2 0x116F JUMPI PUSH2 0x116E PUSH2 0x23A6 JUMP JUMPDEST JUMPDEST PUSH1 0x20 MUL PUSH1 0x20 ADD ADD MLOAD PUSH2 0x1181 SWAP2 SWAP1 PUSH2 0x20DF JUMP JUMPDEST PUSH2 0x118B SWAP2 SWAP1 PUSH2 0x2135 JUMP JUMPDEST SWAP1 POP PUSH2 0x1284 JUMP JUMPDEST PUSH1 0x0 DUP3 MLOAD EQ ISZERO PUSH2 0x11CE JUMPI PUSH1 0x40 MLOAD PUSH32 0x9E198AF900000000000000000000000000000000000000000000000000000000 DUP2 MSTORE PUSH1 0x4 ADD PUSH1 0x40 MLOAD DUP1 SWAP2 SUB SWAP1 REVERT JUMPDEST PUSH2 0x11D7 DUP3 PUSH2 0x1505 JUMP JUMPDEST PUSH1 0x0 PUSH1 0x2 DUP4 MLOAD PUSH2 0x11E7 SWAP2 SWAP1 PUSH2 0x2135 JUMP JUMPDEST SWAP1 POP PUSH1 0x0 PUSH1 0x2 DUP5 MLOAD PUSH2 0x11F9 SWAP2 SWAP1 PUSH2 0x2317 JUMP JUMPDEST EQ ISZERO PUSH2 0x1265 JUMPI PUSH1 0x0 DUP4 DUP3 DUP2 MLOAD DUP2 LT PUSH2 0x1214 JUMPI PUSH2 0x1213 PUSH2 0x23A6 JUMP JUMPDEST JUMPDEST PUSH1 0x20 MUL PUSH1 0x20 ADD ADD MLOAD DUP5 PUSH1 0x1 DUP5 PUSH2 0x122A SWAP2 SWAP1 PUSH2 0x21C0 JUMP JUMPDEST DUP2 MLOAD DUP2 LT PUSH2 0x123B JUMPI PUSH2 0x123A PUSH2 0x23A6 JUMP JUMPDEST JUMPDEST PUSH1 0x20 MUL PUSH1 0x20 ADD ADD MLOAD PUSH2 0x124D SWAP2 SWAP1 PUSH2 0x20DF JUMP JUMPDEST SWAP1 POP PUSH1 0x2 DUP2 PUSH2 0x125C SWAP2 SWAP1 PUSH2 0x2135 JUMP JUMPDEST SWAP3 POP POP POP PUSH2 0x1284 JUMP JUMPDEST DUP3 DUP2 DUP2 MLOAD DUP2 LT PUSH2 0x1278 JUMPI PUSH2 0x1277 PUSH2 0x23A6 JUMP JUMPDEST JUMPDEST PUSH1 0x20 MUL PUSH1 0x20 ADD ADD MLOAD SWAP2 POP POP JUMPDEST SWAP2 SWAP1 POP JUMP JUMPDEST PUSH1 0x60 PUSH1 0x0 DUP1 DUP4 MLOAD PUSH8 0xFFFFFFFFFFFFFFFF DUP2 GT ISZERO PUSH2 0x12A9 JUMPI PUSH2 0x12A8 PUSH2 0x23D5 JUMP JUMPDEST JUMPDEST PUSH1 0x40 MLOAD SWAP1 DUP1 DUP3 MSTORE DUP1 PUSH1 0x20 MUL PUSH1 0x20 ADD DUP3 ADD PUSH1 0x40 MSTORE DUP1 ISZERO PUSH2 0x12D7 JUMPI DUP2 PUSH1 0x20 ADD PUSH1 0x20 DUP3 MUL DUP1 CALLDATASIZE DUP4 CALLDATACOPY DUP1 DUP3 ADD SWAP2 POP POP SWAP1 POP JUMPDEST POP SWAP1 POP PUSH1 0x0 DUP5 MLOAD PUSH8 0xFFFFFFFFFFFFFFFF DUP2 GT ISZERO PUSH2 0x12F7 JUMPI PUSH2 0x12F6 PUSH2 0x23D5 JUMP JUMPDEST JUMPDEST PUSH1 0x40 MLOAD SWAP1 DUP1 DUP3 MSTORE DUP1 PUSH1 0x20 MUL PUSH1 0x20 ADD DUP3 ADD PUSH1 0x40 MSTORE DUP1 ISZERO PUSH2 0x1325 JUMPI DUP2 PUSH1 0x20 ADD PUSH1 0x20 DUP3 MUL DUP1 CALLDATASIZE DUP4 CALLDATACOPY DUP1 DUP3 ADD SWAP2 POP POP SWAP1 POP JUMPDEST POP SWAP1 POP PUSH1 0x0 DUP6 MLOAD PUSH8 0xFFFFFFFFFFFFFFFF DUP2 GT ISZERO PUSH2 0x1345 JUMPI PUSH2 0x1344 PUSH2 0x23D5 JUMP JUMPDEST JUMPDEST PUSH1 0x40 MLOAD SWAP1 DUP1 DUP3 MSTORE DUP1 PUSH1 0x20 MUL PUSH1 0x20 ADD DUP3 ADD PUSH1 0x40 MSTORE DUP1 ISZERO PUSH2 0x1378 JUMPI DUP2 PUSH1 0x20 ADD JUMPDEST PUSH1 0x60 DUP2 MSTORE PUSH1 0x20 ADD SWAP1 PUSH1 0x1 SWAP1 SUB SWAP1 DUP2 PUSH2 0x1363 JUMPI SWAP1 POP JUMPDEST POP SWAP1 POP PUSH1 0x0 JUMPDEST DUP7 MLOAD DUP2 LT ISZERO PUSH2 0x1405 JUMPI PUSH2 0x138F PUSH2 0xE33 JUMP JUMPDEST PUSH1 0xFF AND PUSH8 0xFFFFFFFFFFFFFFFF DUP2 GT ISZERO PUSH2 0x13AB JUMPI PUSH2 0x13AA PUSH2 0x23D5 JUMP JUMPDEST JUMPDEST PUSH1 0x40 MLOAD SWAP1 DUP1 DUP3 MSTORE DUP1 PUSH1 0x20 MUL PUSH1 0x20 ADD DUP3 ADD PUSH1 0x40 MSTORE DUP1 ISZERO PUSH2 0x13D9 JUMPI DUP2 PUSH1 0x20 ADD PUSH1 0x20 DUP3 MUL DUP1 CALLDATASIZE DUP4 CALLDATACOPY DUP1 DUP3 ADD SWAP2 POP POP SWAP1 POP JUMPDEST POP DUP3 DUP3 DUP2 MLOAD DUP2 LT PUSH2 0x13ED JUMPI PUSH2 0x13EC PUSH2 0x23A6 JUMP JUMPDEST JUMPDEST PUSH1 0x20 MUL PUSH1 0x20 ADD ADD DUP2 SWAP1 MSTORE POP DUP1 DUP1 PUSH1 0x1 ADD SWAP2 POP POP PUSH2 0x137E JUMP JUMPDEST POP PUSH1 0x0 PUSH2 0x1410 PUSH2 0xED8 JUMP JUMPDEST SWAP1 POP PUSH1 0x0 PUSH2 0x141D DUP3 PUSH2 0xFE9 JUMP JUMPDEST DUP2 PUSH2 0xFFFF AND SWAP2 POP DUP1 SWAP4 POP DUP2 SWAP3 POP POP POP PUSH1 0x0 PUSH1 0x40 MLOAD SWAP1 POP PUSH1 0x0 JUMPDEST DUP3 DUP2 LT ISZERO PUSH2 0x14ED JUMPI PUSH1 0x0 PUSH2 0x144D DUP12 DUP10 DUP10 DUP10 DUP10 PUSH2 0x1558 JUMP JUMPDEST DUP1 SWAP3 POP DUP2 SWAP7 POP POP POP PUSH1 0x0 DUP2 EQ ISZERO PUSH2 0x1490 JUMPI PUSH1 0x40 MLOAD PUSH32 0xDFB25A7900000000000000000000000000000000000000000000000000000000 DUP2 MSTORE PUSH1 0x4 ADD PUSH1 0x40 MLOAD DUP1 SWAP2 SUB SWAP1 REVERT JUMPDEST DUP9 DUP2 EQ ISZERO DUP1 ISZERO PUSH2 0x14A1 JUMPI POP PUSH1 0x0 DUP10 EQ ISZERO JUMPDEST ISZERO PUSH2 0x14D8 JUMPI PUSH1 0x40 MLOAD PUSH32 0x4CBC474200000000000000000000000000000000000000000000000000000000 DUP2 MSTORE PUSH1 0x4 ADD PUSH1 0x40 MLOAD DUP1 SWAP2 SUB SWAP1 REVERT JUMPDEST DUP1 SWAP9 POP DUP3 PUSH1 0x40 MSTORE DUP2 DUP1 PUSH1 0x1 ADD SWAP3 POP POP POP PUSH2 0x1436 JUMP JUMPDEST POP PUSH2 0x14F8 DUP5 DUP8 PUSH2 0x1825 JUMP JUMPDEST SWAP8 POP POP POP POP POP POP POP SWAP2 POP SWAP2 JUMP JUMPDEST DUP1 MLOAD PUSH1 0x20 DUP3 ADD PUSH1 0x20 DUP3 MUL DUP2 ADD DUP2 JUMPDEST DUP2 DUP2 LT ISZERO PUSH2 0x1551 JUMPI DUP3 JUMPDEST DUP2 DUP2 LT ISZERO PUSH2 0x1545 JUMPI DUP2 MLOAD DUP2 MLOAD DUP1 DUP3 LT ISZERO PUSH2 0x1538 JUMPI DUP1 DUP5 MSTORE DUP2 DUP4 MSTORE JUMPDEST POP POP PUSH1 0x20 DUP2 ADD SWAP1 POP PUSH2 0x151D JUMP JUMPDEST POP PUSH1 0x20 DUP2 ADD SWAP1 POP PUSH2 0x1513 JUMP JUMPDEST POP POP POP POP POP JUMP JUMPDEST PUSH1 0x0 DUP1 PUSH1 0x0 DUP1 PUSH1 0x0 PUSH2 0x1569 DUP7 PUSH2 0x10CF JUMP JUMPDEST SWAP2 POP SWAP2 POP PUSH1 0x0 DUP1 PUSH1 0x60 PUSH1 0x0 DUP1 PUSH1 0xD PUSH1 0x20 DUP8 PUSH2 0x1584 SWAP2 SWAP1 PUSH2 0x20DF JUMP JUMPDEST DUP9 PUSH2 0x158F SWAP2 SWAP1 PUSH2 0x2166 JUMP JUMPDEST PUSH2 0x1599 SWAP2 SWAP1 PUSH2 0x20DF JUMP JUMPDEST SWAP2 POP PUSH1 0x0 PUSH1 0x68 DUP13 PUSH2 0x15AA SWAP2 SWAP1 PUSH2 0x20DF JUMP JUMPDEST PUSH1 0x0 CALLDATASIZE SWAP1 POP PUSH2 0x15B9 SWAP2 SWAP1 PUSH2 0x21C0 JUMP JUMPDEST SWAP1 POP PUSH1 0x0 DUP4 PUSH1 0x41 DUP15 PUSH2 0x15CB SWAP2 SWAP1 PUSH2 0x20DF JUMP JUMPDEST PUSH2 0x15D5 SWAP2 SWAP1 PUSH2 0x20DF JUMP JUMPDEST PUSH1 0x0 CALLDATASIZE SWAP1 POP PUSH2 0x15E4 SWAP2 SWAP1 PUSH2 0x21C0 JUMP JUMPDEST SWAP1 POP PUSH2 0x15F0 DUP5 DUP3 PUSH2 0x161E JUMP JUMPDEST SWAP5 POP DUP4 PUSH1 0x20 DUP7 ADD KECCAK256 SWAP6 POP DUP2 CALLDATALOAD SWAP3 POP PUSH2 0x163A JUMP JUMPDEST PUSH1 0x0 PUSH1 0x40 MLOAD SWAP1 POP DUP2 DUP2 MSTORE PUSH1 0x20 DUP2 ADD SWAP1 POP DUP2 DUP2 ADD PUSH1 0x40 MSTORE SWAP2 SWAP1 POP JUMP JUMPDEST PUSH1 0x0 PUSH2 0x1629 DUP4 PUSH2 0x1603 JUMP JUMPDEST DUP4 DUP4 DUP3 CALLDATACOPY PUSH1 0x20 DUP2 SUB SWAP2 POP POP SWAP3 SWAP2 POP POP JUMP JUMPDEST DUP3 PUSH6 0xFFFFFFFFFFFF AND SWAP11 POP PUSH2 0x165B DUP7 PUSH1 0x41 DUP16 PUSH2 0x1656 SWAP2 SWAP1 PUSH2 0x20DF JUMP JUMPDEST PUSH2 0x1972 JUMP JUMPDEST SWAP7 POP PUSH2 0x1666 DUP8 PUSH2 0x729 JUMP JUMPDEST PUSH1 0xFF AND SWAP10 POP POP POP POP POP POP POP POP PUSH1 0x4E DUP7 PUSH2 0x167F SWAP2 SWAP1 PUSH2 0x20DF JUMP JUMPDEST SWAP6 POP PUSH1 0x0 DUP1 PUSH1 0x0 JUMPDEST DUP5 DUP2 LT ISZERO PUSH2 0x1812 JUMPI PUSH1 0x20 DUP5 DUP11 PUSH2 0x169D SWAP2 SWAP1 PUSH2 0x20DF JUMP JUMPDEST PUSH2 0x16A7 SWAP2 SWAP1 PUSH2 0x20DF JUMP JUMPDEST SWAP9 POP PUSH2 0x16B3 DUP10 DUP6 PUSH2 0x19F1 JUMP JUMPDEST DUP1 SWAP4 POP DUP2 SWAP5 POP POP POP PUSH1 0x0 JUMPDEST DUP14 MLOAD DUP2 LT ISZERO PUSH2 0x1804 JUMPI DUP14 DUP2 DUP2 MLOAD DUP2 LT PUSH2 0x16DA JUMPI PUSH2 0x16D9 PUSH2 0x23A6 JUMP JUMPDEST JUMPDEST PUSH1 0x20 MUL PUSH1 0x20 ADD ADD MLOAD DUP5 EQ ISZERO PUSH2 0x17F7 JUMPI PUSH1 0x0 DUP13 DUP3 DUP2 MLOAD DUP2 LT PUSH2 0x16FE JUMPI PUSH2 0x16FD PUSH2 0x23A6 JUMP JUMPDEST JUMPDEST PUSH1 0x20 MUL PUSH1 0x20 ADD ADD MLOAD SWAP1 POP PUSH2 0x1712 DUP2 DUP10 PUSH2 0x1A6C JUMP JUMPDEST ISZERO DUP1 ISZERO PUSH2 0x1742 JUMPI POP PUSH2 0x1722 PUSH2 0xE33 JUMP JUMPDEST PUSH1 0xFF AND DUP15 DUP4 DUP2 MLOAD DUP2 LT PUSH2 0x1738 JUMPI PUSH2 0x1737 PUSH2 0x23A6 JUMP JUMPDEST JUMPDEST PUSH1 0x20 MUL PUSH1 0x20 ADD ADD MLOAD LT JUMPDEST ISZERO PUSH2 0x17F1 JUMPI DUP4 DUP13 DUP4 DUP2 MLOAD DUP2 LT PUSH2 0x175B JUMPI PUSH2 0x175A PUSH2 0x23A6 JUMP JUMPDEST JUMPDEST PUSH1 0x20 MUL PUSH1 0x20 ADD ADD MLOAD DUP16 DUP5 DUP2 MLOAD DUP2 LT PUSH2 0x1776 JUMPI PUSH2 0x1775 PUSH2 0x23A6 JUMP JUMPDEST JUMPDEST PUSH1 0x20 MUL PUSH1 0x20 ADD ADD MLOAD DUP2 MLOAD DUP2 LT PUSH2 0x178F JUMPI PUSH2 0x178E PUSH2 0x23A6 JUMP JUMPDEST JUMPDEST PUSH1 0x20 MUL PUSH1 0x20 ADD ADD DUP2 DUP2 MSTORE POP POP DUP14 DUP3 DUP2 MLOAD DUP2 LT PUSH2 0x17AE JUMPI PUSH2 0x17AD PUSH2 0x23A6 JUMP JUMPDEST JUMPDEST PUSH1 0x20 MUL PUSH1 0x20 ADD ADD DUP1 MLOAD DUP1 SWAP2 SWAP1 PUSH2 0x17C3 SWAP1 PUSH2 0x22CE JUMP JUMPDEST DUP2 MSTORE POP POP PUSH2 0x17D1 DUP2 DUP10 PUSH2 0x1A85 JUMP JUMPDEST DUP14 DUP4 DUP2 MLOAD DUP2 LT PUSH2 0x17E4 JUMPI PUSH2 0x17E3 PUSH2 0x23A6 JUMP JUMPDEST JUMPDEST PUSH1 0x20 MUL PUSH1 0x20 ADD ADD DUP2 DUP2 MSTORE POP POP JUMPDEST POP PUSH2 0x1804 JUMP JUMPDEST DUP1 DUP1 PUSH1 0x1 ADD SWAP2 POP POP PUSH2 0x16BE JUMP JUMPDEST POP DUP1 DUP1 PUSH1 0x1 ADD SWAP2 POP POP PUSH2 0x1687 JUMP JUMPDEST POP POP POP DUP6 SWAP5 POP POP POP POP SWAP6 POP SWAP6 SWAP4 POP POP POP POP JUMP JUMPDEST PUSH1 0x60 PUSH1 0x0 DUP4 MLOAD PUSH8 0xFFFFFFFFFFFFFFFF DUP2 GT ISZERO PUSH2 0x1844 JUMPI PUSH2 0x1843 PUSH2 0x23D5 JUMP JUMPDEST JUMPDEST PUSH1 0x40 MLOAD SWAP1 DUP1 DUP3 MSTORE DUP1 PUSH1 0x20 MUL PUSH1 0x20 ADD DUP3 ADD PUSH1 0x40 MSTORE DUP1 ISZERO PUSH2 0x1872 JUMPI DUP2 PUSH1 0x20 ADD PUSH1 0x20 DUP3 MUL DUP1 CALLDATASIZE DUP4 CALLDATACOPY DUP1 DUP3 ADD SWAP2 POP POP SWAP1 POP JUMPDEST POP SWAP1 POP PUSH1 0x0 PUSH2 0x187F PUSH2 0xE33 JUMP JUMPDEST PUSH1 0xFF AND SWAP1 POP PUSH1 0x0 JUMPDEST DUP6 MLOAD DUP2 LT ISZERO PUSH2 0x1966 JUMPI DUP2 DUP6 DUP3 DUP2 MLOAD DUP2 LT PUSH2 0x18A4 JUMPI PUSH2 0x18A3 PUSH2 0x23A6 JUMP JUMPDEST JUMPDEST PUSH1 0x20 MUL PUSH1 0x20 ADD ADD MLOAD LT ISZERO PUSH2 0x190B JUMPI DUP5 DUP2 DUP2 MLOAD DUP2 LT PUSH2 0x18C5 JUMPI PUSH2 0x18C4 PUSH2 0x23A6 JUMP JUMPDEST JUMPDEST PUSH1 0x20 MUL PUSH1 0x20 ADD ADD MLOAD DUP3 PUSH1 0x40 MLOAD PUSH32 0x2B13AEF500000000000000000000000000000000000000000000000000000000 DUP2 MSTORE PUSH1 0x4 ADD PUSH2 0x1902 SWAP3 SWAP2 SWAP1 PUSH2 0x202E JUMP JUMPDEST PUSH1 0x40 MLOAD DUP1 SWAP2 SUB SWAP1 REVERT JUMPDEST PUSH1 0x0 PUSH2 0x1930 DUP8 DUP4 DUP2 MLOAD DUP2 LT PUSH2 0x1923 JUMPI PUSH2 0x1922 PUSH2 0x23A6 JUMP JUMPDEST JUMPDEST PUSH1 0x20 MUL PUSH1 0x20 ADD ADD MLOAD PUSH2 0xCDE JUMP JUMPDEST SWAP1 POP DUP1 DUP5 DUP4 DUP2 MLOAD DUP2 LT PUSH2 0x1946 JUMPI PUSH2 0x1945 PUSH2 0x23A6 JUMP JUMPDEST JUMPDEST PUSH1 0x20 MUL PUSH1 0x20 ADD ADD DUP2 DUP2 MSTORE POP POP POP DUP1 DUP1 PUSH2 0x195E SWAP1 PUSH2 0x22CE JUMP JUMPDEST SWAP2 POP POP PUSH2 0x1887 JUMP JUMPDEST POP DUP2 SWAP3 POP POP POP SWAP3 SWAP2 POP POP JUMP JUMPDEST PUSH1 0x0 DUP1 PUSH1 0x0 DUP1 DUP5 CALLDATASIZE SUB DUP1 CALLDATALOAD SWAP4 POP PUSH1 0x20 DUP2 ADD SWAP1 POP DUP1 CALLDATALOAD SWAP3 POP PUSH1 0x20 DUP2 ADD SWAP1 POP DUP1 CALLDATALOAD PUSH1 0x0 BYTE SWAP2 POP POP PUSH1 0x1 DUP7 DUP3 DUP6 DUP6 PUSH1 0x40 MLOAD PUSH1 0x0 DUP2 MSTORE PUSH1 0x20 ADD PUSH1 0x40 MSTORE PUSH1 0x40 MLOAD PUSH2 0x19BA SWAP5 SWAP4 SWAP3 SWAP2 SWAP1 PUSH2 0x1E56 JUMP JUMPDEST PUSH1 0x20 PUSH1 0x40 MLOAD PUSH1 0x20 DUP2 SUB SWAP1 DUP1 DUP5 SUB SWAP1 DUP6 GAS STATICCALL ISZERO DUP1 ISZERO PUSH2 0x19DC JUMPI RETURNDATASIZE PUSH1 0x0 DUP1 RETURNDATACOPY RETURNDATASIZE PUSH1 0x0 REVERT JUMPDEST POP POP POP PUSH1 0x20 PUSH1 0x40 MLOAD SUB MLOAD SWAP4 POP POP POP POP SWAP3 SWAP2 POP POP JUMP JUMPDEST PUSH1 0x0 DUP1 PUSH1 0x0 DUP5 PUSH1 0x0 CALLDATASIZE SWAP1 POP PUSH2 0x1A06 SWAP2 SWAP1 PUSH2 0x21C0 JUMP JUMPDEST SWAP1 POP DUP1 CALLDATALOAD SWAP3 POP PUSH1 0x20 DUP2 ADD CALLDATALOAD SWAP2 POP PUSH1 0x21 DUP5 LT PUSH2 0x1A58 JUMPI DUP4 PUSH1 0x40 MLOAD PUSH32 0xC000FC4200000000000000000000000000000000000000000000000000000000 DUP2 MSTORE PUSH1 0x4 ADD PUSH2 0x1A4F SWAP2 SWAP1 PUSH2 0x2013 JUMP JUMPDEST PUSH1 0x40 MLOAD DUP1 SWAP2 SUB SWAP1 REVERT JUMPDEST PUSH1 0x8 DUP5 PUSH1 0x20 SUB MUL DUP3 SWAP1 SHR SWAP2 POP POP SWAP3 POP SWAP3 SWAP1 POP JUMP JUMPDEST PUSH1 0x0 DUP1 DUP3 PUSH1 0x1 SWAP1 SHL DUP5 AND SWAP1 POP PUSH1 0x0 DUP2 GT SWAP2 POP POP SWAP3 SWAP2 POP POP JUMP JUMPDEST PUSH1 0x0 DUP2 PUSH1 0x1 SWAP1 SHL DUP4 OR SWAP1 POP SWAP3 SWAP2 POP POP JUMP JUMPDEST PUSH1 0x0 PUSH2 0x1AA9 PUSH2 0x1AA4 DUP5 PUSH2 0x2097 JUMP JUMPDEST PUSH2 0x2072 JUMP JUMPDEST SWAP1 POP DUP1 DUP4 DUP3 MSTORE PUSH1 0x20 DUP3 ADD SWAP1 POP DUP3 DUP6 PUSH1 0x20 DUP7 MUL DUP3 ADD GT ISZERO PUSH2 0x1ACC JUMPI PUSH2 0x1ACB PUSH2 0x2409 JUMP JUMPDEST JUMPDEST PUSH1 0x0 JUMPDEST DUP6 DUP2 LT ISZERO PUSH2 0x1AFC JUMPI DUP2 PUSH2 0x1AE2 DUP9 DUP3 PUSH2 0x1B5E JUMP JUMPDEST DUP5 MSTORE PUSH1 0x20 DUP5 ADD SWAP4 POP PUSH1 0x20 DUP4 ADD SWAP3 POP POP PUSH1 0x1 DUP2 ADD SWAP1 POP PUSH2 0x1ACF JUMP JUMPDEST POP POP POP SWAP4 SWAP3 POP POP POP JUMP JUMPDEST PUSH1 0x0 DUP2 CALLDATALOAD SWAP1 POP PUSH2 0x1B15 DUP2 PUSH2 0x259A JUMP JUMPDEST SWAP3 SWAP2 POP POP JUMP JUMPDEST PUSH1 0x0 DUP3 PUSH1 0x1F DUP4 ADD SLT PUSH2 0x1B30 JUMPI PUSH2 0x1B2F PUSH2 0x2404 JUMP JUMPDEST JUMPDEST DUP2 CALLDATALOAD PUSH2 0x1B40 DUP5 DUP3 PUSH1 0x20 DUP7 ADD PUSH2 0x1A96 JUMP JUMPDEST SWAP2 POP POP SWAP3 SWAP2 POP POP JUMP JUMPDEST PUSH1 0x0 DUP2 CALLDATALOAD SWAP1 POP PUSH2 0x1B58 DUP2 PUSH2 0x25B1 JUMP JUMPDEST SWAP3 SWAP2 POP POP JUMP JUMPDEST PUSH1 0x0 DUP2 CALLDATALOAD SWAP1 POP PUSH2 0x1B6D DUP2 PUSH2 0x25C8 JUMP JUMPDEST SWAP3 SWAP2 POP POP JUMP JUMPDEST PUSH1 0x0 PUSH1 0x20 DUP3 DUP5 SUB SLT ISZERO PUSH2 0x1B89 JUMPI PUSH2 0x1B88 PUSH2 0x2413 JUMP JUMPDEST JUMPDEST PUSH1 0x0 PUSH2 0x1B97 DUP5 DUP3 DUP6 ADD PUSH2 0x1B06 JUMP JUMPDEST SWAP2 POP POP SWAP3 SWAP2 POP POP JUMP JUMPDEST PUSH1 0x0 PUSH1 0x20 DUP3 DUP5 SUB SLT ISZERO PUSH2 0x1BB6 JUMPI PUSH2 0x1BB5 PUSH2 0x2413 JUMP JUMPDEST JUMPDEST PUSH1 0x0 DUP3 ADD CALLDATALOAD PUSH8 0xFFFFFFFFFFFFFFFF DUP2 GT ISZERO PUSH2 0x1BD4 JUMPI PUSH2 0x1BD3 PUSH2 0x240E JUMP JUMPDEST JUMPDEST PUSH2 0x1BE0 DUP5 DUP3 DUP6 ADD PUSH2 0x1B1B JUMP JUMPDEST SWAP2 POP POP SWAP3 SWAP2 POP POP JUMP JUMPDEST PUSH1 0x0 PUSH1 0x20 DUP3 DUP5 SUB SLT ISZERO PUSH2 0x1BFF JUMPI PUSH2 0x1BFE PUSH2 0x2413 JUMP JUMPDEST JUMPDEST PUSH1 0x0 PUSH2 0x1C0D DUP5 DUP3 DUP6 ADD PUSH2 0x1B49 JUMP JUMPDEST SWAP2 POP POP SWAP3 SWAP2 POP POP JUMP JUMPDEST PUSH1 0x0 PUSH1 0x20 DUP3 DUP5 SUB SLT ISZERO PUSH2 0x1C2C JUMPI PUSH2 0x1C2B PUSH2 0x2413 JUMP JUMPDEST JUMPDEST PUSH1 0x0 PUSH2 0x1C3A DUP5 DUP3 DUP6 ADD PUSH2 0x1B5E JUMP JUMPDEST SWAP2 POP POP SWAP3 SWAP2 POP POP JUMP JUMPDEST PUSH2 0x1C4C DUP2 PUSH2 0x21F4 JUMP JUMPDEST DUP3 MSTORE POP POP JUMP JUMPDEST PUSH2 0x1C5B DUP2 PUSH2 0x2206 JUMP JUMPDEST DUP3 MSTORE POP POP JUMP JUMPDEST PUSH2 0x1C6A DUP2 PUSH2 0x2212 JUMP JUMPDEST DUP3 MSTORE POP POP JUMP JUMPDEST PUSH2 0x1C79 DUP2 PUSH2 0x221C JUMP JUMPDEST DUP3 MSTORE POP POP JUMP JUMPDEST PUSH2 0x1C88 DUP2 PUSH2 0x2226 JUMP JUMPDEST DUP3 MSTORE POP POP JUMP JUMPDEST PUSH1 0x0 PUSH2 0x1C99 DUP3 PUSH2 0x20C3 JUMP JUMPDEST PUSH2 0x1CA3 DUP2 DUP6 PUSH2 0x20CE JUMP JUMPDEST SWAP4 POP PUSH2 0x1CB3 DUP2 DUP6 PUSH1 0x20 DUP7 ADD PUSH2 0x226A JUMP JUMPDEST PUSH2 0x1CBC DUP2 PUSH2 0x2418 JUMP JUMPDEST DUP5 ADD SWAP2 POP POP SWAP3 SWAP2 POP POP JUMP JUMPDEST PUSH1 0x0 PUSH2 0x1CD4 PUSH1 0xB DUP4 PUSH2 0x20CE JUMP JUMPDEST SWAP2 POP PUSH2 0x1CDF DUP3 PUSH2 0x2429 JUMP JUMPDEST PUSH1 0x20 DUP3 ADD SWAP1 POP SWAP2 SWAP1 POP JUMP JUMPDEST PUSH1 0x0 PUSH2 0x1CF7 PUSH1 0xD DUP4 PUSH2 0x20CE JUMP JUMPDEST SWAP2 POP PUSH2 0x1D02 DUP3 PUSH2 0x2452 JUMP JUMPDEST PUSH1 0x20 DUP3 ADD SWAP1 POP SWAP2 SWAP1 POP JUMP JUMPDEST PUSH1 0x0 PUSH2 0x1D1A PUSH1 0x11 DUP4 PUSH2 0x20CE JUMP JUMPDEST SWAP2 POP PUSH2 0x1D25 DUP3 PUSH2 0x247B JUMP JUMPDEST PUSH1 0x20 DUP3 ADD SWAP1 POP SWAP2 SWAP1 POP JUMP JUMPDEST PUSH1 0x0 PUSH2 0x1D3D PUSH1 0x1C DUP4 PUSH2 0x20CE JUMP JUMPDEST SWAP2 POP PUSH2 0x1D48 DUP3 PUSH2 0x24A4 JUMP JUMPDEST PUSH1 0x20 DUP3 ADD SWAP1 POP SWAP2 SWAP1 POP JUMP JUMPDEST PUSH1 0x0 PUSH2 0x1D60 PUSH1 0xF DUP4 PUSH2 0x20CE JUMP JUMPDEST SWAP2 POP PUSH2 0x1D6B DUP3 PUSH2 0x24CD JUMP JUMPDEST PUSH1 0x20 DUP3 ADD SWAP1 POP SWAP2 SWAP1 POP JUMP JUMPDEST PUSH1 0x0 PUSH2 0x1D83 PUSH1 0x12 DUP4 PUSH2 0x20CE JUMP JUMPDEST SWAP2 POP PUSH2 0x1D8E DUP3 PUSH2 0x24F6 JUMP JUMPDEST PUSH1 0x20 DUP3 ADD SWAP1 POP SWAP2 SWAP1 POP JUMP JUMPDEST PUSH1 0x0 PUSH2 0x1DA6 PUSH1 0xF DUP4 PUSH2 0x20CE JUMP JUMPDEST SWAP2 POP PUSH2 0x1DB1 DUP3 PUSH2 0x251F JUMP JUMPDEST PUSH1 0x20 DUP3 ADD SWAP1 POP SWAP2 SWAP1 POP JUMP JUMPDEST PUSH1 0x0 PUSH2 0x1DC9 PUSH1 0x10 DUP4 PUSH2 0x20CE JUMP JUMPDEST SWAP2 POP PUSH2 0x1DD4 DUP3 PUSH2 0x2548 JUMP JUMPDEST PUSH1 0x20 DUP3 ADD SWAP1 POP SWAP2 SWAP1 POP JUMP JUMPDEST PUSH1 0x0 PUSH2 0x1DEC PUSH1 0x11 DUP4 PUSH2 0x20CE JUMP JUMPDEST SWAP2 POP PUSH2 0x1DF7 DUP3 PUSH2 0x2571 JUMP JUMPDEST PUSH1 0x20 DUP3 ADD SWAP1 POP SWAP2 SWAP1 POP JUMP JUMPDEST PUSH2 0x1E0B DUP2 PUSH2 0x2253 JUMP JUMPDEST DUP3 MSTORE POP POP JUMP JUMPDEST PUSH2 0x1E1A DUP2 PUSH2 0x225D JUMP JUMPDEST DUP3 MSTORE POP POP JUMP JUMPDEST PUSH1 0x0 PUSH1 0x20 DUP3 ADD SWAP1 POP PUSH2 0x1E35 PUSH1 0x0 DUP4 ADD DUP5 PUSH2 0x1C43 JUMP JUMPDEST SWAP3 SWAP2 POP POP JUMP JUMPDEST PUSH1 0x0 PUSH1 0x20 DUP3 ADD SWAP1 POP PUSH2 0x1E50 PUSH1 0x0 DUP4 ADD DUP5 PUSH2 0x1C52 JUMP JUMPDEST SWAP3 SWAP2 POP POP JUMP JUMPDEST PUSH1 0x0 PUSH1 0x80 DUP3 ADD SWAP1 POP PUSH2 0x1E6B PUSH1 0x0 DUP4 ADD DUP8 PUSH2 0x1C61 JUMP JUMPDEST PUSH2 0x1E78 PUSH1 0x20 DUP4 ADD DUP7 PUSH2 0x1E11 JUMP JUMPDEST PUSH2 0x1E85 PUSH1 0x40 DUP4 ADD DUP6 PUSH2 0x1C61 JUMP JUMPDEST PUSH2 0x1E92 PUSH1 0x60 DUP4 ADD DUP5 PUSH2 0x1C61 JUMP JUMPDEST SWAP6 SWAP5 POP POP POP POP POP JUMP JUMPDEST PUSH1 0x0 PUSH1 0x20 DUP3 ADD SWAP1 POP PUSH2 0x1EB0 PUSH1 0x0 DUP4 ADD DUP5 PUSH2 0x1C70 JUMP JUMPDEST SWAP3 SWAP2 POP POP JUMP JUMPDEST PUSH1 0x0 PUSH1 0x20 DUP3 ADD SWAP1 POP PUSH2 0x1ECB PUSH1 0x0 DUP4 ADD DUP5 PUSH2 0x1C7F JUMP JUMPDEST SWAP3 SWAP2 POP POP JUMP JUMPDEST PUSH1 0x0 PUSH1 0x20 DUP3 ADD SWAP1 POP DUP2 DUP2 SUB PUSH1 0x0 DUP4 ADD MSTORE PUSH2 0x1EEB DUP2 DUP5 PUSH2 0x1C8E JUMP JUMPDEST SWAP1 POP SWAP3 SWAP2 POP POP JUMP JUMPDEST PUSH1 0x0 PUSH1 0x20 DUP3 ADD SWAP1 POP DUP2 DUP2 SUB PUSH1 0x0 DUP4 ADD MSTORE PUSH2 0x1F0C DUP2 PUSH2 0x1CC7 JUMP JUMPDEST SWAP1 POP SWAP2 SWAP1 POP JUMP JUMPDEST PUSH1 0x0 PUSH1 0x20 DUP3 ADD SWAP1 POP DUP2 DUP2 SUB PUSH1 0x0 DUP4 ADD MSTORE PUSH2 0x1F2C DUP2 PUSH2 0x1CEA JUMP JUMPDEST SWAP1 POP SWAP2 SWAP1 POP JUMP JUMPDEST PUSH1 0x0 PUSH1 0x20 DUP3 ADD SWAP1 POP DUP2 DUP2 SUB PUSH1 0x0 DUP4 ADD MSTORE PUSH2 0x1F4C DUP2 PUSH2 0x1D0D JUMP JUMPDEST SWAP1 POP SWAP2 SWAP1 POP JUMP JUMPDEST PUSH1 0x0 PUSH1 0x20 DUP3 ADD SWAP1 POP DUP2 DUP2 SUB PUSH1 0x0 DUP4 ADD MSTORE PUSH2 0x1F6C DUP2 PUSH2 0x1D30 JUMP JUMPDEST SWAP1 POP SWAP2 SWAP1 POP JUMP JUMPDEST PUSH1 0x0 PUSH1 0x20 DUP3 ADD SWAP1 POP DUP2 DUP2 SUB PUSH1 0x0 DUP4 ADD MSTORE PUSH2 0x1F8C DUP2 PUSH2 0x1D53 JUMP JUMPDEST SWAP1 POP SWAP2 SWAP1 POP JUMP JUMPDEST PUSH1 0x0 PUSH1 0x20 DUP3 ADD SWAP1 POP DUP2 DUP2 SUB PUSH1 0x0 DUP4 ADD MSTORE PUSH2 0x1FAC DUP2 PUSH2 0x1D76 JUMP JUMPDEST SWAP1 POP SWAP2 SWAP1 POP JUMP JUMPDEST PUSH1 0x0 PUSH1 0x20 DUP3 ADD SWAP1 POP DUP2 DUP2 SUB PUSH1 0x0 DUP4 ADD MSTORE PUSH2 0x1FCC DUP2 PUSH2 0x1D99 JUMP JUMPDEST SWAP1 POP SWAP2 SWAP1 POP JUMP JUMPDEST PUSH1 0x0 PUSH1 0x20 DUP3 ADD SWAP1 POP DUP2 DUP2 SUB PUSH1 0x0 DUP4 ADD MSTORE PUSH2 0x1FEC DUP2 PUSH2 0x1DBC JUMP JUMPDEST SWAP1 POP SWAP2 SWAP1 POP JUMP JUMPDEST PUSH1 0x0 PUSH1 0x20 DUP3 ADD SWAP1 POP DUP2 DUP2 SUB PUSH1 0x0 DUP4 ADD MSTORE PUSH2 0x200C DUP2 PUSH2 0x1DDF JUMP JUMPDEST SWAP1 POP SWAP2 SWAP1 POP JUMP JUMPDEST PUSH1 0x0 PUSH1 0x20 DUP3 ADD SWAP1 POP PUSH2 0x2028 PUSH1 0x0 DUP4 ADD DUP5 PUSH2 0x1E02 JUMP JUMPDEST SWAP3 SWAP2 POP POP JUMP JUMPDEST PUSH1 0x0 PUSH1 0x40 DUP3 ADD SWAP1 POP PUSH2 0x2043 PUSH1 0x0 DUP4 ADD DUP6 PUSH2 0x1E02 JUMP JUMPDEST PUSH2 0x2050 PUSH1 0x20 DUP4 ADD DUP5 PUSH2 0x1E02 JUMP JUMPDEST SWAP4 SWAP3 POP POP POP JUMP JUMPDEST PUSH1 0x0 PUSH1 0x20 DUP3 ADD SWAP1 POP PUSH2 0x206C PUSH1 0x0 DUP4 ADD DUP5 PUSH2 0x1E11 JUMP JUMPDEST SWAP3 SWAP2 POP POP JUMP JUMPDEST PUSH1 0x0 PUSH2 0x207C PUSH2 0x208D JUMP JUMPDEST SWAP1 POP PUSH2 0x2088 DUP3 DUP3 PUSH2 0x229D JUMP JUMPDEST SWAP2 SWAP1 POP JUMP JUMPDEST PUSH1 0x0 PUSH1 0x40 MLOAD SWAP1 POP SWAP1 JUMP JUMPDEST PUSH1 0x0 PUSH8 0xFFFFFFFFFFFFFFFF DUP3 GT ISZERO PUSH2 0x20B2 JUMPI PUSH2 0x20B1 PUSH2 0x23D5 JUMP JUMPDEST JUMPDEST PUSH1 0x20 DUP3 MUL SWAP1 POP PUSH1 0x20 DUP2 ADD SWAP1 POP SWAP2 SWAP1 POP JUMP JUMPDEST PUSH1 0x0 DUP2 MLOAD SWAP1 POP SWAP2 SWAP1 POP JUMP JUMPDEST PUSH1 0x0 DUP3 DUP3 MSTORE PUSH1 0x20 DUP3 ADD SWAP1 POP SWAP3 SWAP2 POP POP JUMP JUMPDEST PUSH1 0x0 PUSH2 0x20EA DUP3 PUSH2 0x2253 JUMP JUMPDEST SWAP2 POP PUSH2 0x20F5 DUP4 PUSH2 0x2253 JUMP JUMPDEST SWAP3 POP DUP3 PUSH32 0xFFFFFFFFFFFFFFFFFFFFFFFFFFFFFFFFFFFFFFFFFFFFFFFFFFFFFFFFFFFFFFFF SUB DUP3 GT ISZERO PUSH2 0x212A JUMPI PUSH2 0x2129 PUSH2 0x2348 JUMP JUMPDEST JUMPDEST DUP3 DUP3 ADD SWAP1 POP SWAP3 SWAP2 POP POP JUMP JUMPDEST PUSH1 0x0 PUSH2 0x2140 DUP3 PUSH2 0x2253 JUMP JUMPDEST SWAP2 POP PUSH2 0x214B DUP4 PUSH2 0x2253 JUMP JUMPDEST SWAP3 POP DUP3 PUSH2 0x215B JUMPI PUSH2 0x215A PUSH2 0x2377 JUMP JUMPDEST JUMPDEST DUP3 DUP3 DIV SWAP1 POP SWAP3 SWAP2 POP POP JUMP JUMPDEST PUSH1 0x0 PUSH2 0x2171 DUP3 PUSH2 0x2253 JUMP JUMPDEST SWAP2 POP PUSH2 0x217C DUP4 PUSH2 0x2253 JUMP JUMPDEST SWAP3 POP DUP2 PUSH32 0xFFFFFFFFFFFFFFFFFFFFFFFFFFFFFFFFFFFFFFFFFFFFFFFFFFFFFFFFFFFFFFFF DIV DUP4 GT DUP3 ISZERO ISZERO AND ISZERO PUSH2 0x21B5 JUMPI PUSH2 0x21B4 PUSH2 0x2348 JUMP JUMPDEST JUMPDEST DUP3 DUP3 MUL SWAP1 POP SWAP3 SWAP2 POP POP JUMP JUMPDEST PUSH1 0x0 PUSH2 0x21CB DUP3 PUSH2 0x2253 JUMP JUMPDEST SWAP2 POP PUSH2 0x21D6 DUP4 PUSH2 0x2253 JUMP JUMPDEST SWAP3 POP DUP3 DUP3 LT ISZERO PUSH2 0x21E9 JUMPI PUSH2 0x21E8 PUSH2 0x2348 JUMP JUMPDEST JUMPDEST DUP3 DUP3 SUB SWAP1 POP SWAP3 SWAP2 POP POP JUMP JUMPDEST PUSH1 0x0 PUSH2 0x21FF DUP3 PUSH2 0x2233 JUMP JUMPDEST SWAP1 POP SWAP2 SWAP1 POP JUMP JUMPDEST PUSH1 0x0 DUP2 ISZERO ISZERO SWAP1 POP SWAP2 SWAP1 POP JUMP JUMPDEST PUSH1 0x0 DUP2 SWAP1 POP SWAP2 SWAP1 POP JUMP JUMPDEST PUSH1 0x0 DUP2 SWAP1 POP SWAP2 SWAP1 POP JUMP JUMPDEST PUSH1 0x0 DUP2 PUSH1 0x0 SIGNEXTEND SWAP1 POP SWAP2 SWAP1 POP JUMP JUMPDEST PUSH1 0x0 PUSH20 0xFFFFFFFFFFFFFFFFFFFFFFFFFFFFFFFFFFFFFFFF DUP3 AND SWAP1 POP SWAP2 SWAP1 POP JUMP JUMPDEST PUSH1 0x0 DUP2 SWAP1 POP SWAP2 SWAP1 POP JUMP JUMPDEST PUSH1 0x0 PUSH1 0xFF DUP3 AND SWAP1 POP SWAP2 SWAP1 POP JUMP JUMPDEST PUSH1 0x0 JUMPDEST DUP4 DUP2 LT ISZERO PUSH2 0x2288 JUMPI DUP1 DUP3 ADD MLOAD DUP2 DUP5 ADD MSTORE PUSH1 0x20 DUP2 ADD SWAP1 POP PUSH2 0x226D JUMP JUMPDEST DUP4 DUP2 GT ISZERO PUSH2 0x2297 JUMPI PUSH1 0x0 DUP5 DUP5 ADD MSTORE JUMPDEST POP POP POP POP JUMP JUMPDEST PUSH2 0x22A6 DUP3 PUSH2 0x2418 JUMP JUMPDEST DUP2 ADD DUP2 DUP2 LT PUSH8 0xFFFFFFFFFFFFFFFF DUP3 GT OR ISZERO PUSH2 0x22C5 JUMPI PUSH2 0x22C4 PUSH2 0x23D5 JUMP JUMPDEST JUMPDEST DUP1 PUSH1 0x40 MSTORE POP POP POP JUMP JUMPDEST PUSH1 0x0 PUSH2 0x22D9 DUP3 PUSH2 0x2253 JUMP JUMPDEST SWAP2 POP PUSH32 0xFFFFFFFFFFFFFFFFFFFFFFFFFFFFFFFFFFFFFFFFFFFFFFFFFFFFFFFFFFFFFFFF DUP3 EQ ISZERO PUSH2 0x230C JUMPI PUSH2 0x230B PUSH2 0x2348 JUMP JUMPDEST JUMPDEST PUSH1 0x1 DUP3 ADD SWAP1 POP SWAP2 SWAP1 POP JUMP JUMPDEST PUSH1 0x0 PUSH2 0x2322 DUP3 PUSH2 0x2253 JUMP JUMPDEST SWAP2 POP PUSH2 0x232D DUP4 PUSH2 0x2253 JUMP JUMPDEST SWAP3 POP DUP3 PUSH2 0x233D JUMPI PUSH2 0x233C PUSH2 0x2377 JUMP JUMPDEST JUMPDEST DUP3 DUP3 MOD SWAP1 POP SWAP3 SWAP2 POP POP JUMP JUMPDEST PUSH32 0x4E487B7100000000000000000000000000000000000000000000000000000000 PUSH1 0x0 MSTORE PUSH1 0x11 PUSH1 0x4 MSTORE PUSH1 0x24 PUSH1 0x0 REVERT JUMPDEST PUSH32 0x4E487B7100000000000000000000000000000000000000000000000000000000 PUSH1 0x0 MSTORE PUSH1 0x12 PUSH1 0x4 MSTORE PUSH1 0x24 PUSH1 0x0 REVERT JUMPDEST PUSH32 0x4E487B7100000000000000000000000000000000000000000000000000000000 PUSH1 0x0 MSTORE PUSH1 0x32 PUSH1 0x4 MSTORE PUSH1 0x24 PUSH1 0x0 REVERT JUMPDEST PUSH32 0x4E487B7100000000000000000000000000000000000000000000000000000000 PUSH1 0x0 MSTORE PUSH1 0x41 PUSH1 0x4 MSTORE PUSH1 0x24 PUSH1 0x0 REVERT JUMPDEST PUSH1 0x0 DUP1 REVERT JUMPDEST PUSH1 0x0 DUP1 REVERT JUMPDEST PUSH1 0x0 DUP1 REVERT JUMPDEST PUSH1 0x0 DUP1 REVERT JUMPDEST PUSH1 0x0 PUSH1 0x1F NOT PUSH1 0x1F DUP4 ADD AND SWAP1 POP SWAP2 SWAP1 POP JUMP JUMPDEST PUSH32 0x446964206E6F742077696E000000000000000000000000000000000000000000 PUSH1 0x0 DUP3 ADD MSTORE POP JUMP JUMPDEST PUSH32 0x4E6F742066696E616C697A656400000000000000000000000000000000000000 PUSH1 0x0 DUP3 ADD MSTORE POP JUMP JUMPDEST PUSH32 0x496E76616C69642074696D657374616D70000000000000000000000000000000 PUSH1 0x0 DUP3 ADD MSTORE POP JUMP JUMPDEST PUSH32 0x42657420626967676572207468616E2077696E6E696E6720706F6F6C00000000 PUSH1 0x0 DUP3 ADD MSTORE POP JUMP JUMPDEST PUSH32 0x416C726561647920636C61696D65640000000000000000000000000000000000 PUSH1 0x0 DUP3 ADD MSTORE POP JUMP JUMPDEST PUSH32 0x42657420616C726561647920706C616365640000000000000000000000000000 PUSH1 0x0 DUP3 ADD MSTORE POP JUMP JUMPDEST PUSH32 0x4E6F2076616C756520696D206265740000000000000000000000000000000000 PUSH1 0x0 DUP3 ADD MSTORE POP JUMP JUMPDEST PUSH32 0x50617373656420746865206C696D697400000000000000000000000000000000 PUSH1 0x0 DUP3 ADD MSTORE POP JUMP JUMPDEST PUSH32 0x416C72656164792066696E616C697A6564000000000000000000000000000000 PUSH1 0x0 DUP3 ADD MSTORE POP JUMP JUMPDEST PUSH2 0x25A3 DUP2 PUSH2 0x21F4 JUMP JUMPDEST DUP2 EQ PUSH2 0x25AE JUMPI PUSH1 0x0 DUP1 REVERT JUMPDEST POP JUMP JUMPDEST PUSH2 0x25BA DUP2 PUSH2 0x2206 JUMP JUMPDEST DUP2 EQ PUSH2 0x25C5 JUMPI PUSH1 0x0 DUP1 REVERT JUMPDEST POP JUMP JUMPDEST PUSH2 0x25D1 DUP2 PUSH2 0x2253 JUMP JUMPDEST DUP2 EQ PUSH2 0x25DC JUMPI PUSH1 0x0 DUP1 REVERT JUMPDEST POP JUMP INVALID LOG2 PUSH5 0x6970667358 0x22 SLT KECCAK256 PUSH11 0x39A96DD916DFC01842BFB7 SWAP3 MUL SWAP4 PUSH32 0xF0228811D4BBF353BA728DFFE05B44FF64736F6C634300080700330000000000 "
				},
				"gasEstimates": {
					"creation": {
						"codeDepositCost": "1949800",
						"executionCost": "infinite",
						"totalCost": "infinite"
					},
					"external": {
						"aggregateValues(uint256[])": "infinite",
						"bets(address)": "2894",
						"claim()": "infinite",
						"claims(address)": "2867",
						"end()": "2495",
						"endLimit()": "2452",
						"expected()": "2497",
						"extractTimestampsAndAssertAllAreEqual()": "infinite",
						"finalize()": "infinite",
						"getAuthorisedSignerIndex(address)": "infinite",
						"getDataServiceId()": "infinite",
						"getUniqueSignersThreshold()": "453",
						"noPool()": "2496",
						"outcome()": "2519",
						"payout(uint256)": "infinite",
						"placeBet(bool)": "infinite",
						"stakes(address)": "2860",
						"validateTimestamp(uint256)": "494",
						"yesPool()": "2540"
					}
				},
				"methodIdentifiers": {
					"aggregateValues(uint256[])": "b24ebfcc",
					"bets(address)": "89a78f1a",
					"claim()": "4e71d92d",
					"claims(address)": "c6788bdd",
					"end()": "efbe1c1c",
					"endLimit()": "7a1fc2e2",
					"expected()": "1ce62383",
					"extractTimestampsAndAssertAllAreEqual()": "55a547d5",
					"finalize()": "4bb278f3",
					"getAuthorisedSignerIndex(address)": "3ce142f5",
					"getDataServiceId()": "c274583a",
					"getUniqueSignersThreshold()": "f90c4924",
					"noPool()": "a3b5afb1",
					"outcome()": "27793f87",
					"payout(uint256)": "e1152343",
					"placeBet(bool)": "096a3778",
					"stakes(address)": "16934fc4",
					"validateTimestamp(uint256)": "f50b2efe",
					"yesPool()": "6f1d4ea4"
				}
			},
			"storageLayout": {
				"storage": [
					{
						"astId": 1477,
						"contract": "contracts/PriceBet.sol:PriceBet",
						"label": "symbol",
						"offset": 0,
						"slot": "0",
						"type": "t_bytes32"
					},
					{
						"astId": 1479,
						"contract": "contracts/PriceBet.sol:PriceBet",
						"label": "expected",
						"offset": 0,
						"slot": "1",
						"type": "t_uint256"
					},
					{
						"astId": 1482,
						"contract": "contracts/PriceBet.sol:PriceBet",
						"label": "outcome",
						"offset": 0,
						"slot": "2",
						"type": "t_int256"
					},
					{
						"astId": 1484,
						"contract": "contracts/PriceBet.sol:PriceBet",
						"label": "end",
						"offset": 0,
						"slot": "3",
						"type": "t_uint256"
					},
					{
						"astId": 1486,
						"contract": "contracts/PriceBet.sol:PriceBet",
						"label": "endLimit",
						"offset": 0,
						"slot": "4",
						"type": "t_uint256"
					},
					{
						"astId": 1490,
						"contract": "contracts/PriceBet.sol:PriceBet",
						"label": "bets",
						"offset": 0,
						"slot": "5",
						"type": "t_mapping(t_address,t_int8)"
					},
					{
						"astId": 1494,
						"contract": "contracts/PriceBet.sol:PriceBet",
						"label": "stakes",
						"offset": 0,
						"slot": "6",
						"type": "t_mapping(t_address,t_uint256)"
					},
					{
						"astId": 1498,
						"contract": "contracts/PriceBet.sol:PriceBet",
						"label": "claims",
						"offset": 0,
						"slot": "7",
						"type": "t_mapping(t_address,t_bool)"
					},
					{
						"astId": 1500,
						"contract": "contracts/PriceBet.sol:PriceBet",
						"label": "yesPool",
						"offset": 0,
						"slot": "8",
						"type": "t_uint256"
					},
					{
						"astId": 1502,
						"contract": "contracts/PriceBet.sol:PriceBet",
						"label": "noPool",
						"offset": 0,
						"slot": "9",
						"type": "t_uint256"
					}
				],
				"types": {
					"t_address": {
						"encoding": "inplace",
						"label": "address",
						"numberOfBytes": "20"
					},
					"t_bool": {
						"encoding": "inplace",
						"label": "bool",
						"numberOfBytes": "1"
					},
					"t_bytes32": {
						"encoding": "inplace",
						"label": "bytes32",
						"numberOfBytes": "32"
					},
					"t_int256": {
						"encoding": "inplace",
						"label": "int256",
						"numberOfBytes": "32"
					},
					"t_int8": {
						"encoding": "inplace",
						"label": "int8",
						"numberOfBytes": "1"
					},
					"t_mapping(t_address,t_bool)": {
						"encoding": "mapping",
						"key": "t_address",
						"label": "mapping(address => bool)",
						"numberOfBytes": "32",
						"value": "t_bool"
					},
					"t_mapping(t_address,t_int8)": {
						"encoding": "mapping",
						"key": "t_address",
						"label": "mapping(address => int8)",
						"numberOfBytes": "32",
						"value": "t_int8"
					},
					"t_mapping(t_address,t_uint256)": {
						"encoding": "mapping",
						"key": "t_address",
						"label": "mapping(address => uint256)",
						"numberOfBytes": "32",
						"value": "t_uint256"
					},
					"t_uint256": {
						"encoding": "inplace",
						"label": "uint256",
						"numberOfBytes": "32"
					}
				}
			},
			"userdoc": {
				"kind": "user",
				"methods": {},
				"version": 1
			}
		}
	}
}