{
	"contracts/TrustBet.sol": {
		"TrustBet": {
			"abi": [
				{
					"inputs": [
						{
							"internalType": "uint256",
							"name": "_end",
							"type": "uint256"
						}
					],
					"stateMutability": "nonpayable",
					"type": "constructor"
				},
				{
					"anonymous": false,
					"inputs": [
						{
							"indexed": true,
							"internalType": "address",
							"name": "previousOwner",
							"type": "address"
						},
						{
							"indexed": true,
							"internalType": "address",
							"name": "newOwner",
							"type": "address"
						}
					],
					"name": "OwnershipTransferred",
					"type": "event"
				},
				{
					"inputs": [
						{
							"internalType": "address",
							"name": "",
							"type": "address"
						}
					],
					"name": "bets",
					"outputs": [
						{
							"internalType": "int8",
							"name": "",
							"type": "int8"
						}
					],
					"stateMutability": "view",
					"type": "function"
				},
				{
					"inputs": [],
					"name": "claim",
					"outputs": [],
					"stateMutability": "nonpayable",
					"type": "function"
				},
				{
					"inputs": [
						{
							"internalType": "address",
							"name": "",
							"type": "address"
						}
					],
					"name": "claims",
					"outputs": [
						{
							"internalType": "bool",
							"name": "",
							"type": "bool"
						}
					],
					"stateMutability": "view",
					"type": "function"
				},
				{
					"inputs": [],
					"name": "clock",
					"outputs": [
						{
							"internalType": "uint256",
							"name": "",
							"type": "uint256"
						}
					],
					"stateMutability": "view",
					"type": "function"
				},
				{
					"inputs": [],
					"name": "end",
					"outputs": [
						{
							"internalType": "uint256",
							"name": "",
							"type": "uint256"
						}
					],
					"stateMutability": "view",
					"type": "function"
				},
				{
					"inputs": [],
					"name": "getClock",
					"outputs": [
						{
							"internalType": "uint256",
							"name": "",
							"type": "uint256"
						}
					],
					"stateMutability": "view",
					"type": "function"
				},
				{
					"inputs": [],
					"name": "noPool",
					"outputs": [
						{
							"internalType": "uint256",
							"name": "",
							"type": "uint256"
						}
					],
					"stateMutability": "view",
					"type": "function"
				},
				{
					"inputs": [],
					"name": "outcome",
					"outputs": [
						{
							"internalType": "int256",
							"name": "",
							"type": "int256"
						}
					],
					"stateMutability": "view",
					"type": "function"
				},
				{
					"inputs": [],
					"name": "owner",
					"outputs": [
						{
							"internalType": "address",
							"name": "",
							"type": "address"
						}
					],
					"stateMutability": "view",
					"type": "function"
				},
				{
					"inputs": [
						{
							"internalType": "uint256",
							"name": "bet",
							"type": "uint256"
						}
					],
					"name": "payout",
					"outputs": [
						{
							"internalType": "uint256",
							"name": "",
							"type": "uint256"
						}
					],
					"stateMutability": "view",
					"type": "function"
				},
				{
					"inputs": [
						{
							"internalType": "bool",
							"name": "_outcome",
							"type": "bool"
						}
					],
					"name": "placeBet",
					"outputs": [],
					"stateMutability": "payable",
					"type": "function"
				},
				{
					"inputs": [],
					"name": "renounceOwnership",
					"outputs": [],
					"stateMutability": "nonpayable",
					"type": "function"
				},
				{
					"inputs": [
						{
							"internalType": "uint256",
							"name": "timestamp",
							"type": "uint256"
						}
					],
					"name": "setClock",
					"outputs": [],
					"stateMutability": "nonpayable",
					"type": "function"
				},
				{
					"inputs": [
						{
							"internalType": "bool",
							"name": "_outcome",
							"type": "bool"
						}
					],
					"name": "setOutcome",
					"outputs": [],
					"stateMutability": "nonpayable",
					"type": "function"
				},
				{
					"inputs": [
						{
							"internalType": "address",
							"name": "",
							"type": "address"
						}
					],
					"name": "stakes",
					"outputs": [
						{
							"internalType": "uint256",
							"name": "",
							"type": "uint256"
						}
					],
					"stateMutability": "view",
					"type": "function"
				},
				{
					"inputs": [
						{
							"internalType": "address",
							"name": "newOwner",
							"type": "address"
						}
					],
					"name": "transferOwnership",
					"outputs": [],
					"stateMutability": "nonpayable",
					"type": "function"
				},
				{
					"inputs": [],
					"name": "yesPool",
					"outputs": [
						{
							"internalType": "uint256",
							"name": "",
							"type": "uint256"
						}
					],
					"stateMutability": "view",
					"type": "function"
				}
			],
			"devdoc": {
				"kind": "dev",
				"methods": {
					"owner()": {
						"details": "Returns the address of the current owner."
					},
					"renounceOwnership()": {
						"details": "Leaves the contract without owner. It will not be possible to call `onlyOwner` functions. Can only be called by the current owner. NOTE: Renouncing ownership will leave the contract without an owner, thereby disabling any functionality that is only available to the owner."
					},
					"transferOwnership(address)": {
						"details": "Transfers ownership of the contract to a new account (`newOwner`). Can only be called by the current owner."
					}
				},
				"version": 1
			},
			"evm": {
				"assembly": "    /* \"contracts/TrustBet.sol\":131:392  contract TrustBet is Ownable, Bet {... */\n  mstore(0x40, 0x80)\n    /* \"contracts/Bet.sol\":174:175  0 */\n  0x00\n    /* \"contracts/Bet.sol\":150:175  int256 public outcome = 0 */\n  0x01\n  sstore\n    /* \"contracts/TrustBet.sol\":171:224  constructor(uint256 _end) {... */\n  callvalue\n  dup1\n  iszero\n  tag_1\n  jumpi\n  0x00\n  dup1\n  revert\ntag_1:\n  pop\n  mload(0x40)\n  sub(codesize, bytecodeSize)\n  dup1\n  bytecodeSize\n  dup4\n  codecopy\n  dup2\n  dup2\n  add\n  0x40\n  mstore\n  dup2\n  add\n  swap1\n  tag_2\n  swap2\n  swap1\n  tag_3\n  jump\t// in\ntag_2:\n    /* \"@openzeppelin/contracts/access/Ownable.sol\":936:968  _transferOwnership(_msgSender()) */\n  tag_7\n    /* \"@openzeppelin/contracts/access/Ownable.sol\":955:967  _msgSender() */\n  tag_8\n    /* \"@openzeppelin/contracts/access/Ownable.sol\":955:965  _msgSender */\n  shl(0x20, tag_9)\n    /* \"@openzeppelin/contracts/access/Ownable.sol\":955:967  _msgSender() */\n  0x20\n  shr\n  jump\t// in\ntag_8:\n    /* \"@openzeppelin/contracts/access/Ownable.sol\":936:954  _transferOwnership */\n  shl(0x20, tag_10)\n    /* \"@openzeppelin/contracts/access/Ownable.sol\":936:968  _transferOwnership(_msgSender()) */\n  0x20\n  shr\n  jump\t// in\ntag_7:\n    /* \"contracts/TrustBet.sol\":213:217  _end */\n  dup1\n    /* \"contracts/TrustBet.sol\":207:210  end */\n  0x02\n    /* \"contracts/TrustBet.sol\":207:217  end = _end */\n  dup2\n  swap1\n  sstore\n  pop\n    /* \"contracts/TrustBet.sol\":171:224  constructor(uint256 _end) {... */\n  pop\n    /* \"contracts/TrustBet.sol\":131:392  contract TrustBet is Ownable, Bet {... */\n  jump(tag_12)\n    /* \"@openzeppelin/contracts/utils/Context.sol\":655:751  function _msgSender() internal view virtual returns (address) {... */\ntag_9:\n    /* \"@openzeppelin/contracts/utils/Context.sol\":708:715  address */\n  0x00\n    /* \"@openzeppelin/contracts/utils/Context.sol\":734:744  msg.sender */\n  caller\n    /* \"@openzeppelin/contracts/utils/Context.sol\":727:744  return msg.sender */\n  swap1\n  pop\n    /* \"@openzeppelin/contracts/utils/Context.sol\":655:751  function _msgSender() internal view virtual returns (address) {... */\n  swap1\n  jump\t// out\n    /* \"@openzeppelin/contracts/access/Ownable.sol\":2426:2613  function _transferOwnership(address newOwner) internal virtual {... */\ntag_10:\n    /* \"@openzeppelin/contracts/access/Ownable.sol\":2499:2515  address oldOwner */\n  0x00\n    /* \"@openzeppelin/contracts/access/Ownable.sol\":2518:2524  _owner */\n  dup1\n  0x00\n  swap1\n  sload\n  swap1\n  0x0100\n  exp\n  swap1\n  div\n  0xffffffffffffffffffffffffffffffffffffffff\n  and\n    /* \"@openzeppelin/contracts/access/Ownable.sol\":2499:2524  address oldOwner = _owner */\n  swap1\n  pop\n    /* \"@openzeppelin/contracts/access/Ownable.sol\":2543:2551  newOwner */\n  dup2\n    /* \"@openzeppelin/contracts/access/Ownable.sol\":2534:2540  _owner */\n  0x00\n  dup1\n    /* \"@openzeppelin/contracts/access/Ownable.sol\":2534:2551  _owner = newOwner */\n  0x0100\n  exp\n  dup2\n  sload\n  dup2\n  0xffffffffffffffffffffffffffffffffffffffff\n  mul\n  not\n  and\n  swap1\n  dup4\n  0xffffffffffffffffffffffffffffffffffffffff\n  and\n  mul\n  or\n  swap1\n  sstore\n  pop\n    /* \"@openzeppelin/contracts/access/Ownable.sol\":2597:2605  newOwner */\n  dup2\n    /* \"@openzeppelin/contracts/access/Ownable.sol\":2566:2606  OwnershipTransferred(oldOwner, newOwner) */\n  0xffffffffffffffffffffffffffffffffffffffff\n  and\n    /* \"@openzeppelin/contracts/access/Ownable.sol\":2587:2595  oldOwner */\n  dup2\n    /* \"@openzeppelin/contracts/access/Ownable.sol\":2566:2606  OwnershipTransferred(oldOwner, newOwner) */\n  0xffffffffffffffffffffffffffffffffffffffff\n  and\n  0x8be0079c531659141344cd1fd0a4f28419497f9722a3daafe3b4186f6b6457e0\n  mload(0x40)\n  mload(0x40)\n  dup1\n  swap2\n  sub\n  swap1\n  log3\n    /* \"@openzeppelin/contracts/access/Ownable.sol\":2489:2613  {... */\n  pop\n    /* \"@openzeppelin/contracts/access/Ownable.sol\":2426:2613  function _transferOwnership(address newOwner) internal virtual {... */\n  pop\n  jump\t// out\n    /* \"#utility.yul\":88:205   */\ntag_16:\n    /* \"#utility.yul\":197:198   */\n  0x00\n    /* \"#utility.yul\":194:195   */\n  dup1\n    /* \"#utility.yul\":187:199   */\n  revert\n    /* \"#utility.yul\":334:411   */\ntag_18:\n    /* \"#utility.yul\":371:378   */\n  0x00\n    /* \"#utility.yul\":400:405   */\n  dup2\n    /* \"#utility.yul\":389:405   */\n  swap1\n  pop\n    /* \"#utility.yul\":334:411   */\n  swap2\n  swap1\n  pop\n  jump\t// out\n    /* \"#utility.yul\":417:539   */\ntag_19:\n    /* \"#utility.yul\":490:514   */\n  tag_27\n    /* \"#utility.yul\":508:513   */\n  dup2\n    /* \"#utility.yul\":490:514   */\n  tag_18\n  jump\t// in\ntag_27:\n    /* \"#utility.yul\":483:488   */\n  dup2\n    /* \"#utility.yul\":480:515   */\n  eq\n    /* \"#utility.yul\":470:533   */\n  tag_28\n  jumpi\n    /* \"#utility.yul\":529:530   */\n  0x00\n    /* \"#utility.yul\":526:527   */\n  dup1\n    /* \"#utility.yul\":519:531   */\n  revert\n    /* \"#utility.yul\":470:533   */\ntag_28:\n    /* \"#utility.yul\":417:539   */\n  pop\n  jump\t// out\n    /* \"#utility.yul\":545:688   */\ntag_20:\n    /* \"#utility.yul\":602:607   */\n  0x00\n    /* \"#utility.yul\":633:639   */\n  dup2\n    /* \"#utility.yul\":627:640   */\n  mload\n    /* \"#utility.yul\":618:640   */\n  swap1\n  pop\n    /* \"#utility.yul\":649:682   */\n  tag_30\n    /* \"#utility.yul\":676:681   */\n  dup2\n    /* \"#utility.yul\":649:682   */\n  tag_19\n  jump\t// in\ntag_30:\n    /* \"#utility.yul\":545:688   */\n  swap3\n  swap2\n  pop\n  pop\n  jump\t// out\n    /* \"#utility.yul\":694:1045   */\ntag_3:\n    /* \"#utility.yul\":764:770   */\n  0x00\n    /* \"#utility.yul\":813:815   */\n  0x20\n    /* \"#utility.yul\":801:810   */\n  dup3\n    /* \"#utility.yul\":792:799   */\n  dup5\n    /* \"#utility.yul\":788:811   */\n  sub\n    /* \"#utility.yul\":784:816   */\n  slt\n    /* \"#utility.yul\":781:900   */\n  iszero\n  tag_32\n  jumpi\n    /* \"#utility.yul\":819:898   */\n  tag_33\n  tag_16\n  jump\t// in\ntag_33:\n    /* \"#utility.yul\":781:900   */\ntag_32:\n    /* \"#utility.yul\":939:940   */\n  0x00\n    /* \"#utility.yul\":964:1028   */\n  tag_34\n    /* \"#utility.yul\":1020:1027   */\n  dup5\n    /* \"#utility.yul\":1011:1017   */\n  dup3\n    /* \"#utility.yul\":1000:1009   */\n  dup6\n    /* \"#utility.yul\":996:1018   */\n  add\n    /* \"#utility.yul\":964:1028   */\n  tag_20\n  jump\t// in\ntag_34:\n    /* \"#utility.yul\":954:1028   */\n  swap2\n  pop\n    /* \"#utility.yul\":910:1038   */\n  pop\n    /* \"#utility.yul\":694:1045   */\n  swap3\n  swap2\n  pop\n  pop\n  jump\t// out\n    /* \"contracts/TrustBet.sol\":131:392  contract TrustBet is Ownable, Bet {... */\ntag_12:\n  dataSize(sub_0)\n  dup1\n  dataOffset(sub_0)\n  0x00\n  codecopy\n  0x00\n  return\nstop\n\nsub_0: assembly {\n        /* \"contracts/TrustBet.sol\":131:392  contract TrustBet is Ownable, Bet {... */\n      mstore(0x40, 0x80)\n      jumpi(tag_1, lt(calldatasize, 0x04))\n      shr(0xe0, calldataload(0x00))\n      dup1\n      0x8da5cb5b\n      gt\n      tag_19\n      jumpi\n      dup1\n      0xe1152343\n      gt\n      tag_20\n      jumpi\n      dup1\n      0xe1152343\n      eq\n      tag_14\n      jumpi\n      dup1\n      0xee29416c\n      eq\n      tag_15\n      jumpi\n      dup1\n      0xeed947b1\n      eq\n      tag_16\n      jumpi\n      dup1\n      0xefbe1c1c\n      eq\n      tag_17\n      jumpi\n      dup1\n      0xf2fde38b\n      eq\n      tag_18\n      jumpi\n      jump(tag_1)\n    tag_20:\n      dup1\n      0x8da5cb5b\n      eq\n      tag_10\n      jumpi\n      dup1\n      0x91ddadf4\n      eq\n      tag_11\n      jumpi\n      dup1\n      0xa3b5afb1\n      eq\n      tag_12\n      jumpi\n      dup1\n      0xc6788bdd\n      eq\n      tag_13\n      jumpi\n      jump(tag_1)\n    tag_19:\n      dup1\n      0x51536c0f\n      gt\n      tag_21\n      jumpi\n      dup1\n      0x51536c0f\n      eq\n      tag_6\n      jumpi\n      dup1\n      0x6f1d4ea4\n      eq\n      tag_7\n      jumpi\n      dup1\n      0x715018a6\n      eq\n      tag_8\n      jumpi\n      dup1\n      0x89a78f1a\n      eq\n      tag_9\n      jumpi\n      jump(tag_1)\n    tag_21:\n      dup1\n      0x096a3778\n      eq\n      tag_2\n      jumpi\n      dup1\n      0x16934fc4\n      eq\n      tag_3\n      jumpi\n      dup1\n      0x27793f87\n      eq\n      tag_4\n      jumpi\n      dup1\n      0x4e71d92d\n      eq\n      tag_5\n      jumpi\n    tag_1:\n      0x00\n      dup1\n      revert\n        /* \"contracts/Bet.sol\":458:915  function placeBet(bool _outcome) public payable {... */\n    tag_2:\n      tag_22\n      0x04\n      dup1\n      calldatasize\n      sub\n      dup2\n      add\n      swap1\n      tag_23\n      swap2\n      swap1\n      tag_24\n      jump\t// in\n    tag_23:\n      tag_25\n      jump\t// in\n    tag_22:\n      stop\n        /* \"contracts/Bet.sol\":248:290  mapping (address => uint256) public stakes */\n    tag_3:\n      callvalue\n      dup1\n      iszero\n      tag_26\n      jumpi\n      0x00\n      dup1\n      revert\n    tag_26:\n      pop\n      tag_27\n      0x04\n      dup1\n      calldatasize\n      sub\n      dup2\n      add\n      swap1\n      tag_28\n      swap2\n      swap1\n      tag_29\n      jump\t// in\n    tag_28:\n      tag_30\n      jump\t// in\n    tag_27:\n      mload(0x40)\n      tag_31\n      swap2\n      swap1\n      tag_32\n      jump\t// in\n    tag_31:\n      mload(0x40)\n      dup1\n      swap2\n      sub\n      swap1\n      return\n        /* \"contracts/Bet.sol\":150:175  int256 public outcome = 0 */\n    tag_4:\n      callvalue\n      dup1\n      iszero\n      tag_33\n      jumpi\n      0x00\n      dup1\n      revert\n    tag_33:\n      pop\n      tag_34\n      tag_35\n      jump\t// in\n    tag_34:\n      mload(0x40)\n      tag_36\n      swap2\n      swap1\n      tag_37\n      jump\t// in\n    tag_36:\n      mload(0x40)\n      dup1\n      swap2\n      sub\n      swap1\n      return\n        /* \"contracts/Bet.sol\":921:1307  function claim() public {... */\n    tag_5:\n      callvalue\n      dup1\n      iszero\n      tag_38\n      jumpi\n      0x00\n      dup1\n      revert\n    tag_38:\n      pop\n      tag_39\n      tag_40\n      jump\t// in\n    tag_39:\n      stop\n        /* \"contracts/Bet.sol\":1711:1799  function setClock(uint256 timestamp) public onlyOwner {... */\n    tag_6:\n      callvalue\n      dup1\n      iszero\n      tag_41\n      jumpi\n      0x00\n      dup1\n      revert\n    tag_41:\n      pop\n      tag_42\n      0x04\n      dup1\n      calldatasize\n      sub\n      dup2\n      add\n      swap1\n      tag_43\n      swap2\n      swap1\n      tag_44\n      jump\t// in\n    tag_43:\n      tag_45\n      jump\t// in\n    tag_42:\n      stop\n        /* \"contracts/Bet.sol\":341:363  uint256 public yesPool */\n    tag_7:\n      callvalue\n      dup1\n      iszero\n      tag_46\n      jumpi\n      0x00\n      dup1\n      revert\n    tag_46:\n      pop\n      tag_47\n      tag_48\n      jump\t// in\n    tag_47:\n      mload(0x40)\n      tag_49\n      swap2\n      swap1\n      tag_32\n      jump\t// in\n    tag_49:\n      mload(0x40)\n      dup1\n      swap2\n      sub\n      swap1\n      return\n        /* \"@openzeppelin/contracts/access/Ownable.sol\":1824:1925  function renounceOwnership() public virtual onlyOwner {... */\n    tag_8:\n      callvalue\n      dup1\n      iszero\n      tag_50\n      jumpi\n      0x00\n      dup1\n      revert\n    tag_50:\n      pop\n      tag_51\n      tag_52\n      jump\t// in\n    tag_51:\n      stop\n        /* \"contracts/Bet.sol\":205:242  mapping (address => int8) public bets */\n    tag_9:\n      callvalue\n      dup1\n      iszero\n      tag_53\n      jumpi\n      0x00\n      dup1\n      revert\n    tag_53:\n      pop\n      tag_54\n      0x04\n      dup1\n      calldatasize\n      sub\n      dup2\n      add\n      swap1\n      tag_55\n      swap2\n      swap1\n      tag_29\n      jump\t// in\n    tag_55:\n      tag_56\n      jump\t// in\n    tag_54:\n      mload(0x40)\n      tag_57\n      swap2\n      swap1\n      tag_58\n      jump\t// in\n    tag_57:\n      mload(0x40)\n      dup1\n      swap2\n      sub\n      swap1\n      return\n        /* \"@openzeppelin/contracts/access/Ownable.sol\":1201:1286  function owner() public view virtual returns (address) {... */\n    tag_10:\n      callvalue\n      dup1\n      iszero\n      tag_59\n      jumpi\n      0x00\n      dup1\n      revert\n    tag_59:\n      pop\n      tag_60\n      tag_61\n      jump\t// in\n    tag_60:\n      mload(0x40)\n      tag_62\n      swap2\n      swap1\n      tag_63\n      jump\t// in\n    tag_62:\n      mload(0x40)\n      dup1\n      swap2\n      sub\n      swap1\n      return\n        /* \"contracts/Bet.sol\":431:451  uint256 public clock */\n    tag_11:\n      callvalue\n      dup1\n      iszero\n      tag_64\n      jumpi\n      0x00\n      dup1\n      revert\n    tag_64:\n      pop\n      tag_65\n      tag_66\n      jump\t// in\n    tag_65:\n      mload(0x40)\n      tag_67\n      swap2\n      swap1\n      tag_32\n      jump\t// in\n    tag_67:\n      mload(0x40)\n      dup1\n      swap2\n      sub\n      swap1\n      return\n        /* \"contracts/Bet.sol\":369:390  uint256 public noPool */\n    tag_12:\n      callvalue\n      dup1\n      iszero\n      tag_68\n      jumpi\n      0x00\n      dup1\n      revert\n    tag_68:\n      pop\n      tag_69\n      tag_70\n      jump\t// in\n    tag_69:\n      mload(0x40)\n      tag_71\n      swap2\n      swap1\n      tag_32\n      jump\t// in\n    tag_71:\n      mload(0x40)\n      dup1\n      swap2\n      sub\n      swap1\n      return\n        /* \"contracts/Bet.sol\":296:335  mapping (address => bool) public claims */\n    tag_13:\n      callvalue\n      dup1\n      iszero\n      tag_72\n      jumpi\n      0x00\n      dup1\n      revert\n    tag_72:\n      pop\n      tag_73\n      0x04\n      dup1\n      calldatasize\n      sub\n      dup2\n      add\n      swap1\n      tag_74\n      swap2\n      swap1\n      tag_29\n      jump\t// in\n    tag_74:\n      tag_75\n      jump\t// in\n    tag_73:\n      mload(0x40)\n      tag_76\n      swap2\n      swap1\n      tag_77\n      jump\t// in\n    tag_76:\n      mload(0x40)\n      dup1\n      swap2\n      sub\n      swap1\n      return\n        /* \"contracts/Bet.sol\":1313:1705  function payout(uint256 bet) public view returns(uint256) {... */\n    tag_14:\n      callvalue\n      dup1\n      iszero\n      tag_78\n      jumpi\n      0x00\n      dup1\n      revert\n    tag_78:\n      pop\n      tag_79\n      0x04\n      dup1\n      calldatasize\n      sub\n      dup2\n      add\n      swap1\n      tag_80\n      swap2\n      swap1\n      tag_44\n      jump\t// in\n    tag_80:\n      tag_81\n      jump\t// in\n    tag_79:\n      mload(0x40)\n      tag_82\n      swap2\n      swap1\n      tag_32\n      jump\t// in\n    tag_82:\n      mload(0x40)\n      dup1\n      swap2\n      sub\n      swap1\n      return\n        /* \"contracts/TrustBet.sol\":230:390  function setOutcome(bool _outcome) public onlyOwner {... */\n    tag_15:\n      callvalue\n      dup1\n      iszero\n      tag_83\n      jumpi\n      0x00\n      dup1\n      revert\n    tag_83:\n      pop\n      tag_84\n      0x04\n      dup1\n      calldatasize\n      sub\n      dup2\n      add\n      swap1\n      tag_85\n      swap2\n      swap1\n      tag_24\n      jump\t// in\n    tag_85:\n      tag_86\n      jump\t// in\n    tag_84:\n      stop\n        /* \"contracts/Bet.sol\":1805:1883  function getClock() public view returns(uint256) {... */\n    tag_16:\n      callvalue\n      dup1\n      iszero\n      tag_87\n      jumpi\n      0x00\n      dup1\n      revert\n    tag_87:\n      pop\n      tag_88\n      tag_89\n      jump\t// in\n    tag_88:\n      mload(0x40)\n      tag_90\n      swap2\n      swap1\n      tag_32\n      jump\t// in\n    tag_90:\n      mload(0x40)\n      dup1\n      swap2\n      sub\n      swap1\n      return\n        /* \"contracts/Bet.sol\":181:199  uint256 public end */\n    tag_17:\n      callvalue\n      dup1\n      iszero\n      tag_91\n      jumpi\n      0x00\n      dup1\n      revert\n    tag_91:\n      pop\n      tag_92\n      tag_93\n      jump\t// in\n    tag_92:\n      mload(0x40)\n      tag_94\n      swap2\n      swap1\n      tag_32\n      jump\t// in\n    tag_94:\n      mload(0x40)\n      dup1\n      swap2\n      sub\n      swap1\n      return\n        /* \"@openzeppelin/contracts/access/Ownable.sol\":2074:2272  function transferOwnership(address newOwner) public virtual onlyOwner {... */\n    tag_18:\n      callvalue\n      dup1\n      iszero\n      tag_95\n      jumpi\n      0x00\n      dup1\n      revert\n    tag_95:\n      pop\n      tag_96\n      0x04\n      dup1\n      calldatasize\n      sub\n      dup2\n      add\n      swap1\n      tag_97\n      swap2\n      swap1\n      tag_29\n      jump\t// in\n    tag_97:\n      tag_98\n      jump\t// in\n    tag_96:\n      stop\n        /* \"contracts/Bet.sol\":458:915  function placeBet(bool _outcome) public payable {... */\n    tag_25:\n        /* \"contracts/Bet.sol\":537:538  0 */\n      0x00\n        /* \"contracts/Bet.sol\":524:533  msg.value */\n      callvalue\n        /* \"contracts/Bet.sol\":524:538  msg.value != 0 */\n      sub\n        /* \"contracts/Bet.sol\":516:558  require(msg.value != 0, \"No value im bet\") */\n      tag_100\n      jumpi\n      mload(0x40)\n      0x08c379a000000000000000000000000000000000000000000000000000000000\n      dup2\n      mstore\n      0x04\n      add\n      tag_101\n      swap1\n      tag_102\n      jump\t// in\n    tag_101:\n      mload(0x40)\n      dup1\n      swap2\n      sub\n      swap1\n      revert\n    tag_100:\n        /* \"contracts/Bet.sol\":596:597  0 */\n      0x00\n        /* \"contracts/Bet.sol\":576:580  bets */\n      0x03\n        /* \"contracts/Bet.sol\":576:592  bets[msg.sender] */\n      0x00\n        /* \"contracts/Bet.sol\":581:591  msg.sender */\n      caller\n        /* \"contracts/Bet.sol\":576:592  bets[msg.sender] */\n      0xffffffffffffffffffffffffffffffffffffffff\n      and\n      0xffffffffffffffffffffffffffffffffffffffff\n      and\n      dup2\n      mstore\n      0x20\n      add\n      swap1\n      dup2\n      mstore\n      0x20\n      add\n      0x00\n      keccak256\n      0x00\n      swap1\n      sload\n      swap1\n      0x0100\n      exp\n      swap1\n      div\n      0x00\n      signextend\n        /* \"contracts/Bet.sol\":576:597  bets[msg.sender] == 0 */\n      0x00\n      signextend\n      eq\n        /* \"contracts/Bet.sol\":568:620  require(bets[msg.sender] == 0, \"Bet already placed\") */\n      tag_103\n      jumpi\n      mload(0x40)\n      0x08c379a000000000000000000000000000000000000000000000000000000000\n      dup2\n      mstore\n      0x04\n      add\n      tag_104\n      swap1\n      tag_105\n      jump\t// in\n    tag_104:\n      mload(0x40)\n      dup1\n      swap2\n      sub\n      swap1\n      revert\n    tag_103:\n        /* \"contracts/Bet.sol\":656:659  end */\n      sload(0x02)\n        /* \"contracts/Bet.sol\":638:653  block.timestamp */\n      timestamp\n        /* \"contracts/Bet.sol\":638:659  block.timestamp < end */\n      lt\n        /* \"contracts/Bet.sol\":630:680  require(block.timestamp < end, \"Passed the limit\") */\n      tag_106\n      jumpi\n      mload(0x40)\n      0x08c379a000000000000000000000000000000000000000000000000000000000\n      dup2\n      mstore\n      0x04\n      add\n      tag_107\n      swap1\n      tag_108\n      jump\t// in\n    tag_107:\n      mload(0x40)\n      dup1\n      swap2\n      sub\n      swap1\n      revert\n    tag_106:\n        /* \"contracts/Bet.sol\":694:702  _outcome */\n      dup1\n        /* \"contracts/Bet.sol\":691:868  if(_outcome) {... */\n      iszero\n      tag_109\n      jumpi\n        /* \"contracts/Bet.sol\":737:738  1 */\n      0x01\n        /* \"contracts/Bet.sol\":718:722  bets */\n      0x03\n        /* \"contracts/Bet.sol\":718:734  bets[msg.sender] */\n      0x00\n        /* \"contracts/Bet.sol\":723:733  msg.sender */\n      caller\n        /* \"contracts/Bet.sol\":718:734  bets[msg.sender] */\n      0xffffffffffffffffffffffffffffffffffffffff\n      and\n      0xffffffffffffffffffffffffffffffffffffffff\n      and\n      dup2\n      mstore\n      0x20\n      add\n      swap1\n      dup2\n      mstore\n      0x20\n      add\n      0x00\n      keccak256\n      0x00\n        /* \"contracts/Bet.sol\":718:738  bets[msg.sender] = 1 */\n      0x0100\n      exp\n      dup2\n      sload\n      dup2\n      0xff\n      mul\n      not\n      and\n      swap1\n      dup4\n      0x00\n      signextend\n      0xff\n      and\n      mul\n      or\n      swap1\n      sstore\n      pop\n        /* \"contracts/Bet.sol\":763:772  msg.value */\n      callvalue\n        /* \"contracts/Bet.sol\":752:759  yesPool */\n      0x06\n      0x00\n        /* \"contracts/Bet.sol\":752:772  yesPool += msg.value */\n      dup3\n      dup3\n      sload\n      tag_110\n      swap2\n      swap1\n      tag_111\n      jump\t// in\n    tag_110:\n      swap3\n      pop\n      pop\n      dup2\n      swap1\n      sstore\n      pop\n        /* \"contracts/Bet.sol\":691:868  if(_outcome) {... */\n      jump(tag_112)\n    tag_109:\n        /* \"contracts/Bet.sol\":822:824  -1 */\n      0xffffffffffffffffffffffffffffffffffffffffffffffffffffffffffffffff\n        /* \"contracts/Bet.sol\":803:807  bets */\n      0x03\n        /* \"contracts/Bet.sol\":803:819  bets[msg.sender] */\n      0x00\n        /* \"contracts/Bet.sol\":808:818  msg.sender */\n      caller\n        /* \"contracts/Bet.sol\":803:819  bets[msg.sender] */\n      0xffffffffffffffffffffffffffffffffffffffff\n      and\n      0xffffffffffffffffffffffffffffffffffffffff\n      and\n      dup2\n      mstore\n      0x20\n      add\n      swap1\n      dup2\n      mstore\n      0x20\n      add\n      0x00\n      keccak256\n      0x00\n        /* \"contracts/Bet.sol\":803:824  bets[msg.sender] = -1 */\n      0x0100\n      exp\n      dup2\n      sload\n      dup2\n      0xff\n      mul\n      not\n      and\n      swap1\n      dup4\n      0x00\n      signextend\n      0xff\n      and\n      mul\n      or\n      swap1\n      sstore\n      pop\n        /* \"contracts/Bet.sol\":848:857  msg.value */\n      callvalue\n        /* \"contracts/Bet.sol\":838:844  noPool */\n      0x07\n      0x00\n        /* \"contracts/Bet.sol\":838:857  noPool += msg.value */\n      dup3\n      dup3\n      sload\n      tag_113\n      swap2\n      swap1\n      tag_111\n      jump\t// in\n    tag_113:\n      swap3\n      pop\n      pop\n      dup2\n      swap1\n      sstore\n      pop\n        /* \"contracts/Bet.sol\":691:868  if(_outcome) {... */\n    tag_112:\n        /* \"contracts/Bet.sol\":899:908  msg.value */\n      callvalue\n        /* \"contracts/Bet.sol\":877:883  stakes */\n      0x04\n        /* \"contracts/Bet.sol\":877:895  stakes[msg.sender] */\n      0x00\n        /* \"contracts/Bet.sol\":884:894  msg.sender */\n      caller\n        /* \"contracts/Bet.sol\":877:895  stakes[msg.sender] */\n      0xffffffffffffffffffffffffffffffffffffffff\n      and\n      0xffffffffffffffffffffffffffffffffffffffff\n      and\n      dup2\n      mstore\n      0x20\n      add\n      swap1\n      dup2\n      mstore\n      0x20\n      add\n      0x00\n      keccak256\n      0x00\n        /* \"contracts/Bet.sol\":877:908  stakes[msg.sender] += msg.value */\n      dup3\n      dup3\n      sload\n      tag_114\n      swap2\n      swap1\n      tag_111\n      jump\t// in\n    tag_114:\n      swap3\n      pop\n      pop\n      dup2\n      swap1\n      sstore\n      pop\n        /* \"contracts/Bet.sol\":458:915  function placeBet(bool _outcome) public payable {... */\n      pop\n      jump\t// out\n        /* \"contracts/Bet.sol\":248:290  mapping (address => uint256) public stakes */\n    tag_30:\n      mstore(0x20, 0x04)\n      dup1\n      0x00\n      mstore\n      keccak256(0x00, 0x40)\n      0x00\n      swap2\n      pop\n      swap1\n      pop\n      sload\n      dup2\n      jump\t// out\n        /* \"contracts/Bet.sol\":150:175  int256 public outcome = 0 */\n    tag_35:\n      sload(0x01)\n      dup2\n      jump\t// out\n        /* \"contracts/Bet.sol\":921:1307  function claim() public {... */\n    tag_40:\n        /* \"contracts/Bet.sol\":974:975  0 */\n      0x00\n        /* \"contracts/Bet.sol\":963:970  outcome */\n      sload(0x01)\n        /* \"contracts/Bet.sol\":963:975  outcome != 0 */\n      sub\n        /* \"contracts/Bet.sol\":955:993  require(outcome != 0, \"Not finalized\") */\n      tag_116\n      jumpi\n      mload(0x40)\n      0x08c379a000000000000000000000000000000000000000000000000000000000\n      dup2\n      mstore\n      0x04\n      add\n      tag_117\n      swap1\n      tag_118\n      jump\t// in\n    tag_117:\n      mload(0x40)\n      dup1\n      swap2\n      sub\n      swap1\n      revert\n    tag_116:\n        /* \"contracts/Bet.sol\":1031:1038  outcome */\n      sload(0x01)\n        /* \"contracts/Bet.sol\":1011:1015  bets */\n      0x03\n        /* \"contracts/Bet.sol\":1011:1027  bets[msg.sender] */\n      0x00\n        /* \"contracts/Bet.sol\":1016:1026  msg.sender */\n      caller\n        /* \"contracts/Bet.sol\":1011:1027  bets[msg.sender] */\n      0xffffffffffffffffffffffffffffffffffffffff\n      and\n      0xffffffffffffffffffffffffffffffffffffffff\n      and\n      dup2\n      mstore\n      0x20\n      add\n      swap1\n      dup2\n      mstore\n      0x20\n      add\n      0x00\n      keccak256\n      0x00\n      swap1\n      sload\n      swap1\n      0x0100\n      exp\n      swap1\n      div\n      0x00\n      signextend\n        /* \"contracts/Bet.sol\":1011:1038  bets[msg.sender] == outcome */\n      0x00\n      signextend\n      eq\n        /* \"contracts/Bet.sol\":1003:1054  require(bets[msg.sender] == outcome, \"Did not win\") */\n      tag_119\n      jumpi\n      mload(0x40)\n      0x08c379a000000000000000000000000000000000000000000000000000000000\n      dup2\n      mstore\n      0x04\n      add\n      tag_120\n      swap1\n      tag_121\n      jump\t// in\n    tag_120:\n      mload(0x40)\n      dup1\n      swap2\n      sub\n      swap1\n      revert\n    tag_119:\n        /* \"contracts/Bet.sol\":1094:1099  false */\n      0x00\n        /* \"contracts/Bet.sol\":1072:1099  claims[msg.sender] == false */\n      iszero\n      iszero\n        /* \"contracts/Bet.sol\":1072:1078  claims */\n      0x05\n        /* \"contracts/Bet.sol\":1072:1090  claims[msg.sender] */\n      0x00\n        /* \"contracts/Bet.sol\":1079:1089  msg.sender */\n      caller\n        /* \"contracts/Bet.sol\":1072:1090  claims[msg.sender] */\n      0xffffffffffffffffffffffffffffffffffffffff\n      and\n      0xffffffffffffffffffffffffffffffffffffffff\n      and\n      dup2\n      mstore\n      0x20\n      add\n      swap1\n      dup2\n      mstore\n      0x20\n      add\n      0x00\n      keccak256\n      0x00\n      swap1\n      sload\n      swap1\n      0x0100\n      exp\n      swap1\n      div\n      0xff\n      and\n        /* \"contracts/Bet.sol\":1072:1099  claims[msg.sender] == false */\n      iszero\n      iszero\n      eq\n        /* \"contracts/Bet.sol\":1064:1119  require(claims[msg.sender] == false, \"Already claimed\") */\n      tag_122\n      jumpi\n      mload(0x40)\n      0x08c379a000000000000000000000000000000000000000000000000000000000\n      dup2\n      mstore\n      0x04\n      add\n      tag_123\n      swap1\n      tag_124\n      jump\t// in\n    tag_123:\n      mload(0x40)\n      dup1\n      swap2\n      sub\n      swap1\n      revert\n    tag_122:\n        /* \"contracts/Bet.sol\":1130:1143  uint256 stake */\n      0x00\n        /* \"contracts/Bet.sol\":1146:1152  stakes */\n      0x04\n        /* \"contracts/Bet.sol\":1146:1164  stakes[msg.sender] */\n      0x00\n        /* \"contracts/Bet.sol\":1153:1163  msg.sender */\n      caller\n        /* \"contracts/Bet.sol\":1146:1164  stakes[msg.sender] */\n      0xffffffffffffffffffffffffffffffffffffffff\n      and\n      0xffffffffffffffffffffffffffffffffffffffff\n      and\n      dup2\n      mstore\n      0x20\n      add\n      swap1\n      dup2\n      mstore\n      0x20\n      add\n      0x00\n      keccak256\n      sload\n        /* \"contracts/Bet.sol\":1130:1164  uint256 stake = stakes[msg.sender] */\n      swap1\n      pop\n        /* \"contracts/Bet.sol\":1183:1193  msg.sender */\n      caller\n        /* \"contracts/Bet.sol\":1174:1203  payable (msg.sender).transfer */\n      0xffffffffffffffffffffffffffffffffffffffff\n      and\n        /* \"contracts/Bet.sol\":1174:1218  payable (msg.sender).transfer(payout(stake)) */\n      0x08fc\n        /* \"contracts/Bet.sol\":1204:1217  payout(stake) */\n      tag_125\n        /* \"contracts/Bet.sol\":1211:1216  stake */\n      dup4\n        /* \"contracts/Bet.sol\":1204:1210  payout */\n      tag_81\n        /* \"contracts/Bet.sol\":1204:1217  payout(stake) */\n      jump\t// in\n    tag_125:\n        /* \"contracts/Bet.sol\":1174:1218  payable (msg.sender).transfer(payout(stake)) */\n      swap1\n      dup2\n      iszero\n      mul\n      swap1\n      mload(0x40)\n      0x00\n      mload(0x40)\n      dup1\n      dup4\n      sub\n      dup2\n      dup6\n      dup9\n      dup9\n      call\n      swap4\n      pop\n      pop\n      pop\n      pop\n      iszero\n      dup1\n      iszero\n      tag_127\n      jumpi\n      returndatasize\n      0x00\n      dup1\n      returndatacopy\n      revert(0x00, returndatasize)\n    tag_127:\n      pop\n        /* \"contracts/Bet.sol\":1237:1247  msg.sender */\n      caller\n        /* \"contracts/Bet.sol\":1228:1257  payable (msg.sender).transfer */\n      0xffffffffffffffffffffffffffffffffffffffff\n      and\n        /* \"contracts/Bet.sol\":1228:1264  payable (msg.sender).transfer(stake) */\n      0x08fc\n        /* \"contracts/Bet.sol\":1258:1263  stake */\n      dup3\n        /* \"contracts/Bet.sol\":1228:1264  payable (msg.sender).transfer(stake) */\n      swap1\n      dup2\n      iszero\n      mul\n      swap1\n      mload(0x40)\n      0x00\n      mload(0x40)\n      dup1\n      dup4\n      sub\n      dup2\n      dup6\n      dup9\n      dup9\n      call\n      swap4\n      pop\n      pop\n      pop\n      pop\n      iszero\n      dup1\n      iszero\n      tag_129\n      jumpi\n      returndatasize\n      0x00\n      dup1\n      returndatacopy\n      revert(0x00, returndatasize)\n    tag_129:\n      pop\n        /* \"contracts/Bet.sol\":1296:1300  true */\n      0x01\n        /* \"contracts/Bet.sol\":1275:1281  claims */\n      0x05\n        /* \"contracts/Bet.sol\":1275:1293  claims[msg.sender] */\n      0x00\n        /* \"contracts/Bet.sol\":1282:1292  msg.sender */\n      caller\n        /* \"contracts/Bet.sol\":1275:1293  claims[msg.sender] */\n      0xffffffffffffffffffffffffffffffffffffffff\n      and\n      0xffffffffffffffffffffffffffffffffffffffff\n      and\n      dup2\n      mstore\n      0x20\n      add\n      swap1\n      dup2\n      mstore\n      0x20\n      add\n      0x00\n      keccak256\n      0x00\n        /* \"contracts/Bet.sol\":1275:1300  claims[msg.sender] = true */\n      0x0100\n      exp\n      dup2\n      sload\n      dup2\n      0xff\n      mul\n      not\n      and\n      swap1\n      dup4\n      iszero\n      iszero\n      mul\n      or\n      swap1\n      sstore\n      pop\n        /* \"contracts/Bet.sol\":945:1307  {... */\n      pop\n        /* \"contracts/Bet.sol\":921:1307  function claim() public {... */\n      jump\t// out\n        /* \"contracts/Bet.sol\":1711:1799  function setClock(uint256 timestamp) public onlyOwner {... */\n    tag_45:\n        /* \"@openzeppelin/contracts/access/Ownable.sol\":1094:1107  _checkOwner() */\n      tag_131\n        /* \"@openzeppelin/contracts/access/Ownable.sol\":1094:1105  _checkOwner */\n      tag_132\n        /* \"@openzeppelin/contracts/access/Ownable.sol\":1094:1107  _checkOwner() */\n      jump\t// in\n    tag_131:\n        /* \"contracts/Bet.sol\":1783:1792  timestamp */\n      dup1\n        /* \"contracts/Bet.sol\":1775:1780  clock */\n      0x08\n        /* \"contracts/Bet.sol\":1775:1792  clock = timestamp */\n      dup2\n      swap1\n      sstore\n      pop\n        /* \"contracts/Bet.sol\":1711:1799  function setClock(uint256 timestamp) public onlyOwner {... */\n      pop\n      jump\t// out\n        /* \"contracts/Bet.sol\":341:363  uint256 public yesPool */\n    tag_48:\n      sload(0x06)\n      dup2\n      jump\t// out\n        /* \"@openzeppelin/contracts/access/Ownable.sol\":1824:1925  function renounceOwnership() public virtual onlyOwner {... */\n    tag_52:\n        /* \"@openzeppelin/contracts/access/Ownable.sol\":1094:1107  _checkOwner() */\n      tag_135\n        /* \"@openzeppelin/contracts/access/Ownable.sol\":1094:1105  _checkOwner */\n      tag_132\n        /* \"@openzeppelin/contracts/access/Ownable.sol\":1094:1107  _checkOwner() */\n      jump\t// in\n    tag_135:\n        /* \"@openzeppelin/contracts/access/Ownable.sol\":1888:1918  _transferOwnership(address(0)) */\n      tag_137\n        /* \"@openzeppelin/contracts/access/Ownable.sol\":1915:1916  0 */\n      0x00\n        /* \"@openzeppelin/contracts/access/Ownable.sol\":1888:1906  _transferOwnership */\n      tag_138\n        /* \"@openzeppelin/contracts/access/Ownable.sol\":1888:1918  _transferOwnership(address(0)) */\n      jump\t// in\n    tag_137:\n        /* \"@openzeppelin/contracts/access/Ownable.sol\":1824:1925  function renounceOwnership() public virtual onlyOwner {... */\n      jump\t// out\n        /* \"contracts/Bet.sol\":205:242  mapping (address => int8) public bets */\n    tag_56:\n      mstore(0x20, 0x03)\n      dup1\n      0x00\n      mstore\n      keccak256(0x00, 0x40)\n      0x00\n      swap2\n      pop\n      sload\n      swap1\n      0x0100\n      exp\n      swap1\n      div\n      0x00\n      signextend\n      dup2\n      jump\t// out\n        /* \"@openzeppelin/contracts/access/Ownable.sol\":1201:1286  function owner() public view virtual returns (address) {... */\n    tag_61:\n        /* \"@openzeppelin/contracts/access/Ownable.sol\":1247:1254  address */\n      0x00\n        /* \"@openzeppelin/contracts/access/Ownable.sol\":1273:1279  _owner */\n      dup1\n      0x00\n      swap1\n      sload\n      swap1\n      0x0100\n      exp\n      swap1\n      div\n      0xffffffffffffffffffffffffffffffffffffffff\n      and\n        /* \"@openzeppelin/contracts/access/Ownable.sol\":1266:1279  return _owner */\n      swap1\n      pop\n        /* \"@openzeppelin/contracts/access/Ownable.sol\":1201:1286  function owner() public view virtual returns (address) {... */\n      swap1\n      jump\t// out\n        /* \"contracts/Bet.sol\":431:451  uint256 public clock */\n    tag_66:\n      sload(0x08)\n      dup2\n      jump\t// out\n        /* \"contracts/Bet.sol\":369:390  uint256 public noPool */\n    tag_70:\n      sload(0x07)\n      dup2\n      jump\t// out\n        /* \"contracts/Bet.sol\":296:335  mapping (address => bool) public claims */\n    tag_75:\n      mstore(0x20, 0x05)\n      dup1\n      0x00\n      mstore\n      keccak256(0x00, 0x40)\n      0x00\n      swap2\n      pop\n      sload\n      swap1\n      0x0100\n      exp\n      swap1\n      div\n      0xff\n      and\n      dup2\n      jump\t// out\n        /* \"contracts/Bet.sol\":1313:1705  function payout(uint256 bet) public view returns(uint256) {... */\n    tag_81:\n        /* \"contracts/Bet.sol\":1362:1369  uint256 */\n      0x00\n        /* \"contracts/Bet.sol\":1381:1395  uint256 factor */\n      dup1\n        /* \"contracts/Bet.sol\":1398:1407  100000000 */\n      0x05f5e100\n        /* \"contracts/Bet.sol\":1381:1407  uint256 factor = 100000000 */\n      swap1\n      pop\n        /* \"contracts/Bet.sol\":1417:1436  uint256 winningPool */\n      0x00\n        /* \"contracts/Bet.sol\":1450:1451  1 */\n      0x01\n        /* \"contracts/Bet.sol\":1439:1446  outcome */\n      dup1\n      sload\n        /* \"contracts/Bet.sol\":1439:1451  outcome == 1 */\n      eq\n        /* \"contracts/Bet.sol\":1439:1470  outcome == 1 ? yesPool : noPool */\n      tag_141\n      jumpi\n        /* \"contracts/Bet.sol\":1464:1470  noPool */\n      sload(0x07)\n        /* \"contracts/Bet.sol\":1439:1470  outcome == 1 ? yesPool : noPool */\n      jump(tag_142)\n    tag_141:\n        /* \"contracts/Bet.sol\":1454:1461  yesPool */\n      sload(0x06)\n        /* \"contracts/Bet.sol\":1439:1470  outcome == 1 ? yesPool : noPool */\n    tag_142:\n        /* \"contracts/Bet.sol\":1417:1470  uint256 winningPool = outcome == 1 ? yesPool : noPool */\n      swap1\n      pop\n        /* \"contracts/Bet.sol\":1495:1506  winningPool */\n      dup1\n        /* \"contracts/Bet.sol\":1488:1491  bet */\n      dup5\n        /* \"contracts/Bet.sol\":1488:1506  bet <= winningPool */\n      gt\n      iszero\n        /* \"contracts/Bet.sol\":1480:1539  require(bet <= winningPool, \"Bet bigger than winning pool\") */\n      tag_143\n      jumpi\n      mload(0x40)\n      0x08c379a000000000000000000000000000000000000000000000000000000000\n      dup2\n      mstore\n      0x04\n      add\n      tag_144\n      swap1\n      tag_145\n      jump\t// in\n    tag_144:\n      mload(0x40)\n      dup1\n      swap2\n      sub\n      swap1\n      revert\n    tag_143:\n        /* \"contracts/Bet.sol\":1549:1567  uint256 losingPool */\n      0x00\n        /* \"contracts/Bet.sol\":1581:1583  -1 */\n      0xffffffffffffffffffffffffffffffffffffffffffffffffffffffffffffffff\n        /* \"contracts/Bet.sol\":1570:1577  outcome */\n      sload(0x01)\n        /* \"contracts/Bet.sol\":1570:1583  outcome == -1 */\n      eq\n        /* \"contracts/Bet.sol\":1570:1602  outcome == -1 ? noPool : yesPool */\n      tag_146\n      jumpi\n        /* \"contracts/Bet.sol\":1595:1602  yesPool */\n      sload(0x06)\n        /* \"contracts/Bet.sol\":1570:1602  outcome == -1 ? noPool : yesPool */\n      jump(tag_147)\n    tag_146:\n        /* \"contracts/Bet.sol\":1586:1592  noPool */\n      sload(0x07)\n        /* \"contracts/Bet.sol\":1570:1602  outcome == -1 ? noPool : yesPool */\n    tag_147:\n        /* \"contracts/Bet.sol\":1549:1602  uint256 losingPool = outcome == -1 ? noPool : yesPool */\n      swap1\n      pop\n        /* \"contracts/Bet.sol\":1612:1625  uint256 share */\n      0x00\n        /* \"contracts/Bet.sol\":1643:1654  winningPool */\n      dup3\n        /* \"contracts/Bet.sol\":1634:1640  factor */\n      dup5\n        /* \"contracts/Bet.sol\":1628:1631  bet */\n      dup8\n        /* \"contracts/Bet.sol\":1628:1640  bet * factor */\n      tag_148\n      swap2\n      swap1\n      tag_149\n      jump\t// in\n    tag_148:\n        /* \"contracts/Bet.sol\":1628:1654  bet * factor / winningPool */\n      tag_150\n      swap2\n      swap1\n      tag_151\n      jump\t// in\n    tag_150:\n        /* \"contracts/Bet.sol\":1612:1654  uint256 share = bet * factor / winningPool */\n      swap1\n      pop\n        /* \"contracts/Bet.sol\":1692:1698  factor */\n      dup4\n        /* \"contracts/Bet.sol\":1679:1689  losingPool */\n      dup3\n        /* \"contracts/Bet.sol\":1671:1676  share */\n      dup3\n        /* \"contracts/Bet.sol\":1671:1689  share * losingPool */\n      tag_152\n      swap2\n      swap1\n      tag_149\n      jump\t// in\n    tag_152:\n        /* \"contracts/Bet.sol\":1671:1698  share * losingPool / factor */\n      tag_153\n      swap2\n      swap1\n      tag_151\n      jump\t// in\n    tag_153:\n        /* \"contracts/Bet.sol\":1664:1698  return share * losingPool / factor */\n      swap5\n      pop\n      pop\n      pop\n      pop\n      pop\n        /* \"contracts/Bet.sol\":1313:1705  function payout(uint256 bet) public view returns(uint256) {... */\n      swap2\n      swap1\n      pop\n      jump\t// out\n        /* \"contracts/TrustBet.sol\":230:390  function setOutcome(bool _outcome) public onlyOwner {... */\n    tag_86:\n        /* \"@openzeppelin/contracts/access/Ownable.sol\":1094:1107  _checkOwner() */\n      tag_155\n        /* \"@openzeppelin/contracts/access/Ownable.sol\":1094:1105  _checkOwner */\n      tag_132\n        /* \"@openzeppelin/contracts/access/Ownable.sol\":1094:1107  _checkOwner() */\n      jump\t// in\n    tag_155:\n        /* \"contracts/TrustBet.sol\":295:303  _outcome */\n      dup1\n        /* \"contracts/TrustBet.sol\":292:384  if(_outcome) {... */\n      iszero\n      tag_157\n      jumpi\n        /* \"contracts/TrustBet.sol\":329:330  1 */\n      0x01\n        /* \"contracts/TrustBet.sol\":319:326  outcome */\n      dup1\n        /* \"contracts/TrustBet.sol\":319:330  outcome = 1 */\n      dup2\n      swap1\n      sstore\n      pop\n        /* \"contracts/TrustBet.sol\":292:384  if(_outcome) {... */\n      jump(tag_158)\n    tag_157:\n        /* \"contracts/TrustBet.sol\":371:373  -1 */\n      0xffffffffffffffffffffffffffffffffffffffffffffffffffffffffffffffff\n        /* \"contracts/TrustBet.sol\":361:368  outcome */\n      0x01\n        /* \"contracts/TrustBet.sol\":361:373  outcome = -1 */\n      dup2\n      swap1\n      sstore\n      pop\n        /* \"contracts/TrustBet.sol\":292:384  if(_outcome) {... */\n    tag_158:\n        /* \"contracts/TrustBet.sol\":230:390  function setOutcome(bool _outcome) public onlyOwner {... */\n      pop\n      jump\t// out\n        /* \"contracts/Bet.sol\":1805:1883  function getClock() public view returns(uint256) {... */\n    tag_89:\n        /* \"contracts/Bet.sol\":1845:1852  uint256 */\n      0x00\n        /* \"contracts/Bet.sol\":1871:1876  clock */\n      sload(0x08)\n        /* \"contracts/Bet.sol\":1864:1876  return clock */\n      swap1\n      pop\n        /* \"contracts/Bet.sol\":1805:1883  function getClock() public view returns(uint256) {... */\n      swap1\n      jump\t// out\n        /* \"contracts/Bet.sol\":181:199  uint256 public end */\n    tag_93:\n      sload(0x02)\n      dup2\n      jump\t// out\n        /* \"@openzeppelin/contracts/access/Ownable.sol\":2074:2272  function transferOwnership(address newOwner) public virtual onlyOwner {... */\n    tag_98:\n        /* \"@openzeppelin/contracts/access/Ownable.sol\":1094:1107  _checkOwner() */\n      tag_161\n        /* \"@openzeppelin/contracts/access/Ownable.sol\":1094:1105  _checkOwner */\n      tag_132\n        /* \"@openzeppelin/contracts/access/Ownable.sol\":1094:1107  _checkOwner() */\n      jump\t// in\n    tag_161:\n        /* \"@openzeppelin/contracts/access/Ownable.sol\":2182:2183  0 */\n      0x00\n        /* \"@openzeppelin/contracts/access/Ownable.sol\":2162:2184  newOwner != address(0) */\n      0xffffffffffffffffffffffffffffffffffffffff\n      and\n        /* \"@openzeppelin/contracts/access/Ownable.sol\":2162:2170  newOwner */\n      dup2\n        /* \"@openzeppelin/contracts/access/Ownable.sol\":2162:2184  newOwner != address(0) */\n      0xffffffffffffffffffffffffffffffffffffffff\n      and\n      sub\n        /* \"@openzeppelin/contracts/access/Ownable.sol\":2154:2227  require(newOwner != address(0), \"Ownable: new owner is the zero address\") */\n      tag_163\n      jumpi\n      mload(0x40)\n      0x08c379a000000000000000000000000000000000000000000000000000000000\n      dup2\n      mstore\n      0x04\n      add\n      tag_164\n      swap1\n      tag_165\n      jump\t// in\n    tag_164:\n      mload(0x40)\n      dup1\n      swap2\n      sub\n      swap1\n      revert\n    tag_163:\n        /* \"@openzeppelin/contracts/access/Ownable.sol\":2237:2265  _transferOwnership(newOwner) */\n      tag_166\n        /* \"@openzeppelin/contracts/access/Ownable.sol\":2256:2264  newOwner */\n      dup2\n        /* \"@openzeppelin/contracts/access/Ownable.sol\":2237:2255  _transferOwnership */\n      tag_138\n        /* \"@openzeppelin/contracts/access/Ownable.sol\":2237:2265  _transferOwnership(newOwner) */\n      jump\t// in\n    tag_166:\n        /* \"@openzeppelin/contracts/access/Ownable.sol\":2074:2272  function transferOwnership(address newOwner) public virtual onlyOwner {... */\n      pop\n      jump\t// out\n        /* \"@openzeppelin/contracts/access/Ownable.sol\":1359:1489  function _checkOwner() internal view virtual {... */\n    tag_132:\n        /* \"@openzeppelin/contracts/access/Ownable.sol\":1433:1445  _msgSender() */\n      tag_168\n        /* \"@openzeppelin/contracts/access/Ownable.sol\":1433:1443  _msgSender */\n      tag_169\n        /* \"@openzeppelin/contracts/access/Ownable.sol\":1433:1445  _msgSender() */\n      jump\t// in\n    tag_168:\n        /* \"@openzeppelin/contracts/access/Ownable.sol\":1422:1445  owner() == _msgSender() */\n      0xffffffffffffffffffffffffffffffffffffffff\n      and\n        /* \"@openzeppelin/contracts/access/Ownable.sol\":1422:1429  owner() */\n      tag_170\n        /* \"@openzeppelin/contracts/access/Ownable.sol\":1422:1427  owner */\n      tag_61\n        /* \"@openzeppelin/contracts/access/Ownable.sol\":1422:1429  owner() */\n      jump\t// in\n    tag_170:\n        /* \"@openzeppelin/contracts/access/Ownable.sol\":1422:1445  owner() == _msgSender() */\n      0xffffffffffffffffffffffffffffffffffffffff\n      and\n      eq\n        /* \"@openzeppelin/contracts/access/Ownable.sol\":1414:1482  require(owner() == _msgSender(), \"Ownable: caller is not the owner\") */\n      tag_171\n      jumpi\n      mload(0x40)\n      0x08c379a000000000000000000000000000000000000000000000000000000000\n      dup2\n      mstore\n      0x04\n      add\n      tag_172\n      swap1\n      tag_173\n      jump\t// in\n    tag_172:\n      mload(0x40)\n      dup1\n      swap2\n      sub\n      swap1\n      revert\n    tag_171:\n        /* \"@openzeppelin/contracts/access/Ownable.sol\":1359:1489  function _checkOwner() internal view virtual {... */\n      jump\t// out\n        /* \"@openzeppelin/contracts/access/Ownable.sol\":2426:2613  function _transferOwnership(address newOwner) internal virtual {... */\n    tag_138:\n        /* \"@openzeppelin/contracts/access/Ownable.sol\":2499:2515  address oldOwner */\n      0x00\n        /* \"@openzeppelin/contracts/access/Ownable.sol\":2518:2524  _owner */\n      dup1\n      0x00\n      swap1\n      sload\n      swap1\n      0x0100\n      exp\n      swap1\n      div\n      0xffffffffffffffffffffffffffffffffffffffff\n      and\n        /* \"@openzeppelin/contracts/access/Ownable.sol\":2499:2524  address oldOwner = _owner */\n      swap1\n      pop\n        /* \"@openzeppelin/contracts/access/Ownable.sol\":2543:2551  newOwner */\n      dup2\n        /* \"@openzeppelin/contracts/access/Ownable.sol\":2534:2540  _owner */\n      0x00\n      dup1\n        /* \"@openzeppelin/contracts/access/Ownable.sol\":2534:2551  _owner = newOwner */\n      0x0100\n      exp\n      dup2\n      sload\n      dup2\n      0xffffffffffffffffffffffffffffffffffffffff\n      mul\n      not\n      and\n      swap1\n      dup4\n      0xffffffffffffffffffffffffffffffffffffffff\n      and\n      mul\n      or\n      swap1\n      sstore\n      pop\n        /* \"@openzeppelin/contracts/access/Ownable.sol\":2597:2605  newOwner */\n      dup2\n        /* \"@openzeppelin/contracts/access/Ownable.sol\":2566:2606  OwnershipTransferred(oldOwner, newOwner) */\n      0xffffffffffffffffffffffffffffffffffffffff\n      and\n        /* \"@openzeppelin/contracts/access/Ownable.sol\":2587:2595  oldOwner */\n      dup2\n        /* \"@openzeppelin/contracts/access/Ownable.sol\":2566:2606  OwnershipTransferred(oldOwner, newOwner) */\n      0xffffffffffffffffffffffffffffffffffffffff\n      and\n      0x8be0079c531659141344cd1fd0a4f28419497f9722a3daafe3b4186f6b6457e0\n      mload(0x40)\n      mload(0x40)\n      dup1\n      swap2\n      sub\n      swap1\n      log3\n        /* \"@openzeppelin/contracts/access/Ownable.sol\":2489:2613  {... */\n      pop\n        /* \"@openzeppelin/contracts/access/Ownable.sol\":2426:2613  function _transferOwnership(address newOwner) internal virtual {... */\n      pop\n      jump\t// out\n        /* \"@openzeppelin/contracts/utils/Context.sol\":655:751  function _msgSender() internal view virtual returns (address) {... */\n    tag_169:\n        /* \"@openzeppelin/contracts/utils/Context.sol\":708:715  address */\n      0x00\n        /* \"@openzeppelin/contracts/utils/Context.sol\":734:744  msg.sender */\n      caller\n        /* \"@openzeppelin/contracts/utils/Context.sol\":727:744  return msg.sender */\n      swap1\n      pop\n        /* \"@openzeppelin/contracts/utils/Context.sol\":655:751  function _msgSender() internal view virtual returns (address) {... */\n      swap1\n      jump\t// out\n        /* \"#utility.yul\":88:205   */\n    tag_177:\n        /* \"#utility.yul\":197:198   */\n      0x00\n        /* \"#utility.yul\":194:195   */\n      dup1\n        /* \"#utility.yul\":187:199   */\n      revert\n        /* \"#utility.yul\":334:424   */\n    tag_179:\n        /* \"#utility.yul\":368:375   */\n      0x00\n        /* \"#utility.yul\":411:416   */\n      dup2\n        /* \"#utility.yul\":404:417   */\n      iszero\n        /* \"#utility.yul\":397:418   */\n      iszero\n        /* \"#utility.yul\":386:418   */\n      swap1\n      pop\n        /* \"#utility.yul\":334:424   */\n      swap2\n      swap1\n      pop\n      jump\t// out\n        /* \"#utility.yul\":430:546   */\n    tag_180:\n        /* \"#utility.yul\":500:521   */\n      tag_223\n        /* \"#utility.yul\":515:520   */\n      dup2\n        /* \"#utility.yul\":500:521   */\n      tag_179\n      jump\t// in\n    tag_223:\n        /* \"#utility.yul\":493:498   */\n      dup2\n        /* \"#utility.yul\":490:522   */\n      eq\n        /* \"#utility.yul\":480:540   */\n      tag_224\n      jumpi\n        /* \"#utility.yul\":536:537   */\n      0x00\n        /* \"#utility.yul\":533:534   */\n      dup1\n        /* \"#utility.yul\":526:538   */\n      revert\n        /* \"#utility.yul\":480:540   */\n    tag_224:\n        /* \"#utility.yul\":430:546   */\n      pop\n      jump\t// out\n        /* \"#utility.yul\":552:685   */\n    tag_181:\n        /* \"#utility.yul\":595:600   */\n      0x00\n        /* \"#utility.yul\":633:639   */\n      dup2\n        /* \"#utility.yul\":620:640   */\n      calldataload\n        /* \"#utility.yul\":611:640   */\n      swap1\n      pop\n        /* \"#utility.yul\":649:679   */\n      tag_226\n        /* \"#utility.yul\":673:678   */\n      dup2\n        /* \"#utility.yul\":649:679   */\n      tag_180\n      jump\t// in\n    tag_226:\n        /* \"#utility.yul\":552:685   */\n      swap3\n      swap2\n      pop\n      pop\n      jump\t// out\n        /* \"#utility.yul\":691:1014   */\n    tag_24:\n        /* \"#utility.yul\":747:753   */\n      0x00\n        /* \"#utility.yul\":796:798   */\n      0x20\n        /* \"#utility.yul\":784:793   */\n      dup3\n        /* \"#utility.yul\":775:782   */\n      dup5\n        /* \"#utility.yul\":771:794   */\n      sub\n        /* \"#utility.yul\":767:799   */\n      slt\n        /* \"#utility.yul\":764:883   */\n      iszero\n      tag_228\n      jumpi\n        /* \"#utility.yul\":802:881   */\n      tag_229\n      tag_177\n      jump\t// in\n    tag_229:\n        /* \"#utility.yul\":764:883   */\n    tag_228:\n        /* \"#utility.yul\":922:923   */\n      0x00\n        /* \"#utility.yul\":947:997   */\n      tag_230\n        /* \"#utility.yul\":989:996   */\n      dup5\n        /* \"#utility.yul\":980:986   */\n      dup3\n        /* \"#utility.yul\":969:978   */\n      dup6\n        /* \"#utility.yul\":965:987   */\n      add\n        /* \"#utility.yul\":947:997   */\n      tag_181\n      jump\t// in\n    tag_230:\n        /* \"#utility.yul\":937:997   */\n      swap2\n      pop\n        /* \"#utility.yul\":893:1007   */\n      pop\n        /* \"#utility.yul\":691:1014   */\n      swap3\n      swap2\n      pop\n      pop\n      jump\t// out\n        /* \"#utility.yul\":1020:1146   */\n    tag_182:\n        /* \"#utility.yul\":1057:1064   */\n      0x00\n        /* \"#utility.yul\":1097:1139   */\n      0xffffffffffffffffffffffffffffffffffffffff\n        /* \"#utility.yul\":1090:1095   */\n      dup3\n        /* \"#utility.yul\":1086:1140   */\n      and\n        /* \"#utility.yul\":1075:1140   */\n      swap1\n      pop\n        /* \"#utility.yul\":1020:1146   */\n      swap2\n      swap1\n      pop\n      jump\t// out\n        /* \"#utility.yul\":1152:1248   */\n    tag_183:\n        /* \"#utility.yul\":1189:1196   */\n      0x00\n        /* \"#utility.yul\":1218:1242   */\n      tag_233\n        /* \"#utility.yul\":1236:1241   */\n      dup3\n        /* \"#utility.yul\":1218:1242   */\n      tag_182\n      jump\t// in\n    tag_233:\n        /* \"#utility.yul\":1207:1242   */\n      swap1\n      pop\n        /* \"#utility.yul\":1152:1248   */\n      swap2\n      swap1\n      pop\n      jump\t// out\n        /* \"#utility.yul\":1254:1376   */\n    tag_184:\n        /* \"#utility.yul\":1327:1351   */\n      tag_235\n        /* \"#utility.yul\":1345:1350   */\n      dup2\n        /* \"#utility.yul\":1327:1351   */\n      tag_183\n      jump\t// in\n    tag_235:\n        /* \"#utility.yul\":1320:1325   */\n      dup2\n        /* \"#utility.yul\":1317:1352   */\n      eq\n        /* \"#utility.yul\":1307:1370   */\n      tag_236\n      jumpi\n        /* \"#utility.yul\":1366:1367   */\n      0x00\n        /* \"#utility.yul\":1363:1364   */\n      dup1\n        /* \"#utility.yul\":1356:1368   */\n      revert\n        /* \"#utility.yul\":1307:1370   */\n    tag_236:\n        /* \"#utility.yul\":1254:1376   */\n      pop\n      jump\t// out\n        /* \"#utility.yul\":1382:1521   */\n    tag_185:\n        /* \"#utility.yul\":1428:1433   */\n      0x00\n        /* \"#utility.yul\":1466:1472   */\n      dup2\n        /* \"#utility.yul\":1453:1473   */\n      calldataload\n        /* \"#utility.yul\":1444:1473   */\n      swap1\n      pop\n        /* \"#utility.yul\":1482:1515   */\n      tag_238\n        /* \"#utility.yul\":1509:1514   */\n      dup2\n        /* \"#utility.yul\":1482:1515   */\n      tag_184\n      jump\t// in\n    tag_238:\n        /* \"#utility.yul\":1382:1521   */\n      swap3\n      swap2\n      pop\n      pop\n      jump\t// out\n        /* \"#utility.yul\":1527:1856   */\n    tag_29:\n        /* \"#utility.yul\":1586:1592   */\n      0x00\n        /* \"#utility.yul\":1635:1637   */\n      0x20\n        /* \"#utility.yul\":1623:1632   */\n      dup3\n        /* \"#utility.yul\":1614:1621   */\n      dup5\n        /* \"#utility.yul\":1610:1633   */\n      sub\n        /* \"#utility.yul\":1606:1638   */\n      slt\n        /* \"#utility.yul\":1603:1722   */\n      iszero\n      tag_240\n      jumpi\n        /* \"#utility.yul\":1641:1720   */\n      tag_241\n      tag_177\n      jump\t// in\n    tag_241:\n        /* \"#utility.yul\":1603:1722   */\n    tag_240:\n        /* \"#utility.yul\":1761:1762   */\n      0x00\n        /* \"#utility.yul\":1786:1839   */\n      tag_242\n        /* \"#utility.yul\":1831:1838   */\n      dup5\n        /* \"#utility.yul\":1822:1828   */\n      dup3\n        /* \"#utility.yul\":1811:1820   */\n      dup6\n        /* \"#utility.yul\":1807:1829   */\n      add\n        /* \"#utility.yul\":1786:1839   */\n      tag_185\n      jump\t// in\n    tag_242:\n        /* \"#utility.yul\":1776:1839   */\n      swap2\n      pop\n        /* \"#utility.yul\":1732:1849   */\n      pop\n        /* \"#utility.yul\":1527:1856   */\n      swap3\n      swap2\n      pop\n      pop\n      jump\t// out\n        /* \"#utility.yul\":1862:1939   */\n    tag_186:\n        /* \"#utility.yul\":1899:1906   */\n      0x00\n        /* \"#utility.yul\":1928:1933   */\n      dup2\n        /* \"#utility.yul\":1917:1933   */\n      swap1\n      pop\n        /* \"#utility.yul\":1862:1939   */\n      swap2\n      swap1\n      pop\n      jump\t// out\n        /* \"#utility.yul\":1945:2063   */\n    tag_187:\n        /* \"#utility.yul\":2032:2056   */\n      tag_245\n        /* \"#utility.yul\":2050:2055   */\n      dup2\n        /* \"#utility.yul\":2032:2056   */\n      tag_186\n      jump\t// in\n    tag_245:\n        /* \"#utility.yul\":2027:2030   */\n      dup3\n        /* \"#utility.yul\":2020:2057   */\n      mstore\n        /* \"#utility.yul\":1945:2063   */\n      pop\n      pop\n      jump\t// out\n        /* \"#utility.yul\":2069:2291   */\n    tag_32:\n        /* \"#utility.yul\":2162:2166   */\n      0x00\n        /* \"#utility.yul\":2200:2202   */\n      0x20\n        /* \"#utility.yul\":2189:2198   */\n      dup3\n        /* \"#utility.yul\":2185:2203   */\n      add\n        /* \"#utility.yul\":2177:2203   */\n      swap1\n      pop\n        /* \"#utility.yul\":2213:2284   */\n      tag_247\n        /* \"#utility.yul\":2281:2282   */\n      0x00\n        /* \"#utility.yul\":2270:2279   */\n      dup4\n        /* \"#utility.yul\":2266:2283   */\n      add\n        /* \"#utility.yul\":2257:2263   */\n      dup5\n        /* \"#utility.yul\":2213:2284   */\n      tag_187\n      jump\t// in\n    tag_247:\n        /* \"#utility.yul\":2069:2291   */\n      swap3\n      swap2\n      pop\n      pop\n      jump\t// out\n        /* \"#utility.yul\":2297:2373   */\n    tag_188:\n        /* \"#utility.yul\":2333:2340   */\n      0x00\n        /* \"#utility.yul\":2362:2367   */\n      dup2\n        /* \"#utility.yul\":2351:2367   */\n      swap1\n      pop\n        /* \"#utility.yul\":2297:2373   */\n      swap2\n      swap1\n      pop\n      jump\t// out\n        /* \"#utility.yul\":2379:2494   */\n    tag_189:\n        /* \"#utility.yul\":2464:2487   */\n      tag_250\n        /* \"#utility.yul\":2481:2486   */\n      dup2\n        /* \"#utility.yul\":2464:2487   */\n      tag_188\n      jump\t// in\n    tag_250:\n        /* \"#utility.yul\":2459:2462   */\n      dup3\n        /* \"#utility.yul\":2452:2488   */\n      mstore\n        /* \"#utility.yul\":2379:2494   */\n      pop\n      pop\n      jump\t// out\n        /* \"#utility.yul\":2500:2718   */\n    tag_37:\n        /* \"#utility.yul\":2591:2595   */\n      0x00\n        /* \"#utility.yul\":2629:2631   */\n      0x20\n        /* \"#utility.yul\":2618:2627   */\n      dup3\n        /* \"#utility.yul\":2614:2632   */\n      add\n        /* \"#utility.yul\":2606:2632   */\n      swap1\n      pop\n        /* \"#utility.yul\":2642:2711   */\n      tag_252\n        /* \"#utility.yul\":2708:2709   */\n      0x00\n        /* \"#utility.yul\":2697:2706   */\n      dup4\n        /* \"#utility.yul\":2693:2710   */\n      add\n        /* \"#utility.yul\":2684:2690   */\n      dup5\n        /* \"#utility.yul\":2642:2711   */\n      tag_189\n      jump\t// in\n    tag_252:\n        /* \"#utility.yul\":2500:2718   */\n      swap3\n      swap2\n      pop\n      pop\n      jump\t// out\n        /* \"#utility.yul\":2724:2846   */\n    tag_190:\n        /* \"#utility.yul\":2797:2821   */\n      tag_254\n        /* \"#utility.yul\":2815:2820   */\n      dup2\n        /* \"#utility.yul\":2797:2821   */\n      tag_186\n      jump\t// in\n    tag_254:\n        /* \"#utility.yul\":2790:2795   */\n      dup2\n        /* \"#utility.yul\":2787:2822   */\n      eq\n        /* \"#utility.yul\":2777:2840   */\n      tag_255\n      jumpi\n        /* \"#utility.yul\":2836:2837   */\n      0x00\n        /* \"#utility.yul\":2833:2834   */\n      dup1\n        /* \"#utility.yul\":2826:2838   */\n      revert\n        /* \"#utility.yul\":2777:2840   */\n    tag_255:\n        /* \"#utility.yul\":2724:2846   */\n      pop\n      jump\t// out\n        /* \"#utility.yul\":2852:2991   */\n    tag_191:\n        /* \"#utility.yul\":2898:2903   */\n      0x00\n        /* \"#utility.yul\":2936:2942   */\n      dup2\n        /* \"#utility.yul\":2923:2943   */\n      calldataload\n        /* \"#utility.yul\":2914:2943   */\n      swap1\n      pop\n        /* \"#utility.yul\":2952:2985   */\n      tag_257\n        /* \"#utility.yul\":2979:2984   */\n      dup2\n        /* \"#utility.yul\":2952:2985   */\n      tag_190\n      jump\t// in\n    tag_257:\n        /* \"#utility.yul\":2852:2991   */\n      swap3\n      swap2\n      pop\n      pop\n      jump\t// out\n        /* \"#utility.yul\":2997:3326   */\n    tag_44:\n        /* \"#utility.yul\":3056:3062   */\n      0x00\n        /* \"#utility.yul\":3105:3107   */\n      0x20\n        /* \"#utility.yul\":3093:3102   */\n      dup3\n        /* \"#utility.yul\":3084:3091   */\n      dup5\n        /* \"#utility.yul\":3080:3103   */\n      sub\n        /* \"#utility.yul\":3076:3108   */\n      slt\n        /* \"#utility.yul\":3073:3192   */\n      iszero\n      tag_259\n      jumpi\n        /* \"#utility.yul\":3111:3190   */\n      tag_260\n      tag_177\n      jump\t// in\n    tag_260:\n        /* \"#utility.yul\":3073:3192   */\n    tag_259:\n        /* \"#utility.yul\":3231:3232   */\n      0x00\n        /* \"#utility.yul\":3256:3309   */\n      tag_261\n        /* \"#utility.yul\":3301:3308   */\n      dup5\n        /* \"#utility.yul\":3292:3298   */\n      dup3\n        /* \"#utility.yul\":3281:3290   */\n      dup6\n        /* \"#utility.yul\":3277:3299   */\n      add\n        /* \"#utility.yul\":3256:3309   */\n      tag_191\n      jump\t// in\n    tag_261:\n        /* \"#utility.yul\":3246:3309   */\n      swap2\n      pop\n        /* \"#utility.yul\":3202:3319   */\n      pop\n        /* \"#utility.yul\":2997:3326   */\n      swap3\n      swap2\n      pop\n      pop\n      jump\t// out\n        /* \"#utility.yul\":3332:3421   */\n    tag_192:\n        /* \"#utility.yul\":3366:3373   */\n      0x00\n        /* \"#utility.yul\":3409:3414   */\n      dup2\n        /* \"#utility.yul\":3406:3407   */\n      0x00\n        /* \"#utility.yul\":3395:3415   */\n      signextend\n        /* \"#utility.yul\":3384:3415   */\n      swap1\n      pop\n        /* \"#utility.yul\":3332:3421   */\n      swap2\n      swap1\n      pop\n      jump\t// out\n        /* \"#utility.yul\":3427:3536   */\n    tag_193:\n        /* \"#utility.yul\":3508:3529   */\n      tag_264\n        /* \"#utility.yul\":3523:3528   */\n      dup2\n        /* \"#utility.yul\":3508:3529   */\n      tag_192\n      jump\t// in\n    tag_264:\n        /* \"#utility.yul\":3503:3506   */\n      dup3\n        /* \"#utility.yul\":3496:3530   */\n      mstore\n        /* \"#utility.yul\":3427:3536   */\n      pop\n      pop\n      jump\t// out\n        /* \"#utility.yul\":3542:3752   */\n    tag_58:\n        /* \"#utility.yul\":3629:3633   */\n      0x00\n        /* \"#utility.yul\":3667:3669   */\n      0x20\n        /* \"#utility.yul\":3656:3665   */\n      dup3\n        /* \"#utility.yul\":3652:3670   */\n      add\n        /* \"#utility.yul\":3644:3670   */\n      swap1\n      pop\n        /* \"#utility.yul\":3680:3745   */\n      tag_266\n        /* \"#utility.yul\":3742:3743   */\n      0x00\n        /* \"#utility.yul\":3731:3740   */\n      dup4\n        /* \"#utility.yul\":3727:3744   */\n      add\n        /* \"#utility.yul\":3718:3724   */\n      dup5\n        /* \"#utility.yul\":3680:3745   */\n      tag_193\n      jump\t// in\n    tag_266:\n        /* \"#utility.yul\":3542:3752   */\n      swap3\n      swap2\n      pop\n      pop\n      jump\t// out\n        /* \"#utility.yul\":3758:3876   */\n    tag_194:\n        /* \"#utility.yul\":3845:3869   */\n      tag_268\n        /* \"#utility.yul\":3863:3868   */\n      dup2\n        /* \"#utility.yul\":3845:3869   */\n      tag_183\n      jump\t// in\n    tag_268:\n        /* \"#utility.yul\":3840:3843   */\n      dup3\n        /* \"#utility.yul\":3833:3870   */\n      mstore\n        /* \"#utility.yul\":3758:3876   */\n      pop\n      pop\n      jump\t// out\n        /* \"#utility.yul\":3882:4104   */\n    tag_63:\n        /* \"#utility.yul\":3975:3979   */\n      0x00\n        /* \"#utility.yul\":4013:4015   */\n      0x20\n        /* \"#utility.yul\":4002:4011   */\n      dup3\n        /* \"#utility.yul\":3998:4016   */\n      add\n        /* \"#utility.yul\":3990:4016   */\n      swap1\n      pop\n        /* \"#utility.yul\":4026:4097   */\n      tag_270\n        /* \"#utility.yul\":4094:4095   */\n      0x00\n        /* \"#utility.yul\":4083:4092   */\n      dup4\n        /* \"#utility.yul\":4079:4096   */\n      add\n        /* \"#utility.yul\":4070:4076   */\n      dup5\n        /* \"#utility.yul\":4026:4097   */\n      tag_194\n      jump\t// in\n    tag_270:\n        /* \"#utility.yul\":3882:4104   */\n      swap3\n      swap2\n      pop\n      pop\n      jump\t// out\n        /* \"#utility.yul\":4110:4219   */\n    tag_195:\n        /* \"#utility.yul\":4191:4212   */\n      tag_272\n        /* \"#utility.yul\":4206:4211   */\n      dup2\n        /* \"#utility.yul\":4191:4212   */\n      tag_179\n      jump\t// in\n    tag_272:\n        /* \"#utility.yul\":4186:4189   */\n      dup3\n        /* \"#utility.yul\":4179:4213   */\n      mstore\n        /* \"#utility.yul\":4110:4219   */\n      pop\n      pop\n      jump\t// out\n        /* \"#utility.yul\":4225:4435   */\n    tag_77:\n        /* \"#utility.yul\":4312:4316   */\n      0x00\n        /* \"#utility.yul\":4350:4352   */\n      0x20\n        /* \"#utility.yul\":4339:4348   */\n      dup3\n        /* \"#utility.yul\":4335:4353   */\n      add\n        /* \"#utility.yul\":4327:4353   */\n      swap1\n      pop\n        /* \"#utility.yul\":4363:4428   */\n      tag_274\n        /* \"#utility.yul\":4425:4426   */\n      0x00\n        /* \"#utility.yul\":4414:4423   */\n      dup4\n        /* \"#utility.yul\":4410:4427   */\n      add\n        /* \"#utility.yul\":4401:4407   */\n      dup5\n        /* \"#utility.yul\":4363:4428   */\n      tag_195\n      jump\t// in\n    tag_274:\n        /* \"#utility.yul\":4225:4435   */\n      swap3\n      swap2\n      pop\n      pop\n      jump\t// out\n        /* \"#utility.yul\":4441:4610   */\n    tag_196:\n        /* \"#utility.yul\":4525:4536   */\n      0x00\n        /* \"#utility.yul\":4559:4565   */\n      dup3\n        /* \"#utility.yul\":4554:4557   */\n      dup3\n        /* \"#utility.yul\":4547:4566   */\n      mstore\n        /* \"#utility.yul\":4599:4603   */\n      0x20\n        /* \"#utility.yul\":4594:4597   */\n      dup3\n        /* \"#utility.yul\":4590:4604   */\n      add\n        /* \"#utility.yul\":4575:4604   */\n      swap1\n      pop\n        /* \"#utility.yul\":4441:4610   */\n      swap3\n      swap2\n      pop\n      pop\n      jump\t// out\n        /* \"#utility.yul\":4616:4781   */\n    tag_197:\n        /* \"#utility.yul\":4756:4773   */\n      0x4e6f2076616c756520696d206265740000000000000000000000000000000000\n        /* \"#utility.yul\":4752:4753   */\n      0x00\n        /* \"#utility.yul\":4744:4750   */\n      dup3\n        /* \"#utility.yul\":4740:4754   */\n      add\n        /* \"#utility.yul\":4733:4774   */\n      mstore\n        /* \"#utility.yul\":4616:4781   */\n      pop\n      jump\t// out\n        /* \"#utility.yul\":4787:5153   */\n    tag_198:\n        /* \"#utility.yul\":4929:4932   */\n      0x00\n        /* \"#utility.yul\":4950:5017   */\n      tag_278\n        /* \"#utility.yul\":5014:5016   */\n      0x0f\n        /* \"#utility.yul\":5009:5012   */\n      dup4\n        /* \"#utility.yul\":4950:5017   */\n      tag_196\n      jump\t// in\n    tag_278:\n        /* \"#utility.yul\":4943:5017   */\n      swap2\n      pop\n        /* \"#utility.yul\":5026:5119   */\n      tag_279\n        /* \"#utility.yul\":5115:5118   */\n      dup3\n        /* \"#utility.yul\":5026:5119   */\n      tag_197\n      jump\t// in\n    tag_279:\n        /* \"#utility.yul\":5144:5146   */\n      0x20\n        /* \"#utility.yul\":5139:5142   */\n      dup3\n        /* \"#utility.yul\":5135:5147   */\n      add\n        /* \"#utility.yul\":5128:5147   */\n      swap1\n      pop\n        /* \"#utility.yul\":4787:5153   */\n      swap2\n      swap1\n      pop\n      jump\t// out\n        /* \"#utility.yul\":5159:5578   */\n    tag_102:\n        /* \"#utility.yul\":5325:5329   */\n      0x00\n        /* \"#utility.yul\":5363:5365   */\n      0x20\n        /* \"#utility.yul\":5352:5361   */\n      dup3\n        /* \"#utility.yul\":5348:5366   */\n      add\n        /* \"#utility.yul\":5340:5366   */\n      swap1\n      pop\n        /* \"#utility.yul\":5412:5421   */\n      dup2\n        /* \"#utility.yul\":5406:5410   */\n      dup2\n        /* \"#utility.yul\":5402:5422   */\n      sub\n        /* \"#utility.yul\":5398:5399   */\n      0x00\n        /* \"#utility.yul\":5387:5396   */\n      dup4\n        /* \"#utility.yul\":5383:5400   */\n      add\n        /* \"#utility.yul\":5376:5423   */\n      mstore\n        /* \"#utility.yul\":5440:5571   */\n      tag_281\n        /* \"#utility.yul\":5566:5570   */\n      dup2\n        /* \"#utility.yul\":5440:5571   */\n      tag_198\n      jump\t// in\n    tag_281:\n        /* \"#utility.yul\":5432:5571   */\n      swap1\n      pop\n        /* \"#utility.yul\":5159:5578   */\n      swap2\n      swap1\n      pop\n      jump\t// out\n        /* \"#utility.yul\":5584:5752   */\n    tag_199:\n        /* \"#utility.yul\":5724:5744   */\n      0x42657420616c726561647920706c616365640000000000000000000000000000\n        /* \"#utility.yul\":5720:5721   */\n      0x00\n        /* \"#utility.yul\":5712:5718   */\n      dup3\n        /* \"#utility.yul\":5708:5722   */\n      add\n        /* \"#utility.yul\":5701:5745   */\n      mstore\n        /* \"#utility.yul\":5584:5752   */\n      pop\n      jump\t// out\n        /* \"#utility.yul\":5758:6124   */\n    tag_200:\n        /* \"#utility.yul\":5900:5903   */\n      0x00\n        /* \"#utility.yul\":5921:5988   */\n      tag_284\n        /* \"#utility.yul\":5985:5987   */\n      0x12\n        /* \"#utility.yul\":5980:5983   */\n      dup4\n        /* \"#utility.yul\":5921:5988   */\n      tag_196\n      jump\t// in\n    tag_284:\n        /* \"#utility.yul\":5914:5988   */\n      swap2\n      pop\n        /* \"#utility.yul\":5997:6090   */\n      tag_285\n        /* \"#utility.yul\":6086:6089   */\n      dup3\n        /* \"#utility.yul\":5997:6090   */\n      tag_199\n      jump\t// in\n    tag_285:\n        /* \"#utility.yul\":6115:6117   */\n      0x20\n        /* \"#utility.yul\":6110:6113   */\n      dup3\n        /* \"#utility.yul\":6106:6118   */\n      add\n        /* \"#utility.yul\":6099:6118   */\n      swap1\n      pop\n        /* \"#utility.yul\":5758:6124   */\n      swap2\n      swap1\n      pop\n      jump\t// out\n        /* \"#utility.yul\":6130:6549   */\n    tag_105:\n        /* \"#utility.yul\":6296:6300   */\n      0x00\n        /* \"#utility.yul\":6334:6336   */\n      0x20\n        /* \"#utility.yul\":6323:6332   */\n      dup3\n        /* \"#utility.yul\":6319:6337   */\n      add\n        /* \"#utility.yul\":6311:6337   */\n      swap1\n      pop\n        /* \"#utility.yul\":6383:6392   */\n      dup2\n        /* \"#utility.yul\":6377:6381   */\n      dup2\n        /* \"#utility.yul\":6373:6393   */\n      sub\n        /* \"#utility.yul\":6369:6370   */\n      0x00\n        /* \"#utility.yul\":6358:6367   */\n      dup4\n        /* \"#utility.yul\":6354:6371   */\n      add\n        /* \"#utility.yul\":6347:6394   */\n      mstore\n        /* \"#utility.yul\":6411:6542   */\n      tag_287\n        /* \"#utility.yul\":6537:6541   */\n      dup2\n        /* \"#utility.yul\":6411:6542   */\n      tag_200\n      jump\t// in\n    tag_287:\n        /* \"#utility.yul\":6403:6542   */\n      swap1\n      pop\n        /* \"#utility.yul\":6130:6549   */\n      swap2\n      swap1\n      pop\n      jump\t// out\n        /* \"#utility.yul\":6555:6721   */\n    tag_201:\n        /* \"#utility.yul\":6695:6713   */\n      0x50617373656420746865206c696d697400000000000000000000000000000000\n        /* \"#utility.yul\":6691:6692   */\n      0x00\n        /* \"#utility.yul\":6683:6689   */\n      dup3\n        /* \"#utility.yul\":6679:6693   */\n      add\n        /* \"#utility.yul\":6672:6714   */\n      mstore\n        /* \"#utility.yul\":6555:6721   */\n      pop\n      jump\t// out\n        /* \"#utility.yul\":6727:7093   */\n    tag_202:\n        /* \"#utility.yul\":6869:6872   */\n      0x00\n        /* \"#utility.yul\":6890:6957   */\n      tag_290\n        /* \"#utility.yul\":6954:6956   */\n      0x10\n        /* \"#utility.yul\":6949:6952   */\n      dup4\n        /* \"#utility.yul\":6890:6957   */\n      tag_196\n      jump\t// in\n    tag_290:\n        /* \"#utility.yul\":6883:6957   */\n      swap2\n      pop\n        /* \"#utility.yul\":6966:7059   */\n      tag_291\n        /* \"#utility.yul\":7055:7058   */\n      dup3\n        /* \"#utility.yul\":6966:7059   */\n      tag_201\n      jump\t// in\n    tag_291:\n        /* \"#utility.yul\":7084:7086   */\n      0x20\n        /* \"#utility.yul\":7079:7082   */\n      dup3\n        /* \"#utility.yul\":7075:7087   */\n      add\n        /* \"#utility.yul\":7068:7087   */\n      swap1\n      pop\n        /* \"#utility.yul\":6727:7093   */\n      swap2\n      swap1\n      pop\n      jump\t// out\n        /* \"#utility.yul\":7099:7518   */\n    tag_108:\n        /* \"#utility.yul\":7265:7269   */\n      0x00\n        /* \"#utility.yul\":7303:7305   */\n      0x20\n        /* \"#utility.yul\":7292:7301   */\n      dup3\n        /* \"#utility.yul\":7288:7306   */\n      add\n        /* \"#utility.yul\":7280:7306   */\n      swap1\n      pop\n        /* \"#utility.yul\":7352:7361   */\n      dup2\n        /* \"#utility.yul\":7346:7350   */\n      dup2\n        /* \"#utility.yul\":7342:7362   */\n      sub\n        /* \"#utility.yul\":7338:7339   */\n      0x00\n        /* \"#utility.yul\":7327:7336   */\n      dup4\n        /* \"#utility.yul\":7323:7340   */\n      add\n        /* \"#utility.yul\":7316:7363   */\n      mstore\n        /* \"#utility.yul\":7380:7511   */\n      tag_293\n        /* \"#utility.yul\":7506:7510   */\n      dup2\n        /* \"#utility.yul\":7380:7511   */\n      tag_202\n      jump\t// in\n    tag_293:\n        /* \"#utility.yul\":7372:7511   */\n      swap1\n      pop\n        /* \"#utility.yul\":7099:7518   */\n      swap2\n      swap1\n      pop\n      jump\t// out\n        /* \"#utility.yul\":7524:7704   */\n    tag_203:\n        /* \"#utility.yul\":7572:7649   */\n      0x4e487b7100000000000000000000000000000000000000000000000000000000\n        /* \"#utility.yul\":7569:7570   */\n      0x00\n        /* \"#utility.yul\":7562:7650   */\n      mstore\n        /* \"#utility.yul\":7669:7673   */\n      0x11\n        /* \"#utility.yul\":7666:7667   */\n      0x04\n        /* \"#utility.yul\":7659:7674   */\n      mstore\n        /* \"#utility.yul\":7693:7697   */\n      0x24\n        /* \"#utility.yul\":7690:7691   */\n      0x00\n        /* \"#utility.yul\":7683:7698   */\n      revert\n        /* \"#utility.yul\":7710:7901   */\n    tag_111:\n        /* \"#utility.yul\":7750:7753   */\n      0x00\n        /* \"#utility.yul\":7769:7789   */\n      tag_296\n        /* \"#utility.yul\":7787:7788   */\n      dup3\n        /* \"#utility.yul\":7769:7789   */\n      tag_186\n      jump\t// in\n    tag_296:\n        /* \"#utility.yul\":7764:7789   */\n      swap2\n      pop\n        /* \"#utility.yul\":7803:7823   */\n      tag_297\n        /* \"#utility.yul\":7821:7822   */\n      dup4\n        /* \"#utility.yul\":7803:7823   */\n      tag_186\n      jump\t// in\n    tag_297:\n        /* \"#utility.yul\":7798:7823   */\n      swap3\n      pop\n        /* \"#utility.yul\":7846:7847   */\n      dup3\n        /* \"#utility.yul\":7843:7844   */\n      dup3\n        /* \"#utility.yul\":7839:7848   */\n      add\n        /* \"#utility.yul\":7832:7848   */\n      swap1\n      pop\n        /* \"#utility.yul\":7867:7870   */\n      dup1\n        /* \"#utility.yul\":7864:7865   */\n      dup3\n        /* \"#utility.yul\":7861:7871   */\n      gt\n        /* \"#utility.yul\":7858:7894   */\n      iszero\n      tag_298\n      jumpi\n        /* \"#utility.yul\":7874:7892   */\n      tag_299\n      tag_203\n      jump\t// in\n    tag_299:\n        /* \"#utility.yul\":7858:7894   */\n    tag_298:\n        /* \"#utility.yul\":7710:7901   */\n      swap3\n      swap2\n      pop\n      pop\n      jump\t// out\n        /* \"#utility.yul\":7907:8070   */\n    tag_204:\n        /* \"#utility.yul\":8047:8062   */\n      0x4e6f742066696e616c697a656400000000000000000000000000000000000000\n        /* \"#utility.yul\":8043:8044   */\n      0x00\n        /* \"#utility.yul\":8035:8041   */\n      dup3\n        /* \"#utility.yul\":8031:8045   */\n      add\n        /* \"#utility.yul\":8024:8063   */\n      mstore\n        /* \"#utility.yul\":7907:8070   */\n      pop\n      jump\t// out\n        /* \"#utility.yul\":8076:8442   */\n    tag_205:\n        /* \"#utility.yul\":8218:8221   */\n      0x00\n        /* \"#utility.yul\":8239:8306   */\n      tag_302\n        /* \"#utility.yul\":8303:8305   */\n      0x0d\n        /* \"#utility.yul\":8298:8301   */\n      dup4\n        /* \"#utility.yul\":8239:8306   */\n      tag_196\n      jump\t// in\n    tag_302:\n        /* \"#utility.yul\":8232:8306   */\n      swap2\n      pop\n        /* \"#utility.yul\":8315:8408   */\n      tag_303\n        /* \"#utility.yul\":8404:8407   */\n      dup3\n        /* \"#utility.yul\":8315:8408   */\n      tag_204\n      jump\t// in\n    tag_303:\n        /* \"#utility.yul\":8433:8435   */\n      0x20\n        /* \"#utility.yul\":8428:8431   */\n      dup3\n        /* \"#utility.yul\":8424:8436   */\n      add\n        /* \"#utility.yul\":8417:8436   */\n      swap1\n      pop\n        /* \"#utility.yul\":8076:8442   */\n      swap2\n      swap1\n      pop\n      jump\t// out\n        /* \"#utility.yul\":8448:8867   */\n    tag_118:\n        /* \"#utility.yul\":8614:8618   */\n      0x00\n        /* \"#utility.yul\":8652:8654   */\n      0x20\n        /* \"#utility.yul\":8641:8650   */\n      dup3\n        /* \"#utility.yul\":8637:8655   */\n      add\n        /* \"#utility.yul\":8629:8655   */\n      swap1\n      pop\n        /* \"#utility.yul\":8701:8710   */\n      dup2\n        /* \"#utility.yul\":8695:8699   */\n      dup2\n        /* \"#utility.yul\":8691:8711   */\n      sub\n        /* \"#utility.yul\":8687:8688   */\n      0x00\n        /* \"#utility.yul\":8676:8685   */\n      dup4\n        /* \"#utility.yul\":8672:8689   */\n      add\n        /* \"#utility.yul\":8665:8712   */\n      mstore\n        /* \"#utility.yul\":8729:8860   */\n      tag_305\n        /* \"#utility.yul\":8855:8859   */\n      dup2\n        /* \"#utility.yul\":8729:8860   */\n      tag_205\n      jump\t// in\n    tag_305:\n        /* \"#utility.yul\":8721:8860   */\n      swap1\n      pop\n        /* \"#utility.yul\":8448:8867   */\n      swap2\n      swap1\n      pop\n      jump\t// out\n        /* \"#utility.yul\":8873:9034   */\n    tag_206:\n        /* \"#utility.yul\":9013:9026   */\n      0x446964206e6f742077696e000000000000000000000000000000000000000000\n        /* \"#utility.yul\":9009:9010   */\n      0x00\n        /* \"#utility.yul\":9001:9007   */\n      dup3\n        /* \"#utility.yul\":8997:9011   */\n      add\n        /* \"#utility.yul\":8990:9027   */\n      mstore\n        /* \"#utility.yul\":8873:9034   */\n      pop\n      jump\t// out\n        /* \"#utility.yul\":9040:9406   */\n    tag_207:\n        /* \"#utility.yul\":9182:9185   */\n      0x00\n        /* \"#utility.yul\":9203:9270   */\n      tag_308\n        /* \"#utility.yul\":9267:9269   */\n      0x0b\n        /* \"#utility.yul\":9262:9265   */\n      dup4\n        /* \"#utility.yul\":9203:9270   */\n      tag_196\n      jump\t// in\n    tag_308:\n        /* \"#utility.yul\":9196:9270   */\n      swap2\n      pop\n        /* \"#utility.yul\":9279:9372   */\n      tag_309\n        /* \"#utility.yul\":9368:9371   */\n      dup3\n        /* \"#utility.yul\":9279:9372   */\n      tag_206\n      jump\t// in\n    tag_309:\n        /* \"#utility.yul\":9397:9399   */\n      0x20\n        /* \"#utility.yul\":9392:9395   */\n      dup3\n        /* \"#utility.yul\":9388:9400   */\n      add\n        /* \"#utility.yul\":9381:9400   */\n      swap1\n      pop\n        /* \"#utility.yul\":9040:9406   */\n      swap2\n      swap1\n      pop\n      jump\t// out\n        /* \"#utility.yul\":9412:9831   */\n    tag_121:\n        /* \"#utility.yul\":9578:9582   */\n      0x00\n        /* \"#utility.yul\":9616:9618   */\n      0x20\n        /* \"#utility.yul\":9605:9614   */\n      dup3\n        /* \"#utility.yul\":9601:9619   */\n      add\n        /* \"#utility.yul\":9593:9619   */\n      swap1\n      pop\n        /* \"#utility.yul\":9665:9674   */\n      dup2\n        /* \"#utility.yul\":9659:9663   */\n      dup2\n        /* \"#utility.yul\":9655:9675   */\n      sub\n        /* \"#utility.yul\":9651:9652   */\n      0x00\n        /* \"#utility.yul\":9640:9649   */\n      dup4\n        /* \"#utility.yul\":9636:9653   */\n      add\n        /* \"#utility.yul\":9629:9676   */\n      mstore\n        /* \"#utility.yul\":9693:9824   */\n      tag_311\n        /* \"#utility.yul\":9819:9823   */\n      dup2\n        /* \"#utility.yul\":9693:9824   */\n      tag_207\n      jump\t// in\n    tag_311:\n        /* \"#utility.yul\":9685:9824   */\n      swap1\n      pop\n        /* \"#utility.yul\":9412:9831   */\n      swap2\n      swap1\n      pop\n      jump\t// out\n        /* \"#utility.yul\":9837:10002   */\n    tag_208:\n        /* \"#utility.yul\":9977:9994   */\n      0x416c726561647920636c61696d65640000000000000000000000000000000000\n        /* \"#utility.yul\":9973:9974   */\n      0x00\n        /* \"#utility.yul\":9965:9971   */\n      dup3\n        /* \"#utility.yul\":9961:9975   */\n      add\n        /* \"#utility.yul\":9954:9995   */\n      mstore\n        /* \"#utility.yul\":9837:10002   */\n      pop\n      jump\t// out\n        /* \"#utility.yul\":10008:10374   */\n    tag_209:\n        /* \"#utility.yul\":10150:10153   */\n      0x00\n        /* \"#utility.yul\":10171:10238   */\n      tag_314\n        /* \"#utility.yul\":10235:10237   */\n      0x0f\n        /* \"#utility.yul\":10230:10233   */\n      dup4\n        /* \"#utility.yul\":10171:10238   */\n      tag_196\n      jump\t// in\n    tag_314:\n        /* \"#utility.yul\":10164:10238   */\n      swap2\n      pop\n        /* \"#utility.yul\":10247:10340   */\n      tag_315\n        /* \"#utility.yul\":10336:10339   */\n      dup3\n        /* \"#utility.yul\":10247:10340   */\n      tag_208\n      jump\t// in\n    tag_315:\n        /* \"#utility.yul\":10365:10367   */\n      0x20\n        /* \"#utility.yul\":10360:10363   */\n      dup3\n        /* \"#utility.yul\":10356:10368   */\n      add\n        /* \"#utility.yul\":10349:10368   */\n      swap1\n      pop\n        /* \"#utility.yul\":10008:10374   */\n      swap2\n      swap1\n      pop\n      jump\t// out\n        /* \"#utility.yul\":10380:10799   */\n    tag_124:\n        /* \"#utility.yul\":10546:10550   */\n      0x00\n        /* \"#utility.yul\":10584:10586   */\n      0x20\n        /* \"#utility.yul\":10573:10582   */\n      dup3\n        /* \"#utility.yul\":10569:10587   */\n      add\n        /* \"#utility.yul\":10561:10587   */\n      swap1\n      pop\n        /* \"#utility.yul\":10633:10642   */\n      dup2\n        /* \"#utility.yul\":10627:10631   */\n      dup2\n        /* \"#utility.yul\":10623:10643   */\n      sub\n        /* \"#utility.yul\":10619:10620   */\n      0x00\n        /* \"#utility.yul\":10608:10617   */\n      dup4\n        /* \"#utility.yul\":10604:10621   */\n      add\n        /* \"#utility.yul\":10597:10644   */\n      mstore\n        /* \"#utility.yul\":10661:10792   */\n      tag_317\n        /* \"#utility.yul\":10787:10791   */\n      dup2\n        /* \"#utility.yul\":10661:10792   */\n      tag_209\n      jump\t// in\n    tag_317:\n        /* \"#utility.yul\":10653:10792   */\n      swap1\n      pop\n        /* \"#utility.yul\":10380:10799   */\n      swap2\n      swap1\n      pop\n      jump\t// out\n        /* \"#utility.yul\":10805:10983   */\n    tag_210:\n        /* \"#utility.yul\":10945:10975   */\n      0x42657420626967676572207468616e2077696e6e696e6720706f6f6c00000000\n        /* \"#utility.yul\":10941:10942   */\n      0x00\n        /* \"#utility.yul\":10933:10939   */\n      dup3\n        /* \"#utility.yul\":10929:10943   */\n      add\n        /* \"#utility.yul\":10922:10976   */\n      mstore\n        /* \"#utility.yul\":10805:10983   */\n      pop\n      jump\t// out\n        /* \"#utility.yul\":10989:11355   */\n    tag_211:\n        /* \"#utility.yul\":11131:11134   */\n      0x00\n        /* \"#utility.yul\":11152:11219   */\n      tag_320\n        /* \"#utility.yul\":11216:11218   */\n      0x1c\n        /* \"#utility.yul\":11211:11214   */\n      dup4\n        /* \"#utility.yul\":11152:11219   */\n      tag_196\n      jump\t// in\n    tag_320:\n        /* \"#utility.yul\":11145:11219   */\n      swap2\n      pop\n        /* \"#utility.yul\":11228:11321   */\n      tag_321\n        /* \"#utility.yul\":11317:11320   */\n      dup3\n        /* \"#utility.yul\":11228:11321   */\n      tag_210\n      jump\t// in\n    tag_321:\n        /* \"#utility.yul\":11346:11348   */\n      0x20\n        /* \"#utility.yul\":11341:11344   */\n      dup3\n        /* \"#utility.yul\":11337:11349   */\n      add\n        /* \"#utility.yul\":11330:11349   */\n      swap1\n      pop\n        /* \"#utility.yul\":10989:11355   */\n      swap2\n      swap1\n      pop\n      jump\t// out\n        /* \"#utility.yul\":11361:11780   */\n    tag_145:\n        /* \"#utility.yul\":11527:11531   */\n      0x00\n        /* \"#utility.yul\":11565:11567   */\n      0x20\n        /* \"#utility.yul\":11554:11563   */\n      dup3\n        /* \"#utility.yul\":11550:11568   */\n      add\n        /* \"#utility.yul\":11542:11568   */\n      swap1\n      pop\n        /* \"#utility.yul\":11614:11623   */\n      dup2\n        /* \"#utility.yul\":11608:11612   */\n      dup2\n        /* \"#utility.yul\":11604:11624   */\n      sub\n        /* \"#utility.yul\":11600:11601   */\n      0x00\n        /* \"#utility.yul\":11589:11598   */\n      dup4\n        /* \"#utility.yul\":11585:11602   */\n      add\n        /* \"#utility.yul\":11578:11625   */\n      mstore\n        /* \"#utility.yul\":11642:11773   */\n      tag_323\n        /* \"#utility.yul\":11768:11772   */\n      dup2\n        /* \"#utility.yul\":11642:11773   */\n      tag_211\n      jump\t// in\n    tag_323:\n        /* \"#utility.yul\":11634:11773   */\n      swap1\n      pop\n        /* \"#utility.yul\":11361:11780   */\n      swap2\n      swap1\n      pop\n      jump\t// out\n        /* \"#utility.yul\":11786:12196   */\n    tag_149:\n        /* \"#utility.yul\":11826:11833   */\n      0x00\n        /* \"#utility.yul\":11849:11869   */\n      tag_325\n        /* \"#utility.yul\":11867:11868   */\n      dup3\n        /* \"#utility.yul\":11849:11869   */\n      tag_186\n      jump\t// in\n    tag_325:\n        /* \"#utility.yul\":11844:11869   */\n      swap2\n      pop\n        /* \"#utility.yul\":11883:11903   */\n      tag_326\n        /* \"#utility.yul\":11901:11902   */\n      dup4\n        /* \"#utility.yul\":11883:11903   */\n      tag_186\n      jump\t// in\n    tag_326:\n        /* \"#utility.yul\":11878:11903   */\n      swap3\n      pop\n        /* \"#utility.yul\":11938:11939   */\n      dup3\n        /* \"#utility.yul\":11935:11936   */\n      dup3\n        /* \"#utility.yul\":11931:11940   */\n      mul\n        /* \"#utility.yul\":11960:11990   */\n      tag_327\n        /* \"#utility.yul\":11978:11989   */\n      dup2\n        /* \"#utility.yul\":11960:11990   */\n      tag_186\n      jump\t// in\n    tag_327:\n        /* \"#utility.yul\":11949:11990   */\n      swap2\n      pop\n        /* \"#utility.yul\":12139:12140   */\n      dup3\n        /* \"#utility.yul\":12130:12137   */\n      dup3\n        /* \"#utility.yul\":12126:12141   */\n      div\n        /* \"#utility.yul\":12123:12124   */\n      dup5\n        /* \"#utility.yul\":12120:12142   */\n      eq\n        /* \"#utility.yul\":12100:12101   */\n      dup4\n        /* \"#utility.yul\":12093:12102   */\n      iszero\n        /* \"#utility.yul\":12073:12156   */\n      or\n        /* \"#utility.yul\":12050:12189   */\n      tag_328\n      jumpi\n        /* \"#utility.yul\":12169:12187   */\n      tag_329\n      tag_203\n      jump\t// in\n    tag_329:\n        /* \"#utility.yul\":12050:12189   */\n    tag_328:\n        /* \"#utility.yul\":11834:12196   */\n      pop\n        /* \"#utility.yul\":11786:12196   */\n      swap3\n      swap2\n      pop\n      pop\n      jump\t// out\n        /* \"#utility.yul\":12202:12382   */\n    tag_212:\n        /* \"#utility.yul\":12250:12327   */\n      0x4e487b7100000000000000000000000000000000000000000000000000000000\n        /* \"#utility.yul\":12247:12248   */\n      0x00\n        /* \"#utility.yul\":12240:12328   */\n      mstore\n        /* \"#utility.yul\":12347:12351   */\n      0x12\n        /* \"#utility.yul\":12344:12345   */\n      0x04\n        /* \"#utility.yul\":12337:12352   */\n      mstore\n        /* \"#utility.yul\":12371:12375   */\n      0x24\n        /* \"#utility.yul\":12368:12369   */\n      0x00\n        /* \"#utility.yul\":12361:12376   */\n      revert\n        /* \"#utility.yul\":12388:12573   */\n    tag_151:\n        /* \"#utility.yul\":12428:12429   */\n      0x00\n        /* \"#utility.yul\":12445:12465   */\n      tag_332\n        /* \"#utility.yul\":12463:12464   */\n      dup3\n        /* \"#utility.yul\":12445:12465   */\n      tag_186\n      jump\t// in\n    tag_332:\n        /* \"#utility.yul\":12440:12465   */\n      swap2\n      pop\n        /* \"#utility.yul\":12479:12499   */\n      tag_333\n        /* \"#utility.yul\":12497:12498   */\n      dup4\n        /* \"#utility.yul\":12479:12499   */\n      tag_186\n      jump\t// in\n    tag_333:\n        /* \"#utility.yul\":12474:12499   */\n      swap3\n      pop\n        /* \"#utility.yul\":12518:12519   */\n      dup3\n        /* \"#utility.yul\":12508:12543   */\n      tag_334\n      jumpi\n        /* \"#utility.yul\":12523:12541   */\n      tag_335\n      tag_212\n      jump\t// in\n    tag_335:\n        /* \"#utility.yul\":12508:12543   */\n    tag_334:\n        /* \"#utility.yul\":12565:12566   */\n      dup3\n        /* \"#utility.yul\":12562:12563   */\n      dup3\n        /* \"#utility.yul\":12558:12567   */\n      div\n        /* \"#utility.yul\":12553:12567   */\n      swap1\n      pop\n        /* \"#utility.yul\":12388:12573   */\n      swap3\n      swap2\n      pop\n      pop\n      jump\t// out\n        /* \"#utility.yul\":12579:12804   */\n    tag_213:\n        /* \"#utility.yul\":12719:12753   */\n      0x4f776e61626c653a206e6577206f776e657220697320746865207a65726f2061\n        /* \"#utility.yul\":12715:12716   */\n      0x00\n        /* \"#utility.yul\":12707:12713   */\n      dup3\n        /* \"#utility.yul\":12703:12717   */\n      add\n        /* \"#utility.yul\":12696:12754   */\n      mstore\n        /* \"#utility.yul\":12788:12796   */\n      0x6464726573730000000000000000000000000000000000000000000000000000\n        /* \"#utility.yul\":12783:12785   */\n      0x20\n        /* \"#utility.yul\":12775:12781   */\n      dup3\n        /* \"#utility.yul\":12771:12786   */\n      add\n        /* \"#utility.yul\":12764:12797   */\n      mstore\n        /* \"#utility.yul\":12579:12804   */\n      pop\n      jump\t// out\n        /* \"#utility.yul\":12810:13176   */\n    tag_214:\n        /* \"#utility.yul\":12952:12955   */\n      0x00\n        /* \"#utility.yul\":12973:13040   */\n      tag_338\n        /* \"#utility.yul\":13037:13039   */\n      0x26\n        /* \"#utility.yul\":13032:13035   */\n      dup4\n        /* \"#utility.yul\":12973:13040   */\n      tag_196\n      jump\t// in\n    tag_338:\n        /* \"#utility.yul\":12966:13040   */\n      swap2\n      pop\n        /* \"#utility.yul\":13049:13142   */\n      tag_339\n        /* \"#utility.yul\":13138:13141   */\n      dup3\n        /* \"#utility.yul\":13049:13142   */\n      tag_213\n      jump\t// in\n    tag_339:\n        /* \"#utility.yul\":13167:13169   */\n      0x40\n        /* \"#utility.yul\":13162:13165   */\n      dup3\n        /* \"#utility.yul\":13158:13170   */\n      add\n        /* \"#utility.yul\":13151:13170   */\n      swap1\n      pop\n        /* \"#utility.yul\":12810:13176   */\n      swap2\n      swap1\n      pop\n      jump\t// out\n        /* \"#utility.yul\":13182:13601   */\n    tag_165:\n        /* \"#utility.yul\":13348:13352   */\n      0x00\n        /* \"#utility.yul\":13386:13388   */\n      0x20\n        /* \"#utility.yul\":13375:13384   */\n      dup3\n        /* \"#utility.yul\":13371:13389   */\n      add\n        /* \"#utility.yul\":13363:13389   */\n      swap1\n      pop\n        /* \"#utility.yul\":13435:13444   */\n      dup2\n        /* \"#utility.yul\":13429:13433   */\n      dup2\n        /* \"#utility.yul\":13425:13445   */\n      sub\n        /* \"#utility.yul\":13421:13422   */\n      0x00\n        /* \"#utility.yul\":13410:13419   */\n      dup4\n        /* \"#utility.yul\":13406:13423   */\n      add\n        /* \"#utility.yul\":13399:13446   */\n      mstore\n        /* \"#utility.yul\":13463:13594   */\n      tag_341\n        /* \"#utility.yul\":13589:13593   */\n      dup2\n        /* \"#utility.yul\":13463:13594   */\n      tag_214\n      jump\t// in\n    tag_341:\n        /* \"#utility.yul\":13455:13594   */\n      swap1\n      pop\n        /* \"#utility.yul\":13182:13601   */\n      swap2\n      swap1\n      pop\n      jump\t// out\n        /* \"#utility.yul\":13607:13789   */\n    tag_215:\n        /* \"#utility.yul\":13747:13781   */\n      0x4f776e61626c653a2063616c6c6572206973206e6f7420746865206f776e6572\n        /* \"#utility.yul\":13743:13744   */\n      0x00\n        /* \"#utility.yul\":13735:13741   */\n      dup3\n        /* \"#utility.yul\":13731:13745   */\n      add\n        /* \"#utility.yul\":13724:13782   */\n      mstore\n        /* \"#utility.yul\":13607:13789   */\n      pop\n      jump\t// out\n        /* \"#utility.yul\":13795:14161   */\n    tag_216:\n        /* \"#utility.yul\":13937:13940   */\n      0x00\n        /* \"#utility.yul\":13958:14025   */\n      tag_344\n        /* \"#utility.yul\":14022:14024   */\n      0x20\n        /* \"#utility.yul\":14017:14020   */\n      dup4\n        /* \"#utility.yul\":13958:14025   */\n      tag_196\n      jump\t// in\n    tag_344:\n        /* \"#utility.yul\":13951:14025   */\n      swap2\n      pop\n        /* \"#utility.yul\":14034:14127   */\n      tag_345\n        /* \"#utility.yul\":14123:14126   */\n      dup3\n        /* \"#utility.yul\":14034:14127   */\n      tag_215\n      jump\t// in\n    tag_345:\n        /* \"#utility.yul\":14152:14154   */\n      0x20\n        /* \"#utility.yul\":14147:14150   */\n      dup3\n        /* \"#utility.yul\":14143:14155   */\n      add\n        /* \"#utility.yul\":14136:14155   */\n      swap1\n      pop\n        /* \"#utility.yul\":13795:14161   */\n      swap2\n      swap1\n      pop\n      jump\t// out\n        /* \"#utility.yul\":14167:14586   */\n    tag_173:\n        /* \"#utility.yul\":14333:14337   */\n      0x00\n        /* \"#utility.yul\":14371:14373   */\n      0x20\n        /* \"#utility.yul\":14360:14369   */\n      dup3\n        /* \"#utility.yul\":14356:14374   */\n      add\n        /* \"#utility.yul\":14348:14374   */\n      swap1\n      pop\n        /* \"#utility.yul\":14420:14429   */\n      dup2\n        /* \"#utility.yul\":14414:14418   */\n      dup2\n        /* \"#utility.yul\":14410:14430   */\n      sub\n        /* \"#utility.yul\":14406:14407   */\n      0x00\n        /* \"#utility.yul\":14395:14404   */\n      dup4\n        /* \"#utility.yul\":14391:14408   */\n      add\n        /* \"#utility.yul\":14384:14431   */\n      mstore\n        /* \"#utility.yul\":14448:14579   */\n      tag_347\n        /* \"#utility.yul\":14574:14578   */\n      dup2\n        /* \"#utility.yul\":14448:14579   */\n      tag_216\n      jump\t// in\n    tag_347:\n        /* \"#utility.yul\":14440:14579   */\n      swap1\n      pop\n        /* \"#utility.yul\":14167:14586   */\n      swap2\n      swap1\n      pop\n      jump\t// out\n\n    auxdata: 0xa26469706673582212206ca875a641f16c902798faa6b38008c72528efd260c9397be84ac28f0c75897d64736f6c63430008130033\n}\n",
				"bytecode": {
					"linkReferences": {},
					"object": "608060405260006001553480156200001657600080fd5b50604051620016043803806200160483398181016040528101906200003c919062000176565b6200005c620000506200006a60201b60201c565b6200007260201b60201c565b8060028190555050620001a8565b600033905090565b60008060009054906101000a900473ffffffffffffffffffffffffffffffffffffffff169050816000806101000a81548173ffffffffffffffffffffffffffffffffffffffff021916908373ffffffffffffffffffffffffffffffffffffffff1602179055508173ffffffffffffffffffffffffffffffffffffffff168173ffffffffffffffffffffffffffffffffffffffff167f8be0079c531659141344cd1fd0a4f28419497f9722a3daafe3b4186f6b6457e060405160405180910390a35050565b600080fd5b6000819050919050565b62000150816200013b565b81146200015c57600080fd5b50565b600081519050620001708162000145565b92915050565b6000602082840312156200018f576200018e62000136565b5b60006200019f848285016200015f565b91505092915050565b61144c80620001b86000396000f3fe6080604052600436106100fe5760003560e01c80638da5cb5b11610095578063e115234311610064578063e115234314610304578063ee29416c14610341578063eed947b11461036a578063efbe1c1c14610395578063f2fde38b146103c0576100fe565b80638da5cb5b1461024657806391ddadf414610271578063a3b5afb11461029c578063c6788bdd146102c7576100fe565b806351536c0f116100d157806351536c0f1461019e5780636f1d4ea4146101c7578063715018a6146101f257806389a78f1a14610209576100fe565b8063096a37781461010357806316934fc41461011f57806327793f871461015c5780634e71d92d14610187575b600080fd5b61011d60048036038101906101189190610d0a565b6103e9565b005b34801561012b57600080fd5b5061014660048036038101906101419190610d95565b610670565b6040516101539190610ddb565b60405180910390f35b34801561016857600080fd5b50610171610688565b60405161017e9190610e0f565b60405180910390f35b34801561019357600080fd5b5061019c61068e565b005b3480156101aa57600080fd5b506101c560048036038101906101c09190610e56565b61092e565b005b3480156101d357600080fd5b506101dc610940565b6040516101e99190610ddb565b60405180910390f35b3480156101fe57600080fd5b50610207610946565b005b34801561021557600080fd5b50610230600480360381019061022b9190610d95565b61095a565b60405161023d9190610e9f565b60405180910390f35b34801561025257600080fd5b5061025b61097a565b6040516102689190610ec9565b60405180910390f35b34801561027d57600080fd5b506102866109a3565b6040516102939190610ddb565b60405180910390f35b3480156102a857600080fd5b506102b16109a9565b6040516102be9190610ddb565b60405180910390f35b3480156102d357600080fd5b506102ee60048036038101906102e99190610d95565b6109af565b6040516102fb9190610ef3565b60405180910390f35b34801561031057600080fd5b5061032b60048036038101906103269190610e56565b6109cf565b6040516103389190610ddb565b60405180910390f35b34801561034d57600080fd5b5061036860048036038101906103639190610d0a565b610aab565b005b34801561037657600080fd5b5061037f610af0565b60405161038c9190610ddb565b60405180910390f35b3480156103a157600080fd5b506103aa610afa565b6040516103b79190610ddb565b60405180910390f35b3480156103cc57600080fd5b506103e760048036038101906103e29190610d95565b610b00565b005b6000340361042c576040517f08c379a000000000000000000000000000000000000000000000000000000000815260040161042390610f6b565b60405180910390fd5b6000600360003373ffffffffffffffffffffffffffffffffffffffff1673ffffffffffffffffffffffffffffffffffffffff16815260200190815260200160002060009054906101000a900460000b60000b146104be576040517f08c379a00000000000000000000000000000000000000000000000000000000081526004016104b590610fd7565b60405180910390fd5b6002544210610502576040517f08c379a00000000000000000000000000000000000000000000000000000000081526004016104f990611043565b60405180910390fd5b8015610582576001600360003373ffffffffffffffffffffffffffffffffffffffff1673ffffffffffffffffffffffffffffffffffffffff16815260200190815260200160002060006101000a81548160ff021916908360000b60ff16021790555034600660008282546105769190611092565b92505081905550610617565b7fffffffffffffffffffffffffffffffffffffffffffffffffffffffffffffffff600360003373ffffffffffffffffffffffffffffffffffffffff1673ffffffffffffffffffffffffffffffffffffffff16815260200190815260200160002060006101000a81548160ff021916908360000b60ff160217905550346007600082825461060f9190611092565b925050819055505b34600460003373ffffffffffffffffffffffffffffffffffffffff1673ffffffffffffffffffffffffffffffffffffffff16815260200190815260200160002060008282546106669190611092565b9250508190555050565b60046020528060005260406000206000915090505481565b60015481565b6000600154036106d3576040517f08c379a00000000000000000000000000000000000000000000000000000000081526004016106ca90611112565b60405180910390fd5b600154600360003373ffffffffffffffffffffffffffffffffffffffff1673ffffffffffffffffffffffffffffffffffffffff16815260200190815260200160002060009054906101000a900460000b60000b14610766576040517f08c379a000000000000000000000000000000000000000000000000000000000815260040161075d9061117e565b60405180910390fd5b60001515600560003373ffffffffffffffffffffffffffffffffffffffff1673ffffffffffffffffffffffffffffffffffffffff16815260200190815260200160002060009054906101000a900460ff161515146107f9576040517f08c379a00000000000000000000000000000000000000000000000000000000081526004016107f0906111ea565b60405180910390fd5b6000600460003373ffffffffffffffffffffffffffffffffffffffff1673ffffffffffffffffffffffffffffffffffffffff1681526020019081526020016000205490503373ffffffffffffffffffffffffffffffffffffffff166108fc610860836109cf565b9081150290604051600060405180830381858888f1935050505015801561088b573d6000803e3d6000fd5b503373ffffffffffffffffffffffffffffffffffffffff166108fc829081150290604051600060405180830381858888f193505050501580156108d2573d6000803e3d6000fd5b506001600560003373ffffffffffffffffffffffffffffffffffffffff1673ffffffffffffffffffffffffffffffffffffffff16815260200190815260200160002060006101000a81548160ff02191690831515021790555050565b610936610b83565b8060088190555050565b60065481565b61094e610b83565b6109586000610c01565b565b60036020528060005260406000206000915054906101000a900460000b81565b60008060009054906101000a900473ffffffffffffffffffffffffffffffffffffffff16905090565b60085481565b60075481565b60056020528060005260406000206000915054906101000a900460ff1681565b6000806305f5e1009050600060018054146109ec576007546109f0565b6006545b905080841115610a35576040517f08c379a0000000000000000000000000000000000000000000000000000000008152600401610a2c90611256565b60405180910390fd5b60007fffffffffffffffffffffffffffffffffffffffffffffffffffffffffffffffff60015414610a6857600654610a6c565b6007545b90506000828487610a7d9190611276565b610a8791906112e7565b9050838282610a969190611276565b610aa091906112e7565b945050505050919050565b610ab3610b83565b8015610ac55760018081905550610aed565b7fffffffffffffffffffffffffffffffffffffffffffffffffffffffffffffffff6001819055505b50565b6000600854905090565b60025481565b610b08610b83565b600073ffffffffffffffffffffffffffffffffffffffff168173ffffffffffffffffffffffffffffffffffffffff1603610b77576040517f08c379a0000000000000000000000000000000000000000000000000000000008152600401610b6e9061138a565b60405180910390fd5b610b8081610c01565b50565b610b8b610cc5565b73ffffffffffffffffffffffffffffffffffffffff16610ba961097a565b73ffffffffffffffffffffffffffffffffffffffff1614610bff576040517f08c379a0000000000000000000000000000000000000000000000000000000008152600401610bf6906113f6565b60405180910390fd5b565b60008060009054906101000a900473ffffffffffffffffffffffffffffffffffffffff169050816000806101000a81548173ffffffffffffffffffffffffffffffffffffffff021916908373ffffffffffffffffffffffffffffffffffffffff1602179055508173ffffffffffffffffffffffffffffffffffffffff168173ffffffffffffffffffffffffffffffffffffffff167f8be0079c531659141344cd1fd0a4f28419497f9722a3daafe3b4186f6b6457e060405160405180910390a35050565b600033905090565b600080fd5b60008115159050919050565b610ce781610cd2565b8114610cf257600080fd5b50565b600081359050610d0481610cde565b92915050565b600060208284031215610d2057610d1f610ccd565b5b6000610d2e84828501610cf5565b91505092915050565b600073ffffffffffffffffffffffffffffffffffffffff82169050919050565b6000610d6282610d37565b9050919050565b610d7281610d57565b8114610d7d57600080fd5b50565b600081359050610d8f81610d69565b92915050565b600060208284031215610dab57610daa610ccd565b5b6000610db984828501610d80565b91505092915050565b6000819050919050565b610dd581610dc2565b82525050565b6000602082019050610df06000830184610dcc565b92915050565b6000819050919050565b610e0981610df6565b82525050565b6000602082019050610e246000830184610e00565b92915050565b610e3381610dc2565b8114610e3e57600080fd5b50565b600081359050610e5081610e2a565b92915050565b600060208284031215610e6c57610e6b610ccd565b5b6000610e7a84828501610e41565b91505092915050565b60008160000b9050919050565b610e9981610e83565b82525050565b6000602082019050610eb46000830184610e90565b92915050565b610ec381610d57565b82525050565b6000602082019050610ede6000830184610eba565b92915050565b610eed81610cd2565b82525050565b6000602082019050610f086000830184610ee4565b92915050565b600082825260208201905092915050565b7f4e6f2076616c756520696d206265740000000000000000000000000000000000600082015250565b6000610f55600f83610f0e565b9150610f6082610f1f565b602082019050919050565b60006020820190508181036000830152610f8481610f48565b9050919050565b7f42657420616c726561647920706c616365640000000000000000000000000000600082015250565b6000610fc1601283610f0e565b9150610fcc82610f8b565b602082019050919050565b60006020820190508181036000830152610ff081610fb4565b9050919050565b7f50617373656420746865206c696d697400000000000000000000000000000000600082015250565b600061102d601083610f0e565b915061103882610ff7565b602082019050919050565b6000602082019050818103600083015261105c81611020565b9050919050565b7f4e487b7100000000000000000000000000000000000000000000000000000000600052601160045260246000fd5b600061109d82610dc2565b91506110a883610dc2565b92508282019050808211156110c0576110bf611063565b5b92915050565b7f4e6f742066696e616c697a656400000000000000000000000000000000000000600082015250565b60006110fc600d83610f0e565b9150611107826110c6565b602082019050919050565b6000602082019050818103600083015261112b816110ef565b9050919050565b7f446964206e6f742077696e000000000000000000000000000000000000000000600082015250565b6000611168600b83610f0e565b915061117382611132565b602082019050919050565b600060208201905081810360008301526111978161115b565b9050919050565b7f416c726561647920636c61696d65640000000000000000000000000000000000600082015250565b60006111d4600f83610f0e565b91506111df8261119e565b602082019050919050565b60006020820190508181036000830152611203816111c7565b9050919050565b7f42657420626967676572207468616e2077696e6e696e6720706f6f6c00000000600082015250565b6000611240601c83610f0e565b915061124b8261120a565b602082019050919050565b6000602082019050818103600083015261126f81611233565b9050919050565b600061128182610dc2565b915061128c83610dc2565b925082820261129a81610dc2565b915082820484148315176112b1576112b0611063565b5b5092915050565b7f4e487b7100000000000000000000000000000000000000000000000000000000600052601260045260246000fd5b60006112f282610dc2565b91506112fd83610dc2565b92508261130d5761130c6112b8565b5b828204905092915050565b7f4f776e61626c653a206e6577206f776e657220697320746865207a65726f206160008201527f6464726573730000000000000000000000000000000000000000000000000000602082015250565b6000611374602683610f0e565b915061137f82611318565b604082019050919050565b600060208201905081810360008301526113a381611367565b9050919050565b7f4f776e61626c653a2063616c6c6572206973206e6f7420746865206f776e6572600082015250565b60006113e0602083610f0e565b91506113eb826113aa565b602082019050919050565b6000602082019050818103600083015261140f816113d3565b905091905056fea26469706673582212206ca875a641f16c902798faa6b38008c72528efd260c9397be84ac28f0c75897d64736f6c63430008130033",
					"opcodes": "PUSH1 0x80 PUSH1 0x40 MSTORE PUSH1 0x0 PUSH1 0x1 SSTORE CALLVALUE DUP1 ISZERO PUSH3 0x16 JUMPI PUSH1 0x0 DUP1 REVERT JUMPDEST POP PUSH1 0x40 MLOAD PUSH3 0x1604 CODESIZE SUB DUP1 PUSH3 0x1604 DUP4 CODECOPY DUP2 DUP2 ADD PUSH1 0x40 MSTORE DUP2 ADD SWAP1 PUSH3 0x3C SWAP2 SWAP1 PUSH3 0x176 JUMP JUMPDEST PUSH3 0x5C PUSH3 0x50 PUSH3 0x6A PUSH1 0x20 SHL PUSH1 0x20 SHR JUMP JUMPDEST PUSH3 0x72 PUSH1 0x20 SHL PUSH1 0x20 SHR JUMP JUMPDEST DUP1 PUSH1 0x2 DUP2 SWAP1 SSTORE POP POP PUSH3 0x1A8 JUMP JUMPDEST PUSH1 0x0 CALLER SWAP1 POP SWAP1 JUMP JUMPDEST PUSH1 0x0 DUP1 PUSH1 0x0 SWAP1 SLOAD SWAP1 PUSH2 0x100 EXP SWAP1 DIV PUSH20 0xFFFFFFFFFFFFFFFFFFFFFFFFFFFFFFFFFFFFFFFF AND SWAP1 POP DUP2 PUSH1 0x0 DUP1 PUSH2 0x100 EXP DUP2 SLOAD DUP2 PUSH20 0xFFFFFFFFFFFFFFFFFFFFFFFFFFFFFFFFFFFFFFFF MUL NOT AND SWAP1 DUP4 PUSH20 0xFFFFFFFFFFFFFFFFFFFFFFFFFFFFFFFFFFFFFFFF AND MUL OR SWAP1 SSTORE POP DUP2 PUSH20 0xFFFFFFFFFFFFFFFFFFFFFFFFFFFFFFFFFFFFFFFF AND DUP2 PUSH20 0xFFFFFFFFFFFFFFFFFFFFFFFFFFFFFFFFFFFFFFFF AND PUSH32 0x8BE0079C531659141344CD1FD0A4F28419497F9722A3DAAFE3B4186F6B6457E0 PUSH1 0x40 MLOAD PUSH1 0x40 MLOAD DUP1 SWAP2 SUB SWAP1 LOG3 POP POP JUMP JUMPDEST PUSH1 0x0 DUP1 REVERT JUMPDEST PUSH1 0x0 DUP2 SWAP1 POP SWAP2 SWAP1 POP JUMP JUMPDEST PUSH3 0x150 DUP2 PUSH3 0x13B JUMP JUMPDEST DUP2 EQ PUSH3 0x15C JUMPI PUSH1 0x0 DUP1 REVERT JUMPDEST POP JUMP JUMPDEST PUSH1 0x0 DUP2 MLOAD SWAP1 POP PUSH3 0x170 DUP2 PUSH3 0x145 JUMP JUMPDEST SWAP3 SWAP2 POP POP JUMP JUMPDEST PUSH1 0x0 PUSH1 0x20 DUP3 DUP5 SUB SLT ISZERO PUSH3 0x18F JUMPI PUSH3 0x18E PUSH3 0x136 JUMP JUMPDEST JUMPDEST PUSH1 0x0 PUSH3 0x19F DUP5 DUP3 DUP6 ADD PUSH3 0x15F JUMP JUMPDEST SWAP2 POP POP SWAP3 SWAP2 POP POP JUMP JUMPDEST PUSH2 0x144C DUP1 PUSH3 0x1B8 PUSH1 0x0 CODECOPY PUSH1 0x0 RETURN INVALID PUSH1 0x80 PUSH1 0x40 MSTORE PUSH1 0x4 CALLDATASIZE LT PUSH2 0xFE JUMPI PUSH1 0x0 CALLDATALOAD PUSH1 0xE0 SHR DUP1 PUSH4 0x8DA5CB5B GT PUSH2 0x95 JUMPI DUP1 PUSH4 0xE1152343 GT PUSH2 0x64 JUMPI DUP1 PUSH4 0xE1152343 EQ PUSH2 0x304 JUMPI DUP1 PUSH4 0xEE29416C EQ PUSH2 0x341 JUMPI DUP1 PUSH4 0xEED947B1 EQ PUSH2 0x36A JUMPI DUP1 PUSH4 0xEFBE1C1C EQ PUSH2 0x395 JUMPI DUP1 PUSH4 0xF2FDE38B EQ PUSH2 0x3C0 JUMPI PUSH2 0xFE JUMP JUMPDEST DUP1 PUSH4 0x8DA5CB5B EQ PUSH2 0x246 JUMPI DUP1 PUSH4 0x91DDADF4 EQ PUSH2 0x271 JUMPI DUP1 PUSH4 0xA3B5AFB1 EQ PUSH2 0x29C JUMPI DUP1 PUSH4 0xC6788BDD EQ PUSH2 0x2C7 JUMPI PUSH2 0xFE JUMP JUMPDEST DUP1 PUSH4 0x51536C0F GT PUSH2 0xD1 JUMPI DUP1 PUSH4 0x51536C0F EQ PUSH2 0x19E JUMPI DUP1 PUSH4 0x6F1D4EA4 EQ PUSH2 0x1C7 JUMPI DUP1 PUSH4 0x715018A6 EQ PUSH2 0x1F2 JUMPI DUP1 PUSH4 0x89A78F1A EQ PUSH2 0x209 JUMPI PUSH2 0xFE JUMP JUMPDEST DUP1 PUSH4 0x96A3778 EQ PUSH2 0x103 JUMPI DUP1 PUSH4 0x16934FC4 EQ PUSH2 0x11F JUMPI DUP1 PUSH4 0x27793F87 EQ PUSH2 0x15C JUMPI DUP1 PUSH4 0x4E71D92D EQ PUSH2 0x187 JUMPI JUMPDEST PUSH1 0x0 DUP1 REVERT JUMPDEST PUSH2 0x11D PUSH1 0x4 DUP1 CALLDATASIZE SUB DUP2 ADD SWAP1 PUSH2 0x118 SWAP2 SWAP1 PUSH2 0xD0A JUMP JUMPDEST PUSH2 0x3E9 JUMP JUMPDEST STOP JUMPDEST CALLVALUE DUP1 ISZERO PUSH2 0x12B JUMPI PUSH1 0x0 DUP1 REVERT JUMPDEST POP PUSH2 0x146 PUSH1 0x4 DUP1 CALLDATASIZE SUB DUP2 ADD SWAP1 PUSH2 0x141 SWAP2 SWAP1 PUSH2 0xD95 JUMP JUMPDEST PUSH2 0x670 JUMP JUMPDEST PUSH1 0x40 MLOAD PUSH2 0x153 SWAP2 SWAP1 PUSH2 0xDDB JUMP JUMPDEST PUSH1 0x40 MLOAD DUP1 SWAP2 SUB SWAP1 RETURN JUMPDEST CALLVALUE DUP1 ISZERO PUSH2 0x168 JUMPI PUSH1 0x0 DUP1 REVERT JUMPDEST POP PUSH2 0x171 PUSH2 0x688 JUMP JUMPDEST PUSH1 0x40 MLOAD PUSH2 0x17E SWAP2 SWAP1 PUSH2 0xE0F JUMP JUMPDEST PUSH1 0x40 MLOAD DUP1 SWAP2 SUB SWAP1 RETURN JUMPDEST CALLVALUE DUP1 ISZERO PUSH2 0x193 JUMPI PUSH1 0x0 DUP1 REVERT JUMPDEST POP PUSH2 0x19C PUSH2 0x68E JUMP JUMPDEST STOP JUMPDEST CALLVALUE DUP1 ISZERO PUSH2 0x1AA JUMPI PUSH1 0x0 DUP1 REVERT JUMPDEST POP PUSH2 0x1C5 PUSH1 0x4 DUP1 CALLDATASIZE SUB DUP2 ADD SWAP1 PUSH2 0x1C0 SWAP2 SWAP1 PUSH2 0xE56 JUMP JUMPDEST PUSH2 0x92E JUMP JUMPDEST STOP JUMPDEST CALLVALUE DUP1 ISZERO PUSH2 0x1D3 JUMPI PUSH1 0x0 DUP1 REVERT JUMPDEST POP PUSH2 0x1DC PUSH2 0x940 JUMP JUMPDEST PUSH1 0x40 MLOAD PUSH2 0x1E9 SWAP2 SWAP1 PUSH2 0xDDB JUMP JUMPDEST PUSH1 0x40 MLOAD DUP1 SWAP2 SUB SWAP1 RETURN JUMPDEST CALLVALUE DUP1 ISZERO PUSH2 0x1FE JUMPI PUSH1 0x0 DUP1 REVERT JUMPDEST POP PUSH2 0x207 PUSH2 0x946 JUMP JUMPDEST STOP JUMPDEST CALLVALUE DUP1 ISZERO PUSH2 0x215 JUMPI PUSH1 0x0 DUP1 REVERT JUMPDEST POP PUSH2 0x230 PUSH1 0x4 DUP1 CALLDATASIZE SUB DUP2 ADD SWAP1 PUSH2 0x22B SWAP2 SWAP1 PUSH2 0xD95 JUMP JUMPDEST PUSH2 0x95A JUMP JUMPDEST PUSH1 0x40 MLOAD PUSH2 0x23D SWAP2 SWAP1 PUSH2 0xE9F JUMP JUMPDEST PUSH1 0x40 MLOAD DUP1 SWAP2 SUB SWAP1 RETURN JUMPDEST CALLVALUE DUP1 ISZERO PUSH2 0x252 JUMPI PUSH1 0x0 DUP1 REVERT JUMPDEST POP PUSH2 0x25B PUSH2 0x97A JUMP JUMPDEST PUSH1 0x40 MLOAD PUSH2 0x268 SWAP2 SWAP1 PUSH2 0xEC9 JUMP JUMPDEST PUSH1 0x40 MLOAD DUP1 SWAP2 SUB SWAP1 RETURN JUMPDEST CALLVALUE DUP1 ISZERO PUSH2 0x27D JUMPI PUSH1 0x0 DUP1 REVERT JUMPDEST POP PUSH2 0x286 PUSH2 0x9A3 JUMP JUMPDEST PUSH1 0x40 MLOAD PUSH2 0x293 SWAP2 SWAP1 PUSH2 0xDDB JUMP JUMPDEST PUSH1 0x40 MLOAD DUP1 SWAP2 SUB SWAP1 RETURN JUMPDEST CALLVALUE DUP1 ISZERO PUSH2 0x2A8 JUMPI PUSH1 0x0 DUP1 REVERT JUMPDEST POP PUSH2 0x2B1 PUSH2 0x9A9 JUMP JUMPDEST PUSH1 0x40 MLOAD PUSH2 0x2BE SWAP2 SWAP1 PUSH2 0xDDB JUMP JUMPDEST PUSH1 0x40 MLOAD DUP1 SWAP2 SUB SWAP1 RETURN JUMPDEST CALLVALUE DUP1 ISZERO PUSH2 0x2D3 JUMPI PUSH1 0x0 DUP1 REVERT JUMPDEST POP PUSH2 0x2EE PUSH1 0x4 DUP1 CALLDATASIZE SUB DUP2 ADD SWAP1 PUSH2 0x2E9 SWAP2 SWAP1 PUSH2 0xD95 JUMP JUMPDEST PUSH2 0x9AF JUMP JUMPDEST PUSH1 0x40 MLOAD PUSH2 0x2FB SWAP2 SWAP1 PUSH2 0xEF3 JUMP JUMPDEST PUSH1 0x40 MLOAD DUP1 SWAP2 SUB SWAP1 RETURN JUMPDEST CALLVALUE DUP1 ISZERO PUSH2 0x310 JUMPI PUSH1 0x0 DUP1 REVERT JUMPDEST POP PUSH2 0x32B PUSH1 0x4 DUP1 CALLDATASIZE SUB DUP2 ADD SWAP1 PUSH2 0x326 SWAP2 SWAP1 PUSH2 0xE56 JUMP JUMPDEST PUSH2 0x9CF JUMP JUMPDEST PUSH1 0x40 MLOAD PUSH2 0x338 SWAP2 SWAP1 PUSH2 0xDDB JUMP JUMPDEST PUSH1 0x40 MLOAD DUP1 SWAP2 SUB SWAP1 RETURN JUMPDEST CALLVALUE DUP1 ISZERO PUSH2 0x34D JUMPI PUSH1 0x0 DUP1 REVERT JUMPDEST POP PUSH2 0x368 PUSH1 0x4 DUP1 CALLDATASIZE SUB DUP2 ADD SWAP1 PUSH2 0x363 SWAP2 SWAP1 PUSH2 0xD0A JUMP JUMPDEST PUSH2 0xAAB JUMP JUMPDEST STOP JUMPDEST CALLVALUE DUP1 ISZERO PUSH2 0x376 JUMPI PUSH1 0x0 DUP1 REVERT JUMPDEST POP PUSH2 0x37F PUSH2 0xAF0 JUMP JUMPDEST PUSH1 0x40 MLOAD PUSH2 0x38C SWAP2 SWAP1 PUSH2 0xDDB JUMP JUMPDEST PUSH1 0x40 MLOAD DUP1 SWAP2 SUB SWAP1 RETURN JUMPDEST CALLVALUE DUP1 ISZERO PUSH2 0x3A1 JUMPI PUSH1 0x0 DUP1 REVERT JUMPDEST POP PUSH2 0x3AA PUSH2 0xAFA JUMP JUMPDEST PUSH1 0x40 MLOAD PUSH2 0x3B7 SWAP2 SWAP1 PUSH2 0xDDB JUMP JUMPDEST PUSH1 0x40 MLOAD DUP1 SWAP2 SUB SWAP1 RETURN JUMPDEST CALLVALUE DUP1 ISZERO PUSH2 0x3CC JUMPI PUSH1 0x0 DUP1 REVERT JUMPDEST POP PUSH2 0x3E7 PUSH1 0x4 DUP1 CALLDATASIZE SUB DUP2 ADD SWAP1 PUSH2 0x3E2 SWAP2 SWAP1 PUSH2 0xD95 JUMP JUMPDEST PUSH2 0xB00 JUMP JUMPDEST STOP JUMPDEST PUSH1 0x0 CALLVALUE SUB PUSH2 0x42C JUMPI PUSH1 0x40 MLOAD PUSH32 0x8C379A000000000000000000000000000000000000000000000000000000000 DUP2 MSTORE PUSH1 0x4 ADD PUSH2 0x423 SWAP1 PUSH2 0xF6B JUMP JUMPDEST PUSH1 0x40 MLOAD DUP1 SWAP2 SUB SWAP1 REVERT JUMPDEST PUSH1 0x0 PUSH1 0x3 PUSH1 0x0 CALLER PUSH20 0xFFFFFFFFFFFFFFFFFFFFFFFFFFFFFFFFFFFFFFFF AND PUSH20 0xFFFFFFFFFFFFFFFFFFFFFFFFFFFFFFFFFFFFFFFF AND DUP2 MSTORE PUSH1 0x20 ADD SWAP1 DUP2 MSTORE PUSH1 0x20 ADD PUSH1 0x0 KECCAK256 PUSH1 0x0 SWAP1 SLOAD SWAP1 PUSH2 0x100 EXP SWAP1 DIV PUSH1 0x0 SIGNEXTEND PUSH1 0x0 SIGNEXTEND EQ PUSH2 0x4BE JUMPI PUSH1 0x40 MLOAD PUSH32 0x8C379A000000000000000000000000000000000000000000000000000000000 DUP2 MSTORE PUSH1 0x4 ADD PUSH2 0x4B5 SWAP1 PUSH2 0xFD7 JUMP JUMPDEST PUSH1 0x40 MLOAD DUP1 SWAP2 SUB SWAP1 REVERT JUMPDEST PUSH1 0x2 SLOAD TIMESTAMP LT PUSH2 0x502 JUMPI PUSH1 0x40 MLOAD PUSH32 0x8C379A000000000000000000000000000000000000000000000000000000000 DUP2 MSTORE PUSH1 0x4 ADD PUSH2 0x4F9 SWAP1 PUSH2 0x1043 JUMP JUMPDEST PUSH1 0x40 MLOAD DUP1 SWAP2 SUB SWAP1 REVERT JUMPDEST DUP1 ISZERO PUSH2 0x582 JUMPI PUSH1 0x1 PUSH1 0x3 PUSH1 0x0 CALLER PUSH20 0xFFFFFFFFFFFFFFFFFFFFFFFFFFFFFFFFFFFFFFFF AND PUSH20 0xFFFFFFFFFFFFFFFFFFFFFFFFFFFFFFFFFFFFFFFF AND DUP2 MSTORE PUSH1 0x20 ADD SWAP1 DUP2 MSTORE PUSH1 0x20 ADD PUSH1 0x0 KECCAK256 PUSH1 0x0 PUSH2 0x100 EXP DUP2 SLOAD DUP2 PUSH1 0xFF MUL NOT AND SWAP1 DUP4 PUSH1 0x0 SIGNEXTEND PUSH1 0xFF AND MUL OR SWAP1 SSTORE POP CALLVALUE PUSH1 0x6 PUSH1 0x0 DUP3 DUP3 SLOAD PUSH2 0x576 SWAP2 SWAP1 PUSH2 0x1092 JUMP JUMPDEST SWAP3 POP POP DUP2 SWAP1 SSTORE POP PUSH2 0x617 JUMP JUMPDEST PUSH32 0xFFFFFFFFFFFFFFFFFFFFFFFFFFFFFFFFFFFFFFFFFFFFFFFFFFFFFFFFFFFFFFFF PUSH1 0x3 PUSH1 0x0 CALLER PUSH20 0xFFFFFFFFFFFFFFFFFFFFFFFFFFFFFFFFFFFFFFFF AND PUSH20 0xFFFFFFFFFFFFFFFFFFFFFFFFFFFFFFFFFFFFFFFF AND DUP2 MSTORE PUSH1 0x20 ADD SWAP1 DUP2 MSTORE PUSH1 0x20 ADD PUSH1 0x0 KECCAK256 PUSH1 0x0 PUSH2 0x100 EXP DUP2 SLOAD DUP2 PUSH1 0xFF MUL NOT AND SWAP1 DUP4 PUSH1 0x0 SIGNEXTEND PUSH1 0xFF AND MUL OR SWAP1 SSTORE POP CALLVALUE PUSH1 0x7 PUSH1 0x0 DUP3 DUP3 SLOAD PUSH2 0x60F SWAP2 SWAP1 PUSH2 0x1092 JUMP JUMPDEST SWAP3 POP POP DUP2 SWAP1 SSTORE POP JUMPDEST CALLVALUE PUSH1 0x4 PUSH1 0x0 CALLER PUSH20 0xFFFFFFFFFFFFFFFFFFFFFFFFFFFFFFFFFFFFFFFF AND PUSH20 0xFFFFFFFFFFFFFFFFFFFFFFFFFFFFFFFFFFFFFFFF AND DUP2 MSTORE PUSH1 0x20 ADD SWAP1 DUP2 MSTORE PUSH1 0x20 ADD PUSH1 0x0 KECCAK256 PUSH1 0x0 DUP3 DUP3 SLOAD PUSH2 0x666 SWAP2 SWAP1 PUSH2 0x1092 JUMP JUMPDEST SWAP3 POP POP DUP2 SWAP1 SSTORE POP POP JUMP JUMPDEST PUSH1 0x4 PUSH1 0x20 MSTORE DUP1 PUSH1 0x0 MSTORE PUSH1 0x40 PUSH1 0x0 KECCAK256 PUSH1 0x0 SWAP2 POP SWAP1 POP SLOAD DUP2 JUMP JUMPDEST PUSH1 0x1 SLOAD DUP2 JUMP JUMPDEST PUSH1 0x0 PUSH1 0x1 SLOAD SUB PUSH2 0x6D3 JUMPI PUSH1 0x40 MLOAD PUSH32 0x8C379A000000000000000000000000000000000000000000000000000000000 DUP2 MSTORE PUSH1 0x4 ADD PUSH2 0x6CA SWAP1 PUSH2 0x1112 JUMP JUMPDEST PUSH1 0x40 MLOAD DUP1 SWAP2 SUB SWAP1 REVERT JUMPDEST PUSH1 0x1 SLOAD PUSH1 0x3 PUSH1 0x0 CALLER PUSH20 0xFFFFFFFFFFFFFFFFFFFFFFFFFFFFFFFFFFFFFFFF AND PUSH20 0xFFFFFFFFFFFFFFFFFFFFFFFFFFFFFFFFFFFFFFFF AND DUP2 MSTORE PUSH1 0x20 ADD SWAP1 DUP2 MSTORE PUSH1 0x20 ADD PUSH1 0x0 KECCAK256 PUSH1 0x0 SWAP1 SLOAD SWAP1 PUSH2 0x100 EXP SWAP1 DIV PUSH1 0x0 SIGNEXTEND PUSH1 0x0 SIGNEXTEND EQ PUSH2 0x766 JUMPI PUSH1 0x40 MLOAD PUSH32 0x8C379A000000000000000000000000000000000000000000000000000000000 DUP2 MSTORE PUSH1 0x4 ADD PUSH2 0x75D SWAP1 PUSH2 0x117E JUMP JUMPDEST PUSH1 0x40 MLOAD DUP1 SWAP2 SUB SWAP1 REVERT JUMPDEST PUSH1 0x0 ISZERO ISZERO PUSH1 0x5 PUSH1 0x0 CALLER PUSH20 0xFFFFFFFFFFFFFFFFFFFFFFFFFFFFFFFFFFFFFFFF AND PUSH20 0xFFFFFFFFFFFFFFFFFFFFFFFFFFFFFFFFFFFFFFFF AND DUP2 MSTORE PUSH1 0x20 ADD SWAP1 DUP2 MSTORE PUSH1 0x20 ADD PUSH1 0x0 KECCAK256 PUSH1 0x0 SWAP1 SLOAD SWAP1 PUSH2 0x100 EXP SWAP1 DIV PUSH1 0xFF AND ISZERO ISZERO EQ PUSH2 0x7F9 JUMPI PUSH1 0x40 MLOAD PUSH32 0x8C379A000000000000000000000000000000000000000000000000000000000 DUP2 MSTORE PUSH1 0x4 ADD PUSH2 0x7F0 SWAP1 PUSH2 0x11EA JUMP JUMPDEST PUSH1 0x40 MLOAD DUP1 SWAP2 SUB SWAP1 REVERT JUMPDEST PUSH1 0x0 PUSH1 0x4 PUSH1 0x0 CALLER PUSH20 0xFFFFFFFFFFFFFFFFFFFFFFFFFFFFFFFFFFFFFFFF AND PUSH20 0xFFFFFFFFFFFFFFFFFFFFFFFFFFFFFFFFFFFFFFFF AND DUP2 MSTORE PUSH1 0x20 ADD SWAP1 DUP2 MSTORE PUSH1 0x20 ADD PUSH1 0x0 KECCAK256 SLOAD SWAP1 POP CALLER PUSH20 0xFFFFFFFFFFFFFFFFFFFFFFFFFFFFFFFFFFFFFFFF AND PUSH2 0x8FC PUSH2 0x860 DUP4 PUSH2 0x9CF JUMP JUMPDEST SWAP1 DUP2 ISZERO MUL SWAP1 PUSH1 0x40 MLOAD PUSH1 0x0 PUSH1 0x40 MLOAD DUP1 DUP4 SUB DUP2 DUP6 DUP9 DUP9 CALL SWAP4 POP POP POP POP ISZERO DUP1 ISZERO PUSH2 0x88B JUMPI RETURNDATASIZE PUSH1 0x0 DUP1 RETURNDATACOPY RETURNDATASIZE PUSH1 0x0 REVERT JUMPDEST POP CALLER PUSH20 0xFFFFFFFFFFFFFFFFFFFFFFFFFFFFFFFFFFFFFFFF AND PUSH2 0x8FC DUP3 SWAP1 DUP2 ISZERO MUL SWAP1 PUSH1 0x40 MLOAD PUSH1 0x0 PUSH1 0x40 MLOAD DUP1 DUP4 SUB DUP2 DUP6 DUP9 DUP9 CALL SWAP4 POP POP POP POP ISZERO DUP1 ISZERO PUSH2 0x8D2 JUMPI RETURNDATASIZE PUSH1 0x0 DUP1 RETURNDATACOPY RETURNDATASIZE PUSH1 0x0 REVERT JUMPDEST POP PUSH1 0x1 PUSH1 0x5 PUSH1 0x0 CALLER PUSH20 0xFFFFFFFFFFFFFFFFFFFFFFFFFFFFFFFFFFFFFFFF AND PUSH20 0xFFFFFFFFFFFFFFFFFFFFFFFFFFFFFFFFFFFFFFFF AND DUP2 MSTORE PUSH1 0x20 ADD SWAP1 DUP2 MSTORE PUSH1 0x20 ADD PUSH1 0x0 KECCAK256 PUSH1 0x0 PUSH2 0x100 EXP DUP2 SLOAD DUP2 PUSH1 0xFF MUL NOT AND SWAP1 DUP4 ISZERO ISZERO MUL OR SWAP1 SSTORE POP POP JUMP JUMPDEST PUSH2 0x936 PUSH2 0xB83 JUMP JUMPDEST DUP1 PUSH1 0x8 DUP2 SWAP1 SSTORE POP POP JUMP JUMPDEST PUSH1 0x6 SLOAD DUP2 JUMP JUMPDEST PUSH2 0x94E PUSH2 0xB83 JUMP JUMPDEST PUSH2 0x958 PUSH1 0x0 PUSH2 0xC01 JUMP JUMPDEST JUMP JUMPDEST PUSH1 0x3 PUSH1 0x20 MSTORE DUP1 PUSH1 0x0 MSTORE PUSH1 0x40 PUSH1 0x0 KECCAK256 PUSH1 0x0 SWAP2 POP SLOAD SWAP1 PUSH2 0x100 EXP SWAP1 DIV PUSH1 0x0 SIGNEXTEND DUP2 JUMP JUMPDEST PUSH1 0x0 DUP1 PUSH1 0x0 SWAP1 SLOAD SWAP1 PUSH2 0x100 EXP SWAP1 DIV PUSH20 0xFFFFFFFFFFFFFFFFFFFFFFFFFFFFFFFFFFFFFFFF AND SWAP1 POP SWAP1 JUMP JUMPDEST PUSH1 0x8 SLOAD DUP2 JUMP JUMPDEST PUSH1 0x7 SLOAD DUP2 JUMP JUMPDEST PUSH1 0x5 PUSH1 0x20 MSTORE DUP1 PUSH1 0x0 MSTORE PUSH1 0x40 PUSH1 0x0 KECCAK256 PUSH1 0x0 SWAP2 POP SLOAD SWAP1 PUSH2 0x100 EXP SWAP1 DIV PUSH1 0xFF AND DUP2 JUMP JUMPDEST PUSH1 0x0 DUP1 PUSH4 0x5F5E100 SWAP1 POP PUSH1 0x0 PUSH1 0x1 DUP1 SLOAD EQ PUSH2 0x9EC JUMPI PUSH1 0x7 SLOAD PUSH2 0x9F0 JUMP JUMPDEST PUSH1 0x6 SLOAD JUMPDEST SWAP1 POP DUP1 DUP5 GT ISZERO PUSH2 0xA35 JUMPI PUSH1 0x40 MLOAD PUSH32 0x8C379A000000000000000000000000000000000000000000000000000000000 DUP2 MSTORE PUSH1 0x4 ADD PUSH2 0xA2C SWAP1 PUSH2 0x1256 JUMP JUMPDEST PUSH1 0x40 MLOAD DUP1 SWAP2 SUB SWAP1 REVERT JUMPDEST PUSH1 0x0 PUSH32 0xFFFFFFFFFFFFFFFFFFFFFFFFFFFFFFFFFFFFFFFFFFFFFFFFFFFFFFFFFFFFFFFF PUSH1 0x1 SLOAD EQ PUSH2 0xA68 JUMPI PUSH1 0x6 SLOAD PUSH2 0xA6C JUMP JUMPDEST PUSH1 0x7 SLOAD JUMPDEST SWAP1 POP PUSH1 0x0 DUP3 DUP5 DUP8 PUSH2 0xA7D SWAP2 SWAP1 PUSH2 0x1276 JUMP JUMPDEST PUSH2 0xA87 SWAP2 SWAP1 PUSH2 0x12E7 JUMP JUMPDEST SWAP1 POP DUP4 DUP3 DUP3 PUSH2 0xA96 SWAP2 SWAP1 PUSH2 0x1276 JUMP JUMPDEST PUSH2 0xAA0 SWAP2 SWAP1 PUSH2 0x12E7 JUMP JUMPDEST SWAP5 POP POP POP POP POP SWAP2 SWAP1 POP JUMP JUMPDEST PUSH2 0xAB3 PUSH2 0xB83 JUMP JUMPDEST DUP1 ISZERO PUSH2 0xAC5 JUMPI PUSH1 0x1 DUP1 DUP2 SWAP1 SSTORE POP PUSH2 0xAED JUMP JUMPDEST PUSH32 0xFFFFFFFFFFFFFFFFFFFFFFFFFFFFFFFFFFFFFFFFFFFFFFFFFFFFFFFFFFFFFFFF PUSH1 0x1 DUP2 SWAP1 SSTORE POP JUMPDEST POP JUMP JUMPDEST PUSH1 0x0 PUSH1 0x8 SLOAD SWAP1 POP SWAP1 JUMP JUMPDEST PUSH1 0x2 SLOAD DUP2 JUMP JUMPDEST PUSH2 0xB08 PUSH2 0xB83 JUMP JUMPDEST PUSH1 0x0 PUSH20 0xFFFFFFFFFFFFFFFFFFFFFFFFFFFFFFFFFFFFFFFF AND DUP2 PUSH20 0xFFFFFFFFFFFFFFFFFFFFFFFFFFFFFFFFFFFFFFFF AND SUB PUSH2 0xB77 JUMPI PUSH1 0x40 MLOAD PUSH32 0x8C379A000000000000000000000000000000000000000000000000000000000 DUP2 MSTORE PUSH1 0x4 ADD PUSH2 0xB6E SWAP1 PUSH2 0x138A JUMP JUMPDEST PUSH1 0x40 MLOAD DUP1 SWAP2 SUB SWAP1 REVERT JUMPDEST PUSH2 0xB80 DUP2 PUSH2 0xC01 JUMP JUMPDEST POP JUMP JUMPDEST PUSH2 0xB8B PUSH2 0xCC5 JUMP JUMPDEST PUSH20 0xFFFFFFFFFFFFFFFFFFFFFFFFFFFFFFFFFFFFFFFF AND PUSH2 0xBA9 PUSH2 0x97A JUMP JUMPDEST PUSH20 0xFFFFFFFFFFFFFFFFFFFFFFFFFFFFFFFFFFFFFFFF AND EQ PUSH2 0xBFF JUMPI PUSH1 0x40 MLOAD PUSH32 0x8C379A000000000000000000000000000000000000000000000000000000000 DUP2 MSTORE PUSH1 0x4 ADD PUSH2 0xBF6 SWAP1 PUSH2 0x13F6 JUMP JUMPDEST PUSH1 0x40 MLOAD DUP1 SWAP2 SUB SWAP1 REVERT JUMPDEST JUMP JUMPDEST PUSH1 0x0 DUP1 PUSH1 0x0 SWAP1 SLOAD SWAP1 PUSH2 0x100 EXP SWAP1 DIV PUSH20 0xFFFFFFFFFFFFFFFFFFFFFFFFFFFFFFFFFFFFFFFF AND SWAP1 POP DUP2 PUSH1 0x0 DUP1 PUSH2 0x100 EXP DUP2 SLOAD DUP2 PUSH20 0xFFFFFFFFFFFFFFFFFFFFFFFFFFFFFFFFFFFFFFFF MUL NOT AND SWAP1 DUP4 PUSH20 0xFFFFFFFFFFFFFFFFFFFFFFFFFFFFFFFFFFFFFFFF AND MUL OR SWAP1 SSTORE POP DUP2 PUSH20 0xFFFFFFFFFFFFFFFFFFFFFFFFFFFFFFFFFFFFFFFF AND DUP2 PUSH20 0xFFFFFFFFFFFFFFFFFFFFFFFFFFFFFFFFFFFFFFFF AND PUSH32 0x8BE0079C531659141344CD1FD0A4F28419497F9722A3DAAFE3B4186F6B6457E0 PUSH1 0x40 MLOAD PUSH1 0x40 MLOAD DUP1 SWAP2 SUB SWAP1 LOG3 POP POP JUMP JUMPDEST PUSH1 0x0 CALLER SWAP1 POP SWAP1 JUMP JUMPDEST PUSH1 0x0 DUP1 REVERT JUMPDEST PUSH1 0x0 DUP2 ISZERO ISZERO SWAP1 POP SWAP2 SWAP1 POP JUMP JUMPDEST PUSH2 0xCE7 DUP2 PUSH2 0xCD2 JUMP JUMPDEST DUP2 EQ PUSH2 0xCF2 JUMPI PUSH1 0x0 DUP1 REVERT JUMPDEST POP JUMP JUMPDEST PUSH1 0x0 DUP2 CALLDATALOAD SWAP1 POP PUSH2 0xD04 DUP2 PUSH2 0xCDE JUMP JUMPDEST SWAP3 SWAP2 POP POP JUMP JUMPDEST PUSH1 0x0 PUSH1 0x20 DUP3 DUP5 SUB SLT ISZERO PUSH2 0xD20 JUMPI PUSH2 0xD1F PUSH2 0xCCD JUMP JUMPDEST JUMPDEST PUSH1 0x0 PUSH2 0xD2E DUP5 DUP3 DUP6 ADD PUSH2 0xCF5 JUMP JUMPDEST SWAP2 POP POP SWAP3 SWAP2 POP POP JUMP JUMPDEST PUSH1 0x0 PUSH20 0xFFFFFFFFFFFFFFFFFFFFFFFFFFFFFFFFFFFFFFFF DUP3 AND SWAP1 POP SWAP2 SWAP1 POP JUMP JUMPDEST PUSH1 0x0 PUSH2 0xD62 DUP3 PUSH2 0xD37 JUMP JUMPDEST SWAP1 POP SWAP2 SWAP1 POP JUMP JUMPDEST PUSH2 0xD72 DUP2 PUSH2 0xD57 JUMP JUMPDEST DUP2 EQ PUSH2 0xD7D JUMPI PUSH1 0x0 DUP1 REVERT JUMPDEST POP JUMP JUMPDEST PUSH1 0x0 DUP2 CALLDATALOAD SWAP1 POP PUSH2 0xD8F DUP2 PUSH2 0xD69 JUMP JUMPDEST SWAP3 SWAP2 POP POP JUMP JUMPDEST PUSH1 0x0 PUSH1 0x20 DUP3 DUP5 SUB SLT ISZERO PUSH2 0xDAB JUMPI PUSH2 0xDAA PUSH2 0xCCD JUMP JUMPDEST JUMPDEST PUSH1 0x0 PUSH2 0xDB9 DUP5 DUP3 DUP6 ADD PUSH2 0xD80 JUMP JUMPDEST SWAP2 POP POP SWAP3 SWAP2 POP POP JUMP JUMPDEST PUSH1 0x0 DUP2 SWAP1 POP SWAP2 SWAP1 POP JUMP JUMPDEST PUSH2 0xDD5 DUP2 PUSH2 0xDC2 JUMP JUMPDEST DUP3 MSTORE POP POP JUMP JUMPDEST PUSH1 0x0 PUSH1 0x20 DUP3 ADD SWAP1 POP PUSH2 0xDF0 PUSH1 0x0 DUP4 ADD DUP5 PUSH2 0xDCC JUMP JUMPDEST SWAP3 SWAP2 POP POP JUMP JUMPDEST PUSH1 0x0 DUP2 SWAP1 POP SWAP2 SWAP1 POP JUMP JUMPDEST PUSH2 0xE09 DUP2 PUSH2 0xDF6 JUMP JUMPDEST DUP3 MSTORE POP POP JUMP JUMPDEST PUSH1 0x0 PUSH1 0x20 DUP3 ADD SWAP1 POP PUSH2 0xE24 PUSH1 0x0 DUP4 ADD DUP5 PUSH2 0xE00 JUMP JUMPDEST SWAP3 SWAP2 POP POP JUMP JUMPDEST PUSH2 0xE33 DUP2 PUSH2 0xDC2 JUMP JUMPDEST DUP2 EQ PUSH2 0xE3E JUMPI PUSH1 0x0 DUP1 REVERT JUMPDEST POP JUMP JUMPDEST PUSH1 0x0 DUP2 CALLDATALOAD SWAP1 POP PUSH2 0xE50 DUP2 PUSH2 0xE2A JUMP JUMPDEST SWAP3 SWAP2 POP POP JUMP JUMPDEST PUSH1 0x0 PUSH1 0x20 DUP3 DUP5 SUB SLT ISZERO PUSH2 0xE6C JUMPI PUSH2 0xE6B PUSH2 0xCCD JUMP JUMPDEST JUMPDEST PUSH1 0x0 PUSH2 0xE7A DUP5 DUP3 DUP6 ADD PUSH2 0xE41 JUMP JUMPDEST SWAP2 POP POP SWAP3 SWAP2 POP POP JUMP JUMPDEST PUSH1 0x0 DUP2 PUSH1 0x0 SIGNEXTEND SWAP1 POP SWAP2 SWAP1 POP JUMP JUMPDEST PUSH2 0xE99 DUP2 PUSH2 0xE83 JUMP JUMPDEST DUP3 MSTORE POP POP JUMP JUMPDEST PUSH1 0x0 PUSH1 0x20 DUP3 ADD SWAP1 POP PUSH2 0xEB4 PUSH1 0x0 DUP4 ADD DUP5 PUSH2 0xE90 JUMP JUMPDEST SWAP3 SWAP2 POP POP JUMP JUMPDEST PUSH2 0xEC3 DUP2 PUSH2 0xD57 JUMP JUMPDEST DUP3 MSTORE POP POP JUMP JUMPDEST PUSH1 0x0 PUSH1 0x20 DUP3 ADD SWAP1 POP PUSH2 0xEDE PUSH1 0x0 DUP4 ADD DUP5 PUSH2 0xEBA JUMP JUMPDEST SWAP3 SWAP2 POP POP JUMP JUMPDEST PUSH2 0xEED DUP2 PUSH2 0xCD2 JUMP JUMPDEST DUP3 MSTORE POP POP JUMP JUMPDEST PUSH1 0x0 PUSH1 0x20 DUP3 ADD SWAP1 POP PUSH2 0xF08 PUSH1 0x0 DUP4 ADD DUP5 PUSH2 0xEE4 JUMP JUMPDEST SWAP3 SWAP2 POP POP JUMP JUMPDEST PUSH1 0x0 DUP3 DUP3 MSTORE PUSH1 0x20 DUP3 ADD SWAP1 POP SWAP3 SWAP2 POP POP JUMP JUMPDEST PUSH32 0x4E6F2076616C756520696D206265740000000000000000000000000000000000 PUSH1 0x0 DUP3 ADD MSTORE POP JUMP JUMPDEST PUSH1 0x0 PUSH2 0xF55 PUSH1 0xF DUP4 PUSH2 0xF0E JUMP JUMPDEST SWAP2 POP PUSH2 0xF60 DUP3 PUSH2 0xF1F JUMP JUMPDEST PUSH1 0x20 DUP3 ADD SWAP1 POP SWAP2 SWAP1 POP JUMP JUMPDEST PUSH1 0x0 PUSH1 0x20 DUP3 ADD SWAP1 POP DUP2 DUP2 SUB PUSH1 0x0 DUP4 ADD MSTORE PUSH2 0xF84 DUP2 PUSH2 0xF48 JUMP JUMPDEST SWAP1 POP SWAP2 SWAP1 POP JUMP JUMPDEST PUSH32 0x42657420616C726561647920706C616365640000000000000000000000000000 PUSH1 0x0 DUP3 ADD MSTORE POP JUMP JUMPDEST PUSH1 0x0 PUSH2 0xFC1 PUSH1 0x12 DUP4 PUSH2 0xF0E JUMP JUMPDEST SWAP2 POP PUSH2 0xFCC DUP3 PUSH2 0xF8B JUMP JUMPDEST PUSH1 0x20 DUP3 ADD SWAP1 POP SWAP2 SWAP1 POP JUMP JUMPDEST PUSH1 0x0 PUSH1 0x20 DUP3 ADD SWAP1 POP DUP2 DUP2 SUB PUSH1 0x0 DUP4 ADD MSTORE PUSH2 0xFF0 DUP2 PUSH2 0xFB4 JUMP JUMPDEST SWAP1 POP SWAP2 SWAP1 POP JUMP JUMPDEST PUSH32 0x50617373656420746865206C696D697400000000000000000000000000000000 PUSH1 0x0 DUP3 ADD MSTORE POP JUMP JUMPDEST PUSH1 0x0 PUSH2 0x102D PUSH1 0x10 DUP4 PUSH2 0xF0E JUMP JUMPDEST SWAP2 POP PUSH2 0x1038 DUP3 PUSH2 0xFF7 JUMP JUMPDEST PUSH1 0x20 DUP3 ADD SWAP1 POP SWAP2 SWAP1 POP JUMP JUMPDEST PUSH1 0x0 PUSH1 0x20 DUP3 ADD SWAP1 POP DUP2 DUP2 SUB PUSH1 0x0 DUP4 ADD MSTORE PUSH2 0x105C DUP2 PUSH2 0x1020 JUMP JUMPDEST SWAP1 POP SWAP2 SWAP1 POP JUMP JUMPDEST PUSH32 0x4E487B7100000000000000000000000000000000000000000000000000000000 PUSH1 0x0 MSTORE PUSH1 0x11 PUSH1 0x4 MSTORE PUSH1 0x24 PUSH1 0x0 REVERT JUMPDEST PUSH1 0x0 PUSH2 0x109D DUP3 PUSH2 0xDC2 JUMP JUMPDEST SWAP2 POP PUSH2 0x10A8 DUP4 PUSH2 0xDC2 JUMP JUMPDEST SWAP3 POP DUP3 DUP3 ADD SWAP1 POP DUP1 DUP3 GT ISZERO PUSH2 0x10C0 JUMPI PUSH2 0x10BF PUSH2 0x1063 JUMP JUMPDEST JUMPDEST SWAP3 SWAP2 POP POP JUMP JUMPDEST PUSH32 0x4E6F742066696E616C697A656400000000000000000000000000000000000000 PUSH1 0x0 DUP3 ADD MSTORE POP JUMP JUMPDEST PUSH1 0x0 PUSH2 0x10FC PUSH1 0xD DUP4 PUSH2 0xF0E JUMP JUMPDEST SWAP2 POP PUSH2 0x1107 DUP3 PUSH2 0x10C6 JUMP JUMPDEST PUSH1 0x20 DUP3 ADD SWAP1 POP SWAP2 SWAP1 POP JUMP JUMPDEST PUSH1 0x0 PUSH1 0x20 DUP3 ADD SWAP1 POP DUP2 DUP2 SUB PUSH1 0x0 DUP4 ADD MSTORE PUSH2 0x112B DUP2 PUSH2 0x10EF JUMP JUMPDEST SWAP1 POP SWAP2 SWAP1 POP JUMP JUMPDEST PUSH32 0x446964206E6F742077696E000000000000000000000000000000000000000000 PUSH1 0x0 DUP3 ADD MSTORE POP JUMP JUMPDEST PUSH1 0x0 PUSH2 0x1168 PUSH1 0xB DUP4 PUSH2 0xF0E JUMP JUMPDEST SWAP2 POP PUSH2 0x1173 DUP3 PUSH2 0x1132 JUMP JUMPDEST PUSH1 0x20 DUP3 ADD SWAP1 POP SWAP2 SWAP1 POP JUMP JUMPDEST PUSH1 0x0 PUSH1 0x20 DUP3 ADD SWAP1 POP DUP2 DUP2 SUB PUSH1 0x0 DUP4 ADD MSTORE PUSH2 0x1197 DUP2 PUSH2 0x115B JUMP JUMPDEST SWAP1 POP SWAP2 SWAP1 POP JUMP JUMPDEST PUSH32 0x416C726561647920636C61696D65640000000000000000000000000000000000 PUSH1 0x0 DUP3 ADD MSTORE POP JUMP JUMPDEST PUSH1 0x0 PUSH2 0x11D4 PUSH1 0xF DUP4 PUSH2 0xF0E JUMP JUMPDEST SWAP2 POP PUSH2 0x11DF DUP3 PUSH2 0x119E JUMP JUMPDEST PUSH1 0x20 DUP3 ADD SWAP1 POP SWAP2 SWAP1 POP JUMP JUMPDEST PUSH1 0x0 PUSH1 0x20 DUP3 ADD SWAP1 POP DUP2 DUP2 SUB PUSH1 0x0 DUP4 ADD MSTORE PUSH2 0x1203 DUP2 PUSH2 0x11C7 JUMP JUMPDEST SWAP1 POP SWAP2 SWAP1 POP JUMP JUMPDEST PUSH32 0x42657420626967676572207468616E2077696E6E696E6720706F6F6C00000000 PUSH1 0x0 DUP3 ADD MSTORE POP JUMP JUMPDEST PUSH1 0x0 PUSH2 0x1240 PUSH1 0x1C DUP4 PUSH2 0xF0E JUMP JUMPDEST SWAP2 POP PUSH2 0x124B DUP3 PUSH2 0x120A JUMP JUMPDEST PUSH1 0x20 DUP3 ADD SWAP1 POP SWAP2 SWAP1 POP JUMP JUMPDEST PUSH1 0x0 PUSH1 0x20 DUP3 ADD SWAP1 POP DUP2 DUP2 SUB PUSH1 0x0 DUP4 ADD MSTORE PUSH2 0x126F DUP2 PUSH2 0x1233 JUMP JUMPDEST SWAP1 POP SWAP2 SWAP1 POP JUMP JUMPDEST PUSH1 0x0 PUSH2 0x1281 DUP3 PUSH2 0xDC2 JUMP JUMPDEST SWAP2 POP PUSH2 0x128C DUP4 PUSH2 0xDC2 JUMP JUMPDEST SWAP3 POP DUP3 DUP3 MUL PUSH2 0x129A DUP2 PUSH2 0xDC2 JUMP JUMPDEST SWAP2 POP DUP3 DUP3 DIV DUP5 EQ DUP4 ISZERO OR PUSH2 0x12B1 JUMPI PUSH2 0x12B0 PUSH2 0x1063 JUMP JUMPDEST JUMPDEST POP SWAP3 SWAP2 POP POP JUMP JUMPDEST PUSH32 0x4E487B7100000000000000000000000000000000000000000000000000000000 PUSH1 0x0 MSTORE PUSH1 0x12 PUSH1 0x4 MSTORE PUSH1 0x24 PUSH1 0x0 REVERT JUMPDEST PUSH1 0x0 PUSH2 0x12F2 DUP3 PUSH2 0xDC2 JUMP JUMPDEST SWAP2 POP PUSH2 0x12FD DUP4 PUSH2 0xDC2 JUMP JUMPDEST SWAP3 POP DUP3 PUSH2 0x130D JUMPI PUSH2 0x130C PUSH2 0x12B8 JUMP JUMPDEST JUMPDEST DUP3 DUP3 DIV SWAP1 POP SWAP3 SWAP2 POP POP JUMP JUMPDEST PUSH32 0x4F776E61626C653A206E6577206F776E657220697320746865207A65726F2061 PUSH1 0x0 DUP3 ADD MSTORE PUSH32 0x6464726573730000000000000000000000000000000000000000000000000000 PUSH1 0x20 DUP3 ADD MSTORE POP JUMP JUMPDEST PUSH1 0x0 PUSH2 0x1374 PUSH1 0x26 DUP4 PUSH2 0xF0E JUMP JUMPDEST SWAP2 POP PUSH2 0x137F DUP3 PUSH2 0x1318 JUMP JUMPDEST PUSH1 0x40 DUP3 ADD SWAP1 POP SWAP2 SWAP1 POP JUMP JUMPDEST PUSH1 0x0 PUSH1 0x20 DUP3 ADD SWAP1 POP DUP2 DUP2 SUB PUSH1 0x0 DUP4 ADD MSTORE PUSH2 0x13A3 DUP2 PUSH2 0x1367 JUMP JUMPDEST SWAP1 POP SWAP2 SWAP1 POP JUMP JUMPDEST PUSH32 0x4F776E61626C653A2063616C6C6572206973206E6F7420746865206F776E6572 PUSH1 0x0 DUP3 ADD MSTORE POP JUMP JUMPDEST PUSH1 0x0 PUSH2 0x13E0 PUSH1 0x20 DUP4 PUSH2 0xF0E JUMP JUMPDEST SWAP2 POP PUSH2 0x13EB DUP3 PUSH2 0x13AA JUMP JUMPDEST PUSH1 0x20 DUP3 ADD SWAP1 POP SWAP2 SWAP1 POP JUMP JUMPDEST PUSH1 0x0 PUSH1 0x20 DUP3 ADD SWAP1 POP DUP2 DUP2 SUB PUSH1 0x0 DUP4 ADD MSTORE PUSH2 0x140F DUP2 PUSH2 0x13D3 JUMP JUMPDEST SWAP1 POP SWAP2 SWAP1 POP JUMP INVALID LOG2 PUSH5 0x6970667358 0x22 SLT KECCAK256 PUSH13 0xA875A641F16C902798FAA6B380 ADDMOD 0xC7 0x25 0x28 0xEF 0xD2 PUSH1 0xC9 CODECOPY PUSH28 0xE84AC28F0C75897D64736F6C63430008130033000000000000000000 "
				},
				"gasEstimates": {
					"creation": {
						"codeDepositCost": "1039200",
						"executionCost": "infinite",
						"totalCost": "infinite"
					},
					"external": {
						"bets(address)": "2938",
						"claim()": "infinite",
						"claims(address)": "2934",
						"clock()": "2474",
						"end()": "2517",
						"getClock()": "2503",
						"noPool()": "2496",
						"outcome()": "2497",
						"owner()": "2545",
						"payout(uint256)": "infinite",
						"placeBet(bool)": "infinite",
						"renounceOwnership()": "30465",
						"setClock(uint256)": "24807",
						"setOutcome(bool)": "24865",
						"stakes(address)": "2860",
						"transferOwnership(address)": "30854",
						"yesPool()": "2474"
					}
				},
				"methodIdentifiers": {
					"bets(address)": "89a78f1a",
					"claim()": "4e71d92d",
					"claims(address)": "c6788bdd",
					"clock()": "91ddadf4",
					"end()": "efbe1c1c",
					"getClock()": "eed947b1",
					"noPool()": "a3b5afb1",
					"outcome()": "27793f87",
					"owner()": "8da5cb5b",
					"payout(uint256)": "e1152343",
					"placeBet(bool)": "096a3778",
					"renounceOwnership()": "715018a6",
					"setClock(uint256)": "51536c0f",
					"setOutcome(bool)": "ee29416c",
					"stakes(address)": "16934fc4",
					"transferOwnership(address)": "f2fde38b",
					"yesPool()": "6f1d4ea4"
				}
			},
			"storageLayout": {
				"storage": [
					{
						"astId": 7,
						"contract": "contracts/TrustBet.sol:TrustBet",
						"label": "_owner",
						"offset": 0,
						"slot": "0",
						"type": "t_address"
					},
					{
						"astId": 150,
						"contract": "contracts/TrustBet.sol:TrustBet",
						"label": "outcome",
						"offset": 0,
						"slot": "1",
						"type": "t_int256"
					},
					{
						"astId": 152,
						"contract": "contracts/TrustBet.sol:TrustBet",
						"label": "end",
						"offset": 0,
						"slot": "2",
						"type": "t_uint256"
					},
					{
						"astId": 156,
						"contract": "contracts/TrustBet.sol:TrustBet",
						"label": "bets",
						"offset": 0,
						"slot": "3",
						"type": "t_mapping(t_address,t_int8)"
					},
					{
						"astId": 160,
						"contract": "contracts/TrustBet.sol:TrustBet",
						"label": "stakes",
						"offset": 0,
						"slot": "4",
						"type": "t_mapping(t_address,t_uint256)"
					},
					{
						"astId": 164,
						"contract": "contracts/TrustBet.sol:TrustBet",
						"label": "claims",
						"offset": 0,
						"slot": "5",
						"type": "t_mapping(t_address,t_bool)"
					},
					{
						"astId": 166,
						"contract": "contracts/TrustBet.sol:TrustBet",
						"label": "yesPool",
						"offset": 0,
						"slot": "6",
						"type": "t_uint256"
					},
					{
						"astId": 168,
						"contract": "contracts/TrustBet.sol:TrustBet",
						"label": "noPool",
						"offset": 0,
						"slot": "7",
						"type": "t_uint256"
					},
					{
						"astId": 170,
						"contract": "contracts/TrustBet.sol:TrustBet",
						"label": "clock",
						"offset": 0,
						"slot": "8",
						"type": "t_uint256"
					}
				],
				"types": {
					"t_address": {
						"encoding": "inplace",
						"label": "address",
						"numberOfBytes": "20"
					},
					"t_bool": {
						"encoding": "inplace",
						"label": "bool",
						"numberOfBytes": "1"
					},
					"t_int256": {
						"encoding": "inplace",
						"label": "int256",
						"numberOfBytes": "32"
					},
					"t_int8": {
						"encoding": "inplace",
						"label": "int8",
						"numberOfBytes": "1"
					},
					"t_mapping(t_address,t_bool)": {
						"encoding": "mapping",
						"key": "t_address",
						"label": "mapping(address => bool)",
						"numberOfBytes": "32",
						"value": "t_bool"
					},
					"t_mapping(t_address,t_int8)": {
						"encoding": "mapping",
						"key": "t_address",
						"label": "mapping(address => int8)",
						"numberOfBytes": "32",
						"value": "t_int8"
					},
					"t_mapping(t_address,t_uint256)": {
						"encoding": "mapping",
						"key": "t_address",
						"label": "mapping(address => uint256)",
						"numberOfBytes": "32",
						"value": "t_uint256"
					},
					"t_uint256": {
						"encoding": "inplace",
						"label": "uint256",
						"numberOfBytes": "32"
					}
				}
			},
			"userdoc": {
				"kind": "user",
				"methods": {},
				"version": 1
			}
		}
	}
}