{
	"contracts/PriceBet.sol": {
		"PriceBet": {
			"abi": [
				{
					"inputs": [
						{
							"internalType": "bytes32",
							"name": "_symbol",
							"type": "bytes32"
						},
						{
							"internalType": "uint256",
							"name": "_expected",
							"type": "uint256"
						},
						{
							"internalType": "uint256",
							"name": "_end",
							"type": "uint256"
						}
					],
					"stateMutability": "nonpayable",
					"type": "constructor"
				},
				{
					"inputs": [],
					"name": "CalldataMustHaveValidPayload",
					"type": "error"
				},
				{
					"inputs": [],
					"name": "CalldataOverOrUnderFlow",
					"type": "error"
				},
				{
					"inputs": [],
					"name": "CanNotPickMedianOfEmptyArray",
					"type": "error"
				},
				{
					"inputs": [],
					"name": "DataPackageTimestampMustNotBeZero",
					"type": "error"
				},
				{
					"inputs": [],
					"name": "DataPackageTimestampsMustBeEqual",
					"type": "error"
				},
				{
					"inputs": [],
					"name": "DataTimestampCannotBeZero",
					"type": "error"
				},
				{
					"inputs": [],
					"name": "EachSignerMustProvideTheSameValue",
					"type": "error"
				},
				{
					"inputs": [],
					"name": "EmptyCalldataPointersArr",
					"type": "error"
				},
				{
					"inputs": [],
					"name": "GetDataServiceIdNotImplemented",
					"type": "error"
				},
				{
					"inputs": [],
					"name": "IncorrectUnsignedMetadataSize",
					"type": "error"
				},
				{
					"inputs": [
						{
							"internalType": "uint256",
							"name": "receivedSignersCount",
							"type": "uint256"
						},
						{
							"internalType": "uint256",
							"name": "requiredSignersCount",
							"type": "uint256"
						}
					],
					"name": "InsufficientNumberOfUniqueSigners",
					"type": "error"
				},
				{
					"inputs": [],
					"name": "InvalidCalldataPointer",
					"type": "error"
				},
				{
					"inputs": [],
					"name": "RedstonePayloadMustHaveAtLeastOneDataPackage",
					"type": "error"
				},
				{
					"inputs": [
						{
							"internalType": "address",
							"name": "receivedSigner",
							"type": "address"
						}
					],
					"name": "SignerNotAuthorised",
					"type": "error"
				},
				{
					"inputs": [],
					"name": "TimestampsMustBeEqual",
					"type": "error"
				},
				{
					"inputs": [
						{
							"internalType": "uint256",
							"name": "valueByteSize",
							"type": "uint256"
						}
					],
					"name": "TooLargeValueByteSize",
					"type": "error"
				},
				{
					"anonymous": false,
					"inputs": [
						{
							"indexed": true,
							"internalType": "address",
							"name": "previousOwner",
							"type": "address"
						},
						{
							"indexed": true,
							"internalType": "address",
							"name": "newOwner",
							"type": "address"
						}
					],
					"name": "OwnershipTransferred",
					"type": "event"
				},
				{
					"inputs": [
						{
							"internalType": "uint256[]",
							"name": "values",
							"type": "uint256[]"
						}
					],
					"name": "aggregateValues",
					"outputs": [
						{
							"internalType": "uint256",
							"name": "",
							"type": "uint256"
						}
					],
					"stateMutability": "view",
					"type": "function"
				},
				{
					"inputs": [
						{
							"internalType": "address",
							"name": "",
							"type": "address"
						}
					],
					"name": "bets",
					"outputs": [
						{
							"internalType": "int8",
							"name": "",
							"type": "int8"
						}
					],
					"stateMutability": "view",
					"type": "function"
				},
				{
					"inputs": [],
					"name": "claim",
					"outputs": [],
					"stateMutability": "nonpayable",
					"type": "function"
				},
				{
					"inputs": [
						{
							"internalType": "address",
							"name": "",
							"type": "address"
						}
					],
					"name": "claims",
					"outputs": [
						{
							"internalType": "bool",
							"name": "",
							"type": "bool"
						}
					],
					"stateMutability": "view",
					"type": "function"
				},
				{
					"inputs": [],
					"name": "clock",
					"outputs": [
						{
							"internalType": "uint256",
							"name": "",
							"type": "uint256"
						}
					],
					"stateMutability": "view",
					"type": "function"
				},
				{
					"inputs": [],
					"name": "end",
					"outputs": [
						{
							"internalType": "uint256",
							"name": "",
							"type": "uint256"
						}
					],
					"stateMutability": "view",
					"type": "function"
				},
				{
					"inputs": [],
					"name": "endLimit",
					"outputs": [
						{
							"internalType": "uint256",
							"name": "",
							"type": "uint256"
						}
					],
					"stateMutability": "view",
					"type": "function"
				},
				{
					"inputs": [],
					"name": "expected",
					"outputs": [
						{
							"internalType": "uint256",
							"name": "",
							"type": "uint256"
						}
					],
					"stateMutability": "view",
					"type": "function"
				},
				{
					"inputs": [],
					"name": "extractTimestampsAndAssertAllAreEqual",
					"outputs": [
						{
							"internalType": "uint256",
							"name": "extractedTimestamp",
							"type": "uint256"
						}
					],
					"stateMutability": "pure",
					"type": "function"
				},
				{
					"inputs": [],
					"name": "finalize",
					"outputs": [],
					"stateMutability": "nonpayable",
					"type": "function"
				},
				{
					"inputs": [
						{
							"internalType": "address",
							"name": "signerAddress",
							"type": "address"
						}
					],
					"name": "getAuthorisedSignerIndex",
					"outputs": [
						{
							"internalType": "uint8",
							"name": "",
							"type": "uint8"
						}
					],
					"stateMutability": "view",
					"type": "function"
				},
				{
					"inputs": [],
					"name": "getClock",
					"outputs": [
						{
							"internalType": "uint256",
							"name": "",
							"type": "uint256"
						}
					],
					"stateMutability": "view",
					"type": "function"
				},
				{
					"inputs": [],
					"name": "getDataServiceId",
					"outputs": [
						{
							"internalType": "string",
							"name": "",
							"type": "string"
						}
					],
					"stateMutability": "view",
					"type": "function"
				},
				{
					"inputs": [],
					"name": "getUniqueSignersThreshold",
					"outputs": [
						{
							"internalType": "uint8",
							"name": "",
							"type": "uint8"
						}
					],
					"stateMutability": "view",
					"type": "function"
				},
				{
					"inputs": [],
					"name": "noPool",
					"outputs": [
						{
							"internalType": "uint256",
							"name": "",
							"type": "uint256"
						}
					],
					"stateMutability": "view",
					"type": "function"
				},
				{
					"inputs": [],
					"name": "outcome",
					"outputs": [
						{
							"internalType": "int256",
							"name": "",
							"type": "int256"
						}
					],
					"stateMutability": "view",
					"type": "function"
				},
				{
					"inputs": [],
					"name": "owner",
					"outputs": [
						{
							"internalType": "address",
							"name": "",
							"type": "address"
						}
					],
					"stateMutability": "view",
					"type": "function"
				},
				{
					"inputs": [
						{
							"internalType": "uint256",
							"name": "bet",
							"type": "uint256"
						}
					],
					"name": "payout",
					"outputs": [
						{
							"internalType": "uint256",
							"name": "",
							"type": "uint256"
						}
					],
					"stateMutability": "view",
					"type": "function"
				},
				{
					"inputs": [
						{
							"internalType": "bool",
							"name": "_outcome",
							"type": "bool"
						}
					],
					"name": "placeBet",
					"outputs": [],
					"stateMutability": "payable",
					"type": "function"
				},
				{
					"inputs": [],
					"name": "renounceOwnership",
					"outputs": [],
					"stateMutability": "nonpayable",
					"type": "function"
				},
				{
					"inputs": [
						{
							"internalType": "uint256",
							"name": "timestamp",
							"type": "uint256"
						}
					],
					"name": "setClock",
					"outputs": [],
					"stateMutability": "nonpayable",
					"type": "function"
				},
				{
					"inputs": [
						{
							"internalType": "address",
							"name": "",
							"type": "address"
						}
					],
					"name": "stakes",
					"outputs": [
						{
							"internalType": "uint256",
							"name": "",
							"type": "uint256"
						}
					],
					"stateMutability": "view",
					"type": "function"
				},
				{
					"inputs": [
						{
							"internalType": "address",
							"name": "newOwner",
							"type": "address"
						}
					],
					"name": "transferOwnership",
					"outputs": [],
					"stateMutability": "nonpayable",
					"type": "function"
				},
				{
					"inputs": [
						{
							"internalType": "uint256",
							"name": "receivedTimestampMilliseconds",
							"type": "uint256"
						}
					],
					"name": "validateTimestamp",
					"outputs": [],
					"stateMutability": "view",
					"type": "function"
				},
				{
					"inputs": [],
					"name": "yesPool",
					"outputs": [
						{
							"internalType": "uint256",
							"name": "",
							"type": "uint256"
						}
					],
					"stateMutability": "view",
					"type": "function"
				}
			],
			"devdoc": {
				"kind": "dev",
				"methods": {
					"aggregateValues(uint256[])": {
						"details": "This function may be overridden by the child consumer contract. It should aggregate values from different signers to a single uint value. By default, it calculates the median value",
						"params": {
							"values": "An array of uint256 values from different signers"
						},
						"returns": {
							"_0": "Result of the aggregation in the form of a single number"
						}
					},
					"getDataServiceId()": {
						"details": "This function must be implemented by the child consumer contract. It should return dataServiceId which DataServiceWrapper will use if not provided explicitly . If not overridden, value will always have to be provided explicitly in DataServiceWrapper.",
						"returns": {
							"_0": "dataServiceId being consumed by contract"
						}
					},
					"getUniqueSignersThreshold()": {
						"details": "This function should be overridden by the child consumer contract.",
						"returns": {
							"_0": "The minimum required value of unique authorised signers"
						}
					},
					"owner()": {
						"details": "Returns the address of the current owner."
					},
					"renounceOwnership()": {
						"details": "Leaves the contract without owner. It will not be possible to call `onlyOwner` functions. Can only be called by the current owner. NOTE: Renouncing ownership will leave the contract without an owner, thereby disabling any functionality that is only available to the owner."
					},
					"transferOwnership(address)": {
						"details": "Transfers ownership of the contract to a new account (`newOwner`). Can only be called by the current owner."
					},
					"validateTimestamp(uint256)": {
						"details": "This function may be overridden by the child consumer contract. It should validate the timestamp against the current time (block.timestamp) It should revert with a helpful message if the timestamp is not valid",
						"params": {
							"receivedTimestampMilliseconds": "Timestamp extracted from calldata"
						}
					}
				},
				"version": 1
			},
			"evm": {
				"assembly": "    /* \"contracts/PriceBet.sol\":169:943  contract PriceBet is MainDemoConsumerBase, Bet {... */\n  mstore(0x40, 0x80)\n    /* \"contracts/Bet.sol\":174:175  0 */\n  0x00\n    /* \"contracts/Bet.sol\":150:175  int256 public outcome = 0 */\n  0x01\n  sstore\n    /* \"contracts/PriceBet.sol\":301:476  constructor(... */\n  callvalue\n  dup1\n  iszero\n  tag_1\n  jumpi\n  0x00\n  dup1\n  revert\ntag_1:\n  pop\n  mload(0x40)\n  sub(codesize, bytecodeSize)\n  dup1\n  bytecodeSize\n  dup4\n  codecopy\n  dup2\n  dup2\n  add\n  0x40\n  mstore\n  dup2\n  add\n  swap1\n  tag_2\n  swap2\n  swap1\n  tag_3\n  jump\t// in\ntag_2:\n    /* \"@openzeppelin/contracts/access/Ownable.sol\":936:968  _transferOwnership(_msgSender()) */\n  tag_7\n    /* \"@openzeppelin/contracts/access/Ownable.sol\":955:967  _msgSender() */\n  tag_8\n    /* \"@openzeppelin/contracts/access/Ownable.sol\":955:965  _msgSender */\n  shl(0x20, tag_9)\n    /* \"@openzeppelin/contracts/access/Ownable.sol\":955:967  _msgSender() */\n  0x20\n  shr\n  jump\t// in\ntag_8:\n    /* \"@openzeppelin/contracts/access/Ownable.sol\":936:954  _transferOwnership */\n  shl(0x20, tag_10)\n    /* \"@openzeppelin/contracts/access/Ownable.sol\":936:968  _transferOwnership(_msgSender()) */\n  0x20\n  shr\n  jump\t// in\ntag_7:\n    /* \"contracts/PriceBet.sol\":412:419  _symbol */\n  dup3\n    /* \"contracts/PriceBet.sol\":403:409  symbol */\n  0x09\n    /* \"contracts/PriceBet.sol\":403:419  symbol = _symbol */\n  dup2\n  swap1\n  sstore\n  pop\n    /* \"contracts/PriceBet.sol\":440:449  _expected */\n  dup2\n    /* \"contracts/PriceBet.sol\":429:437  expected */\n  0x0a\n    /* \"contracts/PriceBet.sol\":429:449  expected = _expected */\n  dup2\n  swap1\n  sstore\n  pop\n    /* \"contracts/PriceBet.sol\":465:469  _end */\n  dup1\n    /* \"contracts/PriceBet.sol\":459:462  end */\n  0x02\n    /* \"contracts/PriceBet.sol\":459:469  end = _end */\n  dup2\n  swap1\n  sstore\n  pop\n    /* \"contracts/PriceBet.sol\":301:476  constructor(... */\n  pop\n  pop\n  pop\n    /* \"contracts/PriceBet.sol\":169:943  contract PriceBet is MainDemoConsumerBase, Bet {... */\n  jump(tag_12)\n    /* \"@openzeppelin/contracts/utils/Context.sol\":655:751  function _msgSender() internal view virtual returns (address) {... */\ntag_9:\n    /* \"@openzeppelin/contracts/utils/Context.sol\":708:715  address */\n  0x00\n    /* \"@openzeppelin/contracts/utils/Context.sol\":734:744  msg.sender */\n  caller\n    /* \"@openzeppelin/contracts/utils/Context.sol\":727:744  return msg.sender */\n  swap1\n  pop\n    /* \"@openzeppelin/contracts/utils/Context.sol\":655:751  function _msgSender() internal view virtual returns (address) {... */\n  swap1\n  jump\t// out\n    /* \"@openzeppelin/contracts/access/Ownable.sol\":2426:2613  function _transferOwnership(address newOwner) internal virtual {... */\ntag_10:\n    /* \"@openzeppelin/contracts/access/Ownable.sol\":2499:2515  address oldOwner */\n  0x00\n    /* \"@openzeppelin/contracts/access/Ownable.sol\":2518:2524  _owner */\n  dup1\n  0x00\n  swap1\n  sload\n  swap1\n  0x0100\n  exp\n  swap1\n  div\n  0xffffffffffffffffffffffffffffffffffffffff\n  and\n    /* \"@openzeppelin/contracts/access/Ownable.sol\":2499:2524  address oldOwner = _owner */\n  swap1\n  pop\n    /* \"@openzeppelin/contracts/access/Ownable.sol\":2543:2551  newOwner */\n  dup2\n    /* \"@openzeppelin/contracts/access/Ownable.sol\":2534:2540  _owner */\n  0x00\n  dup1\n    /* \"@openzeppelin/contracts/access/Ownable.sol\":2534:2551  _owner = newOwner */\n  0x0100\n  exp\n  dup2\n  sload\n  dup2\n  0xffffffffffffffffffffffffffffffffffffffff\n  mul\n  not\n  and\n  swap1\n  dup4\n  0xffffffffffffffffffffffffffffffffffffffff\n  and\n  mul\n  or\n  swap1\n  sstore\n  pop\n    /* \"@openzeppelin/contracts/access/Ownable.sol\":2597:2605  newOwner */\n  dup2\n    /* \"@openzeppelin/contracts/access/Ownable.sol\":2566:2606  OwnershipTransferred(oldOwner, newOwner) */\n  0xffffffffffffffffffffffffffffffffffffffff\n  and\n    /* \"@openzeppelin/contracts/access/Ownable.sol\":2587:2595  oldOwner */\n  dup2\n    /* \"@openzeppelin/contracts/access/Ownable.sol\":2566:2606  OwnershipTransferred(oldOwner, newOwner) */\n  0xffffffffffffffffffffffffffffffffffffffff\n  and\n  0x8be0079c531659141344cd1fd0a4f28419497f9722a3daafe3b4186f6b6457e0\n  mload(0x40)\n  mload(0x40)\n  dup1\n  swap2\n  sub\n  swap1\n  log3\n    /* \"@openzeppelin/contracts/access/Ownable.sol\":2489:2613  {... */\n  pop\n    /* \"@openzeppelin/contracts/access/Ownable.sol\":2426:2613  function _transferOwnership(address newOwner) internal virtual {... */\n  pop\n  jump\t// out\n    /* \"#utility.yul\":88:205   */\ntag_16:\n    /* \"#utility.yul\":197:198   */\n  0x00\n    /* \"#utility.yul\":194:195   */\n  dup1\n    /* \"#utility.yul\":187:199   */\n  revert\n    /* \"#utility.yul\":334:411   */\ntag_18:\n    /* \"#utility.yul\":371:378   */\n  0x00\n    /* \"#utility.yul\":400:405   */\n  dup2\n    /* \"#utility.yul\":389:405   */\n  swap1\n  pop\n    /* \"#utility.yul\":334:411   */\n  swap2\n  swap1\n  pop\n  jump\t// out\n    /* \"#utility.yul\":417:539   */\ntag_19:\n    /* \"#utility.yul\":490:514   */\n  tag_30\n    /* \"#utility.yul\":508:513   */\n  dup2\n    /* \"#utility.yul\":490:514   */\n  tag_18\n  jump\t// in\ntag_30:\n    /* \"#utility.yul\":483:488   */\n  dup2\n    /* \"#utility.yul\":480:515   */\n  eq\n    /* \"#utility.yul\":470:533   */\n  tag_31\n  jumpi\n    /* \"#utility.yul\":529:530   */\n  0x00\n    /* \"#utility.yul\":526:527   */\n  dup1\n    /* \"#utility.yul\":519:531   */\n  revert\n    /* \"#utility.yul\":470:533   */\ntag_31:\n    /* \"#utility.yul\":417:539   */\n  pop\n  jump\t// out\n    /* \"#utility.yul\":545:688   */\ntag_20:\n    /* \"#utility.yul\":602:607   */\n  0x00\n    /* \"#utility.yul\":633:639   */\n  dup2\n    /* \"#utility.yul\":627:640   */\n  mload\n    /* \"#utility.yul\":618:640   */\n  swap1\n  pop\n    /* \"#utility.yul\":649:682   */\n  tag_33\n    /* \"#utility.yul\":676:681   */\n  dup2\n    /* \"#utility.yul\":649:682   */\n  tag_19\n  jump\t// in\ntag_33:\n    /* \"#utility.yul\":545:688   */\n  swap3\n  swap2\n  pop\n  pop\n  jump\t// out\n    /* \"#utility.yul\":694:771   */\ntag_21:\n    /* \"#utility.yul\":731:738   */\n  0x00\n    /* \"#utility.yul\":760:765   */\n  dup2\n    /* \"#utility.yul\":749:765   */\n  swap1\n  pop\n    /* \"#utility.yul\":694:771   */\n  swap2\n  swap1\n  pop\n  jump\t// out\n    /* \"#utility.yul\":777:899   */\ntag_22:\n    /* \"#utility.yul\":850:874   */\n  tag_36\n    /* \"#utility.yul\":868:873   */\n  dup2\n    /* \"#utility.yul\":850:874   */\n  tag_21\n  jump\t// in\ntag_36:\n    /* \"#utility.yul\":843:848   */\n  dup2\n    /* \"#utility.yul\":840:875   */\n  eq\n    /* \"#utility.yul\":830:893   */\n  tag_37\n  jumpi\n    /* \"#utility.yul\":889:890   */\n  0x00\n    /* \"#utility.yul\":886:887   */\n  dup1\n    /* \"#utility.yul\":879:891   */\n  revert\n    /* \"#utility.yul\":830:893   */\ntag_37:\n    /* \"#utility.yul\":777:899   */\n  pop\n  jump\t// out\n    /* \"#utility.yul\":905:1048   */\ntag_23:\n    /* \"#utility.yul\":962:967   */\n  0x00\n    /* \"#utility.yul\":993:999   */\n  dup2\n    /* \"#utility.yul\":987:1000   */\n  mload\n    /* \"#utility.yul\":978:1000   */\n  swap1\n  pop\n    /* \"#utility.yul\":1009:1042   */\n  tag_39\n    /* \"#utility.yul\":1036:1041   */\n  dup2\n    /* \"#utility.yul\":1009:1042   */\n  tag_22\n  jump\t// in\ntag_39:\n    /* \"#utility.yul\":905:1048   */\n  swap3\n  swap2\n  pop\n  pop\n  jump\t// out\n    /* \"#utility.yul\":1054:1717   */\ntag_3:\n    /* \"#utility.yul\":1142:1148   */\n  0x00\n    /* \"#utility.yul\":1150:1156   */\n  dup1\n    /* \"#utility.yul\":1158:1164   */\n  0x00\n    /* \"#utility.yul\":1207:1209   */\n  0x60\n    /* \"#utility.yul\":1195:1204   */\n  dup5\n    /* \"#utility.yul\":1186:1193   */\n  dup7\n    /* \"#utility.yul\":1182:1205   */\n  sub\n    /* \"#utility.yul\":1178:1210   */\n  slt\n    /* \"#utility.yul\":1175:1294   */\n  iszero\n  tag_41\n  jumpi\n    /* \"#utility.yul\":1213:1292   */\n  tag_42\n  tag_16\n  jump\t// in\ntag_42:\n    /* \"#utility.yul\":1175:1294   */\ntag_41:\n    /* \"#utility.yul\":1333:1334   */\n  0x00\n    /* \"#utility.yul\":1358:1422   */\n  tag_43\n    /* \"#utility.yul\":1414:1421   */\n  dup7\n    /* \"#utility.yul\":1405:1411   */\n  dup3\n    /* \"#utility.yul\":1394:1403   */\n  dup8\n    /* \"#utility.yul\":1390:1412   */\n  add\n    /* \"#utility.yul\":1358:1422   */\n  tag_20\n  jump\t// in\ntag_43:\n    /* \"#utility.yul\":1348:1422   */\n  swap4\n  pop\n    /* \"#utility.yul\":1304:1432   */\n  pop\n    /* \"#utility.yul\":1471:1473   */\n  0x20\n    /* \"#utility.yul\":1497:1561   */\n  tag_44\n    /* \"#utility.yul\":1553:1560   */\n  dup7\n    /* \"#utility.yul\":1544:1550   */\n  dup3\n    /* \"#utility.yul\":1533:1542   */\n  dup8\n    /* \"#utility.yul\":1529:1551   */\n  add\n    /* \"#utility.yul\":1497:1561   */\n  tag_23\n  jump\t// in\ntag_44:\n    /* \"#utility.yul\":1487:1561   */\n  swap3\n  pop\n    /* \"#utility.yul\":1442:1571   */\n  pop\n    /* \"#utility.yul\":1610:1612   */\n  0x40\n    /* \"#utility.yul\":1636:1700   */\n  tag_45\n    /* \"#utility.yul\":1692:1699   */\n  dup7\n    /* \"#utility.yul\":1683:1689   */\n  dup3\n    /* \"#utility.yul\":1672:1681   */\n  dup8\n    /* \"#utility.yul\":1668:1690   */\n  add\n    /* \"#utility.yul\":1636:1700   */\n  tag_23\n  jump\t// in\ntag_45:\n    /* \"#utility.yul\":1626:1700   */\n  swap2\n  pop\n    /* \"#utility.yul\":1581:1710   */\n  pop\n    /* \"#utility.yul\":1054:1717   */\n  swap3\n  pop\n  swap3\n  pop\n  swap3\n  jump\t// out\n    /* \"contracts/PriceBet.sol\":169:943  contract PriceBet is MainDemoConsumerBase, Bet {... */\ntag_12:\n  dataSize(sub_0)\n  dup1\n  dataOffset(sub_0)\n  0x00\n  codecopy\n  0x00\n  return\nstop\n\nsub_0: assembly {\n        /* \"contracts/PriceBet.sol\":169:943  contract PriceBet is MainDemoConsumerBase, Bet {... */\n      mstore(0x40, 0x80)\n      jumpi(tag_1, lt(calldatasize, 0x04))\n      shr(0xe0, calldataload(0x00))\n      dup1\n      0x89a78f1a\n      gt\n      tag_27\n      jumpi\n      dup1\n      0xc6788bdd\n      gt\n      tag_28\n      jumpi\n      dup1\n      0xefbe1c1c\n      gt\n      tag_29\n      jumpi\n      dup1\n      0xefbe1c1c\n      eq\n      tag_23\n      jumpi\n      dup1\n      0xf2fde38b\n      eq\n      tag_24\n      jumpi\n      dup1\n      0xf50b2efe\n      eq\n      tag_25\n      jumpi\n      dup1\n      0xf90c4924\n      eq\n      tag_26\n      jumpi\n      jump(tag_1)\n    tag_29:\n      dup1\n      0xc6788bdd\n      eq\n      tag_20\n      jumpi\n      dup1\n      0xe1152343\n      eq\n      tag_21\n      jumpi\n      dup1\n      0xeed947b1\n      eq\n      tag_22\n      jumpi\n      jump(tag_1)\n    tag_28:\n      dup1\n      0x89a78f1a\n      eq\n      tag_14\n      jumpi\n      dup1\n      0x8da5cb5b\n      eq\n      tag_15\n      jumpi\n      dup1\n      0x91ddadf4\n      eq\n      tag_16\n      jumpi\n      dup1\n      0xa3b5afb1\n      eq\n      tag_17\n      jumpi\n      dup1\n      0xb24ebfcc\n      eq\n      tag_18\n      jumpi\n      dup1\n      0xc274583a\n      eq\n      tag_19\n      jumpi\n      jump(tag_1)\n    tag_27:\n      dup1\n      0x4e71d92d\n      gt\n      tag_30\n      jumpi\n      dup1\n      0x4e71d92d\n      eq\n      tag_8\n      jumpi\n      dup1\n      0x51536c0f\n      eq\n      tag_9\n      jumpi\n      dup1\n      0x55a547d5\n      eq\n      tag_10\n      jumpi\n      dup1\n      0x6f1d4ea4\n      eq\n      tag_11\n      jumpi\n      dup1\n      0x715018a6\n      eq\n      tag_12\n      jumpi\n      dup1\n      0x7a1fc2e2\n      eq\n      tag_13\n      jumpi\n      jump(tag_1)\n    tag_30:\n      dup1\n      0x096a3778\n      eq\n      tag_2\n      jumpi\n      dup1\n      0x16934fc4\n      eq\n      tag_3\n      jumpi\n      dup1\n      0x1ce62383\n      eq\n      tag_4\n      jumpi\n      dup1\n      0x27793f87\n      eq\n      tag_5\n      jumpi\n      dup1\n      0x3ce142f5\n      eq\n      tag_6\n      jumpi\n      dup1\n      0x4bb278f3\n      eq\n      tag_7\n      jumpi\n    tag_1:\n      0x00\n      dup1\n      revert\n        /* \"contracts/Bet.sol\":458:915  function placeBet(bool _outcome) public payable {... */\n    tag_2:\n      tag_31\n      0x04\n      dup1\n      calldatasize\n      sub\n      dup2\n      add\n      swap1\n      tag_32\n      swap2\n      swap1\n      tag_33\n      jump\t// in\n    tag_32:\n      tag_34\n      jump\t// in\n    tag_31:\n      stop\n        /* \"contracts/Bet.sol\":248:290  mapping (address => uint256) public stakes */\n    tag_3:\n      callvalue\n      dup1\n      iszero\n      tag_35\n      jumpi\n      0x00\n      dup1\n      revert\n    tag_35:\n      pop\n      tag_36\n      0x04\n      dup1\n      calldatasize\n      sub\n      dup2\n      add\n      swap1\n      tag_37\n      swap2\n      swap1\n      tag_38\n      jump\t// in\n    tag_37:\n      tag_39\n      jump\t// in\n    tag_36:\n      mload(0x40)\n      tag_40\n      swap2\n      swap1\n      tag_41\n      jump\t// in\n    tag_40:\n      mload(0x40)\n      dup1\n      swap2\n      sub\n      swap1\n      return\n        /* \"contracts/PriceBet.sol\":242:265  uint256 public expected */\n    tag_4:\n      callvalue\n      dup1\n      iszero\n      tag_42\n      jumpi\n      0x00\n      dup1\n      revert\n    tag_42:\n      pop\n      tag_43\n      tag_44\n      jump\t// in\n    tag_43:\n      mload(0x40)\n      tag_45\n      swap2\n      swap1\n      tag_41\n      jump\t// in\n    tag_45:\n      mload(0x40)\n      dup1\n      swap2\n      sub\n      swap1\n      return\n        /* \"contracts/Bet.sol\":150:175  int256 public outcome = 0 */\n    tag_5:\n      callvalue\n      dup1\n      iszero\n      tag_46\n      jumpi\n      0x00\n      dup1\n      revert\n    tag_46:\n      pop\n      tag_47\n      tag_48\n      jump\t// in\n    tag_47:\n      mload(0x40)\n      tag_49\n      swap2\n      swap1\n      tag_50\n      jump\t// in\n    tag_49:\n      mload(0x40)\n      dup1\n      swap2\n      sub\n      swap1\n      return\n        /* \"@redstone-finance/evm-connector/contracts/data-services/MainDemoConsumerBase.sol\":407:691  function getAuthorisedSignerIndex(address signerAddress)... */\n    tag_6:\n      callvalue\n      dup1\n      iszero\n      tag_51\n      jumpi\n      0x00\n      dup1\n      revert\n    tag_51:\n      pop\n      tag_52\n      0x04\n      dup1\n      calldatasize\n      sub\n      dup2\n      add\n      swap1\n      tag_53\n      swap2\n      swap1\n      tag_38\n      jump\t// in\n    tag_53:\n      tag_54\n      jump\t// in\n    tag_52:\n      mload(0x40)\n      tag_55\n      swap2\n      swap1\n      tag_56\n      jump\t// in\n    tag_55:\n      mload(0x40)\n      dup1\n      swap2\n      sub\n      swap1\n      return\n        /* \"contracts/PriceBet.sol\":590:941  function finalize() external {... */\n    tag_7:\n      callvalue\n      dup1\n      iszero\n      tag_57\n      jumpi\n      0x00\n      dup1\n      revert\n    tag_57:\n      pop\n      tag_58\n      tag_59\n      jump\t// in\n    tag_58:\n      stop\n        /* \"contracts/Bet.sol\":921:1307  function claim() public {... */\n    tag_8:\n      callvalue\n      dup1\n      iszero\n      tag_60\n      jumpi\n      0x00\n      dup1\n      revert\n    tag_60:\n      pop\n      tag_61\n      tag_62\n      jump\t// in\n    tag_61:\n      stop\n        /* \"contracts/Bet.sol\":1711:1799  function setClock(uint256 timestamp) public onlyOwner {... */\n    tag_9:\n      callvalue\n      dup1\n      iszero\n      tag_63\n      jumpi\n      0x00\n      dup1\n      revert\n    tag_63:\n      pop\n      tag_64\n      0x04\n      dup1\n      calldatasize\n      sub\n      dup2\n      add\n      swap1\n      tag_65\n      swap2\n      swap1\n      tag_66\n      jump\t// in\n    tag_65:\n      tag_67\n      jump\t// in\n    tag_64:\n      stop\n        /* \"@redstone-finance/evm-connector/contracts/core/CalldataExtractor.sol\":599:2010  function extractTimestampsAndAssertAllAreEqual() public pure returns (uint256 extractedTimestamp) {... */\n    tag_10:\n      callvalue\n      dup1\n      iszero\n      tag_68\n      jumpi\n      0x00\n      dup1\n      revert\n    tag_68:\n      pop\n      tag_69\n      tag_70\n      jump\t// in\n    tag_69:\n      mload(0x40)\n      tag_71\n      swap2\n      swap1\n      tag_41\n      jump\t// in\n    tag_71:\n      mload(0x40)\n      dup1\n      swap2\n      sub\n      swap1\n      return\n        /* \"contracts/Bet.sol\":341:363  uint256 public yesPool */\n    tag_11:\n      callvalue\n      dup1\n      iszero\n      tag_72\n      jumpi\n      0x00\n      dup1\n      revert\n    tag_72:\n      pop\n      tag_73\n      tag_74\n      jump\t// in\n    tag_73:\n      mload(0x40)\n      tag_75\n      swap2\n      swap1\n      tag_41\n      jump\t// in\n    tag_75:\n      mload(0x40)\n      dup1\n      swap2\n      sub\n      swap1\n      return\n        /* \"@openzeppelin/contracts/access/Ownable.sol\":1824:1925  function renounceOwnership() public virtual onlyOwner {... */\n    tag_12:\n      callvalue\n      dup1\n      iszero\n      tag_76\n      jumpi\n      0x00\n      dup1\n      revert\n    tag_76:\n      pop\n      tag_77\n      tag_78\n      jump\t// in\n    tag_77:\n      stop\n        /* \"contracts/PriceBet.sol\":271:294  uint256 public endLimit */\n    tag_13:\n      callvalue\n      dup1\n      iszero\n      tag_79\n      jumpi\n      0x00\n      dup1\n      revert\n    tag_79:\n      pop\n      tag_80\n      tag_81\n      jump\t// in\n    tag_80:\n      mload(0x40)\n      tag_82\n      swap2\n      swap1\n      tag_41\n      jump\t// in\n    tag_82:\n      mload(0x40)\n      dup1\n      swap2\n      sub\n      swap1\n      return\n        /* \"contracts/Bet.sol\":205:242  mapping (address => int8) public bets */\n    tag_14:\n      callvalue\n      dup1\n      iszero\n      tag_83\n      jumpi\n      0x00\n      dup1\n      revert\n    tag_83:\n      pop\n      tag_84\n      0x04\n      dup1\n      calldatasize\n      sub\n      dup2\n      add\n      swap1\n      tag_85\n      swap2\n      swap1\n      tag_38\n      jump\t// in\n    tag_85:\n      tag_86\n      jump\t// in\n    tag_84:\n      mload(0x40)\n      tag_87\n      swap2\n      swap1\n      tag_88\n      jump\t// in\n    tag_87:\n      mload(0x40)\n      dup1\n      swap2\n      sub\n      swap1\n      return\n        /* \"@openzeppelin/contracts/access/Ownable.sol\":1201:1286  function owner() public view virtual returns (address) {... */\n    tag_15:\n      callvalue\n      dup1\n      iszero\n      tag_89\n      jumpi\n      0x00\n      dup1\n      revert\n    tag_89:\n      pop\n      tag_90\n      tag_91\n      jump\t// in\n    tag_90:\n      mload(0x40)\n      tag_92\n      swap2\n      swap1\n      tag_93\n      jump\t// in\n    tag_92:\n      mload(0x40)\n      dup1\n      swap2\n      sub\n      swap1\n      return\n        /* \"contracts/Bet.sol\":431:451  uint256 public clock */\n    tag_16:\n      callvalue\n      dup1\n      iszero\n      tag_94\n      jumpi\n      0x00\n      dup1\n      revert\n    tag_94:\n      pop\n      tag_95\n      tag_96\n      jump\t// in\n    tag_95:\n      mload(0x40)\n      tag_97\n      swap2\n      swap1\n      tag_41\n      jump\t// in\n    tag_97:\n      mload(0x40)\n      dup1\n      swap2\n      sub\n      swap1\n      return\n        /* \"contracts/Bet.sol\":369:390  uint256 public noPool */\n    tag_17:\n      callvalue\n      dup1\n      iszero\n      tag_98\n      jumpi\n      0x00\n      dup1\n      revert\n    tag_98:\n      pop\n      tag_99\n      tag_100\n      jump\t// in\n    tag_99:\n      mload(0x40)\n      tag_101\n      swap2\n      swap1\n      tag_41\n      jump\t// in\n    tag_101:\n      mload(0x40)\n      dup1\n      swap2\n      sub\n      swap1\n      return\n        /* \"@redstone-finance/evm-connector/contracts/core/RedstoneConsumerBase.sol\":2697:2846  function aggregateValues(uint256[] memory values) public view virtual returns (uint256) {... */\n    tag_18:\n      callvalue\n      dup1\n      iszero\n      tag_102\n      jumpi\n      0x00\n      dup1\n      revert\n    tag_102:\n      pop\n      tag_103\n      0x04\n      dup1\n      calldatasize\n      sub\n      dup2\n      add\n      swap1\n      tag_104\n      swap2\n      swap1\n      tag_105\n      jump\t// in\n    tag_104:\n      tag_106\n      jump\t// in\n    tag_103:\n      mload(0x40)\n      tag_107\n      swap2\n      swap1\n      tag_41\n      jump\t// in\n    tag_107:\n      mload(0x40)\n      dup1\n      swap2\n      sub\n      swap1\n      return\n        /* \"@redstone-finance/evm-connector/contracts/data-services/MainDemoConsumerBase.sol\":179:298  function getDataServiceId() public view virtual override returns (string memory) {... */\n    tag_19:\n      callvalue\n      dup1\n      iszero\n      tag_108\n      jumpi\n      0x00\n      dup1\n      revert\n    tag_108:\n      pop\n      tag_109\n      tag_110\n      jump\t// in\n    tag_109:\n      mload(0x40)\n      tag_111\n      swap2\n      swap1\n      tag_112\n      jump\t// in\n    tag_111:\n      mload(0x40)\n      dup1\n      swap2\n      sub\n      swap1\n      return\n        /* \"contracts/Bet.sol\":296:335  mapping (address => bool) public claims */\n    tag_20:\n      callvalue\n      dup1\n      iszero\n      tag_113\n      jumpi\n      0x00\n      dup1\n      revert\n    tag_113:\n      pop\n      tag_114\n      0x04\n      dup1\n      calldatasize\n      sub\n      dup2\n      add\n      swap1\n      tag_115\n      swap2\n      swap1\n      tag_38\n      jump\t// in\n    tag_115:\n      tag_116\n      jump\t// in\n    tag_114:\n      mload(0x40)\n      tag_117\n      swap2\n      swap1\n      tag_118\n      jump\t// in\n    tag_117:\n      mload(0x40)\n      dup1\n      swap2\n      sub\n      swap1\n      return\n        /* \"contracts/Bet.sol\":1313:1705  function payout(uint256 bet) public view returns(uint256) {... */\n    tag_21:\n      callvalue\n      dup1\n      iszero\n      tag_119\n      jumpi\n      0x00\n      dup1\n      revert\n    tag_119:\n      pop\n      tag_120\n      0x04\n      dup1\n      calldatasize\n      sub\n      dup2\n      add\n      swap1\n      tag_121\n      swap2\n      swap1\n      tag_66\n      jump\t// in\n    tag_121:\n      tag_122\n      jump\t// in\n    tag_120:\n      mload(0x40)\n      tag_123\n      swap2\n      swap1\n      tag_41\n      jump\t// in\n    tag_123:\n      mload(0x40)\n      dup1\n      swap2\n      sub\n      swap1\n      return\n        /* \"contracts/Bet.sol\":1805:1883  function getClock() public view returns(uint256) {... */\n    tag_22:\n      callvalue\n      dup1\n      iszero\n      tag_124\n      jumpi\n      0x00\n      dup1\n      revert\n    tag_124:\n      pop\n      tag_125\n      tag_126\n      jump\t// in\n    tag_125:\n      mload(0x40)\n      tag_127\n      swap2\n      swap1\n      tag_41\n      jump\t// in\n    tag_127:\n      mload(0x40)\n      dup1\n      swap2\n      sub\n      swap1\n      return\n        /* \"contracts/Bet.sol\":181:199  uint256 public end */\n    tag_23:\n      callvalue\n      dup1\n      iszero\n      tag_128\n      jumpi\n      0x00\n      dup1\n      revert\n    tag_128:\n      pop\n      tag_129\n      tag_130\n      jump\t// in\n    tag_129:\n      mload(0x40)\n      tag_131\n      swap2\n      swap1\n      tag_41\n      jump\t// in\n    tag_131:\n      mload(0x40)\n      dup1\n      swap2\n      sub\n      swap1\n      return\n        /* \"@openzeppelin/contracts/access/Ownable.sol\":2074:2272  function transferOwnership(address newOwner) public virtual onlyOwner {... */\n    tag_24:\n      callvalue\n      dup1\n      iszero\n      tag_132\n      jumpi\n      0x00\n      dup1\n      revert\n    tag_132:\n      pop\n      tag_133\n      0x04\n      dup1\n      calldatasize\n      sub\n      dup2\n      add\n      swap1\n      tag_134\n      swap2\n      swap1\n      tag_38\n      jump\t// in\n    tag_134:\n      tag_135\n      jump\t// in\n    tag_133:\n      stop\n        /* \"contracts/PriceBet.sol\":486:584  function validateTimestamp(uint256 receivedTimestampMilliseconds) public view virtual override { } */\n    tag_25:\n      callvalue\n      dup1\n      iszero\n      tag_136\n      jumpi\n      0x00\n      dup1\n      revert\n    tag_136:\n      pop\n      tag_137\n      0x04\n      dup1\n      calldatasize\n      sub\n      dup2\n      add\n      swap1\n      tag_138\n      swap2\n      swap1\n      tag_66\n      jump\t// in\n    tag_138:\n      tag_139\n      jump\t// in\n    tag_137:\n      stop\n        /* \"@redstone-finance/evm-connector/contracts/data-services/MainDemoConsumerBase.sol\":302:403  function getUniqueSignersThreshold() public view virtual override returns (uint8) {... */\n    tag_26:\n      callvalue\n      dup1\n      iszero\n      tag_140\n      jumpi\n      0x00\n      dup1\n      revert\n    tag_140:\n      pop\n      tag_141\n      tag_142\n      jump\t// in\n    tag_141:\n      mload(0x40)\n      tag_143\n      swap2\n      swap1\n      tag_56\n      jump\t// in\n    tag_143:\n      mload(0x40)\n      dup1\n      swap2\n      sub\n      swap1\n      return\n        /* \"contracts/Bet.sol\":458:915  function placeBet(bool _outcome) public payable {... */\n    tag_34:\n        /* \"contracts/Bet.sol\":537:538  0 */\n      0x00\n        /* \"contracts/Bet.sol\":524:533  msg.value */\n      callvalue\n        /* \"contracts/Bet.sol\":524:538  msg.value != 0 */\n      sub\n        /* \"contracts/Bet.sol\":516:558  require(msg.value != 0, \"No value im bet\") */\n      tag_145\n      jumpi\n      mload(0x40)\n      0x08c379a000000000000000000000000000000000000000000000000000000000\n      dup2\n      mstore\n      0x04\n      add\n      tag_146\n      swap1\n      tag_147\n      jump\t// in\n    tag_146:\n      mload(0x40)\n      dup1\n      swap2\n      sub\n      swap1\n      revert\n    tag_145:\n        /* \"contracts/Bet.sol\":596:597  0 */\n      0x00\n        /* \"contracts/Bet.sol\":576:580  bets */\n      0x03\n        /* \"contracts/Bet.sol\":576:592  bets[msg.sender] */\n      0x00\n        /* \"contracts/Bet.sol\":581:591  msg.sender */\n      caller\n        /* \"contracts/Bet.sol\":576:592  bets[msg.sender] */\n      0xffffffffffffffffffffffffffffffffffffffff\n      and\n      0xffffffffffffffffffffffffffffffffffffffff\n      and\n      dup2\n      mstore\n      0x20\n      add\n      swap1\n      dup2\n      mstore\n      0x20\n      add\n      0x00\n      keccak256\n      0x00\n      swap1\n      sload\n      swap1\n      0x0100\n      exp\n      swap1\n      div\n      0x00\n      signextend\n        /* \"contracts/Bet.sol\":576:597  bets[msg.sender] == 0 */\n      0x00\n      signextend\n      eq\n        /* \"contracts/Bet.sol\":568:620  require(bets[msg.sender] == 0, \"Bet already placed\") */\n      tag_148\n      jumpi\n      mload(0x40)\n      0x08c379a000000000000000000000000000000000000000000000000000000000\n      dup2\n      mstore\n      0x04\n      add\n      tag_149\n      swap1\n      tag_150\n      jump\t// in\n    tag_149:\n      mload(0x40)\n      dup1\n      swap2\n      sub\n      swap1\n      revert\n    tag_148:\n        /* \"contracts/Bet.sol\":656:659  end */\n      sload(0x02)\n        /* \"contracts/Bet.sol\":638:653  block.timestamp */\n      timestamp\n        /* \"contracts/Bet.sol\":638:659  block.timestamp < end */\n      lt\n        /* \"contracts/Bet.sol\":630:680  require(block.timestamp < end, \"Passed the limit\") */\n      tag_151\n      jumpi\n      mload(0x40)\n      0x08c379a000000000000000000000000000000000000000000000000000000000\n      dup2\n      mstore\n      0x04\n      add\n      tag_152\n      swap1\n      tag_153\n      jump\t// in\n    tag_152:\n      mload(0x40)\n      dup1\n      swap2\n      sub\n      swap1\n      revert\n    tag_151:\n        /* \"contracts/Bet.sol\":694:702  _outcome */\n      dup1\n        /* \"contracts/Bet.sol\":691:868  if(_outcome) {... */\n      iszero\n      tag_154\n      jumpi\n        /* \"contracts/Bet.sol\":737:738  1 */\n      0x01\n        /* \"contracts/Bet.sol\":718:722  bets */\n      0x03\n        /* \"contracts/Bet.sol\":718:734  bets[msg.sender] */\n      0x00\n        /* \"contracts/Bet.sol\":723:733  msg.sender */\n      caller\n        /* \"contracts/Bet.sol\":718:734  bets[msg.sender] */\n      0xffffffffffffffffffffffffffffffffffffffff\n      and\n      0xffffffffffffffffffffffffffffffffffffffff\n      and\n      dup2\n      mstore\n      0x20\n      add\n      swap1\n      dup2\n      mstore\n      0x20\n      add\n      0x00\n      keccak256\n      0x00\n        /* \"contracts/Bet.sol\":718:738  bets[msg.sender] = 1 */\n      0x0100\n      exp\n      dup2\n      sload\n      dup2\n      0xff\n      mul\n      not\n      and\n      swap1\n      dup4\n      0x00\n      signextend\n      0xff\n      and\n      mul\n      or\n      swap1\n      sstore\n      pop\n        /* \"contracts/Bet.sol\":763:772  msg.value */\n      callvalue\n        /* \"contracts/Bet.sol\":752:759  yesPool */\n      0x06\n      0x00\n        /* \"contracts/Bet.sol\":752:772  yesPool += msg.value */\n      dup3\n      dup3\n      sload\n      tag_155\n      swap2\n      swap1\n      tag_156\n      jump\t// in\n    tag_155:\n      swap3\n      pop\n      pop\n      dup2\n      swap1\n      sstore\n      pop\n        /* \"contracts/Bet.sol\":691:868  if(_outcome) {... */\n      jump(tag_157)\n    tag_154:\n        /* \"contracts/Bet.sol\":822:824  -1 */\n      0xffffffffffffffffffffffffffffffffffffffffffffffffffffffffffffffff\n        /* \"contracts/Bet.sol\":803:807  bets */\n      0x03\n        /* \"contracts/Bet.sol\":803:819  bets[msg.sender] */\n      0x00\n        /* \"contracts/Bet.sol\":808:818  msg.sender */\n      caller\n        /* \"contracts/Bet.sol\":803:819  bets[msg.sender] */\n      0xffffffffffffffffffffffffffffffffffffffff\n      and\n      0xffffffffffffffffffffffffffffffffffffffff\n      and\n      dup2\n      mstore\n      0x20\n      add\n      swap1\n      dup2\n      mstore\n      0x20\n      add\n      0x00\n      keccak256\n      0x00\n        /* \"contracts/Bet.sol\":803:824  bets[msg.sender] = -1 */\n      0x0100\n      exp\n      dup2\n      sload\n      dup2\n      0xff\n      mul\n      not\n      and\n      swap1\n      dup4\n      0x00\n      signextend\n      0xff\n      and\n      mul\n      or\n      swap1\n      sstore\n      pop\n        /* \"contracts/Bet.sol\":848:857  msg.value */\n      callvalue\n        /* \"contracts/Bet.sol\":838:844  noPool */\n      0x07\n      0x00\n        /* \"contracts/Bet.sol\":838:857  noPool += msg.value */\n      dup3\n      dup3\n      sload\n      tag_158\n      swap2\n      swap1\n      tag_156\n      jump\t// in\n    tag_158:\n      swap3\n      pop\n      pop\n      dup2\n      swap1\n      sstore\n      pop\n        /* \"contracts/Bet.sol\":691:868  if(_outcome) {... */\n    tag_157:\n        /* \"contracts/Bet.sol\":899:908  msg.value */\n      callvalue\n        /* \"contracts/Bet.sol\":877:883  stakes */\n      0x04\n        /* \"contracts/Bet.sol\":877:895  stakes[msg.sender] */\n      0x00\n        /* \"contracts/Bet.sol\":884:894  msg.sender */\n      caller\n        /* \"contracts/Bet.sol\":877:895  stakes[msg.sender] */\n      0xffffffffffffffffffffffffffffffffffffffff\n      and\n      0xffffffffffffffffffffffffffffffffffffffff\n      and\n      dup2\n      mstore\n      0x20\n      add\n      swap1\n      dup2\n      mstore\n      0x20\n      add\n      0x00\n      keccak256\n      0x00\n        /* \"contracts/Bet.sol\":877:908  stakes[msg.sender] += msg.value */\n      dup3\n      dup3\n      sload\n      tag_159\n      swap2\n      swap1\n      tag_156\n      jump\t// in\n    tag_159:\n      swap3\n      pop\n      pop\n      dup2\n      swap1\n      sstore\n      pop\n        /* \"contracts/Bet.sol\":458:915  function placeBet(bool _outcome) public payable {... */\n      pop\n      jump\t// out\n        /* \"contracts/Bet.sol\":248:290  mapping (address => uint256) public stakes */\n    tag_39:\n      mstore(0x20, 0x04)\n      dup1\n      0x00\n      mstore\n      keccak256(0x00, 0x40)\n      0x00\n      swap2\n      pop\n      swap1\n      pop\n      sload\n      dup2\n      jump\t// out\n        /* \"contracts/PriceBet.sol\":242:265  uint256 public expected */\n    tag_44:\n      sload(0x0a)\n      dup2\n      jump\t// out\n        /* \"contracts/Bet.sol\":150:175  int256 public outcome = 0 */\n    tag_48:\n      sload(0x01)\n      dup2\n      jump\t// out\n        /* \"@redstone-finance/evm-connector/contracts/data-services/MainDemoConsumerBase.sol\":407:691  function getAuthorisedSignerIndex(address signerAddress)... */\n    tag_54:\n        /* \"@redstone-finance/evm-connector/contracts/data-services/MainDemoConsumerBase.sol\":522:527  uint8 */\n      0x00\n        /* \"@redstone-finance/evm-connector/contracts/data-services/MainDemoConsumerBase.sol\":558:600  0x0C39486f770B26F5527BBBf942726537986Cd7eb */\n      0x0c39486f770b26f5527bbbf942726537986cd7eb\n        /* \"@redstone-finance/evm-connector/contracts/data-services/MainDemoConsumerBase.sol\":541:600  signerAddress == 0x0C39486f770B26F5527BBBf942726537986Cd7eb */\n      0xffffffffffffffffffffffffffffffffffffffff\n      and\n        /* \"@redstone-finance/evm-connector/contracts/data-services/MainDemoConsumerBase.sol\":541:554  signerAddress */\n      dup3\n        /* \"@redstone-finance/evm-connector/contracts/data-services/MainDemoConsumerBase.sol\":541:600  signerAddress == 0x0C39486f770B26F5527BBBf942726537986Cd7eb */\n      0xffffffffffffffffffffffffffffffffffffffff\n      and\n      sub\n        /* \"@redstone-finance/evm-connector/contracts/data-services/MainDemoConsumerBase.sol\":537:687  if (signerAddress == 0x0C39486f770B26F5527BBBf942726537986Cd7eb) {... */\n      tag_161\n      jumpi\n        /* \"@redstone-finance/evm-connector/contracts/data-services/MainDemoConsumerBase.sol\":617:618  0 */\n      0x00\n        /* \"@redstone-finance/evm-connector/contracts/data-services/MainDemoConsumerBase.sol\":610:618  return 0 */\n      swap1\n      pop\n      jump(tag_160)\n        /* \"@redstone-finance/evm-connector/contracts/data-services/MainDemoConsumerBase.sol\":537:687  if (signerAddress == 0x0C39486f770B26F5527BBBf942726537986Cd7eb) {... */\n    tag_161:\n        /* \"@redstone-finance/evm-connector/contracts/data-services/MainDemoConsumerBase.sol\":666:679  signerAddress */\n      dup2\n        /* \"@redstone-finance/evm-connector/contracts/data-services/MainDemoConsumerBase.sol\":646:680  SignerNotAuthorised(signerAddress) */\n      mload(0x40)\n      0xec459bc000000000000000000000000000000000000000000000000000000000\n      dup2\n      mstore\n      0x04\n      add\n      tag_163\n      swap2\n      swap1\n      tag_93\n      jump\t// in\n    tag_163:\n      mload(0x40)\n      dup1\n      swap2\n      sub\n      swap1\n      revert\n        /* \"@redstone-finance/evm-connector/contracts/data-services/MainDemoConsumerBase.sol\":407:691  function getAuthorisedSignerIndex(address signerAddress)... */\n    tag_160:\n      swap2\n      swap1\n      pop\n      jump\t// out\n        /* \"contracts/PriceBet.sol\":590:941  function finalize() external {... */\n    tag_59:\n        /* \"contracts/PriceBet.sol\":648:649  0 */\n      0x00\n        /* \"contracts/PriceBet.sol\":637:644  outcome */\n      sload(0x01)\n        /* \"contracts/PriceBet.sol\":637:649  outcome == 0 */\n      eq\n        /* \"contracts/PriceBet.sol\":629:671  require(outcome == 0, \"Already finalized\") */\n      tag_165\n      jumpi\n      mload(0x40)\n      0x08c379a000000000000000000000000000000000000000000000000000000000\n      dup2\n      mstore\n      0x04\n      add\n      tag_166\n      swap1\n      tag_167\n      jump\t// in\n    tag_166:\n      mload(0x40)\n      dup1\n      swap2\n      sub\n      swap1\n      revert\n    tag_165:\n        /* \"contracts/PriceBet.sol\":696:735  extractTimestampsAndAssertAllAreEqual() */\n      tag_168\n        /* \"contracts/PriceBet.sol\":696:733  extractTimestampsAndAssertAllAreEqual */\n      tag_70\n        /* \"contracts/PriceBet.sol\":696:735  extractTimestampsAndAssertAllAreEqual() */\n      jump\t// in\n    tag_168:\n        /* \"contracts/PriceBet.sol\":689:692  end */\n      sload(0x02)\n        /* \"contracts/PriceBet.sol\":689:735  end == extractTimestampsAndAssertAllAreEqual() */\n      eq\n        /* \"contracts/PriceBet.sol\":681:757  require(end == extractTimestampsAndAssertAllAreEqual(), \"Invalid timestamp\") */\n      tag_169\n      jumpi\n      mload(0x40)\n      0x08c379a000000000000000000000000000000000000000000000000000000000\n      dup2\n      mstore\n      0x04\n      add\n      tag_170\n      swap1\n      tag_171\n      jump\t// in\n    tag_170:\n      mload(0x40)\n      dup1\n      swap2\n      sub\n      swap1\n      revert\n    tag_169:\n        /* \"contracts/PriceBet.sol\":768:782  uint256 answer */\n      0x00\n        /* \"contracts/PriceBet.sol\":785:823  getOracleNumericValueFromTxMsg(symbol) */\n      tag_172\n        /* \"contracts/PriceBet.sol\":816:822  symbol */\n      sload(0x09)\n        /* \"contracts/PriceBet.sol\":785:815  getOracleNumericValueFromTxMsg */\n      tag_173\n        /* \"contracts/PriceBet.sol\":785:823  getOracleNumericValueFromTxMsg(symbol) */\n      jump\t// in\n    tag_172:\n        /* \"contracts/PriceBet.sol\":768:823  uint256 answer = getOracleNumericValueFromTxMsg(symbol) */\n      swap1\n      pop\n        /* \"contracts/PriceBet.sol\":846:854  expected */\n      sload(0x0a)\n        /* \"contracts/PriceBet.sol\":836:842  answer */\n      dup2\n        /* \"contracts/PriceBet.sol\":836:854  answer >= expected */\n      lt\n        /* \"contracts/PriceBet.sol\":833:935  if(answer >= expected) {... */\n      tag_174\n      jumpi\n        /* \"contracts/PriceBet.sol\":880:881  1 */\n      0x01\n        /* \"contracts/PriceBet.sol\":870:877  outcome */\n      dup1\n        /* \"contracts/PriceBet.sol\":870:881  outcome = 1 */\n      dup2\n      swap1\n      sstore\n      pop\n        /* \"contracts/PriceBet.sol\":833:935  if(answer >= expected) {... */\n      jump(tag_175)\n    tag_174:\n        /* \"contracts/PriceBet.sol\":922:924  -1 */\n      0xffffffffffffffffffffffffffffffffffffffffffffffffffffffffffffffff\n        /* \"contracts/PriceBet.sol\":912:919  outcome */\n      0x01\n        /* \"contracts/PriceBet.sol\":912:924  outcome = -1 */\n      dup2\n      swap1\n      sstore\n      pop\n        /* \"contracts/PriceBet.sol\":833:935  if(answer >= expected) {... */\n    tag_175:\n        /* \"contracts/PriceBet.sol\":619:941  {... */\n      pop\n        /* \"contracts/PriceBet.sol\":590:941  function finalize() external {... */\n      jump\t// out\n        /* \"contracts/Bet.sol\":921:1307  function claim() public {... */\n    tag_62:\n        /* \"contracts/Bet.sol\":974:975  0 */\n      0x00\n        /* \"contracts/Bet.sol\":963:970  outcome */\n      sload(0x01)\n        /* \"contracts/Bet.sol\":963:975  outcome != 0 */\n      sub\n        /* \"contracts/Bet.sol\":955:993  require(outcome != 0, \"Not finalized\") */\n      tag_177\n      jumpi\n      mload(0x40)\n      0x08c379a000000000000000000000000000000000000000000000000000000000\n      dup2\n      mstore\n      0x04\n      add\n      tag_178\n      swap1\n      tag_179\n      jump\t// in\n    tag_178:\n      mload(0x40)\n      dup1\n      swap2\n      sub\n      swap1\n      revert\n    tag_177:\n        /* \"contracts/Bet.sol\":1031:1038  outcome */\n      sload(0x01)\n        /* \"contracts/Bet.sol\":1011:1015  bets */\n      0x03\n        /* \"contracts/Bet.sol\":1011:1027  bets[msg.sender] */\n      0x00\n        /* \"contracts/Bet.sol\":1016:1026  msg.sender */\n      caller\n        /* \"contracts/Bet.sol\":1011:1027  bets[msg.sender] */\n      0xffffffffffffffffffffffffffffffffffffffff\n      and\n      0xffffffffffffffffffffffffffffffffffffffff\n      and\n      dup2\n      mstore\n      0x20\n      add\n      swap1\n      dup2\n      mstore\n      0x20\n      add\n      0x00\n      keccak256\n      0x00\n      swap1\n      sload\n      swap1\n      0x0100\n      exp\n      swap1\n      div\n      0x00\n      signextend\n        /* \"contracts/Bet.sol\":1011:1038  bets[msg.sender] == outcome */\n      0x00\n      signextend\n      eq\n        /* \"contracts/Bet.sol\":1003:1054  require(bets[msg.sender] == outcome, \"Did not win\") */\n      tag_180\n      jumpi\n      mload(0x40)\n      0x08c379a000000000000000000000000000000000000000000000000000000000\n      dup2\n      mstore\n      0x04\n      add\n      tag_181\n      swap1\n      tag_182\n      jump\t// in\n    tag_181:\n      mload(0x40)\n      dup1\n      swap2\n      sub\n      swap1\n      revert\n    tag_180:\n        /* \"contracts/Bet.sol\":1094:1099  false */\n      0x00\n        /* \"contracts/Bet.sol\":1072:1099  claims[msg.sender] == false */\n      iszero\n      iszero\n        /* \"contracts/Bet.sol\":1072:1078  claims */\n      0x05\n        /* \"contracts/Bet.sol\":1072:1090  claims[msg.sender] */\n      0x00\n        /* \"contracts/Bet.sol\":1079:1089  msg.sender */\n      caller\n        /* \"contracts/Bet.sol\":1072:1090  claims[msg.sender] */\n      0xffffffffffffffffffffffffffffffffffffffff\n      and\n      0xffffffffffffffffffffffffffffffffffffffff\n      and\n      dup2\n      mstore\n      0x20\n      add\n      swap1\n      dup2\n      mstore\n      0x20\n      add\n      0x00\n      keccak256\n      0x00\n      swap1\n      sload\n      swap1\n      0x0100\n      exp\n      swap1\n      div\n      0xff\n      and\n        /* \"contracts/Bet.sol\":1072:1099  claims[msg.sender] == false */\n      iszero\n      iszero\n      eq\n        /* \"contracts/Bet.sol\":1064:1119  require(claims[msg.sender] == false, \"Already claimed\") */\n      tag_183\n      jumpi\n      mload(0x40)\n      0x08c379a000000000000000000000000000000000000000000000000000000000\n      dup2\n      mstore\n      0x04\n      add\n      tag_184\n      swap1\n      tag_185\n      jump\t// in\n    tag_184:\n      mload(0x40)\n      dup1\n      swap2\n      sub\n      swap1\n      revert\n    tag_183:\n        /* \"contracts/Bet.sol\":1130:1143  uint256 stake */\n      0x00\n        /* \"contracts/Bet.sol\":1146:1152  stakes */\n      0x04\n        /* \"contracts/Bet.sol\":1146:1164  stakes[msg.sender] */\n      0x00\n        /* \"contracts/Bet.sol\":1153:1163  msg.sender */\n      caller\n        /* \"contracts/Bet.sol\":1146:1164  stakes[msg.sender] */\n      0xffffffffffffffffffffffffffffffffffffffff\n      and\n      0xffffffffffffffffffffffffffffffffffffffff\n      and\n      dup2\n      mstore\n      0x20\n      add\n      swap1\n      dup2\n      mstore\n      0x20\n      add\n      0x00\n      keccak256\n      sload\n        /* \"contracts/Bet.sol\":1130:1164  uint256 stake = stakes[msg.sender] */\n      swap1\n      pop\n        /* \"contracts/Bet.sol\":1183:1193  msg.sender */\n      caller\n        /* \"contracts/Bet.sol\":1174:1203  payable (msg.sender).transfer */\n      0xffffffffffffffffffffffffffffffffffffffff\n      and\n        /* \"contracts/Bet.sol\":1174:1218  payable (msg.sender).transfer(payout(stake)) */\n      0x08fc\n        /* \"contracts/Bet.sol\":1204:1217  payout(stake) */\n      tag_186\n        /* \"contracts/Bet.sol\":1211:1216  stake */\n      dup4\n        /* \"contracts/Bet.sol\":1204:1210  payout */\n      tag_122\n        /* \"contracts/Bet.sol\":1204:1217  payout(stake) */\n      jump\t// in\n    tag_186:\n        /* \"contracts/Bet.sol\":1174:1218  payable (msg.sender).transfer(payout(stake)) */\n      swap1\n      dup2\n      iszero\n      mul\n      swap1\n      mload(0x40)\n      0x00\n      mload(0x40)\n      dup1\n      dup4\n      sub\n      dup2\n      dup6\n      dup9\n      dup9\n      call\n      swap4\n      pop\n      pop\n      pop\n      pop\n      iszero\n      dup1\n      iszero\n      tag_188\n      jumpi\n      returndatasize\n      0x00\n      dup1\n      returndatacopy\n      revert(0x00, returndatasize)\n    tag_188:\n      pop\n        /* \"contracts/Bet.sol\":1237:1247  msg.sender */\n      caller\n        /* \"contracts/Bet.sol\":1228:1257  payable (msg.sender).transfer */\n      0xffffffffffffffffffffffffffffffffffffffff\n      and\n        /* \"contracts/Bet.sol\":1228:1264  payable (msg.sender).transfer(stake) */\n      0x08fc\n        /* \"contracts/Bet.sol\":1258:1263  stake */\n      dup3\n        /* \"contracts/Bet.sol\":1228:1264  payable (msg.sender).transfer(stake) */\n      swap1\n      dup2\n      iszero\n      mul\n      swap1\n      mload(0x40)\n      0x00\n      mload(0x40)\n      dup1\n      dup4\n      sub\n      dup2\n      dup6\n      dup9\n      dup9\n      call\n      swap4\n      pop\n      pop\n      pop\n      pop\n      iszero\n      dup1\n      iszero\n      tag_190\n      jumpi\n      returndatasize\n      0x00\n      dup1\n      returndatacopy\n      revert(0x00, returndatasize)\n    tag_190:\n      pop\n        /* \"contracts/Bet.sol\":1296:1300  true */\n      0x01\n        /* \"contracts/Bet.sol\":1275:1281  claims */\n      0x05\n        /* \"contracts/Bet.sol\":1275:1293  claims[msg.sender] */\n      0x00\n        /* \"contracts/Bet.sol\":1282:1292  msg.sender */\n      caller\n        /* \"contracts/Bet.sol\":1275:1293  claims[msg.sender] */\n      0xffffffffffffffffffffffffffffffffffffffff\n      and\n      0xffffffffffffffffffffffffffffffffffffffff\n      and\n      dup2\n      mstore\n      0x20\n      add\n      swap1\n      dup2\n      mstore\n      0x20\n      add\n      0x00\n      keccak256\n      0x00\n        /* \"contracts/Bet.sol\":1275:1300  claims[msg.sender] = true */\n      0x0100\n      exp\n      dup2\n      sload\n      dup2\n      0xff\n      mul\n      not\n      and\n      swap1\n      dup4\n      iszero\n      iszero\n      mul\n      or\n      swap1\n      sstore\n      pop\n        /* \"contracts/Bet.sol\":945:1307  {... */\n      pop\n        /* \"contracts/Bet.sol\":921:1307  function claim() public {... */\n      jump\t// out\n        /* \"contracts/Bet.sol\":1711:1799  function setClock(uint256 timestamp) public onlyOwner {... */\n    tag_67:\n        /* \"@openzeppelin/contracts/access/Ownable.sol\":1094:1107  _checkOwner() */\n      tag_192\n        /* \"@openzeppelin/contracts/access/Ownable.sol\":1094:1105  _checkOwner */\n      tag_193\n        /* \"@openzeppelin/contracts/access/Ownable.sol\":1094:1107  _checkOwner() */\n      jump\t// in\n    tag_192:\n        /* \"contracts/Bet.sol\":1783:1792  timestamp */\n      dup1\n        /* \"contracts/Bet.sol\":1775:1780  clock */\n      0x08\n        /* \"contracts/Bet.sol\":1775:1792  clock = timestamp */\n      dup2\n      swap1\n      sstore\n      pop\n        /* \"contracts/Bet.sol\":1711:1799  function setClock(uint256 timestamp) public onlyOwner {... */\n      pop\n      jump\t// out\n        /* \"@redstone-finance/evm-connector/contracts/core/CalldataExtractor.sol\":599:2010  function extractTimestampsAndAssertAllAreEqual() public pure returns (uint256 extractedTimestamp) {... */\n    tag_70:\n        /* \"@redstone-finance/evm-connector/contracts/core/CalldataExtractor.sol\":669:695  uint256 extractedTimestamp */\n      0x00\n        /* \"@redstone-finance/evm-connector/contracts/core/CalldataExtractor.sol\":703:733  uint256 calldataNegativeOffset */\n      dup1\n        /* \"@redstone-finance/evm-connector/contracts/core/CalldataExtractor.sol\":736:772  _extractByteSizeOfUnsignedMetadata() */\n      tag_196\n        /* \"@redstone-finance/evm-connector/contracts/core/CalldataExtractor.sol\":736:770  _extractByteSizeOfUnsignedMetadata */\n      tag_197\n        /* \"@redstone-finance/evm-connector/contracts/core/CalldataExtractor.sol\":736:772  _extractByteSizeOfUnsignedMetadata() */\n      jump\t// in\n    tag_196:\n        /* \"@redstone-finance/evm-connector/contracts/core/CalldataExtractor.sol\":703:772  uint256 calldataNegativeOffset = _extractByteSizeOfUnsignedMetadata() */\n      swap1\n      pop\n        /* \"@redstone-finance/evm-connector/contracts/core/CalldataExtractor.sol\":778:803  uint256 dataPackagesCount */\n      0x00\n        /* \"@redstone-finance/evm-connector/contracts/core/CalldataExtractor.sol\":855:916  _extractDataPackagesCountFromCalldata(calldataNegativeOffset) */\n      tag_198\n        /* \"@redstone-finance/evm-connector/contracts/core/CalldataExtractor.sol\":893:915  calldataNegativeOffset */\n      dup3\n        /* \"@redstone-finance/evm-connector/contracts/core/CalldataExtractor.sol\":855:892  _extractDataPackagesCountFromCalldata */\n      tag_199\n        /* \"@redstone-finance/evm-connector/contracts/core/CalldataExtractor.sol\":855:916  _extractDataPackagesCountFromCalldata(calldataNegativeOffset) */\n      jump\t// in\n    tag_198:\n        /* \"@redstone-finance/evm-connector/contracts/core/CalldataExtractor.sol\":809:916  (dataPackagesCount, calldataNegativeOffset) = _extractDataPackagesCountFromCalldata(calldataNegativeOffset) */\n      dup2\n      0xffff\n      and\n      swap2\n      pop\n      dup1\n      swap4\n      pop\n      dup2\n      swap3\n      pop\n      pop\n      pop\n        /* \"@redstone-finance/evm-connector/contracts/core/CalldataExtractor.sol\":948:949  0 */\n      0x00\n        /* \"@redstone-finance/evm-connector/contracts/core/CalldataExtractor.sol\":927:944  dataPackagesCount */\n      dup2\n        /* \"@redstone-finance/evm-connector/contracts/core/CalldataExtractor.sol\":927:949  dataPackagesCount == 0 */\n      sub\n        /* \"@redstone-finance/evm-connector/contracts/core/CalldataExtractor.sol\":923:1019  if (dataPackagesCount == 0) {... */\n      tag_200\n      jumpi\n        /* \"@redstone-finance/evm-connector/contracts/core/CalldataExtractor.sol\":966:1012  RedstonePayloadMustHaveAtLeastOneDataPackage() */\n      mload(0x40)\n      0x8552ff3c00000000000000000000000000000000000000000000000000000000\n      dup2\n      mstore\n      0x04\n      add\n      mload(0x40)\n      dup1\n      swap2\n      sub\n      swap1\n      revert\n        /* \"@redstone-finance/evm-connector/contracts/core/CalldataExtractor.sol\":923:1019  if (dataPackagesCount == 0) {... */\n    tag_200:\n        /* \"@redstone-finance/evm-connector/contracts/core/CalldataExtractor.sol\":1030:1054  uint256 dataPackageIndex */\n      0x00\n        /* \"@redstone-finance/evm-connector/contracts/core/CalldataExtractor.sol\":1025:2006  for (uint256 dataPackageIndex = 0; dataPackageIndex < dataPackagesCount; dataPackageIndex++) {... */\n    tag_201:\n        /* \"@redstone-finance/evm-connector/contracts/core/CalldataExtractor.sol\":1079:1096  dataPackagesCount */\n      dup2\n        /* \"@redstone-finance/evm-connector/contracts/core/CalldataExtractor.sol\":1060:1076  dataPackageIndex */\n      dup2\n        /* \"@redstone-finance/evm-connector/contracts/core/CalldataExtractor.sol\":1060:1096  dataPackageIndex < dataPackagesCount */\n      lt\n        /* \"@redstone-finance/evm-connector/contracts/core/CalldataExtractor.sol\":1025:2006  for (uint256 dataPackageIndex = 0; dataPackageIndex < dataPackagesCount; dataPackageIndex++) {... */\n      iszero\n      tag_202\n      jumpi\n        /* \"@redstone-finance/evm-connector/contracts/core/CalldataExtractor.sol\":1126:1153  uint256 dataPackageByteSize */\n      0x00\n        /* \"@redstone-finance/evm-connector/contracts/core/CalldataExtractor.sol\":1156:1203  _getDataPackageByteSize(calldataNegativeOffset) */\n      tag_204\n        /* \"@redstone-finance/evm-connector/contracts/core/CalldataExtractor.sol\":1180:1202  calldataNegativeOffset */\n      dup5\n        /* \"@redstone-finance/evm-connector/contracts/core/CalldataExtractor.sol\":1156:1179  _getDataPackageByteSize */\n      tag_205\n        /* \"@redstone-finance/evm-connector/contracts/core/CalldataExtractor.sol\":1156:1203  _getDataPackageByteSize(calldataNegativeOffset) */\n      jump\t// in\n    tag_204:\n        /* \"@redstone-finance/evm-connector/contracts/core/CalldataExtractor.sol\":1126:1203  uint256 dataPackageByteSize = _getDataPackageByteSize(calldataNegativeOffset) */\n      swap1\n      pop\n        /* \"@redstone-finance/evm-connector/contracts/core/CalldataExtractor.sol\":1271:1298  uint48 dataPackageTimestamp */\n      0x00\n        /* \"@redstone-finance/evm-connector/contracts/core/CalldataExtractor.sol\":1348:1379  uint256 timestampNegativeOffset */\n      dup1\n        /* \"@redstone-finance/evm-connector/contracts/core/RedstoneConstants.sol\":1771:1774  104 */\n      0x68\n        /* \"@redstone-finance/evm-connector/contracts/core/CalldataExtractor.sol\":1383:1405  calldataNegativeOffset */\n      dup7\n        /* \"@redstone-finance/evm-connector/contracts/core/CalldataExtractor.sol\":1383:1471  calldataNegativeOffset + TIMESTAMP_NEGATIVE_OFFSET_IN_DATA_PACKAGE_WITH_STANDARD_SLOT_BS */\n      tag_206\n      swap2\n      swap1\n      tag_156\n      jump\t// in\n    tag_206:\n        /* \"@redstone-finance/evm-connector/contracts/core/CalldataExtractor.sol\":1348:1472  uint256 timestampNegativeOffset = (calldataNegativeOffset + TIMESTAMP_NEGATIVE_OFFSET_IN_DATA_PACKAGE_WITH_STANDARD_SLOT_BS) */\n      swap1\n      pop\n        /* \"@redstone-finance/evm-connector/contracts/core/CalldataExtractor.sol\":1480:1503  uint256 timestampOffset */\n      0x00\n        /* \"@redstone-finance/evm-connector/contracts/core/CalldataExtractor.sol\":1524:1547  timestampNegativeOffset */\n      dup2\n        /* \"@redstone-finance/evm-connector/contracts/core/CalldataExtractor.sol\":1506:1514  msg.data */\n      0x00\n      calldatasize\n        /* \"@redstone-finance/evm-connector/contracts/core/CalldataExtractor.sol\":1506:1521  msg.data.length */\n      swap1\n      pop\n        /* \"@redstone-finance/evm-connector/contracts/core/CalldataExtractor.sol\":1506:1547  msg.data.length - timestampNegativeOffset */\n      tag_207\n      swap2\n      swap1\n      tag_208\n      jump\t// in\n    tag_207:\n        /* \"@redstone-finance/evm-connector/contracts/core/CalldataExtractor.sol\":1480:1547  uint256 timestampOffset = msg.data.length - timestampNegativeOffset */\n      swap1\n      pop\n        /* \"@redstone-finance/evm-connector/contracts/core/CalldataExtractor.sol\":1611:1626  timestampOffset */\n      dup1\n        /* \"@redstone-finance/evm-connector/contracts/core/CalldataExtractor.sol\":1598:1627  calldataload(timestampOffset) */\n      calldataload\n        /* \"@redstone-finance/evm-connector/contracts/core/CalldataExtractor.sol\":1574:1627  dataPackageTimestamp := calldataload(timestampOffset) */\n      swap3\n      pop\n        /* \"@redstone-finance/evm-connector/contracts/core/CalldataExtractor.sol\":1671:1672  0 */\n      0x00\n        /* \"@redstone-finance/evm-connector/contracts/core/CalldataExtractor.sol\":1647:1667  dataPackageTimestamp */\n      dup4\n        /* \"@redstone-finance/evm-connector/contracts/core/CalldataExtractor.sol\":1647:1672  dataPackageTimestamp == 0 */\n      0xffffffffffff\n      and\n      sub\n        /* \"@redstone-finance/evm-connector/contracts/core/CalldataExtractor.sol\":1643:1735  if (dataPackageTimestamp == 0) {... */\n      tag_209\n      jumpi\n        /* \"@redstone-finance/evm-connector/contracts/core/CalldataExtractor.sol\":1691:1726  DataPackageTimestampMustNotBeZero() */\n      mload(0x40)\n      0x336dc9d000000000000000000000000000000000000000000000000000000000\n      dup2\n      mstore\n      0x04\n      add\n      mload(0x40)\n      dup1\n      swap2\n      sub\n      swap1\n      revert\n        /* \"@redstone-finance/evm-connector/contracts/core/CalldataExtractor.sol\":1643:1735  if (dataPackageTimestamp == 0) {... */\n    tag_209:\n        /* \"@redstone-finance/evm-connector/contracts/core/CalldataExtractor.sol\":1769:1770  0 */\n      0x00\n        /* \"@redstone-finance/evm-connector/contracts/core/CalldataExtractor.sol\":1747:1765  extractedTimestamp */\n      dup9\n        /* \"@redstone-finance/evm-connector/contracts/core/CalldataExtractor.sol\":1747:1770  extractedTimestamp == 0 */\n      sub\n        /* \"@redstone-finance/evm-connector/contracts/core/CalldataExtractor.sol\":1743:1946  if (extractedTimestamp == 0) {... */\n      tag_210\n      jumpi\n        /* \"@redstone-finance/evm-connector/contracts/core/CalldataExtractor.sol\":1803:1823  dataPackageTimestamp */\n      dup3\n        /* \"@redstone-finance/evm-connector/contracts/core/CalldataExtractor.sol\":1782:1823  extractedTimestamp = dataPackageTimestamp */\n      0xffffffffffff\n      and\n      swap8\n      pop\n        /* \"@redstone-finance/evm-connector/contracts/core/CalldataExtractor.sol\":1743:1946  if (extractedTimestamp == 0) {... */\n      jump(tag_211)\n    tag_210:\n        /* \"@redstone-finance/evm-connector/contracts/core/CalldataExtractor.sol\":1866:1884  extractedTimestamp */\n      dup8\n        /* \"@redstone-finance/evm-connector/contracts/core/CalldataExtractor.sol\":1842:1862  dataPackageTimestamp */\n      dup4\n        /* \"@redstone-finance/evm-connector/contracts/core/CalldataExtractor.sol\":1842:1884  dataPackageTimestamp != extractedTimestamp */\n      0xffffffffffff\n      and\n      eq\n        /* \"@redstone-finance/evm-connector/contracts/core/CalldataExtractor.sol\":1838:1946  if (dataPackageTimestamp != extractedTimestamp) {... */\n      tag_212\n      jumpi\n        /* \"@redstone-finance/evm-connector/contracts/core/CalldataExtractor.sol\":1903:1937  DataPackageTimestampsMustBeEqual() */\n      mload(0x40)\n      0xd9d1f46500000000000000000000000000000000000000000000000000000000\n      dup2\n      mstore\n      0x04\n      add\n      mload(0x40)\n      dup1\n      swap2\n      sub\n      swap1\n      revert\n        /* \"@redstone-finance/evm-connector/contracts/core/CalldataExtractor.sol\":1838:1946  if (dataPackageTimestamp != extractedTimestamp) {... */\n    tag_212:\n        /* \"@redstone-finance/evm-connector/contracts/core/CalldataExtractor.sol\":1743:1946  if (extractedTimestamp == 0) {... */\n    tag_211:\n        /* \"@redstone-finance/evm-connector/contracts/core/CalldataExtractor.sol\":1980:1999  dataPackageByteSize */\n      dup4\n        /* \"@redstone-finance/evm-connector/contracts/core/CalldataExtractor.sol\":1954:1999  calldataNegativeOffset += dataPackageByteSize */\n      dup8\n      tag_213\n      swap2\n      swap1\n      tag_156\n      jump\t// in\n    tag_213:\n      swap7\n      pop\n        /* \"@redstone-finance/evm-connector/contracts/core/CalldataExtractor.sol\":1118:2006  {... */\n      pop\n      pop\n      pop\n      pop\n        /* \"@redstone-finance/evm-connector/contracts/core/CalldataExtractor.sol\":1098:1116  dataPackageIndex++ */\n      dup1\n      dup1\n      tag_214\n      swap1\n      tag_215\n      jump\t// in\n    tag_214:\n      swap2\n      pop\n      pop\n        /* \"@redstone-finance/evm-connector/contracts/core/CalldataExtractor.sol\":1025:2006  for (uint256 dataPackageIndex = 0; dataPackageIndex < dataPackagesCount; dataPackageIndex++) {... */\n      jump(tag_201)\n    tag_202:\n      pop\n        /* \"@redstone-finance/evm-connector/contracts/core/CalldataExtractor.sol\":697:2010  {... */\n      pop\n      pop\n        /* \"@redstone-finance/evm-connector/contracts/core/CalldataExtractor.sol\":599:2010  function extractTimestampsAndAssertAllAreEqual() public pure returns (uint256 extractedTimestamp) {... */\n      swap1\n      jump\t// out\n        /* \"contracts/Bet.sol\":341:363  uint256 public yesPool */\n    tag_74:\n      sload(0x06)\n      dup2\n      jump\t// out\n        /* \"@openzeppelin/contracts/access/Ownable.sol\":1824:1925  function renounceOwnership() public virtual onlyOwner {... */\n    tag_78:\n        /* \"@openzeppelin/contracts/access/Ownable.sol\":1094:1107  _checkOwner() */\n      tag_217\n        /* \"@openzeppelin/contracts/access/Ownable.sol\":1094:1105  _checkOwner */\n      tag_193\n        /* \"@openzeppelin/contracts/access/Ownable.sol\":1094:1107  _checkOwner() */\n      jump\t// in\n    tag_217:\n        /* \"@openzeppelin/contracts/access/Ownable.sol\":1888:1918  _transferOwnership(address(0)) */\n      tag_219\n        /* \"@openzeppelin/contracts/access/Ownable.sol\":1915:1916  0 */\n      0x00\n        /* \"@openzeppelin/contracts/access/Ownable.sol\":1888:1906  _transferOwnership */\n      tag_220\n        /* \"@openzeppelin/contracts/access/Ownable.sol\":1888:1918  _transferOwnership(address(0)) */\n      jump\t// in\n    tag_219:\n        /* \"@openzeppelin/contracts/access/Ownable.sol\":1824:1925  function renounceOwnership() public virtual onlyOwner {... */\n      jump\t// out\n        /* \"contracts/PriceBet.sol\":271:294  uint256 public endLimit */\n    tag_81:\n      sload(0x0b)\n      dup2\n      jump\t// out\n        /* \"contracts/Bet.sol\":205:242  mapping (address => int8) public bets */\n    tag_86:\n      mstore(0x20, 0x03)\n      dup1\n      0x00\n      mstore\n      keccak256(0x00, 0x40)\n      0x00\n      swap2\n      pop\n      sload\n      swap1\n      0x0100\n      exp\n      swap1\n      div\n      0x00\n      signextend\n      dup2\n      jump\t// out\n        /* \"@openzeppelin/contracts/access/Ownable.sol\":1201:1286  function owner() public view virtual returns (address) {... */\n    tag_91:\n        /* \"@openzeppelin/contracts/access/Ownable.sol\":1247:1254  address */\n      0x00\n        /* \"@openzeppelin/contracts/access/Ownable.sol\":1273:1279  _owner */\n      dup1\n      0x00\n      swap1\n      sload\n      swap1\n      0x0100\n      exp\n      swap1\n      div\n      0xffffffffffffffffffffffffffffffffffffffff\n      and\n        /* \"@openzeppelin/contracts/access/Ownable.sol\":1266:1279  return _owner */\n      swap1\n      pop\n        /* \"@openzeppelin/contracts/access/Ownable.sol\":1201:1286  function owner() public view virtual returns (address) {... */\n      swap1\n      jump\t// out\n        /* \"contracts/Bet.sol\":431:451  uint256 public clock */\n    tag_96:\n      sload(0x08)\n      dup2\n      jump\t// out\n        /* \"contracts/Bet.sol\":369:390  uint256 public noPool */\n    tag_100:\n      sload(0x07)\n      dup2\n      jump\t// out\n        /* \"@redstone-finance/evm-connector/contracts/core/RedstoneConsumerBase.sol\":2697:2846  function aggregateValues(uint256[] memory values) public view virtual returns (uint256) {... */\n    tag_106:\n        /* \"@redstone-finance/evm-connector/contracts/core/RedstoneConsumerBase.sol\":2776:2783  uint256 */\n      0x00\n        /* \"@redstone-finance/evm-connector/contracts/core/RedstoneConsumerBase.sol\":2798:2841  RedstoneDefaultsLib.aggregateValues(values) */\n      tag_223\n        /* \"@redstone-finance/evm-connector/contracts/core/RedstoneConsumerBase.sol\":2834:2840  values */\n      dup3\n        /* \"@redstone-finance/evm-connector/contracts/core/RedstoneConsumerBase.sol\":2798:2833  RedstoneDefaultsLib.aggregateValues */\n      tag_224\n        /* \"@redstone-finance/evm-connector/contracts/core/RedstoneConsumerBase.sol\":2798:2841  RedstoneDefaultsLib.aggregateValues(values) */\n      jump\t// in\n    tag_223:\n        /* \"@redstone-finance/evm-connector/contracts/core/RedstoneConsumerBase.sol\":2791:2841  return RedstoneDefaultsLib.aggregateValues(values) */\n      swap1\n      pop\n        /* \"@redstone-finance/evm-connector/contracts/core/RedstoneConsumerBase.sol\":2697:2846  function aggregateValues(uint256[] memory values) public view virtual returns (uint256) {... */\n      swap2\n      swap1\n      pop\n      jump\t// out\n        /* \"@redstone-finance/evm-connector/contracts/data-services/MainDemoConsumerBase.sol\":179:298  function getDataServiceId() public view virtual override returns (string memory) {... */\n    tag_110:\n        /* \"@redstone-finance/evm-connector/contracts/data-services/MainDemoConsumerBase.sol\":245:258  string memory */\n      0x60\n        /* \"@redstone-finance/evm-connector/contracts/data-services/MainDemoConsumerBase.sol\":266:293  return \"redstone-main-demo\" */\n      mload(0x40)\n      dup1\n      0x40\n      add\n      0x40\n      mstore\n      dup1\n      0x12\n      dup2\n      mstore\n      0x20\n      add\n      0x72656473746f6e652d6d61696e2d64656d6f0000000000000000000000000000\n      dup2\n      mstore\n      pop\n      swap1\n      pop\n        /* \"@redstone-finance/evm-connector/contracts/data-services/MainDemoConsumerBase.sol\":179:298  function getDataServiceId() public view virtual override returns (string memory) {... */\n      swap1\n      jump\t// out\n        /* \"contracts/Bet.sol\":296:335  mapping (address => bool) public claims */\n    tag_116:\n      mstore(0x20, 0x05)\n      dup1\n      0x00\n      mstore\n      keccak256(0x00, 0x40)\n      0x00\n      swap2\n      pop\n      sload\n      swap1\n      0x0100\n      exp\n      swap1\n      div\n      0xff\n      and\n      dup2\n      jump\t// out\n        /* \"contracts/Bet.sol\":1313:1705  function payout(uint256 bet) public view returns(uint256) {... */\n    tag_122:\n        /* \"contracts/Bet.sol\":1362:1369  uint256 */\n      0x00\n        /* \"contracts/Bet.sol\":1381:1395  uint256 factor */\n      dup1\n        /* \"contracts/Bet.sol\":1398:1407  100000000 */\n      0x05f5e100\n        /* \"contracts/Bet.sol\":1381:1407  uint256 factor = 100000000 */\n      swap1\n      pop\n        /* \"contracts/Bet.sol\":1417:1436  uint256 winningPool */\n      0x00\n        /* \"contracts/Bet.sol\":1450:1451  1 */\n      0x01\n        /* \"contracts/Bet.sol\":1439:1446  outcome */\n      dup1\n      sload\n        /* \"contracts/Bet.sol\":1439:1451  outcome == 1 */\n      eq\n        /* \"contracts/Bet.sol\":1439:1470  outcome == 1 ? yesPool : noPool */\n      tag_227\n      jumpi\n        /* \"contracts/Bet.sol\":1464:1470  noPool */\n      sload(0x07)\n        /* \"contracts/Bet.sol\":1439:1470  outcome == 1 ? yesPool : noPool */\n      jump(tag_228)\n    tag_227:\n        /* \"contracts/Bet.sol\":1454:1461  yesPool */\n      sload(0x06)\n        /* \"contracts/Bet.sol\":1439:1470  outcome == 1 ? yesPool : noPool */\n    tag_228:\n        /* \"contracts/Bet.sol\":1417:1470  uint256 winningPool = outcome == 1 ? yesPool : noPool */\n      swap1\n      pop\n        /* \"contracts/Bet.sol\":1495:1506  winningPool */\n      dup1\n        /* \"contracts/Bet.sol\":1488:1491  bet */\n      dup5\n        /* \"contracts/Bet.sol\":1488:1506  bet <= winningPool */\n      gt\n      iszero\n        /* \"contracts/Bet.sol\":1480:1539  require(bet <= winningPool, \"Bet bigger than winning pool\") */\n      tag_229\n      jumpi\n      mload(0x40)\n      0x08c379a000000000000000000000000000000000000000000000000000000000\n      dup2\n      mstore\n      0x04\n      add\n      tag_230\n      swap1\n      tag_231\n      jump\t// in\n    tag_230:\n      mload(0x40)\n      dup1\n      swap2\n      sub\n      swap1\n      revert\n    tag_229:\n        /* \"contracts/Bet.sol\":1549:1567  uint256 losingPool */\n      0x00\n        /* \"contracts/Bet.sol\":1581:1583  -1 */\n      0xffffffffffffffffffffffffffffffffffffffffffffffffffffffffffffffff\n        /* \"contracts/Bet.sol\":1570:1577  outcome */\n      sload(0x01)\n        /* \"contracts/Bet.sol\":1570:1583  outcome == -1 */\n      eq\n        /* \"contracts/Bet.sol\":1570:1602  outcome == -1 ? noPool : yesPool */\n      tag_232\n      jumpi\n        /* \"contracts/Bet.sol\":1595:1602  yesPool */\n      sload(0x06)\n        /* \"contracts/Bet.sol\":1570:1602  outcome == -1 ? noPool : yesPool */\n      jump(tag_233)\n    tag_232:\n        /* \"contracts/Bet.sol\":1586:1592  noPool */\n      sload(0x07)\n        /* \"contracts/Bet.sol\":1570:1602  outcome == -1 ? noPool : yesPool */\n    tag_233:\n        /* \"contracts/Bet.sol\":1549:1602  uint256 losingPool = outcome == -1 ? noPool : yesPool */\n      swap1\n      pop\n        /* \"contracts/Bet.sol\":1612:1625  uint256 share */\n      0x00\n        /* \"contracts/Bet.sol\":1643:1654  winningPool */\n      dup3\n        /* \"contracts/Bet.sol\":1634:1640  factor */\n      dup5\n        /* \"contracts/Bet.sol\":1628:1631  bet */\n      dup8\n        /* \"contracts/Bet.sol\":1628:1640  bet * factor */\n      tag_234\n      swap2\n      swap1\n      tag_235\n      jump\t// in\n    tag_234:\n        /* \"contracts/Bet.sol\":1628:1654  bet * factor / winningPool */\n      tag_236\n      swap2\n      swap1\n      tag_237\n      jump\t// in\n    tag_236:\n        /* \"contracts/Bet.sol\":1612:1654  uint256 share = bet * factor / winningPool */\n      swap1\n      pop\n        /* \"contracts/Bet.sol\":1692:1698  factor */\n      dup4\n        /* \"contracts/Bet.sol\":1679:1689  losingPool */\n      dup3\n        /* \"contracts/Bet.sol\":1671:1676  share */\n      dup3\n        /* \"contracts/Bet.sol\":1671:1689  share * losingPool */\n      tag_238\n      swap2\n      swap1\n      tag_235\n      jump\t// in\n    tag_238:\n        /* \"contracts/Bet.sol\":1671:1698  share * losingPool / factor */\n      tag_239\n      swap2\n      swap1\n      tag_237\n      jump\t// in\n    tag_239:\n        /* \"contracts/Bet.sol\":1664:1698  return share * losingPool / factor */\n      swap5\n      pop\n      pop\n      pop\n      pop\n      pop\n        /* \"contracts/Bet.sol\":1313:1705  function payout(uint256 bet) public view returns(uint256) {... */\n      swap2\n      swap1\n      pop\n      jump\t// out\n        /* \"contracts/Bet.sol\":1805:1883  function getClock() public view returns(uint256) {... */\n    tag_126:\n        /* \"contracts/Bet.sol\":1845:1852  uint256 */\n      0x00\n        /* \"contracts/Bet.sol\":1871:1876  clock */\n      sload(0x08)\n        /* \"contracts/Bet.sol\":1864:1876  return clock */\n      swap1\n      pop\n        /* \"contracts/Bet.sol\":1805:1883  function getClock() public view returns(uint256) {... */\n      swap1\n      jump\t// out\n        /* \"contracts/Bet.sol\":181:199  uint256 public end */\n    tag_130:\n      sload(0x02)\n      dup2\n      jump\t// out\n        /* \"@openzeppelin/contracts/access/Ownable.sol\":2074:2272  function transferOwnership(address newOwner) public virtual onlyOwner {... */\n    tag_135:\n        /* \"@openzeppelin/contracts/access/Ownable.sol\":1094:1107  _checkOwner() */\n      tag_242\n        /* \"@openzeppelin/contracts/access/Ownable.sol\":1094:1105  _checkOwner */\n      tag_193\n        /* \"@openzeppelin/contracts/access/Ownable.sol\":1094:1107  _checkOwner() */\n      jump\t// in\n    tag_242:\n        /* \"@openzeppelin/contracts/access/Ownable.sol\":2182:2183  0 */\n      0x00\n        /* \"@openzeppelin/contracts/access/Ownable.sol\":2162:2184  newOwner != address(0) */\n      0xffffffffffffffffffffffffffffffffffffffff\n      and\n        /* \"@openzeppelin/contracts/access/Ownable.sol\":2162:2170  newOwner */\n      dup2\n        /* \"@openzeppelin/contracts/access/Ownable.sol\":2162:2184  newOwner != address(0) */\n      0xffffffffffffffffffffffffffffffffffffffff\n      and\n      sub\n        /* \"@openzeppelin/contracts/access/Ownable.sol\":2154:2227  require(newOwner != address(0), \"Ownable: new owner is the zero address\") */\n      tag_244\n      jumpi\n      mload(0x40)\n      0x08c379a000000000000000000000000000000000000000000000000000000000\n      dup2\n      mstore\n      0x04\n      add\n      tag_245\n      swap1\n      tag_246\n      jump\t// in\n    tag_245:\n      mload(0x40)\n      dup1\n      swap2\n      sub\n      swap1\n      revert\n    tag_244:\n        /* \"@openzeppelin/contracts/access/Ownable.sol\":2237:2265  _transferOwnership(newOwner) */\n      tag_247\n        /* \"@openzeppelin/contracts/access/Ownable.sol\":2256:2264  newOwner */\n      dup2\n        /* \"@openzeppelin/contracts/access/Ownable.sol\":2237:2255  _transferOwnership */\n      tag_220\n        /* \"@openzeppelin/contracts/access/Ownable.sol\":2237:2265  _transferOwnership(newOwner) */\n      jump\t// in\n    tag_247:\n        /* \"@openzeppelin/contracts/access/Ownable.sol\":2074:2272  function transferOwnership(address newOwner) public virtual onlyOwner {... */\n      pop\n      jump\t// out\n        /* \"contracts/PriceBet.sol\":486:584  function validateTimestamp(uint256 receivedTimestampMilliseconds) public view virtual override { } */\n    tag_139:\n      pop\n      jump\t// out\n        /* \"@redstone-finance/evm-connector/contracts/data-services/MainDemoConsumerBase.sol\":302:403  function getUniqueSignersThreshold() public view virtual override returns (uint8) {... */\n    tag_142:\n        /* \"@redstone-finance/evm-connector/contracts/data-services/MainDemoConsumerBase.sol\":377:382  uint8 */\n      0x00\n        /* \"@redstone-finance/evm-connector/contracts/data-services/MainDemoConsumerBase.sol\":397:398  1 */\n      0x01\n        /* \"@redstone-finance/evm-connector/contracts/data-services/MainDemoConsumerBase.sol\":390:398  return 1 */\n      swap1\n      pop\n        /* \"@redstone-finance/evm-connector/contracts/data-services/MainDemoConsumerBase.sol\":302:403  function getUniqueSignersThreshold() public view virtual override returns (uint8) {... */\n      swap1\n      jump\t// out\n        /* \"@redstone-finance/evm-connector/contracts/core/RedstoneConsumerNumericBase.sol\":1257:1526  function getOracleNumericValueFromTxMsg(bytes32 dataFeedId)... */\n    tag_173:\n        /* \"@redstone-finance/evm-connector/contracts/core/RedstoneConsumerNumericBase.sol\":1364:1371  uint256 */\n      0x00\n        /* \"@redstone-finance/evm-connector/contracts/core/RedstoneConsumerNumericBase.sol\":1381:1409  bytes32[] memory dataFeedIds */\n      dup1\n        /* \"@redstone-finance/evm-connector/contracts/core/RedstoneConsumerNumericBase.sol\":1426:1427  1 */\n      0x01\n        /* \"@redstone-finance/evm-connector/contracts/core/RedstoneConsumerNumericBase.sol\":1412:1428  new bytes32[](1) */\n      0xffffffffffffffff\n      dup2\n      gt\n      iszero\n      tag_251\n      jumpi\n      tag_252\n      tag_253\n      jump\t// in\n    tag_252:\n    tag_251:\n      mload(0x40)\n      swap1\n      dup1\n      dup3\n      mstore\n      dup1\n      0x20\n      mul\n      0x20\n      add\n      dup3\n      add\n      0x40\n      mstore\n      dup1\n      iszero\n      tag_254\n      jumpi\n      dup2\n      0x20\n      add\n      0x20\n      dup3\n      mul\n      dup1\n      calldatasize\n      dup4\n      calldatacopy\n      dup1\n      dup3\n      add\n      swap2\n      pop\n      pop\n      swap1\n      pop\n    tag_254:\n      pop\n        /* \"@redstone-finance/evm-connector/contracts/core/RedstoneConsumerNumericBase.sol\":1381:1428  bytes32[] memory dataFeedIds = new bytes32[](1) */\n      swap1\n      pop\n        /* \"@redstone-finance/evm-connector/contracts/core/RedstoneConsumerNumericBase.sol\":1451:1461  dataFeedId */\n      dup3\n        /* \"@redstone-finance/evm-connector/contracts/core/RedstoneConsumerNumericBase.sol\":1434:1445  dataFeedIds */\n      dup2\n        /* \"@redstone-finance/evm-connector/contracts/core/RedstoneConsumerNumericBase.sol\":1446:1447  0 */\n      0x00\n        /* \"@redstone-finance/evm-connector/contracts/core/RedstoneConsumerNumericBase.sol\":1434:1448  dataFeedIds[0] */\n      dup2\n      mload\n      dup2\n      lt\n      tag_255\n      jumpi\n      tag_256\n      tag_257\n      jump\t// in\n    tag_256:\n    tag_255:\n      0x20\n      mul\n      0x20\n      add\n      add\n        /* \"@redstone-finance/evm-connector/contracts/core/RedstoneConsumerNumericBase.sol\":1434:1461  dataFeedIds[0] = dataFeedId */\n      dup2\n      dup2\n      mstore\n      pop\n      pop\n        /* \"@redstone-finance/evm-connector/contracts/core/RedstoneConsumerNumericBase.sol\":1474:1518  getOracleNumericValuesFromTxMsg(dataFeedIds) */\n      tag_258\n        /* \"@redstone-finance/evm-connector/contracts/core/RedstoneConsumerNumericBase.sol\":1506:1517  dataFeedIds */\n      dup2\n        /* \"@redstone-finance/evm-connector/contracts/core/RedstoneConsumerNumericBase.sol\":1474:1505  getOracleNumericValuesFromTxMsg */\n      tag_259\n        /* \"@redstone-finance/evm-connector/contracts/core/RedstoneConsumerNumericBase.sol\":1474:1518  getOracleNumericValuesFromTxMsg(dataFeedIds) */\n      jump\t// in\n    tag_258:\n        /* \"@redstone-finance/evm-connector/contracts/core/RedstoneConsumerNumericBase.sol\":1519:1520  0 */\n      0x00\n        /* \"@redstone-finance/evm-connector/contracts/core/RedstoneConsumerNumericBase.sol\":1474:1521  getOracleNumericValuesFromTxMsg(dataFeedIds)[0] */\n      dup2\n      mload\n      dup2\n      lt\n      tag_260\n      jumpi\n      tag_261\n      tag_257\n      jump\t// in\n    tag_261:\n    tag_260:\n      0x20\n      mul\n      0x20\n      add\n      add\n      mload\n        /* \"@redstone-finance/evm-connector/contracts/core/RedstoneConsumerNumericBase.sol\":1467:1521  return getOracleNumericValuesFromTxMsg(dataFeedIds)[0] */\n      swap2\n      pop\n      pop\n        /* \"@redstone-finance/evm-connector/contracts/core/RedstoneConsumerNumericBase.sol\":1257:1526  function getOracleNumericValueFromTxMsg(bytes32 dataFeedId)... */\n      swap2\n      swap1\n      pop\n      jump\t// out\n        /* \"@openzeppelin/contracts/access/Ownable.sol\":1359:1489  function _checkOwner() internal view virtual {... */\n    tag_193:\n        /* \"@openzeppelin/contracts/access/Ownable.sol\":1433:1445  _msgSender() */\n      tag_263\n        /* \"@openzeppelin/contracts/access/Ownable.sol\":1433:1443  _msgSender */\n      tag_264\n        /* \"@openzeppelin/contracts/access/Ownable.sol\":1433:1445  _msgSender() */\n      jump\t// in\n    tag_263:\n        /* \"@openzeppelin/contracts/access/Ownable.sol\":1422:1445  owner() == _msgSender() */\n      0xffffffffffffffffffffffffffffffffffffffff\n      and\n        /* \"@openzeppelin/contracts/access/Ownable.sol\":1422:1429  owner() */\n      tag_265\n        /* \"@openzeppelin/contracts/access/Ownable.sol\":1422:1427  owner */\n      tag_91\n        /* \"@openzeppelin/contracts/access/Ownable.sol\":1422:1429  owner() */\n      jump\t// in\n    tag_265:\n        /* \"@openzeppelin/contracts/access/Ownable.sol\":1422:1445  owner() == _msgSender() */\n      0xffffffffffffffffffffffffffffffffffffffff\n      and\n      eq\n        /* \"@openzeppelin/contracts/access/Ownable.sol\":1414:1482  require(owner() == _msgSender(), \"Ownable: caller is not the owner\") */\n      tag_266\n      jumpi\n      mload(0x40)\n      0x08c379a000000000000000000000000000000000000000000000000000000000\n      dup2\n      mstore\n      0x04\n      add\n      tag_267\n      swap1\n      tag_268\n      jump\t// in\n    tag_267:\n      mload(0x40)\n      dup1\n      swap2\n      sub\n      swap1\n      revert\n    tag_266:\n        /* \"@openzeppelin/contracts/access/Ownable.sol\":1359:1489  function _checkOwner() internal view virtual {... */\n      jump\t// out\n        /* \"@redstone-finance/evm-connector/contracts/core/CalldataExtractor.sol\":2410:3579  function _extractByteSizeOfUnsignedMetadata() internal pure returns (uint256) {... */\n    tag_197:\n        /* \"@redstone-finance/evm-connector/contracts/core/CalldataExtractor.sol\":2479:2486  uint256 */\n      0x00\n        /* \"@redstone-finance/evm-connector/contracts/core/CalldataExtractor.sol\":2556:2583  bool hasValidRedstoneMarker */\n      dup1\n        /* \"@redstone-finance/evm-connector/contracts/core/CalldataExtractor.sol\":2666:2682  STANDARD_SLOT_BS */\n      0x20\n        /* \"@redstone-finance/evm-connector/contracts/core/CalldataExtractor.sol\":2650:2664  calldatasize() */\n      calldatasize\n        /* \"@redstone-finance/evm-connector/contracts/core/CalldataExtractor.sol\":2646:2683  sub(calldatasize(), STANDARD_SLOT_BS) */\n      sub\n        /* \"@redstone-finance/evm-connector/contracts/core/CalldataExtractor.sol\":2633:2684  calldataload(sub(calldatasize(), STANDARD_SLOT_BS)) */\n      calldataload\n        /* \"@redstone-finance/evm-connector/contracts/core/CalldataExtractor.sol\":2784:2804  REDSTONE_MARKER_MASK */\n      0x02ed57011e0000\n        /* \"@redstone-finance/evm-connector/contracts/core/CalldataExtractor.sol\":2763:2782  calldataLast32Bytes */\n      dup2\n        /* \"@redstone-finance/evm-connector/contracts/core/CalldataExtractor.sol\":2759:2805  and(calldataLast32Bytes, REDSTONE_MARKER_MASK) */\n      and\n        /* \"@redstone-finance/evm-connector/contracts/core/CalldataExtractor.sol\":2729:2749  REDSTONE_MARKER_MASK */\n      0x02ed57011e0000\n        /* \"@redstone-finance/evm-connector/contracts/core/CalldataExtractor.sol\":2717:2813  eq(... */\n      eq\n        /* \"@redstone-finance/evm-connector/contracts/core/CalldataExtractor.sol\":2691:2813  hasValidRedstoneMarker := eq(... */\n      swap2\n      pop\n        /* \"@redstone-finance/evm-connector/contracts/core/CalldataExtractor.sol\":2598:2819  {... */\n      pop\n        /* \"@redstone-finance/evm-connector/contracts/core/CalldataExtractor.sol\":2829:2851  hasValidRedstoneMarker */\n      dup1\n        /* \"@redstone-finance/evm-connector/contracts/core/CalldataExtractor.sol\":2824:2905  if (!hasValidRedstoneMarker) {... */\n      tag_270\n      jumpi\n        /* \"@redstone-finance/evm-connector/contracts/core/CalldataExtractor.sol\":2868:2898  CalldataMustHaveValidPayload() */\n      mload(0x40)\n      0xe7764c9e00000000000000000000000000000000000000000000000000000000\n      dup2\n      mstore\n      0x04\n      add\n      mload(0x40)\n      dup1\n      swap2\n      sub\n      swap1\n      revert\n        /* \"@redstone-finance/evm-connector/contracts/core/CalldataExtractor.sol\":2824:2905  if (!hasValidRedstoneMarker) {... */\n    tag_270:\n        /* \"@redstone-finance/evm-connector/contracts/core/CalldataExtractor.sol\":2987:3018  uint24 unsignedMetadataByteSize */\n      0x00\n        /* \"@redstone-finance/evm-connector/contracts/core/CalldataExtractor.sol\":3071:3079  msg.data */\n      dup1\n      calldatasize\n        /* \"@redstone-finance/evm-connector/contracts/core/CalldataExtractor.sol\":3071:3086  msg.data.length */\n      swap1\n      pop\n        /* \"@redstone-finance/evm-connector/contracts/core/RedstoneConstants.sol\":2230:2232  41 */\n      0x29\n        /* \"@redstone-finance/evm-connector/contracts/core/CalldataExtractor.sol\":3028:3086  REDSTONE_MARKER_BS_PLUS_STANDARD_SLOT_BS > msg.data.length */\n      gt\n        /* \"@redstone-finance/evm-connector/contracts/core/CalldataExtractor.sol\":3024:3135  if (REDSTONE_MARKER_BS_PLUS_STANDARD_SLOT_BS > msg.data.length) {... */\n      iszero\n      tag_271\n      jumpi\n        /* \"@redstone-finance/evm-connector/contracts/core/CalldataExtractor.sol\":3103:3128  CalldataOverOrUnderFlow() */\n      mload(0x40)\n      0x5796f78a00000000000000000000000000000000000000000000000000000000\n      dup2\n      mstore\n      0x04\n      add\n      mload(0x40)\n      dup1\n      swap2\n      sub\n      swap1\n      revert\n        /* \"@redstone-finance/evm-connector/contracts/core/CalldataExtractor.sol\":3024:3135  if (REDSTONE_MARKER_BS_PLUS_STANDARD_SLOT_BS > msg.data.length) {... */\n    tag_271:\n        /* \"@redstone-finance/evm-connector/contracts/core/CalldataExtractor.sol\":3227:3267  REDSTONE_MARKER_BS_PLUS_STANDARD_SLOT_BS */\n      0x29\n        /* \"@redstone-finance/evm-connector/contracts/core/CalldataExtractor.sol\":3211:3225  calldatasize() */\n      calldatasize\n        /* \"@redstone-finance/evm-connector/contracts/core/CalldataExtractor.sol\":3207:3268  sub(calldatasize(), REDSTONE_MARKER_BS_PLUS_STANDARD_SLOT_BS) */\n      sub\n        /* \"@redstone-finance/evm-connector/contracts/core/CalldataExtractor.sol\":3185:3276  calldataload(... */\n      calldataload\n        /* \"@redstone-finance/evm-connector/contracts/core/CalldataExtractor.sol\":3157:3276  unsignedMetadataByteSize := calldataload(... */\n      swap1\n      pop\n        /* \"@redstone-finance/evm-connector/contracts/core/CalldataExtractor.sol\":3287:3317  uint256 calldataNegativeOffset */\n      0x00\n        /* \"@redstone-finance/evm-connector/contracts/core/RedstoneConstants.sol\":1479:1480  9 */\n      0x09\n        /* \"@redstone-finance/evm-connector/contracts/core/RedstoneConstants.sol\":1427:1428  3 */\n      0x03\n        /* \"@redstone-finance/evm-connector/contracts/core/CalldataExtractor.sol\":3320:3344  unsignedMetadataByteSize */\n      dup4\n        /* \"@redstone-finance/evm-connector/contracts/core/CalldataExtractor.sol\":3320:3383  unsignedMetadataByteSize... */\n      0xffffff\n      and\n      tag_272\n      swap2\n      swap1\n      tag_156\n      jump\t// in\n    tag_272:\n        /* \"@redstone-finance/evm-connector/contracts/core/CalldataExtractor.sol\":3320:3410  unsignedMetadataByteSize... */\n      tag_273\n      swap2\n      swap1\n      tag_156\n      jump\t// in\n    tag_273:\n        /* \"@redstone-finance/evm-connector/contracts/core/CalldataExtractor.sol\":3287:3410  uint256 calldataNegativeOffset = unsignedMetadataByteSize... */\n      swap1\n      pop\n        /* \"@redstone-finance/evm-connector/contracts/core/CalldataExtractor.sol\":3470:3478  msg.data */\n      0x00\n      calldatasize\n        /* \"@redstone-finance/evm-connector/contracts/core/CalldataExtractor.sol\":3470:3485  msg.data.length */\n      swap1\n      pop\n        /* \"@redstone-finance/evm-connector/contracts/core/RedstoneConstants.sol\":1129:1130  2 */\n      0x02\n        /* \"@redstone-finance/evm-connector/contracts/core/CalldataExtractor.sol\":3420:3442  calldataNegativeOffset */\n      dup3\n        /* \"@redstone-finance/evm-connector/contracts/core/CalldataExtractor.sol\":3420:3467  calldataNegativeOffset + DATA_PACKAGES_COUNT_BS */\n      tag_274\n      swap2\n      swap1\n      tag_156\n      jump\t// in\n    tag_274:\n        /* \"@redstone-finance/evm-connector/contracts/core/CalldataExtractor.sol\":3420:3485  calldataNegativeOffset + DATA_PACKAGES_COUNT_BS > msg.data.length */\n      gt\n        /* \"@redstone-finance/evm-connector/contracts/core/CalldataExtractor.sol\":3416:3540  if (calldataNegativeOffset + DATA_PACKAGES_COUNT_BS > msg.data.length) {... */\n      iszero\n      tag_275\n      jumpi\n        /* \"@redstone-finance/evm-connector/contracts/core/CalldataExtractor.sol\":3502:3533  IncorrectUnsignedMetadataSize() */\n      mload(0x40)\n      0xc30a7bd700000000000000000000000000000000000000000000000000000000\n      dup2\n      mstore\n      0x04\n      add\n      mload(0x40)\n      dup1\n      swap2\n      sub\n      swap1\n      revert\n        /* \"@redstone-finance/evm-connector/contracts/core/CalldataExtractor.sol\":3416:3540  if (calldataNegativeOffset + DATA_PACKAGES_COUNT_BS > msg.data.length) {... */\n    tag_275:\n        /* \"@redstone-finance/evm-connector/contracts/core/CalldataExtractor.sol\":3552:3574  calldataNegativeOffset */\n      dup1\n        /* \"@redstone-finance/evm-connector/contracts/core/CalldataExtractor.sol\":3545:3574  return calldataNegativeOffset */\n      swap4\n      pop\n      pop\n      pop\n      pop\n        /* \"@redstone-finance/evm-connector/contracts/core/CalldataExtractor.sol\":2410:3579  function _extractByteSizeOfUnsignedMetadata() internal pure returns (uint256) {... */\n      swap1\n      jump\t// out\n        /* \"@redstone-finance/evm-connector/contracts/core/CalldataExtractor.sol\":3661:4273  function _extractDataPackagesCountFromCalldata(uint256 calldataNegativeOffset)... */\n    tag_199:\n        /* \"@redstone-finance/evm-connector/contracts/core/CalldataExtractor.sol\":3775:3799  uint16 dataPackagesCount */\n      0x00\n        /* \"@redstone-finance/evm-connector/contracts/core/CalldataExtractor.sol\":3801:3835  uint256 nextCalldataNegativeOffset */\n      dup1\n        /* \"@redstone-finance/evm-connector/contracts/core/CalldataExtractor.sol\":3845:3891  uint256 calldataNegativeOffsetWithStandardSlot */\n      0x00\n        /* \"@redstone-finance/evm-connector/contracts/core/RedstoneConstants.sol\":524:526  32 */\n      0x20\n        /* \"@redstone-finance/evm-connector/contracts/core/CalldataExtractor.sol\":3894:3916  calldataNegativeOffset */\n      dup5\n        /* \"@redstone-finance/evm-connector/contracts/core/CalldataExtractor.sol\":3894:3935  calldataNegativeOffset + STANDARD_SLOT_BS */\n      tag_277\n      swap2\n      swap1\n      tag_156\n      jump\t// in\n    tag_277:\n        /* \"@redstone-finance/evm-connector/contracts/core/CalldataExtractor.sol\":3845:3935  uint256 calldataNegativeOffsetWithStandardSlot = calldataNegativeOffset + STANDARD_SLOT_BS */\n      swap1\n      pop\n        /* \"@redstone-finance/evm-connector/contracts/core/CalldataExtractor.sol\":3986:3994  msg.data */\n      0x00\n      calldatasize\n        /* \"@redstone-finance/evm-connector/contracts/core/CalldataExtractor.sol\":3986:4001  msg.data.length */\n      swap1\n      pop\n        /* \"@redstone-finance/evm-connector/contracts/core/CalldataExtractor.sol\":3945:3983  calldataNegativeOffsetWithStandardSlot */\n      dup2\n        /* \"@redstone-finance/evm-connector/contracts/core/CalldataExtractor.sol\":3945:4001  calldataNegativeOffsetWithStandardSlot > msg.data.length */\n      gt\n        /* \"@redstone-finance/evm-connector/contracts/core/CalldataExtractor.sol\":3941:4050  if (calldataNegativeOffsetWithStandardSlot > msg.data.length) {... */\n      iszero\n      tag_278\n      jumpi\n        /* \"@redstone-finance/evm-connector/contracts/core/CalldataExtractor.sol\":4018:4043  CalldataOverOrUnderFlow() */\n      mload(0x40)\n      0x5796f78a00000000000000000000000000000000000000000000000000000000\n      dup2\n      mstore\n      0x04\n      add\n      mload(0x40)\n      dup1\n      swap2\n      sub\n      swap1\n      revert\n        /* \"@redstone-finance/evm-connector/contracts/core/CalldataExtractor.sol\":3941:4050  if (calldataNegativeOffsetWithStandardSlot > msg.data.length) {... */\n    tag_278:\n        /* \"@redstone-finance/evm-connector/contracts/core/CalldataExtractor.sol\":4135:4173  calldataNegativeOffsetWithStandardSlot */\n      dup1\n        /* \"@redstone-finance/evm-connector/contracts/core/CalldataExtractor.sol\":4119:4133  calldatasize() */\n      calldatasize\n        /* \"@redstone-finance/evm-connector/contracts/core/CalldataExtractor.sol\":4115:4174  sub(calldatasize(), calldataNegativeOffsetWithStandardSlot) */\n      sub\n        /* \"@redstone-finance/evm-connector/contracts/core/CalldataExtractor.sol\":4093:4182  calldataload(... */\n      calldataload\n        /* \"@redstone-finance/evm-connector/contracts/core/CalldataExtractor.sol\":4072:4182  dataPackagesCount := calldataload(... */\n      swap3\n      pop\n        /* \"@redstone-finance/evm-connector/contracts/core/CalldataExtractor.sol\":4201:4218  dataPackagesCount */\n      dup3\n        /* \"@redstone-finance/evm-connector/contracts/core/RedstoneConstants.sol\":1129:1130  2 */\n      0x02\n        /* \"@redstone-finance/evm-connector/contracts/core/CalldataExtractor.sol\":4220:4242  calldataNegativeOffset */\n      dup6\n        /* \"@redstone-finance/evm-connector/contracts/core/CalldataExtractor.sol\":4220:4267  calldataNegativeOffset + DATA_PACKAGES_COUNT_BS */\n      tag_279\n      swap2\n      swap1\n      tag_156\n      jump\t// in\n    tag_279:\n        /* \"@redstone-finance/evm-connector/contracts/core/CalldataExtractor.sol\":4193:4268  return (dataPackagesCount, calldataNegativeOffset + DATA_PACKAGES_COUNT_BS) */\n      swap3\n      pop\n      swap3\n      pop\n      pop\n        /* \"@redstone-finance/evm-connector/contracts/core/CalldataExtractor.sol\":3661:4273  function _extractDataPackagesCountFromCalldata(uint256 calldataNegativeOffset)... */\n      swap2\n      pop\n      swap2\n      jump\t// out\n        /* \"@redstone-finance/evm-connector/contracts/core/CalldataExtractor.sol\":2014:2406  function _getDataPackageByteSize(uint256 calldataNegativeOffset) internal pure returns (uint256) {... */\n    tag_205:\n        /* \"@redstone-finance/evm-connector/contracts/core/CalldataExtractor.sol\":2102:2109  uint256 */\n      0x00\n        /* \"@redstone-finance/evm-connector/contracts/core/CalldataExtractor.sol\":2125:2148  uint256 dataPointsCount */\n      dup1\n        /* \"@redstone-finance/evm-connector/contracts/core/CalldataExtractor.sol\":2156:2190  uint256 eachDataPointValueByteSize */\n      0x00\n        /* \"@redstone-finance/evm-connector/contracts/core/CalldataExtractor.sol\":2199:2262  _extractDataPointsDetailsForDataPackage(calldataNegativeOffset) */\n      tag_281\n        /* \"@redstone-finance/evm-connector/contracts/core/CalldataExtractor.sol\":2239:2261  calldataNegativeOffset */\n      dup5\n        /* \"@redstone-finance/evm-connector/contracts/core/CalldataExtractor.sol\":2199:2238  _extractDataPointsDetailsForDataPackage */\n      tag_282\n        /* \"@redstone-finance/evm-connector/contracts/core/CalldataExtractor.sol\":2199:2262  _extractDataPointsDetailsForDataPackage(calldataNegativeOffset) */\n      jump\t// in\n    tag_281:\n        /* \"@redstone-finance/evm-connector/contracts/core/CalldataExtractor.sol\":2117:2262  (... */\n      swap2\n      pop\n      swap2\n      pop\n        /* \"@redstone-finance/evm-connector/contracts/core/RedstoneConstants.sol\":1926:1928  78 */\n      0x4e\n        /* \"@redstone-finance/evm-connector/contracts/core/CalldataExtractor.sol\":2330:2356  eachDataPointValueByteSize */\n      dup2\n        /* \"@redstone-finance/evm-connector/contracts/core/RedstoneConstants.sol\":1300:1302  32 */\n      0x20\n        /* \"@redstone-finance/evm-connector/contracts/core/CalldataExtractor.sol\":2307:2356  DATA_POINT_SYMBOL_BS + eachDataPointValueByteSize */\n      tag_283\n      swap2\n      swap1\n      tag_156\n      jump\t// in\n    tag_283:\n        /* \"@redstone-finance/evm-connector/contracts/core/CalldataExtractor.sol\":2282:2297  dataPointsCount */\n      dup4\n        /* \"@redstone-finance/evm-connector/contracts/core/CalldataExtractor.sol\":2282:2357  dataPointsCount *... */\n      tag_284\n      swap2\n      swap1\n      tag_235\n      jump\t// in\n    tag_284:\n        /* \"@redstone-finance/evm-connector/contracts/core/CalldataExtractor.sol\":2282:2401  dataPointsCount *... */\n      tag_285\n      swap2\n      swap1\n      tag_156\n      jump\t// in\n    tag_285:\n        /* \"@redstone-finance/evm-connector/contracts/core/CalldataExtractor.sol\":2269:2401  return... */\n      swap3\n      pop\n      pop\n      pop\n        /* \"@redstone-finance/evm-connector/contracts/core/CalldataExtractor.sol\":2014:2406  function _getDataPackageByteSize(uint256 calldataNegativeOffset) internal pure returns (uint256) {... */\n      swap2\n      swap1\n      pop\n      jump\t// out\n        /* \"@openzeppelin/contracts/access/Ownable.sol\":2426:2613  function _transferOwnership(address newOwner) internal virtual {... */\n    tag_220:\n        /* \"@openzeppelin/contracts/access/Ownable.sol\":2499:2515  address oldOwner */\n      0x00\n        /* \"@openzeppelin/contracts/access/Ownable.sol\":2518:2524  _owner */\n      dup1\n      0x00\n      swap1\n      sload\n      swap1\n      0x0100\n      exp\n      swap1\n      div\n      0xffffffffffffffffffffffffffffffffffffffff\n      and\n        /* \"@openzeppelin/contracts/access/Ownable.sol\":2499:2524  address oldOwner = _owner */\n      swap1\n      pop\n        /* \"@openzeppelin/contracts/access/Ownable.sol\":2543:2551  newOwner */\n      dup2\n        /* \"@openzeppelin/contracts/access/Ownable.sol\":2534:2540  _owner */\n      0x00\n      dup1\n        /* \"@openzeppelin/contracts/access/Ownable.sol\":2534:2551  _owner = newOwner */\n      0x0100\n      exp\n      dup2\n      sload\n      dup2\n      0xffffffffffffffffffffffffffffffffffffffff\n      mul\n      not\n      and\n      swap1\n      dup4\n      0xffffffffffffffffffffffffffffffffffffffff\n      and\n      mul\n      or\n      swap1\n      sstore\n      pop\n        /* \"@openzeppelin/contracts/access/Ownable.sol\":2597:2605  newOwner */\n      dup2\n        /* \"@openzeppelin/contracts/access/Ownable.sol\":2566:2606  OwnershipTransferred(oldOwner, newOwner) */\n      0xffffffffffffffffffffffffffffffffffffffff\n      and\n        /* \"@openzeppelin/contracts/access/Ownable.sol\":2587:2595  oldOwner */\n      dup2\n        /* \"@openzeppelin/contracts/access/Ownable.sol\":2566:2606  OwnershipTransferred(oldOwner, newOwner) */\n      0xffffffffffffffffffffffffffffffffffffffff\n      and\n      0x8be0079c531659141344cd1fd0a4f28419497f9722a3daafe3b4186f6b6457e0\n      mload(0x40)\n      mload(0x40)\n      dup1\n      swap2\n      sub\n      swap1\n      log3\n        /* \"@openzeppelin/contracts/access/Ownable.sol\":2489:2613  {... */\n      pop\n        /* \"@openzeppelin/contracts/access/Ownable.sol\":2426:2613  function _transferOwnership(address newOwner) internal virtual {... */\n      pop\n      jump\t// out\n        /* \"@redstone-finance/evm-connector/contracts/core/RedstoneDefaultsLib.sol\":1547:1681  function aggregateValues(uint256[] memory values) internal pure returns (uint256) {... */\n    tag_224:\n        /* \"@redstone-finance/evm-connector/contracts/core/RedstoneDefaultsLib.sol\":1620:1627  uint256 */\n      0x00\n        /* \"@redstone-finance/evm-connector/contracts/core/RedstoneDefaultsLib.sol\":1642:1676  NumericArrayLib.pickMedian(values) */\n      tag_288\n        /* \"@redstone-finance/evm-connector/contracts/core/RedstoneDefaultsLib.sol\":1669:1675  values */\n      dup3\n        /* \"@redstone-finance/evm-connector/contracts/core/RedstoneDefaultsLib.sol\":1642:1668  NumericArrayLib.pickMedian */\n      tag_289\n        /* \"@redstone-finance/evm-connector/contracts/core/RedstoneDefaultsLib.sol\":1642:1676  NumericArrayLib.pickMedian(values) */\n      jump\t// in\n    tag_288:\n        /* \"@redstone-finance/evm-connector/contracts/core/RedstoneDefaultsLib.sol\":1635:1676  return NumericArrayLib.pickMedian(values) */\n      swap1\n      pop\n        /* \"@redstone-finance/evm-connector/contracts/core/RedstoneDefaultsLib.sol\":1547:1681  function aggregateValues(uint256[] memory values) internal pure returns (uint256) {... */\n      swap2\n      swap1\n      pop\n      jump\t// out\n        /* \"@redstone-finance/evm-connector/contracts/core/RedstoneConsumerNumericBase.sol\":2373:2684  function getOracleNumericValuesFromTxMsg(bytes32[] memory dataFeedIds)... */\n    tag_259:\n        /* \"@redstone-finance/evm-connector/contracts/core/RedstoneConsumerNumericBase.sol\":2491:2507  uint256[] memory */\n      0x60\n        /* \"@redstone-finance/evm-connector/contracts/core/RedstoneConsumerNumericBase.sol\":2518:2541  uint256[] memory values */\n      0x00\n        /* \"@redstone-finance/evm-connector/contracts/core/RedstoneConsumerNumericBase.sol\":2543:2560  uint256 timestamp */\n      dup1\n        /* \"@redstone-finance/evm-connector/contracts/core/RedstoneConsumerNumericBase.sol\":2564:2626  _securelyExtractOracleValuesAndTimestampFromTxMsg(dataFeedIds) */\n      tag_291\n        /* \"@redstone-finance/evm-connector/contracts/core/RedstoneConsumerNumericBase.sol\":2614:2625  dataFeedIds */\n      dup5\n        /* \"@redstone-finance/evm-connector/contracts/core/RedstoneConsumerNumericBase.sol\":2564:2613  _securelyExtractOracleValuesAndTimestampFromTxMsg */\n      tag_292\n        /* \"@redstone-finance/evm-connector/contracts/core/RedstoneConsumerNumericBase.sol\":2564:2626  _securelyExtractOracleValuesAndTimestampFromTxMsg(dataFeedIds) */\n      jump\t// in\n    tag_291:\n        /* \"@redstone-finance/evm-connector/contracts/core/RedstoneConsumerNumericBase.sol\":2517:2626  (uint256[] memory values, uint256 timestamp) = _securelyExtractOracleValuesAndTimestampFromTxMsg(dataFeedIds) */\n      swap2\n      pop\n      swap2\n      pop\n        /* \"@redstone-finance/evm-connector/contracts/core/RedstoneConsumerNumericBase.sol\":2632:2660  validateTimestamp(timestamp) */\n      tag_293\n        /* \"@redstone-finance/evm-connector/contracts/core/RedstoneConsumerNumericBase.sol\":2650:2659  timestamp */\n      dup2\n        /* \"@redstone-finance/evm-connector/contracts/core/RedstoneConsumerNumericBase.sol\":2632:2649  validateTimestamp */\n      tag_139\n        /* \"@redstone-finance/evm-connector/contracts/core/RedstoneConsumerNumericBase.sol\":2632:2660  validateTimestamp(timestamp) */\n      jump\t// in\n    tag_293:\n        /* \"@redstone-finance/evm-connector/contracts/core/RedstoneConsumerNumericBase.sol\":2673:2679  values */\n      dup2\n        /* \"@redstone-finance/evm-connector/contracts/core/RedstoneConsumerNumericBase.sol\":2666:2679  return values */\n      swap3\n      pop\n      pop\n      pop\n        /* \"@redstone-finance/evm-connector/contracts/core/RedstoneConsumerNumericBase.sol\":2373:2684  function getOracleNumericValuesFromTxMsg(bytes32[] memory dataFeedIds)... */\n      swap2\n      swap1\n      pop\n      jump\t// out\n        /* \"@openzeppelin/contracts/utils/Context.sol\":655:751  function _msgSender() internal view virtual returns (address) {... */\n    tag_264:\n        /* \"@openzeppelin/contracts/utils/Context.sol\":708:715  address */\n      0x00\n        /* \"@openzeppelin/contracts/utils/Context.sol\":734:744  msg.sender */\n      caller\n        /* \"@openzeppelin/contracts/utils/Context.sol\":727:744  return msg.sender */\n      swap1\n      pop\n        /* \"@openzeppelin/contracts/utils/Context.sol\":655:751  function _msgSender() internal view virtual returns (address) {... */\n      swap1\n      jump\t// out\n        /* \"@redstone-finance/evm-connector/contracts/core/CalldataExtractor.sol\":4955:5916  function _extractDataPointsDetailsForDataPackage(uint256 calldataNegativeOffsetForDataPackage)... */\n    tag_282:\n        /* \"@redstone-finance/evm-connector/contracts/core/CalldataExtractor.sol\":5085:5108  uint256 dataPointsCount */\n      0x00\n        /* \"@redstone-finance/evm-connector/contracts/core/CalldataExtractor.sol\":5110:5144  uint256 eachDataPointValueByteSize */\n      dup1\n        /* \"@redstone-finance/evm-connector/contracts/core/CalldataExtractor.sol\":5230:5253  uint24 dataPointsCount_ */\n      0x00\n        /* \"@redstone-finance/evm-connector/contracts/core/CalldataExtractor.sol\":5328:5362  uint32 eachDataPointValueByteSize_ */\n      dup1\n        /* \"@redstone-finance/evm-connector/contracts/core/CalldataExtractor.sol\":5402:5424  uint256 calldataOffset */\n      0x00\n        /* \"@redstone-finance/evm-connector/contracts/core/RedstoneConstants.sol\":524:526  32 */\n      0x20\n        /* \"@redstone-finance/evm-connector/contracts/core/RedstoneConstants.sol\":1026:1028  65 */\n      0x41\n        /* \"@redstone-finance/evm-connector/contracts/core/CalldataExtractor.sol\":5446:5482  calldataNegativeOffsetForDataPackage */\n      dup8\n        /* \"@redstone-finance/evm-connector/contracts/core/CalldataExtractor.sol\":5446:5491  calldataNegativeOffsetForDataPackage + SIG_BS */\n      tag_296\n      swap2\n      swap1\n      tag_156\n      jump\t// in\n    tag_296:\n        /* \"@redstone-finance/evm-connector/contracts/core/CalldataExtractor.sol\":5446:5510  calldataNegativeOffsetForDataPackage + SIG_BS + STANDARD_SLOT_BS */\n      tag_297\n      swap2\n      swap1\n      tag_156\n      jump\t// in\n    tag_297:\n        /* \"@redstone-finance/evm-connector/contracts/core/CalldataExtractor.sol\":5427:5435  msg.data */\n      0x00\n      calldatasize\n        /* \"@redstone-finance/evm-connector/contracts/core/CalldataExtractor.sol\":5427:5442  msg.data.length */\n      swap1\n      pop\n        /* \"@redstone-finance/evm-connector/contracts/core/CalldataExtractor.sol\":5427:5511  msg.data.length - (calldataNegativeOffsetForDataPackage + SIG_BS + STANDARD_SLOT_BS) */\n      tag_298\n      swap2\n      swap1\n      tag_208\n      jump\t// in\n    tag_298:\n        /* \"@redstone-finance/evm-connector/contracts/core/CalldataExtractor.sol\":5402:5511  uint256 calldataOffset = msg.data.length - (calldataNegativeOffsetForDataPackage + SIG_BS + STANDARD_SLOT_BS) */\n      swap1\n      pop\n        /* \"@redstone-finance/evm-connector/contracts/core/CalldataExtractor.sol\":5567:5581  calldataOffset */\n      dup1\n        /* \"@redstone-finance/evm-connector/contracts/core/CalldataExtractor.sol\":5554:5582  calldataload(calldataOffset) */\n      calldataload\n        /* \"@redstone-finance/evm-connector/contracts/core/CalldataExtractor.sol\":5534:5582  dataPointsCount_ := calldataload(calldataOffset) */\n      swap3\n      pop\n        /* \"@redstone-finance/evm-connector/contracts/core/RedstoneConstants.sol\":1183:1184  3 */\n      0x03\n        /* \"@redstone-finance/evm-connector/contracts/core/CalldataExtractor.sol\":5653:5667  calldataOffset */\n      dup2\n        /* \"@redstone-finance/evm-connector/contracts/core/CalldataExtractor.sol\":5653:5690  calldataOffset - DATA_POINTS_COUNT_BS */\n      tag_299\n      swap2\n      swap1\n      tag_208\n      jump\t// in\n    tag_299:\n        /* \"@redstone-finance/evm-connector/contracts/core/CalldataExtractor.sol\":5636:5690  calldataOffset = calldataOffset - DATA_POINTS_COUNT_BS */\n      swap1\n      pop\n        /* \"@redstone-finance/evm-connector/contracts/core/CalldataExtractor.sol\":5757:5771  calldataOffset */\n      dup1\n        /* \"@redstone-finance/evm-connector/contracts/core/CalldataExtractor.sol\":5744:5772  calldataload(calldataOffset) */\n      calldataload\n        /* \"@redstone-finance/evm-connector/contracts/core/CalldataExtractor.sol\":5713:5772  eachDataPointValueByteSize_ := calldataload(calldataOffset) */\n      swap2\n      pop\n        /* \"@redstone-finance/evm-connector/contracts/core/CalldataExtractor.sol\":5833:5849  dataPointsCount_ */\n      dup3\n        /* \"@redstone-finance/evm-connector/contracts/core/CalldataExtractor.sol\":5815:5849  dataPointsCount = dataPointsCount_ */\n      0xffffff\n      and\n      swap5\n      pop\n        /* \"@redstone-finance/evm-connector/contracts/core/CalldataExtractor.sol\":5884:5911  eachDataPointValueByteSize_ */\n      dup2\n        /* \"@redstone-finance/evm-connector/contracts/core/CalldataExtractor.sol\":5855:5911  eachDataPointValueByteSize = eachDataPointValueByteSize_ */\n      0xffffffff\n      and\n      swap4\n      pop\n        /* \"@redstone-finance/evm-connector/contracts/core/CalldataExtractor.sol\":5148:5916  {... */\n      pop\n      pop\n      pop\n        /* \"@redstone-finance/evm-connector/contracts/core/CalldataExtractor.sol\":4955:5916  function _extractDataPointsDetailsForDataPackage(uint256 calldataNegativeOffsetForDataPackage)... */\n      swap2\n      pop\n      swap2\n      jump\t// out\n        /* \"@redstone-finance/evm-connector/contracts/libs/NumericArrayLib.sol\":389:836  function pickMedian(uint256[] memory arr) internal pure returns (uint256) {... */\n    tag_289:\n        /* \"@redstone-finance/evm-connector/contracts/libs/NumericArrayLib.sol\":454:461  uint256 */\n      0x00\n        /* \"@redstone-finance/evm-connector/contracts/libs/NumericArrayLib.sol\":487:488  2 */\n      0x02\n        /* \"@redstone-finance/evm-connector/contracts/libs/NumericArrayLib.sol\":473:476  arr */\n      dup3\n        /* \"@redstone-finance/evm-connector/contracts/libs/NumericArrayLib.sol\":473:483  arr.length */\n      mload\n        /* \"@redstone-finance/evm-connector/contracts/libs/NumericArrayLib.sol\":473:488  arr.length == 2 */\n      sub\n        /* \"@redstone-finance/evm-connector/contracts/libs/NumericArrayLib.sol\":469:533  if (arr.length == 2) {... */\n      tag_301\n      jumpi\n        /* \"@redstone-finance/evm-connector/contracts/libs/NumericArrayLib.sol\":525:526  2 */\n      0x02\n        /* \"@redstone-finance/evm-connector/contracts/libs/NumericArrayLib.sol\":515:518  arr */\n      dup3\n        /* \"@redstone-finance/evm-connector/contracts/libs/NumericArrayLib.sol\":519:520  1 */\n      0x01\n        /* \"@redstone-finance/evm-connector/contracts/libs/NumericArrayLib.sol\":515:521  arr[1] */\n      dup2\n      mload\n      dup2\n      lt\n      tag_302\n      jumpi\n      tag_303\n      tag_257\n      jump\t// in\n    tag_303:\n    tag_302:\n      0x20\n      mul\n      0x20\n      add\n      add\n      mload\n        /* \"@redstone-finance/evm-connector/contracts/libs/NumericArrayLib.sol\":506:509  arr */\n      dup4\n        /* \"@redstone-finance/evm-connector/contracts/libs/NumericArrayLib.sol\":510:511  0 */\n      0x00\n        /* \"@redstone-finance/evm-connector/contracts/libs/NumericArrayLib.sol\":506:512  arr[0] */\n      dup2\n      mload\n      dup2\n      lt\n      tag_304\n      jumpi\n      tag_305\n      tag_257\n      jump\t// in\n    tag_305:\n    tag_304:\n      0x20\n      mul\n      0x20\n      add\n      add\n      mload\n        /* \"@redstone-finance/evm-connector/contracts/libs/NumericArrayLib.sol\":506:521  arr[0] + arr[1] */\n      tag_306\n      swap2\n      swap1\n      tag_156\n      jump\t// in\n    tag_306:\n        /* \"@redstone-finance/evm-connector/contracts/libs/NumericArrayLib.sol\":505:526  (arr[0] + arr[1]) / 2 */\n      tag_307\n      swap2\n      swap1\n      tag_237\n      jump\t// in\n    tag_307:\n        /* \"@redstone-finance/evm-connector/contracts/libs/NumericArrayLib.sol\":498:526  return (arr[0] + arr[1]) / 2 */\n      swap1\n      pop\n      jump(tag_300)\n        /* \"@redstone-finance/evm-connector/contracts/libs/NumericArrayLib.sol\":469:533  if (arr.length == 2) {... */\n    tag_301:\n        /* \"@redstone-finance/evm-connector/contracts/libs/NumericArrayLib.sol\":556:557  0 */\n      0x00\n        /* \"@redstone-finance/evm-connector/contracts/libs/NumericArrayLib.sol\":542:545  arr */\n      dup3\n        /* \"@redstone-finance/evm-connector/contracts/libs/NumericArrayLib.sol\":542:552  arr.length */\n      mload\n        /* \"@redstone-finance/evm-connector/contracts/libs/NumericArrayLib.sol\":542:557  arr.length == 0 */\n      sub\n        /* \"@redstone-finance/evm-connector/contracts/libs/NumericArrayLib.sol\":538:611  if (arr.length == 0) {... */\n      tag_308\n      jumpi\n        /* \"@redstone-finance/evm-connector/contracts/libs/NumericArrayLib.sol\":574:604  CanNotPickMedianOfEmptyArray() */\n      mload(0x40)\n      0x9e198af900000000000000000000000000000000000000000000000000000000\n      dup2\n      mstore\n      0x04\n      add\n      mload(0x40)\n      dup1\n      swap2\n      sub\n      swap1\n      revert\n        /* \"@redstone-finance/evm-connector/contracts/libs/NumericArrayLib.sol\":538:611  if (arr.length == 0) {... */\n    tag_308:\n        /* \"@redstone-finance/evm-connector/contracts/libs/NumericArrayLib.sol\":616:625  sort(arr) */\n      tag_309\n        /* \"@redstone-finance/evm-connector/contracts/libs/NumericArrayLib.sol\":621:624  arr */\n      dup3\n        /* \"@redstone-finance/evm-connector/contracts/libs/NumericArrayLib.sol\":616:620  sort */\n      tag_310\n        /* \"@redstone-finance/evm-connector/contracts/libs/NumericArrayLib.sol\":616:625  sort(arr) */\n      jump\t// in\n    tag_309:\n        /* \"@redstone-finance/evm-connector/contracts/libs/NumericArrayLib.sol\":631:650  uint256 middleIndex */\n      0x00\n        /* \"@redstone-finance/evm-connector/contracts/libs/NumericArrayLib.sol\":666:667  2 */\n      0x02\n        /* \"@redstone-finance/evm-connector/contracts/libs/NumericArrayLib.sol\":653:656  arr */\n      dup4\n        /* \"@redstone-finance/evm-connector/contracts/libs/NumericArrayLib.sol\":653:663  arr.length */\n      mload\n        /* \"@redstone-finance/evm-connector/contracts/libs/NumericArrayLib.sol\":653:667  arr.length / 2 */\n      tag_311\n      swap2\n      swap1\n      tag_237\n      jump\t// in\n    tag_311:\n        /* \"@redstone-finance/evm-connector/contracts/libs/NumericArrayLib.sol\":631:667  uint256 middleIndex = arr.length / 2 */\n      swap1\n      pop\n        /* \"@redstone-finance/evm-connector/contracts/libs/NumericArrayLib.sol\":695:696  0 */\n      0x00\n        /* \"@redstone-finance/evm-connector/contracts/libs/NumericArrayLib.sol\":690:691  2 */\n      0x02\n        /* \"@redstone-finance/evm-connector/contracts/libs/NumericArrayLib.sol\":677:680  arr */\n      dup5\n        /* \"@redstone-finance/evm-connector/contracts/libs/NumericArrayLib.sol\":677:687  arr.length */\n      mload\n        /* \"@redstone-finance/evm-connector/contracts/libs/NumericArrayLib.sol\":677:691  arr.length % 2 */\n      tag_312\n      swap2\n      swap1\n      tag_313\n      jump\t// in\n    tag_312:\n        /* \"@redstone-finance/evm-connector/contracts/libs/NumericArrayLib.sol\":677:696  arr.length % 2 == 0 */\n      sub\n        /* \"@redstone-finance/evm-connector/contracts/libs/NumericArrayLib.sol\":673:832  if (arr.length % 2 == 0) {... */\n      tag_314\n      jumpi\n        /* \"@redstone-finance/evm-connector/contracts/libs/NumericArrayLib.sol\":706:717  uint256 sum */\n      0x00\n        /* \"@redstone-finance/evm-connector/contracts/libs/NumericArrayLib.sol\":743:746  arr */\n      dup4\n        /* \"@redstone-finance/evm-connector/contracts/libs/NumericArrayLib.sol\":747:758  middleIndex */\n      dup3\n        /* \"@redstone-finance/evm-connector/contracts/libs/NumericArrayLib.sol\":743:759  arr[middleIndex] */\n      dup2\n      mload\n      dup2\n      lt\n      tag_315\n      jumpi\n      tag_316\n      tag_257\n      jump\t// in\n    tag_316:\n    tag_315:\n      0x20\n      mul\n      0x20\n      add\n      add\n      mload\n        /* \"@redstone-finance/evm-connector/contracts/libs/NumericArrayLib.sol\":720:723  arr */\n      dup5\n        /* \"@redstone-finance/evm-connector/contracts/libs/NumericArrayLib.sol\":738:739  1 */\n      0x01\n        /* \"@redstone-finance/evm-connector/contracts/libs/NumericArrayLib.sol\":724:735  middleIndex */\n      dup5\n        /* \"@redstone-finance/evm-connector/contracts/libs/NumericArrayLib.sol\":724:739  middleIndex - 1 */\n      tag_317\n      swap2\n      swap1\n      tag_208\n      jump\t// in\n    tag_317:\n        /* \"@redstone-finance/evm-connector/contracts/libs/NumericArrayLib.sol\":720:740  arr[middleIndex - 1] */\n      dup2\n      mload\n      dup2\n      lt\n      tag_318\n      jumpi\n      tag_319\n      tag_257\n      jump\t// in\n    tag_319:\n    tag_318:\n      0x20\n      mul\n      0x20\n      add\n      add\n      mload\n        /* \"@redstone-finance/evm-connector/contracts/libs/NumericArrayLib.sol\":720:759  arr[middleIndex - 1] + arr[middleIndex] */\n      tag_320\n      swap2\n      swap1\n      tag_156\n      jump\t// in\n    tag_320:\n        /* \"@redstone-finance/evm-connector/contracts/libs/NumericArrayLib.sol\":706:759  uint256 sum = arr[middleIndex - 1] + arr[middleIndex] */\n      swap1\n      pop\n        /* \"@redstone-finance/evm-connector/contracts/libs/NumericArrayLib.sol\":780:781  2 */\n      0x02\n        /* \"@redstone-finance/evm-connector/contracts/libs/NumericArrayLib.sol\":774:777  sum */\n      dup2\n        /* \"@redstone-finance/evm-connector/contracts/libs/NumericArrayLib.sol\":774:781  sum / 2 */\n      tag_321\n      swap2\n      swap1\n      tag_237\n      jump\t// in\n    tag_321:\n        /* \"@redstone-finance/evm-connector/contracts/libs/NumericArrayLib.sol\":767:781  return sum / 2 */\n      swap3\n      pop\n      pop\n      pop\n      jump(tag_300)\n        /* \"@redstone-finance/evm-connector/contracts/libs/NumericArrayLib.sol\":673:832  if (arr.length % 2 == 0) {... */\n    tag_314:\n        /* \"@redstone-finance/evm-connector/contracts/libs/NumericArrayLib.sol\":809:812  arr */\n      dup3\n        /* \"@redstone-finance/evm-connector/contracts/libs/NumericArrayLib.sol\":813:824  middleIndex */\n      dup2\n        /* \"@redstone-finance/evm-connector/contracts/libs/NumericArrayLib.sol\":809:825  arr[middleIndex] */\n      dup2\n      mload\n      dup2\n      lt\n      tag_323\n      jumpi\n      tag_324\n      tag_257\n      jump\t// in\n    tag_324:\n    tag_323:\n      0x20\n      mul\n      0x20\n      add\n      add\n      mload\n        /* \"@redstone-finance/evm-connector/contracts/libs/NumericArrayLib.sol\":802:825  return arr[middleIndex] */\n      swap2\n      pop\n      pop\n        /* \"@redstone-finance/evm-connector/contracts/libs/NumericArrayLib.sol\":389:836  function pickMedian(uint256[] memory arr) internal pure returns (uint256) {... */\n    tag_300:\n      swap2\n      swap1\n      pop\n      jump\t// out\n        /* \"@redstone-finance/evm-connector/contracts/core/RedstoneConsumerBase.sol\":3842:6283  function _securelyExtractOracleValuesAndTimestampFromTxMsg(bytes32[] memory dataFeedIds)... */\n    tag_292:\n        /* \"@redstone-finance/evm-connector/contracts/core/RedstoneConsumerBase.sol\":3966:3982  uint256[] memory */\n      0x60\n        /* \"@redstone-finance/evm-connector/contracts/core/RedstoneConsumerBase.sol\":3984:4013  uint256 dataPackagesTimestamp */\n      0x00\n        /* \"@redstone-finance/evm-connector/contracts/core/RedstoneConsumerBase.sol\":4083:4131  uint256[] memory uniqueSignerCountForDataFeedIds */\n      dup1\n        /* \"@redstone-finance/evm-connector/contracts/core/RedstoneConsumerBase.sol\":4148:4159  dataFeedIds */\n      dup4\n        /* \"@redstone-finance/evm-connector/contracts/core/RedstoneConsumerBase.sol\":4148:4166  dataFeedIds.length */\n      mload\n        /* \"@redstone-finance/evm-connector/contracts/core/RedstoneConsumerBase.sol\":4134:4167  new uint256[](dataFeedIds.length) */\n      0xffffffffffffffff\n      dup2\n      gt\n      iszero\n      tag_326\n      jumpi\n      tag_327\n      tag_253\n      jump\t// in\n    tag_327:\n    tag_326:\n      mload(0x40)\n      swap1\n      dup1\n      dup3\n      mstore\n      dup1\n      0x20\n      mul\n      0x20\n      add\n      dup3\n      add\n      0x40\n      mstore\n      dup1\n      iszero\n      tag_328\n      jumpi\n      dup2\n      0x20\n      add\n      0x20\n      dup3\n      mul\n      dup1\n      calldatasize\n      dup4\n      calldatacopy\n      dup1\n      dup3\n      add\n      swap2\n      pop\n      pop\n      swap1\n      pop\n    tag_328:\n      pop\n        /* \"@redstone-finance/evm-connector/contracts/core/RedstoneConsumerBase.sol\":4083:4167  uint256[] memory uniqueSignerCountForDataFeedIds = new uint256[](dataFeedIds.length) */\n      swap1\n      pop\n        /* \"@redstone-finance/evm-connector/contracts/core/RedstoneConsumerBase.sol\":4173:4217  uint256[] memory signersBitmapForDataFeedIds */\n      0x00\n        /* \"@redstone-finance/evm-connector/contracts/core/RedstoneConsumerBase.sol\":4234:4245  dataFeedIds */\n      dup5\n        /* \"@redstone-finance/evm-connector/contracts/core/RedstoneConsumerBase.sol\":4234:4252  dataFeedIds.length */\n      mload\n        /* \"@redstone-finance/evm-connector/contracts/core/RedstoneConsumerBase.sol\":4220:4253  new uint256[](dataFeedIds.length) */\n      0xffffffffffffffff\n      dup2\n      gt\n      iszero\n      tag_329\n      jumpi\n      tag_330\n      tag_253\n      jump\t// in\n    tag_330:\n    tag_329:\n      mload(0x40)\n      swap1\n      dup1\n      dup3\n      mstore\n      dup1\n      0x20\n      mul\n      0x20\n      add\n      dup3\n      add\n      0x40\n      mstore\n      dup1\n      iszero\n      tag_331\n      jumpi\n      dup2\n      0x20\n      add\n      0x20\n      dup3\n      mul\n      dup1\n      calldatasize\n      dup4\n      calldatacopy\n      dup1\n      dup3\n      add\n      swap2\n      pop\n      pop\n      swap1\n      pop\n    tag_331:\n      pop\n        /* \"@redstone-finance/evm-connector/contracts/core/RedstoneConsumerBase.sol\":4173:4253  uint256[] memory signersBitmapForDataFeedIds = new uint256[](dataFeedIds.length) */\n      swap1\n      pop\n        /* \"@redstone-finance/evm-connector/contracts/core/RedstoneConsumerBase.sol\":4259:4296  uint256[][] memory valuesForDataFeeds */\n      0x00\n        /* \"@redstone-finance/evm-connector/contracts/core/RedstoneConsumerBase.sol\":4315:4326  dataFeedIds */\n      dup6\n        /* \"@redstone-finance/evm-connector/contracts/core/RedstoneConsumerBase.sol\":4315:4333  dataFeedIds.length */\n      mload\n        /* \"@redstone-finance/evm-connector/contracts/core/RedstoneConsumerBase.sol\":4299:4334  new uint256[][](dataFeedIds.length) */\n      0xffffffffffffffff\n      dup2\n      gt\n      iszero\n      tag_332\n      jumpi\n      tag_333\n      tag_253\n      jump\t// in\n    tag_333:\n    tag_332:\n      mload(0x40)\n      swap1\n      dup1\n      dup3\n      mstore\n      dup1\n      0x20\n      mul\n      0x20\n      add\n      dup3\n      add\n      0x40\n      mstore\n      dup1\n      iszero\n      tag_334\n      jumpi\n      dup2\n      0x20\n      add\n    tag_335:\n      0x60\n      dup2\n      mstore\n      0x20\n      add\n      swap1\n      0x01\n      swap1\n      sub\n      swap1\n      dup2\n      tag_335\n      jumpi\n      swap1\n      pop\n    tag_334:\n      pop\n        /* \"@redstone-finance/evm-connector/contracts/core/RedstoneConsumerBase.sol\":4259:4334  uint256[][] memory valuesForDataFeeds = new uint256[][](dataFeedIds.length) */\n      swap1\n      pop\n        /* \"@redstone-finance/evm-connector/contracts/core/RedstoneConsumerBase.sol\":4345:4354  uint256 i */\n      0x00\n        /* \"@redstone-finance/evm-connector/contracts/core/RedstoneConsumerBase.sol\":4340:4720  for (uint256 i = 0; i < dataFeedIds.length;) {... */\n    tag_336:\n        /* \"@redstone-finance/evm-connector/contracts/core/RedstoneConsumerBase.sol\":4364:4375  dataFeedIds */\n      dup7\n        /* \"@redstone-finance/evm-connector/contracts/core/RedstoneConsumerBase.sol\":4364:4382  dataFeedIds.length */\n      mload\n        /* \"@redstone-finance/evm-connector/contracts/core/RedstoneConsumerBase.sol\":4360:4361  i */\n      dup2\n        /* \"@redstone-finance/evm-connector/contracts/core/RedstoneConsumerBase.sol\":4360:4382  i < dataFeedIds.length */\n      lt\n        /* \"@redstone-finance/evm-connector/contracts/core/RedstoneConsumerBase.sol\":4340:4720  for (uint256 i = 0; i < dataFeedIds.length;) {... */\n      iszero\n      tag_337\n      jumpi\n        /* \"@redstone-finance/evm-connector/contracts/core/RedstoneConsumerBase.sol\":4646:4673  getUniqueSignersThreshold() */\n      tag_339\n        /* \"@redstone-finance/evm-connector/contracts/core/RedstoneConsumerBase.sol\":4646:4671  getUniqueSignersThreshold */\n      tag_142\n        /* \"@redstone-finance/evm-connector/contracts/core/RedstoneConsumerBase.sol\":4646:4673  getUniqueSignersThreshold() */\n      jump\t// in\n    tag_339:\n        /* \"@redstone-finance/evm-connector/contracts/core/RedstoneConsumerBase.sol\":4632:4674  new uint256[](getUniqueSignersThreshold()) */\n      0xff\n      and\n      0xffffffffffffffff\n      dup2\n      gt\n      iszero\n      tag_340\n      jumpi\n      tag_341\n      tag_253\n      jump\t// in\n    tag_341:\n    tag_340:\n      mload(0x40)\n      swap1\n      dup1\n      dup3\n      mstore\n      dup1\n      0x20\n      mul\n      0x20\n      add\n      dup3\n      add\n      0x40\n      mstore\n      dup1\n      iszero\n      tag_342\n      jumpi\n      dup2\n      0x20\n      add\n      0x20\n      dup3\n      mul\n      dup1\n      calldatasize\n      dup4\n      calldatacopy\n      dup1\n      dup3\n      add\n      swap2\n      pop\n      pop\n      swap1\n      pop\n    tag_342:\n      pop\n        /* \"@redstone-finance/evm-connector/contracts/core/RedstoneConsumerBase.sol\":4608:4626  valuesForDataFeeds */\n      dup3\n        /* \"@redstone-finance/evm-connector/contracts/core/RedstoneConsumerBase.sol\":4627:4628  i */\n      dup3\n        /* \"@redstone-finance/evm-connector/contracts/core/RedstoneConsumerBase.sol\":4608:4629  valuesForDataFeeds[i] */\n      dup2\n      mload\n      dup2\n      lt\n      tag_343\n      jumpi\n      tag_344\n      tag_257\n      jump\t// in\n    tag_344:\n    tag_343:\n      0x20\n      mul\n      0x20\n      add\n      add\n        /* \"@redstone-finance/evm-connector/contracts/core/RedstoneConsumerBase.sol\":4608:4674  valuesForDataFeeds[i] = new uint256[](getUniqueSignersThreshold()) */\n      dup2\n      swap1\n      mstore\n      pop\n        /* \"@redstone-finance/evm-connector/contracts/core/RedstoneConsumerBase.sol\":4702:4705  i++ */\n      dup1\n      dup1\n      0x01\n      add\n      swap2\n      pop\n      pop\n        /* \"@redstone-finance/evm-connector/contracts/core/RedstoneConsumerBase.sol\":4340:4720  for (uint256 i = 0; i < dataFeedIds.length;) {... */\n      jump(tag_336)\n    tag_337:\n      pop\n        /* \"@redstone-finance/evm-connector/contracts/core/RedstoneConsumerBase.sol\":4786:4816  uint256 calldataNegativeOffset */\n      0x00\n        /* \"@redstone-finance/evm-connector/contracts/core/RedstoneConsumerBase.sol\":4819:4855  _extractByteSizeOfUnsignedMetadata() */\n      tag_345\n        /* \"@redstone-finance/evm-connector/contracts/core/RedstoneConsumerBase.sol\":4819:4853  _extractByteSizeOfUnsignedMetadata */\n      tag_197\n        /* \"@redstone-finance/evm-connector/contracts/core/RedstoneConsumerBase.sol\":4819:4855  _extractByteSizeOfUnsignedMetadata() */\n      jump\t// in\n    tag_345:\n        /* \"@redstone-finance/evm-connector/contracts/core/RedstoneConsumerBase.sol\":4786:4855  uint256 calldataNegativeOffset = _extractByteSizeOfUnsignedMetadata() */\n      swap1\n      pop\n        /* \"@redstone-finance/evm-connector/contracts/core/RedstoneConsumerBase.sol\":4861:4886  uint256 dataPackagesCount */\n      0x00\n        /* \"@redstone-finance/evm-connector/contracts/core/RedstoneConsumerBase.sol\":4938:4999  _extractDataPackagesCountFromCalldata(calldataNegativeOffset) */\n      tag_346\n        /* \"@redstone-finance/evm-connector/contracts/core/RedstoneConsumerBase.sol\":4976:4998  calldataNegativeOffset */\n      dup3\n        /* \"@redstone-finance/evm-connector/contracts/core/RedstoneConsumerBase.sol\":4938:4975  _extractDataPackagesCountFromCalldata */\n      tag_199\n        /* \"@redstone-finance/evm-connector/contracts/core/RedstoneConsumerBase.sol\":4938:4999  _extractDataPackagesCountFromCalldata(calldataNegativeOffset) */\n      jump\t// in\n    tag_346:\n        /* \"@redstone-finance/evm-connector/contracts/core/RedstoneConsumerBase.sol\":4892:4999  (dataPackagesCount, calldataNegativeOffset) = _extractDataPackagesCountFromCalldata(calldataNegativeOffset) */\n      dup2\n      0xffff\n      and\n      swap2\n      pop\n      dup1\n      swap4\n      pop\n      dup2\n      swap3\n      pop\n      pop\n      pop\n        /* \"@redstone-finance/evm-connector/contracts/core/RedstoneConsumerBase.sol\":5048:5066  uint256 freeMemPtr */\n      0x00\n        /* \"@redstone-finance/evm-connector/contracts/core/RedstoneConsumerBase.sol\":5109:5124  FREE_MEMORY_PTR */\n      0x40\n        /* \"@redstone-finance/evm-connector/contracts/core/RedstoneConsumerBase.sol\":5103:5125  mload(FREE_MEMORY_PTR) */\n      mload\n        /* \"@redstone-finance/evm-connector/contracts/core/RedstoneConsumerBase.sol\":5089:5125  freeMemPtr := mload(FREE_MEMORY_PTR) */\n      swap1\n      pop\n        /* \"@redstone-finance/evm-connector/contracts/core/RedstoneConsumerBase.sol\":5184:5208  uint256 dataPackageIndex */\n      0x00\n        /* \"@redstone-finance/evm-connector/contracts/core/RedstoneConsumerBase.sol\":5179:6069  for (uint256 dataPackageIndex = 0; dataPackageIndex < dataPackagesCount;) {... */\n    tag_347:\n        /* \"@redstone-finance/evm-connector/contracts/core/RedstoneConsumerBase.sol\":5233:5250  dataPackagesCount */\n      dup3\n        /* \"@redstone-finance/evm-connector/contracts/core/RedstoneConsumerBase.sol\":5214:5230  dataPackageIndex */\n      dup2\n        /* \"@redstone-finance/evm-connector/contracts/core/RedstoneConsumerBase.sol\":5214:5250  dataPackageIndex < dataPackagesCount */\n      lt\n        /* \"@redstone-finance/evm-connector/contracts/core/RedstoneConsumerBase.sol\":5179:6069  for (uint256 dataPackageIndex = 0; dataPackageIndex < dataPackagesCount;) {... */\n      iszero\n      tag_348\n      jumpi\n        /* \"@redstone-finance/evm-connector/contracts/core/RedstoneConsumerBase.sol\":5326:5354  uint256 dataPackageTimestamp */\n      0x00\n        /* \"@redstone-finance/evm-connector/contracts/core/RedstoneConsumerBase.sol\":5411:5597  _extractDataPackage(... */\n      tag_350\n        /* \"@redstone-finance/evm-connector/contracts/core/RedstoneConsumerBase.sol\":5440:5451  dataFeedIds */\n      dup12\n        /* \"@redstone-finance/evm-connector/contracts/core/RedstoneConsumerBase.sol\":5461:5492  uniqueSignerCountForDataFeedIds */\n      dup10\n        /* \"@redstone-finance/evm-connector/contracts/core/RedstoneConsumerBase.sol\":5502:5529  signersBitmapForDataFeedIds */\n      dup10\n        /* \"@redstone-finance/evm-connector/contracts/core/RedstoneConsumerBase.sol\":5539:5557  valuesForDataFeeds */\n      dup10\n        /* \"@redstone-finance/evm-connector/contracts/core/RedstoneConsumerBase.sol\":5567:5589  calldataNegativeOffset */\n      dup10\n        /* \"@redstone-finance/evm-connector/contracts/core/RedstoneConsumerBase.sol\":5411:5430  _extractDataPackage */\n      tag_351\n        /* \"@redstone-finance/evm-connector/contracts/core/RedstoneConsumerBase.sol\":5411:5597  _extractDataPackage(... */\n      jump\t// in\n    tag_350:\n        /* \"@redstone-finance/evm-connector/contracts/core/RedstoneConsumerBase.sol\":5362:5597  (calldataNegativeOffset, dataPackageTimestamp) = _extractDataPackage(... */\n      dup1\n      swap3\n      pop\n      dup2\n      swap7\n      pop\n      pop\n      pop\n        /* \"@redstone-finance/evm-connector/contracts/core/RedstoneConsumerBase.sol\":5634:5635  0 */\n      0x00\n        /* \"@redstone-finance/evm-connector/contracts/core/RedstoneConsumerBase.sol\":5610:5630  dataPackageTimestamp */\n      dup2\n        /* \"@redstone-finance/evm-connector/contracts/core/RedstoneConsumerBase.sol\":5610:5635  dataPackageTimestamp == 0 */\n      sub\n        /* \"@redstone-finance/evm-connector/contracts/core/RedstoneConsumerBase.sol\":5606:5690  if (dataPackageTimestamp == 0) {... */\n      tag_352\n      jumpi\n        /* \"@redstone-finance/evm-connector/contracts/core/RedstoneConsumerBase.sol\":5654:5681  DataTimestampCannotBeZero() */\n      mload(0x40)\n      0xdfb25a7900000000000000000000000000000000000000000000000000000000\n      dup2\n      mstore\n      0x04\n      add\n      mload(0x40)\n      dup1\n      swap2\n      sub\n      swap1\n      revert\n        /* \"@redstone-finance/evm-connector/contracts/core/RedstoneConsumerBase.sol\":5606:5690  if (dataPackageTimestamp == 0) {... */\n    tag_352:\n        /* \"@redstone-finance/evm-connector/contracts/core/RedstoneConsumerBase.sol\":5726:5747  dataPackagesTimestamp */\n      dup9\n        /* \"@redstone-finance/evm-connector/contracts/core/RedstoneConsumerBase.sol\":5702:5722  dataPackageTimestamp */\n      dup2\n        /* \"@redstone-finance/evm-connector/contracts/core/RedstoneConsumerBase.sol\":5702:5747  dataPackageTimestamp != dataPackagesTimestamp */\n      eq\n      iszero\n        /* \"@redstone-finance/evm-connector/contracts/core/RedstoneConsumerBase.sol\":5702:5777  dataPackageTimestamp != dataPackagesTimestamp && dataPackagesTimestamp != 0 */\n      dup1\n      iszero\n      tag_353\n      jumpi\n      pop\n        /* \"@redstone-finance/evm-connector/contracts/core/RedstoneConsumerBase.sol\":5776:5777  0 */\n      0x00\n        /* \"@redstone-finance/evm-connector/contracts/core/RedstoneConsumerBase.sol\":5751:5772  dataPackagesTimestamp */\n      dup10\n        /* \"@redstone-finance/evm-connector/contracts/core/RedstoneConsumerBase.sol\":5751:5777  dataPackagesTimestamp != 0 */\n      eq\n      iszero\n        /* \"@redstone-finance/evm-connector/contracts/core/RedstoneConsumerBase.sol\":5702:5777  dataPackageTimestamp != dataPackagesTimestamp && dataPackagesTimestamp != 0 */\n    tag_353:\n        /* \"@redstone-finance/evm-connector/contracts/core/RedstoneConsumerBase.sol\":5698:5828  if (dataPackageTimestamp != dataPackagesTimestamp && dataPackagesTimestamp != 0) {... */\n      iszero\n      tag_354\n      jumpi\n        /* \"@redstone-finance/evm-connector/contracts/core/RedstoneConsumerBase.sol\":5796:5819  TimestampsMustBeEqual() */\n      mload(0x40)\n      0x4cbc474200000000000000000000000000000000000000000000000000000000\n      dup2\n      mstore\n      0x04\n      add\n      mload(0x40)\n      dup1\n      swap2\n      sub\n      swap1\n      revert\n        /* \"@redstone-finance/evm-connector/contracts/core/RedstoneConsumerBase.sol\":5698:5828  if (dataPackageTimestamp != dataPackagesTimestamp && dataPackagesTimestamp != 0) {... */\n    tag_354:\n        /* \"@redstone-finance/evm-connector/contracts/core/RedstoneConsumerBase.sol\":5860:5880  dataPackageTimestamp */\n      dup1\n        /* \"@redstone-finance/evm-connector/contracts/core/RedstoneConsumerBase.sol\":5836:5880  dataPackagesTimestamp = dataPackageTimestamp */\n      swap9\n      pop\n        /* \"@redstone-finance/evm-connector/contracts/core/RedstoneConsumerBase.sol\":5990:6000  freeMemPtr */\n      dup3\n        /* \"@redstone-finance/evm-connector/contracts/core/RedstoneConsumerBase.sol\":5973:5988  FREE_MEMORY_PTR */\n      0x40\n        /* \"@redstone-finance/evm-connector/contracts/core/RedstoneConsumerBase.sol\":5966:6001  mstore(FREE_MEMORY_PTR, freeMemPtr) */\n      mstore\n        /* \"@redstone-finance/evm-connector/contracts/core/RedstoneConsumerBase.sol\":6036:6054  dataPackageIndex++ */\n      dup2\n      dup1\n      0x01\n      add\n      swap3\n      pop\n      pop\n        /* \"@redstone-finance/evm-connector/contracts/core/RedstoneConsumerBase.sol\":5253:6069  {... */\n      pop\n        /* \"@redstone-finance/evm-connector/contracts/core/RedstoneConsumerBase.sol\":5179:6069  for (uint256 dataPackageIndex = 0; dataPackageIndex < dataPackagesCount;) {... */\n      jump(tag_347)\n    tag_348:\n      pop\n        /* \"@redstone-finance/evm-connector/contracts/core/RedstoneConsumerBase.sol\":6181:6254  _getAggregatedValues(valuesForDataFeeds, uniqueSignerCountForDataFeedIds) */\n      tag_355\n        /* \"@redstone-finance/evm-connector/contracts/core/RedstoneConsumerBase.sol\":6202:6220  valuesForDataFeeds */\n      dup5\n        /* \"@redstone-finance/evm-connector/contracts/core/RedstoneConsumerBase.sol\":6222:6253  uniqueSignerCountForDataFeedIds */\n      dup8\n        /* \"@redstone-finance/evm-connector/contracts/core/RedstoneConsumerBase.sol\":6181:6201  _getAggregatedValues */\n      tag_356\n        /* \"@redstone-finance/evm-connector/contracts/core/RedstoneConsumerBase.sol\":6181:6254  _getAggregatedValues(valuesForDataFeeds, uniqueSignerCountForDataFeedIds) */\n      jump\t// in\n    tag_355:\n        /* \"@redstone-finance/evm-connector/contracts/core/RedstoneConsumerBase.sol\":6173:6278  return (_getAggregatedValues(valuesForDataFeeds, uniqueSignerCountForDataFeedIds), dataPackagesTimestamp) */\n      swap8\n      pop\n      pop\n      pop\n      pop\n      pop\n      pop\n      pop\n        /* \"@redstone-finance/evm-connector/contracts/core/RedstoneConsumerBase.sol\":3842:6283  function _securelyExtractOracleValuesAndTimestampFromTxMsg(bytes32[] memory dataFeedIds)... */\n      swap2\n      pop\n      swap2\n      jump\t// out\n        /* \"@redstone-finance/evm-connector/contracts/libs/NumericArrayLib.sol\":840:1590  function sort(uint256[] memory arr) internal pure {... */\n    tag_310:\n        /* \"@redstone-finance/evm-connector/contracts/libs/NumericArrayLib.sol\":936:939  arr */\n      dup1\n        /* \"@redstone-finance/evm-connector/contracts/libs/NumericArrayLib.sol\":930:940  mload(arr) */\n      mload\n        /* \"@redstone-finance/evm-connector/contracts/libs/NumericArrayLib.sol\":973:993  BYTES_ARR_LEN_VAR_BS */\n      0x20\n        /* \"@redstone-finance/evm-connector/contracts/libs/NumericArrayLib.sol\":968:971  arr */\n      dup3\n        /* \"@redstone-finance/evm-connector/contracts/libs/NumericArrayLib.sol\":964:994  add(arr, BYTES_ARR_LEN_VAR_BS) */\n      add\n        /* \"@redstone-finance/evm-connector/contracts/libs/NumericArrayLib.sol\":1045:1061  UINT256_VALUE_BS */\n      0x20\n        /* \"@redstone-finance/evm-connector/contracts/libs/NumericArrayLib.sol\":1034:1043  arrLength */\n      dup3\n        /* \"@redstone-finance/evm-connector/contracts/libs/NumericArrayLib.sol\":1030:1062  mul(arrLength, UINT256_VALUE_BS) */\n      mul\n        /* \"@redstone-finance/evm-connector/contracts/libs/NumericArrayLib.sol\":1019:1028  valuesPtr */\n      dup2\n        /* \"@redstone-finance/evm-connector/contracts/libs/NumericArrayLib.sol\":1015:1063  add(valuesPtr, mul(arrLength, UINT256_VALUE_BS)) */\n      add\n        /* \"@redstone-finance/evm-connector/contracts/libs/NumericArrayLib.sol\":1099:1108  valuesPtr */\n      dup2\n        /* \"@redstone-finance/evm-connector/contracts/libs/NumericArrayLib.sol\":1070:1580  for {... */\n    tag_358:\n        /* \"@redstone-finance/evm-connector/contracts/libs/NumericArrayLib.sol\":1129:1135  endPtr */\n      dup2\n        /* \"@redstone-finance/evm-connector/contracts/libs/NumericArrayLib.sol\":1120:1127  arrIPtr */\n      dup2\n        /* \"@redstone-finance/evm-connector/contracts/libs/NumericArrayLib.sol\":1117:1136  lt(arrIPtr, endPtr) */\n      lt\n        /* \"@redstone-finance/evm-connector/contracts/libs/NumericArrayLib.sol\":1070:1580  for {... */\n      iszero\n      tag_360\n      jumpi\n        /* \"@redstone-finance/evm-connector/contracts/libs/NumericArrayLib.sol\":1255:1264  valuesPtr */\n      dup3\n        /* \"@redstone-finance/evm-connector/contracts/libs/NumericArrayLib.sol\":1224:1572  for {... */\n    tag_361:\n        /* \"@redstone-finance/evm-connector/contracts/libs/NumericArrayLib.sol\":1287:1294  arrIPtr */\n      dup2\n        /* \"@redstone-finance/evm-connector/contracts/libs/NumericArrayLib.sol\":1278:1285  arrJPtr */\n      dup2\n        /* \"@redstone-finance/evm-connector/contracts/libs/NumericArrayLib.sol\":1275:1295  lt(arrJPtr, arrIPtr) */\n      lt\n        /* \"@redstone-finance/evm-connector/contracts/libs/NumericArrayLib.sol\":1224:1572  for {... */\n      iszero\n      tag_363\n      jumpi\n        /* \"@redstone-finance/evm-connector/contracts/libs/NumericArrayLib.sol\":1407:1414  arrIPtr */\n      dup2\n        /* \"@redstone-finance/evm-connector/contracts/libs/NumericArrayLib.sol\":1401:1415  mload(arrIPtr) */\n      mload\n        /* \"@redstone-finance/evm-connector/contracts/libs/NumericArrayLib.sol\":1444:1451  arrJPtr */\n      dup2\n        /* \"@redstone-finance/evm-connector/contracts/libs/NumericArrayLib.sol\":1438:1452  mload(arrJPtr) */\n      mload\n        /* \"@redstone-finance/evm-connector/contracts/libs/NumericArrayLib.sol\":1475:1479  arrJ */\n      dup1\n        /* \"@redstone-finance/evm-connector/contracts/libs/NumericArrayLib.sol\":1469:1473  arrI */\n      dup3\n        /* \"@redstone-finance/evm-connector/contracts/libs/NumericArrayLib.sol\":1466:1480  lt(arrI, arrJ) */\n      lt\n        /* \"@redstone-finance/evm-connector/contracts/libs/NumericArrayLib.sol\":1463:1562  if lt(arrI, arrJ) {... */\n      iszero\n      tag_364\n      jumpi\n        /* \"@redstone-finance/evm-connector/contracts/libs/NumericArrayLib.sol\":1511:1515  arrJ */\n      dup1\n        /* \"@redstone-finance/evm-connector/contracts/libs/NumericArrayLib.sol\":1502:1509  arrIPtr */\n      dup5\n        /* \"@redstone-finance/evm-connector/contracts/libs/NumericArrayLib.sol\":1495:1516  mstore(arrIPtr, arrJ) */\n      mstore\n        /* \"@redstone-finance/evm-connector/contracts/libs/NumericArrayLib.sol\":1545:1549  arrI */\n      dup2\n        /* \"@redstone-finance/evm-connector/contracts/libs/NumericArrayLib.sol\":1536:1543  arrJPtr */\n      dup4\n        /* \"@redstone-finance/evm-connector/contracts/libs/NumericArrayLib.sol\":1529:1550  mstore(arrJPtr, arrI) */\n      mstore\n        /* \"@redstone-finance/evm-connector/contracts/libs/NumericArrayLib.sol\":1463:1562  if lt(arrI, arrJ) {... */\n    tag_364:\n        /* \"@redstone-finance/evm-connector/contracts/libs/NumericArrayLib.sol\":1377:1572  {... */\n      pop\n      pop\n        /* \"@redstone-finance/evm-connector/contracts/libs/NumericArrayLib.sol\":1332:1348  UINT256_VALUE_BS */\n      0x20\n        /* \"@redstone-finance/evm-connector/contracts/libs/NumericArrayLib.sol\":1323:1330  arrJPtr */\n      dup2\n        /* \"@redstone-finance/evm-connector/contracts/libs/NumericArrayLib.sol\":1319:1349  add(arrJPtr, UINT256_VALUE_BS) */\n      add\n        /* \"@redstone-finance/evm-connector/contracts/libs/NumericArrayLib.sol\":1308:1349  arrJPtr := add(arrJPtr, UINT256_VALUE_BS) */\n      swap1\n      pop\n        /* \"@redstone-finance/evm-connector/contracts/libs/NumericArrayLib.sol\":1224:1572  for {... */\n      jump(tag_361)\n    tag_363:\n        /* \"@redstone-finance/evm-connector/contracts/libs/NumericArrayLib.sol\":1228:1274  {... */\n      pop\n        /* \"@redstone-finance/evm-connector/contracts/libs/NumericArrayLib.sol\":1171:1187  UINT256_VALUE_BS */\n      0x20\n        /* \"@redstone-finance/evm-connector/contracts/libs/NumericArrayLib.sol\":1162:1169  arrIPtr */\n      dup2\n        /* \"@redstone-finance/evm-connector/contracts/libs/NumericArrayLib.sol\":1158:1188  add(arrIPtr, UINT256_VALUE_BS) */\n      add\n        /* \"@redstone-finance/evm-connector/contracts/libs/NumericArrayLib.sol\":1147:1188  arrIPtr := add(arrIPtr, UINT256_VALUE_BS) */\n      swap1\n      pop\n        /* \"@redstone-finance/evm-connector/contracts/libs/NumericArrayLib.sol\":1070:1580  for {... */\n      jump(tag_358)\n    tag_360:\n        /* \"@redstone-finance/evm-connector/contracts/libs/NumericArrayLib.sol\":1074:1116  {... */\n      pop\n        /* \"@redstone-finance/evm-connector/contracts/libs/NumericArrayLib.sol\":905:1586  {... */\n      pop\n      pop\n      pop\n        /* \"@redstone-finance/evm-connector/contracts/libs/NumericArrayLib.sol\":840:1590  function sort(uint256[] memory arr) internal pure {... */\n      pop\n      jump\t// out\n        /* \"@redstone-finance/evm-connector/contracts/core/RedstoneConsumerBase.sol\":7182:11788  function _extractDataPackage(... */\n    tag_351:\n        /* \"@redstone-finance/evm-connector/contracts/core/RedstoneConsumerBase.sol\":7454:7488  uint256 nextCalldataNegativeOffset */\n      0x00\n        /* \"@redstone-finance/evm-connector/contracts/core/RedstoneConsumerBase.sol\":7490:7518  uint256 dataPackageTimestamp */\n      dup1\n        /* \"@redstone-finance/evm-connector/contracts/core/RedstoneConsumerBase.sol\":7526:7545  uint256 signerIndex */\n      0x00\n        /* \"@redstone-finance/evm-connector/contracts/core/RedstoneConsumerBase.sol\":7560:7583  uint256 dataPointsCount */\n      dup1\n        /* \"@redstone-finance/evm-connector/contracts/core/RedstoneConsumerBase.sol\":7591:7625  uint256 eachDataPointValueByteSize */\n      0x00\n        /* \"@redstone-finance/evm-connector/contracts/core/RedstoneConsumerBase.sol\":7634:7697  _extractDataPointsDetailsForDataPackage(calldataNegativeOffset) */\n      tag_366\n        /* \"@redstone-finance/evm-connector/contracts/core/RedstoneConsumerBase.sol\":7674:7696  calldataNegativeOffset */\n      dup7\n        /* \"@redstone-finance/evm-connector/contracts/core/RedstoneConsumerBase.sol\":7634:7673  _extractDataPointsDetailsForDataPackage */\n      tag_282\n        /* \"@redstone-finance/evm-connector/contracts/core/RedstoneConsumerBase.sol\":7634:7697  _extractDataPointsDetailsForDataPackage(calldataNegativeOffset) */\n      jump\t// in\n    tag_366:\n        /* \"@redstone-finance/evm-connector/contracts/core/RedstoneConsumerBase.sol\":7552:7697  (... */\n      swap2\n      pop\n      swap2\n      pop\n        /* \"@redstone-finance/evm-connector/contracts/core/RedstoneConsumerBase.sol\":7772:7793  address signerAddress */\n      0x00\n        /* \"@redstone-finance/evm-connector/contracts/core/RedstoneConsumerBase.sol\":7801:7819  bytes32 signedHash */\n      dup1\n        /* \"@redstone-finance/evm-connector/contracts/core/RedstoneConsumerBase.sol\":7827:7853  bytes memory signedMessage */\n      0x60\n        /* \"@redstone-finance/evm-connector/contracts/core/RedstoneConsumerBase.sol\":7861:7892  uint256 signedMessageBytesCount */\n      0x00\n        /* \"@redstone-finance/evm-connector/contracts/core/RedstoneConsumerBase.sol\":7900:7925  uint48 extractedTimestamp */\n      dup1\n        /* \"@redstone-finance/evm-connector/contracts/core/RedstoneConstants.sol\":2084:2086  13 */\n      0x0d\n        /* \"@redstone-finance/evm-connector/contracts/core/RedstoneConstants.sol\":1300:1302  32 */\n      0x20\n        /* \"@redstone-finance/evm-connector/contracts/core/RedstoneConsumerBase.sol\":7979:8005  eachDataPointValueByteSize */\n      dup8\n        /* \"@redstone-finance/evm-connector/contracts/core/RedstoneConsumerBase.sol\":7979:8028  eachDataPointValueByteSize + DATA_POINT_SYMBOL_BS */\n      tag_367\n      swap2\n      swap1\n      tag_156\n      jump\t// in\n    tag_367:\n        /* \"@redstone-finance/evm-connector/contracts/core/RedstoneConsumerBase.sol\":7960:7975  dataPointsCount */\n      dup9\n        /* \"@redstone-finance/evm-connector/contracts/core/RedstoneConsumerBase.sol\":7960:8029  dataPointsCount * (eachDataPointValueByteSize + DATA_POINT_SYMBOL_BS) */\n      tag_368\n      swap2\n      swap1\n      tag_235\n      jump\t// in\n    tag_368:\n        /* \"@redstone-finance/evm-connector/contracts/core/RedstoneConsumerBase.sol\":7960:8083  dataPointsCount * (eachDataPointValueByteSize + DATA_POINT_SYMBOL_BS)... */\n      tag_369\n      swap2\n      swap1\n      tag_156\n      jump\t// in\n    tag_369:\n        /* \"@redstone-finance/evm-connector/contracts/core/RedstoneConsumerBase.sol\":7934:8083  signedMessageBytesCount = dataPointsCount * (eachDataPointValueByteSize + DATA_POINT_SYMBOL_BS)... */\n      swap2\n      pop\n        /* \"@redstone-finance/evm-connector/contracts/core/RedstoneConsumerBase.sol\":8162:8193  uint256 timestampCalldataOffset */\n      0x00\n        /* \"@redstone-finance/evm-connector/contracts/core/RedstoneConstants.sol\":1771:1774  104 */\n      0x68\n        /* \"@redstone-finance/evm-connector/contracts/core/RedstoneConsumerBase.sol\":8224:8246  calldataNegativeOffset */\n      dup13\n        /* \"@redstone-finance/evm-connector/contracts/core/RedstoneConsumerBase.sol\":8224:8312  calldataNegativeOffset + TIMESTAMP_NEGATIVE_OFFSET_IN_DATA_PACKAGE_WITH_STANDARD_SLOT_BS */\n      tag_370\n      swap2\n      swap1\n      tag_156\n      jump\t// in\n    tag_370:\n        /* \"@redstone-finance/evm-connector/contracts/core/RedstoneConsumerBase.sol\":8196:8204  msg.data */\n      0x00\n      calldatasize\n        /* \"@redstone-finance/evm-connector/contracts/core/RedstoneConsumerBase.sol\":8196:8211  msg.data.length */\n      swap1\n      pop\n        /* \"@redstone-finance/evm-connector/contracts/core/RedstoneConsumerBase.sol\":8196:8313  msg.data.length - ... */\n      tag_371\n      swap2\n      swap1\n      tag_208\n      jump\t// in\n    tag_371:\n        /* \"@redstone-finance/evm-connector/contracts/core/RedstoneConsumerBase.sol\":8162:8313  uint256 timestampCalldataOffset = msg.data.length - ... */\n      swap1\n      pop\n        /* \"@redstone-finance/evm-connector/contracts/core/RedstoneConsumerBase.sol\":8322:8357  uint256 signedMessageCalldataOffset */\n      0x00\n        /* \"@redstone-finance/evm-connector/contracts/core/RedstoneConsumerBase.sol\":8422:8445  signedMessageBytesCount */\n      dup4\n        /* \"@redstone-finance/evm-connector/contracts/core/RedstoneConstants.sol\":1026:1028  65 */\n      0x41\n        /* \"@redstone-finance/evm-connector/contracts/core/RedstoneConsumerBase.sol\":8388:8410  calldataNegativeOffset */\n      dup15\n        /* \"@redstone-finance/evm-connector/contracts/core/RedstoneConsumerBase.sol\":8388:8419  calldataNegativeOffset + SIG_BS */\n      tag_372\n      swap2\n      swap1\n      tag_156\n      jump\t// in\n    tag_372:\n        /* \"@redstone-finance/evm-connector/contracts/core/RedstoneConsumerBase.sol\":8388:8445  calldataNegativeOffset + SIG_BS + signedMessageBytesCount */\n      tag_373\n      swap2\n      swap1\n      tag_156\n      jump\t// in\n    tag_373:\n        /* \"@redstone-finance/evm-connector/contracts/core/RedstoneConsumerBase.sol\":8360:8368  msg.data */\n      0x00\n      calldatasize\n        /* \"@redstone-finance/evm-connector/contracts/core/RedstoneConsumerBase.sol\":8360:8375  msg.data.length */\n      swap1\n      pop\n        /* \"@redstone-finance/evm-connector/contracts/core/RedstoneConsumerBase.sol\":8360:8446  msg.data.length - ... */\n      tag_374\n      swap2\n      swap1\n      tag_208\n      jump\t// in\n    tag_374:\n        /* \"@redstone-finance/evm-connector/contracts/core/RedstoneConsumerBase.sol\":8322:8446  uint256 signedMessageCalldataOffset = msg.data.length - ... */\n      swap1\n      pop\n        /* \"@redstone-finance/evm-connector/contracts/core/RedstoneConsumerBase.sol\":8532:8640  extractBytesFromCalldata(... */\n      tag_377\n        /* \"@redstone-finance/evm-connector/contracts/core/RedstoneConsumerBase.sol\":8607:8630  signedMessageBytesCount */\n      dup5\n        /* \"@redstone-finance/evm-connector/contracts/core/RedstoneConsumerBase.sol\":8568:8595  signedMessageCalldataOffset */\n      dup3\n        /* \"@redstone-finance/evm-connector/contracts/core/RedstoneConsumerBase.sol\":8532:8640  extractBytesFromCalldata(... */\n      tag_376\n      jump\t// in\n    tag_377:\n        /* \"@redstone-finance/evm-connector/contracts/core/RedstoneConsumerBase.sol\":8515:8640  signedMessage := extractBytesFromCalldata(... */\n      swap5\n      pop\n        /* \"@redstone-finance/evm-connector/contracts/core/RedstoneConsumerBase.sol\":8754:8777  signedMessageBytesCount */\n      dup4\n        /* \"@redstone-finance/evm-connector/contracts/core/RedstoneConsumerBase.sol\":8731:8751  BYTES_ARR_LEN_VAR_BS */\n      0x20\n        /* \"@redstone-finance/evm-connector/contracts/core/RedstoneConsumerBase.sol\":8716:8729  signedMessage */\n      dup7\n        /* \"@redstone-finance/evm-connector/contracts/core/RedstoneConsumerBase.sol\":8712:8752  add(signedMessage, BYTES_ARR_LEN_VAR_BS) */\n      add\n        /* \"@redstone-finance/evm-connector/contracts/core/RedstoneConsumerBase.sol\":8702:8778  keccak256(add(signedMessage, BYTES_ARR_LEN_VAR_BS), signedMessageBytesCount) */\n      keccak256\n        /* \"@redstone-finance/evm-connector/contracts/core/RedstoneConsumerBase.sol\":8688:8778  signedHash := keccak256(add(signedMessage, BYTES_ARR_LEN_VAR_BS), signedMessageBytesCount) */\n      swap6\n      pop\n        /* \"@redstone-finance/evm-connector/contracts/core/RedstoneConsumerBase.sol\":8855:8878  timestampCalldataOffset */\n      dup2\n        /* \"@redstone-finance/evm-connector/contracts/core/RedstoneConsumerBase.sol\":8842:8879  calldataload(timestampCalldataOffset) */\n      calldataload\n        /* \"@redstone-finance/evm-connector/contracts/core/RedstoneConsumerBase.sol\":8820:8879  extractedTimestamp := calldataload(timestampCalldataOffset) */\n      swap3\n      pop\n        /* \"@redstone-finance/evm-connector/contracts/core/RedstoneConsumerBase.sol\":8889:9120  function initByteArray(bytesCount) -> ptr {... */\n      jump(tag_378)\n    tag_375:\n        /* \"@redstone-finance/evm-connector/contracts/core/RedstoneConsumerBase.sol\":8927:8930  ptr */\n      0x00\n        /* \"@redstone-finance/evm-connector/contracts/core/RedstoneConsumerBase.sol\":8956:8971  FREE_MEMORY_PTR */\n      0x40\n        /* \"@redstone-finance/evm-connector/contracts/core/RedstoneConsumerBase.sol\":8950:8972  mload(FREE_MEMORY_PTR) */\n      mload\n        /* \"@redstone-finance/evm-connector/contracts/core/RedstoneConsumerBase.sol\":8943:8972  ptr := mload(FREE_MEMORY_PTR) */\n      swap1\n      pop\n        /* \"@redstone-finance/evm-connector/contracts/core/RedstoneConsumerBase.sol\":8995:9005  bytesCount */\n      dup2\n        /* \"@redstone-finance/evm-connector/contracts/core/RedstoneConsumerBase.sol\":8990:8993  ptr */\n      dup2\n        /* \"@redstone-finance/evm-connector/contracts/core/RedstoneConsumerBase.sol\":8983:9006  mstore(ptr, bytesCount) */\n      mstore\n        /* \"@redstone-finance/evm-connector/contracts/core/RedstoneConsumerBase.sol\":9033:9053  BYTES_ARR_LEN_VAR_BS */\n      0x20\n        /* \"@redstone-finance/evm-connector/contracts/core/RedstoneConsumerBase.sol\":9028:9031  ptr */\n      dup2\n        /* \"@redstone-finance/evm-connector/contracts/core/RedstoneConsumerBase.sol\":9024:9054  add(ptr, BYTES_ARR_LEN_VAR_BS) */\n      add\n        /* \"@redstone-finance/evm-connector/contracts/core/RedstoneConsumerBase.sol\":9017:9054  ptr := add(ptr, BYTES_ARR_LEN_VAR_BS) */\n      swap1\n      pop\n        /* \"@redstone-finance/evm-connector/contracts/core/RedstoneConsumerBase.sol\":9098:9108  bytesCount */\n      dup2\n        /* \"@redstone-finance/evm-connector/contracts/core/RedstoneConsumerBase.sol\":9093:9096  ptr */\n      dup2\n        /* \"@redstone-finance/evm-connector/contracts/core/RedstoneConsumerBase.sol\":9089:9109  add(ptr, bytesCount) */\n      add\n        /* \"@redstone-finance/evm-connector/contracts/core/RedstoneConsumerBase.sol\":9072:9087  FREE_MEMORY_PTR */\n      0x40\n        /* \"@redstone-finance/evm-connector/contracts/core/RedstoneConsumerBase.sol\":9065:9110  mstore(FREE_MEMORY_PTR, add(ptr, bytesCount)) */\n      mstore\n        /* \"@redstone-finance/evm-connector/contracts/core/RedstoneConsumerBase.sol\":8889:9120  function initByteArray(bytesCount) -> ptr {... */\n      swap2\n      swap1\n      pop\n      jump\t// out\n        /* \"@redstone-finance/evm-connector/contracts/core/RedstoneConsumerBase.sol\":9130:9472  function extractBytesFromCalldata(offset, bytesCount) -> extractedBytes {... */\n    tag_376:\n        /* \"@redstone-finance/evm-connector/contracts/core/RedstoneConsumerBase.sol\":9187:9201  extractedBytes */\n      0x00\n        /* \"@redstone-finance/evm-connector/contracts/core/RedstoneConsumerBase.sol\":9244:9269  initByteArray(bytesCount) */\n      tag_381\n        /* \"@redstone-finance/evm-connector/contracts/core/RedstoneConsumerBase.sol\":9258:9268  bytesCount */\n      dup4\n        /* \"@redstone-finance/evm-connector/contracts/core/RedstoneConsumerBase.sol\":9244:9269  initByteArray(bytesCount) */\n      tag_375\n      jump\t// in\n    tag_381:\n        /* \"@redstone-finance/evm-connector/contracts/core/RedstoneConsumerBase.sol\":9362:9372  bytesCount */\n      dup4\n        /* \"@redstone-finance/evm-connector/contracts/core/RedstoneConsumerBase.sol\":9342:9348  offset */\n      dup4\n        /* \"@redstone-finance/evm-connector/contracts/core/RedstoneConsumerBase.sol\":9306:9328  extractedBytesStartPtr */\n      dup3\n        /* \"@redstone-finance/evm-connector/contracts/core/RedstoneConsumerBase.sol\":9280:9384  calldatacopy(... */\n      calldatacopy\n        /* \"@redstone-finance/evm-connector/contracts/core/RedstoneConsumerBase.sol\":9441:9461  BYTES_ARR_LEN_VAR_BS */\n      0x20\n        /* \"@redstone-finance/evm-connector/contracts/core/RedstoneConsumerBase.sol\":9417:9439  extractedBytesStartPtr */\n      dup2\n        /* \"@redstone-finance/evm-connector/contracts/core/RedstoneConsumerBase.sol\":9413:9462  sub(extractedBytesStartPtr, BYTES_ARR_LEN_VAR_BS) */\n      sub\n        /* \"@redstone-finance/evm-connector/contracts/core/RedstoneConsumerBase.sol\":9395:9462  extractedBytes := sub(extractedBytesStartPtr, BYTES_ARR_LEN_VAR_BS) */\n      swap2\n      pop\n        /* \"@redstone-finance/evm-connector/contracts/core/RedstoneConsumerBase.sol\":9202:9472  {... */\n      pop\n        /* \"@redstone-finance/evm-connector/contracts/core/RedstoneConsumerBase.sol\":9130:9472  function extractBytesFromCalldata(offset, bytesCount) -> extractedBytes {... */\n      swap3\n      swap2\n      pop\n      pop\n      jump\t// out\n    tag_378:\n        /* \"@redstone-finance/evm-connector/contracts/core/RedstoneConsumerBase.sol\":9511:9529  extractedTimestamp */\n      dup3\n        /* \"@redstone-finance/evm-connector/contracts/core/RedstoneConsumerBase.sol\":9488:9529  dataPackageTimestamp = extractedTimestamp */\n      0xffffffffffff\n      and\n      swap11\n      pop\n        /* \"@redstone-finance/evm-connector/contracts/core/RedstoneConsumerBase.sol\":9626:9728  SignatureLib.recoverSignerAddress(... */\n      tag_382\n        /* \"@redstone-finance/evm-connector/contracts/core/RedstoneConsumerBase.sol\":9669:9679  signedHash */\n      dup7\n        /* \"@redstone-finance/evm-connector/contracts/core/RedstoneConstants.sol\":1026:1028  65 */\n      0x41\n        /* \"@redstone-finance/evm-connector/contracts/core/RedstoneConsumerBase.sol\":9689:9711  calldataNegativeOffset */\n      dup16\n        /* \"@redstone-finance/evm-connector/contracts/core/RedstoneConsumerBase.sol\":9689:9720  calldataNegativeOffset + SIG_BS */\n      tag_383\n      swap2\n      swap1\n      tag_156\n      jump\t// in\n    tag_383:\n        /* \"@redstone-finance/evm-connector/contracts/core/RedstoneConsumerBase.sol\":9626:9659  SignatureLib.recoverSignerAddress */\n      tag_384\n        /* \"@redstone-finance/evm-connector/contracts/core/RedstoneConsumerBase.sol\":9626:9728  SignatureLib.recoverSignerAddress(... */\n      jump\t// in\n    tag_382:\n        /* \"@redstone-finance/evm-connector/contracts/core/RedstoneConsumerBase.sol\":9610:9728  signerAddress = SignatureLib.recoverSignerAddress(... */\n      swap7\n      pop\n        /* \"@redstone-finance/evm-connector/contracts/core/RedstoneConsumerBase.sol\":9750:9789  getAuthorisedSignerIndex(signerAddress) */\n      tag_385\n        /* \"@redstone-finance/evm-connector/contracts/core/RedstoneConsumerBase.sol\":9775:9788  signerAddress */\n      dup8\n        /* \"@redstone-finance/evm-connector/contracts/core/RedstoneConsumerBase.sol\":9750:9774  getAuthorisedSignerIndex */\n      tag_54\n        /* \"@redstone-finance/evm-connector/contracts/core/RedstoneConsumerBase.sol\":9750:9789  getAuthorisedSignerIndex(signerAddress) */\n      jump\t// in\n    tag_385:\n        /* \"@redstone-finance/evm-connector/contracts/core/RedstoneConsumerBase.sol\":9736:9789  signerIndex = getAuthorisedSignerIndex(signerAddress) */\n      0xff\n      and\n      swap10\n      pop\n        /* \"@redstone-finance/evm-connector/contracts/core/RedstoneConsumerBase.sol\":7764:9796  {... */\n      pop\n      pop\n      pop\n      pop\n      pop\n      pop\n      pop\n        /* \"@redstone-finance/evm-connector/contracts/core/RedstoneConstants.sol\":1926:1928  78 */\n      0x4e\n        /* \"@redstone-finance/evm-connector/contracts/core/RedstoneConsumerBase.sol\":9866:9888  calldataNegativeOffset */\n      dup7\n        /* \"@redstone-finance/evm-connector/contracts/core/RedstoneConsumerBase.sol\":9866:9926  calldataNegativeOffset + DATA_PACKAGE_WITHOUT_DATA_POINTS_BS */\n      tag_386\n      swap2\n      swap1\n      tag_156\n      jump\t// in\n    tag_386:\n        /* \"@redstone-finance/evm-connector/contracts/core/RedstoneConsumerBase.sol\":9841:9926  calldataNegativeOffset = calldataNegativeOffset + DATA_PACKAGE_WITHOUT_DATA_POINTS_BS */\n      swap6\n      pop\n        /* \"@redstone-finance/evm-connector/contracts/core/RedstoneConsumerBase.sol\":9934:9961  bytes32 dataPointDataFeedId */\n      0x00\n        /* \"@redstone-finance/evm-connector/contracts/core/RedstoneConsumerBase.sol\":9969:9991  uint256 dataPointValue */\n      dup1\n        /* \"@redstone-finance/evm-connector/contracts/core/RedstoneConsumerBase.sol\":10004:10026  uint256 dataPointIndex */\n      0x00\n        /* \"@redstone-finance/evm-connector/contracts/core/RedstoneConsumerBase.sol\":9999:11718  for (uint256 dataPointIndex = 0; dataPointIndex < dataPointsCount;) {... */\n    tag_387:\n        /* \"@redstone-finance/evm-connector/contracts/core/RedstoneConsumerBase.sol\":10049:10064  dataPointsCount */\n      dup5\n        /* \"@redstone-finance/evm-connector/contracts/core/RedstoneConsumerBase.sol\":10032:10046  dataPointIndex */\n      dup2\n        /* \"@redstone-finance/evm-connector/contracts/core/RedstoneConsumerBase.sol\":10032:10064  dataPointIndex < dataPointsCount */\n      lt\n        /* \"@redstone-finance/evm-connector/contracts/core/RedstoneConsumerBase.sol\":9999:11718  for (uint256 dataPointIndex = 0; dataPointIndex < dataPointsCount;) {... */\n      iszero\n      tag_388\n      jumpi\n        /* \"@redstone-finance/evm-connector/contracts/core/RedstoneConstants.sol\":1300:1302  32 */\n      0x20\n        /* \"@redstone-finance/evm-connector/contracts/core/RedstoneConsumerBase.sol\":10127:10153  eachDataPointValueByteSize */\n      dup5\n        /* \"@redstone-finance/evm-connector/contracts/core/RedstoneConsumerBase.sol\":10102:10124  calldataNegativeOffset */\n      dup11\n        /* \"@redstone-finance/evm-connector/contracts/core/RedstoneConsumerBase.sol\":10102:10153  calldataNegativeOffset + eachDataPointValueByteSize */\n      tag_390\n      swap2\n      swap1\n      tag_156\n      jump\t// in\n    tag_390:\n        /* \"@redstone-finance/evm-connector/contracts/core/RedstoneConsumerBase.sol\":10102:10176  calldataNegativeOffset + eachDataPointValueByteSize + DATA_POINT_SYMBOL_BS */\n      tag_391\n      swap2\n      swap1\n      tag_156\n      jump\t// in\n    tag_391:\n        /* \"@redstone-finance/evm-connector/contracts/core/RedstoneConsumerBase.sol\":10077:10176  calldataNegativeOffset = calldataNegativeOffset + eachDataPointValueByteSize + DATA_POINT_SYMBOL_BS */\n      swap9\n      pop\n        /* \"@redstone-finance/evm-connector/contracts/core/RedstoneConsumerBase.sol\":10298:10415  _extractDataPointValueAndDataFeedId(... */\n      tag_392\n        /* \"@redstone-finance/evm-connector/contracts/core/RedstoneConsumerBase.sol\":10345:10367  calldataNegativeOffset */\n      dup10\n        /* \"@redstone-finance/evm-connector/contracts/core/RedstoneConsumerBase.sol\":10379:10405  eachDataPointValueByteSize */\n      dup6\n        /* \"@redstone-finance/evm-connector/contracts/core/RedstoneConsumerBase.sol\":10298:10333  _extractDataPointValueAndDataFeedId */\n      tag_393\n        /* \"@redstone-finance/evm-connector/contracts/core/RedstoneConsumerBase.sol\":10298:10415  _extractDataPointValueAndDataFeedId(... */\n      jump\t// in\n    tag_392:\n        /* \"@redstone-finance/evm-connector/contracts/core/RedstoneConsumerBase.sol\":10258:10415  (dataPointDataFeedId, dataPointValue) = _extractDataPointValueAndDataFeedId(... */\n      dup1\n      swap4\n      pop\n      dup2\n      swap5\n      pop\n      pop\n      pop\n        /* \"@redstone-finance/evm-connector/contracts/core/RedstoneConsumerBase.sol\":10442:10465  uint256 dataFeedIdIndex */\n      0x00\n        /* \"@redstone-finance/evm-connector/contracts/core/RedstoneConsumerBase.sol\":10426:11651  for (... */\n    tag_394:\n        /* \"@redstone-finance/evm-connector/contracts/core/RedstoneConsumerBase.sol\":10499:10510  dataFeedIds */\n      dup14\n        /* \"@redstone-finance/evm-connector/contracts/core/RedstoneConsumerBase.sol\":10499:10517  dataFeedIds.length */\n      mload\n        /* \"@redstone-finance/evm-connector/contracts/core/RedstoneConsumerBase.sol\":10481:10496  dataFeedIdIndex */\n      dup2\n        /* \"@redstone-finance/evm-connector/contracts/core/RedstoneConsumerBase.sol\":10481:10517  dataFeedIdIndex < dataFeedIds.length */\n      lt\n        /* \"@redstone-finance/evm-connector/contracts/core/RedstoneConsumerBase.sol\":10426:11651  for (... */\n      iszero\n      tag_395\n      jumpi\n        /* \"@redstone-finance/evm-connector/contracts/core/RedstoneConsumerBase.sol\":10568:10579  dataFeedIds */\n      dup14\n        /* \"@redstone-finance/evm-connector/contracts/core/RedstoneConsumerBase.sol\":10580:10595  dataFeedIdIndex */\n      dup2\n        /* \"@redstone-finance/evm-connector/contracts/core/RedstoneConsumerBase.sol\":10568:10596  dataFeedIds[dataFeedIdIndex] */\n      dup2\n      mload\n      dup2\n      lt\n      tag_397\n      jumpi\n      tag_398\n      tag_257\n      jump\t// in\n    tag_398:\n    tag_397:\n      0x20\n      mul\n      0x20\n      add\n      add\n      mload\n        /* \"@redstone-finance/evm-connector/contracts/core/RedstoneConsumerBase.sol\":10545:10564  dataPointDataFeedId */\n      dup5\n        /* \"@redstone-finance/evm-connector/contracts/core/RedstoneConsumerBase.sol\":10545:10596  dataPointDataFeedId == dataFeedIds[dataFeedIdIndex] */\n      sub\n        /* \"@redstone-finance/evm-connector/contracts/core/RedstoneConsumerBase.sol\":10541:11576  if (dataPointDataFeedId == dataFeedIds[dataFeedIdIndex]) {... */\n      tag_399\n      jumpi\n        /* \"@redstone-finance/evm-connector/contracts/core/RedstoneConsumerBase.sol\":10612:10646  uint256 bitmapSignersForDataFeedId */\n      0x00\n        /* \"@redstone-finance/evm-connector/contracts/core/RedstoneConsumerBase.sol\":10649:10676  signersBitmapForDataFeedIds */\n      dup13\n        /* \"@redstone-finance/evm-connector/contracts/core/RedstoneConsumerBase.sol\":10677:10692  dataFeedIdIndex */\n      dup3\n        /* \"@redstone-finance/evm-connector/contracts/core/RedstoneConsumerBase.sol\":10649:10693  signersBitmapForDataFeedIds[dataFeedIdIndex] */\n      dup2\n      mload\n      dup2\n      lt\n      tag_400\n      jumpi\n      tag_401\n      tag_257\n      jump\t// in\n    tag_401:\n    tag_400:\n      0x20\n      mul\n      0x20\n      add\n      add\n      mload\n        /* \"@redstone-finance/evm-connector/contracts/core/RedstoneConsumerBase.sol\":10612:10693  uint256 bitmapSignersForDataFeedId = signersBitmapForDataFeedIds[dataFeedIdIndex] */\n      swap1\n      pop\n        /* \"@redstone-finance/evm-connector/contracts/core/RedstoneConsumerBase.sol\":10728:10795  BitmapLib.getBitFromBitmap(bitmapSignersForDataFeedId, signerIndex) */\n      tag_402\n        /* \"@redstone-finance/evm-connector/contracts/core/RedstoneConsumerBase.sol\":10755:10781  bitmapSignersForDataFeedId */\n      dup2\n        /* \"@redstone-finance/evm-connector/contracts/core/RedstoneConsumerBase.sol\":10783:10794  signerIndex */\n      dup10\n        /* \"@redstone-finance/evm-connector/contracts/core/RedstoneConsumerBase.sol\":10728:10754  BitmapLib.getBitFromBitmap */\n      tag_403\n        /* \"@redstone-finance/evm-connector/contracts/core/RedstoneConsumerBase.sol\":10728:10795  BitmapLib.getBitFromBitmap(bitmapSignersForDataFeedId, signerIndex) */\n      jump\t// in\n    tag_402:\n        /* \"@redstone-finance/evm-connector/contracts/core/RedstoneConsumerBase.sol\":10727:10795  !BitmapLib.getBitFromBitmap(bitmapSignersForDataFeedId, signerIndex) */\n      iszero\n        /* \"@redstone-finance/evm-connector/contracts/core/RedstoneConsumerBase.sol\":10727:10951  !BitmapLib.getBitFromBitmap(bitmapSignersForDataFeedId, signerIndex) && /* current signer was not counted for current dataFeedId */... */\n      dup1\n      iszero\n      tag_404\n      jumpi\n      pop\n        /* \"@redstone-finance/evm-connector/contracts/core/RedstoneConsumerBase.sol\":10924:10951  getUniqueSignersThreshold() */\n      tag_405\n        /* \"@redstone-finance/evm-connector/contracts/core/RedstoneConsumerBase.sol\":10924:10949  getUniqueSignersThreshold */\n      tag_142\n        /* \"@redstone-finance/evm-connector/contracts/core/RedstoneConsumerBase.sol\":10924:10951  getUniqueSignersThreshold() */\n      jump\t// in\n    tag_405:\n        /* \"@redstone-finance/evm-connector/contracts/core/RedstoneConsumerBase.sol\":10873:10951  uniqueSignerCountForDataFeedIds[dataFeedIdIndex] < getUniqueSignersThreshold() */\n      0xff\n      and\n        /* \"@redstone-finance/evm-connector/contracts/core/RedstoneConsumerBase.sol\":10873:10904  uniqueSignerCountForDataFeedIds */\n      dup15\n        /* \"@redstone-finance/evm-connector/contracts/core/RedstoneConsumerBase.sol\":10905:10920  dataFeedIdIndex */\n      dup4\n        /* \"@redstone-finance/evm-connector/contracts/core/RedstoneConsumerBase.sol\":10873:10921  uniqueSignerCountForDataFeedIds[dataFeedIdIndex] */\n      dup2\n      mload\n      dup2\n      lt\n      tag_406\n      jumpi\n      tag_407\n      tag_257\n      jump\t// in\n    tag_407:\n    tag_406:\n      0x20\n      mul\n      0x20\n      add\n      add\n      mload\n        /* \"@redstone-finance/evm-connector/contracts/core/RedstoneConsumerBase.sol\":10873:10951  uniqueSignerCountForDataFeedIds[dataFeedIdIndex] < getUniqueSignersThreshold() */\n      lt\n        /* \"@redstone-finance/evm-connector/contracts/core/RedstoneConsumerBase.sol\":10727:10951  !BitmapLib.getBitFromBitmap(bitmapSignersForDataFeedId, signerIndex) && /* current signer was not counted for current dataFeedId */... */\n    tag_404:\n        /* \"@redstone-finance/evm-connector/contracts/core/RedstoneConsumerBase.sol\":10708:11461  if (... */\n      iszero\n      tag_408\n      jumpi\n        /* \"@redstone-finance/evm-connector/contracts/core/RedstoneConsumerBase.sol\":11101:11115  dataPointValue */\n      dup4\n        /* \"@redstone-finance/evm-connector/contracts/core/RedstoneConsumerBase.sol\":11013:11031  valuesForDataFeeds */\n      dup13\n        /* \"@redstone-finance/evm-connector/contracts/core/RedstoneConsumerBase.sol\":11032:11047  dataFeedIdIndex */\n      dup4\n        /* \"@redstone-finance/evm-connector/contracts/core/RedstoneConsumerBase.sol\":11013:11048  valuesForDataFeeds[dataFeedIdIndex] */\n      dup2\n      mload\n      dup2\n      lt\n      tag_409\n      jumpi\n      tag_410\n      tag_257\n      jump\t// in\n    tag_410:\n    tag_409:\n      0x20\n      mul\n      0x20\n      add\n      add\n      mload\n        /* \"@redstone-finance/evm-connector/contracts/core/RedstoneConsumerBase.sol\":11049:11080  uniqueSignerCountForDataFeedIds */\n      dup16\n        /* \"@redstone-finance/evm-connector/contracts/core/RedstoneConsumerBase.sol\":11081:11096  dataFeedIdIndex */\n      dup5\n        /* \"@redstone-finance/evm-connector/contracts/core/RedstoneConsumerBase.sol\":11049:11097  uniqueSignerCountForDataFeedIds[dataFeedIdIndex] */\n      dup2\n      mload\n      dup2\n      lt\n      tag_411\n      jumpi\n      tag_412\n      tag_257\n      jump\t// in\n    tag_412:\n    tag_411:\n      0x20\n      mul\n      0x20\n      add\n      add\n      mload\n        /* \"@redstone-finance/evm-connector/contracts/core/RedstoneConsumerBase.sol\":11013:11098  valuesForDataFeeds[dataFeedIdIndex][uniqueSignerCountForDataFeedIds[dataFeedIdIndex]] */\n      dup2\n      mload\n      dup2\n      lt\n      tag_413\n      jumpi\n      tag_414\n      tag_257\n      jump\t// in\n    tag_414:\n    tag_413:\n      0x20\n      mul\n      0x20\n      add\n      add\n        /* \"@redstone-finance/evm-connector/contracts/core/RedstoneConsumerBase.sol\":11013:11115  valuesForDataFeeds[dataFeedIdIndex][uniqueSignerCountForDataFeedIds[dataFeedIdIndex]] = dataPointValue */\n      dup2\n      dup2\n      mstore\n      pop\n      pop\n        /* \"@redstone-finance/evm-connector/contracts/core/RedstoneConsumerBase.sol\":11180:11211  uniqueSignerCountForDataFeedIds */\n      dup14\n        /* \"@redstone-finance/evm-connector/contracts/core/RedstoneConsumerBase.sol\":11212:11227  dataFeedIdIndex */\n      dup3\n        /* \"@redstone-finance/evm-connector/contracts/core/RedstoneConsumerBase.sol\":11180:11228  uniqueSignerCountForDataFeedIds[dataFeedIdIndex] */\n      dup2\n      mload\n      dup2\n      lt\n      tag_415\n      jumpi\n      tag_416\n      tag_257\n      jump\t// in\n    tag_416:\n    tag_415:\n      0x20\n      mul\n      0x20\n      add\n      add\n        /* \"@redstone-finance/evm-connector/contracts/core/RedstoneConsumerBase.sol\":11180:11230  uniqueSignerCountForDataFeedIds[dataFeedIdIndex]++ */\n      dup1\n      mload\n      dup1\n      swap2\n      swap1\n      tag_417\n      swap1\n      tag_215\n      jump\t// in\n    tag_417:\n      dup2\n      mstore\n      pop\n      pop\n        /* \"@redstone-finance/evm-connector/contracts/core/RedstoneConsumerBase.sol\":11333:11446  BitmapLib.setBitInBitmap(... */\n      tag_418\n        /* \"@redstone-finance/evm-connector/contracts/core/RedstoneConsumerBase.sol\":11375:11401  bitmapSignersForDataFeedId */\n      dup2\n        /* \"@redstone-finance/evm-connector/contracts/core/RedstoneConsumerBase.sol\":11419:11430  signerIndex */\n      dup10\n        /* \"@redstone-finance/evm-connector/contracts/core/RedstoneConsumerBase.sol\":11333:11357  BitmapLib.setBitInBitmap */\n      tag_419\n        /* \"@redstone-finance/evm-connector/contracts/core/RedstoneConsumerBase.sol\":11333:11446  BitmapLib.setBitInBitmap(... */\n      jump\t// in\n    tag_418:\n        /* \"@redstone-finance/evm-connector/contracts/core/RedstoneConsumerBase.sol\":11286:11313  signersBitmapForDataFeedIds */\n      dup14\n        /* \"@redstone-finance/evm-connector/contracts/core/RedstoneConsumerBase.sol\":11314:11329  dataFeedIdIndex */\n      dup4\n        /* \"@redstone-finance/evm-connector/contracts/core/RedstoneConsumerBase.sol\":11286:11330  signersBitmapForDataFeedIds[dataFeedIdIndex] */\n      dup2\n      mload\n      dup2\n      lt\n      tag_420\n      jumpi\n      tag_421\n      tag_257\n      jump\t// in\n    tag_421:\n    tag_420:\n      0x20\n      mul\n      0x20\n      add\n      add\n        /* \"@redstone-finance/evm-connector/contracts/core/RedstoneConsumerBase.sol\":11286:11446  signersBitmapForDataFeedIds[dataFeedIdIndex] = BitmapLib.setBitInBitmap(... */\n      dup2\n      dup2\n      mstore\n      pop\n      pop\n        /* \"@redstone-finance/evm-connector/contracts/core/RedstoneConsumerBase.sol\":10708:11461  if (... */\n    tag_408:\n        /* \"@redstone-finance/evm-connector/contracts/core/RedstoneConsumerBase.sol\":11558:11563  break */\n      pop\n      jump(tag_395)\n        /* \"@redstone-finance/evm-connector/contracts/core/RedstoneConsumerBase.sol\":10541:11576  if (dataPointDataFeedId == dataFeedIds[dataFeedIdIndex]) {... */\n    tag_399:\n        /* \"@redstone-finance/evm-connector/contracts/core/RedstoneConsumerBase.sol\":11611:11628  dataFeedIdIndex++ */\n      dup1\n      dup1\n      0x01\n      add\n      swap2\n      pop\n      pop\n        /* \"@redstone-finance/evm-connector/contracts/core/RedstoneConsumerBase.sol\":10426:11651  for (... */\n      jump(tag_394)\n    tag_395:\n      pop\n        /* \"@redstone-finance/evm-connector/contracts/core/RedstoneConsumerBase.sol\":11683:11699  dataPointIndex++ */\n      dup1\n      dup1\n      0x01\n      add\n      swap2\n      pop\n      pop\n        /* \"@redstone-finance/evm-connector/contracts/core/RedstoneConsumerBase.sol\":9999:11718  for (uint256 dataPointIndex = 0; dataPointIndex < dataPointsCount;) {... */\n      jump(tag_387)\n    tag_388:\n      pop\n        /* \"@redstone-finance/evm-connector/contracts/core/RedstoneConsumerBase.sol\":9833:11724  {... */\n      pop\n      pop\n        /* \"@redstone-finance/evm-connector/contracts/core/RedstoneConsumerBase.sol\":11738:11760  calldataNegativeOffset */\n      dup6\n        /* \"@redstone-finance/evm-connector/contracts/core/RedstoneConsumerBase.sol\":11730:11783  return (calldataNegativeOffset, dataPackageTimestamp) */\n      swap5\n      pop\n      pop\n      pop\n      pop\n        /* \"@redstone-finance/evm-connector/contracts/core/RedstoneConsumerBase.sol\":7182:11788  function _extractDataPackage(... */\n      swap6\n      pop\n      swap6\n      swap4\n      pop\n      pop\n      pop\n      pop\n      jump\t// out\n        /* \"@redstone-finance/evm-connector/contracts/core/RedstoneConsumerBase.sol\":12257:13119  function _getAggregatedValues(... */\n    tag_356:\n        /* \"@redstone-finance/evm-connector/contracts/core/RedstoneConsumerBase.sol\":12410:12426  uint256[] memory */\n      0x60\n        /* \"@redstone-finance/evm-connector/contracts/core/RedstoneConsumerBase.sol\":12434:12467  uint256[] memory aggregatedValues */\n      0x00\n        /* \"@redstone-finance/evm-connector/contracts/core/RedstoneConsumerBase.sol\":12484:12502  valuesForDataFeeds */\n      dup4\n        /* \"@redstone-finance/evm-connector/contracts/core/RedstoneConsumerBase.sol\":12484:12509  valuesForDataFeeds.length */\n      mload\n        /* \"@redstone-finance/evm-connector/contracts/core/RedstoneConsumerBase.sol\":12470:12510  new uint256[](valuesForDataFeeds.length) */\n      0xffffffffffffffff\n      dup2\n      gt\n      iszero\n      tag_423\n      jumpi\n      tag_424\n      tag_253\n      jump\t// in\n    tag_424:\n    tag_423:\n      mload(0x40)\n      swap1\n      dup1\n      dup3\n      mstore\n      dup1\n      0x20\n      mul\n      0x20\n      add\n      dup3\n      add\n      0x40\n      mstore\n      dup1\n      iszero\n      tag_425\n      jumpi\n      dup2\n      0x20\n      add\n      0x20\n      dup3\n      mul\n      dup1\n      calldatasize\n      dup4\n      calldatacopy\n      dup1\n      dup3\n      add\n      swap2\n      pop\n      pop\n      swap1\n      pop\n    tag_425:\n      pop\n        /* \"@redstone-finance/evm-connector/contracts/core/RedstoneConsumerBase.sol\":12434:12510  uint256[] memory aggregatedValues = new uint256[](valuesForDataFeeds.length) */\n      swap1\n      pop\n        /* \"@redstone-finance/evm-connector/contracts/core/RedstoneConsumerBase.sol\":12516:12546  uint256 uniqueSignersThreshold */\n      0x00\n        /* \"@redstone-finance/evm-connector/contracts/core/RedstoneConsumerBase.sol\":12549:12576  getUniqueSignersThreshold() */\n      tag_426\n        /* \"@redstone-finance/evm-connector/contracts/core/RedstoneConsumerBase.sol\":12549:12574  getUniqueSignersThreshold */\n      tag_142\n        /* \"@redstone-finance/evm-connector/contracts/core/RedstoneConsumerBase.sol\":12549:12576  getUniqueSignersThreshold() */\n      jump\t// in\n    tag_426:\n        /* \"@redstone-finance/evm-connector/contracts/core/RedstoneConsumerBase.sol\":12516:12576  uint256 uniqueSignersThreshold = getUniqueSignersThreshold() */\n      0xff\n      and\n      swap1\n      pop\n        /* \"@redstone-finance/evm-connector/contracts/core/RedstoneConsumerBase.sol\":12588:12609  uint256 dataFeedIndex */\n      0x00\n        /* \"@redstone-finance/evm-connector/contracts/core/RedstoneConsumerBase.sol\":12583:13085  for (uint256 dataFeedIndex = 0; dataFeedIndex < valuesForDataFeeds.length; dataFeedIndex++) {... */\n    tag_427:\n        /* \"@redstone-finance/evm-connector/contracts/core/RedstoneConsumerBase.sol\":12631:12649  valuesForDataFeeds */\n      dup6\n        /* \"@redstone-finance/evm-connector/contracts/core/RedstoneConsumerBase.sol\":12631:12656  valuesForDataFeeds.length */\n      mload\n        /* \"@redstone-finance/evm-connector/contracts/core/RedstoneConsumerBase.sol\":12615:12628  dataFeedIndex */\n      dup2\n        /* \"@redstone-finance/evm-connector/contracts/core/RedstoneConsumerBase.sol\":12615:12656  dataFeedIndex < valuesForDataFeeds.length */\n      lt\n        /* \"@redstone-finance/evm-connector/contracts/core/RedstoneConsumerBase.sol\":12583:13085  for (uint256 dataFeedIndex = 0; dataFeedIndex < valuesForDataFeeds.length; dataFeedIndex++) {... */\n      iszero\n      tag_428\n      jumpi\n        /* \"@redstone-finance/evm-connector/contracts/core/RedstoneConsumerBase.sol\":12736:12758  uniqueSignersThreshold */\n      dup2\n        /* \"@redstone-finance/evm-connector/contracts/core/RedstoneConsumerBase.sol\":12687:12718  uniqueSignerCountForDataFeedIds */\n      dup6\n        /* \"@redstone-finance/evm-connector/contracts/core/RedstoneConsumerBase.sol\":12719:12732  dataFeedIndex */\n      dup3\n        /* \"@redstone-finance/evm-connector/contracts/core/RedstoneConsumerBase.sol\":12687:12733  uniqueSignerCountForDataFeedIds[dataFeedIndex] */\n      dup2\n      mload\n      dup2\n      lt\n      tag_430\n      jumpi\n      tag_431\n      tag_257\n      jump\t// in\n    tag_431:\n    tag_430:\n      0x20\n      mul\n      0x20\n      add\n      add\n      mload\n        /* \"@redstone-finance/evm-connector/contracts/core/RedstoneConsumerBase.sol\":12687:12758  uniqueSignerCountForDataFeedIds[dataFeedIndex] < uniqueSignersThreshold */\n      lt\n        /* \"@redstone-finance/evm-connector/contracts/core/RedstoneConsumerBase.sol\":12683:12912  if (uniqueSignerCountForDataFeedIds[dataFeedIndex] < uniqueSignersThreshold) {... */\n      iszero\n      tag_432\n      jumpi\n        /* \"@redstone-finance/evm-connector/contracts/core/RedstoneConsumerBase.sol\":12822:12853  uniqueSignerCountForDataFeedIds */\n      dup5\n        /* \"@redstone-finance/evm-connector/contracts/core/RedstoneConsumerBase.sol\":12854:12867  dataFeedIndex */\n      dup2\n        /* \"@redstone-finance/evm-connector/contracts/core/RedstoneConsumerBase.sol\":12822:12868  uniqueSignerCountForDataFeedIds[dataFeedIndex] */\n      dup2\n      mload\n      dup2\n      lt\n      tag_433\n      jumpi\n      tag_434\n      tag_257\n      jump\t// in\n    tag_434:\n    tag_433:\n      0x20\n      mul\n      0x20\n      add\n      add\n      mload\n        /* \"@redstone-finance/evm-connector/contracts/core/RedstoneConsumerBase.sol\":12880:12902  uniqueSignersThreshold */\n      dup3\n        /* \"@redstone-finance/evm-connector/contracts/core/RedstoneConsumerBase.sol\":12777:12903  InsufficientNumberOfUniqueSigners(... */\n      mload(0x40)\n      0x2b13aef500000000000000000000000000000000000000000000000000000000\n      dup2\n      mstore\n      0x04\n      add\n      tag_435\n      swap3\n      swap2\n      swap1\n      tag_436\n      jump\t// in\n    tag_435:\n      mload(0x40)\n      dup1\n      swap2\n      sub\n      swap1\n      revert\n        /* \"@redstone-finance/evm-connector/contracts/core/RedstoneConsumerBase.sol\":12683:12912  if (uniqueSignerCountForDataFeedIds[dataFeedIndex] < uniqueSignersThreshold) {... */\n    tag_432:\n        /* \"@redstone-finance/evm-connector/contracts/core/RedstoneConsumerBase.sol\":12919:12955  uint256 aggregatedValueForDataFeedId */\n      0x00\n        /* \"@redstone-finance/evm-connector/contracts/core/RedstoneConsumerBase.sol\":12958:13008  aggregateValues(valuesForDataFeeds[dataFeedIndex]) */\n      tag_437\n        /* \"@redstone-finance/evm-connector/contracts/core/RedstoneConsumerBase.sol\":12974:12992  valuesForDataFeeds */\n      dup8\n        /* \"@redstone-finance/evm-connector/contracts/core/RedstoneConsumerBase.sol\":12993:13006  dataFeedIndex */\n      dup4\n        /* \"@redstone-finance/evm-connector/contracts/core/RedstoneConsumerBase.sol\":12974:13007  valuesForDataFeeds[dataFeedIndex] */\n      dup2\n      mload\n      dup2\n      lt\n      tag_438\n      jumpi\n      tag_439\n      tag_257\n      jump\t// in\n    tag_439:\n    tag_438:\n      0x20\n      mul\n      0x20\n      add\n      add\n      mload\n        /* \"@redstone-finance/evm-connector/contracts/core/RedstoneConsumerBase.sol\":12958:12973  aggregateValues */\n      tag_106\n        /* \"@redstone-finance/evm-connector/contracts/core/RedstoneConsumerBase.sol\":12958:13008  aggregateValues(valuesForDataFeeds[dataFeedIndex]) */\n      jump\t// in\n    tag_437:\n        /* \"@redstone-finance/evm-connector/contracts/core/RedstoneConsumerBase.sol\":12919:13008  uint256 aggregatedValueForDataFeedId = aggregateValues(valuesForDataFeeds[dataFeedIndex]) */\n      swap1\n      pop\n        /* \"@redstone-finance/evm-connector/contracts/core/RedstoneConsumerBase.sol\":13050:13078  aggregatedValueForDataFeedId */\n      dup1\n        /* \"@redstone-finance/evm-connector/contracts/core/RedstoneConsumerBase.sol\":13016:13032  aggregatedValues */\n      dup5\n        /* \"@redstone-finance/evm-connector/contracts/core/RedstoneConsumerBase.sol\":13033:13046  dataFeedIndex */\n      dup4\n        /* \"@redstone-finance/evm-connector/contracts/core/RedstoneConsumerBase.sol\":13016:13047  aggregatedValues[dataFeedIndex] */\n      dup2\n      mload\n      dup2\n      lt\n      tag_440\n      jumpi\n      tag_441\n      tag_257\n      jump\t// in\n    tag_441:\n    tag_440:\n      0x20\n      mul\n      0x20\n      add\n      add\n        /* \"@redstone-finance/evm-connector/contracts/core/RedstoneConsumerBase.sol\":13016:13078  aggregatedValues[dataFeedIndex] = aggregatedValueForDataFeedId */\n      dup2\n      dup2\n      mstore\n      pop\n      pop\n        /* \"@redstone-finance/evm-connector/contracts/core/RedstoneConsumerBase.sol\":12675:13085  {... */\n      pop\n        /* \"@redstone-finance/evm-connector/contracts/core/RedstoneConsumerBase.sol\":12658:12673  dataFeedIndex++ */\n      dup1\n      dup1\n      tag_442\n      swap1\n      tag_215\n      jump\t// in\n    tag_442:\n      swap2\n      pop\n      pop\n        /* \"@redstone-finance/evm-connector/contracts/core/RedstoneConsumerBase.sol\":12583:13085  for (uint256 dataFeedIndex = 0; dataFeedIndex < valuesForDataFeeds.length; dataFeedIndex++) {... */\n      jump(tag_427)\n    tag_428:\n      pop\n        /* \"@redstone-finance/evm-connector/contracts/core/RedstoneConsumerBase.sol\":13098:13114  aggregatedValues */\n      dup2\n        /* \"@redstone-finance/evm-connector/contracts/core/RedstoneConsumerBase.sol\":13091:13114  return aggregatedValues */\n      swap3\n      pop\n      pop\n      pop\n        /* \"@redstone-finance/evm-connector/contracts/core/RedstoneConsumerBase.sol\":12257:13119  function _getAggregatedValues(... */\n      swap3\n      swap2\n      pop\n      pop\n      jump\t// out\n        /* \"@redstone-finance/evm-connector/contracts/libs/SignatureLib.sol\":164:874  function recoverSignerAddress(bytes32 signedHash, uint256 signatureCalldataNegativeOffset)... */\n    tag_384:\n        /* \"@redstone-finance/evm-connector/contracts/libs/SignatureLib.sol\":290:297  address */\n      0x00\n        /* \"@redstone-finance/evm-connector/contracts/libs/SignatureLib.sol\":307:316  bytes32 r */\n      dup1\n        /* \"@redstone-finance/evm-connector/contracts/libs/SignatureLib.sol\":322:331  bytes32 s */\n      0x00\n        /* \"@redstone-finance/evm-connector/contracts/libs/SignatureLib.sol\":337:344  uint8 v */\n      dup1\n        /* \"@redstone-finance/evm-connector/contracts/libs/SignatureLib.sol\":420:451  signatureCalldataNegativeOffset */\n      dup5\n        /* \"@redstone-finance/evm-connector/contracts/libs/SignatureLib.sol\":404:418  calldatasize() */\n      calldatasize\n        /* \"@redstone-finance/evm-connector/contracts/libs/SignatureLib.sol\":400:452  sub(calldatasize(), signatureCalldataNegativeOffset) */\n      sub\n        /* \"@redstone-finance/evm-connector/contracts/libs/SignatureLib.sol\":477:502  signatureCalldataStartPos */\n      dup1\n        /* \"@redstone-finance/evm-connector/contracts/libs/SignatureLib.sol\":464:503  calldataload(signatureCalldataStartPos) */\n      calldataload\n        /* \"@redstone-finance/evm-connector/contracts/libs/SignatureLib.sol\":459:503  r := calldataload(signatureCalldataStartPos) */\n      swap4\n      pop\n        /* \"@redstone-finance/evm-connector/contracts/libs/SignatureLib.sol\":570:584  ECDSA_SIG_R_BS */\n      0x20\n        /* \"@redstone-finance/evm-connector/contracts/libs/SignatureLib.sol\":543:568  signatureCalldataStartPos */\n      dup2\n        /* \"@redstone-finance/evm-connector/contracts/libs/SignatureLib.sol\":539:585  add(signatureCalldataStartPos, ECDSA_SIG_R_BS) */\n      add\n        /* \"@redstone-finance/evm-connector/contracts/libs/SignatureLib.sol\":510:585  signatureCalldataStartPos := add(signatureCalldataStartPos, ECDSA_SIG_R_BS) */\n      swap1\n      pop\n        /* \"@redstone-finance/evm-connector/contracts/libs/SignatureLib.sol\":610:635  signatureCalldataStartPos */\n      dup1\n        /* \"@redstone-finance/evm-connector/contracts/libs/SignatureLib.sol\":597:636  calldataload(signatureCalldataStartPos) */\n      calldataload\n        /* \"@redstone-finance/evm-connector/contracts/libs/SignatureLib.sol\":592:636  s := calldataload(signatureCalldataStartPos) */\n      swap3\n      pop\n        /* \"@redstone-finance/evm-connector/contracts/libs/SignatureLib.sol\":703:717  ECDSA_SIG_S_BS */\n      0x20\n        /* \"@redstone-finance/evm-connector/contracts/libs/SignatureLib.sol\":676:701  signatureCalldataStartPos */\n      dup2\n        /* \"@redstone-finance/evm-connector/contracts/libs/SignatureLib.sol\":672:718  add(signatureCalldataStartPos, ECDSA_SIG_S_BS) */\n      add\n        /* \"@redstone-finance/evm-connector/contracts/libs/SignatureLib.sol\":643:718  signatureCalldataStartPos := add(signatureCalldataStartPos, ECDSA_SIG_S_BS) */\n      swap1\n      pop\n        /* \"@redstone-finance/evm-connector/contracts/libs/SignatureLib.sol\":751:776  signatureCalldataStartPos */\n      dup1\n        /* \"@redstone-finance/evm-connector/contracts/libs/SignatureLib.sol\":738:777  calldataload(signatureCalldataStartPos) */\n      calldataload\n        /* \"@redstone-finance/evm-connector/contracts/libs/SignatureLib.sol\":735:736  0 */\n      0x00\n        /* \"@redstone-finance/evm-connector/contracts/libs/SignatureLib.sol\":730:778  byte(0, calldataload(signatureCalldataStartPos)) */\n      byte\n        /* \"@redstone-finance/evm-connector/contracts/libs/SignatureLib.sol\":725:778  v := byte(0, calldataload(signatureCalldataStartPos)) */\n      swap2\n      pop\n        /* \"@redstone-finance/evm-connector/contracts/libs/SignatureLib.sol\":359:827  {... */\n      pop\n        /* \"@redstone-finance/evm-connector/contracts/libs/SignatureLib.sol\":839:869  ecrecover(signedHash, v, r, s) */\n      0x01\n        /* \"@redstone-finance/evm-connector/contracts/libs/SignatureLib.sol\":849:859  signedHash */\n      dup7\n        /* \"@redstone-finance/evm-connector/contracts/libs/SignatureLib.sol\":861:862  v */\n      dup3\n        /* \"@redstone-finance/evm-connector/contracts/libs/SignatureLib.sol\":864:865  r */\n      dup6\n        /* \"@redstone-finance/evm-connector/contracts/libs/SignatureLib.sol\":867:868  s */\n      dup6\n        /* \"@redstone-finance/evm-connector/contracts/libs/SignatureLib.sol\":839:869  ecrecover(signedHash, v, r, s) */\n      mload(0x40)\n      0x00\n      dup2\n      mstore\n      0x20\n      add\n      0x40\n      mstore\n      mload(0x40)\n      tag_444\n      swap5\n      swap4\n      swap3\n      swap2\n      swap1\n      tag_445\n      jump\t// in\n    tag_444:\n      0x20\n      mload(0x40)\n      0x20\n      dup2\n      sub\n      swap1\n      dup1\n      dup5\n      sub\n      swap1\n      dup6\n      gas\n      staticcall\n      iszero\n      dup1\n      iszero\n      tag_447\n      jumpi\n      returndatasize\n      0x00\n      dup1\n      returndatacopy\n      revert(0x00, returndatasize)\n    tag_447:\n      pop\n      pop\n      pop\n      mload(sub(mload(0x40), 0x20))\n        /* \"@redstone-finance/evm-connector/contracts/libs/SignatureLib.sol\":832:869  return ecrecover(signedHash, v, r, s) */\n      swap4\n      pop\n      pop\n      pop\n      pop\n        /* \"@redstone-finance/evm-connector/contracts/libs/SignatureLib.sol\":164:874  function recoverSignerAddress(bytes32 signedHash, uint256 signatureCalldataNegativeOffset)... */\n      swap3\n      swap2\n      pop\n      pop\n      jump\t// out\n        /* \"@redstone-finance/evm-connector/contracts/core/CalldataExtractor.sol\":4277:4951  function _extractDataPointValueAndDataFeedId(... */\n    tag_393:\n        /* \"@redstone-finance/evm-connector/contracts/core/CalldataExtractor.sol\":4430:4457  bytes32 dataPointDataFeedId */\n      0x00\n        /* \"@redstone-finance/evm-connector/contracts/core/CalldataExtractor.sol\":4459:4481  uint256 dataPointValue */\n      dup1\n        /* \"@redstone-finance/evm-connector/contracts/core/CalldataExtractor.sol\":4489:4520  uint256 dataPointCalldataOffset */\n      0x00\n        /* \"@redstone-finance/evm-connector/contracts/core/CalldataExtractor.sol\":4541:4564  dataPointNegativeOffset */\n      dup5\n        /* \"@redstone-finance/evm-connector/contracts/core/CalldataExtractor.sol\":4523:4531  msg.data */\n      0x00\n      calldatasize\n        /* \"@redstone-finance/evm-connector/contracts/core/CalldataExtractor.sol\":4523:4538  msg.data.length */\n      swap1\n      pop\n        /* \"@redstone-finance/evm-connector/contracts/core/CalldataExtractor.sol\":4523:4564  msg.data.length - dataPointNegativeOffset */\n      tag_449\n      swap2\n      swap1\n      tag_208\n      jump\t// in\n    tag_449:\n        /* \"@redstone-finance/evm-connector/contracts/core/CalldataExtractor.sol\":4489:4564  uint256 dataPointCalldataOffset = msg.data.length - dataPointNegativeOffset */\n      swap1\n      pop\n        /* \"@redstone-finance/evm-connector/contracts/core/CalldataExtractor.sol\":4623:4646  dataPointCalldataOffset */\n      dup1\n        /* \"@redstone-finance/evm-connector/contracts/core/CalldataExtractor.sol\":4610:4647  calldataload(dataPointCalldataOffset) */\n      calldataload\n        /* \"@redstone-finance/evm-connector/contracts/core/CalldataExtractor.sol\":4587:4647  dataPointDataFeedId := calldataload(dataPointCalldataOffset) */\n      swap3\n      pop\n        /* \"@redstone-finance/evm-connector/contracts/core/CalldataExtractor.sol\":4714:4734  DATA_POINT_SYMBOL_BS */\n      0x20\n        /* \"@redstone-finance/evm-connector/contracts/core/CalldataExtractor.sol\":4689:4712  dataPointCalldataOffset */\n      dup2\n        /* \"@redstone-finance/evm-connector/contracts/core/CalldataExtractor.sol\":4685:4735  add(dataPointCalldataOffset, DATA_POINT_SYMBOL_BS) */\n      add\n        /* \"@redstone-finance/evm-connector/contracts/core/CalldataExtractor.sol\":4672:4736  calldataload(add(dataPointCalldataOffset, DATA_POINT_SYMBOL_BS)) */\n      calldataload\n        /* \"@redstone-finance/evm-connector/contracts/core/CalldataExtractor.sol\":4654:4736  dataPointValue := calldataload(add(dataPointCalldataOffset, DATA_POINT_SYMBOL_BS)) */\n      swap2\n      pop\n        /* \"@redstone-finance/evm-connector/contracts/core/CalldataExtractor.sol\":4777:4779  33 */\n      0x21\n        /* \"@redstone-finance/evm-connector/contracts/core/CalldataExtractor.sol\":4751:4773  dataPointValueByteSize */\n      dup5\n        /* \"@redstone-finance/evm-connector/contracts/core/CalldataExtractor.sol\":4751:4779  dataPointValueByteSize >= 33 */\n      lt\n        /* \"@redstone-finance/evm-connector/contracts/core/CalldataExtractor.sol\":4747:4848  if (dataPointValueByteSize >= 33) {... */\n      tag_450\n      jumpi\n        /* \"@redstone-finance/evm-connector/contracts/core/CalldataExtractor.sol\":4818:4840  dataPointValueByteSize */\n      dup4\n        /* \"@redstone-finance/evm-connector/contracts/core/CalldataExtractor.sol\":4796:4841  TooLargeValueByteSize(dataPointValueByteSize) */\n      mload(0x40)\n      0xc000fc4200000000000000000000000000000000000000000000000000000000\n      dup2\n      mstore\n      0x04\n      add\n      tag_451\n      swap2\n      swap1\n      tag_41\n      jump\t// in\n    tag_451:\n      mload(0x40)\n      dup1\n      swap2\n      sub\n      swap1\n      revert\n        /* \"@redstone-finance/evm-connector/contracts/core/CalldataExtractor.sol\":4747:4848  if (dataPointValueByteSize >= 33) {... */\n    tag_450:\n        /* \"@redstone-finance/evm-connector/contracts/core/CalldataExtractor.sol\":4938:4939  8 */\n      0x08\n        /* \"@redstone-finance/evm-connector/contracts/core/CalldataExtractor.sol\":4912:4934  dataPointValueByteSize */\n      dup5\n        /* \"@redstone-finance/evm-connector/contracts/core/CalldataExtractor.sol\":4907:4909  32 */\n      0x20\n        /* \"@redstone-finance/evm-connector/contracts/core/CalldataExtractor.sol\":4907:4934  32 - dataPointValueByteSize */\n      sub\n        /* \"@redstone-finance/evm-connector/contracts/core/CalldataExtractor.sol\":4906:4939  (32 - dataPointValueByteSize) * 8 */\n      mul\n        /* \"@redstone-finance/evm-connector/contracts/core/CalldataExtractor.sol\":4888:4902  dataPointValue */\n      dup3\n        /* \"@redstone-finance/evm-connector/contracts/core/CalldataExtractor.sol\":4888:4939  dataPointValue >> (32 - dataPointValueByteSize) * 8 */\n      swap1\n      shr\n        /* \"@redstone-finance/evm-connector/contracts/core/CalldataExtractor.sol\":4871:4939  dataPointValue = dataPointValue >> (32 - dataPointValueByteSize) * 8 */\n      swap2\n      pop\n        /* \"@redstone-finance/evm-connector/contracts/core/CalldataExtractor.sol\":4483:4951  {... */\n      pop\n        /* \"@redstone-finance/evm-connector/contracts/core/CalldataExtractor.sol\":4277:4951  function _extractDataPointValueAndDataFeedId(... */\n      swap3\n      pop\n      swap3\n      swap1\n      pop\n      jump\t// out\n        /* \"@redstone-finance/evm-connector/contracts/libs/BitmapLib.sol\":216:388  function getBitFromBitmap(uint256 bitmap, uint256 bitIndex) internal pure returns (bool) {... */\n    tag_403:\n        /* \"@redstone-finance/evm-connector/contracts/libs/BitmapLib.sol\":299:303  bool */\n      0x00\n        /* \"@redstone-finance/evm-connector/contracts/libs/BitmapLib.sol\":311:329  uint256 bitAtIndex */\n      dup1\n        /* \"@redstone-finance/evm-connector/contracts/libs/BitmapLib.sol\":347:355  bitIndex */\n      dup3\n        /* \"@redstone-finance/evm-connector/contracts/libs/BitmapLib.sol\":342:343  1 */\n      0x01\n        /* \"@redstone-finance/evm-connector/contracts/libs/BitmapLib.sol\":342:355  1 << bitIndex */\n      swap1\n      shl\n        /* \"@redstone-finance/evm-connector/contracts/libs/BitmapLib.sol\":332:338  bitmap */\n      dup5\n        /* \"@redstone-finance/evm-connector/contracts/libs/BitmapLib.sol\":332:356  bitmap & (1 << bitIndex) */\n      and\n        /* \"@redstone-finance/evm-connector/contracts/libs/BitmapLib.sol\":311:356  uint256 bitAtIndex = bitmap & (1 << bitIndex) */\n      swap1\n      pop\n        /* \"@redstone-finance/evm-connector/contracts/libs/BitmapLib.sol\":382:383  0 */\n      0x00\n        /* \"@redstone-finance/evm-connector/contracts/libs/BitmapLib.sol\":369:379  bitAtIndex */\n      dup2\n        /* \"@redstone-finance/evm-connector/contracts/libs/BitmapLib.sol\":369:383  bitAtIndex > 0 */\n      gt\n        /* \"@redstone-finance/evm-connector/contracts/libs/BitmapLib.sol\":362:383  return bitAtIndex > 0 */\n      swap2\n      pop\n      pop\n        /* \"@redstone-finance/evm-connector/contracts/libs/BitmapLib.sol\":216:388  function getBitFromBitmap(uint256 bitmap, uint256 bitIndex) internal pure returns (bool) {... */\n      swap3\n      swap2\n      pop\n      pop\n      jump\t// out\n        /* \"@redstone-finance/evm-connector/contracts/libs/BitmapLib.sol\":80:212  function setBitInBitmap(uint256 bitmap, uint256 bitIndex) internal pure returns (uint256) {... */\n    tag_419:\n        /* \"@redstone-finance/evm-connector/contracts/libs/BitmapLib.sol\":161:168  uint256 */\n      0x00\n        /* \"@redstone-finance/evm-connector/contracts/libs/BitmapLib.sol\":198:206  bitIndex */\n      dup2\n        /* \"@redstone-finance/evm-connector/contracts/libs/BitmapLib.sol\":193:194  1 */\n      0x01\n        /* \"@redstone-finance/evm-connector/contracts/libs/BitmapLib.sol\":193:206  1 << bitIndex */\n      swap1\n      shl\n        /* \"@redstone-finance/evm-connector/contracts/libs/BitmapLib.sol\":183:189  bitmap */\n      dup4\n        /* \"@redstone-finance/evm-connector/contracts/libs/BitmapLib.sol\":183:207  bitmap | (1 << bitIndex) */\n      or\n        /* \"@redstone-finance/evm-connector/contracts/libs/BitmapLib.sol\":176:207  return bitmap | (1 << bitIndex) */\n      swap1\n      pop\n        /* \"@redstone-finance/evm-connector/contracts/libs/BitmapLib.sol\":80:212  function setBitInBitmap(uint256 bitmap, uint256 bitIndex) internal pure returns (uint256) {... */\n      swap3\n      swap2\n      pop\n      pop\n      jump\t// out\n        /* \"#utility.yul\":7:82   */\n    tag_454:\n        /* \"#utility.yul\":40:46   */\n      0x00\n        /* \"#utility.yul\":73:75   */\n      0x40\n        /* \"#utility.yul\":67:76   */\n      mload\n        /* \"#utility.yul\":57:76   */\n      swap1\n      pop\n        /* \"#utility.yul\":7:82   */\n      swap1\n      jump\t// out\n        /* \"#utility.yul\":88:205   */\n    tag_455:\n        /* \"#utility.yul\":197:198   */\n      0x00\n        /* \"#utility.yul\":194:195   */\n      dup1\n        /* \"#utility.yul\":187:199   */\n      revert\n        /* \"#utility.yul\":211:328   */\n    tag_456:\n        /* \"#utility.yul\":320:321   */\n      0x00\n        /* \"#utility.yul\":317:318   */\n      dup1\n        /* \"#utility.yul\":310:322   */\n      revert\n        /* \"#utility.yul\":334:424   */\n    tag_457:\n        /* \"#utility.yul\":368:375   */\n      0x00\n        /* \"#utility.yul\":411:416   */\n      dup2\n        /* \"#utility.yul\":404:417   */\n      iszero\n        /* \"#utility.yul\":397:418   */\n      iszero\n        /* \"#utility.yul\":386:418   */\n      swap1\n      pop\n        /* \"#utility.yul\":334:424   */\n      swap2\n      swap1\n      pop\n      jump\t// out\n        /* \"#utility.yul\":430:546   */\n    tag_458:\n        /* \"#utility.yul\":500:521   */\n      tag_520\n        /* \"#utility.yul\":515:520   */\n      dup2\n        /* \"#utility.yul\":500:521   */\n      tag_457\n      jump\t// in\n    tag_520:\n        /* \"#utility.yul\":493:498   */\n      dup2\n        /* \"#utility.yul\":490:522   */\n      eq\n        /* \"#utility.yul\":480:540   */\n      tag_521\n      jumpi\n        /* \"#utility.yul\":536:537   */\n      0x00\n        /* \"#utility.yul\":533:534   */\n      dup1\n        /* \"#utility.yul\":526:538   */\n      revert\n        /* \"#utility.yul\":480:540   */\n    tag_521:\n        /* \"#utility.yul\":430:546   */\n      pop\n      jump\t// out\n        /* \"#utility.yul\":552:685   */\n    tag_459:\n        /* \"#utility.yul\":595:600   */\n      0x00\n        /* \"#utility.yul\":633:639   */\n      dup2\n        /* \"#utility.yul\":620:640   */\n      calldataload\n        /* \"#utility.yul\":611:640   */\n      swap1\n      pop\n        /* \"#utility.yul\":649:679   */\n      tag_523\n        /* \"#utility.yul\":673:678   */\n      dup2\n        /* \"#utility.yul\":649:679   */\n      tag_458\n      jump\t// in\n    tag_523:\n        /* \"#utility.yul\":552:685   */\n      swap3\n      swap2\n      pop\n      pop\n      jump\t// out\n        /* \"#utility.yul\":691:1014   */\n    tag_33:\n        /* \"#utility.yul\":747:753   */\n      0x00\n        /* \"#utility.yul\":796:798   */\n      0x20\n        /* \"#utility.yul\":784:793   */\n      dup3\n        /* \"#utility.yul\":775:782   */\n      dup5\n        /* \"#utility.yul\":771:794   */\n      sub\n        /* \"#utility.yul\":767:799   */\n      slt\n        /* \"#utility.yul\":764:883   */\n      iszero\n      tag_525\n      jumpi\n        /* \"#utility.yul\":802:881   */\n      tag_526\n      tag_455\n      jump\t// in\n    tag_526:\n        /* \"#utility.yul\":764:883   */\n    tag_525:\n        /* \"#utility.yul\":922:923   */\n      0x00\n        /* \"#utility.yul\":947:997   */\n      tag_527\n        /* \"#utility.yul\":989:996   */\n      dup5\n        /* \"#utility.yul\":980:986   */\n      dup3\n        /* \"#utility.yul\":969:978   */\n      dup6\n        /* \"#utility.yul\":965:987   */\n      add\n        /* \"#utility.yul\":947:997   */\n      tag_459\n      jump\t// in\n    tag_527:\n        /* \"#utility.yul\":937:997   */\n      swap2\n      pop\n        /* \"#utility.yul\":893:1007   */\n      pop\n        /* \"#utility.yul\":691:1014   */\n      swap3\n      swap2\n      pop\n      pop\n      jump\t// out\n        /* \"#utility.yul\":1020:1146   */\n    tag_460:\n        /* \"#utility.yul\":1057:1064   */\n      0x00\n        /* \"#utility.yul\":1097:1139   */\n      0xffffffffffffffffffffffffffffffffffffffff\n        /* \"#utility.yul\":1090:1095   */\n      dup3\n        /* \"#utility.yul\":1086:1140   */\n      and\n        /* \"#utility.yul\":1075:1140   */\n      swap1\n      pop\n        /* \"#utility.yul\":1020:1146   */\n      swap2\n      swap1\n      pop\n      jump\t// out\n        /* \"#utility.yul\":1152:1248   */\n    tag_461:\n        /* \"#utility.yul\":1189:1196   */\n      0x00\n        /* \"#utility.yul\":1218:1242   */\n      tag_530\n        /* \"#utility.yul\":1236:1241   */\n      dup3\n        /* \"#utility.yul\":1218:1242   */\n      tag_460\n      jump\t// in\n    tag_530:\n        /* \"#utility.yul\":1207:1242   */\n      swap1\n      pop\n        /* \"#utility.yul\":1152:1248   */\n      swap2\n      swap1\n      pop\n      jump\t// out\n        /* \"#utility.yul\":1254:1376   */\n    tag_462:\n        /* \"#utility.yul\":1327:1351   */\n      tag_532\n        /* \"#utility.yul\":1345:1350   */\n      dup2\n        /* \"#utility.yul\":1327:1351   */\n      tag_461\n      jump\t// in\n    tag_532:\n        /* \"#utility.yul\":1320:1325   */\n      dup2\n        /* \"#utility.yul\":1317:1352   */\n      eq\n        /* \"#utility.yul\":1307:1370   */\n      tag_533\n      jumpi\n        /* \"#utility.yul\":1366:1367   */\n      0x00\n        /* \"#utility.yul\":1363:1364   */\n      dup1\n        /* \"#utility.yul\":1356:1368   */\n      revert\n        /* \"#utility.yul\":1307:1370   */\n    tag_533:\n        /* \"#utility.yul\":1254:1376   */\n      pop\n      jump\t// out\n        /* \"#utility.yul\":1382:1521   */\n    tag_463:\n        /* \"#utility.yul\":1428:1433   */\n      0x00\n        /* \"#utility.yul\":1466:1472   */\n      dup2\n        /* \"#utility.yul\":1453:1473   */\n      calldataload\n        /* \"#utility.yul\":1444:1473   */\n      swap1\n      pop\n        /* \"#utility.yul\":1482:1515   */\n      tag_535\n        /* \"#utility.yul\":1509:1514   */\n      dup2\n        /* \"#utility.yul\":1482:1515   */\n      tag_462\n      jump\t// in\n    tag_535:\n        /* \"#utility.yul\":1382:1521   */\n      swap3\n      swap2\n      pop\n      pop\n      jump\t// out\n        /* \"#utility.yul\":1527:1856   */\n    tag_38:\n        /* \"#utility.yul\":1586:1592   */\n      0x00\n        /* \"#utility.yul\":1635:1637   */\n      0x20\n        /* \"#utility.yul\":1623:1632   */\n      dup3\n        /* \"#utility.yul\":1614:1621   */\n      dup5\n        /* \"#utility.yul\":1610:1633   */\n      sub\n        /* \"#utility.yul\":1606:1638   */\n      slt\n        /* \"#utility.yul\":1603:1722   */\n      iszero\n      tag_537\n      jumpi\n        /* \"#utility.yul\":1641:1720   */\n      tag_538\n      tag_455\n      jump\t// in\n    tag_538:\n        /* \"#utility.yul\":1603:1722   */\n    tag_537:\n        /* \"#utility.yul\":1761:1762   */\n      0x00\n        /* \"#utility.yul\":1786:1839   */\n      tag_539\n        /* \"#utility.yul\":1831:1838   */\n      dup5\n        /* \"#utility.yul\":1822:1828   */\n      dup3\n        /* \"#utility.yul\":1811:1820   */\n      dup6\n        /* \"#utility.yul\":1807:1829   */\n      add\n        /* \"#utility.yul\":1786:1839   */\n      tag_463\n      jump\t// in\n    tag_539:\n        /* \"#utility.yul\":1776:1839   */\n      swap2\n      pop\n        /* \"#utility.yul\":1732:1849   */\n      pop\n        /* \"#utility.yul\":1527:1856   */\n      swap3\n      swap2\n      pop\n      pop\n      jump\t// out\n        /* \"#utility.yul\":1862:1939   */\n    tag_464:\n        /* \"#utility.yul\":1899:1906   */\n      0x00\n        /* \"#utility.yul\":1928:1933   */\n      dup2\n        /* \"#utility.yul\":1917:1933   */\n      swap1\n      pop\n        /* \"#utility.yul\":1862:1939   */\n      swap2\n      swap1\n      pop\n      jump\t// out\n        /* \"#utility.yul\":1945:2063   */\n    tag_465:\n        /* \"#utility.yul\":2032:2056   */\n      tag_542\n        /* \"#utility.yul\":2050:2055   */\n      dup2\n        /* \"#utility.yul\":2032:2056   */\n      tag_464\n      jump\t// in\n    tag_542:\n        /* \"#utility.yul\":2027:2030   */\n      dup3\n        /* \"#utility.yul\":2020:2057   */\n      mstore\n        /* \"#utility.yul\":1945:2063   */\n      pop\n      pop\n      jump\t// out\n        /* \"#utility.yul\":2069:2291   */\n    tag_41:\n        /* \"#utility.yul\":2162:2166   */\n      0x00\n        /* \"#utility.yul\":2200:2202   */\n      0x20\n        /* \"#utility.yul\":2189:2198   */\n      dup3\n        /* \"#utility.yul\":2185:2203   */\n      add\n        /* \"#utility.yul\":2177:2203   */\n      swap1\n      pop\n        /* \"#utility.yul\":2213:2284   */\n      tag_544\n        /* \"#utility.yul\":2281:2282   */\n      0x00\n        /* \"#utility.yul\":2270:2279   */\n      dup4\n        /* \"#utility.yul\":2266:2283   */\n      add\n        /* \"#utility.yul\":2257:2263   */\n      dup5\n        /* \"#utility.yul\":2213:2284   */\n      tag_465\n      jump\t// in\n    tag_544:\n        /* \"#utility.yul\":2069:2291   */\n      swap3\n      swap2\n      pop\n      pop\n      jump\t// out\n        /* \"#utility.yul\":2297:2373   */\n    tag_466:\n        /* \"#utility.yul\":2333:2340   */\n      0x00\n        /* \"#utility.yul\":2362:2367   */\n      dup2\n        /* \"#utility.yul\":2351:2367   */\n      swap1\n      pop\n        /* \"#utility.yul\":2297:2373   */\n      swap2\n      swap1\n      pop\n      jump\t// out\n        /* \"#utility.yul\":2379:2494   */\n    tag_467:\n        /* \"#utility.yul\":2464:2487   */\n      tag_547\n        /* \"#utility.yul\":2481:2486   */\n      dup2\n        /* \"#utility.yul\":2464:2487   */\n      tag_466\n      jump\t// in\n    tag_547:\n        /* \"#utility.yul\":2459:2462   */\n      dup3\n        /* \"#utility.yul\":2452:2488   */\n      mstore\n        /* \"#utility.yul\":2379:2494   */\n      pop\n      pop\n      jump\t// out\n        /* \"#utility.yul\":2500:2718   */\n    tag_50:\n        /* \"#utility.yul\":2591:2595   */\n      0x00\n        /* \"#utility.yul\":2629:2631   */\n      0x20\n        /* \"#utility.yul\":2618:2627   */\n      dup3\n        /* \"#utility.yul\":2614:2632   */\n      add\n        /* \"#utility.yul\":2606:2632   */\n      swap1\n      pop\n        /* \"#utility.yul\":2642:2711   */\n      tag_549\n        /* \"#utility.yul\":2708:2709   */\n      0x00\n        /* \"#utility.yul\":2697:2706   */\n      dup4\n        /* \"#utility.yul\":2693:2710   */\n      add\n        /* \"#utility.yul\":2684:2690   */\n      dup5\n        /* \"#utility.yul\":2642:2711   */\n      tag_467\n      jump\t// in\n    tag_549:\n        /* \"#utility.yul\":2500:2718   */\n      swap3\n      swap2\n      pop\n      pop\n      jump\t// out\n        /* \"#utility.yul\":2724:2810   */\n    tag_468:\n        /* \"#utility.yul\":2759:2766   */\n      0x00\n        /* \"#utility.yul\":2799:2803   */\n      0xff\n        /* \"#utility.yul\":2792:2797   */\n      dup3\n        /* \"#utility.yul\":2788:2804   */\n      and\n        /* \"#utility.yul\":2777:2804   */\n      swap1\n      pop\n        /* \"#utility.yul\":2724:2810   */\n      swap2\n      swap1\n      pop\n      jump\t// out\n        /* \"#utility.yul\":2816:2928   */\n    tag_469:\n        /* \"#utility.yul\":2899:2921   */\n      tag_552\n        /* \"#utility.yul\":2915:2920   */\n      dup2\n        /* \"#utility.yul\":2899:2921   */\n      tag_468\n      jump\t// in\n    tag_552:\n        /* \"#utility.yul\":2894:2897   */\n      dup3\n        /* \"#utility.yul\":2887:2922   */\n      mstore\n        /* \"#utility.yul\":2816:2928   */\n      pop\n      pop\n      jump\t// out\n        /* \"#utility.yul\":2934:3148   */\n    tag_56:\n        /* \"#utility.yul\":3023:3027   */\n      0x00\n        /* \"#utility.yul\":3061:3063   */\n      0x20\n        /* \"#utility.yul\":3050:3059   */\n      dup3\n        /* \"#utility.yul\":3046:3064   */\n      add\n        /* \"#utility.yul\":3038:3064   */\n      swap1\n      pop\n        /* \"#utility.yul\":3074:3141   */\n      tag_554\n        /* \"#utility.yul\":3138:3139   */\n      0x00\n        /* \"#utility.yul\":3127:3136   */\n      dup4\n        /* \"#utility.yul\":3123:3140   */\n      add\n        /* \"#utility.yul\":3114:3120   */\n      dup5\n        /* \"#utility.yul\":3074:3141   */\n      tag_469\n      jump\t// in\n    tag_554:\n        /* \"#utility.yul\":2934:3148   */\n      swap3\n      swap2\n      pop\n      pop\n      jump\t// out\n        /* \"#utility.yul\":3154:3276   */\n    tag_470:\n        /* \"#utility.yul\":3227:3251   */\n      tag_556\n        /* \"#utility.yul\":3245:3250   */\n      dup2\n        /* \"#utility.yul\":3227:3251   */\n      tag_464\n      jump\t// in\n    tag_556:\n        /* \"#utility.yul\":3220:3225   */\n      dup2\n        /* \"#utility.yul\":3217:3252   */\n      eq\n        /* \"#utility.yul\":3207:3270   */\n      tag_557\n      jumpi\n        /* \"#utility.yul\":3266:3267   */\n      0x00\n        /* \"#utility.yul\":3263:3264   */\n      dup1\n        /* \"#utility.yul\":3256:3268   */\n      revert\n        /* \"#utility.yul\":3207:3270   */\n    tag_557:\n        /* \"#utility.yul\":3154:3276   */\n      pop\n      jump\t// out\n        /* \"#utility.yul\":3282:3421   */\n    tag_471:\n        /* \"#utility.yul\":3328:3333   */\n      0x00\n        /* \"#utility.yul\":3366:3372   */\n      dup2\n        /* \"#utility.yul\":3353:3373   */\n      calldataload\n        /* \"#utility.yul\":3344:3373   */\n      swap1\n      pop\n        /* \"#utility.yul\":3382:3415   */\n      tag_559\n        /* \"#utility.yul\":3409:3414   */\n      dup2\n        /* \"#utility.yul\":3382:3415   */\n      tag_470\n      jump\t// in\n    tag_559:\n        /* \"#utility.yul\":3282:3421   */\n      swap3\n      swap2\n      pop\n      pop\n      jump\t// out\n        /* \"#utility.yul\":3427:3756   */\n    tag_66:\n        /* \"#utility.yul\":3486:3492   */\n      0x00\n        /* \"#utility.yul\":3535:3537   */\n      0x20\n        /* \"#utility.yul\":3523:3532   */\n      dup3\n        /* \"#utility.yul\":3514:3521   */\n      dup5\n        /* \"#utility.yul\":3510:3533   */\n      sub\n        /* \"#utility.yul\":3506:3538   */\n      slt\n        /* \"#utility.yul\":3503:3622   */\n      iszero\n      tag_561\n      jumpi\n        /* \"#utility.yul\":3541:3620   */\n      tag_562\n      tag_455\n      jump\t// in\n    tag_562:\n        /* \"#utility.yul\":3503:3622   */\n    tag_561:\n        /* \"#utility.yul\":3661:3662   */\n      0x00\n        /* \"#utility.yul\":3686:3739   */\n      tag_563\n        /* \"#utility.yul\":3731:3738   */\n      dup5\n        /* \"#utility.yul\":3722:3728   */\n      dup3\n        /* \"#utility.yul\":3711:3720   */\n      dup6\n        /* \"#utility.yul\":3707:3729   */\n      add\n        /* \"#utility.yul\":3686:3739   */\n      tag_471\n      jump\t// in\n    tag_563:\n        /* \"#utility.yul\":3676:3739   */\n      swap2\n      pop\n        /* \"#utility.yul\":3632:3749   */\n      pop\n        /* \"#utility.yul\":3427:3756   */\n      swap3\n      swap2\n      pop\n      pop\n      jump\t// out\n        /* \"#utility.yul\":3762:3851   */\n    tag_472:\n        /* \"#utility.yul\":3796:3803   */\n      0x00\n        /* \"#utility.yul\":3839:3844   */\n      dup2\n        /* \"#utility.yul\":3836:3837   */\n      0x00\n        /* \"#utility.yul\":3825:3845   */\n      signextend\n        /* \"#utility.yul\":3814:3845   */\n      swap1\n      pop\n        /* \"#utility.yul\":3762:3851   */\n      swap2\n      swap1\n      pop\n      jump\t// out\n        /* \"#utility.yul\":3857:3966   */\n    tag_473:\n        /* \"#utility.yul\":3938:3959   */\n      tag_566\n        /* \"#utility.yul\":3953:3958   */\n      dup2\n        /* \"#utility.yul\":3938:3959   */\n      tag_472\n      jump\t// in\n    tag_566:\n        /* \"#utility.yul\":3933:3936   */\n      dup3\n        /* \"#utility.yul\":3926:3960   */\n      mstore\n        /* \"#utility.yul\":3857:3966   */\n      pop\n      pop\n      jump\t// out\n        /* \"#utility.yul\":3972:4182   */\n    tag_88:\n        /* \"#utility.yul\":4059:4063   */\n      0x00\n        /* \"#utility.yul\":4097:4099   */\n      0x20\n        /* \"#utility.yul\":4086:4095   */\n      dup3\n        /* \"#utility.yul\":4082:4100   */\n      add\n        /* \"#utility.yul\":4074:4100   */\n      swap1\n      pop\n        /* \"#utility.yul\":4110:4175   */\n      tag_568\n        /* \"#utility.yul\":4172:4173   */\n      0x00\n        /* \"#utility.yul\":4161:4170   */\n      dup4\n        /* \"#utility.yul\":4157:4174   */\n      add\n        /* \"#utility.yul\":4148:4154   */\n      dup5\n        /* \"#utility.yul\":4110:4175   */\n      tag_473\n      jump\t// in\n    tag_568:\n        /* \"#utility.yul\":3972:4182   */\n      swap3\n      swap2\n      pop\n      pop\n      jump\t// out\n        /* \"#utility.yul\":4188:4306   */\n    tag_474:\n        /* \"#utility.yul\":4275:4299   */\n      tag_570\n        /* \"#utility.yul\":4293:4298   */\n      dup2\n        /* \"#utility.yul\":4275:4299   */\n      tag_461\n      jump\t// in\n    tag_570:\n        /* \"#utility.yul\":4270:4273   */\n      dup3\n        /* \"#utility.yul\":4263:4300   */\n      mstore\n        /* \"#utility.yul\":4188:4306   */\n      pop\n      pop\n      jump\t// out\n        /* \"#utility.yul\":4312:4534   */\n    tag_93:\n        /* \"#utility.yul\":4405:4409   */\n      0x00\n        /* \"#utility.yul\":4443:4445   */\n      0x20\n        /* \"#utility.yul\":4432:4441   */\n      dup3\n        /* \"#utility.yul\":4428:4446   */\n      add\n        /* \"#utility.yul\":4420:4446   */\n      swap1\n      pop\n        /* \"#utility.yul\":4456:4527   */\n      tag_572\n        /* \"#utility.yul\":4524:4525   */\n      0x00\n        /* \"#utility.yul\":4513:4522   */\n      dup4\n        /* \"#utility.yul\":4509:4526   */\n      add\n        /* \"#utility.yul\":4500:4506   */\n      dup5\n        /* \"#utility.yul\":4456:4527   */\n      tag_474\n      jump\t// in\n    tag_572:\n        /* \"#utility.yul\":4312:4534   */\n      swap3\n      swap2\n      pop\n      pop\n      jump\t// out\n        /* \"#utility.yul\":4540:4657   */\n    tag_475:\n        /* \"#utility.yul\":4649:4650   */\n      0x00\n        /* \"#utility.yul\":4646:4647   */\n      dup1\n        /* \"#utility.yul\":4639:4651   */\n      revert\n        /* \"#utility.yul\":4663:4765   */\n    tag_476:\n        /* \"#utility.yul\":4704:4710   */\n      0x00\n        /* \"#utility.yul\":4755:4757   */\n      0x1f\n        /* \"#utility.yul\":4751:4758   */\n      not\n        /* \"#utility.yul\":4746:4748   */\n      0x1f\n        /* \"#utility.yul\":4739:4744   */\n      dup4\n        /* \"#utility.yul\":4735:4749   */\n      add\n        /* \"#utility.yul\":4731:4759   */\n      and\n        /* \"#utility.yul\":4721:4759   */\n      swap1\n      pop\n        /* \"#utility.yul\":4663:4765   */\n      swap2\n      swap1\n      pop\n      jump\t// out\n        /* \"#utility.yul\":4771:4951   */\n    tag_253:\n        /* \"#utility.yul\":4819:4896   */\n      0x4e487b7100000000000000000000000000000000000000000000000000000000\n        /* \"#utility.yul\":4816:4817   */\n      0x00\n        /* \"#utility.yul\":4809:4897   */\n      mstore\n        /* \"#utility.yul\":4916:4920   */\n      0x41\n        /* \"#utility.yul\":4913:4914   */\n      0x04\n        /* \"#utility.yul\":4906:4921   */\n      mstore\n        /* \"#utility.yul\":4940:4944   */\n      0x24\n        /* \"#utility.yul\":4937:4938   */\n      0x00\n        /* \"#utility.yul\":4930:4945   */\n      revert\n        /* \"#utility.yul\":4957:5238   */\n    tag_477:\n        /* \"#utility.yul\":5040:5067   */\n      tag_577\n        /* \"#utility.yul\":5062:5066   */\n      dup3\n        /* \"#utility.yul\":5040:5067   */\n      tag_476\n      jump\t// in\n    tag_577:\n        /* \"#utility.yul\":5032:5038   */\n      dup2\n        /* \"#utility.yul\":5028:5068   */\n      add\n        /* \"#utility.yul\":5170:5176   */\n      dup2\n        /* \"#utility.yul\":5158:5168   */\n      dup2\n        /* \"#utility.yul\":5155:5177   */\n      lt\n        /* \"#utility.yul\":5134:5152   */\n      0xffffffffffffffff\n        /* \"#utility.yul\":5122:5132   */\n      dup3\n        /* \"#utility.yul\":5119:5153   */\n      gt\n        /* \"#utility.yul\":5116:5178   */\n      or\n        /* \"#utility.yul\":5113:5201   */\n      iszero\n      tag_578\n      jumpi\n        /* \"#utility.yul\":5181:5199   */\n      tag_579\n      tag_253\n      jump\t// in\n    tag_579:\n        /* \"#utility.yul\":5113:5201   */\n    tag_578:\n        /* \"#utility.yul\":5221:5231   */\n      dup1\n        /* \"#utility.yul\":5217:5219   */\n      0x40\n        /* \"#utility.yul\":5210:5232   */\n      mstore\n        /* \"#utility.yul\":5000:5238   */\n      pop\n        /* \"#utility.yul\":4957:5238   */\n      pop\n      pop\n      jump\t// out\n        /* \"#utility.yul\":5244:5373   */\n    tag_478:\n        /* \"#utility.yul\":5278:5284   */\n      0x00\n        /* \"#utility.yul\":5305:5325   */\n      tag_581\n      tag_454\n      jump\t// in\n    tag_581:\n        /* \"#utility.yul\":5295:5325   */\n      swap1\n      pop\n        /* \"#utility.yul\":5334:5367   */\n      tag_582\n        /* \"#utility.yul\":5362:5366   */\n      dup3\n        /* \"#utility.yul\":5354:5360   */\n      dup3\n        /* \"#utility.yul\":5334:5367   */\n      tag_477\n      jump\t// in\n    tag_582:\n        /* \"#utility.yul\":5244:5373   */\n      swap2\n      swap1\n      pop\n      jump\t// out\n        /* \"#utility.yul\":5379:5690   */\n    tag_479:\n        /* \"#utility.yul\":5456:5460   */\n      0x00\n        /* \"#utility.yul\":5546:5564   */\n      0xffffffffffffffff\n        /* \"#utility.yul\":5538:5544   */\n      dup3\n        /* \"#utility.yul\":5535:5565   */\n      gt\n        /* \"#utility.yul\":5532:5588   */\n      iszero\n      tag_584\n      jumpi\n        /* \"#utility.yul\":5568:5586   */\n      tag_585\n      tag_253\n      jump\t// in\n    tag_585:\n        /* \"#utility.yul\":5532:5588   */\n    tag_584:\n        /* \"#utility.yul\":5618:5622   */\n      0x20\n        /* \"#utility.yul\":5610:5616   */\n      dup3\n        /* \"#utility.yul\":5606:5623   */\n      mul\n        /* \"#utility.yul\":5598:5623   */\n      swap1\n      pop\n        /* \"#utility.yul\":5678:5682   */\n      0x20\n        /* \"#utility.yul\":5672:5676   */\n      dup2\n        /* \"#utility.yul\":5668:5683   */\n      add\n        /* \"#utility.yul\":5660:5683   */\n      swap1\n      pop\n        /* \"#utility.yul\":5379:5690   */\n      swap2\n      swap1\n      pop\n      jump\t// out\n        /* \"#utility.yul\":5696:5813   */\n    tag_480:\n        /* \"#utility.yul\":5805:5806   */\n      0x00\n        /* \"#utility.yul\":5802:5803   */\n      dup1\n        /* \"#utility.yul\":5795:5807   */\n      revert\n        /* \"#utility.yul\":5836:6546   */\n    tag_481:\n        /* \"#utility.yul\":5932:5937   */\n      0x00\n        /* \"#utility.yul\":5957:6038   */\n      tag_588\n        /* \"#utility.yul\":5973:6037   */\n      tag_589\n        /* \"#utility.yul\":6030:6036   */\n      dup5\n        /* \"#utility.yul\":5973:6037   */\n      tag_479\n      jump\t// in\n    tag_589:\n        /* \"#utility.yul\":5957:6038   */\n      tag_478\n      jump\t// in\n    tag_588:\n        /* \"#utility.yul\":5948:6038   */\n      swap1\n      pop\n        /* \"#utility.yul\":6058:6063   */\n      dup1\n        /* \"#utility.yul\":6087:6093   */\n      dup4\n        /* \"#utility.yul\":6080:6085   */\n      dup3\n        /* \"#utility.yul\":6073:6094   */\n      mstore\n        /* \"#utility.yul\":6121:6125   */\n      0x20\n        /* \"#utility.yul\":6114:6119   */\n      dup3\n        /* \"#utility.yul\":6110:6126   */\n      add\n        /* \"#utility.yul\":6103:6126   */\n      swap1\n      pop\n        /* \"#utility.yul\":6174:6178   */\n      0x20\n        /* \"#utility.yul\":6166:6172   */\n      dup5\n        /* \"#utility.yul\":6162:6179   */\n      mul\n        /* \"#utility.yul\":6154:6160   */\n      dup4\n        /* \"#utility.yul\":6150:6180   */\n      add\n        /* \"#utility.yul\":6203:6206   */\n      dup6\n        /* \"#utility.yul\":6195:6201   */\n      dup2\n        /* \"#utility.yul\":6192:6207   */\n      gt\n        /* \"#utility.yul\":6189:6311   */\n      iszero\n      tag_590\n      jumpi\n        /* \"#utility.yul\":6222:6301   */\n      tag_591\n      tag_480\n      jump\t// in\n    tag_591:\n        /* \"#utility.yul\":6189:6311   */\n    tag_590:\n        /* \"#utility.yul\":6337:6343   */\n      dup4\n        /* \"#utility.yul\":6320:6540   */\n    tag_592:\n        /* \"#utility.yul\":6354:6360   */\n      dup2\n        /* \"#utility.yul\":6349:6352   */\n      dup2\n        /* \"#utility.yul\":6346:6361   */\n      lt\n        /* \"#utility.yul\":6320:6540   */\n      iszero\n      tag_594\n      jumpi\n        /* \"#utility.yul\":6429:6432   */\n      dup1\n        /* \"#utility.yul\":6458:6495   */\n      tag_595\n        /* \"#utility.yul\":6491:6494   */\n      dup9\n        /* \"#utility.yul\":6479:6489   */\n      dup3\n        /* \"#utility.yul\":6458:6495   */\n      tag_471\n      jump\t// in\n    tag_595:\n        /* \"#utility.yul\":6453:6456   */\n      dup5\n        /* \"#utility.yul\":6446:6496   */\n      mstore\n        /* \"#utility.yul\":6525:6529   */\n      0x20\n        /* \"#utility.yul\":6520:6523   */\n      dup5\n        /* \"#utility.yul\":6516:6530   */\n      add\n        /* \"#utility.yul\":6509:6530   */\n      swap4\n      pop\n        /* \"#utility.yul\":6396:6540   */\n      pop\n        /* \"#utility.yul\":6380:6384   */\n      0x20\n        /* \"#utility.yul\":6375:6378   */\n      dup2\n        /* \"#utility.yul\":6371:6385   */\n      add\n        /* \"#utility.yul\":6364:6385   */\n      swap1\n      pop\n        /* \"#utility.yul\":6320:6540   */\n      jump(tag_592)\n    tag_594:\n        /* \"#utility.yul\":6324:6345   */\n      pop\n        /* \"#utility.yul\":5938:6546   */\n      pop\n      pop\n        /* \"#utility.yul\":5836:6546   */\n      swap4\n      swap3\n      pop\n      pop\n      pop\n      jump\t// out\n        /* \"#utility.yul\":6569:6939   */\n    tag_482:\n        /* \"#utility.yul\":6640:6645   */\n      0x00\n        /* \"#utility.yul\":6689:6692   */\n      dup3\n        /* \"#utility.yul\":6682:6686   */\n      0x1f\n        /* \"#utility.yul\":6674:6680   */\n      dup4\n        /* \"#utility.yul\":6670:6687   */\n      add\n        /* \"#utility.yul\":6666:6693   */\n      slt\n        /* \"#utility.yul\":6656:6778   */\n      tag_597\n      jumpi\n        /* \"#utility.yul\":6697:6776   */\n      tag_598\n      tag_475\n      jump\t// in\n    tag_598:\n        /* \"#utility.yul\":6656:6778   */\n    tag_597:\n        /* \"#utility.yul\":6814:6820   */\n      dup2\n        /* \"#utility.yul\":6801:6821   */\n      calldataload\n        /* \"#utility.yul\":6839:6933   */\n      tag_599\n        /* \"#utility.yul\":6929:6932   */\n      dup5\n        /* \"#utility.yul\":6921:6927   */\n      dup3\n        /* \"#utility.yul\":6914:6918   */\n      0x20\n        /* \"#utility.yul\":6906:6912   */\n      dup7\n        /* \"#utility.yul\":6902:6919   */\n      add\n        /* \"#utility.yul\":6839:6933   */\n      tag_481\n      jump\t// in\n    tag_599:\n        /* \"#utility.yul\":6830:6933   */\n      swap2\n      pop\n        /* \"#utility.yul\":6646:6939   */\n      pop\n        /* \"#utility.yul\":6569:6939   */\n      swap3\n      swap2\n      pop\n      pop\n      jump\t// out\n        /* \"#utility.yul\":6945:7484   */\n    tag_105:\n        /* \"#utility.yul\":7029:7035   */\n      0x00\n        /* \"#utility.yul\":7078:7080   */\n      0x20\n        /* \"#utility.yul\":7066:7075   */\n      dup3\n        /* \"#utility.yul\":7057:7064   */\n      dup5\n        /* \"#utility.yul\":7053:7076   */\n      sub\n        /* \"#utility.yul\":7049:7081   */\n      slt\n        /* \"#utility.yul\":7046:7165   */\n      iszero\n      tag_601\n      jumpi\n        /* \"#utility.yul\":7084:7163   */\n      tag_602\n      tag_455\n      jump\t// in\n    tag_602:\n        /* \"#utility.yul\":7046:7165   */\n    tag_601:\n        /* \"#utility.yul\":7232:7233   */\n      0x00\n        /* \"#utility.yul\":7221:7230   */\n      dup3\n        /* \"#utility.yul\":7217:7234   */\n      add\n        /* \"#utility.yul\":7204:7235   */\n      calldataload\n        /* \"#utility.yul\":7262:7280   */\n      0xffffffffffffffff\n        /* \"#utility.yul\":7254:7260   */\n      dup2\n        /* \"#utility.yul\":7251:7281   */\n      gt\n        /* \"#utility.yul\":7248:7365   */\n      iszero\n      tag_603\n      jumpi\n        /* \"#utility.yul\":7284:7363   */\n      tag_604\n      tag_456\n      jump\t// in\n    tag_604:\n        /* \"#utility.yul\":7248:7365   */\n    tag_603:\n        /* \"#utility.yul\":7389:7467   */\n      tag_605\n        /* \"#utility.yul\":7459:7466   */\n      dup5\n        /* \"#utility.yul\":7450:7456   */\n      dup3\n        /* \"#utility.yul\":7439:7448   */\n      dup6\n        /* \"#utility.yul\":7435:7457   */\n      add\n        /* \"#utility.yul\":7389:7467   */\n      tag_482\n      jump\t// in\n    tag_605:\n        /* \"#utility.yul\":7379:7467   */\n      swap2\n      pop\n        /* \"#utility.yul\":7175:7477   */\n      pop\n        /* \"#utility.yul\":6945:7484   */\n      swap3\n      swap2\n      pop\n      pop\n      jump\t// out\n        /* \"#utility.yul\":7490:7589   */\n    tag_483:\n        /* \"#utility.yul\":7542:7548   */\n      0x00\n        /* \"#utility.yul\":7576:7581   */\n      dup2\n        /* \"#utility.yul\":7570:7582   */\n      mload\n        /* \"#utility.yul\":7560:7582   */\n      swap1\n      pop\n        /* \"#utility.yul\":7490:7589   */\n      swap2\n      swap1\n      pop\n      jump\t// out\n        /* \"#utility.yul\":7595:7764   */\n    tag_484:\n        /* \"#utility.yul\":7679:7690   */\n      0x00\n        /* \"#utility.yul\":7713:7719   */\n      dup3\n        /* \"#utility.yul\":7708:7711   */\n      dup3\n        /* \"#utility.yul\":7701:7720   */\n      mstore\n        /* \"#utility.yul\":7753:7757   */\n      0x20\n        /* \"#utility.yul\":7748:7751   */\n      dup3\n        /* \"#utility.yul\":7744:7758   */\n      add\n        /* \"#utility.yul\":7729:7758   */\n      swap1\n      pop\n        /* \"#utility.yul\":7595:7764   */\n      swap3\n      swap2\n      pop\n      pop\n      jump\t// out\n        /* \"#utility.yul\":7770:8016   */\n    tag_485:\n        /* \"#utility.yul\":7851:7852   */\n      0x00\n        /* \"#utility.yul\":7861:7974   */\n    tag_609:\n        /* \"#utility.yul\":7875:7881   */\n      dup4\n        /* \"#utility.yul\":7872:7873   */\n      dup2\n        /* \"#utility.yul\":7869:7882   */\n      lt\n        /* \"#utility.yul\":7861:7974   */\n      iszero\n      tag_611\n      jumpi\n        /* \"#utility.yul\":7960:7961   */\n      dup1\n        /* \"#utility.yul\":7955:7958   */\n      dup3\n        /* \"#utility.yul\":7951:7962   */\n      add\n        /* \"#utility.yul\":7945:7963   */\n      mload\n        /* \"#utility.yul\":7941:7942   */\n      dup2\n        /* \"#utility.yul\":7936:7939   */\n      dup5\n        /* \"#utility.yul\":7932:7943   */\n      add\n        /* \"#utility.yul\":7925:7964   */\n      mstore\n        /* \"#utility.yul\":7897:7899   */\n      0x20\n        /* \"#utility.yul\":7894:7895   */\n      dup2\n        /* \"#utility.yul\":7890:7900   */\n      add\n        /* \"#utility.yul\":7885:7900   */\n      swap1\n      pop\n        /* \"#utility.yul\":7861:7974   */\n      jump(tag_609)\n    tag_611:\n        /* \"#utility.yul\":8008:8009   */\n      0x00\n        /* \"#utility.yul\":7999:8005   */\n      dup5\n        /* \"#utility.yul\":7994:7997   */\n      dup5\n        /* \"#utility.yul\":7990:8006   */\n      add\n        /* \"#utility.yul\":7983:8010   */\n      mstore\n        /* \"#utility.yul\":7832:8016   */\n      pop\n        /* \"#utility.yul\":7770:8016   */\n      pop\n      pop\n      pop\n      jump\t// out\n        /* \"#utility.yul\":8022:8399   */\n    tag_486:\n        /* \"#utility.yul\":8110:8113   */\n      0x00\n        /* \"#utility.yul\":8138:8177   */\n      tag_613\n        /* \"#utility.yul\":8171:8176   */\n      dup3\n        /* \"#utility.yul\":8138:8177   */\n      tag_483\n      jump\t// in\n    tag_613:\n        /* \"#utility.yul\":8193:8264   */\n      tag_614\n        /* \"#utility.yul\":8257:8263   */\n      dup2\n        /* \"#utility.yul\":8252:8255   */\n      dup6\n        /* \"#utility.yul\":8193:8264   */\n      tag_484\n      jump\t// in\n    tag_614:\n        /* \"#utility.yul\":8186:8264   */\n      swap4\n      pop\n        /* \"#utility.yul\":8273:8338   */\n      tag_615\n        /* \"#utility.yul\":8331:8337   */\n      dup2\n        /* \"#utility.yul\":8326:8329   */\n      dup6\n        /* \"#utility.yul\":8319:8323   */\n      0x20\n        /* \"#utility.yul\":8312:8317   */\n      dup7\n        /* \"#utility.yul\":8308:8324   */\n      add\n        /* \"#utility.yul\":8273:8338   */\n      tag_485\n      jump\t// in\n    tag_615:\n        /* \"#utility.yul\":8363:8392   */\n      tag_616\n        /* \"#utility.yul\":8385:8391   */\n      dup2\n        /* \"#utility.yul\":8363:8392   */\n      tag_476\n      jump\t// in\n    tag_616:\n        /* \"#utility.yul\":8358:8361   */\n      dup5\n        /* \"#utility.yul\":8354:8393   */\n      add\n        /* \"#utility.yul\":8347:8393   */\n      swap2\n      pop\n        /* \"#utility.yul\":8114:8399   */\n      pop\n        /* \"#utility.yul\":8022:8399   */\n      swap3\n      swap2\n      pop\n      pop\n      jump\t// out\n        /* \"#utility.yul\":8405:8718   */\n    tag_112:\n        /* \"#utility.yul\":8518:8522   */\n      0x00\n        /* \"#utility.yul\":8556:8558   */\n      0x20\n        /* \"#utility.yul\":8545:8554   */\n      dup3\n        /* \"#utility.yul\":8541:8559   */\n      add\n        /* \"#utility.yul\":8533:8559   */\n      swap1\n      pop\n        /* \"#utility.yul\":8605:8614   */\n      dup2\n        /* \"#utility.yul\":8599:8603   */\n      dup2\n        /* \"#utility.yul\":8595:8615   */\n      sub\n        /* \"#utility.yul\":8591:8592   */\n      0x00\n        /* \"#utility.yul\":8580:8589   */\n      dup4\n        /* \"#utility.yul\":8576:8593   */\n      add\n        /* \"#utility.yul\":8569:8616   */\n      mstore\n        /* \"#utility.yul\":8633:8711   */\n      tag_618\n        /* \"#utility.yul\":8706:8710   */\n      dup2\n        /* \"#utility.yul\":8697:8703   */\n      dup5\n        /* \"#utility.yul\":8633:8711   */\n      tag_486\n      jump\t// in\n    tag_618:\n        /* \"#utility.yul\":8625:8711   */\n      swap1\n      pop\n        /* \"#utility.yul\":8405:8718   */\n      swap3\n      swap2\n      pop\n      pop\n      jump\t// out\n        /* \"#utility.yul\":8724:8833   */\n    tag_487:\n        /* \"#utility.yul\":8805:8826   */\n      tag_620\n        /* \"#utility.yul\":8820:8825   */\n      dup2\n        /* \"#utility.yul\":8805:8826   */\n      tag_457\n      jump\t// in\n    tag_620:\n        /* \"#utility.yul\":8800:8803   */\n      dup3\n        /* \"#utility.yul\":8793:8827   */\n      mstore\n        /* \"#utility.yul\":8724:8833   */\n      pop\n      pop\n      jump\t// out\n        /* \"#utility.yul\":8839:9049   */\n    tag_118:\n        /* \"#utility.yul\":8926:8930   */\n      0x00\n        /* \"#utility.yul\":8964:8966   */\n      0x20\n        /* \"#utility.yul\":8953:8962   */\n      dup3\n        /* \"#utility.yul\":8949:8967   */\n      add\n        /* \"#utility.yul\":8941:8967   */\n      swap1\n      pop\n        /* \"#utility.yul\":8977:9042   */\n      tag_622\n        /* \"#utility.yul\":9039:9040   */\n      0x00\n        /* \"#utility.yul\":9028:9037   */\n      dup4\n        /* \"#utility.yul\":9024:9041   */\n      add\n        /* \"#utility.yul\":9015:9021   */\n      dup5\n        /* \"#utility.yul\":8977:9042   */\n      tag_487\n      jump\t// in\n    tag_622:\n        /* \"#utility.yul\":8839:9049   */\n      swap3\n      swap2\n      pop\n      pop\n      jump\t// out\n        /* \"#utility.yul\":9055:9220   */\n    tag_488:\n        /* \"#utility.yul\":9195:9212   */\n      0x4e6f2076616c756520696d206265740000000000000000000000000000000000\n        /* \"#utility.yul\":9191:9192   */\n      0x00\n        /* \"#utility.yul\":9183:9189   */\n      dup3\n        /* \"#utility.yul\":9179:9193   */\n      add\n        /* \"#utility.yul\":9172:9213   */\n      mstore\n        /* \"#utility.yul\":9055:9220   */\n      pop\n      jump\t// out\n        /* \"#utility.yul\":9226:9592   */\n    tag_489:\n        /* \"#utility.yul\":9368:9371   */\n      0x00\n        /* \"#utility.yul\":9389:9456   */\n      tag_625\n        /* \"#utility.yul\":9453:9455   */\n      0x0f\n        /* \"#utility.yul\":9448:9451   */\n      dup4\n        /* \"#utility.yul\":9389:9456   */\n      tag_484\n      jump\t// in\n    tag_625:\n        /* \"#utility.yul\":9382:9456   */\n      swap2\n      pop\n        /* \"#utility.yul\":9465:9558   */\n      tag_626\n        /* \"#utility.yul\":9554:9557   */\n      dup3\n        /* \"#utility.yul\":9465:9558   */\n      tag_488\n      jump\t// in\n    tag_626:\n        /* \"#utility.yul\":9583:9585   */\n      0x20\n        /* \"#utility.yul\":9578:9581   */\n      dup3\n        /* \"#utility.yul\":9574:9586   */\n      add\n        /* \"#utility.yul\":9567:9586   */\n      swap1\n      pop\n        /* \"#utility.yul\":9226:9592   */\n      swap2\n      swap1\n      pop\n      jump\t// out\n        /* \"#utility.yul\":9598:10017   */\n    tag_147:\n        /* \"#utility.yul\":9764:9768   */\n      0x00\n        /* \"#utility.yul\":9802:9804   */\n      0x20\n        /* \"#utility.yul\":9791:9800   */\n      dup3\n        /* \"#utility.yul\":9787:9805   */\n      add\n        /* \"#utility.yul\":9779:9805   */\n      swap1\n      pop\n        /* \"#utility.yul\":9851:9860   */\n      dup2\n        /* \"#utility.yul\":9845:9849   */\n      dup2\n        /* \"#utility.yul\":9841:9861   */\n      sub\n        /* \"#utility.yul\":9837:9838   */\n      0x00\n        /* \"#utility.yul\":9826:9835   */\n      dup4\n        /* \"#utility.yul\":9822:9839   */\n      add\n        /* \"#utility.yul\":9815:9862   */\n      mstore\n        /* \"#utility.yul\":9879:10010   */\n      tag_628\n        /* \"#utility.yul\":10005:10009   */\n      dup2\n        /* \"#utility.yul\":9879:10010   */\n      tag_489\n      jump\t// in\n    tag_628:\n        /* \"#utility.yul\":9871:10010   */\n      swap1\n      pop\n        /* \"#utility.yul\":9598:10017   */\n      swap2\n      swap1\n      pop\n      jump\t// out\n        /* \"#utility.yul\":10023:10191   */\n    tag_490:\n        /* \"#utility.yul\":10163:10183   */\n      0x42657420616c726561647920706c616365640000000000000000000000000000\n        /* \"#utility.yul\":10159:10160   */\n      0x00\n        /* \"#utility.yul\":10151:10157   */\n      dup3\n        /* \"#utility.yul\":10147:10161   */\n      add\n        /* \"#utility.yul\":10140:10184   */\n      mstore\n        /* \"#utility.yul\":10023:10191   */\n      pop\n      jump\t// out\n        /* \"#utility.yul\":10197:10563   */\n    tag_491:\n        /* \"#utility.yul\":10339:10342   */\n      0x00\n        /* \"#utility.yul\":10360:10427   */\n      tag_631\n        /* \"#utility.yul\":10424:10426   */\n      0x12\n        /* \"#utility.yul\":10419:10422   */\n      dup4\n        /* \"#utility.yul\":10360:10427   */\n      tag_484\n      jump\t// in\n    tag_631:\n        /* \"#utility.yul\":10353:10427   */\n      swap2\n      pop\n        /* \"#utility.yul\":10436:10529   */\n      tag_632\n        /* \"#utility.yul\":10525:10528   */\n      dup3\n        /* \"#utility.yul\":10436:10529   */\n      tag_490\n      jump\t// in\n    tag_632:\n        /* \"#utility.yul\":10554:10556   */\n      0x20\n        /* \"#utility.yul\":10549:10552   */\n      dup3\n        /* \"#utility.yul\":10545:10557   */\n      add\n        /* \"#utility.yul\":10538:10557   */\n      swap1\n      pop\n        /* \"#utility.yul\":10197:10563   */\n      swap2\n      swap1\n      pop\n      jump\t// out\n        /* \"#utility.yul\":10569:10988   */\n    tag_150:\n        /* \"#utility.yul\":10735:10739   */\n      0x00\n        /* \"#utility.yul\":10773:10775   */\n      0x20\n        /* \"#utility.yul\":10762:10771   */\n      dup3\n        /* \"#utility.yul\":10758:10776   */\n      add\n        /* \"#utility.yul\":10750:10776   */\n      swap1\n      pop\n        /* \"#utility.yul\":10822:10831   */\n      dup2\n        /* \"#utility.yul\":10816:10820   */\n      dup2\n        /* \"#utility.yul\":10812:10832   */\n      sub\n        /* \"#utility.yul\":10808:10809   */\n      0x00\n        /* \"#utility.yul\":10797:10806   */\n      dup4\n        /* \"#utility.yul\":10793:10810   */\n      add\n        /* \"#utility.yul\":10786:10833   */\n      mstore\n        /* \"#utility.yul\":10850:10981   */\n      tag_634\n        /* \"#utility.yul\":10976:10980   */\n      dup2\n        /* \"#utility.yul\":10850:10981   */\n      tag_491\n      jump\t// in\n    tag_634:\n        /* \"#utility.yul\":10842:10981   */\n      swap1\n      pop\n        /* \"#utility.yul\":10569:10988   */\n      swap2\n      swap1\n      pop\n      jump\t// out\n        /* \"#utility.yul\":10994:11160   */\n    tag_492:\n        /* \"#utility.yul\":11134:11152   */\n      0x50617373656420746865206c696d697400000000000000000000000000000000\n        /* \"#utility.yul\":11130:11131   */\n      0x00\n        /* \"#utility.yul\":11122:11128   */\n      dup3\n        /* \"#utility.yul\":11118:11132   */\n      add\n        /* \"#utility.yul\":11111:11153   */\n      mstore\n        /* \"#utility.yul\":10994:11160   */\n      pop\n      jump\t// out\n        /* \"#utility.yul\":11166:11532   */\n    tag_493:\n        /* \"#utility.yul\":11308:11311   */\n      0x00\n        /* \"#utility.yul\":11329:11396   */\n      tag_637\n        /* \"#utility.yul\":11393:11395   */\n      0x10\n        /* \"#utility.yul\":11388:11391   */\n      dup4\n        /* \"#utility.yul\":11329:11396   */\n      tag_484\n      jump\t// in\n    tag_637:\n        /* \"#utility.yul\":11322:11396   */\n      swap2\n      pop\n        /* \"#utility.yul\":11405:11498   */\n      tag_638\n        /* \"#utility.yul\":11494:11497   */\n      dup3\n        /* \"#utility.yul\":11405:11498   */\n      tag_492\n      jump\t// in\n    tag_638:\n        /* \"#utility.yul\":11523:11525   */\n      0x20\n        /* \"#utility.yul\":11518:11521   */\n      dup3\n        /* \"#utility.yul\":11514:11526   */\n      add\n        /* \"#utility.yul\":11507:11526   */\n      swap1\n      pop\n        /* \"#utility.yul\":11166:11532   */\n      swap2\n      swap1\n      pop\n      jump\t// out\n        /* \"#utility.yul\":11538:11957   */\n    tag_153:\n        /* \"#utility.yul\":11704:11708   */\n      0x00\n        /* \"#utility.yul\":11742:11744   */\n      0x20\n        /* \"#utility.yul\":11731:11740   */\n      dup3\n        /* \"#utility.yul\":11727:11745   */\n      add\n        /* \"#utility.yul\":11719:11745   */\n      swap1\n      pop\n        /* \"#utility.yul\":11791:11800   */\n      dup2\n        /* \"#utility.yul\":11785:11789   */\n      dup2\n        /* \"#utility.yul\":11781:11801   */\n      sub\n        /* \"#utility.yul\":11777:11778   */\n      0x00\n        /* \"#utility.yul\":11766:11775   */\n      dup4\n        /* \"#utility.yul\":11762:11779   */\n      add\n        /* \"#utility.yul\":11755:11802   */\n      mstore\n        /* \"#utility.yul\":11819:11950   */\n      tag_640\n        /* \"#utility.yul\":11945:11949   */\n      dup2\n        /* \"#utility.yul\":11819:11950   */\n      tag_493\n      jump\t// in\n    tag_640:\n        /* \"#utility.yul\":11811:11950   */\n      swap1\n      pop\n        /* \"#utility.yul\":11538:11957   */\n      swap2\n      swap1\n      pop\n      jump\t// out\n        /* \"#utility.yul\":11963:12143   */\n    tag_494:\n        /* \"#utility.yul\":12011:12088   */\n      0x4e487b7100000000000000000000000000000000000000000000000000000000\n        /* \"#utility.yul\":12008:12009   */\n      0x00\n        /* \"#utility.yul\":12001:12089   */\n      mstore\n        /* \"#utility.yul\":12108:12112   */\n      0x11\n        /* \"#utility.yul\":12105:12106   */\n      0x04\n        /* \"#utility.yul\":12098:12113   */\n      mstore\n        /* \"#utility.yul\":12132:12136   */\n      0x24\n        /* \"#utility.yul\":12129:12130   */\n      0x00\n        /* \"#utility.yul\":12122:12137   */\n      revert\n        /* \"#utility.yul\":12149:12340   */\n    tag_156:\n        /* \"#utility.yul\":12189:12192   */\n      0x00\n        /* \"#utility.yul\":12208:12228   */\n      tag_643\n        /* \"#utility.yul\":12226:12227   */\n      dup3\n        /* \"#utility.yul\":12208:12228   */\n      tag_464\n      jump\t// in\n    tag_643:\n        /* \"#utility.yul\":12203:12228   */\n      swap2\n      pop\n        /* \"#utility.yul\":12242:12262   */\n      tag_644\n        /* \"#utility.yul\":12260:12261   */\n      dup4\n        /* \"#utility.yul\":12242:12262   */\n      tag_464\n      jump\t// in\n    tag_644:\n        /* \"#utility.yul\":12237:12262   */\n      swap3\n      pop\n        /* \"#utility.yul\":12285:12286   */\n      dup3\n        /* \"#utility.yul\":12282:12283   */\n      dup3\n        /* \"#utility.yul\":12278:12287   */\n      add\n        /* \"#utility.yul\":12271:12287   */\n      swap1\n      pop\n        /* \"#utility.yul\":12306:12309   */\n      dup1\n        /* \"#utility.yul\":12303:12304   */\n      dup3\n        /* \"#utility.yul\":12300:12310   */\n      gt\n        /* \"#utility.yul\":12297:12333   */\n      iszero\n      tag_645\n      jumpi\n        /* \"#utility.yul\":12313:12331   */\n      tag_646\n      tag_494\n      jump\t// in\n    tag_646:\n        /* \"#utility.yul\":12297:12333   */\n    tag_645:\n        /* \"#utility.yul\":12149:12340   */\n      swap3\n      swap2\n      pop\n      pop\n      jump\t// out\n        /* \"#utility.yul\":12346:12513   */\n    tag_495:\n        /* \"#utility.yul\":12486:12505   */\n      0x416c72656164792066696e616c697a6564000000000000000000000000000000\n        /* \"#utility.yul\":12482:12483   */\n      0x00\n        /* \"#utility.yul\":12474:12480   */\n      dup3\n        /* \"#utility.yul\":12470:12484   */\n      add\n        /* \"#utility.yul\":12463:12506   */\n      mstore\n        /* \"#utility.yul\":12346:12513   */\n      pop\n      jump\t// out\n        /* \"#utility.yul\":12519:12885   */\n    tag_496:\n        /* \"#utility.yul\":12661:12664   */\n      0x00\n        /* \"#utility.yul\":12682:12749   */\n      tag_649\n        /* \"#utility.yul\":12746:12748   */\n      0x11\n        /* \"#utility.yul\":12741:12744   */\n      dup4\n        /* \"#utility.yul\":12682:12749   */\n      tag_484\n      jump\t// in\n    tag_649:\n        /* \"#utility.yul\":12675:12749   */\n      swap2\n      pop\n        /* \"#utility.yul\":12758:12851   */\n      tag_650\n        /* \"#utility.yul\":12847:12850   */\n      dup3\n        /* \"#utility.yul\":12758:12851   */\n      tag_495\n      jump\t// in\n    tag_650:\n        /* \"#utility.yul\":12876:12878   */\n      0x20\n        /* \"#utility.yul\":12871:12874   */\n      dup3\n        /* \"#utility.yul\":12867:12879   */\n      add\n        /* \"#utility.yul\":12860:12879   */\n      swap1\n      pop\n        /* \"#utility.yul\":12519:12885   */\n      swap2\n      swap1\n      pop\n      jump\t// out\n        /* \"#utility.yul\":12891:13310   */\n    tag_167:\n        /* \"#utility.yul\":13057:13061   */\n      0x00\n        /* \"#utility.yul\":13095:13097   */\n      0x20\n        /* \"#utility.yul\":13084:13093   */\n      dup3\n        /* \"#utility.yul\":13080:13098   */\n      add\n        /* \"#utility.yul\":13072:13098   */\n      swap1\n      pop\n        /* \"#utility.yul\":13144:13153   */\n      dup2\n        /* \"#utility.yul\":13138:13142   */\n      dup2\n        /* \"#utility.yul\":13134:13154   */\n      sub\n        /* \"#utility.yul\":13130:13131   */\n      0x00\n        /* \"#utility.yul\":13119:13128   */\n      dup4\n        /* \"#utility.yul\":13115:13132   */\n      add\n        /* \"#utility.yul\":13108:13155   */\n      mstore\n        /* \"#utility.yul\":13172:13303   */\n      tag_652\n        /* \"#utility.yul\":13298:13302   */\n      dup2\n        /* \"#utility.yul\":13172:13303   */\n      tag_496\n      jump\t// in\n    tag_652:\n        /* \"#utility.yul\":13164:13303   */\n      swap1\n      pop\n        /* \"#utility.yul\":12891:13310   */\n      swap2\n      swap1\n      pop\n      jump\t// out\n        /* \"#utility.yul\":13316:13483   */\n    tag_497:\n        /* \"#utility.yul\":13456:13475   */\n      0x496e76616c69642074696d657374616d70000000000000000000000000000000\n        /* \"#utility.yul\":13452:13453   */\n      0x00\n        /* \"#utility.yul\":13444:13450   */\n      dup3\n        /* \"#utility.yul\":13440:13454   */\n      add\n        /* \"#utility.yul\":13433:13476   */\n      mstore\n        /* \"#utility.yul\":13316:13483   */\n      pop\n      jump\t// out\n        /* \"#utility.yul\":13489:13855   */\n    tag_498:\n        /* \"#utility.yul\":13631:13634   */\n      0x00\n        /* \"#utility.yul\":13652:13719   */\n      tag_655\n        /* \"#utility.yul\":13716:13718   */\n      0x11\n        /* \"#utility.yul\":13711:13714   */\n      dup4\n        /* \"#utility.yul\":13652:13719   */\n      tag_484\n      jump\t// in\n    tag_655:\n        /* \"#utility.yul\":13645:13719   */\n      swap2\n      pop\n        /* \"#utility.yul\":13728:13821   */\n      tag_656\n        /* \"#utility.yul\":13817:13820   */\n      dup3\n        /* \"#utility.yul\":13728:13821   */\n      tag_497\n      jump\t// in\n    tag_656:\n        /* \"#utility.yul\":13846:13848   */\n      0x20\n        /* \"#utility.yul\":13841:13844   */\n      dup3\n        /* \"#utility.yul\":13837:13849   */\n      add\n        /* \"#utility.yul\":13830:13849   */\n      swap1\n      pop\n        /* \"#utility.yul\":13489:13855   */\n      swap2\n      swap1\n      pop\n      jump\t// out\n        /* \"#utility.yul\":13861:14280   */\n    tag_171:\n        /* \"#utility.yul\":14027:14031   */\n      0x00\n        /* \"#utility.yul\":14065:14067   */\n      0x20\n        /* \"#utility.yul\":14054:14063   */\n      dup3\n        /* \"#utility.yul\":14050:14068   */\n      add\n        /* \"#utility.yul\":14042:14068   */\n      swap1\n      pop\n        /* \"#utility.yul\":14114:14123   */\n      dup2\n        /* \"#utility.yul\":14108:14112   */\n      dup2\n        /* \"#utility.yul\":14104:14124   */\n      sub\n        /* \"#utility.yul\":14100:14101   */\n      0x00\n        /* \"#utility.yul\":14089:14098   */\n      dup4\n        /* \"#utility.yul\":14085:14102   */\n      add\n        /* \"#utility.yul\":14078:14125   */\n      mstore\n        /* \"#utility.yul\":14142:14273   */\n      tag_658\n        /* \"#utility.yul\":14268:14272   */\n      dup2\n        /* \"#utility.yul\":14142:14273   */\n      tag_498\n      jump\t// in\n    tag_658:\n        /* \"#utility.yul\":14134:14273   */\n      swap1\n      pop\n        /* \"#utility.yul\":13861:14280   */\n      swap2\n      swap1\n      pop\n      jump\t// out\n        /* \"#utility.yul\":14286:14449   */\n    tag_499:\n        /* \"#utility.yul\":14426:14441   */\n      0x4e6f742066696e616c697a656400000000000000000000000000000000000000\n        /* \"#utility.yul\":14422:14423   */\n      0x00\n        /* \"#utility.yul\":14414:14420   */\n      dup3\n        /* \"#utility.yul\":14410:14424   */\n      add\n        /* \"#utility.yul\":14403:14442   */\n      mstore\n        /* \"#utility.yul\":14286:14449   */\n      pop\n      jump\t// out\n        /* \"#utility.yul\":14455:14821   */\n    tag_500:\n        /* \"#utility.yul\":14597:14600   */\n      0x00\n        /* \"#utility.yul\":14618:14685   */\n      tag_661\n        /* \"#utility.yul\":14682:14684   */\n      0x0d\n        /* \"#utility.yul\":14677:14680   */\n      dup4\n        /* \"#utility.yul\":14618:14685   */\n      tag_484\n      jump\t// in\n    tag_661:\n        /* \"#utility.yul\":14611:14685   */\n      swap2\n      pop\n        /* \"#utility.yul\":14694:14787   */\n      tag_662\n        /* \"#utility.yul\":14783:14786   */\n      dup3\n        /* \"#utility.yul\":14694:14787   */\n      tag_499\n      jump\t// in\n    tag_662:\n        /* \"#utility.yul\":14812:14814   */\n      0x20\n        /* \"#utility.yul\":14807:14810   */\n      dup3\n        /* \"#utility.yul\":14803:14815   */\n      add\n        /* \"#utility.yul\":14796:14815   */\n      swap1\n      pop\n        /* \"#utility.yul\":14455:14821   */\n      swap2\n      swap1\n      pop\n      jump\t// out\n        /* \"#utility.yul\":14827:15246   */\n    tag_179:\n        /* \"#utility.yul\":14993:14997   */\n      0x00\n        /* \"#utility.yul\":15031:15033   */\n      0x20\n        /* \"#utility.yul\":15020:15029   */\n      dup3\n        /* \"#utility.yul\":15016:15034   */\n      add\n        /* \"#utility.yul\":15008:15034   */\n      swap1\n      pop\n        /* \"#utility.yul\":15080:15089   */\n      dup2\n        /* \"#utility.yul\":15074:15078   */\n      dup2\n        /* \"#utility.yul\":15070:15090   */\n      sub\n        /* \"#utility.yul\":15066:15067   */\n      0x00\n        /* \"#utility.yul\":15055:15064   */\n      dup4\n        /* \"#utility.yul\":15051:15068   */\n      add\n        /* \"#utility.yul\":15044:15091   */\n      mstore\n        /* \"#utility.yul\":15108:15239   */\n      tag_664\n        /* \"#utility.yul\":15234:15238   */\n      dup2\n        /* \"#utility.yul\":15108:15239   */\n      tag_500\n      jump\t// in\n    tag_664:\n        /* \"#utility.yul\":15100:15239   */\n      swap1\n      pop\n        /* \"#utility.yul\":14827:15246   */\n      swap2\n      swap1\n      pop\n      jump\t// out\n        /* \"#utility.yul\":15252:15413   */\n    tag_501:\n        /* \"#utility.yul\":15392:15405   */\n      0x446964206e6f742077696e000000000000000000000000000000000000000000\n        /* \"#utility.yul\":15388:15389   */\n      0x00\n        /* \"#utility.yul\":15380:15386   */\n      dup3\n        /* \"#utility.yul\":15376:15390   */\n      add\n        /* \"#utility.yul\":15369:15406   */\n      mstore\n        /* \"#utility.yul\":15252:15413   */\n      pop\n      jump\t// out\n        /* \"#utility.yul\":15419:15785   */\n    tag_502:\n        /* \"#utility.yul\":15561:15564   */\n      0x00\n        /* \"#utility.yul\":15582:15649   */\n      tag_667\n        /* \"#utility.yul\":15646:15648   */\n      0x0b\n        /* \"#utility.yul\":15641:15644   */\n      dup4\n        /* \"#utility.yul\":15582:15649   */\n      tag_484\n      jump\t// in\n    tag_667:\n        /* \"#utility.yul\":15575:15649   */\n      swap2\n      pop\n        /* \"#utility.yul\":15658:15751   */\n      tag_668\n        /* \"#utility.yul\":15747:15750   */\n      dup3\n        /* \"#utility.yul\":15658:15751   */\n      tag_501\n      jump\t// in\n    tag_668:\n        /* \"#utility.yul\":15776:15778   */\n      0x20\n        /* \"#utility.yul\":15771:15774   */\n      dup3\n        /* \"#utility.yul\":15767:15779   */\n      add\n        /* \"#utility.yul\":15760:15779   */\n      swap1\n      pop\n        /* \"#utility.yul\":15419:15785   */\n      swap2\n      swap1\n      pop\n      jump\t// out\n        /* \"#utility.yul\":15791:16210   */\n    tag_182:\n        /* \"#utility.yul\":15957:15961   */\n      0x00\n        /* \"#utility.yul\":15995:15997   */\n      0x20\n        /* \"#utility.yul\":15984:15993   */\n      dup3\n        /* \"#utility.yul\":15980:15998   */\n      add\n        /* \"#utility.yul\":15972:15998   */\n      swap1\n      pop\n        /* \"#utility.yul\":16044:16053   */\n      dup2\n        /* \"#utility.yul\":16038:16042   */\n      dup2\n        /* \"#utility.yul\":16034:16054   */\n      sub\n        /* \"#utility.yul\":16030:16031   */\n      0x00\n        /* \"#utility.yul\":16019:16028   */\n      dup4\n        /* \"#utility.yul\":16015:16032   */\n      add\n        /* \"#utility.yul\":16008:16055   */\n      mstore\n        /* \"#utility.yul\":16072:16203   */\n      tag_670\n        /* \"#utility.yul\":16198:16202   */\n      dup2\n        /* \"#utility.yul\":16072:16203   */\n      tag_502\n      jump\t// in\n    tag_670:\n        /* \"#utility.yul\":16064:16203   */\n      swap1\n      pop\n        /* \"#utility.yul\":15791:16210   */\n      swap2\n      swap1\n      pop\n      jump\t// out\n        /* \"#utility.yul\":16216:16381   */\n    tag_503:\n        /* \"#utility.yul\":16356:16373   */\n      0x416c726561647920636c61696d65640000000000000000000000000000000000\n        /* \"#utility.yul\":16352:16353   */\n      0x00\n        /* \"#utility.yul\":16344:16350   */\n      dup3\n        /* \"#utility.yul\":16340:16354   */\n      add\n        /* \"#utility.yul\":16333:16374   */\n      mstore\n        /* \"#utility.yul\":16216:16381   */\n      pop\n      jump\t// out\n        /* \"#utility.yul\":16387:16753   */\n    tag_504:\n        /* \"#utility.yul\":16529:16532   */\n      0x00\n        /* \"#utility.yul\":16550:16617   */\n      tag_673\n        /* \"#utility.yul\":16614:16616   */\n      0x0f\n        /* \"#utility.yul\":16609:16612   */\n      dup4\n        /* \"#utility.yul\":16550:16617   */\n      tag_484\n      jump\t// in\n    tag_673:\n        /* \"#utility.yul\":16543:16617   */\n      swap2\n      pop\n        /* \"#utility.yul\":16626:16719   */\n      tag_674\n        /* \"#utility.yul\":16715:16718   */\n      dup3\n        /* \"#utility.yul\":16626:16719   */\n      tag_503\n      jump\t// in\n    tag_674:\n        /* \"#utility.yul\":16744:16746   */\n      0x20\n        /* \"#utility.yul\":16739:16742   */\n      dup3\n        /* \"#utility.yul\":16735:16747   */\n      add\n        /* \"#utility.yul\":16728:16747   */\n      swap1\n      pop\n        /* \"#utility.yul\":16387:16753   */\n      swap2\n      swap1\n      pop\n      jump\t// out\n        /* \"#utility.yul\":16759:17178   */\n    tag_185:\n        /* \"#utility.yul\":16925:16929   */\n      0x00\n        /* \"#utility.yul\":16963:16965   */\n      0x20\n        /* \"#utility.yul\":16952:16961   */\n      dup3\n        /* \"#utility.yul\":16948:16966   */\n      add\n        /* \"#utility.yul\":16940:16966   */\n      swap1\n      pop\n        /* \"#utility.yul\":17012:17021   */\n      dup2\n        /* \"#utility.yul\":17006:17010   */\n      dup2\n        /* \"#utility.yul\":17002:17022   */\n      sub\n        /* \"#utility.yul\":16998:16999   */\n      0x00\n        /* \"#utility.yul\":16987:16996   */\n      dup4\n        /* \"#utility.yul\":16983:17000   */\n      add\n        /* \"#utility.yul\":16976:17023   */\n      mstore\n        /* \"#utility.yul\":17040:17171   */\n      tag_676\n        /* \"#utility.yul\":17166:17170   */\n      dup2\n        /* \"#utility.yul\":17040:17171   */\n      tag_504\n      jump\t// in\n    tag_676:\n        /* \"#utility.yul\":17032:17171   */\n      swap1\n      pop\n        /* \"#utility.yul\":16759:17178   */\n      swap2\n      swap1\n      pop\n      jump\t// out\n        /* \"#utility.yul\":17184:17378   */\n    tag_208:\n        /* \"#utility.yul\":17224:17228   */\n      0x00\n        /* \"#utility.yul\":17244:17264   */\n      tag_678\n        /* \"#utility.yul\":17262:17263   */\n      dup3\n        /* \"#utility.yul\":17244:17264   */\n      tag_464\n      jump\t// in\n    tag_678:\n        /* \"#utility.yul\":17239:17264   */\n      swap2\n      pop\n        /* \"#utility.yul\":17278:17298   */\n      tag_679\n        /* \"#utility.yul\":17296:17297   */\n      dup4\n        /* \"#utility.yul\":17278:17298   */\n      tag_464\n      jump\t// in\n    tag_679:\n        /* \"#utility.yul\":17273:17298   */\n      swap3\n      pop\n        /* \"#utility.yul\":17322:17323   */\n      dup3\n        /* \"#utility.yul\":17319:17320   */\n      dup3\n        /* \"#utility.yul\":17315:17324   */\n      sub\n        /* \"#utility.yul\":17307:17324   */\n      swap1\n      pop\n        /* \"#utility.yul\":17346:17347   */\n      dup2\n        /* \"#utility.yul\":17340:17344   */\n      dup2\n        /* \"#utility.yul\":17337:17348   */\n      gt\n        /* \"#utility.yul\":17334:17371   */\n      iszero\n      tag_680\n      jumpi\n        /* \"#utility.yul\":17351:17369   */\n      tag_681\n      tag_494\n      jump\t// in\n    tag_681:\n        /* \"#utility.yul\":17334:17371   */\n    tag_680:\n        /* \"#utility.yul\":17184:17378   */\n      swap3\n      swap2\n      pop\n      pop\n      jump\t// out\n        /* \"#utility.yul\":17384:17617   */\n    tag_215:\n        /* \"#utility.yul\":17423:17426   */\n      0x00\n        /* \"#utility.yul\":17446:17470   */\n      tag_683\n        /* \"#utility.yul\":17464:17469   */\n      dup3\n        /* \"#utility.yul\":17446:17470   */\n      tag_464\n      jump\t// in\n    tag_683:\n        /* \"#utility.yul\":17437:17470   */\n      swap2\n      pop\n        /* \"#utility.yul\":17492:17558   */\n      0xffffffffffffffffffffffffffffffffffffffffffffffffffffffffffffffff\n        /* \"#utility.yul\":17485:17490   */\n      dup3\n        /* \"#utility.yul\":17482:17559   */\n      sub\n        /* \"#utility.yul\":17479:17582   */\n      tag_684\n      jumpi\n        /* \"#utility.yul\":17562:17580   */\n      tag_685\n      tag_494\n      jump\t// in\n    tag_685:\n        /* \"#utility.yul\":17479:17582   */\n    tag_684:\n        /* \"#utility.yul\":17609:17610   */\n      0x01\n        /* \"#utility.yul\":17602:17607   */\n      dup3\n        /* \"#utility.yul\":17598:17611   */\n      add\n        /* \"#utility.yul\":17591:17611   */\n      swap1\n      pop\n        /* \"#utility.yul\":17384:17617   */\n      swap2\n      swap1\n      pop\n      jump\t// out\n        /* \"#utility.yul\":17623:17801   */\n    tag_505:\n        /* \"#utility.yul\":17763:17793   */\n      0x42657420626967676572207468616e2077696e6e696e6720706f6f6c00000000\n        /* \"#utility.yul\":17759:17760   */\n      0x00\n        /* \"#utility.yul\":17751:17757   */\n      dup3\n        /* \"#utility.yul\":17747:17761   */\n      add\n        /* \"#utility.yul\":17740:17794   */\n      mstore\n        /* \"#utility.yul\":17623:17801   */\n      pop\n      jump\t// out\n        /* \"#utility.yul\":17807:18173   */\n    tag_506:\n        /* \"#utility.yul\":17949:17952   */\n      0x00\n        /* \"#utility.yul\":17970:18037   */\n      tag_688\n        /* \"#utility.yul\":18034:18036   */\n      0x1c\n        /* \"#utility.yul\":18029:18032   */\n      dup4\n        /* \"#utility.yul\":17970:18037   */\n      tag_484\n      jump\t// in\n    tag_688:\n        /* \"#utility.yul\":17963:18037   */\n      swap2\n      pop\n        /* \"#utility.yul\":18046:18139   */\n      tag_689\n        /* \"#utility.yul\":18135:18138   */\n      dup3\n        /* \"#utility.yul\":18046:18139   */\n      tag_505\n      jump\t// in\n    tag_689:\n        /* \"#utility.yul\":18164:18166   */\n      0x20\n        /* \"#utility.yul\":18159:18162   */\n      dup3\n        /* \"#utility.yul\":18155:18167   */\n      add\n        /* \"#utility.yul\":18148:18167   */\n      swap1\n      pop\n        /* \"#utility.yul\":17807:18173   */\n      swap2\n      swap1\n      pop\n      jump\t// out\n        /* \"#utility.yul\":18179:18598   */\n    tag_231:\n        /* \"#utility.yul\":18345:18349   */\n      0x00\n        /* \"#utility.yul\":18383:18385   */\n      0x20\n        /* \"#utility.yul\":18372:18381   */\n      dup3\n        /* \"#utility.yul\":18368:18386   */\n      add\n        /* \"#utility.yul\":18360:18386   */\n      swap1\n      pop\n        /* \"#utility.yul\":18432:18441   */\n      dup2\n        /* \"#utility.yul\":18426:18430   */\n      dup2\n        /* \"#utility.yul\":18422:18442   */\n      sub\n        /* \"#utility.yul\":18418:18419   */\n      0x00\n        /* \"#utility.yul\":18407:18416   */\n      dup4\n        /* \"#utility.yul\":18403:18420   */\n      add\n        /* \"#utility.yul\":18396:18443   */\n      mstore\n        /* \"#utility.yul\":18460:18591   */\n      tag_691\n        /* \"#utility.yul\":18586:18590   */\n      dup2\n        /* \"#utility.yul\":18460:18591   */\n      tag_506\n      jump\t// in\n    tag_691:\n        /* \"#utility.yul\":18452:18591   */\n      swap1\n      pop\n        /* \"#utility.yul\":18179:18598   */\n      swap2\n      swap1\n      pop\n      jump\t// out\n        /* \"#utility.yul\":18604:19014   */\n    tag_235:\n        /* \"#utility.yul\":18644:18651   */\n      0x00\n        /* \"#utility.yul\":18667:18687   */\n      tag_693\n        /* \"#utility.yul\":18685:18686   */\n      dup3\n        /* \"#utility.yul\":18667:18687   */\n      tag_464\n      jump\t// in\n    tag_693:\n        /* \"#utility.yul\":18662:18687   */\n      swap2\n      pop\n        /* \"#utility.yul\":18701:18721   */\n      tag_694\n        /* \"#utility.yul\":18719:18720   */\n      dup4\n        /* \"#utility.yul\":18701:18721   */\n      tag_464\n      jump\t// in\n    tag_694:\n        /* \"#utility.yul\":18696:18721   */\n      swap3\n      pop\n        /* \"#utility.yul\":18756:18757   */\n      dup3\n        /* \"#utility.yul\":18753:18754   */\n      dup3\n        /* \"#utility.yul\":18749:18758   */\n      mul\n        /* \"#utility.yul\":18778:18808   */\n      tag_695\n        /* \"#utility.yul\":18796:18807   */\n      dup2\n        /* \"#utility.yul\":18778:18808   */\n      tag_464\n      jump\t// in\n    tag_695:\n        /* \"#utility.yul\":18767:18808   */\n      swap2\n      pop\n        /* \"#utility.yul\":18957:18958   */\n      dup3\n        /* \"#utility.yul\":18948:18955   */\n      dup3\n        /* \"#utility.yul\":18944:18959   */\n      div\n        /* \"#utility.yul\":18941:18942   */\n      dup5\n        /* \"#utility.yul\":18938:18960   */\n      eq\n        /* \"#utility.yul\":18918:18919   */\n      dup4\n        /* \"#utility.yul\":18911:18920   */\n      iszero\n        /* \"#utility.yul\":18891:18974   */\n      or\n        /* \"#utility.yul\":18868:19007   */\n      tag_696\n      jumpi\n        /* \"#utility.yul\":18987:19005   */\n      tag_697\n      tag_494\n      jump\t// in\n    tag_697:\n        /* \"#utility.yul\":18868:19007   */\n    tag_696:\n        /* \"#utility.yul\":18652:19014   */\n      pop\n        /* \"#utility.yul\":18604:19014   */\n      swap3\n      swap2\n      pop\n      pop\n      jump\t// out\n        /* \"#utility.yul\":19020:19200   */\n    tag_507:\n        /* \"#utility.yul\":19068:19145   */\n      0x4e487b7100000000000000000000000000000000000000000000000000000000\n        /* \"#utility.yul\":19065:19066   */\n      0x00\n        /* \"#utility.yul\":19058:19146   */\n      mstore\n        /* \"#utility.yul\":19165:19169   */\n      0x12\n        /* \"#utility.yul\":19162:19163   */\n      0x04\n        /* \"#utility.yul\":19155:19170   */\n      mstore\n        /* \"#utility.yul\":19189:19193   */\n      0x24\n        /* \"#utility.yul\":19186:19187   */\n      0x00\n        /* \"#utility.yul\":19179:19194   */\n      revert\n        /* \"#utility.yul\":19206:19391   */\n    tag_237:\n        /* \"#utility.yul\":19246:19247   */\n      0x00\n        /* \"#utility.yul\":19263:19283   */\n      tag_700\n        /* \"#utility.yul\":19281:19282   */\n      dup3\n        /* \"#utility.yul\":19263:19283   */\n      tag_464\n      jump\t// in\n    tag_700:\n        /* \"#utility.yul\":19258:19283   */\n      swap2\n      pop\n        /* \"#utility.yul\":19297:19317   */\n      tag_701\n        /* \"#utility.yul\":19315:19316   */\n      dup4\n        /* \"#utility.yul\":19297:19317   */\n      tag_464\n      jump\t// in\n    tag_701:\n        /* \"#utility.yul\":19292:19317   */\n      swap3\n      pop\n        /* \"#utility.yul\":19336:19337   */\n      dup3\n        /* \"#utility.yul\":19326:19361   */\n      tag_702\n      jumpi\n        /* \"#utility.yul\":19341:19359   */\n      tag_703\n      tag_507\n      jump\t// in\n    tag_703:\n        /* \"#utility.yul\":19326:19361   */\n    tag_702:\n        /* \"#utility.yul\":19383:19384   */\n      dup3\n        /* \"#utility.yul\":19380:19381   */\n      dup3\n        /* \"#utility.yul\":19376:19385   */\n      div\n        /* \"#utility.yul\":19371:19385   */\n      swap1\n      pop\n        /* \"#utility.yul\":19206:19391   */\n      swap3\n      swap2\n      pop\n      pop\n      jump\t// out\n        /* \"#utility.yul\":19397:19622   */\n    tag_508:\n        /* \"#utility.yul\":19537:19571   */\n      0x4f776e61626c653a206e6577206f776e657220697320746865207a65726f2061\n        /* \"#utility.yul\":19533:19534   */\n      0x00\n        /* \"#utility.yul\":19525:19531   */\n      dup3\n        /* \"#utility.yul\":19521:19535   */\n      add\n        /* \"#utility.yul\":19514:19572   */\n      mstore\n        /* \"#utility.yul\":19606:19614   */\n      0x6464726573730000000000000000000000000000000000000000000000000000\n        /* \"#utility.yul\":19601:19603   */\n      0x20\n        /* \"#utility.yul\":19593:19599   */\n      dup3\n        /* \"#utility.yul\":19589:19604   */\n      add\n        /* \"#utility.yul\":19582:19615   */\n      mstore\n        /* \"#utility.yul\":19397:19622   */\n      pop\n      jump\t// out\n        /* \"#utility.yul\":19628:19994   */\n    tag_509:\n        /* \"#utility.yul\":19770:19773   */\n      0x00\n        /* \"#utility.yul\":19791:19858   */\n      tag_706\n        /* \"#utility.yul\":19855:19857   */\n      0x26\n        /* \"#utility.yul\":19850:19853   */\n      dup4\n        /* \"#utility.yul\":19791:19858   */\n      tag_484\n      jump\t// in\n    tag_706:\n        /* \"#utility.yul\":19784:19858   */\n      swap2\n      pop\n        /* \"#utility.yul\":19867:19960   */\n      tag_707\n        /* \"#utility.yul\":19956:19959   */\n      dup3\n        /* \"#utility.yul\":19867:19960   */\n      tag_508\n      jump\t// in\n    tag_707:\n        /* \"#utility.yul\":19985:19987   */\n      0x40\n        /* \"#utility.yul\":19980:19983   */\n      dup3\n        /* \"#utility.yul\":19976:19988   */\n      add\n        /* \"#utility.yul\":19969:19988   */\n      swap1\n      pop\n        /* \"#utility.yul\":19628:19994   */\n      swap2\n      swap1\n      pop\n      jump\t// out\n        /* \"#utility.yul\":20000:20419   */\n    tag_246:\n        /* \"#utility.yul\":20166:20170   */\n      0x00\n        /* \"#utility.yul\":20204:20206   */\n      0x20\n        /* \"#utility.yul\":20193:20202   */\n      dup3\n        /* \"#utility.yul\":20189:20207   */\n      add\n        /* \"#utility.yul\":20181:20207   */\n      swap1\n      pop\n        /* \"#utility.yul\":20253:20262   */\n      dup2\n        /* \"#utility.yul\":20247:20251   */\n      dup2\n        /* \"#utility.yul\":20243:20263   */\n      sub\n        /* \"#utility.yul\":20239:20240   */\n      0x00\n        /* \"#utility.yul\":20228:20237   */\n      dup4\n        /* \"#utility.yul\":20224:20241   */\n      add\n        /* \"#utility.yul\":20217:20264   */\n      mstore\n        /* \"#utility.yul\":20281:20412   */\n      tag_709\n        /* \"#utility.yul\":20407:20411   */\n      dup2\n        /* \"#utility.yul\":20281:20412   */\n      tag_509\n      jump\t// in\n    tag_709:\n        /* \"#utility.yul\":20273:20412   */\n      swap1\n      pop\n        /* \"#utility.yul\":20000:20419   */\n      swap2\n      swap1\n      pop\n      jump\t// out\n        /* \"#utility.yul\":20425:20605   */\n    tag_257:\n        /* \"#utility.yul\":20473:20550   */\n      0x4e487b7100000000000000000000000000000000000000000000000000000000\n        /* \"#utility.yul\":20470:20471   */\n      0x00\n        /* \"#utility.yul\":20463:20551   */\n      mstore\n        /* \"#utility.yul\":20570:20574   */\n      0x32\n        /* \"#utility.yul\":20567:20568   */\n      0x04\n        /* \"#utility.yul\":20560:20575   */\n      mstore\n        /* \"#utility.yul\":20594:20598   */\n      0x24\n        /* \"#utility.yul\":20591:20592   */\n      0x00\n        /* \"#utility.yul\":20584:20599   */\n      revert\n        /* \"#utility.yul\":20611:20793   */\n    tag_510:\n        /* \"#utility.yul\":20751:20785   */\n      0x4f776e61626c653a2063616c6c6572206973206e6f7420746865206f776e6572\n        /* \"#utility.yul\":20747:20748   */\n      0x00\n        /* \"#utility.yul\":20739:20745   */\n      dup3\n        /* \"#utility.yul\":20735:20749   */\n      add\n        /* \"#utility.yul\":20728:20786   */\n      mstore\n        /* \"#utility.yul\":20611:20793   */\n      pop\n      jump\t// out\n        /* \"#utility.yul\":20799:21165   */\n    tag_511:\n        /* \"#utility.yul\":20941:20944   */\n      0x00\n        /* \"#utility.yul\":20962:21029   */\n      tag_713\n        /* \"#utility.yul\":21026:21028   */\n      0x20\n        /* \"#utility.yul\":21021:21024   */\n      dup4\n        /* \"#utility.yul\":20962:21029   */\n      tag_484\n      jump\t// in\n    tag_713:\n        /* \"#utility.yul\":20955:21029   */\n      swap2\n      pop\n        /* \"#utility.yul\":21038:21131   */\n      tag_714\n        /* \"#utility.yul\":21127:21130   */\n      dup3\n        /* \"#utility.yul\":21038:21131   */\n      tag_510\n      jump\t// in\n    tag_714:\n        /* \"#utility.yul\":21156:21158   */\n      0x20\n        /* \"#utility.yul\":21151:21154   */\n      dup3\n        /* \"#utility.yul\":21147:21159   */\n      add\n        /* \"#utility.yul\":21140:21159   */\n      swap1\n      pop\n        /* \"#utility.yul\":20799:21165   */\n      swap2\n      swap1\n      pop\n      jump\t// out\n        /* \"#utility.yul\":21171:21590   */\n    tag_268:\n        /* \"#utility.yul\":21337:21341   */\n      0x00\n        /* \"#utility.yul\":21375:21377   */\n      0x20\n        /* \"#utility.yul\":21364:21373   */\n      dup3\n        /* \"#utility.yul\":21360:21378   */\n      add\n        /* \"#utility.yul\":21352:21378   */\n      swap1\n      pop\n        /* \"#utility.yul\":21424:21433   */\n      dup2\n        /* \"#utility.yul\":21418:21422   */\n      dup2\n        /* \"#utility.yul\":21414:21434   */\n      sub\n        /* \"#utility.yul\":21410:21411   */\n      0x00\n        /* \"#utility.yul\":21399:21408   */\n      dup4\n        /* \"#utility.yul\":21395:21412   */\n      add\n        /* \"#utility.yul\":21388:21435   */\n      mstore\n        /* \"#utility.yul\":21452:21583   */\n      tag_716\n        /* \"#utility.yul\":21578:21582   */\n      dup2\n        /* \"#utility.yul\":21452:21583   */\n      tag_511\n      jump\t// in\n    tag_716:\n        /* \"#utility.yul\":21444:21583   */\n      swap1\n      pop\n        /* \"#utility.yul\":21171:21590   */\n      swap2\n      swap1\n      pop\n      jump\t// out\n        /* \"#utility.yul\":21596:21772   */\n    tag_313:\n        /* \"#utility.yul\":21628:21629   */\n      0x00\n        /* \"#utility.yul\":21645:21665   */\n      tag_718\n        /* \"#utility.yul\":21663:21664   */\n      dup3\n        /* \"#utility.yul\":21645:21665   */\n      tag_464\n      jump\t// in\n    tag_718:\n        /* \"#utility.yul\":21640:21665   */\n      swap2\n      pop\n        /* \"#utility.yul\":21679:21699   */\n      tag_719\n        /* \"#utility.yul\":21697:21698   */\n      dup4\n        /* \"#utility.yul\":21679:21699   */\n      tag_464\n      jump\t// in\n    tag_719:\n        /* \"#utility.yul\":21674:21699   */\n      swap3\n      pop\n        /* \"#utility.yul\":21718:21719   */\n      dup3\n        /* \"#utility.yul\":21708:21743   */\n      tag_720\n      jumpi\n        /* \"#utility.yul\":21723:21741   */\n      tag_721\n      tag_507\n      jump\t// in\n    tag_721:\n        /* \"#utility.yul\":21708:21743   */\n    tag_720:\n        /* \"#utility.yul\":21764:21765   */\n      dup3\n        /* \"#utility.yul\":21761:21762   */\n      dup3\n        /* \"#utility.yul\":21757:21766   */\n      mod\n        /* \"#utility.yul\":21752:21766   */\n      swap1\n      pop\n        /* \"#utility.yul\":21596:21772   */\n      swap3\n      swap2\n      pop\n      pop\n      jump\t// out\n        /* \"#utility.yul\":21778:22110   */\n    tag_436:\n        /* \"#utility.yul\":21899:21903   */\n      0x00\n        /* \"#utility.yul\":21937:21939   */\n      0x40\n        /* \"#utility.yul\":21926:21935   */\n      dup3\n        /* \"#utility.yul\":21922:21940   */\n      add\n        /* \"#utility.yul\":21914:21940   */\n      swap1\n      pop\n        /* \"#utility.yul\":21950:22021   */\n      tag_723\n        /* \"#utility.yul\":22018:22019   */\n      0x00\n        /* \"#utility.yul\":22007:22016   */\n      dup4\n        /* \"#utility.yul\":22003:22020   */\n      add\n        /* \"#utility.yul\":21994:22000   */\n      dup6\n        /* \"#utility.yul\":21950:22021   */\n      tag_465\n      jump\t// in\n    tag_723:\n        /* \"#utility.yul\":22031:22103   */\n      tag_724\n        /* \"#utility.yul\":22099:22101   */\n      0x20\n        /* \"#utility.yul\":22088:22097   */\n      dup4\n        /* \"#utility.yul\":22084:22102   */\n      add\n        /* \"#utility.yul\":22075:22081   */\n      dup5\n        /* \"#utility.yul\":22031:22103   */\n      tag_465\n      jump\t// in\n    tag_724:\n        /* \"#utility.yul\":21778:22110   */\n      swap4\n      swap3\n      pop\n      pop\n      pop\n      jump\t// out\n        /* \"#utility.yul\":22116:22193   */\n    tag_512:\n        /* \"#utility.yul\":22153:22160   */\n      0x00\n        /* \"#utility.yul\":22182:22187   */\n      dup2\n        /* \"#utility.yul\":22171:22187   */\n      swap1\n      pop\n        /* \"#utility.yul\":22116:22193   */\n      swap2\n      swap1\n      pop\n      jump\t// out\n        /* \"#utility.yul\":22199:22317   */\n    tag_513:\n        /* \"#utility.yul\":22286:22310   */\n      tag_727\n        /* \"#utility.yul\":22304:22309   */\n      dup2\n        /* \"#utility.yul\":22286:22310   */\n      tag_512\n      jump\t// in\n    tag_727:\n        /* \"#utility.yul\":22281:22284   */\n      dup3\n        /* \"#utility.yul\":22274:22311   */\n      mstore\n        /* \"#utility.yul\":22199:22317   */\n      pop\n      pop\n      jump\t// out\n        /* \"#utility.yul\":22323:22868   */\n    tag_445:\n        /* \"#utility.yul\":22496:22500   */\n      0x00\n        /* \"#utility.yul\":22534:22537   */\n      0x80\n        /* \"#utility.yul\":22523:22532   */\n      dup3\n        /* \"#utility.yul\":22519:22538   */\n      add\n        /* \"#utility.yul\":22511:22538   */\n      swap1\n      pop\n        /* \"#utility.yul\":22548:22619   */\n      tag_729\n        /* \"#utility.yul\":22616:22617   */\n      0x00\n        /* \"#utility.yul\":22605:22614   */\n      dup4\n        /* \"#utility.yul\":22601:22618   */\n      add\n        /* \"#utility.yul\":22592:22598   */\n      dup8\n        /* \"#utility.yul\":22548:22619   */\n      tag_513\n      jump\t// in\n    tag_729:\n        /* \"#utility.yul\":22629:22697   */\n      tag_730\n        /* \"#utility.yul\":22693:22695   */\n      0x20\n        /* \"#utility.yul\":22682:22691   */\n      dup4\n        /* \"#utility.yul\":22678:22696   */\n      add\n        /* \"#utility.yul\":22669:22675   */\n      dup7\n        /* \"#utility.yul\":22629:22697   */\n      tag_469\n      jump\t// in\n    tag_730:\n        /* \"#utility.yul\":22707:22779   */\n      tag_731\n        /* \"#utility.yul\":22775:22777   */\n      0x40\n        /* \"#utility.yul\":22764:22773   */\n      dup4\n        /* \"#utility.yul\":22760:22778   */\n      add\n        /* \"#utility.yul\":22751:22757   */\n      dup6\n        /* \"#utility.yul\":22707:22779   */\n      tag_513\n      jump\t// in\n    tag_731:\n        /* \"#utility.yul\":22789:22861   */\n      tag_732\n        /* \"#utility.yul\":22857:22859   */\n      0x60\n        /* \"#utility.yul\":22846:22855   */\n      dup4\n        /* \"#utility.yul\":22842:22860   */\n      add\n        /* \"#utility.yul\":22833:22839   */\n      dup5\n        /* \"#utility.yul\":22789:22861   */\n      tag_513\n      jump\t// in\n    tag_732:\n        /* \"#utility.yul\":22323:22868   */\n      swap6\n      swap5\n      pop\n      pop\n      pop\n      pop\n      pop\n      jump\t// out\n\n    auxdata: 0xa26469706673582212202cfa02d01d2d6ec2c04f8f0bf75eee54cc16d6ab8d00cb0a4ed04bcc6661f1d564736f6c63430008130033\n}\n",
				"bytecode": {
					"linkReferences": {},
					"object": "608060405260006001553480156200001657600080fd5b5060405162002c5038038062002c5083398181016040528101906200003c9190620001c1565b6200005c620000506200007a60201b60201c565b6200008260201b60201c565b8260098190555081600a81905550806002819055505050506200021d565b600033905090565b60008060009054906101000a900473ffffffffffffffffffffffffffffffffffffffff169050816000806101000a81548173ffffffffffffffffffffffffffffffffffffffff021916908373ffffffffffffffffffffffffffffffffffffffff1602179055508173ffffffffffffffffffffffffffffffffffffffff168173ffffffffffffffffffffffffffffffffffffffff167f8be0079c531659141344cd1fd0a4f28419497f9722a3daafe3b4186f6b6457e060405160405180910390a35050565b600080fd5b6000819050919050565b62000160816200014b565b81146200016c57600080fd5b50565b600081519050620001808162000155565b92915050565b6000819050919050565b6200019b8162000186565b8114620001a757600080fd5b50565b600081519050620001bb8162000190565b92915050565b600080600060608486031215620001dd57620001dc62000146565b5b6000620001ed868287016200016f565b93505060206200020086828701620001aa565b92505060406200021386828701620001aa565b9150509250925092565b612a23806200022d6000396000f3fe6080604052600436106101665760003560e01c806389a78f1a116100d1578063c6788bdd1161008a578063efbe1c1c11610064578063efbe1c1c14610511578063f2fde38b1461053c578063f50b2efe14610565578063f90c49241461058e57610166565b8063c6788bdd1461046c578063e1152343146104a9578063eed947b1146104e657610166565b806389a78f1a146103465780638da5cb5b1461038357806391ddadf4146103ae578063a3b5afb1146103d9578063b24ebfcc14610404578063c274583a1461044157610166565b80634e71d92d116101235780634e71d92d1461026e57806351536c0f1461028557806355a547d5146102ae5780636f1d4ea4146102d9578063715018a6146103045780637a1fc2e21461031b57610166565b8063096a37781461016b57806316934fc4146101875780631ce62383146101c457806327793f87146101ef5780633ce142f51461021a5780634bb278f314610257575b600080fd5b61018560048036038101906101809190611e3d565b6105b9565b005b34801561019357600080fd5b506101ae60048036038101906101a99190611ec8565b610840565b6040516101bb9190611f0e565b60405180910390f35b3480156101d057600080fd5b506101d9610858565b6040516101e69190611f0e565b60405180910390f35b3480156101fb57600080fd5b5061020461085e565b6040516102119190611f42565b60405180910390f35b34801561022657600080fd5b50610241600480360381019061023c9190611ec8565b610864565b60405161024e9190611f79565b60405180910390f35b34801561026357600080fd5b5061026c6108f8565b005b34801561027a57600080fd5b506102836109d7565b005b34801561029157600080fd5b506102ac60048036038101906102a79190611fc0565b610c77565b005b3480156102ba57600080fd5b506102c3610c89565b6040516102d09190611f0e565b60405180910390f35b3480156102e557600080fd5b506102ee610df3565b6040516102fb9190611f0e565b60405180910390f35b34801561031057600080fd5b50610319610df9565b005b34801561032757600080fd5b50610330610e0d565b60405161033d9190611f0e565b60405180910390f35b34801561035257600080fd5b5061036d60048036038101906103689190611ec8565b610e13565b60405161037a9190612009565b60405180910390f35b34801561038f57600080fd5b50610398610e33565b6040516103a59190612033565b60405180910390f35b3480156103ba57600080fd5b506103c3610e5c565b6040516103d09190611f0e565b60405180910390f35b3480156103e557600080fd5b506103ee610e62565b6040516103fb9190611f0e565b60405180910390f35b34801561041057600080fd5b5061042b600480360381019061042691906121a7565b610e68565b6040516104389190611f0e565b60405180910390f35b34801561044d57600080fd5b50610456610e7a565b604051610463919061226f565b60405180910390f35b34801561047857600080fd5b50610493600480360381019061048e9190611ec8565b610eb7565b6040516104a091906122a0565b60405180910390f35b3480156104b557600080fd5b506104d060048036038101906104cb9190611fc0565b610ed7565b6040516104dd9190611f0e565b60405180910390f35b3480156104f257600080fd5b506104fb610fb3565b6040516105089190611f0e565b60405180910390f35b34801561051d57600080fd5b50610526610fbd565b6040516105339190611f0e565b60405180910390f35b34801561054857600080fd5b50610563600480360381019061055e9190611ec8565b610fc3565b005b34801561057157600080fd5b5061058c60048036038101906105879190611fc0565b611046565b005b34801561059a57600080fd5b506105a3611049565b6040516105b09190611f79565b60405180910390f35b600034036105fc576040517f08c379a00000000000000000000000000000000000000000000000000000000081526004016105f390612307565b60405180910390fd5b6000600360003373ffffffffffffffffffffffffffffffffffffffff1673ffffffffffffffffffffffffffffffffffffffff16815260200190815260200160002060009054906101000a900460000b60000b1461068e576040517f08c379a000000000000000000000000000000000000000000000000000000000815260040161068590612373565b60405180910390fd5b60025442106106d2576040517f08c379a00000000000000000000000000000000000000000000000000000000081526004016106c9906123df565b60405180910390fd5b8015610752576001600360003373ffffffffffffffffffffffffffffffffffffffff1673ffffffffffffffffffffffffffffffffffffffff16815260200190815260200160002060006101000a81548160ff021916908360000b60ff1602179055503460066000828254610746919061242e565b925050819055506107e7565b7fffffffffffffffffffffffffffffffffffffffffffffffffffffffffffffffff600360003373ffffffffffffffffffffffffffffffffffffffff1673ffffffffffffffffffffffffffffffffffffffff16815260200190815260200160002060006101000a81548160ff021916908360000b60ff16021790555034600760008282546107df919061242e565b925050819055505b34600460003373ffffffffffffffffffffffffffffffffffffffff1673ffffffffffffffffffffffffffffffffffffffff1681526020019081526020016000206000828254610836919061242e565b9250508190555050565b60046020528060005260406000206000915090505481565b600a5481565b60015481565b6000730c39486f770b26f5527bbbf942726537986cd7eb73ffffffffffffffffffffffffffffffffffffffff168273ffffffffffffffffffffffffffffffffffffffff16036108b657600090506108f3565b816040517fec459bc00000000000000000000000000000000000000000000000000000000081526004016108ea9190612033565b60405180910390fd5b919050565b60006001541461093d576040517f08c379a0000000000000000000000000000000000000000000000000000000008152600401610934906124ae565b60405180910390fd5b610945610c89565b60025414610988576040517f08c379a000000000000000000000000000000000000000000000000000000000815260040161097f9061251a565b60405180910390fd5b6000610995600954611052565b9050600a5481106109ac57600180819055506109d4565b7fffffffffffffffffffffffffffffffffffffffffffffffffffffffffffffffff6001819055505b50565b600060015403610a1c576040517f08c379a0000000000000000000000000000000000000000000000000000000008152600401610a1390612586565b60405180910390fd5b600154600360003373ffffffffffffffffffffffffffffffffffffffff1673ffffffffffffffffffffffffffffffffffffffff16815260200190815260200160002060009054906101000a900460000b60000b14610aaf576040517f08c379a0000000000000000000000000000000000000000000000000000000008152600401610aa6906125f2565b60405180910390fd5b60001515600560003373ffffffffffffffffffffffffffffffffffffffff1673ffffffffffffffffffffffffffffffffffffffff16815260200190815260200160002060009054906101000a900460ff16151514610b42576040517f08c379a0000000000000000000000000000000000000000000000000000000008152600401610b399061265e565b60405180910390fd5b6000600460003373ffffffffffffffffffffffffffffffffffffffff1673ffffffffffffffffffffffffffffffffffffffff1681526020019081526020016000205490503373ffffffffffffffffffffffffffffffffffffffff166108fc610ba983610ed7565b9081150290604051600060405180830381858888f19350505050158015610bd4573d6000803e3d6000fd5b503373ffffffffffffffffffffffffffffffffffffffff166108fc829081150290604051600060405180830381858888f19350505050158015610c1b573d6000803e3d6000fd5b506001600560003373ffffffffffffffffffffffffffffffffffffffff1673ffffffffffffffffffffffffffffffffffffffff16815260200190815260200160002060006101000a81548160ff02191690831515021790555050565b610c7f6110ee565b8060088190555050565b600080610c9461116c565b90506000610ca18261127d565b8161ffff169150809350819250505060008103610cea576040517f8552ff3c00000000000000000000000000000000000000000000000000000000815260040160405180910390fd5b60005b81811015610ded576000610d00846112ed565b9050600080606886610d12919061242e565b90506000816000369050610d26919061267e565b90508035925060008365ffffffffffff1603610d6e576040517f336dc9d000000000000000000000000000000000000000000000000000000000815260040160405180910390fd5b60008803610d86578265ffffffffffff169750610dc8565b878365ffffffffffff1614610dc7576040517fd9d1f46500000000000000000000000000000000000000000000000000000000815260040160405180910390fd5b5b8387610dd4919061242e565b9650505050508080610de5906126b2565b915050610ced565b50505090565b60065481565b610e016110ee565b610e0b600061132c565b565b600b5481565b60036020528060005260406000206000915054906101000a900460000b81565b60008060009054906101000a900473ffffffffffffffffffffffffffffffffffffffff16905090565b60085481565b60075481565b6000610e73826113f0565b9050919050565b60606040518060400160405280601281526020017f72656473746f6e652d6d61696e2d64656d6f0000000000000000000000000000815250905090565b60056020528060005260406000206000915054906101000a900460ff1681565b6000806305f5e100905060006001805414610ef457600754610ef8565b6006545b905080841115610f3d576040517f08c379a0000000000000000000000000000000000000000000000000000000008152600401610f3490612746565b60405180910390fd5b60007fffffffffffffffffffffffffffffffffffffffffffffffffffffffffffffffff60015414610f7057600654610f74565b6007545b90506000828487610f859190612766565b610f8f91906127d7565b9050838282610f9e9190612766565b610fa891906127d7565b945050505050919050565b6000600854905090565b60025481565b610fcb6110ee565b600073ffffffffffffffffffffffffffffffffffffffff168173ffffffffffffffffffffffffffffffffffffffff160361103a576040517f08c379a00000000000000000000000000000000000000000000000000000000081526004016110319061287a565b60405180910390fd5b6110438161132c565b50565b50565b60006001905090565b600080600167ffffffffffffffff8111156110705761106f612064565b5b60405190808252806020026020018201604052801561109e5781602001602082028036833780820191505090505b50905082816000815181106110b6576110b561289a565b5b6020026020010181815250506110cb81611402565b6000815181106110de576110dd61289a565b5b6020026020010151915050919050565b6110f6611427565b73ffffffffffffffffffffffffffffffffffffffff16611114610e33565b73ffffffffffffffffffffffffffffffffffffffff161461116a576040517f08c379a000000000000000000000000000000000000000000000000000000000815260040161116190612915565b60405180910390fd5b565b60008060203603356602ed57011e000081166602ed57011e000014915050806111c1576040517fe7764c9e00000000000000000000000000000000000000000000000000000000815260040160405180910390fd5b60008036905060291115611201576040517f5796f78a00000000000000000000000000000000000000000000000000000000815260040160405180910390fd5b602936033590506000600960038362ffffff1661121e919061242e565b611228919061242e565b9050600036905060028261123c919061242e565b1115611274576040517fc30a7bd700000000000000000000000000000000000000000000000000000000815260040160405180910390fd5b80935050505090565b600080600060208461128f919061242e565b905060003690508111156112cf576040517f5796f78a00000000000000000000000000000000000000000000000000000000815260040160405180910390fd5b803603359250826002856112e3919061242e565b9250925050915091565b60008060006112fb8461142f565b91509150604e81602061130e919061242e565b836113199190612766565b611323919061242e565b92505050919050565b60008060009054906101000a900473ffffffffffffffffffffffffffffffffffffffff169050816000806101000a81548173ffffffffffffffffffffffffffffffffffffffff021916908373ffffffffffffffffffffffffffffffffffffffff1602179055508173ffffffffffffffffffffffffffffffffffffffff168173ffffffffffffffffffffffffffffffffffffffff167f8be0079c531659141344cd1fd0a4f28419497f9722a3daafe3b4186f6b6457e060405160405180910390a35050565b60006113fb82611491565b9050919050565b6060600080611410846115e6565b9150915061141d81611046565b8192505050919050565b600033905090565b60008060008060006020604187611446919061242e565b611450919061242e565b600036905061145f919061267e565b905080359250600381611472919061267e565b9050803591508262ffffff1694508163ffffffff169350505050915091565b600060028251036114f1576002826001815181106114b2576114b161289a565b5b6020026020010151836000815181106114ce576114cd61289a565b5b60200260200101516114e0919061242e565b6114ea91906127d7565b90506115e1565b600082510361152c576040517f9e198af900000000000000000000000000000000000000000000000000000000815260040160405180910390fd5b61153582611861565b60006002835161154591906127d7565b90506000600284516115579190612935565b036115c25760008382815181106115715761157061289a565b5b602002602001015184600184611587919061267e565b815181106115985761159761289a565b5b60200260200101516115aa919061242e565b90506002816115b991906127d7565b925050506115e1565b8281815181106115d5576115d461289a565b5b60200260200101519150505b919050565b6060600080835167ffffffffffffffff81111561160657611605612064565b5b6040519080825280602002602001820160405280156116345781602001602082028036833780820191505090505b5090506000845167ffffffffffffffff81111561165457611653612064565b5b6040519080825280602002602001820160405280156116825781602001602082028036833780820191505090505b5090506000855167ffffffffffffffff8111156116a2576116a1612064565b5b6040519080825280602002602001820160405280156116d557816020015b60608152602001906001900390816116c05790505b50905060005b8651811015611762576116ec611049565b60ff1667ffffffffffffffff81111561170857611707612064565b5b6040519080825280602002602001820160405280156117365781602001602082028036833780820191505090505b5082828151811061174a5761174961289a565b5b602002602001018190525080806001019150506116db565b50600061176d61116c565b9050600061177a8261127d565b8161ffff16915080935081925050506000604051905060005b828110156118495760006117aa8b898989896118b4565b8092508196505050600081036117ec576040517fdfb25a7900000000000000000000000000000000000000000000000000000000815260040160405180910390fd5b8881141580156117fd575060008914155b15611834576040517f4cbc474200000000000000000000000000000000000000000000000000000000815260040160405180910390fd5b80985082604052818060010192505050611793565b506118548487611b80565b9750505050505050915091565b805160208201602082028101815b818110156118ad57825b818110156118a1578151815180821015611894578084528183525b5050602081019050611879565b5060208101905061186f565b5050505050565b60008060008060006118c58661142f565b915091506000806060600080600d6020876118e0919061242e565b886118eb9190612766565b6118f5919061242e565b9150600060688c611906919061242e565b6000369050611915919061267e565b905060008360418e611927919061242e565b611931919061242e565b6000369050611940919061267e565b905061194c848261197a565b9450836020860120955081359250611996565b60006040519050818152602081019050818101604052919050565b60006119858361195f565b838382376020810391505092915050565b8265ffffffffffff169a506119b78660418f6119b2919061242e565b611ccd565b96506119c287610864565b60ff16995050505050505050604e866119db919061242e565b955060008060005b84811015611b6d576020848a6119f9919061242e565b611a03919061242e565b9850611a0f8985611d4c565b809350819450505060005b8d51811015611b5f578d8181518110611a3657611a3561289a565b5b60200260200101518403611b525760008c8281518110611a5957611a5861289a565b5b60200260200101519050611a6d8189611dc7565b158015611a9d5750611a7d611049565b60ff168e8381518110611a9357611a9261289a565b5b6020026020010151105b15611b4c57838c8381518110611ab657611ab561289a565b5b60200260200101518f8481518110611ad157611ad061289a565b5b602002602001015181518110611aea57611ae961289a565b5b6020026020010181815250508d8281518110611b0957611b0861289a565b5b602002602001018051809190611b1e906126b2565b81525050611b2c8189611de0565b8d8381518110611b3f57611b3e61289a565b5b6020026020010181815250505b50611b5f565b8080600101915050611a1a565b5080806001019150506119e3565b5050508594505050509550959350505050565b60606000835167ffffffffffffffff811115611b9f57611b9e612064565b5b604051908082528060200260200182016040528015611bcd5781602001602082028036833780820191505090505b5090506000611bda611049565b60ff16905060005b8551811015611cc15781858281518110611bff57611bfe61289a565b5b60200260200101511015611c6657848181518110611c2057611c1f61289a565b5b6020026020010151826040517f2b13aef5000000000000000000000000000000000000000000000000000000008152600401611c5d929190612966565b60405180910390fd5b6000611c8b878381518110611c7e57611c7d61289a565b5b6020026020010151610e68565b905080848381518110611ca157611ca061289a565b5b602002602001018181525050508080611cb9906126b2565b915050611be2565b50819250505092915050565b6000806000808436038035935060208101905080359250602081019050803560001a91505060018682858560405160008152602001604052604051611d1594939291906129a8565b6020604051602081039080840390855afa158015611d37573d6000803e3d6000fd5b50505060206040510351935050505092915050565b6000806000846000369050611d61919061267e565b9050803592506020810135915060218410611db357836040517fc000fc42000000000000000000000000000000000000000000000000000000008152600401611daa9190611f0e565b60405180910390fd5b6008846020030282901c9150509250929050565b600080826001901b841690506000811191505092915050565b6000816001901b8317905092915050565b6000604051905090565b600080fd5b600080fd5b60008115159050919050565b611e1a81611e05565b8114611e2557600080fd5b50565b600081359050611e3781611e11565b92915050565b600060208284031215611e5357611e52611dfb565b5b6000611e6184828501611e28565b91505092915050565b600073ffffffffffffffffffffffffffffffffffffffff82169050919050565b6000611e9582611e6a565b9050919050565b611ea581611e8a565b8114611eb057600080fd5b50565b600081359050611ec281611e9c565b92915050565b600060208284031215611ede57611edd611dfb565b5b6000611eec84828501611eb3565b91505092915050565b6000819050919050565b611f0881611ef5565b82525050565b6000602082019050611f236000830184611eff565b92915050565b6000819050919050565b611f3c81611f29565b82525050565b6000602082019050611f576000830184611f33565b92915050565b600060ff82169050919050565b611f7381611f5d565b82525050565b6000602082019050611f8e6000830184611f6a565b92915050565b611f9d81611ef5565b8114611fa857600080fd5b50565b600081359050611fba81611f94565b92915050565b600060208284031215611fd657611fd5611dfb565b5b6000611fe484828501611fab565b91505092915050565b60008160000b9050919050565b61200381611fed565b82525050565b600060208201905061201e6000830184611ffa565b92915050565b61202d81611e8a565b82525050565b60006020820190506120486000830184612024565b92915050565b600080fd5b6000601f19601f8301169050919050565b7f4e487b7100000000000000000000000000000000000000000000000000000000600052604160045260246000fd5b61209c82612053565b810181811067ffffffffffffffff821117156120bb576120ba612064565b5b80604052505050565b60006120ce611df1565b90506120da8282612093565b919050565b600067ffffffffffffffff8211156120fa576120f9612064565b5b602082029050602081019050919050565b600080fd5b600061212361211e846120df565b6120c4565b905080838252602082019050602084028301858111156121465761214561210b565b5b835b8181101561216f578061215b8882611fab565b845260208401935050602081019050612148565b5050509392505050565b600082601f83011261218e5761218d61204e565b5b813561219e848260208601612110565b91505092915050565b6000602082840312156121bd576121bc611dfb565b5b600082013567ffffffffffffffff8111156121db576121da611e00565b5b6121e784828501612179565b91505092915050565b600081519050919050565b600082825260208201905092915050565b60005b8381101561222a57808201518184015260208101905061220f565b60008484015250505050565b6000612241826121f0565b61224b81856121fb565b935061225b81856020860161220c565b61226481612053565b840191505092915050565b600060208201905081810360008301526122898184612236565b905092915050565b61229a81611e05565b82525050565b60006020820190506122b56000830184612291565b92915050565b7f4e6f2076616c756520696d206265740000000000000000000000000000000000600082015250565b60006122f1600f836121fb565b91506122fc826122bb565b602082019050919050565b60006020820190508181036000830152612320816122e4565b9050919050565b7f42657420616c726561647920706c616365640000000000000000000000000000600082015250565b600061235d6012836121fb565b915061236882612327565b602082019050919050565b6000602082019050818103600083015261238c81612350565b9050919050565b7f50617373656420746865206c696d697400000000000000000000000000000000600082015250565b60006123c96010836121fb565b91506123d482612393565b602082019050919050565b600060208201905081810360008301526123f8816123bc565b9050919050565b7f4e487b7100000000000000000000000000000000000000000000000000000000600052601160045260246000fd5b600061243982611ef5565b915061244483611ef5565b925082820190508082111561245c5761245b6123ff565b5b92915050565b7f416c72656164792066696e616c697a6564000000000000000000000000000000600082015250565b60006124986011836121fb565b91506124a382612462565b602082019050919050565b600060208201905081810360008301526124c78161248b565b9050919050565b7f496e76616c69642074696d657374616d70000000000000000000000000000000600082015250565b60006125046011836121fb565b915061250f826124ce565b602082019050919050565b60006020820190508181036000830152612533816124f7565b9050919050565b7f4e6f742066696e616c697a656400000000000000000000000000000000000000600082015250565b6000612570600d836121fb565b915061257b8261253a565b602082019050919050565b6000602082019050818103600083015261259f81612563565b9050919050565b7f446964206e6f742077696e000000000000000000000000000000000000000000600082015250565b60006125dc600b836121fb565b91506125e7826125a6565b602082019050919050565b6000602082019050818103600083015261260b816125cf565b9050919050565b7f416c726561647920636c61696d65640000000000000000000000000000000000600082015250565b6000612648600f836121fb565b915061265382612612565b602082019050919050565b600060208201905081810360008301526126778161263b565b9050919050565b600061268982611ef5565b915061269483611ef5565b92508282039050818111156126ac576126ab6123ff565b5b92915050565b60006126bd82611ef5565b91507fffffffffffffffffffffffffffffffffffffffffffffffffffffffffffffffff82036126ef576126ee6123ff565b5b600182019050919050565b7f42657420626967676572207468616e2077696e6e696e6720706f6f6c00000000600082015250565b6000612730601c836121fb565b915061273b826126fa565b602082019050919050565b6000602082019050818103600083015261275f81612723565b9050919050565b600061277182611ef5565b915061277c83611ef5565b925082820261278a81611ef5565b915082820484148315176127a1576127a06123ff565b5b5092915050565b7f4e487b7100000000000000000000000000000000000000000000000000000000600052601260045260246000fd5b60006127e282611ef5565b91506127ed83611ef5565b9250826127fd576127fc6127a8565b5b828204905092915050565b7f4f776e61626c653a206e6577206f776e657220697320746865207a65726f206160008201527f6464726573730000000000000000000000000000000000000000000000000000602082015250565b60006128646026836121fb565b915061286f82612808565b604082019050919050565b6000602082019050818103600083015261289381612857565b9050919050565b7f4e487b7100000000000000000000000000000000000000000000000000000000600052603260045260246000fd5b7f4f776e61626c653a2063616c6c6572206973206e6f7420746865206f776e6572600082015250565b60006128ff6020836121fb565b915061290a826128c9565b602082019050919050565b6000602082019050818103600083015261292e816128f2565b9050919050565b600061294082611ef5565b915061294b83611ef5565b92508261295b5761295a6127a8565b5b828206905092915050565b600060408201905061297b6000830185611eff565b6129886020830184611eff565b9392505050565b6000819050919050565b6129a28161298f565b82525050565b60006080820190506129bd6000830187612999565b6129ca6020830186611f6a565b6129d76040830185612999565b6129e46060830184612999565b9594505050505056fea26469706673582212202cfa02d01d2d6ec2c04f8f0bf75eee54cc16d6ab8d00cb0a4ed04bcc6661f1d564736f6c63430008130033",
					"opcodes": "PUSH1 0x80 PUSH1 0x40 MSTORE PUSH1 0x0 PUSH1 0x1 SSTORE CALLVALUE DUP1 ISZERO PUSH3 0x16 JUMPI PUSH1 0x0 DUP1 REVERT JUMPDEST POP PUSH1 0x40 MLOAD PUSH3 0x2C50 CODESIZE SUB DUP1 PUSH3 0x2C50 DUP4 CODECOPY DUP2 DUP2 ADD PUSH1 0x40 MSTORE DUP2 ADD SWAP1 PUSH3 0x3C SWAP2 SWAP1 PUSH3 0x1C1 JUMP JUMPDEST PUSH3 0x5C PUSH3 0x50 PUSH3 0x7A PUSH1 0x20 SHL PUSH1 0x20 SHR JUMP JUMPDEST PUSH3 0x82 PUSH1 0x20 SHL PUSH1 0x20 SHR JUMP JUMPDEST DUP3 PUSH1 0x9 DUP2 SWAP1 SSTORE POP DUP2 PUSH1 0xA DUP2 SWAP1 SSTORE POP DUP1 PUSH1 0x2 DUP2 SWAP1 SSTORE POP POP POP POP PUSH3 0x21D JUMP JUMPDEST PUSH1 0x0 CALLER SWAP1 POP SWAP1 JUMP JUMPDEST PUSH1 0x0 DUP1 PUSH1 0x0 SWAP1 SLOAD SWAP1 PUSH2 0x100 EXP SWAP1 DIV PUSH20 0xFFFFFFFFFFFFFFFFFFFFFFFFFFFFFFFFFFFFFFFF AND SWAP1 POP DUP2 PUSH1 0x0 DUP1 PUSH2 0x100 EXP DUP2 SLOAD DUP2 PUSH20 0xFFFFFFFFFFFFFFFFFFFFFFFFFFFFFFFFFFFFFFFF MUL NOT AND SWAP1 DUP4 PUSH20 0xFFFFFFFFFFFFFFFFFFFFFFFFFFFFFFFFFFFFFFFF AND MUL OR SWAP1 SSTORE POP DUP2 PUSH20 0xFFFFFFFFFFFFFFFFFFFFFFFFFFFFFFFFFFFFFFFF AND DUP2 PUSH20 0xFFFFFFFFFFFFFFFFFFFFFFFFFFFFFFFFFFFFFFFF AND PUSH32 0x8BE0079C531659141344CD1FD0A4F28419497F9722A3DAAFE3B4186F6B6457E0 PUSH1 0x40 MLOAD PUSH1 0x40 MLOAD DUP1 SWAP2 SUB SWAP1 LOG3 POP POP JUMP JUMPDEST PUSH1 0x0 DUP1 REVERT JUMPDEST PUSH1 0x0 DUP2 SWAP1 POP SWAP2 SWAP1 POP JUMP JUMPDEST PUSH3 0x160 DUP2 PUSH3 0x14B JUMP JUMPDEST DUP2 EQ PUSH3 0x16C JUMPI PUSH1 0x0 DUP1 REVERT JUMPDEST POP JUMP JUMPDEST PUSH1 0x0 DUP2 MLOAD SWAP1 POP PUSH3 0x180 DUP2 PUSH3 0x155 JUMP JUMPDEST SWAP3 SWAP2 POP POP JUMP JUMPDEST PUSH1 0x0 DUP2 SWAP1 POP SWAP2 SWAP1 POP JUMP JUMPDEST PUSH3 0x19B DUP2 PUSH3 0x186 JUMP JUMPDEST DUP2 EQ PUSH3 0x1A7 JUMPI PUSH1 0x0 DUP1 REVERT JUMPDEST POP JUMP JUMPDEST PUSH1 0x0 DUP2 MLOAD SWAP1 POP PUSH3 0x1BB DUP2 PUSH3 0x190 JUMP JUMPDEST SWAP3 SWAP2 POP POP JUMP JUMPDEST PUSH1 0x0 DUP1 PUSH1 0x0 PUSH1 0x60 DUP5 DUP7 SUB SLT ISZERO PUSH3 0x1DD JUMPI PUSH3 0x1DC PUSH3 0x146 JUMP JUMPDEST JUMPDEST PUSH1 0x0 PUSH3 0x1ED DUP7 DUP3 DUP8 ADD PUSH3 0x16F JUMP JUMPDEST SWAP4 POP POP PUSH1 0x20 PUSH3 0x200 DUP7 DUP3 DUP8 ADD PUSH3 0x1AA JUMP JUMPDEST SWAP3 POP POP PUSH1 0x40 PUSH3 0x213 DUP7 DUP3 DUP8 ADD PUSH3 0x1AA JUMP JUMPDEST SWAP2 POP POP SWAP3 POP SWAP3 POP SWAP3 JUMP JUMPDEST PUSH2 0x2A23 DUP1 PUSH3 0x22D PUSH1 0x0 CODECOPY PUSH1 0x0 RETURN INVALID PUSH1 0x80 PUSH1 0x40 MSTORE PUSH1 0x4 CALLDATASIZE LT PUSH2 0x166 JUMPI PUSH1 0x0 CALLDATALOAD PUSH1 0xE0 SHR DUP1 PUSH4 0x89A78F1A GT PUSH2 0xD1 JUMPI DUP1 PUSH4 0xC6788BDD GT PUSH2 0x8A JUMPI DUP1 PUSH4 0xEFBE1C1C GT PUSH2 0x64 JUMPI DUP1 PUSH4 0xEFBE1C1C EQ PUSH2 0x511 JUMPI DUP1 PUSH4 0xF2FDE38B EQ PUSH2 0x53C JUMPI DUP1 PUSH4 0xF50B2EFE EQ PUSH2 0x565 JUMPI DUP1 PUSH4 0xF90C4924 EQ PUSH2 0x58E JUMPI PUSH2 0x166 JUMP JUMPDEST DUP1 PUSH4 0xC6788BDD EQ PUSH2 0x46C JUMPI DUP1 PUSH4 0xE1152343 EQ PUSH2 0x4A9 JUMPI DUP1 PUSH4 0xEED947B1 EQ PUSH2 0x4E6 JUMPI PUSH2 0x166 JUMP JUMPDEST DUP1 PUSH4 0x89A78F1A EQ PUSH2 0x346 JUMPI DUP1 PUSH4 0x8DA5CB5B EQ PUSH2 0x383 JUMPI DUP1 PUSH4 0x91DDADF4 EQ PUSH2 0x3AE JUMPI DUP1 PUSH4 0xA3B5AFB1 EQ PUSH2 0x3D9 JUMPI DUP1 PUSH4 0xB24EBFCC EQ PUSH2 0x404 JUMPI DUP1 PUSH4 0xC274583A EQ PUSH2 0x441 JUMPI PUSH2 0x166 JUMP JUMPDEST DUP1 PUSH4 0x4E71D92D GT PUSH2 0x123 JUMPI DUP1 PUSH4 0x4E71D92D EQ PUSH2 0x26E JUMPI DUP1 PUSH4 0x51536C0F EQ PUSH2 0x285 JUMPI DUP1 PUSH4 0x55A547D5 EQ PUSH2 0x2AE JUMPI DUP1 PUSH4 0x6F1D4EA4 EQ PUSH2 0x2D9 JUMPI DUP1 PUSH4 0x715018A6 EQ PUSH2 0x304 JUMPI DUP1 PUSH4 0x7A1FC2E2 EQ PUSH2 0x31B JUMPI PUSH2 0x166 JUMP JUMPDEST DUP1 PUSH4 0x96A3778 EQ PUSH2 0x16B JUMPI DUP1 PUSH4 0x16934FC4 EQ PUSH2 0x187 JUMPI DUP1 PUSH4 0x1CE62383 EQ PUSH2 0x1C4 JUMPI DUP1 PUSH4 0x27793F87 EQ PUSH2 0x1EF JUMPI DUP1 PUSH4 0x3CE142F5 EQ PUSH2 0x21A JUMPI DUP1 PUSH4 0x4BB278F3 EQ PUSH2 0x257 JUMPI JUMPDEST PUSH1 0x0 DUP1 REVERT JUMPDEST PUSH2 0x185 PUSH1 0x4 DUP1 CALLDATASIZE SUB DUP2 ADD SWAP1 PUSH2 0x180 SWAP2 SWAP1 PUSH2 0x1E3D JUMP JUMPDEST PUSH2 0x5B9 JUMP JUMPDEST STOP JUMPDEST CALLVALUE DUP1 ISZERO PUSH2 0x193 JUMPI PUSH1 0x0 DUP1 REVERT JUMPDEST POP PUSH2 0x1AE PUSH1 0x4 DUP1 CALLDATASIZE SUB DUP2 ADD SWAP1 PUSH2 0x1A9 SWAP2 SWAP1 PUSH2 0x1EC8 JUMP JUMPDEST PUSH2 0x840 JUMP JUMPDEST PUSH1 0x40 MLOAD PUSH2 0x1BB SWAP2 SWAP1 PUSH2 0x1F0E JUMP JUMPDEST PUSH1 0x40 MLOAD DUP1 SWAP2 SUB SWAP1 RETURN JUMPDEST CALLVALUE DUP1 ISZERO PUSH2 0x1D0 JUMPI PUSH1 0x0 DUP1 REVERT JUMPDEST POP PUSH2 0x1D9 PUSH2 0x858 JUMP JUMPDEST PUSH1 0x40 MLOAD PUSH2 0x1E6 SWAP2 SWAP1 PUSH2 0x1F0E JUMP JUMPDEST PUSH1 0x40 MLOAD DUP1 SWAP2 SUB SWAP1 RETURN JUMPDEST CALLVALUE DUP1 ISZERO PUSH2 0x1FB JUMPI PUSH1 0x0 DUP1 REVERT JUMPDEST POP PUSH2 0x204 PUSH2 0x85E JUMP JUMPDEST PUSH1 0x40 MLOAD PUSH2 0x211 SWAP2 SWAP1 PUSH2 0x1F42 JUMP JUMPDEST PUSH1 0x40 MLOAD DUP1 SWAP2 SUB SWAP1 RETURN JUMPDEST CALLVALUE DUP1 ISZERO PUSH2 0x226 JUMPI PUSH1 0x0 DUP1 REVERT JUMPDEST POP PUSH2 0x241 PUSH1 0x4 DUP1 CALLDATASIZE SUB DUP2 ADD SWAP1 PUSH2 0x23C SWAP2 SWAP1 PUSH2 0x1EC8 JUMP JUMPDEST PUSH2 0x864 JUMP JUMPDEST PUSH1 0x40 MLOAD PUSH2 0x24E SWAP2 SWAP1 PUSH2 0x1F79 JUMP JUMPDEST PUSH1 0x40 MLOAD DUP1 SWAP2 SUB SWAP1 RETURN JUMPDEST CALLVALUE DUP1 ISZERO PUSH2 0x263 JUMPI PUSH1 0x0 DUP1 REVERT JUMPDEST POP PUSH2 0x26C PUSH2 0x8F8 JUMP JUMPDEST STOP JUMPDEST CALLVALUE DUP1 ISZERO PUSH2 0x27A JUMPI PUSH1 0x0 DUP1 REVERT JUMPDEST POP PUSH2 0x283 PUSH2 0x9D7 JUMP JUMPDEST STOP JUMPDEST CALLVALUE DUP1 ISZERO PUSH2 0x291 JUMPI PUSH1 0x0 DUP1 REVERT JUMPDEST POP PUSH2 0x2AC PUSH1 0x4 DUP1 CALLDATASIZE SUB DUP2 ADD SWAP1 PUSH2 0x2A7 SWAP2 SWAP1 PUSH2 0x1FC0 JUMP JUMPDEST PUSH2 0xC77 JUMP JUMPDEST STOP JUMPDEST CALLVALUE DUP1 ISZERO PUSH2 0x2BA JUMPI PUSH1 0x0 DUP1 REVERT JUMPDEST POP PUSH2 0x2C3 PUSH2 0xC89 JUMP JUMPDEST PUSH1 0x40 MLOAD PUSH2 0x2D0 SWAP2 SWAP1 PUSH2 0x1F0E JUMP JUMPDEST PUSH1 0x40 MLOAD DUP1 SWAP2 SUB SWAP1 RETURN JUMPDEST CALLVALUE DUP1 ISZERO PUSH2 0x2E5 JUMPI PUSH1 0x0 DUP1 REVERT JUMPDEST POP PUSH2 0x2EE PUSH2 0xDF3 JUMP JUMPDEST PUSH1 0x40 MLOAD PUSH2 0x2FB SWAP2 SWAP1 PUSH2 0x1F0E JUMP JUMPDEST PUSH1 0x40 MLOAD DUP1 SWAP2 SUB SWAP1 RETURN JUMPDEST CALLVALUE DUP1 ISZERO PUSH2 0x310 JUMPI PUSH1 0x0 DUP1 REVERT JUMPDEST POP PUSH2 0x319 PUSH2 0xDF9 JUMP JUMPDEST STOP JUMPDEST CALLVALUE DUP1 ISZERO PUSH2 0x327 JUMPI PUSH1 0x0 DUP1 REVERT JUMPDEST POP PUSH2 0x330 PUSH2 0xE0D JUMP JUMPDEST PUSH1 0x40 MLOAD PUSH2 0x33D SWAP2 SWAP1 PUSH2 0x1F0E JUMP JUMPDEST PUSH1 0x40 MLOAD DUP1 SWAP2 SUB SWAP1 RETURN JUMPDEST CALLVALUE DUP1 ISZERO PUSH2 0x352 JUMPI PUSH1 0x0 DUP1 REVERT JUMPDEST POP PUSH2 0x36D PUSH1 0x4 DUP1 CALLDATASIZE SUB DUP2 ADD SWAP1 PUSH2 0x368 SWAP2 SWAP1 PUSH2 0x1EC8 JUMP JUMPDEST PUSH2 0xE13 JUMP JUMPDEST PUSH1 0x40 MLOAD PUSH2 0x37A SWAP2 SWAP1 PUSH2 0x2009 JUMP JUMPDEST PUSH1 0x40 MLOAD DUP1 SWAP2 SUB SWAP1 RETURN JUMPDEST CALLVALUE DUP1 ISZERO PUSH2 0x38F JUMPI PUSH1 0x0 DUP1 REVERT JUMPDEST POP PUSH2 0x398 PUSH2 0xE33 JUMP JUMPDEST PUSH1 0x40 MLOAD PUSH2 0x3A5 SWAP2 SWAP1 PUSH2 0x2033 JUMP JUMPDEST PUSH1 0x40 MLOAD DUP1 SWAP2 SUB SWAP1 RETURN JUMPDEST CALLVALUE DUP1 ISZERO PUSH2 0x3BA JUMPI PUSH1 0x0 DUP1 REVERT JUMPDEST POP PUSH2 0x3C3 PUSH2 0xE5C JUMP JUMPDEST PUSH1 0x40 MLOAD PUSH2 0x3D0 SWAP2 SWAP1 PUSH2 0x1F0E JUMP JUMPDEST PUSH1 0x40 MLOAD DUP1 SWAP2 SUB SWAP1 RETURN JUMPDEST CALLVALUE DUP1 ISZERO PUSH2 0x3E5 JUMPI PUSH1 0x0 DUP1 REVERT JUMPDEST POP PUSH2 0x3EE PUSH2 0xE62 JUMP JUMPDEST PUSH1 0x40 MLOAD PUSH2 0x3FB SWAP2 SWAP1 PUSH2 0x1F0E JUMP JUMPDEST PUSH1 0x40 MLOAD DUP1 SWAP2 SUB SWAP1 RETURN JUMPDEST CALLVALUE DUP1 ISZERO PUSH2 0x410 JUMPI PUSH1 0x0 DUP1 REVERT JUMPDEST POP PUSH2 0x42B PUSH1 0x4 DUP1 CALLDATASIZE SUB DUP2 ADD SWAP1 PUSH2 0x426 SWAP2 SWAP1 PUSH2 0x21A7 JUMP JUMPDEST PUSH2 0xE68 JUMP JUMPDEST PUSH1 0x40 MLOAD PUSH2 0x438 SWAP2 SWAP1 PUSH2 0x1F0E JUMP JUMPDEST PUSH1 0x40 MLOAD DUP1 SWAP2 SUB SWAP1 RETURN JUMPDEST CALLVALUE DUP1 ISZERO PUSH2 0x44D JUMPI PUSH1 0x0 DUP1 REVERT JUMPDEST POP PUSH2 0x456 PUSH2 0xE7A JUMP JUMPDEST PUSH1 0x40 MLOAD PUSH2 0x463 SWAP2 SWAP1 PUSH2 0x226F JUMP JUMPDEST PUSH1 0x40 MLOAD DUP1 SWAP2 SUB SWAP1 RETURN JUMPDEST CALLVALUE DUP1 ISZERO PUSH2 0x478 JUMPI PUSH1 0x0 DUP1 REVERT JUMPDEST POP PUSH2 0x493 PUSH1 0x4 DUP1 CALLDATASIZE SUB DUP2 ADD SWAP1 PUSH2 0x48E SWAP2 SWAP1 PUSH2 0x1EC8 JUMP JUMPDEST PUSH2 0xEB7 JUMP JUMPDEST PUSH1 0x40 MLOAD PUSH2 0x4A0 SWAP2 SWAP1 PUSH2 0x22A0 JUMP JUMPDEST PUSH1 0x40 MLOAD DUP1 SWAP2 SUB SWAP1 RETURN JUMPDEST CALLVALUE DUP1 ISZERO PUSH2 0x4B5 JUMPI PUSH1 0x0 DUP1 REVERT JUMPDEST POP PUSH2 0x4D0 PUSH1 0x4 DUP1 CALLDATASIZE SUB DUP2 ADD SWAP1 PUSH2 0x4CB SWAP2 SWAP1 PUSH2 0x1FC0 JUMP JUMPDEST PUSH2 0xED7 JUMP JUMPDEST PUSH1 0x40 MLOAD PUSH2 0x4DD SWAP2 SWAP1 PUSH2 0x1F0E JUMP JUMPDEST PUSH1 0x40 MLOAD DUP1 SWAP2 SUB SWAP1 RETURN JUMPDEST CALLVALUE DUP1 ISZERO PUSH2 0x4F2 JUMPI PUSH1 0x0 DUP1 REVERT JUMPDEST POP PUSH2 0x4FB PUSH2 0xFB3 JUMP JUMPDEST PUSH1 0x40 MLOAD PUSH2 0x508 SWAP2 SWAP1 PUSH2 0x1F0E JUMP JUMPDEST PUSH1 0x40 MLOAD DUP1 SWAP2 SUB SWAP1 RETURN JUMPDEST CALLVALUE DUP1 ISZERO PUSH2 0x51D JUMPI PUSH1 0x0 DUP1 REVERT JUMPDEST POP PUSH2 0x526 PUSH2 0xFBD JUMP JUMPDEST PUSH1 0x40 MLOAD PUSH2 0x533 SWAP2 SWAP1 PUSH2 0x1F0E JUMP JUMPDEST PUSH1 0x40 MLOAD DUP1 SWAP2 SUB SWAP1 RETURN JUMPDEST CALLVALUE DUP1 ISZERO PUSH2 0x548 JUMPI PUSH1 0x0 DUP1 REVERT JUMPDEST POP PUSH2 0x563 PUSH1 0x4 DUP1 CALLDATASIZE SUB DUP2 ADD SWAP1 PUSH2 0x55E SWAP2 SWAP1 PUSH2 0x1EC8 JUMP JUMPDEST PUSH2 0xFC3 JUMP JUMPDEST STOP JUMPDEST CALLVALUE DUP1 ISZERO PUSH2 0x571 JUMPI PUSH1 0x0 DUP1 REVERT JUMPDEST POP PUSH2 0x58C PUSH1 0x4 DUP1 CALLDATASIZE SUB DUP2 ADD SWAP1 PUSH2 0x587 SWAP2 SWAP1 PUSH2 0x1FC0 JUMP JUMPDEST PUSH2 0x1046 JUMP JUMPDEST STOP JUMPDEST CALLVALUE DUP1 ISZERO PUSH2 0x59A JUMPI PUSH1 0x0 DUP1 REVERT JUMPDEST POP PUSH2 0x5A3 PUSH2 0x1049 JUMP JUMPDEST PUSH1 0x40 MLOAD PUSH2 0x5B0 SWAP2 SWAP1 PUSH2 0x1F79 JUMP JUMPDEST PUSH1 0x40 MLOAD DUP1 SWAP2 SUB SWAP1 RETURN JUMPDEST PUSH1 0x0 CALLVALUE SUB PUSH2 0x5FC JUMPI PUSH1 0x40 MLOAD PUSH32 0x8C379A000000000000000000000000000000000000000000000000000000000 DUP2 MSTORE PUSH1 0x4 ADD PUSH2 0x5F3 SWAP1 PUSH2 0x2307 JUMP JUMPDEST PUSH1 0x40 MLOAD DUP1 SWAP2 SUB SWAP1 REVERT JUMPDEST PUSH1 0x0 PUSH1 0x3 PUSH1 0x0 CALLER PUSH20 0xFFFFFFFFFFFFFFFFFFFFFFFFFFFFFFFFFFFFFFFF AND PUSH20 0xFFFFFFFFFFFFFFFFFFFFFFFFFFFFFFFFFFFFFFFF AND DUP2 MSTORE PUSH1 0x20 ADD SWAP1 DUP2 MSTORE PUSH1 0x20 ADD PUSH1 0x0 KECCAK256 PUSH1 0x0 SWAP1 SLOAD SWAP1 PUSH2 0x100 EXP SWAP1 DIV PUSH1 0x0 SIGNEXTEND PUSH1 0x0 SIGNEXTEND EQ PUSH2 0x68E JUMPI PUSH1 0x40 MLOAD PUSH32 0x8C379A000000000000000000000000000000000000000000000000000000000 DUP2 MSTORE PUSH1 0x4 ADD PUSH2 0x685 SWAP1 PUSH2 0x2373 JUMP JUMPDEST PUSH1 0x40 MLOAD DUP1 SWAP2 SUB SWAP1 REVERT JUMPDEST PUSH1 0x2 SLOAD TIMESTAMP LT PUSH2 0x6D2 JUMPI PUSH1 0x40 MLOAD PUSH32 0x8C379A000000000000000000000000000000000000000000000000000000000 DUP2 MSTORE PUSH1 0x4 ADD PUSH2 0x6C9 SWAP1 PUSH2 0x23DF JUMP JUMPDEST PUSH1 0x40 MLOAD DUP1 SWAP2 SUB SWAP1 REVERT JUMPDEST DUP1 ISZERO PUSH2 0x752 JUMPI PUSH1 0x1 PUSH1 0x3 PUSH1 0x0 CALLER PUSH20 0xFFFFFFFFFFFFFFFFFFFFFFFFFFFFFFFFFFFFFFFF AND PUSH20 0xFFFFFFFFFFFFFFFFFFFFFFFFFFFFFFFFFFFFFFFF AND DUP2 MSTORE PUSH1 0x20 ADD SWAP1 DUP2 MSTORE PUSH1 0x20 ADD PUSH1 0x0 KECCAK256 PUSH1 0x0 PUSH2 0x100 EXP DUP2 SLOAD DUP2 PUSH1 0xFF MUL NOT AND SWAP1 DUP4 PUSH1 0x0 SIGNEXTEND PUSH1 0xFF AND MUL OR SWAP1 SSTORE POP CALLVALUE PUSH1 0x6 PUSH1 0x0 DUP3 DUP3 SLOAD PUSH2 0x746 SWAP2 SWAP1 PUSH2 0x242E JUMP JUMPDEST SWAP3 POP POP DUP2 SWAP1 SSTORE POP PUSH2 0x7E7 JUMP JUMPDEST PUSH32 0xFFFFFFFFFFFFFFFFFFFFFFFFFFFFFFFFFFFFFFFFFFFFFFFFFFFFFFFFFFFFFFFF PUSH1 0x3 PUSH1 0x0 CALLER PUSH20 0xFFFFFFFFFFFFFFFFFFFFFFFFFFFFFFFFFFFFFFFF AND PUSH20 0xFFFFFFFFFFFFFFFFFFFFFFFFFFFFFFFFFFFFFFFF AND DUP2 MSTORE PUSH1 0x20 ADD SWAP1 DUP2 MSTORE PUSH1 0x20 ADD PUSH1 0x0 KECCAK256 PUSH1 0x0 PUSH2 0x100 EXP DUP2 SLOAD DUP2 PUSH1 0xFF MUL NOT AND SWAP1 DUP4 PUSH1 0x0 SIGNEXTEND PUSH1 0xFF AND MUL OR SWAP1 SSTORE POP CALLVALUE PUSH1 0x7 PUSH1 0x0 DUP3 DUP3 SLOAD PUSH2 0x7DF SWAP2 SWAP1 PUSH2 0x242E JUMP JUMPDEST SWAP3 POP POP DUP2 SWAP1 SSTORE POP JUMPDEST CALLVALUE PUSH1 0x4 PUSH1 0x0 CALLER PUSH20 0xFFFFFFFFFFFFFFFFFFFFFFFFFFFFFFFFFFFFFFFF AND PUSH20 0xFFFFFFFFFFFFFFFFFFFFFFFFFFFFFFFFFFFFFFFF AND DUP2 MSTORE PUSH1 0x20 ADD SWAP1 DUP2 MSTORE PUSH1 0x20 ADD PUSH1 0x0 KECCAK256 PUSH1 0x0 DUP3 DUP3 SLOAD PUSH2 0x836 SWAP2 SWAP1 PUSH2 0x242E JUMP JUMPDEST SWAP3 POP POP DUP2 SWAP1 SSTORE POP POP JUMP JUMPDEST PUSH1 0x4 PUSH1 0x20 MSTORE DUP1 PUSH1 0x0 MSTORE PUSH1 0x40 PUSH1 0x0 KECCAK256 PUSH1 0x0 SWAP2 POP SWAP1 POP SLOAD DUP2 JUMP JUMPDEST PUSH1 0xA SLOAD DUP2 JUMP JUMPDEST PUSH1 0x1 SLOAD DUP2 JUMP JUMPDEST PUSH1 0x0 PUSH20 0xC39486F770B26F5527BBBF942726537986CD7EB PUSH20 0xFFFFFFFFFFFFFFFFFFFFFFFFFFFFFFFFFFFFFFFF AND DUP3 PUSH20 0xFFFFFFFFFFFFFFFFFFFFFFFFFFFFFFFFFFFFFFFF AND SUB PUSH2 0x8B6 JUMPI PUSH1 0x0 SWAP1 POP PUSH2 0x8F3 JUMP JUMPDEST DUP2 PUSH1 0x40 MLOAD PUSH32 0xEC459BC000000000000000000000000000000000000000000000000000000000 DUP2 MSTORE PUSH1 0x4 ADD PUSH2 0x8EA SWAP2 SWAP1 PUSH2 0x2033 JUMP JUMPDEST PUSH1 0x40 MLOAD DUP1 SWAP2 SUB SWAP1 REVERT JUMPDEST SWAP2 SWAP1 POP JUMP JUMPDEST PUSH1 0x0 PUSH1 0x1 SLOAD EQ PUSH2 0x93D JUMPI PUSH1 0x40 MLOAD PUSH32 0x8C379A000000000000000000000000000000000000000000000000000000000 DUP2 MSTORE PUSH1 0x4 ADD PUSH2 0x934 SWAP1 PUSH2 0x24AE JUMP JUMPDEST PUSH1 0x40 MLOAD DUP1 SWAP2 SUB SWAP1 REVERT JUMPDEST PUSH2 0x945 PUSH2 0xC89 JUMP JUMPDEST PUSH1 0x2 SLOAD EQ PUSH2 0x988 JUMPI PUSH1 0x40 MLOAD PUSH32 0x8C379A000000000000000000000000000000000000000000000000000000000 DUP2 MSTORE PUSH1 0x4 ADD PUSH2 0x97F SWAP1 PUSH2 0x251A JUMP JUMPDEST PUSH1 0x40 MLOAD DUP1 SWAP2 SUB SWAP1 REVERT JUMPDEST PUSH1 0x0 PUSH2 0x995 PUSH1 0x9 SLOAD PUSH2 0x1052 JUMP JUMPDEST SWAP1 POP PUSH1 0xA SLOAD DUP2 LT PUSH2 0x9AC JUMPI PUSH1 0x1 DUP1 DUP2 SWAP1 SSTORE POP PUSH2 0x9D4 JUMP JUMPDEST PUSH32 0xFFFFFFFFFFFFFFFFFFFFFFFFFFFFFFFFFFFFFFFFFFFFFFFFFFFFFFFFFFFFFFFF PUSH1 0x1 DUP2 SWAP1 SSTORE POP JUMPDEST POP JUMP JUMPDEST PUSH1 0x0 PUSH1 0x1 SLOAD SUB PUSH2 0xA1C JUMPI PUSH1 0x40 MLOAD PUSH32 0x8C379A000000000000000000000000000000000000000000000000000000000 DUP2 MSTORE PUSH1 0x4 ADD PUSH2 0xA13 SWAP1 PUSH2 0x2586 JUMP JUMPDEST PUSH1 0x40 MLOAD DUP1 SWAP2 SUB SWAP1 REVERT JUMPDEST PUSH1 0x1 SLOAD PUSH1 0x3 PUSH1 0x0 CALLER PUSH20 0xFFFFFFFFFFFFFFFFFFFFFFFFFFFFFFFFFFFFFFFF AND PUSH20 0xFFFFFFFFFFFFFFFFFFFFFFFFFFFFFFFFFFFFFFFF AND DUP2 MSTORE PUSH1 0x20 ADD SWAP1 DUP2 MSTORE PUSH1 0x20 ADD PUSH1 0x0 KECCAK256 PUSH1 0x0 SWAP1 SLOAD SWAP1 PUSH2 0x100 EXP SWAP1 DIV PUSH1 0x0 SIGNEXTEND PUSH1 0x0 SIGNEXTEND EQ PUSH2 0xAAF JUMPI PUSH1 0x40 MLOAD PUSH32 0x8C379A000000000000000000000000000000000000000000000000000000000 DUP2 MSTORE PUSH1 0x4 ADD PUSH2 0xAA6 SWAP1 PUSH2 0x25F2 JUMP JUMPDEST PUSH1 0x40 MLOAD DUP1 SWAP2 SUB SWAP1 REVERT JUMPDEST PUSH1 0x0 ISZERO ISZERO PUSH1 0x5 PUSH1 0x0 CALLER PUSH20 0xFFFFFFFFFFFFFFFFFFFFFFFFFFFFFFFFFFFFFFFF AND PUSH20 0xFFFFFFFFFFFFFFFFFFFFFFFFFFFFFFFFFFFFFFFF AND DUP2 MSTORE PUSH1 0x20 ADD SWAP1 DUP2 MSTORE PUSH1 0x20 ADD PUSH1 0x0 KECCAK256 PUSH1 0x0 SWAP1 SLOAD SWAP1 PUSH2 0x100 EXP SWAP1 DIV PUSH1 0xFF AND ISZERO ISZERO EQ PUSH2 0xB42 JUMPI PUSH1 0x40 MLOAD PUSH32 0x8C379A000000000000000000000000000000000000000000000000000000000 DUP2 MSTORE PUSH1 0x4 ADD PUSH2 0xB39 SWAP1 PUSH2 0x265E JUMP JUMPDEST PUSH1 0x40 MLOAD DUP1 SWAP2 SUB SWAP1 REVERT JUMPDEST PUSH1 0x0 PUSH1 0x4 PUSH1 0x0 CALLER PUSH20 0xFFFFFFFFFFFFFFFFFFFFFFFFFFFFFFFFFFFFFFFF AND PUSH20 0xFFFFFFFFFFFFFFFFFFFFFFFFFFFFFFFFFFFFFFFF AND DUP2 MSTORE PUSH1 0x20 ADD SWAP1 DUP2 MSTORE PUSH1 0x20 ADD PUSH1 0x0 KECCAK256 SLOAD SWAP1 POP CALLER PUSH20 0xFFFFFFFFFFFFFFFFFFFFFFFFFFFFFFFFFFFFFFFF AND PUSH2 0x8FC PUSH2 0xBA9 DUP4 PUSH2 0xED7 JUMP JUMPDEST SWAP1 DUP2 ISZERO MUL SWAP1 PUSH1 0x40 MLOAD PUSH1 0x0 PUSH1 0x40 MLOAD DUP1 DUP4 SUB DUP2 DUP6 DUP9 DUP9 CALL SWAP4 POP POP POP POP ISZERO DUP1 ISZERO PUSH2 0xBD4 JUMPI RETURNDATASIZE PUSH1 0x0 DUP1 RETURNDATACOPY RETURNDATASIZE PUSH1 0x0 REVERT JUMPDEST POP CALLER PUSH20 0xFFFFFFFFFFFFFFFFFFFFFFFFFFFFFFFFFFFFFFFF AND PUSH2 0x8FC DUP3 SWAP1 DUP2 ISZERO MUL SWAP1 PUSH1 0x40 MLOAD PUSH1 0x0 PUSH1 0x40 MLOAD DUP1 DUP4 SUB DUP2 DUP6 DUP9 DUP9 CALL SWAP4 POP POP POP POP ISZERO DUP1 ISZERO PUSH2 0xC1B JUMPI RETURNDATASIZE PUSH1 0x0 DUP1 RETURNDATACOPY RETURNDATASIZE PUSH1 0x0 REVERT JUMPDEST POP PUSH1 0x1 PUSH1 0x5 PUSH1 0x0 CALLER PUSH20 0xFFFFFFFFFFFFFFFFFFFFFFFFFFFFFFFFFFFFFFFF AND PUSH20 0xFFFFFFFFFFFFFFFFFFFFFFFFFFFFFFFFFFFFFFFF AND DUP2 MSTORE PUSH1 0x20 ADD SWAP1 DUP2 MSTORE PUSH1 0x20 ADD PUSH1 0x0 KECCAK256 PUSH1 0x0 PUSH2 0x100 EXP DUP2 SLOAD DUP2 PUSH1 0xFF MUL NOT AND SWAP1 DUP4 ISZERO ISZERO MUL OR SWAP1 SSTORE POP POP JUMP JUMPDEST PUSH2 0xC7F PUSH2 0x10EE JUMP JUMPDEST DUP1 PUSH1 0x8 DUP2 SWAP1 SSTORE POP POP JUMP JUMPDEST PUSH1 0x0 DUP1 PUSH2 0xC94 PUSH2 0x116C JUMP JUMPDEST SWAP1 POP PUSH1 0x0 PUSH2 0xCA1 DUP3 PUSH2 0x127D JUMP JUMPDEST DUP2 PUSH2 0xFFFF AND SWAP2 POP DUP1 SWAP4 POP DUP2 SWAP3 POP POP POP PUSH1 0x0 DUP2 SUB PUSH2 0xCEA JUMPI PUSH1 0x40 MLOAD PUSH32 0x8552FF3C00000000000000000000000000000000000000000000000000000000 DUP2 MSTORE PUSH1 0x4 ADD PUSH1 0x40 MLOAD DUP1 SWAP2 SUB SWAP1 REVERT JUMPDEST PUSH1 0x0 JUMPDEST DUP2 DUP2 LT ISZERO PUSH2 0xDED JUMPI PUSH1 0x0 PUSH2 0xD00 DUP5 PUSH2 0x12ED JUMP JUMPDEST SWAP1 POP PUSH1 0x0 DUP1 PUSH1 0x68 DUP7 PUSH2 0xD12 SWAP2 SWAP1 PUSH2 0x242E JUMP JUMPDEST SWAP1 POP PUSH1 0x0 DUP2 PUSH1 0x0 CALLDATASIZE SWAP1 POP PUSH2 0xD26 SWAP2 SWAP1 PUSH2 0x267E JUMP JUMPDEST SWAP1 POP DUP1 CALLDATALOAD SWAP3 POP PUSH1 0x0 DUP4 PUSH6 0xFFFFFFFFFFFF AND SUB PUSH2 0xD6E JUMPI PUSH1 0x40 MLOAD PUSH32 0x336DC9D000000000000000000000000000000000000000000000000000000000 DUP2 MSTORE PUSH1 0x4 ADD PUSH1 0x40 MLOAD DUP1 SWAP2 SUB SWAP1 REVERT JUMPDEST PUSH1 0x0 DUP9 SUB PUSH2 0xD86 JUMPI DUP3 PUSH6 0xFFFFFFFFFFFF AND SWAP8 POP PUSH2 0xDC8 JUMP JUMPDEST DUP8 DUP4 PUSH6 0xFFFFFFFFFFFF AND EQ PUSH2 0xDC7 JUMPI PUSH1 0x40 MLOAD PUSH32 0xD9D1F46500000000000000000000000000000000000000000000000000000000 DUP2 MSTORE PUSH1 0x4 ADD PUSH1 0x40 MLOAD DUP1 SWAP2 SUB SWAP1 REVERT JUMPDEST JUMPDEST DUP4 DUP8 PUSH2 0xDD4 SWAP2 SWAP1 PUSH2 0x242E JUMP JUMPDEST SWAP7 POP POP POP POP POP DUP1 DUP1 PUSH2 0xDE5 SWAP1 PUSH2 0x26B2 JUMP JUMPDEST SWAP2 POP POP PUSH2 0xCED JUMP JUMPDEST POP POP POP SWAP1 JUMP JUMPDEST PUSH1 0x6 SLOAD DUP2 JUMP JUMPDEST PUSH2 0xE01 PUSH2 0x10EE JUMP JUMPDEST PUSH2 0xE0B PUSH1 0x0 PUSH2 0x132C JUMP JUMPDEST JUMP JUMPDEST PUSH1 0xB SLOAD DUP2 JUMP JUMPDEST PUSH1 0x3 PUSH1 0x20 MSTORE DUP1 PUSH1 0x0 MSTORE PUSH1 0x40 PUSH1 0x0 KECCAK256 PUSH1 0x0 SWAP2 POP SLOAD SWAP1 PUSH2 0x100 EXP SWAP1 DIV PUSH1 0x0 SIGNEXTEND DUP2 JUMP JUMPDEST PUSH1 0x0 DUP1 PUSH1 0x0 SWAP1 SLOAD SWAP1 PUSH2 0x100 EXP SWAP1 DIV PUSH20 0xFFFFFFFFFFFFFFFFFFFFFFFFFFFFFFFFFFFFFFFF AND SWAP1 POP SWAP1 JUMP JUMPDEST PUSH1 0x8 SLOAD DUP2 JUMP JUMPDEST PUSH1 0x7 SLOAD DUP2 JUMP JUMPDEST PUSH1 0x0 PUSH2 0xE73 DUP3 PUSH2 0x13F0 JUMP JUMPDEST SWAP1 POP SWAP2 SWAP1 POP JUMP JUMPDEST PUSH1 0x60 PUSH1 0x40 MLOAD DUP1 PUSH1 0x40 ADD PUSH1 0x40 MSTORE DUP1 PUSH1 0x12 DUP2 MSTORE PUSH1 0x20 ADD PUSH32 0x72656473746F6E652D6D61696E2D64656D6F0000000000000000000000000000 DUP2 MSTORE POP SWAP1 POP SWAP1 JUMP JUMPDEST PUSH1 0x5 PUSH1 0x20 MSTORE DUP1 PUSH1 0x0 MSTORE PUSH1 0x40 PUSH1 0x0 KECCAK256 PUSH1 0x0 SWAP2 POP SLOAD SWAP1 PUSH2 0x100 EXP SWAP1 DIV PUSH1 0xFF AND DUP2 JUMP JUMPDEST PUSH1 0x0 DUP1 PUSH4 0x5F5E100 SWAP1 POP PUSH1 0x0 PUSH1 0x1 DUP1 SLOAD EQ PUSH2 0xEF4 JUMPI PUSH1 0x7 SLOAD PUSH2 0xEF8 JUMP JUMPDEST PUSH1 0x6 SLOAD JUMPDEST SWAP1 POP DUP1 DUP5 GT ISZERO PUSH2 0xF3D JUMPI PUSH1 0x40 MLOAD PUSH32 0x8C379A000000000000000000000000000000000000000000000000000000000 DUP2 MSTORE PUSH1 0x4 ADD PUSH2 0xF34 SWAP1 PUSH2 0x2746 JUMP JUMPDEST PUSH1 0x40 MLOAD DUP1 SWAP2 SUB SWAP1 REVERT JUMPDEST PUSH1 0x0 PUSH32 0xFFFFFFFFFFFFFFFFFFFFFFFFFFFFFFFFFFFFFFFFFFFFFFFFFFFFFFFFFFFFFFFF PUSH1 0x1 SLOAD EQ PUSH2 0xF70 JUMPI PUSH1 0x6 SLOAD PUSH2 0xF74 JUMP JUMPDEST PUSH1 0x7 SLOAD JUMPDEST SWAP1 POP PUSH1 0x0 DUP3 DUP5 DUP8 PUSH2 0xF85 SWAP2 SWAP1 PUSH2 0x2766 JUMP JUMPDEST PUSH2 0xF8F SWAP2 SWAP1 PUSH2 0x27D7 JUMP JUMPDEST SWAP1 POP DUP4 DUP3 DUP3 PUSH2 0xF9E SWAP2 SWAP1 PUSH2 0x2766 JUMP JUMPDEST PUSH2 0xFA8 SWAP2 SWAP1 PUSH2 0x27D7 JUMP JUMPDEST SWAP5 POP POP POP POP POP SWAP2 SWAP1 POP JUMP JUMPDEST PUSH1 0x0 PUSH1 0x8 SLOAD SWAP1 POP SWAP1 JUMP JUMPDEST PUSH1 0x2 SLOAD DUP2 JUMP JUMPDEST PUSH2 0xFCB PUSH2 0x10EE JUMP JUMPDEST PUSH1 0x0 PUSH20 0xFFFFFFFFFFFFFFFFFFFFFFFFFFFFFFFFFFFFFFFF AND DUP2 PUSH20 0xFFFFFFFFFFFFFFFFFFFFFFFFFFFFFFFFFFFFFFFF AND SUB PUSH2 0x103A JUMPI PUSH1 0x40 MLOAD PUSH32 0x8C379A000000000000000000000000000000000000000000000000000000000 DUP2 MSTORE PUSH1 0x4 ADD PUSH2 0x1031 SWAP1 PUSH2 0x287A JUMP JUMPDEST PUSH1 0x40 MLOAD DUP1 SWAP2 SUB SWAP1 REVERT JUMPDEST PUSH2 0x1043 DUP2 PUSH2 0x132C JUMP JUMPDEST POP JUMP JUMPDEST POP JUMP JUMPDEST PUSH1 0x0 PUSH1 0x1 SWAP1 POP SWAP1 JUMP JUMPDEST PUSH1 0x0 DUP1 PUSH1 0x1 PUSH8 0xFFFFFFFFFFFFFFFF DUP2 GT ISZERO PUSH2 0x1070 JUMPI PUSH2 0x106F PUSH2 0x2064 JUMP JUMPDEST JUMPDEST PUSH1 0x40 MLOAD SWAP1 DUP1 DUP3 MSTORE DUP1 PUSH1 0x20 MUL PUSH1 0x20 ADD DUP3 ADD PUSH1 0x40 MSTORE DUP1 ISZERO PUSH2 0x109E JUMPI DUP2 PUSH1 0x20 ADD PUSH1 0x20 DUP3 MUL DUP1 CALLDATASIZE DUP4 CALLDATACOPY DUP1 DUP3 ADD SWAP2 POP POP SWAP1 POP JUMPDEST POP SWAP1 POP DUP3 DUP2 PUSH1 0x0 DUP2 MLOAD DUP2 LT PUSH2 0x10B6 JUMPI PUSH2 0x10B5 PUSH2 0x289A JUMP JUMPDEST JUMPDEST PUSH1 0x20 MUL PUSH1 0x20 ADD ADD DUP2 DUP2 MSTORE POP POP PUSH2 0x10CB DUP2 PUSH2 0x1402 JUMP JUMPDEST PUSH1 0x0 DUP2 MLOAD DUP2 LT PUSH2 0x10DE JUMPI PUSH2 0x10DD PUSH2 0x289A JUMP JUMPDEST JUMPDEST PUSH1 0x20 MUL PUSH1 0x20 ADD ADD MLOAD SWAP2 POP POP SWAP2 SWAP1 POP JUMP JUMPDEST PUSH2 0x10F6 PUSH2 0x1427 JUMP JUMPDEST PUSH20 0xFFFFFFFFFFFFFFFFFFFFFFFFFFFFFFFFFFFFFFFF AND PUSH2 0x1114 PUSH2 0xE33 JUMP JUMPDEST PUSH20 0xFFFFFFFFFFFFFFFFFFFFFFFFFFFFFFFFFFFFFFFF AND EQ PUSH2 0x116A JUMPI PUSH1 0x40 MLOAD PUSH32 0x8C379A000000000000000000000000000000000000000000000000000000000 DUP2 MSTORE PUSH1 0x4 ADD PUSH2 0x1161 SWAP1 PUSH2 0x2915 JUMP JUMPDEST PUSH1 0x40 MLOAD DUP1 SWAP2 SUB SWAP1 REVERT JUMPDEST JUMP JUMPDEST PUSH1 0x0 DUP1 PUSH1 0x20 CALLDATASIZE SUB CALLDATALOAD PUSH7 0x2ED57011E0000 DUP2 AND PUSH7 0x2ED57011E0000 EQ SWAP2 POP POP DUP1 PUSH2 0x11C1 JUMPI PUSH1 0x40 MLOAD PUSH32 0xE7764C9E00000000000000000000000000000000000000000000000000000000 DUP2 MSTORE PUSH1 0x4 ADD PUSH1 0x40 MLOAD DUP1 SWAP2 SUB SWAP1 REVERT JUMPDEST PUSH1 0x0 DUP1 CALLDATASIZE SWAP1 POP PUSH1 0x29 GT ISZERO PUSH2 0x1201 JUMPI PUSH1 0x40 MLOAD PUSH32 0x5796F78A00000000000000000000000000000000000000000000000000000000 DUP2 MSTORE PUSH1 0x4 ADD PUSH1 0x40 MLOAD DUP1 SWAP2 SUB SWAP1 REVERT JUMPDEST PUSH1 0x29 CALLDATASIZE SUB CALLDATALOAD SWAP1 POP PUSH1 0x0 PUSH1 0x9 PUSH1 0x3 DUP4 PUSH3 0xFFFFFF AND PUSH2 0x121E SWAP2 SWAP1 PUSH2 0x242E JUMP JUMPDEST PUSH2 0x1228 SWAP2 SWAP1 PUSH2 0x242E JUMP JUMPDEST SWAP1 POP PUSH1 0x0 CALLDATASIZE SWAP1 POP PUSH1 0x2 DUP3 PUSH2 0x123C SWAP2 SWAP1 PUSH2 0x242E JUMP JUMPDEST GT ISZERO PUSH2 0x1274 JUMPI PUSH1 0x40 MLOAD PUSH32 0xC30A7BD700000000000000000000000000000000000000000000000000000000 DUP2 MSTORE PUSH1 0x4 ADD PUSH1 0x40 MLOAD DUP1 SWAP2 SUB SWAP1 REVERT JUMPDEST DUP1 SWAP4 POP POP POP POP SWAP1 JUMP JUMPDEST PUSH1 0x0 DUP1 PUSH1 0x0 PUSH1 0x20 DUP5 PUSH2 0x128F SWAP2 SWAP1 PUSH2 0x242E JUMP JUMPDEST SWAP1 POP PUSH1 0x0 CALLDATASIZE SWAP1 POP DUP2 GT ISZERO PUSH2 0x12CF JUMPI PUSH1 0x40 MLOAD PUSH32 0x5796F78A00000000000000000000000000000000000000000000000000000000 DUP2 MSTORE PUSH1 0x4 ADD PUSH1 0x40 MLOAD DUP1 SWAP2 SUB SWAP1 REVERT JUMPDEST DUP1 CALLDATASIZE SUB CALLDATALOAD SWAP3 POP DUP3 PUSH1 0x2 DUP6 PUSH2 0x12E3 SWAP2 SWAP1 PUSH2 0x242E JUMP JUMPDEST SWAP3 POP SWAP3 POP POP SWAP2 POP SWAP2 JUMP JUMPDEST PUSH1 0x0 DUP1 PUSH1 0x0 PUSH2 0x12FB DUP5 PUSH2 0x142F JUMP JUMPDEST SWAP2 POP SWAP2 POP PUSH1 0x4E DUP2 PUSH1 0x20 PUSH2 0x130E SWAP2 SWAP1 PUSH2 0x242E JUMP JUMPDEST DUP4 PUSH2 0x1319 SWAP2 SWAP1 PUSH2 0x2766 JUMP JUMPDEST PUSH2 0x1323 SWAP2 SWAP1 PUSH2 0x242E JUMP JUMPDEST SWAP3 POP POP POP SWAP2 SWAP1 POP JUMP JUMPDEST PUSH1 0x0 DUP1 PUSH1 0x0 SWAP1 SLOAD SWAP1 PUSH2 0x100 EXP SWAP1 DIV PUSH20 0xFFFFFFFFFFFFFFFFFFFFFFFFFFFFFFFFFFFFFFFF AND SWAP1 POP DUP2 PUSH1 0x0 DUP1 PUSH2 0x100 EXP DUP2 SLOAD DUP2 PUSH20 0xFFFFFFFFFFFFFFFFFFFFFFFFFFFFFFFFFFFFFFFF MUL NOT AND SWAP1 DUP4 PUSH20 0xFFFFFFFFFFFFFFFFFFFFFFFFFFFFFFFFFFFFFFFF AND MUL OR SWAP1 SSTORE POP DUP2 PUSH20 0xFFFFFFFFFFFFFFFFFFFFFFFFFFFFFFFFFFFFFFFF AND DUP2 PUSH20 0xFFFFFFFFFFFFFFFFFFFFFFFFFFFFFFFFFFFFFFFF AND PUSH32 0x8BE0079C531659141344CD1FD0A4F28419497F9722A3DAAFE3B4186F6B6457E0 PUSH1 0x40 MLOAD PUSH1 0x40 MLOAD DUP1 SWAP2 SUB SWAP1 LOG3 POP POP JUMP JUMPDEST PUSH1 0x0 PUSH2 0x13FB DUP3 PUSH2 0x1491 JUMP JUMPDEST SWAP1 POP SWAP2 SWAP1 POP JUMP JUMPDEST PUSH1 0x60 PUSH1 0x0 DUP1 PUSH2 0x1410 DUP5 PUSH2 0x15E6 JUMP JUMPDEST SWAP2 POP SWAP2 POP PUSH2 0x141D DUP2 PUSH2 0x1046 JUMP JUMPDEST DUP2 SWAP3 POP POP POP SWAP2 SWAP1 POP JUMP JUMPDEST PUSH1 0x0 CALLER SWAP1 POP SWAP1 JUMP JUMPDEST PUSH1 0x0 DUP1 PUSH1 0x0 DUP1 PUSH1 0x0 PUSH1 0x20 PUSH1 0x41 DUP8 PUSH2 0x1446 SWAP2 SWAP1 PUSH2 0x242E JUMP JUMPDEST PUSH2 0x1450 SWAP2 SWAP1 PUSH2 0x242E JUMP JUMPDEST PUSH1 0x0 CALLDATASIZE SWAP1 POP PUSH2 0x145F SWAP2 SWAP1 PUSH2 0x267E JUMP JUMPDEST SWAP1 POP DUP1 CALLDATALOAD SWAP3 POP PUSH1 0x3 DUP2 PUSH2 0x1472 SWAP2 SWAP1 PUSH2 0x267E JUMP JUMPDEST SWAP1 POP DUP1 CALLDATALOAD SWAP2 POP DUP3 PUSH3 0xFFFFFF AND SWAP5 POP DUP2 PUSH4 0xFFFFFFFF AND SWAP4 POP POP POP POP SWAP2 POP SWAP2 JUMP JUMPDEST PUSH1 0x0 PUSH1 0x2 DUP3 MLOAD SUB PUSH2 0x14F1 JUMPI PUSH1 0x2 DUP3 PUSH1 0x1 DUP2 MLOAD DUP2 LT PUSH2 0x14B2 JUMPI PUSH2 0x14B1 PUSH2 0x289A JUMP JUMPDEST JUMPDEST PUSH1 0x20 MUL PUSH1 0x20 ADD ADD MLOAD DUP4 PUSH1 0x0 DUP2 MLOAD DUP2 LT PUSH2 0x14CE JUMPI PUSH2 0x14CD PUSH2 0x289A JUMP JUMPDEST JUMPDEST PUSH1 0x20 MUL PUSH1 0x20 ADD ADD MLOAD PUSH2 0x14E0 SWAP2 SWAP1 PUSH2 0x242E JUMP JUMPDEST PUSH2 0x14EA SWAP2 SWAP1 PUSH2 0x27D7 JUMP JUMPDEST SWAP1 POP PUSH2 0x15E1 JUMP JUMPDEST PUSH1 0x0 DUP3 MLOAD SUB PUSH2 0x152C JUMPI PUSH1 0x40 MLOAD PUSH32 0x9E198AF900000000000000000000000000000000000000000000000000000000 DUP2 MSTORE PUSH1 0x4 ADD PUSH1 0x40 MLOAD DUP1 SWAP2 SUB SWAP1 REVERT JUMPDEST PUSH2 0x1535 DUP3 PUSH2 0x1861 JUMP JUMPDEST PUSH1 0x0 PUSH1 0x2 DUP4 MLOAD PUSH2 0x1545 SWAP2 SWAP1 PUSH2 0x27D7 JUMP JUMPDEST SWAP1 POP PUSH1 0x0 PUSH1 0x2 DUP5 MLOAD PUSH2 0x1557 SWAP2 SWAP1 PUSH2 0x2935 JUMP JUMPDEST SUB PUSH2 0x15C2 JUMPI PUSH1 0x0 DUP4 DUP3 DUP2 MLOAD DUP2 LT PUSH2 0x1571 JUMPI PUSH2 0x1570 PUSH2 0x289A JUMP JUMPDEST JUMPDEST PUSH1 0x20 MUL PUSH1 0x20 ADD ADD MLOAD DUP5 PUSH1 0x1 DUP5 PUSH2 0x1587 SWAP2 SWAP1 PUSH2 0x267E JUMP JUMPDEST DUP2 MLOAD DUP2 LT PUSH2 0x1598 JUMPI PUSH2 0x1597 PUSH2 0x289A JUMP JUMPDEST JUMPDEST PUSH1 0x20 MUL PUSH1 0x20 ADD ADD MLOAD PUSH2 0x15AA SWAP2 SWAP1 PUSH2 0x242E JUMP JUMPDEST SWAP1 POP PUSH1 0x2 DUP2 PUSH2 0x15B9 SWAP2 SWAP1 PUSH2 0x27D7 JUMP JUMPDEST SWAP3 POP POP POP PUSH2 0x15E1 JUMP JUMPDEST DUP3 DUP2 DUP2 MLOAD DUP2 LT PUSH2 0x15D5 JUMPI PUSH2 0x15D4 PUSH2 0x289A JUMP JUMPDEST JUMPDEST PUSH1 0x20 MUL PUSH1 0x20 ADD ADD MLOAD SWAP2 POP POP JUMPDEST SWAP2 SWAP1 POP JUMP JUMPDEST PUSH1 0x60 PUSH1 0x0 DUP1 DUP4 MLOAD PUSH8 0xFFFFFFFFFFFFFFFF DUP2 GT ISZERO PUSH2 0x1606 JUMPI PUSH2 0x1605 PUSH2 0x2064 JUMP JUMPDEST JUMPDEST PUSH1 0x40 MLOAD SWAP1 DUP1 DUP3 MSTORE DUP1 PUSH1 0x20 MUL PUSH1 0x20 ADD DUP3 ADD PUSH1 0x40 MSTORE DUP1 ISZERO PUSH2 0x1634 JUMPI DUP2 PUSH1 0x20 ADD PUSH1 0x20 DUP3 MUL DUP1 CALLDATASIZE DUP4 CALLDATACOPY DUP1 DUP3 ADD SWAP2 POP POP SWAP1 POP JUMPDEST POP SWAP1 POP PUSH1 0x0 DUP5 MLOAD PUSH8 0xFFFFFFFFFFFFFFFF DUP2 GT ISZERO PUSH2 0x1654 JUMPI PUSH2 0x1653 PUSH2 0x2064 JUMP JUMPDEST JUMPDEST PUSH1 0x40 MLOAD SWAP1 DUP1 DUP3 MSTORE DUP1 PUSH1 0x20 MUL PUSH1 0x20 ADD DUP3 ADD PUSH1 0x40 MSTORE DUP1 ISZERO PUSH2 0x1682 JUMPI DUP2 PUSH1 0x20 ADD PUSH1 0x20 DUP3 MUL DUP1 CALLDATASIZE DUP4 CALLDATACOPY DUP1 DUP3 ADD SWAP2 POP POP SWAP1 POP JUMPDEST POP SWAP1 POP PUSH1 0x0 DUP6 MLOAD PUSH8 0xFFFFFFFFFFFFFFFF DUP2 GT ISZERO PUSH2 0x16A2 JUMPI PUSH2 0x16A1 PUSH2 0x2064 JUMP JUMPDEST JUMPDEST PUSH1 0x40 MLOAD SWAP1 DUP1 DUP3 MSTORE DUP1 PUSH1 0x20 MUL PUSH1 0x20 ADD DUP3 ADD PUSH1 0x40 MSTORE DUP1 ISZERO PUSH2 0x16D5 JUMPI DUP2 PUSH1 0x20 ADD JUMPDEST PUSH1 0x60 DUP2 MSTORE PUSH1 0x20 ADD SWAP1 PUSH1 0x1 SWAP1 SUB SWAP1 DUP2 PUSH2 0x16C0 JUMPI SWAP1 POP JUMPDEST POP SWAP1 POP PUSH1 0x0 JUMPDEST DUP7 MLOAD DUP2 LT ISZERO PUSH2 0x1762 JUMPI PUSH2 0x16EC PUSH2 0x1049 JUMP JUMPDEST PUSH1 0xFF AND PUSH8 0xFFFFFFFFFFFFFFFF DUP2 GT ISZERO PUSH2 0x1708 JUMPI PUSH2 0x1707 PUSH2 0x2064 JUMP JUMPDEST JUMPDEST PUSH1 0x40 MLOAD SWAP1 DUP1 DUP3 MSTORE DUP1 PUSH1 0x20 MUL PUSH1 0x20 ADD DUP3 ADD PUSH1 0x40 MSTORE DUP1 ISZERO PUSH2 0x1736 JUMPI DUP2 PUSH1 0x20 ADD PUSH1 0x20 DUP3 MUL DUP1 CALLDATASIZE DUP4 CALLDATACOPY DUP1 DUP3 ADD SWAP2 POP POP SWAP1 POP JUMPDEST POP DUP3 DUP3 DUP2 MLOAD DUP2 LT PUSH2 0x174A JUMPI PUSH2 0x1749 PUSH2 0x289A JUMP JUMPDEST JUMPDEST PUSH1 0x20 MUL PUSH1 0x20 ADD ADD DUP2 SWAP1 MSTORE POP DUP1 DUP1 PUSH1 0x1 ADD SWAP2 POP POP PUSH2 0x16DB JUMP JUMPDEST POP PUSH1 0x0 PUSH2 0x176D PUSH2 0x116C JUMP JUMPDEST SWAP1 POP PUSH1 0x0 PUSH2 0x177A DUP3 PUSH2 0x127D JUMP JUMPDEST DUP2 PUSH2 0xFFFF AND SWAP2 POP DUP1 SWAP4 POP DUP2 SWAP3 POP POP POP PUSH1 0x0 PUSH1 0x40 MLOAD SWAP1 POP PUSH1 0x0 JUMPDEST DUP3 DUP2 LT ISZERO PUSH2 0x1849 JUMPI PUSH1 0x0 PUSH2 0x17AA DUP12 DUP10 DUP10 DUP10 DUP10 PUSH2 0x18B4 JUMP JUMPDEST DUP1 SWAP3 POP DUP2 SWAP7 POP POP POP PUSH1 0x0 DUP2 SUB PUSH2 0x17EC JUMPI PUSH1 0x40 MLOAD PUSH32 0xDFB25A7900000000000000000000000000000000000000000000000000000000 DUP2 MSTORE PUSH1 0x4 ADD PUSH1 0x40 MLOAD DUP1 SWAP2 SUB SWAP1 REVERT JUMPDEST DUP9 DUP2 EQ ISZERO DUP1 ISZERO PUSH2 0x17FD JUMPI POP PUSH1 0x0 DUP10 EQ ISZERO JUMPDEST ISZERO PUSH2 0x1834 JUMPI PUSH1 0x40 MLOAD PUSH32 0x4CBC474200000000000000000000000000000000000000000000000000000000 DUP2 MSTORE PUSH1 0x4 ADD PUSH1 0x40 MLOAD DUP1 SWAP2 SUB SWAP1 REVERT JUMPDEST DUP1 SWAP9 POP DUP3 PUSH1 0x40 MSTORE DUP2 DUP1 PUSH1 0x1 ADD SWAP3 POP POP POP PUSH2 0x1793 JUMP JUMPDEST POP PUSH2 0x1854 DUP5 DUP8 PUSH2 0x1B80 JUMP JUMPDEST SWAP8 POP POP POP POP POP POP POP SWAP2 POP SWAP2 JUMP JUMPDEST DUP1 MLOAD PUSH1 0x20 DUP3 ADD PUSH1 0x20 DUP3 MUL DUP2 ADD DUP2 JUMPDEST DUP2 DUP2 LT ISZERO PUSH2 0x18AD JUMPI DUP3 JUMPDEST DUP2 DUP2 LT ISZERO PUSH2 0x18A1 JUMPI DUP2 MLOAD DUP2 MLOAD DUP1 DUP3 LT ISZERO PUSH2 0x1894 JUMPI DUP1 DUP5 MSTORE DUP2 DUP4 MSTORE JUMPDEST POP POP PUSH1 0x20 DUP2 ADD SWAP1 POP PUSH2 0x1879 JUMP JUMPDEST POP PUSH1 0x20 DUP2 ADD SWAP1 POP PUSH2 0x186F JUMP JUMPDEST POP POP POP POP POP JUMP JUMPDEST PUSH1 0x0 DUP1 PUSH1 0x0 DUP1 PUSH1 0x0 PUSH2 0x18C5 DUP7 PUSH2 0x142F JUMP JUMPDEST SWAP2 POP SWAP2 POP PUSH1 0x0 DUP1 PUSH1 0x60 PUSH1 0x0 DUP1 PUSH1 0xD PUSH1 0x20 DUP8 PUSH2 0x18E0 SWAP2 SWAP1 PUSH2 0x242E JUMP JUMPDEST DUP9 PUSH2 0x18EB SWAP2 SWAP1 PUSH2 0x2766 JUMP JUMPDEST PUSH2 0x18F5 SWAP2 SWAP1 PUSH2 0x242E JUMP JUMPDEST SWAP2 POP PUSH1 0x0 PUSH1 0x68 DUP13 PUSH2 0x1906 SWAP2 SWAP1 PUSH2 0x242E JUMP JUMPDEST PUSH1 0x0 CALLDATASIZE SWAP1 POP PUSH2 0x1915 SWAP2 SWAP1 PUSH2 0x267E JUMP JUMPDEST SWAP1 POP PUSH1 0x0 DUP4 PUSH1 0x41 DUP15 PUSH2 0x1927 SWAP2 SWAP1 PUSH2 0x242E JUMP JUMPDEST PUSH2 0x1931 SWAP2 SWAP1 PUSH2 0x242E JUMP JUMPDEST PUSH1 0x0 CALLDATASIZE SWAP1 POP PUSH2 0x1940 SWAP2 SWAP1 PUSH2 0x267E JUMP JUMPDEST SWAP1 POP PUSH2 0x194C DUP5 DUP3 PUSH2 0x197A JUMP JUMPDEST SWAP5 POP DUP4 PUSH1 0x20 DUP7 ADD KECCAK256 SWAP6 POP DUP2 CALLDATALOAD SWAP3 POP PUSH2 0x1996 JUMP JUMPDEST PUSH1 0x0 PUSH1 0x40 MLOAD SWAP1 POP DUP2 DUP2 MSTORE PUSH1 0x20 DUP2 ADD SWAP1 POP DUP2 DUP2 ADD PUSH1 0x40 MSTORE SWAP2 SWAP1 POP JUMP JUMPDEST PUSH1 0x0 PUSH2 0x1985 DUP4 PUSH2 0x195F JUMP JUMPDEST DUP4 DUP4 DUP3 CALLDATACOPY PUSH1 0x20 DUP2 SUB SWAP2 POP POP SWAP3 SWAP2 POP POP JUMP JUMPDEST DUP3 PUSH6 0xFFFFFFFFFFFF AND SWAP11 POP PUSH2 0x19B7 DUP7 PUSH1 0x41 DUP16 PUSH2 0x19B2 SWAP2 SWAP1 PUSH2 0x242E JUMP JUMPDEST PUSH2 0x1CCD JUMP JUMPDEST SWAP7 POP PUSH2 0x19C2 DUP8 PUSH2 0x864 JUMP JUMPDEST PUSH1 0xFF AND SWAP10 POP POP POP POP POP POP POP POP PUSH1 0x4E DUP7 PUSH2 0x19DB SWAP2 SWAP1 PUSH2 0x242E JUMP JUMPDEST SWAP6 POP PUSH1 0x0 DUP1 PUSH1 0x0 JUMPDEST DUP5 DUP2 LT ISZERO PUSH2 0x1B6D JUMPI PUSH1 0x20 DUP5 DUP11 PUSH2 0x19F9 SWAP2 SWAP1 PUSH2 0x242E JUMP JUMPDEST PUSH2 0x1A03 SWAP2 SWAP1 PUSH2 0x242E JUMP JUMPDEST SWAP9 POP PUSH2 0x1A0F DUP10 DUP6 PUSH2 0x1D4C JUMP JUMPDEST DUP1 SWAP4 POP DUP2 SWAP5 POP POP POP PUSH1 0x0 JUMPDEST DUP14 MLOAD DUP2 LT ISZERO PUSH2 0x1B5F JUMPI DUP14 DUP2 DUP2 MLOAD DUP2 LT PUSH2 0x1A36 JUMPI PUSH2 0x1A35 PUSH2 0x289A JUMP JUMPDEST JUMPDEST PUSH1 0x20 MUL PUSH1 0x20 ADD ADD MLOAD DUP5 SUB PUSH2 0x1B52 JUMPI PUSH1 0x0 DUP13 DUP3 DUP2 MLOAD DUP2 LT PUSH2 0x1A59 JUMPI PUSH2 0x1A58 PUSH2 0x289A JUMP JUMPDEST JUMPDEST PUSH1 0x20 MUL PUSH1 0x20 ADD ADD MLOAD SWAP1 POP PUSH2 0x1A6D DUP2 DUP10 PUSH2 0x1DC7 JUMP JUMPDEST ISZERO DUP1 ISZERO PUSH2 0x1A9D JUMPI POP PUSH2 0x1A7D PUSH2 0x1049 JUMP JUMPDEST PUSH1 0xFF AND DUP15 DUP4 DUP2 MLOAD DUP2 LT PUSH2 0x1A93 JUMPI PUSH2 0x1A92 PUSH2 0x289A JUMP JUMPDEST JUMPDEST PUSH1 0x20 MUL PUSH1 0x20 ADD ADD MLOAD LT JUMPDEST ISZERO PUSH2 0x1B4C JUMPI DUP4 DUP13 DUP4 DUP2 MLOAD DUP2 LT PUSH2 0x1AB6 JUMPI PUSH2 0x1AB5 PUSH2 0x289A JUMP JUMPDEST JUMPDEST PUSH1 0x20 MUL PUSH1 0x20 ADD ADD MLOAD DUP16 DUP5 DUP2 MLOAD DUP2 LT PUSH2 0x1AD1 JUMPI PUSH2 0x1AD0 PUSH2 0x289A JUMP JUMPDEST JUMPDEST PUSH1 0x20 MUL PUSH1 0x20 ADD ADD MLOAD DUP2 MLOAD DUP2 LT PUSH2 0x1AEA JUMPI PUSH2 0x1AE9 PUSH2 0x289A JUMP JUMPDEST JUMPDEST PUSH1 0x20 MUL PUSH1 0x20 ADD ADD DUP2 DUP2 MSTORE POP POP DUP14 DUP3 DUP2 MLOAD DUP2 LT PUSH2 0x1B09 JUMPI PUSH2 0x1B08 PUSH2 0x289A JUMP JUMPDEST JUMPDEST PUSH1 0x20 MUL PUSH1 0x20 ADD ADD DUP1 MLOAD DUP1 SWAP2 SWAP1 PUSH2 0x1B1E SWAP1 PUSH2 0x26B2 JUMP JUMPDEST DUP2 MSTORE POP POP PUSH2 0x1B2C DUP2 DUP10 PUSH2 0x1DE0 JUMP JUMPDEST DUP14 DUP4 DUP2 MLOAD DUP2 LT PUSH2 0x1B3F JUMPI PUSH2 0x1B3E PUSH2 0x289A JUMP JUMPDEST JUMPDEST PUSH1 0x20 MUL PUSH1 0x20 ADD ADD DUP2 DUP2 MSTORE POP POP JUMPDEST POP PUSH2 0x1B5F JUMP JUMPDEST DUP1 DUP1 PUSH1 0x1 ADD SWAP2 POP POP PUSH2 0x1A1A JUMP JUMPDEST POP DUP1 DUP1 PUSH1 0x1 ADD SWAP2 POP POP PUSH2 0x19E3 JUMP JUMPDEST POP POP POP DUP6 SWAP5 POP POP POP POP SWAP6 POP SWAP6 SWAP4 POP POP POP POP JUMP JUMPDEST PUSH1 0x60 PUSH1 0x0 DUP4 MLOAD PUSH8 0xFFFFFFFFFFFFFFFF DUP2 GT ISZERO PUSH2 0x1B9F JUMPI PUSH2 0x1B9E PUSH2 0x2064 JUMP JUMPDEST JUMPDEST PUSH1 0x40 MLOAD SWAP1 DUP1 DUP3 MSTORE DUP1 PUSH1 0x20 MUL PUSH1 0x20 ADD DUP3 ADD PUSH1 0x40 MSTORE DUP1 ISZERO PUSH2 0x1BCD JUMPI DUP2 PUSH1 0x20 ADD PUSH1 0x20 DUP3 MUL DUP1 CALLDATASIZE DUP4 CALLDATACOPY DUP1 DUP3 ADD SWAP2 POP POP SWAP1 POP JUMPDEST POP SWAP1 POP PUSH1 0x0 PUSH2 0x1BDA PUSH2 0x1049 JUMP JUMPDEST PUSH1 0xFF AND SWAP1 POP PUSH1 0x0 JUMPDEST DUP6 MLOAD DUP2 LT ISZERO PUSH2 0x1CC1 JUMPI DUP2 DUP6 DUP3 DUP2 MLOAD DUP2 LT PUSH2 0x1BFF JUMPI PUSH2 0x1BFE PUSH2 0x289A JUMP JUMPDEST JUMPDEST PUSH1 0x20 MUL PUSH1 0x20 ADD ADD MLOAD LT ISZERO PUSH2 0x1C66 JUMPI DUP5 DUP2 DUP2 MLOAD DUP2 LT PUSH2 0x1C20 JUMPI PUSH2 0x1C1F PUSH2 0x289A JUMP JUMPDEST JUMPDEST PUSH1 0x20 MUL PUSH1 0x20 ADD ADD MLOAD DUP3 PUSH1 0x40 MLOAD PUSH32 0x2B13AEF500000000000000000000000000000000000000000000000000000000 DUP2 MSTORE PUSH1 0x4 ADD PUSH2 0x1C5D SWAP3 SWAP2 SWAP1 PUSH2 0x2966 JUMP JUMPDEST PUSH1 0x40 MLOAD DUP1 SWAP2 SUB SWAP1 REVERT JUMPDEST PUSH1 0x0 PUSH2 0x1C8B DUP8 DUP4 DUP2 MLOAD DUP2 LT PUSH2 0x1C7E JUMPI PUSH2 0x1C7D PUSH2 0x289A JUMP JUMPDEST JUMPDEST PUSH1 0x20 MUL PUSH1 0x20 ADD ADD MLOAD PUSH2 0xE68 JUMP JUMPDEST SWAP1 POP DUP1 DUP5 DUP4 DUP2 MLOAD DUP2 LT PUSH2 0x1CA1 JUMPI PUSH2 0x1CA0 PUSH2 0x289A JUMP JUMPDEST JUMPDEST PUSH1 0x20 MUL PUSH1 0x20 ADD ADD DUP2 DUP2 MSTORE POP POP POP DUP1 DUP1 PUSH2 0x1CB9 SWAP1 PUSH2 0x26B2 JUMP JUMPDEST SWAP2 POP POP PUSH2 0x1BE2 JUMP JUMPDEST POP DUP2 SWAP3 POP POP POP SWAP3 SWAP2 POP POP JUMP JUMPDEST PUSH1 0x0 DUP1 PUSH1 0x0 DUP1 DUP5 CALLDATASIZE SUB DUP1 CALLDATALOAD SWAP4 POP PUSH1 0x20 DUP2 ADD SWAP1 POP DUP1 CALLDATALOAD SWAP3 POP PUSH1 0x20 DUP2 ADD SWAP1 POP DUP1 CALLDATALOAD PUSH1 0x0 BYTE SWAP2 POP POP PUSH1 0x1 DUP7 DUP3 DUP6 DUP6 PUSH1 0x40 MLOAD PUSH1 0x0 DUP2 MSTORE PUSH1 0x20 ADD PUSH1 0x40 MSTORE PUSH1 0x40 MLOAD PUSH2 0x1D15 SWAP5 SWAP4 SWAP3 SWAP2 SWAP1 PUSH2 0x29A8 JUMP JUMPDEST PUSH1 0x20 PUSH1 0x40 MLOAD PUSH1 0x20 DUP2 SUB SWAP1 DUP1 DUP5 SUB SWAP1 DUP6 GAS STATICCALL ISZERO DUP1 ISZERO PUSH2 0x1D37 JUMPI RETURNDATASIZE PUSH1 0x0 DUP1 RETURNDATACOPY RETURNDATASIZE PUSH1 0x0 REVERT JUMPDEST POP POP POP PUSH1 0x20 PUSH1 0x40 MLOAD SUB MLOAD SWAP4 POP POP POP POP SWAP3 SWAP2 POP POP JUMP JUMPDEST PUSH1 0x0 DUP1 PUSH1 0x0 DUP5 PUSH1 0x0 CALLDATASIZE SWAP1 POP PUSH2 0x1D61 SWAP2 SWAP1 PUSH2 0x267E JUMP JUMPDEST SWAP1 POP DUP1 CALLDATALOAD SWAP3 POP PUSH1 0x20 DUP2 ADD CALLDATALOAD SWAP2 POP PUSH1 0x21 DUP5 LT PUSH2 0x1DB3 JUMPI DUP4 PUSH1 0x40 MLOAD PUSH32 0xC000FC4200000000000000000000000000000000000000000000000000000000 DUP2 MSTORE PUSH1 0x4 ADD PUSH2 0x1DAA SWAP2 SWAP1 PUSH2 0x1F0E JUMP JUMPDEST PUSH1 0x40 MLOAD DUP1 SWAP2 SUB SWAP1 REVERT JUMPDEST PUSH1 0x8 DUP5 PUSH1 0x20 SUB MUL DUP3 SWAP1 SHR SWAP2 POP POP SWAP3 POP SWAP3 SWAP1 POP JUMP JUMPDEST PUSH1 0x0 DUP1 DUP3 PUSH1 0x1 SWAP1 SHL DUP5 AND SWAP1 POP PUSH1 0x0 DUP2 GT SWAP2 POP POP SWAP3 SWAP2 POP POP JUMP JUMPDEST PUSH1 0x0 DUP2 PUSH1 0x1 SWAP1 SHL DUP4 OR SWAP1 POP SWAP3 SWAP2 POP POP JUMP JUMPDEST PUSH1 0x0 PUSH1 0x40 MLOAD SWAP1 POP SWAP1 JUMP JUMPDEST PUSH1 0x0 DUP1 REVERT JUMPDEST PUSH1 0x0 DUP1 REVERT JUMPDEST PUSH1 0x0 DUP2 ISZERO ISZERO SWAP1 POP SWAP2 SWAP1 POP JUMP JUMPDEST PUSH2 0x1E1A DUP2 PUSH2 0x1E05 JUMP JUMPDEST DUP2 EQ PUSH2 0x1E25 JUMPI PUSH1 0x0 DUP1 REVERT JUMPDEST POP JUMP JUMPDEST PUSH1 0x0 DUP2 CALLDATALOAD SWAP1 POP PUSH2 0x1E37 DUP2 PUSH2 0x1E11 JUMP JUMPDEST SWAP3 SWAP2 POP POP JUMP JUMPDEST PUSH1 0x0 PUSH1 0x20 DUP3 DUP5 SUB SLT ISZERO PUSH2 0x1E53 JUMPI PUSH2 0x1E52 PUSH2 0x1DFB JUMP JUMPDEST JUMPDEST PUSH1 0x0 PUSH2 0x1E61 DUP5 DUP3 DUP6 ADD PUSH2 0x1E28 JUMP JUMPDEST SWAP2 POP POP SWAP3 SWAP2 POP POP JUMP JUMPDEST PUSH1 0x0 PUSH20 0xFFFFFFFFFFFFFFFFFFFFFFFFFFFFFFFFFFFFFFFF DUP3 AND SWAP1 POP SWAP2 SWAP1 POP JUMP JUMPDEST PUSH1 0x0 PUSH2 0x1E95 DUP3 PUSH2 0x1E6A JUMP JUMPDEST SWAP1 POP SWAP2 SWAP1 POP JUMP JUMPDEST PUSH2 0x1EA5 DUP2 PUSH2 0x1E8A JUMP JUMPDEST DUP2 EQ PUSH2 0x1EB0 JUMPI PUSH1 0x0 DUP1 REVERT JUMPDEST POP JUMP JUMPDEST PUSH1 0x0 DUP2 CALLDATALOAD SWAP1 POP PUSH2 0x1EC2 DUP2 PUSH2 0x1E9C JUMP JUMPDEST SWAP3 SWAP2 POP POP JUMP JUMPDEST PUSH1 0x0 PUSH1 0x20 DUP3 DUP5 SUB SLT ISZERO PUSH2 0x1EDE JUMPI PUSH2 0x1EDD PUSH2 0x1DFB JUMP JUMPDEST JUMPDEST PUSH1 0x0 PUSH2 0x1EEC DUP5 DUP3 DUP6 ADD PUSH2 0x1EB3 JUMP JUMPDEST SWAP2 POP POP SWAP3 SWAP2 POP POP JUMP JUMPDEST PUSH1 0x0 DUP2 SWAP1 POP SWAP2 SWAP1 POP JUMP JUMPDEST PUSH2 0x1F08 DUP2 PUSH2 0x1EF5 JUMP JUMPDEST DUP3 MSTORE POP POP JUMP JUMPDEST PUSH1 0x0 PUSH1 0x20 DUP3 ADD SWAP1 POP PUSH2 0x1F23 PUSH1 0x0 DUP4 ADD DUP5 PUSH2 0x1EFF JUMP JUMPDEST SWAP3 SWAP2 POP POP JUMP JUMPDEST PUSH1 0x0 DUP2 SWAP1 POP SWAP2 SWAP1 POP JUMP JUMPDEST PUSH2 0x1F3C DUP2 PUSH2 0x1F29 JUMP JUMPDEST DUP3 MSTORE POP POP JUMP JUMPDEST PUSH1 0x0 PUSH1 0x20 DUP3 ADD SWAP1 POP PUSH2 0x1F57 PUSH1 0x0 DUP4 ADD DUP5 PUSH2 0x1F33 JUMP JUMPDEST SWAP3 SWAP2 POP POP JUMP JUMPDEST PUSH1 0x0 PUSH1 0xFF DUP3 AND SWAP1 POP SWAP2 SWAP1 POP JUMP JUMPDEST PUSH2 0x1F73 DUP2 PUSH2 0x1F5D JUMP JUMPDEST DUP3 MSTORE POP POP JUMP JUMPDEST PUSH1 0x0 PUSH1 0x20 DUP3 ADD SWAP1 POP PUSH2 0x1F8E PUSH1 0x0 DUP4 ADD DUP5 PUSH2 0x1F6A JUMP JUMPDEST SWAP3 SWAP2 POP POP JUMP JUMPDEST PUSH2 0x1F9D DUP2 PUSH2 0x1EF5 JUMP JUMPDEST DUP2 EQ PUSH2 0x1FA8 JUMPI PUSH1 0x0 DUP1 REVERT JUMPDEST POP JUMP JUMPDEST PUSH1 0x0 DUP2 CALLDATALOAD SWAP1 POP PUSH2 0x1FBA DUP2 PUSH2 0x1F94 JUMP JUMPDEST SWAP3 SWAP2 POP POP JUMP JUMPDEST PUSH1 0x0 PUSH1 0x20 DUP3 DUP5 SUB SLT ISZERO PUSH2 0x1FD6 JUMPI PUSH2 0x1FD5 PUSH2 0x1DFB JUMP JUMPDEST JUMPDEST PUSH1 0x0 PUSH2 0x1FE4 DUP5 DUP3 DUP6 ADD PUSH2 0x1FAB JUMP JUMPDEST SWAP2 POP POP SWAP3 SWAP2 POP POP JUMP JUMPDEST PUSH1 0x0 DUP2 PUSH1 0x0 SIGNEXTEND SWAP1 POP SWAP2 SWAP1 POP JUMP JUMPDEST PUSH2 0x2003 DUP2 PUSH2 0x1FED JUMP JUMPDEST DUP3 MSTORE POP POP JUMP JUMPDEST PUSH1 0x0 PUSH1 0x20 DUP3 ADD SWAP1 POP PUSH2 0x201E PUSH1 0x0 DUP4 ADD DUP5 PUSH2 0x1FFA JUMP JUMPDEST SWAP3 SWAP2 POP POP JUMP JUMPDEST PUSH2 0x202D DUP2 PUSH2 0x1E8A JUMP JUMPDEST DUP3 MSTORE POP POP JUMP JUMPDEST PUSH1 0x0 PUSH1 0x20 DUP3 ADD SWAP1 POP PUSH2 0x2048 PUSH1 0x0 DUP4 ADD DUP5 PUSH2 0x2024 JUMP JUMPDEST SWAP3 SWAP2 POP POP JUMP JUMPDEST PUSH1 0x0 DUP1 REVERT JUMPDEST PUSH1 0x0 PUSH1 0x1F NOT PUSH1 0x1F DUP4 ADD AND SWAP1 POP SWAP2 SWAP1 POP JUMP JUMPDEST PUSH32 0x4E487B7100000000000000000000000000000000000000000000000000000000 PUSH1 0x0 MSTORE PUSH1 0x41 PUSH1 0x4 MSTORE PUSH1 0x24 PUSH1 0x0 REVERT JUMPDEST PUSH2 0x209C DUP3 PUSH2 0x2053 JUMP JUMPDEST DUP2 ADD DUP2 DUP2 LT PUSH8 0xFFFFFFFFFFFFFFFF DUP3 GT OR ISZERO PUSH2 0x20BB JUMPI PUSH2 0x20BA PUSH2 0x2064 JUMP JUMPDEST JUMPDEST DUP1 PUSH1 0x40 MSTORE POP POP POP JUMP JUMPDEST PUSH1 0x0 PUSH2 0x20CE PUSH2 0x1DF1 JUMP JUMPDEST SWAP1 POP PUSH2 0x20DA DUP3 DUP3 PUSH2 0x2093 JUMP JUMPDEST SWAP2 SWAP1 POP JUMP JUMPDEST PUSH1 0x0 PUSH8 0xFFFFFFFFFFFFFFFF DUP3 GT ISZERO PUSH2 0x20FA JUMPI PUSH2 0x20F9 PUSH2 0x2064 JUMP JUMPDEST JUMPDEST PUSH1 0x20 DUP3 MUL SWAP1 POP PUSH1 0x20 DUP2 ADD SWAP1 POP SWAP2 SWAP1 POP JUMP JUMPDEST PUSH1 0x0 DUP1 REVERT JUMPDEST PUSH1 0x0 PUSH2 0x2123 PUSH2 0x211E DUP5 PUSH2 0x20DF JUMP JUMPDEST PUSH2 0x20C4 JUMP JUMPDEST SWAP1 POP DUP1 DUP4 DUP3 MSTORE PUSH1 0x20 DUP3 ADD SWAP1 POP PUSH1 0x20 DUP5 MUL DUP4 ADD DUP6 DUP2 GT ISZERO PUSH2 0x2146 JUMPI PUSH2 0x2145 PUSH2 0x210B JUMP JUMPDEST JUMPDEST DUP4 JUMPDEST DUP2 DUP2 LT ISZERO PUSH2 0x216F JUMPI DUP1 PUSH2 0x215B DUP9 DUP3 PUSH2 0x1FAB JUMP JUMPDEST DUP5 MSTORE PUSH1 0x20 DUP5 ADD SWAP4 POP POP PUSH1 0x20 DUP2 ADD SWAP1 POP PUSH2 0x2148 JUMP JUMPDEST POP POP POP SWAP4 SWAP3 POP POP POP JUMP JUMPDEST PUSH1 0x0 DUP3 PUSH1 0x1F DUP4 ADD SLT PUSH2 0x218E JUMPI PUSH2 0x218D PUSH2 0x204E JUMP JUMPDEST JUMPDEST DUP2 CALLDATALOAD PUSH2 0x219E DUP5 DUP3 PUSH1 0x20 DUP7 ADD PUSH2 0x2110 JUMP JUMPDEST SWAP2 POP POP SWAP3 SWAP2 POP POP JUMP JUMPDEST PUSH1 0x0 PUSH1 0x20 DUP3 DUP5 SUB SLT ISZERO PUSH2 0x21BD JUMPI PUSH2 0x21BC PUSH2 0x1DFB JUMP JUMPDEST JUMPDEST PUSH1 0x0 DUP3 ADD CALLDATALOAD PUSH8 0xFFFFFFFFFFFFFFFF DUP2 GT ISZERO PUSH2 0x21DB JUMPI PUSH2 0x21DA PUSH2 0x1E00 JUMP JUMPDEST JUMPDEST PUSH2 0x21E7 DUP5 DUP3 DUP6 ADD PUSH2 0x2179 JUMP JUMPDEST SWAP2 POP POP SWAP3 SWAP2 POP POP JUMP JUMPDEST PUSH1 0x0 DUP2 MLOAD SWAP1 POP SWAP2 SWAP1 POP JUMP JUMPDEST PUSH1 0x0 DUP3 DUP3 MSTORE PUSH1 0x20 DUP3 ADD SWAP1 POP SWAP3 SWAP2 POP POP JUMP JUMPDEST PUSH1 0x0 JUMPDEST DUP4 DUP2 LT ISZERO PUSH2 0x222A JUMPI DUP1 DUP3 ADD MLOAD DUP2 DUP5 ADD MSTORE PUSH1 0x20 DUP2 ADD SWAP1 POP PUSH2 0x220F JUMP JUMPDEST PUSH1 0x0 DUP5 DUP5 ADD MSTORE POP POP POP POP JUMP JUMPDEST PUSH1 0x0 PUSH2 0x2241 DUP3 PUSH2 0x21F0 JUMP JUMPDEST PUSH2 0x224B DUP2 DUP6 PUSH2 0x21FB JUMP JUMPDEST SWAP4 POP PUSH2 0x225B DUP2 DUP6 PUSH1 0x20 DUP7 ADD PUSH2 0x220C JUMP JUMPDEST PUSH2 0x2264 DUP2 PUSH2 0x2053 JUMP JUMPDEST DUP5 ADD SWAP2 POP POP SWAP3 SWAP2 POP POP JUMP JUMPDEST PUSH1 0x0 PUSH1 0x20 DUP3 ADD SWAP1 POP DUP2 DUP2 SUB PUSH1 0x0 DUP4 ADD MSTORE PUSH2 0x2289 DUP2 DUP5 PUSH2 0x2236 JUMP JUMPDEST SWAP1 POP SWAP3 SWAP2 POP POP JUMP JUMPDEST PUSH2 0x229A DUP2 PUSH2 0x1E05 JUMP JUMPDEST DUP3 MSTORE POP POP JUMP JUMPDEST PUSH1 0x0 PUSH1 0x20 DUP3 ADD SWAP1 POP PUSH2 0x22B5 PUSH1 0x0 DUP4 ADD DUP5 PUSH2 0x2291 JUMP JUMPDEST SWAP3 SWAP2 POP POP JUMP JUMPDEST PUSH32 0x4E6F2076616C756520696D206265740000000000000000000000000000000000 PUSH1 0x0 DUP3 ADD MSTORE POP JUMP JUMPDEST PUSH1 0x0 PUSH2 0x22F1 PUSH1 0xF DUP4 PUSH2 0x21FB JUMP JUMPDEST SWAP2 POP PUSH2 0x22FC DUP3 PUSH2 0x22BB JUMP JUMPDEST PUSH1 0x20 DUP3 ADD SWAP1 POP SWAP2 SWAP1 POP JUMP JUMPDEST PUSH1 0x0 PUSH1 0x20 DUP3 ADD SWAP1 POP DUP2 DUP2 SUB PUSH1 0x0 DUP4 ADD MSTORE PUSH2 0x2320 DUP2 PUSH2 0x22E4 JUMP JUMPDEST SWAP1 POP SWAP2 SWAP1 POP JUMP JUMPDEST PUSH32 0x42657420616C726561647920706C616365640000000000000000000000000000 PUSH1 0x0 DUP3 ADD MSTORE POP JUMP JUMPDEST PUSH1 0x0 PUSH2 0x235D PUSH1 0x12 DUP4 PUSH2 0x21FB JUMP JUMPDEST SWAP2 POP PUSH2 0x2368 DUP3 PUSH2 0x2327 JUMP JUMPDEST PUSH1 0x20 DUP3 ADD SWAP1 POP SWAP2 SWAP1 POP JUMP JUMPDEST PUSH1 0x0 PUSH1 0x20 DUP3 ADD SWAP1 POP DUP2 DUP2 SUB PUSH1 0x0 DUP4 ADD MSTORE PUSH2 0x238C DUP2 PUSH2 0x2350 JUMP JUMPDEST SWAP1 POP SWAP2 SWAP1 POP JUMP JUMPDEST PUSH32 0x50617373656420746865206C696D697400000000000000000000000000000000 PUSH1 0x0 DUP3 ADD MSTORE POP JUMP JUMPDEST PUSH1 0x0 PUSH2 0x23C9 PUSH1 0x10 DUP4 PUSH2 0x21FB JUMP JUMPDEST SWAP2 POP PUSH2 0x23D4 DUP3 PUSH2 0x2393 JUMP JUMPDEST PUSH1 0x20 DUP3 ADD SWAP1 POP SWAP2 SWAP1 POP JUMP JUMPDEST PUSH1 0x0 PUSH1 0x20 DUP3 ADD SWAP1 POP DUP2 DUP2 SUB PUSH1 0x0 DUP4 ADD MSTORE PUSH2 0x23F8 DUP2 PUSH2 0x23BC JUMP JUMPDEST SWAP1 POP SWAP2 SWAP1 POP JUMP JUMPDEST PUSH32 0x4E487B7100000000000000000000000000000000000000000000000000000000 PUSH1 0x0 MSTORE PUSH1 0x11 PUSH1 0x4 MSTORE PUSH1 0x24 PUSH1 0x0 REVERT JUMPDEST PUSH1 0x0 PUSH2 0x2439 DUP3 PUSH2 0x1EF5 JUMP JUMPDEST SWAP2 POP PUSH2 0x2444 DUP4 PUSH2 0x1EF5 JUMP JUMPDEST SWAP3 POP DUP3 DUP3 ADD SWAP1 POP DUP1 DUP3 GT ISZERO PUSH2 0x245C JUMPI PUSH2 0x245B PUSH2 0x23FF JUMP JUMPDEST JUMPDEST SWAP3 SWAP2 POP POP JUMP JUMPDEST PUSH32 0x416C72656164792066696E616C697A6564000000000000000000000000000000 PUSH1 0x0 DUP3 ADD MSTORE POP JUMP JUMPDEST PUSH1 0x0 PUSH2 0x2498 PUSH1 0x11 DUP4 PUSH2 0x21FB JUMP JUMPDEST SWAP2 POP PUSH2 0x24A3 DUP3 PUSH2 0x2462 JUMP JUMPDEST PUSH1 0x20 DUP3 ADD SWAP1 POP SWAP2 SWAP1 POP JUMP JUMPDEST PUSH1 0x0 PUSH1 0x20 DUP3 ADD SWAP1 POP DUP2 DUP2 SUB PUSH1 0x0 DUP4 ADD MSTORE PUSH2 0x24C7 DUP2 PUSH2 0x248B JUMP JUMPDEST SWAP1 POP SWAP2 SWAP1 POP JUMP JUMPDEST PUSH32 0x496E76616C69642074696D657374616D70000000000000000000000000000000 PUSH1 0x0 DUP3 ADD MSTORE POP JUMP JUMPDEST PUSH1 0x0 PUSH2 0x2504 PUSH1 0x11 DUP4 PUSH2 0x21FB JUMP JUMPDEST SWAP2 POP PUSH2 0x250F DUP3 PUSH2 0x24CE JUMP JUMPDEST PUSH1 0x20 DUP3 ADD SWAP1 POP SWAP2 SWAP1 POP JUMP JUMPDEST PUSH1 0x0 PUSH1 0x20 DUP3 ADD SWAP1 POP DUP2 DUP2 SUB PUSH1 0x0 DUP4 ADD MSTORE PUSH2 0x2533 DUP2 PUSH2 0x24F7 JUMP JUMPDEST SWAP1 POP SWAP2 SWAP1 POP JUMP JUMPDEST PUSH32 0x4E6F742066696E616C697A656400000000000000000000000000000000000000 PUSH1 0x0 DUP3 ADD MSTORE POP JUMP JUMPDEST PUSH1 0x0 PUSH2 0x2570 PUSH1 0xD DUP4 PUSH2 0x21FB JUMP JUMPDEST SWAP2 POP PUSH2 0x257B DUP3 PUSH2 0x253A JUMP JUMPDEST PUSH1 0x20 DUP3 ADD SWAP1 POP SWAP2 SWAP1 POP JUMP JUMPDEST PUSH1 0x0 PUSH1 0x20 DUP3 ADD SWAP1 POP DUP2 DUP2 SUB PUSH1 0x0 DUP4 ADD MSTORE PUSH2 0x259F DUP2 PUSH2 0x2563 JUMP JUMPDEST SWAP1 POP SWAP2 SWAP1 POP JUMP JUMPDEST PUSH32 0x446964206E6F742077696E000000000000000000000000000000000000000000 PUSH1 0x0 DUP3 ADD MSTORE POP JUMP JUMPDEST PUSH1 0x0 PUSH2 0x25DC PUSH1 0xB DUP4 PUSH2 0x21FB JUMP JUMPDEST SWAP2 POP PUSH2 0x25E7 DUP3 PUSH2 0x25A6 JUMP JUMPDEST PUSH1 0x20 DUP3 ADD SWAP1 POP SWAP2 SWAP1 POP JUMP JUMPDEST PUSH1 0x0 PUSH1 0x20 DUP3 ADD SWAP1 POP DUP2 DUP2 SUB PUSH1 0x0 DUP4 ADD MSTORE PUSH2 0x260B DUP2 PUSH2 0x25CF JUMP JUMPDEST SWAP1 POP SWAP2 SWAP1 POP JUMP JUMPDEST PUSH32 0x416C726561647920636C61696D65640000000000000000000000000000000000 PUSH1 0x0 DUP3 ADD MSTORE POP JUMP JUMPDEST PUSH1 0x0 PUSH2 0x2648 PUSH1 0xF DUP4 PUSH2 0x21FB JUMP JUMPDEST SWAP2 POP PUSH2 0x2653 DUP3 PUSH2 0x2612 JUMP JUMPDEST PUSH1 0x20 DUP3 ADD SWAP1 POP SWAP2 SWAP1 POP JUMP JUMPDEST PUSH1 0x0 PUSH1 0x20 DUP3 ADD SWAP1 POP DUP2 DUP2 SUB PUSH1 0x0 DUP4 ADD MSTORE PUSH2 0x2677 DUP2 PUSH2 0x263B JUMP JUMPDEST SWAP1 POP SWAP2 SWAP1 POP JUMP JUMPDEST PUSH1 0x0 PUSH2 0x2689 DUP3 PUSH2 0x1EF5 JUMP JUMPDEST SWAP2 POP PUSH2 0x2694 DUP4 PUSH2 0x1EF5 JUMP JUMPDEST SWAP3 POP DUP3 DUP3 SUB SWAP1 POP DUP2 DUP2 GT ISZERO PUSH2 0x26AC JUMPI PUSH2 0x26AB PUSH2 0x23FF JUMP JUMPDEST JUMPDEST SWAP3 SWAP2 POP POP JUMP JUMPDEST PUSH1 0x0 PUSH2 0x26BD DUP3 PUSH2 0x1EF5 JUMP JUMPDEST SWAP2 POP PUSH32 0xFFFFFFFFFFFFFFFFFFFFFFFFFFFFFFFFFFFFFFFFFFFFFFFFFFFFFFFFFFFFFFFF DUP3 SUB PUSH2 0x26EF JUMPI PUSH2 0x26EE PUSH2 0x23FF JUMP JUMPDEST JUMPDEST PUSH1 0x1 DUP3 ADD SWAP1 POP SWAP2 SWAP1 POP JUMP JUMPDEST PUSH32 0x42657420626967676572207468616E2077696E6E696E6720706F6F6C00000000 PUSH1 0x0 DUP3 ADD MSTORE POP JUMP JUMPDEST PUSH1 0x0 PUSH2 0x2730 PUSH1 0x1C DUP4 PUSH2 0x21FB JUMP JUMPDEST SWAP2 POP PUSH2 0x273B DUP3 PUSH2 0x26FA JUMP JUMPDEST PUSH1 0x20 DUP3 ADD SWAP1 POP SWAP2 SWAP1 POP JUMP JUMPDEST PUSH1 0x0 PUSH1 0x20 DUP3 ADD SWAP1 POP DUP2 DUP2 SUB PUSH1 0x0 DUP4 ADD MSTORE PUSH2 0x275F DUP2 PUSH2 0x2723 JUMP JUMPDEST SWAP1 POP SWAP2 SWAP1 POP JUMP JUMPDEST PUSH1 0x0 PUSH2 0x2771 DUP3 PUSH2 0x1EF5 JUMP JUMPDEST SWAP2 POP PUSH2 0x277C DUP4 PUSH2 0x1EF5 JUMP JUMPDEST SWAP3 POP DUP3 DUP3 MUL PUSH2 0x278A DUP2 PUSH2 0x1EF5 JUMP JUMPDEST SWAP2 POP DUP3 DUP3 DIV DUP5 EQ DUP4 ISZERO OR PUSH2 0x27A1 JUMPI PUSH2 0x27A0 PUSH2 0x23FF JUMP JUMPDEST JUMPDEST POP SWAP3 SWAP2 POP POP JUMP JUMPDEST PUSH32 0x4E487B7100000000000000000000000000000000000000000000000000000000 PUSH1 0x0 MSTORE PUSH1 0x12 PUSH1 0x4 MSTORE PUSH1 0x24 PUSH1 0x0 REVERT JUMPDEST PUSH1 0x0 PUSH2 0x27E2 DUP3 PUSH2 0x1EF5 JUMP JUMPDEST SWAP2 POP PUSH2 0x27ED DUP4 PUSH2 0x1EF5 JUMP JUMPDEST SWAP3 POP DUP3 PUSH2 0x27FD JUMPI PUSH2 0x27FC PUSH2 0x27A8 JUMP JUMPDEST JUMPDEST DUP3 DUP3 DIV SWAP1 POP SWAP3 SWAP2 POP POP JUMP JUMPDEST PUSH32 0x4F776E61626C653A206E6577206F776E657220697320746865207A65726F2061 PUSH1 0x0 DUP3 ADD MSTORE PUSH32 0x6464726573730000000000000000000000000000000000000000000000000000 PUSH1 0x20 DUP3 ADD MSTORE POP JUMP JUMPDEST PUSH1 0x0 PUSH2 0x2864 PUSH1 0x26 DUP4 PUSH2 0x21FB JUMP JUMPDEST SWAP2 POP PUSH2 0x286F DUP3 PUSH2 0x2808 JUMP JUMPDEST PUSH1 0x40 DUP3 ADD SWAP1 POP SWAP2 SWAP1 POP JUMP JUMPDEST PUSH1 0x0 PUSH1 0x20 DUP3 ADD SWAP1 POP DUP2 DUP2 SUB PUSH1 0x0 DUP4 ADD MSTORE PUSH2 0x2893 DUP2 PUSH2 0x2857 JUMP JUMPDEST SWAP1 POP SWAP2 SWAP1 POP JUMP JUMPDEST PUSH32 0x4E487B7100000000000000000000000000000000000000000000000000000000 PUSH1 0x0 MSTORE PUSH1 0x32 PUSH1 0x4 MSTORE PUSH1 0x24 PUSH1 0x0 REVERT JUMPDEST PUSH32 0x4F776E61626C653A2063616C6C6572206973206E6F7420746865206F776E6572 PUSH1 0x0 DUP3 ADD MSTORE POP JUMP JUMPDEST PUSH1 0x0 PUSH2 0x28FF PUSH1 0x20 DUP4 PUSH2 0x21FB JUMP JUMPDEST SWAP2 POP PUSH2 0x290A DUP3 PUSH2 0x28C9 JUMP JUMPDEST PUSH1 0x20 DUP3 ADD SWAP1 POP SWAP2 SWAP1 POP JUMP JUMPDEST PUSH1 0x0 PUSH1 0x20 DUP3 ADD SWAP1 POP DUP2 DUP2 SUB PUSH1 0x0 DUP4 ADD MSTORE PUSH2 0x292E DUP2 PUSH2 0x28F2 JUMP JUMPDEST SWAP1 POP SWAP2 SWAP1 POP JUMP JUMPDEST PUSH1 0x0 PUSH2 0x2940 DUP3 PUSH2 0x1EF5 JUMP JUMPDEST SWAP2 POP PUSH2 0x294B DUP4 PUSH2 0x1EF5 JUMP JUMPDEST SWAP3 POP DUP3 PUSH2 0x295B JUMPI PUSH2 0x295A PUSH2 0x27A8 JUMP JUMPDEST JUMPDEST DUP3 DUP3 MOD SWAP1 POP SWAP3 SWAP2 POP POP JUMP JUMPDEST PUSH1 0x0 PUSH1 0x40 DUP3 ADD SWAP1 POP PUSH2 0x297B PUSH1 0x0 DUP4 ADD DUP6 PUSH2 0x1EFF JUMP JUMPDEST PUSH2 0x2988 PUSH1 0x20 DUP4 ADD DUP5 PUSH2 0x1EFF JUMP JUMPDEST SWAP4 SWAP3 POP POP POP JUMP JUMPDEST PUSH1 0x0 DUP2 SWAP1 POP SWAP2 SWAP1 POP JUMP JUMPDEST PUSH2 0x29A2 DUP2 PUSH2 0x298F JUMP JUMPDEST DUP3 MSTORE POP POP JUMP JUMPDEST PUSH1 0x0 PUSH1 0x80 DUP3 ADD SWAP1 POP PUSH2 0x29BD PUSH1 0x0 DUP4 ADD DUP8 PUSH2 0x2999 JUMP JUMPDEST PUSH2 0x29CA PUSH1 0x20 DUP4 ADD DUP7 PUSH2 0x1F6A JUMP JUMPDEST PUSH2 0x29D7 PUSH1 0x40 DUP4 ADD DUP6 PUSH2 0x2999 JUMP JUMPDEST PUSH2 0x29E4 PUSH1 0x60 DUP4 ADD DUP5 PUSH2 0x2999 JUMP JUMPDEST SWAP6 SWAP5 POP POP POP POP POP JUMP INVALID LOG2 PUSH5 0x6970667358 0x22 SLT KECCAK256 0x2C STATICCALL MUL 0xD0 SAR 0x2D PUSH15 0xC2C04F8F0BF75EEE54CC16D6AB8D00 0xCB EXP 0x4E 0xD0 0x4B 0xCC PUSH7 0x61F1D564736F6C PUSH4 0x43000813 STOP CALLER "
				},
				"gasEstimates": {
					"creation": {
						"codeDepositCost": "2157400",
						"executionCost": "infinite",
						"totalCost": "infinite"
					},
					"external": {
						"aggregateValues(uint256[])": "infinite",
						"bets(address)": "2872",
						"claim()": "infinite",
						"claims(address)": "2890",
						"clock()": "2496",
						"end()": "2473",
						"endLimit()": "2562",
						"expected()": "2497",
						"extractTimestampsAndAssertAllAreEqual()": "infinite",
						"finalize()": "infinite",
						"getAuthorisedSignerIndex(address)": "infinite",
						"getClock()": "2526",
						"getDataServiceId()": "infinite",
						"getUniqueSignersThreshold()": "453",
						"noPool()": "2518",
						"outcome()": "2519",
						"owner()": "2567",
						"payout(uint256)": "infinite",
						"placeBet(bool)": "infinite",
						"renounceOwnership()": "30509",
						"setClock(uint256)": "24829",
						"stakes(address)": "2860",
						"transferOwnership(address)": "30810",
						"validateTimestamp(uint256)": "494",
						"yesPool()": "2518"
					}
				},
				"methodIdentifiers": {
					"aggregateValues(uint256[])": "b24ebfcc",
					"bets(address)": "89a78f1a",
					"claim()": "4e71d92d",
					"claims(address)": "c6788bdd",
					"clock()": "91ddadf4",
					"end()": "efbe1c1c",
					"endLimit()": "7a1fc2e2",
					"expected()": "1ce62383",
					"extractTimestampsAndAssertAllAreEqual()": "55a547d5",
					"finalize()": "4bb278f3",
					"getAuthorisedSignerIndex(address)": "3ce142f5",
					"getClock()": "eed947b1",
					"getDataServiceId()": "c274583a",
					"getUniqueSignersThreshold()": "f90c4924",
					"noPool()": "a3b5afb1",
					"outcome()": "27793f87",
					"owner()": "8da5cb5b",
					"payout(uint256)": "e1152343",
					"placeBet(bool)": "096a3778",
					"renounceOwnership()": "715018a6",
					"setClock(uint256)": "51536c0f",
					"stakes(address)": "16934fc4",
					"transferOwnership(address)": "f2fde38b",
					"validateTimestamp(uint256)": "f50b2efe",
					"yesPool()": "6f1d4ea4"
				}
			},
			"storageLayout": {
				"storage": [
					{
						"astId": 7,
						"contract": "contracts/PriceBet.sol:PriceBet",
						"label": "_owner",
						"offset": 0,
						"slot": "0",
						"type": "t_address"
					},
					{
						"astId": 1621,
						"contract": "contracts/PriceBet.sol:PriceBet",
						"label": "outcome",
						"offset": 0,
						"slot": "1",
						"type": "t_int256"
					},
					{
						"astId": 1623,
						"contract": "contracts/PriceBet.sol:PriceBet",
						"label": "end",
						"offset": 0,
						"slot": "2",
						"type": "t_uint256"
					},
					{
						"astId": 1627,
						"contract": "contracts/PriceBet.sol:PriceBet",
						"label": "bets",
						"offset": 0,
						"slot": "3",
						"type": "t_mapping(t_address,t_int8)"
					},
					{
						"astId": 1631,
						"contract": "contracts/PriceBet.sol:PriceBet",
						"label": "stakes",
						"offset": 0,
						"slot": "4",
						"type": "t_mapping(t_address,t_uint256)"
					},
					{
						"astId": 1635,
						"contract": "contracts/PriceBet.sol:PriceBet",
						"label": "claims",
						"offset": 0,
						"slot": "5",
						"type": "t_mapping(t_address,t_bool)"
					},
					{
						"astId": 1637,
						"contract": "contracts/PriceBet.sol:PriceBet",
						"label": "yesPool",
						"offset": 0,
						"slot": "6",
						"type": "t_uint256"
					},
					{
						"astId": 1639,
						"contract": "contracts/PriceBet.sol:PriceBet",
						"label": "noPool",
						"offset": 0,
						"slot": "7",
						"type": "t_uint256"
					},
					{
						"astId": 1641,
						"contract": "contracts/PriceBet.sol:PriceBet",
						"label": "clock",
						"offset": 0,
						"slot": "8",
						"type": "t_uint256"
					},
					{
						"astId": 1858,
						"contract": "contracts/PriceBet.sol:PriceBet",
						"label": "symbol",
						"offset": 0,
						"slot": "9",
						"type": "t_bytes32"
					},
					{
						"astId": 1860,
						"contract": "contracts/PriceBet.sol:PriceBet",
						"label": "expected",
						"offset": 0,
						"slot": "10",
						"type": "t_uint256"
					},
					{
						"astId": 1862,
						"contract": "contracts/PriceBet.sol:PriceBet",
						"label": "endLimit",
						"offset": 0,
						"slot": "11",
						"type": "t_uint256"
					}
				],
				"types": {
					"t_address": {
						"encoding": "inplace",
						"label": "address",
						"numberOfBytes": "20"
					},
					"t_bool": {
						"encoding": "inplace",
						"label": "bool",
						"numberOfBytes": "1"
					},
					"t_bytes32": {
						"encoding": "inplace",
						"label": "bytes32",
						"numberOfBytes": "32"
					},
					"t_int256": {
						"encoding": "inplace",
						"label": "int256",
						"numberOfBytes": "32"
					},
					"t_int8": {
						"encoding": "inplace",
						"label": "int8",
						"numberOfBytes": "1"
					},
					"t_mapping(t_address,t_bool)": {
						"encoding": "mapping",
						"key": "t_address",
						"label": "mapping(address => bool)",
						"numberOfBytes": "32",
						"value": "t_bool"
					},
					"t_mapping(t_address,t_int8)": {
						"encoding": "mapping",
						"key": "t_address",
						"label": "mapping(address => int8)",
						"numberOfBytes": "32",
						"value": "t_int8"
					},
					"t_mapping(t_address,t_uint256)": {
						"encoding": "mapping",
						"key": "t_address",
						"label": "mapping(address => uint256)",
						"numberOfBytes": "32",
						"value": "t_uint256"
					},
					"t_uint256": {
						"encoding": "inplace",
						"label": "uint256",
						"numberOfBytes": "32"
					}
				}
			},
			"userdoc": {
				"kind": "user",
				"methods": {},
				"version": 1
			}
		}
	}
}