{
	"@redstone-finance/evm-connector/contracts/data-services/MainDemoConsumerBase.sol": {
		"MainDemoConsumerBase": {
			"abi": [
				{
					"inputs": [],
					"name": "CalldataMustHaveValidPayload",
					"type": "error"
				},
				{
					"inputs": [],
					"name": "CalldataOverOrUnderFlow",
					"type": "error"
				},
				{
					"inputs": [],
					"name": "CanNotPickMedianOfEmptyArray",
					"type": "error"
				},
				{
					"inputs": [],
					"name": "DataPackageTimestampMustNotBeZero",
					"type": "error"
				},
				{
					"inputs": [],
					"name": "DataPackageTimestampsMustBeEqual",
					"type": "error"
				},
				{
					"inputs": [],
					"name": "DataTimestampCannotBeZero",
					"type": "error"
				},
				{
					"inputs": [],
					"name": "EachSignerMustProvideTheSameValue",
					"type": "error"
				},
				{
					"inputs": [],
					"name": "EmptyCalldataPointersArr",
					"type": "error"
				},
				{
					"inputs": [],
					"name": "GetDataServiceIdNotImplemented",
					"type": "error"
				},
				{
					"inputs": [],
					"name": "IncorrectUnsignedMetadataSize",
					"type": "error"
				},
				{
					"inputs": [
						{
							"internalType": "uint256",
							"name": "receivedSignersCount",
							"type": "uint256"
						},
						{
							"internalType": "uint256",
							"name": "requiredSignersCount",
							"type": "uint256"
						}
					],
					"name": "InsufficientNumberOfUniqueSigners",
					"type": "error"
				},
				{
					"inputs": [],
					"name": "InvalidCalldataPointer",
					"type": "error"
				},
				{
					"inputs": [],
					"name": "RedstonePayloadMustHaveAtLeastOneDataPackage",
					"type": "error"
				},
				{
					"inputs": [
						{
							"internalType": "address",
							"name": "receivedSigner",
							"type": "address"
						}
					],
					"name": "SignerNotAuthorised",
					"type": "error"
				},
				{
					"inputs": [
						{
							"internalType": "uint256",
							"name": "receivedTimestampSeconds",
							"type": "uint256"
						},
						{
							"internalType": "uint256",
							"name": "blockTimestamp",
							"type": "uint256"
						}
					],
					"name": "TimestampFromTooLongFuture",
					"type": "error"
				},
				{
					"inputs": [
						{
							"internalType": "uint256",
							"name": "receivedTimestampSeconds",
							"type": "uint256"
						},
						{
							"internalType": "uint256",
							"name": "blockTimestamp",
							"type": "uint256"
						}
					],
					"name": "TimestampIsTooOld",
					"type": "error"
				},
				{
					"inputs": [],
					"name": "TimestampsMustBeEqual",
					"type": "error"
				},
				{
					"inputs": [
						{
							"internalType": "uint256",
							"name": "valueByteSize",
							"type": "uint256"
						}
					],
					"name": "TooLargeValueByteSize",
					"type": "error"
				},
				{
					"inputs": [
						{
							"internalType": "uint256[]",
							"name": "values",
							"type": "uint256[]"
						}
					],
					"name": "aggregateValues",
					"outputs": [
						{
							"internalType": "uint256",
							"name": "",
							"type": "uint256"
						}
					],
					"stateMutability": "view",
					"type": "function"
				},
				{
					"inputs": [],
					"name": "extractTimestampsAndAssertAllAreEqual",
					"outputs": [
						{
							"internalType": "uint256",
							"name": "extractedTimestamp",
							"type": "uint256"
						}
					],
					"stateMutability": "pure",
					"type": "function"
				},
				{
					"inputs": [
						{
							"internalType": "address",
							"name": "signerAddress",
							"type": "address"
						}
					],
					"name": "getAuthorisedSignerIndex",
					"outputs": [
						{
							"internalType": "uint8",
							"name": "",
							"type": "uint8"
						}
					],
					"stateMutability": "view",
					"type": "function"
				},
				{
					"inputs": [],
					"name": "getDataServiceId",
					"outputs": [
						{
							"internalType": "string",
							"name": "",
							"type": "string"
						}
					],
					"stateMutability": "view",
					"type": "function"
				},
				{
					"inputs": [],
					"name": "getUniqueSignersThreshold",
					"outputs": [
						{
							"internalType": "uint8",
							"name": "",
							"type": "uint8"
						}
					],
					"stateMutability": "view",
					"type": "function"
				},
				{
					"inputs": [
						{
							"internalType": "uint256",
							"name": "receivedTimestampMilliseconds",
							"type": "uint256"
						}
					],
					"name": "validateTimestamp",
					"outputs": [],
					"stateMutability": "view",
					"type": "function"
				}
			],
			"devdoc": {
				"kind": "dev",
				"methods": {
					"aggregateValues(uint256[])": {
						"details": "This function may be overridden by the child consumer contract. It should aggregate values from different signers to a single uint value. By default, it calculates the median value",
						"params": {
							"values": "An array of uint256 values from different signers"
						},
						"returns": {
							"_0": "Result of the aggregation in the form of a single number"
						}
					},
					"getDataServiceId()": {
						"details": "This function must be implemented by the child consumer contract. It should return dataServiceId which DataServiceWrapper will use if not provided explicitly . If not overridden, value will always have to be provided explicitly in DataServiceWrapper.",
						"returns": {
							"_0": "dataServiceId being consumed by contract"
						}
					},
					"getUniqueSignersThreshold()": {
						"details": "This function should be overridden by the child consumer contract.",
						"returns": {
							"_0": "The minimum required value of unique authorised signers"
						}
					},
					"validateTimestamp(uint256)": {
						"details": "This function may be overridden by the child consumer contract. It should validate the timestamp against the current time (block.timestamp) It should revert with a helpful message if the timestamp is not valid",
						"params": {
							"receivedTimestampMilliseconds": "Timestamp extracted from calldata"
						}
					}
				},
				"version": 1
			},
			"evm": {
				"assembly": "    /* \"@redstone-finance/evm-connector/contracts/data-services/MainDemoConsumerBase.sol\":114:693  contract MainDemoConsumerBase is RedstoneConsumerNumericBase {... */\n  mstore(0x40, 0x80)\n  callvalue\n  dup1\n  iszero\n  tag_1\n  jumpi\n  0x00\n  dup1\n  revert\ntag_1:\n  pop\n  dataSize(sub_0)\n  dup1\n  dataOffset(sub_0)\n  0x00\n  codecopy\n  0x00\n  return\nstop\n\nsub_0: assembly {\n        /* \"@redstone-finance/evm-connector/contracts/data-services/MainDemoConsumerBase.sol\":114:693  contract MainDemoConsumerBase is RedstoneConsumerNumericBase {... */\n      mstore(0x40, 0x80)\n      callvalue\n      dup1\n      iszero\n      tag_1\n      jumpi\n      0x00\n      dup1\n      revert\n    tag_1:\n      pop\n      jumpi(tag_2, lt(calldatasize, 0x04))\n      shr(0xe0, calldataload(0x00))\n      dup1\n      0x3ce142f5\n      eq\n      tag_3\n      jumpi\n      dup1\n      0x55a547d5\n      eq\n      tag_4\n      jumpi\n      dup1\n      0xb24ebfcc\n      eq\n      tag_5\n      jumpi\n      dup1\n      0xc274583a\n      eq\n      tag_6\n      jumpi\n      dup1\n      0xf50b2efe\n      eq\n      tag_7\n      jumpi\n      dup1\n      0xf90c4924\n      eq\n      tag_8\n      jumpi\n    tag_2:\n      0x00\n      dup1\n      revert\n        /* \"@redstone-finance/evm-connector/contracts/data-services/MainDemoConsumerBase.sol\":407:691  function getAuthorisedSignerIndex(address signerAddress)... */\n    tag_3:\n      tag_9\n      0x04\n      dup1\n      calldatasize\n      sub\n      dup2\n      add\n      swap1\n      tag_10\n      swap2\n      swap1\n      tag_11\n      jump\t// in\n    tag_10:\n      tag_12\n      jump\t// in\n    tag_9:\n      mload(0x40)\n      tag_13\n      swap2\n      swap1\n      tag_14\n      jump\t// in\n    tag_13:\n      mload(0x40)\n      dup1\n      swap2\n      sub\n      swap1\n      return\n        /* \"@redstone-finance/evm-connector/contracts/core/CalldataExtractor.sol\":599:2010  function extractTimestampsAndAssertAllAreEqual() public pure returns (uint256 extractedTimestamp) {... */\n    tag_4:\n      tag_15\n      tag_16\n      jump\t// in\n    tag_15:\n      mload(0x40)\n      tag_17\n      swap2\n      swap1\n      tag_18\n      jump\t// in\n    tag_17:\n      mload(0x40)\n      dup1\n      swap2\n      sub\n      swap1\n      return\n        /* \"@redstone-finance/evm-connector/contracts/core/RedstoneConsumerBase.sol\":2697:2846  function aggregateValues(uint256[] memory values) public view virtual returns (uint256) {... */\n    tag_5:\n      tag_19\n      0x04\n      dup1\n      calldatasize\n      sub\n      dup2\n      add\n      swap1\n      tag_20\n      swap2\n      swap1\n      tag_21\n      jump\t// in\n    tag_20:\n      tag_22\n      jump\t// in\n    tag_19:\n      mload(0x40)\n      tag_23\n      swap2\n      swap1\n      tag_18\n      jump\t// in\n    tag_23:\n      mload(0x40)\n      dup1\n      swap2\n      sub\n      swap1\n      return\n        /* \"@redstone-finance/evm-connector/contracts/data-services/MainDemoConsumerBase.sol\":179:298  function getDataServiceId() public view virtual override returns (string memory) {... */\n    tag_6:\n      tag_24\n      tag_25\n      jump\t// in\n    tag_24:\n      mload(0x40)\n      tag_26\n      swap2\n      swap1\n      tag_27\n      jump\t// in\n    tag_26:\n      mload(0x40)\n      dup1\n      swap2\n      sub\n      swap1\n      return\n        /* \"@redstone-finance/evm-connector/contracts/core/RedstoneConsumerBase.sol\":1922:2087  function validateTimestamp(uint256 receivedTimestampMilliseconds) public view virtual {... */\n    tag_7:\n      tag_28\n      0x04\n      dup1\n      calldatasize\n      sub\n      dup2\n      add\n      swap1\n      tag_29\n      swap2\n      swap1\n      tag_30\n      jump\t// in\n    tag_29:\n      tag_31\n      jump\t// in\n    tag_28:\n      stop\n        /* \"@redstone-finance/evm-connector/contracts/data-services/MainDemoConsumerBase.sol\":302:403  function getUniqueSignersThreshold() public view virtual override returns (uint8) {... */\n    tag_8:\n      tag_32\n      tag_33\n      jump\t// in\n    tag_32:\n      mload(0x40)\n      tag_34\n      swap2\n      swap1\n      tag_14\n      jump\t// in\n    tag_34:\n      mload(0x40)\n      dup1\n      swap2\n      sub\n      swap1\n      return\n        /* \"@redstone-finance/evm-connector/contracts/data-services/MainDemoConsumerBase.sol\":407:691  function getAuthorisedSignerIndex(address signerAddress)... */\n    tag_12:\n        /* \"@redstone-finance/evm-connector/contracts/data-services/MainDemoConsumerBase.sol\":522:527  uint8 */\n      0x00\n        /* \"@redstone-finance/evm-connector/contracts/data-services/MainDemoConsumerBase.sol\":558:600  0x0C39486f770B26F5527BBBf942726537986Cd7eb */\n      0x0c39486f770b26f5527bbbf942726537986cd7eb\n        /* \"@redstone-finance/evm-connector/contracts/data-services/MainDemoConsumerBase.sol\":541:600  signerAddress == 0x0C39486f770B26F5527BBBf942726537986Cd7eb */\n      0xffffffffffffffffffffffffffffffffffffffff\n      and\n        /* \"@redstone-finance/evm-connector/contracts/data-services/MainDemoConsumerBase.sol\":541:554  signerAddress */\n      dup3\n        /* \"@redstone-finance/evm-connector/contracts/data-services/MainDemoConsumerBase.sol\":541:600  signerAddress == 0x0C39486f770B26F5527BBBf942726537986Cd7eb */\n      0xffffffffffffffffffffffffffffffffffffffff\n      and\n      sub\n        /* \"@redstone-finance/evm-connector/contracts/data-services/MainDemoConsumerBase.sol\":537:687  if (signerAddress == 0x0C39486f770B26F5527BBBf942726537986Cd7eb) {... */\n      tag_36\n      jumpi\n        /* \"@redstone-finance/evm-connector/contracts/data-services/MainDemoConsumerBase.sol\":617:618  0 */\n      0x00\n        /* \"@redstone-finance/evm-connector/contracts/data-services/MainDemoConsumerBase.sol\":610:618  return 0 */\n      swap1\n      pop\n      jump(tag_35)\n        /* \"@redstone-finance/evm-connector/contracts/data-services/MainDemoConsumerBase.sol\":537:687  if (signerAddress == 0x0C39486f770B26F5527BBBf942726537986Cd7eb) {... */\n    tag_36:\n        /* \"@redstone-finance/evm-connector/contracts/data-services/MainDemoConsumerBase.sol\":666:679  signerAddress */\n      dup2\n        /* \"@redstone-finance/evm-connector/contracts/data-services/MainDemoConsumerBase.sol\":646:680  SignerNotAuthorised(signerAddress) */\n      mload(0x40)\n      0xec459bc000000000000000000000000000000000000000000000000000000000\n      dup2\n      mstore\n      0x04\n      add\n      tag_38\n      swap2\n      swap1\n      tag_39\n      jump\t// in\n    tag_38:\n      mload(0x40)\n      dup1\n      swap2\n      sub\n      swap1\n      revert\n        /* \"@redstone-finance/evm-connector/contracts/data-services/MainDemoConsumerBase.sol\":407:691  function getAuthorisedSignerIndex(address signerAddress)... */\n    tag_35:\n      swap2\n      swap1\n      pop\n      jump\t// out\n        /* \"@redstone-finance/evm-connector/contracts/core/CalldataExtractor.sol\":599:2010  function extractTimestampsAndAssertAllAreEqual() public pure returns (uint256 extractedTimestamp) {... */\n    tag_16:\n        /* \"@redstone-finance/evm-connector/contracts/core/CalldataExtractor.sol\":669:695  uint256 extractedTimestamp */\n      0x00\n        /* \"@redstone-finance/evm-connector/contracts/core/CalldataExtractor.sol\":703:733  uint256 calldataNegativeOffset */\n      dup1\n        /* \"@redstone-finance/evm-connector/contracts/core/CalldataExtractor.sol\":736:772  _extractByteSizeOfUnsignedMetadata() */\n      tag_41\n        /* \"@redstone-finance/evm-connector/contracts/core/CalldataExtractor.sol\":736:770  _extractByteSizeOfUnsignedMetadata */\n      tag_42\n        /* \"@redstone-finance/evm-connector/contracts/core/CalldataExtractor.sol\":736:772  _extractByteSizeOfUnsignedMetadata() */\n      jump\t// in\n    tag_41:\n        /* \"@redstone-finance/evm-connector/contracts/core/CalldataExtractor.sol\":703:772  uint256 calldataNegativeOffset = _extractByteSizeOfUnsignedMetadata() */\n      swap1\n      pop\n        /* \"@redstone-finance/evm-connector/contracts/core/CalldataExtractor.sol\":778:803  uint256 dataPackagesCount */\n      0x00\n        /* \"@redstone-finance/evm-connector/contracts/core/CalldataExtractor.sol\":855:916  _extractDataPackagesCountFromCalldata(calldataNegativeOffset) */\n      tag_43\n        /* \"@redstone-finance/evm-connector/contracts/core/CalldataExtractor.sol\":893:915  calldataNegativeOffset */\n      dup3\n        /* \"@redstone-finance/evm-connector/contracts/core/CalldataExtractor.sol\":855:892  _extractDataPackagesCountFromCalldata */\n      tag_44\n        /* \"@redstone-finance/evm-connector/contracts/core/CalldataExtractor.sol\":855:916  _extractDataPackagesCountFromCalldata(calldataNegativeOffset) */\n      jump\t// in\n    tag_43:\n        /* \"@redstone-finance/evm-connector/contracts/core/CalldataExtractor.sol\":809:916  (dataPackagesCount, calldataNegativeOffset) = _extractDataPackagesCountFromCalldata(calldataNegativeOffset) */\n      dup2\n      0xffff\n      and\n      swap2\n      pop\n      dup1\n      swap4\n      pop\n      dup2\n      swap3\n      pop\n      pop\n      pop\n        /* \"@redstone-finance/evm-connector/contracts/core/CalldataExtractor.sol\":948:949  0 */\n      0x00\n        /* \"@redstone-finance/evm-connector/contracts/core/CalldataExtractor.sol\":927:944  dataPackagesCount */\n      dup2\n        /* \"@redstone-finance/evm-connector/contracts/core/CalldataExtractor.sol\":927:949  dataPackagesCount == 0 */\n      sub\n        /* \"@redstone-finance/evm-connector/contracts/core/CalldataExtractor.sol\":923:1019  if (dataPackagesCount == 0) {... */\n      tag_45\n      jumpi\n        /* \"@redstone-finance/evm-connector/contracts/core/CalldataExtractor.sol\":966:1012  RedstonePayloadMustHaveAtLeastOneDataPackage() */\n      mload(0x40)\n      0x8552ff3c00000000000000000000000000000000000000000000000000000000\n      dup2\n      mstore\n      0x04\n      add\n      mload(0x40)\n      dup1\n      swap2\n      sub\n      swap1\n      revert\n        /* \"@redstone-finance/evm-connector/contracts/core/CalldataExtractor.sol\":923:1019  if (dataPackagesCount == 0) {... */\n    tag_45:\n        /* \"@redstone-finance/evm-connector/contracts/core/CalldataExtractor.sol\":1030:1054  uint256 dataPackageIndex */\n      0x00\n        /* \"@redstone-finance/evm-connector/contracts/core/CalldataExtractor.sol\":1025:2006  for (uint256 dataPackageIndex = 0; dataPackageIndex < dataPackagesCount; dataPackageIndex++) {... */\n    tag_46:\n        /* \"@redstone-finance/evm-connector/contracts/core/CalldataExtractor.sol\":1079:1096  dataPackagesCount */\n      dup2\n        /* \"@redstone-finance/evm-connector/contracts/core/CalldataExtractor.sol\":1060:1076  dataPackageIndex */\n      dup2\n        /* \"@redstone-finance/evm-connector/contracts/core/CalldataExtractor.sol\":1060:1096  dataPackageIndex < dataPackagesCount */\n      lt\n        /* \"@redstone-finance/evm-connector/contracts/core/CalldataExtractor.sol\":1025:2006  for (uint256 dataPackageIndex = 0; dataPackageIndex < dataPackagesCount; dataPackageIndex++) {... */\n      iszero\n      tag_47\n      jumpi\n        /* \"@redstone-finance/evm-connector/contracts/core/CalldataExtractor.sol\":1126:1153  uint256 dataPackageByteSize */\n      0x00\n        /* \"@redstone-finance/evm-connector/contracts/core/CalldataExtractor.sol\":1156:1203  _getDataPackageByteSize(calldataNegativeOffset) */\n      tag_49\n        /* \"@redstone-finance/evm-connector/contracts/core/CalldataExtractor.sol\":1180:1202  calldataNegativeOffset */\n      dup5\n        /* \"@redstone-finance/evm-connector/contracts/core/CalldataExtractor.sol\":1156:1179  _getDataPackageByteSize */\n      tag_50\n        /* \"@redstone-finance/evm-connector/contracts/core/CalldataExtractor.sol\":1156:1203  _getDataPackageByteSize(calldataNegativeOffset) */\n      jump\t// in\n    tag_49:\n        /* \"@redstone-finance/evm-connector/contracts/core/CalldataExtractor.sol\":1126:1203  uint256 dataPackageByteSize = _getDataPackageByteSize(calldataNegativeOffset) */\n      swap1\n      pop\n        /* \"@redstone-finance/evm-connector/contracts/core/CalldataExtractor.sol\":1271:1298  uint48 dataPackageTimestamp */\n      0x00\n        /* \"@redstone-finance/evm-connector/contracts/core/CalldataExtractor.sol\":1348:1379  uint256 timestampNegativeOffset */\n      dup1\n        /* \"@redstone-finance/evm-connector/contracts/core/RedstoneConstants.sol\":1771:1774  104 */\n      0x68\n        /* \"@redstone-finance/evm-connector/contracts/core/CalldataExtractor.sol\":1383:1405  calldataNegativeOffset */\n      dup7\n        /* \"@redstone-finance/evm-connector/contracts/core/CalldataExtractor.sol\":1383:1471  calldataNegativeOffset + TIMESTAMP_NEGATIVE_OFFSET_IN_DATA_PACKAGE_WITH_STANDARD_SLOT_BS */\n      tag_51\n      swap2\n      swap1\n      tag_52\n      jump\t// in\n    tag_51:\n        /* \"@redstone-finance/evm-connector/contracts/core/CalldataExtractor.sol\":1348:1472  uint256 timestampNegativeOffset = (calldataNegativeOffset + TIMESTAMP_NEGATIVE_OFFSET_IN_DATA_PACKAGE_WITH_STANDARD_SLOT_BS) */\n      swap1\n      pop\n        /* \"@redstone-finance/evm-connector/contracts/core/CalldataExtractor.sol\":1480:1503  uint256 timestampOffset */\n      0x00\n        /* \"@redstone-finance/evm-connector/contracts/core/CalldataExtractor.sol\":1524:1547  timestampNegativeOffset */\n      dup2\n        /* \"@redstone-finance/evm-connector/contracts/core/CalldataExtractor.sol\":1506:1514  msg.data */\n      0x00\n      calldatasize\n        /* \"@redstone-finance/evm-connector/contracts/core/CalldataExtractor.sol\":1506:1521  msg.data.length */\n      swap1\n      pop\n        /* \"@redstone-finance/evm-connector/contracts/core/CalldataExtractor.sol\":1506:1547  msg.data.length - timestampNegativeOffset */\n      tag_53\n      swap2\n      swap1\n      tag_54\n      jump\t// in\n    tag_53:\n        /* \"@redstone-finance/evm-connector/contracts/core/CalldataExtractor.sol\":1480:1547  uint256 timestampOffset = msg.data.length - timestampNegativeOffset */\n      swap1\n      pop\n        /* \"@redstone-finance/evm-connector/contracts/core/CalldataExtractor.sol\":1611:1626  timestampOffset */\n      dup1\n        /* \"@redstone-finance/evm-connector/contracts/core/CalldataExtractor.sol\":1598:1627  calldataload(timestampOffset) */\n      calldataload\n        /* \"@redstone-finance/evm-connector/contracts/core/CalldataExtractor.sol\":1574:1627  dataPackageTimestamp := calldataload(timestampOffset) */\n      swap3\n      pop\n        /* \"@redstone-finance/evm-connector/contracts/core/CalldataExtractor.sol\":1671:1672  0 */\n      0x00\n        /* \"@redstone-finance/evm-connector/contracts/core/CalldataExtractor.sol\":1647:1667  dataPackageTimestamp */\n      dup4\n        /* \"@redstone-finance/evm-connector/contracts/core/CalldataExtractor.sol\":1647:1672  dataPackageTimestamp == 0 */\n      0xffffffffffff\n      and\n      sub\n        /* \"@redstone-finance/evm-connector/contracts/core/CalldataExtractor.sol\":1643:1735  if (dataPackageTimestamp == 0) {... */\n      tag_55\n      jumpi\n        /* \"@redstone-finance/evm-connector/contracts/core/CalldataExtractor.sol\":1691:1726  DataPackageTimestampMustNotBeZero() */\n      mload(0x40)\n      0x336dc9d000000000000000000000000000000000000000000000000000000000\n      dup2\n      mstore\n      0x04\n      add\n      mload(0x40)\n      dup1\n      swap2\n      sub\n      swap1\n      revert\n        /* \"@redstone-finance/evm-connector/contracts/core/CalldataExtractor.sol\":1643:1735  if (dataPackageTimestamp == 0) {... */\n    tag_55:\n        /* \"@redstone-finance/evm-connector/contracts/core/CalldataExtractor.sol\":1769:1770  0 */\n      0x00\n        /* \"@redstone-finance/evm-connector/contracts/core/CalldataExtractor.sol\":1747:1765  extractedTimestamp */\n      dup9\n        /* \"@redstone-finance/evm-connector/contracts/core/CalldataExtractor.sol\":1747:1770  extractedTimestamp == 0 */\n      sub\n        /* \"@redstone-finance/evm-connector/contracts/core/CalldataExtractor.sol\":1743:1946  if (extractedTimestamp == 0) {... */\n      tag_56\n      jumpi\n        /* \"@redstone-finance/evm-connector/contracts/core/CalldataExtractor.sol\":1803:1823  dataPackageTimestamp */\n      dup3\n        /* \"@redstone-finance/evm-connector/contracts/core/CalldataExtractor.sol\":1782:1823  extractedTimestamp = dataPackageTimestamp */\n      0xffffffffffff\n      and\n      swap8\n      pop\n        /* \"@redstone-finance/evm-connector/contracts/core/CalldataExtractor.sol\":1743:1946  if (extractedTimestamp == 0) {... */\n      jump(tag_57)\n    tag_56:\n        /* \"@redstone-finance/evm-connector/contracts/core/CalldataExtractor.sol\":1866:1884  extractedTimestamp */\n      dup8\n        /* \"@redstone-finance/evm-connector/contracts/core/CalldataExtractor.sol\":1842:1862  dataPackageTimestamp */\n      dup4\n        /* \"@redstone-finance/evm-connector/contracts/core/CalldataExtractor.sol\":1842:1884  dataPackageTimestamp != extractedTimestamp */\n      0xffffffffffff\n      and\n      eq\n        /* \"@redstone-finance/evm-connector/contracts/core/CalldataExtractor.sol\":1838:1946  if (dataPackageTimestamp != extractedTimestamp) {... */\n      tag_58\n      jumpi\n        /* \"@redstone-finance/evm-connector/contracts/core/CalldataExtractor.sol\":1903:1937  DataPackageTimestampsMustBeEqual() */\n      mload(0x40)\n      0xd9d1f46500000000000000000000000000000000000000000000000000000000\n      dup2\n      mstore\n      0x04\n      add\n      mload(0x40)\n      dup1\n      swap2\n      sub\n      swap1\n      revert\n        /* \"@redstone-finance/evm-connector/contracts/core/CalldataExtractor.sol\":1838:1946  if (dataPackageTimestamp != extractedTimestamp) {... */\n    tag_58:\n        /* \"@redstone-finance/evm-connector/contracts/core/CalldataExtractor.sol\":1743:1946  if (extractedTimestamp == 0) {... */\n    tag_57:\n        /* \"@redstone-finance/evm-connector/contracts/core/CalldataExtractor.sol\":1980:1999  dataPackageByteSize */\n      dup4\n        /* \"@redstone-finance/evm-connector/contracts/core/CalldataExtractor.sol\":1954:1999  calldataNegativeOffset += dataPackageByteSize */\n      dup8\n      tag_59\n      swap2\n      swap1\n      tag_52\n      jump\t// in\n    tag_59:\n      swap7\n      pop\n        /* \"@redstone-finance/evm-connector/contracts/core/CalldataExtractor.sol\":1118:2006  {... */\n      pop\n      pop\n      pop\n      pop\n        /* \"@redstone-finance/evm-connector/contracts/core/CalldataExtractor.sol\":1098:1116  dataPackageIndex++ */\n      dup1\n      dup1\n      tag_60\n      swap1\n      tag_61\n      jump\t// in\n    tag_60:\n      swap2\n      pop\n      pop\n        /* \"@redstone-finance/evm-connector/contracts/core/CalldataExtractor.sol\":1025:2006  for (uint256 dataPackageIndex = 0; dataPackageIndex < dataPackagesCount; dataPackageIndex++) {... */\n      jump(tag_46)\n    tag_47:\n      pop\n        /* \"@redstone-finance/evm-connector/contracts/core/CalldataExtractor.sol\":697:2010  {... */\n      pop\n      pop\n        /* \"@redstone-finance/evm-connector/contracts/core/CalldataExtractor.sol\":599:2010  function extractTimestampsAndAssertAllAreEqual() public pure returns (uint256 extractedTimestamp) {... */\n      swap1\n      jump\t// out\n        /* \"@redstone-finance/evm-connector/contracts/core/RedstoneConsumerBase.sol\":2697:2846  function aggregateValues(uint256[] memory values) public view virtual returns (uint256) {... */\n    tag_22:\n        /* \"@redstone-finance/evm-connector/contracts/core/RedstoneConsumerBase.sol\":2776:2783  uint256 */\n      0x00\n        /* \"@redstone-finance/evm-connector/contracts/core/RedstoneConsumerBase.sol\":2798:2841  RedstoneDefaultsLib.aggregateValues(values) */\n      tag_63\n        /* \"@redstone-finance/evm-connector/contracts/core/RedstoneConsumerBase.sol\":2834:2840  values */\n      dup3\n        /* \"@redstone-finance/evm-connector/contracts/core/RedstoneConsumerBase.sol\":2798:2833  RedstoneDefaultsLib.aggregateValues */\n      tag_64\n        /* \"@redstone-finance/evm-connector/contracts/core/RedstoneConsumerBase.sol\":2798:2841  RedstoneDefaultsLib.aggregateValues(values) */\n      jump\t// in\n    tag_63:\n        /* \"@redstone-finance/evm-connector/contracts/core/RedstoneConsumerBase.sol\":2791:2841  return RedstoneDefaultsLib.aggregateValues(values) */\n      swap1\n      pop\n        /* \"@redstone-finance/evm-connector/contracts/core/RedstoneConsumerBase.sol\":2697:2846  function aggregateValues(uint256[] memory values) public view virtual returns (uint256) {... */\n      swap2\n      swap1\n      pop\n      jump\t// out\n        /* \"@redstone-finance/evm-connector/contracts/data-services/MainDemoConsumerBase.sol\":179:298  function getDataServiceId() public view virtual override returns (string memory) {... */\n    tag_25:\n        /* \"@redstone-finance/evm-connector/contracts/data-services/MainDemoConsumerBase.sol\":245:258  string memory */\n      0x60\n        /* \"@redstone-finance/evm-connector/contracts/data-services/MainDemoConsumerBase.sol\":266:293  return \"redstone-main-demo\" */\n      mload(0x40)\n      dup1\n      0x40\n      add\n      0x40\n      mstore\n      dup1\n      0x12\n      dup2\n      mstore\n      0x20\n      add\n      0x72656473746f6e652d6d61696e2d64656d6f0000000000000000000000000000\n      dup2\n      mstore\n      pop\n      swap1\n      pop\n        /* \"@redstone-finance/evm-connector/contracts/data-services/MainDemoConsumerBase.sol\":179:298  function getDataServiceId() public view virtual override returns (string memory) {... */\n      swap1\n      jump\t// out\n        /* \"@redstone-finance/evm-connector/contracts/core/RedstoneConsumerBase.sol\":1922:2087  function validateTimestamp(uint256 receivedTimestampMilliseconds) public view virtual {... */\n    tag_31:\n        /* \"@redstone-finance/evm-connector/contracts/core/RedstoneConsumerBase.sol\":2014:2082  RedstoneDefaultsLib.validateTimestamp(receivedTimestampMilliseconds) */\n      tag_67\n        /* \"@redstone-finance/evm-connector/contracts/core/RedstoneConsumerBase.sol\":2052:2081  receivedTimestampMilliseconds */\n      dup2\n        /* \"@redstone-finance/evm-connector/contracts/core/RedstoneConsumerBase.sol\":2014:2051  RedstoneDefaultsLib.validateTimestamp */\n      tag_68\n        /* \"@redstone-finance/evm-connector/contracts/core/RedstoneConsumerBase.sol\":2014:2082  RedstoneDefaultsLib.validateTimestamp(receivedTimestampMilliseconds) */\n      jump\t// in\n    tag_67:\n        /* \"@redstone-finance/evm-connector/contracts/core/RedstoneConsumerBase.sol\":1922:2087  function validateTimestamp(uint256 receivedTimestampMilliseconds) public view virtual {... */\n      pop\n      jump\t// out\n        /* \"@redstone-finance/evm-connector/contracts/data-services/MainDemoConsumerBase.sol\":302:403  function getUniqueSignersThreshold() public view virtual override returns (uint8) {... */\n    tag_33:\n        /* \"@redstone-finance/evm-connector/contracts/data-services/MainDemoConsumerBase.sol\":377:382  uint8 */\n      0x00\n        /* \"@redstone-finance/evm-connector/contracts/data-services/MainDemoConsumerBase.sol\":397:398  1 */\n      0x01\n        /* \"@redstone-finance/evm-connector/contracts/data-services/MainDemoConsumerBase.sol\":390:398  return 1 */\n      swap1\n      pop\n        /* \"@redstone-finance/evm-connector/contracts/data-services/MainDemoConsumerBase.sol\":302:403  function getUniqueSignersThreshold() public view virtual override returns (uint8) {... */\n      swap1\n      jump\t// out\n        /* \"@redstone-finance/evm-connector/contracts/core/CalldataExtractor.sol\":2410:3579  function _extractByteSizeOfUnsignedMetadata() internal pure returns (uint256) {... */\n    tag_42:\n        /* \"@redstone-finance/evm-connector/contracts/core/CalldataExtractor.sol\":2479:2486  uint256 */\n      0x00\n        /* \"@redstone-finance/evm-connector/contracts/core/CalldataExtractor.sol\":2556:2583  bool hasValidRedstoneMarker */\n      dup1\n        /* \"@redstone-finance/evm-connector/contracts/core/CalldataExtractor.sol\":2666:2682  STANDARD_SLOT_BS */\n      0x20\n        /* \"@redstone-finance/evm-connector/contracts/core/CalldataExtractor.sol\":2650:2664  calldatasize() */\n      calldatasize\n        /* \"@redstone-finance/evm-connector/contracts/core/CalldataExtractor.sol\":2646:2683  sub(calldatasize(), STANDARD_SLOT_BS) */\n      sub\n        /* \"@redstone-finance/evm-connector/contracts/core/CalldataExtractor.sol\":2633:2684  calldataload(sub(calldatasize(), STANDARD_SLOT_BS)) */\n      calldataload\n        /* \"@redstone-finance/evm-connector/contracts/core/CalldataExtractor.sol\":2784:2804  REDSTONE_MARKER_MASK */\n      0x02ed57011e0000\n        /* \"@redstone-finance/evm-connector/contracts/core/CalldataExtractor.sol\":2763:2782  calldataLast32Bytes */\n      dup2\n        /* \"@redstone-finance/evm-connector/contracts/core/CalldataExtractor.sol\":2759:2805  and(calldataLast32Bytes, REDSTONE_MARKER_MASK) */\n      and\n        /* \"@redstone-finance/evm-connector/contracts/core/CalldataExtractor.sol\":2729:2749  REDSTONE_MARKER_MASK */\n      0x02ed57011e0000\n        /* \"@redstone-finance/evm-connector/contracts/core/CalldataExtractor.sol\":2717:2813  eq(... */\n      eq\n        /* \"@redstone-finance/evm-connector/contracts/core/CalldataExtractor.sol\":2691:2813  hasValidRedstoneMarker := eq(... */\n      swap2\n      pop\n        /* \"@redstone-finance/evm-connector/contracts/core/CalldataExtractor.sol\":2598:2819  {... */\n      pop\n        /* \"@redstone-finance/evm-connector/contracts/core/CalldataExtractor.sol\":2829:2851  hasValidRedstoneMarker */\n      dup1\n        /* \"@redstone-finance/evm-connector/contracts/core/CalldataExtractor.sol\":2824:2905  if (!hasValidRedstoneMarker) {... */\n      tag_71\n      jumpi\n        /* \"@redstone-finance/evm-connector/contracts/core/CalldataExtractor.sol\":2868:2898  CalldataMustHaveValidPayload() */\n      mload(0x40)\n      0xe7764c9e00000000000000000000000000000000000000000000000000000000\n      dup2\n      mstore\n      0x04\n      add\n      mload(0x40)\n      dup1\n      swap2\n      sub\n      swap1\n      revert\n        /* \"@redstone-finance/evm-connector/contracts/core/CalldataExtractor.sol\":2824:2905  if (!hasValidRedstoneMarker) {... */\n    tag_71:\n        /* \"@redstone-finance/evm-connector/contracts/core/CalldataExtractor.sol\":2987:3018  uint24 unsignedMetadataByteSize */\n      0x00\n        /* \"@redstone-finance/evm-connector/contracts/core/CalldataExtractor.sol\":3071:3079  msg.data */\n      dup1\n      calldatasize\n        /* \"@redstone-finance/evm-connector/contracts/core/CalldataExtractor.sol\":3071:3086  msg.data.length */\n      swap1\n      pop\n        /* \"@redstone-finance/evm-connector/contracts/core/RedstoneConstants.sol\":2230:2232  41 */\n      0x29\n        /* \"@redstone-finance/evm-connector/contracts/core/CalldataExtractor.sol\":3028:3086  REDSTONE_MARKER_BS_PLUS_STANDARD_SLOT_BS > msg.data.length */\n      gt\n        /* \"@redstone-finance/evm-connector/contracts/core/CalldataExtractor.sol\":3024:3135  if (REDSTONE_MARKER_BS_PLUS_STANDARD_SLOT_BS > msg.data.length) {... */\n      iszero\n      tag_72\n      jumpi\n        /* \"@redstone-finance/evm-connector/contracts/core/CalldataExtractor.sol\":3103:3128  CalldataOverOrUnderFlow() */\n      mload(0x40)\n      0x5796f78a00000000000000000000000000000000000000000000000000000000\n      dup2\n      mstore\n      0x04\n      add\n      mload(0x40)\n      dup1\n      swap2\n      sub\n      swap1\n      revert\n        /* \"@redstone-finance/evm-connector/contracts/core/CalldataExtractor.sol\":3024:3135  if (REDSTONE_MARKER_BS_PLUS_STANDARD_SLOT_BS > msg.data.length) {... */\n    tag_72:\n        /* \"@redstone-finance/evm-connector/contracts/core/CalldataExtractor.sol\":3227:3267  REDSTONE_MARKER_BS_PLUS_STANDARD_SLOT_BS */\n      0x29\n        /* \"@redstone-finance/evm-connector/contracts/core/CalldataExtractor.sol\":3211:3225  calldatasize() */\n      calldatasize\n        /* \"@redstone-finance/evm-connector/contracts/core/CalldataExtractor.sol\":3207:3268  sub(calldatasize(), REDSTONE_MARKER_BS_PLUS_STANDARD_SLOT_BS) */\n      sub\n        /* \"@redstone-finance/evm-connector/contracts/core/CalldataExtractor.sol\":3185:3276  calldataload(... */\n      calldataload\n        /* \"@redstone-finance/evm-connector/contracts/core/CalldataExtractor.sol\":3157:3276  unsignedMetadataByteSize := calldataload(... */\n      swap1\n      pop\n        /* \"@redstone-finance/evm-connector/contracts/core/CalldataExtractor.sol\":3287:3317  uint256 calldataNegativeOffset */\n      0x00\n        /* \"@redstone-finance/evm-connector/contracts/core/RedstoneConstants.sol\":1479:1480  9 */\n      0x09\n        /* \"@redstone-finance/evm-connector/contracts/core/RedstoneConstants.sol\":1427:1428  3 */\n      0x03\n        /* \"@redstone-finance/evm-connector/contracts/core/CalldataExtractor.sol\":3320:3344  unsignedMetadataByteSize */\n      dup4\n        /* \"@redstone-finance/evm-connector/contracts/core/CalldataExtractor.sol\":3320:3383  unsignedMetadataByteSize... */\n      0xffffff\n      and\n      tag_73\n      swap2\n      swap1\n      tag_52\n      jump\t// in\n    tag_73:\n        /* \"@redstone-finance/evm-connector/contracts/core/CalldataExtractor.sol\":3320:3410  unsignedMetadataByteSize... */\n      tag_74\n      swap2\n      swap1\n      tag_52\n      jump\t// in\n    tag_74:\n        /* \"@redstone-finance/evm-connector/contracts/core/CalldataExtractor.sol\":3287:3410  uint256 calldataNegativeOffset = unsignedMetadataByteSize... */\n      swap1\n      pop\n        /* \"@redstone-finance/evm-connector/contracts/core/CalldataExtractor.sol\":3470:3478  msg.data */\n      0x00\n      calldatasize\n        /* \"@redstone-finance/evm-connector/contracts/core/CalldataExtractor.sol\":3470:3485  msg.data.length */\n      swap1\n      pop\n        /* \"@redstone-finance/evm-connector/contracts/core/RedstoneConstants.sol\":1129:1130  2 */\n      0x02\n        /* \"@redstone-finance/evm-connector/contracts/core/CalldataExtractor.sol\":3420:3442  calldataNegativeOffset */\n      dup3\n        /* \"@redstone-finance/evm-connector/contracts/core/CalldataExtractor.sol\":3420:3467  calldataNegativeOffset + DATA_PACKAGES_COUNT_BS */\n      tag_75\n      swap2\n      swap1\n      tag_52\n      jump\t// in\n    tag_75:\n        /* \"@redstone-finance/evm-connector/contracts/core/CalldataExtractor.sol\":3420:3485  calldataNegativeOffset + DATA_PACKAGES_COUNT_BS > msg.data.length */\n      gt\n        /* \"@redstone-finance/evm-connector/contracts/core/CalldataExtractor.sol\":3416:3540  if (calldataNegativeOffset + DATA_PACKAGES_COUNT_BS > msg.data.length) {... */\n      iszero\n      tag_76\n      jumpi\n        /* \"@redstone-finance/evm-connector/contracts/core/CalldataExtractor.sol\":3502:3533  IncorrectUnsignedMetadataSize() */\n      mload(0x40)\n      0xc30a7bd700000000000000000000000000000000000000000000000000000000\n      dup2\n      mstore\n      0x04\n      add\n      mload(0x40)\n      dup1\n      swap2\n      sub\n      swap1\n      revert\n        /* \"@redstone-finance/evm-connector/contracts/core/CalldataExtractor.sol\":3416:3540  if (calldataNegativeOffset + DATA_PACKAGES_COUNT_BS > msg.data.length) {... */\n    tag_76:\n        /* \"@redstone-finance/evm-connector/contracts/core/CalldataExtractor.sol\":3552:3574  calldataNegativeOffset */\n      dup1\n        /* \"@redstone-finance/evm-connector/contracts/core/CalldataExtractor.sol\":3545:3574  return calldataNegativeOffset */\n      swap4\n      pop\n      pop\n      pop\n      pop\n        /* \"@redstone-finance/evm-connector/contracts/core/CalldataExtractor.sol\":2410:3579  function _extractByteSizeOfUnsignedMetadata() internal pure returns (uint256) {... */\n      swap1\n      jump\t// out\n        /* \"@redstone-finance/evm-connector/contracts/core/CalldataExtractor.sol\":3661:4273  function _extractDataPackagesCountFromCalldata(uint256 calldataNegativeOffset)... */\n    tag_44:\n        /* \"@redstone-finance/evm-connector/contracts/core/CalldataExtractor.sol\":3775:3799  uint16 dataPackagesCount */\n      0x00\n        /* \"@redstone-finance/evm-connector/contracts/core/CalldataExtractor.sol\":3801:3835  uint256 nextCalldataNegativeOffset */\n      dup1\n        /* \"@redstone-finance/evm-connector/contracts/core/CalldataExtractor.sol\":3845:3891  uint256 calldataNegativeOffsetWithStandardSlot */\n      0x00\n        /* \"@redstone-finance/evm-connector/contracts/core/RedstoneConstants.sol\":524:526  32 */\n      0x20\n        /* \"@redstone-finance/evm-connector/contracts/core/CalldataExtractor.sol\":3894:3916  calldataNegativeOffset */\n      dup5\n        /* \"@redstone-finance/evm-connector/contracts/core/CalldataExtractor.sol\":3894:3935  calldataNegativeOffset + STANDARD_SLOT_BS */\n      tag_78\n      swap2\n      swap1\n      tag_52\n      jump\t// in\n    tag_78:\n        /* \"@redstone-finance/evm-connector/contracts/core/CalldataExtractor.sol\":3845:3935  uint256 calldataNegativeOffsetWithStandardSlot = calldataNegativeOffset + STANDARD_SLOT_BS */\n      swap1\n      pop\n        /* \"@redstone-finance/evm-connector/contracts/core/CalldataExtractor.sol\":3986:3994  msg.data */\n      0x00\n      calldatasize\n        /* \"@redstone-finance/evm-connector/contracts/core/CalldataExtractor.sol\":3986:4001  msg.data.length */\n      swap1\n      pop\n        /* \"@redstone-finance/evm-connector/contracts/core/CalldataExtractor.sol\":3945:3983  calldataNegativeOffsetWithStandardSlot */\n      dup2\n        /* \"@redstone-finance/evm-connector/contracts/core/CalldataExtractor.sol\":3945:4001  calldataNegativeOffsetWithStandardSlot > msg.data.length */\n      gt\n        /* \"@redstone-finance/evm-connector/contracts/core/CalldataExtractor.sol\":3941:4050  if (calldataNegativeOffsetWithStandardSlot > msg.data.length) {... */\n      iszero\n      tag_79\n      jumpi\n        /* \"@redstone-finance/evm-connector/contracts/core/CalldataExtractor.sol\":4018:4043  CalldataOverOrUnderFlow() */\n      mload(0x40)\n      0x5796f78a00000000000000000000000000000000000000000000000000000000\n      dup2\n      mstore\n      0x04\n      add\n      mload(0x40)\n      dup1\n      swap2\n      sub\n      swap1\n      revert\n        /* \"@redstone-finance/evm-connector/contracts/core/CalldataExtractor.sol\":3941:4050  if (calldataNegativeOffsetWithStandardSlot > msg.data.length) {... */\n    tag_79:\n        /* \"@redstone-finance/evm-connector/contracts/core/CalldataExtractor.sol\":4135:4173  calldataNegativeOffsetWithStandardSlot */\n      dup1\n        /* \"@redstone-finance/evm-connector/contracts/core/CalldataExtractor.sol\":4119:4133  calldatasize() */\n      calldatasize\n        /* \"@redstone-finance/evm-connector/contracts/core/CalldataExtractor.sol\":4115:4174  sub(calldatasize(), calldataNegativeOffsetWithStandardSlot) */\n      sub\n        /* \"@redstone-finance/evm-connector/contracts/core/CalldataExtractor.sol\":4093:4182  calldataload(... */\n      calldataload\n        /* \"@redstone-finance/evm-connector/contracts/core/CalldataExtractor.sol\":4072:4182  dataPackagesCount := calldataload(... */\n      swap3\n      pop\n        /* \"@redstone-finance/evm-connector/contracts/core/CalldataExtractor.sol\":4201:4218  dataPackagesCount */\n      dup3\n        /* \"@redstone-finance/evm-connector/contracts/core/RedstoneConstants.sol\":1129:1130  2 */\n      0x02\n        /* \"@redstone-finance/evm-connector/contracts/core/CalldataExtractor.sol\":4220:4242  calldataNegativeOffset */\n      dup6\n        /* \"@redstone-finance/evm-connector/contracts/core/CalldataExtractor.sol\":4220:4267  calldataNegativeOffset + DATA_PACKAGES_COUNT_BS */\n      tag_80\n      swap2\n      swap1\n      tag_52\n      jump\t// in\n    tag_80:\n        /* \"@redstone-finance/evm-connector/contracts/core/CalldataExtractor.sol\":4193:4268  return (dataPackagesCount, calldataNegativeOffset + DATA_PACKAGES_COUNT_BS) */\n      swap3\n      pop\n      swap3\n      pop\n      pop\n        /* \"@redstone-finance/evm-connector/contracts/core/CalldataExtractor.sol\":3661:4273  function _extractDataPackagesCountFromCalldata(uint256 calldataNegativeOffset)... */\n      swap2\n      pop\n      swap2\n      jump\t// out\n        /* \"@redstone-finance/evm-connector/contracts/core/CalldataExtractor.sol\":2014:2406  function _getDataPackageByteSize(uint256 calldataNegativeOffset) internal pure returns (uint256) {... */\n    tag_50:\n        /* \"@redstone-finance/evm-connector/contracts/core/CalldataExtractor.sol\":2102:2109  uint256 */\n      0x00\n        /* \"@redstone-finance/evm-connector/contracts/core/CalldataExtractor.sol\":2125:2148  uint256 dataPointsCount */\n      dup1\n        /* \"@redstone-finance/evm-connector/contracts/core/CalldataExtractor.sol\":2156:2190  uint256 eachDataPointValueByteSize */\n      0x00\n        /* \"@redstone-finance/evm-connector/contracts/core/CalldataExtractor.sol\":2199:2262  _extractDataPointsDetailsForDataPackage(calldataNegativeOffset) */\n      tag_82\n        /* \"@redstone-finance/evm-connector/contracts/core/CalldataExtractor.sol\":2239:2261  calldataNegativeOffset */\n      dup5\n        /* \"@redstone-finance/evm-connector/contracts/core/CalldataExtractor.sol\":2199:2238  _extractDataPointsDetailsForDataPackage */\n      tag_83\n        /* \"@redstone-finance/evm-connector/contracts/core/CalldataExtractor.sol\":2199:2262  _extractDataPointsDetailsForDataPackage(calldataNegativeOffset) */\n      jump\t// in\n    tag_82:\n        /* \"@redstone-finance/evm-connector/contracts/core/CalldataExtractor.sol\":2117:2262  (... */\n      swap2\n      pop\n      swap2\n      pop\n        /* \"@redstone-finance/evm-connector/contracts/core/RedstoneConstants.sol\":1926:1928  78 */\n      0x4e\n        /* \"@redstone-finance/evm-connector/contracts/core/CalldataExtractor.sol\":2330:2356  eachDataPointValueByteSize */\n      dup2\n        /* \"@redstone-finance/evm-connector/contracts/core/RedstoneConstants.sol\":1300:1302  32 */\n      0x20\n        /* \"@redstone-finance/evm-connector/contracts/core/CalldataExtractor.sol\":2307:2356  DATA_POINT_SYMBOL_BS + eachDataPointValueByteSize */\n      tag_84\n      swap2\n      swap1\n      tag_52\n      jump\t// in\n    tag_84:\n        /* \"@redstone-finance/evm-connector/contracts/core/CalldataExtractor.sol\":2282:2297  dataPointsCount */\n      dup4\n        /* \"@redstone-finance/evm-connector/contracts/core/CalldataExtractor.sol\":2282:2357  dataPointsCount *... */\n      tag_85\n      swap2\n      swap1\n      tag_86\n      jump\t// in\n    tag_85:\n        /* \"@redstone-finance/evm-connector/contracts/core/CalldataExtractor.sol\":2282:2401  dataPointsCount *... */\n      tag_87\n      swap2\n      swap1\n      tag_52\n      jump\t// in\n    tag_87:\n        /* \"@redstone-finance/evm-connector/contracts/core/CalldataExtractor.sol\":2269:2401  return... */\n      swap3\n      pop\n      pop\n      pop\n        /* \"@redstone-finance/evm-connector/contracts/core/CalldataExtractor.sol\":2014:2406  function _getDataPackageByteSize(uint256 calldataNegativeOffset) internal pure returns (uint256) {... */\n      swap2\n      swap1\n      pop\n      jump\t// out\n        /* \"@redstone-finance/evm-connector/contracts/core/RedstoneDefaultsLib.sol\":1547:1681  function aggregateValues(uint256[] memory values) internal pure returns (uint256) {... */\n    tag_64:\n        /* \"@redstone-finance/evm-connector/contracts/core/RedstoneDefaultsLib.sol\":1620:1627  uint256 */\n      0x00\n        /* \"@redstone-finance/evm-connector/contracts/core/RedstoneDefaultsLib.sol\":1642:1676  NumericArrayLib.pickMedian(values) */\n      tag_89\n        /* \"@redstone-finance/evm-connector/contracts/core/RedstoneDefaultsLib.sol\":1669:1675  values */\n      dup3\n        /* \"@redstone-finance/evm-connector/contracts/core/RedstoneDefaultsLib.sol\":1642:1668  NumericArrayLib.pickMedian */\n      tag_90\n        /* \"@redstone-finance/evm-connector/contracts/core/RedstoneDefaultsLib.sol\":1642:1676  NumericArrayLib.pickMedian(values) */\n      jump\t// in\n    tag_89:\n        /* \"@redstone-finance/evm-connector/contracts/core/RedstoneDefaultsLib.sol\":1635:1676  return NumericArrayLib.pickMedian(values) */\n      swap1\n      pop\n        /* \"@redstone-finance/evm-connector/contracts/core/RedstoneDefaultsLib.sol\":1547:1681  function aggregateValues(uint256[] memory values) internal pure returns (uint256) {... */\n      swap2\n      swap1\n      pop\n      jump\t// out\n        /* \"@redstone-finance/evm-connector/contracts/core/RedstoneDefaultsLib.sol\":584:1543  function validateTimestamp(uint256 receivedTimestampMilliseconds) internal view {... */\n    tag_68:\n        /* \"@redstone-finance/evm-connector/contracts/core/RedstoneDefaultsLib.sol\":1030:1062  uint256 receivedTimestampSeconds */\n      0x00\n        /* \"@redstone-finance/evm-connector/contracts/core/RedstoneDefaultsLib.sol\":1097:1101  1000 */\n      0x03e8\n        /* \"@redstone-finance/evm-connector/contracts/core/RedstoneDefaultsLib.sol\":1065:1094  receivedTimestampMilliseconds */\n      dup3\n        /* \"@redstone-finance/evm-connector/contracts/core/RedstoneDefaultsLib.sol\":1065:1101  receivedTimestampMilliseconds / 1000 */\n      tag_92\n      swap2\n      swap1\n      tag_93\n      jump\t// in\n    tag_92:\n        /* \"@redstone-finance/evm-connector/contracts/core/RedstoneDefaultsLib.sol\":1030:1101  uint256 receivedTimestampSeconds = receivedTimestampMilliseconds / 1000 */\n      swap1\n      pop\n        /* \"@redstone-finance/evm-connector/contracts/core/RedstoneDefaultsLib.sol\":1130:1154  receivedTimestampSeconds */\n      dup1\n        /* \"@redstone-finance/evm-connector/contracts/core/RedstoneDefaultsLib.sol\":1112:1127  block.timestamp */\n      timestamp\n        /* \"@redstone-finance/evm-connector/contracts/core/RedstoneDefaultsLib.sol\":1112:1154  block.timestamp < receivedTimestampSeconds */\n      lt\n        /* \"@redstone-finance/evm-connector/contracts/core/RedstoneDefaultsLib.sol\":1108:1539  if (block.timestamp < receivedTimestampSeconds) {... */\n      iszero\n      tag_94\n      jumpi\n        /* \"@redstone-finance/evm-connector/contracts/core/RedstoneDefaultsLib.sol\":390:399  1 minutes */\n      0x3c\n        /* \"@redstone-finance/evm-connector/contracts/core/RedstoneDefaultsLib.sol\":1196:1211  block.timestamp */\n      timestamp\n        /* \"@redstone-finance/evm-connector/contracts/core/RedstoneDefaultsLib.sol\":1169:1193  receivedTimestampSeconds */\n      dup3\n        /* \"@redstone-finance/evm-connector/contracts/core/RedstoneDefaultsLib.sol\":1169:1211  receivedTimestampSeconds - block.timestamp */\n      tag_95\n      swap2\n      swap1\n      tag_54\n      jump\t// in\n    tag_95:\n        /* \"@redstone-finance/evm-connector/contracts/core/RedstoneDefaultsLib.sol\":1168:1255  (receivedTimestampSeconds - block.timestamp) > DEFAULT_MAX_DATA_TIMESTAMP_AHEAD_SECONDS */\n      gt\n        /* \"@redstone-finance/evm-connector/contracts/core/RedstoneDefaultsLib.sol\":1164:1352  if ((receivedTimestampSeconds - block.timestamp) > DEFAULT_MAX_DATA_TIMESTAMP_AHEAD_SECONDS) {... */\n      iszero\n      tag_96\n      jumpi\n        /* \"@redstone-finance/evm-connector/contracts/core/RedstoneDefaultsLib.sol\":1301:1325  receivedTimestampSeconds */\n      dup1\n        /* \"@redstone-finance/evm-connector/contracts/core/RedstoneDefaultsLib.sol\":1327:1342  block.timestamp */\n      timestamp\n        /* \"@redstone-finance/evm-connector/contracts/core/RedstoneDefaultsLib.sol\":1274:1343  TimestampFromTooLongFuture(receivedTimestampSeconds, block.timestamp) */\n      mload(0x40)\n      0xb6b0916d00000000000000000000000000000000000000000000000000000000\n      dup2\n      mstore\n      0x04\n      add\n      tag_97\n      swap3\n      swap2\n      swap1\n      tag_98\n      jump\t// in\n    tag_97:\n      mload(0x40)\n      dup1\n      swap2\n      sub\n      swap1\n      revert\n        /* \"@redstone-finance/evm-connector/contracts/core/RedstoneDefaultsLib.sol\":1164:1352  if ((receivedTimestampSeconds - block.timestamp) > DEFAULT_MAX_DATA_TIMESTAMP_AHEAD_SECONDS) {... */\n    tag_96:\n        /* \"@redstone-finance/evm-connector/contracts/core/RedstoneDefaultsLib.sol\":1108:1539  if (block.timestamp < receivedTimestampSeconds) {... */\n      jump(tag_99)\n    tag_94:\n        /* \"@redstone-finance/evm-connector/contracts/core/RedstoneDefaultsLib.sol\":317:326  3 minutes */\n      0xb4\n        /* \"@redstone-finance/evm-connector/contracts/core/RedstoneDefaultsLib.sol\":1387:1411  receivedTimestampSeconds */\n      dup2\n        /* \"@redstone-finance/evm-connector/contracts/core/RedstoneDefaultsLib.sol\":1369:1384  block.timestamp */\n      timestamp\n        /* \"@redstone-finance/evm-connector/contracts/core/RedstoneDefaultsLib.sol\":1369:1411  block.timestamp - receivedTimestampSeconds */\n      tag_100\n      swap2\n      swap1\n      tag_54\n      jump\t// in\n    tag_100:\n        /* \"@redstone-finance/evm-connector/contracts/core/RedstoneDefaultsLib.sol\":1368:1455  (block.timestamp - receivedTimestampSeconds) > DEFAULT_MAX_DATA_TIMESTAMP_DELAY_SECONDS */\n      gt\n        /* \"@redstone-finance/evm-connector/contracts/core/RedstoneDefaultsLib.sol\":1364:1539  if ((block.timestamp - receivedTimestampSeconds) > DEFAULT_MAX_DATA_TIMESTAMP_DELAY_SECONDS) {... */\n      iszero\n      tag_101\n      jumpi\n        /* \"@redstone-finance/evm-connector/contracts/core/RedstoneDefaultsLib.sol\":1490:1514  receivedTimestampSeconds */\n      dup1\n        /* \"@redstone-finance/evm-connector/contracts/core/RedstoneDefaultsLib.sol\":1516:1531  block.timestamp */\n      timestamp\n        /* \"@redstone-finance/evm-connector/contracts/core/RedstoneDefaultsLib.sol\":1472:1532  TimestampIsTooOld(receivedTimestampSeconds, block.timestamp) */\n      mload(0x40)\n      0x0321d0b500000000000000000000000000000000000000000000000000000000\n      dup2\n      mstore\n      0x04\n      add\n      tag_102\n      swap3\n      swap2\n      swap1\n      tag_98\n      jump\t// in\n    tag_102:\n      mload(0x40)\n      dup1\n      swap2\n      sub\n      swap1\n      revert\n        /* \"@redstone-finance/evm-connector/contracts/core/RedstoneDefaultsLib.sol\":1364:1539  if ((block.timestamp - receivedTimestampSeconds) > DEFAULT_MAX_DATA_TIMESTAMP_DELAY_SECONDS) {... */\n    tag_101:\n        /* \"@redstone-finance/evm-connector/contracts/core/RedstoneDefaultsLib.sol\":1108:1539  if (block.timestamp < receivedTimestampSeconds) {... */\n    tag_99:\n        /* \"@redstone-finance/evm-connector/contracts/core/RedstoneDefaultsLib.sol\":664:1543  {... */\n      pop\n        /* \"@redstone-finance/evm-connector/contracts/core/RedstoneDefaultsLib.sol\":584:1543  function validateTimestamp(uint256 receivedTimestampMilliseconds) internal view {... */\n      pop\n      jump\t// out\n        /* \"@redstone-finance/evm-connector/contracts/core/CalldataExtractor.sol\":4955:5916  function _extractDataPointsDetailsForDataPackage(uint256 calldataNegativeOffsetForDataPackage)... */\n    tag_83:\n        /* \"@redstone-finance/evm-connector/contracts/core/CalldataExtractor.sol\":5085:5108  uint256 dataPointsCount */\n      0x00\n        /* \"@redstone-finance/evm-connector/contracts/core/CalldataExtractor.sol\":5110:5144  uint256 eachDataPointValueByteSize */\n      dup1\n        /* \"@redstone-finance/evm-connector/contracts/core/CalldataExtractor.sol\":5230:5253  uint24 dataPointsCount_ */\n      0x00\n        /* \"@redstone-finance/evm-connector/contracts/core/CalldataExtractor.sol\":5328:5362  uint32 eachDataPointValueByteSize_ */\n      dup1\n        /* \"@redstone-finance/evm-connector/contracts/core/CalldataExtractor.sol\":5402:5424  uint256 calldataOffset */\n      0x00\n        /* \"@redstone-finance/evm-connector/contracts/core/RedstoneConstants.sol\":524:526  32 */\n      0x20\n        /* \"@redstone-finance/evm-connector/contracts/core/RedstoneConstants.sol\":1026:1028  65 */\n      0x41\n        /* \"@redstone-finance/evm-connector/contracts/core/CalldataExtractor.sol\":5446:5482  calldataNegativeOffsetForDataPackage */\n      dup8\n        /* \"@redstone-finance/evm-connector/contracts/core/CalldataExtractor.sol\":5446:5491  calldataNegativeOffsetForDataPackage + SIG_BS */\n      tag_104\n      swap2\n      swap1\n      tag_52\n      jump\t// in\n    tag_104:\n        /* \"@redstone-finance/evm-connector/contracts/core/CalldataExtractor.sol\":5446:5510  calldataNegativeOffsetForDataPackage + SIG_BS + STANDARD_SLOT_BS */\n      tag_105\n      swap2\n      swap1\n      tag_52\n      jump\t// in\n    tag_105:\n        /* \"@redstone-finance/evm-connector/contracts/core/CalldataExtractor.sol\":5427:5435  msg.data */\n      0x00\n      calldatasize\n        /* \"@redstone-finance/evm-connector/contracts/core/CalldataExtractor.sol\":5427:5442  msg.data.length */\n      swap1\n      pop\n        /* \"@redstone-finance/evm-connector/contracts/core/CalldataExtractor.sol\":5427:5511  msg.data.length - (calldataNegativeOffsetForDataPackage + SIG_BS + STANDARD_SLOT_BS) */\n      tag_106\n      swap2\n      swap1\n      tag_54\n      jump\t// in\n    tag_106:\n        /* \"@redstone-finance/evm-connector/contracts/core/CalldataExtractor.sol\":5402:5511  uint256 calldataOffset = msg.data.length - (calldataNegativeOffsetForDataPackage + SIG_BS + STANDARD_SLOT_BS) */\n      swap1\n      pop\n        /* \"@redstone-finance/evm-connector/contracts/core/CalldataExtractor.sol\":5567:5581  calldataOffset */\n      dup1\n        /* \"@redstone-finance/evm-connector/contracts/core/CalldataExtractor.sol\":5554:5582  calldataload(calldataOffset) */\n      calldataload\n        /* \"@redstone-finance/evm-connector/contracts/core/CalldataExtractor.sol\":5534:5582  dataPointsCount_ := calldataload(calldataOffset) */\n      swap3\n      pop\n        /* \"@redstone-finance/evm-connector/contracts/core/RedstoneConstants.sol\":1183:1184  3 */\n      0x03\n        /* \"@redstone-finance/evm-connector/contracts/core/CalldataExtractor.sol\":5653:5667  calldataOffset */\n      dup2\n        /* \"@redstone-finance/evm-connector/contracts/core/CalldataExtractor.sol\":5653:5690  calldataOffset - DATA_POINTS_COUNT_BS */\n      tag_107\n      swap2\n      swap1\n      tag_54\n      jump\t// in\n    tag_107:\n        /* \"@redstone-finance/evm-connector/contracts/core/CalldataExtractor.sol\":5636:5690  calldataOffset = calldataOffset - DATA_POINTS_COUNT_BS */\n      swap1\n      pop\n        /* \"@redstone-finance/evm-connector/contracts/core/CalldataExtractor.sol\":5757:5771  calldataOffset */\n      dup1\n        /* \"@redstone-finance/evm-connector/contracts/core/CalldataExtractor.sol\":5744:5772  calldataload(calldataOffset) */\n      calldataload\n        /* \"@redstone-finance/evm-connector/contracts/core/CalldataExtractor.sol\":5713:5772  eachDataPointValueByteSize_ := calldataload(calldataOffset) */\n      swap2\n      pop\n        /* \"@redstone-finance/evm-connector/contracts/core/CalldataExtractor.sol\":5833:5849  dataPointsCount_ */\n      dup3\n        /* \"@redstone-finance/evm-connector/contracts/core/CalldataExtractor.sol\":5815:5849  dataPointsCount = dataPointsCount_ */\n      0xffffff\n      and\n      swap5\n      pop\n        /* \"@redstone-finance/evm-connector/contracts/core/CalldataExtractor.sol\":5884:5911  eachDataPointValueByteSize_ */\n      dup2\n        /* \"@redstone-finance/evm-connector/contracts/core/CalldataExtractor.sol\":5855:5911  eachDataPointValueByteSize = eachDataPointValueByteSize_ */\n      0xffffffff\n      and\n      swap4\n      pop\n        /* \"@redstone-finance/evm-connector/contracts/core/CalldataExtractor.sol\":5148:5916  {... */\n      pop\n      pop\n      pop\n        /* \"@redstone-finance/evm-connector/contracts/core/CalldataExtractor.sol\":4955:5916  function _extractDataPointsDetailsForDataPackage(uint256 calldataNegativeOffsetForDataPackage)... */\n      swap2\n      pop\n      swap2\n      jump\t// out\n        /* \"@redstone-finance/evm-connector/contracts/libs/NumericArrayLib.sol\":389:836  function pickMedian(uint256[] memory arr) internal pure returns (uint256) {... */\n    tag_90:\n        /* \"@redstone-finance/evm-connector/contracts/libs/NumericArrayLib.sol\":454:461  uint256 */\n      0x00\n        /* \"@redstone-finance/evm-connector/contracts/libs/NumericArrayLib.sol\":487:488  2 */\n      0x02\n        /* \"@redstone-finance/evm-connector/contracts/libs/NumericArrayLib.sol\":473:476  arr */\n      dup3\n        /* \"@redstone-finance/evm-connector/contracts/libs/NumericArrayLib.sol\":473:483  arr.length */\n      mload\n        /* \"@redstone-finance/evm-connector/contracts/libs/NumericArrayLib.sol\":473:488  arr.length == 2 */\n      sub\n        /* \"@redstone-finance/evm-connector/contracts/libs/NumericArrayLib.sol\":469:533  if (arr.length == 2) {... */\n      tag_109\n      jumpi\n        /* \"@redstone-finance/evm-connector/contracts/libs/NumericArrayLib.sol\":525:526  2 */\n      0x02\n        /* \"@redstone-finance/evm-connector/contracts/libs/NumericArrayLib.sol\":515:518  arr */\n      dup3\n        /* \"@redstone-finance/evm-connector/contracts/libs/NumericArrayLib.sol\":519:520  1 */\n      0x01\n        /* \"@redstone-finance/evm-connector/contracts/libs/NumericArrayLib.sol\":515:521  arr[1] */\n      dup2\n      mload\n      dup2\n      lt\n      tag_110\n      jumpi\n      tag_111\n      tag_112\n      jump\t// in\n    tag_111:\n    tag_110:\n      0x20\n      mul\n      0x20\n      add\n      add\n      mload\n        /* \"@redstone-finance/evm-connector/contracts/libs/NumericArrayLib.sol\":506:509  arr */\n      dup4\n        /* \"@redstone-finance/evm-connector/contracts/libs/NumericArrayLib.sol\":510:511  0 */\n      0x00\n        /* \"@redstone-finance/evm-connector/contracts/libs/NumericArrayLib.sol\":506:512  arr[0] */\n      dup2\n      mload\n      dup2\n      lt\n      tag_113\n      jumpi\n      tag_114\n      tag_112\n      jump\t// in\n    tag_114:\n    tag_113:\n      0x20\n      mul\n      0x20\n      add\n      add\n      mload\n        /* \"@redstone-finance/evm-connector/contracts/libs/NumericArrayLib.sol\":506:521  arr[0] + arr[1] */\n      tag_115\n      swap2\n      swap1\n      tag_52\n      jump\t// in\n    tag_115:\n        /* \"@redstone-finance/evm-connector/contracts/libs/NumericArrayLib.sol\":505:526  (arr[0] + arr[1]) / 2 */\n      tag_116\n      swap2\n      swap1\n      tag_93\n      jump\t// in\n    tag_116:\n        /* \"@redstone-finance/evm-connector/contracts/libs/NumericArrayLib.sol\":498:526  return (arr[0] + arr[1]) / 2 */\n      swap1\n      pop\n      jump(tag_108)\n        /* \"@redstone-finance/evm-connector/contracts/libs/NumericArrayLib.sol\":469:533  if (arr.length == 2) {... */\n    tag_109:\n        /* \"@redstone-finance/evm-connector/contracts/libs/NumericArrayLib.sol\":556:557  0 */\n      0x00\n        /* \"@redstone-finance/evm-connector/contracts/libs/NumericArrayLib.sol\":542:545  arr */\n      dup3\n        /* \"@redstone-finance/evm-connector/contracts/libs/NumericArrayLib.sol\":542:552  arr.length */\n      mload\n        /* \"@redstone-finance/evm-connector/contracts/libs/NumericArrayLib.sol\":542:557  arr.length == 0 */\n      sub\n        /* \"@redstone-finance/evm-connector/contracts/libs/NumericArrayLib.sol\":538:611  if (arr.length == 0) {... */\n      tag_117\n      jumpi\n        /* \"@redstone-finance/evm-connector/contracts/libs/NumericArrayLib.sol\":574:604  CanNotPickMedianOfEmptyArray() */\n      mload(0x40)\n      0x9e198af900000000000000000000000000000000000000000000000000000000\n      dup2\n      mstore\n      0x04\n      add\n      mload(0x40)\n      dup1\n      swap2\n      sub\n      swap1\n      revert\n        /* \"@redstone-finance/evm-connector/contracts/libs/NumericArrayLib.sol\":538:611  if (arr.length == 0) {... */\n    tag_117:\n        /* \"@redstone-finance/evm-connector/contracts/libs/NumericArrayLib.sol\":616:625  sort(arr) */\n      tag_118\n        /* \"@redstone-finance/evm-connector/contracts/libs/NumericArrayLib.sol\":621:624  arr */\n      dup3\n        /* \"@redstone-finance/evm-connector/contracts/libs/NumericArrayLib.sol\":616:620  sort */\n      tag_119\n        /* \"@redstone-finance/evm-connector/contracts/libs/NumericArrayLib.sol\":616:625  sort(arr) */\n      jump\t// in\n    tag_118:\n        /* \"@redstone-finance/evm-connector/contracts/libs/NumericArrayLib.sol\":631:650  uint256 middleIndex */\n      0x00\n        /* \"@redstone-finance/evm-connector/contracts/libs/NumericArrayLib.sol\":666:667  2 */\n      0x02\n        /* \"@redstone-finance/evm-connector/contracts/libs/NumericArrayLib.sol\":653:656  arr */\n      dup4\n        /* \"@redstone-finance/evm-connector/contracts/libs/NumericArrayLib.sol\":653:663  arr.length */\n      mload\n        /* \"@redstone-finance/evm-connector/contracts/libs/NumericArrayLib.sol\":653:667  arr.length / 2 */\n      tag_120\n      swap2\n      swap1\n      tag_93\n      jump\t// in\n    tag_120:\n        /* \"@redstone-finance/evm-connector/contracts/libs/NumericArrayLib.sol\":631:667  uint256 middleIndex = arr.length / 2 */\n      swap1\n      pop\n        /* \"@redstone-finance/evm-connector/contracts/libs/NumericArrayLib.sol\":695:696  0 */\n      0x00\n        /* \"@redstone-finance/evm-connector/contracts/libs/NumericArrayLib.sol\":690:691  2 */\n      0x02\n        /* \"@redstone-finance/evm-connector/contracts/libs/NumericArrayLib.sol\":677:680  arr */\n      dup5\n        /* \"@redstone-finance/evm-connector/contracts/libs/NumericArrayLib.sol\":677:687  arr.length */\n      mload\n        /* \"@redstone-finance/evm-connector/contracts/libs/NumericArrayLib.sol\":677:691  arr.length % 2 */\n      tag_121\n      swap2\n      swap1\n      tag_122\n      jump\t// in\n    tag_121:\n        /* \"@redstone-finance/evm-connector/contracts/libs/NumericArrayLib.sol\":677:696  arr.length % 2 == 0 */\n      sub\n        /* \"@redstone-finance/evm-connector/contracts/libs/NumericArrayLib.sol\":673:832  if (arr.length % 2 == 0) {... */\n      tag_123\n      jumpi\n        /* \"@redstone-finance/evm-connector/contracts/libs/NumericArrayLib.sol\":706:717  uint256 sum */\n      0x00\n        /* \"@redstone-finance/evm-connector/contracts/libs/NumericArrayLib.sol\":743:746  arr */\n      dup4\n        /* \"@redstone-finance/evm-connector/contracts/libs/NumericArrayLib.sol\":747:758  middleIndex */\n      dup3\n        /* \"@redstone-finance/evm-connector/contracts/libs/NumericArrayLib.sol\":743:759  arr[middleIndex] */\n      dup2\n      mload\n      dup2\n      lt\n      tag_124\n      jumpi\n      tag_125\n      tag_112\n      jump\t// in\n    tag_125:\n    tag_124:\n      0x20\n      mul\n      0x20\n      add\n      add\n      mload\n        /* \"@redstone-finance/evm-connector/contracts/libs/NumericArrayLib.sol\":720:723  arr */\n      dup5\n        /* \"@redstone-finance/evm-connector/contracts/libs/NumericArrayLib.sol\":738:739  1 */\n      0x01\n        /* \"@redstone-finance/evm-connector/contracts/libs/NumericArrayLib.sol\":724:735  middleIndex */\n      dup5\n        /* \"@redstone-finance/evm-connector/contracts/libs/NumericArrayLib.sol\":724:739  middleIndex - 1 */\n      tag_126\n      swap2\n      swap1\n      tag_54\n      jump\t// in\n    tag_126:\n        /* \"@redstone-finance/evm-connector/contracts/libs/NumericArrayLib.sol\":720:740  arr[middleIndex - 1] */\n      dup2\n      mload\n      dup2\n      lt\n      tag_127\n      jumpi\n      tag_128\n      tag_112\n      jump\t// in\n    tag_128:\n    tag_127:\n      0x20\n      mul\n      0x20\n      add\n      add\n      mload\n        /* \"@redstone-finance/evm-connector/contracts/libs/NumericArrayLib.sol\":720:759  arr[middleIndex - 1] + arr[middleIndex] */\n      tag_129\n      swap2\n      swap1\n      tag_52\n      jump\t// in\n    tag_129:\n        /* \"@redstone-finance/evm-connector/contracts/libs/NumericArrayLib.sol\":706:759  uint256 sum = arr[middleIndex - 1] + arr[middleIndex] */\n      swap1\n      pop\n        /* \"@redstone-finance/evm-connector/contracts/libs/NumericArrayLib.sol\":780:781  2 */\n      0x02\n        /* \"@redstone-finance/evm-connector/contracts/libs/NumericArrayLib.sol\":774:777  sum */\n      dup2\n        /* \"@redstone-finance/evm-connector/contracts/libs/NumericArrayLib.sol\":774:781  sum / 2 */\n      tag_130\n      swap2\n      swap1\n      tag_93\n      jump\t// in\n    tag_130:\n        /* \"@redstone-finance/evm-connector/contracts/libs/NumericArrayLib.sol\":767:781  return sum / 2 */\n      swap3\n      pop\n      pop\n      pop\n      jump(tag_108)\n        /* \"@redstone-finance/evm-connector/contracts/libs/NumericArrayLib.sol\":673:832  if (arr.length % 2 == 0) {... */\n    tag_123:\n        /* \"@redstone-finance/evm-connector/contracts/libs/NumericArrayLib.sol\":809:812  arr */\n      dup3\n        /* \"@redstone-finance/evm-connector/contracts/libs/NumericArrayLib.sol\":813:824  middleIndex */\n      dup2\n        /* \"@redstone-finance/evm-connector/contracts/libs/NumericArrayLib.sol\":809:825  arr[middleIndex] */\n      dup2\n      mload\n      dup2\n      lt\n      tag_132\n      jumpi\n      tag_133\n      tag_112\n      jump\t// in\n    tag_133:\n    tag_132:\n      0x20\n      mul\n      0x20\n      add\n      add\n      mload\n        /* \"@redstone-finance/evm-connector/contracts/libs/NumericArrayLib.sol\":802:825  return arr[middleIndex] */\n      swap2\n      pop\n      pop\n        /* \"@redstone-finance/evm-connector/contracts/libs/NumericArrayLib.sol\":389:836  function pickMedian(uint256[] memory arr) internal pure returns (uint256) {... */\n    tag_108:\n      swap2\n      swap1\n      pop\n      jump\t// out\n        /* \"@redstone-finance/evm-connector/contracts/libs/NumericArrayLib.sol\":840:1590  function sort(uint256[] memory arr) internal pure {... */\n    tag_119:\n        /* \"@redstone-finance/evm-connector/contracts/libs/NumericArrayLib.sol\":936:939  arr */\n      dup1\n        /* \"@redstone-finance/evm-connector/contracts/libs/NumericArrayLib.sol\":930:940  mload(arr) */\n      mload\n        /* \"@redstone-finance/evm-connector/contracts/libs/NumericArrayLib.sol\":973:993  BYTES_ARR_LEN_VAR_BS */\n      0x20\n        /* \"@redstone-finance/evm-connector/contracts/libs/NumericArrayLib.sol\":968:971  arr */\n      dup3\n        /* \"@redstone-finance/evm-connector/contracts/libs/NumericArrayLib.sol\":964:994  add(arr, BYTES_ARR_LEN_VAR_BS) */\n      add\n        /* \"@redstone-finance/evm-connector/contracts/libs/NumericArrayLib.sol\":1045:1061  UINT256_VALUE_BS */\n      0x20\n        /* \"@redstone-finance/evm-connector/contracts/libs/NumericArrayLib.sol\":1034:1043  arrLength */\n      dup3\n        /* \"@redstone-finance/evm-connector/contracts/libs/NumericArrayLib.sol\":1030:1062  mul(arrLength, UINT256_VALUE_BS) */\n      mul\n        /* \"@redstone-finance/evm-connector/contracts/libs/NumericArrayLib.sol\":1019:1028  valuesPtr */\n      dup2\n        /* \"@redstone-finance/evm-connector/contracts/libs/NumericArrayLib.sol\":1015:1063  add(valuesPtr, mul(arrLength, UINT256_VALUE_BS)) */\n      add\n        /* \"@redstone-finance/evm-connector/contracts/libs/NumericArrayLib.sol\":1099:1108  valuesPtr */\n      dup2\n        /* \"@redstone-finance/evm-connector/contracts/libs/NumericArrayLib.sol\":1070:1580  for {... */\n    tag_135:\n        /* \"@redstone-finance/evm-connector/contracts/libs/NumericArrayLib.sol\":1129:1135  endPtr */\n      dup2\n        /* \"@redstone-finance/evm-connector/contracts/libs/NumericArrayLib.sol\":1120:1127  arrIPtr */\n      dup2\n        /* \"@redstone-finance/evm-connector/contracts/libs/NumericArrayLib.sol\":1117:1136  lt(arrIPtr, endPtr) */\n      lt\n        /* \"@redstone-finance/evm-connector/contracts/libs/NumericArrayLib.sol\":1070:1580  for {... */\n      iszero\n      tag_137\n      jumpi\n        /* \"@redstone-finance/evm-connector/contracts/libs/NumericArrayLib.sol\":1255:1264  valuesPtr */\n      dup3\n        /* \"@redstone-finance/evm-connector/contracts/libs/NumericArrayLib.sol\":1224:1572  for {... */\n    tag_138:\n        /* \"@redstone-finance/evm-connector/contracts/libs/NumericArrayLib.sol\":1287:1294  arrIPtr */\n      dup2\n        /* \"@redstone-finance/evm-connector/contracts/libs/NumericArrayLib.sol\":1278:1285  arrJPtr */\n      dup2\n        /* \"@redstone-finance/evm-connector/contracts/libs/NumericArrayLib.sol\":1275:1295  lt(arrJPtr, arrIPtr) */\n      lt\n        /* \"@redstone-finance/evm-connector/contracts/libs/NumericArrayLib.sol\":1224:1572  for {... */\n      iszero\n      tag_140\n      jumpi\n        /* \"@redstone-finance/evm-connector/contracts/libs/NumericArrayLib.sol\":1407:1414  arrIPtr */\n      dup2\n        /* \"@redstone-finance/evm-connector/contracts/libs/NumericArrayLib.sol\":1401:1415  mload(arrIPtr) */\n      mload\n        /* \"@redstone-finance/evm-connector/contracts/libs/NumericArrayLib.sol\":1444:1451  arrJPtr */\n      dup2\n        /* \"@redstone-finance/evm-connector/contracts/libs/NumericArrayLib.sol\":1438:1452  mload(arrJPtr) */\n      mload\n        /* \"@redstone-finance/evm-connector/contracts/libs/NumericArrayLib.sol\":1475:1479  arrJ */\n      dup1\n        /* \"@redstone-finance/evm-connector/contracts/libs/NumericArrayLib.sol\":1469:1473  arrI */\n      dup3\n        /* \"@redstone-finance/evm-connector/contracts/libs/NumericArrayLib.sol\":1466:1480  lt(arrI, arrJ) */\n      lt\n        /* \"@redstone-finance/evm-connector/contracts/libs/NumericArrayLib.sol\":1463:1562  if lt(arrI, arrJ) {... */\n      iszero\n      tag_141\n      jumpi\n        /* \"@redstone-finance/evm-connector/contracts/libs/NumericArrayLib.sol\":1511:1515  arrJ */\n      dup1\n        /* \"@redstone-finance/evm-connector/contracts/libs/NumericArrayLib.sol\":1502:1509  arrIPtr */\n      dup5\n        /* \"@redstone-finance/evm-connector/contracts/libs/NumericArrayLib.sol\":1495:1516  mstore(arrIPtr, arrJ) */\n      mstore\n        /* \"@redstone-finance/evm-connector/contracts/libs/NumericArrayLib.sol\":1545:1549  arrI */\n      dup2\n        /* \"@redstone-finance/evm-connector/contracts/libs/NumericArrayLib.sol\":1536:1543  arrJPtr */\n      dup4\n        /* \"@redstone-finance/evm-connector/contracts/libs/NumericArrayLib.sol\":1529:1550  mstore(arrJPtr, arrI) */\n      mstore\n        /* \"@redstone-finance/evm-connector/contracts/libs/NumericArrayLib.sol\":1463:1562  if lt(arrI, arrJ) {... */\n    tag_141:\n        /* \"@redstone-finance/evm-connector/contracts/libs/NumericArrayLib.sol\":1377:1572  {... */\n      pop\n      pop\n        /* \"@redstone-finance/evm-connector/contracts/libs/NumericArrayLib.sol\":1332:1348  UINT256_VALUE_BS */\n      0x20\n        /* \"@redstone-finance/evm-connector/contracts/libs/NumericArrayLib.sol\":1323:1330  arrJPtr */\n      dup2\n        /* \"@redstone-finance/evm-connector/contracts/libs/NumericArrayLib.sol\":1319:1349  add(arrJPtr, UINT256_VALUE_BS) */\n      add\n        /* \"@redstone-finance/evm-connector/contracts/libs/NumericArrayLib.sol\":1308:1349  arrJPtr := add(arrJPtr, UINT256_VALUE_BS) */\n      swap1\n      pop\n        /* \"@redstone-finance/evm-connector/contracts/libs/NumericArrayLib.sol\":1224:1572  for {... */\n      jump(tag_138)\n    tag_140:\n        /* \"@redstone-finance/evm-connector/contracts/libs/NumericArrayLib.sol\":1228:1274  {... */\n      pop\n        /* \"@redstone-finance/evm-connector/contracts/libs/NumericArrayLib.sol\":1171:1187  UINT256_VALUE_BS */\n      0x20\n        /* \"@redstone-finance/evm-connector/contracts/libs/NumericArrayLib.sol\":1162:1169  arrIPtr */\n      dup2\n        /* \"@redstone-finance/evm-connector/contracts/libs/NumericArrayLib.sol\":1158:1188  add(arrIPtr, UINT256_VALUE_BS) */\n      add\n        /* \"@redstone-finance/evm-connector/contracts/libs/NumericArrayLib.sol\":1147:1188  arrIPtr := add(arrIPtr, UINT256_VALUE_BS) */\n      swap1\n      pop\n        /* \"@redstone-finance/evm-connector/contracts/libs/NumericArrayLib.sol\":1070:1580  for {... */\n      jump(tag_135)\n    tag_137:\n        /* \"@redstone-finance/evm-connector/contracts/libs/NumericArrayLib.sol\":1074:1116  {... */\n      pop\n        /* \"@redstone-finance/evm-connector/contracts/libs/NumericArrayLib.sol\":905:1586  {... */\n      pop\n      pop\n      pop\n        /* \"@redstone-finance/evm-connector/contracts/libs/NumericArrayLib.sol\":840:1590  function sort(uint256[] memory arr) internal pure {... */\n      pop\n      jump\t// out\n        /* \"#utility.yul\":7:82   */\n    tag_142:\n        /* \"#utility.yul\":40:46   */\n      0x00\n        /* \"#utility.yul\":73:75   */\n      0x40\n        /* \"#utility.yul\":67:76   */\n      mload\n        /* \"#utility.yul\":57:76   */\n      swap1\n      pop\n        /* \"#utility.yul\":7:82   */\n      swap1\n      jump\t// out\n        /* \"#utility.yul\":88:205   */\n    tag_143:\n        /* \"#utility.yul\":197:198   */\n      0x00\n        /* \"#utility.yul\":194:195   */\n      dup1\n        /* \"#utility.yul\":187:199   */\n      revert\n        /* \"#utility.yul\":211:328   */\n    tag_144:\n        /* \"#utility.yul\":320:321   */\n      0x00\n        /* \"#utility.yul\":317:318   */\n      dup1\n        /* \"#utility.yul\":310:322   */\n      revert\n        /* \"#utility.yul\":334:460   */\n    tag_145:\n        /* \"#utility.yul\":371:378   */\n      0x00\n        /* \"#utility.yul\":411:453   */\n      0xffffffffffffffffffffffffffffffffffffffff\n        /* \"#utility.yul\":404:409   */\n      dup3\n        /* \"#utility.yul\":400:454   */\n      and\n        /* \"#utility.yul\":389:454   */\n      swap1\n      pop\n        /* \"#utility.yul\":334:460   */\n      swap2\n      swap1\n      pop\n      jump\t// out\n        /* \"#utility.yul\":466:562   */\n    tag_146:\n        /* \"#utility.yul\":503:510   */\n      0x00\n        /* \"#utility.yul\":532:556   */\n      tag_177\n        /* \"#utility.yul\":550:555   */\n      dup3\n        /* \"#utility.yul\":532:556   */\n      tag_145\n      jump\t// in\n    tag_177:\n        /* \"#utility.yul\":521:556   */\n      swap1\n      pop\n        /* \"#utility.yul\":466:562   */\n      swap2\n      swap1\n      pop\n      jump\t// out\n        /* \"#utility.yul\":568:690   */\n    tag_147:\n        /* \"#utility.yul\":641:665   */\n      tag_179\n        /* \"#utility.yul\":659:664   */\n      dup2\n        /* \"#utility.yul\":641:665   */\n      tag_146\n      jump\t// in\n    tag_179:\n        /* \"#utility.yul\":634:639   */\n      dup2\n        /* \"#utility.yul\":631:666   */\n      eq\n        /* \"#utility.yul\":621:684   */\n      tag_180\n      jumpi\n        /* \"#utility.yul\":680:681   */\n      0x00\n        /* \"#utility.yul\":677:678   */\n      dup1\n        /* \"#utility.yul\":670:682   */\n      revert\n        /* \"#utility.yul\":621:684   */\n    tag_180:\n        /* \"#utility.yul\":568:690   */\n      pop\n      jump\t// out\n        /* \"#utility.yul\":696:835   */\n    tag_148:\n        /* \"#utility.yul\":742:747   */\n      0x00\n        /* \"#utility.yul\":780:786   */\n      dup2\n        /* \"#utility.yul\":767:787   */\n      calldataload\n        /* \"#utility.yul\":758:787   */\n      swap1\n      pop\n        /* \"#utility.yul\":796:829   */\n      tag_182\n        /* \"#utility.yul\":823:828   */\n      dup2\n        /* \"#utility.yul\":796:829   */\n      tag_147\n      jump\t// in\n    tag_182:\n        /* \"#utility.yul\":696:835   */\n      swap3\n      swap2\n      pop\n      pop\n      jump\t// out\n        /* \"#utility.yul\":841:1170   */\n    tag_11:\n        /* \"#utility.yul\":900:906   */\n      0x00\n        /* \"#utility.yul\":949:951   */\n      0x20\n        /* \"#utility.yul\":937:946   */\n      dup3\n        /* \"#utility.yul\":928:935   */\n      dup5\n        /* \"#utility.yul\":924:947   */\n      sub\n        /* \"#utility.yul\":920:952   */\n      slt\n        /* \"#utility.yul\":917:1036   */\n      iszero\n      tag_184\n      jumpi\n        /* \"#utility.yul\":955:1034   */\n      tag_185\n      tag_143\n      jump\t// in\n    tag_185:\n        /* \"#utility.yul\":917:1036   */\n    tag_184:\n        /* \"#utility.yul\":1075:1076   */\n      0x00\n        /* \"#utility.yul\":1100:1153   */\n      tag_186\n        /* \"#utility.yul\":1145:1152   */\n      dup5\n        /* \"#utility.yul\":1136:1142   */\n      dup3\n        /* \"#utility.yul\":1125:1134   */\n      dup6\n        /* \"#utility.yul\":1121:1143   */\n      add\n        /* \"#utility.yul\":1100:1153   */\n      tag_148\n      jump\t// in\n    tag_186:\n        /* \"#utility.yul\":1090:1153   */\n      swap2\n      pop\n        /* \"#utility.yul\":1046:1163   */\n      pop\n        /* \"#utility.yul\":841:1170   */\n      swap3\n      swap2\n      pop\n      pop\n      jump\t// out\n        /* \"#utility.yul\":1176:1262   */\n    tag_149:\n        /* \"#utility.yul\":1211:1218   */\n      0x00\n        /* \"#utility.yul\":1251:1255   */\n      0xff\n        /* \"#utility.yul\":1244:1249   */\n      dup3\n        /* \"#utility.yul\":1240:1256   */\n      and\n        /* \"#utility.yul\":1229:1256   */\n      swap1\n      pop\n        /* \"#utility.yul\":1176:1262   */\n      swap2\n      swap1\n      pop\n      jump\t// out\n        /* \"#utility.yul\":1268:1380   */\n    tag_150:\n        /* \"#utility.yul\":1351:1373   */\n      tag_189\n        /* \"#utility.yul\":1367:1372   */\n      dup2\n        /* \"#utility.yul\":1351:1373   */\n      tag_149\n      jump\t// in\n    tag_189:\n        /* \"#utility.yul\":1346:1349   */\n      dup3\n        /* \"#utility.yul\":1339:1374   */\n      mstore\n        /* \"#utility.yul\":1268:1380   */\n      pop\n      pop\n      jump\t// out\n        /* \"#utility.yul\":1386:1600   */\n    tag_14:\n        /* \"#utility.yul\":1475:1479   */\n      0x00\n        /* \"#utility.yul\":1513:1515   */\n      0x20\n        /* \"#utility.yul\":1502:1511   */\n      dup3\n        /* \"#utility.yul\":1498:1516   */\n      add\n        /* \"#utility.yul\":1490:1516   */\n      swap1\n      pop\n        /* \"#utility.yul\":1526:1593   */\n      tag_191\n        /* \"#utility.yul\":1590:1591   */\n      0x00\n        /* \"#utility.yul\":1579:1588   */\n      dup4\n        /* \"#utility.yul\":1575:1592   */\n      add\n        /* \"#utility.yul\":1566:1572   */\n      dup5\n        /* \"#utility.yul\":1526:1593   */\n      tag_150\n      jump\t// in\n    tag_191:\n        /* \"#utility.yul\":1386:1600   */\n      swap3\n      swap2\n      pop\n      pop\n      jump\t// out\n        /* \"#utility.yul\":1606:1683   */\n    tag_151:\n        /* \"#utility.yul\":1643:1650   */\n      0x00\n        /* \"#utility.yul\":1672:1677   */\n      dup2\n        /* \"#utility.yul\":1661:1677   */\n      swap1\n      pop\n        /* \"#utility.yul\":1606:1683   */\n      swap2\n      swap1\n      pop\n      jump\t// out\n        /* \"#utility.yul\":1689:1807   */\n    tag_152:\n        /* \"#utility.yul\":1776:1800   */\n      tag_194\n        /* \"#utility.yul\":1794:1799   */\n      dup2\n        /* \"#utility.yul\":1776:1800   */\n      tag_151\n      jump\t// in\n    tag_194:\n        /* \"#utility.yul\":1771:1774   */\n      dup3\n        /* \"#utility.yul\":1764:1801   */\n      mstore\n        /* \"#utility.yul\":1689:1807   */\n      pop\n      pop\n      jump\t// out\n        /* \"#utility.yul\":1813:2035   */\n    tag_18:\n        /* \"#utility.yul\":1906:1910   */\n      0x00\n        /* \"#utility.yul\":1944:1946   */\n      0x20\n        /* \"#utility.yul\":1933:1942   */\n      dup3\n        /* \"#utility.yul\":1929:1947   */\n      add\n        /* \"#utility.yul\":1921:1947   */\n      swap1\n      pop\n        /* \"#utility.yul\":1957:2028   */\n      tag_196\n        /* \"#utility.yul\":2025:2026   */\n      0x00\n        /* \"#utility.yul\":2014:2023   */\n      dup4\n        /* \"#utility.yul\":2010:2027   */\n      add\n        /* \"#utility.yul\":2001:2007   */\n      dup5\n        /* \"#utility.yul\":1957:2028   */\n      tag_152\n      jump\t// in\n    tag_196:\n        /* \"#utility.yul\":1813:2035   */\n      swap3\n      swap2\n      pop\n      pop\n      jump\t// out\n        /* \"#utility.yul\":2041:2158   */\n    tag_153:\n        /* \"#utility.yul\":2150:2151   */\n      0x00\n        /* \"#utility.yul\":2147:2148   */\n      dup1\n        /* \"#utility.yul\":2140:2152   */\n      revert\n        /* \"#utility.yul\":2164:2266   */\n    tag_154:\n        /* \"#utility.yul\":2205:2211   */\n      0x00\n        /* \"#utility.yul\":2256:2258   */\n      0x1f\n        /* \"#utility.yul\":2252:2259   */\n      not\n        /* \"#utility.yul\":2247:2249   */\n      0x1f\n        /* \"#utility.yul\":2240:2245   */\n      dup4\n        /* \"#utility.yul\":2236:2250   */\n      add\n        /* \"#utility.yul\":2232:2260   */\n      and\n        /* \"#utility.yul\":2222:2260   */\n      swap1\n      pop\n        /* \"#utility.yul\":2164:2266   */\n      swap2\n      swap1\n      pop\n      jump\t// out\n        /* \"#utility.yul\":2272:2452   */\n    tag_155:\n        /* \"#utility.yul\":2320:2397   */\n      0x4e487b7100000000000000000000000000000000000000000000000000000000\n        /* \"#utility.yul\":2317:2318   */\n      0x00\n        /* \"#utility.yul\":2310:2398   */\n      mstore\n        /* \"#utility.yul\":2417:2421   */\n      0x41\n        /* \"#utility.yul\":2414:2415   */\n      0x04\n        /* \"#utility.yul\":2407:2422   */\n      mstore\n        /* \"#utility.yul\":2441:2445   */\n      0x24\n        /* \"#utility.yul\":2438:2439   */\n      0x00\n        /* \"#utility.yul\":2431:2446   */\n      revert\n        /* \"#utility.yul\":2458:2739   */\n    tag_156:\n        /* \"#utility.yul\":2541:2568   */\n      tag_201\n        /* \"#utility.yul\":2563:2567   */\n      dup3\n        /* \"#utility.yul\":2541:2568   */\n      tag_154\n      jump\t// in\n    tag_201:\n        /* \"#utility.yul\":2533:2539   */\n      dup2\n        /* \"#utility.yul\":2529:2569   */\n      add\n        /* \"#utility.yul\":2671:2677   */\n      dup2\n        /* \"#utility.yul\":2659:2669   */\n      dup2\n        /* \"#utility.yul\":2656:2678   */\n      lt\n        /* \"#utility.yul\":2635:2653   */\n      0xffffffffffffffff\n        /* \"#utility.yul\":2623:2633   */\n      dup3\n        /* \"#utility.yul\":2620:2654   */\n      gt\n        /* \"#utility.yul\":2617:2679   */\n      or\n        /* \"#utility.yul\":2614:2702   */\n      iszero\n      tag_202\n      jumpi\n        /* \"#utility.yul\":2682:2700   */\n      tag_203\n      tag_155\n      jump\t// in\n    tag_203:\n        /* \"#utility.yul\":2614:2702   */\n    tag_202:\n        /* \"#utility.yul\":2722:2732   */\n      dup1\n        /* \"#utility.yul\":2718:2720   */\n      0x40\n        /* \"#utility.yul\":2711:2733   */\n      mstore\n        /* \"#utility.yul\":2501:2739   */\n      pop\n        /* \"#utility.yul\":2458:2739   */\n      pop\n      pop\n      jump\t// out\n        /* \"#utility.yul\":2745:2874   */\n    tag_157:\n        /* \"#utility.yul\":2779:2785   */\n      0x00\n        /* \"#utility.yul\":2806:2826   */\n      tag_205\n      tag_142\n      jump\t// in\n    tag_205:\n        /* \"#utility.yul\":2796:2826   */\n      swap1\n      pop\n        /* \"#utility.yul\":2835:2868   */\n      tag_206\n        /* \"#utility.yul\":2863:2867   */\n      dup3\n        /* \"#utility.yul\":2855:2861   */\n      dup3\n        /* \"#utility.yul\":2835:2868   */\n      tag_156\n      jump\t// in\n    tag_206:\n        /* \"#utility.yul\":2745:2874   */\n      swap2\n      swap1\n      pop\n      jump\t// out\n        /* \"#utility.yul\":2880:3191   */\n    tag_158:\n        /* \"#utility.yul\":2957:2961   */\n      0x00\n        /* \"#utility.yul\":3047:3065   */\n      0xffffffffffffffff\n        /* \"#utility.yul\":3039:3045   */\n      dup3\n        /* \"#utility.yul\":3036:3066   */\n      gt\n        /* \"#utility.yul\":3033:3089   */\n      iszero\n      tag_208\n      jumpi\n        /* \"#utility.yul\":3069:3087   */\n      tag_209\n      tag_155\n      jump\t// in\n    tag_209:\n        /* \"#utility.yul\":3033:3089   */\n    tag_208:\n        /* \"#utility.yul\":3119:3123   */\n      0x20\n        /* \"#utility.yul\":3111:3117   */\n      dup3\n        /* \"#utility.yul\":3107:3124   */\n      mul\n        /* \"#utility.yul\":3099:3124   */\n      swap1\n      pop\n        /* \"#utility.yul\":3179:3183   */\n      0x20\n        /* \"#utility.yul\":3173:3177   */\n      dup2\n        /* \"#utility.yul\":3169:3184   */\n      add\n        /* \"#utility.yul\":3161:3184   */\n      swap1\n      pop\n        /* \"#utility.yul\":2880:3191   */\n      swap2\n      swap1\n      pop\n      jump\t// out\n        /* \"#utility.yul\":3197:3314   */\n    tag_159:\n        /* \"#utility.yul\":3306:3307   */\n      0x00\n        /* \"#utility.yul\":3303:3304   */\n      dup1\n        /* \"#utility.yul\":3296:3308   */\n      revert\n        /* \"#utility.yul\":3320:3442   */\n    tag_160:\n        /* \"#utility.yul\":3393:3417   */\n      tag_212\n        /* \"#utility.yul\":3411:3416   */\n      dup2\n        /* \"#utility.yul\":3393:3417   */\n      tag_151\n      jump\t// in\n    tag_212:\n        /* \"#utility.yul\":3386:3391   */\n      dup2\n        /* \"#utility.yul\":3383:3418   */\n      eq\n        /* \"#utility.yul\":3373:3436   */\n      tag_213\n      jumpi\n        /* \"#utility.yul\":3432:3433   */\n      0x00\n        /* \"#utility.yul\":3429:3430   */\n      dup1\n        /* \"#utility.yul\":3422:3434   */\n      revert\n        /* \"#utility.yul\":3373:3436   */\n    tag_213:\n        /* \"#utility.yul\":3320:3442   */\n      pop\n      jump\t// out\n        /* \"#utility.yul\":3448:3587   */\n    tag_161:\n        /* \"#utility.yul\":3494:3499   */\n      0x00\n        /* \"#utility.yul\":3532:3538   */\n      dup2\n        /* \"#utility.yul\":3519:3539   */\n      calldataload\n        /* \"#utility.yul\":3510:3539   */\n      swap1\n      pop\n        /* \"#utility.yul\":3548:3581   */\n      tag_215\n        /* \"#utility.yul\":3575:3580   */\n      dup2\n        /* \"#utility.yul\":3548:3581   */\n      tag_160\n      jump\t// in\n    tag_215:\n        /* \"#utility.yul\":3448:3587   */\n      swap3\n      swap2\n      pop\n      pop\n      jump\t// out\n        /* \"#utility.yul\":3610:4320   */\n    tag_162:\n        /* \"#utility.yul\":3706:3711   */\n      0x00\n        /* \"#utility.yul\":3731:3812   */\n      tag_217\n        /* \"#utility.yul\":3747:3811   */\n      tag_218\n        /* \"#utility.yul\":3804:3810   */\n      dup5\n        /* \"#utility.yul\":3747:3811   */\n      tag_158\n      jump\t// in\n    tag_218:\n        /* \"#utility.yul\":3731:3812   */\n      tag_157\n      jump\t// in\n    tag_217:\n        /* \"#utility.yul\":3722:3812   */\n      swap1\n      pop\n        /* \"#utility.yul\":3832:3837   */\n      dup1\n        /* \"#utility.yul\":3861:3867   */\n      dup4\n        /* \"#utility.yul\":3854:3859   */\n      dup3\n        /* \"#utility.yul\":3847:3868   */\n      mstore\n        /* \"#utility.yul\":3895:3899   */\n      0x20\n        /* \"#utility.yul\":3888:3893   */\n      dup3\n        /* \"#utility.yul\":3884:3900   */\n      add\n        /* \"#utility.yul\":3877:3900   */\n      swap1\n      pop\n        /* \"#utility.yul\":3948:3952   */\n      0x20\n        /* \"#utility.yul\":3940:3946   */\n      dup5\n        /* \"#utility.yul\":3936:3953   */\n      mul\n        /* \"#utility.yul\":3928:3934   */\n      dup4\n        /* \"#utility.yul\":3924:3954   */\n      add\n        /* \"#utility.yul\":3977:3980   */\n      dup6\n        /* \"#utility.yul\":3969:3975   */\n      dup2\n        /* \"#utility.yul\":3966:3981   */\n      gt\n        /* \"#utility.yul\":3963:4085   */\n      iszero\n      tag_219\n      jumpi\n        /* \"#utility.yul\":3996:4075   */\n      tag_220\n      tag_159\n      jump\t// in\n    tag_220:\n        /* \"#utility.yul\":3963:4085   */\n    tag_219:\n        /* \"#utility.yul\":4111:4117   */\n      dup4\n        /* \"#utility.yul\":4094:4314   */\n    tag_221:\n        /* \"#utility.yul\":4128:4134   */\n      dup2\n        /* \"#utility.yul\":4123:4126   */\n      dup2\n        /* \"#utility.yul\":4120:4135   */\n      lt\n        /* \"#utility.yul\":4094:4314   */\n      iszero\n      tag_223\n      jumpi\n        /* \"#utility.yul\":4203:4206   */\n      dup1\n        /* \"#utility.yul\":4232:4269   */\n      tag_224\n        /* \"#utility.yul\":4265:4268   */\n      dup9\n        /* \"#utility.yul\":4253:4263   */\n      dup3\n        /* \"#utility.yul\":4232:4269   */\n      tag_161\n      jump\t// in\n    tag_224:\n        /* \"#utility.yul\":4227:4230   */\n      dup5\n        /* \"#utility.yul\":4220:4270   */\n      mstore\n        /* \"#utility.yul\":4299:4303   */\n      0x20\n        /* \"#utility.yul\":4294:4297   */\n      dup5\n        /* \"#utility.yul\":4290:4304   */\n      add\n        /* \"#utility.yul\":4283:4304   */\n      swap4\n      pop\n        /* \"#utility.yul\":4170:4314   */\n      pop\n        /* \"#utility.yul\":4154:4158   */\n      0x20\n        /* \"#utility.yul\":4149:4152   */\n      dup2\n        /* \"#utility.yul\":4145:4159   */\n      add\n        /* \"#utility.yul\":4138:4159   */\n      swap1\n      pop\n        /* \"#utility.yul\":4094:4314   */\n      jump(tag_221)\n    tag_223:\n        /* \"#utility.yul\":4098:4119   */\n      pop\n        /* \"#utility.yul\":3712:4320   */\n      pop\n      pop\n        /* \"#utility.yul\":3610:4320   */\n      swap4\n      swap3\n      pop\n      pop\n      pop\n      jump\t// out\n        /* \"#utility.yul\":4343:4713   */\n    tag_163:\n        /* \"#utility.yul\":4414:4419   */\n      0x00\n        /* \"#utility.yul\":4463:4466   */\n      dup3\n        /* \"#utility.yul\":4456:4460   */\n      0x1f\n        /* \"#utility.yul\":4448:4454   */\n      dup4\n        /* \"#utility.yul\":4444:4461   */\n      add\n        /* \"#utility.yul\":4440:4467   */\n      slt\n        /* \"#utility.yul\":4430:4552   */\n      tag_226\n      jumpi\n        /* \"#utility.yul\":4471:4550   */\n      tag_227\n      tag_153\n      jump\t// in\n    tag_227:\n        /* \"#utility.yul\":4430:4552   */\n    tag_226:\n        /* \"#utility.yul\":4588:4594   */\n      dup2\n        /* \"#utility.yul\":4575:4595   */\n      calldataload\n        /* \"#utility.yul\":4613:4707   */\n      tag_228\n        /* \"#utility.yul\":4703:4706   */\n      dup5\n        /* \"#utility.yul\":4695:4701   */\n      dup3\n        /* \"#utility.yul\":4688:4692   */\n      0x20\n        /* \"#utility.yul\":4680:4686   */\n      dup7\n        /* \"#utility.yul\":4676:4693   */\n      add\n        /* \"#utility.yul\":4613:4707   */\n      tag_162\n      jump\t// in\n    tag_228:\n        /* \"#utility.yul\":4604:4707   */\n      swap2\n      pop\n        /* \"#utility.yul\":4420:4713   */\n      pop\n        /* \"#utility.yul\":4343:4713   */\n      swap3\n      swap2\n      pop\n      pop\n      jump\t// out\n        /* \"#utility.yul\":4719:5258   */\n    tag_21:\n        /* \"#utility.yul\":4803:4809   */\n      0x00\n        /* \"#utility.yul\":4852:4854   */\n      0x20\n        /* \"#utility.yul\":4840:4849   */\n      dup3\n        /* \"#utility.yul\":4831:4838   */\n      dup5\n        /* \"#utility.yul\":4827:4850   */\n      sub\n        /* \"#utility.yul\":4823:4855   */\n      slt\n        /* \"#utility.yul\":4820:4939   */\n      iszero\n      tag_230\n      jumpi\n        /* \"#utility.yul\":4858:4937   */\n      tag_231\n      tag_143\n      jump\t// in\n    tag_231:\n        /* \"#utility.yul\":4820:4939   */\n    tag_230:\n        /* \"#utility.yul\":5006:5007   */\n      0x00\n        /* \"#utility.yul\":4995:5004   */\n      dup3\n        /* \"#utility.yul\":4991:5008   */\n      add\n        /* \"#utility.yul\":4978:5009   */\n      calldataload\n        /* \"#utility.yul\":5036:5054   */\n      0xffffffffffffffff\n        /* \"#utility.yul\":5028:5034   */\n      dup2\n        /* \"#utility.yul\":5025:5055   */\n      gt\n        /* \"#utility.yul\":5022:5139   */\n      iszero\n      tag_232\n      jumpi\n        /* \"#utility.yul\":5058:5137   */\n      tag_233\n      tag_144\n      jump\t// in\n    tag_233:\n        /* \"#utility.yul\":5022:5139   */\n    tag_232:\n        /* \"#utility.yul\":5163:5241   */\n      tag_234\n        /* \"#utility.yul\":5233:5240   */\n      dup5\n        /* \"#utility.yul\":5224:5230   */\n      dup3\n        /* \"#utility.yul\":5213:5222   */\n      dup6\n        /* \"#utility.yul\":5209:5231   */\n      add\n        /* \"#utility.yul\":5163:5241   */\n      tag_163\n      jump\t// in\n    tag_234:\n        /* \"#utility.yul\":5153:5241   */\n      swap2\n      pop\n        /* \"#utility.yul\":4949:5251   */\n      pop\n        /* \"#utility.yul\":4719:5258   */\n      swap3\n      swap2\n      pop\n      pop\n      jump\t// out\n        /* \"#utility.yul\":5264:5363   */\n    tag_164:\n        /* \"#utility.yul\":5316:5322   */\n      0x00\n        /* \"#utility.yul\":5350:5355   */\n      dup2\n        /* \"#utility.yul\":5344:5356   */\n      mload\n        /* \"#utility.yul\":5334:5356   */\n      swap1\n      pop\n        /* \"#utility.yul\":5264:5363   */\n      swap2\n      swap1\n      pop\n      jump\t// out\n        /* \"#utility.yul\":5369:5538   */\n    tag_165:\n        /* \"#utility.yul\":5453:5464   */\n      0x00\n        /* \"#utility.yul\":5487:5493   */\n      dup3\n        /* \"#utility.yul\":5482:5485   */\n      dup3\n        /* \"#utility.yul\":5475:5494   */\n      mstore\n        /* \"#utility.yul\":5527:5531   */\n      0x20\n        /* \"#utility.yul\":5522:5525   */\n      dup3\n        /* \"#utility.yul\":5518:5532   */\n      add\n        /* \"#utility.yul\":5503:5532   */\n      swap1\n      pop\n        /* \"#utility.yul\":5369:5538   */\n      swap3\n      swap2\n      pop\n      pop\n      jump\t// out\n        /* \"#utility.yul\":5544:5790   */\n    tag_166:\n        /* \"#utility.yul\":5625:5626   */\n      0x00\n        /* \"#utility.yul\":5635:5748   */\n    tag_238:\n        /* \"#utility.yul\":5649:5655   */\n      dup4\n        /* \"#utility.yul\":5646:5647   */\n      dup2\n        /* \"#utility.yul\":5643:5656   */\n      lt\n        /* \"#utility.yul\":5635:5748   */\n      iszero\n      tag_240\n      jumpi\n        /* \"#utility.yul\":5734:5735   */\n      dup1\n        /* \"#utility.yul\":5729:5732   */\n      dup3\n        /* \"#utility.yul\":5725:5736   */\n      add\n        /* \"#utility.yul\":5719:5737   */\n      mload\n        /* \"#utility.yul\":5715:5716   */\n      dup2\n        /* \"#utility.yul\":5710:5713   */\n      dup5\n        /* \"#utility.yul\":5706:5717   */\n      add\n        /* \"#utility.yul\":5699:5738   */\n      mstore\n        /* \"#utility.yul\":5671:5673   */\n      0x20\n        /* \"#utility.yul\":5668:5669   */\n      dup2\n        /* \"#utility.yul\":5664:5674   */\n      add\n        /* \"#utility.yul\":5659:5674   */\n      swap1\n      pop\n        /* \"#utility.yul\":5635:5748   */\n      jump(tag_238)\n    tag_240:\n        /* \"#utility.yul\":5782:5783   */\n      0x00\n        /* \"#utility.yul\":5773:5779   */\n      dup5\n        /* \"#utility.yul\":5768:5771   */\n      dup5\n        /* \"#utility.yul\":5764:5780   */\n      add\n        /* \"#utility.yul\":5757:5784   */\n      mstore\n        /* \"#utility.yul\":5606:5790   */\n      pop\n        /* \"#utility.yul\":5544:5790   */\n      pop\n      pop\n      pop\n      jump\t// out\n        /* \"#utility.yul\":5796:6173   */\n    tag_167:\n        /* \"#utility.yul\":5884:5887   */\n      0x00\n        /* \"#utility.yul\":5912:5951   */\n      tag_242\n        /* \"#utility.yul\":5945:5950   */\n      dup3\n        /* \"#utility.yul\":5912:5951   */\n      tag_164\n      jump\t// in\n    tag_242:\n        /* \"#utility.yul\":5967:6038   */\n      tag_243\n        /* \"#utility.yul\":6031:6037   */\n      dup2\n        /* \"#utility.yul\":6026:6029   */\n      dup6\n        /* \"#utility.yul\":5967:6038   */\n      tag_165\n      jump\t// in\n    tag_243:\n        /* \"#utility.yul\":5960:6038   */\n      swap4\n      pop\n        /* \"#utility.yul\":6047:6112   */\n      tag_244\n        /* \"#utility.yul\":6105:6111   */\n      dup2\n        /* \"#utility.yul\":6100:6103   */\n      dup6\n        /* \"#utility.yul\":6093:6097   */\n      0x20\n        /* \"#utility.yul\":6086:6091   */\n      dup7\n        /* \"#utility.yul\":6082:6098   */\n      add\n        /* \"#utility.yul\":6047:6112   */\n      tag_166\n      jump\t// in\n    tag_244:\n        /* \"#utility.yul\":6137:6166   */\n      tag_245\n        /* \"#utility.yul\":6159:6165   */\n      dup2\n        /* \"#utility.yul\":6137:6166   */\n      tag_154\n      jump\t// in\n    tag_245:\n        /* \"#utility.yul\":6132:6135   */\n      dup5\n        /* \"#utility.yul\":6128:6167   */\n      add\n        /* \"#utility.yul\":6121:6167   */\n      swap2\n      pop\n        /* \"#utility.yul\":5888:6173   */\n      pop\n        /* \"#utility.yul\":5796:6173   */\n      swap3\n      swap2\n      pop\n      pop\n      jump\t// out\n        /* \"#utility.yul\":6179:6492   */\n    tag_27:\n        /* \"#utility.yul\":6292:6296   */\n      0x00\n        /* \"#utility.yul\":6330:6332   */\n      0x20\n        /* \"#utility.yul\":6319:6328   */\n      dup3\n        /* \"#utility.yul\":6315:6333   */\n      add\n        /* \"#utility.yul\":6307:6333   */\n      swap1\n      pop\n        /* \"#utility.yul\":6379:6388   */\n      dup2\n        /* \"#utility.yul\":6373:6377   */\n      dup2\n        /* \"#utility.yul\":6369:6389   */\n      sub\n        /* \"#utility.yul\":6365:6366   */\n      0x00\n        /* \"#utility.yul\":6354:6363   */\n      dup4\n        /* \"#utility.yul\":6350:6367   */\n      add\n        /* \"#utility.yul\":6343:6390   */\n      mstore\n        /* \"#utility.yul\":6407:6485   */\n      tag_247\n        /* \"#utility.yul\":6480:6484   */\n      dup2\n        /* \"#utility.yul\":6471:6477   */\n      dup5\n        /* \"#utility.yul\":6407:6485   */\n      tag_167\n      jump\t// in\n    tag_247:\n        /* \"#utility.yul\":6399:6485   */\n      swap1\n      pop\n        /* \"#utility.yul\":6179:6492   */\n      swap3\n      swap2\n      pop\n      pop\n      jump\t// out\n        /* \"#utility.yul\":6498:6827   */\n    tag_30:\n        /* \"#utility.yul\":6557:6563   */\n      0x00\n        /* \"#utility.yul\":6606:6608   */\n      0x20\n        /* \"#utility.yul\":6594:6603   */\n      dup3\n        /* \"#utility.yul\":6585:6592   */\n      dup5\n        /* \"#utility.yul\":6581:6604   */\n      sub\n        /* \"#utility.yul\":6577:6609   */\n      slt\n        /* \"#utility.yul\":6574:6693   */\n      iszero\n      tag_249\n      jumpi\n        /* \"#utility.yul\":6612:6691   */\n      tag_250\n      tag_143\n      jump\t// in\n    tag_250:\n        /* \"#utility.yul\":6574:6693   */\n    tag_249:\n        /* \"#utility.yul\":6732:6733   */\n      0x00\n        /* \"#utility.yul\":6757:6810   */\n      tag_251\n        /* \"#utility.yul\":6802:6809   */\n      dup5\n        /* \"#utility.yul\":6793:6799   */\n      dup3\n        /* \"#utility.yul\":6782:6791   */\n      dup6\n        /* \"#utility.yul\":6778:6800   */\n      add\n        /* \"#utility.yul\":6757:6810   */\n      tag_161\n      jump\t// in\n    tag_251:\n        /* \"#utility.yul\":6747:6810   */\n      swap2\n      pop\n        /* \"#utility.yul\":6703:6820   */\n      pop\n        /* \"#utility.yul\":6498:6827   */\n      swap3\n      swap2\n      pop\n      pop\n      jump\t// out\n        /* \"#utility.yul\":6833:6951   */\n    tag_168:\n        /* \"#utility.yul\":6920:6944   */\n      tag_253\n        /* \"#utility.yul\":6938:6943   */\n      dup2\n        /* \"#utility.yul\":6920:6944   */\n      tag_146\n      jump\t// in\n    tag_253:\n        /* \"#utility.yul\":6915:6918   */\n      dup3\n        /* \"#utility.yul\":6908:6945   */\n      mstore\n        /* \"#utility.yul\":6833:6951   */\n      pop\n      pop\n      jump\t// out\n        /* \"#utility.yul\":6957:7179   */\n    tag_39:\n        /* \"#utility.yul\":7050:7054   */\n      0x00\n        /* \"#utility.yul\":7088:7090   */\n      0x20\n        /* \"#utility.yul\":7077:7086   */\n      dup3\n        /* \"#utility.yul\":7073:7091   */\n      add\n        /* \"#utility.yul\":7065:7091   */\n      swap1\n      pop\n        /* \"#utility.yul\":7101:7172   */\n      tag_255\n        /* \"#utility.yul\":7169:7170   */\n      0x00\n        /* \"#utility.yul\":7158:7167   */\n      dup4\n        /* \"#utility.yul\":7154:7171   */\n      add\n        /* \"#utility.yul\":7145:7151   */\n      dup5\n        /* \"#utility.yul\":7101:7172   */\n      tag_168\n      jump\t// in\n    tag_255:\n        /* \"#utility.yul\":6957:7179   */\n      swap3\n      swap2\n      pop\n      pop\n      jump\t// out\n        /* \"#utility.yul\":7185:7365   */\n    tag_169:\n        /* \"#utility.yul\":7233:7310   */\n      0x4e487b7100000000000000000000000000000000000000000000000000000000\n        /* \"#utility.yul\":7230:7231   */\n      0x00\n        /* \"#utility.yul\":7223:7311   */\n      mstore\n        /* \"#utility.yul\":7330:7334   */\n      0x11\n        /* \"#utility.yul\":7327:7328   */\n      0x04\n        /* \"#utility.yul\":7320:7335   */\n      mstore\n        /* \"#utility.yul\":7354:7358   */\n      0x24\n        /* \"#utility.yul\":7351:7352   */\n      0x00\n        /* \"#utility.yul\":7344:7359   */\n      revert\n        /* \"#utility.yul\":7371:7562   */\n    tag_52:\n        /* \"#utility.yul\":7411:7414   */\n      0x00\n        /* \"#utility.yul\":7430:7450   */\n      tag_258\n        /* \"#utility.yul\":7448:7449   */\n      dup3\n        /* \"#utility.yul\":7430:7450   */\n      tag_151\n      jump\t// in\n    tag_258:\n        /* \"#utility.yul\":7425:7450   */\n      swap2\n      pop\n        /* \"#utility.yul\":7464:7484   */\n      tag_259\n        /* \"#utility.yul\":7482:7483   */\n      dup4\n        /* \"#utility.yul\":7464:7484   */\n      tag_151\n      jump\t// in\n    tag_259:\n        /* \"#utility.yul\":7459:7484   */\n      swap3\n      pop\n        /* \"#utility.yul\":7507:7508   */\n      dup3\n        /* \"#utility.yul\":7504:7505   */\n      dup3\n        /* \"#utility.yul\":7500:7509   */\n      add\n        /* \"#utility.yul\":7493:7509   */\n      swap1\n      pop\n        /* \"#utility.yul\":7528:7531   */\n      dup1\n        /* \"#utility.yul\":7525:7526   */\n      dup3\n        /* \"#utility.yul\":7522:7532   */\n      gt\n        /* \"#utility.yul\":7519:7555   */\n      iszero\n      tag_260\n      jumpi\n        /* \"#utility.yul\":7535:7553   */\n      tag_261\n      tag_169\n      jump\t// in\n    tag_261:\n        /* \"#utility.yul\":7519:7555   */\n    tag_260:\n        /* \"#utility.yul\":7371:7562   */\n      swap3\n      swap2\n      pop\n      pop\n      jump\t// out\n        /* \"#utility.yul\":7568:7762   */\n    tag_54:\n        /* \"#utility.yul\":7608:7612   */\n      0x00\n        /* \"#utility.yul\":7628:7648   */\n      tag_263\n        /* \"#utility.yul\":7646:7647   */\n      dup3\n        /* \"#utility.yul\":7628:7648   */\n      tag_151\n      jump\t// in\n    tag_263:\n        /* \"#utility.yul\":7623:7648   */\n      swap2\n      pop\n        /* \"#utility.yul\":7662:7682   */\n      tag_264\n        /* \"#utility.yul\":7680:7681   */\n      dup4\n        /* \"#utility.yul\":7662:7682   */\n      tag_151\n      jump\t// in\n    tag_264:\n        /* \"#utility.yul\":7657:7682   */\n      swap3\n      pop\n        /* \"#utility.yul\":7706:7707   */\n      dup3\n        /* \"#utility.yul\":7703:7704   */\n      dup3\n        /* \"#utility.yul\":7699:7708   */\n      sub\n        /* \"#utility.yul\":7691:7708   */\n      swap1\n      pop\n        /* \"#utility.yul\":7730:7731   */\n      dup2\n        /* \"#utility.yul\":7724:7728   */\n      dup2\n        /* \"#utility.yul\":7721:7732   */\n      gt\n        /* \"#utility.yul\":7718:7755   */\n      iszero\n      tag_265\n      jumpi\n        /* \"#utility.yul\":7735:7753   */\n      tag_266\n      tag_169\n      jump\t// in\n    tag_266:\n        /* \"#utility.yul\":7718:7755   */\n    tag_265:\n        /* \"#utility.yul\":7568:7762   */\n      swap3\n      swap2\n      pop\n      pop\n      jump\t// out\n        /* \"#utility.yul\":7768:8001   */\n    tag_61:\n        /* \"#utility.yul\":7807:7810   */\n      0x00\n        /* \"#utility.yul\":7830:7854   */\n      tag_268\n        /* \"#utility.yul\":7848:7853   */\n      dup3\n        /* \"#utility.yul\":7830:7854   */\n      tag_151\n      jump\t// in\n    tag_268:\n        /* \"#utility.yul\":7821:7854   */\n      swap2\n      pop\n        /* \"#utility.yul\":7876:7942   */\n      0xffffffffffffffffffffffffffffffffffffffffffffffffffffffffffffffff\n        /* \"#utility.yul\":7869:7874   */\n      dup3\n        /* \"#utility.yul\":7866:7943   */\n      sub\n        /* \"#utility.yul\":7863:7966   */\n      tag_269\n      jumpi\n        /* \"#utility.yul\":7946:7964   */\n      tag_270\n      tag_169\n      jump\t// in\n    tag_270:\n        /* \"#utility.yul\":7863:7966   */\n    tag_269:\n        /* \"#utility.yul\":7993:7994   */\n      0x01\n        /* \"#utility.yul\":7986:7991   */\n      dup3\n        /* \"#utility.yul\":7982:7995   */\n      add\n        /* \"#utility.yul\":7975:7995   */\n      swap1\n      pop\n        /* \"#utility.yul\":7768:8001   */\n      swap2\n      swap1\n      pop\n      jump\t// out\n        /* \"#utility.yul\":8007:8417   */\n    tag_86:\n        /* \"#utility.yul\":8047:8054   */\n      0x00\n        /* \"#utility.yul\":8070:8090   */\n      tag_272\n        /* \"#utility.yul\":8088:8089   */\n      dup3\n        /* \"#utility.yul\":8070:8090   */\n      tag_151\n      jump\t// in\n    tag_272:\n        /* \"#utility.yul\":8065:8090   */\n      swap2\n      pop\n        /* \"#utility.yul\":8104:8124   */\n      tag_273\n        /* \"#utility.yul\":8122:8123   */\n      dup4\n        /* \"#utility.yul\":8104:8124   */\n      tag_151\n      jump\t// in\n    tag_273:\n        /* \"#utility.yul\":8099:8124   */\n      swap3\n      pop\n        /* \"#utility.yul\":8159:8160   */\n      dup3\n        /* \"#utility.yul\":8156:8157   */\n      dup3\n        /* \"#utility.yul\":8152:8161   */\n      mul\n        /* \"#utility.yul\":8181:8211   */\n      tag_274\n        /* \"#utility.yul\":8199:8210   */\n      dup2\n        /* \"#utility.yul\":8181:8211   */\n      tag_151\n      jump\t// in\n    tag_274:\n        /* \"#utility.yul\":8170:8211   */\n      swap2\n      pop\n        /* \"#utility.yul\":8360:8361   */\n      dup3\n        /* \"#utility.yul\":8351:8358   */\n      dup3\n        /* \"#utility.yul\":8347:8362   */\n      div\n        /* \"#utility.yul\":8344:8345   */\n      dup5\n        /* \"#utility.yul\":8341:8363   */\n      eq\n        /* \"#utility.yul\":8321:8322   */\n      dup4\n        /* \"#utility.yul\":8314:8323   */\n      iszero\n        /* \"#utility.yul\":8294:8377   */\n      or\n        /* \"#utility.yul\":8271:8410   */\n      tag_275\n      jumpi\n        /* \"#utility.yul\":8390:8408   */\n      tag_276\n      tag_169\n      jump\t// in\n    tag_276:\n        /* \"#utility.yul\":8271:8410   */\n    tag_275:\n        /* \"#utility.yul\":8055:8417   */\n      pop\n        /* \"#utility.yul\":8007:8417   */\n      swap3\n      swap2\n      pop\n      pop\n      jump\t// out\n        /* \"#utility.yul\":8423:8603   */\n    tag_170:\n        /* \"#utility.yul\":8471:8548   */\n      0x4e487b7100000000000000000000000000000000000000000000000000000000\n        /* \"#utility.yul\":8468:8469   */\n      0x00\n        /* \"#utility.yul\":8461:8549   */\n      mstore\n        /* \"#utility.yul\":8568:8572   */\n      0x12\n        /* \"#utility.yul\":8565:8566   */\n      0x04\n        /* \"#utility.yul\":8558:8573   */\n      mstore\n        /* \"#utility.yul\":8592:8596   */\n      0x24\n        /* \"#utility.yul\":8589:8590   */\n      0x00\n        /* \"#utility.yul\":8582:8597   */\n      revert\n        /* \"#utility.yul\":8609:8794   */\n    tag_93:\n        /* \"#utility.yul\":8649:8650   */\n      0x00\n        /* \"#utility.yul\":8666:8686   */\n      tag_279\n        /* \"#utility.yul\":8684:8685   */\n      dup3\n        /* \"#utility.yul\":8666:8686   */\n      tag_151\n      jump\t// in\n    tag_279:\n        /* \"#utility.yul\":8661:8686   */\n      swap2\n      pop\n        /* \"#utility.yul\":8700:8720   */\n      tag_280\n        /* \"#utility.yul\":8718:8719   */\n      dup4\n        /* \"#utility.yul\":8700:8720   */\n      tag_151\n      jump\t// in\n    tag_280:\n        /* \"#utility.yul\":8695:8720   */\n      swap3\n      pop\n        /* \"#utility.yul\":8739:8740   */\n      dup3\n        /* \"#utility.yul\":8729:8764   */\n      tag_281\n      jumpi\n        /* \"#utility.yul\":8744:8762   */\n      tag_282\n      tag_170\n      jump\t// in\n    tag_282:\n        /* \"#utility.yul\":8729:8764   */\n    tag_281:\n        /* \"#utility.yul\":8786:8787   */\n      dup3\n        /* \"#utility.yul\":8783:8784   */\n      dup3\n        /* \"#utility.yul\":8779:8788   */\n      div\n        /* \"#utility.yul\":8774:8788   */\n      swap1\n      pop\n        /* \"#utility.yul\":8609:8794   */\n      swap3\n      swap2\n      pop\n      pop\n      jump\t// out\n        /* \"#utility.yul\":8800:9132   */\n    tag_98:\n        /* \"#utility.yul\":8921:8925   */\n      0x00\n        /* \"#utility.yul\":8959:8961   */\n      0x40\n        /* \"#utility.yul\":8948:8957   */\n      dup3\n        /* \"#utility.yul\":8944:8962   */\n      add\n        /* \"#utility.yul\":8936:8962   */\n      swap1\n      pop\n        /* \"#utility.yul\":8972:9043   */\n      tag_284\n        /* \"#utility.yul\":9040:9041   */\n      0x00\n        /* \"#utility.yul\":9029:9038   */\n      dup4\n        /* \"#utility.yul\":9025:9042   */\n      add\n        /* \"#utility.yul\":9016:9022   */\n      dup6\n        /* \"#utility.yul\":8972:9043   */\n      tag_152\n      jump\t// in\n    tag_284:\n        /* \"#utility.yul\":9053:9125   */\n      tag_285\n        /* \"#utility.yul\":9121:9123   */\n      0x20\n        /* \"#utility.yul\":9110:9119   */\n      dup4\n        /* \"#utility.yul\":9106:9124   */\n      add\n        /* \"#utility.yul\":9097:9103   */\n      dup5\n        /* \"#utility.yul\":9053:9125   */\n      tag_152\n      jump\t// in\n    tag_285:\n        /* \"#utility.yul\":8800:9132   */\n      swap4\n      swap3\n      pop\n      pop\n      pop\n      jump\t// out\n        /* \"#utility.yul\":9138:9318   */\n    tag_112:\n        /* \"#utility.yul\":9186:9263   */\n      0x4e487b7100000000000000000000000000000000000000000000000000000000\n        /* \"#utility.yul\":9183:9184   */\n      0x00\n        /* \"#utility.yul\":9176:9264   */\n      mstore\n        /* \"#utility.yul\":9283:9287   */\n      0x32\n        /* \"#utility.yul\":9280:9281   */\n      0x04\n        /* \"#utility.yul\":9273:9288   */\n      mstore\n        /* \"#utility.yul\":9307:9311   */\n      0x24\n        /* \"#utility.yul\":9304:9305   */\n      0x00\n        /* \"#utility.yul\":9297:9312   */\n      revert\n        /* \"#utility.yul\":9324:9500   */\n    tag_122:\n        /* \"#utility.yul\":9356:9357   */\n      0x00\n        /* \"#utility.yul\":9373:9393   */\n      tag_288\n        /* \"#utility.yul\":9391:9392   */\n      dup3\n        /* \"#utility.yul\":9373:9393   */\n      tag_151\n      jump\t// in\n    tag_288:\n        /* \"#utility.yul\":9368:9393   */\n      swap2\n      pop\n        /* \"#utility.yul\":9407:9427   */\n      tag_289\n        /* \"#utility.yul\":9425:9426   */\n      dup4\n        /* \"#utility.yul\":9407:9427   */\n      tag_151\n      jump\t// in\n    tag_289:\n        /* \"#utility.yul\":9402:9427   */\n      swap3\n      pop\n        /* \"#utility.yul\":9446:9447   */\n      dup3\n        /* \"#utility.yul\":9436:9471   */\n      tag_290\n      jumpi\n        /* \"#utility.yul\":9451:9469   */\n      tag_291\n      tag_170\n      jump\t// in\n    tag_291:\n        /* \"#utility.yul\":9436:9471   */\n    tag_290:\n        /* \"#utility.yul\":9492:9493   */\n      dup3\n        /* \"#utility.yul\":9489:9490   */\n      dup3\n        /* \"#utility.yul\":9485:9494   */\n      mod\n        /* \"#utility.yul\":9480:9494   */\n      swap1\n      pop\n        /* \"#utility.yul\":9324:9500   */\n      swap3\n      swap2\n      pop\n      pop\n      jump\t// out\n\n    auxdata: 0xa264697066735822122093f7a79bdab3ce0c8e4d89c6bbd3c54166730443ccd7733882a03159e6841df464736f6c63430008130033\n}\n",
				"bytecode": {
					"linkReferences": {},
					"object": "608060405234801561001057600080fd5b50610e55806100206000396000f3fe608060405234801561001057600080fd5b50600436106100625760003560e01c80633ce142f51461006757806355a547d514610097578063b24ebfcc146100b5578063c274583a146100e5578063f50b2efe14610103578063f90c49241461011f575b600080fd5b610081600480360381019061007c91906108b7565b61013d565b60405161008e9190610900565b60405180910390f35b61009f6101d1565b6040516100ac9190610934565b60405180910390f35b6100cf60048036038101906100ca9190610ad4565b61033b565b6040516100dc9190610934565b60405180910390f35b6100ed61034d565b6040516100fa9190610b9c565b60405180910390f35b61011d60048036038101906101189190610bbe565b61038a565b005b610127610396565b6040516101349190610900565b60405180910390f35b6000730c39486f770b26f5527bbbf942726537986cd7eb73ffffffffffffffffffffffffffffffffffffffff168273ffffffffffffffffffffffffffffffffffffffff160361018f57600090506101cc565b816040517fec459bc00000000000000000000000000000000000000000000000000000000081526004016101c39190610bfa565b60405180910390fd5b919050565b6000806101dc61039f565b905060006101e9826104b0565b8161ffff169150809350819250505060008103610232576040517f8552ff3c00000000000000000000000000000000000000000000000000000000815260040160405180910390fd5b60005b8181101561033557600061024884610520565b905060008060688661025a9190610c44565b9050600081600036905061026e9190610c78565b90508035925060008365ffffffffffff16036102b6576040517f336dc9d000000000000000000000000000000000000000000000000000000000815260040160405180910390fd5b600088036102ce578265ffffffffffff169750610310565b878365ffffffffffff161461030f576040517fd9d1f46500000000000000000000000000000000000000000000000000000000815260040160405180910390fd5b5b838761031c9190610c44565b965050505050808061032d90610cac565b915050610235565b50505090565b60006103468261055f565b9050919050565b60606040518060400160405280601281526020017f72656473746f6e652d6d61696e2d64656d6f0000000000000000000000000000815250905090565b61039381610571565b50565b60006001905090565b60008060203603356602ed57011e000081166602ed57011e000014915050806103f4576040517fe7764c9e00000000000000000000000000000000000000000000000000000000815260040160405180910390fd5b60008036905060291115610434576040517f5796f78a00000000000000000000000000000000000000000000000000000000815260040160405180910390fd5b602936033590506000600960038362ffffff166104519190610c44565b61045b9190610c44565b9050600036905060028261046f9190610c44565b11156104a7576040517fc30a7bd700000000000000000000000000000000000000000000000000000000815260040160405180910390fd5b80935050505090565b60008060006020846104c29190610c44565b90506000369050811115610502576040517f5796f78a00000000000000000000000000000000000000000000000000000000815260040160405180910390fd5b803603359250826002856105169190610c44565b9250925050915091565b600080600061052e8461063b565b91509150604e8160206105419190610c44565b8361054c9190610cf4565b6105569190610c44565b92505050919050565b600061056a8261069d565b9050919050565b60006103e8826105819190610d65565b9050804210156105e357603c42826105999190610c78565b11156105de5780426040517fb6b0916d0000000000000000000000000000000000000000000000000000000081526004016105d5929190610d96565b60405180910390fd5b610637565b60b481426105f19190610c78565b11156106365780426040517f0321d0b500000000000000000000000000000000000000000000000000000000815260040161062d929190610d96565b60405180910390fd5b5b5050565b600080600080600060206041876106529190610c44565b61065c9190610c44565b600036905061066b9190610c78565b90508035925060038161067e9190610c78565b9050803591508262ffffff1694508163ffffffff169350505050915091565b600060028251036106fd576002826001815181106106be576106bd610dbf565b5b6020026020010151836000815181106106da576106d9610dbf565b5b60200260200101516106ec9190610c44565b6106f69190610d65565b90506107ed565b6000825103610738576040517f9e198af900000000000000000000000000000000000000000000000000000000815260040160405180910390fd5b610741826107f2565b6000600283516107519190610d65565b90506000600284516107639190610dee565b036107ce57600083828151811061077d5761077c610dbf565b5b6020026020010151846001846107939190610c78565b815181106107a4576107a3610dbf565b5b60200260200101516107b69190610c44565b90506002816107c59190610d65565b925050506107ed565b8281815181106107e1576107e0610dbf565b5b60200260200101519150505b919050565b805160208201602082028101815b8181101561083e57825b81811015610832578151815180821015610825578084528183525b505060208101905061080a565b50602081019050610800565b5050505050565b6000604051905090565b600080fd5b600080fd5b600073ffffffffffffffffffffffffffffffffffffffff82169050919050565b600061088482610859565b9050919050565b61089481610879565b811461089f57600080fd5b50565b6000813590506108b18161088b565b92915050565b6000602082840312156108cd576108cc61084f565b5b60006108db848285016108a2565b91505092915050565b600060ff82169050919050565b6108fa816108e4565b82525050565b600060208201905061091560008301846108f1565b92915050565b6000819050919050565b61092e8161091b565b82525050565b60006020820190506109496000830184610925565b92915050565b600080fd5b6000601f19601f8301169050919050565b7f4e487b7100000000000000000000000000000000000000000000000000000000600052604160045260246000fd5b61099d82610954565b810181811067ffffffffffffffff821117156109bc576109bb610965565b5b80604052505050565b60006109cf610845565b90506109db8282610994565b919050565b600067ffffffffffffffff8211156109fb576109fa610965565b5b602082029050602081019050919050565b600080fd5b610a1a8161091b565b8114610a2557600080fd5b50565b600081359050610a3781610a11565b92915050565b6000610a50610a4b846109e0565b6109c5565b90508083825260208201905060208402830185811115610a7357610a72610a0c565b5b835b81811015610a9c5780610a888882610a28565b845260208401935050602081019050610a75565b5050509392505050565b600082601f830112610abb57610aba61094f565b5b8135610acb848260208601610a3d565b91505092915050565b600060208284031215610aea57610ae961084f565b5b600082013567ffffffffffffffff811115610b0857610b07610854565b5b610b1484828501610aa6565b91505092915050565b600081519050919050565b600082825260208201905092915050565b60005b83811015610b57578082015181840152602081019050610b3c565b60008484015250505050565b6000610b6e82610b1d565b610b788185610b28565b9350610b88818560208601610b39565b610b9181610954565b840191505092915050565b60006020820190508181036000830152610bb68184610b63565b905092915050565b600060208284031215610bd457610bd361084f565b5b6000610be284828501610a28565b91505092915050565b610bf481610879565b82525050565b6000602082019050610c0f6000830184610beb565b92915050565b7f4e487b7100000000000000000000000000000000000000000000000000000000600052601160045260246000fd5b6000610c4f8261091b565b9150610c5a8361091b565b9250828201905080821115610c7257610c71610c15565b5b92915050565b6000610c838261091b565b9150610c8e8361091b565b9250828203905081811115610ca657610ca5610c15565b5b92915050565b6000610cb78261091b565b91507fffffffffffffffffffffffffffffffffffffffffffffffffffffffffffffffff8203610ce957610ce8610c15565b5b600182019050919050565b6000610cff8261091b565b9150610d0a8361091b565b9250828202610d188161091b565b91508282048414831517610d2f57610d2e610c15565b5b5092915050565b7f4e487b7100000000000000000000000000000000000000000000000000000000600052601260045260246000fd5b6000610d708261091b565b9150610d7b8361091b565b925082610d8b57610d8a610d36565b5b828204905092915050565b6000604082019050610dab6000830185610925565b610db86020830184610925565b9392505050565b7f4e487b7100000000000000000000000000000000000000000000000000000000600052603260045260246000fd5b6000610df98261091b565b9150610e048361091b565b925082610e1457610e13610d36565b5b82820690509291505056fea264697066735822122093f7a79bdab3ce0c8e4d89c6bbd3c54166730443ccd7733882a03159e6841df464736f6c63430008130033",
					"opcodes": "PUSH1 0x80 PUSH1 0x40 MSTORE CALLVALUE DUP1 ISZERO PUSH2 0x10 JUMPI PUSH1 0x0 DUP1 REVERT JUMPDEST POP PUSH2 0xE55 DUP1 PUSH2 0x20 PUSH1 0x0 CODECOPY PUSH1 0x0 RETURN INVALID PUSH1 0x80 PUSH1 0x40 MSTORE CALLVALUE DUP1 ISZERO PUSH2 0x10 JUMPI PUSH1 0x0 DUP1 REVERT JUMPDEST POP PUSH1 0x4 CALLDATASIZE LT PUSH2 0x62 JUMPI PUSH1 0x0 CALLDATALOAD PUSH1 0xE0 SHR DUP1 PUSH4 0x3CE142F5 EQ PUSH2 0x67 JUMPI DUP1 PUSH4 0x55A547D5 EQ PUSH2 0x97 JUMPI DUP1 PUSH4 0xB24EBFCC EQ PUSH2 0xB5 JUMPI DUP1 PUSH4 0xC274583A EQ PUSH2 0xE5 JUMPI DUP1 PUSH4 0xF50B2EFE EQ PUSH2 0x103 JUMPI DUP1 PUSH4 0xF90C4924 EQ PUSH2 0x11F JUMPI JUMPDEST PUSH1 0x0 DUP1 REVERT JUMPDEST PUSH2 0x81 PUSH1 0x4 DUP1 CALLDATASIZE SUB DUP2 ADD SWAP1 PUSH2 0x7C SWAP2 SWAP1 PUSH2 0x8B7 JUMP JUMPDEST PUSH2 0x13D JUMP JUMPDEST PUSH1 0x40 MLOAD PUSH2 0x8E SWAP2 SWAP1 PUSH2 0x900 JUMP JUMPDEST PUSH1 0x40 MLOAD DUP1 SWAP2 SUB SWAP1 RETURN JUMPDEST PUSH2 0x9F PUSH2 0x1D1 JUMP JUMPDEST PUSH1 0x40 MLOAD PUSH2 0xAC SWAP2 SWAP1 PUSH2 0x934 JUMP JUMPDEST PUSH1 0x40 MLOAD DUP1 SWAP2 SUB SWAP1 RETURN JUMPDEST PUSH2 0xCF PUSH1 0x4 DUP1 CALLDATASIZE SUB DUP2 ADD SWAP1 PUSH2 0xCA SWAP2 SWAP1 PUSH2 0xAD4 JUMP JUMPDEST PUSH2 0x33B JUMP JUMPDEST PUSH1 0x40 MLOAD PUSH2 0xDC SWAP2 SWAP1 PUSH2 0x934 JUMP JUMPDEST PUSH1 0x40 MLOAD DUP1 SWAP2 SUB SWAP1 RETURN JUMPDEST PUSH2 0xED PUSH2 0x34D JUMP JUMPDEST PUSH1 0x40 MLOAD PUSH2 0xFA SWAP2 SWAP1 PUSH2 0xB9C JUMP JUMPDEST PUSH1 0x40 MLOAD DUP1 SWAP2 SUB SWAP1 RETURN JUMPDEST PUSH2 0x11D PUSH1 0x4 DUP1 CALLDATASIZE SUB DUP2 ADD SWAP1 PUSH2 0x118 SWAP2 SWAP1 PUSH2 0xBBE JUMP JUMPDEST PUSH2 0x38A JUMP JUMPDEST STOP JUMPDEST PUSH2 0x127 PUSH2 0x396 JUMP JUMPDEST PUSH1 0x40 MLOAD PUSH2 0x134 SWAP2 SWAP1 PUSH2 0x900 JUMP JUMPDEST PUSH1 0x40 MLOAD DUP1 SWAP2 SUB SWAP1 RETURN JUMPDEST PUSH1 0x0 PUSH20 0xC39486F770B26F5527BBBF942726537986CD7EB PUSH20 0xFFFFFFFFFFFFFFFFFFFFFFFFFFFFFFFFFFFFFFFF AND DUP3 PUSH20 0xFFFFFFFFFFFFFFFFFFFFFFFFFFFFFFFFFFFFFFFF AND SUB PUSH2 0x18F JUMPI PUSH1 0x0 SWAP1 POP PUSH2 0x1CC JUMP JUMPDEST DUP2 PUSH1 0x40 MLOAD PUSH32 0xEC459BC000000000000000000000000000000000000000000000000000000000 DUP2 MSTORE PUSH1 0x4 ADD PUSH2 0x1C3 SWAP2 SWAP1 PUSH2 0xBFA JUMP JUMPDEST PUSH1 0x40 MLOAD DUP1 SWAP2 SUB SWAP1 REVERT JUMPDEST SWAP2 SWAP1 POP JUMP JUMPDEST PUSH1 0x0 DUP1 PUSH2 0x1DC PUSH2 0x39F JUMP JUMPDEST SWAP1 POP PUSH1 0x0 PUSH2 0x1E9 DUP3 PUSH2 0x4B0 JUMP JUMPDEST DUP2 PUSH2 0xFFFF AND SWAP2 POP DUP1 SWAP4 POP DUP2 SWAP3 POP POP POP PUSH1 0x0 DUP2 SUB PUSH2 0x232 JUMPI PUSH1 0x40 MLOAD PUSH32 0x8552FF3C00000000000000000000000000000000000000000000000000000000 DUP2 MSTORE PUSH1 0x4 ADD PUSH1 0x40 MLOAD DUP1 SWAP2 SUB SWAP1 REVERT JUMPDEST PUSH1 0x0 JUMPDEST DUP2 DUP2 LT ISZERO PUSH2 0x335 JUMPI PUSH1 0x0 PUSH2 0x248 DUP5 PUSH2 0x520 JUMP JUMPDEST SWAP1 POP PUSH1 0x0 DUP1 PUSH1 0x68 DUP7 PUSH2 0x25A SWAP2 SWAP1 PUSH2 0xC44 JUMP JUMPDEST SWAP1 POP PUSH1 0x0 DUP2 PUSH1 0x0 CALLDATASIZE SWAP1 POP PUSH2 0x26E SWAP2 SWAP1 PUSH2 0xC78 JUMP JUMPDEST SWAP1 POP DUP1 CALLDATALOAD SWAP3 POP PUSH1 0x0 DUP4 PUSH6 0xFFFFFFFFFFFF AND SUB PUSH2 0x2B6 JUMPI PUSH1 0x40 MLOAD PUSH32 0x336DC9D000000000000000000000000000000000000000000000000000000000 DUP2 MSTORE PUSH1 0x4 ADD PUSH1 0x40 MLOAD DUP1 SWAP2 SUB SWAP1 REVERT JUMPDEST PUSH1 0x0 DUP9 SUB PUSH2 0x2CE JUMPI DUP3 PUSH6 0xFFFFFFFFFFFF AND SWAP8 POP PUSH2 0x310 JUMP JUMPDEST DUP8 DUP4 PUSH6 0xFFFFFFFFFFFF AND EQ PUSH2 0x30F JUMPI PUSH1 0x40 MLOAD PUSH32 0xD9D1F46500000000000000000000000000000000000000000000000000000000 DUP2 MSTORE PUSH1 0x4 ADD PUSH1 0x40 MLOAD DUP1 SWAP2 SUB SWAP1 REVERT JUMPDEST JUMPDEST DUP4 DUP8 PUSH2 0x31C SWAP2 SWAP1 PUSH2 0xC44 JUMP JUMPDEST SWAP7 POP POP POP POP POP DUP1 DUP1 PUSH2 0x32D SWAP1 PUSH2 0xCAC JUMP JUMPDEST SWAP2 POP POP PUSH2 0x235 JUMP JUMPDEST POP POP POP SWAP1 JUMP JUMPDEST PUSH1 0x0 PUSH2 0x346 DUP3 PUSH2 0x55F JUMP JUMPDEST SWAP1 POP SWAP2 SWAP1 POP JUMP JUMPDEST PUSH1 0x60 PUSH1 0x40 MLOAD DUP1 PUSH1 0x40 ADD PUSH1 0x40 MSTORE DUP1 PUSH1 0x12 DUP2 MSTORE PUSH1 0x20 ADD PUSH32 0x72656473746F6E652D6D61696E2D64656D6F0000000000000000000000000000 DUP2 MSTORE POP SWAP1 POP SWAP1 JUMP JUMPDEST PUSH2 0x393 DUP2 PUSH2 0x571 JUMP JUMPDEST POP JUMP JUMPDEST PUSH1 0x0 PUSH1 0x1 SWAP1 POP SWAP1 JUMP JUMPDEST PUSH1 0x0 DUP1 PUSH1 0x20 CALLDATASIZE SUB CALLDATALOAD PUSH7 0x2ED57011E0000 DUP2 AND PUSH7 0x2ED57011E0000 EQ SWAP2 POP POP DUP1 PUSH2 0x3F4 JUMPI PUSH1 0x40 MLOAD PUSH32 0xE7764C9E00000000000000000000000000000000000000000000000000000000 DUP2 MSTORE PUSH1 0x4 ADD PUSH1 0x40 MLOAD DUP1 SWAP2 SUB SWAP1 REVERT JUMPDEST PUSH1 0x0 DUP1 CALLDATASIZE SWAP1 POP PUSH1 0x29 GT ISZERO PUSH2 0x434 JUMPI PUSH1 0x40 MLOAD PUSH32 0x5796F78A00000000000000000000000000000000000000000000000000000000 DUP2 MSTORE PUSH1 0x4 ADD PUSH1 0x40 MLOAD DUP1 SWAP2 SUB SWAP1 REVERT JUMPDEST PUSH1 0x29 CALLDATASIZE SUB CALLDATALOAD SWAP1 POP PUSH1 0x0 PUSH1 0x9 PUSH1 0x3 DUP4 PUSH3 0xFFFFFF AND PUSH2 0x451 SWAP2 SWAP1 PUSH2 0xC44 JUMP JUMPDEST PUSH2 0x45B SWAP2 SWAP1 PUSH2 0xC44 JUMP JUMPDEST SWAP1 POP PUSH1 0x0 CALLDATASIZE SWAP1 POP PUSH1 0x2 DUP3 PUSH2 0x46F SWAP2 SWAP1 PUSH2 0xC44 JUMP JUMPDEST GT ISZERO PUSH2 0x4A7 JUMPI PUSH1 0x40 MLOAD PUSH32 0xC30A7BD700000000000000000000000000000000000000000000000000000000 DUP2 MSTORE PUSH1 0x4 ADD PUSH1 0x40 MLOAD DUP1 SWAP2 SUB SWAP1 REVERT JUMPDEST DUP1 SWAP4 POP POP POP POP SWAP1 JUMP JUMPDEST PUSH1 0x0 DUP1 PUSH1 0x0 PUSH1 0x20 DUP5 PUSH2 0x4C2 SWAP2 SWAP1 PUSH2 0xC44 JUMP JUMPDEST SWAP1 POP PUSH1 0x0 CALLDATASIZE SWAP1 POP DUP2 GT ISZERO PUSH2 0x502 JUMPI PUSH1 0x40 MLOAD PUSH32 0x5796F78A00000000000000000000000000000000000000000000000000000000 DUP2 MSTORE PUSH1 0x4 ADD PUSH1 0x40 MLOAD DUP1 SWAP2 SUB SWAP1 REVERT JUMPDEST DUP1 CALLDATASIZE SUB CALLDATALOAD SWAP3 POP DUP3 PUSH1 0x2 DUP6 PUSH2 0x516 SWAP2 SWAP1 PUSH2 0xC44 JUMP JUMPDEST SWAP3 POP SWAP3 POP POP SWAP2 POP SWAP2 JUMP JUMPDEST PUSH1 0x0 DUP1 PUSH1 0x0 PUSH2 0x52E DUP5 PUSH2 0x63B JUMP JUMPDEST SWAP2 POP SWAP2 POP PUSH1 0x4E DUP2 PUSH1 0x20 PUSH2 0x541 SWAP2 SWAP1 PUSH2 0xC44 JUMP JUMPDEST DUP4 PUSH2 0x54C SWAP2 SWAP1 PUSH2 0xCF4 JUMP JUMPDEST PUSH2 0x556 SWAP2 SWAP1 PUSH2 0xC44 JUMP JUMPDEST SWAP3 POP POP POP SWAP2 SWAP1 POP JUMP JUMPDEST PUSH1 0x0 PUSH2 0x56A DUP3 PUSH2 0x69D JUMP JUMPDEST SWAP1 POP SWAP2 SWAP1 POP JUMP JUMPDEST PUSH1 0x0 PUSH2 0x3E8 DUP3 PUSH2 0x581 SWAP2 SWAP1 PUSH2 0xD65 JUMP JUMPDEST SWAP1 POP DUP1 TIMESTAMP LT ISZERO PUSH2 0x5E3 JUMPI PUSH1 0x3C TIMESTAMP DUP3 PUSH2 0x599 SWAP2 SWAP1 PUSH2 0xC78 JUMP JUMPDEST GT ISZERO PUSH2 0x5DE JUMPI DUP1 TIMESTAMP PUSH1 0x40 MLOAD PUSH32 0xB6B0916D00000000000000000000000000000000000000000000000000000000 DUP2 MSTORE PUSH1 0x4 ADD PUSH2 0x5D5 SWAP3 SWAP2 SWAP1 PUSH2 0xD96 JUMP JUMPDEST PUSH1 0x40 MLOAD DUP1 SWAP2 SUB SWAP1 REVERT JUMPDEST PUSH2 0x637 JUMP JUMPDEST PUSH1 0xB4 DUP2 TIMESTAMP PUSH2 0x5F1 SWAP2 SWAP1 PUSH2 0xC78 JUMP JUMPDEST GT ISZERO PUSH2 0x636 JUMPI DUP1 TIMESTAMP PUSH1 0x40 MLOAD PUSH32 0x321D0B500000000000000000000000000000000000000000000000000000000 DUP2 MSTORE PUSH1 0x4 ADD PUSH2 0x62D SWAP3 SWAP2 SWAP1 PUSH2 0xD96 JUMP JUMPDEST PUSH1 0x40 MLOAD DUP1 SWAP2 SUB SWAP1 REVERT JUMPDEST JUMPDEST POP POP JUMP JUMPDEST PUSH1 0x0 DUP1 PUSH1 0x0 DUP1 PUSH1 0x0 PUSH1 0x20 PUSH1 0x41 DUP8 PUSH2 0x652 SWAP2 SWAP1 PUSH2 0xC44 JUMP JUMPDEST PUSH2 0x65C SWAP2 SWAP1 PUSH2 0xC44 JUMP JUMPDEST PUSH1 0x0 CALLDATASIZE SWAP1 POP PUSH2 0x66B SWAP2 SWAP1 PUSH2 0xC78 JUMP JUMPDEST SWAP1 POP DUP1 CALLDATALOAD SWAP3 POP PUSH1 0x3 DUP2 PUSH2 0x67E SWAP2 SWAP1 PUSH2 0xC78 JUMP JUMPDEST SWAP1 POP DUP1 CALLDATALOAD SWAP2 POP DUP3 PUSH3 0xFFFFFF AND SWAP5 POP DUP2 PUSH4 0xFFFFFFFF AND SWAP4 POP POP POP POP SWAP2 POP SWAP2 JUMP JUMPDEST PUSH1 0x0 PUSH1 0x2 DUP3 MLOAD SUB PUSH2 0x6FD JUMPI PUSH1 0x2 DUP3 PUSH1 0x1 DUP2 MLOAD DUP2 LT PUSH2 0x6BE JUMPI PUSH2 0x6BD PUSH2 0xDBF JUMP JUMPDEST JUMPDEST PUSH1 0x20 MUL PUSH1 0x20 ADD ADD MLOAD DUP4 PUSH1 0x0 DUP2 MLOAD DUP2 LT PUSH2 0x6DA JUMPI PUSH2 0x6D9 PUSH2 0xDBF JUMP JUMPDEST JUMPDEST PUSH1 0x20 MUL PUSH1 0x20 ADD ADD MLOAD PUSH2 0x6EC SWAP2 SWAP1 PUSH2 0xC44 JUMP JUMPDEST PUSH2 0x6F6 SWAP2 SWAP1 PUSH2 0xD65 JUMP JUMPDEST SWAP1 POP PUSH2 0x7ED JUMP JUMPDEST PUSH1 0x0 DUP3 MLOAD SUB PUSH2 0x738 JUMPI PUSH1 0x40 MLOAD PUSH32 0x9E198AF900000000000000000000000000000000000000000000000000000000 DUP2 MSTORE PUSH1 0x4 ADD PUSH1 0x40 MLOAD DUP1 SWAP2 SUB SWAP1 REVERT JUMPDEST PUSH2 0x741 DUP3 PUSH2 0x7F2 JUMP JUMPDEST PUSH1 0x0 PUSH1 0x2 DUP4 MLOAD PUSH2 0x751 SWAP2 SWAP1 PUSH2 0xD65 JUMP JUMPDEST SWAP1 POP PUSH1 0x0 PUSH1 0x2 DUP5 MLOAD PUSH2 0x763 SWAP2 SWAP1 PUSH2 0xDEE JUMP JUMPDEST SUB PUSH2 0x7CE JUMPI PUSH1 0x0 DUP4 DUP3 DUP2 MLOAD DUP2 LT PUSH2 0x77D JUMPI PUSH2 0x77C PUSH2 0xDBF JUMP JUMPDEST JUMPDEST PUSH1 0x20 MUL PUSH1 0x20 ADD ADD MLOAD DUP5 PUSH1 0x1 DUP5 PUSH2 0x793 SWAP2 SWAP1 PUSH2 0xC78 JUMP JUMPDEST DUP2 MLOAD DUP2 LT PUSH2 0x7A4 JUMPI PUSH2 0x7A3 PUSH2 0xDBF JUMP JUMPDEST JUMPDEST PUSH1 0x20 MUL PUSH1 0x20 ADD ADD MLOAD PUSH2 0x7B6 SWAP2 SWAP1 PUSH2 0xC44 JUMP JUMPDEST SWAP1 POP PUSH1 0x2 DUP2 PUSH2 0x7C5 SWAP2 SWAP1 PUSH2 0xD65 JUMP JUMPDEST SWAP3 POP POP POP PUSH2 0x7ED JUMP JUMPDEST DUP3 DUP2 DUP2 MLOAD DUP2 LT PUSH2 0x7E1 JUMPI PUSH2 0x7E0 PUSH2 0xDBF JUMP JUMPDEST JUMPDEST PUSH1 0x20 MUL PUSH1 0x20 ADD ADD MLOAD SWAP2 POP POP JUMPDEST SWAP2 SWAP1 POP JUMP JUMPDEST DUP1 MLOAD PUSH1 0x20 DUP3 ADD PUSH1 0x20 DUP3 MUL DUP2 ADD DUP2 JUMPDEST DUP2 DUP2 LT ISZERO PUSH2 0x83E JUMPI DUP3 JUMPDEST DUP2 DUP2 LT ISZERO PUSH2 0x832 JUMPI DUP2 MLOAD DUP2 MLOAD DUP1 DUP3 LT ISZERO PUSH2 0x825 JUMPI DUP1 DUP5 MSTORE DUP2 DUP4 MSTORE JUMPDEST POP POP PUSH1 0x20 DUP2 ADD SWAP1 POP PUSH2 0x80A JUMP JUMPDEST POP PUSH1 0x20 DUP2 ADD SWAP1 POP PUSH2 0x800 JUMP JUMPDEST POP POP POP POP POP JUMP JUMPDEST PUSH1 0x0 PUSH1 0x40 MLOAD SWAP1 POP SWAP1 JUMP JUMPDEST PUSH1 0x0 DUP1 REVERT JUMPDEST PUSH1 0x0 DUP1 REVERT JUMPDEST PUSH1 0x0 PUSH20 0xFFFFFFFFFFFFFFFFFFFFFFFFFFFFFFFFFFFFFFFF DUP3 AND SWAP1 POP SWAP2 SWAP1 POP JUMP JUMPDEST PUSH1 0x0 PUSH2 0x884 DUP3 PUSH2 0x859 JUMP JUMPDEST SWAP1 POP SWAP2 SWAP1 POP JUMP JUMPDEST PUSH2 0x894 DUP2 PUSH2 0x879 JUMP JUMPDEST DUP2 EQ PUSH2 0x89F JUMPI PUSH1 0x0 DUP1 REVERT JUMPDEST POP JUMP JUMPDEST PUSH1 0x0 DUP2 CALLDATALOAD SWAP1 POP PUSH2 0x8B1 DUP2 PUSH2 0x88B JUMP JUMPDEST SWAP3 SWAP2 POP POP JUMP JUMPDEST PUSH1 0x0 PUSH1 0x20 DUP3 DUP5 SUB SLT ISZERO PUSH2 0x8CD JUMPI PUSH2 0x8CC PUSH2 0x84F JUMP JUMPDEST JUMPDEST PUSH1 0x0 PUSH2 0x8DB DUP5 DUP3 DUP6 ADD PUSH2 0x8A2 JUMP JUMPDEST SWAP2 POP POP SWAP3 SWAP2 POP POP JUMP JUMPDEST PUSH1 0x0 PUSH1 0xFF DUP3 AND SWAP1 POP SWAP2 SWAP1 POP JUMP JUMPDEST PUSH2 0x8FA DUP2 PUSH2 0x8E4 JUMP JUMPDEST DUP3 MSTORE POP POP JUMP JUMPDEST PUSH1 0x0 PUSH1 0x20 DUP3 ADD SWAP1 POP PUSH2 0x915 PUSH1 0x0 DUP4 ADD DUP5 PUSH2 0x8F1 JUMP JUMPDEST SWAP3 SWAP2 POP POP JUMP JUMPDEST PUSH1 0x0 DUP2 SWAP1 POP SWAP2 SWAP1 POP JUMP JUMPDEST PUSH2 0x92E DUP2 PUSH2 0x91B JUMP JUMPDEST DUP3 MSTORE POP POP JUMP JUMPDEST PUSH1 0x0 PUSH1 0x20 DUP3 ADD SWAP1 POP PUSH2 0x949 PUSH1 0x0 DUP4 ADD DUP5 PUSH2 0x925 JUMP JUMPDEST SWAP3 SWAP2 POP POP JUMP JUMPDEST PUSH1 0x0 DUP1 REVERT JUMPDEST PUSH1 0x0 PUSH1 0x1F NOT PUSH1 0x1F DUP4 ADD AND SWAP1 POP SWAP2 SWAP1 POP JUMP JUMPDEST PUSH32 0x4E487B7100000000000000000000000000000000000000000000000000000000 PUSH1 0x0 MSTORE PUSH1 0x41 PUSH1 0x4 MSTORE PUSH1 0x24 PUSH1 0x0 REVERT JUMPDEST PUSH2 0x99D DUP3 PUSH2 0x954 JUMP JUMPDEST DUP2 ADD DUP2 DUP2 LT PUSH8 0xFFFFFFFFFFFFFFFF DUP3 GT OR ISZERO PUSH2 0x9BC JUMPI PUSH2 0x9BB PUSH2 0x965 JUMP JUMPDEST JUMPDEST DUP1 PUSH1 0x40 MSTORE POP POP POP JUMP JUMPDEST PUSH1 0x0 PUSH2 0x9CF PUSH2 0x845 JUMP JUMPDEST SWAP1 POP PUSH2 0x9DB DUP3 DUP3 PUSH2 0x994 JUMP JUMPDEST SWAP2 SWAP1 POP JUMP JUMPDEST PUSH1 0x0 PUSH8 0xFFFFFFFFFFFFFFFF DUP3 GT ISZERO PUSH2 0x9FB JUMPI PUSH2 0x9FA PUSH2 0x965 JUMP JUMPDEST JUMPDEST PUSH1 0x20 DUP3 MUL SWAP1 POP PUSH1 0x20 DUP2 ADD SWAP1 POP SWAP2 SWAP1 POP JUMP JUMPDEST PUSH1 0x0 DUP1 REVERT JUMPDEST PUSH2 0xA1A DUP2 PUSH2 0x91B JUMP JUMPDEST DUP2 EQ PUSH2 0xA25 JUMPI PUSH1 0x0 DUP1 REVERT JUMPDEST POP JUMP JUMPDEST PUSH1 0x0 DUP2 CALLDATALOAD SWAP1 POP PUSH2 0xA37 DUP2 PUSH2 0xA11 JUMP JUMPDEST SWAP3 SWAP2 POP POP JUMP JUMPDEST PUSH1 0x0 PUSH2 0xA50 PUSH2 0xA4B DUP5 PUSH2 0x9E0 JUMP JUMPDEST PUSH2 0x9C5 JUMP JUMPDEST SWAP1 POP DUP1 DUP4 DUP3 MSTORE PUSH1 0x20 DUP3 ADD SWAP1 POP PUSH1 0x20 DUP5 MUL DUP4 ADD DUP6 DUP2 GT ISZERO PUSH2 0xA73 JUMPI PUSH2 0xA72 PUSH2 0xA0C JUMP JUMPDEST JUMPDEST DUP4 JUMPDEST DUP2 DUP2 LT ISZERO PUSH2 0xA9C JUMPI DUP1 PUSH2 0xA88 DUP9 DUP3 PUSH2 0xA28 JUMP JUMPDEST DUP5 MSTORE PUSH1 0x20 DUP5 ADD SWAP4 POP POP PUSH1 0x20 DUP2 ADD SWAP1 POP PUSH2 0xA75 JUMP JUMPDEST POP POP POP SWAP4 SWAP3 POP POP POP JUMP JUMPDEST PUSH1 0x0 DUP3 PUSH1 0x1F DUP4 ADD SLT PUSH2 0xABB JUMPI PUSH2 0xABA PUSH2 0x94F JUMP JUMPDEST JUMPDEST DUP2 CALLDATALOAD PUSH2 0xACB DUP5 DUP3 PUSH1 0x20 DUP7 ADD PUSH2 0xA3D JUMP JUMPDEST SWAP2 POP POP SWAP3 SWAP2 POP POP JUMP JUMPDEST PUSH1 0x0 PUSH1 0x20 DUP3 DUP5 SUB SLT ISZERO PUSH2 0xAEA JUMPI PUSH2 0xAE9 PUSH2 0x84F JUMP JUMPDEST JUMPDEST PUSH1 0x0 DUP3 ADD CALLDATALOAD PUSH8 0xFFFFFFFFFFFFFFFF DUP2 GT ISZERO PUSH2 0xB08 JUMPI PUSH2 0xB07 PUSH2 0x854 JUMP JUMPDEST JUMPDEST PUSH2 0xB14 DUP5 DUP3 DUP6 ADD PUSH2 0xAA6 JUMP JUMPDEST SWAP2 POP POP SWAP3 SWAP2 POP POP JUMP JUMPDEST PUSH1 0x0 DUP2 MLOAD SWAP1 POP SWAP2 SWAP1 POP JUMP JUMPDEST PUSH1 0x0 DUP3 DUP3 MSTORE PUSH1 0x20 DUP3 ADD SWAP1 POP SWAP3 SWAP2 POP POP JUMP JUMPDEST PUSH1 0x0 JUMPDEST DUP4 DUP2 LT ISZERO PUSH2 0xB57 JUMPI DUP1 DUP3 ADD MLOAD DUP2 DUP5 ADD MSTORE PUSH1 0x20 DUP2 ADD SWAP1 POP PUSH2 0xB3C JUMP JUMPDEST PUSH1 0x0 DUP5 DUP5 ADD MSTORE POP POP POP POP JUMP JUMPDEST PUSH1 0x0 PUSH2 0xB6E DUP3 PUSH2 0xB1D JUMP JUMPDEST PUSH2 0xB78 DUP2 DUP6 PUSH2 0xB28 JUMP JUMPDEST SWAP4 POP PUSH2 0xB88 DUP2 DUP6 PUSH1 0x20 DUP7 ADD PUSH2 0xB39 JUMP JUMPDEST PUSH2 0xB91 DUP2 PUSH2 0x954 JUMP JUMPDEST DUP5 ADD SWAP2 POP POP SWAP3 SWAP2 POP POP JUMP JUMPDEST PUSH1 0x0 PUSH1 0x20 DUP3 ADD SWAP1 POP DUP2 DUP2 SUB PUSH1 0x0 DUP4 ADD MSTORE PUSH2 0xBB6 DUP2 DUP5 PUSH2 0xB63 JUMP JUMPDEST SWAP1 POP SWAP3 SWAP2 POP POP JUMP JUMPDEST PUSH1 0x0 PUSH1 0x20 DUP3 DUP5 SUB SLT ISZERO PUSH2 0xBD4 JUMPI PUSH2 0xBD3 PUSH2 0x84F JUMP JUMPDEST JUMPDEST PUSH1 0x0 PUSH2 0xBE2 DUP5 DUP3 DUP6 ADD PUSH2 0xA28 JUMP JUMPDEST SWAP2 POP POP SWAP3 SWAP2 POP POP JUMP JUMPDEST PUSH2 0xBF4 DUP2 PUSH2 0x879 JUMP JUMPDEST DUP3 MSTORE POP POP JUMP JUMPDEST PUSH1 0x0 PUSH1 0x20 DUP3 ADD SWAP1 POP PUSH2 0xC0F PUSH1 0x0 DUP4 ADD DUP5 PUSH2 0xBEB JUMP JUMPDEST SWAP3 SWAP2 POP POP JUMP JUMPDEST PUSH32 0x4E487B7100000000000000000000000000000000000000000000000000000000 PUSH1 0x0 MSTORE PUSH1 0x11 PUSH1 0x4 MSTORE PUSH1 0x24 PUSH1 0x0 REVERT JUMPDEST PUSH1 0x0 PUSH2 0xC4F DUP3 PUSH2 0x91B JUMP JUMPDEST SWAP2 POP PUSH2 0xC5A DUP4 PUSH2 0x91B JUMP JUMPDEST SWAP3 POP DUP3 DUP3 ADD SWAP1 POP DUP1 DUP3 GT ISZERO PUSH2 0xC72 JUMPI PUSH2 0xC71 PUSH2 0xC15 JUMP JUMPDEST JUMPDEST SWAP3 SWAP2 POP POP JUMP JUMPDEST PUSH1 0x0 PUSH2 0xC83 DUP3 PUSH2 0x91B JUMP JUMPDEST SWAP2 POP PUSH2 0xC8E DUP4 PUSH2 0x91B JUMP JUMPDEST SWAP3 POP DUP3 DUP3 SUB SWAP1 POP DUP2 DUP2 GT ISZERO PUSH2 0xCA6 JUMPI PUSH2 0xCA5 PUSH2 0xC15 JUMP JUMPDEST JUMPDEST SWAP3 SWAP2 POP POP JUMP JUMPDEST PUSH1 0x0 PUSH2 0xCB7 DUP3 PUSH2 0x91B JUMP JUMPDEST SWAP2 POP PUSH32 0xFFFFFFFFFFFFFFFFFFFFFFFFFFFFFFFFFFFFFFFFFFFFFFFFFFFFFFFFFFFFFFFF DUP3 SUB PUSH2 0xCE9 JUMPI PUSH2 0xCE8 PUSH2 0xC15 JUMP JUMPDEST JUMPDEST PUSH1 0x1 DUP3 ADD SWAP1 POP SWAP2 SWAP1 POP JUMP JUMPDEST PUSH1 0x0 PUSH2 0xCFF DUP3 PUSH2 0x91B JUMP JUMPDEST SWAP2 POP PUSH2 0xD0A DUP4 PUSH2 0x91B JUMP JUMPDEST SWAP3 POP DUP3 DUP3 MUL PUSH2 0xD18 DUP2 PUSH2 0x91B JUMP JUMPDEST SWAP2 POP DUP3 DUP3 DIV DUP5 EQ DUP4 ISZERO OR PUSH2 0xD2F JUMPI PUSH2 0xD2E PUSH2 0xC15 JUMP JUMPDEST JUMPDEST POP SWAP3 SWAP2 POP POP JUMP JUMPDEST PUSH32 0x4E487B7100000000000000000000000000000000000000000000000000000000 PUSH1 0x0 MSTORE PUSH1 0x12 PUSH1 0x4 MSTORE PUSH1 0x24 PUSH1 0x0 REVERT JUMPDEST PUSH1 0x0 PUSH2 0xD70 DUP3 PUSH2 0x91B JUMP JUMPDEST SWAP2 POP PUSH2 0xD7B DUP4 PUSH2 0x91B JUMP JUMPDEST SWAP3 POP DUP3 PUSH2 0xD8B JUMPI PUSH2 0xD8A PUSH2 0xD36 JUMP JUMPDEST JUMPDEST DUP3 DUP3 DIV SWAP1 POP SWAP3 SWAP2 POP POP JUMP JUMPDEST PUSH1 0x0 PUSH1 0x40 DUP3 ADD SWAP1 POP PUSH2 0xDAB PUSH1 0x0 DUP4 ADD DUP6 PUSH2 0x925 JUMP JUMPDEST PUSH2 0xDB8 PUSH1 0x20 DUP4 ADD DUP5 PUSH2 0x925 JUMP JUMPDEST SWAP4 SWAP3 POP POP POP JUMP JUMPDEST PUSH32 0x4E487B7100000000000000000000000000000000000000000000000000000000 PUSH1 0x0 MSTORE PUSH1 0x32 PUSH1 0x4 MSTORE PUSH1 0x24 PUSH1 0x0 REVERT JUMPDEST PUSH1 0x0 PUSH2 0xDF9 DUP3 PUSH2 0x91B JUMP JUMPDEST SWAP2 POP PUSH2 0xE04 DUP4 PUSH2 0x91B JUMP JUMPDEST SWAP3 POP DUP3 PUSH2 0xE14 JUMPI PUSH2 0xE13 PUSH2 0xD36 JUMP JUMPDEST JUMPDEST DUP3 DUP3 MOD SWAP1 POP SWAP3 SWAP2 POP POP JUMP INVALID LOG2 PUSH5 0x6970667358 0x22 SLT KECCAK256 SWAP4 0xF7 0xA7 SWAP12 0xDA 0xB3 0xCE 0xC DUP15 0x4D DUP10 0xC6 0xBB 0xD3 0xC5 COINBASE PUSH7 0x730443CCD77338 DUP3 LOG0 BALANCE MSIZE 0xE6 DUP5 SAR DELEGATECALL PUSH5 0x736F6C6343 STOP ADDMOD SGT STOP CALLER "
				},
				"gasEstimates": {
					"creation": {
						"codeDepositCost": "733800",
						"executionCost": "766",
						"totalCost": "734566"
					},
					"external": {
						"aggregateValues(uint256[])": "infinite",
						"extractTimestampsAndAssertAllAreEqual()": "infinite",
						"getAuthorisedSignerIndex(address)": "infinite",
						"getDataServiceId()": "infinite",
						"getUniqueSignersThreshold()": "431",
						"validateTimestamp(uint256)": "infinite"
					}
				},
				"methodIdentifiers": {
					"aggregateValues(uint256[])": "b24ebfcc",
					"extractTimestampsAndAssertAllAreEqual()": "55a547d5",
					"getAuthorisedSignerIndex(address)": "3ce142f5",
					"getDataServiceId()": "c274583a",
					"getUniqueSignersThreshold()": "f90c4924",
					"validateTimestamp(uint256)": "f50b2efe"
				}
			},
			"storageLayout": {
				"storage": [],
				"types": null
			},
			"userdoc": {
				"kind": "user",
				"methods": {},
				"version": 1
			}
		}
	}
}