{
	"@redstone-finance/evm-connector/contracts/core/CalldataExtractor.sol": {
		"CalldataExtractor": {
			"abi": [
				{
					"inputs": [],
					"name": "CalldataMustHaveValidPayload",
					"type": "error"
				},
				{
					"inputs": [],
					"name": "CalldataOverOrUnderFlow",
					"type": "error"
				},
				{
					"inputs": [],
					"name": "DataPackageTimestampMustNotBeZero",
					"type": "error"
				},
				{
					"inputs": [],
					"name": "DataPackageTimestampsMustBeEqual",
					"type": "error"
				},
				{
					"inputs": [],
					"name": "DataTimestampCannotBeZero",
					"type": "error"
				},
				{
					"inputs": [],
					"name": "EachSignerMustProvideTheSameValue",
					"type": "error"
				},
				{
					"inputs": [],
					"name": "EmptyCalldataPointersArr",
					"type": "error"
				},
				{
					"inputs": [],
					"name": "IncorrectUnsignedMetadataSize",
					"type": "error"
				},
				{
					"inputs": [
						{
							"internalType": "uint256",
							"name": "receivedSignersCount",
							"type": "uint256"
						},
						{
							"internalType": "uint256",
							"name": "requiredSignersCount",
							"type": "uint256"
						}
					],
					"name": "InsufficientNumberOfUniqueSigners",
					"type": "error"
				},
				{
					"inputs": [],
					"name": "InvalidCalldataPointer",
					"type": "error"
				},
				{
					"inputs": [],
					"name": "RedstonePayloadMustHaveAtLeastOneDataPackage",
					"type": "error"
				},
				{
					"inputs": [
						{
							"internalType": "address",
							"name": "receivedSigner",
							"type": "address"
						}
					],
					"name": "SignerNotAuthorised",
					"type": "error"
				},
				{
					"inputs": [],
					"name": "TimestampsMustBeEqual",
					"type": "error"
				},
				{
					"inputs": [
						{
							"internalType": "uint256",
							"name": "valueByteSize",
							"type": "uint256"
						}
					],
					"name": "TooLargeValueByteSize",
					"type": "error"
				},
				{
					"inputs": [],
					"name": "extractTimestampsAndAssertAllAreEqual",
					"outputs": [
						{
							"internalType": "uint256",
							"name": "extractedTimestamp",
							"type": "uint256"
						}
					],
					"stateMutability": "pure",
					"type": "function"
				}
			],
			"devdoc": {
				"author": "The Redstone Oracles team",
				"details": "This contract was created to reuse the same logic in the RedstoneConsumerBase and the ProxyConnector contracts",
				"kind": "dev",
				"methods": {},
				"title": "The base contract with the main logic of data extraction from calldata",
				"version": 1
			},
			"evm": {
				"assembly": "    /* \"@redstone-finance/evm-connector/contracts/core/CalldataExtractor.sol\":346:5918  contract CalldataExtractor is RedstoneConstants {... */\n  mstore(0x40, 0x80)\n  callvalue\n  dup1\n  iszero\n  tag_1\n  jumpi\n  0x00\n  dup1\n  revert\ntag_1:\n  pop\n  dataSize(sub_0)\n  dup1\n  dataOffset(sub_0)\n  0x00\n  codecopy\n  0x00\n  return\nstop\n\nsub_0: assembly {\n        /* \"@redstone-finance/evm-connector/contracts/core/CalldataExtractor.sol\":346:5918  contract CalldataExtractor is RedstoneConstants {... */\n      mstore(0x40, 0x80)\n      callvalue\n      dup1\n      iszero\n      tag_1\n      jumpi\n      0x00\n      dup1\n      revert\n    tag_1:\n      pop\n      jumpi(tag_2, lt(calldatasize, 0x04))\n      shr(0xe0, calldataload(0x00))\n      dup1\n      0x55a547d5\n      eq\n      tag_3\n      jumpi\n    tag_2:\n      0x00\n      dup1\n      revert\n        /* \"@redstone-finance/evm-connector/contracts/core/CalldataExtractor.sol\":599:2010  function extractTimestampsAndAssertAllAreEqual() public pure returns (uint256 extractedTimestamp) {... */\n    tag_3:\n      tag_4\n      tag_5\n      jump\t// in\n    tag_4:\n      mload(0x40)\n      tag_6\n      swap2\n      swap1\n      tag_7\n      jump\t// in\n    tag_6:\n      mload(0x40)\n      dup1\n      swap2\n      sub\n      swap1\n      return\n    tag_5:\n        /* \"@redstone-finance/evm-connector/contracts/core/CalldataExtractor.sol\":669:695  uint256 extractedTimestamp */\n      0x00\n        /* \"@redstone-finance/evm-connector/contracts/core/CalldataExtractor.sol\":703:733  uint256 calldataNegativeOffset */\n      dup1\n        /* \"@redstone-finance/evm-connector/contracts/core/CalldataExtractor.sol\":736:772  _extractByteSizeOfUnsignedMetadata() */\n      tag_9\n        /* \"@redstone-finance/evm-connector/contracts/core/CalldataExtractor.sol\":736:770  _extractByteSizeOfUnsignedMetadata */\n      tag_10\n        /* \"@redstone-finance/evm-connector/contracts/core/CalldataExtractor.sol\":736:772  _extractByteSizeOfUnsignedMetadata() */\n      jump\t// in\n    tag_9:\n        /* \"@redstone-finance/evm-connector/contracts/core/CalldataExtractor.sol\":703:772  uint256 calldataNegativeOffset = _extractByteSizeOfUnsignedMetadata() */\n      swap1\n      pop\n        /* \"@redstone-finance/evm-connector/contracts/core/CalldataExtractor.sol\":778:803  uint256 dataPackagesCount */\n      0x00\n        /* \"@redstone-finance/evm-connector/contracts/core/CalldataExtractor.sol\":855:916  _extractDataPackagesCountFromCalldata(calldataNegativeOffset) */\n      tag_11\n        /* \"@redstone-finance/evm-connector/contracts/core/CalldataExtractor.sol\":893:915  calldataNegativeOffset */\n      dup3\n        /* \"@redstone-finance/evm-connector/contracts/core/CalldataExtractor.sol\":855:892  _extractDataPackagesCountFromCalldata */\n      tag_12\n        /* \"@redstone-finance/evm-connector/contracts/core/CalldataExtractor.sol\":855:916  _extractDataPackagesCountFromCalldata(calldataNegativeOffset) */\n      jump\t// in\n    tag_11:\n        /* \"@redstone-finance/evm-connector/contracts/core/CalldataExtractor.sol\":809:916  (dataPackagesCount, calldataNegativeOffset) = _extractDataPackagesCountFromCalldata(calldataNegativeOffset) */\n      dup2\n      0xffff\n      and\n      swap2\n      pop\n      dup1\n      swap4\n      pop\n      dup2\n      swap3\n      pop\n      pop\n      pop\n        /* \"@redstone-finance/evm-connector/contracts/core/CalldataExtractor.sol\":948:949  0 */\n      0x00\n        /* \"@redstone-finance/evm-connector/contracts/core/CalldataExtractor.sol\":927:944  dataPackagesCount */\n      dup2\n        /* \"@redstone-finance/evm-connector/contracts/core/CalldataExtractor.sol\":927:949  dataPackagesCount == 0 */\n      sub\n        /* \"@redstone-finance/evm-connector/contracts/core/CalldataExtractor.sol\":923:1019  if (dataPackagesCount == 0) {... */\n      tag_13\n      jumpi\n        /* \"@redstone-finance/evm-connector/contracts/core/CalldataExtractor.sol\":966:1012  RedstonePayloadMustHaveAtLeastOneDataPackage() */\n      mload(0x40)\n      0x8552ff3c00000000000000000000000000000000000000000000000000000000\n      dup2\n      mstore\n      0x04\n      add\n      mload(0x40)\n      dup1\n      swap2\n      sub\n      swap1\n      revert\n        /* \"@redstone-finance/evm-connector/contracts/core/CalldataExtractor.sol\":923:1019  if (dataPackagesCount == 0) {... */\n    tag_13:\n        /* \"@redstone-finance/evm-connector/contracts/core/CalldataExtractor.sol\":1030:1054  uint256 dataPackageIndex */\n      0x00\n        /* \"@redstone-finance/evm-connector/contracts/core/CalldataExtractor.sol\":1025:2006  for (uint256 dataPackageIndex = 0; dataPackageIndex < dataPackagesCount; dataPackageIndex++) {... */\n    tag_14:\n        /* \"@redstone-finance/evm-connector/contracts/core/CalldataExtractor.sol\":1079:1096  dataPackagesCount */\n      dup2\n        /* \"@redstone-finance/evm-connector/contracts/core/CalldataExtractor.sol\":1060:1076  dataPackageIndex */\n      dup2\n        /* \"@redstone-finance/evm-connector/contracts/core/CalldataExtractor.sol\":1060:1096  dataPackageIndex < dataPackagesCount */\n      lt\n        /* \"@redstone-finance/evm-connector/contracts/core/CalldataExtractor.sol\":1025:2006  for (uint256 dataPackageIndex = 0; dataPackageIndex < dataPackagesCount; dataPackageIndex++) {... */\n      iszero\n      tag_15\n      jumpi\n        /* \"@redstone-finance/evm-connector/contracts/core/CalldataExtractor.sol\":1126:1153  uint256 dataPackageByteSize */\n      0x00\n        /* \"@redstone-finance/evm-connector/contracts/core/CalldataExtractor.sol\":1156:1203  _getDataPackageByteSize(calldataNegativeOffset) */\n      tag_17\n        /* \"@redstone-finance/evm-connector/contracts/core/CalldataExtractor.sol\":1180:1202  calldataNegativeOffset */\n      dup5\n        /* \"@redstone-finance/evm-connector/contracts/core/CalldataExtractor.sol\":1156:1179  _getDataPackageByteSize */\n      tag_18\n        /* \"@redstone-finance/evm-connector/contracts/core/CalldataExtractor.sol\":1156:1203  _getDataPackageByteSize(calldataNegativeOffset) */\n      jump\t// in\n    tag_17:\n        /* \"@redstone-finance/evm-connector/contracts/core/CalldataExtractor.sol\":1126:1203  uint256 dataPackageByteSize = _getDataPackageByteSize(calldataNegativeOffset) */\n      swap1\n      pop\n        /* \"@redstone-finance/evm-connector/contracts/core/CalldataExtractor.sol\":1271:1298  uint48 dataPackageTimestamp */\n      0x00\n        /* \"@redstone-finance/evm-connector/contracts/core/CalldataExtractor.sol\":1348:1379  uint256 timestampNegativeOffset */\n      dup1\n        /* \"@redstone-finance/evm-connector/contracts/core/RedstoneConstants.sol\":1771:1774  104 */\n      0x68\n        /* \"@redstone-finance/evm-connector/contracts/core/CalldataExtractor.sol\":1383:1405  calldataNegativeOffset */\n      dup7\n        /* \"@redstone-finance/evm-connector/contracts/core/CalldataExtractor.sol\":1383:1471  calldataNegativeOffset + TIMESTAMP_NEGATIVE_OFFSET_IN_DATA_PACKAGE_WITH_STANDARD_SLOT_BS */\n      tag_19\n      swap2\n      swap1\n      tag_20\n      jump\t// in\n    tag_19:\n        /* \"@redstone-finance/evm-connector/contracts/core/CalldataExtractor.sol\":1348:1472  uint256 timestampNegativeOffset = (calldataNegativeOffset + TIMESTAMP_NEGATIVE_OFFSET_IN_DATA_PACKAGE_WITH_STANDARD_SLOT_BS) */\n      swap1\n      pop\n        /* \"@redstone-finance/evm-connector/contracts/core/CalldataExtractor.sol\":1480:1503  uint256 timestampOffset */\n      0x00\n        /* \"@redstone-finance/evm-connector/contracts/core/CalldataExtractor.sol\":1524:1547  timestampNegativeOffset */\n      dup2\n        /* \"@redstone-finance/evm-connector/contracts/core/CalldataExtractor.sol\":1506:1514  msg.data */\n      0x00\n      calldatasize\n        /* \"@redstone-finance/evm-connector/contracts/core/CalldataExtractor.sol\":1506:1521  msg.data.length */\n      swap1\n      pop\n        /* \"@redstone-finance/evm-connector/contracts/core/CalldataExtractor.sol\":1506:1547  msg.data.length - timestampNegativeOffset */\n      tag_21\n      swap2\n      swap1\n      tag_22\n      jump\t// in\n    tag_21:\n        /* \"@redstone-finance/evm-connector/contracts/core/CalldataExtractor.sol\":1480:1547  uint256 timestampOffset = msg.data.length - timestampNegativeOffset */\n      swap1\n      pop\n        /* \"@redstone-finance/evm-connector/contracts/core/CalldataExtractor.sol\":1611:1626  timestampOffset */\n      dup1\n        /* \"@redstone-finance/evm-connector/contracts/core/CalldataExtractor.sol\":1598:1627  calldataload(timestampOffset) */\n      calldataload\n        /* \"@redstone-finance/evm-connector/contracts/core/CalldataExtractor.sol\":1574:1627  dataPackageTimestamp := calldataload(timestampOffset) */\n      swap3\n      pop\n        /* \"@redstone-finance/evm-connector/contracts/core/CalldataExtractor.sol\":1671:1672  0 */\n      0x00\n        /* \"@redstone-finance/evm-connector/contracts/core/CalldataExtractor.sol\":1647:1667  dataPackageTimestamp */\n      dup4\n        /* \"@redstone-finance/evm-connector/contracts/core/CalldataExtractor.sol\":1647:1672  dataPackageTimestamp == 0 */\n      0xffffffffffff\n      and\n      sub\n        /* \"@redstone-finance/evm-connector/contracts/core/CalldataExtractor.sol\":1643:1735  if (dataPackageTimestamp == 0) {... */\n      tag_23\n      jumpi\n        /* \"@redstone-finance/evm-connector/contracts/core/CalldataExtractor.sol\":1691:1726  DataPackageTimestampMustNotBeZero() */\n      mload(0x40)\n      0x336dc9d000000000000000000000000000000000000000000000000000000000\n      dup2\n      mstore\n      0x04\n      add\n      mload(0x40)\n      dup1\n      swap2\n      sub\n      swap1\n      revert\n        /* \"@redstone-finance/evm-connector/contracts/core/CalldataExtractor.sol\":1643:1735  if (dataPackageTimestamp == 0) {... */\n    tag_23:\n        /* \"@redstone-finance/evm-connector/contracts/core/CalldataExtractor.sol\":1769:1770  0 */\n      0x00\n        /* \"@redstone-finance/evm-connector/contracts/core/CalldataExtractor.sol\":1747:1765  extractedTimestamp */\n      dup9\n        /* \"@redstone-finance/evm-connector/contracts/core/CalldataExtractor.sol\":1747:1770  extractedTimestamp == 0 */\n      sub\n        /* \"@redstone-finance/evm-connector/contracts/core/CalldataExtractor.sol\":1743:1946  if (extractedTimestamp == 0) {... */\n      tag_24\n      jumpi\n        /* \"@redstone-finance/evm-connector/contracts/core/CalldataExtractor.sol\":1803:1823  dataPackageTimestamp */\n      dup3\n        /* \"@redstone-finance/evm-connector/contracts/core/CalldataExtractor.sol\":1782:1823  extractedTimestamp = dataPackageTimestamp */\n      0xffffffffffff\n      and\n      swap8\n      pop\n        /* \"@redstone-finance/evm-connector/contracts/core/CalldataExtractor.sol\":1743:1946  if (extractedTimestamp == 0) {... */\n      jump(tag_25)\n    tag_24:\n        /* \"@redstone-finance/evm-connector/contracts/core/CalldataExtractor.sol\":1866:1884  extractedTimestamp */\n      dup8\n        /* \"@redstone-finance/evm-connector/contracts/core/CalldataExtractor.sol\":1842:1862  dataPackageTimestamp */\n      dup4\n        /* \"@redstone-finance/evm-connector/contracts/core/CalldataExtractor.sol\":1842:1884  dataPackageTimestamp != extractedTimestamp */\n      0xffffffffffff\n      and\n      eq\n        /* \"@redstone-finance/evm-connector/contracts/core/CalldataExtractor.sol\":1838:1946  if (dataPackageTimestamp != extractedTimestamp) {... */\n      tag_26\n      jumpi\n        /* \"@redstone-finance/evm-connector/contracts/core/CalldataExtractor.sol\":1903:1937  DataPackageTimestampsMustBeEqual() */\n      mload(0x40)\n      0xd9d1f46500000000000000000000000000000000000000000000000000000000\n      dup2\n      mstore\n      0x04\n      add\n      mload(0x40)\n      dup1\n      swap2\n      sub\n      swap1\n      revert\n        /* \"@redstone-finance/evm-connector/contracts/core/CalldataExtractor.sol\":1838:1946  if (dataPackageTimestamp != extractedTimestamp) {... */\n    tag_26:\n        /* \"@redstone-finance/evm-connector/contracts/core/CalldataExtractor.sol\":1743:1946  if (extractedTimestamp == 0) {... */\n    tag_25:\n        /* \"@redstone-finance/evm-connector/contracts/core/CalldataExtractor.sol\":1980:1999  dataPackageByteSize */\n      dup4\n        /* \"@redstone-finance/evm-connector/contracts/core/CalldataExtractor.sol\":1954:1999  calldataNegativeOffset += dataPackageByteSize */\n      dup8\n      tag_27\n      swap2\n      swap1\n      tag_20\n      jump\t// in\n    tag_27:\n      swap7\n      pop\n        /* \"@redstone-finance/evm-connector/contracts/core/CalldataExtractor.sol\":1118:2006  {... */\n      pop\n      pop\n      pop\n      pop\n        /* \"@redstone-finance/evm-connector/contracts/core/CalldataExtractor.sol\":1098:1116  dataPackageIndex++ */\n      dup1\n      dup1\n      tag_28\n      swap1\n      tag_29\n      jump\t// in\n    tag_28:\n      swap2\n      pop\n      pop\n        /* \"@redstone-finance/evm-connector/contracts/core/CalldataExtractor.sol\":1025:2006  for (uint256 dataPackageIndex = 0; dataPackageIndex < dataPackagesCount; dataPackageIndex++) {... */\n      jump(tag_14)\n    tag_15:\n      pop\n        /* \"@redstone-finance/evm-connector/contracts/core/CalldataExtractor.sol\":697:2010  {... */\n      pop\n      pop\n        /* \"@redstone-finance/evm-connector/contracts/core/CalldataExtractor.sol\":599:2010  function extractTimestampsAndAssertAllAreEqual() public pure returns (uint256 extractedTimestamp) {... */\n      swap1\n      jump\t// out\n        /* \"@redstone-finance/evm-connector/contracts/core/CalldataExtractor.sol\":2410:3579  function _extractByteSizeOfUnsignedMetadata() internal pure returns (uint256) {... */\n    tag_10:\n        /* \"@redstone-finance/evm-connector/contracts/core/CalldataExtractor.sol\":2479:2486  uint256 */\n      0x00\n        /* \"@redstone-finance/evm-connector/contracts/core/CalldataExtractor.sol\":2556:2583  bool hasValidRedstoneMarker */\n      dup1\n        /* \"@redstone-finance/evm-connector/contracts/core/CalldataExtractor.sol\":2666:2682  STANDARD_SLOT_BS */\n      0x20\n        /* \"@redstone-finance/evm-connector/contracts/core/CalldataExtractor.sol\":2650:2664  calldatasize() */\n      calldatasize\n        /* \"@redstone-finance/evm-connector/contracts/core/CalldataExtractor.sol\":2646:2683  sub(calldatasize(), STANDARD_SLOT_BS) */\n      sub\n        /* \"@redstone-finance/evm-connector/contracts/core/CalldataExtractor.sol\":2633:2684  calldataload(sub(calldatasize(), STANDARD_SLOT_BS)) */\n      calldataload\n        /* \"@redstone-finance/evm-connector/contracts/core/CalldataExtractor.sol\":2784:2804  REDSTONE_MARKER_MASK */\n      0x02ed57011e0000\n        /* \"@redstone-finance/evm-connector/contracts/core/CalldataExtractor.sol\":2763:2782  calldataLast32Bytes */\n      dup2\n        /* \"@redstone-finance/evm-connector/contracts/core/CalldataExtractor.sol\":2759:2805  and(calldataLast32Bytes, REDSTONE_MARKER_MASK) */\n      and\n        /* \"@redstone-finance/evm-connector/contracts/core/CalldataExtractor.sol\":2729:2749  REDSTONE_MARKER_MASK */\n      0x02ed57011e0000\n        /* \"@redstone-finance/evm-connector/contracts/core/CalldataExtractor.sol\":2717:2813  eq(... */\n      eq\n        /* \"@redstone-finance/evm-connector/contracts/core/CalldataExtractor.sol\":2691:2813  hasValidRedstoneMarker := eq(... */\n      swap2\n      pop\n        /* \"@redstone-finance/evm-connector/contracts/core/CalldataExtractor.sol\":2598:2819  {... */\n      pop\n        /* \"@redstone-finance/evm-connector/contracts/core/CalldataExtractor.sol\":2829:2851  hasValidRedstoneMarker */\n      dup1\n        /* \"@redstone-finance/evm-connector/contracts/core/CalldataExtractor.sol\":2824:2905  if (!hasValidRedstoneMarker) {... */\n      tag_31\n      jumpi\n        /* \"@redstone-finance/evm-connector/contracts/core/CalldataExtractor.sol\":2868:2898  CalldataMustHaveValidPayload() */\n      mload(0x40)\n      0xe7764c9e00000000000000000000000000000000000000000000000000000000\n      dup2\n      mstore\n      0x04\n      add\n      mload(0x40)\n      dup1\n      swap2\n      sub\n      swap1\n      revert\n        /* \"@redstone-finance/evm-connector/contracts/core/CalldataExtractor.sol\":2824:2905  if (!hasValidRedstoneMarker) {... */\n    tag_31:\n        /* \"@redstone-finance/evm-connector/contracts/core/CalldataExtractor.sol\":2987:3018  uint24 unsignedMetadataByteSize */\n      0x00\n        /* \"@redstone-finance/evm-connector/contracts/core/CalldataExtractor.sol\":3071:3079  msg.data */\n      dup1\n      calldatasize\n        /* \"@redstone-finance/evm-connector/contracts/core/CalldataExtractor.sol\":3071:3086  msg.data.length */\n      swap1\n      pop\n        /* \"@redstone-finance/evm-connector/contracts/core/RedstoneConstants.sol\":2230:2232  41 */\n      0x29\n        /* \"@redstone-finance/evm-connector/contracts/core/CalldataExtractor.sol\":3028:3086  REDSTONE_MARKER_BS_PLUS_STANDARD_SLOT_BS > msg.data.length */\n      gt\n        /* \"@redstone-finance/evm-connector/contracts/core/CalldataExtractor.sol\":3024:3135  if (REDSTONE_MARKER_BS_PLUS_STANDARD_SLOT_BS > msg.data.length) {... */\n      iszero\n      tag_32\n      jumpi\n        /* \"@redstone-finance/evm-connector/contracts/core/CalldataExtractor.sol\":3103:3128  CalldataOverOrUnderFlow() */\n      mload(0x40)\n      0x5796f78a00000000000000000000000000000000000000000000000000000000\n      dup2\n      mstore\n      0x04\n      add\n      mload(0x40)\n      dup1\n      swap2\n      sub\n      swap1\n      revert\n        /* \"@redstone-finance/evm-connector/contracts/core/CalldataExtractor.sol\":3024:3135  if (REDSTONE_MARKER_BS_PLUS_STANDARD_SLOT_BS > msg.data.length) {... */\n    tag_32:\n        /* \"@redstone-finance/evm-connector/contracts/core/CalldataExtractor.sol\":3227:3267  REDSTONE_MARKER_BS_PLUS_STANDARD_SLOT_BS */\n      0x29\n        /* \"@redstone-finance/evm-connector/contracts/core/CalldataExtractor.sol\":3211:3225  calldatasize() */\n      calldatasize\n        /* \"@redstone-finance/evm-connector/contracts/core/CalldataExtractor.sol\":3207:3268  sub(calldatasize(), REDSTONE_MARKER_BS_PLUS_STANDARD_SLOT_BS) */\n      sub\n        /* \"@redstone-finance/evm-connector/contracts/core/CalldataExtractor.sol\":3185:3276  calldataload(... */\n      calldataload\n        /* \"@redstone-finance/evm-connector/contracts/core/CalldataExtractor.sol\":3157:3276  unsignedMetadataByteSize := calldataload(... */\n      swap1\n      pop\n        /* \"@redstone-finance/evm-connector/contracts/core/CalldataExtractor.sol\":3287:3317  uint256 calldataNegativeOffset */\n      0x00\n        /* \"@redstone-finance/evm-connector/contracts/core/RedstoneConstants.sol\":1479:1480  9 */\n      0x09\n        /* \"@redstone-finance/evm-connector/contracts/core/RedstoneConstants.sol\":1427:1428  3 */\n      0x03\n        /* \"@redstone-finance/evm-connector/contracts/core/CalldataExtractor.sol\":3320:3344  unsignedMetadataByteSize */\n      dup4\n        /* \"@redstone-finance/evm-connector/contracts/core/CalldataExtractor.sol\":3320:3383  unsignedMetadataByteSize... */\n      0xffffff\n      and\n      tag_33\n      swap2\n      swap1\n      tag_20\n      jump\t// in\n    tag_33:\n        /* \"@redstone-finance/evm-connector/contracts/core/CalldataExtractor.sol\":3320:3410  unsignedMetadataByteSize... */\n      tag_34\n      swap2\n      swap1\n      tag_20\n      jump\t// in\n    tag_34:\n        /* \"@redstone-finance/evm-connector/contracts/core/CalldataExtractor.sol\":3287:3410  uint256 calldataNegativeOffset = unsignedMetadataByteSize... */\n      swap1\n      pop\n        /* \"@redstone-finance/evm-connector/contracts/core/CalldataExtractor.sol\":3470:3478  msg.data */\n      0x00\n      calldatasize\n        /* \"@redstone-finance/evm-connector/contracts/core/CalldataExtractor.sol\":3470:3485  msg.data.length */\n      swap1\n      pop\n        /* \"@redstone-finance/evm-connector/contracts/core/RedstoneConstants.sol\":1129:1130  2 */\n      0x02\n        /* \"@redstone-finance/evm-connector/contracts/core/CalldataExtractor.sol\":3420:3442  calldataNegativeOffset */\n      dup3\n        /* \"@redstone-finance/evm-connector/contracts/core/CalldataExtractor.sol\":3420:3467  calldataNegativeOffset + DATA_PACKAGES_COUNT_BS */\n      tag_35\n      swap2\n      swap1\n      tag_20\n      jump\t// in\n    tag_35:\n        /* \"@redstone-finance/evm-connector/contracts/core/CalldataExtractor.sol\":3420:3485  calldataNegativeOffset + DATA_PACKAGES_COUNT_BS > msg.data.length */\n      gt\n        /* \"@redstone-finance/evm-connector/contracts/core/CalldataExtractor.sol\":3416:3540  if (calldataNegativeOffset + DATA_PACKAGES_COUNT_BS > msg.data.length) {... */\n      iszero\n      tag_36\n      jumpi\n        /* \"@redstone-finance/evm-connector/contracts/core/CalldataExtractor.sol\":3502:3533  IncorrectUnsignedMetadataSize() */\n      mload(0x40)\n      0xc30a7bd700000000000000000000000000000000000000000000000000000000\n      dup2\n      mstore\n      0x04\n      add\n      mload(0x40)\n      dup1\n      swap2\n      sub\n      swap1\n      revert\n        /* \"@redstone-finance/evm-connector/contracts/core/CalldataExtractor.sol\":3416:3540  if (calldataNegativeOffset + DATA_PACKAGES_COUNT_BS > msg.data.length) {... */\n    tag_36:\n        /* \"@redstone-finance/evm-connector/contracts/core/CalldataExtractor.sol\":3552:3574  calldataNegativeOffset */\n      dup1\n        /* \"@redstone-finance/evm-connector/contracts/core/CalldataExtractor.sol\":3545:3574  return calldataNegativeOffset */\n      swap4\n      pop\n      pop\n      pop\n      pop\n        /* \"@redstone-finance/evm-connector/contracts/core/CalldataExtractor.sol\":2410:3579  function _extractByteSizeOfUnsignedMetadata() internal pure returns (uint256) {... */\n      swap1\n      jump\t// out\n        /* \"@redstone-finance/evm-connector/contracts/core/CalldataExtractor.sol\":3661:4273  function _extractDataPackagesCountFromCalldata(uint256 calldataNegativeOffset)... */\n    tag_12:\n        /* \"@redstone-finance/evm-connector/contracts/core/CalldataExtractor.sol\":3775:3799  uint16 dataPackagesCount */\n      0x00\n        /* \"@redstone-finance/evm-connector/contracts/core/CalldataExtractor.sol\":3801:3835  uint256 nextCalldataNegativeOffset */\n      dup1\n        /* \"@redstone-finance/evm-connector/contracts/core/CalldataExtractor.sol\":3845:3891  uint256 calldataNegativeOffsetWithStandardSlot */\n      0x00\n        /* \"@redstone-finance/evm-connector/contracts/core/RedstoneConstants.sol\":524:526  32 */\n      0x20\n        /* \"@redstone-finance/evm-connector/contracts/core/CalldataExtractor.sol\":3894:3916  calldataNegativeOffset */\n      dup5\n        /* \"@redstone-finance/evm-connector/contracts/core/CalldataExtractor.sol\":3894:3935  calldataNegativeOffset + STANDARD_SLOT_BS */\n      tag_38\n      swap2\n      swap1\n      tag_20\n      jump\t// in\n    tag_38:\n        /* \"@redstone-finance/evm-connector/contracts/core/CalldataExtractor.sol\":3845:3935  uint256 calldataNegativeOffsetWithStandardSlot = calldataNegativeOffset + STANDARD_SLOT_BS */\n      swap1\n      pop\n        /* \"@redstone-finance/evm-connector/contracts/core/CalldataExtractor.sol\":3986:3994  msg.data */\n      0x00\n      calldatasize\n        /* \"@redstone-finance/evm-connector/contracts/core/CalldataExtractor.sol\":3986:4001  msg.data.length */\n      swap1\n      pop\n        /* \"@redstone-finance/evm-connector/contracts/core/CalldataExtractor.sol\":3945:3983  calldataNegativeOffsetWithStandardSlot */\n      dup2\n        /* \"@redstone-finance/evm-connector/contracts/core/CalldataExtractor.sol\":3945:4001  calldataNegativeOffsetWithStandardSlot > msg.data.length */\n      gt\n        /* \"@redstone-finance/evm-connector/contracts/core/CalldataExtractor.sol\":3941:4050  if (calldataNegativeOffsetWithStandardSlot > msg.data.length) {... */\n      iszero\n      tag_39\n      jumpi\n        /* \"@redstone-finance/evm-connector/contracts/core/CalldataExtractor.sol\":4018:4043  CalldataOverOrUnderFlow() */\n      mload(0x40)\n      0x5796f78a00000000000000000000000000000000000000000000000000000000\n      dup2\n      mstore\n      0x04\n      add\n      mload(0x40)\n      dup1\n      swap2\n      sub\n      swap1\n      revert\n        /* \"@redstone-finance/evm-connector/contracts/core/CalldataExtractor.sol\":3941:4050  if (calldataNegativeOffsetWithStandardSlot > msg.data.length) {... */\n    tag_39:\n        /* \"@redstone-finance/evm-connector/contracts/core/CalldataExtractor.sol\":4135:4173  calldataNegativeOffsetWithStandardSlot */\n      dup1\n        /* \"@redstone-finance/evm-connector/contracts/core/CalldataExtractor.sol\":4119:4133  calldatasize() */\n      calldatasize\n        /* \"@redstone-finance/evm-connector/contracts/core/CalldataExtractor.sol\":4115:4174  sub(calldatasize(), calldataNegativeOffsetWithStandardSlot) */\n      sub\n        /* \"@redstone-finance/evm-connector/contracts/core/CalldataExtractor.sol\":4093:4182  calldataload(... */\n      calldataload\n        /* \"@redstone-finance/evm-connector/contracts/core/CalldataExtractor.sol\":4072:4182  dataPackagesCount := calldataload(... */\n      swap3\n      pop\n        /* \"@redstone-finance/evm-connector/contracts/core/CalldataExtractor.sol\":4201:4218  dataPackagesCount */\n      dup3\n        /* \"@redstone-finance/evm-connector/contracts/core/RedstoneConstants.sol\":1129:1130  2 */\n      0x02\n        /* \"@redstone-finance/evm-connector/contracts/core/CalldataExtractor.sol\":4220:4242  calldataNegativeOffset */\n      dup6\n        /* \"@redstone-finance/evm-connector/contracts/core/CalldataExtractor.sol\":4220:4267  calldataNegativeOffset + DATA_PACKAGES_COUNT_BS */\n      tag_40\n      swap2\n      swap1\n      tag_20\n      jump\t// in\n    tag_40:\n        /* \"@redstone-finance/evm-connector/contracts/core/CalldataExtractor.sol\":4193:4268  return (dataPackagesCount, calldataNegativeOffset + DATA_PACKAGES_COUNT_BS) */\n      swap3\n      pop\n      swap3\n      pop\n      pop\n        /* \"@redstone-finance/evm-connector/contracts/core/CalldataExtractor.sol\":3661:4273  function _extractDataPackagesCountFromCalldata(uint256 calldataNegativeOffset)... */\n      swap2\n      pop\n      swap2\n      jump\t// out\n        /* \"@redstone-finance/evm-connector/contracts/core/CalldataExtractor.sol\":2014:2406  function _getDataPackageByteSize(uint256 calldataNegativeOffset) internal pure returns (uint256) {... */\n    tag_18:\n        /* \"@redstone-finance/evm-connector/contracts/core/CalldataExtractor.sol\":2102:2109  uint256 */\n      0x00\n        /* \"@redstone-finance/evm-connector/contracts/core/CalldataExtractor.sol\":2125:2148  uint256 dataPointsCount */\n      dup1\n        /* \"@redstone-finance/evm-connector/contracts/core/CalldataExtractor.sol\":2156:2190  uint256 eachDataPointValueByteSize */\n      0x00\n        /* \"@redstone-finance/evm-connector/contracts/core/CalldataExtractor.sol\":2199:2262  _extractDataPointsDetailsForDataPackage(calldataNegativeOffset) */\n      tag_42\n        /* \"@redstone-finance/evm-connector/contracts/core/CalldataExtractor.sol\":2239:2261  calldataNegativeOffset */\n      dup5\n        /* \"@redstone-finance/evm-connector/contracts/core/CalldataExtractor.sol\":2199:2238  _extractDataPointsDetailsForDataPackage */\n      tag_43\n        /* \"@redstone-finance/evm-connector/contracts/core/CalldataExtractor.sol\":2199:2262  _extractDataPointsDetailsForDataPackage(calldataNegativeOffset) */\n      jump\t// in\n    tag_42:\n        /* \"@redstone-finance/evm-connector/contracts/core/CalldataExtractor.sol\":2117:2262  (... */\n      swap2\n      pop\n      swap2\n      pop\n        /* \"@redstone-finance/evm-connector/contracts/core/RedstoneConstants.sol\":1926:1928  78 */\n      0x4e\n        /* \"@redstone-finance/evm-connector/contracts/core/CalldataExtractor.sol\":2330:2356  eachDataPointValueByteSize */\n      dup2\n        /* \"@redstone-finance/evm-connector/contracts/core/RedstoneConstants.sol\":1300:1302  32 */\n      0x20\n        /* \"@redstone-finance/evm-connector/contracts/core/CalldataExtractor.sol\":2307:2356  DATA_POINT_SYMBOL_BS + eachDataPointValueByteSize */\n      tag_44\n      swap2\n      swap1\n      tag_20\n      jump\t// in\n    tag_44:\n        /* \"@redstone-finance/evm-connector/contracts/core/CalldataExtractor.sol\":2282:2297  dataPointsCount */\n      dup4\n        /* \"@redstone-finance/evm-connector/contracts/core/CalldataExtractor.sol\":2282:2357  dataPointsCount *... */\n      tag_45\n      swap2\n      swap1\n      tag_46\n      jump\t// in\n    tag_45:\n        /* \"@redstone-finance/evm-connector/contracts/core/CalldataExtractor.sol\":2282:2401  dataPointsCount *... */\n      tag_47\n      swap2\n      swap1\n      tag_20\n      jump\t// in\n    tag_47:\n        /* \"@redstone-finance/evm-connector/contracts/core/CalldataExtractor.sol\":2269:2401  return... */\n      swap3\n      pop\n      pop\n      pop\n        /* \"@redstone-finance/evm-connector/contracts/core/CalldataExtractor.sol\":2014:2406  function _getDataPackageByteSize(uint256 calldataNegativeOffset) internal pure returns (uint256) {... */\n      swap2\n      swap1\n      pop\n      jump\t// out\n        /* \"@redstone-finance/evm-connector/contracts/core/CalldataExtractor.sol\":4955:5916  function _extractDataPointsDetailsForDataPackage(uint256 calldataNegativeOffsetForDataPackage)... */\n    tag_43:\n        /* \"@redstone-finance/evm-connector/contracts/core/CalldataExtractor.sol\":5085:5108  uint256 dataPointsCount */\n      0x00\n        /* \"@redstone-finance/evm-connector/contracts/core/CalldataExtractor.sol\":5110:5144  uint256 eachDataPointValueByteSize */\n      dup1\n        /* \"@redstone-finance/evm-connector/contracts/core/CalldataExtractor.sol\":5230:5253  uint24 dataPointsCount_ */\n      0x00\n        /* \"@redstone-finance/evm-connector/contracts/core/CalldataExtractor.sol\":5328:5362  uint32 eachDataPointValueByteSize_ */\n      dup1\n        /* \"@redstone-finance/evm-connector/contracts/core/CalldataExtractor.sol\":5402:5424  uint256 calldataOffset */\n      0x00\n        /* \"@redstone-finance/evm-connector/contracts/core/RedstoneConstants.sol\":524:526  32 */\n      0x20\n        /* \"@redstone-finance/evm-connector/contracts/core/RedstoneConstants.sol\":1026:1028  65 */\n      0x41\n        /* \"@redstone-finance/evm-connector/contracts/core/CalldataExtractor.sol\":5446:5482  calldataNegativeOffsetForDataPackage */\n      dup8\n        /* \"@redstone-finance/evm-connector/contracts/core/CalldataExtractor.sol\":5446:5491  calldataNegativeOffsetForDataPackage + SIG_BS */\n      tag_49\n      swap2\n      swap1\n      tag_20\n      jump\t// in\n    tag_49:\n        /* \"@redstone-finance/evm-connector/contracts/core/CalldataExtractor.sol\":5446:5510  calldataNegativeOffsetForDataPackage + SIG_BS + STANDARD_SLOT_BS */\n      tag_50\n      swap2\n      swap1\n      tag_20\n      jump\t// in\n    tag_50:\n        /* \"@redstone-finance/evm-connector/contracts/core/CalldataExtractor.sol\":5427:5435  msg.data */\n      0x00\n      calldatasize\n        /* \"@redstone-finance/evm-connector/contracts/core/CalldataExtractor.sol\":5427:5442  msg.data.length */\n      swap1\n      pop\n        /* \"@redstone-finance/evm-connector/contracts/core/CalldataExtractor.sol\":5427:5511  msg.data.length - (calldataNegativeOffsetForDataPackage + SIG_BS + STANDARD_SLOT_BS) */\n      tag_51\n      swap2\n      swap1\n      tag_22\n      jump\t// in\n    tag_51:\n        /* \"@redstone-finance/evm-connector/contracts/core/CalldataExtractor.sol\":5402:5511  uint256 calldataOffset = msg.data.length - (calldataNegativeOffsetForDataPackage + SIG_BS + STANDARD_SLOT_BS) */\n      swap1\n      pop\n        /* \"@redstone-finance/evm-connector/contracts/core/CalldataExtractor.sol\":5567:5581  calldataOffset */\n      dup1\n        /* \"@redstone-finance/evm-connector/contracts/core/CalldataExtractor.sol\":5554:5582  calldataload(calldataOffset) */\n      calldataload\n        /* \"@redstone-finance/evm-connector/contracts/core/CalldataExtractor.sol\":5534:5582  dataPointsCount_ := calldataload(calldataOffset) */\n      swap3\n      pop\n        /* \"@redstone-finance/evm-connector/contracts/core/RedstoneConstants.sol\":1183:1184  3 */\n      0x03\n        /* \"@redstone-finance/evm-connector/contracts/core/CalldataExtractor.sol\":5653:5667  calldataOffset */\n      dup2\n        /* \"@redstone-finance/evm-connector/contracts/core/CalldataExtractor.sol\":5653:5690  calldataOffset - DATA_POINTS_COUNT_BS */\n      tag_52\n      swap2\n      swap1\n      tag_22\n      jump\t// in\n    tag_52:\n        /* \"@redstone-finance/evm-connector/contracts/core/CalldataExtractor.sol\":5636:5690  calldataOffset = calldataOffset - DATA_POINTS_COUNT_BS */\n      swap1\n      pop\n        /* \"@redstone-finance/evm-connector/contracts/core/CalldataExtractor.sol\":5757:5771  calldataOffset */\n      dup1\n        /* \"@redstone-finance/evm-connector/contracts/core/CalldataExtractor.sol\":5744:5772  calldataload(calldataOffset) */\n      calldataload\n        /* \"@redstone-finance/evm-connector/contracts/core/CalldataExtractor.sol\":5713:5772  eachDataPointValueByteSize_ := calldataload(calldataOffset) */\n      swap2\n      pop\n        /* \"@redstone-finance/evm-connector/contracts/core/CalldataExtractor.sol\":5833:5849  dataPointsCount_ */\n      dup3\n        /* \"@redstone-finance/evm-connector/contracts/core/CalldataExtractor.sol\":5815:5849  dataPointsCount = dataPointsCount_ */\n      0xffffff\n      and\n      swap5\n      pop\n        /* \"@redstone-finance/evm-connector/contracts/core/CalldataExtractor.sol\":5884:5911  eachDataPointValueByteSize_ */\n      dup2\n        /* \"@redstone-finance/evm-connector/contracts/core/CalldataExtractor.sol\":5855:5911  eachDataPointValueByteSize = eachDataPointValueByteSize_ */\n      0xffffffff\n      and\n      swap4\n      pop\n        /* \"@redstone-finance/evm-connector/contracts/core/CalldataExtractor.sol\":5148:5916  {... */\n      pop\n      pop\n      pop\n        /* \"@redstone-finance/evm-connector/contracts/core/CalldataExtractor.sol\":4955:5916  function _extractDataPointsDetailsForDataPackage(uint256 calldataNegativeOffsetForDataPackage)... */\n      swap2\n      pop\n      swap2\n      jump\t// out\n        /* \"#utility.yul\":7:84   */\n    tag_53:\n        /* \"#utility.yul\":44:51   */\n      0x00\n        /* \"#utility.yul\":73:78   */\n      dup2\n        /* \"#utility.yul\":62:78   */\n      swap1\n      pop\n        /* \"#utility.yul\":7:84   */\n      swap2\n      swap1\n      pop\n      jump\t// out\n        /* \"#utility.yul\":90:208   */\n    tag_54:\n        /* \"#utility.yul\":177:201   */\n      tag_59\n        /* \"#utility.yul\":195:200   */\n      dup2\n        /* \"#utility.yul\":177:201   */\n      tag_53\n      jump\t// in\n    tag_59:\n        /* \"#utility.yul\":172:175   */\n      dup3\n        /* \"#utility.yul\":165:202   */\n      mstore\n        /* \"#utility.yul\":90:208   */\n      pop\n      pop\n      jump\t// out\n        /* \"#utility.yul\":214:436   */\n    tag_7:\n        /* \"#utility.yul\":307:311   */\n      0x00\n        /* \"#utility.yul\":345:347   */\n      0x20\n        /* \"#utility.yul\":334:343   */\n      dup3\n        /* \"#utility.yul\":330:348   */\n      add\n        /* \"#utility.yul\":322:348   */\n      swap1\n      pop\n        /* \"#utility.yul\":358:429   */\n      tag_61\n        /* \"#utility.yul\":426:427   */\n      0x00\n        /* \"#utility.yul\":415:424   */\n      dup4\n        /* \"#utility.yul\":411:428   */\n      add\n        /* \"#utility.yul\":402:408   */\n      dup5\n        /* \"#utility.yul\":358:429   */\n      tag_54\n      jump\t// in\n    tag_61:\n        /* \"#utility.yul\":214:436   */\n      swap3\n      swap2\n      pop\n      pop\n      jump\t// out\n        /* \"#utility.yul\":442:622   */\n    tag_55:\n        /* \"#utility.yul\":490:567   */\n      0x4e487b7100000000000000000000000000000000000000000000000000000000\n        /* \"#utility.yul\":487:488   */\n      0x00\n        /* \"#utility.yul\":480:568   */\n      mstore\n        /* \"#utility.yul\":587:591   */\n      0x11\n        /* \"#utility.yul\":584:585   */\n      0x04\n        /* \"#utility.yul\":577:592   */\n      mstore\n        /* \"#utility.yul\":611:615   */\n      0x24\n        /* \"#utility.yul\":608:609   */\n      0x00\n        /* \"#utility.yul\":601:616   */\n      revert\n        /* \"#utility.yul\":628:819   */\n    tag_20:\n        /* \"#utility.yul\":668:671   */\n      0x00\n        /* \"#utility.yul\":687:707   */\n      tag_64\n        /* \"#utility.yul\":705:706   */\n      dup3\n        /* \"#utility.yul\":687:707   */\n      tag_53\n      jump\t// in\n    tag_64:\n        /* \"#utility.yul\":682:707   */\n      swap2\n      pop\n        /* \"#utility.yul\":721:741   */\n      tag_65\n        /* \"#utility.yul\":739:740   */\n      dup4\n        /* \"#utility.yul\":721:741   */\n      tag_53\n      jump\t// in\n    tag_65:\n        /* \"#utility.yul\":716:741   */\n      swap3\n      pop\n        /* \"#utility.yul\":764:765   */\n      dup3\n        /* \"#utility.yul\":761:762   */\n      dup3\n        /* \"#utility.yul\":757:766   */\n      add\n        /* \"#utility.yul\":750:766   */\n      swap1\n      pop\n        /* \"#utility.yul\":785:788   */\n      dup1\n        /* \"#utility.yul\":782:783   */\n      dup3\n        /* \"#utility.yul\":779:789   */\n      gt\n        /* \"#utility.yul\":776:812   */\n      iszero\n      tag_66\n      jumpi\n        /* \"#utility.yul\":792:810   */\n      tag_67\n      tag_55\n      jump\t// in\n    tag_67:\n        /* \"#utility.yul\":776:812   */\n    tag_66:\n        /* \"#utility.yul\":628:819   */\n      swap3\n      swap2\n      pop\n      pop\n      jump\t// out\n        /* \"#utility.yul\":825:1019   */\n    tag_22:\n        /* \"#utility.yul\":865:869   */\n      0x00\n        /* \"#utility.yul\":885:905   */\n      tag_69\n        /* \"#utility.yul\":903:904   */\n      dup3\n        /* \"#utility.yul\":885:905   */\n      tag_53\n      jump\t// in\n    tag_69:\n        /* \"#utility.yul\":880:905   */\n      swap2\n      pop\n        /* \"#utility.yul\":919:939   */\n      tag_70\n        /* \"#utility.yul\":937:938   */\n      dup4\n        /* \"#utility.yul\":919:939   */\n      tag_53\n      jump\t// in\n    tag_70:\n        /* \"#utility.yul\":914:939   */\n      swap3\n      pop\n        /* \"#utility.yul\":963:964   */\n      dup3\n        /* \"#utility.yul\":960:961   */\n      dup3\n        /* \"#utility.yul\":956:965   */\n      sub\n        /* \"#utility.yul\":948:965   */\n      swap1\n      pop\n        /* \"#utility.yul\":987:988   */\n      dup2\n        /* \"#utility.yul\":981:985   */\n      dup2\n        /* \"#utility.yul\":978:989   */\n      gt\n        /* \"#utility.yul\":975:1012   */\n      iszero\n      tag_71\n      jumpi\n        /* \"#utility.yul\":992:1010   */\n      tag_72\n      tag_55\n      jump\t// in\n    tag_72:\n        /* \"#utility.yul\":975:1012   */\n    tag_71:\n        /* \"#utility.yul\":825:1019   */\n      swap3\n      swap2\n      pop\n      pop\n      jump\t// out\n        /* \"#utility.yul\":1025:1258   */\n    tag_29:\n        /* \"#utility.yul\":1064:1067   */\n      0x00\n        /* \"#utility.yul\":1087:1111   */\n      tag_74\n        /* \"#utility.yul\":1105:1110   */\n      dup3\n        /* \"#utility.yul\":1087:1111   */\n      tag_53\n      jump\t// in\n    tag_74:\n        /* \"#utility.yul\":1078:1111   */\n      swap2\n      pop\n        /* \"#utility.yul\":1133:1199   */\n      0xffffffffffffffffffffffffffffffffffffffffffffffffffffffffffffffff\n        /* \"#utility.yul\":1126:1131   */\n      dup3\n        /* \"#utility.yul\":1123:1200   */\n      sub\n        /* \"#utility.yul\":1120:1223   */\n      tag_75\n      jumpi\n        /* \"#utility.yul\":1203:1221   */\n      tag_76\n      tag_55\n      jump\t// in\n    tag_76:\n        /* \"#utility.yul\":1120:1223   */\n    tag_75:\n        /* \"#utility.yul\":1250:1251   */\n      0x01\n        /* \"#utility.yul\":1243:1248   */\n      dup3\n        /* \"#utility.yul\":1239:1252   */\n      add\n        /* \"#utility.yul\":1232:1252   */\n      swap1\n      pop\n        /* \"#utility.yul\":1025:1258   */\n      swap2\n      swap1\n      pop\n      jump\t// out\n        /* \"#utility.yul\":1264:1674   */\n    tag_46:\n        /* \"#utility.yul\":1304:1311   */\n      0x00\n        /* \"#utility.yul\":1327:1347   */\n      tag_78\n        /* \"#utility.yul\":1345:1346   */\n      dup3\n        /* \"#utility.yul\":1327:1347   */\n      tag_53\n      jump\t// in\n    tag_78:\n        /* \"#utility.yul\":1322:1347   */\n      swap2\n      pop\n        /* \"#utility.yul\":1361:1381   */\n      tag_79\n        /* \"#utility.yul\":1379:1380   */\n      dup4\n        /* \"#utility.yul\":1361:1381   */\n      tag_53\n      jump\t// in\n    tag_79:\n        /* \"#utility.yul\":1356:1381   */\n      swap3\n      pop\n        /* \"#utility.yul\":1416:1417   */\n      dup3\n        /* \"#utility.yul\":1413:1414   */\n      dup3\n        /* \"#utility.yul\":1409:1418   */\n      mul\n        /* \"#utility.yul\":1438:1468   */\n      tag_80\n        /* \"#utility.yul\":1456:1467   */\n      dup2\n        /* \"#utility.yul\":1438:1468   */\n      tag_53\n      jump\t// in\n    tag_80:\n        /* \"#utility.yul\":1427:1468   */\n      swap2\n      pop\n        /* \"#utility.yul\":1617:1618   */\n      dup3\n        /* \"#utility.yul\":1608:1615   */\n      dup3\n        /* \"#utility.yul\":1604:1619   */\n      div\n        /* \"#utility.yul\":1601:1602   */\n      dup5\n        /* \"#utility.yul\":1598:1620   */\n      eq\n        /* \"#utility.yul\":1578:1579   */\n      dup4\n        /* \"#utility.yul\":1571:1580   */\n      iszero\n        /* \"#utility.yul\":1551:1634   */\n      or\n        /* \"#utility.yul\":1528:1667   */\n      tag_81\n      jumpi\n        /* \"#utility.yul\":1647:1665   */\n      tag_82\n      tag_55\n      jump\t// in\n    tag_82:\n        /* \"#utility.yul\":1528:1667   */\n    tag_81:\n        /* \"#utility.yul\":1312:1674   */\n      pop\n        /* \"#utility.yul\":1264:1674   */\n      swap3\n      swap2\n      pop\n      pop\n      jump\t// out\n\n    auxdata: 0xa2646970667358221220f5dfe8baa4091f1d984f0f976f09aa362a5c76f6482d6ade38e3f0ac0aa46ed764736f6c63430008130033\n}\n",
				"bytecode": {
					"linkReferences": {},
					"object": "608060405234801561001057600080fd5b50610565806100206000396000f3fe608060405234801561001057600080fd5b506004361061002b5760003560e01c806355a547d514610030575b600080fd5b61003861004e565b60405161004591906103f3565b60405180910390f35b6000806100596101b8565b90506000610066826102c9565b8161ffff1691508093508192505050600081036100af576040517f8552ff3c00000000000000000000000000000000000000000000000000000000815260040160405180910390fd5b60005b818110156101b25760006100c584610339565b90506000806068866100d7919061043d565b905060008160003690506100eb9190610471565b90508035925060008365ffffffffffff1603610133576040517f336dc9d000000000000000000000000000000000000000000000000000000000815260040160405180910390fd5b6000880361014b578265ffffffffffff16975061018d565b878365ffffffffffff161461018c576040517fd9d1f46500000000000000000000000000000000000000000000000000000000815260040160405180910390fd5b5b8387610199919061043d565b96505050505080806101aa906104a5565b9150506100b2565b50505090565b60008060203603356602ed57011e000081166602ed57011e0000149150508061020d576040517fe7764c9e00000000000000000000000000000000000000000000000000000000815260040160405180910390fd5b6000803690506029111561024d576040517f5796f78a00000000000000000000000000000000000000000000000000000000815260040160405180910390fd5b602936033590506000600960038362ffffff1661026a919061043d565b610274919061043d565b90506000369050600282610288919061043d565b11156102c0576040517fc30a7bd700000000000000000000000000000000000000000000000000000000815260040160405180910390fd5b80935050505090565b60008060006020846102db919061043d565b9050600036905081111561031b576040517f5796f78a00000000000000000000000000000000000000000000000000000000815260040160405180910390fd5b8036033592508260028561032f919061043d565b9250925050915091565b600080600061034784610378565b91509150604e81602061035a919061043d565b8361036591906104ed565b61036f919061043d565b92505050919050565b6000806000806000602060418761038f919061043d565b610399919061043d565b60003690506103a89190610471565b9050803592506003816103bb9190610471565b9050803591508262ffffff1694508163ffffffff169350505050915091565b6000819050919050565b6103ed816103da565b82525050565b600060208201905061040860008301846103e4565b92915050565b7f4e487b7100000000000000000000000000000000000000000000000000000000600052601160045260246000fd5b6000610448826103da565b9150610453836103da565b925082820190508082111561046b5761046a61040e565b5b92915050565b600061047c826103da565b9150610487836103da565b925082820390508181111561049f5761049e61040e565b5b92915050565b60006104b0826103da565b91507fffffffffffffffffffffffffffffffffffffffffffffffffffffffffffffffff82036104e2576104e161040e565b5b600182019050919050565b60006104f8826103da565b9150610503836103da565b9250828202610511816103da565b915082820484148315176105285761052761040e565b5b509291505056fea2646970667358221220f5dfe8baa4091f1d984f0f976f09aa362a5c76f6482d6ade38e3f0ac0aa46ed764736f6c63430008130033",
					"opcodes": "PUSH1 0x80 PUSH1 0x40 MSTORE CALLVALUE DUP1 ISZERO PUSH2 0x10 JUMPI PUSH1 0x0 DUP1 REVERT JUMPDEST POP PUSH2 0x565 DUP1 PUSH2 0x20 PUSH1 0x0 CODECOPY PUSH1 0x0 RETURN INVALID PUSH1 0x80 PUSH1 0x40 MSTORE CALLVALUE DUP1 ISZERO PUSH2 0x10 JUMPI PUSH1 0x0 DUP1 REVERT JUMPDEST POP PUSH1 0x4 CALLDATASIZE LT PUSH2 0x2B JUMPI PUSH1 0x0 CALLDATALOAD PUSH1 0xE0 SHR DUP1 PUSH4 0x55A547D5 EQ PUSH2 0x30 JUMPI JUMPDEST PUSH1 0x0 DUP1 REVERT JUMPDEST PUSH2 0x38 PUSH2 0x4E JUMP JUMPDEST PUSH1 0x40 MLOAD PUSH2 0x45 SWAP2 SWAP1 PUSH2 0x3F3 JUMP JUMPDEST PUSH1 0x40 MLOAD DUP1 SWAP2 SUB SWAP1 RETURN JUMPDEST PUSH1 0x0 DUP1 PUSH2 0x59 PUSH2 0x1B8 JUMP JUMPDEST SWAP1 POP PUSH1 0x0 PUSH2 0x66 DUP3 PUSH2 0x2C9 JUMP JUMPDEST DUP2 PUSH2 0xFFFF AND SWAP2 POP DUP1 SWAP4 POP DUP2 SWAP3 POP POP POP PUSH1 0x0 DUP2 SUB PUSH2 0xAF JUMPI PUSH1 0x40 MLOAD PUSH32 0x8552FF3C00000000000000000000000000000000000000000000000000000000 DUP2 MSTORE PUSH1 0x4 ADD PUSH1 0x40 MLOAD DUP1 SWAP2 SUB SWAP1 REVERT JUMPDEST PUSH1 0x0 JUMPDEST DUP2 DUP2 LT ISZERO PUSH2 0x1B2 JUMPI PUSH1 0x0 PUSH2 0xC5 DUP5 PUSH2 0x339 JUMP JUMPDEST SWAP1 POP PUSH1 0x0 DUP1 PUSH1 0x68 DUP7 PUSH2 0xD7 SWAP2 SWAP1 PUSH2 0x43D JUMP JUMPDEST SWAP1 POP PUSH1 0x0 DUP2 PUSH1 0x0 CALLDATASIZE SWAP1 POP PUSH2 0xEB SWAP2 SWAP1 PUSH2 0x471 JUMP JUMPDEST SWAP1 POP DUP1 CALLDATALOAD SWAP3 POP PUSH1 0x0 DUP4 PUSH6 0xFFFFFFFFFFFF AND SUB PUSH2 0x133 JUMPI PUSH1 0x40 MLOAD PUSH32 0x336DC9D000000000000000000000000000000000000000000000000000000000 DUP2 MSTORE PUSH1 0x4 ADD PUSH1 0x40 MLOAD DUP1 SWAP2 SUB SWAP1 REVERT JUMPDEST PUSH1 0x0 DUP9 SUB PUSH2 0x14B JUMPI DUP3 PUSH6 0xFFFFFFFFFFFF AND SWAP8 POP PUSH2 0x18D JUMP JUMPDEST DUP8 DUP4 PUSH6 0xFFFFFFFFFFFF AND EQ PUSH2 0x18C JUMPI PUSH1 0x40 MLOAD PUSH32 0xD9D1F46500000000000000000000000000000000000000000000000000000000 DUP2 MSTORE PUSH1 0x4 ADD PUSH1 0x40 MLOAD DUP1 SWAP2 SUB SWAP1 REVERT JUMPDEST JUMPDEST DUP4 DUP8 PUSH2 0x199 SWAP2 SWAP1 PUSH2 0x43D JUMP JUMPDEST SWAP7 POP POP POP POP POP DUP1 DUP1 PUSH2 0x1AA SWAP1 PUSH2 0x4A5 JUMP JUMPDEST SWAP2 POP POP PUSH2 0xB2 JUMP JUMPDEST POP POP POP SWAP1 JUMP JUMPDEST PUSH1 0x0 DUP1 PUSH1 0x20 CALLDATASIZE SUB CALLDATALOAD PUSH7 0x2ED57011E0000 DUP2 AND PUSH7 0x2ED57011E0000 EQ SWAP2 POP POP DUP1 PUSH2 0x20D JUMPI PUSH1 0x40 MLOAD PUSH32 0xE7764C9E00000000000000000000000000000000000000000000000000000000 DUP2 MSTORE PUSH1 0x4 ADD PUSH1 0x40 MLOAD DUP1 SWAP2 SUB SWAP1 REVERT JUMPDEST PUSH1 0x0 DUP1 CALLDATASIZE SWAP1 POP PUSH1 0x29 GT ISZERO PUSH2 0x24D JUMPI PUSH1 0x40 MLOAD PUSH32 0x5796F78A00000000000000000000000000000000000000000000000000000000 DUP2 MSTORE PUSH1 0x4 ADD PUSH1 0x40 MLOAD DUP1 SWAP2 SUB SWAP1 REVERT JUMPDEST PUSH1 0x29 CALLDATASIZE SUB CALLDATALOAD SWAP1 POP PUSH1 0x0 PUSH1 0x9 PUSH1 0x3 DUP4 PUSH3 0xFFFFFF AND PUSH2 0x26A SWAP2 SWAP1 PUSH2 0x43D JUMP JUMPDEST PUSH2 0x274 SWAP2 SWAP1 PUSH2 0x43D JUMP JUMPDEST SWAP1 POP PUSH1 0x0 CALLDATASIZE SWAP1 POP PUSH1 0x2 DUP3 PUSH2 0x288 SWAP2 SWAP1 PUSH2 0x43D JUMP JUMPDEST GT ISZERO PUSH2 0x2C0 JUMPI PUSH1 0x40 MLOAD PUSH32 0xC30A7BD700000000000000000000000000000000000000000000000000000000 DUP2 MSTORE PUSH1 0x4 ADD PUSH1 0x40 MLOAD DUP1 SWAP2 SUB SWAP1 REVERT JUMPDEST DUP1 SWAP4 POP POP POP POP SWAP1 JUMP JUMPDEST PUSH1 0x0 DUP1 PUSH1 0x0 PUSH1 0x20 DUP5 PUSH2 0x2DB SWAP2 SWAP1 PUSH2 0x43D JUMP JUMPDEST SWAP1 POP PUSH1 0x0 CALLDATASIZE SWAP1 POP DUP2 GT ISZERO PUSH2 0x31B JUMPI PUSH1 0x40 MLOAD PUSH32 0x5796F78A00000000000000000000000000000000000000000000000000000000 DUP2 MSTORE PUSH1 0x4 ADD PUSH1 0x40 MLOAD DUP1 SWAP2 SUB SWAP1 REVERT JUMPDEST DUP1 CALLDATASIZE SUB CALLDATALOAD SWAP3 POP DUP3 PUSH1 0x2 DUP6 PUSH2 0x32F SWAP2 SWAP1 PUSH2 0x43D JUMP JUMPDEST SWAP3 POP SWAP3 POP POP SWAP2 POP SWAP2 JUMP JUMPDEST PUSH1 0x0 DUP1 PUSH1 0x0 PUSH2 0x347 DUP5 PUSH2 0x378 JUMP JUMPDEST SWAP2 POP SWAP2 POP PUSH1 0x4E DUP2 PUSH1 0x20 PUSH2 0x35A SWAP2 SWAP1 PUSH2 0x43D JUMP JUMPDEST DUP4 PUSH2 0x365 SWAP2 SWAP1 PUSH2 0x4ED JUMP JUMPDEST PUSH2 0x36F SWAP2 SWAP1 PUSH2 0x43D JUMP JUMPDEST SWAP3 POP POP POP SWAP2 SWAP1 POP JUMP JUMPDEST PUSH1 0x0 DUP1 PUSH1 0x0 DUP1 PUSH1 0x0 PUSH1 0x20 PUSH1 0x41 DUP8 PUSH2 0x38F SWAP2 SWAP1 PUSH2 0x43D JUMP JUMPDEST PUSH2 0x399 SWAP2 SWAP1 PUSH2 0x43D JUMP JUMPDEST PUSH1 0x0 CALLDATASIZE SWAP1 POP PUSH2 0x3A8 SWAP2 SWAP1 PUSH2 0x471 JUMP JUMPDEST SWAP1 POP DUP1 CALLDATALOAD SWAP3 POP PUSH1 0x3 DUP2 PUSH2 0x3BB SWAP2 SWAP1 PUSH2 0x471 JUMP JUMPDEST SWAP1 POP DUP1 CALLDATALOAD SWAP2 POP DUP3 PUSH3 0xFFFFFF AND SWAP5 POP DUP2 PUSH4 0xFFFFFFFF AND SWAP4 POP POP POP POP SWAP2 POP SWAP2 JUMP JUMPDEST PUSH1 0x0 DUP2 SWAP1 POP SWAP2 SWAP1 POP JUMP JUMPDEST PUSH2 0x3ED DUP2 PUSH2 0x3DA JUMP JUMPDEST DUP3 MSTORE POP POP JUMP JUMPDEST PUSH1 0x0 PUSH1 0x20 DUP3 ADD SWAP1 POP PUSH2 0x408 PUSH1 0x0 DUP4 ADD DUP5 PUSH2 0x3E4 JUMP JUMPDEST SWAP3 SWAP2 POP POP JUMP JUMPDEST PUSH32 0x4E487B7100000000000000000000000000000000000000000000000000000000 PUSH1 0x0 MSTORE PUSH1 0x11 PUSH1 0x4 MSTORE PUSH1 0x24 PUSH1 0x0 REVERT JUMPDEST PUSH1 0x0 PUSH2 0x448 DUP3 PUSH2 0x3DA JUMP JUMPDEST SWAP2 POP PUSH2 0x453 DUP4 PUSH2 0x3DA JUMP JUMPDEST SWAP3 POP DUP3 DUP3 ADD SWAP1 POP DUP1 DUP3 GT ISZERO PUSH2 0x46B JUMPI PUSH2 0x46A PUSH2 0x40E JUMP JUMPDEST JUMPDEST SWAP3 SWAP2 POP POP JUMP JUMPDEST PUSH1 0x0 PUSH2 0x47C DUP3 PUSH2 0x3DA JUMP JUMPDEST SWAP2 POP PUSH2 0x487 DUP4 PUSH2 0x3DA JUMP JUMPDEST SWAP3 POP DUP3 DUP3 SUB SWAP1 POP DUP2 DUP2 GT ISZERO PUSH2 0x49F JUMPI PUSH2 0x49E PUSH2 0x40E JUMP JUMPDEST JUMPDEST SWAP3 SWAP2 POP POP JUMP JUMPDEST PUSH1 0x0 PUSH2 0x4B0 DUP3 PUSH2 0x3DA JUMP JUMPDEST SWAP2 POP PUSH32 0xFFFFFFFFFFFFFFFFFFFFFFFFFFFFFFFFFFFFFFFFFFFFFFFFFFFFFFFFFFFFFFFF DUP3 SUB PUSH2 0x4E2 JUMPI PUSH2 0x4E1 PUSH2 0x40E JUMP JUMPDEST JUMPDEST PUSH1 0x1 DUP3 ADD SWAP1 POP SWAP2 SWAP1 POP JUMP JUMPDEST PUSH1 0x0 PUSH2 0x4F8 DUP3 PUSH2 0x3DA JUMP JUMPDEST SWAP2 POP PUSH2 0x503 DUP4 PUSH2 0x3DA JUMP JUMPDEST SWAP3 POP DUP3 DUP3 MUL PUSH2 0x511 DUP2 PUSH2 0x3DA JUMP JUMPDEST SWAP2 POP DUP3 DUP3 DIV DUP5 EQ DUP4 ISZERO OR PUSH2 0x528 JUMPI PUSH2 0x527 PUSH2 0x40E JUMP JUMPDEST JUMPDEST POP SWAP3 SWAP2 POP POP JUMP INVALID LOG2 PUSH5 0x6970667358 0x22 SLT KECCAK256 CREATE2 0xDF 0xE8 0xBA LOG4 MULMOD 0x1F SAR SWAP9 0x4F 0xF SWAP8 PUSH16 0x9AA362A5C76F6482D6ADE38E3F0AC0A LOG4 PUSH15 0xD764736F6C63430008130033000000 "
				},
				"gasEstimates": {
					"creation": {
						"codeDepositCost": "276200",
						"executionCost": "318",
						"totalCost": "276518"
					},
					"external": {
						"extractTimestampsAndAssertAllAreEqual()": "infinite"
					},
					"internal": {
						"_extractByteSizeOfUnsignedMetadata()": "infinite",
						"_extractDataPackagesCountFromCalldata(uint256)": "infinite",
						"_extractDataPointValueAndDataFeedId(uint256,uint256)": "infinite",
						"_extractDataPointsDetailsForDataPackage(uint256)": "infinite",
						"_getDataPackageByteSize(uint256)": "infinite"
					}
				},
				"methodIdentifiers": {
					"extractTimestampsAndAssertAllAreEqual()": "55a547d5"
				}
			},
			"storageLayout": {
				"storage": [],
				"types": null
			},
			"userdoc": {
				"kind": "user",
				"methods": {},
				"version": 1
			}
		}
	}
}