{
	"data": {
		"bytecode": {
			"linkReferences": {},
			"object": "60806040525f600255348015610013575f80fd5b506040516124d63803806124d6833981810160405281019061003591906100a7565b7f42544300000000000000000000000000000000000000000000000000000000005f81905550816001819055508060038190555050506100e5565b5f80fd5b5f819050919050565b61008681610074565b8114610090575f80fd5b50565b5f815190506100a18161007d565b92915050565b5f80604083850312156100bd576100bc610070565b5b5f6100ca85828601610093565b92505060206100db85828601610093565b9150509250929050565b6123e4806100f25f395ff3fe608060405260043610610113575f3560e01c80637a1fc2e21161009f578063c6788bdd11610063578063c6788bdd14610375578063e1152343146103b1578063efbe1c1c146103ed578063f50b2efe14610417578063f90c49241461043f57610113565b80637a1fc2e21461027f57806389a78f1a146102a9578063a3b5afb1146102e5578063b24ebfcc1461030f578063c274583a1461034b57610113565b80633ce142f5116100e65780633ce142f5146101c35780634bb278f3146101ff5780634e71d92d1461021557806355a547d51461022b5780636f1d4ea41461025557610113565b8063096a37781461011757806316934fc4146101335780631ce623831461016f57806327793f8714610199575b5f80fd5b610131600480360381019061012c91906119e2565b610469565b005b34801561013e575f80fd5b5061015960048036038101906101549190611a67565b610698565b6040516101669190611aaa565b60405180910390f35b34801561017a575f80fd5b506101836106ad565b6040516101909190611aaa565b60405180910390f35b3480156101a4575f80fd5b506101ad6106b3565b6040516101ba9190611adb565b60405180910390f35b3480156101ce575f80fd5b506101e960048036038101906101e49190611a67565b6106b9565b6040516101f69190611b0f565b60405180910390f35b34801561020a575f80fd5b5061021361074b565b005b348015610220575f80fd5b50610229610828565b005b348015610236575f80fd5b5061023f610ab2565b60405161024c9190611aaa565b60405180910390f35b348015610260575f80fd5b50610269610c0c565b6040516102769190611aaa565b60405180910390f35b34801561028a575f80fd5b50610293610c12565b6040516102a09190611aaa565b60405180910390f35b3480156102b4575f80fd5b506102cf60048036038101906102ca9190611a67565b610c18565b6040516102dc9190611b42565b60405180910390f35b3480156102f0575f80fd5b506102f9610c34565b6040516103069190611aaa565b60405180910390f35b34801561031a575f80fd5b5061033560048036038101906103309190611cd5565b610c3a565b6040516103429190611aaa565b60405180910390f35b348015610356575f80fd5b5061035f610c4b565b60405161036c9190611d7c565b60405180910390f35b348015610380575f80fd5b5061039b60048036038101906103969190611a67565b610c88565b6040516103a89190611dab565b60405180910390f35b3480156103bc575f80fd5b506103d760048036038101906103d29190611dc4565b610ca5565b6040516103e49190611aaa565b60405180910390f35b3480156103f8575f80fd5b50610401610d7e565b60405161040e9190611aaa565b60405180910390f35b348015610422575f80fd5b5061043d60048036038101906104389190611dc4565b610d84565b005b34801561044a575f80fd5b50610453610d87565b6040516104609190611b0f565b60405180910390f35b5f34036104ab576040517f08c379a00000000000000000000000000000000000000000000000000000000081526004016104a290611e39565b60405180910390fd5b5f60055f3373ffffffffffffffffffffffffffffffffffffffff1673ffffffffffffffffffffffffffffffffffffffff1681526020019081526020015f205f9054906101000a90045f0b5f0b14610537576040517f08c379a000000000000000000000000000000000000000000000000000000000815260040161052e90611ea1565b60405180910390fd5b80156105b257600160055f3373ffffffffffffffffffffffffffffffffffffffff1673ffffffffffffffffffffffffffffffffffffffff1681526020019081526020015f205f6101000a81548160ff02191690835f0b60ff1602179055503460085f8282546105a69190611eec565b92505081905550610642565b7fffffffffffffffffffffffffffffffffffffffffffffffffffffffffffffffff60055f3373ffffffffffffffffffffffffffffffffffffffff1673ffffffffffffffffffffffffffffffffffffffff1681526020019081526020015f205f6101000a81548160ff02191690835f0b60ff1602179055503460095f82825461063a9190611eec565b925050819055505b3460065f3373ffffffffffffffffffffffffffffffffffffffff1673ffffffffffffffffffffffffffffffffffffffff1681526020019081526020015f205f82825461068e9190611eec565b9250508190555050565b6006602052805f5260405f205f915090505481565b60015481565b60025481565b5f730c39486f770b26f5527bbbf942726537986cd7eb73ffffffffffffffffffffffffffffffffffffffff168273ffffffffffffffffffffffffffffffffffffffff1603610709575f9050610746565b816040517fec459bc000000000000000000000000000000000000000000000000000000000815260040161073d9190611f2e565b60405180910390fd5b919050565b5f6002541461078f576040517f08c379a000000000000000000000000000000000000000000000000000000000815260040161078690611f91565b60405180910390fd5b610797610ab2565b600354146107da576040517f08c379a00000000000000000000000000000000000000000000000000000000081526004016107d190611ff9565b60405180910390fd5b5f6107e55f54610d8f565b905060015481106107fd576001600281905550610825565b7fffffffffffffffffffffffffffffffffffffffffffffffffffffffffffffffff6002819055505b50565b5f6002540361086c576040517f08c379a000000000000000000000000000000000000000000000000000000000815260040161086390612061565b60405180910390fd5b60025460055f3373ffffffffffffffffffffffffffffffffffffffff1673ffffffffffffffffffffffffffffffffffffffff1681526020019081526020015f205f9054906101000a90045f0b5f0b146108fa576040517f08c379a00000000000000000000000000000000000000000000000000000000081526004016108f1906120c9565b60405180910390fd5b5f151560075f3373ffffffffffffffffffffffffffffffffffffffff1673ffffffffffffffffffffffffffffffffffffffff1681526020019081526020015f205f9054906101000a900460ff16151514610989576040517f08c379a000000000000000000000000000000000000000000000000000000000815260040161098090612131565b60405180910390fd5b5f60065f3373ffffffffffffffffffffffffffffffffffffffff1673ffffffffffffffffffffffffffffffffffffffff1681526020019081526020015f205490503373ffffffffffffffffffffffffffffffffffffffff166108fc6109ed83610ca5565b90811502906040515f60405180830381858888f19350505050158015610a15573d5f803e3d5ffd5b503373ffffffffffffffffffffffffffffffffffffffff166108fc8290811502906040515f60405180830381858888f19350505050158015610a59573d5f803e3d5ffd5b50600160075f3373ffffffffffffffffffffffffffffffffffffffff1673ffffffffffffffffffffffffffffffffffffffff1681526020019081526020015f205f6101000a81548160ff02191690831515021790555050565b5f80610abc610e28565b90505f610ac882610f35565b8161ffff16915080935081925050505f8103610b10576040517f8552ff3c00000000000000000000000000000000000000000000000000000000815260040160405180910390fd5b5f5b81811015610c06575f610b2484610fa2565b90505f80606886610b359190611eec565b90505f815f369050610b47919061214f565b9050803592505f8365ffffffffffff1603610b8e576040517f336dc9d000000000000000000000000000000000000000000000000000000000815260040160405180910390fd5b5f8803610ba5578265ffffffffffff169750610be7565b878365ffffffffffff1614610be6576040517fd9d1f46500000000000000000000000000000000000000000000000000000000815260040160405180910390fd5b5b8387610bf39190611eec565b9650505050508080600101915050610b12565b50505090565b60085481565b60045481565b6005602052805f5260405f205f915054906101000a90045f0b81565b60095481565b5f610c4482610fdf565b9050919050565b60606040518060400160405280601281526020017f72656473746f6e652d6d61696e2d64656d6f0000000000000000000000000000815250905090565b6007602052805f5260405f205f915054906101000a900460ff1681565b5f806305f5e10090505f600160025414610cc157600954610cc5565b6008545b905080841115610d0a576040517f08c379a0000000000000000000000000000000000000000000000000000000008152600401610d01906121cc565b60405180910390fd5b5f7fffffffffffffffffffffffffffffffffffffffffffffffffffffffffffffffff60025414610d3c57600854610d40565b6009545b90505f828487610d5091906121ea565b610d5a9190612258565b9050838282610d6991906121ea565b610d739190612258565b945050505050919050565b60035481565b50565b5f6001905090565b5f80600167ffffffffffffffff811115610dac57610dab611b6f565b5b604051908082528060200260200182016040528015610dda5781602001602082028036833780820191505090505b50905082815f81518110610df157610df0612288565b5b602002602001018181525050610e0681610ff0565b5f81518110610e1857610e17612288565b5b6020026020010151915050919050565b5f8060203603356602ed57011e000081166602ed57011e00001491505080610e7c576040517fe7764c9e00000000000000000000000000000000000000000000000000000000815260040160405180910390fd5b5f8036905060291115610ebb576040517f5796f78a00000000000000000000000000000000000000000000000000000000815260040160405180910390fd5b602936033590505f600960038362ffffff16610ed79190611eec565b610ee19190611eec565b90505f369050600282610ef49190611eec565b1115610f2c576040517fc30a7bd700000000000000000000000000000000000000000000000000000000815260040160405180910390fd5b80935050505090565b5f805f602084610f459190611eec565b90505f369050811115610f84576040517f5796f78a00000000000000000000000000000000000000000000000000000000815260040160405180910390fd5b80360335925082600285610f989190611eec565b9250925050915091565b5f805f610fae84611014565b91509150604e816020610fc19190611eec565b83610fcc91906121ea565b610fd69190611eec565b92505050919050565b5f610fe982611072565b9050919050565b60605f80610ffd846111c1565b9150915061100a81610d84565b8192505050919050565b5f805f805f60206041876110289190611eec565b6110329190611eec565b5f369050611040919061214f565b905080359250600381611053919061214f565b9050803591508262ffffff1694508163ffffffff169350505050915091565b5f60028251036110d05760028260018151811061109257611091612288565b5b6020026020010151835f815181106110ad576110ac612288565b5b60200260200101516110bf9190611eec565b6110c99190612258565b90506111bc565b5f82510361110a576040517f9e198af900000000000000000000000000000000000000000000000000000000815260040160405180910390fd5b61111382611431565b5f600283516111229190612258565b90505f6002845161113391906122b5565b0361119d575f83828151811061114c5761114b612288565b5b602002602001015184600184611162919061214f565b8151811061117357611172612288565b5b60200260200101516111859190611eec565b90506002816111949190612258565b925050506111bc565b8281815181106111b0576111af612288565b5b60200260200101519150505b919050565b60605f80835167ffffffffffffffff8111156111e0576111df611b6f565b5b60405190808252806020026020018201604052801561120e5781602001602082028036833780820191505090505b5090505f845167ffffffffffffffff81111561122d5761122c611b6f565b5b60405190808252806020026020018201604052801561125b5781602001602082028036833780820191505090505b5090505f855167ffffffffffffffff81111561127a57611279611b6f565b5b6040519080825280602002602001820160405280156112ad57816020015b60608152602001906001900390816112985790505b5090505f5b8651811015611339576112c3610d87565b60ff1667ffffffffffffffff8111156112df576112de611b6f565b5b60405190808252806020026020018201604052801561130d5781602001602082028036833780820191505090505b5082828151811061132157611320612288565b5b602002602001018190525080806001019150506112b2565b505f611343610e28565b90505f61134f82610f35565b8161ffff16915080935081925050505f60405190505f5b82811015611419575f61137c8b89898989611484565b80925081965050505f81036113bd576040517fdfb25a7900000000000000000000000000000000000000000000000000000000815260040160405180910390fd5b8881141580156113cd57505f8914155b15611404576040517f4cbc474200000000000000000000000000000000000000000000000000000000815260040160405180910390fd5b80985082604052818060010192505050611366565b506114248487611741565b9750505050505050915091565b805160208201602082028101815b8181101561147d57825b81811015611471578151815180821015611464578084528183525b5050602081019050611449565b5060208101905061143f565b5050505050565b5f805f805f61149286611014565b915091505f8060605f80600d6020876114ab9190611eec565b886114b691906121ea565b6114c09190611eec565b91505f60688c6114d09190611eec565b5f3690506114de919061214f565b90505f8360418e6114ef9190611eec565b6114f99190611eec565b5f369050611507919061214f565b90506115138482611540565b945083602086012095508135925061155b565b5f6040519050818152602081019050818101604052919050565b5f61154a83611526565b838382376020810391505092915050565b8265ffffffffffff169a5061157c8660418f6115779190611eec565b611884565b9650611587876106b9565b60ff16995050505050505050604e866115a09190611eec565b95505f805f5b8481101561172e576020848a6115bc9190611eec565b6115c69190611eec565b98506115d289856118fd565b80935081945050505f5b8d51811015611720578d81815181106115f8576115f7612288565b5b60200260200101518403611713575f8c828151811061161a57611619612288565b5b6020026020010151905061162e8189611975565b15801561165e575061163e610d87565b60ff168e838151811061165457611653612288565b5b6020026020010151105b1561170d57838c838151811061167757611676612288565b5b60200260200101518f848151811061169257611691612288565b5b6020026020010151815181106116ab576116aa612288565b5b6020026020010181815250508d82815181106116ca576116c9612288565b5b6020026020010180518091906116df906122e5565b815250506116ed818961198c565b8d8381518110611700576116ff612288565b5b6020026020010181815250505b50611720565b80806001019150506115dc565b5080806001019150506115a6565b5050508594505050509550959350505050565b60605f835167ffffffffffffffff81111561175f5761175e611b6f565b5b60405190808252806020026020018201604052801561178d5781602001602082028036833780820191505090505b5090505f611799610d87565b60ff1690505f5b855181101561187857818582815181106117bd576117bc612288565b5b60200260200101511015611824578481815181106117de576117dd612288565b5b6020026020010151826040517f2b13aef500000000000000000000000000000000000000000000000000000000815260040161181b92919061232c565b60405180910390fd5b5f61184887838151811061183b5761183a612288565b5b6020026020010151610c3a565b90508084838151811061185e5761185d612288565b5b6020026020010181815250505080806001019150506117a0565b50819250505092915050565b5f805f80843603803593506020810190508035925060208101905080355f1a9150506001868285856040515f81526020016040526040516118c8949392919061236b565b6020604051602081039080840390855afa1580156118e8573d5f803e3d5ffd5b50505060206040510351935050505092915050565b5f805f845f36905061190f919061214f565b905080359250602081013591506021841061196157836040517fc000fc420000000000000000000000000000000000000000000000000000000081526004016119589190611aaa565b60405180910390fd5b6008846020030282901c9150509250929050565b5f80826001901b841690505f811191505092915050565b5f816001901b8317905092915050565b5f604051905090565b5f80fd5b5f80fd5b5f8115159050919050565b6119c1816119ad565b81146119cb575f80fd5b50565b5f813590506119dc816119b8565b92915050565b5f602082840312156119f7576119f66119a5565b5b5f611a04848285016119ce565b91505092915050565b5f73ffffffffffffffffffffffffffffffffffffffff82169050919050565b5f611a3682611a0d565b9050919050565b611a4681611a2c565b8114611a50575f80fd5b50565b5f81359050611a6181611a3d565b92915050565b5f60208284031215611a7c57611a7b6119a5565b5b5f611a8984828501611a53565b91505092915050565b5f819050919050565b611aa481611a92565b82525050565b5f602082019050611abd5f830184611a9b565b92915050565b5f819050919050565b611ad581611ac3565b82525050565b5f602082019050611aee5f830184611acc565b92915050565b5f60ff82169050919050565b611b0981611af4565b82525050565b5f602082019050611b225f830184611b00565b92915050565b5f815f0b9050919050565b611b3c81611b28565b82525050565b5f602082019050611b555f830184611b33565b92915050565b5f80fd5b5f601f19601f8301169050919050565b7f4e487b71000000000000000000000000000000000000000000000000000000005f52604160045260245ffd5b611ba582611b5f565b810181811067ffffffffffffffff82111715611bc457611bc3611b6f565b5b80604052505050565b5f611bd661199c565b9050611be28282611b9c565b919050565b5f67ffffffffffffffff821115611c0157611c00611b6f565b5b602082029050602081019050919050565b5f80fd5b611c1f81611a92565b8114611c29575f80fd5b50565b5f81359050611c3a81611c16565b92915050565b5f611c52611c4d84611be7565b611bcd565b90508083825260208201905060208402830185811115611c7557611c74611c12565b5b835b81811015611c9e5780611c8a8882611c2c565b845260208401935050602081019050611c77565b5050509392505050565b5f82601f830112611cbc57611cbb611b5b565b5b8135611ccc848260208601611c40565b91505092915050565b5f60208284031215611cea57611ce96119a5565b5b5f82013567ffffffffffffffff811115611d0757611d066119a9565b5b611d1384828501611ca8565b91505092915050565b5f81519050919050565b5f82825260208201905092915050565b8281835e5f83830152505050565b5f611d4e82611d1c565b611d588185611d26565b9350611d68818560208601611d36565b611d7181611b5f565b840191505092915050565b5f6020820190508181035f830152611d948184611d44565b905092915050565b611da5816119ad565b82525050565b5f602082019050611dbe5f830184611d9c565b92915050565b5f60208284031215611dd957611dd86119a5565b5b5f611de684828501611c2c565b91505092915050565b7f4e6f2076616c756520696d2062657400000000000000000000000000000000005f82015250565b5f611e23600f83611d26565b9150611e2e82611def565b602082019050919050565b5f6020820190508181035f830152611e5081611e17565b9050919050565b7f42657420616c726561647920706c6163656400000000000000000000000000005f82015250565b5f611e8b601283611d26565b9150611e9682611e57565b602082019050919050565b5f6020820190508181035f830152611eb881611e7f565b9050919050565b7f4e487b71000000000000000000000000000000000000000000000000000000005f52601160045260245ffd5b5f611ef682611a92565b9150611f0183611a92565b9250828201905080821115611f1957611f18611ebf565b5b92915050565b611f2881611a2c565b82525050565b5f602082019050611f415f830184611f1f565b92915050565b7f416c72656164792066696e616c697a65640000000000000000000000000000005f82015250565b5f611f7b601183611d26565b9150611f8682611f47565b602082019050919050565b5f6020820190508181035f830152611fa881611f6f565b9050919050565b7f496e76616c69642074696d657374616d700000000000000000000000000000005f82015250565b5f611fe3601183611d26565b9150611fee82611faf565b602082019050919050565b5f6020820190508181035f83015261201081611fd7565b9050919050565b7f4e6f742066696e616c697a6564000000000000000000000000000000000000005f82015250565b5f61204b600d83611d26565b915061205682612017565b602082019050919050565b5f6020820190508181035f8301526120788161203f565b9050919050565b7f446964206e6f742077696e0000000000000000000000000000000000000000005f82015250565b5f6120b3600b83611d26565b91506120be8261207f565b602082019050919050565b5f6020820190508181035f8301526120e0816120a7565b9050919050565b7f416c726561647920636c61696d656400000000000000000000000000000000005f82015250565b5f61211b600f83611d26565b9150612126826120e7565b602082019050919050565b5f6020820190508181035f8301526121488161210f565b9050919050565b5f61215982611a92565b915061216483611a92565b925082820390508181111561217c5761217b611ebf565b5b92915050565b7f42657420626967676572207468616e2077696e6e696e6720706f6f6c000000005f82015250565b5f6121b6601c83611d26565b91506121c182612182565b602082019050919050565b5f6020820190508181035f8301526121e3816121aa565b9050919050565b5f6121f482611a92565b91506121ff83611a92565b925082820261220d81611a92565b9150828204841483151761222457612223611ebf565b5b5092915050565b7f4e487b71000000000000000000000000000000000000000000000000000000005f52601260045260245ffd5b5f61226282611a92565b915061226d83611a92565b92508261227d5761227c61222b565b5b828204905092915050565b7f4e487b71000000000000000000000000000000000000000000000000000000005f52603260045260245ffd5b5f6122bf82611a92565b91506122ca83611a92565b9250826122da576122d961222b565b5b828206905092915050565b5f6122ef82611a92565b91507fffffffffffffffffffffffffffffffffffffffffffffffffffffffffffffffff820361232157612320611ebf565b5b600182019050919050565b5f60408201905061233f5f830185611a9b565b61234c6020830184611a9b565b9392505050565b5f819050919050565b61236581612353565b82525050565b5f60808201905061237e5f83018761235c565b61238b6020830186611b00565b612398604083018561235c565b6123a5606083018461235c565b9594505050505056fea264697066735822122020815763cec3bd43abea94ca1f1c78354acb91bd18f5548a5221513196a0497964736f6c634300081a0033",
			"opcodes": "PUSH1 0x80 PUSH1 0x40 MSTORE PUSH0 PUSH1 0x2 SSTORE CALLVALUE DUP1 ISZERO PUSH2 0x13 JUMPI PUSH0 DUP1 REVERT JUMPDEST POP PUSH1 0x40 MLOAD PUSH2 0x24D6 CODESIZE SUB DUP1 PUSH2 0x24D6 DUP4 CODECOPY DUP2 DUP2 ADD PUSH1 0x40 MSTORE DUP2 ADD SWAP1 PUSH2 0x35 SWAP2 SWAP1 PUSH2 0xA7 JUMP JUMPDEST PUSH32 0x4254430000000000000000000000000000000000000000000000000000000000 PUSH0 DUP2 SWAP1 SSTORE POP DUP2 PUSH1 0x1 DUP2 SWAP1 SSTORE POP DUP1 PUSH1 0x3 DUP2 SWAP1 SSTORE POP POP POP PUSH2 0xE5 JUMP JUMPDEST PUSH0 DUP1 REVERT JUMPDEST PUSH0 DUP2 SWAP1 POP SWAP2 SWAP1 POP JUMP JUMPDEST PUSH2 0x86 DUP2 PUSH2 0x74 JUMP JUMPDEST DUP2 EQ PUSH2 0x90 JUMPI PUSH0 DUP1 REVERT JUMPDEST POP JUMP JUMPDEST PUSH0 DUP2 MLOAD SWAP1 POP PUSH2 0xA1 DUP2 PUSH2 0x7D JUMP JUMPDEST SWAP3 SWAP2 POP POP JUMP JUMPDEST PUSH0 DUP1 PUSH1 0x40 DUP4 DUP6 SUB SLT ISZERO PUSH2 0xBD JUMPI PUSH2 0xBC PUSH2 0x70 JUMP JUMPDEST JUMPDEST PUSH0 PUSH2 0xCA DUP6 DUP3 DUP7 ADD PUSH2 0x93 JUMP JUMPDEST SWAP3 POP POP PUSH1 0x20 PUSH2 0xDB DUP6 DUP3 DUP7 ADD PUSH2 0x93 JUMP JUMPDEST SWAP2 POP POP SWAP3 POP SWAP3 SWAP1 POP JUMP JUMPDEST PUSH2 0x23E4 DUP1 PUSH2 0xF2 PUSH0 CODECOPY PUSH0 RETURN INVALID PUSH1 0x80 PUSH1 0x40 MSTORE PUSH1 0x4 CALLDATASIZE LT PUSH2 0x113 JUMPI PUSH0 CALLDATALOAD PUSH1 0xE0 SHR DUP1 PUSH4 0x7A1FC2E2 GT PUSH2 0x9F JUMPI DUP1 PUSH4 0xC6788BDD GT PUSH2 0x63 JUMPI DUP1 PUSH4 0xC6788BDD EQ PUSH2 0x375 JUMPI DUP1 PUSH4 0xE1152343 EQ PUSH2 0x3B1 JUMPI DUP1 PUSH4 0xEFBE1C1C EQ PUSH2 0x3ED JUMPI DUP1 PUSH4 0xF50B2EFE EQ PUSH2 0x417 JUMPI DUP1 PUSH4 0xF90C4924 EQ PUSH2 0x43F JUMPI PUSH2 0x113 JUMP JUMPDEST DUP1 PUSH4 0x7A1FC2E2 EQ PUSH2 0x27F JUMPI DUP1 PUSH4 0x89A78F1A EQ PUSH2 0x2A9 JUMPI DUP1 PUSH4 0xA3B5AFB1 EQ PUSH2 0x2E5 JUMPI DUP1 PUSH4 0xB24EBFCC EQ PUSH2 0x30F JUMPI DUP1 PUSH4 0xC274583A EQ PUSH2 0x34B JUMPI PUSH2 0x113 JUMP JUMPDEST DUP1 PUSH4 0x3CE142F5 GT PUSH2 0xE6 JUMPI DUP1 PUSH4 0x3CE142F5 EQ PUSH2 0x1C3 JUMPI DUP1 PUSH4 0x4BB278F3 EQ PUSH2 0x1FF JUMPI DUP1 PUSH4 0x4E71D92D EQ PUSH2 0x215 JUMPI DUP1 PUSH4 0x55A547D5 EQ PUSH2 0x22B JUMPI DUP1 PUSH4 0x6F1D4EA4 EQ PUSH2 0x255 JUMPI PUSH2 0x113 JUMP JUMPDEST DUP1 PUSH4 0x96A3778 EQ PUSH2 0x117 JUMPI DUP1 PUSH4 0x16934FC4 EQ PUSH2 0x133 JUMPI DUP1 PUSH4 0x1CE62383 EQ PUSH2 0x16F JUMPI DUP1 PUSH4 0x27793F87 EQ PUSH2 0x199 JUMPI JUMPDEST PUSH0 DUP1 REVERT JUMPDEST PUSH2 0x131 PUSH1 0x4 DUP1 CALLDATASIZE SUB DUP2 ADD SWAP1 PUSH2 0x12C SWAP2 SWAP1 PUSH2 0x19E2 JUMP JUMPDEST PUSH2 0x469 JUMP JUMPDEST STOP JUMPDEST CALLVALUE DUP1 ISZERO PUSH2 0x13E JUMPI PUSH0 DUP1 REVERT JUMPDEST POP PUSH2 0x159 PUSH1 0x4 DUP1 CALLDATASIZE SUB DUP2 ADD SWAP1 PUSH2 0x154 SWAP2 SWAP1 PUSH2 0x1A67 JUMP JUMPDEST PUSH2 0x698 JUMP JUMPDEST PUSH1 0x40 MLOAD PUSH2 0x166 SWAP2 SWAP1 PUSH2 0x1AAA JUMP JUMPDEST PUSH1 0x40 MLOAD DUP1 SWAP2 SUB SWAP1 RETURN JUMPDEST CALLVALUE DUP1 ISZERO PUSH2 0x17A JUMPI PUSH0 DUP1 REVERT JUMPDEST POP PUSH2 0x183 PUSH2 0x6AD JUMP JUMPDEST PUSH1 0x40 MLOAD PUSH2 0x190 SWAP2 SWAP1 PUSH2 0x1AAA JUMP JUMPDEST PUSH1 0x40 MLOAD DUP1 SWAP2 SUB SWAP1 RETURN JUMPDEST CALLVALUE DUP1 ISZERO PUSH2 0x1A4 JUMPI PUSH0 DUP1 REVERT JUMPDEST POP PUSH2 0x1AD PUSH2 0x6B3 JUMP JUMPDEST PUSH1 0x40 MLOAD PUSH2 0x1BA SWAP2 SWAP1 PUSH2 0x1ADB JUMP JUMPDEST PUSH1 0x40 MLOAD DUP1 SWAP2 SUB SWAP1 RETURN JUMPDEST CALLVALUE DUP1 ISZERO PUSH2 0x1CE JUMPI PUSH0 DUP1 REVERT JUMPDEST POP PUSH2 0x1E9 PUSH1 0x4 DUP1 CALLDATASIZE SUB DUP2 ADD SWAP1 PUSH2 0x1E4 SWAP2 SWAP1 PUSH2 0x1A67 JUMP JUMPDEST PUSH2 0x6B9 JUMP JUMPDEST PUSH1 0x40 MLOAD PUSH2 0x1F6 SWAP2 SWAP1 PUSH2 0x1B0F JUMP JUMPDEST PUSH1 0x40 MLOAD DUP1 SWAP2 SUB SWAP1 RETURN JUMPDEST CALLVALUE DUP1 ISZERO PUSH2 0x20A JUMPI PUSH0 DUP1 REVERT JUMPDEST POP PUSH2 0x213 PUSH2 0x74B JUMP JUMPDEST STOP JUMPDEST CALLVALUE DUP1 ISZERO PUSH2 0x220 JUMPI PUSH0 DUP1 REVERT JUMPDEST POP PUSH2 0x229 PUSH2 0x828 JUMP JUMPDEST STOP JUMPDEST CALLVALUE DUP1 ISZERO PUSH2 0x236 JUMPI PUSH0 DUP1 REVERT JUMPDEST POP PUSH2 0x23F PUSH2 0xAB2 JUMP JUMPDEST PUSH1 0x40 MLOAD PUSH2 0x24C SWAP2 SWAP1 PUSH2 0x1AAA JUMP JUMPDEST PUSH1 0x40 MLOAD DUP1 SWAP2 SUB SWAP1 RETURN JUMPDEST CALLVALUE DUP1 ISZERO PUSH2 0x260 JUMPI PUSH0 DUP1 REVERT JUMPDEST POP PUSH2 0x269 PUSH2 0xC0C JUMP JUMPDEST PUSH1 0x40 MLOAD PUSH2 0x276 SWAP2 SWAP1 PUSH2 0x1AAA JUMP JUMPDEST PUSH1 0x40 MLOAD DUP1 SWAP2 SUB SWAP1 RETURN JUMPDEST CALLVALUE DUP1 ISZERO PUSH2 0x28A JUMPI PUSH0 DUP1 REVERT JUMPDEST POP PUSH2 0x293 PUSH2 0xC12 JUMP JUMPDEST PUSH1 0x40 MLOAD PUSH2 0x2A0 SWAP2 SWAP1 PUSH2 0x1AAA JUMP JUMPDEST PUSH1 0x40 MLOAD DUP1 SWAP2 SUB SWAP1 RETURN JUMPDEST CALLVALUE DUP1 ISZERO PUSH2 0x2B4 JUMPI PUSH0 DUP1 REVERT JUMPDEST POP PUSH2 0x2CF PUSH1 0x4 DUP1 CALLDATASIZE SUB DUP2 ADD SWAP1 PUSH2 0x2CA SWAP2 SWAP1 PUSH2 0x1A67 JUMP JUMPDEST PUSH2 0xC18 JUMP JUMPDEST PUSH1 0x40 MLOAD PUSH2 0x2DC SWAP2 SWAP1 PUSH2 0x1B42 JUMP JUMPDEST PUSH1 0x40 MLOAD DUP1 SWAP2 SUB SWAP1 RETURN JUMPDEST CALLVALUE DUP1 ISZERO PUSH2 0x2F0 JUMPI PUSH0 DUP1 REVERT JUMPDEST POP PUSH2 0x2F9 PUSH2 0xC34 JUMP JUMPDEST PUSH1 0x40 MLOAD PUSH2 0x306 SWAP2 SWAP1 PUSH2 0x1AAA JUMP JUMPDEST PUSH1 0x40 MLOAD DUP1 SWAP2 SUB SWAP1 RETURN JUMPDEST CALLVALUE DUP1 ISZERO PUSH2 0x31A JUMPI PUSH0 DUP1 REVERT JUMPDEST POP PUSH2 0x335 PUSH1 0x4 DUP1 CALLDATASIZE SUB DUP2 ADD SWAP1 PUSH2 0x330 SWAP2 SWAP1 PUSH2 0x1CD5 JUMP JUMPDEST PUSH2 0xC3A JUMP JUMPDEST PUSH1 0x40 MLOAD PUSH2 0x342 SWAP2 SWAP1 PUSH2 0x1AAA JUMP JUMPDEST PUSH1 0x40 MLOAD DUP1 SWAP2 SUB SWAP1 RETURN JUMPDEST CALLVALUE DUP1 ISZERO PUSH2 0x356 JUMPI PUSH0 DUP1 REVERT JUMPDEST POP PUSH2 0x35F PUSH2 0xC4B JUMP JUMPDEST PUSH1 0x40 MLOAD PUSH2 0x36C SWAP2 SWAP1 PUSH2 0x1D7C JUMP JUMPDEST PUSH1 0x40 MLOAD DUP1 SWAP2 SUB SWAP1 RETURN JUMPDEST CALLVALUE DUP1 ISZERO PUSH2 0x380 JUMPI PUSH0 DUP1 REVERT JUMPDEST POP PUSH2 0x39B PUSH1 0x4 DUP1 CALLDATASIZE SUB DUP2 ADD SWAP1 PUSH2 0x396 SWAP2 SWAP1 PUSH2 0x1A67 JUMP JUMPDEST PUSH2 0xC88 JUMP JUMPDEST PUSH1 0x40 MLOAD PUSH2 0x3A8 SWAP2 SWAP1 PUSH2 0x1DAB JUMP JUMPDEST PUSH1 0x40 MLOAD DUP1 SWAP2 SUB SWAP1 RETURN JUMPDEST CALLVALUE DUP1 ISZERO PUSH2 0x3BC JUMPI PUSH0 DUP1 REVERT JUMPDEST POP PUSH2 0x3D7 PUSH1 0x4 DUP1 CALLDATASIZE SUB DUP2 ADD SWAP1 PUSH2 0x3D2 SWAP2 SWAP1 PUSH2 0x1DC4 JUMP JUMPDEST PUSH2 0xCA5 JUMP JUMPDEST PUSH1 0x40 MLOAD PUSH2 0x3E4 SWAP2 SWAP1 PUSH2 0x1AAA JUMP JUMPDEST PUSH1 0x40 MLOAD DUP1 SWAP2 SUB SWAP1 RETURN JUMPDEST CALLVALUE DUP1 ISZERO PUSH2 0x3F8 JUMPI PUSH0 DUP1 REVERT JUMPDEST POP PUSH2 0x401 PUSH2 0xD7E JUMP JUMPDEST PUSH1 0x40 MLOAD PUSH2 0x40E SWAP2 SWAP1 PUSH2 0x1AAA JUMP JUMPDEST PUSH1 0x40 MLOAD DUP1 SWAP2 SUB SWAP1 RETURN JUMPDEST CALLVALUE DUP1 ISZERO PUSH2 0x422 JUMPI PUSH0 DUP1 REVERT JUMPDEST POP PUSH2 0x43D PUSH1 0x4 DUP1 CALLDATASIZE SUB DUP2 ADD SWAP1 PUSH2 0x438 SWAP2 SWAP1 PUSH2 0x1DC4 JUMP JUMPDEST PUSH2 0xD84 JUMP JUMPDEST STOP JUMPDEST CALLVALUE DUP1 ISZERO PUSH2 0x44A JUMPI PUSH0 DUP1 REVERT JUMPDEST POP PUSH2 0x453 PUSH2 0xD87 JUMP JUMPDEST PUSH1 0x40 MLOAD PUSH2 0x460 SWAP2 SWAP1 PUSH2 0x1B0F JUMP JUMPDEST PUSH1 0x40 MLOAD DUP1 SWAP2 SUB SWAP1 RETURN JUMPDEST PUSH0 CALLVALUE SUB PUSH2 0x4AB JUMPI PUSH1 0x40 MLOAD PUSH32 0x8C379A000000000000000000000000000000000000000000000000000000000 DUP2 MSTORE PUSH1 0x4 ADD PUSH2 0x4A2 SWAP1 PUSH2 0x1E39 JUMP JUMPDEST PUSH1 0x40 MLOAD DUP1 SWAP2 SUB SWAP1 REVERT JUMPDEST PUSH0 PUSH1 0x5 PUSH0 CALLER PUSH20 0xFFFFFFFFFFFFFFFFFFFFFFFFFFFFFFFFFFFFFFFF AND PUSH20 0xFFFFFFFFFFFFFFFFFFFFFFFFFFFFFFFFFFFFFFFF AND DUP2 MSTORE PUSH1 0x20 ADD SWAP1 DUP2 MSTORE PUSH1 0x20 ADD PUSH0 KECCAK256 PUSH0 SWAP1 SLOAD SWAP1 PUSH2 0x100 EXP SWAP1 DIV PUSH0 SIGNEXTEND PUSH0 SIGNEXTEND EQ PUSH2 0x537 JUMPI PUSH1 0x40 MLOAD PUSH32 0x8C379A000000000000000000000000000000000000000000000000000000000 DUP2 MSTORE PUSH1 0x4 ADD PUSH2 0x52E SWAP1 PUSH2 0x1EA1 JUMP JUMPDEST PUSH1 0x40 MLOAD DUP1 SWAP2 SUB SWAP1 REVERT JUMPDEST DUP1 ISZERO PUSH2 0x5B2 JUMPI PUSH1 0x1 PUSH1 0x5 PUSH0 CALLER PUSH20 0xFFFFFFFFFFFFFFFFFFFFFFFFFFFFFFFFFFFFFFFF AND PUSH20 0xFFFFFFFFFFFFFFFFFFFFFFFFFFFFFFFFFFFFFFFF AND DUP2 MSTORE PUSH1 0x20 ADD SWAP1 DUP2 MSTORE PUSH1 0x20 ADD PUSH0 KECCAK256 PUSH0 PUSH2 0x100 EXP DUP2 SLOAD DUP2 PUSH1 0xFF MUL NOT AND SWAP1 DUP4 PUSH0 SIGNEXTEND PUSH1 0xFF AND MUL OR SWAP1 SSTORE POP CALLVALUE PUSH1 0x8 PUSH0 DUP3 DUP3 SLOAD PUSH2 0x5A6 SWAP2 SWAP1 PUSH2 0x1EEC JUMP JUMPDEST SWAP3 POP POP DUP2 SWAP1 SSTORE POP PUSH2 0x642 JUMP JUMPDEST PUSH32 0xFFFFFFFFFFFFFFFFFFFFFFFFFFFFFFFFFFFFFFFFFFFFFFFFFFFFFFFFFFFFFFFF PUSH1 0x5 PUSH0 CALLER PUSH20 0xFFFFFFFFFFFFFFFFFFFFFFFFFFFFFFFFFFFFFFFF AND PUSH20 0xFFFFFFFFFFFFFFFFFFFFFFFFFFFFFFFFFFFFFFFF AND DUP2 MSTORE PUSH1 0x20 ADD SWAP1 DUP2 MSTORE PUSH1 0x20 ADD PUSH0 KECCAK256 PUSH0 PUSH2 0x100 EXP DUP2 SLOAD DUP2 PUSH1 0xFF MUL NOT AND SWAP1 DUP4 PUSH0 SIGNEXTEND PUSH1 0xFF AND MUL OR SWAP1 SSTORE POP CALLVALUE PUSH1 0x9 PUSH0 DUP3 DUP3 SLOAD PUSH2 0x63A SWAP2 SWAP1 PUSH2 0x1EEC JUMP JUMPDEST SWAP3 POP POP DUP2 SWAP1 SSTORE POP JUMPDEST CALLVALUE PUSH1 0x6 PUSH0 CALLER PUSH20 0xFFFFFFFFFFFFFFFFFFFFFFFFFFFFFFFFFFFFFFFF AND PUSH20 0xFFFFFFFFFFFFFFFFFFFFFFFFFFFFFFFFFFFFFFFF AND DUP2 MSTORE PUSH1 0x20 ADD SWAP1 DUP2 MSTORE PUSH1 0x20 ADD PUSH0 KECCAK256 PUSH0 DUP3 DUP3 SLOAD PUSH2 0x68E SWAP2 SWAP1 PUSH2 0x1EEC JUMP JUMPDEST SWAP3 POP POP DUP2 SWAP1 SSTORE POP POP JUMP JUMPDEST PUSH1 0x6 PUSH1 0x20 MSTORE DUP1 PUSH0 MSTORE PUSH1 0x40 PUSH0 KECCAK256 PUSH0 SWAP2 POP SWAP1 POP SLOAD DUP2 JUMP JUMPDEST PUSH1 0x1 SLOAD DUP2 JUMP JUMPDEST PUSH1 0x2 SLOAD DUP2 JUMP JUMPDEST PUSH0 PUSH20 0xC39486F770B26F5527BBBF942726537986CD7EB PUSH20 0xFFFFFFFFFFFFFFFFFFFFFFFFFFFFFFFFFFFFFFFF AND DUP3 PUSH20 0xFFFFFFFFFFFFFFFFFFFFFFFFFFFFFFFFFFFFFFFF AND SUB PUSH2 0x709 JUMPI PUSH0 SWAP1 POP PUSH2 0x746 JUMP JUMPDEST DUP2 PUSH1 0x40 MLOAD PUSH32 0xEC459BC000000000000000000000000000000000000000000000000000000000 DUP2 MSTORE PUSH1 0x4 ADD PUSH2 0x73D SWAP2 SWAP1 PUSH2 0x1F2E JUMP JUMPDEST PUSH1 0x40 MLOAD DUP1 SWAP2 SUB SWAP1 REVERT JUMPDEST SWAP2 SWAP1 POP JUMP JUMPDEST PUSH0 PUSH1 0x2 SLOAD EQ PUSH2 0x78F JUMPI PUSH1 0x40 MLOAD PUSH32 0x8C379A000000000000000000000000000000000000000000000000000000000 DUP2 MSTORE PUSH1 0x4 ADD PUSH2 0x786 SWAP1 PUSH2 0x1F91 JUMP JUMPDEST PUSH1 0x40 MLOAD DUP1 SWAP2 SUB SWAP1 REVERT JUMPDEST PUSH2 0x797 PUSH2 0xAB2 JUMP JUMPDEST PUSH1 0x3 SLOAD EQ PUSH2 0x7DA JUMPI PUSH1 0x40 MLOAD PUSH32 0x8C379A000000000000000000000000000000000000000000000000000000000 DUP2 MSTORE PUSH1 0x4 ADD PUSH2 0x7D1 SWAP1 PUSH2 0x1FF9 JUMP JUMPDEST PUSH1 0x40 MLOAD DUP1 SWAP2 SUB SWAP1 REVERT JUMPDEST PUSH0 PUSH2 0x7E5 PUSH0 SLOAD PUSH2 0xD8F JUMP JUMPDEST SWAP1 POP PUSH1 0x1 SLOAD DUP2 LT PUSH2 0x7FD JUMPI PUSH1 0x1 PUSH1 0x2 DUP2 SWAP1 SSTORE POP PUSH2 0x825 JUMP JUMPDEST PUSH32 0xFFFFFFFFFFFFFFFFFFFFFFFFFFFFFFFFFFFFFFFFFFFFFFFFFFFFFFFFFFFFFFFF PUSH1 0x2 DUP2 SWAP1 SSTORE POP JUMPDEST POP JUMP JUMPDEST PUSH0 PUSH1 0x2 SLOAD SUB PUSH2 0x86C JUMPI PUSH1 0x40 MLOAD PUSH32 0x8C379A000000000000000000000000000000000000000000000000000000000 DUP2 MSTORE PUSH1 0x4 ADD PUSH2 0x863 SWAP1 PUSH2 0x2061 JUMP JUMPDEST PUSH1 0x40 MLOAD DUP1 SWAP2 SUB SWAP1 REVERT JUMPDEST PUSH1 0x2 SLOAD PUSH1 0x5 PUSH0 CALLER PUSH20 0xFFFFFFFFFFFFFFFFFFFFFFFFFFFFFFFFFFFFFFFF AND PUSH20 0xFFFFFFFFFFFFFFFFFFFFFFFFFFFFFFFFFFFFFFFF AND DUP2 MSTORE PUSH1 0x20 ADD SWAP1 DUP2 MSTORE PUSH1 0x20 ADD PUSH0 KECCAK256 PUSH0 SWAP1 SLOAD SWAP1 PUSH2 0x100 EXP SWAP1 DIV PUSH0 SIGNEXTEND PUSH0 SIGNEXTEND EQ PUSH2 0x8FA JUMPI PUSH1 0x40 MLOAD PUSH32 0x8C379A000000000000000000000000000000000000000000000000000000000 DUP2 MSTORE PUSH1 0x4 ADD PUSH2 0x8F1 SWAP1 PUSH2 0x20C9 JUMP JUMPDEST PUSH1 0x40 MLOAD DUP1 SWAP2 SUB SWAP1 REVERT JUMPDEST PUSH0 ISZERO ISZERO PUSH1 0x7 PUSH0 CALLER PUSH20 0xFFFFFFFFFFFFFFFFFFFFFFFFFFFFFFFFFFFFFFFF AND PUSH20 0xFFFFFFFFFFFFFFFFFFFFFFFFFFFFFFFFFFFFFFFF AND DUP2 MSTORE PUSH1 0x20 ADD SWAP1 DUP2 MSTORE PUSH1 0x20 ADD PUSH0 KECCAK256 PUSH0 SWAP1 SLOAD SWAP1 PUSH2 0x100 EXP SWAP1 DIV PUSH1 0xFF AND ISZERO ISZERO EQ PUSH2 0x989 JUMPI PUSH1 0x40 MLOAD PUSH32 0x8C379A000000000000000000000000000000000000000000000000000000000 DUP2 MSTORE PUSH1 0x4 ADD PUSH2 0x980 SWAP1 PUSH2 0x2131 JUMP JUMPDEST PUSH1 0x40 MLOAD DUP1 SWAP2 SUB SWAP1 REVERT JUMPDEST PUSH0 PUSH1 0x6 PUSH0 CALLER PUSH20 0xFFFFFFFFFFFFFFFFFFFFFFFFFFFFFFFFFFFFFFFF AND PUSH20 0xFFFFFFFFFFFFFFFFFFFFFFFFFFFFFFFFFFFFFFFF AND DUP2 MSTORE PUSH1 0x20 ADD SWAP1 DUP2 MSTORE PUSH1 0x20 ADD PUSH0 KECCAK256 SLOAD SWAP1 POP CALLER PUSH20 0xFFFFFFFFFFFFFFFFFFFFFFFFFFFFFFFFFFFFFFFF AND PUSH2 0x8FC PUSH2 0x9ED DUP4 PUSH2 0xCA5 JUMP JUMPDEST SWAP1 DUP2 ISZERO MUL SWAP1 PUSH1 0x40 MLOAD PUSH0 PUSH1 0x40 MLOAD DUP1 DUP4 SUB DUP2 DUP6 DUP9 DUP9 CALL SWAP4 POP POP POP POP ISZERO DUP1 ISZERO PUSH2 0xA15 JUMPI RETURNDATASIZE PUSH0 DUP1 RETURNDATACOPY RETURNDATASIZE PUSH0 REVERT JUMPDEST POP CALLER PUSH20 0xFFFFFFFFFFFFFFFFFFFFFFFFFFFFFFFFFFFFFFFF AND PUSH2 0x8FC DUP3 SWAP1 DUP2 ISZERO MUL SWAP1 PUSH1 0x40 MLOAD PUSH0 PUSH1 0x40 MLOAD DUP1 DUP4 SUB DUP2 DUP6 DUP9 DUP9 CALL SWAP4 POP POP POP POP ISZERO DUP1 ISZERO PUSH2 0xA59 JUMPI RETURNDATASIZE PUSH0 DUP1 RETURNDATACOPY RETURNDATASIZE PUSH0 REVERT JUMPDEST POP PUSH1 0x1 PUSH1 0x7 PUSH0 CALLER PUSH20 0xFFFFFFFFFFFFFFFFFFFFFFFFFFFFFFFFFFFFFFFF AND PUSH20 0xFFFFFFFFFFFFFFFFFFFFFFFFFFFFFFFFFFFFFFFF AND DUP2 MSTORE PUSH1 0x20 ADD SWAP1 DUP2 MSTORE PUSH1 0x20 ADD PUSH0 KECCAK256 PUSH0 PUSH2 0x100 EXP DUP2 SLOAD DUP2 PUSH1 0xFF MUL NOT AND SWAP1 DUP4 ISZERO ISZERO MUL OR SWAP1 SSTORE POP POP JUMP JUMPDEST PUSH0 DUP1 PUSH2 0xABC PUSH2 0xE28 JUMP JUMPDEST SWAP1 POP PUSH0 PUSH2 0xAC8 DUP3 PUSH2 0xF35 JUMP JUMPDEST DUP2 PUSH2 0xFFFF AND SWAP2 POP DUP1 SWAP4 POP DUP2 SWAP3 POP POP POP PUSH0 DUP2 SUB PUSH2 0xB10 JUMPI PUSH1 0x40 MLOAD PUSH32 0x8552FF3C00000000000000000000000000000000000000000000000000000000 DUP2 MSTORE PUSH1 0x4 ADD PUSH1 0x40 MLOAD DUP1 SWAP2 SUB SWAP1 REVERT JUMPDEST PUSH0 JUMPDEST DUP2 DUP2 LT ISZERO PUSH2 0xC06 JUMPI PUSH0 PUSH2 0xB24 DUP5 PUSH2 0xFA2 JUMP JUMPDEST SWAP1 POP PUSH0 DUP1 PUSH1 0x68 DUP7 PUSH2 0xB35 SWAP2 SWAP1 PUSH2 0x1EEC JUMP JUMPDEST SWAP1 POP PUSH0 DUP2 PUSH0 CALLDATASIZE SWAP1 POP PUSH2 0xB47 SWAP2 SWAP1 PUSH2 0x214F JUMP JUMPDEST SWAP1 POP DUP1 CALLDATALOAD SWAP3 POP PUSH0 DUP4 PUSH6 0xFFFFFFFFFFFF AND SUB PUSH2 0xB8E JUMPI PUSH1 0x40 MLOAD PUSH32 0x336DC9D000000000000000000000000000000000000000000000000000000000 DUP2 MSTORE PUSH1 0x4 ADD PUSH1 0x40 MLOAD DUP1 SWAP2 SUB SWAP1 REVERT JUMPDEST PUSH0 DUP9 SUB PUSH2 0xBA5 JUMPI DUP3 PUSH6 0xFFFFFFFFFFFF AND SWAP8 POP PUSH2 0xBE7 JUMP JUMPDEST DUP8 DUP4 PUSH6 0xFFFFFFFFFFFF AND EQ PUSH2 0xBE6 JUMPI PUSH1 0x40 MLOAD PUSH32 0xD9D1F46500000000000000000000000000000000000000000000000000000000 DUP2 MSTORE PUSH1 0x4 ADD PUSH1 0x40 MLOAD DUP1 SWAP2 SUB SWAP1 REVERT JUMPDEST JUMPDEST DUP4 DUP8 PUSH2 0xBF3 SWAP2 SWAP1 PUSH2 0x1EEC JUMP JUMPDEST SWAP7 POP POP POP POP POP DUP1 DUP1 PUSH1 0x1 ADD SWAP2 POP POP PUSH2 0xB12 JUMP JUMPDEST POP POP POP SWAP1 JUMP JUMPDEST PUSH1 0x8 SLOAD DUP2 JUMP JUMPDEST PUSH1 0x4 SLOAD DUP2 JUMP JUMPDEST PUSH1 0x5 PUSH1 0x20 MSTORE DUP1 PUSH0 MSTORE PUSH1 0x40 PUSH0 KECCAK256 PUSH0 SWAP2 POP SLOAD SWAP1 PUSH2 0x100 EXP SWAP1 DIV PUSH0 SIGNEXTEND DUP2 JUMP JUMPDEST PUSH1 0x9 SLOAD DUP2 JUMP JUMPDEST PUSH0 PUSH2 0xC44 DUP3 PUSH2 0xFDF JUMP JUMPDEST SWAP1 POP SWAP2 SWAP1 POP JUMP JUMPDEST PUSH1 0x60 PUSH1 0x40 MLOAD DUP1 PUSH1 0x40 ADD PUSH1 0x40 MSTORE DUP1 PUSH1 0x12 DUP2 MSTORE PUSH1 0x20 ADD PUSH32 0x72656473746F6E652D6D61696E2D64656D6F0000000000000000000000000000 DUP2 MSTORE POP SWAP1 POP SWAP1 JUMP JUMPDEST PUSH1 0x7 PUSH1 0x20 MSTORE DUP1 PUSH0 MSTORE PUSH1 0x40 PUSH0 KECCAK256 PUSH0 SWAP2 POP SLOAD SWAP1 PUSH2 0x100 EXP SWAP1 DIV PUSH1 0xFF AND DUP2 JUMP JUMPDEST PUSH0 DUP1 PUSH4 0x5F5E100 SWAP1 POP PUSH0 PUSH1 0x1 PUSH1 0x2 SLOAD EQ PUSH2 0xCC1 JUMPI PUSH1 0x9 SLOAD PUSH2 0xCC5 JUMP JUMPDEST PUSH1 0x8 SLOAD JUMPDEST SWAP1 POP DUP1 DUP5 GT ISZERO PUSH2 0xD0A JUMPI PUSH1 0x40 MLOAD PUSH32 0x8C379A000000000000000000000000000000000000000000000000000000000 DUP2 MSTORE PUSH1 0x4 ADD PUSH2 0xD01 SWAP1 PUSH2 0x21CC JUMP JUMPDEST PUSH1 0x40 MLOAD DUP1 SWAP2 SUB SWAP1 REVERT JUMPDEST PUSH0 PUSH32 0xFFFFFFFFFFFFFFFFFFFFFFFFFFFFFFFFFFFFFFFFFFFFFFFFFFFFFFFFFFFFFFFF PUSH1 0x2 SLOAD EQ PUSH2 0xD3C JUMPI PUSH1 0x8 SLOAD PUSH2 0xD40 JUMP JUMPDEST PUSH1 0x9 SLOAD JUMPDEST SWAP1 POP PUSH0 DUP3 DUP5 DUP8 PUSH2 0xD50 SWAP2 SWAP1 PUSH2 0x21EA JUMP JUMPDEST PUSH2 0xD5A SWAP2 SWAP1 PUSH2 0x2258 JUMP JUMPDEST SWAP1 POP DUP4 DUP3 DUP3 PUSH2 0xD69 SWAP2 SWAP1 PUSH2 0x21EA JUMP JUMPDEST PUSH2 0xD73 SWAP2 SWAP1 PUSH2 0x2258 JUMP JUMPDEST SWAP5 POP POP POP POP POP SWAP2 SWAP1 POP JUMP JUMPDEST PUSH1 0x3 SLOAD DUP2 JUMP JUMPDEST POP JUMP JUMPDEST PUSH0 PUSH1 0x1 SWAP1 POP SWAP1 JUMP JUMPDEST PUSH0 DUP1 PUSH1 0x1 PUSH8 0xFFFFFFFFFFFFFFFF DUP2 GT ISZERO PUSH2 0xDAC JUMPI PUSH2 0xDAB PUSH2 0x1B6F JUMP JUMPDEST JUMPDEST PUSH1 0x40 MLOAD SWAP1 DUP1 DUP3 MSTORE DUP1 PUSH1 0x20 MUL PUSH1 0x20 ADD DUP3 ADD PUSH1 0x40 MSTORE DUP1 ISZERO PUSH2 0xDDA JUMPI DUP2 PUSH1 0x20 ADD PUSH1 0x20 DUP3 MUL DUP1 CALLDATASIZE DUP4 CALLDATACOPY DUP1 DUP3 ADD SWAP2 POP POP SWAP1 POP JUMPDEST POP SWAP1 POP DUP3 DUP2 PUSH0 DUP2 MLOAD DUP2 LT PUSH2 0xDF1 JUMPI PUSH2 0xDF0 PUSH2 0x2288 JUMP JUMPDEST JUMPDEST PUSH1 0x20 MUL PUSH1 0x20 ADD ADD DUP2 DUP2 MSTORE POP POP PUSH2 0xE06 DUP2 PUSH2 0xFF0 JUMP JUMPDEST PUSH0 DUP2 MLOAD DUP2 LT PUSH2 0xE18 JUMPI PUSH2 0xE17 PUSH2 0x2288 JUMP JUMPDEST JUMPDEST PUSH1 0x20 MUL PUSH1 0x20 ADD ADD MLOAD SWAP2 POP POP SWAP2 SWAP1 POP JUMP JUMPDEST PUSH0 DUP1 PUSH1 0x20 CALLDATASIZE SUB CALLDATALOAD PUSH7 0x2ED57011E0000 DUP2 AND PUSH7 0x2ED57011E0000 EQ SWAP2 POP POP DUP1 PUSH2 0xE7C JUMPI PUSH1 0x40 MLOAD PUSH32 0xE7764C9E00000000000000000000000000000000000000000000000000000000 DUP2 MSTORE PUSH1 0x4 ADD PUSH1 0x40 MLOAD DUP1 SWAP2 SUB SWAP1 REVERT JUMPDEST PUSH0 DUP1 CALLDATASIZE SWAP1 POP PUSH1 0x29 GT ISZERO PUSH2 0xEBB JUMPI PUSH1 0x40 MLOAD PUSH32 0x5796F78A00000000000000000000000000000000000000000000000000000000 DUP2 MSTORE PUSH1 0x4 ADD PUSH1 0x40 MLOAD DUP1 SWAP2 SUB SWAP1 REVERT JUMPDEST PUSH1 0x29 CALLDATASIZE SUB CALLDATALOAD SWAP1 POP PUSH0 PUSH1 0x9 PUSH1 0x3 DUP4 PUSH3 0xFFFFFF AND PUSH2 0xED7 SWAP2 SWAP1 PUSH2 0x1EEC JUMP JUMPDEST PUSH2 0xEE1 SWAP2 SWAP1 PUSH2 0x1EEC JUMP JUMPDEST SWAP1 POP PUSH0 CALLDATASIZE SWAP1 POP PUSH1 0x2 DUP3 PUSH2 0xEF4 SWAP2 SWAP1 PUSH2 0x1EEC JUMP JUMPDEST GT ISZERO PUSH2 0xF2C JUMPI PUSH1 0x40 MLOAD PUSH32 0xC30A7BD700000000000000000000000000000000000000000000000000000000 DUP2 MSTORE PUSH1 0x4 ADD PUSH1 0x40 MLOAD DUP1 SWAP2 SUB SWAP1 REVERT JUMPDEST DUP1 SWAP4 POP POP POP POP SWAP1 JUMP JUMPDEST PUSH0 DUP1 PUSH0 PUSH1 0x20 DUP5 PUSH2 0xF45 SWAP2 SWAP1 PUSH2 0x1EEC JUMP JUMPDEST SWAP1 POP PUSH0 CALLDATASIZE SWAP1 POP DUP2 GT ISZERO PUSH2 0xF84 JUMPI PUSH1 0x40 MLOAD PUSH32 0x5796F78A00000000000000000000000000000000000000000000000000000000 DUP2 MSTORE PUSH1 0x4 ADD PUSH1 0x40 MLOAD DUP1 SWAP2 SUB SWAP1 REVERT JUMPDEST DUP1 CALLDATASIZE SUB CALLDATALOAD SWAP3 POP DUP3 PUSH1 0x2 DUP6 PUSH2 0xF98 SWAP2 SWAP1 PUSH2 0x1EEC JUMP JUMPDEST SWAP3 POP SWAP3 POP POP SWAP2 POP SWAP2 JUMP JUMPDEST PUSH0 DUP1 PUSH0 PUSH2 0xFAE DUP5 PUSH2 0x1014 JUMP JUMPDEST SWAP2 POP SWAP2 POP PUSH1 0x4E DUP2 PUSH1 0x20 PUSH2 0xFC1 SWAP2 SWAP1 PUSH2 0x1EEC JUMP JUMPDEST DUP4 PUSH2 0xFCC SWAP2 SWAP1 PUSH2 0x21EA JUMP JUMPDEST PUSH2 0xFD6 SWAP2 SWAP1 PUSH2 0x1EEC JUMP JUMPDEST SWAP3 POP POP POP SWAP2 SWAP1 POP JUMP JUMPDEST PUSH0 PUSH2 0xFE9 DUP3 PUSH2 0x1072 JUMP JUMPDEST SWAP1 POP SWAP2 SWAP1 POP JUMP JUMPDEST PUSH1 0x60 PUSH0 DUP1 PUSH2 0xFFD DUP5 PUSH2 0x11C1 JUMP JUMPDEST SWAP2 POP SWAP2 POP PUSH2 0x100A DUP2 PUSH2 0xD84 JUMP JUMPDEST DUP2 SWAP3 POP POP POP SWAP2 SWAP1 POP JUMP JUMPDEST PUSH0 DUP1 PUSH0 DUP1 PUSH0 PUSH1 0x20 PUSH1 0x41 DUP8 PUSH2 0x1028 SWAP2 SWAP1 PUSH2 0x1EEC JUMP JUMPDEST PUSH2 0x1032 SWAP2 SWAP1 PUSH2 0x1EEC JUMP JUMPDEST PUSH0 CALLDATASIZE SWAP1 POP PUSH2 0x1040 SWAP2 SWAP1 PUSH2 0x214F JUMP JUMPDEST SWAP1 POP DUP1 CALLDATALOAD SWAP3 POP PUSH1 0x3 DUP2 PUSH2 0x1053 SWAP2 SWAP1 PUSH2 0x214F JUMP JUMPDEST SWAP1 POP DUP1 CALLDATALOAD SWAP2 POP DUP3 PUSH3 0xFFFFFF AND SWAP5 POP DUP2 PUSH4 0xFFFFFFFF AND SWAP4 POP POP POP POP SWAP2 POP SWAP2 JUMP JUMPDEST PUSH0 PUSH1 0x2 DUP3 MLOAD SUB PUSH2 0x10D0 JUMPI PUSH1 0x2 DUP3 PUSH1 0x1 DUP2 MLOAD DUP2 LT PUSH2 0x1092 JUMPI PUSH2 0x1091 PUSH2 0x2288 JUMP JUMPDEST JUMPDEST PUSH1 0x20 MUL PUSH1 0x20 ADD ADD MLOAD DUP4 PUSH0 DUP2 MLOAD DUP2 LT PUSH2 0x10AD JUMPI PUSH2 0x10AC PUSH2 0x2288 JUMP JUMPDEST JUMPDEST PUSH1 0x20 MUL PUSH1 0x20 ADD ADD MLOAD PUSH2 0x10BF SWAP2 SWAP1 PUSH2 0x1EEC JUMP JUMPDEST PUSH2 0x10C9 SWAP2 SWAP1 PUSH2 0x2258 JUMP JUMPDEST SWAP1 POP PUSH2 0x11BC JUMP JUMPDEST PUSH0 DUP3 MLOAD SUB PUSH2 0x110A JUMPI PUSH1 0x40 MLOAD PUSH32 0x9E198AF900000000000000000000000000000000000000000000000000000000 DUP2 MSTORE PUSH1 0x4 ADD PUSH1 0x40 MLOAD DUP1 SWAP2 SUB SWAP1 REVERT JUMPDEST PUSH2 0x1113 DUP3 PUSH2 0x1431 JUMP JUMPDEST PUSH0 PUSH1 0x2 DUP4 MLOAD PUSH2 0x1122 SWAP2 SWAP1 PUSH2 0x2258 JUMP JUMPDEST SWAP1 POP PUSH0 PUSH1 0x2 DUP5 MLOAD PUSH2 0x1133 SWAP2 SWAP1 PUSH2 0x22B5 JUMP JUMPDEST SUB PUSH2 0x119D JUMPI PUSH0 DUP4 DUP3 DUP2 MLOAD DUP2 LT PUSH2 0x114C JUMPI PUSH2 0x114B PUSH2 0x2288 JUMP JUMPDEST JUMPDEST PUSH1 0x20 MUL PUSH1 0x20 ADD ADD MLOAD DUP5 PUSH1 0x1 DUP5 PUSH2 0x1162 SWAP2 SWAP1 PUSH2 0x214F JUMP JUMPDEST DUP2 MLOAD DUP2 LT PUSH2 0x1173 JUMPI PUSH2 0x1172 PUSH2 0x2288 JUMP JUMPDEST JUMPDEST PUSH1 0x20 MUL PUSH1 0x20 ADD ADD MLOAD PUSH2 0x1185 SWAP2 SWAP1 PUSH2 0x1EEC JUMP JUMPDEST SWAP1 POP PUSH1 0x2 DUP2 PUSH2 0x1194 SWAP2 SWAP1 PUSH2 0x2258 JUMP JUMPDEST SWAP3 POP POP POP PUSH2 0x11BC JUMP JUMPDEST DUP3 DUP2 DUP2 MLOAD DUP2 LT PUSH2 0x11B0 JUMPI PUSH2 0x11AF PUSH2 0x2288 JUMP JUMPDEST JUMPDEST PUSH1 0x20 MUL PUSH1 0x20 ADD ADD MLOAD SWAP2 POP POP JUMPDEST SWAP2 SWAP1 POP JUMP JUMPDEST PUSH1 0x60 PUSH0 DUP1 DUP4 MLOAD PUSH8 0xFFFFFFFFFFFFFFFF DUP2 GT ISZERO PUSH2 0x11E0 JUMPI PUSH2 0x11DF PUSH2 0x1B6F JUMP JUMPDEST JUMPDEST PUSH1 0x40 MLOAD SWAP1 DUP1 DUP3 MSTORE DUP1 PUSH1 0x20 MUL PUSH1 0x20 ADD DUP3 ADD PUSH1 0x40 MSTORE DUP1 ISZERO PUSH2 0x120E JUMPI DUP2 PUSH1 0x20 ADD PUSH1 0x20 DUP3 MUL DUP1 CALLDATASIZE DUP4 CALLDATACOPY DUP1 DUP3 ADD SWAP2 POP POP SWAP1 POP JUMPDEST POP SWAP1 POP PUSH0 DUP5 MLOAD PUSH8 0xFFFFFFFFFFFFFFFF DUP2 GT ISZERO PUSH2 0x122D JUMPI PUSH2 0x122C PUSH2 0x1B6F JUMP JUMPDEST JUMPDEST PUSH1 0x40 MLOAD SWAP1 DUP1 DUP3 MSTORE DUP1 PUSH1 0x20 MUL PUSH1 0x20 ADD DUP3 ADD PUSH1 0x40 MSTORE DUP1 ISZERO PUSH2 0x125B JUMPI DUP2 PUSH1 0x20 ADD PUSH1 0x20 DUP3 MUL DUP1 CALLDATASIZE DUP4 CALLDATACOPY DUP1 DUP3 ADD SWAP2 POP POP SWAP1 POP JUMPDEST POP SWAP1 POP PUSH0 DUP6 MLOAD PUSH8 0xFFFFFFFFFFFFFFFF DUP2 GT ISZERO PUSH2 0x127A JUMPI PUSH2 0x1279 PUSH2 0x1B6F JUMP JUMPDEST JUMPDEST PUSH1 0x40 MLOAD SWAP1 DUP1 DUP3 MSTORE DUP1 PUSH1 0x20 MUL PUSH1 0x20 ADD DUP3 ADD PUSH1 0x40 MSTORE DUP1 ISZERO PUSH2 0x12AD JUMPI DUP2 PUSH1 0x20 ADD JUMPDEST PUSH1 0x60 DUP2 MSTORE PUSH1 0x20 ADD SWAP1 PUSH1 0x1 SWAP1 SUB SWAP1 DUP2 PUSH2 0x1298 JUMPI SWAP1 POP JUMPDEST POP SWAP1 POP PUSH0 JUMPDEST DUP7 MLOAD DUP2 LT ISZERO PUSH2 0x1339 JUMPI PUSH2 0x12C3 PUSH2 0xD87 JUMP JUMPDEST PUSH1 0xFF AND PUSH8 0xFFFFFFFFFFFFFFFF DUP2 GT ISZERO PUSH2 0x12DF JUMPI PUSH2 0x12DE PUSH2 0x1B6F JUMP JUMPDEST JUMPDEST PUSH1 0x40 MLOAD SWAP1 DUP1 DUP3 MSTORE DUP1 PUSH1 0x20 MUL PUSH1 0x20 ADD DUP3 ADD PUSH1 0x40 MSTORE DUP1 ISZERO PUSH2 0x130D JUMPI DUP2 PUSH1 0x20 ADD PUSH1 0x20 DUP3 MUL DUP1 CALLDATASIZE DUP4 CALLDATACOPY DUP1 DUP3 ADD SWAP2 POP POP SWAP1 POP JUMPDEST POP DUP3 DUP3 DUP2 MLOAD DUP2 LT PUSH2 0x1321 JUMPI PUSH2 0x1320 PUSH2 0x2288 JUMP JUMPDEST JUMPDEST PUSH1 0x20 MUL PUSH1 0x20 ADD ADD DUP2 SWAP1 MSTORE POP DUP1 DUP1 PUSH1 0x1 ADD SWAP2 POP POP PUSH2 0x12B2 JUMP JUMPDEST POP PUSH0 PUSH2 0x1343 PUSH2 0xE28 JUMP JUMPDEST SWAP1 POP PUSH0 PUSH2 0x134F DUP3 PUSH2 0xF35 JUMP JUMPDEST DUP2 PUSH2 0xFFFF AND SWAP2 POP DUP1 SWAP4 POP DUP2 SWAP3 POP POP POP PUSH0 PUSH1 0x40 MLOAD SWAP1 POP PUSH0 JUMPDEST DUP3 DUP2 LT ISZERO PUSH2 0x1419 JUMPI PUSH0 PUSH2 0x137C DUP12 DUP10 DUP10 DUP10 DUP10 PUSH2 0x1484 JUMP JUMPDEST DUP1 SWAP3 POP DUP2 SWAP7 POP POP POP PUSH0 DUP2 SUB PUSH2 0x13BD JUMPI PUSH1 0x40 MLOAD PUSH32 0xDFB25A7900000000000000000000000000000000000000000000000000000000 DUP2 MSTORE PUSH1 0x4 ADD PUSH1 0x40 MLOAD DUP1 SWAP2 SUB SWAP1 REVERT JUMPDEST DUP9 DUP2 EQ ISZERO DUP1 ISZERO PUSH2 0x13CD JUMPI POP PUSH0 DUP10 EQ ISZERO JUMPDEST ISZERO PUSH2 0x1404 JUMPI PUSH1 0x40 MLOAD PUSH32 0x4CBC474200000000000000000000000000000000000000000000000000000000 DUP2 MSTORE PUSH1 0x4 ADD PUSH1 0x40 MLOAD DUP1 SWAP2 SUB SWAP1 REVERT JUMPDEST DUP1 SWAP9 POP DUP3 PUSH1 0x40 MSTORE DUP2 DUP1 PUSH1 0x1 ADD SWAP3 POP POP POP PUSH2 0x1366 JUMP JUMPDEST POP PUSH2 0x1424 DUP5 DUP8 PUSH2 0x1741 JUMP JUMPDEST SWAP8 POP POP POP POP POP POP POP SWAP2 POP SWAP2 JUMP JUMPDEST DUP1 MLOAD PUSH1 0x20 DUP3 ADD PUSH1 0x20 DUP3 MUL DUP2 ADD DUP2 JUMPDEST DUP2 DUP2 LT ISZERO PUSH2 0x147D JUMPI DUP3 JUMPDEST DUP2 DUP2 LT ISZERO PUSH2 0x1471 JUMPI DUP2 MLOAD DUP2 MLOAD DUP1 DUP3 LT ISZERO PUSH2 0x1464 JUMPI DUP1 DUP5 MSTORE DUP2 DUP4 MSTORE JUMPDEST POP POP PUSH1 0x20 DUP2 ADD SWAP1 POP PUSH2 0x1449 JUMP JUMPDEST POP PUSH1 0x20 DUP2 ADD SWAP1 POP PUSH2 0x143F JUMP JUMPDEST POP POP POP POP POP JUMP JUMPDEST PUSH0 DUP1 PUSH0 DUP1 PUSH0 PUSH2 0x1492 DUP7 PUSH2 0x1014 JUMP JUMPDEST SWAP2 POP SWAP2 POP PUSH0 DUP1 PUSH1 0x60 PUSH0 DUP1 PUSH1 0xD PUSH1 0x20 DUP8 PUSH2 0x14AB SWAP2 SWAP1 PUSH2 0x1EEC JUMP JUMPDEST DUP9 PUSH2 0x14B6 SWAP2 SWAP1 PUSH2 0x21EA JUMP JUMPDEST PUSH2 0x14C0 SWAP2 SWAP1 PUSH2 0x1EEC JUMP JUMPDEST SWAP2 POP PUSH0 PUSH1 0x68 DUP13 PUSH2 0x14D0 SWAP2 SWAP1 PUSH2 0x1EEC JUMP JUMPDEST PUSH0 CALLDATASIZE SWAP1 POP PUSH2 0x14DE SWAP2 SWAP1 PUSH2 0x214F JUMP JUMPDEST SWAP1 POP PUSH0 DUP4 PUSH1 0x41 DUP15 PUSH2 0x14EF SWAP2 SWAP1 PUSH2 0x1EEC JUMP JUMPDEST PUSH2 0x14F9 SWAP2 SWAP1 PUSH2 0x1EEC JUMP JUMPDEST PUSH0 CALLDATASIZE SWAP1 POP PUSH2 0x1507 SWAP2 SWAP1 PUSH2 0x214F JUMP JUMPDEST SWAP1 POP PUSH2 0x1513 DUP5 DUP3 PUSH2 0x1540 JUMP JUMPDEST SWAP5 POP DUP4 PUSH1 0x20 DUP7 ADD KECCAK256 SWAP6 POP DUP2 CALLDATALOAD SWAP3 POP PUSH2 0x155B JUMP JUMPDEST PUSH0 PUSH1 0x40 MLOAD SWAP1 POP DUP2 DUP2 MSTORE PUSH1 0x20 DUP2 ADD SWAP1 POP DUP2 DUP2 ADD PUSH1 0x40 MSTORE SWAP2 SWAP1 POP JUMP JUMPDEST PUSH0 PUSH2 0x154A DUP4 PUSH2 0x1526 JUMP JUMPDEST DUP4 DUP4 DUP3 CALLDATACOPY PUSH1 0x20 DUP2 SUB SWAP2 POP POP SWAP3 SWAP2 POP POP JUMP JUMPDEST DUP3 PUSH6 0xFFFFFFFFFFFF AND SWAP11 POP PUSH2 0x157C DUP7 PUSH1 0x41 DUP16 PUSH2 0x1577 SWAP2 SWAP1 PUSH2 0x1EEC JUMP JUMPDEST PUSH2 0x1884 JUMP JUMPDEST SWAP7 POP PUSH2 0x1587 DUP8 PUSH2 0x6B9 JUMP JUMPDEST PUSH1 0xFF AND SWAP10 POP POP POP POP POP POP POP POP PUSH1 0x4E DUP7 PUSH2 0x15A0 SWAP2 SWAP1 PUSH2 0x1EEC JUMP JUMPDEST SWAP6 POP PUSH0 DUP1 PUSH0 JUMPDEST DUP5 DUP2 LT ISZERO PUSH2 0x172E JUMPI PUSH1 0x20 DUP5 DUP11 PUSH2 0x15BC SWAP2 SWAP1 PUSH2 0x1EEC JUMP JUMPDEST PUSH2 0x15C6 SWAP2 SWAP1 PUSH2 0x1EEC JUMP JUMPDEST SWAP9 POP PUSH2 0x15D2 DUP10 DUP6 PUSH2 0x18FD JUMP JUMPDEST DUP1 SWAP4 POP DUP2 SWAP5 POP POP POP PUSH0 JUMPDEST DUP14 MLOAD DUP2 LT ISZERO PUSH2 0x1720 JUMPI DUP14 DUP2 DUP2 MLOAD DUP2 LT PUSH2 0x15F8 JUMPI PUSH2 0x15F7 PUSH2 0x2288 JUMP JUMPDEST JUMPDEST PUSH1 0x20 MUL PUSH1 0x20 ADD ADD MLOAD DUP5 SUB PUSH2 0x1713 JUMPI PUSH0 DUP13 DUP3 DUP2 MLOAD DUP2 LT PUSH2 0x161A JUMPI PUSH2 0x1619 PUSH2 0x2288 JUMP JUMPDEST JUMPDEST PUSH1 0x20 MUL PUSH1 0x20 ADD ADD MLOAD SWAP1 POP PUSH2 0x162E DUP2 DUP10 PUSH2 0x1975 JUMP JUMPDEST ISZERO DUP1 ISZERO PUSH2 0x165E JUMPI POP PUSH2 0x163E PUSH2 0xD87 JUMP JUMPDEST PUSH1 0xFF AND DUP15 DUP4 DUP2 MLOAD DUP2 LT PUSH2 0x1654 JUMPI PUSH2 0x1653 PUSH2 0x2288 JUMP JUMPDEST JUMPDEST PUSH1 0x20 MUL PUSH1 0x20 ADD ADD MLOAD LT JUMPDEST ISZERO PUSH2 0x170D JUMPI DUP4 DUP13 DUP4 DUP2 MLOAD DUP2 LT PUSH2 0x1677 JUMPI PUSH2 0x1676 PUSH2 0x2288 JUMP JUMPDEST JUMPDEST PUSH1 0x20 MUL PUSH1 0x20 ADD ADD MLOAD DUP16 DUP5 DUP2 MLOAD DUP2 LT PUSH2 0x1692 JUMPI PUSH2 0x1691 PUSH2 0x2288 JUMP JUMPDEST JUMPDEST PUSH1 0x20 MUL PUSH1 0x20 ADD ADD MLOAD DUP2 MLOAD DUP2 LT PUSH2 0x16AB JUMPI PUSH2 0x16AA PUSH2 0x2288 JUMP JUMPDEST JUMPDEST PUSH1 0x20 MUL PUSH1 0x20 ADD ADD DUP2 DUP2 MSTORE POP POP DUP14 DUP3 DUP2 MLOAD DUP2 LT PUSH2 0x16CA JUMPI PUSH2 0x16C9 PUSH2 0x2288 JUMP JUMPDEST JUMPDEST PUSH1 0x20 MUL PUSH1 0x20 ADD ADD DUP1 MLOAD DUP1 SWAP2 SWAP1 PUSH2 0x16DF SWAP1 PUSH2 0x22E5 JUMP JUMPDEST DUP2 MSTORE POP POP PUSH2 0x16ED DUP2 DUP10 PUSH2 0x198C JUMP JUMPDEST DUP14 DUP4 DUP2 MLOAD DUP2 LT PUSH2 0x1700 JUMPI PUSH2 0x16FF PUSH2 0x2288 JUMP JUMPDEST JUMPDEST PUSH1 0x20 MUL PUSH1 0x20 ADD ADD DUP2 DUP2 MSTORE POP POP JUMPDEST POP PUSH2 0x1720 JUMP JUMPDEST DUP1 DUP1 PUSH1 0x1 ADD SWAP2 POP POP PUSH2 0x15DC JUMP JUMPDEST POP DUP1 DUP1 PUSH1 0x1 ADD SWAP2 POP POP PUSH2 0x15A6 JUMP JUMPDEST POP POP POP DUP6 SWAP5 POP POP POP POP SWAP6 POP SWAP6 SWAP4 POP POP POP POP JUMP JUMPDEST PUSH1 0x60 PUSH0 DUP4 MLOAD PUSH8 0xFFFFFFFFFFFFFFFF DUP2 GT ISZERO PUSH2 0x175F JUMPI PUSH2 0x175E PUSH2 0x1B6F JUMP JUMPDEST JUMPDEST PUSH1 0x40 MLOAD SWAP1 DUP1 DUP3 MSTORE DUP1 PUSH1 0x20 MUL PUSH1 0x20 ADD DUP3 ADD PUSH1 0x40 MSTORE DUP1 ISZERO PUSH2 0x178D JUMPI DUP2 PUSH1 0x20 ADD PUSH1 0x20 DUP3 MUL DUP1 CALLDATASIZE DUP4 CALLDATACOPY DUP1 DUP3 ADD SWAP2 POP POP SWAP1 POP JUMPDEST POP SWAP1 POP PUSH0 PUSH2 0x1799 PUSH2 0xD87 JUMP JUMPDEST PUSH1 0xFF AND SWAP1 POP PUSH0 JUMPDEST DUP6 MLOAD DUP2 LT ISZERO PUSH2 0x1878 JUMPI DUP2 DUP6 DUP3 DUP2 MLOAD DUP2 LT PUSH2 0x17BD JUMPI PUSH2 0x17BC PUSH2 0x2288 JUMP JUMPDEST JUMPDEST PUSH1 0x20 MUL PUSH1 0x20 ADD ADD MLOAD LT ISZERO PUSH2 0x1824 JUMPI DUP5 DUP2 DUP2 MLOAD DUP2 LT PUSH2 0x17DE JUMPI PUSH2 0x17DD PUSH2 0x2288 JUMP JUMPDEST JUMPDEST PUSH1 0x20 MUL PUSH1 0x20 ADD ADD MLOAD DUP3 PUSH1 0x40 MLOAD PUSH32 0x2B13AEF500000000000000000000000000000000000000000000000000000000 DUP2 MSTORE PUSH1 0x4 ADD PUSH2 0x181B SWAP3 SWAP2 SWAP1 PUSH2 0x232C JUMP JUMPDEST PUSH1 0x40 MLOAD DUP1 SWAP2 SUB SWAP1 REVERT JUMPDEST PUSH0 PUSH2 0x1848 DUP8 DUP4 DUP2 MLOAD DUP2 LT PUSH2 0x183B JUMPI PUSH2 0x183A PUSH2 0x2288 JUMP JUMPDEST JUMPDEST PUSH1 0x20 MUL PUSH1 0x20 ADD ADD MLOAD PUSH2 0xC3A JUMP JUMPDEST SWAP1 POP DUP1 DUP5 DUP4 DUP2 MLOAD DUP2 LT PUSH2 0x185E JUMPI PUSH2 0x185D PUSH2 0x2288 JUMP JUMPDEST JUMPDEST PUSH1 0x20 MUL PUSH1 0x20 ADD ADD DUP2 DUP2 MSTORE POP POP POP DUP1 DUP1 PUSH1 0x1 ADD SWAP2 POP POP PUSH2 0x17A0 JUMP JUMPDEST POP DUP2 SWAP3 POP POP POP SWAP3 SWAP2 POP POP JUMP JUMPDEST PUSH0 DUP1 PUSH0 DUP1 DUP5 CALLDATASIZE SUB DUP1 CALLDATALOAD SWAP4 POP PUSH1 0x20 DUP2 ADD SWAP1 POP DUP1 CALLDATALOAD SWAP3 POP PUSH1 0x20 DUP2 ADD SWAP1 POP DUP1 CALLDATALOAD PUSH0 BYTE SWAP2 POP POP PUSH1 0x1 DUP7 DUP3 DUP6 DUP6 PUSH1 0x40 MLOAD PUSH0 DUP2 MSTORE PUSH1 0x20 ADD PUSH1 0x40 MSTORE PUSH1 0x40 MLOAD PUSH2 0x18C8 SWAP5 SWAP4 SWAP3 SWAP2 SWAP1 PUSH2 0x236B JUMP JUMPDEST PUSH1 0x20 PUSH1 0x40 MLOAD PUSH1 0x20 DUP2 SUB SWAP1 DUP1 DUP5 SUB SWAP1 DUP6 GAS STATICCALL ISZERO DUP1 ISZERO PUSH2 0x18E8 JUMPI RETURNDATASIZE PUSH0 DUP1 RETURNDATACOPY RETURNDATASIZE PUSH0 REVERT JUMPDEST POP POP POP PUSH1 0x20 PUSH1 0x40 MLOAD SUB MLOAD SWAP4 POP POP POP POP SWAP3 SWAP2 POP POP JUMP JUMPDEST PUSH0 DUP1 PUSH0 DUP5 PUSH0 CALLDATASIZE SWAP1 POP PUSH2 0x190F SWAP2 SWAP1 PUSH2 0x214F JUMP JUMPDEST SWAP1 POP DUP1 CALLDATALOAD SWAP3 POP PUSH1 0x20 DUP2 ADD CALLDATALOAD SWAP2 POP PUSH1 0x21 DUP5 LT PUSH2 0x1961 JUMPI DUP4 PUSH1 0x40 MLOAD PUSH32 0xC000FC4200000000000000000000000000000000000000000000000000000000 DUP2 MSTORE PUSH1 0x4 ADD PUSH2 0x1958 SWAP2 SWAP1 PUSH2 0x1AAA JUMP JUMPDEST PUSH1 0x40 MLOAD DUP1 SWAP2 SUB SWAP1 REVERT JUMPDEST PUSH1 0x8 DUP5 PUSH1 0x20 SUB MUL DUP3 SWAP1 SHR SWAP2 POP POP SWAP3 POP SWAP3 SWAP1 POP JUMP JUMPDEST PUSH0 DUP1 DUP3 PUSH1 0x1 SWAP1 SHL DUP5 AND SWAP1 POP PUSH0 DUP2 GT SWAP2 POP POP SWAP3 SWAP2 POP POP JUMP JUMPDEST PUSH0 DUP2 PUSH1 0x1 SWAP1 SHL DUP4 OR SWAP1 POP SWAP3 SWAP2 POP POP JUMP JUMPDEST PUSH0 PUSH1 0x40 MLOAD SWAP1 POP SWAP1 JUMP JUMPDEST PUSH0 DUP1 REVERT JUMPDEST PUSH0 DUP1 REVERT JUMPDEST PUSH0 DUP2 ISZERO ISZERO SWAP1 POP SWAP2 SWAP1 POP JUMP JUMPDEST PUSH2 0x19C1 DUP2 PUSH2 0x19AD JUMP JUMPDEST DUP2 EQ PUSH2 0x19CB JUMPI PUSH0 DUP1 REVERT JUMPDEST POP JUMP JUMPDEST PUSH0 DUP2 CALLDATALOAD SWAP1 POP PUSH2 0x19DC DUP2 PUSH2 0x19B8 JUMP JUMPDEST SWAP3 SWAP2 POP POP JUMP JUMPDEST PUSH0 PUSH1 0x20 DUP3 DUP5 SUB SLT ISZERO PUSH2 0x19F7 JUMPI PUSH2 0x19F6 PUSH2 0x19A5 JUMP JUMPDEST JUMPDEST PUSH0 PUSH2 0x1A04 DUP5 DUP3 DUP6 ADD PUSH2 0x19CE JUMP JUMPDEST SWAP2 POP POP SWAP3 SWAP2 POP POP JUMP JUMPDEST PUSH0 PUSH20 0xFFFFFFFFFFFFFFFFFFFFFFFFFFFFFFFFFFFFFFFF DUP3 AND SWAP1 POP SWAP2 SWAP1 POP JUMP JUMPDEST PUSH0 PUSH2 0x1A36 DUP3 PUSH2 0x1A0D JUMP JUMPDEST SWAP1 POP SWAP2 SWAP1 POP JUMP JUMPDEST PUSH2 0x1A46 DUP2 PUSH2 0x1A2C JUMP JUMPDEST DUP2 EQ PUSH2 0x1A50 JUMPI PUSH0 DUP1 REVERT JUMPDEST POP JUMP JUMPDEST PUSH0 DUP2 CALLDATALOAD SWAP1 POP PUSH2 0x1A61 DUP2 PUSH2 0x1A3D JUMP JUMPDEST SWAP3 SWAP2 POP POP JUMP JUMPDEST PUSH0 PUSH1 0x20 DUP3 DUP5 SUB SLT ISZERO PUSH2 0x1A7C JUMPI PUSH2 0x1A7B PUSH2 0x19A5 JUMP JUMPDEST JUMPDEST PUSH0 PUSH2 0x1A89 DUP5 DUP3 DUP6 ADD PUSH2 0x1A53 JUMP JUMPDEST SWAP2 POP POP SWAP3 SWAP2 POP POP JUMP JUMPDEST PUSH0 DUP2 SWAP1 POP SWAP2 SWAP1 POP JUMP JUMPDEST PUSH2 0x1AA4 DUP2 PUSH2 0x1A92 JUMP JUMPDEST DUP3 MSTORE POP POP JUMP JUMPDEST PUSH0 PUSH1 0x20 DUP3 ADD SWAP1 POP PUSH2 0x1ABD PUSH0 DUP4 ADD DUP5 PUSH2 0x1A9B JUMP JUMPDEST SWAP3 SWAP2 POP POP JUMP JUMPDEST PUSH0 DUP2 SWAP1 POP SWAP2 SWAP1 POP JUMP JUMPDEST PUSH2 0x1AD5 DUP2 PUSH2 0x1AC3 JUMP JUMPDEST DUP3 MSTORE POP POP JUMP JUMPDEST PUSH0 PUSH1 0x20 DUP3 ADD SWAP1 POP PUSH2 0x1AEE PUSH0 DUP4 ADD DUP5 PUSH2 0x1ACC JUMP JUMPDEST SWAP3 SWAP2 POP POP JUMP JUMPDEST PUSH0 PUSH1 0xFF DUP3 AND SWAP1 POP SWAP2 SWAP1 POP JUMP JUMPDEST PUSH2 0x1B09 DUP2 PUSH2 0x1AF4 JUMP JUMPDEST DUP3 MSTORE POP POP JUMP JUMPDEST PUSH0 PUSH1 0x20 DUP3 ADD SWAP1 POP PUSH2 0x1B22 PUSH0 DUP4 ADD DUP5 PUSH2 0x1B00 JUMP JUMPDEST SWAP3 SWAP2 POP POP JUMP JUMPDEST PUSH0 DUP2 PUSH0 SIGNEXTEND SWAP1 POP SWAP2 SWAP1 POP JUMP JUMPDEST PUSH2 0x1B3C DUP2 PUSH2 0x1B28 JUMP JUMPDEST DUP3 MSTORE POP POP JUMP JUMPDEST PUSH0 PUSH1 0x20 DUP3 ADD SWAP1 POP PUSH2 0x1B55 PUSH0 DUP4 ADD DUP5 PUSH2 0x1B33 JUMP JUMPDEST SWAP3 SWAP2 POP POP JUMP JUMPDEST PUSH0 DUP1 REVERT JUMPDEST PUSH0 PUSH1 0x1F NOT PUSH1 0x1F DUP4 ADD AND SWAP1 POP SWAP2 SWAP1 POP JUMP JUMPDEST PUSH32 0x4E487B7100000000000000000000000000000000000000000000000000000000 PUSH0 MSTORE PUSH1 0x41 PUSH1 0x4 MSTORE PUSH1 0x24 PUSH0 REVERT JUMPDEST PUSH2 0x1BA5 DUP3 PUSH2 0x1B5F JUMP JUMPDEST DUP2 ADD DUP2 DUP2 LT PUSH8 0xFFFFFFFFFFFFFFFF DUP3 GT OR ISZERO PUSH2 0x1BC4 JUMPI PUSH2 0x1BC3 PUSH2 0x1B6F JUMP JUMPDEST JUMPDEST DUP1 PUSH1 0x40 MSTORE POP POP POP JUMP JUMPDEST PUSH0 PUSH2 0x1BD6 PUSH2 0x199C JUMP JUMPDEST SWAP1 POP PUSH2 0x1BE2 DUP3 DUP3 PUSH2 0x1B9C JUMP JUMPDEST SWAP2 SWAP1 POP JUMP JUMPDEST PUSH0 PUSH8 0xFFFFFFFFFFFFFFFF DUP3 GT ISZERO PUSH2 0x1C01 JUMPI PUSH2 0x1C00 PUSH2 0x1B6F JUMP JUMPDEST JUMPDEST PUSH1 0x20 DUP3 MUL SWAP1 POP PUSH1 0x20 DUP2 ADD SWAP1 POP SWAP2 SWAP1 POP JUMP JUMPDEST PUSH0 DUP1 REVERT JUMPDEST PUSH2 0x1C1F DUP2 PUSH2 0x1A92 JUMP JUMPDEST DUP2 EQ PUSH2 0x1C29 JUMPI PUSH0 DUP1 REVERT JUMPDEST POP JUMP JUMPDEST PUSH0 DUP2 CALLDATALOAD SWAP1 POP PUSH2 0x1C3A DUP2 PUSH2 0x1C16 JUMP JUMPDEST SWAP3 SWAP2 POP POP JUMP JUMPDEST PUSH0 PUSH2 0x1C52 PUSH2 0x1C4D DUP5 PUSH2 0x1BE7 JUMP JUMPDEST PUSH2 0x1BCD JUMP JUMPDEST SWAP1 POP DUP1 DUP4 DUP3 MSTORE PUSH1 0x20 DUP3 ADD SWAP1 POP PUSH1 0x20 DUP5 MUL DUP4 ADD DUP6 DUP2 GT ISZERO PUSH2 0x1C75 JUMPI PUSH2 0x1C74 PUSH2 0x1C12 JUMP JUMPDEST JUMPDEST DUP4 JUMPDEST DUP2 DUP2 LT ISZERO PUSH2 0x1C9E JUMPI DUP1 PUSH2 0x1C8A DUP9 DUP3 PUSH2 0x1C2C JUMP JUMPDEST DUP5 MSTORE PUSH1 0x20 DUP5 ADD SWAP4 POP POP PUSH1 0x20 DUP2 ADD SWAP1 POP PUSH2 0x1C77 JUMP JUMPDEST POP POP POP SWAP4 SWAP3 POP POP POP JUMP JUMPDEST PUSH0 DUP3 PUSH1 0x1F DUP4 ADD SLT PUSH2 0x1CBC JUMPI PUSH2 0x1CBB PUSH2 0x1B5B JUMP JUMPDEST JUMPDEST DUP2 CALLDATALOAD PUSH2 0x1CCC DUP5 DUP3 PUSH1 0x20 DUP7 ADD PUSH2 0x1C40 JUMP JUMPDEST SWAP2 POP POP SWAP3 SWAP2 POP POP JUMP JUMPDEST PUSH0 PUSH1 0x20 DUP3 DUP5 SUB SLT ISZERO PUSH2 0x1CEA JUMPI PUSH2 0x1CE9 PUSH2 0x19A5 JUMP JUMPDEST JUMPDEST PUSH0 DUP3 ADD CALLDATALOAD PUSH8 0xFFFFFFFFFFFFFFFF DUP2 GT ISZERO PUSH2 0x1D07 JUMPI PUSH2 0x1D06 PUSH2 0x19A9 JUMP JUMPDEST JUMPDEST PUSH2 0x1D13 DUP5 DUP3 DUP6 ADD PUSH2 0x1CA8 JUMP JUMPDEST SWAP2 POP POP SWAP3 SWAP2 POP POP JUMP JUMPDEST PUSH0 DUP2 MLOAD SWAP1 POP SWAP2 SWAP1 POP JUMP JUMPDEST PUSH0 DUP3 DUP3 MSTORE PUSH1 0x20 DUP3 ADD SWAP1 POP SWAP3 SWAP2 POP POP JUMP JUMPDEST DUP3 DUP2 DUP4 MCOPY PUSH0 DUP4 DUP4 ADD MSTORE POP POP POP JUMP JUMPDEST PUSH0 PUSH2 0x1D4E DUP3 PUSH2 0x1D1C JUMP JUMPDEST PUSH2 0x1D58 DUP2 DUP6 PUSH2 0x1D26 JUMP JUMPDEST SWAP4 POP PUSH2 0x1D68 DUP2 DUP6 PUSH1 0x20 DUP7 ADD PUSH2 0x1D36 JUMP JUMPDEST PUSH2 0x1D71 DUP2 PUSH2 0x1B5F JUMP JUMPDEST DUP5 ADD SWAP2 POP POP SWAP3 SWAP2 POP POP JUMP JUMPDEST PUSH0 PUSH1 0x20 DUP3 ADD SWAP1 POP DUP2 DUP2 SUB PUSH0 DUP4 ADD MSTORE PUSH2 0x1D94 DUP2 DUP5 PUSH2 0x1D44 JUMP JUMPDEST SWAP1 POP SWAP3 SWAP2 POP POP JUMP JUMPDEST PUSH2 0x1DA5 DUP2 PUSH2 0x19AD JUMP JUMPDEST DUP3 MSTORE POP POP JUMP JUMPDEST PUSH0 PUSH1 0x20 DUP3 ADD SWAP1 POP PUSH2 0x1DBE PUSH0 DUP4 ADD DUP5 PUSH2 0x1D9C JUMP JUMPDEST SWAP3 SWAP2 POP POP JUMP JUMPDEST PUSH0 PUSH1 0x20 DUP3 DUP5 SUB SLT ISZERO PUSH2 0x1DD9 JUMPI PUSH2 0x1DD8 PUSH2 0x19A5 JUMP JUMPDEST JUMPDEST PUSH0 PUSH2 0x1DE6 DUP5 DUP3 DUP6 ADD PUSH2 0x1C2C JUMP JUMPDEST SWAP2 POP POP SWAP3 SWAP2 POP POP JUMP JUMPDEST PUSH32 0x4E6F2076616C756520696D206265740000000000000000000000000000000000 PUSH0 DUP3 ADD MSTORE POP JUMP JUMPDEST PUSH0 PUSH2 0x1E23 PUSH1 0xF DUP4 PUSH2 0x1D26 JUMP JUMPDEST SWAP2 POP PUSH2 0x1E2E DUP3 PUSH2 0x1DEF JUMP JUMPDEST PUSH1 0x20 DUP3 ADD SWAP1 POP SWAP2 SWAP1 POP JUMP JUMPDEST PUSH0 PUSH1 0x20 DUP3 ADD SWAP1 POP DUP2 DUP2 SUB PUSH0 DUP4 ADD MSTORE PUSH2 0x1E50 DUP2 PUSH2 0x1E17 JUMP JUMPDEST SWAP1 POP SWAP2 SWAP1 POP JUMP JUMPDEST PUSH32 0x42657420616C726561647920706C616365640000000000000000000000000000 PUSH0 DUP3 ADD MSTORE POP JUMP JUMPDEST PUSH0 PUSH2 0x1E8B PUSH1 0x12 DUP4 PUSH2 0x1D26 JUMP JUMPDEST SWAP2 POP PUSH2 0x1E96 DUP3 PUSH2 0x1E57 JUMP JUMPDEST PUSH1 0x20 DUP3 ADD SWAP1 POP SWAP2 SWAP1 POP JUMP JUMPDEST PUSH0 PUSH1 0x20 DUP3 ADD SWAP1 POP DUP2 DUP2 SUB PUSH0 DUP4 ADD MSTORE PUSH2 0x1EB8 DUP2 PUSH2 0x1E7F JUMP JUMPDEST SWAP1 POP SWAP2 SWAP1 POP JUMP JUMPDEST PUSH32 0x4E487B7100000000000000000000000000000000000000000000000000000000 PUSH0 MSTORE PUSH1 0x11 PUSH1 0x4 MSTORE PUSH1 0x24 PUSH0 REVERT JUMPDEST PUSH0 PUSH2 0x1EF6 DUP3 PUSH2 0x1A92 JUMP JUMPDEST SWAP2 POP PUSH2 0x1F01 DUP4 PUSH2 0x1A92 JUMP JUMPDEST SWAP3 POP DUP3 DUP3 ADD SWAP1 POP DUP1 DUP3 GT ISZERO PUSH2 0x1F19 JUMPI PUSH2 0x1F18 PUSH2 0x1EBF JUMP JUMPDEST JUMPDEST SWAP3 SWAP2 POP POP JUMP JUMPDEST PUSH2 0x1F28 DUP2 PUSH2 0x1A2C JUMP JUMPDEST DUP3 MSTORE POP POP JUMP JUMPDEST PUSH0 PUSH1 0x20 DUP3 ADD SWAP1 POP PUSH2 0x1F41 PUSH0 DUP4 ADD DUP5 PUSH2 0x1F1F JUMP JUMPDEST SWAP3 SWAP2 POP POP JUMP JUMPDEST PUSH32 0x416C72656164792066696E616C697A6564000000000000000000000000000000 PUSH0 DUP3 ADD MSTORE POP JUMP JUMPDEST PUSH0 PUSH2 0x1F7B PUSH1 0x11 DUP4 PUSH2 0x1D26 JUMP JUMPDEST SWAP2 POP PUSH2 0x1F86 DUP3 PUSH2 0x1F47 JUMP JUMPDEST PUSH1 0x20 DUP3 ADD SWAP1 POP SWAP2 SWAP1 POP JUMP JUMPDEST PUSH0 PUSH1 0x20 DUP3 ADD SWAP1 POP DUP2 DUP2 SUB PUSH0 DUP4 ADD MSTORE PUSH2 0x1FA8 DUP2 PUSH2 0x1F6F JUMP JUMPDEST SWAP1 POP SWAP2 SWAP1 POP JUMP JUMPDEST PUSH32 0x496E76616C69642074696D657374616D70000000000000000000000000000000 PUSH0 DUP3 ADD MSTORE POP JUMP JUMPDEST PUSH0 PUSH2 0x1FE3 PUSH1 0x11 DUP4 PUSH2 0x1D26 JUMP JUMPDEST SWAP2 POP PUSH2 0x1FEE DUP3 PUSH2 0x1FAF JUMP JUMPDEST PUSH1 0x20 DUP3 ADD SWAP1 POP SWAP2 SWAP1 POP JUMP JUMPDEST PUSH0 PUSH1 0x20 DUP3 ADD SWAP1 POP DUP2 DUP2 SUB PUSH0 DUP4 ADD MSTORE PUSH2 0x2010 DUP2 PUSH2 0x1FD7 JUMP JUMPDEST SWAP1 POP SWAP2 SWAP1 POP JUMP JUMPDEST PUSH32 0x4E6F742066696E616C697A656400000000000000000000000000000000000000 PUSH0 DUP3 ADD MSTORE POP JUMP JUMPDEST PUSH0 PUSH2 0x204B PUSH1 0xD DUP4 PUSH2 0x1D26 JUMP JUMPDEST SWAP2 POP PUSH2 0x2056 DUP3 PUSH2 0x2017 JUMP JUMPDEST PUSH1 0x20 DUP3 ADD SWAP1 POP SWAP2 SWAP1 POP JUMP JUMPDEST PUSH0 PUSH1 0x20 DUP3 ADD SWAP1 POP DUP2 DUP2 SUB PUSH0 DUP4 ADD MSTORE PUSH2 0x2078 DUP2 PUSH2 0x203F JUMP JUMPDEST SWAP1 POP SWAP2 SWAP1 POP JUMP JUMPDEST PUSH32 0x446964206E6F742077696E000000000000000000000000000000000000000000 PUSH0 DUP3 ADD MSTORE POP JUMP JUMPDEST PUSH0 PUSH2 0x20B3 PUSH1 0xB DUP4 PUSH2 0x1D26 JUMP JUMPDEST SWAP2 POP PUSH2 0x20BE DUP3 PUSH2 0x207F JUMP JUMPDEST PUSH1 0x20 DUP3 ADD SWAP1 POP SWAP2 SWAP1 POP JUMP JUMPDEST PUSH0 PUSH1 0x20 DUP3 ADD SWAP1 POP DUP2 DUP2 SUB PUSH0 DUP4 ADD MSTORE PUSH2 0x20E0 DUP2 PUSH2 0x20A7 JUMP JUMPDEST SWAP1 POP SWAP2 SWAP1 POP JUMP JUMPDEST PUSH32 0x416C726561647920636C61696D65640000000000000000000000000000000000 PUSH0 DUP3 ADD MSTORE POP JUMP JUMPDEST PUSH0 PUSH2 0x211B PUSH1 0xF DUP4 PUSH2 0x1D26 JUMP JUMPDEST SWAP2 POP PUSH2 0x2126 DUP3 PUSH2 0x20E7 JUMP JUMPDEST PUSH1 0x20 DUP3 ADD SWAP1 POP SWAP2 SWAP1 POP JUMP JUMPDEST PUSH0 PUSH1 0x20 DUP3 ADD SWAP1 POP DUP2 DUP2 SUB PUSH0 DUP4 ADD MSTORE PUSH2 0x2148 DUP2 PUSH2 0x210F JUMP JUMPDEST SWAP1 POP SWAP2 SWAP1 POP JUMP JUMPDEST PUSH0 PUSH2 0x2159 DUP3 PUSH2 0x1A92 JUMP JUMPDEST SWAP2 POP PUSH2 0x2164 DUP4 PUSH2 0x1A92 JUMP JUMPDEST SWAP3 POP DUP3 DUP3 SUB SWAP1 POP DUP2 DUP2 GT ISZERO PUSH2 0x217C JUMPI PUSH2 0x217B PUSH2 0x1EBF JUMP JUMPDEST JUMPDEST SWAP3 SWAP2 POP POP JUMP JUMPDEST PUSH32 0x42657420626967676572207468616E2077696E6E696E6720706F6F6C00000000 PUSH0 DUP3 ADD MSTORE POP JUMP JUMPDEST PUSH0 PUSH2 0x21B6 PUSH1 0x1C DUP4 PUSH2 0x1D26 JUMP JUMPDEST SWAP2 POP PUSH2 0x21C1 DUP3 PUSH2 0x2182 JUMP JUMPDEST PUSH1 0x20 DUP3 ADD SWAP1 POP SWAP2 SWAP1 POP JUMP JUMPDEST PUSH0 PUSH1 0x20 DUP3 ADD SWAP1 POP DUP2 DUP2 SUB PUSH0 DUP4 ADD MSTORE PUSH2 0x21E3 DUP2 PUSH2 0x21AA JUMP JUMPDEST SWAP1 POP SWAP2 SWAP1 POP JUMP JUMPDEST PUSH0 PUSH2 0x21F4 DUP3 PUSH2 0x1A92 JUMP JUMPDEST SWAP2 POP PUSH2 0x21FF DUP4 PUSH2 0x1A92 JUMP JUMPDEST SWAP3 POP DUP3 DUP3 MUL PUSH2 0x220D DUP2 PUSH2 0x1A92 JUMP JUMPDEST SWAP2 POP DUP3 DUP3 DIV DUP5 EQ DUP4 ISZERO OR PUSH2 0x2224 JUMPI PUSH2 0x2223 PUSH2 0x1EBF JUMP JUMPDEST JUMPDEST POP SWAP3 SWAP2 POP POP JUMP JUMPDEST PUSH32 0x4E487B7100000000000000000000000000000000000000000000000000000000 PUSH0 MSTORE PUSH1 0x12 PUSH1 0x4 MSTORE PUSH1 0x24 PUSH0 REVERT JUMPDEST PUSH0 PUSH2 0x2262 DUP3 PUSH2 0x1A92 JUMP JUMPDEST SWAP2 POP PUSH2 0x226D DUP4 PUSH2 0x1A92 JUMP JUMPDEST SWAP3 POP DUP3 PUSH2 0x227D JUMPI PUSH2 0x227C PUSH2 0x222B JUMP JUMPDEST JUMPDEST DUP3 DUP3 DIV SWAP1 POP SWAP3 SWAP2 POP POP JUMP JUMPDEST PUSH32 0x4E487B7100000000000000000000000000000000000000000000000000000000 PUSH0 MSTORE PUSH1 0x32 PUSH1 0x4 MSTORE PUSH1 0x24 PUSH0 REVERT JUMPDEST PUSH0 PUSH2 0x22BF DUP3 PUSH2 0x1A92 JUMP JUMPDEST SWAP2 POP PUSH2 0x22CA DUP4 PUSH2 0x1A92 JUMP JUMPDEST SWAP3 POP DUP3 PUSH2 0x22DA JUMPI PUSH2 0x22D9 PUSH2 0x222B JUMP JUMPDEST JUMPDEST DUP3 DUP3 MOD SWAP1 POP SWAP3 SWAP2 POP POP JUMP JUMPDEST PUSH0 PUSH2 0x22EF DUP3 PUSH2 0x1A92 JUMP JUMPDEST SWAP2 POP PUSH32 0xFFFFFFFFFFFFFFFFFFFFFFFFFFFFFFFFFFFFFFFFFFFFFFFFFFFFFFFFFFFFFFFF DUP3 SUB PUSH2 0x2321 JUMPI PUSH2 0x2320 PUSH2 0x1EBF JUMP JUMPDEST JUMPDEST PUSH1 0x1 DUP3 ADD SWAP1 POP SWAP2 SWAP1 POP JUMP JUMPDEST PUSH0 PUSH1 0x40 DUP3 ADD SWAP1 POP PUSH2 0x233F PUSH0 DUP4 ADD DUP6 PUSH2 0x1A9B JUMP JUMPDEST PUSH2 0x234C PUSH1 0x20 DUP4 ADD DUP5 PUSH2 0x1A9B JUMP JUMPDEST SWAP4 SWAP3 POP POP POP JUMP JUMPDEST PUSH0 DUP2 SWAP1 POP SWAP2 SWAP1 POP JUMP JUMPDEST PUSH2 0x2365 DUP2 PUSH2 0x2353 JUMP JUMPDEST DUP3 MSTORE POP POP JUMP JUMPDEST PUSH0 PUSH1 0x80 DUP3 ADD SWAP1 POP PUSH2 0x237E PUSH0 DUP4 ADD DUP8 PUSH2 0x235C JUMP JUMPDEST PUSH2 0x238B PUSH1 0x20 DUP4 ADD DUP7 PUSH2 0x1B00 JUMP JUMPDEST PUSH2 0x2398 PUSH1 0x40 DUP4 ADD DUP6 PUSH2 0x235C JUMP JUMPDEST PUSH2 0x23A5 PUSH1 0x60 DUP4 ADD DUP5 PUSH2 0x235C JUMP JUMPDEST SWAP6 SWAP5 POP POP POP POP POP JUMP INVALID LOG2 PUSH5 0x6970667358 0x22 SLT KECCAK256 KECCAK256 DUP2 JUMPI PUSH4 0xCEC3BD43 0xAB 0xEA SWAP5 0xCA 0x1F SHR PUSH25 0x354ACB91BD18F5548A5221513196A0497964736F6C63430008 BYTE STOP CALLER "
		},
		"gasEstimates": {
			"creation": {
				"codeDepositCost": "1837600",
				"executionCost": "infinite",
				"totalCost": "infinite"
			},
			"external": {
				"aggregateValues(uint256[])": "infinite",
				"bets(address)": "2880",
				"claim()": "infinite",
				"claims(address)": "2855",
				"end()": "2491",
				"endLimit()": "2448",
				"expected()": "2493",
				"extractTimestampsAndAssertAllAreEqual()": "infinite",
				"finalize()": "infinite",
				"getAuthorisedSignerIndex(address)": "infinite",
				"getDataServiceId()": "infinite",
				"getUniqueSignersThreshold()": "448",
				"noPool()": "2492",
				"outcome()": "2515",
				"payout(uint256)": "infinite",
				"placeBet(bool)": "infinite",
				"stakes(address)": "2848",
				"validateTimestamp(uint256)": "489",
				"yesPool()": "2536"
			}
		},
		"methodIdentifiers": {
			"aggregateValues(uint256[])": "b24ebfcc",
			"bets(address)": "89a78f1a",
			"claim()": "4e71d92d",
			"claims(address)": "c6788bdd",
			"end()": "efbe1c1c",
			"endLimit()": "7a1fc2e2",
			"expected()": "1ce62383",
			"extractTimestampsAndAssertAllAreEqual()": "55a547d5",
			"finalize()": "4bb278f3",
			"getAuthorisedSignerIndex(address)": "3ce142f5",
			"getDataServiceId()": "c274583a",
			"getUniqueSignersThreshold()": "f90c4924",
			"noPool()": "a3b5afb1",
			"outcome()": "27793f87",
			"payout(uint256)": "e1152343",
			"placeBet(bool)": "096a3778",
			"stakes(address)": "16934fc4",
			"validateTimestamp(uint256)": "f50b2efe",
			"yesPool()": "6f1d4ea4"
		}
	},
	"abi": [
		{
			"inputs": [
				{
					"internalType": "uint256",
					"name": "_expected",
					"type": "uint256"
				},
				{
					"internalType": "uint256",
					"name": "_end",
					"type": "uint256"
				}
			],
			"stateMutability": "nonpayable",
			"type": "constructor"
		},
		{
			"inputs": [],
			"name": "CalldataMustHaveValidPayload",
			"type": "error"
		},
		{
			"inputs": [],
			"name": "CalldataOverOrUnderFlow",
			"type": "error"
		},
		{
			"inputs": [],
			"name": "CanNotPickMedianOfEmptyArray",
			"type": "error"
		},
		{
			"inputs": [],
			"name": "DataPackageTimestampMustNotBeZero",
			"type": "error"
		},
		{
			"inputs": [],
			"name": "DataPackageTimestampsMustBeEqual",
			"type": "error"
		},
		{
			"inputs": [],
			"name": "DataTimestampCannotBeZero",
			"type": "error"
		},
		{
			"inputs": [],
			"name": "EachSignerMustProvideTheSameValue",
			"type": "error"
		},
		{
			"inputs": [],
			"name": "EmptyCalldataPointersArr",
			"type": "error"
		},
		{
			"inputs": [],
			"name": "GetDataServiceIdNotImplemented",
			"type": "error"
		},
		{
			"inputs": [],
			"name": "IncorrectUnsignedMetadataSize",
			"type": "error"
		},
		{
			"inputs": [
				{
					"internalType": "uint256",
					"name": "receivedSignersCount",
					"type": "uint256"
				},
				{
					"internalType": "uint256",
					"name": "requiredSignersCount",
					"type": "uint256"
				}
			],
			"name": "InsufficientNumberOfUniqueSigners",
			"type": "error"
		},
		{
			"inputs": [],
			"name": "InvalidCalldataPointer",
			"type": "error"
		},
		{
			"inputs": [],
			"name": "RedstonePayloadMustHaveAtLeastOneDataPackage",
			"type": "error"
		},
		{
			"inputs": [
				{
					"internalType": "address",
					"name": "receivedSigner",
					"type": "address"
				}
			],
			"name": "SignerNotAuthorised",
			"type": "error"
		},
		{
			"inputs": [],
			"name": "TimestampsMustBeEqual",
			"type": "error"
		},
		{
			"inputs": [
				{
					"internalType": "uint256",
					"name": "valueByteSize",
					"type": "uint256"
				}
			],
			"name": "TooLargeValueByteSize",
			"type": "error"
		},
		{
			"inputs": [
				{
					"internalType": "uint256[]",
					"name": "values",
					"type": "uint256[]"
				}
			],
			"name": "aggregateValues",
			"outputs": [
				{
					"internalType": "uint256",
					"name": "",
					"type": "uint256"
				}
			],
			"stateMutability": "view",
			"type": "function"
		},
		{
			"inputs": [
				{
					"internalType": "address",
					"name": "",
					"type": "address"
				}
			],
			"name": "bets",
			"outputs": [
				{
					"internalType": "int8",
					"name": "",
					"type": "int8"
				}
			],
			"stateMutability": "view",
			"type": "function"
		},
		{
			"inputs": [],
			"name": "claim",
			"outputs": [],
			"stateMutability": "nonpayable",
			"type": "function"
		},
		{
			"inputs": [
				{
					"internalType": "address",
					"name": "",
					"type": "address"
				}
			],
			"name": "claims",
			"outputs": [
				{
					"internalType": "bool",
					"name": "",
					"type": "bool"
				}
			],
			"stateMutability": "view",
			"type": "function"
		},
		{
			"inputs": [],
			"name": "end",
			"outputs": [
				{
					"internalType": "uint256",
					"name": "",
					"type": "uint256"
				}
			],
			"stateMutability": "view",
			"type": "function"
		},
		{
			"inputs": [],
			"name": "endLimit",
			"outputs": [
				{
					"internalType": "uint256",
					"name": "",
					"type": "uint256"
				}
			],
			"stateMutability": "view",
			"type": "function"
		},
		{
			"inputs": [],
			"name": "expected",
			"outputs": [
				{
					"internalType": "uint256",
					"name": "",
					"type": "uint256"
				}
			],
			"stateMutability": "view",
			"type": "function"
		},
		{
			"inputs": [],
			"name": "extractTimestampsAndAssertAllAreEqual",
			"outputs": [
				{
					"internalType": "uint256",
					"name": "extractedTimestamp",
					"type": "uint256"
				}
			],
			"stateMutability": "pure",
			"type": "function"
		},
		{
			"inputs": [],
			"name": "finalize",
			"outputs": [],
			"stateMutability": "nonpayable",
			"type": "function"
		},
		{
			"inputs": [
				{
					"internalType": "address",
					"name": "signerAddress",
					"type": "address"
				}
			],
			"name": "getAuthorisedSignerIndex",
			"outputs": [
				{
					"internalType": "uint8",
					"name": "",
					"type": "uint8"
				}
			],
			"stateMutability": "view",
			"type": "function"
		},
		{
			"inputs": [],
			"name": "getDataServiceId",
			"outputs": [
				{
					"internalType": "string",
					"name": "",
					"type": "string"
				}
			],
			"stateMutability": "view",
			"type": "function"
		},
		{
			"inputs": [],
			"name": "getUniqueSignersThreshold",
			"outputs": [
				{
					"internalType": "uint8",
					"name": "",
					"type": "uint8"
				}
			],
			"stateMutability": "view",
			"type": "function"
		},
		{
			"inputs": [],
			"name": "noPool",
			"outputs": [
				{
					"internalType": "uint256",
					"name": "",
					"type": "uint256"
				}
			],
			"stateMutability": "view",
			"type": "function"
		},
		{
			"inputs": [],
			"name": "outcome",
			"outputs": [
				{
					"internalType": "int256",
					"name": "",
					"type": "int256"
				}
			],
			"stateMutability": "view",
			"type": "function"
		},
		{
			"inputs": [
				{
					"internalType": "uint256",
					"name": "bet",
					"type": "uint256"
				}
			],
			"name": "payout",
			"outputs": [
				{
					"internalType": "uint256",
					"name": "",
					"type": "uint256"
				}
			],
			"stateMutability": "view",
			"type": "function"
		},
		{
			"inputs": [
				{
					"internalType": "bool",
					"name": "_outcome",
					"type": "bool"
				}
			],
			"name": "placeBet",
			"outputs": [],
			"stateMutability": "payable",
			"type": "function"
		},
		{
			"inputs": [
				{
					"internalType": "address",
					"name": "",
					"type": "address"
				}
			],
			"name": "stakes",
			"outputs": [
				{
					"internalType": "uint256",
					"name": "",
					"type": "uint256"
				}
			],
			"stateMutability": "view",
			"type": "function"
		},
		{
			"inputs": [
				{
					"internalType": "uint256",
					"name": "receivedTimestampMilliseconds",
					"type": "uint256"
				}
			],
			"name": "validateTimestamp",
			"outputs": [],
			"stateMutability": "view",
			"type": "function"
		},
		{
			"inputs": [],
			"name": "yesPool",
			"outputs": [
				{
					"internalType": "uint256",
					"name": "",
					"type": "uint256"
				}
			],
			"stateMutability": "view",
			"type": "function"
		}
	]
}