{
	"data": {
		"bytecode": {
			"linkReferences": {},
			"object": "608060405260006001553480156200001657600080fd5b5060405162002c5038038062002c5083398181016040528101906200003c9190620001c1565b6200005c620000506200007a60201b60201c565b6200008260201b60201c565b8260098190555081600a81905550806002819055505050506200021d565b600033905090565b60008060009054906101000a900473ffffffffffffffffffffffffffffffffffffffff169050816000806101000a81548173ffffffffffffffffffffffffffffffffffffffff021916908373ffffffffffffffffffffffffffffffffffffffff1602179055508173ffffffffffffffffffffffffffffffffffffffff168173ffffffffffffffffffffffffffffffffffffffff167f8be0079c531659141344cd1fd0a4f28419497f9722a3daafe3b4186f6b6457e060405160405180910390a35050565b600080fd5b6000819050919050565b62000160816200014b565b81146200016c57600080fd5b50565b600081519050620001808162000155565b92915050565b6000819050919050565b6200019b8162000186565b8114620001a757600080fd5b50565b600081519050620001bb8162000190565b92915050565b600080600060608486031215620001dd57620001dc62000146565b5b6000620001ed868287016200016f565b93505060206200020086828701620001aa565b92505060406200021386828701620001aa565b9150509250925092565b612a23806200022d6000396000f3fe6080604052600436106101665760003560e01c806389a78f1a116100d1578063c6788bdd1161008a578063efbe1c1c11610064578063efbe1c1c14610511578063f2fde38b1461053c578063f50b2efe14610565578063f90c49241461058e57610166565b8063c6788bdd1461046c578063e1152343146104a9578063eed947b1146104e657610166565b806389a78f1a146103465780638da5cb5b1461038357806391ddadf4146103ae578063a3b5afb1146103d9578063b24ebfcc14610404578063c274583a1461044157610166565b80634e71d92d116101235780634e71d92d1461026e57806351536c0f1461028557806355a547d5146102ae5780636f1d4ea4146102d9578063715018a6146103045780637a1fc2e21461031b57610166565b8063096a37781461016b57806316934fc4146101875780631ce62383146101c457806327793f87146101ef5780633ce142f51461021a5780634bb278f314610257575b600080fd5b61018560048036038101906101809190611e3d565b6105b9565b005b34801561019357600080fd5b506101ae60048036038101906101a99190611ec8565b610840565b6040516101bb9190611f0e565b60405180910390f35b3480156101d057600080fd5b506101d9610858565b6040516101e69190611f0e565b60405180910390f35b3480156101fb57600080fd5b5061020461085e565b6040516102119190611f42565b60405180910390f35b34801561022657600080fd5b50610241600480360381019061023c9190611ec8565b610864565b60405161024e9190611f79565b60405180910390f35b34801561026357600080fd5b5061026c6108f8565b005b34801561027a57600080fd5b506102836109d7565b005b34801561029157600080fd5b506102ac60048036038101906102a79190611fc0565b610c77565b005b3480156102ba57600080fd5b506102c3610c89565b6040516102d09190611f0e565b60405180910390f35b3480156102e557600080fd5b506102ee610df3565b6040516102fb9190611f0e565b60405180910390f35b34801561031057600080fd5b50610319610df9565b005b34801561032757600080fd5b50610330610e0d565b60405161033d9190611f0e565b60405180910390f35b34801561035257600080fd5b5061036d60048036038101906103689190611ec8565b610e13565b60405161037a9190612009565b60405180910390f35b34801561038f57600080fd5b50610398610e33565b6040516103a59190612033565b60405180910390f35b3480156103ba57600080fd5b506103c3610e5c565b6040516103d09190611f0e565b60405180910390f35b3480156103e557600080fd5b506103ee610e62565b6040516103fb9190611f0e565b60405180910390f35b34801561041057600080fd5b5061042b600480360381019061042691906121a7565b610e68565b6040516104389190611f0e565b60405180910390f35b34801561044d57600080fd5b50610456610e7a565b604051610463919061226f565b60405180910390f35b34801561047857600080fd5b50610493600480360381019061048e9190611ec8565b610eb7565b6040516104a091906122a0565b60405180910390f35b3480156104b557600080fd5b506104d060048036038101906104cb9190611fc0565b610ed7565b6040516104dd9190611f0e565b60405180910390f35b3480156104f257600080fd5b506104fb610fb3565b6040516105089190611f0e565b60405180910390f35b34801561051d57600080fd5b50610526610fbd565b6040516105339190611f0e565b60405180910390f35b34801561054857600080fd5b50610563600480360381019061055e9190611ec8565b610fc3565b005b34801561057157600080fd5b5061058c60048036038101906105879190611fc0565b611046565b005b34801561059a57600080fd5b506105a3611049565b6040516105b09190611f79565b60405180910390f35b600034036105fc576040517f08c379a00000000000000000000000000000000000000000000000000000000081526004016105f390612307565b60405180910390fd5b6000600360003373ffffffffffffffffffffffffffffffffffffffff1673ffffffffffffffffffffffffffffffffffffffff16815260200190815260200160002060009054906101000a900460000b60000b1461068e576040517f08c379a000000000000000000000000000000000000000000000000000000000815260040161068590612373565b60405180910390fd5b60025442106106d2576040517f08c379a00000000000000000000000000000000000000000000000000000000081526004016106c9906123df565b60405180910390fd5b8015610752576001600360003373ffffffffffffffffffffffffffffffffffffffff1673ffffffffffffffffffffffffffffffffffffffff16815260200190815260200160002060006101000a81548160ff021916908360000b60ff1602179055503460066000828254610746919061242e565b925050819055506107e7565b7fffffffffffffffffffffffffffffffffffffffffffffffffffffffffffffffff600360003373ffffffffffffffffffffffffffffffffffffffff1673ffffffffffffffffffffffffffffffffffffffff16815260200190815260200160002060006101000a81548160ff021916908360000b60ff16021790555034600760008282546107df919061242e565b925050819055505b34600460003373ffffffffffffffffffffffffffffffffffffffff1673ffffffffffffffffffffffffffffffffffffffff1681526020019081526020016000206000828254610836919061242e565b9250508190555050565b60046020528060005260406000206000915090505481565b600a5481565b60015481565b6000730c39486f770b26f5527bbbf942726537986cd7eb73ffffffffffffffffffffffffffffffffffffffff168273ffffffffffffffffffffffffffffffffffffffff16036108b657600090506108f3565b816040517fec459bc00000000000000000000000000000000000000000000000000000000081526004016108ea9190612033565b60405180910390fd5b919050565b60006001541461093d576040517f08c379a0000000000000000000000000000000000000000000000000000000008152600401610934906124ae565b60405180910390fd5b610945610c89565b60025414610988576040517f08c379a000000000000000000000000000000000000000000000000000000000815260040161097f9061251a565b60405180910390fd5b6000610995600954611052565b9050600a5481106109ac57600180819055506109d4565b7fffffffffffffffffffffffffffffffffffffffffffffffffffffffffffffffff6001819055505b50565b600060015403610a1c576040517f08c379a0000000000000000000000000000000000000000000000000000000008152600401610a1390612586565b60405180910390fd5b600154600360003373ffffffffffffffffffffffffffffffffffffffff1673ffffffffffffffffffffffffffffffffffffffff16815260200190815260200160002060009054906101000a900460000b60000b14610aaf576040517f08c379a0000000000000000000000000000000000000000000000000000000008152600401610aa6906125f2565b60405180910390fd5b60001515600560003373ffffffffffffffffffffffffffffffffffffffff1673ffffffffffffffffffffffffffffffffffffffff16815260200190815260200160002060009054906101000a900460ff16151514610b42576040517f08c379a0000000000000000000000000000000000000000000000000000000008152600401610b399061265e565b60405180910390fd5b6000600460003373ffffffffffffffffffffffffffffffffffffffff1673ffffffffffffffffffffffffffffffffffffffff1681526020019081526020016000205490503373ffffffffffffffffffffffffffffffffffffffff166108fc610ba983610ed7565b9081150290604051600060405180830381858888f19350505050158015610bd4573d6000803e3d6000fd5b503373ffffffffffffffffffffffffffffffffffffffff166108fc829081150290604051600060405180830381858888f19350505050158015610c1b573d6000803e3d6000fd5b506001600560003373ffffffffffffffffffffffffffffffffffffffff1673ffffffffffffffffffffffffffffffffffffffff16815260200190815260200160002060006101000a81548160ff02191690831515021790555050565b610c7f6110ee565b8060088190555050565b600080610c9461116c565b90506000610ca18261127d565b8161ffff169150809350819250505060008103610cea576040517f8552ff3c00000000000000000000000000000000000000000000000000000000815260040160405180910390fd5b60005b81811015610ded576000610d00846112ed565b9050600080606886610d12919061242e565b90506000816000369050610d26919061267e565b90508035925060008365ffffffffffff1603610d6e576040517f336dc9d000000000000000000000000000000000000000000000000000000000815260040160405180910390fd5b60008803610d86578265ffffffffffff169750610dc8565b878365ffffffffffff1614610dc7576040517fd9d1f46500000000000000000000000000000000000000000000000000000000815260040160405180910390fd5b5b8387610dd4919061242e565b9650505050508080610de5906126b2565b915050610ced565b50505090565b60065481565b610e016110ee565b610e0b600061132c565b565b600b5481565b60036020528060005260406000206000915054906101000a900460000b81565b60008060009054906101000a900473ffffffffffffffffffffffffffffffffffffffff16905090565b60085481565b60075481565b6000610e73826113f0565b9050919050565b60606040518060400160405280601281526020017f72656473746f6e652d6d61696e2d64656d6f0000000000000000000000000000815250905090565b60056020528060005260406000206000915054906101000a900460ff1681565b6000806305f5e100905060006001805414610ef457600754610ef8565b6006545b905080841115610f3d576040517f08c379a0000000000000000000000000000000000000000000000000000000008152600401610f3490612746565b60405180910390fd5b60007fffffffffffffffffffffffffffffffffffffffffffffffffffffffffffffffff60015414610f7057600654610f74565b6007545b90506000828487610f859190612766565b610f8f91906127d7565b9050838282610f9e9190612766565b610fa891906127d7565b945050505050919050565b6000600854905090565b60025481565b610fcb6110ee565b600073ffffffffffffffffffffffffffffffffffffffff168173ffffffffffffffffffffffffffffffffffffffff160361103a576040517f08c379a00000000000000000000000000000000000000000000000000000000081526004016110319061287a565b60405180910390fd5b6110438161132c565b50565b50565b60006001905090565b600080600167ffffffffffffffff8111156110705761106f612064565b5b60405190808252806020026020018201604052801561109e5781602001602082028036833780820191505090505b50905082816000815181106110b6576110b561289a565b5b6020026020010181815250506110cb81611402565b6000815181106110de576110dd61289a565b5b6020026020010151915050919050565b6110f6611427565b73ffffffffffffffffffffffffffffffffffffffff16611114610e33565b73ffffffffffffffffffffffffffffffffffffffff161461116a576040517f08c379a000000000000000000000000000000000000000000000000000000000815260040161116190612915565b60405180910390fd5b565b60008060203603356602ed57011e000081166602ed57011e000014915050806111c1576040517fe7764c9e00000000000000000000000000000000000000000000000000000000815260040160405180910390fd5b60008036905060291115611201576040517f5796f78a00000000000000000000000000000000000000000000000000000000815260040160405180910390fd5b602936033590506000600960038362ffffff1661121e919061242e565b611228919061242e565b9050600036905060028261123c919061242e565b1115611274576040517fc30a7bd700000000000000000000000000000000000000000000000000000000815260040160405180910390fd5b80935050505090565b600080600060208461128f919061242e565b905060003690508111156112cf576040517f5796f78a00000000000000000000000000000000000000000000000000000000815260040160405180910390fd5b803603359250826002856112e3919061242e565b9250925050915091565b60008060006112fb8461142f565b91509150604e81602061130e919061242e565b836113199190612766565b611323919061242e565b92505050919050565b60008060009054906101000a900473ffffffffffffffffffffffffffffffffffffffff169050816000806101000a81548173ffffffffffffffffffffffffffffffffffffffff021916908373ffffffffffffffffffffffffffffffffffffffff1602179055508173ffffffffffffffffffffffffffffffffffffffff168173ffffffffffffffffffffffffffffffffffffffff167f8be0079c531659141344cd1fd0a4f28419497f9722a3daafe3b4186f6b6457e060405160405180910390a35050565b60006113fb82611491565b9050919050565b6060600080611410846115e6565b9150915061141d81611046565b8192505050919050565b600033905090565b60008060008060006020604187611446919061242e565b611450919061242e565b600036905061145f919061267e565b905080359250600381611472919061267e565b9050803591508262ffffff1694508163ffffffff169350505050915091565b600060028251036114f1576002826001815181106114b2576114b161289a565b5b6020026020010151836000815181106114ce576114cd61289a565b5b60200260200101516114e0919061242e565b6114ea91906127d7565b90506115e1565b600082510361152c576040517f9e198af900000000000000000000000000000000000000000000000000000000815260040160405180910390fd5b61153582611861565b60006002835161154591906127d7565b90506000600284516115579190612935565b036115c25760008382815181106115715761157061289a565b5b602002602001015184600184611587919061267e565b815181106115985761159761289a565b5b60200260200101516115aa919061242e565b90506002816115b991906127d7565b925050506115e1565b8281815181106115d5576115d461289a565b5b60200260200101519150505b919050565b6060600080835167ffffffffffffffff81111561160657611605612064565b5b6040519080825280602002602001820160405280156116345781602001602082028036833780820191505090505b5090506000845167ffffffffffffffff81111561165457611653612064565b5b6040519080825280602002602001820160405280156116825781602001602082028036833780820191505090505b5090506000855167ffffffffffffffff8111156116a2576116a1612064565b5b6040519080825280602002602001820160405280156116d557816020015b60608152602001906001900390816116c05790505b50905060005b8651811015611762576116ec611049565b60ff1667ffffffffffffffff81111561170857611707612064565b5b6040519080825280602002602001820160405280156117365781602001602082028036833780820191505090505b5082828151811061174a5761174961289a565b5b602002602001018190525080806001019150506116db565b50600061176d61116c565b9050600061177a8261127d565b8161ffff16915080935081925050506000604051905060005b828110156118495760006117aa8b898989896118b4565b8092508196505050600081036117ec576040517fdfb25a7900000000000000000000000000000000000000000000000000000000815260040160405180910390fd5b8881141580156117fd575060008914155b15611834576040517f4cbc474200000000000000000000000000000000000000000000000000000000815260040160405180910390fd5b80985082604052818060010192505050611793565b506118548487611b80565b9750505050505050915091565b805160208201602082028101815b818110156118ad57825b818110156118a1578151815180821015611894578084528183525b5050602081019050611879565b5060208101905061186f565b5050505050565b60008060008060006118c58661142f565b915091506000806060600080600d6020876118e0919061242e565b886118eb9190612766565b6118f5919061242e565b9150600060688c611906919061242e565b6000369050611915919061267e565b905060008360418e611927919061242e565b611931919061242e565b6000369050611940919061267e565b905061194c848261197a565b9450836020860120955081359250611996565b60006040519050818152602081019050818101604052919050565b60006119858361195f565b838382376020810391505092915050565b8265ffffffffffff169a506119b78660418f6119b2919061242e565b611ccd565b96506119c287610864565b60ff16995050505050505050604e866119db919061242e565b955060008060005b84811015611b6d576020848a6119f9919061242e565b611a03919061242e565b9850611a0f8985611d4c565b809350819450505060005b8d51811015611b5f578d8181518110611a3657611a3561289a565b5b60200260200101518403611b525760008c8281518110611a5957611a5861289a565b5b60200260200101519050611a6d8189611dc7565b158015611a9d5750611a7d611049565b60ff168e8381518110611a9357611a9261289a565b5b6020026020010151105b15611b4c57838c8381518110611ab657611ab561289a565b5b60200260200101518f8481518110611ad157611ad061289a565b5b602002602001015181518110611aea57611ae961289a565b5b6020026020010181815250508d8281518110611b0957611b0861289a565b5b602002602001018051809190611b1e906126b2565b81525050611b2c8189611de0565b8d8381518110611b3f57611b3e61289a565b5b6020026020010181815250505b50611b5f565b8080600101915050611a1a565b5080806001019150506119e3565b5050508594505050509550959350505050565b60606000835167ffffffffffffffff811115611b9f57611b9e612064565b5b604051908082528060200260200182016040528015611bcd5781602001602082028036833780820191505090505b5090506000611bda611049565b60ff16905060005b8551811015611cc15781858281518110611bff57611bfe61289a565b5b60200260200101511015611c6657848181518110611c2057611c1f61289a565b5b6020026020010151826040517f2b13aef5000000000000000000000000000000000000000000000000000000008152600401611c5d929190612966565b60405180910390fd5b6000611c8b878381518110611c7e57611c7d61289a565b5b6020026020010151610e68565b905080848381518110611ca157611ca061289a565b5b602002602001018181525050508080611cb9906126b2565b915050611be2565b50819250505092915050565b6000806000808436038035935060208101905080359250602081019050803560001a91505060018682858560405160008152602001604052604051611d1594939291906129a8565b6020604051602081039080840390855afa158015611d37573d6000803e3d6000fd5b50505060206040510351935050505092915050565b6000806000846000369050611d61919061267e565b9050803592506020810135915060218410611db357836040517fc000fc42000000000000000000000000000000000000000000000000000000008152600401611daa9190611f0e565b60405180910390fd5b6008846020030282901c9150509250929050565b600080826001901b841690506000811191505092915050565b6000816001901b8317905092915050565b6000604051905090565b600080fd5b600080fd5b60008115159050919050565b611e1a81611e05565b8114611e2557600080fd5b50565b600081359050611e3781611e11565b92915050565b600060208284031215611e5357611e52611dfb565b5b6000611e6184828501611e28565b91505092915050565b600073ffffffffffffffffffffffffffffffffffffffff82169050919050565b6000611e9582611e6a565b9050919050565b611ea581611e8a565b8114611eb057600080fd5b50565b600081359050611ec281611e9c565b92915050565b600060208284031215611ede57611edd611dfb565b5b6000611eec84828501611eb3565b91505092915050565b6000819050919050565b611f0881611ef5565b82525050565b6000602082019050611f236000830184611eff565b92915050565b6000819050919050565b611f3c81611f29565b82525050565b6000602082019050611f576000830184611f33565b92915050565b600060ff82169050919050565b611f7381611f5d565b82525050565b6000602082019050611f8e6000830184611f6a565b92915050565b611f9d81611ef5565b8114611fa857600080fd5b50565b600081359050611fba81611f94565b92915050565b600060208284031215611fd657611fd5611dfb565b5b6000611fe484828501611fab565b91505092915050565b60008160000b9050919050565b61200381611fed565b82525050565b600060208201905061201e6000830184611ffa565b92915050565b61202d81611e8a565b82525050565b60006020820190506120486000830184612024565b92915050565b600080fd5b6000601f19601f8301169050919050565b7f4e487b7100000000000000000000000000000000000000000000000000000000600052604160045260246000fd5b61209c82612053565b810181811067ffffffffffffffff821117156120bb576120ba612064565b5b80604052505050565b60006120ce611df1565b90506120da8282612093565b919050565b600067ffffffffffffffff8211156120fa576120f9612064565b5b602082029050602081019050919050565b600080fd5b600061212361211e846120df565b6120c4565b905080838252602082019050602084028301858111156121465761214561210b565b5b835b8181101561216f578061215b8882611fab565b845260208401935050602081019050612148565b5050509392505050565b600082601f83011261218e5761218d61204e565b5b813561219e848260208601612110565b91505092915050565b6000602082840312156121bd576121bc611dfb565b5b600082013567ffffffffffffffff8111156121db576121da611e00565b5b6121e784828501612179565b91505092915050565b600081519050919050565b600082825260208201905092915050565b60005b8381101561222a57808201518184015260208101905061220f565b60008484015250505050565b6000612241826121f0565b61224b81856121fb565b935061225b81856020860161220c565b61226481612053565b840191505092915050565b600060208201905081810360008301526122898184612236565b905092915050565b61229a81611e05565b82525050565b60006020820190506122b56000830184612291565b92915050565b7f4e6f2076616c756520696d206265740000000000000000000000000000000000600082015250565b60006122f1600f836121fb565b91506122fc826122bb565b602082019050919050565b60006020820190508181036000830152612320816122e4565b9050919050565b7f42657420616c726561647920706c616365640000000000000000000000000000600082015250565b600061235d6012836121fb565b915061236882612327565b602082019050919050565b6000602082019050818103600083015261238c81612350565b9050919050565b7f50617373656420746865206c696d697400000000000000000000000000000000600082015250565b60006123c96010836121fb565b91506123d482612393565b602082019050919050565b600060208201905081810360008301526123f8816123bc565b9050919050565b7f4e487b7100000000000000000000000000000000000000000000000000000000600052601160045260246000fd5b600061243982611ef5565b915061244483611ef5565b925082820190508082111561245c5761245b6123ff565b5b92915050565b7f416c72656164792066696e616c697a6564000000000000000000000000000000600082015250565b60006124986011836121fb565b91506124a382612462565b602082019050919050565b600060208201905081810360008301526124c78161248b565b9050919050565b7f496e76616c69642074696d657374616d70000000000000000000000000000000600082015250565b60006125046011836121fb565b915061250f826124ce565b602082019050919050565b60006020820190508181036000830152612533816124f7565b9050919050565b7f4e6f742066696e616c697a656400000000000000000000000000000000000000600082015250565b6000612570600d836121fb565b915061257b8261253a565b602082019050919050565b6000602082019050818103600083015261259f81612563565b9050919050565b7f446964206e6f742077696e000000000000000000000000000000000000000000600082015250565b60006125dc600b836121fb565b91506125e7826125a6565b602082019050919050565b6000602082019050818103600083015261260b816125cf565b9050919050565b7f416c726561647920636c61696d65640000000000000000000000000000000000600082015250565b6000612648600f836121fb565b915061265382612612565b602082019050919050565b600060208201905081810360008301526126778161263b565b9050919050565b600061268982611ef5565b915061269483611ef5565b92508282039050818111156126ac576126ab6123ff565b5b92915050565b60006126bd82611ef5565b91507fffffffffffffffffffffffffffffffffffffffffffffffffffffffffffffffff82036126ef576126ee6123ff565b5b600182019050919050565b7f42657420626967676572207468616e2077696e6e696e6720706f6f6c00000000600082015250565b6000612730601c836121fb565b915061273b826126fa565b602082019050919050565b6000602082019050818103600083015261275f81612723565b9050919050565b600061277182611ef5565b915061277c83611ef5565b925082820261278a81611ef5565b915082820484148315176127a1576127a06123ff565b5b5092915050565b7f4e487b7100000000000000000000000000000000000000000000000000000000600052601260045260246000fd5b60006127e282611ef5565b91506127ed83611ef5565b9250826127fd576127fc6127a8565b5b828204905092915050565b7f4f776e61626c653a206e6577206f776e657220697320746865207a65726f206160008201527f6464726573730000000000000000000000000000000000000000000000000000602082015250565b60006128646026836121fb565b915061286f82612808565b604082019050919050565b6000602082019050818103600083015261289381612857565b9050919050565b7f4e487b7100000000000000000000000000000000000000000000000000000000600052603260045260246000fd5b7f4f776e61626c653a2063616c6c6572206973206e6f7420746865206f776e6572600082015250565b60006128ff6020836121fb565b915061290a826128c9565b602082019050919050565b6000602082019050818103600083015261292e816128f2565b9050919050565b600061294082611ef5565b915061294b83611ef5565b92508261295b5761295a6127a8565b5b828206905092915050565b600060408201905061297b6000830185611eff565b6129886020830184611eff565b9392505050565b6000819050919050565b6129a28161298f565b82525050565b60006080820190506129bd6000830187612999565b6129ca6020830186611f6a565b6129d76040830185612999565b6129e46060830184612999565b9594505050505056fea26469706673582212202cfa02d01d2d6ec2c04f8f0bf75eee54cc16d6ab8d00cb0a4ed04bcc6661f1d564736f6c63430008130033",
			"opcodes": "PUSH1 0x80 PUSH1 0x40 MSTORE PUSH1 0x0 PUSH1 0x1 SSTORE CALLVALUE DUP1 ISZERO PUSH3 0x16 JUMPI PUSH1 0x0 DUP1 REVERT JUMPDEST POP PUSH1 0x40 MLOAD PUSH3 0x2C50 CODESIZE SUB DUP1 PUSH3 0x2C50 DUP4 CODECOPY DUP2 DUP2 ADD PUSH1 0x40 MSTORE DUP2 ADD SWAP1 PUSH3 0x3C SWAP2 SWAP1 PUSH3 0x1C1 JUMP JUMPDEST PUSH3 0x5C PUSH3 0x50 PUSH3 0x7A PUSH1 0x20 SHL PUSH1 0x20 SHR JUMP JUMPDEST PUSH3 0x82 PUSH1 0x20 SHL PUSH1 0x20 SHR JUMP JUMPDEST DUP3 PUSH1 0x9 DUP2 SWAP1 SSTORE POP DUP2 PUSH1 0xA DUP2 SWAP1 SSTORE POP DUP1 PUSH1 0x2 DUP2 SWAP1 SSTORE POP POP POP POP PUSH3 0x21D JUMP JUMPDEST PUSH1 0x0 CALLER SWAP1 POP SWAP1 JUMP JUMPDEST PUSH1 0x0 DUP1 PUSH1 0x0 SWAP1 SLOAD SWAP1 PUSH2 0x100 EXP SWAP1 DIV PUSH20 0xFFFFFFFFFFFFFFFFFFFFFFFFFFFFFFFFFFFFFFFF AND SWAP1 POP DUP2 PUSH1 0x0 DUP1 PUSH2 0x100 EXP DUP2 SLOAD DUP2 PUSH20 0xFFFFFFFFFFFFFFFFFFFFFFFFFFFFFFFFFFFFFFFF MUL NOT AND SWAP1 DUP4 PUSH20 0xFFFFFFFFFFFFFFFFFFFFFFFFFFFFFFFFFFFFFFFF AND MUL OR SWAP1 SSTORE POP DUP2 PUSH20 0xFFFFFFFFFFFFFFFFFFFFFFFFFFFFFFFFFFFFFFFF AND DUP2 PUSH20 0xFFFFFFFFFFFFFFFFFFFFFFFFFFFFFFFFFFFFFFFF AND PUSH32 0x8BE0079C531659141344CD1FD0A4F28419497F9722A3DAAFE3B4186F6B6457E0 PUSH1 0x40 MLOAD PUSH1 0x40 MLOAD DUP1 SWAP2 SUB SWAP1 LOG3 POP POP JUMP JUMPDEST PUSH1 0x0 DUP1 REVERT JUMPDEST PUSH1 0x0 DUP2 SWAP1 POP SWAP2 SWAP1 POP JUMP JUMPDEST PUSH3 0x160 DUP2 PUSH3 0x14B JUMP JUMPDEST DUP2 EQ PUSH3 0x16C JUMPI PUSH1 0x0 DUP1 REVERT JUMPDEST POP JUMP JUMPDEST PUSH1 0x0 DUP2 MLOAD SWAP1 POP PUSH3 0x180 DUP2 PUSH3 0x155 JUMP JUMPDEST SWAP3 SWAP2 POP POP JUMP JUMPDEST PUSH1 0x0 DUP2 SWAP1 POP SWAP2 SWAP1 POP JUMP JUMPDEST PUSH3 0x19B DUP2 PUSH3 0x186 JUMP JUMPDEST DUP2 EQ PUSH3 0x1A7 JUMPI PUSH1 0x0 DUP1 REVERT JUMPDEST POP JUMP JUMPDEST PUSH1 0x0 DUP2 MLOAD SWAP1 POP PUSH3 0x1BB DUP2 PUSH3 0x190 JUMP JUMPDEST SWAP3 SWAP2 POP POP JUMP JUMPDEST PUSH1 0x0 DUP1 PUSH1 0x0 PUSH1 0x60 DUP5 DUP7 SUB SLT ISZERO PUSH3 0x1DD JUMPI PUSH3 0x1DC PUSH3 0x146 JUMP JUMPDEST JUMPDEST PUSH1 0x0 PUSH3 0x1ED DUP7 DUP3 DUP8 ADD PUSH3 0x16F JUMP JUMPDEST SWAP4 POP POP PUSH1 0x20 PUSH3 0x200 DUP7 DUP3 DUP8 ADD PUSH3 0x1AA JUMP JUMPDEST SWAP3 POP POP PUSH1 0x40 PUSH3 0x213 DUP7 DUP3 DUP8 ADD PUSH3 0x1AA JUMP JUMPDEST SWAP2 POP POP SWAP3 POP SWAP3 POP SWAP3 JUMP JUMPDEST PUSH2 0x2A23 DUP1 PUSH3 0x22D PUSH1 0x0 CODECOPY PUSH1 0x0 RETURN INVALID PUSH1 0x80 PUSH1 0x40 MSTORE PUSH1 0x4 CALLDATASIZE LT PUSH2 0x166 JUMPI PUSH1 0x0 CALLDATALOAD PUSH1 0xE0 SHR DUP1 PUSH4 0x89A78F1A GT PUSH2 0xD1 JUMPI DUP1 PUSH4 0xC6788BDD GT PUSH2 0x8A JUMPI DUP1 PUSH4 0xEFBE1C1C GT PUSH2 0x64 JUMPI DUP1 PUSH4 0xEFBE1C1C EQ PUSH2 0x511 JUMPI DUP1 PUSH4 0xF2FDE38B EQ PUSH2 0x53C JUMPI DUP1 PUSH4 0xF50B2EFE EQ PUSH2 0x565 JUMPI DUP1 PUSH4 0xF90C4924 EQ PUSH2 0x58E JUMPI PUSH2 0x166 JUMP JUMPDEST DUP1 PUSH4 0xC6788BDD EQ PUSH2 0x46C JUMPI DUP1 PUSH4 0xE1152343 EQ PUSH2 0x4A9 JUMPI DUP1 PUSH4 0xEED947B1 EQ PUSH2 0x4E6 JUMPI PUSH2 0x166 JUMP JUMPDEST DUP1 PUSH4 0x89A78F1A EQ PUSH2 0x346 JUMPI DUP1 PUSH4 0x8DA5CB5B EQ PUSH2 0x383 JUMPI DUP1 PUSH4 0x91DDADF4 EQ PUSH2 0x3AE JUMPI DUP1 PUSH4 0xA3B5AFB1 EQ PUSH2 0x3D9 JUMPI DUP1 PUSH4 0xB24EBFCC EQ PUSH2 0x404 JUMPI DUP1 PUSH4 0xC274583A EQ PUSH2 0x441 JUMPI PUSH2 0x166 JUMP JUMPDEST DUP1 PUSH4 0x4E71D92D GT PUSH2 0x123 JUMPI DUP1 PUSH4 0x4E71D92D EQ PUSH2 0x26E JUMPI DUP1 PUSH4 0x51536C0F EQ PUSH2 0x285 JUMPI DUP1 PUSH4 0x55A547D5 EQ PUSH2 0x2AE JUMPI DUP1 PUSH4 0x6F1D4EA4 EQ PUSH2 0x2D9 JUMPI DUP1 PUSH4 0x715018A6 EQ PUSH2 0x304 JUMPI DUP1 PUSH4 0x7A1FC2E2 EQ PUSH2 0x31B JUMPI PUSH2 0x166 JUMP JUMPDEST DUP1 PUSH4 0x96A3778 EQ PUSH2 0x16B JUMPI DUP1 PUSH4 0x16934FC4 EQ PUSH2 0x187 JUMPI DUP1 PUSH4 0x1CE62383 EQ PUSH2 0x1C4 JUMPI DUP1 PUSH4 0x27793F87 EQ PUSH2 0x1EF JUMPI DUP1 PUSH4 0x3CE142F5 EQ PUSH2 0x21A JUMPI DUP1 PUSH4 0x4BB278F3 EQ PUSH2 0x257 JUMPI JUMPDEST PUSH1 0x0 DUP1 REVERT JUMPDEST PUSH2 0x185 PUSH1 0x4 DUP1 CALLDATASIZE SUB DUP2 ADD SWAP1 PUSH2 0x180 SWAP2 SWAP1 PUSH2 0x1E3D JUMP JUMPDEST PUSH2 0x5B9 JUMP JUMPDEST STOP JUMPDEST CALLVALUE DUP1 ISZERO PUSH2 0x193 JUMPI PUSH1 0x0 DUP1 REVERT JUMPDEST POP PUSH2 0x1AE PUSH1 0x4 DUP1 CALLDATASIZE SUB DUP2 ADD SWAP1 PUSH2 0x1A9 SWAP2 SWAP1 PUSH2 0x1EC8 JUMP JUMPDEST PUSH2 0x840 JUMP JUMPDEST PUSH1 0x40 MLOAD PUSH2 0x1BB SWAP2 SWAP1 PUSH2 0x1F0E JUMP JUMPDEST PUSH1 0x40 MLOAD DUP1 SWAP2 SUB SWAP1 RETURN JUMPDEST CALLVALUE DUP1 ISZERO PUSH2 0x1D0 JUMPI PUSH1 0x0 DUP1 REVERT JUMPDEST POP PUSH2 0x1D9 PUSH2 0x858 JUMP JUMPDEST PUSH1 0x40 MLOAD PUSH2 0x1E6 SWAP2 SWAP1 PUSH2 0x1F0E JUMP JUMPDEST PUSH1 0x40 MLOAD DUP1 SWAP2 SUB SWAP1 RETURN JUMPDEST CALLVALUE DUP1 ISZERO PUSH2 0x1FB JUMPI PUSH1 0x0 DUP1 REVERT JUMPDEST POP PUSH2 0x204 PUSH2 0x85E JUMP JUMPDEST PUSH1 0x40 MLOAD PUSH2 0x211 SWAP2 SWAP1 PUSH2 0x1F42 JUMP JUMPDEST PUSH1 0x40 MLOAD DUP1 SWAP2 SUB SWAP1 RETURN JUMPDEST CALLVALUE DUP1 ISZERO PUSH2 0x226 JUMPI PUSH1 0x0 DUP1 REVERT JUMPDEST POP PUSH2 0x241 PUSH1 0x4 DUP1 CALLDATASIZE SUB DUP2 ADD SWAP1 PUSH2 0x23C SWAP2 SWAP1 PUSH2 0x1EC8 JUMP JUMPDEST PUSH2 0x864 JUMP JUMPDEST PUSH1 0x40 MLOAD PUSH2 0x24E SWAP2 SWAP1 PUSH2 0x1F79 JUMP JUMPDEST PUSH1 0x40 MLOAD DUP1 SWAP2 SUB SWAP1 RETURN JUMPDEST CALLVALUE DUP1 ISZERO PUSH2 0x263 JUMPI PUSH1 0x0 DUP1 REVERT JUMPDEST POP PUSH2 0x26C PUSH2 0x8F8 JUMP JUMPDEST STOP JUMPDEST CALLVALUE DUP1 ISZERO PUSH2 0x27A JUMPI PUSH1 0x0 DUP1 REVERT JUMPDEST POP PUSH2 0x283 PUSH2 0x9D7 JUMP JUMPDEST STOP JUMPDEST CALLVALUE DUP1 ISZERO PUSH2 0x291 JUMPI PUSH1 0x0 DUP1 REVERT JUMPDEST POP PUSH2 0x2AC PUSH1 0x4 DUP1 CALLDATASIZE SUB DUP2 ADD SWAP1 PUSH2 0x2A7 SWAP2 SWAP1 PUSH2 0x1FC0 JUMP JUMPDEST PUSH2 0xC77 JUMP JUMPDEST STOP JUMPDEST CALLVALUE DUP1 ISZERO PUSH2 0x2BA JUMPI PUSH1 0x0 DUP1 REVERT JUMPDEST POP PUSH2 0x2C3 PUSH2 0xC89 JUMP JUMPDEST PUSH1 0x40 MLOAD PUSH2 0x2D0 SWAP2 SWAP1 PUSH2 0x1F0E JUMP JUMPDEST PUSH1 0x40 MLOAD DUP1 SWAP2 SUB SWAP1 RETURN JUMPDEST CALLVALUE DUP1 ISZERO PUSH2 0x2E5 JUMPI PUSH1 0x0 DUP1 REVERT JUMPDEST POP PUSH2 0x2EE PUSH2 0xDF3 JUMP JUMPDEST PUSH1 0x40 MLOAD PUSH2 0x2FB SWAP2 SWAP1 PUSH2 0x1F0E JUMP JUMPDEST PUSH1 0x40 MLOAD DUP1 SWAP2 SUB SWAP1 RETURN JUMPDEST CALLVALUE DUP1 ISZERO PUSH2 0x310 JUMPI PUSH1 0x0 DUP1 REVERT JUMPDEST POP PUSH2 0x319 PUSH2 0xDF9 JUMP JUMPDEST STOP JUMPDEST CALLVALUE DUP1 ISZERO PUSH2 0x327 JUMPI PUSH1 0x0 DUP1 REVERT JUMPDEST POP PUSH2 0x330 PUSH2 0xE0D JUMP JUMPDEST PUSH1 0x40 MLOAD PUSH2 0x33D SWAP2 SWAP1 PUSH2 0x1F0E JUMP JUMPDEST PUSH1 0x40 MLOAD DUP1 SWAP2 SUB SWAP1 RETURN JUMPDEST CALLVALUE DUP1 ISZERO PUSH2 0x352 JUMPI PUSH1 0x0 DUP1 REVERT JUMPDEST POP PUSH2 0x36D PUSH1 0x4 DUP1 CALLDATASIZE SUB DUP2 ADD SWAP1 PUSH2 0x368 SWAP2 SWAP1 PUSH2 0x1EC8 JUMP JUMPDEST PUSH2 0xE13 JUMP JUMPDEST PUSH1 0x40 MLOAD PUSH2 0x37A SWAP2 SWAP1 PUSH2 0x2009 JUMP JUMPDEST PUSH1 0x40 MLOAD DUP1 SWAP2 SUB SWAP1 RETURN JUMPDEST CALLVALUE DUP1 ISZERO PUSH2 0x38F JUMPI PUSH1 0x0 DUP1 REVERT JUMPDEST POP PUSH2 0x398 PUSH2 0xE33 JUMP JUMPDEST PUSH1 0x40 MLOAD PUSH2 0x3A5 SWAP2 SWAP1 PUSH2 0x2033 JUMP JUMPDEST PUSH1 0x40 MLOAD DUP1 SWAP2 SUB SWAP1 RETURN JUMPDEST CALLVALUE DUP1 ISZERO PUSH2 0x3BA JUMPI PUSH1 0x0 DUP1 REVERT JUMPDEST POP PUSH2 0x3C3 PUSH2 0xE5C JUMP JUMPDEST PUSH1 0x40 MLOAD PUSH2 0x3D0 SWAP2 SWAP1 PUSH2 0x1F0E JUMP JUMPDEST PUSH1 0x40 MLOAD DUP1 SWAP2 SUB SWAP1 RETURN JUMPDEST CALLVALUE DUP1 ISZERO PUSH2 0x3E5 JUMPI PUSH1 0x0 DUP1 REVERT JUMPDEST POP PUSH2 0x3EE PUSH2 0xE62 JUMP JUMPDEST PUSH1 0x40 MLOAD PUSH2 0x3FB SWAP2 SWAP1 PUSH2 0x1F0E JUMP JUMPDEST PUSH1 0x40 MLOAD DUP1 SWAP2 SUB SWAP1 RETURN JUMPDEST CALLVALUE DUP1 ISZERO PUSH2 0x410 JUMPI PUSH1 0x0 DUP1 REVERT JUMPDEST POP PUSH2 0x42B PUSH1 0x4 DUP1 CALLDATASIZE SUB DUP2 ADD SWAP1 PUSH2 0x426 SWAP2 SWAP1 PUSH2 0x21A7 JUMP JUMPDEST PUSH2 0xE68 JUMP JUMPDEST PUSH1 0x40 MLOAD PUSH2 0x438 SWAP2 SWAP1 PUSH2 0x1F0E JUMP JUMPDEST PUSH1 0x40 MLOAD DUP1 SWAP2 SUB SWAP1 RETURN JUMPDEST CALLVALUE DUP1 ISZERO PUSH2 0x44D JUMPI PUSH1 0x0 DUP1 REVERT JUMPDEST POP PUSH2 0x456 PUSH2 0xE7A JUMP JUMPDEST PUSH1 0x40 MLOAD PUSH2 0x463 SWAP2 SWAP1 PUSH2 0x226F JUMP JUMPDEST PUSH1 0x40 MLOAD DUP1 SWAP2 SUB SWAP1 RETURN JUMPDEST CALLVALUE DUP1 ISZERO PUSH2 0x478 JUMPI PUSH1 0x0 DUP1 REVERT JUMPDEST POP PUSH2 0x493 PUSH1 0x4 DUP1 CALLDATASIZE SUB DUP2 ADD SWAP1 PUSH2 0x48E SWAP2 SWAP1 PUSH2 0x1EC8 JUMP JUMPDEST PUSH2 0xEB7 JUMP JUMPDEST PUSH1 0x40 MLOAD PUSH2 0x4A0 SWAP2 SWAP1 PUSH2 0x22A0 JUMP JUMPDEST PUSH1 0x40 MLOAD DUP1 SWAP2 SUB SWAP1 RETURN JUMPDEST CALLVALUE DUP1 ISZERO PUSH2 0x4B5 JUMPI PUSH1 0x0 DUP1 REVERT JUMPDEST POP PUSH2 0x4D0 PUSH1 0x4 DUP1 CALLDATASIZE SUB DUP2 ADD SWAP1 PUSH2 0x4CB SWAP2 SWAP1 PUSH2 0x1FC0 JUMP JUMPDEST PUSH2 0xED7 JUMP JUMPDEST PUSH1 0x40 MLOAD PUSH2 0x4DD SWAP2 SWAP1 PUSH2 0x1F0E JUMP JUMPDEST PUSH1 0x40 MLOAD DUP1 SWAP2 SUB SWAP1 RETURN JUMPDEST CALLVALUE DUP1 ISZERO PUSH2 0x4F2 JUMPI PUSH1 0x0 DUP1 REVERT JUMPDEST POP PUSH2 0x4FB PUSH2 0xFB3 JUMP JUMPDEST PUSH1 0x40 MLOAD PUSH2 0x508 SWAP2 SWAP1 PUSH2 0x1F0E JUMP JUMPDEST PUSH1 0x40 MLOAD DUP1 SWAP2 SUB SWAP1 RETURN JUMPDEST CALLVALUE DUP1 ISZERO PUSH2 0x51D JUMPI PUSH1 0x0 DUP1 REVERT JUMPDEST POP PUSH2 0x526 PUSH2 0xFBD JUMP JUMPDEST PUSH1 0x40 MLOAD PUSH2 0x533 SWAP2 SWAP1 PUSH2 0x1F0E JUMP JUMPDEST PUSH1 0x40 MLOAD DUP1 SWAP2 SUB SWAP1 RETURN JUMPDEST CALLVALUE DUP1 ISZERO PUSH2 0x548 JUMPI PUSH1 0x0 DUP1 REVERT JUMPDEST POP PUSH2 0x563 PUSH1 0x4 DUP1 CALLDATASIZE SUB DUP2 ADD SWAP1 PUSH2 0x55E SWAP2 SWAP1 PUSH2 0x1EC8 JUMP JUMPDEST PUSH2 0xFC3 JUMP JUMPDEST STOP JUMPDEST CALLVALUE DUP1 ISZERO PUSH2 0x571 JUMPI PUSH1 0x0 DUP1 REVERT JUMPDEST POP PUSH2 0x58C PUSH1 0x4 DUP1 CALLDATASIZE SUB DUP2 ADD SWAP1 PUSH2 0x587 SWAP2 SWAP1 PUSH2 0x1FC0 JUMP JUMPDEST PUSH2 0x1046 JUMP JUMPDEST STOP JUMPDEST CALLVALUE DUP1 ISZERO PUSH2 0x59A JUMPI PUSH1 0x0 DUP1 REVERT JUMPDEST POP PUSH2 0x5A3 PUSH2 0x1049 JUMP JUMPDEST PUSH1 0x40 MLOAD PUSH2 0x5B0 SWAP2 SWAP1 PUSH2 0x1F79 JUMP JUMPDEST PUSH1 0x40 MLOAD DUP1 SWAP2 SUB SWAP1 RETURN JUMPDEST PUSH1 0x0 CALLVALUE SUB PUSH2 0x5FC JUMPI PUSH1 0x40 MLOAD PUSH32 0x8C379A000000000000000000000000000000000000000000000000000000000 DUP2 MSTORE PUSH1 0x4 ADD PUSH2 0x5F3 SWAP1 PUSH2 0x2307 JUMP JUMPDEST PUSH1 0x40 MLOAD DUP1 SWAP2 SUB SWAP1 REVERT JUMPDEST PUSH1 0x0 PUSH1 0x3 PUSH1 0x0 CALLER PUSH20 0xFFFFFFFFFFFFFFFFFFFFFFFFFFFFFFFFFFFFFFFF AND PUSH20 0xFFFFFFFFFFFFFFFFFFFFFFFFFFFFFFFFFFFFFFFF AND DUP2 MSTORE PUSH1 0x20 ADD SWAP1 DUP2 MSTORE PUSH1 0x20 ADD PUSH1 0x0 KECCAK256 PUSH1 0x0 SWAP1 SLOAD SWAP1 PUSH2 0x100 EXP SWAP1 DIV PUSH1 0x0 SIGNEXTEND PUSH1 0x0 SIGNEXTEND EQ PUSH2 0x68E JUMPI PUSH1 0x40 MLOAD PUSH32 0x8C379A000000000000000000000000000000000000000000000000000000000 DUP2 MSTORE PUSH1 0x4 ADD PUSH2 0x685 SWAP1 PUSH2 0x2373 JUMP JUMPDEST PUSH1 0x40 MLOAD DUP1 SWAP2 SUB SWAP1 REVERT JUMPDEST PUSH1 0x2 SLOAD TIMESTAMP LT PUSH2 0x6D2 JUMPI PUSH1 0x40 MLOAD PUSH32 0x8C379A000000000000000000000000000000000000000000000000000000000 DUP2 MSTORE PUSH1 0x4 ADD PUSH2 0x6C9 SWAP1 PUSH2 0x23DF JUMP JUMPDEST PUSH1 0x40 MLOAD DUP1 SWAP2 SUB SWAP1 REVERT JUMPDEST DUP1 ISZERO PUSH2 0x752 JUMPI PUSH1 0x1 PUSH1 0x3 PUSH1 0x0 CALLER PUSH20 0xFFFFFFFFFFFFFFFFFFFFFFFFFFFFFFFFFFFFFFFF AND PUSH20 0xFFFFFFFFFFFFFFFFFFFFFFFFFFFFFFFFFFFFFFFF AND DUP2 MSTORE PUSH1 0x20 ADD SWAP1 DUP2 MSTORE PUSH1 0x20 ADD PUSH1 0x0 KECCAK256 PUSH1 0x0 PUSH2 0x100 EXP DUP2 SLOAD DUP2 PUSH1 0xFF MUL NOT AND SWAP1 DUP4 PUSH1 0x0 SIGNEXTEND PUSH1 0xFF AND MUL OR SWAP1 SSTORE POP CALLVALUE PUSH1 0x6 PUSH1 0x0 DUP3 DUP3 SLOAD PUSH2 0x746 SWAP2 SWAP1 PUSH2 0x242E JUMP JUMPDEST SWAP3 POP POP DUP2 SWAP1 SSTORE POP PUSH2 0x7E7 JUMP JUMPDEST PUSH32 0xFFFFFFFFFFFFFFFFFFFFFFFFFFFFFFFFFFFFFFFFFFFFFFFFFFFFFFFFFFFFFFFF PUSH1 0x3 PUSH1 0x0 CALLER PUSH20 0xFFFFFFFFFFFFFFFFFFFFFFFFFFFFFFFFFFFFFFFF AND PUSH20 0xFFFFFFFFFFFFFFFFFFFFFFFFFFFFFFFFFFFFFFFF AND DUP2 MSTORE PUSH1 0x20 ADD SWAP1 DUP2 MSTORE PUSH1 0x20 ADD PUSH1 0x0 KECCAK256 PUSH1 0x0 PUSH2 0x100 EXP DUP2 SLOAD DUP2 PUSH1 0xFF MUL NOT AND SWAP1 DUP4 PUSH1 0x0 SIGNEXTEND PUSH1 0xFF AND MUL OR SWAP1 SSTORE POP CALLVALUE PUSH1 0x7 PUSH1 0x0 DUP3 DUP3 SLOAD PUSH2 0x7DF SWAP2 SWAP1 PUSH2 0x242E JUMP JUMPDEST SWAP3 POP POP DUP2 SWAP1 SSTORE POP JUMPDEST CALLVALUE PUSH1 0x4 PUSH1 0x0 CALLER PUSH20 0xFFFFFFFFFFFFFFFFFFFFFFFFFFFFFFFFFFFFFFFF AND PUSH20 0xFFFFFFFFFFFFFFFFFFFFFFFFFFFFFFFFFFFFFFFF AND DUP2 MSTORE PUSH1 0x20 ADD SWAP1 DUP2 MSTORE PUSH1 0x20 ADD PUSH1 0x0 KECCAK256 PUSH1 0x0 DUP3 DUP3 SLOAD PUSH2 0x836 SWAP2 SWAP1 PUSH2 0x242E JUMP JUMPDEST SWAP3 POP POP DUP2 SWAP1 SSTORE POP POP JUMP JUMPDEST PUSH1 0x4 PUSH1 0x20 MSTORE DUP1 PUSH1 0x0 MSTORE PUSH1 0x40 PUSH1 0x0 KECCAK256 PUSH1 0x0 SWAP2 POP SWAP1 POP SLOAD DUP2 JUMP JUMPDEST PUSH1 0xA SLOAD DUP2 JUMP JUMPDEST PUSH1 0x1 SLOAD DUP2 JUMP JUMPDEST PUSH1 0x0 PUSH20 0xC39486F770B26F5527BBBF942726537986CD7EB PUSH20 0xFFFFFFFFFFFFFFFFFFFFFFFFFFFFFFFFFFFFFFFF AND DUP3 PUSH20 0xFFFFFFFFFFFFFFFFFFFFFFFFFFFFFFFFFFFFFFFF AND SUB PUSH2 0x8B6 JUMPI PUSH1 0x0 SWAP1 POP PUSH2 0x8F3 JUMP JUMPDEST DUP2 PUSH1 0x40 MLOAD PUSH32 0xEC459BC000000000000000000000000000000000000000000000000000000000 DUP2 MSTORE PUSH1 0x4 ADD PUSH2 0x8EA SWAP2 SWAP1 PUSH2 0x2033 JUMP JUMPDEST PUSH1 0x40 MLOAD DUP1 SWAP2 SUB SWAP1 REVERT JUMPDEST SWAP2 SWAP1 POP JUMP JUMPDEST PUSH1 0x0 PUSH1 0x1 SLOAD EQ PUSH2 0x93D JUMPI PUSH1 0x40 MLOAD PUSH32 0x8C379A000000000000000000000000000000000000000000000000000000000 DUP2 MSTORE PUSH1 0x4 ADD PUSH2 0x934 SWAP1 PUSH2 0x24AE JUMP JUMPDEST PUSH1 0x40 MLOAD DUP1 SWAP2 SUB SWAP1 REVERT JUMPDEST PUSH2 0x945 PUSH2 0xC89 JUMP JUMPDEST PUSH1 0x2 SLOAD EQ PUSH2 0x988 JUMPI PUSH1 0x40 MLOAD PUSH32 0x8C379A000000000000000000000000000000000000000000000000000000000 DUP2 MSTORE PUSH1 0x4 ADD PUSH2 0x97F SWAP1 PUSH2 0x251A JUMP JUMPDEST PUSH1 0x40 MLOAD DUP1 SWAP2 SUB SWAP1 REVERT JUMPDEST PUSH1 0x0 PUSH2 0x995 PUSH1 0x9 SLOAD PUSH2 0x1052 JUMP JUMPDEST SWAP1 POP PUSH1 0xA SLOAD DUP2 LT PUSH2 0x9AC JUMPI PUSH1 0x1 DUP1 DUP2 SWAP1 SSTORE POP PUSH2 0x9D4 JUMP JUMPDEST PUSH32 0xFFFFFFFFFFFFFFFFFFFFFFFFFFFFFFFFFFFFFFFFFFFFFFFFFFFFFFFFFFFFFFFF PUSH1 0x1 DUP2 SWAP1 SSTORE POP JUMPDEST POP JUMP JUMPDEST PUSH1 0x0 PUSH1 0x1 SLOAD SUB PUSH2 0xA1C JUMPI PUSH1 0x40 MLOAD PUSH32 0x8C379A000000000000000000000000000000000000000000000000000000000 DUP2 MSTORE PUSH1 0x4 ADD PUSH2 0xA13 SWAP1 PUSH2 0x2586 JUMP JUMPDEST PUSH1 0x40 MLOAD DUP1 SWAP2 SUB SWAP1 REVERT JUMPDEST PUSH1 0x1 SLOAD PUSH1 0x3 PUSH1 0x0 CALLER PUSH20 0xFFFFFFFFFFFFFFFFFFFFFFFFFFFFFFFFFFFFFFFF AND PUSH20 0xFFFFFFFFFFFFFFFFFFFFFFFFFFFFFFFFFFFFFFFF AND DUP2 MSTORE PUSH1 0x20 ADD SWAP1 DUP2 MSTORE PUSH1 0x20 ADD PUSH1 0x0 KECCAK256 PUSH1 0x0 SWAP1 SLOAD SWAP1 PUSH2 0x100 EXP SWAP1 DIV PUSH1 0x0 SIGNEXTEND PUSH1 0x0 SIGNEXTEND EQ PUSH2 0xAAF JUMPI PUSH1 0x40 MLOAD PUSH32 0x8C379A000000000000000000000000000000000000000000000000000000000 DUP2 MSTORE PUSH1 0x4 ADD PUSH2 0xAA6 SWAP1 PUSH2 0x25F2 JUMP JUMPDEST PUSH1 0x40 MLOAD DUP1 SWAP2 SUB SWAP1 REVERT JUMPDEST PUSH1 0x0 ISZERO ISZERO PUSH1 0x5 PUSH1 0x0 CALLER PUSH20 0xFFFFFFFFFFFFFFFFFFFFFFFFFFFFFFFFFFFFFFFF AND PUSH20 0xFFFFFFFFFFFFFFFFFFFFFFFFFFFFFFFFFFFFFFFF AND DUP2 MSTORE PUSH1 0x20 ADD SWAP1 DUP2 MSTORE PUSH1 0x20 ADD PUSH1 0x0 KECCAK256 PUSH1 0x0 SWAP1 SLOAD SWAP1 PUSH2 0x100 EXP SWAP1 DIV PUSH1 0xFF AND ISZERO ISZERO EQ PUSH2 0xB42 JUMPI PUSH1 0x40 MLOAD PUSH32 0x8C379A000000000000000000000000000000000000000000000000000000000 DUP2 MSTORE PUSH1 0x4 ADD PUSH2 0xB39 SWAP1 PUSH2 0x265E JUMP JUMPDEST PUSH1 0x40 MLOAD DUP1 SWAP2 SUB SWAP1 REVERT JUMPDEST PUSH1 0x0 PUSH1 0x4 PUSH1 0x0 CALLER PUSH20 0xFFFFFFFFFFFFFFFFFFFFFFFFFFFFFFFFFFFFFFFF AND PUSH20 0xFFFFFFFFFFFFFFFFFFFFFFFFFFFFFFFFFFFFFFFF AND DUP2 MSTORE PUSH1 0x20 ADD SWAP1 DUP2 MSTORE PUSH1 0x20 ADD PUSH1 0x0 KECCAK256 SLOAD SWAP1 POP CALLER PUSH20 0xFFFFFFFFFFFFFFFFFFFFFFFFFFFFFFFFFFFFFFFF AND PUSH2 0x8FC PUSH2 0xBA9 DUP4 PUSH2 0xED7 JUMP JUMPDEST SWAP1 DUP2 ISZERO MUL SWAP1 PUSH1 0x40 MLOAD PUSH1 0x0 PUSH1 0x40 MLOAD DUP1 DUP4 SUB DUP2 DUP6 DUP9 DUP9 CALL SWAP4 POP POP POP POP ISZERO DUP1 ISZERO PUSH2 0xBD4 JUMPI RETURNDATASIZE PUSH1 0x0 DUP1 RETURNDATACOPY RETURNDATASIZE PUSH1 0x0 REVERT JUMPDEST POP CALLER PUSH20 0xFFFFFFFFFFFFFFFFFFFFFFFFFFFFFFFFFFFFFFFF AND PUSH2 0x8FC DUP3 SWAP1 DUP2 ISZERO MUL SWAP1 PUSH1 0x40 MLOAD PUSH1 0x0 PUSH1 0x40 MLOAD DUP1 DUP4 SUB DUP2 DUP6 DUP9 DUP9 CALL SWAP4 POP POP POP POP ISZERO DUP1 ISZERO PUSH2 0xC1B JUMPI RETURNDATASIZE PUSH1 0x0 DUP1 RETURNDATACOPY RETURNDATASIZE PUSH1 0x0 REVERT JUMPDEST POP PUSH1 0x1 PUSH1 0x5 PUSH1 0x0 CALLER PUSH20 0xFFFFFFFFFFFFFFFFFFFFFFFFFFFFFFFFFFFFFFFF AND PUSH20 0xFFFFFFFFFFFFFFFFFFFFFFFFFFFFFFFFFFFFFFFF AND DUP2 MSTORE PUSH1 0x20 ADD SWAP1 DUP2 MSTORE PUSH1 0x20 ADD PUSH1 0x0 KECCAK256 PUSH1 0x0 PUSH2 0x100 EXP DUP2 SLOAD DUP2 PUSH1 0xFF MUL NOT AND SWAP1 DUP4 ISZERO ISZERO MUL OR SWAP1 SSTORE POP POP JUMP JUMPDEST PUSH2 0xC7F PUSH2 0x10EE JUMP JUMPDEST DUP1 PUSH1 0x8 DUP2 SWAP1 SSTORE POP POP JUMP JUMPDEST PUSH1 0x0 DUP1 PUSH2 0xC94 PUSH2 0x116C JUMP JUMPDEST SWAP1 POP PUSH1 0x0 PUSH2 0xCA1 DUP3 PUSH2 0x127D JUMP JUMPDEST DUP2 PUSH2 0xFFFF AND SWAP2 POP DUP1 SWAP4 POP DUP2 SWAP3 POP POP POP PUSH1 0x0 DUP2 SUB PUSH2 0xCEA JUMPI PUSH1 0x40 MLOAD PUSH32 0x8552FF3C00000000000000000000000000000000000000000000000000000000 DUP2 MSTORE PUSH1 0x4 ADD PUSH1 0x40 MLOAD DUP1 SWAP2 SUB SWAP1 REVERT JUMPDEST PUSH1 0x0 JUMPDEST DUP2 DUP2 LT ISZERO PUSH2 0xDED JUMPI PUSH1 0x0 PUSH2 0xD00 DUP5 PUSH2 0x12ED JUMP JUMPDEST SWAP1 POP PUSH1 0x0 DUP1 PUSH1 0x68 DUP7 PUSH2 0xD12 SWAP2 SWAP1 PUSH2 0x242E JUMP JUMPDEST SWAP1 POP PUSH1 0x0 DUP2 PUSH1 0x0 CALLDATASIZE SWAP1 POP PUSH2 0xD26 SWAP2 SWAP1 PUSH2 0x267E JUMP JUMPDEST SWAP1 POP DUP1 CALLDATALOAD SWAP3 POP PUSH1 0x0 DUP4 PUSH6 0xFFFFFFFFFFFF AND SUB PUSH2 0xD6E JUMPI PUSH1 0x40 MLOAD PUSH32 0x336DC9D000000000000000000000000000000000000000000000000000000000 DUP2 MSTORE PUSH1 0x4 ADD PUSH1 0x40 MLOAD DUP1 SWAP2 SUB SWAP1 REVERT JUMPDEST PUSH1 0x0 DUP9 SUB PUSH2 0xD86 JUMPI DUP3 PUSH6 0xFFFFFFFFFFFF AND SWAP8 POP PUSH2 0xDC8 JUMP JUMPDEST DUP8 DUP4 PUSH6 0xFFFFFFFFFFFF AND EQ PUSH2 0xDC7 JUMPI PUSH1 0x40 MLOAD PUSH32 0xD9D1F46500000000000000000000000000000000000000000000000000000000 DUP2 MSTORE PUSH1 0x4 ADD PUSH1 0x40 MLOAD DUP1 SWAP2 SUB SWAP1 REVERT JUMPDEST JUMPDEST DUP4 DUP8 PUSH2 0xDD4 SWAP2 SWAP1 PUSH2 0x242E JUMP JUMPDEST SWAP7 POP POP POP POP POP DUP1 DUP1 PUSH2 0xDE5 SWAP1 PUSH2 0x26B2 JUMP JUMPDEST SWAP2 POP POP PUSH2 0xCED JUMP JUMPDEST POP POP POP SWAP1 JUMP JUMPDEST PUSH1 0x6 SLOAD DUP2 JUMP JUMPDEST PUSH2 0xE01 PUSH2 0x10EE JUMP JUMPDEST PUSH2 0xE0B PUSH1 0x0 PUSH2 0x132C JUMP JUMPDEST JUMP JUMPDEST PUSH1 0xB SLOAD DUP2 JUMP JUMPDEST PUSH1 0x3 PUSH1 0x20 MSTORE DUP1 PUSH1 0x0 MSTORE PUSH1 0x40 PUSH1 0x0 KECCAK256 PUSH1 0x0 SWAP2 POP SLOAD SWAP1 PUSH2 0x100 EXP SWAP1 DIV PUSH1 0x0 SIGNEXTEND DUP2 JUMP JUMPDEST PUSH1 0x0 DUP1 PUSH1 0x0 SWAP1 SLOAD SWAP1 PUSH2 0x100 EXP SWAP1 DIV PUSH20 0xFFFFFFFFFFFFFFFFFFFFFFFFFFFFFFFFFFFFFFFF AND SWAP1 POP SWAP1 JUMP JUMPDEST PUSH1 0x8 SLOAD DUP2 JUMP JUMPDEST PUSH1 0x7 SLOAD DUP2 JUMP JUMPDEST PUSH1 0x0 PUSH2 0xE73 DUP3 PUSH2 0x13F0 JUMP JUMPDEST SWAP1 POP SWAP2 SWAP1 POP JUMP JUMPDEST PUSH1 0x60 PUSH1 0x40 MLOAD DUP1 PUSH1 0x40 ADD PUSH1 0x40 MSTORE DUP1 PUSH1 0x12 DUP2 MSTORE PUSH1 0x20 ADD PUSH32 0x72656473746F6E652D6D61696E2D64656D6F0000000000000000000000000000 DUP2 MSTORE POP SWAP1 POP SWAP1 JUMP JUMPDEST PUSH1 0x5 PUSH1 0x20 MSTORE DUP1 PUSH1 0x0 MSTORE PUSH1 0x40 PUSH1 0x0 KECCAK256 PUSH1 0x0 SWAP2 POP SLOAD SWAP1 PUSH2 0x100 EXP SWAP1 DIV PUSH1 0xFF AND DUP2 JUMP JUMPDEST PUSH1 0x0 DUP1 PUSH4 0x5F5E100 SWAP1 POP PUSH1 0x0 PUSH1 0x1 DUP1 SLOAD EQ PUSH2 0xEF4 JUMPI PUSH1 0x7 SLOAD PUSH2 0xEF8 JUMP JUMPDEST PUSH1 0x6 SLOAD JUMPDEST SWAP1 POP DUP1 DUP5 GT ISZERO PUSH2 0xF3D JUMPI PUSH1 0x40 MLOAD PUSH32 0x8C379A000000000000000000000000000000000000000000000000000000000 DUP2 MSTORE PUSH1 0x4 ADD PUSH2 0xF34 SWAP1 PUSH2 0x2746 JUMP JUMPDEST PUSH1 0x40 MLOAD DUP1 SWAP2 SUB SWAP1 REVERT JUMPDEST PUSH1 0x0 PUSH32 0xFFFFFFFFFFFFFFFFFFFFFFFFFFFFFFFFFFFFFFFFFFFFFFFFFFFFFFFFFFFFFFFF PUSH1 0x1 SLOAD EQ PUSH2 0xF70 JUMPI PUSH1 0x6 SLOAD PUSH2 0xF74 JUMP JUMPDEST PUSH1 0x7 SLOAD JUMPDEST SWAP1 POP PUSH1 0x0 DUP3 DUP5 DUP8 PUSH2 0xF85 SWAP2 SWAP1 PUSH2 0x2766 JUMP JUMPDEST PUSH2 0xF8F SWAP2 SWAP1 PUSH2 0x27D7 JUMP JUMPDEST SWAP1 POP DUP4 DUP3 DUP3 PUSH2 0xF9E SWAP2 SWAP1 PUSH2 0x2766 JUMP JUMPDEST PUSH2 0xFA8 SWAP2 SWAP1 PUSH2 0x27D7 JUMP JUMPDEST SWAP5 POP POP POP POP POP SWAP2 SWAP1 POP JUMP JUMPDEST PUSH1 0x0 PUSH1 0x8 SLOAD SWAP1 POP SWAP1 JUMP JUMPDEST PUSH1 0x2 SLOAD DUP2 JUMP JUMPDEST PUSH2 0xFCB PUSH2 0x10EE JUMP JUMPDEST PUSH1 0x0 PUSH20 0xFFFFFFFFFFFFFFFFFFFFFFFFFFFFFFFFFFFFFFFF AND DUP2 PUSH20 0xFFFFFFFFFFFFFFFFFFFFFFFFFFFFFFFFFFFFFFFF AND SUB PUSH2 0x103A JUMPI PUSH1 0x40 MLOAD PUSH32 0x8C379A000000000000000000000000000000000000000000000000000000000 DUP2 MSTORE PUSH1 0x4 ADD PUSH2 0x1031 SWAP1 PUSH2 0x287A JUMP JUMPDEST PUSH1 0x40 MLOAD DUP1 SWAP2 SUB SWAP1 REVERT JUMPDEST PUSH2 0x1043 DUP2 PUSH2 0x132C JUMP JUMPDEST POP JUMP JUMPDEST POP JUMP JUMPDEST PUSH1 0x0 PUSH1 0x1 SWAP1 POP SWAP1 JUMP JUMPDEST PUSH1 0x0 DUP1 PUSH1 0x1 PUSH8 0xFFFFFFFFFFFFFFFF DUP2 GT ISZERO PUSH2 0x1070 JUMPI PUSH2 0x106F PUSH2 0x2064 JUMP JUMPDEST JUMPDEST PUSH1 0x40 MLOAD SWAP1 DUP1 DUP3 MSTORE DUP1 PUSH1 0x20 MUL PUSH1 0x20 ADD DUP3 ADD PUSH1 0x40 MSTORE DUP1 ISZERO PUSH2 0x109E JUMPI DUP2 PUSH1 0x20 ADD PUSH1 0x20 DUP3 MUL DUP1 CALLDATASIZE DUP4 CALLDATACOPY DUP1 DUP3 ADD SWAP2 POP POP SWAP1 POP JUMPDEST POP SWAP1 POP DUP3 DUP2 PUSH1 0x0 DUP2 MLOAD DUP2 LT PUSH2 0x10B6 JUMPI PUSH2 0x10B5 PUSH2 0x289A JUMP JUMPDEST JUMPDEST PUSH1 0x20 MUL PUSH1 0x20 ADD ADD DUP2 DUP2 MSTORE POP POP PUSH2 0x10CB DUP2 PUSH2 0x1402 JUMP JUMPDEST PUSH1 0x0 DUP2 MLOAD DUP2 LT PUSH2 0x10DE JUMPI PUSH2 0x10DD PUSH2 0x289A JUMP JUMPDEST JUMPDEST PUSH1 0x20 MUL PUSH1 0x20 ADD ADD MLOAD SWAP2 POP POP SWAP2 SWAP1 POP JUMP JUMPDEST PUSH2 0x10F6 PUSH2 0x1427 JUMP JUMPDEST PUSH20 0xFFFFFFFFFFFFFFFFFFFFFFFFFFFFFFFFFFFFFFFF AND PUSH2 0x1114 PUSH2 0xE33 JUMP JUMPDEST PUSH20 0xFFFFFFFFFFFFFFFFFFFFFFFFFFFFFFFFFFFFFFFF AND EQ PUSH2 0x116A JUMPI PUSH1 0x40 MLOAD PUSH32 0x8C379A000000000000000000000000000000000000000000000000000000000 DUP2 MSTORE PUSH1 0x4 ADD PUSH2 0x1161 SWAP1 PUSH2 0x2915 JUMP JUMPDEST PUSH1 0x40 MLOAD DUP1 SWAP2 SUB SWAP1 REVERT JUMPDEST JUMP JUMPDEST PUSH1 0x0 DUP1 PUSH1 0x20 CALLDATASIZE SUB CALLDATALOAD PUSH7 0x2ED57011E0000 DUP2 AND PUSH7 0x2ED57011E0000 EQ SWAP2 POP POP DUP1 PUSH2 0x11C1 JUMPI PUSH1 0x40 MLOAD PUSH32 0xE7764C9E00000000000000000000000000000000000000000000000000000000 DUP2 MSTORE PUSH1 0x4 ADD PUSH1 0x40 MLOAD DUP1 SWAP2 SUB SWAP1 REVERT JUMPDEST PUSH1 0x0 DUP1 CALLDATASIZE SWAP1 POP PUSH1 0x29 GT ISZERO PUSH2 0x1201 JUMPI PUSH1 0x40 MLOAD PUSH32 0x5796F78A00000000000000000000000000000000000000000000000000000000 DUP2 MSTORE PUSH1 0x4 ADD PUSH1 0x40 MLOAD DUP1 SWAP2 SUB SWAP1 REVERT JUMPDEST PUSH1 0x29 CALLDATASIZE SUB CALLDATALOAD SWAP1 POP PUSH1 0x0 PUSH1 0x9 PUSH1 0x3 DUP4 PUSH3 0xFFFFFF AND PUSH2 0x121E SWAP2 SWAP1 PUSH2 0x242E JUMP JUMPDEST PUSH2 0x1228 SWAP2 SWAP1 PUSH2 0x242E JUMP JUMPDEST SWAP1 POP PUSH1 0x0 CALLDATASIZE SWAP1 POP PUSH1 0x2 DUP3 PUSH2 0x123C SWAP2 SWAP1 PUSH2 0x242E JUMP JUMPDEST GT ISZERO PUSH2 0x1274 JUMPI PUSH1 0x40 MLOAD PUSH32 0xC30A7BD700000000000000000000000000000000000000000000000000000000 DUP2 MSTORE PUSH1 0x4 ADD PUSH1 0x40 MLOAD DUP1 SWAP2 SUB SWAP1 REVERT JUMPDEST DUP1 SWAP4 POP POP POP POP SWAP1 JUMP JUMPDEST PUSH1 0x0 DUP1 PUSH1 0x0 PUSH1 0x20 DUP5 PUSH2 0x128F SWAP2 SWAP1 PUSH2 0x242E JUMP JUMPDEST SWAP1 POP PUSH1 0x0 CALLDATASIZE SWAP1 POP DUP2 GT ISZERO PUSH2 0x12CF JUMPI PUSH1 0x40 MLOAD PUSH32 0x5796F78A00000000000000000000000000000000000000000000000000000000 DUP2 MSTORE PUSH1 0x4 ADD PUSH1 0x40 MLOAD DUP1 SWAP2 SUB SWAP1 REVERT JUMPDEST DUP1 CALLDATASIZE SUB CALLDATALOAD SWAP3 POP DUP3 PUSH1 0x2 DUP6 PUSH2 0x12E3 SWAP2 SWAP1 PUSH2 0x242E JUMP JUMPDEST SWAP3 POP SWAP3 POP POP SWAP2 POP SWAP2 JUMP JUMPDEST PUSH1 0x0 DUP1 PUSH1 0x0 PUSH2 0x12FB DUP5 PUSH2 0x142F JUMP JUMPDEST SWAP2 POP SWAP2 POP PUSH1 0x4E DUP2 PUSH1 0x20 PUSH2 0x130E SWAP2 SWAP1 PUSH2 0x242E JUMP JUMPDEST DUP4 PUSH2 0x1319 SWAP2 SWAP1 PUSH2 0x2766 JUMP JUMPDEST PUSH2 0x1323 SWAP2 SWAP1 PUSH2 0x242E JUMP JUMPDEST SWAP3 POP POP POP SWAP2 SWAP1 POP JUMP JUMPDEST PUSH1 0x0 DUP1 PUSH1 0x0 SWAP1 SLOAD SWAP1 PUSH2 0x100 EXP SWAP1 DIV PUSH20 0xFFFFFFFFFFFFFFFFFFFFFFFFFFFFFFFFFFFFFFFF AND SWAP1 POP DUP2 PUSH1 0x0 DUP1 PUSH2 0x100 EXP DUP2 SLOAD DUP2 PUSH20 0xFFFFFFFFFFFFFFFFFFFFFFFFFFFFFFFFFFFFFFFF MUL NOT AND SWAP1 DUP4 PUSH20 0xFFFFFFFFFFFFFFFFFFFFFFFFFFFFFFFFFFFFFFFF AND MUL OR SWAP1 SSTORE POP DUP2 PUSH20 0xFFFFFFFFFFFFFFFFFFFFFFFFFFFFFFFFFFFFFFFF AND DUP2 PUSH20 0xFFFFFFFFFFFFFFFFFFFFFFFFFFFFFFFFFFFFFFFF AND PUSH32 0x8BE0079C531659141344CD1FD0A4F28419497F9722A3DAAFE3B4186F6B6457E0 PUSH1 0x40 MLOAD PUSH1 0x40 MLOAD DUP1 SWAP2 SUB SWAP1 LOG3 POP POP JUMP JUMPDEST PUSH1 0x0 PUSH2 0x13FB DUP3 PUSH2 0x1491 JUMP JUMPDEST SWAP1 POP SWAP2 SWAP1 POP JUMP JUMPDEST PUSH1 0x60 PUSH1 0x0 DUP1 PUSH2 0x1410 DUP5 PUSH2 0x15E6 JUMP JUMPDEST SWAP2 POP SWAP2 POP PUSH2 0x141D DUP2 PUSH2 0x1046 JUMP JUMPDEST DUP2 SWAP3 POP POP POP SWAP2 SWAP1 POP JUMP JUMPDEST PUSH1 0x0 CALLER SWAP1 POP SWAP1 JUMP JUMPDEST PUSH1 0x0 DUP1 PUSH1 0x0 DUP1 PUSH1 0x0 PUSH1 0x20 PUSH1 0x41 DUP8 PUSH2 0x1446 SWAP2 SWAP1 PUSH2 0x242E JUMP JUMPDEST PUSH2 0x1450 SWAP2 SWAP1 PUSH2 0x242E JUMP JUMPDEST PUSH1 0x0 CALLDATASIZE SWAP1 POP PUSH2 0x145F SWAP2 SWAP1 PUSH2 0x267E JUMP JUMPDEST SWAP1 POP DUP1 CALLDATALOAD SWAP3 POP PUSH1 0x3 DUP2 PUSH2 0x1472 SWAP2 SWAP1 PUSH2 0x267E JUMP JUMPDEST SWAP1 POP DUP1 CALLDATALOAD SWAP2 POP DUP3 PUSH3 0xFFFFFF AND SWAP5 POP DUP2 PUSH4 0xFFFFFFFF AND SWAP4 POP POP POP POP SWAP2 POP SWAP2 JUMP JUMPDEST PUSH1 0x0 PUSH1 0x2 DUP3 MLOAD SUB PUSH2 0x14F1 JUMPI PUSH1 0x2 DUP3 PUSH1 0x1 DUP2 MLOAD DUP2 LT PUSH2 0x14B2 JUMPI PUSH2 0x14B1 PUSH2 0x289A JUMP JUMPDEST JUMPDEST PUSH1 0x20 MUL PUSH1 0x20 ADD ADD MLOAD DUP4 PUSH1 0x0 DUP2 MLOAD DUP2 LT PUSH2 0x14CE JUMPI PUSH2 0x14CD PUSH2 0x289A JUMP JUMPDEST JUMPDEST PUSH1 0x20 MUL PUSH1 0x20 ADD ADD MLOAD PUSH2 0x14E0 SWAP2 SWAP1 PUSH2 0x242E JUMP JUMPDEST PUSH2 0x14EA SWAP2 SWAP1 PUSH2 0x27D7 JUMP JUMPDEST SWAP1 POP PUSH2 0x15E1 JUMP JUMPDEST PUSH1 0x0 DUP3 MLOAD SUB PUSH2 0x152C JUMPI PUSH1 0x40 MLOAD PUSH32 0x9E198AF900000000000000000000000000000000000000000000000000000000 DUP2 MSTORE PUSH1 0x4 ADD PUSH1 0x40 MLOAD DUP1 SWAP2 SUB SWAP1 REVERT JUMPDEST PUSH2 0x1535 DUP3 PUSH2 0x1861 JUMP JUMPDEST PUSH1 0x0 PUSH1 0x2 DUP4 MLOAD PUSH2 0x1545 SWAP2 SWAP1 PUSH2 0x27D7 JUMP JUMPDEST SWAP1 POP PUSH1 0x0 PUSH1 0x2 DUP5 MLOAD PUSH2 0x1557 SWAP2 SWAP1 PUSH2 0x2935 JUMP JUMPDEST SUB PUSH2 0x15C2 JUMPI PUSH1 0x0 DUP4 DUP3 DUP2 MLOAD DUP2 LT PUSH2 0x1571 JUMPI PUSH2 0x1570 PUSH2 0x289A JUMP JUMPDEST JUMPDEST PUSH1 0x20 MUL PUSH1 0x20 ADD ADD MLOAD DUP5 PUSH1 0x1 DUP5 PUSH2 0x1587 SWAP2 SWAP1 PUSH2 0x267E JUMP JUMPDEST DUP2 MLOAD DUP2 LT PUSH2 0x1598 JUMPI PUSH2 0x1597 PUSH2 0x289A JUMP JUMPDEST JUMPDEST PUSH1 0x20 MUL PUSH1 0x20 ADD ADD MLOAD PUSH2 0x15AA SWAP2 SWAP1 PUSH2 0x242E JUMP JUMPDEST SWAP1 POP PUSH1 0x2 DUP2 PUSH2 0x15B9 SWAP2 SWAP1 PUSH2 0x27D7 JUMP JUMPDEST SWAP3 POP POP POP PUSH2 0x15E1 JUMP JUMPDEST DUP3 DUP2 DUP2 MLOAD DUP2 LT PUSH2 0x15D5 JUMPI PUSH2 0x15D4 PUSH2 0x289A JUMP JUMPDEST JUMPDEST PUSH1 0x20 MUL PUSH1 0x20 ADD ADD MLOAD SWAP2 POP POP JUMPDEST SWAP2 SWAP1 POP JUMP JUMPDEST PUSH1 0x60 PUSH1 0x0 DUP1 DUP4 MLOAD PUSH8 0xFFFFFFFFFFFFFFFF DUP2 GT ISZERO PUSH2 0x1606 JUMPI PUSH2 0x1605 PUSH2 0x2064 JUMP JUMPDEST JUMPDEST PUSH1 0x40 MLOAD SWAP1 DUP1 DUP3 MSTORE DUP1 PUSH1 0x20 MUL PUSH1 0x20 ADD DUP3 ADD PUSH1 0x40 MSTORE DUP1 ISZERO PUSH2 0x1634 JUMPI DUP2 PUSH1 0x20 ADD PUSH1 0x20 DUP3 MUL DUP1 CALLDATASIZE DUP4 CALLDATACOPY DUP1 DUP3 ADD SWAP2 POP POP SWAP1 POP JUMPDEST POP SWAP1 POP PUSH1 0x0 DUP5 MLOAD PUSH8 0xFFFFFFFFFFFFFFFF DUP2 GT ISZERO PUSH2 0x1654 JUMPI PUSH2 0x1653 PUSH2 0x2064 JUMP JUMPDEST JUMPDEST PUSH1 0x40 MLOAD SWAP1 DUP1 DUP3 MSTORE DUP1 PUSH1 0x20 MUL PUSH1 0x20 ADD DUP3 ADD PUSH1 0x40 MSTORE DUP1 ISZERO PUSH2 0x1682 JUMPI DUP2 PUSH1 0x20 ADD PUSH1 0x20 DUP3 MUL DUP1 CALLDATASIZE DUP4 CALLDATACOPY DUP1 DUP3 ADD SWAP2 POP POP SWAP1 POP JUMPDEST POP SWAP1 POP PUSH1 0x0 DUP6 MLOAD PUSH8 0xFFFFFFFFFFFFFFFF DUP2 GT ISZERO PUSH2 0x16A2 JUMPI PUSH2 0x16A1 PUSH2 0x2064 JUMP JUMPDEST JUMPDEST PUSH1 0x40 MLOAD SWAP1 DUP1 DUP3 MSTORE DUP1 PUSH1 0x20 MUL PUSH1 0x20 ADD DUP3 ADD PUSH1 0x40 MSTORE DUP1 ISZERO PUSH2 0x16D5 JUMPI DUP2 PUSH1 0x20 ADD JUMPDEST PUSH1 0x60 DUP2 MSTORE PUSH1 0x20 ADD SWAP1 PUSH1 0x1 SWAP1 SUB SWAP1 DUP2 PUSH2 0x16C0 JUMPI SWAP1 POP JUMPDEST POP SWAP1 POP PUSH1 0x0 JUMPDEST DUP7 MLOAD DUP2 LT ISZERO PUSH2 0x1762 JUMPI PUSH2 0x16EC PUSH2 0x1049 JUMP JUMPDEST PUSH1 0xFF AND PUSH8 0xFFFFFFFFFFFFFFFF DUP2 GT ISZERO PUSH2 0x1708 JUMPI PUSH2 0x1707 PUSH2 0x2064 JUMP JUMPDEST JUMPDEST PUSH1 0x40 MLOAD SWAP1 DUP1 DUP3 MSTORE DUP1 PUSH1 0x20 MUL PUSH1 0x20 ADD DUP3 ADD PUSH1 0x40 MSTORE DUP1 ISZERO PUSH2 0x1736 JUMPI DUP2 PUSH1 0x20 ADD PUSH1 0x20 DUP3 MUL DUP1 CALLDATASIZE DUP4 CALLDATACOPY DUP1 DUP3 ADD SWAP2 POP POP SWAP1 POP JUMPDEST POP DUP3 DUP3 DUP2 MLOAD DUP2 LT PUSH2 0x174A JUMPI PUSH2 0x1749 PUSH2 0x289A JUMP JUMPDEST JUMPDEST PUSH1 0x20 MUL PUSH1 0x20 ADD ADD DUP2 SWAP1 MSTORE POP DUP1 DUP1 PUSH1 0x1 ADD SWAP2 POP POP PUSH2 0x16DB JUMP JUMPDEST POP PUSH1 0x0 PUSH2 0x176D PUSH2 0x116C JUMP JUMPDEST SWAP1 POP PUSH1 0x0 PUSH2 0x177A DUP3 PUSH2 0x127D JUMP JUMPDEST DUP2 PUSH2 0xFFFF AND SWAP2 POP DUP1 SWAP4 POP DUP2 SWAP3 POP POP POP PUSH1 0x0 PUSH1 0x40 MLOAD SWAP1 POP PUSH1 0x0 JUMPDEST DUP3 DUP2 LT ISZERO PUSH2 0x1849 JUMPI PUSH1 0x0 PUSH2 0x17AA DUP12 DUP10 DUP10 DUP10 DUP10 PUSH2 0x18B4 JUMP JUMPDEST DUP1 SWAP3 POP DUP2 SWAP7 POP POP POP PUSH1 0x0 DUP2 SUB PUSH2 0x17EC JUMPI PUSH1 0x40 MLOAD PUSH32 0xDFB25A7900000000000000000000000000000000000000000000000000000000 DUP2 MSTORE PUSH1 0x4 ADD PUSH1 0x40 MLOAD DUP1 SWAP2 SUB SWAP1 REVERT JUMPDEST DUP9 DUP2 EQ ISZERO DUP1 ISZERO PUSH2 0x17FD JUMPI POP PUSH1 0x0 DUP10 EQ ISZERO JUMPDEST ISZERO PUSH2 0x1834 JUMPI PUSH1 0x40 MLOAD PUSH32 0x4CBC474200000000000000000000000000000000000000000000000000000000 DUP2 MSTORE PUSH1 0x4 ADD PUSH1 0x40 MLOAD DUP1 SWAP2 SUB SWAP1 REVERT JUMPDEST DUP1 SWAP9 POP DUP3 PUSH1 0x40 MSTORE DUP2 DUP1 PUSH1 0x1 ADD SWAP3 POP POP POP PUSH2 0x1793 JUMP JUMPDEST POP PUSH2 0x1854 DUP5 DUP8 PUSH2 0x1B80 JUMP JUMPDEST SWAP8 POP POP POP POP POP POP POP SWAP2 POP SWAP2 JUMP JUMPDEST DUP1 MLOAD PUSH1 0x20 DUP3 ADD PUSH1 0x20 DUP3 MUL DUP2 ADD DUP2 JUMPDEST DUP2 DUP2 LT ISZERO PUSH2 0x18AD JUMPI DUP3 JUMPDEST DUP2 DUP2 LT ISZERO PUSH2 0x18A1 JUMPI DUP2 MLOAD DUP2 MLOAD DUP1 DUP3 LT ISZERO PUSH2 0x1894 JUMPI DUP1 DUP5 MSTORE DUP2 DUP4 MSTORE JUMPDEST POP POP PUSH1 0x20 DUP2 ADD SWAP1 POP PUSH2 0x1879 JUMP JUMPDEST POP PUSH1 0x20 DUP2 ADD SWAP1 POP PUSH2 0x186F JUMP JUMPDEST POP POP POP POP POP JUMP JUMPDEST PUSH1 0x0 DUP1 PUSH1 0x0 DUP1 PUSH1 0x0 PUSH2 0x18C5 DUP7 PUSH2 0x142F JUMP JUMPDEST SWAP2 POP SWAP2 POP PUSH1 0x0 DUP1 PUSH1 0x60 PUSH1 0x0 DUP1 PUSH1 0xD PUSH1 0x20 DUP8 PUSH2 0x18E0 SWAP2 SWAP1 PUSH2 0x242E JUMP JUMPDEST DUP9 PUSH2 0x18EB SWAP2 SWAP1 PUSH2 0x2766 JUMP JUMPDEST PUSH2 0x18F5 SWAP2 SWAP1 PUSH2 0x242E JUMP JUMPDEST SWAP2 POP PUSH1 0x0 PUSH1 0x68 DUP13 PUSH2 0x1906 SWAP2 SWAP1 PUSH2 0x242E JUMP JUMPDEST PUSH1 0x0 CALLDATASIZE SWAP1 POP PUSH2 0x1915 SWAP2 SWAP1 PUSH2 0x267E JUMP JUMPDEST SWAP1 POP PUSH1 0x0 DUP4 PUSH1 0x41 DUP15 PUSH2 0x1927 SWAP2 SWAP1 PUSH2 0x242E JUMP JUMPDEST PUSH2 0x1931 SWAP2 SWAP1 PUSH2 0x242E JUMP JUMPDEST PUSH1 0x0 CALLDATASIZE SWAP1 POP PUSH2 0x1940 SWAP2 SWAP1 PUSH2 0x267E JUMP JUMPDEST SWAP1 POP PUSH2 0x194C DUP5 DUP3 PUSH2 0x197A JUMP JUMPDEST SWAP5 POP DUP4 PUSH1 0x20 DUP7 ADD KECCAK256 SWAP6 POP DUP2 CALLDATALOAD SWAP3 POP PUSH2 0x1996 JUMP JUMPDEST PUSH1 0x0 PUSH1 0x40 MLOAD SWAP1 POP DUP2 DUP2 MSTORE PUSH1 0x20 DUP2 ADD SWAP1 POP DUP2 DUP2 ADD PUSH1 0x40 MSTORE SWAP2 SWAP1 POP JUMP JUMPDEST PUSH1 0x0 PUSH2 0x1985 DUP4 PUSH2 0x195F JUMP JUMPDEST DUP4 DUP4 DUP3 CALLDATACOPY PUSH1 0x20 DUP2 SUB SWAP2 POP POP SWAP3 SWAP2 POP POP JUMP JUMPDEST DUP3 PUSH6 0xFFFFFFFFFFFF AND SWAP11 POP PUSH2 0x19B7 DUP7 PUSH1 0x41 DUP16 PUSH2 0x19B2 SWAP2 SWAP1 PUSH2 0x242E JUMP JUMPDEST PUSH2 0x1CCD JUMP JUMPDEST SWAP7 POP PUSH2 0x19C2 DUP8 PUSH2 0x864 JUMP JUMPDEST PUSH1 0xFF AND SWAP10 POP POP POP POP POP POP POP POP PUSH1 0x4E DUP7 PUSH2 0x19DB SWAP2 SWAP1 PUSH2 0x242E JUMP JUMPDEST SWAP6 POP PUSH1 0x0 DUP1 PUSH1 0x0 JUMPDEST DUP5 DUP2 LT ISZERO PUSH2 0x1B6D JUMPI PUSH1 0x20 DUP5 DUP11 PUSH2 0x19F9 SWAP2 SWAP1 PUSH2 0x242E JUMP JUMPDEST PUSH2 0x1A03 SWAP2 SWAP1 PUSH2 0x242E JUMP JUMPDEST SWAP9 POP PUSH2 0x1A0F DUP10 DUP6 PUSH2 0x1D4C JUMP JUMPDEST DUP1 SWAP4 POP DUP2 SWAP5 POP POP POP PUSH1 0x0 JUMPDEST DUP14 MLOAD DUP2 LT ISZERO PUSH2 0x1B5F JUMPI DUP14 DUP2 DUP2 MLOAD DUP2 LT PUSH2 0x1A36 JUMPI PUSH2 0x1A35 PUSH2 0x289A JUMP JUMPDEST JUMPDEST PUSH1 0x20 MUL PUSH1 0x20 ADD ADD MLOAD DUP5 SUB PUSH2 0x1B52 JUMPI PUSH1 0x0 DUP13 DUP3 DUP2 MLOAD DUP2 LT PUSH2 0x1A59 JUMPI PUSH2 0x1A58 PUSH2 0x289A JUMP JUMPDEST JUMPDEST PUSH1 0x20 MUL PUSH1 0x20 ADD ADD MLOAD SWAP1 POP PUSH2 0x1A6D DUP2 DUP10 PUSH2 0x1DC7 JUMP JUMPDEST ISZERO DUP1 ISZERO PUSH2 0x1A9D JUMPI POP PUSH2 0x1A7D PUSH2 0x1049 JUMP JUMPDEST PUSH1 0xFF AND DUP15 DUP4 DUP2 MLOAD DUP2 LT PUSH2 0x1A93 JUMPI PUSH2 0x1A92 PUSH2 0x289A JUMP JUMPDEST JUMPDEST PUSH1 0x20 MUL PUSH1 0x20 ADD ADD MLOAD LT JUMPDEST ISZERO PUSH2 0x1B4C JUMPI DUP4 DUP13 DUP4 DUP2 MLOAD DUP2 LT PUSH2 0x1AB6 JUMPI PUSH2 0x1AB5 PUSH2 0x289A JUMP JUMPDEST JUMPDEST PUSH1 0x20 MUL PUSH1 0x20 ADD ADD MLOAD DUP16 DUP5 DUP2 MLOAD DUP2 LT PUSH2 0x1AD1 JUMPI PUSH2 0x1AD0 PUSH2 0x289A JUMP JUMPDEST JUMPDEST PUSH1 0x20 MUL PUSH1 0x20 ADD ADD MLOAD DUP2 MLOAD DUP2 LT PUSH2 0x1AEA JUMPI PUSH2 0x1AE9 PUSH2 0x289A JUMP JUMPDEST JUMPDEST PUSH1 0x20 MUL PUSH1 0x20 ADD ADD DUP2 DUP2 MSTORE POP POP DUP14 DUP3 DUP2 MLOAD DUP2 LT PUSH2 0x1B09 JUMPI PUSH2 0x1B08 PUSH2 0x289A JUMP JUMPDEST JUMPDEST PUSH1 0x20 MUL PUSH1 0x20 ADD ADD DUP1 MLOAD DUP1 SWAP2 SWAP1 PUSH2 0x1B1E SWAP1 PUSH2 0x26B2 JUMP JUMPDEST DUP2 MSTORE POP POP PUSH2 0x1B2C DUP2 DUP10 PUSH2 0x1DE0 JUMP JUMPDEST DUP14 DUP4 DUP2 MLOAD DUP2 LT PUSH2 0x1B3F JUMPI PUSH2 0x1B3E PUSH2 0x289A JUMP JUMPDEST JUMPDEST PUSH1 0x20 MUL PUSH1 0x20 ADD ADD DUP2 DUP2 MSTORE POP POP JUMPDEST POP PUSH2 0x1B5F JUMP JUMPDEST DUP1 DUP1 PUSH1 0x1 ADD SWAP2 POP POP PUSH2 0x1A1A JUMP JUMPDEST POP DUP1 DUP1 PUSH1 0x1 ADD SWAP2 POP POP PUSH2 0x19E3 JUMP JUMPDEST POP POP POP DUP6 SWAP5 POP POP POP POP SWAP6 POP SWAP6 SWAP4 POP POP POP POP JUMP JUMPDEST PUSH1 0x60 PUSH1 0x0 DUP4 MLOAD PUSH8 0xFFFFFFFFFFFFFFFF DUP2 GT ISZERO PUSH2 0x1B9F JUMPI PUSH2 0x1B9E PUSH2 0x2064 JUMP JUMPDEST JUMPDEST PUSH1 0x40 MLOAD SWAP1 DUP1 DUP3 MSTORE DUP1 PUSH1 0x20 MUL PUSH1 0x20 ADD DUP3 ADD PUSH1 0x40 MSTORE DUP1 ISZERO PUSH2 0x1BCD JUMPI DUP2 PUSH1 0x20 ADD PUSH1 0x20 DUP3 MUL DUP1 CALLDATASIZE DUP4 CALLDATACOPY DUP1 DUP3 ADD SWAP2 POP POP SWAP1 POP JUMPDEST POP SWAP1 POP PUSH1 0x0 PUSH2 0x1BDA PUSH2 0x1049 JUMP JUMPDEST PUSH1 0xFF AND SWAP1 POP PUSH1 0x0 JUMPDEST DUP6 MLOAD DUP2 LT ISZERO PUSH2 0x1CC1 JUMPI DUP2 DUP6 DUP3 DUP2 MLOAD DUP2 LT PUSH2 0x1BFF JUMPI PUSH2 0x1BFE PUSH2 0x289A JUMP JUMPDEST JUMPDEST PUSH1 0x20 MUL PUSH1 0x20 ADD ADD MLOAD LT ISZERO PUSH2 0x1C66 JUMPI DUP5 DUP2 DUP2 MLOAD DUP2 LT PUSH2 0x1C20 JUMPI PUSH2 0x1C1F PUSH2 0x289A JUMP JUMPDEST JUMPDEST PUSH1 0x20 MUL PUSH1 0x20 ADD ADD MLOAD DUP3 PUSH1 0x40 MLOAD PUSH32 0x2B13AEF500000000000000000000000000000000000000000000000000000000 DUP2 MSTORE PUSH1 0x4 ADD PUSH2 0x1C5D SWAP3 SWAP2 SWAP1 PUSH2 0x2966 JUMP JUMPDEST PUSH1 0x40 MLOAD DUP1 SWAP2 SUB SWAP1 REVERT JUMPDEST PUSH1 0x0 PUSH2 0x1C8B DUP8 DUP4 DUP2 MLOAD DUP2 LT PUSH2 0x1C7E JUMPI PUSH2 0x1C7D PUSH2 0x289A JUMP JUMPDEST JUMPDEST PUSH1 0x20 MUL PUSH1 0x20 ADD ADD MLOAD PUSH2 0xE68 JUMP JUMPDEST SWAP1 POP DUP1 DUP5 DUP4 DUP2 MLOAD DUP2 LT PUSH2 0x1CA1 JUMPI PUSH2 0x1CA0 PUSH2 0x289A JUMP JUMPDEST JUMPDEST PUSH1 0x20 MUL PUSH1 0x20 ADD ADD DUP2 DUP2 MSTORE POP POP POP DUP1 DUP1 PUSH2 0x1CB9 SWAP1 PUSH2 0x26B2 JUMP JUMPDEST SWAP2 POP POP PUSH2 0x1BE2 JUMP JUMPDEST POP DUP2 SWAP3 POP POP POP SWAP3 SWAP2 POP POP JUMP JUMPDEST PUSH1 0x0 DUP1 PUSH1 0x0 DUP1 DUP5 CALLDATASIZE SUB DUP1 CALLDATALOAD SWAP4 POP PUSH1 0x20 DUP2 ADD SWAP1 POP DUP1 CALLDATALOAD SWAP3 POP PUSH1 0x20 DUP2 ADD SWAP1 POP DUP1 CALLDATALOAD PUSH1 0x0 BYTE SWAP2 POP POP PUSH1 0x1 DUP7 DUP3 DUP6 DUP6 PUSH1 0x40 MLOAD PUSH1 0x0 DUP2 MSTORE PUSH1 0x20 ADD PUSH1 0x40 MSTORE PUSH1 0x40 MLOAD PUSH2 0x1D15 SWAP5 SWAP4 SWAP3 SWAP2 SWAP1 PUSH2 0x29A8 JUMP JUMPDEST PUSH1 0x20 PUSH1 0x40 MLOAD PUSH1 0x20 DUP2 SUB SWAP1 DUP1 DUP5 SUB SWAP1 DUP6 GAS STATICCALL ISZERO DUP1 ISZERO PUSH2 0x1D37 JUMPI RETURNDATASIZE PUSH1 0x0 DUP1 RETURNDATACOPY RETURNDATASIZE PUSH1 0x0 REVERT JUMPDEST POP POP POP PUSH1 0x20 PUSH1 0x40 MLOAD SUB MLOAD SWAP4 POP POP POP POP SWAP3 SWAP2 POP POP JUMP JUMPDEST PUSH1 0x0 DUP1 PUSH1 0x0 DUP5 PUSH1 0x0 CALLDATASIZE SWAP1 POP PUSH2 0x1D61 SWAP2 SWAP1 PUSH2 0x267E JUMP JUMPDEST SWAP1 POP DUP1 CALLDATALOAD SWAP3 POP PUSH1 0x20 DUP2 ADD CALLDATALOAD SWAP2 POP PUSH1 0x21 DUP5 LT PUSH2 0x1DB3 JUMPI DUP4 PUSH1 0x40 MLOAD PUSH32 0xC000FC4200000000000000000000000000000000000000000000000000000000 DUP2 MSTORE PUSH1 0x4 ADD PUSH2 0x1DAA SWAP2 SWAP1 PUSH2 0x1F0E JUMP JUMPDEST PUSH1 0x40 MLOAD DUP1 SWAP2 SUB SWAP1 REVERT JUMPDEST PUSH1 0x8 DUP5 PUSH1 0x20 SUB MUL DUP3 SWAP1 SHR SWAP2 POP POP SWAP3 POP SWAP3 SWAP1 POP JUMP JUMPDEST PUSH1 0x0 DUP1 DUP3 PUSH1 0x1 SWAP1 SHL DUP5 AND SWAP1 POP PUSH1 0x0 DUP2 GT SWAP2 POP POP SWAP3 SWAP2 POP POP JUMP JUMPDEST PUSH1 0x0 DUP2 PUSH1 0x1 SWAP1 SHL DUP4 OR SWAP1 POP SWAP3 SWAP2 POP POP JUMP JUMPDEST PUSH1 0x0 PUSH1 0x40 MLOAD SWAP1 POP SWAP1 JUMP JUMPDEST PUSH1 0x0 DUP1 REVERT JUMPDEST PUSH1 0x0 DUP1 REVERT JUMPDEST PUSH1 0x0 DUP2 ISZERO ISZERO SWAP1 POP SWAP2 SWAP1 POP JUMP JUMPDEST PUSH2 0x1E1A DUP2 PUSH2 0x1E05 JUMP JUMPDEST DUP2 EQ PUSH2 0x1E25 JUMPI PUSH1 0x0 DUP1 REVERT JUMPDEST POP JUMP JUMPDEST PUSH1 0x0 DUP2 CALLDATALOAD SWAP1 POP PUSH2 0x1E37 DUP2 PUSH2 0x1E11 JUMP JUMPDEST SWAP3 SWAP2 POP POP JUMP JUMPDEST PUSH1 0x0 PUSH1 0x20 DUP3 DUP5 SUB SLT ISZERO PUSH2 0x1E53 JUMPI PUSH2 0x1E52 PUSH2 0x1DFB JUMP JUMPDEST JUMPDEST PUSH1 0x0 PUSH2 0x1E61 DUP5 DUP3 DUP6 ADD PUSH2 0x1E28 JUMP JUMPDEST SWAP2 POP POP SWAP3 SWAP2 POP POP JUMP JUMPDEST PUSH1 0x0 PUSH20 0xFFFFFFFFFFFFFFFFFFFFFFFFFFFFFFFFFFFFFFFF DUP3 AND SWAP1 POP SWAP2 SWAP1 POP JUMP JUMPDEST PUSH1 0x0 PUSH2 0x1E95 DUP3 PUSH2 0x1E6A JUMP JUMPDEST SWAP1 POP SWAP2 SWAP1 POP JUMP JUMPDEST PUSH2 0x1EA5 DUP2 PUSH2 0x1E8A JUMP JUMPDEST DUP2 EQ PUSH2 0x1EB0 JUMPI PUSH1 0x0 DUP1 REVERT JUMPDEST POP JUMP JUMPDEST PUSH1 0x0 DUP2 CALLDATALOAD SWAP1 POP PUSH2 0x1EC2 DUP2 PUSH2 0x1E9C JUMP JUMPDEST SWAP3 SWAP2 POP POP JUMP JUMPDEST PUSH1 0x0 PUSH1 0x20 DUP3 DUP5 SUB SLT ISZERO PUSH2 0x1EDE JUMPI PUSH2 0x1EDD PUSH2 0x1DFB JUMP JUMPDEST JUMPDEST PUSH1 0x0 PUSH2 0x1EEC DUP5 DUP3 DUP6 ADD PUSH2 0x1EB3 JUMP JUMPDEST SWAP2 POP POP SWAP3 SWAP2 POP POP JUMP JUMPDEST PUSH1 0x0 DUP2 SWAP1 POP SWAP2 SWAP1 POP JUMP JUMPDEST PUSH2 0x1F08 DUP2 PUSH2 0x1EF5 JUMP JUMPDEST DUP3 MSTORE POP POP JUMP JUMPDEST PUSH1 0x0 PUSH1 0x20 DUP3 ADD SWAP1 POP PUSH2 0x1F23 PUSH1 0x0 DUP4 ADD DUP5 PUSH2 0x1EFF JUMP JUMPDEST SWAP3 SWAP2 POP POP JUMP JUMPDEST PUSH1 0x0 DUP2 SWAP1 POP SWAP2 SWAP1 POP JUMP JUMPDEST PUSH2 0x1F3C DUP2 PUSH2 0x1F29 JUMP JUMPDEST DUP3 MSTORE POP POP JUMP JUMPDEST PUSH1 0x0 PUSH1 0x20 DUP3 ADD SWAP1 POP PUSH2 0x1F57 PUSH1 0x0 DUP4 ADD DUP5 PUSH2 0x1F33 JUMP JUMPDEST SWAP3 SWAP2 POP POP JUMP JUMPDEST PUSH1 0x0 PUSH1 0xFF DUP3 AND SWAP1 POP SWAP2 SWAP1 POP JUMP JUMPDEST PUSH2 0x1F73 DUP2 PUSH2 0x1F5D JUMP JUMPDEST DUP3 MSTORE POP POP JUMP JUMPDEST PUSH1 0x0 PUSH1 0x20 DUP3 ADD SWAP1 POP PUSH2 0x1F8E PUSH1 0x0 DUP4 ADD DUP5 PUSH2 0x1F6A JUMP JUMPDEST SWAP3 SWAP2 POP POP JUMP JUMPDEST PUSH2 0x1F9D DUP2 PUSH2 0x1EF5 JUMP JUMPDEST DUP2 EQ PUSH2 0x1FA8 JUMPI PUSH1 0x0 DUP1 REVERT JUMPDEST POP JUMP JUMPDEST PUSH1 0x0 DUP2 CALLDATALOAD SWAP1 POP PUSH2 0x1FBA DUP2 PUSH2 0x1F94 JUMP JUMPDEST SWAP3 SWAP2 POP POP JUMP JUMPDEST PUSH1 0x0 PUSH1 0x20 DUP3 DUP5 SUB SLT ISZERO PUSH2 0x1FD6 JUMPI PUSH2 0x1FD5 PUSH2 0x1DFB JUMP JUMPDEST JUMPDEST PUSH1 0x0 PUSH2 0x1FE4 DUP5 DUP3 DUP6 ADD PUSH2 0x1FAB JUMP JUMPDEST SWAP2 POP POP SWAP3 SWAP2 POP POP JUMP JUMPDEST PUSH1 0x0 DUP2 PUSH1 0x0 SIGNEXTEND SWAP1 POP SWAP2 SWAP1 POP JUMP JUMPDEST PUSH2 0x2003 DUP2 PUSH2 0x1FED JUMP JUMPDEST DUP3 MSTORE POP POP JUMP JUMPDEST PUSH1 0x0 PUSH1 0x20 DUP3 ADD SWAP1 POP PUSH2 0x201E PUSH1 0x0 DUP4 ADD DUP5 PUSH2 0x1FFA JUMP JUMPDEST SWAP3 SWAP2 POP POP JUMP JUMPDEST PUSH2 0x202D DUP2 PUSH2 0x1E8A JUMP JUMPDEST DUP3 MSTORE POP POP JUMP JUMPDEST PUSH1 0x0 PUSH1 0x20 DUP3 ADD SWAP1 POP PUSH2 0x2048 PUSH1 0x0 DUP4 ADD DUP5 PUSH2 0x2024 JUMP JUMPDEST SWAP3 SWAP2 POP POP JUMP JUMPDEST PUSH1 0x0 DUP1 REVERT JUMPDEST PUSH1 0x0 PUSH1 0x1F NOT PUSH1 0x1F DUP4 ADD AND SWAP1 POP SWAP2 SWAP1 POP JUMP JUMPDEST PUSH32 0x4E487B7100000000000000000000000000000000000000000000000000000000 PUSH1 0x0 MSTORE PUSH1 0x41 PUSH1 0x4 MSTORE PUSH1 0x24 PUSH1 0x0 REVERT JUMPDEST PUSH2 0x209C DUP3 PUSH2 0x2053 JUMP JUMPDEST DUP2 ADD DUP2 DUP2 LT PUSH8 0xFFFFFFFFFFFFFFFF DUP3 GT OR ISZERO PUSH2 0x20BB JUMPI PUSH2 0x20BA PUSH2 0x2064 JUMP JUMPDEST JUMPDEST DUP1 PUSH1 0x40 MSTORE POP POP POP JUMP JUMPDEST PUSH1 0x0 PUSH2 0x20CE PUSH2 0x1DF1 JUMP JUMPDEST SWAP1 POP PUSH2 0x20DA DUP3 DUP3 PUSH2 0x2093 JUMP JUMPDEST SWAP2 SWAP1 POP JUMP JUMPDEST PUSH1 0x0 PUSH8 0xFFFFFFFFFFFFFFFF DUP3 GT ISZERO PUSH2 0x20FA JUMPI PUSH2 0x20F9 PUSH2 0x2064 JUMP JUMPDEST JUMPDEST PUSH1 0x20 DUP3 MUL SWAP1 POP PUSH1 0x20 DUP2 ADD SWAP1 POP SWAP2 SWAP1 POP JUMP JUMPDEST PUSH1 0x0 DUP1 REVERT JUMPDEST PUSH1 0x0 PUSH2 0x2123 PUSH2 0x211E DUP5 PUSH2 0x20DF JUMP JUMPDEST PUSH2 0x20C4 JUMP JUMPDEST SWAP1 POP DUP1 DUP4 DUP3 MSTORE PUSH1 0x20 DUP3 ADD SWAP1 POP PUSH1 0x20 DUP5 MUL DUP4 ADD DUP6 DUP2 GT ISZERO PUSH2 0x2146 JUMPI PUSH2 0x2145 PUSH2 0x210B JUMP JUMPDEST JUMPDEST DUP4 JUMPDEST DUP2 DUP2 LT ISZERO PUSH2 0x216F JUMPI DUP1 PUSH2 0x215B DUP9 DUP3 PUSH2 0x1FAB JUMP JUMPDEST DUP5 MSTORE PUSH1 0x20 DUP5 ADD SWAP4 POP POP PUSH1 0x20 DUP2 ADD SWAP1 POP PUSH2 0x2148 JUMP JUMPDEST POP POP POP SWAP4 SWAP3 POP POP POP JUMP JUMPDEST PUSH1 0x0 DUP3 PUSH1 0x1F DUP4 ADD SLT PUSH2 0x218E JUMPI PUSH2 0x218D PUSH2 0x204E JUMP JUMPDEST JUMPDEST DUP2 CALLDATALOAD PUSH2 0x219E DUP5 DUP3 PUSH1 0x20 DUP7 ADD PUSH2 0x2110 JUMP JUMPDEST SWAP2 POP POP SWAP3 SWAP2 POP POP JUMP JUMPDEST PUSH1 0x0 PUSH1 0x20 DUP3 DUP5 SUB SLT ISZERO PUSH2 0x21BD JUMPI PUSH2 0x21BC PUSH2 0x1DFB JUMP JUMPDEST JUMPDEST PUSH1 0x0 DUP3 ADD CALLDATALOAD PUSH8 0xFFFFFFFFFFFFFFFF DUP2 GT ISZERO PUSH2 0x21DB JUMPI PUSH2 0x21DA PUSH2 0x1E00 JUMP JUMPDEST JUMPDEST PUSH2 0x21E7 DUP5 DUP3 DUP6 ADD PUSH2 0x2179 JUMP JUMPDEST SWAP2 POP POP SWAP3 SWAP2 POP POP JUMP JUMPDEST PUSH1 0x0 DUP2 MLOAD SWAP1 POP SWAP2 SWAP1 POP JUMP JUMPDEST PUSH1 0x0 DUP3 DUP3 MSTORE PUSH1 0x20 DUP3 ADD SWAP1 POP SWAP3 SWAP2 POP POP JUMP JUMPDEST PUSH1 0x0 JUMPDEST DUP4 DUP2 LT ISZERO PUSH2 0x222A JUMPI DUP1 DUP3 ADD MLOAD DUP2 DUP5 ADD MSTORE PUSH1 0x20 DUP2 ADD SWAP1 POP PUSH2 0x220F JUMP JUMPDEST PUSH1 0x0 DUP5 DUP5 ADD MSTORE POP POP POP POP JUMP JUMPDEST PUSH1 0x0 PUSH2 0x2241 DUP3 PUSH2 0x21F0 JUMP JUMPDEST PUSH2 0x224B DUP2 DUP6 PUSH2 0x21FB JUMP JUMPDEST SWAP4 POP PUSH2 0x225B DUP2 DUP6 PUSH1 0x20 DUP7 ADD PUSH2 0x220C JUMP JUMPDEST PUSH2 0x2264 DUP2 PUSH2 0x2053 JUMP JUMPDEST DUP5 ADD SWAP2 POP POP SWAP3 SWAP2 POP POP JUMP JUMPDEST PUSH1 0x0 PUSH1 0x20 DUP3 ADD SWAP1 POP DUP2 DUP2 SUB PUSH1 0x0 DUP4 ADD MSTORE PUSH2 0x2289 DUP2 DUP5 PUSH2 0x2236 JUMP JUMPDEST SWAP1 POP SWAP3 SWAP2 POP POP JUMP JUMPDEST PUSH2 0x229A DUP2 PUSH2 0x1E05 JUMP JUMPDEST DUP3 MSTORE POP POP JUMP JUMPDEST PUSH1 0x0 PUSH1 0x20 DUP3 ADD SWAP1 POP PUSH2 0x22B5 PUSH1 0x0 DUP4 ADD DUP5 PUSH2 0x2291 JUMP JUMPDEST SWAP3 SWAP2 POP POP JUMP JUMPDEST PUSH32 0x4E6F2076616C756520696D206265740000000000000000000000000000000000 PUSH1 0x0 DUP3 ADD MSTORE POP JUMP JUMPDEST PUSH1 0x0 PUSH2 0x22F1 PUSH1 0xF DUP4 PUSH2 0x21FB JUMP JUMPDEST SWAP2 POP PUSH2 0x22FC DUP3 PUSH2 0x22BB JUMP JUMPDEST PUSH1 0x20 DUP3 ADD SWAP1 POP SWAP2 SWAP1 POP JUMP JUMPDEST PUSH1 0x0 PUSH1 0x20 DUP3 ADD SWAP1 POP DUP2 DUP2 SUB PUSH1 0x0 DUP4 ADD MSTORE PUSH2 0x2320 DUP2 PUSH2 0x22E4 JUMP JUMPDEST SWAP1 POP SWAP2 SWAP1 POP JUMP JUMPDEST PUSH32 0x42657420616C726561647920706C616365640000000000000000000000000000 PUSH1 0x0 DUP3 ADD MSTORE POP JUMP JUMPDEST PUSH1 0x0 PUSH2 0x235D PUSH1 0x12 DUP4 PUSH2 0x21FB JUMP JUMPDEST SWAP2 POP PUSH2 0x2368 DUP3 PUSH2 0x2327 JUMP JUMPDEST PUSH1 0x20 DUP3 ADD SWAP1 POP SWAP2 SWAP1 POP JUMP JUMPDEST PUSH1 0x0 PUSH1 0x20 DUP3 ADD SWAP1 POP DUP2 DUP2 SUB PUSH1 0x0 DUP4 ADD MSTORE PUSH2 0x238C DUP2 PUSH2 0x2350 JUMP JUMPDEST SWAP1 POP SWAP2 SWAP1 POP JUMP JUMPDEST PUSH32 0x50617373656420746865206C696D697400000000000000000000000000000000 PUSH1 0x0 DUP3 ADD MSTORE POP JUMP JUMPDEST PUSH1 0x0 PUSH2 0x23C9 PUSH1 0x10 DUP4 PUSH2 0x21FB JUMP JUMPDEST SWAP2 POP PUSH2 0x23D4 DUP3 PUSH2 0x2393 JUMP JUMPDEST PUSH1 0x20 DUP3 ADD SWAP1 POP SWAP2 SWAP1 POP JUMP JUMPDEST PUSH1 0x0 PUSH1 0x20 DUP3 ADD SWAP1 POP DUP2 DUP2 SUB PUSH1 0x0 DUP4 ADD MSTORE PUSH2 0x23F8 DUP2 PUSH2 0x23BC JUMP JUMPDEST SWAP1 POP SWAP2 SWAP1 POP JUMP JUMPDEST PUSH32 0x4E487B7100000000000000000000000000000000000000000000000000000000 PUSH1 0x0 MSTORE PUSH1 0x11 PUSH1 0x4 MSTORE PUSH1 0x24 PUSH1 0x0 REVERT JUMPDEST PUSH1 0x0 PUSH2 0x2439 DUP3 PUSH2 0x1EF5 JUMP JUMPDEST SWAP2 POP PUSH2 0x2444 DUP4 PUSH2 0x1EF5 JUMP JUMPDEST SWAP3 POP DUP3 DUP3 ADD SWAP1 POP DUP1 DUP3 GT ISZERO PUSH2 0x245C JUMPI PUSH2 0x245B PUSH2 0x23FF JUMP JUMPDEST JUMPDEST SWAP3 SWAP2 POP POP JUMP JUMPDEST PUSH32 0x416C72656164792066696E616C697A6564000000000000000000000000000000 PUSH1 0x0 DUP3 ADD MSTORE POP JUMP JUMPDEST PUSH1 0x0 PUSH2 0x2498 PUSH1 0x11 DUP4 PUSH2 0x21FB JUMP JUMPDEST SWAP2 POP PUSH2 0x24A3 DUP3 PUSH2 0x2462 JUMP JUMPDEST PUSH1 0x20 DUP3 ADD SWAP1 POP SWAP2 SWAP1 POP JUMP JUMPDEST PUSH1 0x0 PUSH1 0x20 DUP3 ADD SWAP1 POP DUP2 DUP2 SUB PUSH1 0x0 DUP4 ADD MSTORE PUSH2 0x24C7 DUP2 PUSH2 0x248B JUMP JUMPDEST SWAP1 POP SWAP2 SWAP1 POP JUMP JUMPDEST PUSH32 0x496E76616C69642074696D657374616D70000000000000000000000000000000 PUSH1 0x0 DUP3 ADD MSTORE POP JUMP JUMPDEST PUSH1 0x0 PUSH2 0x2504 PUSH1 0x11 DUP4 PUSH2 0x21FB JUMP JUMPDEST SWAP2 POP PUSH2 0x250F DUP3 PUSH2 0x24CE JUMP JUMPDEST PUSH1 0x20 DUP3 ADD SWAP1 POP SWAP2 SWAP1 POP JUMP JUMPDEST PUSH1 0x0 PUSH1 0x20 DUP3 ADD SWAP1 POP DUP2 DUP2 SUB PUSH1 0x0 DUP4 ADD MSTORE PUSH2 0x2533 DUP2 PUSH2 0x24F7 JUMP JUMPDEST SWAP1 POP SWAP2 SWAP1 POP JUMP JUMPDEST PUSH32 0x4E6F742066696E616C697A656400000000000000000000000000000000000000 PUSH1 0x0 DUP3 ADD MSTORE POP JUMP JUMPDEST PUSH1 0x0 PUSH2 0x2570 PUSH1 0xD DUP4 PUSH2 0x21FB JUMP JUMPDEST SWAP2 POP PUSH2 0x257B DUP3 PUSH2 0x253A JUMP JUMPDEST PUSH1 0x20 DUP3 ADD SWAP1 POP SWAP2 SWAP1 POP JUMP JUMPDEST PUSH1 0x0 PUSH1 0x20 DUP3 ADD SWAP1 POP DUP2 DUP2 SUB PUSH1 0x0 DUP4 ADD MSTORE PUSH2 0x259F DUP2 PUSH2 0x2563 JUMP JUMPDEST SWAP1 POP SWAP2 SWAP1 POP JUMP JUMPDEST PUSH32 0x446964206E6F742077696E000000000000000000000000000000000000000000 PUSH1 0x0 DUP3 ADD MSTORE POP JUMP JUMPDEST PUSH1 0x0 PUSH2 0x25DC PUSH1 0xB DUP4 PUSH2 0x21FB JUMP JUMPDEST SWAP2 POP PUSH2 0x25E7 DUP3 PUSH2 0x25A6 JUMP JUMPDEST PUSH1 0x20 DUP3 ADD SWAP1 POP SWAP2 SWAP1 POP JUMP JUMPDEST PUSH1 0x0 PUSH1 0x20 DUP3 ADD SWAP1 POP DUP2 DUP2 SUB PUSH1 0x0 DUP4 ADD MSTORE PUSH2 0x260B DUP2 PUSH2 0x25CF JUMP JUMPDEST SWAP1 POP SWAP2 SWAP1 POP JUMP JUMPDEST PUSH32 0x416C726561647920636C61696D65640000000000000000000000000000000000 PUSH1 0x0 DUP3 ADD MSTORE POP JUMP JUMPDEST PUSH1 0x0 PUSH2 0x2648 PUSH1 0xF DUP4 PUSH2 0x21FB JUMP JUMPDEST SWAP2 POP PUSH2 0x2653 DUP3 PUSH2 0x2612 JUMP JUMPDEST PUSH1 0x20 DUP3 ADD SWAP1 POP SWAP2 SWAP1 POP JUMP JUMPDEST PUSH1 0x0 PUSH1 0x20 DUP3 ADD SWAP1 POP DUP2 DUP2 SUB PUSH1 0x0 DUP4 ADD MSTORE PUSH2 0x2677 DUP2 PUSH2 0x263B JUMP JUMPDEST SWAP1 POP SWAP2 SWAP1 POP JUMP JUMPDEST PUSH1 0x0 PUSH2 0x2689 DUP3 PUSH2 0x1EF5 JUMP JUMPDEST SWAP2 POP PUSH2 0x2694 DUP4 PUSH2 0x1EF5 JUMP JUMPDEST SWAP3 POP DUP3 DUP3 SUB SWAP1 POP DUP2 DUP2 GT ISZERO PUSH2 0x26AC JUMPI PUSH2 0x26AB PUSH2 0x23FF JUMP JUMPDEST JUMPDEST SWAP3 SWAP2 POP POP JUMP JUMPDEST PUSH1 0x0 PUSH2 0x26BD DUP3 PUSH2 0x1EF5 JUMP JUMPDEST SWAP2 POP PUSH32 0xFFFFFFFFFFFFFFFFFFFFFFFFFFFFFFFFFFFFFFFFFFFFFFFFFFFFFFFFFFFFFFFF DUP3 SUB PUSH2 0x26EF JUMPI PUSH2 0x26EE PUSH2 0x23FF JUMP JUMPDEST JUMPDEST PUSH1 0x1 DUP3 ADD SWAP1 POP SWAP2 SWAP1 POP JUMP JUMPDEST PUSH32 0x42657420626967676572207468616E2077696E6E696E6720706F6F6C00000000 PUSH1 0x0 DUP3 ADD MSTORE POP JUMP JUMPDEST PUSH1 0x0 PUSH2 0x2730 PUSH1 0x1C DUP4 PUSH2 0x21FB JUMP JUMPDEST SWAP2 POP PUSH2 0x273B DUP3 PUSH2 0x26FA JUMP JUMPDEST PUSH1 0x20 DUP3 ADD SWAP1 POP SWAP2 SWAP1 POP JUMP JUMPDEST PUSH1 0x0 PUSH1 0x20 DUP3 ADD SWAP1 POP DUP2 DUP2 SUB PUSH1 0x0 DUP4 ADD MSTORE PUSH2 0x275F DUP2 PUSH2 0x2723 JUMP JUMPDEST SWAP1 POP SWAP2 SWAP1 POP JUMP JUMPDEST PUSH1 0x0 PUSH2 0x2771 DUP3 PUSH2 0x1EF5 JUMP JUMPDEST SWAP2 POP PUSH2 0x277C DUP4 PUSH2 0x1EF5 JUMP JUMPDEST SWAP3 POP DUP3 DUP3 MUL PUSH2 0x278A DUP2 PUSH2 0x1EF5 JUMP JUMPDEST SWAP2 POP DUP3 DUP3 DIV DUP5 EQ DUP4 ISZERO OR PUSH2 0x27A1 JUMPI PUSH2 0x27A0 PUSH2 0x23FF JUMP JUMPDEST JUMPDEST POP SWAP3 SWAP2 POP POP JUMP JUMPDEST PUSH32 0x4E487B7100000000000000000000000000000000000000000000000000000000 PUSH1 0x0 MSTORE PUSH1 0x12 PUSH1 0x4 MSTORE PUSH1 0x24 PUSH1 0x0 REVERT JUMPDEST PUSH1 0x0 PUSH2 0x27E2 DUP3 PUSH2 0x1EF5 JUMP JUMPDEST SWAP2 POP PUSH2 0x27ED DUP4 PUSH2 0x1EF5 JUMP JUMPDEST SWAP3 POP DUP3 PUSH2 0x27FD JUMPI PUSH2 0x27FC PUSH2 0x27A8 JUMP JUMPDEST JUMPDEST DUP3 DUP3 DIV SWAP1 POP SWAP3 SWAP2 POP POP JUMP JUMPDEST PUSH32 0x4F776E61626C653A206E6577206F776E657220697320746865207A65726F2061 PUSH1 0x0 DUP3 ADD MSTORE PUSH32 0x6464726573730000000000000000000000000000000000000000000000000000 PUSH1 0x20 DUP3 ADD MSTORE POP JUMP JUMPDEST PUSH1 0x0 PUSH2 0x2864 PUSH1 0x26 DUP4 PUSH2 0x21FB JUMP JUMPDEST SWAP2 POP PUSH2 0x286F DUP3 PUSH2 0x2808 JUMP JUMPDEST PUSH1 0x40 DUP3 ADD SWAP1 POP SWAP2 SWAP1 POP JUMP JUMPDEST PUSH1 0x0 PUSH1 0x20 DUP3 ADD SWAP1 POP DUP2 DUP2 SUB PUSH1 0x0 DUP4 ADD MSTORE PUSH2 0x2893 DUP2 PUSH2 0x2857 JUMP JUMPDEST SWAP1 POP SWAP2 SWAP1 POP JUMP JUMPDEST PUSH32 0x4E487B7100000000000000000000000000000000000000000000000000000000 PUSH1 0x0 MSTORE PUSH1 0x32 PUSH1 0x4 MSTORE PUSH1 0x24 PUSH1 0x0 REVERT JUMPDEST PUSH32 0x4F776E61626C653A2063616C6C6572206973206E6F7420746865206F776E6572 PUSH1 0x0 DUP3 ADD MSTORE POP JUMP JUMPDEST PUSH1 0x0 PUSH2 0x28FF PUSH1 0x20 DUP4 PUSH2 0x21FB JUMP JUMPDEST SWAP2 POP PUSH2 0x290A DUP3 PUSH2 0x28C9 JUMP JUMPDEST PUSH1 0x20 DUP3 ADD SWAP1 POP SWAP2 SWAP1 POP JUMP JUMPDEST PUSH1 0x0 PUSH1 0x20 DUP3 ADD SWAP1 POP DUP2 DUP2 SUB PUSH1 0x0 DUP4 ADD MSTORE PUSH2 0x292E DUP2 PUSH2 0x28F2 JUMP JUMPDEST SWAP1 POP SWAP2 SWAP1 POP JUMP JUMPDEST PUSH1 0x0 PUSH2 0x2940 DUP3 PUSH2 0x1EF5 JUMP JUMPDEST SWAP2 POP PUSH2 0x294B DUP4 PUSH2 0x1EF5 JUMP JUMPDEST SWAP3 POP DUP3 PUSH2 0x295B JUMPI PUSH2 0x295A PUSH2 0x27A8 JUMP JUMPDEST JUMPDEST DUP3 DUP3 MOD SWAP1 POP SWAP3 SWAP2 POP POP JUMP JUMPDEST PUSH1 0x0 PUSH1 0x40 DUP3 ADD SWAP1 POP PUSH2 0x297B PUSH1 0x0 DUP4 ADD DUP6 PUSH2 0x1EFF JUMP JUMPDEST PUSH2 0x2988 PUSH1 0x20 DUP4 ADD DUP5 PUSH2 0x1EFF JUMP JUMPDEST SWAP4 SWAP3 POP POP POP JUMP JUMPDEST PUSH1 0x0 DUP2 SWAP1 POP SWAP2 SWAP1 POP JUMP JUMPDEST PUSH2 0x29A2 DUP2 PUSH2 0x298F JUMP JUMPDEST DUP3 MSTORE POP POP JUMP JUMPDEST PUSH1 0x0 PUSH1 0x80 DUP3 ADD SWAP1 POP PUSH2 0x29BD PUSH1 0x0 DUP4 ADD DUP8 PUSH2 0x2999 JUMP JUMPDEST PUSH2 0x29CA PUSH1 0x20 DUP4 ADD DUP7 PUSH2 0x1F6A JUMP JUMPDEST PUSH2 0x29D7 PUSH1 0x40 DUP4 ADD DUP6 PUSH2 0x2999 JUMP JUMPDEST PUSH2 0x29E4 PUSH1 0x60 DUP4 ADD DUP5 PUSH2 0x2999 JUMP JUMPDEST SWAP6 SWAP5 POP POP POP POP POP JUMP INVALID LOG2 PUSH5 0x6970667358 0x22 SLT KECCAK256 0x2C STATICCALL MUL 0xD0 SAR 0x2D PUSH15 0xC2C04F8F0BF75EEE54CC16D6AB8D00 0xCB EXP 0x4E 0xD0 0x4B 0xCC PUSH7 0x61F1D564736F6C PUSH4 0x43000813 STOP CALLER "
		},
		"gasEstimates": {
			"creation": {
				"codeDepositCost": "2157400",
				"executionCost": "infinite",
				"totalCost": "infinite"
			},
			"external": {
				"aggregateValues(uint256[])": "infinite",
				"bets(address)": "2872",
				"claim()": "infinite",
				"claims(address)": "2890",
				"clock()": "2496",
				"end()": "2473",
				"endLimit()": "2562",
				"expected()": "2497",
				"extractTimestampsAndAssertAllAreEqual()": "infinite",
				"finalize()": "infinite",
				"getAuthorisedSignerIndex(address)": "infinite",
				"getClock()": "2526",
				"getDataServiceId()": "infinite",
				"getUniqueSignersThreshold()": "453",
				"noPool()": "2518",
				"outcome()": "2519",
				"owner()": "2567",
				"payout(uint256)": "infinite",
				"placeBet(bool)": "infinite",
				"renounceOwnership()": "30509",
				"setClock(uint256)": "24829",
				"stakes(address)": "2860",
				"transferOwnership(address)": "30810",
				"validateTimestamp(uint256)": "494",
				"yesPool()": "2518"
			}
		},
		"methodIdentifiers": {
			"aggregateValues(uint256[])": "b24ebfcc",
			"bets(address)": "89a78f1a",
			"claim()": "4e71d92d",
			"claims(address)": "c6788bdd",
			"clock()": "91ddadf4",
			"end()": "efbe1c1c",
			"endLimit()": "7a1fc2e2",
			"expected()": "1ce62383",
			"extractTimestampsAndAssertAllAreEqual()": "55a547d5",
			"finalize()": "4bb278f3",
			"getAuthorisedSignerIndex(address)": "3ce142f5",
			"getClock()": "eed947b1",
			"getDataServiceId()": "c274583a",
			"getUniqueSignersThreshold()": "f90c4924",
			"noPool()": "a3b5afb1",
			"outcome()": "27793f87",
			"owner()": "8da5cb5b",
			"payout(uint256)": "e1152343",
			"placeBet(bool)": "096a3778",
			"renounceOwnership()": "715018a6",
			"setClock(uint256)": "51536c0f",
			"stakes(address)": "16934fc4",
			"transferOwnership(address)": "f2fde38b",
			"validateTimestamp(uint256)": "f50b2efe",
			"yesPool()": "6f1d4ea4"
		}
	},
	"abi": [
		{
			"inputs": [
				{
					"internalType": "bytes32",
					"name": "_symbol",
					"type": "bytes32"
				},
				{
					"internalType": "uint256",
					"name": "_expected",
					"type": "uint256"
				},
				{
					"internalType": "uint256",
					"name": "_end",
					"type": "uint256"
				}
			],
			"stateMutability": "nonpayable",
			"type": "constructor"
		},
		{
			"inputs": [],
			"name": "CalldataMustHaveValidPayload",
			"type": "error"
		},
		{
			"inputs": [],
			"name": "CalldataOverOrUnderFlow",
			"type": "error"
		},
		{
			"inputs": [],
			"name": "CanNotPickMedianOfEmptyArray",
			"type": "error"
		},
		{
			"inputs": [],
			"name": "DataPackageTimestampMustNotBeZero",
			"type": "error"
		},
		{
			"inputs": [],
			"name": "DataPackageTimestampsMustBeEqual",
			"type": "error"
		},
		{
			"inputs": [],
			"name": "DataTimestampCannotBeZero",
			"type": "error"
		},
		{
			"inputs": [],
			"name": "EachSignerMustProvideTheSameValue",
			"type": "error"
		},
		{
			"inputs": [],
			"name": "EmptyCalldataPointersArr",
			"type": "error"
		},
		{
			"inputs": [],
			"name": "GetDataServiceIdNotImplemented",
			"type": "error"
		},
		{
			"inputs": [],
			"name": "IncorrectUnsignedMetadataSize",
			"type": "error"
		},
		{
			"inputs": [
				{
					"internalType": "uint256",
					"name": "receivedSignersCount",
					"type": "uint256"
				},
				{
					"internalType": "uint256",
					"name": "requiredSignersCount",
					"type": "uint256"
				}
			],
			"name": "InsufficientNumberOfUniqueSigners",
			"type": "error"
		},
		{
			"inputs": [],
			"name": "InvalidCalldataPointer",
			"type": "error"
		},
		{
			"inputs": [],
			"name": "RedstonePayloadMustHaveAtLeastOneDataPackage",
			"type": "error"
		},
		{
			"inputs": [
				{
					"internalType": "address",
					"name": "receivedSigner",
					"type": "address"
				}
			],
			"name": "SignerNotAuthorised",
			"type": "error"
		},
		{
			"inputs": [],
			"name": "TimestampsMustBeEqual",
			"type": "error"
		},
		{
			"inputs": [
				{
					"internalType": "uint256",
					"name": "valueByteSize",
					"type": "uint256"
				}
			],
			"name": "TooLargeValueByteSize",
			"type": "error"
		},
		{
			"anonymous": false,
			"inputs": [
				{
					"indexed": true,
					"internalType": "address",
					"name": "previousOwner",
					"type": "address"
				},
				{
					"indexed": true,
					"internalType": "address",
					"name": "newOwner",
					"type": "address"
				}
			],
			"name": "OwnershipTransferred",
			"type": "event"
		},
		{
			"inputs": [
				{
					"internalType": "uint256[]",
					"name": "values",
					"type": "uint256[]"
				}
			],
			"name": "aggregateValues",
			"outputs": [
				{
					"internalType": "uint256",
					"name": "",
					"type": "uint256"
				}
			],
			"stateMutability": "view",
			"type": "function"
		},
		{
			"inputs": [
				{
					"internalType": "address",
					"name": "",
					"type": "address"
				}
			],
			"name": "bets",
			"outputs": [
				{
					"internalType": "int8",
					"name": "",
					"type": "int8"
				}
			],
			"stateMutability": "view",
			"type": "function"
		},
		{
			"inputs": [],
			"name": "claim",
			"outputs": [],
			"stateMutability": "nonpayable",
			"type": "function"
		},
		{
			"inputs": [
				{
					"internalType": "address",
					"name": "",
					"type": "address"
				}
			],
			"name": "claims",
			"outputs": [
				{
					"internalType": "bool",
					"name": "",
					"type": "bool"
				}
			],
			"stateMutability": "view",
			"type": "function"
		},
		{
			"inputs": [],
			"name": "clock",
			"outputs": [
				{
					"internalType": "uint256",
					"name": "",
					"type": "uint256"
				}
			],
			"stateMutability": "view",
			"type": "function"
		},
		{
			"inputs": [],
			"name": "end",
			"outputs": [
				{
					"internalType": "uint256",
					"name": "",
					"type": "uint256"
				}
			],
			"stateMutability": "view",
			"type": "function"
		},
		{
			"inputs": [],
			"name": "endLimit",
			"outputs": [
				{
					"internalType": "uint256",
					"name": "",
					"type": "uint256"
				}
			],
			"stateMutability": "view",
			"type": "function"
		},
		{
			"inputs": [],
			"name": "expected",
			"outputs": [
				{
					"internalType": "uint256",
					"name": "",
					"type": "uint256"
				}
			],
			"stateMutability": "view",
			"type": "function"
		},
		{
			"inputs": [],
			"name": "extractTimestampsAndAssertAllAreEqual",
			"outputs": [
				{
					"internalType": "uint256",
					"name": "extractedTimestamp",
					"type": "uint256"
				}
			],
			"stateMutability": "pure",
			"type": "function"
		},
		{
			"inputs": [],
			"name": "finalize",
			"outputs": [],
			"stateMutability": "nonpayable",
			"type": "function"
		},
		{
			"inputs": [
				{
					"internalType": "address",
					"name": "signerAddress",
					"type": "address"
				}
			],
			"name": "getAuthorisedSignerIndex",
			"outputs": [
				{
					"internalType": "uint8",
					"name": "",
					"type": "uint8"
				}
			],
			"stateMutability": "view",
			"type": "function"
		},
		{
			"inputs": [],
			"name": "getClock",
			"outputs": [
				{
					"internalType": "uint256",
					"name": "",
					"type": "uint256"
				}
			],
			"stateMutability": "view",
			"type": "function"
		},
		{
			"inputs": [],
			"name": "getDataServiceId",
			"outputs": [
				{
					"internalType": "string",
					"name": "",
					"type": "string"
				}
			],
			"stateMutability": "view",
			"type": "function"
		},
		{
			"inputs": [],
			"name": "getUniqueSignersThreshold",
			"outputs": [
				{
					"internalType": "uint8",
					"name": "",
					"type": "uint8"
				}
			],
			"stateMutability": "view",
			"type": "function"
		},
		{
			"inputs": [],
			"name": "noPool",
			"outputs": [
				{
					"internalType": "uint256",
					"name": "",
					"type": "uint256"
				}
			],
			"stateMutability": "view",
			"type": "function"
		},
		{
			"inputs": [],
			"name": "outcome",
			"outputs": [
				{
					"internalType": "int256",
					"name": "",
					"type": "int256"
				}
			],
			"stateMutability": "view",
			"type": "function"
		},
		{
			"inputs": [],
			"name": "owner",
			"outputs": [
				{
					"internalType": "address",
					"name": "",
					"type": "address"
				}
			],
			"stateMutability": "view",
			"type": "function"
		},
		{
			"inputs": [
				{
					"internalType": "uint256",
					"name": "bet",
					"type": "uint256"
				}
			],
			"name": "payout",
			"outputs": [
				{
					"internalType": "uint256",
					"name": "",
					"type": "uint256"
				}
			],
			"stateMutability": "view",
			"type": "function"
		},
		{
			"inputs": [
				{
					"internalType": "bool",
					"name": "_outcome",
					"type": "bool"
				}
			],
			"name": "placeBet",
			"outputs": [],
			"stateMutability": "payable",
			"type": "function"
		},
		{
			"inputs": [],
			"name": "renounceOwnership",
			"outputs": [],
			"stateMutability": "nonpayable",
			"type": "function"
		},
		{
			"inputs": [
				{
					"internalType": "uint256",
					"name": "timestamp",
					"type": "uint256"
				}
			],
			"name": "setClock",
			"outputs": [],
			"stateMutability": "nonpayable",
			"type": "function"
		},
		{
			"inputs": [
				{
					"internalType": "address",
					"name": "",
					"type": "address"
				}
			],
			"name": "stakes",
			"outputs": [
				{
					"internalType": "uint256",
					"name": "",
					"type": "uint256"
				}
			],
			"stateMutability": "view",
			"type": "function"
		},
		{
			"inputs": [
				{
					"internalType": "address",
					"name": "newOwner",
					"type": "address"
				}
			],
			"name": "transferOwnership",
			"outputs": [],
			"stateMutability": "nonpayable",
			"type": "function"
		},
		{
			"inputs": [
				{
					"internalType": "uint256",
					"name": "receivedTimestampMilliseconds",
					"type": "uint256"
				}
			],
			"name": "validateTimestamp",
			"outputs": [],
			"stateMutability": "view",
			"type": "function"
		},
		{
			"inputs": [],
			"name": "yesPool",
			"outputs": [
				{
					"internalType": "uint256",
					"name": "",
					"type": "uint256"
				}
			],
			"stateMutability": "view",
			"type": "function"
		}
	]
}