{
	"data": {
		"bytecode": {
			"linkReferences": {},
			"object": "60806040525f600255348015610013575f80fd5b50604051610e92380380610e928339818101604052810190610035919061014e565b825f806101000a81548173ffffffffffffffffffffffffffffffffffffffff021916908373ffffffffffffffffffffffffffffffffffffffff160217905550816001819055508060038190555050505061019e565b5f80fd5b5f73ffffffffffffffffffffffffffffffffffffffff82169050919050565b5f6100b78261008e565b9050919050565b6100c7816100ad565b81146100d1575f80fd5b50565b5f815190506100e2816100be565b92915050565b5f819050919050565b6100fa816100e8565b8114610104575f80fd5b50565b5f81519050610115816100f1565b92915050565b5f819050919050565b61012d8161011b565b8114610137575f80fd5b50565b5f8151905061014881610124565b92915050565b5f805f606084860312156101655761016461008a565b5b5f610172868287016100d4565b935050602061018386828701610107565b92505060406101948682870161013a565b9150509250925092565b610ce7806101ab5f395ff3fe6080604052600436106100a6575f3560e01c80634bb278f3116100635780634bb278f3146101aa5780634e71d92d146101c05780637a1fc2e2146101d657806386e514271461020057806389a78f1a1461022a578063efbe1c1c14610266576100a6565b8063096a3778146100aa57806314bc116f146100c657806316934fc4146100f05780631ce623831461012c57806327793f871461015657806328ea6dda14610180575b5f80fd5b6100c460048036038101906100bf9190610776565b610290565b005b3480156100d1575f80fd5b506100da6104bf565b6040516100e791906107b9565b60405180910390f35b3480156100fb575f80fd5b506101166004803603810190610111919061082c565b6104c5565b60405161012391906107b9565b60405180910390f35b348015610137575f80fd5b506101406104da565b60405161014d919061086f565b60405180910390f35b348015610161575f80fd5b5061016a6104e0565b604051610177919061086f565b60405180910390f35b34801561018b575f80fd5b506101946104e6565b6040516101a191906107b9565b60405180910390f35b3480156101b5575f80fd5b506101be6104ec565b005b3480156101cb575f80fd5b506101d4610662565b005b3480156101e1575f80fd5b506101ea6106f2565b6040516101f791906107b9565b60405180910390f35b34801561020b575f80fd5b506102146106f8565b60405161022191906108e3565b60405180910390f35b348015610235575f80fd5b50610250600480360381019061024b919061082c565b61071b565b60405161025d9190610916565b60405180910390f35b348015610271575f80fd5b5061027a610737565b60405161028791906107b9565b60405180910390f35b5f34036102d2576040517f08c379a00000000000000000000000000000000000000000000000000000000081526004016102c990610989565b60405180910390fd5b5f60055f3373ffffffffffffffffffffffffffffffffffffffff1673ffffffffffffffffffffffffffffffffffffffff1681526020019081526020015f205f9054906101000a90045f0b5f0b1461035e576040517f08c379a0000000000000000000000000000000000000000000000000000000008152600401610355906109f1565b60405180910390fd5b80156103d957600160055f3373ffffffffffffffffffffffffffffffffffffffff1673ffffffffffffffffffffffffffffffffffffffff1681526020019081526020015f205f6101000a81548160ff02191690835f0b60ff1602179055503460075f8282546103cd9190610a3c565b92505081905550610469565b7fffffffffffffffffffffffffffffffffffffffffffffffffffffffffffffffff60055f3373ffffffffffffffffffffffffffffffffffffffff1673ffffffffffffffffffffffffffffffffffffffff1681526020019081526020015f205f6101000a81548160ff02191690835f0b60ff1602179055503460085f8282546104619190610a3c565b925050819055505b3460065f3373ffffffffffffffffffffffffffffffffffffffff1673ffffffffffffffffffffffffffffffffffffffff1681526020019081526020015f205f8282546104b59190610a3c565b9250508190555050565b60085481565b6006602052805f5260405f205f915090505481565b60015481565b60025481565b60075481565b6003544211610530576040517f08c379a000000000000000000000000000000000000000000000000000000000815260040161052790610ab9565b60405180910390fd5b6004546003546105409190610a3c565b4210610581576040517f08c379a000000000000000000000000000000000000000000000000000000000815260040161057890610b21565b60405180910390fd5b5f805f805f805f9054906101000a900473ffffffffffffffffffffffffffffffffffffffff1673ffffffffffffffffffffffffffffffffffffffff1663feaf968c6040518163ffffffff1660e01b815260040160a060405180830381865afa1580156105ef573d5f803e3d5ffd5b505050506040513d601f19601f820116820180604052508101906106139190610bd2565b94509450945094509450600154841261063357600160028190555061065b565b7fffffffffffffffffffffffffffffffffffffffffffffffffffffffffffffffff6002819055505b5050505050565b60025460055f3373ffffffffffffffffffffffffffffffffffffffff1673ffffffffffffffffffffffffffffffffffffffff1681526020019081526020015f205f9054906101000a90045f0b5f0b146106f0576040517f08c379a00000000000000000000000000000000000000000000000000000000081526004016106e790610c93565b60405180910390fd5b565b60045481565b5f8054906101000a900473ffffffffffffffffffffffffffffffffffffffff1681565b6005602052805f5260405f205f915054906101000a90045f0b81565b60035481565b5f80fd5b5f8115159050919050565b61075581610741565b811461075f575f80fd5b50565b5f813590506107708161074c565b92915050565b5f6020828403121561078b5761078a61073d565b5b5f61079884828501610762565b91505092915050565b5f819050919050565b6107b3816107a1565b82525050565b5f6020820190506107cc5f8301846107aa565b92915050565b5f73ffffffffffffffffffffffffffffffffffffffff82169050919050565b5f6107fb826107d2565b9050919050565b61080b816107f1565b8114610815575f80fd5b50565b5f8135905061082681610802565b92915050565b5f602082840312156108415761084061073d565b5b5f61084e84828501610818565b91505092915050565b5f819050919050565b61086981610857565b82525050565b5f6020820190506108825f830184610860565b92915050565b5f819050919050565b5f6108ab6108a66108a1846107d2565b610888565b6107d2565b9050919050565b5f6108bc82610891565b9050919050565b5f6108cd826108b2565b9050919050565b6108dd816108c3565b82525050565b5f6020820190506108f65f8301846108d4565b92915050565b5f815f0b9050919050565b610910816108fc565b82525050565b5f6020820190506109295f830184610907565b92915050565b5f82825260208201905092915050565b7f4e6f2076616c756520696d2062657400000000000000000000000000000000005f82015250565b5f610973600f8361092f565b915061097e8261093f565b602082019050919050565b5f6020820190508181035f8301526109a081610967565b9050919050565b7f42657420616c726561647920706c6163656400000000000000000000000000005f82015250565b5f6109db60128361092f565b91506109e6826109a7565b602082019050919050565b5f6020820190508181035f830152610a08816109cf565b9050919050565b7f4e487b71000000000000000000000000000000000000000000000000000000005f52601160045260245ffd5b5f610a46826107a1565b9150610a51836107a1565b9250828201905080821115610a6957610a68610a0f565b5b92915050565b7f496e2070726f67726573730000000000000000000000000000000000000000005f82015250565b5f610aa3600b8361092f565b9150610aae82610a6f565b602082019050919050565b5f6020820190508181035f830152610ad081610a97565b9050919050565b7f50617373656420746865206c696d6974000000000000000000000000000000005f82015250565b5f610b0b60108361092f565b9150610b1682610ad7565b602082019050919050565b5f6020820190508181035f830152610b3881610aff565b9050919050565b5f69ffffffffffffffffffff82169050919050565b610b5d81610b3f565b8114610b67575f80fd5b50565b5f81519050610b7881610b54565b92915050565b610b8781610857565b8114610b91575f80fd5b50565b5f81519050610ba281610b7e565b92915050565b610bb1816107a1565b8114610bbb575f80fd5b50565b5f81519050610bcc81610ba8565b92915050565b5f805f805f60a08688031215610beb57610bea61073d565b5b5f610bf888828901610b6a565b9550506020610c0988828901610b94565b9450506040610c1a88828901610bbe565b9350506060610c2b88828901610bbe565b9250506080610c3c88828901610b6a565b9150509295509295909350565b7f446964206e6f742077696e0000000000000000000000000000000000000000005f82015250565b5f610c7d600b8361092f565b9150610c8882610c49565b602082019050919050565b5f6020820190508181035f830152610caa81610c71565b905091905056fea264697066735822122004fdb0c394908fca2a58a9fb8bb21a721b259f9b1d2aa36e1672f7858cec224264736f6c634300081a0033",
			"opcodes": "PUSH1 0x80 PUSH1 0x40 MSTORE PUSH0 PUSH1 0x2 SSTORE CALLVALUE DUP1 ISZERO PUSH2 0x13 JUMPI PUSH0 DUP1 REVERT JUMPDEST POP PUSH1 0x40 MLOAD PUSH2 0xE92 CODESIZE SUB DUP1 PUSH2 0xE92 DUP4 CODECOPY DUP2 DUP2 ADD PUSH1 0x40 MSTORE DUP2 ADD SWAP1 PUSH2 0x35 SWAP2 SWAP1 PUSH2 0x14E JUMP JUMPDEST DUP3 PUSH0 DUP1 PUSH2 0x100 EXP DUP2 SLOAD DUP2 PUSH20 0xFFFFFFFFFFFFFFFFFFFFFFFFFFFFFFFFFFFFFFFF MUL NOT AND SWAP1 DUP4 PUSH20 0xFFFFFFFFFFFFFFFFFFFFFFFFFFFFFFFFFFFFFFFF AND MUL OR SWAP1 SSTORE POP DUP2 PUSH1 0x1 DUP2 SWAP1 SSTORE POP DUP1 PUSH1 0x3 DUP2 SWAP1 SSTORE POP POP POP POP PUSH2 0x19E JUMP JUMPDEST PUSH0 DUP1 REVERT JUMPDEST PUSH0 PUSH20 0xFFFFFFFFFFFFFFFFFFFFFFFFFFFFFFFFFFFFFFFF DUP3 AND SWAP1 POP SWAP2 SWAP1 POP JUMP JUMPDEST PUSH0 PUSH2 0xB7 DUP3 PUSH2 0x8E JUMP JUMPDEST SWAP1 POP SWAP2 SWAP1 POP JUMP JUMPDEST PUSH2 0xC7 DUP2 PUSH2 0xAD JUMP JUMPDEST DUP2 EQ PUSH2 0xD1 JUMPI PUSH0 DUP1 REVERT JUMPDEST POP JUMP JUMPDEST PUSH0 DUP2 MLOAD SWAP1 POP PUSH2 0xE2 DUP2 PUSH2 0xBE JUMP JUMPDEST SWAP3 SWAP2 POP POP JUMP JUMPDEST PUSH0 DUP2 SWAP1 POP SWAP2 SWAP1 POP JUMP JUMPDEST PUSH2 0xFA DUP2 PUSH2 0xE8 JUMP JUMPDEST DUP2 EQ PUSH2 0x104 JUMPI PUSH0 DUP1 REVERT JUMPDEST POP JUMP JUMPDEST PUSH0 DUP2 MLOAD SWAP1 POP PUSH2 0x115 DUP2 PUSH2 0xF1 JUMP JUMPDEST SWAP3 SWAP2 POP POP JUMP JUMPDEST PUSH0 DUP2 SWAP1 POP SWAP2 SWAP1 POP JUMP JUMPDEST PUSH2 0x12D DUP2 PUSH2 0x11B JUMP JUMPDEST DUP2 EQ PUSH2 0x137 JUMPI PUSH0 DUP1 REVERT JUMPDEST POP JUMP JUMPDEST PUSH0 DUP2 MLOAD SWAP1 POP PUSH2 0x148 DUP2 PUSH2 0x124 JUMP JUMPDEST SWAP3 SWAP2 POP POP JUMP JUMPDEST PUSH0 DUP1 PUSH0 PUSH1 0x60 DUP5 DUP7 SUB SLT ISZERO PUSH2 0x165 JUMPI PUSH2 0x164 PUSH2 0x8A JUMP JUMPDEST JUMPDEST PUSH0 PUSH2 0x172 DUP7 DUP3 DUP8 ADD PUSH2 0xD4 JUMP JUMPDEST SWAP4 POP POP PUSH1 0x20 PUSH2 0x183 DUP7 DUP3 DUP8 ADD PUSH2 0x107 JUMP JUMPDEST SWAP3 POP POP PUSH1 0x40 PUSH2 0x194 DUP7 DUP3 DUP8 ADD PUSH2 0x13A JUMP JUMPDEST SWAP2 POP POP SWAP3 POP SWAP3 POP SWAP3 JUMP JUMPDEST PUSH2 0xCE7 DUP1 PUSH2 0x1AB PUSH0 CODECOPY PUSH0 RETURN INVALID PUSH1 0x80 PUSH1 0x40 MSTORE PUSH1 0x4 CALLDATASIZE LT PUSH2 0xA6 JUMPI PUSH0 CALLDATALOAD PUSH1 0xE0 SHR DUP1 PUSH4 0x4BB278F3 GT PUSH2 0x63 JUMPI DUP1 PUSH4 0x4BB278F3 EQ PUSH2 0x1AA JUMPI DUP1 PUSH4 0x4E71D92D EQ PUSH2 0x1C0 JUMPI DUP1 PUSH4 0x7A1FC2E2 EQ PUSH2 0x1D6 JUMPI DUP1 PUSH4 0x86E51427 EQ PUSH2 0x200 JUMPI DUP1 PUSH4 0x89A78F1A EQ PUSH2 0x22A JUMPI DUP1 PUSH4 0xEFBE1C1C EQ PUSH2 0x266 JUMPI PUSH2 0xA6 JUMP JUMPDEST DUP1 PUSH4 0x96A3778 EQ PUSH2 0xAA JUMPI DUP1 PUSH4 0x14BC116F EQ PUSH2 0xC6 JUMPI DUP1 PUSH4 0x16934FC4 EQ PUSH2 0xF0 JUMPI DUP1 PUSH4 0x1CE62383 EQ PUSH2 0x12C JUMPI DUP1 PUSH4 0x27793F87 EQ PUSH2 0x156 JUMPI DUP1 PUSH4 0x28EA6DDA EQ PUSH2 0x180 JUMPI JUMPDEST PUSH0 DUP1 REVERT JUMPDEST PUSH2 0xC4 PUSH1 0x4 DUP1 CALLDATASIZE SUB DUP2 ADD SWAP1 PUSH2 0xBF SWAP2 SWAP1 PUSH2 0x776 JUMP JUMPDEST PUSH2 0x290 JUMP JUMPDEST STOP JUMPDEST CALLVALUE DUP1 ISZERO PUSH2 0xD1 JUMPI PUSH0 DUP1 REVERT JUMPDEST POP PUSH2 0xDA PUSH2 0x4BF JUMP JUMPDEST PUSH1 0x40 MLOAD PUSH2 0xE7 SWAP2 SWAP1 PUSH2 0x7B9 JUMP JUMPDEST PUSH1 0x40 MLOAD DUP1 SWAP2 SUB SWAP1 RETURN JUMPDEST CALLVALUE DUP1 ISZERO PUSH2 0xFB JUMPI PUSH0 DUP1 REVERT JUMPDEST POP PUSH2 0x116 PUSH1 0x4 DUP1 CALLDATASIZE SUB DUP2 ADD SWAP1 PUSH2 0x111 SWAP2 SWAP1 PUSH2 0x82C JUMP JUMPDEST PUSH2 0x4C5 JUMP JUMPDEST PUSH1 0x40 MLOAD PUSH2 0x123 SWAP2 SWAP1 PUSH2 0x7B9 JUMP JUMPDEST PUSH1 0x40 MLOAD DUP1 SWAP2 SUB SWAP1 RETURN JUMPDEST CALLVALUE DUP1 ISZERO PUSH2 0x137 JUMPI PUSH0 DUP1 REVERT JUMPDEST POP PUSH2 0x140 PUSH2 0x4DA JUMP JUMPDEST PUSH1 0x40 MLOAD PUSH2 0x14D SWAP2 SWAP1 PUSH2 0x86F JUMP JUMPDEST PUSH1 0x40 MLOAD DUP1 SWAP2 SUB SWAP1 RETURN JUMPDEST CALLVALUE DUP1 ISZERO PUSH2 0x161 JUMPI PUSH0 DUP1 REVERT JUMPDEST POP PUSH2 0x16A PUSH2 0x4E0 JUMP JUMPDEST PUSH1 0x40 MLOAD PUSH2 0x177 SWAP2 SWAP1 PUSH2 0x86F JUMP JUMPDEST PUSH1 0x40 MLOAD DUP1 SWAP2 SUB SWAP1 RETURN JUMPDEST CALLVALUE DUP1 ISZERO PUSH2 0x18B JUMPI PUSH0 DUP1 REVERT JUMPDEST POP PUSH2 0x194 PUSH2 0x4E6 JUMP JUMPDEST PUSH1 0x40 MLOAD PUSH2 0x1A1 SWAP2 SWAP1 PUSH2 0x7B9 JUMP JUMPDEST PUSH1 0x40 MLOAD DUP1 SWAP2 SUB SWAP1 RETURN JUMPDEST CALLVALUE DUP1 ISZERO PUSH2 0x1B5 JUMPI PUSH0 DUP1 REVERT JUMPDEST POP PUSH2 0x1BE PUSH2 0x4EC JUMP JUMPDEST STOP JUMPDEST CALLVALUE DUP1 ISZERO PUSH2 0x1CB JUMPI PUSH0 DUP1 REVERT JUMPDEST POP PUSH2 0x1D4 PUSH2 0x662 JUMP JUMPDEST STOP JUMPDEST CALLVALUE DUP1 ISZERO PUSH2 0x1E1 JUMPI PUSH0 DUP1 REVERT JUMPDEST POP PUSH2 0x1EA PUSH2 0x6F2 JUMP JUMPDEST PUSH1 0x40 MLOAD PUSH2 0x1F7 SWAP2 SWAP1 PUSH2 0x7B9 JUMP JUMPDEST PUSH1 0x40 MLOAD DUP1 SWAP2 SUB SWAP1 RETURN JUMPDEST CALLVALUE DUP1 ISZERO PUSH2 0x20B JUMPI PUSH0 DUP1 REVERT JUMPDEST POP PUSH2 0x214 PUSH2 0x6F8 JUMP JUMPDEST PUSH1 0x40 MLOAD PUSH2 0x221 SWAP2 SWAP1 PUSH2 0x8E3 JUMP JUMPDEST PUSH1 0x40 MLOAD DUP1 SWAP2 SUB SWAP1 RETURN JUMPDEST CALLVALUE DUP1 ISZERO PUSH2 0x235 JUMPI PUSH0 DUP1 REVERT JUMPDEST POP PUSH2 0x250 PUSH1 0x4 DUP1 CALLDATASIZE SUB DUP2 ADD SWAP1 PUSH2 0x24B SWAP2 SWAP1 PUSH2 0x82C JUMP JUMPDEST PUSH2 0x71B JUMP JUMPDEST PUSH1 0x40 MLOAD PUSH2 0x25D SWAP2 SWAP1 PUSH2 0x916 JUMP JUMPDEST PUSH1 0x40 MLOAD DUP1 SWAP2 SUB SWAP1 RETURN JUMPDEST CALLVALUE DUP1 ISZERO PUSH2 0x271 JUMPI PUSH0 DUP1 REVERT JUMPDEST POP PUSH2 0x27A PUSH2 0x737 JUMP JUMPDEST PUSH1 0x40 MLOAD PUSH2 0x287 SWAP2 SWAP1 PUSH2 0x7B9 JUMP JUMPDEST PUSH1 0x40 MLOAD DUP1 SWAP2 SUB SWAP1 RETURN JUMPDEST PUSH0 CALLVALUE SUB PUSH2 0x2D2 JUMPI PUSH1 0x40 MLOAD PUSH32 0x8C379A000000000000000000000000000000000000000000000000000000000 DUP2 MSTORE PUSH1 0x4 ADD PUSH2 0x2C9 SWAP1 PUSH2 0x989 JUMP JUMPDEST PUSH1 0x40 MLOAD DUP1 SWAP2 SUB SWAP1 REVERT JUMPDEST PUSH0 PUSH1 0x5 PUSH0 CALLER PUSH20 0xFFFFFFFFFFFFFFFFFFFFFFFFFFFFFFFFFFFFFFFF AND PUSH20 0xFFFFFFFFFFFFFFFFFFFFFFFFFFFFFFFFFFFFFFFF AND DUP2 MSTORE PUSH1 0x20 ADD SWAP1 DUP2 MSTORE PUSH1 0x20 ADD PUSH0 KECCAK256 PUSH0 SWAP1 SLOAD SWAP1 PUSH2 0x100 EXP SWAP1 DIV PUSH0 SIGNEXTEND PUSH0 SIGNEXTEND EQ PUSH2 0x35E JUMPI PUSH1 0x40 MLOAD PUSH32 0x8C379A000000000000000000000000000000000000000000000000000000000 DUP2 MSTORE PUSH1 0x4 ADD PUSH2 0x355 SWAP1 PUSH2 0x9F1 JUMP JUMPDEST PUSH1 0x40 MLOAD DUP1 SWAP2 SUB SWAP1 REVERT JUMPDEST DUP1 ISZERO PUSH2 0x3D9 JUMPI PUSH1 0x1 PUSH1 0x5 PUSH0 CALLER PUSH20 0xFFFFFFFFFFFFFFFFFFFFFFFFFFFFFFFFFFFFFFFF AND PUSH20 0xFFFFFFFFFFFFFFFFFFFFFFFFFFFFFFFFFFFFFFFF AND DUP2 MSTORE PUSH1 0x20 ADD SWAP1 DUP2 MSTORE PUSH1 0x20 ADD PUSH0 KECCAK256 PUSH0 PUSH2 0x100 EXP DUP2 SLOAD DUP2 PUSH1 0xFF MUL NOT AND SWAP1 DUP4 PUSH0 SIGNEXTEND PUSH1 0xFF AND MUL OR SWAP1 SSTORE POP CALLVALUE PUSH1 0x7 PUSH0 DUP3 DUP3 SLOAD PUSH2 0x3CD SWAP2 SWAP1 PUSH2 0xA3C JUMP JUMPDEST SWAP3 POP POP DUP2 SWAP1 SSTORE POP PUSH2 0x469 JUMP JUMPDEST PUSH32 0xFFFFFFFFFFFFFFFFFFFFFFFFFFFFFFFFFFFFFFFFFFFFFFFFFFFFFFFFFFFFFFFF PUSH1 0x5 PUSH0 CALLER PUSH20 0xFFFFFFFFFFFFFFFFFFFFFFFFFFFFFFFFFFFFFFFF AND PUSH20 0xFFFFFFFFFFFFFFFFFFFFFFFFFFFFFFFFFFFFFFFF AND DUP2 MSTORE PUSH1 0x20 ADD SWAP1 DUP2 MSTORE PUSH1 0x20 ADD PUSH0 KECCAK256 PUSH0 PUSH2 0x100 EXP DUP2 SLOAD DUP2 PUSH1 0xFF MUL NOT AND SWAP1 DUP4 PUSH0 SIGNEXTEND PUSH1 0xFF AND MUL OR SWAP1 SSTORE POP CALLVALUE PUSH1 0x8 PUSH0 DUP3 DUP3 SLOAD PUSH2 0x461 SWAP2 SWAP1 PUSH2 0xA3C JUMP JUMPDEST SWAP3 POP POP DUP2 SWAP1 SSTORE POP JUMPDEST CALLVALUE PUSH1 0x6 PUSH0 CALLER PUSH20 0xFFFFFFFFFFFFFFFFFFFFFFFFFFFFFFFFFFFFFFFF AND PUSH20 0xFFFFFFFFFFFFFFFFFFFFFFFFFFFFFFFFFFFFFFFF AND DUP2 MSTORE PUSH1 0x20 ADD SWAP1 DUP2 MSTORE PUSH1 0x20 ADD PUSH0 KECCAK256 PUSH0 DUP3 DUP3 SLOAD PUSH2 0x4B5 SWAP2 SWAP1 PUSH2 0xA3C JUMP JUMPDEST SWAP3 POP POP DUP2 SWAP1 SSTORE POP POP JUMP JUMPDEST PUSH1 0x8 SLOAD DUP2 JUMP JUMPDEST PUSH1 0x6 PUSH1 0x20 MSTORE DUP1 PUSH0 MSTORE PUSH1 0x40 PUSH0 KECCAK256 PUSH0 SWAP2 POP SWAP1 POP SLOAD DUP2 JUMP JUMPDEST PUSH1 0x1 SLOAD DUP2 JUMP JUMPDEST PUSH1 0x2 SLOAD DUP2 JUMP JUMPDEST PUSH1 0x7 SLOAD DUP2 JUMP JUMPDEST PUSH1 0x3 SLOAD TIMESTAMP GT PUSH2 0x530 JUMPI PUSH1 0x40 MLOAD PUSH32 0x8C379A000000000000000000000000000000000000000000000000000000000 DUP2 MSTORE PUSH1 0x4 ADD PUSH2 0x527 SWAP1 PUSH2 0xAB9 JUMP JUMPDEST PUSH1 0x40 MLOAD DUP1 SWAP2 SUB SWAP1 REVERT JUMPDEST PUSH1 0x4 SLOAD PUSH1 0x3 SLOAD PUSH2 0x540 SWAP2 SWAP1 PUSH2 0xA3C JUMP JUMPDEST TIMESTAMP LT PUSH2 0x581 JUMPI PUSH1 0x40 MLOAD PUSH32 0x8C379A000000000000000000000000000000000000000000000000000000000 DUP2 MSTORE PUSH1 0x4 ADD PUSH2 0x578 SWAP1 PUSH2 0xB21 JUMP JUMPDEST PUSH1 0x40 MLOAD DUP1 SWAP2 SUB SWAP1 REVERT JUMPDEST PUSH0 DUP1 PUSH0 DUP1 PUSH0 DUP1 PUSH0 SWAP1 SLOAD SWAP1 PUSH2 0x100 EXP SWAP1 DIV PUSH20 0xFFFFFFFFFFFFFFFFFFFFFFFFFFFFFFFFFFFFFFFF AND PUSH20 0xFFFFFFFFFFFFFFFFFFFFFFFFFFFFFFFFFFFFFFFF AND PUSH4 0xFEAF968C PUSH1 0x40 MLOAD DUP2 PUSH4 0xFFFFFFFF AND PUSH1 0xE0 SHL DUP2 MSTORE PUSH1 0x4 ADD PUSH1 0xA0 PUSH1 0x40 MLOAD DUP1 DUP4 SUB DUP2 DUP7 GAS STATICCALL ISZERO DUP1 ISZERO PUSH2 0x5EF JUMPI RETURNDATASIZE PUSH0 DUP1 RETURNDATACOPY RETURNDATASIZE PUSH0 REVERT JUMPDEST POP POP POP POP PUSH1 0x40 MLOAD RETURNDATASIZE PUSH1 0x1F NOT PUSH1 0x1F DUP3 ADD AND DUP3 ADD DUP1 PUSH1 0x40 MSTORE POP DUP2 ADD SWAP1 PUSH2 0x613 SWAP2 SWAP1 PUSH2 0xBD2 JUMP JUMPDEST SWAP5 POP SWAP5 POP SWAP5 POP SWAP5 POP SWAP5 POP PUSH1 0x1 SLOAD DUP5 SLT PUSH2 0x633 JUMPI PUSH1 0x1 PUSH1 0x2 DUP2 SWAP1 SSTORE POP PUSH2 0x65B JUMP JUMPDEST PUSH32 0xFFFFFFFFFFFFFFFFFFFFFFFFFFFFFFFFFFFFFFFFFFFFFFFFFFFFFFFFFFFFFFFF PUSH1 0x2 DUP2 SWAP1 SSTORE POP JUMPDEST POP POP POP POP POP JUMP JUMPDEST PUSH1 0x2 SLOAD PUSH1 0x5 PUSH0 CALLER PUSH20 0xFFFFFFFFFFFFFFFFFFFFFFFFFFFFFFFFFFFFFFFF AND PUSH20 0xFFFFFFFFFFFFFFFFFFFFFFFFFFFFFFFFFFFFFFFF AND DUP2 MSTORE PUSH1 0x20 ADD SWAP1 DUP2 MSTORE PUSH1 0x20 ADD PUSH0 KECCAK256 PUSH0 SWAP1 SLOAD SWAP1 PUSH2 0x100 EXP SWAP1 DIV PUSH0 SIGNEXTEND PUSH0 SIGNEXTEND EQ PUSH2 0x6F0 JUMPI PUSH1 0x40 MLOAD PUSH32 0x8C379A000000000000000000000000000000000000000000000000000000000 DUP2 MSTORE PUSH1 0x4 ADD PUSH2 0x6E7 SWAP1 PUSH2 0xC93 JUMP JUMPDEST PUSH1 0x40 MLOAD DUP1 SWAP2 SUB SWAP1 REVERT JUMPDEST JUMP JUMPDEST PUSH1 0x4 SLOAD DUP2 JUMP JUMPDEST PUSH0 DUP1 SLOAD SWAP1 PUSH2 0x100 EXP SWAP1 DIV PUSH20 0xFFFFFFFFFFFFFFFFFFFFFFFFFFFFFFFFFFFFFFFF AND DUP2 JUMP JUMPDEST PUSH1 0x5 PUSH1 0x20 MSTORE DUP1 PUSH0 MSTORE PUSH1 0x40 PUSH0 KECCAK256 PUSH0 SWAP2 POP SLOAD SWAP1 PUSH2 0x100 EXP SWAP1 DIV PUSH0 SIGNEXTEND DUP2 JUMP JUMPDEST PUSH1 0x3 SLOAD DUP2 JUMP JUMPDEST PUSH0 DUP1 REVERT JUMPDEST PUSH0 DUP2 ISZERO ISZERO SWAP1 POP SWAP2 SWAP1 POP JUMP JUMPDEST PUSH2 0x755 DUP2 PUSH2 0x741 JUMP JUMPDEST DUP2 EQ PUSH2 0x75F JUMPI PUSH0 DUP1 REVERT JUMPDEST POP JUMP JUMPDEST PUSH0 DUP2 CALLDATALOAD SWAP1 POP PUSH2 0x770 DUP2 PUSH2 0x74C JUMP JUMPDEST SWAP3 SWAP2 POP POP JUMP JUMPDEST PUSH0 PUSH1 0x20 DUP3 DUP5 SUB SLT ISZERO PUSH2 0x78B JUMPI PUSH2 0x78A PUSH2 0x73D JUMP JUMPDEST JUMPDEST PUSH0 PUSH2 0x798 DUP5 DUP3 DUP6 ADD PUSH2 0x762 JUMP JUMPDEST SWAP2 POP POP SWAP3 SWAP2 POP POP JUMP JUMPDEST PUSH0 DUP2 SWAP1 POP SWAP2 SWAP1 POP JUMP JUMPDEST PUSH2 0x7B3 DUP2 PUSH2 0x7A1 JUMP JUMPDEST DUP3 MSTORE POP POP JUMP JUMPDEST PUSH0 PUSH1 0x20 DUP3 ADD SWAP1 POP PUSH2 0x7CC PUSH0 DUP4 ADD DUP5 PUSH2 0x7AA JUMP JUMPDEST SWAP3 SWAP2 POP POP JUMP JUMPDEST PUSH0 PUSH20 0xFFFFFFFFFFFFFFFFFFFFFFFFFFFFFFFFFFFFFFFF DUP3 AND SWAP1 POP SWAP2 SWAP1 POP JUMP JUMPDEST PUSH0 PUSH2 0x7FB DUP3 PUSH2 0x7D2 JUMP JUMPDEST SWAP1 POP SWAP2 SWAP1 POP JUMP JUMPDEST PUSH2 0x80B DUP2 PUSH2 0x7F1 JUMP JUMPDEST DUP2 EQ PUSH2 0x815 JUMPI PUSH0 DUP1 REVERT JUMPDEST POP JUMP JUMPDEST PUSH0 DUP2 CALLDATALOAD SWAP1 POP PUSH2 0x826 DUP2 PUSH2 0x802 JUMP JUMPDEST SWAP3 SWAP2 POP POP JUMP JUMPDEST PUSH0 PUSH1 0x20 DUP3 DUP5 SUB SLT ISZERO PUSH2 0x841 JUMPI PUSH2 0x840 PUSH2 0x73D JUMP JUMPDEST JUMPDEST PUSH0 PUSH2 0x84E DUP5 DUP3 DUP6 ADD PUSH2 0x818 JUMP JUMPDEST SWAP2 POP POP SWAP3 SWAP2 POP POP JUMP JUMPDEST PUSH0 DUP2 SWAP1 POP SWAP2 SWAP1 POP JUMP JUMPDEST PUSH2 0x869 DUP2 PUSH2 0x857 JUMP JUMPDEST DUP3 MSTORE POP POP JUMP JUMPDEST PUSH0 PUSH1 0x20 DUP3 ADD SWAP1 POP PUSH2 0x882 PUSH0 DUP4 ADD DUP5 PUSH2 0x860 JUMP JUMPDEST SWAP3 SWAP2 POP POP JUMP JUMPDEST PUSH0 DUP2 SWAP1 POP SWAP2 SWAP1 POP JUMP JUMPDEST PUSH0 PUSH2 0x8AB PUSH2 0x8A6 PUSH2 0x8A1 DUP5 PUSH2 0x7D2 JUMP JUMPDEST PUSH2 0x888 JUMP JUMPDEST PUSH2 0x7D2 JUMP JUMPDEST SWAP1 POP SWAP2 SWAP1 POP JUMP JUMPDEST PUSH0 PUSH2 0x8BC DUP3 PUSH2 0x891 JUMP JUMPDEST SWAP1 POP SWAP2 SWAP1 POP JUMP JUMPDEST PUSH0 PUSH2 0x8CD DUP3 PUSH2 0x8B2 JUMP JUMPDEST SWAP1 POP SWAP2 SWAP1 POP JUMP JUMPDEST PUSH2 0x8DD DUP2 PUSH2 0x8C3 JUMP JUMPDEST DUP3 MSTORE POP POP JUMP JUMPDEST PUSH0 PUSH1 0x20 DUP3 ADD SWAP1 POP PUSH2 0x8F6 PUSH0 DUP4 ADD DUP5 PUSH2 0x8D4 JUMP JUMPDEST SWAP3 SWAP2 POP POP JUMP JUMPDEST PUSH0 DUP2 PUSH0 SIGNEXTEND SWAP1 POP SWAP2 SWAP1 POP JUMP JUMPDEST PUSH2 0x910 DUP2 PUSH2 0x8FC JUMP JUMPDEST DUP3 MSTORE POP POP JUMP JUMPDEST PUSH0 PUSH1 0x20 DUP3 ADD SWAP1 POP PUSH2 0x929 PUSH0 DUP4 ADD DUP5 PUSH2 0x907 JUMP JUMPDEST SWAP3 SWAP2 POP POP JUMP JUMPDEST PUSH0 DUP3 DUP3 MSTORE PUSH1 0x20 DUP3 ADD SWAP1 POP SWAP3 SWAP2 POP POP JUMP JUMPDEST PUSH32 0x4E6F2076616C756520696D206265740000000000000000000000000000000000 PUSH0 DUP3 ADD MSTORE POP JUMP JUMPDEST PUSH0 PUSH2 0x973 PUSH1 0xF DUP4 PUSH2 0x92F JUMP JUMPDEST SWAP2 POP PUSH2 0x97E DUP3 PUSH2 0x93F JUMP JUMPDEST PUSH1 0x20 DUP3 ADD SWAP1 POP SWAP2 SWAP1 POP JUMP JUMPDEST PUSH0 PUSH1 0x20 DUP3 ADD SWAP1 POP DUP2 DUP2 SUB PUSH0 DUP4 ADD MSTORE PUSH2 0x9A0 DUP2 PUSH2 0x967 JUMP JUMPDEST SWAP1 POP SWAP2 SWAP1 POP JUMP JUMPDEST PUSH32 0x42657420616C726561647920706C616365640000000000000000000000000000 PUSH0 DUP3 ADD MSTORE POP JUMP JUMPDEST PUSH0 PUSH2 0x9DB PUSH1 0x12 DUP4 PUSH2 0x92F JUMP JUMPDEST SWAP2 POP PUSH2 0x9E6 DUP3 PUSH2 0x9A7 JUMP JUMPDEST PUSH1 0x20 DUP3 ADD SWAP1 POP SWAP2 SWAP1 POP JUMP JUMPDEST PUSH0 PUSH1 0x20 DUP3 ADD SWAP1 POP DUP2 DUP2 SUB PUSH0 DUP4 ADD MSTORE PUSH2 0xA08 DUP2 PUSH2 0x9CF JUMP JUMPDEST SWAP1 POP SWAP2 SWAP1 POP JUMP JUMPDEST PUSH32 0x4E487B7100000000000000000000000000000000000000000000000000000000 PUSH0 MSTORE PUSH1 0x11 PUSH1 0x4 MSTORE PUSH1 0x24 PUSH0 REVERT JUMPDEST PUSH0 PUSH2 0xA46 DUP3 PUSH2 0x7A1 JUMP JUMPDEST SWAP2 POP PUSH2 0xA51 DUP4 PUSH2 0x7A1 JUMP JUMPDEST SWAP3 POP DUP3 DUP3 ADD SWAP1 POP DUP1 DUP3 GT ISZERO PUSH2 0xA69 JUMPI PUSH2 0xA68 PUSH2 0xA0F JUMP JUMPDEST JUMPDEST SWAP3 SWAP2 POP POP JUMP JUMPDEST PUSH32 0x496E2070726F6772657373000000000000000000000000000000000000000000 PUSH0 DUP3 ADD MSTORE POP JUMP JUMPDEST PUSH0 PUSH2 0xAA3 PUSH1 0xB DUP4 PUSH2 0x92F JUMP JUMPDEST SWAP2 POP PUSH2 0xAAE DUP3 PUSH2 0xA6F JUMP JUMPDEST PUSH1 0x20 DUP3 ADD SWAP1 POP SWAP2 SWAP1 POP JUMP JUMPDEST PUSH0 PUSH1 0x20 DUP3 ADD SWAP1 POP DUP2 DUP2 SUB PUSH0 DUP4 ADD MSTORE PUSH2 0xAD0 DUP2 PUSH2 0xA97 JUMP JUMPDEST SWAP1 POP SWAP2 SWAP1 POP JUMP JUMPDEST PUSH32 0x50617373656420746865206C696D697400000000000000000000000000000000 PUSH0 DUP3 ADD MSTORE POP JUMP JUMPDEST PUSH0 PUSH2 0xB0B PUSH1 0x10 DUP4 PUSH2 0x92F JUMP JUMPDEST SWAP2 POP PUSH2 0xB16 DUP3 PUSH2 0xAD7 JUMP JUMPDEST PUSH1 0x20 DUP3 ADD SWAP1 POP SWAP2 SWAP1 POP JUMP JUMPDEST PUSH0 PUSH1 0x20 DUP3 ADD SWAP1 POP DUP2 DUP2 SUB PUSH0 DUP4 ADD MSTORE PUSH2 0xB38 DUP2 PUSH2 0xAFF JUMP JUMPDEST SWAP1 POP SWAP2 SWAP1 POP JUMP JUMPDEST PUSH0 PUSH10 0xFFFFFFFFFFFFFFFFFFFF DUP3 AND SWAP1 POP SWAP2 SWAP1 POP JUMP JUMPDEST PUSH2 0xB5D DUP2 PUSH2 0xB3F JUMP JUMPDEST DUP2 EQ PUSH2 0xB67 JUMPI PUSH0 DUP1 REVERT JUMPDEST POP JUMP JUMPDEST PUSH0 DUP2 MLOAD SWAP1 POP PUSH2 0xB78 DUP2 PUSH2 0xB54 JUMP JUMPDEST SWAP3 SWAP2 POP POP JUMP JUMPDEST PUSH2 0xB87 DUP2 PUSH2 0x857 JUMP JUMPDEST DUP2 EQ PUSH2 0xB91 JUMPI PUSH0 DUP1 REVERT JUMPDEST POP JUMP JUMPDEST PUSH0 DUP2 MLOAD SWAP1 POP PUSH2 0xBA2 DUP2 PUSH2 0xB7E JUMP JUMPDEST SWAP3 SWAP2 POP POP JUMP JUMPDEST PUSH2 0xBB1 DUP2 PUSH2 0x7A1 JUMP JUMPDEST DUP2 EQ PUSH2 0xBBB JUMPI PUSH0 DUP1 REVERT JUMPDEST POP JUMP JUMPDEST PUSH0 DUP2 MLOAD SWAP1 POP PUSH2 0xBCC DUP2 PUSH2 0xBA8 JUMP JUMPDEST SWAP3 SWAP2 POP POP JUMP JUMPDEST PUSH0 DUP1 PUSH0 DUP1 PUSH0 PUSH1 0xA0 DUP7 DUP9 SUB SLT ISZERO PUSH2 0xBEB JUMPI PUSH2 0xBEA PUSH2 0x73D JUMP JUMPDEST JUMPDEST PUSH0 PUSH2 0xBF8 DUP9 DUP3 DUP10 ADD PUSH2 0xB6A JUMP JUMPDEST SWAP6 POP POP PUSH1 0x20 PUSH2 0xC09 DUP9 DUP3 DUP10 ADD PUSH2 0xB94 JUMP JUMPDEST SWAP5 POP POP PUSH1 0x40 PUSH2 0xC1A DUP9 DUP3 DUP10 ADD PUSH2 0xBBE JUMP JUMPDEST SWAP4 POP POP PUSH1 0x60 PUSH2 0xC2B DUP9 DUP3 DUP10 ADD PUSH2 0xBBE JUMP JUMPDEST SWAP3 POP POP PUSH1 0x80 PUSH2 0xC3C DUP9 DUP3 DUP10 ADD PUSH2 0xB6A JUMP JUMPDEST SWAP2 POP POP SWAP3 SWAP6 POP SWAP3 SWAP6 SWAP1 SWAP4 POP JUMP JUMPDEST PUSH32 0x446964206E6F742077696E000000000000000000000000000000000000000000 PUSH0 DUP3 ADD MSTORE POP JUMP JUMPDEST PUSH0 PUSH2 0xC7D PUSH1 0xB DUP4 PUSH2 0x92F JUMP JUMPDEST SWAP2 POP PUSH2 0xC88 DUP3 PUSH2 0xC49 JUMP JUMPDEST PUSH1 0x20 DUP3 ADD SWAP1 POP SWAP2 SWAP1 POP JUMP JUMPDEST PUSH0 PUSH1 0x20 DUP3 ADD SWAP1 POP DUP2 DUP2 SUB PUSH0 DUP4 ADD MSTORE PUSH2 0xCAA DUP2 PUSH2 0xC71 JUMP JUMPDEST SWAP1 POP SWAP2 SWAP1 POP JUMP INVALID LOG2 PUSH5 0x6970667358 0x22 SLT KECCAK256 DIV REVERT 0xB0 0xC3 SWAP5 SWAP1 DUP16 0xCA 0x2A PC 0xA9 0xFB DUP12 0xB2 BYTE PUSH19 0x1B259F9B1D2AA36E1672F7858CEC224264736F PUSH13 0x634300081A0033000000000000 "
		},
		"gasEstimates": {
			"creation": {
				"codeDepositCost": "660600",
				"executionCost": "infinite",
				"totalCost": "infinite"
			},
			"external": {
				"bets(address)": "2923",
				"claim()": "4802",
				"end()": "2535",
				"endLimit()": "2469",
				"expected()": "2492",
				"finalize()": "infinite",
				"noStake()": "2448",
				"outcome()": "2514",
				"placeBet(bool)": "infinite",
				"redstoneOracle()": "infinite",
				"stakes(address)": "2847",
				"yesStake()": "2536"
			}
		},
		"methodIdentifiers": {
			"bets(address)": "89a78f1a",
			"claim()": "4e71d92d",
			"end()": "efbe1c1c",
			"endLimit()": "7a1fc2e2",
			"expected()": "1ce62383",
			"finalize()": "4bb278f3",
			"noStake()": "14bc116f",
			"outcome()": "27793f87",
			"placeBet(bool)": "096a3778",
			"redstoneOracle()": "86e51427",
			"stakes(address)": "16934fc4",
			"yesStake()": "28ea6dda"
		}
	},
	"abi": [
		{
			"inputs": [
				{
					"internalType": "address",
					"name": "_redstoneOracle",
					"type": "address"
				},
				{
					"internalType": "int256",
					"name": "_expected",
					"type": "int256"
				},
				{
					"internalType": "uint256",
					"name": "_end",
					"type": "uint256"
				}
			],
			"stateMutability": "nonpayable",
			"type": "constructor"
		},
		{
			"inputs": [
				{
					"internalType": "address",
					"name": "",
					"type": "address"
				}
			],
			"name": "bets",
			"outputs": [
				{
					"internalType": "int8",
					"name": "",
					"type": "int8"
				}
			],
			"stateMutability": "view",
			"type": "function"
		},
		{
			"inputs": [],
			"name": "claim",
			"outputs": [],
			"stateMutability": "nonpayable",
			"type": "function"
		},
		{
			"inputs": [],
			"name": "end",
			"outputs": [
				{
					"internalType": "uint256",
					"name": "",
					"type": "uint256"
				}
			],
			"stateMutability": "view",
			"type": "function"
		},
		{
			"inputs": [],
			"name": "endLimit",
			"outputs": [
				{
					"internalType": "uint256",
					"name": "",
					"type": "uint256"
				}
			],
			"stateMutability": "view",
			"type": "function"
		},
		{
			"inputs": [],
			"name": "expected",
			"outputs": [
				{
					"internalType": "int256",
					"name": "",
					"type": "int256"
				}
			],
			"stateMutability": "view",
			"type": "function"
		},
		{
			"inputs": [],
			"name": "finalize",
			"outputs": [],
			"stateMutability": "nonpayable",
			"type": "function"
		},
		{
			"inputs": [],
			"name": "noStake",
			"outputs": [
				{
					"internalType": "uint256",
					"name": "",
					"type": "uint256"
				}
			],
			"stateMutability": "view",
			"type": "function"
		},
		{
			"inputs": [],
			"name": "outcome",
			"outputs": [
				{
					"internalType": "int256",
					"name": "",
					"type": "int256"
				}
			],
			"stateMutability": "view",
			"type": "function"
		},
		{
			"inputs": [
				{
					"internalType": "bool",
					"name": "_outcome",
					"type": "bool"
				}
			],
			"name": "placeBet",
			"outputs": [],
			"stateMutability": "payable",
			"type": "function"
		},
		{
			"inputs": [],
			"name": "redstoneOracle",
			"outputs": [
				{
					"internalType": "contract AggregatorV3Interface",
					"name": "",
					"type": "address"
				}
			],
			"stateMutability": "view",
			"type": "function"
		},
		{
			"inputs": [
				{
					"internalType": "address",
					"name": "",
					"type": "address"
				}
			],
			"name": "stakes",
			"outputs": [
				{
					"internalType": "uint256",
					"name": "",
					"type": "uint256"
				}
			],
			"stateMutability": "view",
			"type": "function"
		},
		{
			"inputs": [],
			"name": "yesStake",
			"outputs": [
				{
					"internalType": "uint256",
					"name": "",
					"type": "uint256"
				}
			],
			"stateMutability": "view",
			"type": "function"
		}
	]
}